{
	"_format": "sphinx-sol-ct-artifact-1",
	"merkleRoot": "0x0aaf738686898dbbe3a4503e2e154ed13623f17825170f5fcf6e166bdd76326d",
	"contractName": "Banny721TokenUriResolver",
	"address": "0x81D9B8F2598Fa8d0Bb0C708150433BfdF05bb89a",
	"abi": [
		{
			"type": "constructor",
			"inputs": [
				{
					"name": "owner",
					"type": "address",
					"internalType": "address"
				},
				{
					"name": "trustedForwarder",
					"type": "address",
					"internalType": "address"
				}
			],
			"stateMutability": "nonpayable"
		},
		{
			"type": "function",
			"name": "_nameOf",
			"inputs": [
				{
					"name": "tokenId",
					"type": "uint256",
					"internalType": "uint256"
				},
				{
					"name": "tierId",
					"type": "uint256",
					"internalType": "uint256"
				},
				{
					"name": "category",
					"type": "uint256",
					"internalType": "uint256"
				}
			],
			"outputs": [
				{
					"name": "",
					"type": "string",
					"internalType": "string"
				}
			],
			"stateMutability": "view"
		},
		{
			"type": "function",
			"name": "assetIdsOf",
			"inputs": [
				{
					"name": "nakedBannyId",
					"type": "uint256",
					"internalType": "uint256"
				}
			],
			"outputs": [
				{
					"name": "worldId",
					"type": "uint256",
					"internalType": "uint256"
				},
				{
					"name": "outfitIds",
					"type": "uint256[]",
					"internalType": "uint256[]"
				}
			],
			"stateMutability": "view"
		},
		{
			"type": "function",
			"name": "bannySvgOf",
			"inputs": [
				{
					"name": "hook",
					"type": "address",
					"internalType": "address"
				},
				{
					"name": "tokenId",
					"type": "uint256",
					"internalType": "uint256"
				},
				{
					"name": "shouldBeDressed",
					"type": "bool",
					"internalType": "bool"
				},
				{
					"name": "shouldIncludeWorld",
					"type": "bool",
					"internalType": "bool"
				}
			],
			"outputs": [
				{
					"name": "",
					"type": "string",
					"internalType": "string"
				}
			],
			"stateMutability": "view"
		},
		{
			"type": "function",
			"name": "decorateBannyWith",
			"inputs": [
				{
					"name": "hook",
					"type": "address",
					"internalType": "address"
				},
				{
					"name": "nakedBannyId",
					"type": "uint256",
					"internalType": "uint256"
				},
				{
					"name": "worldId",
					"type": "uint256",
					"internalType": "uint256"
				},
				{
					"name": "outfitIds",
					"type": "uint256[]",
					"internalType": "uint256[]"
				}
			],
			"outputs": [],
			"stateMutability": "nonpayable"
		},
		{
			"type": "function",
			"name": "isTrustedForwarder",
			"inputs": [
				{
					"name": "forwarder",
					"type": "address",
					"internalType": "address"
				}
			],
			"outputs": [
				{
					"name": "",
					"type": "bool",
					"internalType": "bool"
				}
			],
			"stateMutability": "view"
		},
		{
			"type": "function",
			"name": "nameOf",
			"inputs": [
				{
					"name": "hook",
					"type": "address",
					"internalType": "address"
				},
				{
					"name": "tokenId",
					"type": "uint256",
					"internalType": "uint256"
				}
			],
			"outputs": [
				{
					"name": "",
					"type": "string",
					"internalType": "string"
				}
			],
			"stateMutability": "view"
		},
		{
			"type": "function",
			"name": "owner",
			"inputs": [],
			"outputs": [
				{
					"name": "",
					"type": "address",
					"internalType": "address"
				}
			],
			"stateMutability": "view"
		},
		{
			"type": "function",
			"name": "renounceOwnership",
			"inputs": [],
			"outputs": [],
			"stateMutability": "nonpayable"
		},
		{
			"type": "function",
			"name": "setSvgBaseUri",
			"inputs": [
				{
					"name": "baseUri",
					"type": "string",
					"internalType": "string"
				}
			],
			"outputs": [],
			"stateMutability": "nonpayable"
		},
		{
			"type": "function",
			"name": "setSvgContentsOf",
			"inputs": [
				{
					"name": "tierIds",
					"type": "uint256[]",
					"internalType": "uint256[]"
				},
				{
					"name": "svgContents",
					"type": "string[]",
					"internalType": "string[]"
				}
			],
			"outputs": [],
			"stateMutability": "nonpayable"
		},
		{
			"type": "function",
			"name": "setSvgHashsOf",
			"inputs": [
				{
					"name": "tierIds",
					"type": "uint256[]",
					"internalType": "uint256[]"
				},
				{
					"name": "svgHashs",
					"type": "bytes32[]",
					"internalType": "bytes32[]"
				}
			],
			"outputs": [],
			"stateMutability": "nonpayable"
		},
		{
			"type": "function",
			"name": "setTierNames",
			"inputs": [
				{
					"name": "tierIds",
					"type": "uint256[]",
					"internalType": "uint256[]"
				},
				{
					"name": "names",
					"type": "string[]",
					"internalType": "string[]"
				}
			],
			"outputs": [],
			"stateMutability": "nonpayable"
		},
		{
			"type": "function",
			"name": "svgBaseUri",
			"inputs": [],
			"outputs": [
				{
					"name": "",
					"type": "string",
					"internalType": "string"
				}
			],
			"stateMutability": "view"
		},
		{
			"type": "function",
			"name": "svgHashOf",
			"inputs": [
				{
					"name": "tierId",
					"type": "uint256",
					"internalType": "uint256"
				}
			],
			"outputs": [
				{
					"name": "",
					"type": "bytes32",
					"internalType": "bytes32"
				}
			],
			"stateMutability": "view"
		},
		{
			"type": "function",
			"name": "tokenUriOf",
			"inputs": [
				{
					"name": "hook",
					"type": "address",
					"internalType": "address"
				},
				{
					"name": "tokenId",
					"type": "uint256",
					"internalType": "uint256"
				}
			],
			"outputs": [
				{
					"name": "",
					"type": "string",
					"internalType": "string"
				}
			],
			"stateMutability": "view"
		},
		{
			"type": "function",
			"name": "transferOwnership",
			"inputs": [
				{
					"name": "newOwner",
					"type": "address",
					"internalType": "address"
				}
			],
			"outputs": [],
			"stateMutability": "nonpayable"
		},
		{
			"type": "function",
			"name": "trustedForwarder",
			"inputs": [],
			"outputs": [
				{
					"name": "",
					"type": "address",
					"internalType": "address"
				}
			],
			"stateMutability": "view"
		},
		{
			"type": "event",
			"name": "DecorateBanny",
			"inputs": [
				{
					"name": "hook",
					"type": "address",
					"indexed": true,
					"internalType": "address"
				},
				{
					"name": "nakenBannyId",
					"type": "uint256",
					"indexed": true,
					"internalType": "uint256"
				},
				{
					"name": "worldId",
					"type": "uint256",
					"indexed": false,
					"internalType": "uint256"
				},
				{
					"name": "outfitIds",
					"type": "uint256[]",
					"indexed": false,
					"internalType": "uint256[]"
				},
				{
					"name": "caller",
					"type": "address",
					"indexed": false,
					"internalType": "address"
				}
			],
			"anonymous": false
		},
		{
			"type": "event",
			"name": "OwnershipTransferred",
			"inputs": [
				{
					"name": "previousOwner",
					"type": "address",
					"indexed": true,
					"internalType": "address"
				},
				{
					"name": "newOwner",
					"type": "address",
					"indexed": true,
					"internalType": "address"
				}
			],
			"anonymous": false
		},
		{
			"type": "event",
			"name": "SetSvgBaseUri",
			"inputs": [
				{
					"name": "baseUri",
					"type": "string",
					"indexed": false,
					"internalType": "string"
				},
				{
					"name": "caller",
					"type": "address",
					"indexed": false,
					"internalType": "address"
				}
			],
			"anonymous": false
		},
		{
			"type": "event",
			"name": "SetSvgContents",
			"inputs": [
				{
					"name": "tierId",
					"type": "uint256[]",
					"indexed": true,
					"internalType": "uint256[]"
				},
				{
					"name": "svgContents",
					"type": "string[]",
					"indexed": false,
					"internalType": "string[]"
				},
				{
					"name": "caller",
					"type": "address",
					"indexed": false,
					"internalType": "address"
				}
			],
			"anonymous": false
		},
		{
			"type": "event",
			"name": "SetSvgHashes",
			"inputs": [
				{
					"name": "tierIds",
					"type": "uint256[]",
					"indexed": true,
					"internalType": "uint256[]"
				},
				{
					"name": "svgHashs",
					"type": "bytes32[]",
					"indexed": true,
					"internalType": "bytes32[]"
				},
				{
					"name": "caller",
					"type": "address",
					"indexed": false,
					"internalType": "address"
				}
			],
			"anonymous": false
		},
		{
			"type": "event",
			"name": "SetTierNames",
			"inputs": [
				{
					"name": "tierIds",
					"type": "uint256[]",
					"indexed": true,
					"internalType": "uint256[]"
				},
				{
					"name": "names",
					"type": "string[]",
					"indexed": false,
					"internalType": "string[]"
				},
				{
					"name": "caller",
					"type": "address",
					"indexed": false,
					"internalType": "address"
				}
			],
			"anonymous": false
		},
		{
			"type": "error",
			"name": "CONTENTS_ALREADY_STORED",
			"inputs": []
		},
		{
			"type": "error",
			"name": "CONTENTS_MISMATCH",
			"inputs": []
		},
		{
			"type": "error",
			"name": "FACE_ALREADY_ADDED",
			"inputs": []
		},
		{
			"type": "error",
			"name": "HASH_ALREADY_STORED",
			"inputs": []
		},
		{
			"type": "error",
			"name": "HASH_NOT_FOUND",
			"inputs": []
		},
		{
			"type": "error",
			"name": "HEAD_ALREADY_ADDED",
			"inputs": []
		},
		{
			"type": "error",
			"name": "ONESIE_ALREADY_ADDED",
			"inputs": []
		},
		{
			"type": "error",
			"name": "OwnableInvalidOwner",
			"inputs": [
				{
					"name": "owner",
					"type": "address",
					"internalType": "address"
				}
			]
		},
		{
			"type": "error",
			"name": "OwnableUnauthorizedAccount",
			"inputs": [
				{
					"name": "account",
					"type": "address",
					"internalType": "address"
				}
			]
		},
		{
			"type": "error",
			"name": "SUIT_ALREADY_ADDED",
			"inputs": []
		},
		{
			"type": "error",
			"name": "UNAUTHORIZED_OUTFIT",
			"inputs": []
		},
		{
			"type": "error",
			"name": "UNAUTHORIZED_WORLD",
			"inputs": []
		},
		{
			"type": "error",
			"name": "UNAUTHORIZED__NAKED_BANNY",
			"inputs": []
		},
		{
			"type": "error",
			"name": "UNORDERED_CATEGORIES",
			"inputs": []
		},
		{
			"type": "error",
			"name": "UNRECOGNIZED_CATEGORY",
			"inputs": []
		},
		{
			"type": "error",
			"name": "UNRECOGNIZED_OUTFIT",
			"inputs": []
		},
		{
			"type": "error",
			"name": "UNRECOGNIZED_TIER",
			"inputs": []
		},
		{
			"type": "error",
			"name": "UNRECOGNIZED_WORLD",
			"inputs": []
		}
	],
	"solcInputHash": "34cc6a561a78e5263382cb878d41a1e4",
	"args": [
		"0x584F5Da53cb18789099466074e3B5c32Ed17243a",
		"0xB2b5841DBeF766d4b521221732F9B618fCf34A87"
	],
	"bytecode": "0x60a034620000e957601f62005c3b38819003918201601f19168301916001600160401b03831184841017620000ee578084926040948552833981010312620000e9576200005a6020620000528362000104565b920162000104565b6080526001600160a01b039081168015620000d057600080546001600160a01b03198116831782556040519316907f8be0079c531659141344cd1fd0a4f28419497f9722a3daafe3b4186f6b6457e09080a3615b2190816200011a82396080518181816108e5015281816109e501526155c20152f35b604051631e4fbdf760e01b815260006004820152602490fd5b600080fd5b634e487b7160e01b600052604160045260246000fd5b51906001600160a01b0382168203620000e95756fe6080604052600436101561001257600080fd5b60003560e01c806257bfdd146101265780631e4578de1461012157806331a290ac1461011c5780634d03376e14610117578063572b6c05146101125780635e703e711461010d5780636aff31dd14610108578063715018a6146101035780637da0a877146100fe578063875e4bea146100f95780638da5cb5b146100f4578063aeac5e35146100ef578063b03a3eab146100ea578063c06e7bc7146100e5578063f2fde38b146100e0578063f92df2e3146100db5763fff628c6146100d657600080fd5b6114a9565b61147a565b6113ee565b610d95565b610cf2565b610bce565b610ba5565b610a14565b6109cf565b610971565b610945565b610919565b6108c1565b6107df565b610615565b610486565b61040b565b90600182811c9216801561015b575b602083101461014557565b634e487b7160e01b600052602260045260246000fd5b91607f169161013a565b634e487b7160e01b600052604160045260246000fd5b602081019081106001600160401b0382111761019657604052565b610165565b6111a081019081106001600160401b0382111761019657604052565b606081019081106001600160401b0382111761019657604052565b6101c081019081106001600160401b0382111761019657604052565b61026081019081106001600160401b0382111761019657604052565b604081019081106001600160401b0382111761019657604052565b90601f801991011681019081106001600160401b0382111761019657604052565b604051906000826002549161025a8361012b565b808352926020906001908181169081156102e85750600114610287575b505061028592500383610225565b565b91509260026000527f405787fa12a823e0f2b7631cc41b3ba8828b3321ca811111fa75cd3aa3bb5ace936000925b8284106102d057506102859450505081016020013880610277565b855488850183015294850194879450928101926102b5565b9150506020925061028594915060ff191682840152151560051b8201013880610277565b9060405191826000825461031f8161012b565b9081845260209460019160018116908160001461038d575060011461034e575b50505061028592500383610225565b600090815285812095935091905b818310610375575050610285935082010138808061033f565b8554888401850152948501948794509183019161035c565b9250505061028594925060ff191682840152151560051b82010138808061033f565b60005b8381106103c25750506000910152565b81810151838201526020016103b2565b906020916103eb815180928185528580860191016103af565b601f01601f1916010190565b9060206104089281815201906103d2565b90565b3461043f57600036600319011261043f5761043b610427610246565b6040519182916020835260208301906103d2565b0390f35b600080fd5b604081019181526060602091604060208201528151809452019160809160005b828110610472575050505090565b835185529381019392810192600101610464565b3461043f5760208060031936011261043f57600435906000918083526005602052604083209060405180938491602085549182815201948752602087209187905b82821061053457505050506104e1906104f1930384610225565b6000526006602052604060002090565b5491815191815b83811061050d576040518061043b8782610444565b8061051a60019284611529565b5161052d61052786611553565b95611504565b52016104f8565b8354875295860195879450600193840193909101906104c7565b604051906101a082018281106001600160401b0382111761019657604052565b6001600160401b0381116101965760051b60200190565b9080601f8301121561043f57602090823561059f8161056e565b936105ad6040519586610225565b81855260208086019260051b82010192831161043f57602001905b8282106105d6575050505090565b813581529083019083016105c8565b9181601f8401121561043f578235916001600160401b03831161043f576020808501948460051b01011161043f57565b3461043f5760408060031936011261043f576001600160401b036004803582811161043f576106479036908301610585565b9160243590811161043f5761065f90369083016105e5565b909183519060005b8281106106b0575050506106ab61069e7f7b414cb0ad21f3dfa349dbd1d4ca10eeb276661a7af9df6e18086aed7c31c8d694611750565b94519283923391846117ab565b0390a2005b6106ba8187611529565b516106d06106c9838789611567565b36916107a8565b906106ed6106e8826000526004602052604060002090565b6115a8565b61077d57610705816000526001602052604060002090565b54801561076d578951602081019061072f8161072184886115b2565b03601f198101835282610225565b5190200361075d5760019291610752610757926000526004602052604060002090565b61167b565b01610667565b88516375b5da0b60e01b81528490fd5b8951637ef41a4f60e01b81528590fd5b8851630388067760e21b81528490fd5b6001600160401b03811161019657601f01601f191660200190565b9291926107b48261078d565b916107c26040519384610225565b82948184528183011161043f578281602093846000960137010152565b3461043f57604036600319011261043f576001600160401b0360043581811161043f57610810903690600401610585565b60249060243583811161043f573660238201121561043f578060040135926108378461056e565b936108456040519586610225565b8085526020956024602087019260051b8501019336851161043f5760248101925b858410610879576108778888611848565b005b833583811161043f5782013660438201121561043f5789916108a58392369060448a82013591016107a8565b815201930192610866565b6001600160a01b0381160361043f57565b3461043f57602036600319011261043f5760206004356108e0816108b0565b6040517f00000000000000000000000000000000000000000000000000000000000000006001600160a01b039081169216919091148152f35b3461043f57604036600319011261043f5761043b61042760043561093c816108b0565b60243590611ca6565b3461043f57602036600319011261043f5760043560005260016020526020604060002054604051908152f35b3461043f576000806003193601126109cc5761098b612d3d565b80546001600160a01b03198116825581906001600160a01b03167f8be0079c531659141344cd1fd0a4f28419497f9722a3daafe3b4186f6b6457e08280a380f35b80fd5b3461043f57600036600319011261043f576040517f00000000000000000000000000000000000000000000000000000000000000006001600160a01b03168152602090f35b3461043f5760208060031936011261043f576004356001600160401b0380821161043f573660238301121561043f57816004013590811161043f57602492366024838501011161043f57610a66612d3d565b610a7a82610a7560025461012b565b6115e0565b600093601f8311600114610af8575050610acd81807f512c3c91736f50c57a0548c1d01ab02f24c420f002b8b20e2bfe63df9693cd3f95600091610aea575b508160011b916000199060031b1c19161790565b6002555b610ae560405192839260243392018461203e565b0390a1005b602491508501013538610ab9565b6002600052601f19831694907f405787fa12a823e0f2b7631cc41b3ba8828b3321ca811111fa75cd3aa3bb5ace9282915b878310610b8957505050827f512c3c91736f50c57a0548c1d01ab02f24c420f002b8b20e2bfe63df9693cd3f9510610b6c575b5050600181811b01600255610ad1565b830160240135600019600384901b60f8161c191690553880610b5c565b908060018596848396978b010135815501950193019190610b29565b3461043f57600036600319011261043f576000546040516001600160a01b039091168152602090f35b3461043f57604036600319011261043f57600435610beb816108b0565b60405163507f146560e01b815260243591906001600160a01b03906020816004818587165afa8015610cbc57610c629360009386938593610cc1575b5060405163c44a8e6d60e01b81526001600160a01b039092166004830152602482019390935260006044820152938492839182906064820190565b0392165afa918215610cbc5761043b92610c8d92600091610c99575b506101008151910151916126f5565b604051918291826103f7565b610cb691503d806000833e610cae8183610225565b810190611a99565b38610c7e565b611a35565b610ce491935060203d602011610ceb575b610cdc8183610225565b810190611a20565b9138610c27565b503d610cd2565b3461043f57604036600319011261043f576001600160401b0360043581811161043f57610d23903690600401610585565b9060243590811161043f573660238201121561043f578060040135610d478161056e565b91610d556040519384610225565b8183526020916024602085019160051b8301019136831161043f57602401905b828210610d86576108778587612067565b81358152908301908301610d75565b3461043f57608036600319011261043f57610db16004356108b0565b6064356001600160401b03811161043f57610dd09036906004016105e5565b906040516331a9108f60e11b815260208180610df6602435600483019190602083019252565b03816004356001600160a01b03165afa908115610cbc576000916113cf575b50610e2d610e216155bf565b6001600160a01b031690565b6001600160a01b03909116036113bd576044351561139f576040516331a9108f60e11b81526044356004820152602081806024810103816004356001600160a01b03165afa908115610cbc57600091611380575b50610e8d610e216155bf565b6001600160a01b039091160361136e5760405163507f146560e01b815260208160048181356001600160a01b03165afa908115610cbc5760009161134f575b5060405163c44a8e6d60e01b81526001600160a01b03600480358216908301526044803560248401526000908301819052919283916064918391165afa908115610cbc57600091611334575b50511561132257604435610f386024356000526006602052604060002090565b555b6000610f4461214a565b5080808080805b878610610fc4578787610f748282610f6f6024356000526005602052604060002090565b6121e3565b7f6a68946ba06488db8585d7c7637fa954b574035fe15720ea760125ef86017258610fbf610fa06155bf565b6040519182916024359660018060a01b0360043516966044358561225c565b0390a3005b610fcf8689896121bb565b6040516331a9108f60e11b81529035600482018190529290602081806024810103816004356001600160a01b03165afa908115610cbc57600091611303575b5061101a610e216155bf565b6001600160a01b03909116036112f15760405163507f146560e01b815260208160048181356001600160a01b03165afa938415610cbc576110999460009283916112d2575b50604051808097819463c44a8e6d60e01b8352600435600484016040906000929493606082019560018060a01b0316825260208201520152565b03916001600160a01b03165afa928315610cbc576000936112b7575b508251156112a5576101008301516002811090811561129a575b50611288578615159081611278575b506112665761010082015160048103611106575050600161010081925b015195019490610f4b565b9194909160058103611120575050600161010081956110fb565b90949290600b810361113a575050600161010081936110fb565b9293909260098103611154575050600161010081946110fb565b600d819592951490818215928361125c575b8015611252575b8061124b575b1561118a5760405163167e5dcd60e31b8152600490fd5b600682148081159182611241575b8015611237575b80611230575b156111bc57604051631e550b6f60e11b8152600490fd5b90611226575b8061121f575b156111df576040516354f653b360e01b8152600490fd5b91611214575b508061120d575b6111fb576101006001916110fb565b604051635e701b2b60e01b8152600490fd5b50826111ec565b600c915014386111e5565b50876111c8565b50600782146111c2565b50866111a5565b506008841461119f565b5060078414611198565b5086611173565b50600a821461116d565b50600c8214611166565b604051637dc0e82560e11b8152600490fd5b90506101008301511115386110de565b60405163c89badbd60e01b8152600490fd5b600f915011386110cf565b6040516354c0901d60e11b8152600490fd5b6112cb91933d8091833e610cae8183610225565b91386110b5565b6112eb915060203d602011610ceb57610cdc8183610225565b3861105f565b60405163812a698960e01b8152600490fd5b61131c915060203d602011610ceb57610cdc8183610225565b3861100e565b60405163265ba87960e01b8152600490fd5b61134991503d806000833e610cae8183610225565b38610f18565b611368915060203d602011610ceb57610cdc8183610225565b38610ecc565b604051639d17cec760e01b8152600490fd5b611399915060203d602011610ceb57610cdc8183610225565b38610e81565b60006113b76024356000526006602052604060002090565b55610f3a565b6040516307d59f1360e21b8152600490fd5b6113e8915060203d602011610ceb57610cdc8183610225565b38610e15565b3461043f57602036600319011261043f5760043561140b816108b0565b611413612d3d565b6001600160a01b03908116801561146157600080546001600160a01b03198116831782559092167f8be0079c531659141344cd1fd0a4f28419497f9722a3daafe3b4186f6b6457e08380a380f35b604051631e4fbdf760e01b815260006004820152602490fd5b3461043f57606036600319011261043f5761043b6104276044356024356004356126f5565b8015150361043f57565b3461043f57608036600319011261043f5761043b6104276004356114cc816108b0565b6044356114d88161149f565b606435916114e58361149f565b60243590612b67565b634e487b7160e01b600052603260045260246000fd5b6060518110156115175760051b60800190565b6114ee565b8051156115175760200190565b80518210156115175760209160051b010190565b634e487b7160e01b600052601160045260246000fd5b60001981146115625760010190565b61153d565b91908110156115175760051b81013590601e198136030182121561043f5701908135916001600160401b03831161043f57602001823603811361043f579190565b610408905461012b565b906115c5602092828151948592016103af565b0190565b8181106115d4575050565b600081556001016115c9565b90601f82116115ed575050565b6102859160026000527f405787fa12a823e0f2b7631cc41b3ba8828b3321ca811111fa75cd3aa3bb5ace906020601f840160051c83019310611637575b601f0160051c01906115c9565b909150819061162a565b9190601f811161165057505050565b610285926000526020600020906020601f840160051c8301931061163757601f0160051c01906115c9565b91909182516001600160401b038111610196576116a28161169c845461012b565b84611641565b602080601f83116001146116e5575081906116d69394956000926116da575b50508160011b916000199060031b1c19161790565b9055565b0151905038806116c1565b90601f198316956116fb85600052602060002090565b926000905b8882106117385750508360019596971061171f575b505050811b019055565b015160001960f88460031b161c19169055388080611715565b80600185968294968601518155019501930190611700565b60405190818183925160208092019160005b828110611773575050505003902090565b835185528695509381019392810192600101611762565b908060209392818452848401376000828201840152601f01601f1916010190565b9392919081604086016040875252606085019160608160051b87010192826000905b8382106117ef5750505050509060206102859294019060018060a01b03169052565b9091929394605f198982030184528535601e198336030181121561043f578201803560208092016001600160401b03821161043f57813603811361043f57600193839261183b9261178a565b97019594019201906117cd565b9190611852612d3d565b8251926000935b8085106118a657507f31ddb2f0a32be79206d6bf3e670f8cc38863c4984b95cdbe8ed6eba58207a3a5919293506118926118a191611750565b926040519182913390836119ac565b0390a2565b6118b08583611529565b51946118bc8185611529565b5195600052600360208181526040600020918851916001600160401b038311610196576118f3836118ed865461012b565b86611641565b8091601f8411600114611938575050908061192b926001969798999a6000926116da5750508160011b916000199060031b1c19161790565b90555b0193929190611859565b9091601f1984169a61194f86600052602060002090565b936000905b8d821061199457505084600198999a9b9c1061197a575b50505050831b8301905561192e565b01519060f884600019921b161c191690553880808061196b565b80600185978294968601518155019601930190611954565b909291926040820190604083528051809252606083019160608160051b850101916020809101936000905b8382106119f45750505050602091509360018060a01b0316910152565b909192938380611a10600193605f198b820301865289516103d2565b97019201920190949392916119d7565b9081602091031261043f5751610408816108b0565b6040513d6000823e3d90fd5b5190610285826108b0565b51906102858261149f565b81601f8201121561043f578051611a6d8161078d565b92611a7b6040519485610225565b8184526020828401011161043f5761040891602080850191016103af565b60208183031261043f5780516001600160401b039182821161043f57016101a08184031261043f57611ac961054e565b92815184526020820151602085015260408201516040850152606082015160608501526080820151608085015260a082015160a0850152611b0c60c08301611a41565b60c085015260e082015160e08501526101008083015190850152610120611b34818401611a4c565b90850152610140611b46818401611a4c565b90850152610160611b58818401611a4c565b90850152610180928383015190811161043f57611b759201611a57565b9082015290565b60405190611b898261017b565b60008252565b90604051918260605160005b818110611bd0575090602061028593611bc48294840191838301600081528151948592016103af565b01038085520183610225565b6020919250806080015182828801015201908491611b9b565b6020610285919392936040519481611c0a87935180928680870191016103af565b8201611bc4825180938680850191016103af565b9060208282031261043f5781516001600160401b03811161043f576104089201611a57565b9081602091031261043f575190565b90610285603d60405180947f646174613a6170706c69636174696f6e2f6a736f6e3b6261736536342c0000006020830152611c9681518092602086860191016103af565b810103601d810185520183610225565b6040805163507f146560e01b808252602094929392906001600160a01b03908185168785600481845afa948515610cbc5760009561201f575b50865163c44a8e6d60e01b81526001600160a01b03871660048201526024810185905260006044820181905290958690606490829087165afa948515610cbc57600095612004575b50845115611ff4576101008501805190939015611fea57611d49865188612df2565b968751611fb3575b875115611e87575050505094611e76611e68611e8296611de5611e01611de598611de5611deb8a611dc76104089f611d98611dae9d611dc29f92611d9f93519051916126f5565b92516146b9565b9488519c8d918d8301906115b2565b039b611dc2601f199d8e8101835282610225565b614893565b9651683d913730b6b2911d1160b91b9a81019a8b529c8d9a60090190565b906115b2565b691116101134b2111d101160b11b8152600a0190565b7f222c226465736372697074696f6e223a2241207069656365206f66207468652081527f42616e6e797665727365222c22696d616765223a22646174613a696d6167652f60208201526e1cdd99cade1b5b0ed8985cd94d8d0b608a1b6040820152604f0190565b61227d60f01b815260020190565b03908101835282610225565b611c52565b92965092600f9195505111600014611fa4578551636c0360eb60e01b8152600081600481885afa8015610cbc578891600091611f81575b50955b600488518097819382525afa918215610cbc57611f14968895600094611f62575b5051630c8df17160e41b81526001600160a01b0390921660048301526024820193909352948592839182906044820190565b0392165afa918215610cbc5761040893600093611f33575b5050614608565b611f53929350803d10611f5b575b611f4b8183610225565b810190611c43565b903880611f2c565b503d611f41565b611f7a919450863d8811610ceb57610cdc8183610225565b9238611ee2565b611f9e91503d806000833e611f968183610225565b810190611c1e565b38611ebe565b86611fad610246565b95611ec1565b96611fc6906001865103611fcc57614514565b96611d51565b611fe590611fe0611fdb612eed565b61444e565b611be9565b614514565b611fc68588612980565b5050505050505050610408611b7c565b61201891953d8091833e610cae8183610225565b9338611d27565b612037919550883d8a11610ceb57610cdc8183610225565b9338611cdf565b916020916120579195949560408552604085019161178a565b6001600160a01b03909416910152565b61206f612d3d565b805160005b8181106120ef57505061208690611750565b9060405190818183925160208092019160005b8281106120d857505050500390206040513381529091907fb0c948934b683b0d319be35a6898bce339f877d721976592196eef848acc69c390602090a3565b835185528695509381019392810192600101612099565b6120f98184611529565b516121048286611529565b51908060005260016020526040806000205461213a575090612133600193926000526001602052604060002090565b5501612074565b516333ded41b60e21b8152600490fd5b604051906101a082018281106001600160401b0382111761019657604052606061018083600080825280602083015280604083015280848301528060808301528060a08301528060c08301528060e08301528061010083015280610120830152806101408301526101608201520152565b91908110156115175760051b0190565b600281901b91906001600160fe1b0381160361156257565b906001600160401b0383116101965768010000000000000000831161019657815483835580841061223e575b50906000526020806000209060005b84811061222c575050505050565b8335838201559281019260010161221e565b612256908360005284602060002091820191016115c9565b3861220f565b9081526060602082018190528101839052929392916001600160fb1b03811161043f5760409160809160051b8091838601378301019360018060a01b0316910152565b60226102859193929360405194816122c18793518092602080870191016103af565b820161202360f01b60208201526122e182518093602087850191016103af565b01036002810185520183610225565b90610285602960405180946802a37b83834b7339d160bd1b602083015261232081518092602086860191016103af565b8101036009810185520183610225565b90610285602660405180946502334b9ba1d160d51b602083015261235d81518092602086860191016103af565b8101036006810185520183610225565b90610285602d60405180946c029bab4ba103137ba3a37b69d1609d1b60208301526123a181518092602086860191016103af565b810103600d810185520183610225565b90610285602a604051809469029bab4ba103a37b81d160b51b60208301526123e281518092602086860191016103af565b810103600a810185520183610225565b906102856026604051809465029bab4ba1d160d51b602083015261235d81518092602086860191016103af565b90610285602660405180946502432b0b21d160d51b602083015261235d81518092602086860191016103af565b90610285602660405180946502430b4b91d160d51b602083015261235d81518092602086860191016103af565b906102856027604051809466026b7baba341d160cd1b60208301526124a781518092602086860191016103af565b8101036007810185520183610225565b906102856026604051809465022bcb2b99d160d51b602083015261235d81518092602086860191016103af565b90610285602660405180946502330b1b29d160d51b602083015261235d81518092602086860191016103af565b90610285602a60405180946902732b1b5b630b1b29d160b51b60208301526123e281518092602086860191016103af565b906102856026604051809465029b437b29d160d51b602083015261235d81518092602086860191016103af565b90610285602a60405180946902130b1b5b9b4b2329d160b51b60208301526123e281518092602086860191016103af565b90610285602760405180946602bb7b936321d160cd1b60208301526124a781518092602086860191016103af565b906102856035604051809474027b934b3b4b730b6102730b5b2b2102130b7373c9605d1b602083015261260a81518092602086860191016103af565b8101036015810185520183610225565b906102856033604051809472027b930b733b2902730b5b2b2102130b7373c9606d1b602083015261265481518092602086860191016103af565b8101036013810185520183610225565b90610285603160405180947002834b735902730b5b2b2102130b7373c9607d1b602083015261269c81518092602086860191016103af565b8101036011810185520183610225565b906102856032604051809471020b634b2b7102730b5b2b2102130b7373c960751b60208301526126e581518092602086860191016103af565b8101036012810185520183610225565b91633b9aca008306916001810361271a57505050612715610408916146b9565b6126ac565b6002810361273657505050612731610408916146b9565b612664565b600381036127525750505061274d610408916146b9565b61261a565b6004810361276e57505050612769610408916146b9565b6125ce565b61278e91929350612789906000526003602052604060002090565b61030c565b9180612899575b50600181036127a85750610408906125a0565b600281036127ba57506104089061256f565b600a81036127cc575061040890612542565b600381036127de575061040890612511565b600581036127f05750610408906124e4565b600681036128025750610408906124b7565b60078103612814575061040890612479565b6008810361282657506104089061244c565b6004810361283857506104089061241f565b600b810361284a5750610408906123f2565b600d810361285c5750610408906123b1565b600c810361286e57506104089061236d565b600e8103612880575061040890612330565b600f146128905750610408611b7c565b610408906122f0565b90918051156000146128b757506128af906146b9565b905b38612795565b6128c36128c9926146b9565b9061229f565b906128b1565b919060408382031261043f5782519260209081810151906001600160401b03821161043f57019180601f8401121561043f57825161290c8161056e565b9361291a6040519586610225565b818552838086019260051b82010192831161043f578301905b828210612941575050505090565b81518152908301908301612933565b3d1561297b573d906129618261078d565b9161296f6040519384610225565b82523d6000602084013e565b606090565b60405163507f146560e01b8152906001600160a01b036020836004818585165afa928315610cbc57600093612b43575b5060405163c44a8e6d60e01b81526001600160a01b0383166004820152602481018590526000604482018190529093909184916064918391165afa918215610cbc57600092612b28575b50815115612b1d576060610100830151612af657604051630f22bc6f60e11b8152600481019490945261040893612a83929082906000908181602481305afa9081600091600093612acf575b50612ac157505090612a7b91612a5a612950565b505b80151580612ab9575b612a9f575b50612a758651614973565b90611be9565b935190615195565b8051612a90575b50614514565b612a9991611be9565b38612a8a565b612ab39150612aae9084612df2565b611b8f565b38612a6a565b506001612a65565b909450612a7b929150612a5c565b909250612aef91503d806000833e612ae78183610225565b8101906128cf565b9138612a46565b5090612b0492505190612df2565b805115612b145761040890614514565b50610408611b7c565b505050610408611b7c565b612b3c91923d8091833e610cae8183610225565b90386129fa565b6000919350612b609060203d602011610ceb57610cdc8183610225565b92906129b0565b60405163507f146560e01b8152909390916001600160a01b03602084600481848a165afa938415610cbc57600094612d19575b5060405163c44a8e6d60e01b81526001600160a01b0387166004820152602481018390526000604482018190529094909185916064918391165afa928315610cbc57600093612cfe575b50825115612cf157606094610100840151612ce157604051630f22bc6f60e11b81526004810192909252610408959182906000908181602481305afa9081600091600093612cc2575b50612cb2575050612c5f929394612c42612950565b505b8115159081612caa575b50612c95575b50612a758551614973565b93612c6d575b505050614514565b612c78925190615195565b8051612c86575b8080612c65565b612c8f91611be9565b38612c7f565b612ca49150612aae9084612df2565b38612c54565b905038612c4e565b909150612c5f9394509094612c44565b909250612cda91503d806000833e612ae78183610225565b9138612c2d565b93505050612b0492505190612df2565b5050505050610408611b7c565b612d1291933d8091833e610cae8183610225565b9138612be4565b6000919450612d369060203d602011610ceb57610cdc8183610225565b9390612b9a565b6000546001600160a01b0390811681612d546155bf565b1603612d5d5750565b602490612d686155bf565b60405163118cdaa760e01b815291166004820152fd5b9061028560566040518094751e339f1e34b6b0b3b2903c3634b7359d343932b31e9160511b6020830152612dbc8151809260206036860191016103af565b81017f222077696474683d2234303022206865696768743d22343030222f3e3c2f673e6036820152036036810185520183610225565b612e09612789836000526004602052604060002090565b8051612ee7575060405163507f146560e01b81526001600160a01b039260209283836004818489165afa908115610cbc57612e7c958594600093612ec8575b50604051632f54648f60e21b81526001600160a01b0390921660048301526024820193909352948592839182906044820190565b0392165afa8015610cbc5761040892612ea692600092612eab575b5050612ea1610246565b614608565b612d7e565b612ec19250803d10611f5b57611f4b8183610225565b3880612e97565b612ee0919350853d8711610ceb57610cdc8183610225565b9138612e48565b91505090565b60405190612efa8261019b565b61117a82527f762d31306833762d376833762d33682d31307a222f3e3c2f673e000000000000611180837f3c6720636c6173733d226131223e3c7061746820643d224d313733203533683460208201527f763137682d347a222f3e3c2f673e3c6720636c6173733d226132223e3c70617460408201527f6820643d224d3136372035376833763130682d337a222f3e3c7061746820643d60608201527f224d3136392035336834763137682d347a222f3e3c2f673e3c6720636c61737360808201527f3d226133223e3c7061746820643d224d31363720353368337634682d337a222f60a08201527f3e3c7061746820643d224d3136332035376834763130682d347a222f3e3c706160c08201527f746820643d224d31363720363768337633682d337a222f3e3c2f673e3c67206360e08201527f6c6173733d226231223e3c7061746820643d224d32313320323533682d33762d6101008201527f332d33682d33762d372d33682d34762d3130682d33762d372d372d33682d33766101208201527f2d3733682d34762d3130682d33762d3130682d33762d37682d34762d37682d336101408201527f762d33682d33762d33682d3476313068347631306833763130683376336834766101608201527f37203320373020336833763768337632306834763768337633683376336834766101808201527f34683376336833762d332d347a222f3e3c7061746820643d224d3235332033306101a08201527f37762d34682d33762d33682d33762d33682d34762d34682d33762d33682d33766101c08201527f2d33682d34762d34682d33762d33682d33762d33682d34762d34682d33762d366101e08201527f682d33762d37682d3476313768347633683376336833203476346833763368336102008201527f76336834763468337633683376336834763468337633683376336834762d36686102208201527f2d347a222f3e3c2f673e3c6720636c6173733d226232223e3c7061746820643d6102408201527f224d32353020333130762d33682d33762d34682d34762d33682d33762d33682d6102608201527f33762d34682d34762d33682d33762d33682d33762d34682d37762d33682d33766102808201527f2d33682d34762d3137682d33762d33682d33762d34682d34762d33682d33762d6102a08201527f33682d33762d37682d34762d3230682d33762d37682d33762d37332d332d37686102c08201527f2d34762d33682d33762d3130682d33762d3130682d34563730682d33762d336c6102e08201527f2d332031303020332d313030763430682d33763130682d347636682d337631346103008201527f682d337633203133682d347634346834763136683376313468337631336834766103208201527f31306833763768337633683476336833763468337633683476336833763468336103408201527f76336834763368337637683776376836763368377633683776346831337633686103608201527f337633683130762d33682d337a6d2d3130332d3837762d31366833762d3130686103808201527f2d337636682d34763137682d337631306833762d3768347a222f3e3c706174686103a08201527f20643d224d3134332032333068347637682d347a6d3420313068337633682d336103c08201527f7a6d33203768337633682d337a6d33203668347634682d347a222f3e3c7061746103e08201527f6820643d224d31363320323537682d36763368337633683376346834762d342d6104008201527f33682d34762d337a222f3e3c2f673e3c6720636c6173733d226233223e3c70616104208201527f746820643d224d3134332031393776366834762d366836762d34346834762d316104408201527f366833762d31346833762d366834762d31306833563937682d377636682d33766104608201527f34682d337633682d347633682d3376342033682d3376332034682d34763130686104808201527f2d337631362034682d337634366833762d3668337a222f3e3c7061746820643d6104a08201527f224d313430203230336833763137682d337a222f3e3c7061746820643d224d316104c08201527f3337203232306833763130682d337a222f3e3c7061746820643d224d313533206104e08201527f323530682d33762d37682d33762d36682d34762d37682d3376313068337637686105008201527f347636683376346833762d377a6d2d3320313068337637682d337a222f3e3c706105208201527f61746820643d224d3134372032353768337633682d337a6d36203068347633686105408201527f2d347a222f3e3c7061746820643d224d31363020323633762d33682d337633206105608201527f376836762d37682d337a6d2d31302d3536763136682d337637683376313068336105808201527f763768347636683676346837762d342d33682d33762d3130682d34762d3133686105a08201527f2d33762d3134682d33762d3136682d34763130682d337a222f3e3c70617468206105c08201527f643d224d32343320333133762d33682d33762d33682d31302d33762d34682d376105e08201527f762d33682d37762d33682d36762d37682d37762d37682d33762d33682d34762d6106008201527f33682d33762d34682d33762d33682d34762d33682d33762d34682d33762d33686106208201527f2d34762d33682d33763130682d337633682d347633682d3376376833763768346106408201527f76366833763568347633683676336833763368342033763368332034763368336106608201527f20337634683130763368372037203376336831302033762d33683130762d33686106808201527f34762d34682d31347a222f3e3c2f673e3c6720636c6173733d226234223e3c706106a08201527f61746820643d224d3138332031333068347637682d347a222f3e3c70617468206106c08201527f643d224d3138302031323768337633682d337a6d2d32372d3468347637682d346106e08201527f7a222f3e3c7061746820643d224d3135372031313768337636682d337a222f3e6107008201527f3c7061746820643d224d3136302031313068337637682d337a222f3e3c7061746107208201527f6820643d224d3136332031303768347633682d347a6d2d3320383368337637686107408201527f2d337a222f3e3c7061746820643d224d3136332031383768347633682d347a6d6107608201527f3230203068377633682d377a222f3e3c7061746820643d224d313830203139306107808201527f68337633682d337a6d31302d3768337634682d337a222f3e3c7061746820643d6107a08201527f224d3139332031383768347636682d347a6d2d323020353368347637682d347a6107c08201527f222f3e3c7061746820643d224d3137372032343768337636682d337a222f3e3c6107e08201527f7061746820643d224d3138302032353368337637682d337a222f3e3c706174686108008201527f20643d224d3138332032363068377633682d377a222f3e3c7061746820643d226108208201527f4d3139302032363368337634682d337a6d302d323068337634682d337a222f3e6108408201527f3c7061746820643d224d3138372032343068337633682d337a222f3e3c7061746108608201527f6820643d224d3139302032333768337633682d337a6d313320323368347633686108808201527f2d347a222f3e3c7061746820643d224d3230372032363368337637682d337a226108a08201527f2f3e3c7061746820643d224d3231302032373068337633682d337a6d2d3130206108c08201527f3768337636682d337a222f3e3c7061746820643d224d323033203238336834766108e08201527f37682d347a222f3e3c7061746820643d224d3230372032393068367633682d366109008201527f7a222f3e3c2f673e3c6720636c6173733d226f223e3c7061746820643d224d316109208201527f3333203135376834763530682d347a6d302036336834763130682d347a6d32376109408201527f2d3136336833763130682d337a222f3e3c7061746820643d224d3136332035336109608201527f68347634682d347a222f3e3c7061746820643d224d31363720353068313076336109808201527f682d31307a222f3e3c7061746820643d224d3137372035336833763137682d336109a08201527f7a222f3e3c7061746820643d224d3137332037306834763237682d347a6d2d366109c08201527f20306833763237682d337a222f3e3c7061746820643d224d31363320363768346109e08201527f7633682d347a6d3020333068347633682d347a222f3e3c7061746820643d224d610a008201527f3136302031303068337633682d337a222f3e3c7061746820643d224d31353720610a208201527f31303368337634682d337a222f3e3c7061746820643d224d3135332031303768610a408201527f347633682d347a222f3e3c7061746820643d224d313530203131306833763368610a608201527f2d337a222f3e3c7061746820643d224d3134372031313368337637682d337a22610a808201527f2f3e3c7061746820643d224d3134332031323068347637682d347a222f3e3c70610aa08201527f61746820643d224d313430203132376833763130682d337a222f3e3c70617468610ac08201527f20643d224d313337203133376833763230682d337a6d35362d31306834763130610ae08201527f682d347a222f3e3c7061746820643d224d313930203131376833763130682d33610b008201527f7a222f3e3c7061746820643d224d3138372031313068337637682d337a222f3e610b208201527f3c7061746820643d224d3138332031303368347637682d347a222f3e3c706174610b408201527f6820643d224d3138302031303068337633682d337a222f3e3c7061746820643d610b608201527f224d31373720393768337633682d337a6d2d3430203130366833763137682d33610b808201527f7a6d302032376833763130682d337a6d313020333068337637682d337a222f3e610ba08201527f3c7061746820643d224d31353020323537762d34682d33762d36682d34762d37610bc08201527f682d3376313068337631306834762d3368337a222f3e3c7061746820643d224d610be08201527f3135302032353768337633682d337a222f3e3c7061746820643d224d31363320610c008201527f323733762d33682d36762d3130682d347637682d337633683376336834763768610c208201527f33762d3768337a222f3e3c7061746820643d224d313633203236376834763368610c408201527f2d347a222f3e3c7061746820643d224d31373020323537682d332d3476336834610c608201527f76376833762d31307a222f3e3c7061746820643d224d31353720323533683676610c808201527f34682d367a222f3e3c7061746820643d224d3135332032343768347636682d34610ca08201527f7a222f3e3c7061746820643d224d3135302032343068337637682d337a222f3e610cc08201527f3c7061746820643d224d313437203233306833763130682d337a6d3133203530610ce08201527f68337637682d337a222f3e3c7061746820643d224d3134332032323368347637610d008201527f682d347a222f3e3c7061746820643d224d313437203230376833763136682d33610d208201527f7a222f3e3c7061746820643d224d313530203139376833763130682d337a6d2d610d408201527f3130203068337636682d337a6d35302031313368377633682d377a6d32332031610d608201527f306831377633682d31377a222f3e3c7061746820643d224d3233302033323368610d808201527f31337634682d31337a222f3e3c7061746820643d224d32343320333230683130610da08201527f7633682d31307a222f3e3c7061746820643d224d323533203331376834763368610dc08201527f2d347a222f3e3c7061746820643d224d323537203330376833763130682d337a610de08201527f222f3e3c7061746820643d224d3235332033303368347634682d347a222f3e3c610e008201527f7061746820643d224d3235302033303068337633682d337a222f3e3c70617468610e208201527f20643d224d3234372032393768337633682d337a222f3e3c7061746820643d22610e408201527f4d3234332032393368347634682d347a222f3e3c7061746820643d224d323430610e608201527f2032393068337633682d337a222f3e3c7061746820643d224d32333720323837610e808201527f68337633682d337a222f3e3c7061746820643d224d3233332032383368347634610ea08201527f682d347a222f3e3c7061746820643d224d3233302032383068337633682d337a610ec08201527f222f3e3c7061746820643d224d3232372032373768337633682d337a222f3e3c610ee08201527f7061746820643d224d3232332032373368347634682d347a222f3e3c70617468610f008201527f20643d224d3232302032363768337636682d337a222f3e3c7061746820643d22610f208201527f4d3231372032363068337637682d337a222f3e3c7061746820643d224d323133610f408201527f2032353368347637682d347a222f3e3c7061746820643d224d32313020323437610f608201527f68337636682d337a222f3e3c7061746820643d224d3230372032333768337631610f808201527f30682d337a222f3e3c7061746820643d224d323033203232376834763130682d610fa08201527f347a6d2d343020363068347636682d347a6d323420323068337633682d337a22610fc08201527f2f3e3c7061746820643d224d3136372032393368337635682d337a6d31362031610fe08201527f3468347633682d347a222f3e3c7061746820643d224d313730203239386834766110008201527f33682d347a6d3130203668337633682d337a222f3e3c7061746820643d224d316110208201527f37342033303168367633682d367a6d323320313268367634682d367a222f3e3c6110408201527f7061746820643d224d323033203331376831307633682d31307a6d2d322d31306110608201527f37762d3733682d3476373368337631376833762d3137682d327a222f3e3c2f676110808201527f3e3c6720636c6173733d226f223e3c7061746820643d224d31383720333037766110a08201527f2d346833762d36682d33762d34682d34762d33682d33762d33682d37762d34686110c08201527f2d367634682d3476336834763237682d34763133682d33763130682d347637686110e08201527f3476336833203130203134762d33682d34762d34682d33762d33682d33762d336111008201527f682d34762d376834762d31306833762d376833762d336837762d33682d337a6d6111208201527f3136203130762d34682d36763137682d34763130682d337637683376336834206111408201527f3620342033203134762d33682d34762d34682d37762d33682d33762d33682d336111608201520152565b90610285609a60405180947f3c7374796c653e2e6f7b66696c6c3a233830383038303b7d2e62327b66696c6c60208301527f3a6e6f6e653b7d2e62337b66696c6c3a6e6f6e653b7d2e62347b66696c6c3a6e60408301527f6f6e653b7d2e61317b66696c6c3a6e6f6e653b7d2e61327b66696c6c3a6e6f6e60608301527f653b7d2e61337b66696c6c3a6e6f6e653b7d3c2f7374796c653e000000000000608083015261450481518092602086860191016103af565b810103607a810185520183610225565b9061028560bb60405180947f3c7376672077696474683d2234303022206865696768743d223430302220766960208301527f6577426f783d223020302034303020343030222066696c6c3d226e6f6e65222060408301527f786d6c6e733d22687474703a2f2f7777772e77332e6f72672f323030302f737660608301527f67223e3c7374796c653e2e6f7b66696c6c3a233035303530353b7d2e777b666960808301527436361d11b31cb31cb31c9dbe9f1e17b9ba3cb6329f60591b60a08301526145e981518092602060b5860191016103af565b8101651e17b9bb339f60d11b60b582015203609b810185520183610225565b9061040890614636604051602092609160f51b84830152602282015260228152614631816101b7565b61548e565b92604051938161464f86935180928680870191016103af565b8201614663825180938680850191016103af565b01038084520182610225565b60405161467b8161017b565b60008152906000368137565b906146918261078d565b61469e6040519182610225565b82815280926146af601f199161078d565b0190602036910137565b806000917a184f03e93ff9f4daa797ed6e38ed64bf6a1f010000000000000000808210156147ef575b506d04ee2d6d415b85acef8100000000808310156147e0575b50662386f26fc10000808310156147d1575b506305f5e100808310156147c2575b50612710808310156147b3575b5060648210156147a3575b600a80921015614799575b60019081602161475160018701614687565b95860101905b614763575b5050505090565b600019019083906f181899199a1a9b1b9c1cb0b131b232b360811b8282061a83530491821561479457919082614757565b61475c565b916001019161473f565b9190606460029104910191614734565b60049193920491019138614729565b6008919392049101913861471c565b6010919392049101913861470d565b602091939204910191386146fb565b6040935081049150386146e2565b6040519061480a826101b7565b604082527f6768696a6b6c6d6e6f707172737475767778797a303132333435363738392b2f6040837f4142434445464748494a4b4c4d4e4f505152535455565758595a61626364656660208201520152565b906002820180921161156257565b906020820180921161156257565b906001820180921161156257565b9190820180921161156257565b805115612b14576148a26147fd565b6148be6148b96148b2845161485c565b6003900490565b6121cb565b916148d06148cb8461486a565b614687565b92835280815182019060208501935b8282106149215750505060039051068060011461491057600214614901575090565b603d60f81b6000199091015290565b50613d3d60f01b6001199091015290565b9091936004906003809401938451600190603f9082828260121c16880101518553828282600c1c16880101518386015382828260061c16880101516002860153168501015190820153019391906148df565b61497c90615858565b9261498b969596929192612eed565b9460405197889760208901703c7374796c653e2e62317b66696c6c3a2360781b90528051908160318b0191602001916149c3926103af565b8801603181016b3b7d2e62327b66696c6c3a2360a01b905281519182603d830191602001916149f1926103af565b01603d81016b3b7d2e62337b66696c6c3a2360a01b905281519182604983019160200191614a1e926103af565b0160498101614a3b906b3b7d2e62347b66696c6c3a2360a01b9052565b605501614a47916115b2565b6b3b7d2e61317b66696c6c3a2360a01b8152600c01614a65916115b2565b6b3b7d2e61327b66696c6c3a2360a01b8152600c01614a83916115b2565b6b3b7d2e61337b66696c6c3a2360a01b8152600c01614aa1916115b2565b691dbe9e17b9ba3cb6329f60b11b8152600a01614abd916115b2565b03601f19810182526104089082610225565b60405190614adc826101d2565b61019c82527f6820643d224d3139332031373068347633682d347a222f3e3c2f673e000000006101a0837f3c6720636c6173733d226f223e3c7061746820643d224d31393020313733682d60208201527f3337762d33682d3130762d34682d36763468337633682d33763468367633683160408201527f307634683337762d346833762d33682d33762d347a6d2d34302034682d33762d60608201527f34683376347a6d372033762d3368337633682d337a6d362030762d336834763360808201527f682d347a6d372030762d3368337633682d337a6d372030762d3368337633682d60a08201527f337a6d31302030682d34762d33683476337a222f3e3c7061746820643d224d3160c08201527f39302031373068337633682d337a222f3e3c7061746820643d224d313933203160e08201527f363668347634682d347a6d30203768347634682d347a222f3e3c2f673e3c67206101008201527f636c6173733d2277223e3c7061746820643d224d3133372031373068337633686101208201527f2d337a6d3130203368337634682d337a6d3130203468337633682d337a6d36206101408201527f3068347633682d347a6d37203068337633682d337a6d37203068337633682d336101608201527f7a6d36203068347633682d347a6d372d3468337634682d337a222f3e3c7061746101808201520152565b6040519061010082018281106001600160401b038211176101965760405260dd82527f746820643d224d3138302031343768337633682d337a222f3e3c2f673e00000060e0837f3c6720636c6173733d226f223e3c7061746820643d224d31373720313430763360208201527f6836763131683130762d31316834762d33682d32307a222f3e3c70617468206460408201527f3d224d31353320313430763368377638203368372033762d31316833762d336860608201527f2d32307a222f3e3c2f673e3c6720636c6173733d2277223e3c7061746820643d60808201527f224d3135332031343368377634682d377a222f3e3c7061746820643d224d313560a08201527f372031343768337633682d337a6d32302d3468367634682d367a222f3e3c706160c08201520152565b60405190614e12826101ee565b61023a82527f643d224d3139302031333768347633682d347a222f3e3c2f673e000000000000610240837f3c6720636c6173733d226f223e3c7061746820643d224d31393020313237683360208201527f7633682d337a6d3320313368347633682d347a6d2d3432203068367636682d3660408201527f7a222f3e3c7061746820643d224d3135312031333368337637682d337a6d313060608201527f203068367634682d367a222f3e3c7061746820643d224d31353720313337683160808201527f377636682d31377a6d332031336831347633682d31347a6d31372d313368377660a08201527f3136682d377a222f3e3c7061746820643d224d3138342031333768367636682d60c08201527f367a6d302031306831307636682d31307a222f3e3c7061746820643d224d313860e08201527f37203134336831307634682d31307a222f3e3c7061746820643d224d313930206101008201527f31343068337633682d337a6d2d362d313068337637682d337a222f3e3c7061746101208201527f6820643d224d3138372031333068367633682d367a6d2d3336203068313076336101408201527f682d31307a6d313620313368377637682d377a6d2d3130203068377637682d376101608201527f7a222f3e3c7061746820643d224d3136342031343768337633682d337a6d32396101808201527f2d323068347636682d347a222f3e3c7061746820643d224d31393420313333686101a08201527f337637682d337a222f3e3c2f673e3c6720636c6173733d2277223e3c706174686101c08201527f20643d224d3135342031333368377634682d377a222f3e3c7061746820643d226101e08201527f4d3135342031333768337633682d337a6d3130203668337634682d337a6d32306102008201527f203068337634682d337a6d332d313068377634682d377a222f3e3c70617468206102208201520152565b6040519060c082018281106001600160401b038211176101965760405260818252601f60f91b60a0837f3c6720636c6173733d226f223e3c7061746820643d224d31383320313630762d60208201527f34682d32307634682d33763368337634683234762d37682d347a6d2d3133203360408201527f762d336831307633682d31307a222066696c6c3d2223616437316338222f3e3c60608201527f7061746820643d224d313730203136306831307633682d31307a222f3e3c2f6760808201520152565b9092916060938151916000928391849085869160039460038110600014615421576151bf81614878565b985b8981106151d5575050505050505050505050565b81811015615415576151e78184611529565b516040805163507f146560e01b8152919791602060048f6001600160a01b03838584818585165afa928315610cbc57615262966000968f9688966153f6575b50505163c44a8e6d60e01b81526001600160a01b0390931690830190815260208101949094526000604085015290948593849291839160600190565b0392165afa8015610cbc57610100916000916153dd575b500151985b8989036153ae57506001985b60058181036152c1575050506001955b806152a9575b506001016151c1565b6001919d612a756152ba928e612df2565b9c906152a0565b8198929811806153a6575b6152d7575b5061529a565b90959094600680870361535a5750506001945b60079080820361532b575050506001945b8480615324575b8061531c575b615313575b386152d1565b6001965061530d565b508615615308565b5085615302565b9691961180615352575b156152fb5794509b61534990612a756150d0565b9b6001946152fb565b508515615335565b869196118061539e575b156152ea57945060019d8e8b1460001461538c5761538490612a75614e05565b9d5b946152ea565b61539890612a75614cd7565b9d615386565b508515615364565b5087156152cc565b98888111806153d5575b1561528a5798509c6153cc90612a75614acf565b9c60019861528a565b5089156153b8565b6153f0913d8091833e610cae8183610225565b38615279565b61540d929650803d10610ceb57610cdc8183610225565b933880615226565b6008979560009661527e565b80986151c1565b604051906105e082018281106001600160401b0382111761019657604052602e82526105c0366020840137565b9061545f8261056e565b61546c6040519182610225565b82815280926146af601f199161056e565b908151811015611517570160200190565b908151156155b55761549e615428565b9160009060006154ad8561151c565b526001918151916000925b8084106154de57505050506154d46154d9916104089394615984565b6159c7565b615a0e565b9091929461550f6155096155036154f5898761547d565b516001600160f81b03191690565b60f81c90565b60ff1690565b9184925b60ff9089828916861015615574576001929161554861554261550961553b8a61554e96611529565b5160ff1690565b60081b90565b90614886565b61556b8b61556388603a958686061692611529565b9060ff169052565b04930192615513565b50919594935050809691965b61558e5750600101926154b8565b9460ff6001603a926155ab83858b06166155638d86851690611529565b0116950480615580565b905061040861466f565b337f00000000000000000000000000000000000000000000000000000000000000006001600160a01b0316148061560d575b15615609576013193601368111611562573560601c90565b3390565b5060143610156155f1565b604051906156258261020a565b600682526506666653930360d41b6020830152565b604051906156478261020a565b600682526506666633730360d41b6020830152565b604051906156698261020a565b600682526566336136303360d01b6020830152565b6040519061568b8261020a565b600682526539363561316160d01b6020830152565b604051906156ad8261020a565b600682526533331bb1981960d11b6020830152565b604051906156cf8261020a565b600682526506664333630360d41b6020830152565b604051906156f18261020a565b600682526518cccc994c1960d21b6020830152565b604051906157138261020a565b600682526566666438633560d01b6020830152565b604051906157358261020a565b600682526566663936613960d01b6020830152565b604051906157578261020a565b600682526533329a9c1c3160d11b6020830152565b604051906157798261020a565b600682526563393266343560d01b6020830152565b6040519061579b8261020a565b600682526536376437353760d01b6020830152565b604051906157bd8261020a565b600682526503330613232360d41b6020830152565b604051906157df8261020a565b600682526532313761313560d01b6020830152565b604051906158018261020a565b60048252636e6f6e6560e01b6020830152565b604051906158218261020a565b6006825265329a1c19b2b360d11b6020830152565b604051906158438261020a565b60068252653231993332b360d11b6020830152565b6001810361589f575061586961578e565b906158726157b0565b9061587b6157d2565b906158846157f4565b9061588d615814565b90615896615836565b90610408615836565b600281036158e657506158b0615706565b906158b9615728565b906158c261574a565b906158cb61576c565b906158d4615706565b906158dd615728565b9061040861574a565b6003810361592d57506158f761565c565b906159006156a0565b906159096156c2565b906159126156e4565b9061591b61565c565b906159246156a0565b906104086156c2565b60041461594657604051630992899d60e31b8152600490fd5b61594e615618565b9061595761563a565b9061596061565c565b9061596961567e565b90615972615618565b9061597b61563a565b9061040861565c565b9060ff8091169061599482615455565b9260005b8381106159a6575050505090565b80836159b460019385611529565b51166159c08288611529565b5201615998565b9081516159d381615455565b9060005b8181106159e5575090925050565b60019060ff6159fb600019838951030188611529565b5116615a078286611529565b52016159d7565b8051615a198161078d565b91604090615a2a6040519485610225565b828452615a368361078d565b602090601f1901368683013760009260005b858110615a585750505050505090565b6001908251615a66816101b7565b603a81527f31323334353637383941424344454647484a4b4c4d4e50515253545556575859858201527f5a6162636465666768696a6b6d6e6f707172737475767778797a000000000000848201526001600160f81b031990615ad69060ff615ace858a611529565b51169061547d565b5116861a615ae4828a61547d565b5301615a4856fea2646970667358221220a3d4ab8eee4f1e99eb9704b2acfd438a0c4965d701e40c2c02ad50623c4a90a864736f6c63430008170033",
	"deployedBytecode": "0x6080604052600436101561001257600080fd5b60003560e01c806257bfdd146101265780631e4578de1461012157806331a290ac1461011c5780634d03376e14610117578063572b6c05146101125780635e703e711461010d5780636aff31dd14610108578063715018a6146101035780637da0a877146100fe578063875e4bea146100f95780638da5cb5b146100f4578063aeac5e35146100ef578063b03a3eab146100ea578063c06e7bc7146100e5578063f2fde38b146100e0578063f92df2e3146100db5763fff628c6146100d657600080fd5b6114a9565b61147a565b6113ee565b610d95565b610cf2565b610bce565b610ba5565b610a14565b6109cf565b610971565b610945565b610919565b6108c1565b6107df565b610615565b610486565b61040b565b90600182811c9216801561015b575b602083101461014557565b634e487b7160e01b600052602260045260246000fd5b91607f169161013a565b634e487b7160e01b600052604160045260246000fd5b602081019081106001600160401b0382111761019657604052565b610165565b6111a081019081106001600160401b0382111761019657604052565b606081019081106001600160401b0382111761019657604052565b6101c081019081106001600160401b0382111761019657604052565b61026081019081106001600160401b0382111761019657604052565b604081019081106001600160401b0382111761019657604052565b90601f801991011681019081106001600160401b0382111761019657604052565b604051906000826002549161025a8361012b565b808352926020906001908181169081156102e85750600114610287575b505061028592500383610225565b565b91509260026000527f405787fa12a823e0f2b7631cc41b3ba8828b3321ca811111fa75cd3aa3bb5ace936000925b8284106102d057506102859450505081016020013880610277565b855488850183015294850194879450928101926102b5565b9150506020925061028594915060ff191682840152151560051b8201013880610277565b9060405191826000825461031f8161012b565b9081845260209460019160018116908160001461038d575060011461034e575b50505061028592500383610225565b600090815285812095935091905b818310610375575050610285935082010138808061033f565b8554888401850152948501948794509183019161035c565b9250505061028594925060ff191682840152151560051b82010138808061033f565b60005b8381106103c25750506000910152565b81810151838201526020016103b2565b906020916103eb815180928185528580860191016103af565b601f01601f1916010190565b9060206104089281815201906103d2565b90565b3461043f57600036600319011261043f5761043b610427610246565b6040519182916020835260208301906103d2565b0390f35b600080fd5b604081019181526060602091604060208201528151809452019160809160005b828110610472575050505090565b835185529381019392810192600101610464565b3461043f5760208060031936011261043f57600435906000918083526005602052604083209060405180938491602085549182815201948752602087209187905b82821061053457505050506104e1906104f1930384610225565b6000526006602052604060002090565b5491815191815b83811061050d576040518061043b8782610444565b8061051a60019284611529565b5161052d61052786611553565b95611504565b52016104f8565b8354875295860195879450600193840193909101906104c7565b604051906101a082018281106001600160401b0382111761019657604052565b6001600160401b0381116101965760051b60200190565b9080601f8301121561043f57602090823561059f8161056e565b936105ad6040519586610225565b81855260208086019260051b82010192831161043f57602001905b8282106105d6575050505090565b813581529083019083016105c8565b9181601f8401121561043f578235916001600160401b03831161043f576020808501948460051b01011161043f57565b3461043f5760408060031936011261043f576001600160401b036004803582811161043f576106479036908301610585565b9160243590811161043f5761065f90369083016105e5565b909183519060005b8281106106b0575050506106ab61069e7f7b414cb0ad21f3dfa349dbd1d4ca10eeb276661a7af9df6e18086aed7c31c8d694611750565b94519283923391846117ab565b0390a2005b6106ba8187611529565b516106d06106c9838789611567565b36916107a8565b906106ed6106e8826000526004602052604060002090565b6115a8565b61077d57610705816000526001602052604060002090565b54801561076d578951602081019061072f8161072184886115b2565b03601f198101835282610225565b5190200361075d5760019291610752610757926000526004602052604060002090565b61167b565b01610667565b88516375b5da0b60e01b81528490fd5b8951637ef41a4f60e01b81528590fd5b8851630388067760e21b81528490fd5b6001600160401b03811161019657601f01601f191660200190565b9291926107b48261078d565b916107c26040519384610225565b82948184528183011161043f578281602093846000960137010152565b3461043f57604036600319011261043f576001600160401b0360043581811161043f57610810903690600401610585565b60249060243583811161043f573660238201121561043f578060040135926108378461056e565b936108456040519586610225565b8085526020956024602087019260051b8501019336851161043f5760248101925b858410610879576108778888611848565b005b833583811161043f5782013660438201121561043f5789916108a58392369060448a82013591016107a8565b815201930192610866565b6001600160a01b0381160361043f57565b3461043f57602036600319011261043f5760206004356108e0816108b0565b6040517f000000000000000000000000b2b5841dbef766d4b521221732f9b618fcf34a876001600160a01b039081169216919091148152f35b3461043f57604036600319011261043f5761043b61042760043561093c816108b0565b60243590611ca6565b3461043f57602036600319011261043f5760043560005260016020526020604060002054604051908152f35b3461043f576000806003193601126109cc5761098b612d3d565b80546001600160a01b03198116825581906001600160a01b03167f8be0079c531659141344cd1fd0a4f28419497f9722a3daafe3b4186f6b6457e08280a380f35b80fd5b3461043f57600036600319011261043f576040517f000000000000000000000000b2b5841dbef766d4b521221732f9b618fcf34a876001600160a01b03168152602090f35b3461043f5760208060031936011261043f576004356001600160401b0380821161043f573660238301121561043f57816004013590811161043f57602492366024838501011161043f57610a66612d3d565b610a7a82610a7560025461012b565b6115e0565b600093601f8311600114610af8575050610acd81807f512c3c91736f50c57a0548c1d01ab02f24c420f002b8b20e2bfe63df9693cd3f95600091610aea575b508160011b916000199060031b1c19161790565b6002555b610ae560405192839260243392018461203e565b0390a1005b602491508501013538610ab9565b6002600052601f19831694907f405787fa12a823e0f2b7631cc41b3ba8828b3321ca811111fa75cd3aa3bb5ace9282915b878310610b8957505050827f512c3c91736f50c57a0548c1d01ab02f24c420f002b8b20e2bfe63df9693cd3f9510610b6c575b5050600181811b01600255610ad1565b830160240135600019600384901b60f8161c191690553880610b5c565b908060018596848396978b010135815501950193019190610b29565b3461043f57600036600319011261043f576000546040516001600160a01b039091168152602090f35b3461043f57604036600319011261043f57600435610beb816108b0565b60405163507f146560e01b815260243591906001600160a01b03906020816004818587165afa8015610cbc57610c629360009386938593610cc1575b5060405163c44a8e6d60e01b81526001600160a01b039092166004830152602482019390935260006044820152938492839182906064820190565b0392165afa918215610cbc5761043b92610c8d92600091610c99575b506101008151910151916126f5565b604051918291826103f7565b610cb691503d806000833e610cae8183610225565b810190611a99565b38610c7e565b611a35565b610ce491935060203d602011610ceb575b610cdc8183610225565b810190611a20565b9138610c27565b503d610cd2565b3461043f57604036600319011261043f576001600160401b0360043581811161043f57610d23903690600401610585565b9060243590811161043f573660238201121561043f578060040135610d478161056e565b91610d556040519384610225565b8183526020916024602085019160051b8301019136831161043f57602401905b828210610d86576108778587612067565b81358152908301908301610d75565b3461043f57608036600319011261043f57610db16004356108b0565b6064356001600160401b03811161043f57610dd09036906004016105e5565b906040516331a9108f60e11b815260208180610df6602435600483019190602083019252565b03816004356001600160a01b03165afa908115610cbc576000916113cf575b50610e2d610e216155bf565b6001600160a01b031690565b6001600160a01b03909116036113bd576044351561139f576040516331a9108f60e11b81526044356004820152602081806024810103816004356001600160a01b03165afa908115610cbc57600091611380575b50610e8d610e216155bf565b6001600160a01b039091160361136e5760405163507f146560e01b815260208160048181356001600160a01b03165afa908115610cbc5760009161134f575b5060405163c44a8e6d60e01b81526001600160a01b03600480358216908301526044803560248401526000908301819052919283916064918391165afa908115610cbc57600091611334575b50511561132257604435610f386024356000526006602052604060002090565b555b6000610f4461214a565b5080808080805b878610610fc4578787610f748282610f6f6024356000526005602052604060002090565b6121e3565b7f6a68946ba06488db8585d7c7637fa954b574035fe15720ea760125ef86017258610fbf610fa06155bf565b6040519182916024359660018060a01b0360043516966044358561225c565b0390a3005b610fcf8689896121bb565b6040516331a9108f60e11b81529035600482018190529290602081806024810103816004356001600160a01b03165afa908115610cbc57600091611303575b5061101a610e216155bf565b6001600160a01b03909116036112f15760405163507f146560e01b815260208160048181356001600160a01b03165afa938415610cbc576110999460009283916112d2575b50604051808097819463c44a8e6d60e01b8352600435600484016040906000929493606082019560018060a01b0316825260208201520152565b03916001600160a01b03165afa928315610cbc576000936112b7575b508251156112a5576101008301516002811090811561129a575b50611288578615159081611278575b506112665761010082015160048103611106575050600161010081925b015195019490610f4b565b9194909160058103611120575050600161010081956110fb565b90949290600b810361113a575050600161010081936110fb565b9293909260098103611154575050600161010081946110fb565b600d819592951490818215928361125c575b8015611252575b8061124b575b1561118a5760405163167e5dcd60e31b8152600490fd5b600682148081159182611241575b8015611237575b80611230575b156111bc57604051631e550b6f60e11b8152600490fd5b90611226575b8061121f575b156111df576040516354f653b360e01b8152600490fd5b91611214575b508061120d575b6111fb576101006001916110fb565b604051635e701b2b60e01b8152600490fd5b50826111ec565b600c915014386111e5565b50876111c8565b50600782146111c2565b50866111a5565b506008841461119f565b5060078414611198565b5086611173565b50600a821461116d565b50600c8214611166565b604051637dc0e82560e11b8152600490fd5b90506101008301511115386110de565b60405163c89badbd60e01b8152600490fd5b600f915011386110cf565b6040516354c0901d60e11b8152600490fd5b6112cb91933d8091833e610cae8183610225565b91386110b5565b6112eb915060203d602011610ceb57610cdc8183610225565b3861105f565b60405163812a698960e01b8152600490fd5b61131c915060203d602011610ceb57610cdc8183610225565b3861100e565b60405163265ba87960e01b8152600490fd5b61134991503d806000833e610cae8183610225565b38610f18565b611368915060203d602011610ceb57610cdc8183610225565b38610ecc565b604051639d17cec760e01b8152600490fd5b611399915060203d602011610ceb57610cdc8183610225565b38610e81565b60006113b76024356000526006602052604060002090565b55610f3a565b6040516307d59f1360e21b8152600490fd5b6113e8915060203d602011610ceb57610cdc8183610225565b38610e15565b3461043f57602036600319011261043f5760043561140b816108b0565b611413612d3d565b6001600160a01b03908116801561146157600080546001600160a01b03198116831782559092167f8be0079c531659141344cd1fd0a4f28419497f9722a3daafe3b4186f6b6457e08380a380f35b604051631e4fbdf760e01b815260006004820152602490fd5b3461043f57606036600319011261043f5761043b6104276044356024356004356126f5565b8015150361043f57565b3461043f57608036600319011261043f5761043b6104276004356114cc816108b0565b6044356114d88161149f565b606435916114e58361149f565b60243590612b67565b634e487b7160e01b600052603260045260246000fd5b6060518110156115175760051b60800190565b6114ee565b8051156115175760200190565b80518210156115175760209160051b010190565b634e487b7160e01b600052601160045260246000fd5b60001981146115625760010190565b61153d565b91908110156115175760051b81013590601e198136030182121561043f5701908135916001600160401b03831161043f57602001823603811361043f579190565b610408905461012b565b906115c5602092828151948592016103af565b0190565b8181106115d4575050565b600081556001016115c9565b90601f82116115ed575050565b6102859160026000527f405787fa12a823e0f2b7631cc41b3ba8828b3321ca811111fa75cd3aa3bb5ace906020601f840160051c83019310611637575b601f0160051c01906115c9565b909150819061162a565b9190601f811161165057505050565b610285926000526020600020906020601f840160051c8301931061163757601f0160051c01906115c9565b91909182516001600160401b038111610196576116a28161169c845461012b565b84611641565b602080601f83116001146116e5575081906116d69394956000926116da575b50508160011b916000199060031b1c19161790565b9055565b0151905038806116c1565b90601f198316956116fb85600052602060002090565b926000905b8882106117385750508360019596971061171f575b505050811b019055565b015160001960f88460031b161c19169055388080611715565b80600185968294968601518155019501930190611700565b60405190818183925160208092019160005b828110611773575050505003902090565b835185528695509381019392810192600101611762565b908060209392818452848401376000828201840152601f01601f1916010190565b9392919081604086016040875252606085019160608160051b87010192826000905b8382106117ef5750505050509060206102859294019060018060a01b03169052565b9091929394605f198982030184528535601e198336030181121561043f578201803560208092016001600160401b03821161043f57813603811361043f57600193839261183b9261178a565b97019594019201906117cd565b9190611852612d3d565b8251926000935b8085106118a657507f31ddb2f0a32be79206d6bf3e670f8cc38863c4984b95cdbe8ed6eba58207a3a5919293506118926118a191611750565b926040519182913390836119ac565b0390a2565b6118b08583611529565b51946118bc8185611529565b5195600052600360208181526040600020918851916001600160401b038311610196576118f3836118ed865461012b565b86611641565b8091601f8411600114611938575050908061192b926001969798999a6000926116da5750508160011b916000199060031b1c19161790565b90555b0193929190611859565b9091601f1984169a61194f86600052602060002090565b936000905b8d821061199457505084600198999a9b9c1061197a575b50505050831b8301905561192e565b01519060f884600019921b161c191690553880808061196b565b80600185978294968601518155019601930190611954565b909291926040820190604083528051809252606083019160608160051b850101916020809101936000905b8382106119f45750505050602091509360018060a01b0316910152565b909192938380611a10600193605f198b820301865289516103d2565b97019201920190949392916119d7565b9081602091031261043f5751610408816108b0565b6040513d6000823e3d90fd5b5190610285826108b0565b51906102858261149f565b81601f8201121561043f578051611a6d8161078d565b92611a7b6040519485610225565b8184526020828401011161043f5761040891602080850191016103af565b60208183031261043f5780516001600160401b039182821161043f57016101a08184031261043f57611ac961054e565b92815184526020820151602085015260408201516040850152606082015160608501526080820151608085015260a082015160a0850152611b0c60c08301611a41565b60c085015260e082015160e08501526101008083015190850152610120611b34818401611a4c565b90850152610140611b46818401611a4c565b90850152610160611b58818401611a4c565b90850152610180928383015190811161043f57611b759201611a57565b9082015290565b60405190611b898261017b565b60008252565b90604051918260605160005b818110611bd0575090602061028593611bc48294840191838301600081528151948592016103af565b01038085520183610225565b6020919250806080015182828801015201908491611b9b565b6020610285919392936040519481611c0a87935180928680870191016103af565b8201611bc4825180938680850191016103af565b9060208282031261043f5781516001600160401b03811161043f576104089201611a57565b9081602091031261043f575190565b90610285603d60405180947f646174613a6170706c69636174696f6e2f6a736f6e3b6261736536342c0000006020830152611c9681518092602086860191016103af565b810103601d810185520183610225565b6040805163507f146560e01b808252602094929392906001600160a01b03908185168785600481845afa948515610cbc5760009561201f575b50865163c44a8e6d60e01b81526001600160a01b03871660048201526024810185905260006044820181905290958690606490829087165afa948515610cbc57600095612004575b50845115611ff4576101008501805190939015611fea57611d49865188612df2565b968751611fb3575b875115611e87575050505094611e76611e68611e8296611de5611e01611de598611de5611deb8a611dc76104089f611d98611dae9d611dc29f92611d9f93519051916126f5565b92516146b9565b9488519c8d918d8301906115b2565b039b611dc2601f199d8e8101835282610225565b614893565b9651683d913730b6b2911d1160b91b9a81019a8b529c8d9a60090190565b906115b2565b691116101134b2111d101160b11b8152600a0190565b7f222c226465736372697074696f6e223a2241207069656365206f66207468652081527f42616e6e797665727365222c22696d616765223a22646174613a696d6167652f60208201526e1cdd99cade1b5b0ed8985cd94d8d0b608a1b6040820152604f0190565b61227d60f01b815260020190565b03908101835282610225565b611c52565b92965092600f9195505111600014611fa4578551636c0360eb60e01b8152600081600481885afa8015610cbc578891600091611f81575b50955b600488518097819382525afa918215610cbc57611f14968895600094611f62575b5051630c8df17160e41b81526001600160a01b0390921660048301526024820193909352948592839182906044820190565b0392165afa918215610cbc5761040893600093611f33575b5050614608565b611f53929350803d10611f5b575b611f4b8183610225565b810190611c43565b903880611f2c565b503d611f41565b611f7a919450863d8811610ceb57610cdc8183610225565b9238611ee2565b611f9e91503d806000833e611f968183610225565b810190611c1e565b38611ebe565b86611fad610246565b95611ec1565b96611fc6906001865103611fcc57614514565b96611d51565b611fe590611fe0611fdb612eed565b61444e565b611be9565b614514565b611fc68588612980565b5050505050505050610408611b7c565b61201891953d8091833e610cae8183610225565b9338611d27565b612037919550883d8a11610ceb57610cdc8183610225565b9338611cdf565b916020916120579195949560408552604085019161178a565b6001600160a01b03909416910152565b61206f612d3d565b805160005b8181106120ef57505061208690611750565b9060405190818183925160208092019160005b8281106120d857505050500390206040513381529091907fb0c948934b683b0d319be35a6898bce339f877d721976592196eef848acc69c390602090a3565b835185528695509381019392810192600101612099565b6120f98184611529565b516121048286611529565b51908060005260016020526040806000205461213a575090612133600193926000526001602052604060002090565b5501612074565b516333ded41b60e21b8152600490fd5b604051906101a082018281106001600160401b0382111761019657604052606061018083600080825280602083015280604083015280848301528060808301528060a08301528060c08301528060e08301528061010083015280610120830152806101408301526101608201520152565b91908110156115175760051b0190565b600281901b91906001600160fe1b0381160361156257565b906001600160401b0383116101965768010000000000000000831161019657815483835580841061223e575b50906000526020806000209060005b84811061222c575050505050565b8335838201559281019260010161221e565b612256908360005284602060002091820191016115c9565b3861220f565b9081526060602082018190528101839052929392916001600160fb1b03811161043f5760409160809160051b8091838601378301019360018060a01b0316910152565b60226102859193929360405194816122c18793518092602080870191016103af565b820161202360f01b60208201526122e182518093602087850191016103af565b01036002810185520183610225565b90610285602960405180946802a37b83834b7339d160bd1b602083015261232081518092602086860191016103af565b8101036009810185520183610225565b90610285602660405180946502334b9ba1d160d51b602083015261235d81518092602086860191016103af565b8101036006810185520183610225565b90610285602d60405180946c029bab4ba103137ba3a37b69d1609d1b60208301526123a181518092602086860191016103af565b810103600d810185520183610225565b90610285602a604051809469029bab4ba103a37b81d160b51b60208301526123e281518092602086860191016103af565b810103600a810185520183610225565b906102856026604051809465029bab4ba1d160d51b602083015261235d81518092602086860191016103af565b90610285602660405180946502432b0b21d160d51b602083015261235d81518092602086860191016103af565b90610285602660405180946502430b4b91d160d51b602083015261235d81518092602086860191016103af565b906102856027604051809466026b7baba341d160cd1b60208301526124a781518092602086860191016103af565b8101036007810185520183610225565b906102856026604051809465022bcb2b99d160d51b602083015261235d81518092602086860191016103af565b90610285602660405180946502330b1b29d160d51b602083015261235d81518092602086860191016103af565b90610285602a60405180946902732b1b5b630b1b29d160b51b60208301526123e281518092602086860191016103af565b906102856026604051809465029b437b29d160d51b602083015261235d81518092602086860191016103af565b90610285602a60405180946902130b1b5b9b4b2329d160b51b60208301526123e281518092602086860191016103af565b90610285602760405180946602bb7b936321d160cd1b60208301526124a781518092602086860191016103af565b906102856035604051809474027b934b3b4b730b6102730b5b2b2102130b7373c9605d1b602083015261260a81518092602086860191016103af565b8101036015810185520183610225565b906102856033604051809472027b930b733b2902730b5b2b2102130b7373c9606d1b602083015261265481518092602086860191016103af565b8101036013810185520183610225565b90610285603160405180947002834b735902730b5b2b2102130b7373c9607d1b602083015261269c81518092602086860191016103af565b8101036011810185520183610225565b906102856032604051809471020b634b2b7102730b5b2b2102130b7373c960751b60208301526126e581518092602086860191016103af565b8101036012810185520183610225565b91633b9aca008306916001810361271a57505050612715610408916146b9565b6126ac565b6002810361273657505050612731610408916146b9565b612664565b600381036127525750505061274d610408916146b9565b61261a565b6004810361276e57505050612769610408916146b9565b6125ce565b61278e91929350612789906000526003602052604060002090565b61030c565b9180612899575b50600181036127a85750610408906125a0565b600281036127ba57506104089061256f565b600a81036127cc575061040890612542565b600381036127de575061040890612511565b600581036127f05750610408906124e4565b600681036128025750610408906124b7565b60078103612814575061040890612479565b6008810361282657506104089061244c565b6004810361283857506104089061241f565b600b810361284a5750610408906123f2565b600d810361285c5750610408906123b1565b600c810361286e57506104089061236d565b600e8103612880575061040890612330565b600f146128905750610408611b7c565b610408906122f0565b90918051156000146128b757506128af906146b9565b905b38612795565b6128c36128c9926146b9565b9061229f565b906128b1565b919060408382031261043f5782519260209081810151906001600160401b03821161043f57019180601f8401121561043f57825161290c8161056e565b9361291a6040519586610225565b818552838086019260051b82010192831161043f578301905b828210612941575050505090565b81518152908301908301612933565b3d1561297b573d906129618261078d565b9161296f6040519384610225565b82523d6000602084013e565b606090565b60405163507f146560e01b8152906001600160a01b036020836004818585165afa928315610cbc57600093612b43575b5060405163c44a8e6d60e01b81526001600160a01b0383166004820152602481018590526000604482018190529093909184916064918391165afa918215610cbc57600092612b28575b50815115612b1d576060610100830151612af657604051630f22bc6f60e11b8152600481019490945261040893612a83929082906000908181602481305afa9081600091600093612acf575b50612ac157505090612a7b91612a5a612950565b505b80151580612ab9575b612a9f575b50612a758651614973565b90611be9565b935190615195565b8051612a90575b50614514565b612a9991611be9565b38612a8a565b612ab39150612aae9084612df2565b611b8f565b38612a6a565b506001612a65565b909450612a7b929150612a5c565b909250612aef91503d806000833e612ae78183610225565b8101906128cf565b9138612a46565b5090612b0492505190612df2565b805115612b145761040890614514565b50610408611b7c565b505050610408611b7c565b612b3c91923d8091833e610cae8183610225565b90386129fa565b6000919350612b609060203d602011610ceb57610cdc8183610225565b92906129b0565b60405163507f146560e01b8152909390916001600160a01b03602084600481848a165afa938415610cbc57600094612d19575b5060405163c44a8e6d60e01b81526001600160a01b0387166004820152602481018390526000604482018190529094909185916064918391165afa928315610cbc57600093612cfe575b50825115612cf157606094610100840151612ce157604051630f22bc6f60e11b81526004810192909252610408959182906000908181602481305afa9081600091600093612cc2575b50612cb2575050612c5f929394612c42612950565b505b8115159081612caa575b50612c95575b50612a758551614973565b93612c6d575b505050614514565b612c78925190615195565b8051612c86575b8080612c65565b612c8f91611be9565b38612c7f565b612ca49150612aae9084612df2565b38612c54565b905038612c4e565b909150612c5f9394509094612c44565b909250612cda91503d806000833e612ae78183610225565b9138612c2d565b93505050612b0492505190612df2565b5050505050610408611b7c565b612d1291933d8091833e610cae8183610225565b9138612be4565b6000919450612d369060203d602011610ceb57610cdc8183610225565b9390612b9a565b6000546001600160a01b0390811681612d546155bf565b1603612d5d5750565b602490612d686155bf565b60405163118cdaa760e01b815291166004820152fd5b9061028560566040518094751e339f1e34b6b0b3b2903c3634b7359d343932b31e9160511b6020830152612dbc8151809260206036860191016103af565b81017f222077696474683d2234303022206865696768743d22343030222f3e3c2f673e6036820152036036810185520183610225565b612e09612789836000526004602052604060002090565b8051612ee7575060405163507f146560e01b81526001600160a01b039260209283836004818489165afa908115610cbc57612e7c958594600093612ec8575b50604051632f54648f60e21b81526001600160a01b0390921660048301526024820193909352948592839182906044820190565b0392165afa8015610cbc5761040892612ea692600092612eab575b5050612ea1610246565b614608565b612d7e565b612ec19250803d10611f5b57611f4b8183610225565b3880612e97565b612ee0919350853d8711610ceb57610cdc8183610225565b9138612e48565b91505090565b60405190612efa8261019b565b61117a82527f762d31306833762d376833762d33682d31307a222f3e3c2f673e000000000000611180837f3c6720636c6173733d226131223e3c7061746820643d224d313733203533683460208201527f763137682d347a222f3e3c2f673e3c6720636c6173733d226132223e3c70617460408201527f6820643d224d3136372035376833763130682d337a222f3e3c7061746820643d60608201527f224d3136392035336834763137682d347a222f3e3c2f673e3c6720636c61737360808201527f3d226133223e3c7061746820643d224d31363720353368337634682d337a222f60a08201527f3e3c7061746820643d224d3136332035376834763130682d347a222f3e3c706160c08201527f746820643d224d31363720363768337633682d337a222f3e3c2f673e3c67206360e08201527f6c6173733d226231223e3c7061746820643d224d32313320323533682d33762d6101008201527f332d33682d33762d372d33682d34762d3130682d33762d372d372d33682d33766101208201527f2d3733682d34762d3130682d33762d3130682d33762d37682d34762d37682d336101408201527f762d33682d33762d33682d3476313068347631306833763130683376336834766101608201527f37203320373020336833763768337632306834763768337633683376336834766101808201527f34683376336833762d332d347a222f3e3c7061746820643d224d3235332033306101a08201527f37762d34682d33762d33682d33762d33682d34762d34682d33762d33682d33766101c08201527f2d33682d34762d34682d33762d33682d33762d33682d34762d34682d33762d366101e08201527f682d33762d37682d3476313768347633683376336833203476346833763368336102008201527f76336834763468337633683376336834763468337633683376336834762d36686102208201527f2d347a222f3e3c2f673e3c6720636c6173733d226232223e3c7061746820643d6102408201527f224d32353020333130762d33682d33762d34682d34762d33682d33762d33682d6102608201527f33762d34682d34762d33682d33762d33682d33762d34682d37762d33682d33766102808201527f2d33682d34762d3137682d33762d33682d33762d34682d34762d33682d33762d6102a08201527f33682d33762d37682d34762d3230682d33762d37682d33762d37332d332d37686102c08201527f2d34762d33682d33762d3130682d33762d3130682d34563730682d33762d336c6102e08201527f2d332031303020332d313030763430682d33763130682d347636682d337631346103008201527f682d337633203133682d347634346834763136683376313468337631336834766103208201527f31306833763768337633683476336833763468337633683476336833763468336103408201527f76336834763368337637683776376836763368377633683776346831337633686103608201527f337633683130762d33682d337a6d2d3130332d3837762d31366833762d3130686103808201527f2d337636682d34763137682d337631306833762d3768347a222f3e3c706174686103a08201527f20643d224d3134332032333068347637682d347a6d3420313068337633682d336103c08201527f7a6d33203768337633682d337a6d33203668347634682d347a222f3e3c7061746103e08201527f6820643d224d31363320323537682d36763368337633683376346834762d342d6104008201527f33682d34762d337a222f3e3c2f673e3c6720636c6173733d226233223e3c70616104208201527f746820643d224d3134332031393776366834762d366836762d34346834762d316104408201527f366833762d31346833762d366834762d31306833563937682d377636682d33766104608201527f34682d337633682d347633682d3376342033682d3376332034682d34763130686104808201527f2d337631362034682d337634366833762d3668337a222f3e3c7061746820643d6104a08201527f224d313430203230336833763137682d337a222f3e3c7061746820643d224d316104c08201527f3337203232306833763130682d337a222f3e3c7061746820643d224d313533206104e08201527f323530682d33762d37682d33762d36682d34762d37682d3376313068337637686105008201527f347636683376346833762d377a6d2d3320313068337637682d337a222f3e3c706105208201527f61746820643d224d3134372032353768337633682d337a6d36203068347633686105408201527f2d347a222f3e3c7061746820643d224d31363020323633762d33682d337633206105608201527f376836762d37682d337a6d2d31302d3536763136682d337637683376313068336105808201527f763768347636683676346837762d342d33682d33762d3130682d34762d3133686105a08201527f2d33762d3134682d33762d3136682d34763130682d337a222f3e3c70617468206105c08201527f643d224d32343320333133762d33682d33762d33682d31302d33762d34682d376105e08201527f762d33682d37762d33682d36762d37682d37762d37682d33762d33682d34762d6106008201527f33682d33762d34682d33762d33682d34762d33682d33762d34682d33762d33686106208201527f2d34762d33682d33763130682d337633682d347633682d3376376833763768346106408201527f76366833763568347633683676336833763368342033763368332034763368336106608201527f20337634683130763368372037203376336831302033762d33683130762d33686106808201527f34762d34682d31347a222f3e3c2f673e3c6720636c6173733d226234223e3c706106a08201527f61746820643d224d3138332031333068347637682d347a222f3e3c70617468206106c08201527f643d224d3138302031323768337633682d337a6d2d32372d3468347637682d346106e08201527f7a222f3e3c7061746820643d224d3135372031313768337636682d337a222f3e6107008201527f3c7061746820643d224d3136302031313068337637682d337a222f3e3c7061746107208201527f6820643d224d3136332031303768347633682d347a6d2d3320383368337637686107408201527f2d337a222f3e3c7061746820643d224d3136332031383768347633682d347a6d6107608201527f3230203068377633682d377a222f3e3c7061746820643d224d313830203139306107808201527f68337633682d337a6d31302d3768337634682d337a222f3e3c7061746820643d6107a08201527f224d3139332031383768347636682d347a6d2d323020353368347637682d347a6107c08201527f222f3e3c7061746820643d224d3137372032343768337636682d337a222f3e3c6107e08201527f7061746820643d224d3138302032353368337637682d337a222f3e3c706174686108008201527f20643d224d3138332032363068377633682d377a222f3e3c7061746820643d226108208201527f4d3139302032363368337634682d337a6d302d323068337634682d337a222f3e6108408201527f3c7061746820643d224d3138372032343068337633682d337a222f3e3c7061746108608201527f6820643d224d3139302032333768337633682d337a6d313320323368347633686108808201527f2d347a222f3e3c7061746820643d224d3230372032363368337637682d337a226108a08201527f2f3e3c7061746820643d224d3231302032373068337633682d337a6d2d3130206108c08201527f3768337636682d337a222f3e3c7061746820643d224d323033203238336834766108e08201527f37682d347a222f3e3c7061746820643d224d3230372032393068367633682d366109008201527f7a222f3e3c2f673e3c6720636c6173733d226f223e3c7061746820643d224d316109208201527f3333203135376834763530682d347a6d302036336834763130682d347a6d32376109408201527f2d3136336833763130682d337a222f3e3c7061746820643d224d3136332035336109608201527f68347634682d347a222f3e3c7061746820643d224d31363720353068313076336109808201527f682d31307a222f3e3c7061746820643d224d3137372035336833763137682d336109a08201527f7a222f3e3c7061746820643d224d3137332037306834763237682d347a6d2d366109c08201527f20306833763237682d337a222f3e3c7061746820643d224d31363320363768346109e08201527f7633682d347a6d3020333068347633682d347a222f3e3c7061746820643d224d610a008201527f3136302031303068337633682d337a222f3e3c7061746820643d224d31353720610a208201527f31303368337634682d337a222f3e3c7061746820643d224d3135332031303768610a408201527f347633682d347a222f3e3c7061746820643d224d313530203131306833763368610a608201527f2d337a222f3e3c7061746820643d224d3134372031313368337637682d337a22610a808201527f2f3e3c7061746820643d224d3134332031323068347637682d347a222f3e3c70610aa08201527f61746820643d224d313430203132376833763130682d337a222f3e3c70617468610ac08201527f20643d224d313337203133376833763230682d337a6d35362d31306834763130610ae08201527f682d347a222f3e3c7061746820643d224d313930203131376833763130682d33610b008201527f7a222f3e3c7061746820643d224d3138372031313068337637682d337a222f3e610b208201527f3c7061746820643d224d3138332031303368347637682d347a222f3e3c706174610b408201527f6820643d224d3138302031303068337633682d337a222f3e3c7061746820643d610b608201527f224d31373720393768337633682d337a6d2d3430203130366833763137682d33610b808201527f7a6d302032376833763130682d337a6d313020333068337637682d337a222f3e610ba08201527f3c7061746820643d224d31353020323537762d34682d33762d36682d34762d37610bc08201527f682d3376313068337631306834762d3368337a222f3e3c7061746820643d224d610be08201527f3135302032353768337633682d337a222f3e3c7061746820643d224d31363320610c008201527f323733762d33682d36762d3130682d347637682d337633683376336834763768610c208201527f33762d3768337a222f3e3c7061746820643d224d313633203236376834763368610c408201527f2d347a222f3e3c7061746820643d224d31373020323537682d332d3476336834610c608201527f76376833762d31307a222f3e3c7061746820643d224d31353720323533683676610c808201527f34682d367a222f3e3c7061746820643d224d3135332032343768347636682d34610ca08201527f7a222f3e3c7061746820643d224d3135302032343068337637682d337a222f3e610cc08201527f3c7061746820643d224d313437203233306833763130682d337a6d3133203530610ce08201527f68337637682d337a222f3e3c7061746820643d224d3134332032323368347637610d008201527f682d347a222f3e3c7061746820643d224d313437203230376833763136682d33610d208201527f7a222f3e3c7061746820643d224d313530203139376833763130682d337a6d2d610d408201527f3130203068337636682d337a6d35302031313368377633682d377a6d32332031610d608201527f306831377633682d31377a222f3e3c7061746820643d224d3233302033323368610d808201527f31337634682d31337a222f3e3c7061746820643d224d32343320333230683130610da08201527f7633682d31307a222f3e3c7061746820643d224d323533203331376834763368610dc08201527f2d347a222f3e3c7061746820643d224d323537203330376833763130682d337a610de08201527f222f3e3c7061746820643d224d3235332033303368347634682d347a222f3e3c610e008201527f7061746820643d224d3235302033303068337633682d337a222f3e3c70617468610e208201527f20643d224d3234372032393768337633682d337a222f3e3c7061746820643d22610e408201527f4d3234332032393368347634682d347a222f3e3c7061746820643d224d323430610e608201527f2032393068337633682d337a222f3e3c7061746820643d224d32333720323837610e808201527f68337633682d337a222f3e3c7061746820643d224d3233332032383368347634610ea08201527f682d347a222f3e3c7061746820643d224d3233302032383068337633682d337a610ec08201527f222f3e3c7061746820643d224d3232372032373768337633682d337a222f3e3c610ee08201527f7061746820643d224d3232332032373368347634682d347a222f3e3c70617468610f008201527f20643d224d3232302032363768337636682d337a222f3e3c7061746820643d22610f208201527f4d3231372032363068337637682d337a222f3e3c7061746820643d224d323133610f408201527f2032353368347637682d347a222f3e3c7061746820643d224d32313020323437610f608201527f68337636682d337a222f3e3c7061746820643d224d3230372032333768337631610f808201527f30682d337a222f3e3c7061746820643d224d323033203232376834763130682d610fa08201527f347a6d2d343020363068347636682d347a6d323420323068337633682d337a22610fc08201527f2f3e3c7061746820643d224d3136372032393368337635682d337a6d31362031610fe08201527f3468347633682d347a222f3e3c7061746820643d224d313730203239386834766110008201527f33682d347a6d3130203668337633682d337a222f3e3c7061746820643d224d316110208201527f37342033303168367633682d367a6d323320313268367634682d367a222f3e3c6110408201527f7061746820643d224d323033203331376831307633682d31307a6d2d322d31306110608201527f37762d3733682d3476373368337631376833762d3137682d327a222f3e3c2f676110808201527f3e3c6720636c6173733d226f223e3c7061746820643d224d31383720333037766110a08201527f2d346833762d36682d33762d34682d34762d33682d33762d33682d37762d34686110c08201527f2d367634682d3476336834763237682d34763133682d33763130682d347637686110e08201527f3476336833203130203134762d33682d34762d34682d33762d33682d33762d336111008201527f682d34762d376834762d31306833762d376833762d336837762d33682d337a6d6111208201527f3136203130762d34682d36763137682d34763130682d337637683376336834206111408201527f3620342033203134762d33682d34762d34682d37762d33682d33762d33682d336111608201520152565b90610285609a60405180947f3c7374796c653e2e6f7b66696c6c3a233830383038303b7d2e62327b66696c6c60208301527f3a6e6f6e653b7d2e62337b66696c6c3a6e6f6e653b7d2e62347b66696c6c3a6e60408301527f6f6e653b7d2e61317b66696c6c3a6e6f6e653b7d2e61327b66696c6c3a6e6f6e60608301527f653b7d2e61337b66696c6c3a6e6f6e653b7d3c2f7374796c653e000000000000608083015261450481518092602086860191016103af565b810103607a810185520183610225565b9061028560bb60405180947f3c7376672077696474683d2234303022206865696768743d223430302220766960208301527f6577426f783d223020302034303020343030222066696c6c3d226e6f6e65222060408301527f786d6c6e733d22687474703a2f2f7777772e77332e6f72672f323030302f737660608301527f67223e3c7374796c653e2e6f7b66696c6c3a233035303530353b7d2e777b666960808301527436361d11b31cb31cb31c9dbe9f1e17b9ba3cb6329f60591b60a08301526145e981518092602060b5860191016103af565b8101651e17b9bb339f60d11b60b582015203609b810185520183610225565b9061040890614636604051602092609160f51b84830152602282015260228152614631816101b7565b61548e565b92604051938161464f86935180928680870191016103af565b8201614663825180938680850191016103af565b01038084520182610225565b60405161467b8161017b565b60008152906000368137565b906146918261078d565b61469e6040519182610225565b82815280926146af601f199161078d565b0190602036910137565b806000917a184f03e93ff9f4daa797ed6e38ed64bf6a1f010000000000000000808210156147ef575b506d04ee2d6d415b85acef8100000000808310156147e0575b50662386f26fc10000808310156147d1575b506305f5e100808310156147c2575b50612710808310156147b3575b5060648210156147a3575b600a80921015614799575b60019081602161475160018701614687565b95860101905b614763575b5050505090565b600019019083906f181899199a1a9b1b9c1cb0b131b232b360811b8282061a83530491821561479457919082614757565b61475c565b916001019161473f565b9190606460029104910191614734565b60049193920491019138614729565b6008919392049101913861471c565b6010919392049101913861470d565b602091939204910191386146fb565b6040935081049150386146e2565b6040519061480a826101b7565b604082527f6768696a6b6c6d6e6f707172737475767778797a303132333435363738392b2f6040837f4142434445464748494a4b4c4d4e4f505152535455565758595a61626364656660208201520152565b906002820180921161156257565b906020820180921161156257565b906001820180921161156257565b9190820180921161156257565b805115612b14576148a26147fd565b6148be6148b96148b2845161485c565b6003900490565b6121cb565b916148d06148cb8461486a565b614687565b92835280815182019060208501935b8282106149215750505060039051068060011461491057600214614901575090565b603d60f81b6000199091015290565b50613d3d60f01b6001199091015290565b9091936004906003809401938451600190603f9082828260121c16880101518553828282600c1c16880101518386015382828260061c16880101516002860153168501015190820153019391906148df565b61497c90615858565b9261498b969596929192612eed565b9460405197889760208901703c7374796c653e2e62317b66696c6c3a2360781b90528051908160318b0191602001916149c3926103af565b8801603181016b3b7d2e62327b66696c6c3a2360a01b905281519182603d830191602001916149f1926103af565b01603d81016b3b7d2e62337b66696c6c3a2360a01b905281519182604983019160200191614a1e926103af565b0160498101614a3b906b3b7d2e62347b66696c6c3a2360a01b9052565b605501614a47916115b2565b6b3b7d2e61317b66696c6c3a2360a01b8152600c01614a65916115b2565b6b3b7d2e61327b66696c6c3a2360a01b8152600c01614a83916115b2565b6b3b7d2e61337b66696c6c3a2360a01b8152600c01614aa1916115b2565b691dbe9e17b9ba3cb6329f60b11b8152600a01614abd916115b2565b03601f19810182526104089082610225565b60405190614adc826101d2565b61019c82527f6820643d224d3139332031373068347633682d347a222f3e3c2f673e000000006101a0837f3c6720636c6173733d226f223e3c7061746820643d224d31393020313733682d60208201527f3337762d33682d3130762d34682d36763468337633682d33763468367633683160408201527f307634683337762d346833762d33682d33762d347a6d2d34302034682d33762d60608201527f34683376347a6d372033762d3368337633682d337a6d362030762d336834763360808201527f682d347a6d372030762d3368337633682d337a6d372030762d3368337633682d60a08201527f337a6d31302030682d34762d33683476337a222f3e3c7061746820643d224d3160c08201527f39302031373068337633682d337a222f3e3c7061746820643d224d313933203160e08201527f363668347634682d347a6d30203768347634682d347a222f3e3c2f673e3c67206101008201527f636c6173733d2277223e3c7061746820643d224d3133372031373068337633686101208201527f2d337a6d3130203368337634682d337a6d3130203468337633682d337a6d36206101408201527f3068347633682d347a6d37203068337633682d337a6d37203068337633682d336101608201527f7a6d36203068347633682d347a6d372d3468337634682d337a222f3e3c7061746101808201520152565b6040519061010082018281106001600160401b038211176101965760405260dd82527f746820643d224d3138302031343768337633682d337a222f3e3c2f673e00000060e0837f3c6720636c6173733d226f223e3c7061746820643d224d31373720313430763360208201527f6836763131683130762d31316834762d33682d32307a222f3e3c70617468206460408201527f3d224d31353320313430763368377638203368372033762d31316833762d336860608201527f2d32307a222f3e3c2f673e3c6720636c6173733d2277223e3c7061746820643d60808201527f224d3135332031343368377634682d377a222f3e3c7061746820643d224d313560a08201527f372031343768337633682d337a6d32302d3468367634682d367a222f3e3c706160c08201520152565b60405190614e12826101ee565b61023a82527f643d224d3139302031333768347633682d347a222f3e3c2f673e000000000000610240837f3c6720636c6173733d226f223e3c7061746820643d224d31393020313237683360208201527f7633682d337a6d3320313368347633682d347a6d2d3432203068367636682d3660408201527f7a222f3e3c7061746820643d224d3135312031333368337637682d337a6d313060608201527f203068367634682d367a222f3e3c7061746820643d224d31353720313337683160808201527f377636682d31377a6d332031336831347633682d31347a6d31372d313368377660a08201527f3136682d377a222f3e3c7061746820643d224d3138342031333768367636682d60c08201527f367a6d302031306831307636682d31307a222f3e3c7061746820643d224d313860e08201527f37203134336831307634682d31307a222f3e3c7061746820643d224d313930206101008201527f31343068337633682d337a6d2d362d313068337637682d337a222f3e3c7061746101208201527f6820643d224d3138372031333068367633682d367a6d2d3336203068313076336101408201527f682d31307a6d313620313368377637682d377a6d2d3130203068377637682d376101608201527f7a222f3e3c7061746820643d224d3136342031343768337633682d337a6d32396101808201527f2d323068347636682d347a222f3e3c7061746820643d224d31393420313333686101a08201527f337637682d337a222f3e3c2f673e3c6720636c6173733d2277223e3c706174686101c08201527f20643d224d3135342031333368377634682d377a222f3e3c7061746820643d226101e08201527f4d3135342031333768337633682d337a6d3130203668337634682d337a6d32306102008201527f203068337634682d337a6d332d313068377634682d377a222f3e3c70617468206102208201520152565b6040519060c082018281106001600160401b038211176101965760405260818252601f60f91b60a0837f3c6720636c6173733d226f223e3c7061746820643d224d31383320313630762d60208201527f34682d32307634682d33763368337634683234762d37682d347a6d2d3133203360408201527f762d336831307633682d31307a222066696c6c3d2223616437316338222f3e3c60608201527f7061746820643d224d313730203136306831307633682d31307a222f3e3c2f6760808201520152565b9092916060938151916000928391849085869160039460038110600014615421576151bf81614878565b985b8981106151d5575050505050505050505050565b81811015615415576151e78184611529565b516040805163507f146560e01b8152919791602060048f6001600160a01b03838584818585165afa928315610cbc57615262966000968f9688966153f6575b50505163c44a8e6d60e01b81526001600160a01b0390931690830190815260208101949094526000604085015290948593849291839160600190565b0392165afa8015610cbc57610100916000916153dd575b500151985b8989036153ae57506001985b60058181036152c1575050506001955b806152a9575b506001016151c1565b6001919d612a756152ba928e612df2565b9c906152a0565b8198929811806153a6575b6152d7575b5061529a565b90959094600680870361535a5750506001945b60079080820361532b575050506001945b8480615324575b8061531c575b615313575b386152d1565b6001965061530d565b508615615308565b5085615302565b9691961180615352575b156152fb5794509b61534990612a756150d0565b9b6001946152fb565b508515615335565b869196118061539e575b156152ea57945060019d8e8b1460001461538c5761538490612a75614e05565b9d5b946152ea565b61539890612a75614cd7565b9d615386565b508515615364565b5087156152cc565b98888111806153d5575b1561528a5798509c6153cc90612a75614acf565b9c60019861528a565b5089156153b8565b6153f0913d8091833e610cae8183610225565b38615279565b61540d929650803d10610ceb57610cdc8183610225565b933880615226565b6008979560009661527e565b80986151c1565b604051906105e082018281106001600160401b0382111761019657604052602e82526105c0366020840137565b9061545f8261056e565b61546c6040519182610225565b82815280926146af601f199161056e565b908151811015611517570160200190565b908151156155b55761549e615428565b9160009060006154ad8561151c565b526001918151916000925b8084106154de57505050506154d46154d9916104089394615984565b6159c7565b615a0e565b9091929461550f6155096155036154f5898761547d565b516001600160f81b03191690565b60f81c90565b60ff1690565b9184925b60ff9089828916861015615574576001929161554861554261550961553b8a61554e96611529565b5160ff1690565b60081b90565b90614886565b61556b8b61556388603a958686061692611529565b9060ff169052565b04930192615513565b50919594935050809691965b61558e5750600101926154b8565b9460ff6001603a926155ab83858b06166155638d86851690611529565b0116950480615580565b905061040861466f565b337f000000000000000000000000b2b5841dbef766d4b521221732f9b618fcf34a876001600160a01b0316148061560d575b15615609576013193601368111611562573560601c90565b3390565b5060143610156155f1565b604051906156258261020a565b600682526506666653930360d41b6020830152565b604051906156478261020a565b600682526506666633730360d41b6020830152565b604051906156698261020a565b600682526566336136303360d01b6020830152565b6040519061568b8261020a565b600682526539363561316160d01b6020830152565b604051906156ad8261020a565b600682526533331bb1981960d11b6020830152565b604051906156cf8261020a565b600682526506664333630360d41b6020830152565b604051906156f18261020a565b600682526518cccc994c1960d21b6020830152565b604051906157138261020a565b600682526566666438633560d01b6020830152565b604051906157358261020a565b600682526566663936613960d01b6020830152565b604051906157578261020a565b600682526533329a9c1c3160d11b6020830152565b604051906157798261020a565b600682526563393266343560d01b6020830152565b6040519061579b8261020a565b600682526536376437353760d01b6020830152565b604051906157bd8261020a565b600682526503330613232360d41b6020830152565b604051906157df8261020a565b600682526532313761313560d01b6020830152565b604051906158018261020a565b60048252636e6f6e6560e01b6020830152565b604051906158218261020a565b6006825265329a1c19b2b360d11b6020830152565b604051906158438261020a565b60068252653231993332b360d11b6020830152565b6001810361589f575061586961578e565b906158726157b0565b9061587b6157d2565b906158846157f4565b9061588d615814565b90615896615836565b90610408615836565b600281036158e657506158b0615706565b906158b9615728565b906158c261574a565b906158cb61576c565b906158d4615706565b906158dd615728565b9061040861574a565b6003810361592d57506158f761565c565b906159006156a0565b906159096156c2565b906159126156e4565b9061591b61565c565b906159246156a0565b906104086156c2565b60041461594657604051630992899d60e31b8152600490fd5b61594e615618565b9061595761563a565b9061596061565c565b9061596961567e565b90615972615618565b9061597b61563a565b9061040861565c565b9060ff8091169061599482615455565b9260005b8381106159a6575050505090565b80836159b460019385611529565b51166159c08288611529565b5201615998565b9081516159d381615455565b9060005b8181106159e5575090925050565b60019060ff6159fb600019838951030188611529565b5116615a078286611529565b52016159d7565b8051615a198161078d565b91604090615a2a6040519485610225565b828452615a368361078d565b602090601f1901368683013760009260005b858110615a585750505050505090565b6001908251615a66816101b7565b603a81527f31323334353637383941424344454647484a4b4c4d4e50515253545556575859858201527f5a6162636465666768696a6b6d6e6f707172737475767778797a000000000000848201526001600160f81b031990615ad69060ff615ace858a611529565b51169061547d565b5116861a615ae4828a61547d565b5301615a4856fea2646970667358221220a3d4ab8eee4f1e99eb9704b2acfd438a0c4965d701e40c2c02ad50623c4a90a864736f6c63430008170033",
	"devdoc": {
		"kind": "dev",
		"methods": {
			"assetIdsOf(uint256)": {
				"params": {
					"nakedBannyId": "The ID of the naked banny shows with the associated assets."
				},
				"returns": {
					"outfitIds": "The outfits attached to the Naked Banny.",
					"worldId": "The world attached to the Naked Banny."
				}
			},
			"bannySvgOf(address,uint256,bool,bool)": {
				"params": {
					"hook": "The hook storing the assets.",
					"tokenId": "The ID of the token to show. If the ID belongs to a Naked Banny, it will be shown with its current outfits in its current world."
				},
				"returns": {
					"_0": "bannySvg The SVG."
				}
			},
			"constructor": {
				"params": {
					"owner": "The owner allowed to add SVG files that correspond to tier IDs.",
					"trustedForwarder": "The trusted forwarder for the ERC2771Context."
				}
			},
			"decorateBannyWith(address,uint256,uint256,uint256[])": {
				"details": "The caller must own the naked banny being dressed and all outfits being worn.",
				"params": {
					"hook": "The hook storing the assets.",
					"nakedBannyId": "The ID of the Naked Banny being dressed.",
					"outfitIds": "The IDs of the outfits that'll be associated with the specified banny. Only one outfit per outfit category allowed at a time and they must be passed in order.",
					"worldId": "The ID of the world that'll be associated with the specified banny."
				}
			},
			"isTrustedForwarder(address)": {
				"details": "Indicates whether any particular address is the trusted forwarder."
			},
			"owner()": {
				"details": "Returns the address of the current owner."
			},
			"renounceOwnership()": {
				"details": "Leaves the contract without owner. It will not be possible to call `onlyOwner` functions. Can only be called by the current owner. NOTE: Renouncing ownership will leave the contract without an owner, thereby disabling any functionality that is only available to the owner."
			},
			"setSvgContentsOf(uint256[],string[])": {
				"params": {
					"svgContents": "The svg contents being stored, not including the parent <svg></svg> element.",
					"tierIds": "The IDs of the tiers having SVGs stored."
				}
			},
			"setSvgHashsOf(uint256[],bytes32[])": {
				"details": "This allows anyone to lazily upload the correct svg file.",
				"params": {
					"svgHashs": "The svg hashes being stored, not including the parent <svg></svg> element.",
					"tierIds": "The IDs of the tiers having SVG hashes stored."
				}
			},
			"setTierNames(uint256[],string[])": {
				"params": {
					"names": "The names of the tiers.",
					"tierIds": "The IDs of the tiers having their name stored."
				}
			},
			"tokenUriOf(address,uint256)": {
				"params": {
					"tokenId": "The ID of the token to show. If the ID belongs to a Naked Banny, it will be shown with its current outfits in its current world."
				},
				"returns": {
					"_0": "tokenUri The URI representing the SVG."
				}
			},
			"transferOwnership(address)": {
				"details": "Transfers ownership of the contract to a new account (`newOwner`). Can only be called by the current owner."
			},
			"trustedForwarder()": {
				"details": "Returns the address of the trusted forwarder."
			}
		},
		"version": 1
	},
	"userdoc": {
		"kind": "user",
		"methods": {
			"_nameOf(uint256,uint256,uint256)": {
				"notice": "The name of each tier."
			},
			"assetIdsOf(uint256)": {
				"notice": "The assets currently attached to each Naked Banny, owned by the naked Banny's owner."
			},
			"bannySvgOf(address,uint256,bool,bool)": {
				"notice": "Returns the SVG showing a dressed Naked Banny."
			},
			"decorateBannyWith(address,uint256,uint256,uint256[])": {
				"notice": "Dress your Naked Banny with outfits."
			},
			"setSvgBaseUri(string)": {
				"notice": "Allows the owner of this contract to specify the base of the domain hosting the SVG files."
			},
			"setSvgContentsOf(uint256[],string[])": {
				"notice": "The owner of this contract can store SVG files for tier IDs."
			},
			"setSvgHashsOf(uint256[],bytes32[])": {
				"notice": "Allows the owner of this contract to upload the hash of an svg file for a tierId."
			},
			"setTierNames(uint256[],string[])": {
				"notice": "Allows the owner to set the tier's name."
			},
			"svgBaseUri()": {
				"notice": "The base of the domain hosting the SVG files that can be lazily uploaded to the contract."
			},
			"svgHashOf(uint256)": {
				"notice": "The Naked Banny and outfit SVG hash files."
			},
			"tokenUriOf(address,uint256)": {
				"notice": "Returns the SVG showing a dressed Naked Banny in a world."
			}
		},
		"version": 1
	},
	"gitCommit": "b23409db048a5b5ecde93e0ad0d2626aa0b60242",
	"sourceName": "src/Banny721TokenUriResolver.sol",
	"chainId": "11155420",
	"linkReferences": {},
	"deployedLinkReferences": {},
	"history": [
		{
			"_format": "sphinx-sol-ct-artifact-1",
			"merkleRoot": "0xbbfed4024e4f7cd9bfdaaf35439399f5cf88631e7a77ee1d8176fe9d470a8d0f",
			"contractName": "Banny721TokenUriResolver",
			"address": "0xA0005f07266A54Ad344b1670AA512A929134BF34",
			"abi": [
				{
					"type": "constructor",
					"inputs": [
						{
							"name": "owner",
							"type": "address",
							"internalType": "address"
						},
						{
							"name": "trustedForwarder",
							"type": "address",
							"internalType": "address"
						}
					],
					"stateMutability": "nonpayable"
				},
				{
					"type": "function",
					"name": "_nameOf",
					"inputs": [
						{
							"name": "tokenId",
							"type": "uint256",
							"internalType": "uint256"
						},
						{
							"name": "tierId",
							"type": "uint256",
							"internalType": "uint256"
						},
						{
							"name": "category",
							"type": "uint256",
							"internalType": "uint256"
						}
					],
					"outputs": [
						{
							"name": "",
							"type": "string",
							"internalType": "string"
						}
					],
					"stateMutability": "view"
				},
				{
					"type": "function",
					"name": "assetIdsOf",
					"inputs": [
						{
							"name": "nakedBannyId",
							"type": "uint256",
							"internalType": "uint256"
						}
					],
					"outputs": [
						{
							"name": "worldId",
							"type": "uint256",
							"internalType": "uint256"
						},
						{
							"name": "outfitIds",
							"type": "uint256[]",
							"internalType": "uint256[]"
						}
					],
					"stateMutability": "view"
				},
				{
					"type": "function",
					"name": "bannySvgOf",
					"inputs": [
						{
							"name": "hook",
							"type": "address",
							"internalType": "address"
						},
						{
							"name": "tokenId",
							"type": "uint256",
							"internalType": "uint256"
						},
						{
							"name": "shouldBeDressed",
							"type": "bool",
							"internalType": "bool"
						},
						{
							"name": "shouldIncludeWorld",
							"type": "bool",
							"internalType": "bool"
						}
					],
					"outputs": [
						{
							"name": "",
							"type": "string",
							"internalType": "string"
						}
					],
					"stateMutability": "view"
				},
				{
					"type": "function",
					"name": "decorateBannyWith",
					"inputs": [
						{
							"name": "hook",
							"type": "address",
							"internalType": "address"
						},
						{
							"name": "nakedBannyId",
							"type": "uint256",
							"internalType": "uint256"
						},
						{
							"name": "worldId",
							"type": "uint256",
							"internalType": "uint256"
						},
						{
							"name": "outfitIds",
							"type": "uint256[]",
							"internalType": "uint256[]"
						}
					],
					"outputs": [],
					"stateMutability": "nonpayable"
				},
				{
					"type": "function",
					"name": "isTrustedForwarder",
					"inputs": [
						{
							"name": "forwarder",
							"type": "address",
							"internalType": "address"
						}
					],
					"outputs": [
						{
							"name": "",
							"type": "bool",
							"internalType": "bool"
						}
					],
					"stateMutability": "view"
				},
				{
					"type": "function",
					"name": "nameOf",
					"inputs": [
						{
							"name": "hook",
							"type": "address",
							"internalType": "address"
						},
						{
							"name": "tokenId",
							"type": "uint256",
							"internalType": "uint256"
						}
					],
					"outputs": [
						{
							"name": "",
							"type": "string",
							"internalType": "string"
						}
					],
					"stateMutability": "view"
				},
				{
					"type": "function",
					"name": "owner",
					"inputs": [],
					"outputs": [
						{
							"name": "",
							"type": "address",
							"internalType": "address"
						}
					],
					"stateMutability": "view"
				},
				{
					"type": "function",
					"name": "renounceOwnership",
					"inputs": [],
					"outputs": [],
					"stateMutability": "nonpayable"
				},
				{
					"type": "function",
					"name": "setSvgBaseUriOf",
					"inputs": [
						{
							"name": "baseUri",
							"type": "string",
							"internalType": "string"
						}
					],
					"outputs": [],
					"stateMutability": "nonpayable"
				},
				{
					"type": "function",
					"name": "setSvgContentsOf",
					"inputs": [
						{
							"name": "tierId",
							"type": "uint256",
							"internalType": "uint256"
						},
						{
							"name": "svgContents",
							"type": "string",
							"internalType": "string"
						}
					],
					"outputs": [],
					"stateMutability": "nonpayable"
				},
				{
					"type": "function",
					"name": "setSvgHashOf",
					"inputs": [
						{
							"name": "tierId",
							"type": "uint256",
							"internalType": "uint256"
						},
						{
							"name": "svgHash",
							"type": "bytes32",
							"internalType": "bytes32"
						}
					],
					"outputs": [],
					"stateMutability": "nonpayable"
				},
				{
					"type": "function",
					"name": "setTierName",
					"inputs": [
						{
							"name": "tierId",
							"type": "uint256",
							"internalType": "uint256"
						},
						{
							"name": "name",
							"type": "string",
							"internalType": "string"
						}
					],
					"outputs": [],
					"stateMutability": "nonpayable"
				},
				{
					"type": "function",
					"name": "svgBaseUri",
					"inputs": [],
					"outputs": [
						{
							"name": "",
							"type": "string",
							"internalType": "string"
						}
					],
					"stateMutability": "view"
				},
				{
					"type": "function",
					"name": "svgHashOf",
					"inputs": [
						{
							"name": "tierId",
							"type": "uint256",
							"internalType": "uint256"
						}
					],
					"outputs": [
						{
							"name": "",
							"type": "bytes32",
							"internalType": "bytes32"
						}
					],
					"stateMutability": "view"
				},
				{
					"type": "function",
					"name": "tokenUriOf",
					"inputs": [
						{
							"name": "hook",
							"type": "address",
							"internalType": "address"
						},
						{
							"name": "tokenId",
							"type": "uint256",
							"internalType": "uint256"
						}
					],
					"outputs": [
						{
							"name": "",
							"type": "string",
							"internalType": "string"
						}
					],
					"stateMutability": "view"
				},
				{
					"type": "function",
					"name": "transferOwnership",
					"inputs": [
						{
							"name": "newOwner",
							"type": "address",
							"internalType": "address"
						}
					],
					"outputs": [],
					"stateMutability": "nonpayable"
				},
				{
					"type": "function",
					"name": "trustedForwarder",
					"inputs": [],
					"outputs": [
						{
							"name": "",
							"type": "address",
							"internalType": "address"
						}
					],
					"stateMutability": "view"
				},
				{
					"type": "event",
					"name": "DecorateBanny",
					"inputs": [
						{
							"name": "hook",
							"type": "address",
							"indexed": true,
							"internalType": "address"
						},
						{
							"name": "nakenBannyId",
							"type": "uint256",
							"indexed": true,
							"internalType": "uint256"
						},
						{
							"name": "worldId",
							"type": "uint256",
							"indexed": false,
							"internalType": "uint256"
						},
						{
							"name": "outfitIds",
							"type": "uint256[]",
							"indexed": false,
							"internalType": "uint256[]"
						},
						{
							"name": "caller",
							"type": "address",
							"indexed": false,
							"internalType": "address"
						}
					],
					"anonymous": false
				},
				{
					"type": "event",
					"name": "OwnershipTransferred",
					"inputs": [
						{
							"name": "previousOwner",
							"type": "address",
							"indexed": true,
							"internalType": "address"
						},
						{
							"name": "newOwner",
							"type": "address",
							"indexed": true,
							"internalType": "address"
						}
					],
					"anonymous": false
				},
				{
					"type": "event",
					"name": "SetSvgBaseUri",
					"inputs": [
						{
							"name": "baseUri",
							"type": "string",
							"indexed": false,
							"internalType": "string"
						},
						{
							"name": "caller",
							"type": "address",
							"indexed": false,
							"internalType": "address"
						}
					],
					"anonymous": false
				},
				{
					"type": "event",
					"name": "SetSvgContents",
					"inputs": [
						{
							"name": "tierId",
							"type": "uint256",
							"indexed": true,
							"internalType": "uint256"
						},
						{
							"name": "svgHash",
							"type": "bytes32",
							"indexed": true,
							"internalType": "bytes32"
						},
						{
							"name": "svgContents",
							"type": "string",
							"indexed": false,
							"internalType": "string"
						},
						{
							"name": "caller",
							"type": "address",
							"indexed": false,
							"internalType": "address"
						}
					],
					"anonymous": false
				},
				{
					"type": "event",
					"name": "SetSvgHash",
					"inputs": [
						{
							"name": "tierId",
							"type": "uint256",
							"indexed": true,
							"internalType": "uint256"
						},
						{
							"name": "svgHash",
							"type": "bytes32",
							"indexed": true,
							"internalType": "bytes32"
						},
						{
							"name": "caller",
							"type": "address",
							"indexed": false,
							"internalType": "address"
						}
					],
					"anonymous": false
				},
				{
					"type": "event",
					"name": "SetTierName",
					"inputs": [
						{
							"name": "tierId",
							"type": "uint256",
							"indexed": true,
							"internalType": "uint256"
						},
						{
							"name": "name",
							"type": "string",
							"indexed": false,
							"internalType": "string"
						},
						{
							"name": "caller",
							"type": "address",
							"indexed": false,
							"internalType": "address"
						}
					],
					"anonymous": false
				},
				{
					"type": "error",
					"name": "CONTENTS_ALREADY_STORED",
					"inputs": []
				},
				{
					"type": "error",
					"name": "CONTENTS_MISMATCH",
					"inputs": []
				},
				{
					"type": "error",
					"name": "FACE_ALREADY_ADDED",
					"inputs": []
				},
				{
					"type": "error",
					"name": "HASH_ALREADY_STORED",
					"inputs": []
				},
				{
					"type": "error",
					"name": "HASH_NOT_FOUND",
					"inputs": []
				},
				{
					"type": "error",
					"name": "OwnableInvalidOwner",
					"inputs": [
						{
							"name": "owner",
							"type": "address",
							"internalType": "address"
						}
					]
				},
				{
					"type": "error",
					"name": "OwnableUnauthorizedAccount",
					"inputs": [
						{
							"name": "account",
							"type": "address",
							"internalType": "address"
						}
					]
				},
				{
					"type": "error",
					"name": "SUIT_ALREADY_ADDED",
					"inputs": []
				},
				{
					"type": "error",
					"name": "UNAUTHORIZED_OUTFIT",
					"inputs": []
				},
				{
					"type": "error",
					"name": "UNAUTHORIZED_WORLD",
					"inputs": []
				},
				{
					"type": "error",
					"name": "UNAUTHORIZED__NAKED_BANNY",
					"inputs": []
				},
				{
					"type": "error",
					"name": "UNORDERED_CATEGORIES",
					"inputs": []
				},
				{
					"type": "error",
					"name": "UNRECOGNIZED_CATEGORY",
					"inputs": []
				},
				{
					"type": "error",
					"name": "UNRECOGNIZED_OUTFIT",
					"inputs": []
				},
				{
					"type": "error",
					"name": "UNRECOGNIZED_TIER",
					"inputs": []
				},
				{
					"type": "error",
					"name": "UNRECOGNIZED_WORLD",
					"inputs": []
				}
			],
			"solcInputHash": "6029981c4e1146a2a3afaee3b8f60809",
			"receipt": {
				"blockHash": "0x9af17a3522464bfcbdc2eebdfb39c5a4407eb1f5067359d5fe0e7f63299b35d8",
				"blockNumber": 9274876,
				"contractAddress": null,
				"cumulativeGasUsed": "9149178",
				"from": "0xC034550B542b83BA1De312b21d1C94a9a52B1595",
				"gasPrice": "1000252",
				"gasUsed": "9000291",
				"hash": "0x4f059cae15077a739080c36c4a217bea536d21857288519ad41a8e9d3c52af8d",
				"index": 6,
				"logs": [
					{
						"address": "0xB5E96127D417b1B3ef8438496a38A143167209c7",
						"blockHash": "0x9af17a3522464bfcbdc2eebdfb39c5a4407eb1f5067359d5fe0e7f63299b35d8",
						"blockNumber": 9274876,
						"data": "0x0000000000000000000000000000000000000000000000000000000000000000",
						"index": 0,
						"topics": [
							"0x572f161235911da04685a68c06adf558fc7e4a36909dca394650e0adc19cc93d",
							"0x000000000000000000000000c034550b542b83ba1de312b21d1c94a9a52b1595",
							"0x000000000000000000000000183b35e76a7bc60298dcb637515f50e4def9b68b",
							"0x5b8063346228370a521dcd4bedb65f8223a329fb172c5e69a0f2dcd53a5c0d80"
						],
						"transactionHash": "0x4f059cae15077a739080c36c4a217bea536d21857288519ad41a8e9d3c52af8d",
						"transactionIndex": 6
					},
					{
						"address": "0xA0005f07266A54Ad344b1670AA512A929134BF34",
						"blockHash": "0x9af17a3522464bfcbdc2eebdfb39c5a4407eb1f5067359d5fe0e7f63299b35d8",
						"blockNumber": 9274876,
						"data": "0x",
						"index": 1,
						"topics": [
							"0x8be0079c531659141344cd1fd0a4f28419497f9722a3daafe3b4186f6b6457e0",
							"0x0000000000000000000000000000000000000000000000000000000000000000",
							"0x000000000000000000000000817738dc393d682ca5fbb268707b99f2aae96bae"
						],
						"transactionHash": "0x4f059cae15077a739080c36c4a217bea536d21857288519ad41a8e9d3c52af8d",
						"transactionIndex": 6
					},
					{
						"address": "0x584F5Da53cb18789099466074e3B5c32Ed17243a",
						"blockHash": "0x9af17a3522464bfcbdc2eebdfb39c5a4407eb1f5067359d5fe0e7f63299b35d8",
						"blockNumber": 9274876,
						"data": "0x",
						"index": 2,
						"topics": [
							"0x6895c13664aa4f67288b25d7a21d7aaa34916e355fb9b6fae0a139a9085becb8",
							"0x000000000000000000000000183b35e76a7bc60298dcb637515f50e4def9b68b"
						],
						"transactionHash": "0x4f059cae15077a739080c36c4a217bea536d21857288519ad41a8e9d3c52af8d",
						"transactionIndex": 6
					},
					{
						"address": "0x183b35E76A7BC60298DCb637515F50e4DeF9b68b",
						"blockHash": "0x9af17a3522464bfcbdc2eebdfb39c5a4407eb1f5067359d5fe0e7f63299b35d8",
						"blockNumber": 9274876,
						"data": "0x0000000000000000000000000000000000000000000000000000000000000001",
						"index": 3,
						"topics": [
							"0xa65fb05c5808f5f389d72edeaf719ce38f4cc55c1f69ca3cbfb31c21501caa07",
							"0xbbfed4024e4f7cd9bfdaaf35439399f5cf88631e7a77ee1d8176fe9d470a8d0f"
						],
						"transactionHash": "0x4f059cae15077a739080c36c4a217bea536d21857288519ad41a8e9d3c52af8d",
						"transactionIndex": 6
					},
					{
						"address": "0x0eA449Af9c15BAb787626c00e40E5AdD8a201e53",
						"blockHash": "0x9af17a3522464bfcbdc2eebdfb39c5a4407eb1f5067359d5fe0e7f63299b35d8",
						"blockNumber": 9274876,
						"data": "0x",
						"index": 4,
						"topics": [
							"0x8be0079c531659141344cd1fd0a4f28419497f9722a3daafe3b4186f6b6457e0",
							"0x0000000000000000000000000000000000000000000000000000000000000000",
							"0x000000000000000000000000cdfa45a183fa6841ed1ef8550fca0a8aab42ec34"
						],
						"transactionHash": "0x4f059cae15077a739080c36c4a217bea536d21857288519ad41a8e9d3c52af8d",
						"transactionIndex": 6
					},
					{
						"address": "0x0eA449Af9c15BAb787626c00e40E5AdD8a201e53",
						"blockHash": "0x9af17a3522464bfcbdc2eebdfb39c5a4407eb1f5067359d5fe0e7f63299b35d8",
						"blockNumber": 9274876,
						"data": "0x",
						"index": 5,
						"topics": [
							"0x8be0079c531659141344cd1fd0a4f28419497f9722a3daafe3b4186f6b6457e0",
							"0x000000000000000000000000cdfa45a183fa6841ed1ef8550fca0a8aab42ec34",
							"0x0000000000000000000000001369cce8b184fe5c5d80c2f6938ad9a838537cbd"
						],
						"transactionHash": "0x4f059cae15077a739080c36c4a217bea536d21857288519ad41a8e9d3c52af8d",
						"transactionIndex": 6
					},
					{
						"address": "0x2012f03C32098e0a045d3e44df5bAD538e23a5FF",
						"blockHash": "0x9af17a3522464bfcbdc2eebdfb39c5a4407eb1f5067359d5fe0e7f63299b35d8",
						"blockNumber": 9274876,
						"data": "0x",
						"index": 6,
						"topics": [
							"0x72b627b4904fa8a0160a923aa5b142eb19f6e56dc75017884162206f8886df09",
							"0x0000000000000000000000000ea449af9c15bab787626c00e40e5add8a201e53",
							"0x000000000000000000000000cdfa45a183fa6841ed1ef8550fca0a8aab42ec34"
						],
						"transactionHash": "0x4f059cae15077a739080c36c4a217bea536d21857288519ad41a8e9d3c52af8d",
						"transactionIndex": 6
					},
					{
						"address": "0xcDFA45A183fa6841eD1Ef8550FCa0a8aAb42eC34",
						"blockHash": "0x9af17a3522464bfcbdc2eebdfb39c5a4407eb1f5067359d5fe0e7f63299b35d8",
						"blockNumber": 9274876,
						"data": "0x0000000000000000000000000ea449af9c15bab787626c00e40e5add8a201e53",
						"index": 7,
						"topics": [
							"0xa42f6bb68e81f4650a7966f109d861f6c3d2a477e608e30807f568bed1cebdb9",
							"0x0000000000000000000000000000000000000000000000000000000000000001"
						],
						"transactionHash": "0x4f059cae15077a739080c36c4a217bea536d21857288519ad41a8e9d3c52af8d",
						"transactionIndex": 6
					},
					{
						"address": "0x4d9207aBEcA883161A1eAee9DaBeDC0001c198d7",
						"blockHash": "0x9af17a3522464bfcbdc2eebdfb39c5a4407eb1f5067359d5fe0e7f63299b35d8",
						"blockNumber": 9274876,
						"data": "0x",
						"index": 8,
						"topics": [
							"0xddf252ad1be2c89b69c2b068fc378daa952ba7f163c4a11628f55a4df523b3ef",
							"0x0000000000000000000000000000000000000000000000000000000000000000",
							"0x0000000000000000000000001369cce8b184fe5c5d80c2f6938ad9a838537cbd",
							"0x0000000000000000000000000000000000000000000000000000000000000001"
						],
						"transactionHash": "0x4f059cae15077a739080c36c4a217bea536d21857288519ad41a8e9d3c52af8d",
						"transactionIndex": 6
					},
					{
						"address": "0x4d9207aBEcA883161A1eAee9DaBeDC0001c198d7",
						"blockHash": "0x9af17a3522464bfcbdc2eebdfb39c5a4407eb1f5067359d5fe0e7f63299b35d8",
						"blockNumber": 9274876,
						"data": "0x000000000000000000000000daf6226aafe296bbccbec815133386cd910ed582",
						"index": 9,
						"topics": [
							"0x365b3162cd780731fc55a794b59494d472bc2af701007f581843a70673814698",
							"0x0000000000000000000000000000000000000000000000000000000000000001",
							"0x0000000000000000000000001369cce8b184fe5c5d80c2f6938ad9a838537cbd"
						],
						"transactionHash": "0x4f059cae15077a739080c36c4a217bea536d21857288519ad41a8e9d3c52af8d",
						"transactionIndex": 6
					},
					{
						"address": "0x18017cfeD48E1dC0Adc445cEF8A9e6AfFCb330DA",
						"blockHash": "0x9af17a3522464bfcbdc2eebdfb39c5a4407eb1f5067359d5fe0e7f63299b35d8",
						"blockNumber": 9274876,
						"data": "0x000000000000000000000000daf6226aafe296bbccbec815133386cd910ed582",
						"index": 10,
						"topics": [
							"0x7f9a7dcb234c909a09de2f344661ad9e5b24067adb97c908647c2edcbb121c30",
							"0x0000000000000000000000000000000000000000000000000000000000000001",
							"0x000000000000000000000000daf6226aafe296bbccbec815133386cd910ed582"
						],
						"transactionHash": "0x4f059cae15077a739080c36c4a217bea536d21857288519ad41a8e9d3c52af8d",
						"transactionIndex": 6
					},
					{
						"address": "0x1Eb7799d3A230A0440F0d6C477256Df8d425AdBb",
						"blockHash": "0x9af17a3522464bfcbdc2eebdfb39c5a4407eb1f5067359d5fe0e7f63299b35d8",
						"blockNumber": 9274876,
						"data": "0x",
						"index": 11,
						"topics": [
							"0xfda207e5d149787155cf9596283f246f082d4744a57e37dda99146e5dcc542bb",
							"0x0000000000000000000000000000000000000000000000000000000065f1e7a4",
							"0x0000000000000000000000000000000000000000000000000000000000000001",
							"0x0000000000000000000000000000000000000000000000000000000000000000"
						],
						"transactionHash": "0x4f059cae15077a739080c36c4a217bea536d21857288519ad41a8e9d3c52af8d",
						"transactionIndex": 6
					},
					{
						"address": "0x1Eb7799d3A230A0440F0d6C477256Df8d425AdBb",
						"blockHash": "0x9af17a3522464bfcbdc2eebdfb39c5a4407eb1f5067359d5fe0e7f63299b35d8",
						"blockNumber": 9274876,
						"data": "0x000000000000000000000000000000000000000000000000000000000001518000000000000000000000000000000000000000000000d3c21bcecceda10000000000000000000000000000000000000000000000000000000000000002faf0800000000000000000000000000000000000000000000000000000000000000000000009b4e67458c27f2e2ec0617b49c56cd41c29be5ea040000eeee1f40138810000000000000000000000000000000000000000000000000000000065f1e5c6000000000000000000000000daf6226aafe296bbccbec815133386cd910ed582",
						"index": 12,
						"topics": [
							"0x11a490bebff1beffe4bdd210894aca6ea5049427ce4b3c48865717677199cb07",
							"0x0000000000000000000000000000000000000000000000000000000065f1e7a4",
							"0x0000000000000000000000000000000000000000000000000000000000000001"
						],
						"transactionHash": "0x4f059cae15077a739080c36c4a217bea536d21857288519ad41a8e9d3c52af8d",
						"transactionIndex": 6
					},
					{
						"address": "0x1Eb7799d3A230A0440F0d6C477256Df8d425AdBb",
						"blockHash": "0x9af17a3522464bfcbdc2eebdfb39c5a4407eb1f5067359d5fe0e7f63299b35d8",
						"blockNumber": 9274876,
						"data": "0x",
						"index": 13,
						"topics": [
							"0xfda207e5d149787155cf9596283f246f082d4744a57e37dda99146e5dcc542bb",
							"0x0000000000000000000000000000000000000000000000000000000065f1e7a5",
							"0x0000000000000000000000000000000000000000000000000000000000000001",
							"0x0000000000000000000000000000000000000000000000000000000065f1e7a4"
						],
						"transactionHash": "0x4f059cae15077a739080c36c4a217bea536d21857288519ad41a8e9d3c52af8d",
						"transactionIndex": 6
					},
					{
						"address": "0x1Eb7799d3A230A0440F0d6C477256Df8d425AdBb",
						"blockHash": "0x9af17a3522464bfcbdc2eebdfb39c5a4407eb1f5067359d5fe0e7f63299b35d8",
						"blockNumber": 9274876,
						"data": "0x0000000000000000000000000000000000000000000000000000000000093a8000000000000000000000000000000000000000000000152d02c7e14af680000000000000000000000000000000000000000000000000000000000000000096800000000000000000000000000000000000000000000000000000000000000000000009b4e67458c27f2e2ec0617b49c56cd41c29be5ea040000eeee138813881000000000000000000000000000000000000000000000000000000006616cfc6000000000000000000000000daf6226aafe296bbccbec815133386cd910ed582",
						"index": 14,
						"topics": [
							"0x11a490bebff1beffe4bdd210894aca6ea5049427ce4b3c48865717677199cb07",
							"0x0000000000000000000000000000000000000000000000000000000065f1e7a5",
							"0x0000000000000000000000000000000000000000000000000000000000000001"
						],
						"transactionHash": "0x4f059cae15077a739080c36c4a217bea536d21857288519ad41a8e9d3c52af8d",
						"transactionIndex": 6
					},
					{
						"address": "0x12bB7Bcc941b2E5cCef740d0e4317a5B35717D30",
						"blockHash": "0x9af17a3522464bfcbdc2eebdfb39c5a4407eb1f5067359d5fe0e7f63299b35d8",
						"blockNumber": 9274876,
						"data": "0x000000000000000000000000000000000000000000000000000000000000eeee0000000000000000000000000000000000000000000000000000000000000012000000000000000000000000000000000000000000000000000000000000eeee000000000000000000000000daf6226aafe296bbccbec815133386cd910ed582",
						"index": 15,
						"topics": [
							"0x9570de6fc0456f642bd0a001b24cd31676388c24596df64a17190c24310690a1",
							"0x0000000000000000000000000000000000000000000000000000000000000001",
							"0x000000000000000000000000000000000000000000000000000000000000eeee"
						],
						"transactionHash": "0x4f059cae15077a739080c36c4a217bea536d21857288519ad41a8e9d3c52af8d",
						"transactionIndex": 6
					},
					{
						"address": "0x18017cfeD48E1dC0Adc445cEF8A9e6AfFCb330DA",
						"blockHash": "0x9af17a3522464bfcbdc2eebdfb39c5a4407eb1f5067359d5fe0e7f63299b35d8",
						"blockNumber": 9274876,
						"data": "0x0000000000000000000000000000000000000000000000000000000000000040000000000000000000000000daf6226aafe296bbccbec815133386cd910ed582000000000000000000000000000000000000000000000000000000000000000100000000000000000000000012bb7bcc941b2e5ccef740d0e4317a5b35717d30",
						"index": 16,
						"topics": [
							"0xb648241d83df6540fc10f2acc641e4bf80a1e84e7ae2f1f6b0ad204b8fee635b",
							"0x0000000000000000000000000000000000000000000000000000000000000001"
						],
						"transactionHash": "0x4f059cae15077a739080c36c4a217bea536d21857288519ad41a8e9d3c52af8d",
						"transactionIndex": 6
					},
					{
						"address": "0xdAF6226Aafe296bbCCBEC815133386Cd910Ed582",
						"blockHash": "0x9af17a3522464bfcbdc2eebdfb39c5a4407eb1f5067359d5fe0e7f63299b35d8",
						"blockNumber": 9274876,
						"data": "0x0000000000000000000000000000000000000000000000000000000065f1e7a5000000000000000000000000000000000000000000000000000000000000000100000000000000000000000000000000000000000000000000000000000000a000000000000000000000000000000000000000000000000000000000000000c00000000000000000000000001369cce8b184fe5c5d80c2f6938ad9a838537cbd000000000000000000000000000000000000000000000000000000000000000000000000000000000000000000000000000000000000000000000000000000162442414e4e59207265766e6574206465706c6f79656400000000000000000000",
						"index": 17,
						"topics": [
							"0x8dac501f24f52bda9ebdfa6a1789878c1d1e23823c771f7d52b5ba41261b0f45"
						],
						"transactionHash": "0x4f059cae15077a739080c36c4a217bea536d21857288519ad41a8e9d3c52af8d",
						"transactionIndex": 6
					},
					{
						"address": "0xB2eb0b6E78dA33B74cf9d36380C80C1c08771140",
						"blockHash": "0x9af17a3522464bfcbdc2eebdfb39c5a4407eb1f5067359d5fe0e7f63299b35d8",
						"blockNumber": 9274876,
						"data": "0x",
						"index": 18,
						"topics": [
							"0x8be0079c531659141344cd1fd0a4f28419497f9722a3daafe3b4186f6b6457e0",
							"0x0000000000000000000000000000000000000000000000000000000000000000",
							"0x0000000000000000000000003295c9c7374e583cb2e6ed455eaf9908022159d0"
						],
						"transactionHash": "0x4f059cae15077a739080c36c4a217bea536d21857288519ad41a8e9d3c52af8d",
						"transactionIndex": 6
					},
					{
						"address": "0x3295C9c7374E583cb2e6Ed455EAf9908022159D0",
						"blockHash": "0x9af17a3522464bfcbdc2eebdfb39c5a4407eb1f5067359d5fe0e7f63299b35d8",
						"blockNumber": 9274876,
						"data": "0x000000000000000000000000000000000000000000000000000000000000008000000000000000000000000000000000000000000000000000000000000000c07c81a6d5a5002e076dc5e1909b89ccb4a86210ac7201f0beeb188f6c8a2b6614000000000000000000000000daf6226aafe296bbccbec815133386cd910ed582000000000000000000000000000000000000000000000000000000000000000a42616e6e79766572736500000000000000000000000000000000000000000000000000000000000000000000000000000000000000000000000000000000000542414e4e59000000000000000000000000000000000000000000000000000000",
						"index": 19,
						"topics": [
							"0xb4510654a5884cae50948507300dc482833ed1446cef375e064bef00b6b4ba4e",
							"0x0000000000000000000000000000000000000000000000000000000000000001",
							"0x000000000000000000000000b2eb0b6e78da33b74cf9d36380c80c1c08771140"
						],
						"transactionHash": "0x4f059cae15077a739080c36c4a217bea536d21857288519ad41a8e9d3c52af8d",
						"transactionIndex": 6
					},
					{
						"address": "0x7CB4a75D21c45d1A0A0333BFa626f54636c84Da5",
						"blockHash": "0x9af17a3522464bfcbdc2eebdfb39c5a4407eb1f5067359d5fe0e7f63299b35d8",
						"blockNumber": 9274876,
						"data": "0x0000000000000000000000000000000000000000000000000000000000000000000000000000000000000000000000000000000000000000000000003b9aca000000000000000000000000000000000000000000000000000000000000000000000000000000000000000000817738dc393d682ca5fbb268707b99f2aae96bae00000000000000000000000000000000000000000000000000000000000000000000000000000000000000000000000000000000000000000000000000000000000000000000000000000000daf6226aafe296bbccbec815133386cd910ed582",
						"index": 20,
						"topics": [
							"0x0d7ea8ac1cb69dfa18ce2b18e90d31b4d4a0370aacadf7db42d42930a09b3f01",
							"0x0000000000000000000000000000000000000000000000000000000000000001",
							"0x0000000000000000000000000000000000000000000000000000000000000000",
							"0x0000000000000000000000000000000000000000000000000000000000000001"
						],
						"transactionHash": "0x4f059cae15077a739080c36c4a217bea536d21857288519ad41a8e9d3c52af8d",
						"transactionIndex": 6
					},
					{
						"address": "0xBA24624AE5dc821866E9E71Ed050412Ef01E2fe6",
						"blockHash": "0x9af17a3522464bfcbdc2eebdfb39c5a4407eb1f5067359d5fe0e7f63299b35d8",
						"blockNumber": 9274876,
						"data": "0x00000000000000000000000000000000000000000000000000000000000000600000000000000000000000000000000000000000000000000000000003c400000000000000000000000000001369cce8b184fe5c5d80c2f6938ad9a838537cbd000000000000000000000000000000000000000000000000000000000000000500000000000000000000000000000000000000000000000000000000000000120000000000000000000000000000000000000000000000000000000000000019000000000000000000000000000000000000000000000000000000000000001600000000000000000000000000000000000000000000000000000000000000170000000000000000000000000000000000000000000000000000000000000018",
						"index": 21,
						"topics": [
							"0xf8cdf10a0ce6189c6d069e97320ef146e2bcbd32d6c0b86dcbfbf3bd8578fa70",
							"0x000000000000000000000000817738dc393d682ca5fbb268707b99f2aae96bae",
							"0x0000000000000000000000001369cce8b184fe5c5d80c2f6938ad9a838537cbd",
							"0x0000000000000000000000000000000000000000000000000000000000000001"
						],
						"transactionHash": "0x4f059cae15077a739080c36c4a217bea536d21857288519ad41a8e9d3c52af8d",
						"transactionIndex": 6
					},
					{
						"address": "0xB2eb0b6E78dA33B74cf9d36380C80C1c08771140",
						"blockHash": "0x9af17a3522464bfcbdc2eebdfb39c5a4407eb1f5067359d5fe0e7f63299b35d8",
						"blockNumber": 9274876,
						"data": "0x000000000000000000000000000000000000000000422ca8b0a00a4250000000",
						"index": 22,
						"topics": [
							"0xddf252ad1be2c89b69c2b068fc378daa952ba7f163c4a11628f55a4df523b3ef",
							"0x0000000000000000000000000000000000000000000000000000000000000000",
							"0x000000000000000000000000817738dc393d682ca5fbb268707b99f2aae96bae"
						],
						"transactionHash": "0x4f059cae15077a739080c36c4a217bea536d21857288519ad41a8e9d3c52af8d",
						"transactionIndex": 6
					},
					{
						"address": "0x3295C9c7374E583cb2e6Ed455EAf9908022159D0",
						"blockHash": "0x9af17a3522464bfcbdc2eebdfb39c5a4407eb1f5067359d5fe0e7f63299b35d8",
						"blockNumber": 9274876,
						"data": "0x000000000000000000000000000000000000000000422ca8b0a00a42500000000000000000000000000000000000000000000000000000000000000000000001000000000000000000000000daf6226aafe296bbccbec815133386cd910ed582",
						"index": 23,
						"topics": [
							"0x0153be209252ccc3b70df14d55d2cc93fa5a74e263b163d9a1caf45152fd0e86",
							"0x000000000000000000000000817738dc393d682ca5fbb268707b99f2aae96bae",
							"0x0000000000000000000000000000000000000000000000000000000000000001"
						],
						"transactionHash": "0x4f059cae15077a739080c36c4a217bea536d21857288519ad41a8e9d3c52af8d",
						"transactionIndex": 6
					},
					{
						"address": "0xdAF6226Aafe296bbCCBEC815133386Cd910Ed582",
						"blockHash": "0x9af17a3522464bfcbdc2eebdfb39c5a4407eb1f5067359d5fe0e7f63299b35d8",
						"blockNumber": 9274876,
						"data": "0x000000000000000000000000000000000000000000422ca8b0a00a4250000000000000000000000000000000000000000000000000422ca8b0a00a425000000000000000000000000000000000000000000000000000000000000000000000a000000000000000000000000000000000000000000000000000000000000000000000000000000000000000001369cce8b184fe5c5d80c2f6938ad9a838537cbd00000000000000000000000000000000000000000000000000000000000000102442414e4e59207072656d696e74656400000000000000000000000000000000",
						"index": 24,
						"topics": [
							"0xe6fee9c572244c0c2238c3112ac12d411750a7ee00eeebd32521c3e5a666c14b",
							"0x000000000000000000000000817738dc393d682ca5fbb268707b99f2aae96bae",
							"0x0000000000000000000000000000000000000000000000000000000000000001"
						],
						"transactionHash": "0x4f059cae15077a739080c36c4a217bea536d21857288519ad41a8e9d3c52af8d",
						"transactionIndex": 6
					},
					{
						"address": "0xBA24624AE5dc821866E9E71Ed050412Ef01E2fe6",
						"blockHash": "0x9af17a3522464bfcbdc2eebdfb39c5a4407eb1f5067359d5fe0e7f63299b35d8",
						"blockNumber": 9274876,
						"data": "0x000000000000000000000000000000000000000000000000000000000000006000000000000000000000000000000000000000000000000000000000200000000000000000000000000000001369cce8b184fe5c5d80c2f6938ad9a838537cbd0000000000000000000000000000000000000000000000000000000000000001000000000000000000000000000000000000000000000000000000000000001d",
						"index": 25,
						"topics": [
							"0xf8cdf10a0ce6189c6d069e97320ef146e2bcbd32d6c0b86dcbfbf3bd8578fa70",
							"0x0000000000000000000000004be9d88be6e7a38644ea746cf78cb1bf30051c76",
							"0x0000000000000000000000001369cce8b184fe5c5d80c2f6938ad9a838537cbd",
							"0x0000000000000000000000000000000000000000000000000000000000000001"
						],
						"transactionHash": "0x4f059cae15077a739080c36c4a217bea536d21857288519ad41a8e9d3c52af8d",
						"transactionIndex": 6
					},
					{
						"address": "0x06350909758b8c7B07f2782dB1b9B821d807D06C",
						"blockHash": "0x9af17a3522464bfcbdc2eebdfb39c5a4407eb1f5067359d5fe0e7f63299b35d8",
						"blockNumber": 9274876,
						"data": "0x00000000000000000000000000000000000000000000000000000000000000400000000000000000000000001369cce8b184fe5c5d80c2f6938ad9a838537cbd000000000000000000000000000000000000000000000000000000000000000400000000000000000000000000000000000000000000000000000000000000800000000000000000000000000000000000000000000000000000000000000160000000000000000000000000000000000000000000000000000000000000024000000000000000000000000000000000000000000000000000000000000003200000000000000000000000000ea449af9c15bab787626c00e40e5add8a201e53000000000000000000000000000000000000000000000000000000000000006400000000000000000000000000000000000000000000000000038d7ea4c680000000000000000000000000000000000000000000000000000000000000002710000000000000000000000000000000000000000000000000000000003b9ac9ff00000000000000000000000000000000000000000000000000000000000000c000000000000000000000000000000000000000000000000000000000000000000000000000000000000000000ea449af9c15bab787626c00e40e5add8a201e530000000000000000000000000000000000000000000000000000000000000065000000000000000000000000000000000000000000000000016345785d8a00000000000000000000000000000000000000000000000000000000000000000064000000000000000000000000000000000000000000000000000000003b9ac9ff00000000000000000000000000000000000000000000000000000000000000c000000000000000000000000000000000000000000000000000000000000000000000000000000000000000000ea449af9c15bab787626c00e40e5add8a201e5300000000000000000000000000000000000000000000000000000000000000660000000000000000000000000000000000000000000000000de0b6b3a7640000000000000000000000000000000000000000000000000000000000000000000a000000000000000000000000000000000000000000000000000000003b9ac9ff00000000000000000000000000000000000000000000000000000000000000c000000000000000000000000000000000000000000000000000000000000000000000000000000000000000000ea449af9c15bab787626c00e40e5add8a201e5300000000000000000000000000000000000000000000000000000000000000670000000000000000000000000000000000000000000000056bc75e2d63100000000000000000000000000000000000000000000000000000000000000000000a000000000000000000000000000000000000000000000000000000003b9ac9ff00000000000000000000000000000000000000000000000000000000000000c00000000000000000000000000000000000000000000000000000000000000000",
						"index": 26,
						"topics": [
							"0xbccec612e631e987bbe45a96fe8ca1a685eb5d16c9765befacb1d79f0d4a040c",
							"0x0000000000000000000000000000000000000000000000000000000000000001"
						],
						"transactionHash": "0x4f059cae15077a739080c36c4a217bea536d21857288519ad41a8e9d3c52af8d",
						"transactionIndex": 6
					},
					{
						"address": "0xBA24624AE5dc821866E9E71Ed050412Ef01E2fe6",
						"blockHash": "0x9af17a3522464bfcbdc2eebdfb39c5a4407eb1f5067359d5fe0e7f63299b35d8",
						"blockNumber": 9274876,
						"data": "0x000000000000000000000000000000000000000000000000000000000000006000000000000000000000000000000000000000000000000000000000004000000000000000000000000000001369cce8b184fe5c5d80c2f6938ad9a838537cbd00000000000000000000000000000000000000000000000000000000000000010000000000000000000000000000000000000000000000000000000000000016",
						"index": 27,
						"topics": [
							"0xf8cdf10a0ce6189c6d069e97320ef146e2bcbd32d6c0b86dcbfbf3bd8578fa70",
							"0x00000000000000000000000006350909758b8c7b07f2782db1b9b821d807d06c",
							"0x0000000000000000000000001369cce8b184fe5c5d80c2f6938ad9a838537cbd",
							"0x0000000000000000000000000000000000000000000000000000000000000001"
						],
						"transactionHash": "0x4f059cae15077a739080c36c4a217bea536d21857288519ad41a8e9d3c52af8d",
						"transactionIndex": 6
					},
					{
						"address": "0x584F5Da53cb18789099466074e3B5c32Ed17243a",
						"blockHash": "0x9af17a3522464bfcbdc2eebdfb39c5a4407eb1f5067359d5fe0e7f63299b35d8",
						"blockNumber": 9274876,
						"data": "0x",
						"index": 28,
						"topics": [
							"0x6895c13664aa4f67288b25d7a21d7aaa34916e355fb9b6fae0a139a9085becb8",
							"0x000000000000000000000000183b35e76a7bc60298dcb637515f50e4def9b68b"
						],
						"transactionHash": "0x4f059cae15077a739080c36c4a217bea536d21857288519ad41a8e9d3c52af8d",
						"transactionIndex": 6
					},
					{
						"address": "0x183b35E76A7BC60298DCb637515F50e4DeF9b68b",
						"blockHash": "0x9af17a3522464bfcbdc2eebdfb39c5a4407eb1f5067359d5fe0e7f63299b35d8",
						"blockNumber": 9274876,
						"data": "0x0000000000000000000000000000000000000000000000000000000000000002",
						"index": 29,
						"topics": [
							"0xa65fb05c5808f5f389d72edeaf719ce38f4cc55c1f69ca3cbfb31c21501caa07",
							"0xbbfed4024e4f7cd9bfdaaf35439399f5cf88631e7a77ee1d8176fe9d470a8d0f"
						],
						"transactionHash": "0x4f059cae15077a739080c36c4a217bea536d21857288519ad41a8e9d3c52af8d",
						"transactionIndex": 6
					},
					{
						"address": "0x183b35E76A7BC60298DCb637515F50e4DeF9b68b",
						"blockHash": "0x9af17a3522464bfcbdc2eebdfb39c5a4407eb1f5067359d5fe0e7f63299b35d8",
						"blockNumber": 9274876,
						"data": "0x",
						"index": 30,
						"topics": [
							"0x4383d976757d67ca920616be0b6430a681ea9d3dcce8d6d61d4603ca4a9bff63",
							"0xbbfed4024e4f7cd9bfdaaf35439399f5cf88631e7a77ee1d8176fe9d470a8d0f"
						],
						"transactionHash": "0x4f059cae15077a739080c36c4a217bea536d21857288519ad41a8e9d3c52af8d",
						"transactionIndex": 6
					}
				],
				"logsBloom": "0x00408000080010008210000008080202000000000008004020813003004000000000000000c041000008002004480000801000000000000200000000000400000000001004222000000000080000800800010800000408008010c001008000101002000302000000808000200000094001080008300001024002001200c0004822000000004005000001008000008000001a200808000000100000402000001000401080101c0000000200000000500a02020000000000000002200140042020a40200020000042002a000004c0004800100860020020184001000000200e0008000000000800008100000000000000210001002400204000000000009000000",
				"status": 1,
				"to": "0xB5E96127D417b1B3ef8438496a38A143167209c7"
			},
			"metadata": "{\"compiler\":{\"version\":\"0.8.23+commit.f704f362\"},\"language\":\"Solidity\",\"output\":{\"abi\":[{\"inputs\":[{\"internalType\":\"address\",\"name\":\"owner\",\"type\":\"address\"},{\"internalType\":\"address\",\"name\":\"trustedForwarder\",\"type\":\"address\"}],\"stateMutability\":\"nonpayable\",\"type\":\"constructor\"},{\"inputs\":[],\"type\":\"error\",\"name\":\"CONTENTS_ALREADY_STORED\"},{\"inputs\":[],\"type\":\"error\",\"name\":\"CONTENTS_MISMATCH\"},{\"inputs\":[],\"type\":\"error\",\"name\":\"FACE_ALREADY_ADDED\"},{\"inputs\":[],\"type\":\"error\",\"name\":\"HASH_ALREADY_STORED\"},{\"inputs\":[],\"type\":\"error\",\"name\":\"HASH_NOT_FOUND\"},{\"inputs\":[{\"internalType\":\"address\",\"name\":\"owner\",\"type\":\"address\"}],\"type\":\"error\",\"name\":\"OwnableInvalidOwner\"},{\"inputs\":[{\"internalType\":\"address\",\"name\":\"account\",\"type\":\"address\"}],\"type\":\"error\",\"name\":\"OwnableUnauthorizedAccount\"},{\"inputs\":[],\"type\":\"error\",\"name\":\"SUIT_ALREADY_ADDED\"},{\"inputs\":[],\"type\":\"error\",\"name\":\"UNAUTHORIZED_OUTFIT\"},{\"inputs\":[],\"type\":\"error\",\"name\":\"UNAUTHORIZED_WORLD\"},{\"inputs\":[],\"type\":\"error\",\"name\":\"UNAUTHORIZED__NAKED_BANNY\"},{\"inputs\":[],\"type\":\"error\",\"name\":\"UNORDERED_CATEGORIES\"},{\"inputs\":[],\"type\":\"error\",\"name\":\"UNRECOGNIZED_CATEGORY\"},{\"inputs\":[],\"type\":\"error\",\"name\":\"UNRECOGNIZED_OUTFIT\"},{\"inputs\":[],\"type\":\"error\",\"name\":\"UNRECOGNIZED_TIER\"},{\"inputs\":[],\"type\":\"error\",\"name\":\"UNRECOGNIZED_WORLD\"},{\"inputs\":[{\"internalType\":\"address\",\"name\":\"hook\",\"type\":\"address\",\"indexed\":true},{\"internalType\":\"uint256\",\"name\":\"nakenBannyId\",\"type\":\"uint256\",\"indexed\":true},{\"internalType\":\"uint256\",\"name\":\"worldId\",\"type\":\"uint256\",\"indexed\":false},{\"internalType\":\"uint256[]\",\"name\":\"outfitIds\",\"type\":\"uint256[]\",\"indexed\":false},{\"internalType\":\"address\",\"name\":\"caller\",\"type\":\"address\",\"indexed\":false}],\"type\":\"event\",\"name\":\"DecorateBanny\",\"anonymous\":false},{\"inputs\":[{\"internalType\":\"address\",\"name\":\"previousOwner\",\"type\":\"address\",\"indexed\":true},{\"internalType\":\"address\",\"name\":\"newOwner\",\"type\":\"address\",\"indexed\":true}],\"type\":\"event\",\"name\":\"OwnershipTransferred\",\"anonymous\":false},{\"inputs\":[{\"internalType\":\"string\",\"name\":\"baseUri\",\"type\":\"string\",\"indexed\":false},{\"internalType\":\"address\",\"name\":\"caller\",\"type\":\"address\",\"indexed\":false}],\"type\":\"event\",\"name\":\"SetSvgBaseUri\",\"anonymous\":false},{\"inputs\":[{\"internalType\":\"uint256\",\"name\":\"tierId\",\"type\":\"uint256\",\"indexed\":true},{\"internalType\":\"bytes32\",\"name\":\"svgHash\",\"type\":\"bytes32\",\"indexed\":true},{\"internalType\":\"string\",\"name\":\"svgContents\",\"type\":\"string\",\"indexed\":false},{\"internalType\":\"address\",\"name\":\"caller\",\"type\":\"address\",\"indexed\":false}],\"type\":\"event\",\"name\":\"SetSvgContents\",\"anonymous\":false},{\"inputs\":[{\"internalType\":\"uint256\",\"name\":\"tierId\",\"type\":\"uint256\",\"indexed\":true},{\"internalType\":\"bytes32\",\"name\":\"svgHash\",\"type\":\"bytes32\",\"indexed\":true},{\"internalType\":\"address\",\"name\":\"caller\",\"type\":\"address\",\"indexed\":false}],\"type\":\"event\",\"name\":\"SetSvgHash\",\"anonymous\":false},{\"inputs\":[{\"internalType\":\"uint256\",\"name\":\"tierId\",\"type\":\"uint256\",\"indexed\":true},{\"internalType\":\"string\",\"name\":\"name\",\"type\":\"string\",\"indexed\":false},{\"internalType\":\"address\",\"name\":\"caller\",\"type\":\"address\",\"indexed\":false}],\"type\":\"event\",\"name\":\"SetTierName\",\"anonymous\":false},{\"inputs\":[{\"internalType\":\"uint256\",\"name\":\"tokenId\",\"type\":\"uint256\"},{\"internalType\":\"uint256\",\"name\":\"tierId\",\"type\":\"uint256\"},{\"internalType\":\"uint256\",\"name\":\"category\",\"type\":\"uint256\"}],\"stateMutability\":\"view\",\"type\":\"function\",\"name\":\"_nameOf\",\"outputs\":[{\"internalType\":\"string\",\"name\":\"\",\"type\":\"string\"}]},{\"inputs\":[{\"internalType\":\"uint256\",\"name\":\"nakedBannyId\",\"type\":\"uint256\"}],\"stateMutability\":\"view\",\"type\":\"function\",\"name\":\"assetIdsOf\",\"outputs\":[{\"internalType\":\"uint256\",\"name\":\"worldId\",\"type\":\"uint256\"},{\"internalType\":\"uint256[]\",\"name\":\"outfitIds\",\"type\":\"uint256[]\"}]},{\"inputs\":[{\"internalType\":\"address\",\"name\":\"hook\",\"type\":\"address\"},{\"internalType\":\"uint256\",\"name\":\"tokenId\",\"type\":\"uint256\"},{\"internalType\":\"bool\",\"name\":\"shouldBeDressed\",\"type\":\"bool\"},{\"internalType\":\"bool\",\"name\":\"shouldIncludeWorld\",\"type\":\"bool\"}],\"stateMutability\":\"view\",\"type\":\"function\",\"name\":\"bannySvgOf\",\"outputs\":[{\"internalType\":\"string\",\"name\":\"\",\"type\":\"string\"}]},{\"inputs\":[{\"internalType\":\"address\",\"name\":\"hook\",\"type\":\"address\"},{\"internalType\":\"uint256\",\"name\":\"nakedBannyId\",\"type\":\"uint256\"},{\"internalType\":\"uint256\",\"name\":\"worldId\",\"type\":\"uint256\"},{\"internalType\":\"uint256[]\",\"name\":\"outfitIds\",\"type\":\"uint256[]\"}],\"stateMutability\":\"nonpayable\",\"type\":\"function\",\"name\":\"decorateBannyWith\"},{\"inputs\":[{\"internalType\":\"address\",\"name\":\"forwarder\",\"type\":\"address\"}],\"stateMutability\":\"view\",\"type\":\"function\",\"name\":\"isTrustedForwarder\",\"outputs\":[{\"internalType\":\"bool\",\"name\":\"\",\"type\":\"bool\"}]},{\"inputs\":[{\"internalType\":\"address\",\"name\":\"hook\",\"type\":\"address\"},{\"internalType\":\"uint256\",\"name\":\"tokenId\",\"type\":\"uint256\"}],\"stateMutability\":\"view\",\"type\":\"function\",\"name\":\"nameOf\",\"outputs\":[{\"internalType\":\"string\",\"name\":\"\",\"type\":\"string\"}]},{\"inputs\":[],\"stateMutability\":\"view\",\"type\":\"function\",\"name\":\"owner\",\"outputs\":[{\"internalType\":\"address\",\"name\":\"\",\"type\":\"address\"}]},{\"inputs\":[],\"stateMutability\":\"nonpayable\",\"type\":\"function\",\"name\":\"renounceOwnership\"},{\"inputs\":[{\"internalType\":\"string\",\"name\":\"baseUri\",\"type\":\"string\"}],\"stateMutability\":\"nonpayable\",\"type\":\"function\",\"name\":\"setSvgBaseUriOf\"},{\"inputs\":[{\"internalType\":\"uint256\",\"name\":\"tierId\",\"type\":\"uint256\"},{\"internalType\":\"string\",\"name\":\"svgContents\",\"type\":\"string\"}],\"stateMutability\":\"nonpayable\",\"type\":\"function\",\"name\":\"setSvgContentsOf\"},{\"inputs\":[{\"internalType\":\"uint256\",\"name\":\"tierId\",\"type\":\"uint256\"},{\"internalType\":\"bytes32\",\"name\":\"svgHash\",\"type\":\"bytes32\"}],\"stateMutability\":\"nonpayable\",\"type\":\"function\",\"name\":\"setSvgHashOf\"},{\"inputs\":[{\"internalType\":\"uint256\",\"name\":\"tierId\",\"type\":\"uint256\"},{\"internalType\":\"string\",\"name\":\"name\",\"type\":\"string\"}],\"stateMutability\":\"nonpayable\",\"type\":\"function\",\"name\":\"setTierName\"},{\"inputs\":[],\"stateMutability\":\"view\",\"type\":\"function\",\"name\":\"svgBaseUri\",\"outputs\":[{\"internalType\":\"string\",\"name\":\"\",\"type\":\"string\"}]},{\"inputs\":[{\"internalType\":\"uint256\",\"name\":\"tierId\",\"type\":\"uint256\"}],\"stateMutability\":\"view\",\"type\":\"function\",\"name\":\"svgHashOf\",\"outputs\":[{\"internalType\":\"bytes32\",\"name\":\"\",\"type\":\"bytes32\"}]},{\"inputs\":[{\"internalType\":\"address\",\"name\":\"hook\",\"type\":\"address\"},{\"internalType\":\"uint256\",\"name\":\"tokenId\",\"type\":\"uint256\"}],\"stateMutability\":\"view\",\"type\":\"function\",\"name\":\"tokenUriOf\",\"outputs\":[{\"internalType\":\"string\",\"name\":\"\",\"type\":\"string\"}]},{\"inputs\":[{\"internalType\":\"address\",\"name\":\"newOwner\",\"type\":\"address\"}],\"stateMutability\":\"nonpayable\",\"type\":\"function\",\"name\":\"transferOwnership\"},{\"inputs\":[],\"stateMutability\":\"view\",\"type\":\"function\",\"name\":\"trustedForwarder\",\"outputs\":[{\"internalType\":\"address\",\"name\":\"\",\"type\":\"address\"}]}],\"devdoc\":{\"kind\":\"dev\",\"methods\":{\"assetIdsOf(uint256)\":{\"params\":{\"nakedBannyId\":\"The ID of the naked banny shows with the associated assets.\"},\"returns\":{\"outfitIds\":\"The outfits attached to the Naked Banny.\",\"worldId\":\"The world attached to the Naked Banny.\"}},\"bannySvgOf(address,uint256,bool,bool)\":{\"params\":{\"hook\":\"The hook storing the assets.\",\"tokenId\":\"The ID of the token to show. If the ID belongs to a Naked Banny, it will be shown with its current outfits in its current world.\"},\"returns\":{\"_0\":\"bannySvg The SVG.\"}},\"constructor\":{\"params\":{\"owner\":\"The owner allowed to add SVG files that correspond to tier IDs.\",\"trustedForwarder\":\"The trusted forwarder for the ERC2771Context.\"}},\"decorateBannyWith(address,uint256,uint256,uint256[])\":{\"details\":\"The caller must own the naked banny being dressed and all outfits being worn.\",\"params\":{\"hook\":\"The hook storing the assets.\",\"nakedBannyId\":\"The ID of the Naked Banny being dressed.\",\"outfitIds\":\"The IDs of the outfits that'll be associated with the specified banny. Only one outfit per outfit category allowed at a time and they must be passed in order.\",\"worldId\":\"The ID of the world that'll be associated with the specified banny.\"}},\"isTrustedForwarder(address)\":{\"details\":\"Indicates whether any particular address is the trusted forwarder.\"},\"owner()\":{\"details\":\"Returns the address of the current owner.\"},\"renounceOwnership()\":{\"details\":\"Leaves the contract without owner. It will not be possible to call `onlyOwner` functions. Can only be called by the current owner. NOTE: Renouncing ownership will leave the contract without an owner, thereby disabling any functionality that is only available to the owner.\"},\"setSvgContentsOf(uint256,string)\":{\"params\":{\"svgContents\":\"The svg contents being stored, not including the parent <svg></svg> element.\",\"tierId\":\"The ID of the tier having an SVG stored.\"}},\"setSvgHashOf(uint256,bytes32)\":{\"details\":\"This allows anyone to lazily upload the correct svg file.\",\"params\":{\"svgHash\":\"The svg hash being stored, not including the parent <svg></svg> element.\",\"tierId\":\"The ID of the tier having an SVG hash stored.\"}},\"setTierName(uint256,string)\":{\"params\":{\"name\":\"The name of the tier.\",\"tierId\":\"The ID of the tier having its name stored.\"}},\"tokenUriOf(address,uint256)\":{\"params\":{\"tokenId\":\"The ID of the token to show. If the ID belongs to a Naked Banny, it will be shown with its current outfits in its current world.\"},\"returns\":{\"_0\":\"tokenUri The URI representing the SVG.\"}},\"transferOwnership(address)\":{\"details\":\"Transfers ownership of the contract to a new account (`newOwner`). Can only be called by the current owner.\"},\"trustedForwarder()\":{\"details\":\"Returns the address of the trusted forwarder.\"}},\"version\":1},\"userdoc\":{\"kind\":\"user\",\"methods\":{\"_nameOf(uint256,uint256,uint256)\":{\"notice\":\"The name of each tier.\"},\"assetIdsOf(uint256)\":{\"notice\":\"The assets currently attached to each Naked Banny, owned by the naked Banny's owner.\"},\"bannySvgOf(address,uint256,bool,bool)\":{\"notice\":\"Returns the SVG showing a dressed Naked Banny.\"},\"decorateBannyWith(address,uint256,uint256,uint256[])\":{\"notice\":\"Dress your Naked Banny with outfits.\"},\"setSvgBaseUriOf(string)\":{\"notice\":\"Allows the owner of this contract to specify the base of the domain hosting the SVG files.\"},\"setSvgContentsOf(uint256,string)\":{\"notice\":\"The owner of this contract can store SVG files for tier IDs.\"},\"setSvgHashOf(uint256,bytes32)\":{\"notice\":\"Allows the owner of this contract to upload the hash of an svg file for a tierId.\"},\"setTierName(uint256,string)\":{\"notice\":\"Allows the owner to set the tier's name.\"},\"svgBaseUri()\":{\"notice\":\"The base of the domain hosting the SVG files that can be lazily uploaded to the contract.\"},\"svgHashOf(uint256)\":{\"notice\":\"The Naked Banny and outfit SVG hash files.\"},\"tokenUriOf(address,uint256)\":{\"notice\":\"Returns the SVG showing a dressed Naked Banny in a world.\"}},\"version\":1}},\"settings\":{\"remappings\":[\"@arbitrum/=node_modules/@arbitrum/\",\"@bananapus/=node_modules/@bananapus/\",\"@chainlink/=node_modules/@chainlink/\",\"@croptop/=node_modules/@croptop/\",\"@eth-optimism/=node_modules/@eth-optimism/\",\"@exhausted-pigeon/=node_modules/@exhausted-pigeon/\",\"@gnosis.pm/=node_modules/@gnosis.pm/\",\"@offchainlabs/=node_modules/@offchainlabs/\",\"@openzeppelin/=node_modules/@openzeppelin/\",\"@prb/=node_modules/@prb/\",\"@rev-net/=node_modules/@rev-net/\",\"@sphinx-labs/contracts/=node_modules/@sphinx-labs/contracts/contracts/foundry/\",\"@uniswap/=node_modules/@uniswap/\",\"base64-sol/=node_modules/base64-sol/\",\"base64/=lib/base64/\",\"ds-test/=lib/forge-std/lib/ds-test/src/\",\"forge-std/=lib/forge-std/src/\",\"hardhat/=node_modules/hardhat/\",\"solmate/=node_modules/solmate/\",\"sphinx-forge-std/=node_modules/sphinx-forge-std/\",\"sphinx-solmate/=node_modules/sphinx-solmate/\",\"sphinx/=lib/sphinx/packages/contracts/contracts/forge-std/src/\"],\"optimizer\":{\"enabled\":true,\"runs\":1000},\"metadata\":{\"bytecodeHash\":\"ipfs\"},\"compilationTarget\":{\"src/Banny721TokenUriResolver.sol\":\"Banny721TokenUriResolver\"},\"evmVersion\":\"paris\",\"libraries\":{},\"viaIR\":true},\"sources\":{\"lib/base64/base64.sol\":{\"keccak256\":\"0xa73959e6ef0b693e4423a562e612370160b934a75e618361ddd8c9c4b8ddbaaf\",\"urls\":[\"bzz-raw://17c12e16d8d66f3af15d8787920bd41ca6c1e7517a212a6b9cebd4b6d38f36fe\",\"dweb:/ipfs/QmcXMnZUXEz6LRKsm3CSvqdPboAzmezavi8bTg2dRxM2yE\"],\"license\":\"MIT\"},\"node_modules/@bananapus/721-hook/src/abstract/ERC721.sol\":{\"keccak256\":\"0xc25c7c60c88684adc3f7a49621d27866866a44a3f3796e63c9fcaba75fbb2e84\",\"urls\":[\"bzz-raw://713103b7a05402264493430cfcd7d85f1a241a2eb4756af53a370fa529ea07bf\",\"dweb:/ipfs/QmSXZfxCG1N9XheS1kLCNJZ9k6ZRq4GnAMY7MKFfbKLXmz\"],\"license\":\"MIT\"},\"node_modules/@bananapus/721-hook/src/interfaces/IJB721Hook.sol\":{\"keccak256\":\"0x6cc09b57796ce71a103adb88ee851a9e2f4b5dc42cf7e153371e5c2157c4444d\",\"urls\":[\"bzz-raw://a2d0518c1f6803ab197049839de78debdd97908aa0fc7e44c6742ee209587b46\",\"dweb:/ipfs/QmXzoxr3DNH3NpwvTmRJcwKXFwUZQzCbAeTVh4NZzJedb7\"],\"license\":\"MIT\"},\"node_modules/@bananapus/721-hook/src/interfaces/IJB721TiersHook.sol\":{\"keccak256\":\"0xae662e642cb039931f0cac1a73e3c6b6833cf5edb6c5e3d4864f37cb07791684\",\"urls\":[\"bzz-raw://0942d829b0ba82ececd6de9148c6f3e85c0ecf398d23358086434e31e792b68b\",\"dweb:/ipfs/QmPdtTtoawqq2yTHBhqfs72DVHAQ3dbrjDGnQ3NmkHzLer\"],\"license\":\"MIT\"},\"node_modules/@bananapus/721-hook/src/interfaces/IJB721TiersHookStore.sol\":{\"keccak256\":\"0x8550e216c12c9cda865c1b1b0eb3f244aeaa8d465b197d4bd0dd8d4df265682e\",\"urls\":[\"bzz-raw://674a312f1eaffd7c6b21f58f8d4a628104e71220daf48a22237fa3bd035ddf21\",\"dweb:/ipfs/QmSRSW6cSwdpoGjVxDqiwJmJyCxfHWhCxZ2iaqeJcN2Ccy\"],\"license\":\"MIT\"},\"node_modules/@bananapus/721-hook/src/interfaces/IJB721TokenUriResolver.sol\":{\"keccak256\":\"0xfa599167098f4459320ec4141a98a17b2dfffbce422baa27d8b4e4530f61ece1\",\"urls\":[\"bzz-raw://8b758b161f4c7b520b2c34b4d91e585e961b8f4ca278eebb91d791f7f2f45140\",\"dweb:/ipfs/QmcD9DF7NJ9QykQpT4KPzm4bs3fkjzukdAUWwdU6Atfw85\"],\"license\":\"MIT\"},\"node_modules/@bananapus/721-hook/src/libraries/JBIpfsDecoder.sol\":{\"keccak256\":\"0xb93ba562ac1fc9d3829be00e61f3a90f51df5661cf0f2c819a7f1d8ba19ec171\",\"urls\":[\"bzz-raw://fc9bc948fac8897d9720ef25b13d63c60b40a18aa1897dd1c657fc278c416b4f\",\"dweb:/ipfs/QmNtiJTALZW5zfyKVy7XG5GkqGgMrfkVvU4Auu4bb9cGQc\"],\"license\":\"MIT\"},\"node_modules/@bananapus/721-hook/src/structs/JB721InitTiersConfig.sol\":{\"keccak256\":\"0xfb78486cec94189d0ecf2050dc9cfc11245b426c73a0711a85bff1359d774307\",\"urls\":[\"bzz-raw://a8fa01f6e64dd204dbde07a60851e9a5a74e439e1411139ae16b7cf67d2a2692\",\"dweb:/ipfs/QmZAnHyfpKr3xr7NWHj5sGaCEEtG8RtmHhkRUJJvNauym5\"],\"license\":\"MIT\"},\"node_modules/@bananapus/721-hook/src/structs/JB721Tier.sol\":{\"keccak256\":\"0x2e267a8af02f125465cdda9308477346ae4a94b024c3b2c2a6af0c00027944dd\",\"urls\":[\"bzz-raw://367ccea2c8fa815d498d771d4367ef1ded718a76e89644102034bfe4a3636b82\",\"dweb:/ipfs/QmYiFFa6ei9wZBSSVUHfY2Cb35zCDVXvbmLcgLj2BTiC1u\"],\"license\":\"MIT\"},\"node_modules/@bananapus/721-hook/src/structs/JB721TierConfig.sol\":{\"keccak256\":\"0x2fa9c5c8cec182b854a656d3b284e9d5306be35ad3dc4da79d65dca12b804af0\",\"urls\":[\"bzz-raw://b443a5f70195a66145ea1dade04454ce9a3ff1209e1aaecf53c8a9909b294d79\",\"dweb:/ipfs/QmUDPFZ4L6XpV3zLQUNVchUvecD4XfddKz2S46BKek5XL1\"],\"license\":\"MIT\"},\"node_modules/@bananapus/721-hook/src/structs/JB721TiersHookFlags.sol\":{\"keccak256\":\"0x283d8429f31bd58875c056515aa42abd09c95362bd929e85cfc44a0d92585766\",\"urls\":[\"bzz-raw://9a580b89fe99d9f8e930c58a4d0d63a5ff7c01c79d210af01373d066c9e72ed6\",\"dweb:/ipfs/QmdY1eSGSoTjv4KSdsG4Tm5CzJN6iqk3qTRga5ZWNbejRz\"],\"license\":\"MIT\"},\"node_modules/@bananapus/721-hook/src/structs/JB721TiersMintReservesConfig.sol\":{\"keccak256\":\"0xab3b319dc4e736586ae595de194d93dcdfeba365bc7a54cf6c37e697f6074ad9\",\"urls\":[\"bzz-raw://a84ae2cf2e8c3e39e831dbb39a67a8eb43c78a6de6bb78b1be2e1f1e80c69efe\",\"dweb:/ipfs/QmboGXEMqsYTxc4a7oft9rggNU7ShWSa9yB4HFMVmzXCHz\"],\"license\":\"MIT\"},\"node_modules/@bananapus/core/src/enums/JBApprovalStatus.sol\":{\"keccak256\":\"0x61c69b6bac7d24b566d87cda23a77e4ca9cdb87200b106aba8534cb9a0973e33\",\"urls\":[\"bzz-raw://6a9ca7249de76f77a8252eefe6bd1b63d47952f25a2acfa2c8db967cdff4470c\",\"dweb:/ipfs/QmaxSxptRQNj8bNy96EreENmrnRWdKmhyihBcxyWzBX5BN\"],\"license\":\"MIT\"},\"node_modules/@bananapus/core/src/interfaces/IJBControlled.sol\":{\"keccak256\":\"0x79fb8de7b3f809f1c3c7189f578b7331ec4dfe3350151d5b50240ecb3a2a907b\",\"urls\":[\"bzz-raw://45c82240dd4f0e9aec00d0d86f6b44bdda231db098ebdac17e922771b3e6f342\",\"dweb:/ipfs/QmPUvT8HZeVenrZDpP14HsZofaXPJjih8UAd35rTg3tU7E\"],\"license\":\"MIT\"},\"node_modules/@bananapus/core/src/interfaces/IJBDirectory.sol\":{\"keccak256\":\"0xd15957cc32974cde4f9f194b92574df2ad8a7aeec049d947136ce3381f9145f6\",\"urls\":[\"bzz-raw://7543e5cbde75ff777b16067016ff9ac5e995752842f03662137eb4ef3fc3c868\",\"dweb:/ipfs/QmPJZAmqNKRcj1JQ4Kc9hExbMtPPzrRB5hZ787utCfBmXg\"],\"license\":\"MIT\"},\"node_modules/@bananapus/core/src/interfaces/IJBPayHook.sol\":{\"keccak256\":\"0xe24aa2ca52f7a5f24f24ccae101cfc94d0f76705b2d23222f87c7852f8be4267\",\"urls\":[\"bzz-raw://6888140e9a7d4156fd22635654d5d08e21819af8b0356b5415f37b75083b3eb9\",\"dweb:/ipfs/QmbuwBNhar7rEbRhTJPiyo5PVsfaM5nqLow9NAkHhyvjV5\"],\"license\":\"MIT\"},\"node_modules/@bananapus/core/src/interfaces/IJBPriceFeed.sol\":{\"keccak256\":\"0x4bd84c0f1a5d4729ed709bcddd43f4c50ec4a165ece79780af8dce482ed07d4a\",\"urls\":[\"bzz-raw://62bac4bfb6982fb002f620c77e5c445e62d50241a5aa64a07e51d929f5a42180\",\"dweb:/ipfs/QmWgJUDreVY2BuMX38a1iUUR5kNbMwGnKG3VvurB7oZtuM\"],\"license\":\"MIT\"},\"node_modules/@bananapus/core/src/interfaces/IJBPrices.sol\":{\"keccak256\":\"0x99525f31440b955742dce84ba57de9fc1221139b5367c1f834723bef9e13e6e1\",\"urls\":[\"bzz-raw://6fa03f0cd4ad87dd7cbae7bf7f54463450874291773c8f70f2c31ef2cae62bb0\",\"dweb:/ipfs/QmSPajPV5ismteJuB6Spzm9VmhTj2iS3eVrfpJC1Zuzg8n\"],\"license\":\"MIT\"},\"node_modules/@bananapus/core/src/interfaces/IJBProjects.sol\":{\"keccak256\":\"0x85539f72c5871c53a919edc7db78931155464e9e00fccd30079b17e75820ddb9\",\"urls\":[\"bzz-raw://505466dbfbdeec77f948ce065676897a5b4a74b70bb234c1053b893c4849f3a1\",\"dweb:/ipfs/QmYBpZQub3Mv19xsRWqvzgiQSBAp4UNaKcqWQ2wwH62H95\"],\"license\":\"MIT\"},\"node_modules/@bananapus/core/src/interfaces/IJBRulesetApprovalHook.sol\":{\"keccak256\":\"0x5e9f921a6aa5d9396a12bbc0a878c3f5e8ae0a4ce8a3abe0de12e300718838d7\",\"urls\":[\"bzz-raw://6c9f0610f5bbe07554a1bdc39041be1284c20d81d930bec1eee2d374b86e03f4\",\"dweb:/ipfs/QmPH57wBoPERwDWkBCcj9c5tEUdeeLNe2kv1oFM7cTKVrd\"],\"license\":\"MIT\"},\"node_modules/@bananapus/core/src/interfaces/IJBRulesets.sol\":{\"keccak256\":\"0xda1a9aef337cf9fede3f638ffa58aea2815b87fde0f79628834aa03af9f582d7\",\"urls\":[\"bzz-raw://7941690ba6d94500474978ff0f02ecc56335eae5937759878e25cc1ac30a8ecc\",\"dweb:/ipfs/QmZFc7wof6PzfBTkVyNkjaQrQbjc36CK4uC3Ee2vgihqyK\"],\"license\":\"MIT\"},\"node_modules/@bananapus/core/src/interfaces/IJBTokenUriResolver.sol\":{\"keccak256\":\"0xfa5cb00dcd6085d1ef912d071fe73c63f9478a2cd0f9d8bddaf659b6af2d0967\",\"urls\":[\"bzz-raw://282e4e7c342d65f77cde0e9a08fcaf20ef5cf379c7a48b639842c0ffd0b2afb8\",\"dweb:/ipfs/QmbnN3PEQeZaXdPLT75V1J79kMg7KqSMru37RHrL3z8Yf2\"],\"license\":\"MIT\"},\"node_modules/@bananapus/core/src/interfaces/terminal/IJBTerminal.sol\":{\"keccak256\":\"0x36f23bc27e56fa86d100281a75f5a6ce73f39f32e6a1667ce69f902da1d005ee\",\"urls\":[\"bzz-raw://e8ffa2e264fa12444799cb5706ca577034f3f8be9ff7a2f072981de6a61d706d\",\"dweb:/ipfs/QmR6gQDymvk8JQ77J8VxpFD1Hnxga4w7LLiRvAT3m4LG6T\"],\"license\":\"MIT\"},\"node_modules/@bananapus/core/src/structs/JBAccountingContext.sol\":{\"keccak256\":\"0x2907ff54d1e903cc7e0390dd88c3975884702dc2673642aacbe22b66560b56de\",\"urls\":[\"bzz-raw://a66a5381ce877b32f0e0058ceeaf843e9b6b2bc8af666c0c9f4a9d01091da004\",\"dweb:/ipfs/QmQynCetUr37dBkS1YwDS8evxuXGiqanW6THmeUxXtim8w\"],\"license\":\"MIT\"},\"node_modules/@bananapus/core/src/structs/JBAfterPayRecordedContext.sol\":{\"keccak256\":\"0xd26c3a774ff38be79064085970454fe2603a23a638c76270d5b1b3829206c3e8\",\"urls\":[\"bzz-raw://3b55dbe3bf1ef625b7ca04efab3de35406e6041d5b3d82c7265469c500e2b702\",\"dweb:/ipfs/QmUdBDo4Lt3mcsFcsXT2mqq3czFwZjQJFPLM89YA2VtD7k\"],\"license\":\"MIT\"},\"node_modules/@bananapus/core/src/structs/JBRuleset.sol\":{\"keccak256\":\"0x15b2bf3174d84846a91ccbf5a344dfb125b55ed9cf50102db8d6868844225189\",\"urls\":[\"bzz-raw://647416b025dbd941094db89cbc69f755c155bd6c87be3f322394ccc4a8e0442d\",\"dweb:/ipfs/QmTCL9xcHnxQ4t5AmCPoZvXDUPW5xhzhyyXYbkMdyg44au\"],\"license\":\"MIT\"},\"node_modules/@bananapus/core/src/structs/JBTokenAmount.sol\":{\"keccak256\":\"0x5cf0626b73a596c1e2da17c89ae039a7c0374310b060d48568d3b6c11fbe6180\",\"urls\":[\"bzz-raw://63348b50be95e2995409394a17caffc563a646f0972650a1230bf864fbd3219b\",\"dweb:/ipfs/QmZXZpS3SbFD5nWaCauf6AqbEhLURv5qsKHpThBvQgDU6u\"],\"license\":\"MIT\"},\"node_modules/@openzeppelin/contracts/access/Ownable.sol\":{\"keccak256\":\"0xff6d0bb2e285473e5311d9d3caacb525ae3538a80758c10649a4d61029b017bb\",\"urls\":[\"bzz-raw://8ed324d3920bb545059d66ab97d43e43ee85fd3bd52e03e401f020afb0b120f6\",\"dweb:/ipfs/QmfEckWLmZkDDcoWrkEvMWhms66xwTLff9DDhegYpvHo1a\"],\"license\":\"MIT\"},\"node_modules/@openzeppelin/contracts/interfaces/draft-IERC6093.sol\":{\"keccak256\":\"0x60c65f701957fdd6faea1acb0bb45825791d473693ed9ecb34726fdfaa849dd7\",\"urls\":[\"bzz-raw://ea290300e0efc4d901244949dc4d877fd46e6c5e43dc2b26620e8efab3ab803f\",\"dweb:/ipfs/QmcLLJppxKeJWqHxE2CUkcfhuRTgHSn8J4kijcLa5MYhSt\"],\"license\":\"MIT\"},\"node_modules/@openzeppelin/contracts/metatx/ERC2771Context.sol\":{\"keccak256\":\"0x98256cf37b71a69b2f5a8a6fe975ea03590dff703102bd141a830f94e8adebf6\",\"urls\":[\"bzz-raw://6251fe1f6a1e45e6d619d150c123afc88b8646b38ee26a136efa9a6988a31d3f\",\"dweb:/ipfs/QmeXDT85wSZdP31wkz3ah3KhponCiksJLP5o2LR5e1JxcK\"],\"license\":\"MIT\"},\"node_modules/@openzeppelin/contracts/token/ERC721/IERC721.sol\":{\"keccak256\":\"0x5ef46daa3b58ef2702279d514780316efaa952915ee1aa3396f041ee2982b0b4\",\"urls\":[\"bzz-raw://2f8f2a76e23b02fc69e8cd24c3cb47da6c7af3a2d6c3a382f8ac25c6e094ade7\",\"dweb:/ipfs/QmPV4ZS4tPVv4mTCf9ejyZ1ai57EEibDRj7mN2ARDCLV5n\"],\"license\":\"MIT\"},\"node_modules/@openzeppelin/contracts/token/ERC721/IERC721Receiver.sol\":{\"keccak256\":\"0x7f7a26306c79a65fb8b3b6c757cd74660c532cd8a02e165488e30027dd34ca49\",\"urls\":[\"bzz-raw://d01e0b2b837ee2f628545e54d8715b49c7ef2befd08356c2e7f6c50dde8a1c22\",\"dweb:/ipfs/QmWBAn6y2D1xgftci97Z3qR9tQnkvwQpYwFwkTvDMvqU4i\"],\"license\":\"MIT\"},\"node_modules/@openzeppelin/contracts/token/ERC721/extensions/IERC721Metadata.sol\":{\"keccak256\":\"0x37d1aaaa5a2908a09e9dcf56a26ddf762ecf295afb5964695937344fc6802ce1\",\"urls\":[\"bzz-raw://ed0bfc1b92153c5000e50f4021367b931bbe96372ac6facec3c4961b72053d02\",\"dweb:/ipfs/Qmbwp8VDerjS5SV1quwHH1oMXxPQ93fzfLVqJ2RCqbowGE\"],\"license\":\"MIT\"},\"node_modules/@openzeppelin/contracts/utils/Context.sol\":{\"keccak256\":\"0x493033a8d1b176a037b2cc6a04dad01a5c157722049bbecf632ca876224dd4b2\",\"urls\":[\"bzz-raw://6a708e8a5bdb1011c2c381c9a5cfd8a9a956d7d0a9dc1bd8bcdaf52f76ef2f12\",\"dweb:/ipfs/Qmax9WHBnVsZP46ZxEMNRQpLQnrdE4dK8LehML1Py8FowF\"],\"license\":\"MIT\"},\"node_modules/@openzeppelin/contracts/utils/Strings.sol\":{\"keccak256\":\"0x55f102ea785d8399c0e58d1108e2d289506dde18abc6db1b7f68c1f9f9bc5792\",\"urls\":[\"bzz-raw://6e52e0a7765c943ef14e5bcf11e46e6139fa044be564881378349236bf2e3453\",\"dweb:/ipfs/QmZEeeXoFPW47amyP35gfzomF9DixqqTEPwzBakv6cZw6i\"],\"license\":\"MIT\"},\"node_modules/@openzeppelin/contracts/utils/introspection/ERC165.sol\":{\"keccak256\":\"0x9e8778b14317ba9e256c30a76fd6c32b960af621987f56069e1e819c77c6a133\",\"urls\":[\"bzz-raw://1777404f1dcd0fac188e55a288724ec3c67b45288e49cc64723e95e702b49ab8\",\"dweb:/ipfs/QmZFdC626GButBApwDUvvTnUzdinevC3B24d7yyh57XkiA\"],\"license\":\"MIT\"},\"node_modules/@openzeppelin/contracts/utils/introspection/IERC165.sol\":{\"keccak256\":\"0x4296879f55019b23e135000eb36896057e7101fb7fb859c5ef690cf14643757b\",\"urls\":[\"bzz-raw://87b3541437c8c443ccd36795e56a338ed12855eec17f8da624511b8d1a7e14df\",\"dweb:/ipfs/QmeJQCtZrQjtJLr6u7ZHWeH3pBnjtLWzvRrKViAi7UZqxL\"],\"license\":\"MIT\"},\"node_modules/@openzeppelin/contracts/utils/math/Math.sol\":{\"keccak256\":\"0x005ec64c6313f0555d59e278f9a7a5ab2db5bdc72a027f255a37c327af1ec02d\",\"urls\":[\"bzz-raw://4ece9f0b9c8daca08c76b6b5405a6446b6f73b3a15fab7ff56e296cbd4a2c875\",\"dweb:/ipfs/QmQyRpyPRL5SQuAgj6SHmbir3foX65FJjbVTTQrA2EFg6L\"],\"license\":\"MIT\"},\"node_modules/@openzeppelin/contracts/utils/math/SignedMath.sol\":{\"keccak256\":\"0x5f7e4076e175393767754387c962926577f1660dd9b810187b9002407656be72\",\"urls\":[\"bzz-raw://7d533a1c97cd43a57cd9c465f7ee8dd0e39ae93a8fb8ff8e5303a356b081cdcc\",\"dweb:/ipfs/QmVBEei6aTnvYNZp2CHYVNKyZS4q1KkjANfY39WVXZXVoT\"],\"license\":\"MIT\"},\"src/Banny721TokenUriResolver.sol\":{\"keccak256\":\"0x0cb44b67da86db93fa16a0972411beca46e7356771e9b78effc3f9888f996fa1\",\"urls\":[\"bzz-raw://d6a33003b967730262182e47e03aee436296892fa0767645f22201c8ad4aa825\",\"dweb:/ipfs/QmR4UxDrVfuQip1YpLbtUDypyLGmkFw2ibrpxVLNMoKTij\"],\"license\":\"MIT\"}},\"version\":1}",
			"args": [
				"0x817738DC393d682Ca5fBb268707b99F2aAe96baE",
				"0xB2b5841DBeF766d4b521221732F9B618fCf34A87"
			],
			"bytecode": "0x60a034620000e957601f62005dba38819003918201601f19168301916001600160401b03831184841017620000ee578084926040948552833981010312620000e9576200005a6020620000528362000104565b920162000104565b6080526001600160a01b039081168015620000d057600080546001600160a01b03198116831782556040519316907f8be0079c531659141344cd1fd0a4f28419497f9722a3daafe3b4186f6b6457e09080a3615ca090816200011a8239608051818181610595015281816107530152615c1b0152f35b604051631e4fbdf760e01b815260006004820152602490fd5b600080fd5b634e487b7160e01b600052604160045260246000fd5b51906001600160a01b0382168203620000e95756fe6080604052600436101561001257600080fd5b60003560e01c806257bfdd146101265780631e4578de14610121578063572b6c051461011c5780635e703e711461011757806366c6e390146101125780636aff31dd1461010d578063715018a6146101085780637da0a877146101035780638d4edce3146100fe5780638da5cb5b146100f9578063a34031ed146100f4578063aeac5e35146100ef578063c06e7bc7146100ea578063f2fde38b146100e5578063f5dac0b3146100e0578063f92df2e3146100db5763fff628c6146100d657600080fd5b610db3565b610d84565b610c13565b610b63565b610af6565b6109d6565b61093e565b610917565b6107a5565b610733565b6106c9565b61069d565b610625565b6105bc565b610566565b61048d565b610412565b90600182811c9216801561015b575b602083101461014557565b634e487b7160e01b600052602260045260246000fd5b91607f169161013a565b634e487b7160e01b600052604160045260246000fd5b6020810190811067ffffffffffffffff82111761019757604052565b610165565b6110c0810190811067ffffffffffffffff82111761019757604052565b6060810190811067ffffffffffffffff82111761019757604052565b6101c0810190811067ffffffffffffffff82111761019757604052565b610260810190811067ffffffffffffffff82111761019757604052565b6040810190811067ffffffffffffffff82111761019757604052565b90601f8019910116810190811067ffffffffffffffff82111761019757604052565b60405190600082600254916102618361012b565b808352926020906001908181169081156102ef575060011461028e575b505061028c9250038361022b565b565b91509260026000527f405787fa12a823e0f2b7631cc41b3ba8828b3321ca811111fa75cd3aa3bb5ace936000925b8284106102d7575061028c945050508101602001388061027e565b855488850183015294850194879450928101926102bc565b9150506020925061028c94915060ff191682840152151560051b820101388061027e565b906040519182600082546103268161012b565b908184526020946001916001811690816000146103945750600114610355575b50505061028c9250038361022b565b600090815285812095935091905b81831061037c57505061028c9350820101388080610346565b85548884018501529485019487945091830191610363565b9250505061028c94925060ff191682840152151560051b820101388080610346565b60005b8381106103c95750506000910152565b81810151838201526020016103b9565b906020916103f2815180928185528580860191016103b6565b601f01601f1916010190565b90602061040f9281815201906103d9565b90565b346104465760003660031901126104465761044261042e61024d565b6040519182916020835260208301906103d9565b0390f35b600080fd5b604081019181526060602091604060208201528151809452019160809160005b828110610479575050505090565b83518552938101939281019260010161046b565b346104465760208060031936011261044657600435906000918083526005602052604083209060405180938491602085549182815201948752602087209187905b82821061053b57505050506104e8906104f893038461022b565b6000526006602052604060002090565b5491815191815b8381106105145760405180610442878261044b565b8061052160019284610e33565b5161053461052e86610e5d565b95610e0e565b52016104ff565b8354875295860195879450600193840193909101906104ce565b6001600160a01b0381160361044657565b3461044657602036600319011261044657602060043561058581610555565b6001600160a01b039060405191807f0000000000000000000000000000000000000000000000000000000000000000169116148152f35b346104465760403660031901126104465761044261042e6004356105df81610555565b60243590611110565b604051906101a0820182811067ffffffffffffffff82111761019757604052565b67ffffffffffffffff811161019757601f01601f191660200190565b346104465760403660031901126104465760243567ffffffffffffffff8111610446573660238201121561044657806004013561066181610609565b9061066f604051928361022b565b808252366024828501011161044657602081600092602461069b96018386013783010152600435611528565b005b346104465760203660031901126104465760043560005260016020526020604060002054604051908152f35b3461044657600080600319360112610730576106e36146dd565b806001600160a01b03815473ffffffffffffffffffffffffffffffffffffffff1981168355167f8be0079c531659141344cd1fd0a4f28419497f9722a3daafe3b4186f6b6457e08280a380f35b80fd5b346104465760003660031901126104465760206040516001600160a01b037f0000000000000000000000000000000000000000000000000000000000000000168152f35b9181601f840112156104465782359167ffffffffffffffff8311610446576020838186019501011161044657565b34610446576020806003193601126104465767ffffffffffffffff600435818111610446576107d8903690600401610777565b90916107e26146dd565b8111610197576107fc816107f760025461012b565b611689565b600092601f8211600114610873575061084e81807f512c3c91736f50c57a0548c1d01ab02f24c420f002b8b20e2bfe63df9693cd3f95600091610868575b508160011b916000199060031b1c19161790565b6002555b61086360405192839233918461181a565b0390a1005b90508401353861083a565b6002600052601f198216937f405787fa12a823e0f2b7631cc41b3ba8828b3321ca811111fa75cd3aa3bb5ace9181905b8682106108ff575050827f512c3c91736f50c57a0548c1d01ab02f24c420f002b8b20e2bfe63df9693cd3f95106108e5575b5050600181811b01600255610852565b830135600019600384901b60f8161c1916905538806108d5565b806001849582949589013581550194019201906108a3565b346104465760003660031901126104465760206001600160a01b0360005416604051908152f35b346104465760403660031901126104465760043560243561095d6146dd565b600091808352600160205260408320546109ac5780835260016020528160408420557fb10eb6fc7557a7109693cb8f3fac48d44328de56c0368ee4cac539b424d2cad96020604051338152a380f35b60046040517fcf7b506c000000000000000000000000000000000000000000000000000000008152fd5b34610446576040366003190112610446576004356109f381610555565b602435906001600160a01b0360405163507f146560e01b81526020816004818587165afa8015610ac057610a669360009386938593610ac5575b5060405180968195829463c44a8e6d60e01b84526004840160409060009294936001600160a01b03606083019616825260208201520152565b0392165afa918215610ac05761044292610a9192600091610a9d575b5061010081519101519161252d565b604051918291826103fe565b610aba91503d806000833e610ab2818361022b565b810190610eea565b38610a82565b610e86565b610ae891935060203d602011610aef575b610ae0818361022b565b810190610e71565b9138610a2d565b503d610ad6565b3461044657608036600319011261044657600435610b1381610555565b6064359067ffffffffffffffff908183116104465736602384011215610446578260040135918211610446573660248360051b8501011161044657602461069b93019060443590602435906119dd565b3461044657602036600319011261044657600435610b8081610555565b610b886146dd565b6001600160a01b038091168015610be25760009182548273ffffffffffffffffffffffffffffffffffffffff198216178455167f8be0079c531659141344cd1fd0a4f28419497f9722a3daafe3b4186f6b6457e08380a380f35b60246040517f1e4fbdf700000000000000000000000000000000000000000000000000000000815260006004820152fd5b34610446576040806003193601126104465760043560243567ffffffffffffffff811161044657610c48903690600401610777565b9190610c66610c61836000526004602052604060002090565b611f95565b610d5b57610c7e826000526001602052604060002090565b54928315610d32578385516020810190610cab81610c9d848789611f9f565b03601f19810183528261022b565b51902003610d0957610d04839495610cf88385610cf37f09b26657b7b690741d37bfcbbed1e373aa8a253d6b1412759967f8eb5b4d43a1986000526004602052604060002090565b61174b565b5192839233918461181a565b0390a3005b600485517f75b5da0b000000000000000000000000000000000000000000000000000000008152fd5b600485517f7ef41a4f000000000000000000000000000000000000000000000000000000008152fd5b600484517f0e2019dc000000000000000000000000000000000000000000000000000000008152fd5b346104465760603660031901126104465761044261042e60443560243560043561252d565b8015150361044657565b346104465760803660031901126104465761044261042e600435610dd681610555565b604435610de281610da9565b60643591610def83610da9565b60243590612990565b634e487b7160e01b600052603260045260246000fd5b606051811015610e215760051b60800190565b610df8565b805115610e215760200190565b8051821015610e215760209160051b010190565b634e487b7160e01b600052601160045260246000fd5b6000198114610e6c5760010190565b610e47565b90816020910312610446575161040f81610555565b6040513d6000823e3d90fd5b519061028c82610555565b519061028c82610da9565b81601f82011215610446578051610ebe81610609565b92610ecc604051948561022b565b818452602082840101116104465761040f91602080850191016103b6565b60208183031261044657805167ffffffffffffffff9182821161044657016101a08184031261044657610f1b6105e8565b92815184526020820151602085015260408201516040850152606082015160608501526080820151608085015260a082015160a0850152610f5e60c08301610e92565b60c085015260e082015160e08501526101008083015190850152610120610f86818401610e9d565b90850152610140610f98818401610e9d565b90850152610160610faa818401610e9d565b90850152610180928383015190811161044657610fc79201610ea8565b9082015290565b60405190610fdb8261017b565b60008252565b90610ff4602092828151948592016103b6565b0190565b90604051918260605160005b818110611039575090602061028c9361102d8294840191838301600081528151948592016103b6565b0103808552018361022b565b6020919250806080015182828801015201908491611004565b602061028c91939293604051948161107387935180928680870191016103b6565b820161102d825180938680850191016103b6565b9060208282031261044657815167ffffffffffffffff81116104465761040f9201610ea8565b90816020910312610446575190565b9061028c603d60405180947f646174613a6170706c69636174696f6e2f6a736f6e3b6261736536342c000000602083015261110081518092602086860191016103b6565b810103601d81018552018361022b565b906001600160a01b03918281169260409283519163507f146560e01b8084526020968785600481845afa948515610ac057600095611509575b50865163c44a8e6d60e01b81526001600160a01b03871660048201526024810185905260006044820181905290958690606490829087165afa948515610ac0576000956114ee575b508451156114de5761010085018051909390156114d4576111b3865188612bf4565b96875161149d575b87511561134057505050509461132f61130661133b96611262611291611262986112626112688a61123161040f9f6112026112189d61122c9f92611209935190519161252d565b92516143e1565b9488519c8d918d830190610fe1565b039b61122c601f199d8e810183528261022b565b6145c8565b96519c8d9a8b016009907f7b226e616d65223a22000000000000000000000000000000000000000000000081520190565b90610fe1565b7f222c20226964223a2022000000000000000000000000000000000000000000008152600a0190565b7f222c226465736372697074696f6e223a2241207069656365206f66207468652081527f42616e6e797665727365222c22696d616765223a22646174613a696d6167652f60208201527f7376672b786d6c3b6261736536342c00000000000000000000000000000000006040820152604f0190565b7f227d000000000000000000000000000000000000000000000000000000000000815260020190565b0390810183528261022b565b6110bc565b92965092600d919550511160001461148e5785517f6c0360eb000000000000000000000000000000000000000000000000000000008152600081600481885afa8015610ac057889160009161146b575b50955b600488518097819382525afa918215610ac0576113fe96889560009461144c575b50518097819582947fc8df171000000000000000000000000000000000000000000000000000000000845260048401602090939291936001600160a01b0360408201951681520152565b0392165afa918215610ac05761040f9360009361141d575b5050614314565b61143d929350803d10611445575b611435818361022b565b8101906110ad565b903880611416565b503d61142b565b611464919450863d8811610aef57610ae0818361022b565b92386113b4565b61148891503d806000833e611480818361022b565b810190611087565b38611390565b8661149761024d565b95611393565b966114b09060018651036114b657614201565b966111bb565b6114cf906114ca6114c5612d07565b61413b565b611052565b614201565b6114b0858861279f565b505050505050505061040f610fce565b61150291953d8091833e610ab2818361022b565b9338611191565b611521919550883d8a11610aef57610ae0818361022b565b9338611149565b906115316146dd565b816000526020600360205260406000209082519067ffffffffffffffff82116101975761156882611562855461012b565b856116ea565b602090601f83116001146115df5750916115be827fa67f37d9972d5f886682fb18abfea16db5777cc4d12c43e59dfee7e48663cb3895936115cf956000916115d457508160011b916000199060031b1c19161790565b90555b604051918291339083611724565b0390a2565b90508401513861083a565b90601f1983166115f485600052602060002090565b926000905b82821061165a575050926115cf9492600192827fa67f37d9972d5f886682fb18abfea16db5777cc4d12c43e59dfee7e48663cb38989610611641575b5050811b0190556115c1565b85015160001960f88460031b161c191690553880611635565b80600185968294968b015181550195019301906115f9565b81811061167d575050565b60008155600101611672565b90601f8211611696575050565b61028c9160026000527f405787fa12a823e0f2b7631cc41b3ba8828b3321ca811111fa75cd3aa3bb5ace906020601f840160051c830193106116e0575b601f0160051c0190611672565b90915081906116d3565b9190601f81116116f957505050565b61028c926000526020600020906020601f840160051c830193106116e057601f0160051c0190611672565b906001600160a01b036117446020929594956040855260408501906103d9565b9416910152565b90929167ffffffffffffffff8111610197576117718161176b845461012b565b846116ea565b6000601f82116001146117b25781906117a39394956000926117a7575b50508160011b916000199060031b1c19161790565b9055565b01359050388061178e565b601f198216946117c784600052602060002090565b91805b8781106118025750836001959697106117e8575b505050811b019055565b0135600019600384901b60f8161c191690553880806117de565b909260206001819286860135815501940191016117ca565b916060816001600160a01b039260209497969760408752816040880152838701376000828287010152601f80199101168401019416910152565b604051906101a0820182811067ffffffffffffffff82111761019757604052606061018083600080825280602083015280604083015280848301528060808301528060a08301528060c08301528060e08301528061010083015280610120830152806101408301526101608201520152565b9190811015610e215760051b0190565b908160021b917f3fffffffffffffffffffffffffffffffffffffffffffffffffffffffffffffff811603610e6c57565b9067ffffffffffffffff831161019757680100000000000000008311610197578154838355808410611962575b50906000526020806000209060005b848110611950575050505050565b83358382015592810192600101611942565b61197a90836000528460206000209182019101611672565b38611933565b9291909493948352606060208401528160608401527f07ffffffffffffffffffffffffffffffffffffffffffffffffffffffffffffff82116104465760806001600160a01b039160409360051b8091838701378401019416910152565b929093916001600160a01b0385818616956040928351907f6352211e000000000000000000000000000000000000000000000000000000009081835260209283818c8180611a3460049b8c83019190602083019252565b03915afa908115610ac057600091611f78575b508133911603611f50578615611f3957855182815283818c8180611a728d8c83019190602083019252565b03915afa908115610ac057600091611f1c575b508133911603611ef457855163507f146560e01b8152838187818e5afa8015610ac05788600091611af1938391611ed7575b5087858a8c519687958694859363c44a8e6d60e01b8552840160409060009294936001600160a01b03606083019616825260208201520152565b0392165afa908115610ac057600091611ebc575b505115611e945786611b218c6000526006602052604060002090565b559190915b600091611b31611854565b506000938492835b8d8d8810611ba257505050505050505050508291611b9d91611b91867f6a68946ba06488db8585d7c7637fa954b574035fe15720ea760125ef860172589796611b8c8b6000526005602052604060002090565b611906565b51938493339285611980565b0390a3565b611bd2858f8f93611bb88f928f96908e916118c6565b35948592518095819482938c845283019190602083019252565b03915afa908115610ac057600091611e77575b508333911603611e4f57898f86908d519283809263507f146560e01b82525afa918215610ac057611c55928b868f8f906000968795611e30575b50519687958694859363c44a8e6d60e01b8552840160409060009294936001600160a01b03606083019616825260208201520152565b0392165afa908115610ac057600091611e17575b50805115611def576101000195865160028110908115611de4575b50611dbc578715159081611db0575b50611d8857855160058103611cb3575050600180955b5196019594611b39565b9095949060098103611cca57505060018094611ca9565b989f9d9b999e9c9a98600681969296148015611d7e575b80611d77575b15611d1557508f8f517f54f653b3000000000000000000000000000000000000000000000000000000008152fd5b9d9f989a9c9e999b9d600a8114908115611d6c575b5080611d65575b611d3d57600190611ca9565b888a517f5e701b2b000000000000000000000000000000000000000000000000000000008152fd5b5084611d31565b600b91501438611d2a565b5086611ce7565b5060078114611ce1565b888a517ffb81d04a000000000000000000000000000000000000000000000000000000008152fd5b90508651111538611c93565b898b517fc89badbd000000000000000000000000000000000000000000000000000000008152fd5b600d91501138611c84565b898b517fa981203a000000000000000000000000000000000000000000000000000000008152fd5b611e2a913d8091833e610ab2818361022b565b38611c69565b611e489195508c8d3d10610aef57610ae0818361022b565b9338611c1f565b898b517f812a6989000000000000000000000000000000000000000000000000000000008152fd5b611e8e9150863d8811610aef57610ae0818361022b565b38611be5565b8486517f265ba879000000000000000000000000000000000000000000000000000000008152fd5b611ed191503d806000833e610ab2818361022b565b38611b05565b611eee9150873d8911610aef57610ae0818361022b565b38611ab7565b8486517f9d17cec7000000000000000000000000000000000000000000000000000000008152fd5b611f339150843d8611610aef57610ae0818361022b565b38611a85565b60008b815260066020526040812055919091611b26565b8486517f1f567c4c000000000000000000000000000000000000000000000000000000008152fd5b611f8f9150843d8611610aef57610ae0818361022b565b38611a47565b61040f905461012b565b908092918237016000815290565b602161028c919392936040519481611fcf8793518092602080870191016103b6565b82017f2000000000000000000000000000000000000000000000000000000000000000602082015261200a82518093602087850191016103b6565b0103600181018552018361022b565b9061028c602960405180947f546f7070696e673a200000000000000000000000000000000000000000000000602083015261205d81518092602086860191016103b6565b810103600981018552018361022b565b9061028c602660405180947f466973743a20000000000000000000000000000000000000000000000000000060208301526120b181518092602086860191016103b6565b810103600681018552018361022b565b9061028c602d60405180947f5375697420626f74746f6d3a2000000000000000000000000000000000000000602083015261210581518092602086860191016103b6565b810103600d81018552018361022b565b9061028c602a60405180947f5375697420746f703a2000000000000000000000000000000000000000000000602083015261215981518092602086860191016103b6565b810103600a81018552018361022b565b9061028c602660405180947f537569743a20000000000000000000000000000000000000000000000000000060208301526120b181518092602086860191016103b6565b9061028c602a60405180947f48656164676561723a2000000000000000000000000000000000000000000000602083015261215981518092602086860191016103b6565b9061028c602760405180947f4d6f7574683a2000000000000000000000000000000000000000000000000000602083015261223581518092602086860191016103b6565b810103600781018552018361022b565b9061028c602660405180947f457965733a20000000000000000000000000000000000000000000000000000060208301526120b181518092602086860191016103b6565b9061028c602660405180947f466163653a20000000000000000000000000000000000000000000000000000060208301526120b181518092602086860191016103b6565b9061028c602a60405180947f4e65636b6c6163653a2000000000000000000000000000000000000000000000602083015261215981518092602086860191016103b6565b9061028c602660405180947f4c6567733a20000000000000000000000000000000000000000000000000000060208301526120b181518092602086860191016103b6565b9061028c602a60405180947f4261636b736964653a2000000000000000000000000000000000000000000000602083015261215981518092602086860191016103b6565b9061028c602760405180947f576f726c643a2000000000000000000000000000000000000000000000000000602083015261223581518092602086860191016103b6565b9061028c603560405180947f4f726967696e616c204e616b65642042616e6e79200000000000000000000000602083015261242181518092602086860191016103b6565b810103601581018552018361022b565b9061028c603360405180947f4f72616e6765204e616b65642042616e6e792000000000000000000000000000602083015261247581518092602086860191016103b6565b810103601381018552018361022b565b9061028c603160405180947f50696e6b204e616b65642042616e6e792000000000000000000000000000000060208301526124c981518092602086860191016103b6565b810103601181018552018361022b565b9061028c603260405180947f416c69656e204e616b65642042616e6e79200000000000000000000000000000602083015261251d81518092602086860191016103b6565b810103601281018552018361022b565b906001810361254a575061040f9150612545906143e1565b6124d9565b60028103612566575061040f9150612561906143e1565b612485565b60038103612582575061040f915061257d906143e1565b612431565b6004810361259e575061040f9150612599906143e1565b6123dd565b6125b56125ba916000526003602052604060002090565b610313565b80516126bd57506125ca906143e1565b905b600181036125de575061040f90612399565b600281036125f0575061040f90612355565b60038103612602575061040f90612311565b60048103612614575061040f906122cd565b60058103612626575061040f90612289565b60068103612638575061040f90612245565b6007810361264a575061040f906121f1565b6008810361265c575061040f906121ad565b6009810361266e575061040f90612169565b600a8103612680575061040f90612115565b600b8103612692575061040f906120c1565b600c81036126a4575061040f9061206d565b600d146126b4575061040f610fce565b61040f90612019565b6126c96126cf926143e1565b90611fad565b906125cc565b67ffffffffffffffff81116101975760051b60200190565b919060408382031261044657825192602090818101519067ffffffffffffffff821161044657019180601f8401121561044657825161272b816126d5565b93612739604051958661022b565b818552838086019260051b820101928311610446578301905b828210612760575050505090565b81518152908301908301612752565b3d1561279a573d9061278082610609565b9161278e604051938461022b565b82523d6000602084013e565b606090565b60405163507f146560e01b8152906001600160a01b036020836004818585165afa928315610ac05760009361296c575b506000906040519384809263c44a8e6d60e01b82528161280f89886004840160409060009294936001600160a01b03606083019616825260208201520152565b0392165afa918215610ac057600092612951575b5081511561294657606061010083015161291f57604051630f22bc6f60e11b8152600481019490945261040f936128ac929082906000908181602481305afa90816000916000936128f8575b506128ea575050906128a49161288361276f565b505b801515806128e2575b6128c8575b5061289e8651614736565b90611052565b935190615135565b80516128b9575b50614201565b6128c291611052565b386128b3565b6128dc91506128d79084612bf4565b610ff8565b38612893565b50600161288e565b9094506128a4929150612885565b90925061291891503d806000833e612910818361022b565b8101906126ed565b913861286f565b509061292d92505190612bf4565b80511561293d5761040f90614201565b5061040f610fce565b50505061040f610fce565b61296591923d8091833e610ab2818361022b565b9038612823565b60009193506129899060203d602011610aef57610ae0818361022b565b92906127cf565b926001600160a01b03916040519263507f146560e01b8452602084600481848a165afa938415610ac057600094612b55575b506000906040519485809263c44a8e6d60e01b825281612a02878c6004840160409060009294936001600160a01b03606083019616825260208201520152565b0392165afa928315610ac057600093612b3a575b50825115612b2d57606094610100840151612b1d5761040f956000612a576000839560405180938192630f22bc6f60e11b8352600483019190602083019252565b0381305afa9081600091600093612afe575b50612aee575050612a9b929394612a7e61276f565b505b8115159081612ae6575b50612ad1575b5061289e8551614736565b93612aa9575b505050614201565b612ab4925190615135565b8051612ac2575b8080612aa1565b612acb91611052565b38612abb565b612ae091506128d79084612bf4565b38612a90565b905038612a8a565b909150612a9b9394509094612a80565b909250612b1691503d806000833e612910818361022b565b9138612a69565b9350505061292d92505190612bf4565b505050505061040f610fce565b612b4e91933d8091833e610ab2818361022b565b9138612a16565b6000919450612b729060203d602011610aef57610ae0818361022b565b93906129c2565b9061028c605660405180947f3c673e3c696d61676520786c696e6b3a687265663d22000000000000000000006020830152612bbe8151809260206036860191016103b6565b81017f222077696474683d2234303022206865696768743d22343030222f3e3c2f673e603682015203603681018552018361022b565b612c0b6125b5836000526004602052604060002090565b8051612d01575060405163507f146560e01b81526001600160a01b039260209283836004818489165afa908115610ac057612c96958594600093612ce2575b506040518097819582947fbd51923c00000000000000000000000000000000000000000000000000000000845260048401602090939291936001600160a01b0360408201951681520152565b0392165afa8015610ac05761040f92612cc092600092612cc5575b5050612cbb61024d565b614314565b612b79565b612cdb9250803d1061144557611435818361022b565b3880612cb1565b612cfa919350853d8711610aef57610ae0818361022b565b9138612c4a565b91505090565b60405190612d148261019c565b6110818252601f60f91b6110a0837f3c6720636c6173733d226131223e3c7061746820643d224d313733203533683460208201527f763137682d347a222f3e3c2f673e3c6720636c6173733d226132223e3c70617460408201527f6820643d224d3136372035376833763130682d337a222f3e3c7061746820643d60608201527f224d3136392035336834763137682d347a222f3e3c2f673e3c6720636c61737360808201527f3d226133223e3c7061746820643d224d31363720353368337634682d337a222f60a08201527f3e3c7061746820643d224d3136332035376834763130682d347a222f3e3c706160c08201527f746820643d224d31363720363768337633682d337a222f3e3c2f673e3c67206360e08201527f6c6173733d226231223e3c7061746820643d224d32313320323533682d33762d6101008201527f332d33682d33762d372d33682d34762d3130682d33762d372d372d33682d33766101208201527f2d3733682d34762d3130682d33762d3130682d33762d37682d34762d37682d336101408201527f762d33682d33762d33682d3476313068347631306833763130683376336834766101608201527f37203320373020336833763768337632306834763768337633683376336834766101808201527f34683376336833762d332d347a222f3e3c7061746820643d224d3235332033306101a08201527f37762d34682d33762d33682d33762d33682d34762d34682d33762d33682d33766101c08201527f2d33682d34762d34682d33762d33682d33762d33682d34762d34682d33762d366101e08201527f682d33762d37682d3476313768347633683376336833203476346833763368336102008201527f76336834763468337633683376336834763468337633683376336834762d36686102208201527f2d347a222f3e3c2f673e3c6720636c6173733d226232223e3c7061746820643d6102408201527f224d32353020333130762d33682d33762d34682d34762d33682d33762d33682d6102608201527f33762d34682d34762d33682d33762d33682d33762d34682d37762d33682d33766102808201527f2d33682d34762d3137682d33762d33682d33762d34682d34762d33682d33762d6102a08201527f33682d33762d37682d34762d3230682d33762d37682d33762d37332d332d37686102c08201527f2d34762d33682d33762d3130682d33762d3130682d34563730682d33762d336c6102e08201527f2d332031303020332d313030763430682d33763130682d347636682d337631346103008201527f682d337633203133682d347634346834763136683376313468337631336834766103208201527f31306833763768337633683476336833763468337633683476336833763468336103408201527f76336834763368337637683776376836763368377633683776346831337633686103608201527f337633683130762d33682d337a6d2d3130332d3837762d31366833762d3130686103808201527f2d337636682d34763137682d337631306833762d3768347a222f3e3c706174686103a08201527f20643d224d3134332032333068347637682d347a6d3420313068337633682d336103c08201527f7a6d33203768337633682d337a6d33203668347634682d347a222f3e3c7061746103e08201527f6820643d224d31363320323537682d36763368337633683376346834762d342d6104008201527f33682d34762d337a222f3e3c2f673e3c6720636c6173733d226233223e3c70616104208201527f746820643d224d3134332031393776366834762d366836762d34346834762d316104408201527f366833762d31346833762d366834762d31306833563937682d377636682d33766104608201527f34682d337633682d347633682d3376342033682d3376332034682d34763130686104808201527f2d337631362034682d337634366833762d3668337a222f3e3c7061746820643d6104a08201527f224d313430203230336833763137682d337a222f3e3c7061746820643d224d316104c08201527f3337203232306833763130682d337a222f3e3c7061746820643d224d313533206104e08201527f323530682d33762d37682d33762d36682d34762d37682d3376313068337637686105008201527f347636683376346833762d377a6d2d3320313068337637682d337a222f3e3c706105208201527f61746820643d224d3134372032353768337633682d337a6d36203068347633686105408201527f2d347a222f3e3c7061746820643d224d31363020323633762d33682d337633206105608201527f376836762d37682d337a6d2d31302d3536763136682d337637683376313068336105808201527f763768347636683676346837762d342d33682d33762d3130682d34762d3133686105a08201527f2d33762d3134682d33762d3136682d34763130682d337a222f3e3c70617468206105c08201527f643d224d32343320333133762d33682d33762d33682d31302d33762d34682d376105e08201527f762d33682d37762d33682d36762d37682d37762d37682d33762d33682d34762d6106008201527f33682d33762d34682d33762d33682d34762d33682d33762d34682d33762d33686106208201527f2d34762d33682d33763130682d337633682d347633682d3376376833763768346106408201527f76366833763568347633683676336833763368342033763368332034763368336106608201527f20337634683130763368372037203376336831302033762d33683130762d33686106808201527f34762d34682d31347a222f3e3c2f673e3c6720636c6173733d226234223e3c706106a08201527f61746820643d224d3138332031333068347637682d347a222f3e3c70617468206106c08201527f643d224d3138302031323768337633682d337a6d2d32372d3468347637682d346106e08201527f7a222f3e3c7061746820643d224d3135372031313768337636682d337a222f3e6107008201527f3c7061746820643d224d3136302031313068337637682d337a222f3e3c7061746107208201527f6820643d224d3136332031303768347633682d347a6d2d3320383368337637686107408201527f2d337a222f3e3c7061746820643d224d3136332031383768347633682d347a6d6107608201527f3230203068377633682d377a222f3e3c7061746820643d224d313830203139306107808201527f68337633682d337a6d31302d3768337634682d337a222f3e3c7061746820643d6107a08201527f224d3139332031383768347636682d347a6d2d323020353368347637682d347a6107c08201527f222f3e3c7061746820643d224d3137372032343768337636682d337a222f3e3c6107e08201527f7061746820643d224d3138302032353368337637682d337a222f3e3c706174686108008201527f20643d224d3138332032363068377633682d377a222f3e3c7061746820643d226108208201527f4d3139302032363368337634682d337a6d302d323068337634682d337a222f3e6108408201527f3c7061746820643d224d3138372032343068337633682d337a222f3e3c7061746108608201527f6820643d224d3139302032333768337633682d337a6d313320323368347633686108808201527f2d347a222f3e3c7061746820643d224d3230372032363368337637682d337a226108a08201527f2f3e3c7061746820643d224d3231302032373068337633682d337a6d2d3130206108c08201527f3768337636682d337a222f3e3c7061746820643d224d323033203238336834766108e08201527f37682d347a222f3e3c7061746820643d224d3230372032393068367633682d366109008201527f7a222f3e3c2f673e3c6720636c6173733d226f223e3c7061746820643d224d316109208201527f3333203135376834763530682d347a6d302036336834763130682d347a6d32376109408201527f2d3136336833763130682d337a222f3e3c7061746820643d224d3136332035336109608201527f68347634682d347a222f3e3c7061746820643d224d31363720353068313076336109808201527f682d31307a222f3e3c7061746820643d224d3137372035336833763137682d336109a08201527f7a222f3e3c7061746820643d224d3137332037306834763237682d347a6d2d366109c08201527f20306833763237682d337a222f3e3c7061746820643d224d31363320363768346109e08201527f7633682d347a6d3020333068347633682d347a222f3e3c7061746820643d224d610a008201527f3136302031303068337633682d337a222f3e3c7061746820643d224d31353720610a208201527f31303368337634682d337a222f3e3c7061746820643d224d3135332031303768610a408201527f347633682d347a222f3e3c7061746820643d224d313530203131306833763368610a608201527f2d337a222f3e3c7061746820643d224d3134372031313368337637682d337a22610a808201527f2f3e3c7061746820643d224d3134332031323068347637682d347a222f3e3c70610aa08201527f61746820643d224d313430203132376833763130682d337a222f3e3c70617468610ac08201527f20643d224d313337203133376833763230682d337a6d35362d31306834763130610ae08201527f682d347a222f3e3c7061746820643d224d313930203131376833763130682d33610b008201527f7a222f3e3c7061746820643d224d3138372031313068337637682d337a222f3e610b208201527f3c7061746820643d224d3138332031303368347637682d347a222f3e3c706174610b408201527f6820643d224d3138302031303068337633682d337a222f3e3c7061746820643d610b608201527f224d31373720393768337633682d337a6d2d3430203130366833763137682d33610b808201527f7a6d302032376833763130682d337a6d313020333068337637682d337a222f3e610ba08201527f3c7061746820643d224d31353020323537762d34682d33762d36682d34762d37610bc08201527f682d3376313068337631306834762d3368337a222f3e3c7061746820643d224d610be08201527f3135302032353768337633682d337a222f3e3c7061746820643d224d31363320610c008201527f323733762d33682d36762d3130682d347637682d337633683376336834763768610c208201527f33762d3768337a222f3e3c7061746820643d224d313633203236376834763368610c408201527f2d347a222f3e3c7061746820643d224d31373020323537682d332d3476336834610c608201527f76376833762d31307a222f3e3c7061746820643d224d31353720323533683676610c808201527f34682d367a222f3e3c7061746820643d224d3135332032343768347636682d34610ca08201527f7a222f3e3c7061746820643d224d3135302032343068337637682d337a222f3e610cc08201527f3c7061746820643d224d313437203233306833763130682d337a6d3133203530610ce08201527f68337637682d337a222f3e3c7061746820643d224d3134332032323368347637610d008201527f682d347a222f3e3c7061746820643d224d313437203230376833763136682d33610d208201527f7a222f3e3c7061746820643d224d313530203139376833763130682d337a6d2d610d408201527f3130203068337636682d337a6d35302031313368377633682d377a6d32332031610d608201527f306831377633682d31377a222f3e3c7061746820643d224d3233302033323368610d808201527f31337634682d31337a222f3e3c7061746820643d224d32343320333230683130610da08201527f7633682d31307a222f3e3c7061746820643d224d323533203331376834763368610dc08201527f2d347a222f3e3c7061746820643d224d323537203330376833763130682d337a610de08201527f222f3e3c7061746820643d224d3235332033303368347634682d347a222f3e3c610e008201527f7061746820643d224d3235302033303068337633682d337a222f3e3c70617468610e208201527f20643d224d3234372032393768337633682d337a222f3e3c7061746820643d22610e408201527f4d3234332032393368347634682d347a222f3e3c7061746820643d224d323430610e608201527f2032393068337633682d337a222f3e3c7061746820643d224d32333720323837610e808201527f68337633682d337a222f3e3c7061746820643d224d3233332032383368347634610ea08201527f682d347a222f3e3c7061746820643d224d3233302032383068337633682d337a610ec08201527f222f3e3c7061746820643d224d3232372032373768337633682d337a222f3e3c610ee08201527f7061746820643d224d3232332032373368347634682d347a222f3e3c70617468610f008201527f20643d224d3232302032363768337636682d337a222f3e3c7061746820643d22610f208201527f4d3231372032363068337637682d337a222f3e3c7061746820643d224d323133610f408201527f2032353368347637682d347a222f3e3c7061746820643d224d32313020323437610f608201527f68337636682d337a222f3e3c7061746820643d224d3230372032333768337631610f808201527f30682d337a222f3e3c7061746820643d224d323033203232376834763130682d610fa08201527f347a6d2d343020363068347636682d347a6d323420323068337633682d337a22610fc08201527f2f3e3c7061746820643d224d3136372032393368337635682d337a6d31362031610fe08201527f3468347633682d347a222f3e3c7061746820643d224d313730203239386834766110008201527f33682d347a6d3130203668337633682d337a222f3e3c7061746820643d224d316110208201527f37342033303168367633682d367a6d323320313268367634682d367a222f3e3c6110408201527f7061746820643d224d323033203331376831307633682d31307a6d2d322d31306110608201527f37762d3733682d3476373368337631376833762d3137682d327a222f3e3c2f676110808201520152565b9061028c609a60405180947f3c7374796c653e2e6f7b66696c6c3a233830383038303b7d2e62327b66696c6c60208301527f3a6e6f6e653b7d2e62337b66696c6c3a6e6f6e653b7d2e62347b66696c6c3a6e60408301527f6f6e653b7d2e61317b66696c6c3a6e6f6e653b7d2e61327b66696c6c3a6e6f6e60608301527f653b7d2e61337b66696c6c3a6e6f6e653b7d3c2f7374796c653e00000000000060808301526141f181518092602086860191016103b6565b810103607a81018552018361022b565b9061028c60bb60405180947f3c7376672077696474683d2234303022206865696768743d223430302220766960208301527f6577426f783d223020302034303020343030222066696c6c3d226e6f6e65222060408301527f786d6c6e733d22687474703a2f2f7777772e77332e6f72672f323030302f737660608301527f67223e3c7374796c653e2e6f7b66696c6c3a233035303530353b7d2e777b666960808301527f6c6c3a236639663966393b7d3e3c2f7374796c653e000000000000000000000060a08301526142de81518092602060b5860191016103b6565b81017f3c2f7376673e000000000000000000000000000000000000000000000000000060b582015203609b81018552018361022b565b9061040f9061435e6040516020927f122000000000000000000000000000000000000000000000000000000000000084830152602282015260228152614359816101b9565b615476565b92604051938161437786935180928680870191016103b6565b820161438b825180938680850191016103b6565b0103808452018261022b565b6040516143a38161017b565b60008152906000368137565b906143b982610609565b6143c6604051918261022b565b82815280926143d7601f1991610609565b0190602036910137565b806000917a184f03e93ff9f4daa797ed6e38ed64bf6a1f01000000000000000080821015614524575b506d04ee2d6d415b85acef810000000080831015614515575b50662386f26fc1000080831015614506575b506305f5e100808310156144f7575b50612710808310156144e8575b5060648210156144d8575b600a809210156144ce575b600190816021614479600187016143af565b95860101905b61448b575b5050505090565b600019019083907f30313233343536373839616263646566000000000000000000000000000000008282061a8353049182156144c95791908261447f565b614484565b9160010191614467565b919060646002910491019161445c565b60049193920491019138614451565b60089193920491019138614444565b60109193920491019138614435565b60209193920491019138614423565b60409350810491503861440a565b6040519061453f826101b9565b604082527f6768696a6b6c6d6e6f707172737475767778797a303132333435363738392b2f6040837f4142434445464748494a4b4c4d4e4f505152535455565758595a61626364656660208201520152565b9060028201809211610e6c57565b9060208201809211610e6c57565b9060018201809211610e6c57565b91908201809211610e6c57565b80511561293d576145d7614532565b6145f36145ee6145e78451614591565b6003900490565b6118d6565b916146056146008461459f565b6143af565b92835280815182019060208501935b82821061468b5750505060039051068060011461466057600214614636575090565b7f3d0000000000000000000000000000000000000000000000000000000000000090600019015290565b507f3d3d00000000000000000000000000000000000000000000000000000000000090600119015290565b9091936004906003809401938451600190603f9082828260121c16880101518553828282600c1c16880101518386015382828260061c1688010151600286015316850101519082015301939190614614565b6001600160a01b038060005416816146f3615c11565b16036146fc5750565b602490614707615c11565b6040517f118cdaa700000000000000000000000000000000000000000000000000000000815291166004820152fd5b61473f9061594f565b9261474e969596929192612d07565b94604051978897602089017f3c7374796c653e2e62317b66696c6c3a2300000000000000000000000000000090528051908160318b019160200191614792926103b6565b8801603181017f3b7d2e62327b66696c6c3a230000000000000000000000000000000000000000905281519182603d830191602001916147d1926103b6565b01603d81017f3b7d2e62337b66696c6c3a23000000000000000000000000000000000000000090528151918260498301916020019161480f926103b6565b016049810161483d907f3b7d2e62347b66696c6c3a2300000000000000000000000000000000000000009052565b60550161484991610fe1565b7f3b7d2e61317b66696c6c3a2300000000000000000000000000000000000000008152600c0161487891610fe1565b7f3b7d2e61327b66696c6c3a2300000000000000000000000000000000000000008152600c016148a791610fe1565b7f3b7d2e61337b66696c6c3a2300000000000000000000000000000000000000008152600c016148d691610fe1565b7f3b7d3c2f7374796c653e000000000000000000000000000000000000000000008152600a0161490591610fe1565b03601f198101825261040f908261022b565b60405190610120820182811067ffffffffffffffff8211176101975760405260f982527f2d31306833762d376833762d33682d31307a222f3e3c2f673e00000000000000610100837f3c6720636c6173733d226f223e3c7061746820643d224d31383720333037762d60208201527f346833762d36682d33762d34682d34762d33682d33762d33682d37762d34682d60408201527f367634682d3476336834763237682d34763133682d33763130682d347637683460608201527f76336833203130203134762d33682d34762d34682d33762d33682d33762d336860808201527f2d34762d376834762d31306833762d376833762d336837762d33682d337a6d3160a08201527f36203130762d34682d36763137682d34763130682d337637683376336834203660c08201527f20342033203134762d33682d34762d34682d37762d33682d33762d33682d337660e08201520152565b60405190614a7a826101d5565b61019c82527f6820643d224d3139332031373068347633682d347a222f3e3c2f673e000000006101a0837f3c6720636c6173733d226f223e3c7061746820643d224d31393020313733682d60208201527f3337762d33682d3130762d34682d36763468337633682d33763468367633683160408201527f307634683337762d346833762d33682d33762d347a6d2d34302034682d33762d60608201527f34683376347a6d372033762d3368337633682d337a6d362030762d336834763360808201527f682d347a6d372030762d3368337633682d337a6d372030762d3368337633682d60a08201527f337a6d31302030682d34762d33683476337a222f3e3c7061746820643d224d3160c08201527f39302031373068337633682d337a222f3e3c7061746820643d224d313933203160e08201527f363668347634682d347a6d30203768347634682d347a222f3e3c2f673e3c67206101008201527f636c6173733d2277223e3c7061746820643d224d3133372031373068337633686101208201527f2d337a6d3130203368337634682d337a6d3130203468337633682d337a6d36206101408201527f3068347633682d347a6d37203068337633682d337a6d37203068337633682d336101608201527f7a6d36203068347633682d347a6d372d3468337634682d337a222f3e3c7061746101808201520152565b60405190610100820182811067ffffffffffffffff8211176101975760405260dd82527f746820643d224d3138302031343768337633682d337a222f3e3c2f673e00000060e0837f3c6720636c6173733d226f223e3c7061746820643d224d31373720313430763360208201527f6836763131683130762d31316834762d33682d32307a222f3e3c70617468206460408201527f3d224d31353320313430763368377638203368372033762d31316833762d336860608201527f2d32307a222f3e3c2f673e3c6720636c6173733d2277223e3c7061746820643d60808201527f224d3135332031343368377634682d377a222f3e3c7061746820643d224d313560a08201527f372031343768337633682d337a6d32302d3468367634682d367a222f3e3c706160c08201520152565b60405190614db1826101f2565b61023a82527f643d224d3139302031333768347633682d347a222f3e3c2f673e000000000000610240837f3c6720636c6173733d226f223e3c7061746820643d224d31393020313237683360208201527f7633682d337a6d3320313368347633682d347a6d2d3432203068367636682d3660408201527f7a222f3e3c7061746820643d224d3135312031333368337637682d337a6d313060608201527f203068367634682d367a222f3e3c7061746820643d224d31353720313337683160808201527f377636682d31377a6d332031336831347633682d31347a6d31372d313368377660a08201527f3136682d377a222f3e3c7061746820643d224d3138342031333768367636682d60c08201527f367a6d302031306831307636682d31307a222f3e3c7061746820643d224d313860e08201527f37203134336831307634682d31307a222f3e3c7061746820643d224d313930206101008201527f31343068337633682d337a6d2d362d313068337637682d337a222f3e3c7061746101208201527f6820643d224d3138372031333068367633682d367a6d2d3336203068313076336101408201527f682d31307a6d313620313368377637682d377a6d2d3130203068377637682d376101608201527f7a222f3e3c7061746820643d224d3136342031343768337633682d337a6d32396101808201527f2d323068347636682d347a222f3e3c7061746820643d224d31393420313333686101a08201527f337637682d337a222f3e3c2f673e3c6720636c6173733d2277223e3c706174686101c08201527f20643d224d3135342031333368377634682d377a222f3e3c7061746820643d226101e08201527f4d3135342031333768337633682d337a6d3130203668337634682d337a6d32306102008201527f203068337634682d337a6d332d313068377634682d377a222f3e3c70617468206102208201520152565b6040519060c0820182811067ffffffffffffffff8211176101975760405260818252601f60f91b60a0837f3c6720636c6173733d226f223e3c7061746820643d224d31383320313630762d60208201527f34682d32307634682d33763368337634683234762d37682d347a6d2d3133203360408201527f762d336831307633682d31307a222066696c6c3d2223616437316338222f3e3c60608201527f7061746820643d224d313730203136306831307633682d31307a222f3e3c2f6760808201520152565b82516060949391926000928392839260039284928392839290918681101561540557615160816145ad565b999897985b8a811061517a57505050505050505050505050565b818110156153f95761518c8184610e33565b51968c6001600160a01b0360409182519163507f146560e01b8352602091600491838584818486165afa928315610ac057615205968f959660009788966153da575b5050519687958694859363c44a8e6d60e01b8552840160409060009294936001600160a01b03606083019616825260208201520152565b0392165afa8015610ac057610100916000916153c1575b5001519a5b8b8a0361539257506001995b60048c810361536357505060019a5b6005818103615276575050506001965b8061525e575b50600101989798615165565b6001919e61289e61526f928f612bf4565b9d90615252565b81999299118061535b575b61528c575b5061524c565b90969095600680880361530f5750506001955b6007908082036152e0575050506001955b85806152d9575b806152d1575b6152c8575b38615286565b600197506152c2565b5087156152bd565b50866152b7565b9791971180615307575b156152b05795509c6152fe9061289e61506f565b9c6001956152b0565b5086156152ea565b8791971180615353575b1561529f57955060019e8f8614600014615341576153399061289e614da4565b9e5b9561529f565b61534d9061289e614c75565b9e61533b565b508615615319565b508815615281565b8c919c118061538a575b1561523c579a509d6153819061289e614a6d565b9d60019a61523c565b508b1561536d565b99898c11806153b9575b1561522d5799509d6153b09061289e614917565b9d60019961522d565b508a1561539c565b6153d4913d8091833e610ab2818361022b565b3861521c565b6153f1929650803d10610aef57610ae0818361022b565b9338806151ce565b60089996600097615221565b8099989798615165565b604051906105e0820182811067ffffffffffffffff82111761019757604052602e82526105c0366020840137565b90615447826126d5565b615454604051918261022b565b82815280926143d7601f19916126d5565b908151811015610e21570160200190565b908151156155b55761548661540f565b91600090600061549585610e26565b526001918151916000925b8084106154c657505050506154bc6154c19161040f9394615a93565b615ad6565b615b1d565b9091929461550f6155096155036154dd8987615465565b517fff000000000000000000000000000000000000000000000000000000000000001690565b60f81c90565b60ff1690565b9184925b60ff9089828916861015615574576001929161554861554261550961553b8a61554e96610e33565b5160ff1690565b60081b90565b906145bb565b61556b8b61556388603a958686061692610e33565b9060ff169052565b04930192615513565b50919594935050809691965b61558e5750600101926154a0565b9460ff6001603a926155ab83858b06166155638d86851690610e33565b0116950480615580565b905061040f614397565b604051906155cc8261020f565b600682527f66666539303000000000000000000000000000000000000000000000000000006020830152565b604051906156058261020f565b600682527f66666337303000000000000000000000000000000000000000000000000000006020830152565b6040519061563e8261020f565b600682527f66336136303300000000000000000000000000000000000000000000000000006020830152565b604051906156778261020f565b600682527f39363561316100000000000000000000000000000000000000000000000000006020830152565b604051906156b08261020f565b600682527f66663763303200000000000000000000000000000000000000000000000000006020830152565b604051906156e98261020f565b600682527f63333265306400000000000000000000000000000000000000000000000000006020830152565b604051906157228261020f565b600682527f66666438633500000000000000000000000000000000000000000000000000006020830152565b6040519061575b8261020f565b600682527f66663936613900000000000000000000000000000000000000000000000000006020830152565b604051906157948261020f565b600682527f66653538386200000000000000000000000000000000000000000000000000006020830152565b604051906157cd8261020f565b600682527f63393266343500000000000000000000000000000000000000000000000000006020830152565b604051906158068261020f565b600682527f36376437353700000000000000000000000000000000000000000000000000006020830152565b6040519061583f8261020f565b600682527f33306132323000000000000000000000000000000000000000000000000000006020830152565b604051906158788261020f565b600682527f32313761313500000000000000000000000000000000000000000000000000006020830152565b604051906158b18261020f565b600482527f6e6f6e65000000000000000000000000000000000000000000000000000000006020830152565b604051906158ea8261020f565b600682527f65343833656600000000000000000000000000000000000000000000000000006020830152565b604051906159238261020f565b600682527f64633266656600000000000000000000000000000000000000000000000000006020830152565b6001810361599657506159606157f9565b90615969615832565b9061597261586b565b9061597b6158a4565b906159846158dd565b9061598d615916565b9061040f615916565b600281036159dd57506159a7615715565b906159b061574e565b906159b9615787565b906159c26157c0565b906159cb615715565b906159d461574e565b9061040f615787565b60038103615a2457506159ee615631565b906159f76156a3565b90615a006156a3565b90615a096156dc565b90615a12615631565b90615a1b6156a3565b9061040f6156a3565b600414615a555760046040517f4c944ce8000000000000000000000000000000000000000000000000000000008152fd5b615a5d6155bf565b90615a666155f8565b90615a6f615631565b90615a7861566a565b90615a816155bf565b90615a8a6155f8565b9061040f615631565b9060ff80911690615aa38261543d565b9260005b838110615ab5575050505090565b8083615ac360019385610e33565b5116615acf8288610e33565b5201615aa7565b908151615ae28161543d565b9060005b818110615af4575090925050565b60019060ff615b0a600019838951030188610e33565b5116615b168286610e33565b5201615ae6565b8051615b2881610609565b91604090615b39604051948561022b565b828452615b4583610609565b60209190601f1901368684013760009260005b858110615b685750505050505090565b6001907fff00000000000000000000000000000000000000000000000000000000000000615bfc8451615b9a816101b9565b603a81527f31323334353637383941424344454647484a4b4c4d4e50515253545556575859888201527f5a6162636465666768696a6b6d6e6f707172737475767778797a0000000000008682015260ff615bf48589610e33565b511690615465565b5116861a615c0a828a615465565b5301615b58565b6001600160a01b037f000000000000000000000000000000000000000000000000000000000000000016331480615c5f575b15615c5b576013193601368111610e6c573560601c90565b3390565b506014361015615c4356fea26469706673582212202dc2803a53d9322e2f98a1565d0b49fa84d6d1e50d2e7790871fd78db48634b264736f6c63430008170033",
			"deployedBytecode": "0x6080604052600436101561001257600080fd5b60003560e01c806257bfdd146101265780631e4578de14610121578063572b6c051461011c5780635e703e711461011757806366c6e390146101125780636aff31dd1461010d578063715018a6146101085780637da0a877146101035780638d4edce3146100fe5780638da5cb5b146100f9578063a34031ed146100f4578063aeac5e35146100ef578063c06e7bc7146100ea578063f2fde38b146100e5578063f5dac0b3146100e0578063f92df2e3146100db5763fff628c6146100d657600080fd5b610db3565b610d84565b610c13565b610b63565b610af6565b6109d6565b61093e565b610917565b6107a5565b610733565b6106c9565b61069d565b610625565b6105bc565b610566565b61048d565b610412565b90600182811c9216801561015b575b602083101461014557565b634e487b7160e01b600052602260045260246000fd5b91607f169161013a565b634e487b7160e01b600052604160045260246000fd5b6020810190811067ffffffffffffffff82111761019757604052565b610165565b6110c0810190811067ffffffffffffffff82111761019757604052565b6060810190811067ffffffffffffffff82111761019757604052565b6101c0810190811067ffffffffffffffff82111761019757604052565b610260810190811067ffffffffffffffff82111761019757604052565b6040810190811067ffffffffffffffff82111761019757604052565b90601f8019910116810190811067ffffffffffffffff82111761019757604052565b60405190600082600254916102618361012b565b808352926020906001908181169081156102ef575060011461028e575b505061028c9250038361022b565b565b91509260026000527f405787fa12a823e0f2b7631cc41b3ba8828b3321ca811111fa75cd3aa3bb5ace936000925b8284106102d7575061028c945050508101602001388061027e565b855488850183015294850194879450928101926102bc565b9150506020925061028c94915060ff191682840152151560051b820101388061027e565b906040519182600082546103268161012b565b908184526020946001916001811690816000146103945750600114610355575b50505061028c9250038361022b565b600090815285812095935091905b81831061037c57505061028c9350820101388080610346565b85548884018501529485019487945091830191610363565b9250505061028c94925060ff191682840152151560051b820101388080610346565b60005b8381106103c95750506000910152565b81810151838201526020016103b9565b906020916103f2815180928185528580860191016103b6565b601f01601f1916010190565b90602061040f9281815201906103d9565b90565b346104465760003660031901126104465761044261042e61024d565b6040519182916020835260208301906103d9565b0390f35b600080fd5b604081019181526060602091604060208201528151809452019160809160005b828110610479575050505090565b83518552938101939281019260010161046b565b346104465760208060031936011261044657600435906000918083526005602052604083209060405180938491602085549182815201948752602087209187905b82821061053b57505050506104e8906104f893038461022b565b6000526006602052604060002090565b5491815191815b8381106105145760405180610442878261044b565b8061052160019284610e33565b5161053461052e86610e5d565b95610e0e565b52016104ff565b8354875295860195879450600193840193909101906104ce565b6001600160a01b0381160361044657565b3461044657602036600319011261044657602060043561058581610555565b6001600160a01b039060405191807f000000000000000000000000b2b5841dbef766d4b521221732f9b618fcf34a87169116148152f35b346104465760403660031901126104465761044261042e6004356105df81610555565b60243590611110565b604051906101a0820182811067ffffffffffffffff82111761019757604052565b67ffffffffffffffff811161019757601f01601f191660200190565b346104465760403660031901126104465760243567ffffffffffffffff8111610446573660238201121561044657806004013561066181610609565b9061066f604051928361022b565b808252366024828501011161044657602081600092602461069b96018386013783010152600435611528565b005b346104465760203660031901126104465760043560005260016020526020604060002054604051908152f35b3461044657600080600319360112610730576106e36146dd565b806001600160a01b03815473ffffffffffffffffffffffffffffffffffffffff1981168355167f8be0079c531659141344cd1fd0a4f28419497f9722a3daafe3b4186f6b6457e08280a380f35b80fd5b346104465760003660031901126104465760206040516001600160a01b037f000000000000000000000000b2b5841dbef766d4b521221732f9b618fcf34a87168152f35b9181601f840112156104465782359167ffffffffffffffff8311610446576020838186019501011161044657565b34610446576020806003193601126104465767ffffffffffffffff600435818111610446576107d8903690600401610777565b90916107e26146dd565b8111610197576107fc816107f760025461012b565b611689565b600092601f8211600114610873575061084e81807f512c3c91736f50c57a0548c1d01ab02f24c420f002b8b20e2bfe63df9693cd3f95600091610868575b508160011b916000199060031b1c19161790565b6002555b61086360405192839233918461181a565b0390a1005b90508401353861083a565b6002600052601f198216937f405787fa12a823e0f2b7631cc41b3ba8828b3321ca811111fa75cd3aa3bb5ace9181905b8682106108ff575050827f512c3c91736f50c57a0548c1d01ab02f24c420f002b8b20e2bfe63df9693cd3f95106108e5575b5050600181811b01600255610852565b830135600019600384901b60f8161c1916905538806108d5565b806001849582949589013581550194019201906108a3565b346104465760003660031901126104465760206001600160a01b0360005416604051908152f35b346104465760403660031901126104465760043560243561095d6146dd565b600091808352600160205260408320546109ac5780835260016020528160408420557fb10eb6fc7557a7109693cb8f3fac48d44328de56c0368ee4cac539b424d2cad96020604051338152a380f35b60046040517fcf7b506c000000000000000000000000000000000000000000000000000000008152fd5b34610446576040366003190112610446576004356109f381610555565b602435906001600160a01b0360405163507f146560e01b81526020816004818587165afa8015610ac057610a669360009386938593610ac5575b5060405180968195829463c44a8e6d60e01b84526004840160409060009294936001600160a01b03606083019616825260208201520152565b0392165afa918215610ac05761044292610a9192600091610a9d575b5061010081519101519161252d565b604051918291826103fe565b610aba91503d806000833e610ab2818361022b565b810190610eea565b38610a82565b610e86565b610ae891935060203d602011610aef575b610ae0818361022b565b810190610e71565b9138610a2d565b503d610ad6565b3461044657608036600319011261044657600435610b1381610555565b6064359067ffffffffffffffff908183116104465736602384011215610446578260040135918211610446573660248360051b8501011161044657602461069b93019060443590602435906119dd565b3461044657602036600319011261044657600435610b8081610555565b610b886146dd565b6001600160a01b038091168015610be25760009182548273ffffffffffffffffffffffffffffffffffffffff198216178455167f8be0079c531659141344cd1fd0a4f28419497f9722a3daafe3b4186f6b6457e08380a380f35b60246040517f1e4fbdf700000000000000000000000000000000000000000000000000000000815260006004820152fd5b34610446576040806003193601126104465760043560243567ffffffffffffffff811161044657610c48903690600401610777565b9190610c66610c61836000526004602052604060002090565b611f95565b610d5b57610c7e826000526001602052604060002090565b54928315610d32578385516020810190610cab81610c9d848789611f9f565b03601f19810183528261022b565b51902003610d0957610d04839495610cf88385610cf37f09b26657b7b690741d37bfcbbed1e373aa8a253d6b1412759967f8eb5b4d43a1986000526004602052604060002090565b61174b565b5192839233918461181a565b0390a3005b600485517f75b5da0b000000000000000000000000000000000000000000000000000000008152fd5b600485517f7ef41a4f000000000000000000000000000000000000000000000000000000008152fd5b600484517f0e2019dc000000000000000000000000000000000000000000000000000000008152fd5b346104465760603660031901126104465761044261042e60443560243560043561252d565b8015150361044657565b346104465760803660031901126104465761044261042e600435610dd681610555565b604435610de281610da9565b60643591610def83610da9565b60243590612990565b634e487b7160e01b600052603260045260246000fd5b606051811015610e215760051b60800190565b610df8565b805115610e215760200190565b8051821015610e215760209160051b010190565b634e487b7160e01b600052601160045260246000fd5b6000198114610e6c5760010190565b610e47565b90816020910312610446575161040f81610555565b6040513d6000823e3d90fd5b519061028c82610555565b519061028c82610da9565b81601f82011215610446578051610ebe81610609565b92610ecc604051948561022b565b818452602082840101116104465761040f91602080850191016103b6565b60208183031261044657805167ffffffffffffffff9182821161044657016101a08184031261044657610f1b6105e8565b92815184526020820151602085015260408201516040850152606082015160608501526080820151608085015260a082015160a0850152610f5e60c08301610e92565b60c085015260e082015160e08501526101008083015190850152610120610f86818401610e9d565b90850152610140610f98818401610e9d565b90850152610160610faa818401610e9d565b90850152610180928383015190811161044657610fc79201610ea8565b9082015290565b60405190610fdb8261017b565b60008252565b90610ff4602092828151948592016103b6565b0190565b90604051918260605160005b818110611039575090602061028c9361102d8294840191838301600081528151948592016103b6565b0103808552018361022b565b6020919250806080015182828801015201908491611004565b602061028c91939293604051948161107387935180928680870191016103b6565b820161102d825180938680850191016103b6565b9060208282031261044657815167ffffffffffffffff81116104465761040f9201610ea8565b90816020910312610446575190565b9061028c603d60405180947f646174613a6170706c69636174696f6e2f6a736f6e3b6261736536342c000000602083015261110081518092602086860191016103b6565b810103601d81018552018361022b565b906001600160a01b03918281169260409283519163507f146560e01b8084526020968785600481845afa948515610ac057600095611509575b50865163c44a8e6d60e01b81526001600160a01b03871660048201526024810185905260006044820181905290958690606490829087165afa948515610ac0576000956114ee575b508451156114de5761010085018051909390156114d4576111b3865188612bf4565b96875161149d575b87511561134057505050509461132f61130661133b96611262611291611262986112626112688a61123161040f9f6112026112189d61122c9f92611209935190519161252d565b92516143e1565b9488519c8d918d830190610fe1565b039b61122c601f199d8e810183528261022b565b6145c8565b96519c8d9a8b016009907f7b226e616d65223a22000000000000000000000000000000000000000000000081520190565b90610fe1565b7f222c20226964223a2022000000000000000000000000000000000000000000008152600a0190565b7f222c226465736372697074696f6e223a2241207069656365206f66207468652081527f42616e6e797665727365222c22696d616765223a22646174613a696d6167652f60208201527f7376672b786d6c3b6261736536342c00000000000000000000000000000000006040820152604f0190565b7f227d000000000000000000000000000000000000000000000000000000000000815260020190565b0390810183528261022b565b6110bc565b92965092600d919550511160001461148e5785517f6c0360eb000000000000000000000000000000000000000000000000000000008152600081600481885afa8015610ac057889160009161146b575b50955b600488518097819382525afa918215610ac0576113fe96889560009461144c575b50518097819582947fc8df171000000000000000000000000000000000000000000000000000000000845260048401602090939291936001600160a01b0360408201951681520152565b0392165afa918215610ac05761040f9360009361141d575b5050614314565b61143d929350803d10611445575b611435818361022b565b8101906110ad565b903880611416565b503d61142b565b611464919450863d8811610aef57610ae0818361022b565b92386113b4565b61148891503d806000833e611480818361022b565b810190611087565b38611390565b8661149761024d565b95611393565b966114b09060018651036114b657614201565b966111bb565b6114cf906114ca6114c5612d07565b61413b565b611052565b614201565b6114b0858861279f565b505050505050505061040f610fce565b61150291953d8091833e610ab2818361022b565b9338611191565b611521919550883d8a11610aef57610ae0818361022b565b9338611149565b906115316146dd565b816000526020600360205260406000209082519067ffffffffffffffff82116101975761156882611562855461012b565b856116ea565b602090601f83116001146115df5750916115be827fa67f37d9972d5f886682fb18abfea16db5777cc4d12c43e59dfee7e48663cb3895936115cf956000916115d457508160011b916000199060031b1c19161790565b90555b604051918291339083611724565b0390a2565b90508401513861083a565b90601f1983166115f485600052602060002090565b926000905b82821061165a575050926115cf9492600192827fa67f37d9972d5f886682fb18abfea16db5777cc4d12c43e59dfee7e48663cb38989610611641575b5050811b0190556115c1565b85015160001960f88460031b161c191690553880611635565b80600185968294968b015181550195019301906115f9565b81811061167d575050565b60008155600101611672565b90601f8211611696575050565b61028c9160026000527f405787fa12a823e0f2b7631cc41b3ba8828b3321ca811111fa75cd3aa3bb5ace906020601f840160051c830193106116e0575b601f0160051c0190611672565b90915081906116d3565b9190601f81116116f957505050565b61028c926000526020600020906020601f840160051c830193106116e057601f0160051c0190611672565b906001600160a01b036117446020929594956040855260408501906103d9565b9416910152565b90929167ffffffffffffffff8111610197576117718161176b845461012b565b846116ea565b6000601f82116001146117b25781906117a39394956000926117a7575b50508160011b916000199060031b1c19161790565b9055565b01359050388061178e565b601f198216946117c784600052602060002090565b91805b8781106118025750836001959697106117e8575b505050811b019055565b0135600019600384901b60f8161c191690553880806117de565b909260206001819286860135815501940191016117ca565b916060816001600160a01b039260209497969760408752816040880152838701376000828287010152601f80199101168401019416910152565b604051906101a0820182811067ffffffffffffffff82111761019757604052606061018083600080825280602083015280604083015280848301528060808301528060a08301528060c08301528060e08301528061010083015280610120830152806101408301526101608201520152565b9190811015610e215760051b0190565b908160021b917f3fffffffffffffffffffffffffffffffffffffffffffffffffffffffffffffff811603610e6c57565b9067ffffffffffffffff831161019757680100000000000000008311610197578154838355808410611962575b50906000526020806000209060005b848110611950575050505050565b83358382015592810192600101611942565b61197a90836000528460206000209182019101611672565b38611933565b9291909493948352606060208401528160608401527f07ffffffffffffffffffffffffffffffffffffffffffffffffffffffffffffff82116104465760806001600160a01b039160409360051b8091838701378401019416910152565b929093916001600160a01b0385818616956040928351907f6352211e000000000000000000000000000000000000000000000000000000009081835260209283818c8180611a3460049b8c83019190602083019252565b03915afa908115610ac057600091611f78575b508133911603611f50578615611f3957855182815283818c8180611a728d8c83019190602083019252565b03915afa908115610ac057600091611f1c575b508133911603611ef457855163507f146560e01b8152838187818e5afa8015610ac05788600091611af1938391611ed7575b5087858a8c519687958694859363c44a8e6d60e01b8552840160409060009294936001600160a01b03606083019616825260208201520152565b0392165afa908115610ac057600091611ebc575b505115611e945786611b218c6000526006602052604060002090565b559190915b600091611b31611854565b506000938492835b8d8d8810611ba257505050505050505050508291611b9d91611b91867f6a68946ba06488db8585d7c7637fa954b574035fe15720ea760125ef860172589796611b8c8b6000526005602052604060002090565b611906565b51938493339285611980565b0390a3565b611bd2858f8f93611bb88f928f96908e916118c6565b35948592518095819482938c845283019190602083019252565b03915afa908115610ac057600091611e77575b508333911603611e4f57898f86908d519283809263507f146560e01b82525afa918215610ac057611c55928b868f8f906000968795611e30575b50519687958694859363c44a8e6d60e01b8552840160409060009294936001600160a01b03606083019616825260208201520152565b0392165afa908115610ac057600091611e17575b50805115611def576101000195865160028110908115611de4575b50611dbc578715159081611db0575b50611d8857855160058103611cb3575050600180955b5196019594611b39565b9095949060098103611cca57505060018094611ca9565b989f9d9b999e9c9a98600681969296148015611d7e575b80611d77575b15611d1557508f8f517f54f653b3000000000000000000000000000000000000000000000000000000008152fd5b9d9f989a9c9e999b9d600a8114908115611d6c575b5080611d65575b611d3d57600190611ca9565b888a517f5e701b2b000000000000000000000000000000000000000000000000000000008152fd5b5084611d31565b600b91501438611d2a565b5086611ce7565b5060078114611ce1565b888a517ffb81d04a000000000000000000000000000000000000000000000000000000008152fd5b90508651111538611c93565b898b517fc89badbd000000000000000000000000000000000000000000000000000000008152fd5b600d91501138611c84565b898b517fa981203a000000000000000000000000000000000000000000000000000000008152fd5b611e2a913d8091833e610ab2818361022b565b38611c69565b611e489195508c8d3d10610aef57610ae0818361022b565b9338611c1f565b898b517f812a6989000000000000000000000000000000000000000000000000000000008152fd5b611e8e9150863d8811610aef57610ae0818361022b565b38611be5565b8486517f265ba879000000000000000000000000000000000000000000000000000000008152fd5b611ed191503d806000833e610ab2818361022b565b38611b05565b611eee9150873d8911610aef57610ae0818361022b565b38611ab7565b8486517f9d17cec7000000000000000000000000000000000000000000000000000000008152fd5b611f339150843d8611610aef57610ae0818361022b565b38611a85565b60008b815260066020526040812055919091611b26565b8486517f1f567c4c000000000000000000000000000000000000000000000000000000008152fd5b611f8f9150843d8611610aef57610ae0818361022b565b38611a47565b61040f905461012b565b908092918237016000815290565b602161028c919392936040519481611fcf8793518092602080870191016103b6565b82017f2000000000000000000000000000000000000000000000000000000000000000602082015261200a82518093602087850191016103b6565b0103600181018552018361022b565b9061028c602960405180947f546f7070696e673a200000000000000000000000000000000000000000000000602083015261205d81518092602086860191016103b6565b810103600981018552018361022b565b9061028c602660405180947f466973743a20000000000000000000000000000000000000000000000000000060208301526120b181518092602086860191016103b6565b810103600681018552018361022b565b9061028c602d60405180947f5375697420626f74746f6d3a2000000000000000000000000000000000000000602083015261210581518092602086860191016103b6565b810103600d81018552018361022b565b9061028c602a60405180947f5375697420746f703a2000000000000000000000000000000000000000000000602083015261215981518092602086860191016103b6565b810103600a81018552018361022b565b9061028c602660405180947f537569743a20000000000000000000000000000000000000000000000000000060208301526120b181518092602086860191016103b6565b9061028c602a60405180947f48656164676561723a2000000000000000000000000000000000000000000000602083015261215981518092602086860191016103b6565b9061028c602760405180947f4d6f7574683a2000000000000000000000000000000000000000000000000000602083015261223581518092602086860191016103b6565b810103600781018552018361022b565b9061028c602660405180947f457965733a20000000000000000000000000000000000000000000000000000060208301526120b181518092602086860191016103b6565b9061028c602660405180947f466163653a20000000000000000000000000000000000000000000000000000060208301526120b181518092602086860191016103b6565b9061028c602a60405180947f4e65636b6c6163653a2000000000000000000000000000000000000000000000602083015261215981518092602086860191016103b6565b9061028c602660405180947f4c6567733a20000000000000000000000000000000000000000000000000000060208301526120b181518092602086860191016103b6565b9061028c602a60405180947f4261636b736964653a2000000000000000000000000000000000000000000000602083015261215981518092602086860191016103b6565b9061028c602760405180947f576f726c643a2000000000000000000000000000000000000000000000000000602083015261223581518092602086860191016103b6565b9061028c603560405180947f4f726967696e616c204e616b65642042616e6e79200000000000000000000000602083015261242181518092602086860191016103b6565b810103601581018552018361022b565b9061028c603360405180947f4f72616e6765204e616b65642042616e6e792000000000000000000000000000602083015261247581518092602086860191016103b6565b810103601381018552018361022b565b9061028c603160405180947f50696e6b204e616b65642042616e6e792000000000000000000000000000000060208301526124c981518092602086860191016103b6565b810103601181018552018361022b565b9061028c603260405180947f416c69656e204e616b65642042616e6e79200000000000000000000000000000602083015261251d81518092602086860191016103b6565b810103601281018552018361022b565b906001810361254a575061040f9150612545906143e1565b6124d9565b60028103612566575061040f9150612561906143e1565b612485565b60038103612582575061040f915061257d906143e1565b612431565b6004810361259e575061040f9150612599906143e1565b6123dd565b6125b56125ba916000526003602052604060002090565b610313565b80516126bd57506125ca906143e1565b905b600181036125de575061040f90612399565b600281036125f0575061040f90612355565b60038103612602575061040f90612311565b60048103612614575061040f906122cd565b60058103612626575061040f90612289565b60068103612638575061040f90612245565b6007810361264a575061040f906121f1565b6008810361265c575061040f906121ad565b6009810361266e575061040f90612169565b600a8103612680575061040f90612115565b600b8103612692575061040f906120c1565b600c81036126a4575061040f9061206d565b600d146126b4575061040f610fce565b61040f90612019565b6126c96126cf926143e1565b90611fad565b906125cc565b67ffffffffffffffff81116101975760051b60200190565b919060408382031261044657825192602090818101519067ffffffffffffffff821161044657019180601f8401121561044657825161272b816126d5565b93612739604051958661022b565b818552838086019260051b820101928311610446578301905b828210612760575050505090565b81518152908301908301612752565b3d1561279a573d9061278082610609565b9161278e604051938461022b565b82523d6000602084013e565b606090565b60405163507f146560e01b8152906001600160a01b036020836004818585165afa928315610ac05760009361296c575b506000906040519384809263c44a8e6d60e01b82528161280f89886004840160409060009294936001600160a01b03606083019616825260208201520152565b0392165afa918215610ac057600092612951575b5081511561294657606061010083015161291f57604051630f22bc6f60e11b8152600481019490945261040f936128ac929082906000908181602481305afa90816000916000936128f8575b506128ea575050906128a49161288361276f565b505b801515806128e2575b6128c8575b5061289e8651614736565b90611052565b935190615135565b80516128b9575b50614201565b6128c291611052565b386128b3565b6128dc91506128d79084612bf4565b610ff8565b38612893565b50600161288e565b9094506128a4929150612885565b90925061291891503d806000833e612910818361022b565b8101906126ed565b913861286f565b509061292d92505190612bf4565b80511561293d5761040f90614201565b5061040f610fce565b50505061040f610fce565b61296591923d8091833e610ab2818361022b565b9038612823565b60009193506129899060203d602011610aef57610ae0818361022b565b92906127cf565b926001600160a01b03916040519263507f146560e01b8452602084600481848a165afa938415610ac057600094612b55575b506000906040519485809263c44a8e6d60e01b825281612a02878c6004840160409060009294936001600160a01b03606083019616825260208201520152565b0392165afa928315610ac057600093612b3a575b50825115612b2d57606094610100840151612b1d5761040f956000612a576000839560405180938192630f22bc6f60e11b8352600483019190602083019252565b0381305afa9081600091600093612afe575b50612aee575050612a9b929394612a7e61276f565b505b8115159081612ae6575b50612ad1575b5061289e8551614736565b93612aa9575b505050614201565b612ab4925190615135565b8051612ac2575b8080612aa1565b612acb91611052565b38612abb565b612ae091506128d79084612bf4565b38612a90565b905038612a8a565b909150612a9b9394509094612a80565b909250612b1691503d806000833e612910818361022b565b9138612a69565b9350505061292d92505190612bf4565b505050505061040f610fce565b612b4e91933d8091833e610ab2818361022b565b9138612a16565b6000919450612b729060203d602011610aef57610ae0818361022b565b93906129c2565b9061028c605660405180947f3c673e3c696d61676520786c696e6b3a687265663d22000000000000000000006020830152612bbe8151809260206036860191016103b6565b81017f222077696474683d2234303022206865696768743d22343030222f3e3c2f673e603682015203603681018552018361022b565b612c0b6125b5836000526004602052604060002090565b8051612d01575060405163507f146560e01b81526001600160a01b039260209283836004818489165afa908115610ac057612c96958594600093612ce2575b506040518097819582947fbd51923c00000000000000000000000000000000000000000000000000000000845260048401602090939291936001600160a01b0360408201951681520152565b0392165afa8015610ac05761040f92612cc092600092612cc5575b5050612cbb61024d565b614314565b612b79565b612cdb9250803d1061144557611435818361022b565b3880612cb1565b612cfa919350853d8711610aef57610ae0818361022b565b9138612c4a565b91505090565b60405190612d148261019c565b6110818252601f60f91b6110a0837f3c6720636c6173733d226131223e3c7061746820643d224d313733203533683460208201527f763137682d347a222f3e3c2f673e3c6720636c6173733d226132223e3c70617460408201527f6820643d224d3136372035376833763130682d337a222f3e3c7061746820643d60608201527f224d3136392035336834763137682d347a222f3e3c2f673e3c6720636c61737360808201527f3d226133223e3c7061746820643d224d31363720353368337634682d337a222f60a08201527f3e3c7061746820643d224d3136332035376834763130682d347a222f3e3c706160c08201527f746820643d224d31363720363768337633682d337a222f3e3c2f673e3c67206360e08201527f6c6173733d226231223e3c7061746820643d224d32313320323533682d33762d6101008201527f332d33682d33762d372d33682d34762d3130682d33762d372d372d33682d33766101208201527f2d3733682d34762d3130682d33762d3130682d33762d37682d34762d37682d336101408201527f762d33682d33762d33682d3476313068347631306833763130683376336834766101608201527f37203320373020336833763768337632306834763768337633683376336834766101808201527f34683376336833762d332d347a222f3e3c7061746820643d224d3235332033306101a08201527f37762d34682d33762d33682d33762d33682d34762d34682d33762d33682d33766101c08201527f2d33682d34762d34682d33762d33682d33762d33682d34762d34682d33762d366101e08201527f682d33762d37682d3476313768347633683376336833203476346833763368336102008201527f76336834763468337633683376336834763468337633683376336834762d36686102208201527f2d347a222f3e3c2f673e3c6720636c6173733d226232223e3c7061746820643d6102408201527f224d32353020333130762d33682d33762d34682d34762d33682d33762d33682d6102608201527f33762d34682d34762d33682d33762d33682d33762d34682d37762d33682d33766102808201527f2d33682d34762d3137682d33762d33682d33762d34682d34762d33682d33762d6102a08201527f33682d33762d37682d34762d3230682d33762d37682d33762d37332d332d37686102c08201527f2d34762d33682d33762d3130682d33762d3130682d34563730682d33762d336c6102e08201527f2d332031303020332d313030763430682d33763130682d347636682d337631346103008201527f682d337633203133682d347634346834763136683376313468337631336834766103208201527f31306833763768337633683476336833763468337633683476336833763468336103408201527f76336834763368337637683776376836763368377633683776346831337633686103608201527f337633683130762d33682d337a6d2d3130332d3837762d31366833762d3130686103808201527f2d337636682d34763137682d337631306833762d3768347a222f3e3c706174686103a08201527f20643d224d3134332032333068347637682d347a6d3420313068337633682d336103c08201527f7a6d33203768337633682d337a6d33203668347634682d347a222f3e3c7061746103e08201527f6820643d224d31363320323537682d36763368337633683376346834762d342d6104008201527f33682d34762d337a222f3e3c2f673e3c6720636c6173733d226233223e3c70616104208201527f746820643d224d3134332031393776366834762d366836762d34346834762d316104408201527f366833762d31346833762d366834762d31306833563937682d377636682d33766104608201527f34682d337633682d347633682d3376342033682d3376332034682d34763130686104808201527f2d337631362034682d337634366833762d3668337a222f3e3c7061746820643d6104a08201527f224d313430203230336833763137682d337a222f3e3c7061746820643d224d316104c08201527f3337203232306833763130682d337a222f3e3c7061746820643d224d313533206104e08201527f323530682d33762d37682d33762d36682d34762d37682d3376313068337637686105008201527f347636683376346833762d377a6d2d3320313068337637682d337a222f3e3c706105208201527f61746820643d224d3134372032353768337633682d337a6d36203068347633686105408201527f2d347a222f3e3c7061746820643d224d31363020323633762d33682d337633206105608201527f376836762d37682d337a6d2d31302d3536763136682d337637683376313068336105808201527f763768347636683676346837762d342d33682d33762d3130682d34762d3133686105a08201527f2d33762d3134682d33762d3136682d34763130682d337a222f3e3c70617468206105c08201527f643d224d32343320333133762d33682d33762d33682d31302d33762d34682d376105e08201527f762d33682d37762d33682d36762d37682d37762d37682d33762d33682d34762d6106008201527f33682d33762d34682d33762d33682d34762d33682d33762d34682d33762d33686106208201527f2d34762d33682d33763130682d337633682d347633682d3376376833763768346106408201527f76366833763568347633683676336833763368342033763368332034763368336106608201527f20337634683130763368372037203376336831302033762d33683130762d33686106808201527f34762d34682d31347a222f3e3c2f673e3c6720636c6173733d226234223e3c706106a08201527f61746820643d224d3138332031333068347637682d347a222f3e3c70617468206106c08201527f643d224d3138302031323768337633682d337a6d2d32372d3468347637682d346106e08201527f7a222f3e3c7061746820643d224d3135372031313768337636682d337a222f3e6107008201527f3c7061746820643d224d3136302031313068337637682d337a222f3e3c7061746107208201527f6820643d224d3136332031303768347633682d347a6d2d3320383368337637686107408201527f2d337a222f3e3c7061746820643d224d3136332031383768347633682d347a6d6107608201527f3230203068377633682d377a222f3e3c7061746820643d224d313830203139306107808201527f68337633682d337a6d31302d3768337634682d337a222f3e3c7061746820643d6107a08201527f224d3139332031383768347636682d347a6d2d323020353368347637682d347a6107c08201527f222f3e3c7061746820643d224d3137372032343768337636682d337a222f3e3c6107e08201527f7061746820643d224d3138302032353368337637682d337a222f3e3c706174686108008201527f20643d224d3138332032363068377633682d377a222f3e3c7061746820643d226108208201527f4d3139302032363368337634682d337a6d302d323068337634682d337a222f3e6108408201527f3c7061746820643d224d3138372032343068337633682d337a222f3e3c7061746108608201527f6820643d224d3139302032333768337633682d337a6d313320323368347633686108808201527f2d347a222f3e3c7061746820643d224d3230372032363368337637682d337a226108a08201527f2f3e3c7061746820643d224d3231302032373068337633682d337a6d2d3130206108c08201527f3768337636682d337a222f3e3c7061746820643d224d323033203238336834766108e08201527f37682d347a222f3e3c7061746820643d224d3230372032393068367633682d366109008201527f7a222f3e3c2f673e3c6720636c6173733d226f223e3c7061746820643d224d316109208201527f3333203135376834763530682d347a6d302036336834763130682d347a6d32376109408201527f2d3136336833763130682d337a222f3e3c7061746820643d224d3136332035336109608201527f68347634682d347a222f3e3c7061746820643d224d31363720353068313076336109808201527f682d31307a222f3e3c7061746820643d224d3137372035336833763137682d336109a08201527f7a222f3e3c7061746820643d224d3137332037306834763237682d347a6d2d366109c08201527f20306833763237682d337a222f3e3c7061746820643d224d31363320363768346109e08201527f7633682d347a6d3020333068347633682d347a222f3e3c7061746820643d224d610a008201527f3136302031303068337633682d337a222f3e3c7061746820643d224d31353720610a208201527f31303368337634682d337a222f3e3c7061746820643d224d3135332031303768610a408201527f347633682d347a222f3e3c7061746820643d224d313530203131306833763368610a608201527f2d337a222f3e3c7061746820643d224d3134372031313368337637682d337a22610a808201527f2f3e3c7061746820643d224d3134332031323068347637682d347a222f3e3c70610aa08201527f61746820643d224d313430203132376833763130682d337a222f3e3c70617468610ac08201527f20643d224d313337203133376833763230682d337a6d35362d31306834763130610ae08201527f682d347a222f3e3c7061746820643d224d313930203131376833763130682d33610b008201527f7a222f3e3c7061746820643d224d3138372031313068337637682d337a222f3e610b208201527f3c7061746820643d224d3138332031303368347637682d347a222f3e3c706174610b408201527f6820643d224d3138302031303068337633682d337a222f3e3c7061746820643d610b608201527f224d31373720393768337633682d337a6d2d3430203130366833763137682d33610b808201527f7a6d302032376833763130682d337a6d313020333068337637682d337a222f3e610ba08201527f3c7061746820643d224d31353020323537762d34682d33762d36682d34762d37610bc08201527f682d3376313068337631306834762d3368337a222f3e3c7061746820643d224d610be08201527f3135302032353768337633682d337a222f3e3c7061746820643d224d31363320610c008201527f323733762d33682d36762d3130682d347637682d337633683376336834763768610c208201527f33762d3768337a222f3e3c7061746820643d224d313633203236376834763368610c408201527f2d347a222f3e3c7061746820643d224d31373020323537682d332d3476336834610c608201527f76376833762d31307a222f3e3c7061746820643d224d31353720323533683676610c808201527f34682d367a222f3e3c7061746820643d224d3135332032343768347636682d34610ca08201527f7a222f3e3c7061746820643d224d3135302032343068337637682d337a222f3e610cc08201527f3c7061746820643d224d313437203233306833763130682d337a6d3133203530610ce08201527f68337637682d337a222f3e3c7061746820643d224d3134332032323368347637610d008201527f682d347a222f3e3c7061746820643d224d313437203230376833763136682d33610d208201527f7a222f3e3c7061746820643d224d313530203139376833763130682d337a6d2d610d408201527f3130203068337636682d337a6d35302031313368377633682d377a6d32332031610d608201527f306831377633682d31377a222f3e3c7061746820643d224d3233302033323368610d808201527f31337634682d31337a222f3e3c7061746820643d224d32343320333230683130610da08201527f7633682d31307a222f3e3c7061746820643d224d323533203331376834763368610dc08201527f2d347a222f3e3c7061746820643d224d323537203330376833763130682d337a610de08201527f222f3e3c7061746820643d224d3235332033303368347634682d347a222f3e3c610e008201527f7061746820643d224d3235302033303068337633682d337a222f3e3c70617468610e208201527f20643d224d3234372032393768337633682d337a222f3e3c7061746820643d22610e408201527f4d3234332032393368347634682d347a222f3e3c7061746820643d224d323430610e608201527f2032393068337633682d337a222f3e3c7061746820643d224d32333720323837610e808201527f68337633682d337a222f3e3c7061746820643d224d3233332032383368347634610ea08201527f682d347a222f3e3c7061746820643d224d3233302032383068337633682d337a610ec08201527f222f3e3c7061746820643d224d3232372032373768337633682d337a222f3e3c610ee08201527f7061746820643d224d3232332032373368347634682d347a222f3e3c70617468610f008201527f20643d224d3232302032363768337636682d337a222f3e3c7061746820643d22610f208201527f4d3231372032363068337637682d337a222f3e3c7061746820643d224d323133610f408201527f2032353368347637682d347a222f3e3c7061746820643d224d32313020323437610f608201527f68337636682d337a222f3e3c7061746820643d224d3230372032333768337631610f808201527f30682d337a222f3e3c7061746820643d224d323033203232376834763130682d610fa08201527f347a6d2d343020363068347636682d347a6d323420323068337633682d337a22610fc08201527f2f3e3c7061746820643d224d3136372032393368337635682d337a6d31362031610fe08201527f3468347633682d347a222f3e3c7061746820643d224d313730203239386834766110008201527f33682d347a6d3130203668337633682d337a222f3e3c7061746820643d224d316110208201527f37342033303168367633682d367a6d323320313268367634682d367a222f3e3c6110408201527f7061746820643d224d323033203331376831307633682d31307a6d2d322d31306110608201527f37762d3733682d3476373368337631376833762d3137682d327a222f3e3c2f676110808201520152565b9061028c609a60405180947f3c7374796c653e2e6f7b66696c6c3a233830383038303b7d2e62327b66696c6c60208301527f3a6e6f6e653b7d2e62337b66696c6c3a6e6f6e653b7d2e62347b66696c6c3a6e60408301527f6f6e653b7d2e61317b66696c6c3a6e6f6e653b7d2e61327b66696c6c3a6e6f6e60608301527f653b7d2e61337b66696c6c3a6e6f6e653b7d3c2f7374796c653e00000000000060808301526141f181518092602086860191016103b6565b810103607a81018552018361022b565b9061028c60bb60405180947f3c7376672077696474683d2234303022206865696768743d223430302220766960208301527f6577426f783d223020302034303020343030222066696c6c3d226e6f6e65222060408301527f786d6c6e733d22687474703a2f2f7777772e77332e6f72672f323030302f737660608301527f67223e3c7374796c653e2e6f7b66696c6c3a233035303530353b7d2e777b666960808301527f6c6c3a236639663966393b7d3e3c2f7374796c653e000000000000000000000060a08301526142de81518092602060b5860191016103b6565b81017f3c2f7376673e000000000000000000000000000000000000000000000000000060b582015203609b81018552018361022b565b9061040f9061435e6040516020927f122000000000000000000000000000000000000000000000000000000000000084830152602282015260228152614359816101b9565b615476565b92604051938161437786935180928680870191016103b6565b820161438b825180938680850191016103b6565b0103808452018261022b565b6040516143a38161017b565b60008152906000368137565b906143b982610609565b6143c6604051918261022b565b82815280926143d7601f1991610609565b0190602036910137565b806000917a184f03e93ff9f4daa797ed6e38ed64bf6a1f01000000000000000080821015614524575b506d04ee2d6d415b85acef810000000080831015614515575b50662386f26fc1000080831015614506575b506305f5e100808310156144f7575b50612710808310156144e8575b5060648210156144d8575b600a809210156144ce575b600190816021614479600187016143af565b95860101905b61448b575b5050505090565b600019019083907f30313233343536373839616263646566000000000000000000000000000000008282061a8353049182156144c95791908261447f565b614484565b9160010191614467565b919060646002910491019161445c565b60049193920491019138614451565b60089193920491019138614444565b60109193920491019138614435565b60209193920491019138614423565b60409350810491503861440a565b6040519061453f826101b9565b604082527f6768696a6b6c6d6e6f707172737475767778797a303132333435363738392b2f6040837f4142434445464748494a4b4c4d4e4f505152535455565758595a61626364656660208201520152565b9060028201809211610e6c57565b9060208201809211610e6c57565b9060018201809211610e6c57565b91908201809211610e6c57565b80511561293d576145d7614532565b6145f36145ee6145e78451614591565b6003900490565b6118d6565b916146056146008461459f565b6143af565b92835280815182019060208501935b82821061468b5750505060039051068060011461466057600214614636575090565b7f3d0000000000000000000000000000000000000000000000000000000000000090600019015290565b507f3d3d00000000000000000000000000000000000000000000000000000000000090600119015290565b9091936004906003809401938451600190603f9082828260121c16880101518553828282600c1c16880101518386015382828260061c1688010151600286015316850101519082015301939190614614565b6001600160a01b038060005416816146f3615c11565b16036146fc5750565b602490614707615c11565b6040517f118cdaa700000000000000000000000000000000000000000000000000000000815291166004820152fd5b61473f9061594f565b9261474e969596929192612d07565b94604051978897602089017f3c7374796c653e2e62317b66696c6c3a2300000000000000000000000000000090528051908160318b019160200191614792926103b6565b8801603181017f3b7d2e62327b66696c6c3a230000000000000000000000000000000000000000905281519182603d830191602001916147d1926103b6565b01603d81017f3b7d2e62337b66696c6c3a23000000000000000000000000000000000000000090528151918260498301916020019161480f926103b6565b016049810161483d907f3b7d2e62347b66696c6c3a2300000000000000000000000000000000000000009052565b60550161484991610fe1565b7f3b7d2e61317b66696c6c3a2300000000000000000000000000000000000000008152600c0161487891610fe1565b7f3b7d2e61327b66696c6c3a2300000000000000000000000000000000000000008152600c016148a791610fe1565b7f3b7d2e61337b66696c6c3a2300000000000000000000000000000000000000008152600c016148d691610fe1565b7f3b7d3c2f7374796c653e000000000000000000000000000000000000000000008152600a0161490591610fe1565b03601f198101825261040f908261022b565b60405190610120820182811067ffffffffffffffff8211176101975760405260f982527f2d31306833762d376833762d33682d31307a222f3e3c2f673e00000000000000610100837f3c6720636c6173733d226f223e3c7061746820643d224d31383720333037762d60208201527f346833762d36682d33762d34682d34762d33682d33762d33682d37762d34682d60408201527f367634682d3476336834763237682d34763133682d33763130682d347637683460608201527f76336833203130203134762d33682d34762d34682d33762d33682d33762d336860808201527f2d34762d376834762d31306833762d376833762d336837762d33682d337a6d3160a08201527f36203130762d34682d36763137682d34763130682d337637683376336834203660c08201527f20342033203134762d33682d34762d34682d37762d33682d33762d33682d337660e08201520152565b60405190614a7a826101d5565b61019c82527f6820643d224d3139332031373068347633682d347a222f3e3c2f673e000000006101a0837f3c6720636c6173733d226f223e3c7061746820643d224d31393020313733682d60208201527f3337762d33682d3130762d34682d36763468337633682d33763468367633683160408201527f307634683337762d346833762d33682d33762d347a6d2d34302034682d33762d60608201527f34683376347a6d372033762d3368337633682d337a6d362030762d336834763360808201527f682d347a6d372030762d3368337633682d337a6d372030762d3368337633682d60a08201527f337a6d31302030682d34762d33683476337a222f3e3c7061746820643d224d3160c08201527f39302031373068337633682d337a222f3e3c7061746820643d224d313933203160e08201527f363668347634682d347a6d30203768347634682d347a222f3e3c2f673e3c67206101008201527f636c6173733d2277223e3c7061746820643d224d3133372031373068337633686101208201527f2d337a6d3130203368337634682d337a6d3130203468337633682d337a6d36206101408201527f3068347633682d347a6d37203068337633682d337a6d37203068337633682d336101608201527f7a6d36203068347633682d347a6d372d3468337634682d337a222f3e3c7061746101808201520152565b60405190610100820182811067ffffffffffffffff8211176101975760405260dd82527f746820643d224d3138302031343768337633682d337a222f3e3c2f673e00000060e0837f3c6720636c6173733d226f223e3c7061746820643d224d31373720313430763360208201527f6836763131683130762d31316834762d33682d32307a222f3e3c70617468206460408201527f3d224d31353320313430763368377638203368372033762d31316833762d336860608201527f2d32307a222f3e3c2f673e3c6720636c6173733d2277223e3c7061746820643d60808201527f224d3135332031343368377634682d377a222f3e3c7061746820643d224d313560a08201527f372031343768337633682d337a6d32302d3468367634682d367a222f3e3c706160c08201520152565b60405190614db1826101f2565b61023a82527f643d224d3139302031333768347633682d347a222f3e3c2f673e000000000000610240837f3c6720636c6173733d226f223e3c7061746820643d224d31393020313237683360208201527f7633682d337a6d3320313368347633682d347a6d2d3432203068367636682d3660408201527f7a222f3e3c7061746820643d224d3135312031333368337637682d337a6d313060608201527f203068367634682d367a222f3e3c7061746820643d224d31353720313337683160808201527f377636682d31377a6d332031336831347633682d31347a6d31372d313368377660a08201527f3136682d377a222f3e3c7061746820643d224d3138342031333768367636682d60c08201527f367a6d302031306831307636682d31307a222f3e3c7061746820643d224d313860e08201527f37203134336831307634682d31307a222f3e3c7061746820643d224d313930206101008201527f31343068337633682d337a6d2d362d313068337637682d337a222f3e3c7061746101208201527f6820643d224d3138372031333068367633682d367a6d2d3336203068313076336101408201527f682d31307a6d313620313368377637682d377a6d2d3130203068377637682d376101608201527f7a222f3e3c7061746820643d224d3136342031343768337633682d337a6d32396101808201527f2d323068347636682d347a222f3e3c7061746820643d224d31393420313333686101a08201527f337637682d337a222f3e3c2f673e3c6720636c6173733d2277223e3c706174686101c08201527f20643d224d3135342031333368377634682d377a222f3e3c7061746820643d226101e08201527f4d3135342031333768337633682d337a6d3130203668337634682d337a6d32306102008201527f203068337634682d337a6d332d313068377634682d377a222f3e3c70617468206102208201520152565b6040519060c0820182811067ffffffffffffffff8211176101975760405260818252601f60f91b60a0837f3c6720636c6173733d226f223e3c7061746820643d224d31383320313630762d60208201527f34682d32307634682d33763368337634683234762d37682d347a6d2d3133203360408201527f762d336831307633682d31307a222066696c6c3d2223616437316338222f3e3c60608201527f7061746820643d224d313730203136306831307633682d31307a222f3e3c2f6760808201520152565b82516060949391926000928392839260039284928392839290918681101561540557615160816145ad565b999897985b8a811061517a57505050505050505050505050565b818110156153f95761518c8184610e33565b51968c6001600160a01b0360409182519163507f146560e01b8352602091600491838584818486165afa928315610ac057615205968f959660009788966153da575b5050519687958694859363c44a8e6d60e01b8552840160409060009294936001600160a01b03606083019616825260208201520152565b0392165afa8015610ac057610100916000916153c1575b5001519a5b8b8a0361539257506001995b60048c810361536357505060019a5b6005818103615276575050506001965b8061525e575b50600101989798615165565b6001919e61289e61526f928f612bf4565b9d90615252565b81999299118061535b575b61528c575b5061524c565b90969095600680880361530f5750506001955b6007908082036152e0575050506001955b85806152d9575b806152d1575b6152c8575b38615286565b600197506152c2565b5087156152bd565b50866152b7565b9791971180615307575b156152b05795509c6152fe9061289e61506f565b9c6001956152b0565b5086156152ea565b8791971180615353575b1561529f57955060019e8f8614600014615341576153399061289e614da4565b9e5b9561529f565b61534d9061289e614c75565b9e61533b565b508615615319565b508815615281565b8c919c118061538a575b1561523c579a509d6153819061289e614a6d565b9d60019a61523c565b508b1561536d565b99898c11806153b9575b1561522d5799509d6153b09061289e614917565b9d60019961522d565b508a1561539c565b6153d4913d8091833e610ab2818361022b565b3861521c565b6153f1929650803d10610aef57610ae0818361022b565b9338806151ce565b60089996600097615221565b8099989798615165565b604051906105e0820182811067ffffffffffffffff82111761019757604052602e82526105c0366020840137565b90615447826126d5565b615454604051918261022b565b82815280926143d7601f19916126d5565b908151811015610e21570160200190565b908151156155b55761548661540f565b91600090600061549585610e26565b526001918151916000925b8084106154c657505050506154bc6154c19161040f9394615a93565b615ad6565b615b1d565b9091929461550f6155096155036154dd8987615465565b517fff000000000000000000000000000000000000000000000000000000000000001690565b60f81c90565b60ff1690565b9184925b60ff9089828916861015615574576001929161554861554261550961553b8a61554e96610e33565b5160ff1690565b60081b90565b906145bb565b61556b8b61556388603a958686061692610e33565b9060ff169052565b04930192615513565b50919594935050809691965b61558e5750600101926154a0565b9460ff6001603a926155ab83858b06166155638d86851690610e33565b0116950480615580565b905061040f614397565b604051906155cc8261020f565b600682527f66666539303000000000000000000000000000000000000000000000000000006020830152565b604051906156058261020f565b600682527f66666337303000000000000000000000000000000000000000000000000000006020830152565b6040519061563e8261020f565b600682527f66336136303300000000000000000000000000000000000000000000000000006020830152565b604051906156778261020f565b600682527f39363561316100000000000000000000000000000000000000000000000000006020830152565b604051906156b08261020f565b600682527f66663763303200000000000000000000000000000000000000000000000000006020830152565b604051906156e98261020f565b600682527f63333265306400000000000000000000000000000000000000000000000000006020830152565b604051906157228261020f565b600682527f66666438633500000000000000000000000000000000000000000000000000006020830152565b6040519061575b8261020f565b600682527f66663936613900000000000000000000000000000000000000000000000000006020830152565b604051906157948261020f565b600682527f66653538386200000000000000000000000000000000000000000000000000006020830152565b604051906157cd8261020f565b600682527f63393266343500000000000000000000000000000000000000000000000000006020830152565b604051906158068261020f565b600682527f36376437353700000000000000000000000000000000000000000000000000006020830152565b6040519061583f8261020f565b600682527f33306132323000000000000000000000000000000000000000000000000000006020830152565b604051906158788261020f565b600682527f32313761313500000000000000000000000000000000000000000000000000006020830152565b604051906158b18261020f565b600482527f6e6f6e65000000000000000000000000000000000000000000000000000000006020830152565b604051906158ea8261020f565b600682527f65343833656600000000000000000000000000000000000000000000000000006020830152565b604051906159238261020f565b600682527f64633266656600000000000000000000000000000000000000000000000000006020830152565b6001810361599657506159606157f9565b90615969615832565b9061597261586b565b9061597b6158a4565b906159846158dd565b9061598d615916565b9061040f615916565b600281036159dd57506159a7615715565b906159b061574e565b906159b9615787565b906159c26157c0565b906159cb615715565b906159d461574e565b9061040f615787565b60038103615a2457506159ee615631565b906159f76156a3565b90615a006156a3565b90615a096156dc565b90615a12615631565b90615a1b6156a3565b9061040f6156a3565b600414615a555760046040517f4c944ce8000000000000000000000000000000000000000000000000000000008152fd5b615a5d6155bf565b90615a666155f8565b90615a6f615631565b90615a7861566a565b90615a816155bf565b90615a8a6155f8565b9061040f615631565b9060ff80911690615aa38261543d565b9260005b838110615ab5575050505090565b8083615ac360019385610e33565b5116615acf8288610e33565b5201615aa7565b908151615ae28161543d565b9060005b818110615af4575090925050565b60019060ff615b0a600019838951030188610e33565b5116615b168286610e33565b5201615ae6565b8051615b2881610609565b91604090615b39604051948561022b565b828452615b4583610609565b60209190601f1901368684013760009260005b858110615b685750505050505090565b6001907fff00000000000000000000000000000000000000000000000000000000000000615bfc8451615b9a816101b9565b603a81527f31323334353637383941424344454647484a4b4c4d4e50515253545556575859888201527f5a6162636465666768696a6b6d6e6f707172737475767778797a0000000000008682015260ff615bf48589610e33565b511690615465565b5116861a615c0a828a615465565b5301615b58565b6001600160a01b037f000000000000000000000000b2b5841dbef766d4b521221732f9b618fcf34a8716331480615c5f575b15615c5b576013193601368111610e6c573560601c90565b3390565b506014361015615c4356fea26469706673582212202dc2803a53d9322e2f98a1565d0b49fa84d6d1e50d2e7790871fd78db48634b264736f6c63430008170033",
			"devdoc": {
				"kind": "dev",
				"methods": {
					"assetIdsOf(uint256)": {
						"params": {
							"nakedBannyId": "The ID of the naked banny shows with the associated assets."
						},
						"returns": {
							"outfitIds": "The outfits attached to the Naked Banny.",
							"worldId": "The world attached to the Naked Banny."
						}
					},
					"bannySvgOf(address,uint256,bool,bool)": {
						"params": {
							"hook": "The hook storing the assets.",
							"tokenId": "The ID of the token to show. If the ID belongs to a Naked Banny, it will be shown with its current outfits in its current world."
						},
						"returns": {
							"_0": "bannySvg The SVG."
						}
					},
					"constructor": {
						"params": {
							"owner": "The owner allowed to add SVG files that correspond to tier IDs.",
							"trustedForwarder": "The trusted forwarder for the ERC2771Context."
						}
					},
					"decorateBannyWith(address,uint256,uint256,uint256[])": {
						"details": "The caller must own the naked banny being dressed and all outfits being worn.",
						"params": {
							"hook": "The hook storing the assets.",
							"nakedBannyId": "The ID of the Naked Banny being dressed.",
							"outfitIds": "The IDs of the outfits that'll be associated with the specified banny. Only one outfit per outfit category allowed at a time and they must be passed in order.",
							"worldId": "The ID of the world that'll be associated with the specified banny."
						}
					},
					"isTrustedForwarder(address)": {
						"details": "Indicates whether any particular address is the trusted forwarder."
					},
					"owner()": {
						"details": "Returns the address of the current owner."
					},
					"renounceOwnership()": {
						"details": "Leaves the contract without owner. It will not be possible to call `onlyOwner` functions. Can only be called by the current owner. NOTE: Renouncing ownership will leave the contract without an owner, thereby disabling any functionality that is only available to the owner."
					},
					"setSvgContentsOf(uint256,string)": {
						"params": {
							"svgContents": "The svg contents being stored, not including the parent <svg></svg> element.",
							"tierId": "The ID of the tier having an SVG stored."
						}
					},
					"setSvgHashOf(uint256,bytes32)": {
						"details": "This allows anyone to lazily upload the correct svg file.",
						"params": {
							"svgHash": "The svg hash being stored, not including the parent <svg></svg> element.",
							"tierId": "The ID of the tier having an SVG hash stored."
						}
					},
					"setTierName(uint256,string)": {
						"params": {
							"name": "The name of the tier.",
							"tierId": "The ID of the tier having its name stored."
						}
					},
					"tokenUriOf(address,uint256)": {
						"params": {
							"tokenId": "The ID of the token to show. If the ID belongs to a Naked Banny, it will be shown with its current outfits in its current world."
						},
						"returns": {
							"_0": "tokenUri The URI representing the SVG."
						}
					},
					"transferOwnership(address)": {
						"details": "Transfers ownership of the contract to a new account (`newOwner`). Can only be called by the current owner."
					},
					"trustedForwarder()": {
						"details": "Returns the address of the trusted forwarder."
					}
				},
				"version": 1
			},
			"userdoc": {
				"kind": "user",
				"methods": {
					"_nameOf(uint256,uint256,uint256)": {
						"notice": "The name of each tier."
					},
					"assetIdsOf(uint256)": {
						"notice": "The assets currently attached to each Naked Banny, owned by the naked Banny's owner."
					},
					"bannySvgOf(address,uint256,bool,bool)": {
						"notice": "Returns the SVG showing a dressed Naked Banny."
					},
					"decorateBannyWith(address,uint256,uint256,uint256[])": {
						"notice": "Dress your Naked Banny with outfits."
					},
					"setSvgBaseUriOf(string)": {
						"notice": "Allows the owner of this contract to specify the base of the domain hosting the SVG files."
					},
					"setSvgContentsOf(uint256,string)": {
						"notice": "The owner of this contract can store SVG files for tier IDs."
					},
					"setSvgHashOf(uint256,bytes32)": {
						"notice": "Allows the owner of this contract to upload the hash of an svg file for a tierId."
					},
					"setTierName(uint256,string)": {
						"notice": "Allows the owner to set the tier's name."
					},
					"svgBaseUri()": {
						"notice": "The base of the domain hosting the SVG files that can be lazily uploaded to the contract."
					},
					"svgHashOf(uint256)": {
						"notice": "The Naked Banny and outfit SVG hash files."
					},
					"tokenUriOf(address,uint256)": {
						"notice": "Returns the SVG showing a dressed Naked Banny in a world."
					}
				},
				"version": 1
			},
			"gitCommit": "d476cfd0d0dcf44379af14922ff764965fe14a2a",
			"sourceName": "src/Banny721TokenUriResolver.sol",
			"chainId": "11155420",
			"linkReferences": {},
			"deployedLinkReferences": {}
		}
	]
}