{
	"_format": "sphinx-sol-ct-artifact-1",
	"merkleRoot": "0x1c8258c4c9837264631b39ed741dd4bdaf6e8d677de93c0d04dd6b2f48615786",
	"contractName": "Banny721TokenUriResolver",
	"address": "0x0AE642d4851098B05BFb90D6f9052e6623DEA160",
	"abi": [
		{
			"type": "constructor",
			"inputs": [
				{
					"name": "owner",
					"type": "address",
					"internalType": "address"
				},
				{
					"name": "trustedForwarder",
					"type": "address",
					"internalType": "address"
				},
				{
					"name": "nakedBanny",
					"type": "string",
					"internalType": "string"
				},
				{
					"name": "defaultNecklace",
					"type": "string",
					"internalType": "string"
				},
				{
					"name": "defaultMouth",
					"type": "string",
					"internalType": "string"
				},
				{
					"name": "defaultStandardEyes",
					"type": "string",
					"internalType": "string"
				},
				{
					"name": "defaultAlienEyes",
					"type": "string",
					"internalType": "string"
				}
			],
			"stateMutability": "nonpayable"
		},
		{
			"type": "function",
			"name": "assetIdsOf",
			"inputs": [
				{
					"name": "hook",
					"type": "address",
					"internalType": "address"
				},
				{
					"name": "nakedBannyId",
					"type": "uint256",
					"internalType": "uint256"
				}
			],
			"outputs": [
				{
					"name": "worldId",
					"type": "uint256",
					"internalType": "uint256"
				},
				{
					"name": "outfitIds",
					"type": "uint256[]",
					"internalType": "uint256[]"
				}
			],
			"stateMutability": "view"
		},
		{
			"type": "function",
			"name": "decorateBannyWith",
			"inputs": [
				{
					"name": "hook",
					"type": "address",
					"internalType": "address"
				},
				{
					"name": "nakedBannyId",
					"type": "uint256",
					"internalType": "uint256"
				},
				{
					"name": "worldId",
					"type": "uint256",
					"internalType": "uint256"
				},
				{
					"name": "outfitIds",
					"type": "uint256[]",
					"internalType": "uint256[]"
				}
			],
			"outputs": [],
			"stateMutability": "nonpayable"
		},
		{
			"type": "function",
			"name": "isTrustedForwarder",
			"inputs": [
				{
					"name": "forwarder",
					"type": "address",
					"internalType": "address"
				}
			],
			"outputs": [
				{
					"name": "",
					"type": "bool",
					"internalType": "bool"
				}
			],
			"stateMutability": "view"
		},
		{
			"type": "function",
			"name": "lockOutfitChangesFor",
			"inputs": [
				{
					"name": "hook",
					"type": "address",
					"internalType": "address"
				},
				{
					"name": "nakedBannyId",
					"type": "uint256",
					"internalType": "uint256"
				},
				{
					"name": "duration",
					"type": "uint256",
					"internalType": "uint256"
				}
			],
			"outputs": [],
			"stateMutability": "nonpayable"
		},
		{
			"type": "function",
			"name": "namesOf",
			"inputs": [
				{
					"name": "hook",
					"type": "address",
					"internalType": "address"
				},
				{
					"name": "tokenId",
					"type": "uint256",
					"internalType": "uint256"
				}
			],
			"outputs": [
				{
					"name": "",
					"type": "string",
					"internalType": "string"
				},
				{
					"name": "",
					"type": "string",
					"internalType": "string"
				},
				{
					"name": "",
					"type": "string",
					"internalType": "string"
				}
			],
			"stateMutability": "view"
		},
		{
			"type": "function",
			"name": "onERC721Received",
			"inputs": [
				{
					"name": "operator",
					"type": "address",
					"internalType": "address"
				},
				{
					"name": "",
					"type": "address",
					"internalType": "address"
				},
				{
					"name": "tokenId",
					"type": "uint256",
					"internalType": "uint256"
				},
				{
					"name": "",
					"type": "bytes",
					"internalType": "bytes"
				}
			],
			"outputs": [
				{
					"name": "",
					"type": "bytes4",
					"internalType": "bytes4"
				}
			],
			"stateMutability": "view"
		},
		{
			"type": "function",
			"name": "outfitLockedUntil",
			"inputs": [
				{
					"name": "hook",
					"type": "address",
					"internalType": "address"
				},
				{
					"name": "owner",
					"type": "address",
					"internalType": "address"
				},
				{
					"name": "upc",
					"type": "uint256",
					"internalType": "uint256"
				}
			],
			"outputs": [
				{
					"name": "",
					"type": "uint256",
					"internalType": "uint256"
				}
			],
			"stateMutability": "view"
		},
		{
			"type": "function",
			"name": "owner",
			"inputs": [],
			"outputs": [
				{
					"name": "",
					"type": "address",
					"internalType": "address"
				}
			],
			"stateMutability": "view"
		},
		{
			"type": "function",
			"name": "renounceOwnership",
			"inputs": [],
			"outputs": [],
			"stateMutability": "nonpayable"
		},
		{
			"type": "function",
			"name": "setProductNames",
			"inputs": [
				{
					"name": "upcs",
					"type": "uint256[]",
					"internalType": "uint256[]"
				},
				{
					"name": "names",
					"type": "string[]",
					"internalType": "string[]"
				}
			],
			"outputs": [],
			"stateMutability": "nonpayable"
		},
		{
			"type": "function",
			"name": "setSvgBaseUri",
			"inputs": [
				{
					"name": "baseUri",
					"type": "string",
					"internalType": "string"
				}
			],
			"outputs": [],
			"stateMutability": "nonpayable"
		},
		{
			"type": "function",
			"name": "setSvgContentsOf",
			"inputs": [
				{
					"name": "upcs",
					"type": "uint256[]",
					"internalType": "uint256[]"
				},
				{
					"name": "svgContents",
					"type": "string[]",
					"internalType": "string[]"
				}
			],
			"outputs": [],
			"stateMutability": "nonpayable"
		},
		{
			"type": "function",
			"name": "setSvgHashsOf",
			"inputs": [
				{
					"name": "upcs",
					"type": "uint256[]",
					"internalType": "uint256[]"
				},
				{
					"name": "svgHashs",
					"type": "bytes32[]",
					"internalType": "bytes32[]"
				}
			],
			"outputs": [],
			"stateMutability": "nonpayable"
		},
		{
			"type": "function",
			"name": "svgBaseUri",
			"inputs": [],
			"outputs": [
				{
					"name": "",
					"type": "string",
					"internalType": "string"
				}
			],
			"stateMutability": "view"
		},
		{
			"type": "function",
			"name": "svgHashOf",
			"inputs": [
				{
					"name": "upc",
					"type": "uint256",
					"internalType": "uint256"
				}
			],
			"outputs": [
				{
					"name": "",
					"type": "bytes32",
					"internalType": "bytes32"
				}
			],
			"stateMutability": "view"
		},
		{
			"type": "function",
			"name": "svgOf",
			"inputs": [
				{
					"name": "hook",
					"type": "address",
					"internalType": "address"
				},
				{
					"name": "tokenId",
					"type": "uint256",
					"internalType": "uint256"
				},
				{
					"name": "shouldDressNakedBanny",
					"type": "bool",
					"internalType": "bool"
				},
				{
					"name": "shouldIncludeWorldOnNakedBanny",
					"type": "bool",
					"internalType": "bool"
				}
			],
			"outputs": [
				{
					"name": "",
					"type": "string",
					"internalType": "string"
				}
			],
			"stateMutability": "view"
		},
		{
			"type": "function",
			"name": "tokenUriOf",
			"inputs": [
				{
					"name": "hook",
					"type": "address",
					"internalType": "address"
				},
				{
					"name": "tokenId",
					"type": "uint256",
					"internalType": "uint256"
				}
			],
			"outputs": [
				{
					"name": "",
					"type": "string",
					"internalType": "string"
				}
			],
			"stateMutability": "view"
		},
		{
			"type": "function",
			"name": "transferOwnership",
			"inputs": [
				{
					"name": "newOwner",
					"type": "address",
					"internalType": "address"
				}
			],
			"outputs": [],
			"stateMutability": "nonpayable"
		},
		{
			"type": "function",
			"name": "trustedForwarder",
			"inputs": [],
			"outputs": [
				{
					"name": "",
					"type": "address",
					"internalType": "address"
				}
			],
			"stateMutability": "view"
		},
		{
			"type": "function",
			"name": "userOf",
			"inputs": [
				{
					"name": "hook",
					"type": "address",
					"internalType": "address"
				},
				{
					"name": "worldId",
					"type": "uint256",
					"internalType": "uint256"
				}
			],
			"outputs": [
				{
					"name": "",
					"type": "uint256",
					"internalType": "uint256"
				}
			],
			"stateMutability": "view"
		},
		{
			"type": "function",
			"name": "wearerOf",
			"inputs": [
				{
					"name": "hook",
					"type": "address",
					"internalType": "address"
				},
				{
					"name": "outfitId",
					"type": "uint256",
					"internalType": "uint256"
				}
			],
			"outputs": [
				{
					"name": "",
					"type": "uint256",
					"internalType": "uint256"
				}
			],
			"stateMutability": "view"
		},
		{
			"type": "event",
			"name": "DecorateBanny",
			"inputs": [
				{
					"name": "hook",
					"type": "address",
					"indexed": true,
					"internalType": "address"
				},
				{
					"name": "nakedBannyId",
					"type": "uint256",
					"indexed": true,
					"internalType": "uint256"
				},
				{
					"name": "worldId",
					"type": "uint256",
					"indexed": false,
					"internalType": "uint256"
				},
				{
					"name": "outfitIds",
					"type": "uint256[]",
					"indexed": false,
					"internalType": "uint256[]"
				},
				{
					"name": "caller",
					"type": "address",
					"indexed": false,
					"internalType": "address"
				}
			],
			"anonymous": false
		},
		{
			"type": "event",
			"name": "OwnershipTransferred",
			"inputs": [
				{
					"name": "previousOwner",
					"type": "address",
					"indexed": true,
					"internalType": "address"
				},
				{
					"name": "newOwner",
					"type": "address",
					"indexed": true,
					"internalType": "address"
				}
			],
			"anonymous": false
		},
		{
			"type": "event",
			"name": "SetProductName",
			"inputs": [
				{
					"name": "upc",
					"type": "uint256",
					"indexed": true,
					"internalType": "uint256"
				},
				{
					"name": "name",
					"type": "string",
					"indexed": false,
					"internalType": "string"
				},
				{
					"name": "caller",
					"type": "address",
					"indexed": false,
					"internalType": "address"
				}
			],
			"anonymous": false
		},
		{
			"type": "event",
			"name": "SetSvgBaseUri",
			"inputs": [
				{
					"name": "baseUri",
					"type": "string",
					"indexed": false,
					"internalType": "string"
				},
				{
					"name": "caller",
					"type": "address",
					"indexed": false,
					"internalType": "address"
				}
			],
			"anonymous": false
		},
		{
			"type": "event",
			"name": "SetSvgContent",
			"inputs": [
				{
					"name": "upc",
					"type": "uint256",
					"indexed": true,
					"internalType": "uint256"
				},
				{
					"name": "svgContent",
					"type": "string",
					"indexed": false,
					"internalType": "string"
				},
				{
					"name": "caller",
					"type": "address",
					"indexed": false,
					"internalType": "address"
				}
			],
			"anonymous": false
		},
		{
			"type": "event",
			"name": "SetSvgHash",
			"inputs": [
				{
					"name": "upc",
					"type": "uint256",
					"indexed": true,
					"internalType": "uint256"
				},
				{
					"name": "svgHash",
					"type": "bytes32",
					"indexed": true,
					"internalType": "bytes32"
				},
				{
					"name": "caller",
					"type": "address",
					"indexed": false,
					"internalType": "address"
				}
			],
			"anonymous": false
		},
		{
			"type": "error",
			"name": "CANT_ACCELERATE_THE_LOCK",
			"inputs": []
		},
		{
			"type": "error",
			"name": "CONTENTS_ALREADY_STORED",
			"inputs": []
		},
		{
			"type": "error",
			"name": "CONTENTS_MISMATCH",
			"inputs": []
		},
		{
			"type": "error",
			"name": "HASH_ALREADY_STORED",
			"inputs": []
		},
		{
			"type": "error",
			"name": "HASH_NOT_FOUND",
			"inputs": []
		},
		{
			"type": "error",
			"name": "HEAD_ALREADY_ADDED",
			"inputs": []
		},
		{
			"type": "error",
			"name": "LOCKED_NAKED_BANNY",
			"inputs": []
		},
		{
			"type": "error",
			"name": "OUTFIT_CHANGES_LOCKED",
			"inputs": []
		},
		{
			"type": "error",
			"name": "OUTFIT_IS_ALREADY_BEING_WORN",
			"inputs": []
		},
		{
			"type": "error",
			"name": "OwnableInvalidOwner",
			"inputs": [
				{
					"name": "owner",
					"type": "address",
					"internalType": "address"
				}
			]
		},
		{
			"type": "error",
			"name": "OwnableUnauthorizedAccount",
			"inputs": [
				{
					"name": "account",
					"type": "address",
					"internalType": "address"
				}
			]
		},
		{
			"type": "error",
			"name": "SUIT_ALREADY_ADDED",
			"inputs": []
		},
		{
			"type": "error",
			"name": "UNAUTHORIZED_NAKED_BANNY",
			"inputs": []
		},
		{
			"type": "error",
			"name": "UNAUTHORIZED_OUTFIT",
			"inputs": []
		},
		{
			"type": "error",
			"name": "UNAUTHORIZED_WORLD",
			"inputs": []
		},
		{
			"type": "error",
			"name": "UNORDERED_CATEGORIES",
			"inputs": []
		},
		{
			"type": "error",
			"name": "UNRECOGNIZED_CATEGORY",
			"inputs": []
		},
		{
			"type": "error",
			"name": "UNRECOGNIZED_OUTFIT",
			"inputs": []
		},
		{
			"type": "error",
			"name": "UNRECOGNIZED_PRODUCT",
			"inputs": []
		},
		{
			"type": "error",
			"name": "UNRECOGNIZED_WORLD",
			"inputs": []
		},
		{
			"type": "error",
			"name": "WORLD_IS_ALREADY_BEING_USED",
			"inputs": []
		}
	],
	"solcInputHash": "0ab36af9c9ec0eba3351040bdd1cd6db",
	"args": [
		"0x140CA7b7f3DE72278FedE4F0d3226F257b0eaf6a",
		"0xB2b5841DBeF766d4b521221732F9B618fCf34A87",
		"<g class=\"a1\"><path d=\"M173 53h4v17h-4z\"/></g><g class=\"a2\"><path d=\"M167 57h3v10h-3z\"/><path d=\"M169 53h4v17h-4z\"/></g><g class=\"a3\"><path d=\"M167 53h3v4h-3z\"/><path d=\"M163 57h4v10h-4z\"/><path d=\"M167 67h3v3h-3z\"/></g><g class=\"b1\"><path d=\"M213 253h-3v-3-3h-3v-7-3h-4v-10h-3v-7-7-3h-3v-73h-4v-10h-3v-10h-3v-7h-4v-7h-3v-3h-3v-3h-4v10h4v10h3v10h3v3h4v7 3 70 3h3v7h3v20h4v7h3v3h3v3h4v4h3v3h3v-3-4z\"/><path d=\"M253 307v-4h-3v-3h-3v-3h-4v-4h-3v-3h-3v-3h-4v-4h-3v-3h-3v-3h-4v-4h-3v-6h-3v-7h-4v17h4v3h3v3h3 4v4h3v3h3v3h4v4h3v3h3v3h4v4h3v3h3v3h4v-6h-4z\"/></g><g class=\"b2\"><path d=\"M250 310v-3h-3v-4h-4v-3h-3v-3h-3v-4h-4v-3h-3v-3h-3v-4h-7v-3h-3v-3h-4v-17h-3v-3h-3v-4h-4v-3h-3v-3h-3v-7h-4v-20h-3v-7h-3v-73-3-7h-4v-3h-3v-10h-3v-10h-4V70h-3v-3l-3 100 3-100v40h-3v10h-4v6h-3v14h-3v3 13h-4v44h4v16h3v14h3v13h4v10h3v7h3v3h4v3h3v4h3v3h4v3h3v4h3v3h4v3h3v7h7v7h6v3h7v3h7v4h13v3h3v3h10v-3h-3zm-103-87v-16h3v-10h-3v6h-4v17h-3v10h3v-7h4z\"/><path d=\"M143 230h4v7h-4zm4 10h3v3h-3zm3 7h3v3h-3zm3 6h4v4h-4z\"/><path d=\"M163 257h-6v3h3v3h3v4h4v-4-3h-4v-3z\"/></g><g class=\"b3\"><path d=\"M143 197v6h4v-6h6v-44h4v-16h3v-14h3v-6h4v-10h3V97h-7v6h-3v4h-3v3h-4v3h-3v4 3h-3v3 4h-4v10h-3v16 4h-3v46h3v-6h3z\"/><path d=\"M140 203h3v17h-3z\"/><path d=\"M137 220h3v10h-3z\"/><path d=\"M153 250h-3v-7h-3v-6h-4v-7h-3v10h3v7h4v6h3v4h3v-7zm-3 10h3v7h-3z\"/><path d=\"M147 257h3v3h-3zm6 0h4v3h-4z\"/><path d=\"M160 263v-3h-3v3 7h6v-7h-3zm-10-56v16h-3v7h3v10h3v7h4v6h6v4h7v-4-3h-3v-10h-4v-13h-3v-14h-3v-16h-4v10h-3z\"/><path d=\"M243 313v-3h-3v-3h-10-3v-4h-7v-3h-7v-3h-6v-7h-7v-7h-3v-3h-4v-3h-3v-4h-3v-3h-4v-3h-3v-4h-3v-3h-4v-3h-3v10h-3v3h-4v3h-3v7h3v7h4v6h3v5h4v3h6v3h3v3h4 3v3h3 4v3h3 3v4h10v3h7 7 3v3h10 3v-3h10v-3h4v-4h-14z\"/></g><g class=\"b4\"><path d=\"M183 130h4v7h-4z\"/><path d=\"M180 127h3v3h-3zm-27-4h4v7h-4z\"/><path d=\"M157 117h3v6h-3z\"/><path d=\"M160 110h3v7h-3z\"/><path d=\"M163 107h4v3h-4zm-3 83h3v7h-3z\"/><path d=\"M163 187h4v3h-4zm20 0h7v3h-7z\"/><path d=\"M180 190h3v3h-3zm10-7h3v4h-3z\"/><path d=\"M193 187h4v6h-4zm-20 53h4v7h-4z\"/><path d=\"M177 247h3v6h-3z\"/><path d=\"M180 253h3v7h-3z\"/><path d=\"M183 260h7v3h-7z\"/><path d=\"M190 263h3v4h-3zm0-20h3v4h-3z\"/><path d=\"M187 240h3v3h-3z\"/><path d=\"M190 237h3v3h-3zm13 23h4v3h-4z\"/><path d=\"M207 263h3v7h-3z\"/><path d=\"M210 270h3v3h-3zm-10 7h3v6h-3z\"/><path d=\"M203 283h4v7h-4z\"/><path d=\"M207 290h6v3h-6z\"/></g><g class=\"o\"><path d=\"M133 157h4v50h-4zm0 63h4v10h-4zm27-163h3v10h-3z\"/><path d=\"M163 53h4v4h-4z\"/><path d=\"M167 50h10v3h-10z\"/><path d=\"M177 53h3v17h-3z\"/><path d=\"M173 70h4v27h-4zm-6 0h3v27h-3z\"/><path d=\"M163 67h4v3h-4zm0 30h4v3h-4z\"/><path d=\"M160 100h3v3h-3z\"/><path d=\"M157 103h3v4h-3z\"/><path d=\"M153 107h4v3h-4z\"/><path d=\"M150 110h3v3h-3z\"/><path d=\"M147 113h3v7h-3z\"/><path d=\"M143 120h4v7h-4z\"/><path d=\"M140 127h3v10h-3z\"/><path d=\"M137 137h3v20h-3zm56-10h4v10h-4z\"/><path d=\"M190 117h3v10h-3z\"/><path d=\"M187 110h3v7h-3z\"/><path d=\"M183 103h4v7h-4z\"/><path d=\"M180 100h3v3h-3z\"/><path d=\"M177 97h3v3h-3zm-40 106h3v17h-3zm0 27h3v10h-3zm10 30h3v7h-3z\"/><path d=\"M150 257v-4h-3v-6h-4v-7h-3v10h3v10h4v-3h3z\"/><path d=\"M150 257h3v3h-3z\"/><path d=\"M163 273v-3h-6v-10h-4v7h-3v3h3v3h4v7h3v-7h3z\"/><path d=\"M163 267h4v3h-4z\"/><path d=\"M170 257h-3-4v3h4v7h3v-10z\"/><path d=\"M157 253h6v4h-6z\"/><path d=\"M153 247h4v6h-4z\"/><path d=\"M150 240h3v7h-3z\"/><path d=\"M147 230h3v10h-3zm13 50h3v7h-3z\"/><path d=\"M143 223h4v7h-4z\"/><path d=\"M147 207h3v16h-3z\"/><path d=\"M150 197h3v10h-3zm-10 0h3v6h-3zm50 113h7v3h-7zm23 10h17v3h-17z\"/><path d=\"M230 323h13v4h-13z\"/><path d=\"M243 320h10v3h-10z\"/><path d=\"M253 317h4v3h-4z\"/><path d=\"M257 307h3v10h-3z\"/><path d=\"M253 303h4v4h-4z\"/><path d=\"M250 300h3v3h-3z\"/><path d=\"M247 297h3v3h-3z\"/><path d=\"M243 293h4v4h-4z\"/><path d=\"M240 290h3v3h-3z\"/><path d=\"M237 287h3v3h-3z\"/><path d=\"M233 283h4v4h-4z\"/><path d=\"M230 280h3v3h-3z\"/><path d=\"M227 277h3v3h-3z\"/><path d=\"M223 273h4v4h-4z\"/><path d=\"M220 267h3v6h-3z\"/><path d=\"M217 260h3v7h-3z\"/><path d=\"M213 253h4v7h-4z\"/><path d=\"M210 247h3v6h-3z\"/><path d=\"M207 237h3v10h-3z\"/><path d=\"M203 227h4v10h-4zm-40 60h4v6h-4zm24 20h3v3h-3z\"/><path d=\"M167 293h3v5h-3zm16 14h4v3h-4z\"/><path d=\"M170 298h4v3h-4zm10 6h3v3h-3z\"/><path d=\"M174 301h6v3h-6zm23 12h6v4h-6z\"/><path d=\"M203 317h10v3h-10zm-2-107v-73h-4v73h3v17h3v-17h-2z\"/></g><g class=\"o\"><path d=\"M187 307v-4h3v-6h-3v-4h-4v-3h-3v-3h-7v-4h-6v4h-4v3h4v27h-4v13h-3v10h-4v7h4v3h3 10 14v-3h-4v-4h-3v-3h-3v-3h-4v-7h4v-10h3v-7h3v-3h7v-3h-3zm16 10v-4h-6v17h-4v10h-3v7h3v3h4 6 4 3 14v-3h-4v-4h-7v-3h-3v-3h-3v-10h3v-7h3v-3h-10z\"/></g>",
		"<g class=\"o\"><path d=\"M190 173h-37v-3h-10v-4h-6v4h3v3h-3v4h6v3h10v4h37v-4h3v-3h-3v-4zm-40 4h-3v-4h3v4zm7 3v-3h3v3h-3zm6 0v-3h4v3h-4zm7 0v-3h3v3h-3zm7 0v-3h3v3h-3zm10 0h-4v-3h4v3z\"/><path d=\"M190 170h3v3h-3z\"/><path d=\"M193 166h4v4h-4zm0 7h4v4h-4z\"/></g><g class=\"w\"><path d=\"M137 170h3v3h-3zm10 3h3v4h-3zm10 4h3v3h-3zm6 0h4v3h-4zm7 0h3v3h-3zm7 0h3v3h-3zm6 0h4v3h-4zm7-4h3v4h-3z\"/><path d=\"M193 170h4v3h-4z\"/></g>",
		"<g class=\"o\"><path d=\"M183 160v-4h-20v4h-3v3h3v4h24v-7h-4zm-13 3v-3h10v3h-10z\" fill=\"#ad71c8\"/><path d=\"M170 160h10v3h-10z\"/></g>",
		"<g class=\"o\"><path d=\"M177 140v3h6v11h10v-11h4v-3h-20z\"/><path d=\"M153 140v3h7v8 3h7 3v-11h3v-3h-20z\"/></g><g class=\"w\"><path d=\"M153 143h7v4h-7z\"/><path d=\"M157 147h3v3h-3zm20-4h6v4h-6z\"/><path d=\"M180 147h3v3h-3z\"/></g>",
		"<g class=\"o\"><path d=\"M190 127h3v3h-3zm3 13h4v3h-4zm-42 0h6v6h-6z\"/><path d=\"M151 133h3v7h-3zm10 0h6v4h-6z\"/><path d=\"M157 137h17v6h-17zm3 13h14v3h-14zm17-13h7v16h-7z\"/><path d=\"M184 137h6v6h-6zm0 10h10v6h-10z\"/><path d=\"M187 143h10v4h-10z\"/><path d=\"M190 140h3v3h-3zm-6-10h3v7h-3z\"/><path d=\"M187 130h6v3h-6zm-36 0h10v3h-10zm16 13h7v7h-7zm-10 0h7v7h-7z\"/><path d=\"M164 147h3v3h-3zm29-20h4v6h-4z\"/><path d=\"M194 133h3v7h-3z\"/></g><g class=\"w\"><path d=\"M154 133h7v4h-7z\"/><path d=\"M154 137h3v3h-3zm10 6h3v4h-3zm20 0h3v4h-3zm3-10h7v4h-7z\"/><path d=\"M190 137h4v3h-4z\"/></g>"
	],
	"bytecode": "0x60a060405234620007b1576200657d803803806200001d81620007b6565b92833981019060e081830312620007b1576200003981620007f2565b60209162000049838201620007f2565b60408201516001600160401b03939190848111620007b157866200006f91850162000807565b906060840151858111620007b157876200008b91860162000807565b926080850151868111620007b15788620000a791870162000807565b9460a0810151878111620007b15789620000c391830162000807565b9860c0820151888111620007b157620000dd920162000807565b916001600160a01b0391821680156200079857600080546001600160a01b03198116831782559093167f8be0079c531659141344cd1fd0a4f28419497f9722a3daafe3b4186f6b6457e08480a3608052825193868511620004ef576001948554948686811c961680156200078d575b8a871014620005c5578190601f968781116200073a575b508a90878311600114620006d5578592620006c9575b5050600019600383901b1c191690861b1785555b805190878211620006b5576002548681811c91168015620006aa575b8a821014620005c55790818684931162000656575b508990868311600114620005f0578492620005e4575b5050600019600383901b1c191690851b176002555b8451868111620004ef5760039586548681811c91168015620005d9575b8a821014620005c55790818684931162000572575b5089908683116001146200050f57849262000503575b505060001982881b1c191690851b1785555b8751868111620004ef5760049889548681811c91168015620004e4575b8a821014620004d1579081868493116200047e575b5089908683116001146200041b5784926200040f575b505060001982881b1c191690851b1788555b8151958611620003fc576005978854908582811c92168015620003f1575b89831014620003de575083811162000398575b50869286116001146200032c57949550859291908362000320575b50501b92600019911b1c19161790555b604051615d0390816200087a8239608051818181610a5501528181610c4c0152615a1a0152f35b015193503880620002e9565b87815286812093969394938691601f198316915b898383106200037d575050501062000362575b50505050811b019055620002f9565b01519060f884600019921b161c191690553880808062000353565b85870151895590970196948501948893509081019062000340565b888252878220848089018b1c8201928a8a10620003d4575b018a1c019085905b828110620003c8575050620002ce565b838155018590620003b8565b92508192620003b0565b634e487b7160e01b835260229052602482fd5b91607f1691620002bb565b634e487b7160e01b815260418852602490fd5b0151905038806200028b565b8b85528a85208894509190601f198416865b8d8282106200046757505084116200044e575b505050811b0188556200029d565b0151600019838a1b60f8161c1916905538808062000440565b8385015186558b979095019493840193016200042d565b9091508a84528984208680850160051c8201928c8610620004c7575b918991869594930160051c01915b828110620004b857505062000275565b868155859450899101620004a8565b925081926200049a565b634e487b7160e01b845260228b52602484fd5b90607f169062000260565b634e487b7160e01b82526041600452602482fd5b01519050388062000231565b8885528a85208894509190601f198416865b8d8282106200055b575050841162000542575b505050811b01855562000243565b0151600019838a1b60f8161c1916905538808062000534565b8385015186558b9790950194938401930162000521565b9091508784528984208680850160051c8201928c8610620005bb575b918991869594930160051c01915b828110620005ac5750506200021b565b8681558594508991016200059c565b925081926200058e565b634e487b7160e01b84526022600452602484fd5b90607f169062000206565b015190503880620001d4565b600285528a85208894509190601f198416865b8d8282106200063f575050841162000625575b505050811b01600255620001e9565b015160001960f88460031b161c1916905538808062000616565b8385015186558b9790950194938401930162000603565b909150600284528984208680850160051c8201928c8610620006a0575b918991869594930160051c01915b82811062000691575050620001be565b86815585945089910162000681565b9250819262000673565b90607f1690620001a9565b634e487b7160e01b83526041600452602483fd5b01519050388062000179565b8886528b86208994509190601f198416878e5b82821062000722575050841162000708575b505050811b0185556200018d565b015160001960f88460031b161c19169055388080620006fa565b8385015186558c979095019493840193018e620006e8565b9091508785528a85208780850160051c8201928d861062000783575b918a91869594930160051c01915b8281106200077457505062000163565b8781558594508a910162000764565b9250819262000756565b95607f16956200014c565b604051631e4fbdf760e01b815260006004820152602490fd5b600080fd5b6040519190601f01601f191682016001600160401b03811183821017620007dc57604052565b634e487b7160e01b600052604160045260246000fd5b51906001600160a01b0382168203620007b157565b919080601f84011215620007b15782516001600160401b038111620007dc576020906200083d601f8201601f19168301620007b6565b92818452828287010111620007b15760005b8181106200086557508260009394955001015290565b85810183015184820184015282016200084f56fe6080604052600436101561001257600080fd5b60003560e01c806257bfdd14610166578063150b7a021461016157806318ab522d1461015c57806331a290ac146101575780634650d87314610152578063572b6c051461014d5780635e703e71146101485780636aff31dd14610143578063715018a61461013e57806379a2696e146101395780637da0a87714610134578063875e4bea1461012f5780638da5cb5b1461012a578063a0122c0914610125578063a22d0dd514610120578063b03a3eab1461011b578063b1fa9e7b14610116578063c06e7bc714610111578063d756227e1461010c578063da4fb434146101075763f2fde38b1461010257600080fd5b6114d8565b611395565b6112a7565b6110ce565b611085565b610fc1565b610f5e565b610eab565b610e59565b610c70565b610c01565b610bb0565b610b10565b610ac6565b610a7c565b6109fb565b61094f565b61075b565b610603565b610554565b6104b1565b90600182811c921680156101b4575b602083101461018557565b7f4e487b7100000000000000000000000000000000000000000000000000000000600052602260045260246000fd5b91607f169161017a565b7f4e487b7100000000000000000000000000000000000000000000000000000000600052604160045260246000fd5b6101a0810190811067ffffffffffffffff82111761020a57604052565b6101be565b6020810190811067ffffffffffffffff82111761020a57604052565b6040810190811067ffffffffffffffff82111761020a57604052565b6060810190811067ffffffffffffffff82111761020a57604052565b90601f7fffffffffffffffffffffffffffffffffffffffffffffffffffffffffffffffe0910116810190811067ffffffffffffffff82111761020a57604052565b60405190600082600754916102b88361016b565b8083529260209060019081811690811561034657506001146102e5575b50506102e392500383610263565b565b91509260076000527fa66cc928b5edb82af9bd49922954155ab7b0942694bea4ce44661d9a8736c688936000925b82841061032e57506102e394505050810160200138806102d5565b85548885018301529485019487945092810192610313565b9050602093506102e39592507fffffffffffffffffffffffffffffffffffffffffffffffffffffffffffffff0091501682840152151560051b82010138806102d5565b9060405191826000825461039c8161016b565b9081845260209460019160018116908160001461040a57506001146103cb575b5050506102e392500383610263565b600090815285812095935091905b8183106103f25750506102e393508201013880806103bc565b855488840185015294850194879450918301916103d9565b9150506102e39593507fffffffffffffffffffffffffffffffffffffffffffffffffffffffffffffff0091501682840152151560051b8201013880806103bc565b60005b83811061045e5750506000910152565b818101518382015260200161044e565b907fffffffffffffffffffffffffffffffffffffffffffffffffffffffffffffffe0601f6020936104aa8151809281875287808801910161044b565b0116010190565b346105035760007ffffffffffffffffffffffffffffffffffffffffffffffffffffffffffffffffc360112610503576104ff6104eb6102a4565b60405191829160208352602083019061046e565b0390f35b600080fd5b73ffffffffffffffffffffffffffffffffffffffff81160361050357565b9181601f840112156105035782359167ffffffffffffffff8311610503576020838186019501011161050357565b346105035760807ffffffffffffffffffffffffffffffffffffffffffffffffffffffffffffffffc3601126105035760043561058f81610508565b61059a602435610508565b60643567ffffffffffffffff8111610503576105ba903690600401610526565b505073ffffffffffffffffffffffffffffffffffffffff309116036105035760206040517f150b7a02000000000000000000000000000000000000000000000000000000008152f35b346105035760407ffffffffffffffffffffffffffffffffffffffffffffffffffffffffffffffffc3601126105035761064a60043561064181610508565b6024359061170f565b906040519182916040830190835260209060406020850152825180915260206060850193019160005b82811061068257505050500390f35b835185528695509381019392810192600101610673565b604051906102e3826101ed565b67ffffffffffffffff811161020a5760051b60200190565b92916106c9826106a6565b916106d76040519384610263565b829481845260208094019160051b810192831161050357905b8282106106fd5750505050565b813581529083019083016106f0565b9080601f8301121561050357816020610727933591016106be565b90565b9181601f840112156105035782359167ffffffffffffffff8311610503576020808501948460051b01011161050357565b34610503576040807ffffffffffffffffffffffffffffffffffffffffffffffffffffffffffffffffc3601126105035760049067ffffffffffffffff8235818111610503576107ad903690850161070c565b90602435908111610503576107c5903690850161072a565b92909180519360005b8581106107d757005b6107e1818461169f565b516107f76107f08385896117f1565b3691611270565b61081361080e83600052600a602052604060002090565b611851565b6109275761082b826000526006602052604060002090565b5480156108ff578651602081019061087381610847848761185b565b037fffffffffffffffffffffffffffffffffffffffffffffffffffffffffffffffe08101835282610263565b519020036108d757907faeb631726b45aa3f6b09da79f7af03a9784614901f61a967ed84d63c37b7edc76108ce836108c1600196956108bc86600052600a602052604060002090565b611924565b8851918291339083611a53565b0390a2016107ce565b8886517f75b5da0b000000000000000000000000000000000000000000000000000000008152fd5b8987517f7ef41a4f000000000000000000000000000000000000000000000000000000008152fd5b8886517f0e2019dc000000000000000000000000000000000000000000000000000000008152fd5b346105035760607ffffffffffffffffffffffffffffffffffffffffffffffffffffffffffffffffc360112610503576109e260043561098d81610508565b73ffffffffffffffffffffffffffffffffffffffff602435916109af83610508565b16600052600860205260406000209073ffffffffffffffffffffffffffffffffffffffff16600052602052604060002090565b6044356000526020526020604060002054604051908152f35b346105035760207ffffffffffffffffffffffffffffffffffffffffffffffffffffffffffffffffc360112610503576020600435610a3881610508565b73ffffffffffffffffffffffffffffffffffffffff9060405191807f0000000000000000000000000000000000000000000000000000000000000000169116148152f35b346105035760407ffffffffffffffffffffffffffffffffffffffffffffffffffffffffffffffffc360112610503576104ff6104eb600435610abd81610508565b60243590611f00565b346105035760207ffffffffffffffffffffffffffffffffffffffffffffffffffffffffffffffffc3601126105035760043560005260066020526020604060002054604051908152f35b34610503576000807ffffffffffffffffffffffffffffffffffffffffffffffffffffffffffffffffc360112610bad57610b4861486e565b8073ffffffffffffffffffffffffffffffffffffffff81547fffffffffffffffffffffffff000000000000000000000000000000000000000081168355167f8be0079c531659141344cd1fd0a4f28419497f9722a3daafe3b4186f6b6457e08280a380f35b80fd5b346105035760407ffffffffffffffffffffffffffffffffffffffffffffffffffffffffffffffffc360112610503576020610bf9600435610bf081610508565b60243590612774565b604051908152f35b346105035760007ffffffffffffffffffffffffffffffffffffffffffffffffffffffffffffffffc36011261050357602060405173ffffffffffffffffffffffffffffffffffffffff7f0000000000000000000000000000000000000000000000000000000000000000168152f35b34610503576020807ffffffffffffffffffffffffffffffffffffffffffffffffffffffffffffffffc3601126105035767ffffffffffffffff60043581811161050357610cc1903690600401610526565b9091610ccb61486e565b811161020a57610ce581610ce060075461016b565b611889565b600092601f8211600114610d795750610d5481807f512c3c91736f50c57a0548c1d01ab02f24c420f002b8b20e2bfe63df9693cd3f95600091610d6e575b507fffffffffffffffffffffffffffffffffffffffffffffffffffffffffffffffff8260011b9260031b1c19161790565b6007555b610d696040519283923391846127e0565b0390a1005b905084013538610d23565b60076000527fffffffffffffffffffffffffffffffffffffffffffffffffffffffffffffffe08216937fa66cc928b5edb82af9bd49922954155ab7b0942694bea4ce44661d9a8736c6889181905b868210610e41575050827f512c3c91736f50c57a0548c1d01ab02f24c420f002b8b20e2bfe63df9693cd3f9510610e09575b5050600181811b01600755610d58565b7fffffffffffffffffffffffffffffffffffffffffffffffffffffffffffffffff60f88460031b161c19908401351690553880610df9565b80600184958294958901358155019401920190610dc7565b346105035760007ffffffffffffffffffffffffffffffffffffffffffffffffffffffffffffffffc36011261050357602073ffffffffffffffffffffffffffffffffffffffff60005416604051908152f35b346105035760407ffffffffffffffffffffffffffffffffffffffffffffffffffffffffffffffffc36011261050357610f38600435610ee981610508565b6104ff610ef96024358093613424565b91610f46610f23610f1d62ffffff610100610f148887613fe7565b97015116614594565b9261421d565b9160405195869560608752606087019061046e565b90858203602087015261046e565b90838203604085015261046e565b8015150361050357565b346105035760807ffffffffffffffffffffffffffffffffffffffffffffffffffffffffffffffffc360112610503576104ff6104eb600435610f9f81610508565b604435610fab81610f54565b60643591610fb883610f54565b60243590612dba565b346105035760407ffffffffffffffffffffffffffffffffffffffffffffffffffffffffffffffffc3601126105035767ffffffffffffffff6004358181116105035761101190369060040161070c565b906024359081116105035736602382011215610503578060040135611035816106a6565b916110436040519384610263565b8183526020916024602085019160051b8301019136831161050357602401905b828210611076576110748587612ecc565b005b81358152908301908301611063565b346105035760407ffffffffffffffffffffffffffffffffffffffffffffffffffffffffffffffffc360112610503576020610bf96004356110c581610508565b60243590612f88565b346105035760807ffffffffffffffffffffffffffffffffffffffffffffffffffffffffffffffffc3601126105035760043561110981610508565b602435906044359060643567ffffffffffffffff81116105035761113190369060040161072a565b93909261113e8284614c35565b73ffffffffffffffffffffffffffffffffffffffff938461115d615a03565b16956000968752600860205261119685604089209073ffffffffffffffffffffffffffffffffffffffff16600052602052604060002090565b8488526020526040872054421061120c576111fc6112039385611209987f6a68946ba06488db8585d7c7637fa954b574035fe15720ea760125ef860172586111f26111df615a03565b926040519182918d1694898b8985613039565b0390a38587614c91565b36916106be565b91614f05565b80f35b60046040517fbd22d7e4000000000000000000000000000000000000000000000000000000008152fd5b67ffffffffffffffff811161020a57601f017fffffffffffffffffffffffffffffffffffffffffffffffffffffffffffffffe01660200190565b92919261127c82611236565b9161128a6040519384610263565b829481845281830111610503578281602093846000960137010152565b346105035760407ffffffffffffffffffffffffffffffffffffffffffffffffffffffffffffffffc3601126105035767ffffffffffffffff600435818111610503576112f790369060040161070c565b60249060243583811161050357366023820112156105035780600401359261131e846106a6565b9361132c6040519586610263565b8085526020956024602087019260051b850101933685116105035760248101925b85841061135e5761107488886130a3565b83358381116105035782013660438201121561050357899161138a8392369060448a8201359101611270565b81520193019261134d565b346105035760607ffffffffffffffffffffffffffffffffffffffffffffffffffffffffffffffffc360112610503576004356113d081610508565b602435906113de8282614c35565b73ffffffffffffffffffffffffffffffffffffffff90816113fd615a03565b16926000938452600860205261143682604086209073ffffffffffffffffffffffffffffffffffffffff16600052602052604060002090565b8185526020526040842054926044354201938442116114d35784106114a9576114a59261149691611465615a03565b1686526008602052604086209073ffffffffffffffffffffffffffffffffffffffff16600052602052604060002090565b90600052602052604060002090565b5580f35b60046040517f27938a89000000000000000000000000000000000000000000000000000000008152fd5b6116b3565b346105035760207ffffffffffffffffffffffffffffffffffffffffffffffffffffffffffffffffc3601126105035760043561151381610508565b61151b61486e565b73ffffffffffffffffffffffffffffffffffffffff809116801561158d576000918254827fffffffffffffffffffffffff00000000000000000000000000000000000000008216178455167f8be0079c531659141344cd1fd0a4f28419497f9722a3daafe3b4186f6b6457e08380a380f35b60246040517f1e4fbdf700000000000000000000000000000000000000000000000000000000815260006004820152fd5b90604051918281549182825260209260208301916000526020600020936000905b8282106115f5575050506102e392500383610263565b8554845260019586019588955093810193909101906115df565b90611619826106a6565b6116266040519182610263565b8281527fffffffffffffffffffffffffffffffffffffffffffffffffffffffffffffffe061165482946106a6565b0190602036910137565b7f4e487b7100000000000000000000000000000000000000000000000000000000600052603260045260246000fd5b80511561169a5760200190565b61165e565b805182101561169a5760209160051b010190565b7f4e487b7100000000000000000000000000000000000000000000000000000000600052601160045260246000fd5b7fffffffffffffffffffffffffffffffffffffffffffffffffffffffffffffffff81146114d35760010190565b9160009260009273ffffffffffffffffffffffffffffffffffffffff82168452600b6020526040842081855260205261174a604085206115be565b9384516117568161160f565b958290835b8381106117b1575050505060406117a5916117968573ffffffffffffffffffffffffffffffffffffffff16600052600c602052604060002090565b84825260205220548093612774565b146117ad5750565b9250565b806117be6001928461169f565b51876117ca828b612f88565b146117d7575b500161175b565b6117ea6117e3866116e2565b958c61169f565b52386117d0565b919081101561169a5760051b810135907fffffffffffffffffffffffffffffffffffffffffffffffffffffffffffffffe18136030182121561050357019081359167ffffffffffffffff8311610503576020018236038113610503579190565b610727905461016b565b9061186e6020928281519485920161044b565b0190565b81811061187d575050565b60008155600101611872565b90601f8211611896575050565b6102e39160076000527fa66cc928b5edb82af9bd49922954155ab7b0942694bea4ce44661d9a8736c688906020601f840160051c830193106118e0575b601f0160051c0190611872565b90915081906118d3565b9190601f81116118f957505050565b6102e3926000526020600020906020601f840160051c830193106118e057601f0160051c0190611872565b919091825167ffffffffffffffff811161020a5761194c81611946845461016b565b846118ea565b602080601f83116001146119ac5750819061199d9394956000926119a1575b50507fffffffffffffffffffffffffffffffffffffffffffffffffffffffffffffffff8260011b9260031b1c19161790565b9055565b01519050388061196b565b907fffffffffffffffffffffffffffffffffffffffffffffffffffffffffffffffe08316956119e085600052602060002090565b926000905b888210611a3b57505083600195969710611a04575b505050811b019055565b01517fffffffffffffffffffffffffffffffffffffffffffffffffffffffffffffffff60f88460031b161c191690553880806119fa565b806001859682949686015181550195019301906119e5565b9073ffffffffffffffffffffffffffffffffffffffff611a8060209295949560408552604085019061046e565b9416910152565b60405190611a948261020f565b60008252565b60405190611aa78261022b565b600e82527f226f7574666974496473223a205b0000000000000000000000000000000000006020830152565b60216102e3919392936040519481611af587935180926020808701910161044b565b8201611b0a825180936020808501910161044b565b017f2c000000000000000000000000000000000000000000000000000000000000006020820152036001810185520183610263565b906102e3602260405184611b5d82965180926020808601910161044b565b81017f5d2c0000000000000000000000000000000000000000000000000000000000006020820152036002810185520183610263565b602c6102e3919392936040519481611bb587935180926020808701910161044b565b82017f22776f726c644964223a200000000000000000000000000000000000000000006020820152611bf1825180936020602b8501910161044b565b017f2c00000000000000000000000000000000000000000000000000000000000000602b82015203600c810185520183610263565b603b6102e3919392936040519481611c4887935180926020808701910161044b565b82017f226465636f726174696f6e734c6f636b6564556e74696c223a200000000000006020820152611c84825180936020603a8501910161044b565b017f2c00000000000000000000000000000000000000000000000000000000000000603a82015203601b810185520183610263565b90604051918260605160005b818110611cfa57509060206102e393611cee82948401918383016000815281519485920161044b565b01038085520183610263565b6020919250806080015182828801015201908491611cc5565b60206102e3919392936040519481611d34879351809286808701910161044b565b8201611cee8251809386808501910161044b565b906102e3603760405180947f22776f726e42794e616b656442616e6e794964223a20000000000000000000006020830152611d8d81518092602060368601910161044b565b81017f2c000000000000000000000000000000000000000000000000000000000000006036820152036017810185520183610263565b906102e3603760405180947f227573656442794e616b656442616e6e794964223a20000000000000000000006020830152611d8d81518092602060368601910161044b565b81601f82011215610503578051611e1e81611236565b92611e2c6040519485610263565b8184526020828401011161050357610727916020808501910161044b565b9060208282031261050357815167ffffffffffffffff8111610503576107279201611e08565b6040513d6000823e3d90fd5b90816020910312610503575190565b90816060910312610503578051916040602083015192015161072781610508565b906102e3603d60405180947f646174613a6170706c69636174696f6e2f6a736f6e3b6261736536342c0000006020830152611ef0815180926020868601910161044b565b810103601d810185520183610263565b90611f0b8183613424565b9063ffffffff611f1f835163ffffffff1690565b161561276957611f2d611a87565b5061010082019062ffffff80611f46845162ffffff1690565b161561265757611f6f611f69611f60865163ffffffff1690565b63ffffffff1690565b86613787565b92835161261b575b600182611f87835162ffffff1690565b160361260057611fa7611fa2611f9d8589612774565b613583565b611dc3565b915b8451156124825750606073ffffffffffffffffffffffffffffffffffffffff9495966004604051809781937f08786b1a000000000000000000000000000000000000000000000000000000008352165afa93841561247d57600090600095612448575b506120178785613fe7565b9487516120279063ffffffff1690565b63ffffffff166120369061421d565b9783516120459062ffffff1690565b62ffffff1661205390614594565b9561205d90613583565b93815161206d9063ffffffff1690565b63ffffffff1661207c90613583565b905161208c9062ffffff16613583565b60608301516120a09063ffffffff16613583565b9160408401516120b39063ffffffff1690565b63ffffffff166120c290613583565b602094909401516120e1906cffffffffffffffffffffffffff16613583565b946120eb90613583565b956120f590613583565b96604051809c602082016121089161185b565b039b7fffffffffffffffffffffffffffffffffffffffffffffffffffffffffffffffe09c8d8101825261213b9082610263565b61214490614714565b6040517f7b226e616d65223a22000000000000000000000000000000000000000000000060208201529d8e9c919b9160298e016121809161185b565b7f222c202270726f647563744e616d65223a20220000000000000000000000000081526013016121af9161185b565b7f222c202263617465676f72794e616d65223a202200000000000000000000000081526014016121de9161185b565b7f222c2022746f6b656e4964223a200000000000000000000000000000000000008152600e0161220d9161185b565b7f2c2022757063223a200000000000000000000000000000000000000000000000815260090161223c9161185b565b7f2c202263617465676f7279223a200000000000000000000000000000000000008152600e0161226b9161185b565b7f2c2022737570706c79223a2000000000000000000000000000000000000000008152600c0161229a9161185b565b7f2c202272656d61696e696e67223a2000000000000000000000000000000000008152600f016122c99161185b565b7f2c20227072696365223a200000000000000000000000000000000000000000008152600b016122f89161185b565b7f2c2022646563696d616c73223a200000000000000000000000000000000000008152600e016123279161185b565b7f2c202263757272656e6379223a200000000000000000000000000000000000008152600e016123569161185b565b7f2c2000000000000000000000000000000000000000000000000000000000000081526002016123859161185b565b7f226465736372697074696f6e223a2241207069656365206f662074686520426181527f6e6e797665727365222c22696d616765223a22646174613a696d6167652f737660208201527f672b786d6c3b6261736536342c000000000000000000000000000000000000006040820152604d016124009161185b565b7f227d00000000000000000000000000000000000000000000000000000000000081526002010390810182526124369082610263565b61243f90614714565b61072790611eac565b905061246d91945060603d606011612476575b6124658183610263565b810190611e8b565b5093903861200c565b503d61245b565b611e70565b92959450600d935061249891505162ffffff1690565b1611156125ec576040517f6c0360eb00000000000000000000000000000000000000000000000000000000815260008160048173ffffffffffffffffffffffffffffffffffffffff86165afa92831561247d5761257b936020926000916125c9575b50925b61252261250982613ba3565b73ffffffffffffffffffffffffffffffffffffffff1690565b906040518096819482937fc8df1710000000000000000000000000000000000000000000000000000000008452600484016020909392919373ffffffffffffffffffffffffffffffffffffffff60408201951681520152565b03915afa90811561247d5761072792600092612598575b50613bfc565b6125bb91925060203d6020116125c2575b6125b38183610263565b810190611e7c565b9038612592565b503d6125a9565b6125e691503d806000833e6125de8183610263565b810190611e4a565b386124fa565b602061257b926125fa6102a4565b926124fd565b612615612610611f9d8589612f88565b611d48565b91611fa9565b9261263b90600183612630875162ffffff1690565b160361264157613a90565b92611f77565b6126529061264d6138e8565b611d13565b613a90565b6126618286612c86565b9261266c838761170f565b8093919351612679611a9a565b906000925b81841061273e5750506126919150611b3f565b9280612723575b506126f984611496896126d46126ae84836136f2565b73ffffffffffffffffffffffffffffffffffffffff166000526008602052604060002090565b9073ffffffffffffffffffffffffffffffffffffffff16600052602052604060002090565b54428111612708575b50611fa9565b9261271661271c9294613583565b90611c26565b9138612702565b926127316127379294613583565b90611b93565b9138612698565b909161275f600191612759612753878661169f565b51613583565b90611ad3565b930192919061267e565b505050610727611a87565b73ffffffffffffffffffffffffffffffffffffffff16600090808252600d6020526040822083835260205260408220549283159182156127be575b50506127b9575090565b905090565b9091508252600c602052604082208383526020526040822054141538806127af565b9160607fffffffffffffffffffffffffffffffffffffffffffffffffffffffffffffffe0601f8373ffffffffffffffffffffffffffffffffffffffff94602096999899604089528160408a015285890137600084828901015201168401019416910152565b90600091600190600154916128598361016b565b92600181169081156128c3575060011461287257505050565b909192935060016000527fb10e2d527612073b26eecdfd717e6a320cf44b4afac2b0732d9fcbe2b7fa0cf6906000915b8483106128b0575050500190565b81816020925485870152019201916128a2565b7fffffffffffffffffffffffffffffffffffffffffffffffffffffffffffffff001683525050811515909102019150565b90604051918260209161290f8151809285808601910161044b565b60045460009183016129208261016b565b916001908181169081156129c9575060011461296b575b5050506102e39250037fffffffffffffffffffffffffffffffffffffffffffffffffffffffffffffffe08101845283610263565b94925060046000527f8a35acfbc15ff81a39ae7d344fd709f28e8600b4aa8c65c6b64bfe7fe36bd19b946000905b8382106129b15750506102e394500101388080612937565b86548284018601529586019588955090840190612999565b90506102e39694507fffffffffffffffffffffffffffffffffffffffffffffffffffffffffffffff0091509291921683830152801515020101388080612937565b906040519182602091612a258151809285808601910161044b565b6005546000918301612a368261016b565b916001908181169081156129c95750600114612a80575050506102e39250037fffffffffffffffffffffffffffffffffffffffffffffffffffffffffffffffe08101845283610263565b94925060056000527f036b6384b5eca791c62761152d0c79bb0604c104a5fb6f4eb0703f3154bb3db0946000905b838210612ac65750506102e394500101388080612937565b86548284018601529586019588955090840190612aae565b906040519182602091612af98151809285808601910161044b565b6002546000918301612b0a8261016b565b916001908181169081156129c95750600114612b54575050506102e39250037fffffffffffffffffffffffffffffffffffffffffffffffffffffffffffffffe08101845283610263565b94925060026000527f405787fa12a823e0f2b7631cc41b3ba8828b3321ca811111fa75cd3aa3bb5ace946000905b838210612b9a5750506102e394500101388080612937565b86548284018601529586019588955090840190612b82565b906040519182602091612bcd8151809285808601910161044b565b6003546000918301612bde8261016b565b916001908181169081156129c95750600114612c28575050506102e39250037fffffffffffffffffffffffffffffffffffffffffffffffffffffffffffffffe08101845283610263565b94925060036000527fc2575a0e9e593c00f959f8c92f12db2869c3395a3b0502d05e2516446f71f85b946000905b838210612c6e5750506102e394500101388080612937565b86548284018601529586019588955090840190612c56565b612c908282613424565b9163ffffffff80612ca5855163ffffffff1690565b1615612dae5760609162ffffff612cc361010087015162ffffff1690565b16612d7957936001612d339392612d1e612d13612ce3610727998961170f565b969080151580612d72575b612d58575b50612d0d612d08611f60885163ffffffff1690565b6148d4565b90611d13565b935163ffffffff1690565b1603612d4f57612d2d90612a0a565b92614aca565b8051612d40575b50613a90565b612d4991611d13565b38612d3a565b612d2d906128f4565b612d6c9150612d67908a613787565b611cb9565b38612cf3565b5085612cee565b505050612d90611f60612d96935163ffffffff1690565b90613787565b8051612da55750610727611a87565b61072790613a90565b50505050610727611a87565b9092612dc68483613424565b9363ffffffff9081612ddc875163ffffffff1690565b1615612ebe5760609062ffffff612dfa61010089015162ffffff1690565b16612ea45791612e3c612d13600193612e176107279a968961170f565b978115159081612e9c575b50612e8d5750612d0d612d08611f60885163ffffffff1690565b1603612e7e57612e4b90612a0a565b925b612e59575b5050613a90565b612e6291614aca565b8051612e6f575b80612e52565b612e7891611d13565b38612e69565b612e87906128f4565b92612e4d565b612d6c9150612d679089613787565b905038612e22565b505050509050612d90611f60612d96935163ffffffff1690565b505050505050610727611a87565b90612ed561486e565b81519060009260005b838110612eec575050505050565b612ef6818361169f565b51612f01828561169f565b5190808752602060068152604080892054612f5f5782917fb10eb6fc7557a7109693cb8f3fac48d44328de56c0368ee4cac539b424d2cad99185612f5360019897966000526006602052604060002090565b5551338152a301612ede565b600490517fcf7b506c000000000000000000000000000000000000000000000000000000008152fd5b9060009173ffffffffffffffffffffffffffffffffffffffff81168352600e60205260408320828452602052604083205490811561303357612fea9073ffffffffffffffffffffffffffffffffffffffff16600052600b602052604060002090565b818452602052612ffc604084206115be565b91825192845b84811061301157505050505090565b8261301c828461169f565b511461302a57600101613002565b50505091505090565b50505090565b9291909493948352606060208401528160608401527f07ffffffffffffffffffffffffffffffffffffffffffffffffffffffffffffff821161050357608073ffffffffffffffffffffffffffffffffffffffff9160409360051b8091838701378401019416910152565b6130ab61486e565b80519060005b8281106130be5750505050565b6130c8818361169f565b516130d3828661169f565b5181600052602060098152604090816000209083519067ffffffffffffffff821161020a5761310c82613106855461016b565b856118ea565b80601f83116001146131a557509261319192613182836001999897947f9dedd219289ed514faff576c477c66bd097aef59a236e3b8ebcf0d0070cb4e969760009161319a57507fffffffffffffffffffffffffffffffffffffffffffffffffffffffffffffffff8260011b9260031b1c19161790565b90555b51918291339083611a53565b0390a2016130b1565b905085015138610d23565b907fffffffffffffffffffffffffffffffffffffffffffffffffffffffffffffffe083166131d885600052602060002090565b926000905b828210613260575050927f9dedd219289ed514faff576c477c66bd097aef59a236e3b8ebcf0d0070cb4e96959261319195928260019b9a999610613229575b5050881b88019055613185565b8501517fffffffffffffffffffffffffffffffffffffffffffffffffffffffffffffffff60f88460031b161c19169055388061321c565b80600185968294968c015181550195019301906131dd565b90600282018092116114d357565b90602082018092116114d357565b90600182018092116114d357565b919082018092116114d357565b519063ffffffff8216820361050357565b51906cffffffffffffffffffffffffff8216820361050357565b519061ffff8216820361050357565b51906102e382610508565b519062ffffff8216820361050357565b51906102e382610f54565b60208183031261050357805167ffffffffffffffff9182821161050357016101a08184031261050357613340610699565b9261334a826132af565b8452613358602083016132c0565b6020850152613369604083016132af565b604085015261337a606083016132af565b606085015261338b608083016132c0565b608085015261339c60a083016132da565b60a08501526133ad60c083016132e9565b60c085015260e082015160e08501526101006133ca8184016132f4565b908501526101206133dc818401613304565b908501526101406133ee818401613304565b90850152610160613400818401613304565b9085015261018092838301519081116105035761341d9201611e08565b9082015290565b604051610180926134f492613438836101ed565b6060600095848780965285602082015285604082015285838201528560808201528560a08201528560c08201528560e082015285610100820152856101208201528561014082015285610160820152015261349561250982613ba3565b906040518095819482937fc44a8e6d00000000000000000000000000000000000000000000000000000000845260048401604090600092949373ffffffffffffffffffffffffffffffffffffffff606083019616825260208201520152565b03915afa91821561247d57809261350a57505090565b61072792503d8091833e61351e8183610263565b81019061330f565b6040516135328161020f565b60008152906000368137565b9061354882611236565b6135556040519182610263565b8281527fffffffffffffffffffffffffffffffffffffffffffffffffffffffffffffffe06116548294611236565b806000917a184f03e93ff9f4daa797ed6e38ed64bf6a1f010000000000000000808210156136e4575b506d04ee2d6d415b85acef8100000000808310156136d5575b50662386f26fc10000808310156136c6575b506305f5e100808310156136b7575b50612710808310156136a8575b506064821015613698575b600a8092101561368e575b60019081602161361b6001870161353e565b95860101905b61362d575b5050505090565b7fffffffffffffffffffffffffffffffffffffffffffffffffffffffffffffffff849101917f30313233343536373839616263646566000000000000000000000000000000008282061a83530491821561368957919082613621565b613626565b9160010191613609565b91906064600291049101916135fe565b600491939204910191386135f3565b600891939204910191386135e6565b601091939204910191386135d7565b602091939204910191386135c5565b6040935081049150386135ac565b602090602473ffffffffffffffffffffffffffffffffffffffff9360405194859384927f6352211e0000000000000000000000000000000000000000000000000000000084526004840152165afa90811561247d57600091613752575090565b90506020813d60201161377f575b8161376d60209383610263565b81010312610503575161072781610508565b3d9150613760565b9080600052602091600a83526137a06040600020610389565b80516138e15750613825918173ffffffffffffffffffffffffffffffffffffffff6137cb8694613ba3565b16906040518095819482937fbd51923c000000000000000000000000000000000000000000000000000000008452600484016020909392919373ffffffffffffffffffffffffffffffffffffffff60408201951681520152565b03915afa801561247d5761388e92613853604992610727946000916138c4575b5061384e6102a4565b613bfc565b60405194827f3c696d61676520687265663d220000000000000000000000000000000000000087948501528251928391602d8601910161044b565b81017f222077696474683d2234303022206865696768743d22343030222f3e00000000602d820152036029810184520182610263565b6138db9150833d85116125c2576125b38183610263565b38613845565b9250505090565b60446107276040516108476008613a6760208401937f7b66696c6c3a6e6f6e653b7d00000000000000000000000000000000000000008552600c815261392d8161022b565b6003613a3d81613a136040519a8b997f3c7374796c653e2e6f7b66696c6c3a233830383038303b7d2e6232000000000060208c0152603b6139748c8951928391018461044b565b8b017f2e62330000000000000000000000000000000000000000000000000000000000603b8201528751906139ad82603e83018561044b565b017f2e62340000000000000000000000000000000000000000000000000000000000603e8201526139e588518093604184019061044b565b017f2e613100000000000000000000000000000000000000000000000000000000006041820152018561185b565b7f2e613200000000000000000000000000000000000000000000000000000000008152018361185b565b7f2e613300000000000000000000000000000000000000000000000000000000008152019061185b565b7f3c2f7374796c653e000000000000000000000000000000000000000000000000815201612845565b906102e360ba60405180947f3c7376672077696474683d2234303022206865696768743d223430302220766960208301527f6577426f783d223020302034303020343030222066696c6c3d226e6f6e65222060408301527f786d6c6e733d22687474703a2f2f7777772e77332e6f72672f323030302f737660608301527f67223e3c7374796c653e2e6f7b66696c6c3a233035303530353b7d2e777b666960808301527f6c6c3a236639663966393b7d3c2f7374796c653e00000000000000000000000060a0830152613b6d81518092602060b48601910161044b565b81017f3c2f7376673e000000000000000000000000000000000000000000000000000060b482015203609a810185520183610263565b602073ffffffffffffffffffffffffffffffffffffffff916004604051809481937f507f1465000000000000000000000000000000000000000000000000000000008352165afa90811561247d57600091613752575090565b9061072790613c466040516020927f122000000000000000000000000000000000000000000000000000000000000084830152602282015260228152613c4181610247565b6153ad565b926040519381613c5f869351809286808701910161044b565b8201613c738251809386808501910161044b565b01038084520182610263565b906102e3602160405184613c9d82965180926020808601910161044b565b81017f20000000000000000000000000000000000000000000000000000000000000006020820152036001810185520183610263565b60405190613ce08261022b565b600a82527f2072656d61696e696e67000000000000000000000000000000000000000000006020830152565b906102e3929493602192613d91604051978894602093613d348151809287808b01910161044b565b8601613d488251809387808501910161044b565b017f2f0000000000000000000000000000000000000000000000000000000000000084820152613d8082518093868a8501910161044b565b01918351938491878501910161044b565b01036001810185520183610263565b906102e3929493602d92613e3b604051978894602093613dc88151809287808b01910161044b565b86017f2028534f4c44204f55542920000000000000000000000000000000000000000085820152613e028251809387602c8501910161044b565b017f2f00000000000000000000000000000000000000000000000000000000000000602c820152613d8082518093868a8501910161044b565b0103600d810185520183610263565b6102e391613d919493602192604051968793602092613e718151809286808a01910161044b565b8501613e858251809386808501910161044b565b01917f2f00000000000000000000000000000000000000000000000000000000000000818401528351938491878501910161044b565b906102e3602360405184613ed982965180926020808601910161044b565b81017f203a2000000000000000000000000000000000000000000000000000000000006020820152036003810185520183610263565b60216102e3919392936040519481613f3187935180926020808701910161044b565b8201613f46825180936020808501910161044b565b017f20000000000000000000000000000000000000000000000000000000000000006020820152036001810185520183610263565b60256102e3919392936040519481613f9d87935180926020808701910161044b565b82017f55504320230000000000000000000000000000000000000000000000000000006020820152613fd8825180936020878501910161044b565b01036005810185520183610263565b9061405561072792633b9aca0061401561401061400b611f60875163ffffffff1690565b61421d565b613c7f565b910661401f613cd3565b81156140b957509061403361405092613583565b61404a611f9d611f60606088015163ffffffff1690565b91613e4a565b613ebb565b9061407a61407561406d61010084015162ffffff1690565b62ffffff1690565b614594565b805161409c575b50611f9d611f60614096925163ffffffff1690565b90613f7b565b611f606140b0611f9d926140969495613f0f565b93925050614081565b9050604084019163ffffffff6140d3845163ffffffff1690565b168061410e57506140f1611f9d611f60614050955163ffffffff1690565b614108611f9d611f60606089015163ffffffff1690565b91613da0565b614050935061411c90613583565b614133611f9d611f60606089015163ffffffff1690565b91613d0c565b604051906141468261022b565b600882527f4f726967696e616c0000000000000000000000000000000000000000000000006020830152565b6040519061417f8261022b565b600682527f4f72616e676500000000000000000000000000000000000000000000000000006020830152565b604051906141b88261022b565b600482527f50696e6b000000000000000000000000000000000000000000000000000000006020830152565b604051906141f18261022b565b600582527f416c69656e0000000000000000000000000000000000000000000000000000006020830152565b6001810361422e57506107276141e4565b6002810361423f57506107276141ab565b600381036142505750610727614172565b600481036142615750610727614139565b60005260096020526107276040600020610389565b604051906142838261022b565b600782527f546f7070696e67000000000000000000000000000000000000000000000000006020830152565b604051906142bc8261022b565b600482527f46697374000000000000000000000000000000000000000000000000000000006020830152565b604051906142f58261022b565b600b82527f5375697420626f74746f6d0000000000000000000000000000000000000000006020830152565b6040519061432e8261022b565b600882527f5375697420746f700000000000000000000000000000000000000000000000006020830152565b604051906143678261022b565b600482527f53756974000000000000000000000000000000000000000000000000000000006020830152565b604051906143a08261022b565b600482527f48656164000000000000000000000000000000000000000000000000000000006020830152565b604051906143d98261022b565b600882527f4865616420746f700000000000000000000000000000000000000000000000006020830152565b604051906144128261022b565b600582527f4d6f7574680000000000000000000000000000000000000000000000000000006020830152565b6040519061444b8261022b565b600782527f476c6173736573000000000000000000000000000000000000000000000000006020830152565b604051906144848261022b565b600882527f4e65636b6c6163650000000000000000000000000000000000000000000000006020830152565b604051906144bd8261022b565b600482527f4c656773000000000000000000000000000000000000000000000000000000006020830152565b604051906144f68261022b565b600882527f4261636b736964650000000000000000000000000000000000000000000000006020830152565b6040519061452f8261022b565b600582527f576f726c640000000000000000000000000000000000000000000000000000006020830152565b604051906145688261022b565b600b82527f4e616b65642042616e6e790000000000000000000000000000000000000000006020830152565b806145a2575061072761455b565b600181036145b35750610727614522565b600281036145c457506107276144e9565b600781036145d557506107276144b0565b600381036145e65750610727614477565b600581036145f7575061072761443e565b600681036146085750610727614405565b600b810361461957506107276143cc565b6004810361462a5750610727614393565b6008810361463b575061072761435a565b600a810361464c5750610727614321565b6009810361465d57506107276142e8565b600c810361466e57506107276142af565b600d1461467d57610727611a87565b610727614276565b6040519061469282610247565b604082527f6768696a6b6c6d6e6f707172737475767778797a303132333435363738392b2f6040837f4142434445464748494a4b4c4d4e4f505152535455565758595a61626364656660208201520152565b908160021b917f3fffffffffffffffffffffffffffffffffffffffffffffffffffffffffffffff8116036114d357565b80511561486557614723614685565b61473f61473a6147338451613278565b6003900490565b6146e4565b9161475161474c84613286565b61353e565b92835280815182019060208501935b828210614813575050506003905106806001146147ca57600214614782575090565b7fffffffffffffffffffffffffffffffffffffffffffffffffffffffffffffffff7f3d0000000000000000000000000000000000000000000000000000000000000091015290565b507ffffffffffffffffffffffffffffffffffffffffffffffffffffffffffffffffe7f3d3d00000000000000000000000000000000000000000000000000000000000091015290565b9091936004906003809401938451600190603f9082828260121c16880101518553828282600c1c16880101518386015382828260061c1688010151600286015316850101519082015301939190614760565b50610727611a87565b73ffffffffffffffffffffffffffffffffffffffff806000541681614891615a03565b160361489a5750565b6024906148a5615a03565b6040517f118cdaa700000000000000000000000000000000000000000000000000000000815291166004820152fd5b6148dd906158bf565b93604096959693919351968796602088017f3c7374796c653e2e62317b66696c6c3a2300000000000000000000000000000090528051908160318a0191602001916149279261044b565b8701603181017f3b7d2e62327b66696c6c3a230000000000000000000000000000000000000000905281519182603d830191602001916149669261044b565b01603d81017f3b7d2e62337b66696c6c3a2300000000000000000000000000000000000000009052815191826049830191602001916149a49261044b565b01604981016149d2907f3b7d2e62347b66696c6c3a2300000000000000000000000000000000000000009052565b6055016149de9161185b565b7f3b7d2e61317b66696c6c3a2300000000000000000000000000000000000000008152600c01614a0d9161185b565b7f3b7d2e61327b66696c6c3a2300000000000000000000000000000000000000008152600c01614a3c9161185b565b7f3b7d2e61337b66696c6c3a2300000000000000000000000000000000000000008152600c01614a6b9161185b565b7f3b7d3c2f7374796c653e000000000000000000000000000000000000000000008152600a01614a9a90612845565b037fffffffffffffffffffffffffffffffffffffffffffffffffffffffffffffffe0810182526107279082610263565b919091606092805191600092839084938791614ae581613294565b965b878110614af8575050505050505050565b81811015614c2a57614b0a818461169f565b51614b2861406d610100614b1e848b613424565b015162ffffff1690565b945b600386811497908815614bfb57505050600195614b478289613787565b985b6006878103614bc7575050600a6001965b1180614bbd575b614ba3575b8115159081614b9a575b50614b82575b50600101959295614ae7565b6001919a612d0d614b939289613787565b9990614b76565b90501538614b70565b97614bae919b611d13565b99614bb7611a87565b97614b66565b5088511515614b61565b8791971180614bf3575b614bde575b600a90614b5a565b95509a614bea90612bb2565b9a600195614bd6565b508615614bd1565b879a9198929a1180614c22575b15614b495796509a614c1990612ade565b9a600196614b49565b508715614c08565b600e93600090614b2a565b90614c3f916136f2565b73ffffffffffffffffffffffffffffffffffffffff80614c5d615a03565b16911603614c6757565b60046040517f2add3f4b000000000000000000000000000000000000000000000000000000008152fd5b9190614cc1816114968573ffffffffffffffffffffffffffffffffffffffff16600052600c602052604060002090565b5491828103614cd1575b50505050565b8015614e4e57614cdf615a03565b614cec61250983876136f2565b73ffffffffffffffffffffffffffffffffffffffff80921614159081614e23575b50614df95763ffffffff614d2e614d248387613424565b5163ffffffff1690565b1615614dcf578181614d67614da7946114968873ffffffffffffffffffffffffffffffffffffffff16600052600c602052604060002090565b55614d96826114968773ffffffffffffffffffffffffffffffffffffffff16600052600d602052604060002090565b55614d9f615a03565b309085615a87565b80614db4575b8080614ccb565b614dc891614dc0615a03565b903090615a87565b3880614dad565b60046040517f265ba879000000000000000000000000000000000000000000000000000000008152fd5b60046040517f9d17cec7000000000000000000000000000000000000000000000000000000008152fd5b9050614e2d615a03565b90614e44612509614e3e8589612774565b886136f2565b9116141538614d0d565b50614e7f6000916114968573ffffffffffffffffffffffffffffffffffffffff16600052600c602052604060002090565b55614da7565b81519167ffffffffffffffff831161020a5768010000000000000000831161020a578154838355808410614ee7575b5060208091019160005260206000209060005b848110614ed5575050505050565b83518382015592810192600101614ec7565b614eff90836000528460206000209182019101611872565b38614eb4565b919290600091829483614f44614f3f856114968973ffffffffffffffffffffffffffffffffffffffff16600052600b602052604060002090565b6115be565b928351958095819482908a8a615346575b5091969798999a9592938495915b83518710156152bb57614f76878561169f565b51978d89614f82615a03565b614f8f61250983856136f2565b73ffffffffffffffffffffffffffffffffffffffff8092161415928361528c575b50505061526257614fcb61406d8f614b1e8c61010092613424565b96600288108015615258575b61522e578815159081615223575b506151f957600487810361510e57505060019490939192935b8681111580615105575b1561508d57509081888e9695949303615074575b506150268b6116e2565b8c819c106000146150675761503a906116e2565b9a615045908b61169f565b51948561505191613424565b610100015162ffffff16905b9192939490614ffe565b9a5060009450849061505d565b61508790615080615a03565b3088615a87565b3861501c565b92958d600192999e9d9c9b9a9598969e808b036150bb575b5050940195919b96939490929798999a9b614f63565b81876150ee836114966150fe9673ffffffffffffffffffffffffffffffffffffffff16600052600e602052604060002090565b556150f7615a03565b3091615a87565b8c386150a5565b50801515615008565b909493600888036151285750506001929192939490614ffe565b9291909d9c9b9a999897969594936005871480156151ef575b80156151e5575b806151de575b1561517c578e6040517f3caa16de000000000000000000000000000000000000000000000000000000008152fd5b909192939495969798999a9b9c9d600a881480156151d4575b806151cd575b6151a5575061505d565b6040517f5e701b2b000000000000000000000000000000000000000000000000000000008152fd5b508461519b565b5060098814615195565b508461514e565b50600b8714615148565b5060068714615141565b60046040517ffb81d04a000000000000000000000000000000000000000000000000000000008152fd5b905087111538614fe5565b60046040517fc89badbd000000000000000000000000000000000000000000000000000000008152fd5b50600d8811614fd7565b60046040517f812a6989000000000000000000000000000000000000000000000000000000008152fd5b6152af91929350612509906152a96152a2615a03565b9582612f88565b906136f2565b91161415898f80614fb0565b509a9796989550509792508091505b61530957505050506102e392916114966153049273ffffffffffffffffffffffffffffffffffffffff16600052600b602052604060002090565b614e85565b61531c90615315615a03565b3087615a87565b80615326836116e2565b92101561533e57615337828461169f565b51806152ca565b6000806152ca565b9650905061536761406d610100614b1e61535f8b61168d565b51809a613424565b908a614f55565b604051906105e0820182811067ffffffffffffffff82111761020a57604052602e82526105c0366020840137565b90815181101561169a570160200190565b908151156154ec576153bd61536e565b9160009060006153cc8561168d565b526001918151916000925b8084106153fd57505050506153f36153f8916107279394615b12565b615b55565b615bba565b9091929461544661544061543a615414898761539c565b517fff000000000000000000000000000000000000000000000000000000000000001690565b60f81c90565b60ff1690565b9184925b60ff90898289168610156154ab576001929161547f6154796154406154728a6154859661169f565b5160ff1690565b60081b90565b906132a2565b6154a28b61549a88603a95868606169261169f565b9060ff169052565b0493019261544a565b50919594935050809691965b6154c55750600101926153d7565b9460ff6001603a926154e283858b061661549a8d8685169061169f565b01169504806154b7565b9050610727613526565b604051906155038261022b565b600682527f66666539303000000000000000000000000000000000000000000000000000006020830152565b6040519061553c8261022b565b600682527f66666337303000000000000000000000000000000000000000000000000000006020830152565b604051906155758261022b565b600682527f66336136303300000000000000000000000000000000000000000000000000006020830152565b604051906155ae8261022b565b600682527f39363561316100000000000000000000000000000000000000000000000000006020830152565b604051906155e78261022b565b600682527f66663763303200000000000000000000000000000000000000000000000000006020830152565b604051906156208261022b565b600682527f66643336303000000000000000000000000000000000000000000000000000006020830152565b604051906156598261022b565b600682527f63333265306400000000000000000000000000000000000000000000000000006020830152565b604051906156928261022b565b600682527f66666438633500000000000000000000000000000000000000000000000000006020830152565b604051906156cb8261022b565b600682527f66663936613900000000000000000000000000000000000000000000000000006020830152565b604051906157048261022b565b600682527f66653538386200000000000000000000000000000000000000000000000000006020830152565b6040519061573d8261022b565b600682527f63393266343500000000000000000000000000000000000000000000000000006020830152565b604051906157768261022b565b600682527f36376437353700000000000000000000000000000000000000000000000000006020830152565b604051906157af8261022b565b600682527f33306132323000000000000000000000000000000000000000000000000000006020830152565b604051906157e88261022b565b600682527f32313761313500000000000000000000000000000000000000000000000000006020830152565b604051906158218261022b565b600482527f6e6f6e65000000000000000000000000000000000000000000000000000000006020830152565b6040519061585a8261022b565b600682527f65343833656600000000000000000000000000000000000000000000000000006020830152565b604051906158938261022b565b600682527f64633266656600000000000000000000000000000000000000000000000000006020830152565b6001810361590657506158d0615769565b906158d96157a2565b906158e26157db565b906158eb615814565b906158f461584d565b906158fd615886565b90610727615886565b6002810361594d5750615917615685565b906159206156be565b906159296156f7565b90615932615730565b9061593b615685565b906159446156be565b906107276156f7565b60038103615994575061595e615568565b906159676155da565b90615970615613565b9061597961564c565b90615982615568565b9061598b6155da565b90610727615613565b6004146159c55760046040517fee72de6c000000000000000000000000000000000000000000000000000000008152fd5b6159cd6154f6565b906159d661552f565b906159df615568565b906159e86155a1565b906159f16154f6565b906159fa61552f565b90610727615568565b73ffffffffffffffffffffffffffffffffffffffff7f000000000000000000000000000000000000000000000000000000000000000016331480615a7c575b15615a78577fffffffffffffffffffffffffffffffffffffffffffffffffffffffffffffffec36013681116114d3573560601c90565b3390565b506014361015615a42565b9092919273ffffffffffffffffffffffffffffffffffffffff80921690813b1561050357600060649281958560405198899788967f42842e0e00000000000000000000000000000000000000000000000000000000885216600487015216602485015260448401525af1801561247d57615afe5750565b67ffffffffffffffff811161020a57604052565b9060ff80911690615b228261160f565b9260005b838110615b34575050505090565b8083615b426001938561169f565b5116615b4e828861169f565b5201615b26565b908151615b618161160f565b9060005b818110615b73575090925050565b8060ff615ba77fffffffffffffffffffffffffffffffffffffffffffffffffffffffffffffffff600194895103018861169f565b5116615bb3828661169f565b5201615b65565b8051615bc581611236565b91604090615bd66040519485610263565b828452615be283611236565b907fffffffffffffffffffffffffffffffffffffffffffffffffffffffffffffffe06020920136602087013760009260005b858110615c245750505050505090565b6001907fff00000000000000000000000000000000000000000000000000000000000000615cb88451615c5681610247565b603a81527f31323334353637383941424344454647484a4b4c4d4e50515253545556575859888201527f5a6162636465666768696a6b6d6e6f707172737475767778797a0000000000008682015260ff615cb0858961169f565b51169061539c565b5116861a615cc6828a61539c565b5301615c1456fea26469706673582212208a0b5cb826a40ae43e49e65b6dd51c1628e3990cc3d1e1075ff3dd4aeea33a9e64736f6c63430008170033",
	"deployedBytecode": "0x6080604052600436101561001257600080fd5b60003560e01c806257bfdd14610166578063150b7a021461016157806318ab522d1461015c57806331a290ac146101575780634650d87314610152578063572b6c051461014d5780635e703e71146101485780636aff31dd14610143578063715018a61461013e57806379a2696e146101395780637da0a87714610134578063875e4bea1461012f5780638da5cb5b1461012a578063a0122c0914610125578063a22d0dd514610120578063b03a3eab1461011b578063b1fa9e7b14610116578063c06e7bc714610111578063d756227e1461010c578063da4fb434146101075763f2fde38b1461010257600080fd5b6114d8565b611395565b6112a7565b6110ce565b611085565b610fc1565b610f5e565b610eab565b610e59565b610c70565b610c01565b610bb0565b610b10565b610ac6565b610a7c565b6109fb565b61094f565b61075b565b610603565b610554565b6104b1565b90600182811c921680156101b4575b602083101461018557565b7f4e487b7100000000000000000000000000000000000000000000000000000000600052602260045260246000fd5b91607f169161017a565b7f4e487b7100000000000000000000000000000000000000000000000000000000600052604160045260246000fd5b6101a0810190811067ffffffffffffffff82111761020a57604052565b6101be565b6020810190811067ffffffffffffffff82111761020a57604052565b6040810190811067ffffffffffffffff82111761020a57604052565b6060810190811067ffffffffffffffff82111761020a57604052565b90601f7fffffffffffffffffffffffffffffffffffffffffffffffffffffffffffffffe0910116810190811067ffffffffffffffff82111761020a57604052565b60405190600082600754916102b88361016b565b8083529260209060019081811690811561034657506001146102e5575b50506102e392500383610263565b565b91509260076000527fa66cc928b5edb82af9bd49922954155ab7b0942694bea4ce44661d9a8736c688936000925b82841061032e57506102e394505050810160200138806102d5565b85548885018301529485019487945092810192610313565b9050602093506102e39592507fffffffffffffffffffffffffffffffffffffffffffffffffffffffffffffff0091501682840152151560051b82010138806102d5565b9060405191826000825461039c8161016b565b9081845260209460019160018116908160001461040a57506001146103cb575b5050506102e392500383610263565b600090815285812095935091905b8183106103f25750506102e393508201013880806103bc565b855488840185015294850194879450918301916103d9565b9150506102e39593507fffffffffffffffffffffffffffffffffffffffffffffffffffffffffffffff0091501682840152151560051b8201013880806103bc565b60005b83811061045e5750506000910152565b818101518382015260200161044e565b907fffffffffffffffffffffffffffffffffffffffffffffffffffffffffffffffe0601f6020936104aa8151809281875287808801910161044b565b0116010190565b346105035760007ffffffffffffffffffffffffffffffffffffffffffffffffffffffffffffffffc360112610503576104ff6104eb6102a4565b60405191829160208352602083019061046e565b0390f35b600080fd5b73ffffffffffffffffffffffffffffffffffffffff81160361050357565b9181601f840112156105035782359167ffffffffffffffff8311610503576020838186019501011161050357565b346105035760807ffffffffffffffffffffffffffffffffffffffffffffffffffffffffffffffffc3601126105035760043561058f81610508565b61059a602435610508565b60643567ffffffffffffffff8111610503576105ba903690600401610526565b505073ffffffffffffffffffffffffffffffffffffffff309116036105035760206040517f150b7a02000000000000000000000000000000000000000000000000000000008152f35b346105035760407ffffffffffffffffffffffffffffffffffffffffffffffffffffffffffffffffc3601126105035761064a60043561064181610508565b6024359061170f565b906040519182916040830190835260209060406020850152825180915260206060850193019160005b82811061068257505050500390f35b835185528695509381019392810192600101610673565b604051906102e3826101ed565b67ffffffffffffffff811161020a5760051b60200190565b92916106c9826106a6565b916106d76040519384610263565b829481845260208094019160051b810192831161050357905b8282106106fd5750505050565b813581529083019083016106f0565b9080601f8301121561050357816020610727933591016106be565b90565b9181601f840112156105035782359167ffffffffffffffff8311610503576020808501948460051b01011161050357565b34610503576040807ffffffffffffffffffffffffffffffffffffffffffffffffffffffffffffffffc3601126105035760049067ffffffffffffffff8235818111610503576107ad903690850161070c565b90602435908111610503576107c5903690850161072a565b92909180519360005b8581106107d757005b6107e1818461169f565b516107f76107f08385896117f1565b3691611270565b61081361080e83600052600a602052604060002090565b611851565b6109275761082b826000526006602052604060002090565b5480156108ff578651602081019061087381610847848761185b565b037fffffffffffffffffffffffffffffffffffffffffffffffffffffffffffffffe08101835282610263565b519020036108d757907faeb631726b45aa3f6b09da79f7af03a9784614901f61a967ed84d63c37b7edc76108ce836108c1600196956108bc86600052600a602052604060002090565b611924565b8851918291339083611a53565b0390a2016107ce565b8886517f75b5da0b000000000000000000000000000000000000000000000000000000008152fd5b8987517f7ef41a4f000000000000000000000000000000000000000000000000000000008152fd5b8886517f0e2019dc000000000000000000000000000000000000000000000000000000008152fd5b346105035760607ffffffffffffffffffffffffffffffffffffffffffffffffffffffffffffffffc360112610503576109e260043561098d81610508565b73ffffffffffffffffffffffffffffffffffffffff602435916109af83610508565b16600052600860205260406000209073ffffffffffffffffffffffffffffffffffffffff16600052602052604060002090565b6044356000526020526020604060002054604051908152f35b346105035760207ffffffffffffffffffffffffffffffffffffffffffffffffffffffffffffffffc360112610503576020600435610a3881610508565b73ffffffffffffffffffffffffffffffffffffffff9060405191807f000000000000000000000000b2b5841dbef766d4b521221732f9b618fcf34a87169116148152f35b346105035760407ffffffffffffffffffffffffffffffffffffffffffffffffffffffffffffffffc360112610503576104ff6104eb600435610abd81610508565b60243590611f00565b346105035760207ffffffffffffffffffffffffffffffffffffffffffffffffffffffffffffffffc3601126105035760043560005260066020526020604060002054604051908152f35b34610503576000807ffffffffffffffffffffffffffffffffffffffffffffffffffffffffffffffffc360112610bad57610b4861486e565b8073ffffffffffffffffffffffffffffffffffffffff81547fffffffffffffffffffffffff000000000000000000000000000000000000000081168355167f8be0079c531659141344cd1fd0a4f28419497f9722a3daafe3b4186f6b6457e08280a380f35b80fd5b346105035760407ffffffffffffffffffffffffffffffffffffffffffffffffffffffffffffffffc360112610503576020610bf9600435610bf081610508565b60243590612774565b604051908152f35b346105035760007ffffffffffffffffffffffffffffffffffffffffffffffffffffffffffffffffc36011261050357602060405173ffffffffffffffffffffffffffffffffffffffff7f000000000000000000000000b2b5841dbef766d4b521221732f9b618fcf34a87168152f35b34610503576020807ffffffffffffffffffffffffffffffffffffffffffffffffffffffffffffffffc3601126105035767ffffffffffffffff60043581811161050357610cc1903690600401610526565b9091610ccb61486e565b811161020a57610ce581610ce060075461016b565b611889565b600092601f8211600114610d795750610d5481807f512c3c91736f50c57a0548c1d01ab02f24c420f002b8b20e2bfe63df9693cd3f95600091610d6e575b507fffffffffffffffffffffffffffffffffffffffffffffffffffffffffffffffff8260011b9260031b1c19161790565b6007555b610d696040519283923391846127e0565b0390a1005b905084013538610d23565b60076000527fffffffffffffffffffffffffffffffffffffffffffffffffffffffffffffffe08216937fa66cc928b5edb82af9bd49922954155ab7b0942694bea4ce44661d9a8736c6889181905b868210610e41575050827f512c3c91736f50c57a0548c1d01ab02f24c420f002b8b20e2bfe63df9693cd3f9510610e09575b5050600181811b01600755610d58565b7fffffffffffffffffffffffffffffffffffffffffffffffffffffffffffffffff60f88460031b161c19908401351690553880610df9565b80600184958294958901358155019401920190610dc7565b346105035760007ffffffffffffffffffffffffffffffffffffffffffffffffffffffffffffffffc36011261050357602073ffffffffffffffffffffffffffffffffffffffff60005416604051908152f35b346105035760407ffffffffffffffffffffffffffffffffffffffffffffffffffffffffffffffffc36011261050357610f38600435610ee981610508565b6104ff610ef96024358093613424565b91610f46610f23610f1d62ffffff610100610f148887613fe7565b97015116614594565b9261421d565b9160405195869560608752606087019061046e565b90858203602087015261046e565b90838203604085015261046e565b8015150361050357565b346105035760807ffffffffffffffffffffffffffffffffffffffffffffffffffffffffffffffffc360112610503576104ff6104eb600435610f9f81610508565b604435610fab81610f54565b60643591610fb883610f54565b60243590612dba565b346105035760407ffffffffffffffffffffffffffffffffffffffffffffffffffffffffffffffffc3601126105035767ffffffffffffffff6004358181116105035761101190369060040161070c565b906024359081116105035736602382011215610503578060040135611035816106a6565b916110436040519384610263565b8183526020916024602085019160051b8301019136831161050357602401905b828210611076576110748587612ecc565b005b81358152908301908301611063565b346105035760407ffffffffffffffffffffffffffffffffffffffffffffffffffffffffffffffffc360112610503576020610bf96004356110c581610508565b60243590612f88565b346105035760807ffffffffffffffffffffffffffffffffffffffffffffffffffffffffffffffffc3601126105035760043561110981610508565b602435906044359060643567ffffffffffffffff81116105035761113190369060040161072a565b93909261113e8284614c35565b73ffffffffffffffffffffffffffffffffffffffff938461115d615a03565b16956000968752600860205261119685604089209073ffffffffffffffffffffffffffffffffffffffff16600052602052604060002090565b8488526020526040872054421061120c576111fc6112039385611209987f6a68946ba06488db8585d7c7637fa954b574035fe15720ea760125ef860172586111f26111df615a03565b926040519182918d1694898b8985613039565b0390a38587614c91565b36916106be565b91614f05565b80f35b60046040517fbd22d7e4000000000000000000000000000000000000000000000000000000008152fd5b67ffffffffffffffff811161020a57601f017fffffffffffffffffffffffffffffffffffffffffffffffffffffffffffffffe01660200190565b92919261127c82611236565b9161128a6040519384610263565b829481845281830111610503578281602093846000960137010152565b346105035760407ffffffffffffffffffffffffffffffffffffffffffffffffffffffffffffffffc3601126105035767ffffffffffffffff600435818111610503576112f790369060040161070c565b60249060243583811161050357366023820112156105035780600401359261131e846106a6565b9361132c6040519586610263565b8085526020956024602087019260051b850101933685116105035760248101925b85841061135e5761107488886130a3565b83358381116105035782013660438201121561050357899161138a8392369060448a8201359101611270565b81520193019261134d565b346105035760607ffffffffffffffffffffffffffffffffffffffffffffffffffffffffffffffffc360112610503576004356113d081610508565b602435906113de8282614c35565b73ffffffffffffffffffffffffffffffffffffffff90816113fd615a03565b16926000938452600860205261143682604086209073ffffffffffffffffffffffffffffffffffffffff16600052602052604060002090565b8185526020526040842054926044354201938442116114d35784106114a9576114a59261149691611465615a03565b1686526008602052604086209073ffffffffffffffffffffffffffffffffffffffff16600052602052604060002090565b90600052602052604060002090565b5580f35b60046040517f27938a89000000000000000000000000000000000000000000000000000000008152fd5b6116b3565b346105035760207ffffffffffffffffffffffffffffffffffffffffffffffffffffffffffffffffc3601126105035760043561151381610508565b61151b61486e565b73ffffffffffffffffffffffffffffffffffffffff809116801561158d576000918254827fffffffffffffffffffffffff00000000000000000000000000000000000000008216178455167f8be0079c531659141344cd1fd0a4f28419497f9722a3daafe3b4186f6b6457e08380a380f35b60246040517f1e4fbdf700000000000000000000000000000000000000000000000000000000815260006004820152fd5b90604051918281549182825260209260208301916000526020600020936000905b8282106115f5575050506102e392500383610263565b8554845260019586019588955093810193909101906115df565b90611619826106a6565b6116266040519182610263565b8281527fffffffffffffffffffffffffffffffffffffffffffffffffffffffffffffffe061165482946106a6565b0190602036910137565b7f4e487b7100000000000000000000000000000000000000000000000000000000600052603260045260246000fd5b80511561169a5760200190565b61165e565b805182101561169a5760209160051b010190565b7f4e487b7100000000000000000000000000000000000000000000000000000000600052601160045260246000fd5b7fffffffffffffffffffffffffffffffffffffffffffffffffffffffffffffffff81146114d35760010190565b9160009260009273ffffffffffffffffffffffffffffffffffffffff82168452600b6020526040842081855260205261174a604085206115be565b9384516117568161160f565b958290835b8381106117b1575050505060406117a5916117968573ffffffffffffffffffffffffffffffffffffffff16600052600c602052604060002090565b84825260205220548093612774565b146117ad5750565b9250565b806117be6001928461169f565b51876117ca828b612f88565b146117d7575b500161175b565b6117ea6117e3866116e2565b958c61169f565b52386117d0565b919081101561169a5760051b810135907fffffffffffffffffffffffffffffffffffffffffffffffffffffffffffffffe18136030182121561050357019081359167ffffffffffffffff8311610503576020018236038113610503579190565b610727905461016b565b9061186e6020928281519485920161044b565b0190565b81811061187d575050565b60008155600101611872565b90601f8211611896575050565b6102e39160076000527fa66cc928b5edb82af9bd49922954155ab7b0942694bea4ce44661d9a8736c688906020601f840160051c830193106118e0575b601f0160051c0190611872565b90915081906118d3565b9190601f81116118f957505050565b6102e3926000526020600020906020601f840160051c830193106118e057601f0160051c0190611872565b919091825167ffffffffffffffff811161020a5761194c81611946845461016b565b846118ea565b602080601f83116001146119ac5750819061199d9394956000926119a1575b50507fffffffffffffffffffffffffffffffffffffffffffffffffffffffffffffffff8260011b9260031b1c19161790565b9055565b01519050388061196b565b907fffffffffffffffffffffffffffffffffffffffffffffffffffffffffffffffe08316956119e085600052602060002090565b926000905b888210611a3b57505083600195969710611a04575b505050811b019055565b01517fffffffffffffffffffffffffffffffffffffffffffffffffffffffffffffffff60f88460031b161c191690553880806119fa565b806001859682949686015181550195019301906119e5565b9073ffffffffffffffffffffffffffffffffffffffff611a8060209295949560408552604085019061046e565b9416910152565b60405190611a948261020f565b60008252565b60405190611aa78261022b565b600e82527f226f7574666974496473223a205b0000000000000000000000000000000000006020830152565b60216102e3919392936040519481611af587935180926020808701910161044b565b8201611b0a825180936020808501910161044b565b017f2c000000000000000000000000000000000000000000000000000000000000006020820152036001810185520183610263565b906102e3602260405184611b5d82965180926020808601910161044b565b81017f5d2c0000000000000000000000000000000000000000000000000000000000006020820152036002810185520183610263565b602c6102e3919392936040519481611bb587935180926020808701910161044b565b82017f22776f726c644964223a200000000000000000000000000000000000000000006020820152611bf1825180936020602b8501910161044b565b017f2c00000000000000000000000000000000000000000000000000000000000000602b82015203600c810185520183610263565b603b6102e3919392936040519481611c4887935180926020808701910161044b565b82017f226465636f726174696f6e734c6f636b6564556e74696c223a200000000000006020820152611c84825180936020603a8501910161044b565b017f2c00000000000000000000000000000000000000000000000000000000000000603a82015203601b810185520183610263565b90604051918260605160005b818110611cfa57509060206102e393611cee82948401918383016000815281519485920161044b565b01038085520183610263565b6020919250806080015182828801015201908491611cc5565b60206102e3919392936040519481611d34879351809286808701910161044b565b8201611cee8251809386808501910161044b565b906102e3603760405180947f22776f726e42794e616b656442616e6e794964223a20000000000000000000006020830152611d8d81518092602060368601910161044b565b81017f2c000000000000000000000000000000000000000000000000000000000000006036820152036017810185520183610263565b906102e3603760405180947f227573656442794e616b656442616e6e794964223a20000000000000000000006020830152611d8d81518092602060368601910161044b565b81601f82011215610503578051611e1e81611236565b92611e2c6040519485610263565b8184526020828401011161050357610727916020808501910161044b565b9060208282031261050357815167ffffffffffffffff8111610503576107279201611e08565b6040513d6000823e3d90fd5b90816020910312610503575190565b90816060910312610503578051916040602083015192015161072781610508565b906102e3603d60405180947f646174613a6170706c69636174696f6e2f6a736f6e3b6261736536342c0000006020830152611ef0815180926020868601910161044b565b810103601d810185520183610263565b90611f0b8183613424565b9063ffffffff611f1f835163ffffffff1690565b161561276957611f2d611a87565b5061010082019062ffffff80611f46845162ffffff1690565b161561265757611f6f611f69611f60865163ffffffff1690565b63ffffffff1690565b86613787565b92835161261b575b600182611f87835162ffffff1690565b160361260057611fa7611fa2611f9d8589612774565b613583565b611dc3565b915b8451156124825750606073ffffffffffffffffffffffffffffffffffffffff9495966004604051809781937f08786b1a000000000000000000000000000000000000000000000000000000008352165afa93841561247d57600090600095612448575b506120178785613fe7565b9487516120279063ffffffff1690565b63ffffffff166120369061421d565b9783516120459062ffffff1690565b62ffffff1661205390614594565b9561205d90613583565b93815161206d9063ffffffff1690565b63ffffffff1661207c90613583565b905161208c9062ffffff16613583565b60608301516120a09063ffffffff16613583565b9160408401516120b39063ffffffff1690565b63ffffffff166120c290613583565b602094909401516120e1906cffffffffffffffffffffffffff16613583565b946120eb90613583565b956120f590613583565b96604051809c602082016121089161185b565b039b7fffffffffffffffffffffffffffffffffffffffffffffffffffffffffffffffe09c8d8101825261213b9082610263565b61214490614714565b6040517f7b226e616d65223a22000000000000000000000000000000000000000000000060208201529d8e9c919b9160298e016121809161185b565b7f222c202270726f647563744e616d65223a20220000000000000000000000000081526013016121af9161185b565b7f222c202263617465676f72794e616d65223a202200000000000000000000000081526014016121de9161185b565b7f222c2022746f6b656e4964223a200000000000000000000000000000000000008152600e0161220d9161185b565b7f2c2022757063223a200000000000000000000000000000000000000000000000815260090161223c9161185b565b7f2c202263617465676f7279223a200000000000000000000000000000000000008152600e0161226b9161185b565b7f2c2022737570706c79223a2000000000000000000000000000000000000000008152600c0161229a9161185b565b7f2c202272656d61696e696e67223a2000000000000000000000000000000000008152600f016122c99161185b565b7f2c20227072696365223a200000000000000000000000000000000000000000008152600b016122f89161185b565b7f2c2022646563696d616c73223a200000000000000000000000000000000000008152600e016123279161185b565b7f2c202263757272656e6379223a200000000000000000000000000000000000008152600e016123569161185b565b7f2c2000000000000000000000000000000000000000000000000000000000000081526002016123859161185b565b7f226465736372697074696f6e223a2241207069656365206f662074686520426181527f6e6e797665727365222c22696d616765223a22646174613a696d6167652f737660208201527f672b786d6c3b6261736536342c000000000000000000000000000000000000006040820152604d016124009161185b565b7f227d00000000000000000000000000000000000000000000000000000000000081526002010390810182526124369082610263565b61243f90614714565b61072790611eac565b905061246d91945060603d606011612476575b6124658183610263565b810190611e8b565b5093903861200c565b503d61245b565b611e70565b92959450600d935061249891505162ffffff1690565b1611156125ec576040517f6c0360eb00000000000000000000000000000000000000000000000000000000815260008160048173ffffffffffffffffffffffffffffffffffffffff86165afa92831561247d5761257b936020926000916125c9575b50925b61252261250982613ba3565b73ffffffffffffffffffffffffffffffffffffffff1690565b906040518096819482937fc8df1710000000000000000000000000000000000000000000000000000000008452600484016020909392919373ffffffffffffffffffffffffffffffffffffffff60408201951681520152565b03915afa90811561247d5761072792600092612598575b50613bfc565b6125bb91925060203d6020116125c2575b6125b38183610263565b810190611e7c565b9038612592565b503d6125a9565b6125e691503d806000833e6125de8183610263565b810190611e4a565b386124fa565b602061257b926125fa6102a4565b926124fd565b612615612610611f9d8589612f88565b611d48565b91611fa9565b9261263b90600183612630875162ffffff1690565b160361264157613a90565b92611f77565b6126529061264d6138e8565b611d13565b613a90565b6126618286612c86565b9261266c838761170f565b8093919351612679611a9a565b906000925b81841061273e5750506126919150611b3f565b9280612723575b506126f984611496896126d46126ae84836136f2565b73ffffffffffffffffffffffffffffffffffffffff166000526008602052604060002090565b9073ffffffffffffffffffffffffffffffffffffffff16600052602052604060002090565b54428111612708575b50611fa9565b9261271661271c9294613583565b90611c26565b9138612702565b926127316127379294613583565b90611b93565b9138612698565b909161275f600191612759612753878661169f565b51613583565b90611ad3565b930192919061267e565b505050610727611a87565b73ffffffffffffffffffffffffffffffffffffffff16600090808252600d6020526040822083835260205260408220549283159182156127be575b50506127b9575090565b905090565b9091508252600c602052604082208383526020526040822054141538806127af565b9160607fffffffffffffffffffffffffffffffffffffffffffffffffffffffffffffffe0601f8373ffffffffffffffffffffffffffffffffffffffff94602096999899604089528160408a015285890137600084828901015201168401019416910152565b90600091600190600154916128598361016b565b92600181169081156128c3575060011461287257505050565b909192935060016000527fb10e2d527612073b26eecdfd717e6a320cf44b4afac2b0732d9fcbe2b7fa0cf6906000915b8483106128b0575050500190565b81816020925485870152019201916128a2565b7fffffffffffffffffffffffffffffffffffffffffffffffffffffffffffffff001683525050811515909102019150565b90604051918260209161290f8151809285808601910161044b565b60045460009183016129208261016b565b916001908181169081156129c9575060011461296b575b5050506102e39250037fffffffffffffffffffffffffffffffffffffffffffffffffffffffffffffffe08101845283610263565b94925060046000527f8a35acfbc15ff81a39ae7d344fd709f28e8600b4aa8c65c6b64bfe7fe36bd19b946000905b8382106129b15750506102e394500101388080612937565b86548284018601529586019588955090840190612999565b90506102e39694507fffffffffffffffffffffffffffffffffffffffffffffffffffffffffffffff0091509291921683830152801515020101388080612937565b906040519182602091612a258151809285808601910161044b565b6005546000918301612a368261016b565b916001908181169081156129c95750600114612a80575050506102e39250037fffffffffffffffffffffffffffffffffffffffffffffffffffffffffffffffe08101845283610263565b94925060056000527f036b6384b5eca791c62761152d0c79bb0604c104a5fb6f4eb0703f3154bb3db0946000905b838210612ac65750506102e394500101388080612937565b86548284018601529586019588955090840190612aae565b906040519182602091612af98151809285808601910161044b565b6002546000918301612b0a8261016b565b916001908181169081156129c95750600114612b54575050506102e39250037fffffffffffffffffffffffffffffffffffffffffffffffffffffffffffffffe08101845283610263565b94925060026000527f405787fa12a823e0f2b7631cc41b3ba8828b3321ca811111fa75cd3aa3bb5ace946000905b838210612b9a5750506102e394500101388080612937565b86548284018601529586019588955090840190612b82565b906040519182602091612bcd8151809285808601910161044b565b6003546000918301612bde8261016b565b916001908181169081156129c95750600114612c28575050506102e39250037fffffffffffffffffffffffffffffffffffffffffffffffffffffffffffffffe08101845283610263565b94925060036000527fc2575a0e9e593c00f959f8c92f12db2869c3395a3b0502d05e2516446f71f85b946000905b838210612c6e5750506102e394500101388080612937565b86548284018601529586019588955090840190612c56565b612c908282613424565b9163ffffffff80612ca5855163ffffffff1690565b1615612dae5760609162ffffff612cc361010087015162ffffff1690565b16612d7957936001612d339392612d1e612d13612ce3610727998961170f565b969080151580612d72575b612d58575b50612d0d612d08611f60885163ffffffff1690565b6148d4565b90611d13565b935163ffffffff1690565b1603612d4f57612d2d90612a0a565b92614aca565b8051612d40575b50613a90565b612d4991611d13565b38612d3a565b612d2d906128f4565b612d6c9150612d67908a613787565b611cb9565b38612cf3565b5085612cee565b505050612d90611f60612d96935163ffffffff1690565b90613787565b8051612da55750610727611a87565b61072790613a90565b50505050610727611a87565b9092612dc68483613424565b9363ffffffff9081612ddc875163ffffffff1690565b1615612ebe5760609062ffffff612dfa61010089015162ffffff1690565b16612ea45791612e3c612d13600193612e176107279a968961170f565b978115159081612e9c575b50612e8d5750612d0d612d08611f60885163ffffffff1690565b1603612e7e57612e4b90612a0a565b925b612e59575b5050613a90565b612e6291614aca565b8051612e6f575b80612e52565b612e7891611d13565b38612e69565b612e87906128f4565b92612e4d565b612d6c9150612d679089613787565b905038612e22565b505050509050612d90611f60612d96935163ffffffff1690565b505050505050610727611a87565b90612ed561486e565b81519060009260005b838110612eec575050505050565b612ef6818361169f565b51612f01828561169f565b5190808752602060068152604080892054612f5f5782917fb10eb6fc7557a7109693cb8f3fac48d44328de56c0368ee4cac539b424d2cad99185612f5360019897966000526006602052604060002090565b5551338152a301612ede565b600490517fcf7b506c000000000000000000000000000000000000000000000000000000008152fd5b9060009173ffffffffffffffffffffffffffffffffffffffff81168352600e60205260408320828452602052604083205490811561303357612fea9073ffffffffffffffffffffffffffffffffffffffff16600052600b602052604060002090565b818452602052612ffc604084206115be565b91825192845b84811061301157505050505090565b8261301c828461169f565b511461302a57600101613002565b50505091505090565b50505090565b9291909493948352606060208401528160608401527f07ffffffffffffffffffffffffffffffffffffffffffffffffffffffffffffff821161050357608073ffffffffffffffffffffffffffffffffffffffff9160409360051b8091838701378401019416910152565b6130ab61486e565b80519060005b8281106130be5750505050565b6130c8818361169f565b516130d3828661169f565b5181600052602060098152604090816000209083519067ffffffffffffffff821161020a5761310c82613106855461016b565b856118ea565b80601f83116001146131a557509261319192613182836001999897947f9dedd219289ed514faff576c477c66bd097aef59a236e3b8ebcf0d0070cb4e969760009161319a57507fffffffffffffffffffffffffffffffffffffffffffffffffffffffffffffffff8260011b9260031b1c19161790565b90555b51918291339083611a53565b0390a2016130b1565b905085015138610d23565b907fffffffffffffffffffffffffffffffffffffffffffffffffffffffffffffffe083166131d885600052602060002090565b926000905b828210613260575050927f9dedd219289ed514faff576c477c66bd097aef59a236e3b8ebcf0d0070cb4e96959261319195928260019b9a999610613229575b5050881b88019055613185565b8501517fffffffffffffffffffffffffffffffffffffffffffffffffffffffffffffffff60f88460031b161c19169055388061321c565b80600185968294968c015181550195019301906131dd565b90600282018092116114d357565b90602082018092116114d357565b90600182018092116114d357565b919082018092116114d357565b519063ffffffff8216820361050357565b51906cffffffffffffffffffffffffff8216820361050357565b519061ffff8216820361050357565b51906102e382610508565b519062ffffff8216820361050357565b51906102e382610f54565b60208183031261050357805167ffffffffffffffff9182821161050357016101a08184031261050357613340610699565b9261334a826132af565b8452613358602083016132c0565b6020850152613369604083016132af565b604085015261337a606083016132af565b606085015261338b608083016132c0565b608085015261339c60a083016132da565b60a08501526133ad60c083016132e9565b60c085015260e082015160e08501526101006133ca8184016132f4565b908501526101206133dc818401613304565b908501526101406133ee818401613304565b90850152610160613400818401613304565b9085015261018092838301519081116105035761341d9201611e08565b9082015290565b604051610180926134f492613438836101ed565b6060600095848780965285602082015285604082015285838201528560808201528560a08201528560c08201528560e082015285610100820152856101208201528561014082015285610160820152015261349561250982613ba3565b906040518095819482937fc44a8e6d00000000000000000000000000000000000000000000000000000000845260048401604090600092949373ffffffffffffffffffffffffffffffffffffffff606083019616825260208201520152565b03915afa91821561247d57809261350a57505090565b61072792503d8091833e61351e8183610263565b81019061330f565b6040516135328161020f565b60008152906000368137565b9061354882611236565b6135556040519182610263565b8281527fffffffffffffffffffffffffffffffffffffffffffffffffffffffffffffffe06116548294611236565b806000917a184f03e93ff9f4daa797ed6e38ed64bf6a1f010000000000000000808210156136e4575b506d04ee2d6d415b85acef8100000000808310156136d5575b50662386f26fc10000808310156136c6575b506305f5e100808310156136b7575b50612710808310156136a8575b506064821015613698575b600a8092101561368e575b60019081602161361b6001870161353e565b95860101905b61362d575b5050505090565b7fffffffffffffffffffffffffffffffffffffffffffffffffffffffffffffffff849101917f30313233343536373839616263646566000000000000000000000000000000008282061a83530491821561368957919082613621565b613626565b9160010191613609565b91906064600291049101916135fe565b600491939204910191386135f3565b600891939204910191386135e6565b601091939204910191386135d7565b602091939204910191386135c5565b6040935081049150386135ac565b602090602473ffffffffffffffffffffffffffffffffffffffff9360405194859384927f6352211e0000000000000000000000000000000000000000000000000000000084526004840152165afa90811561247d57600091613752575090565b90506020813d60201161377f575b8161376d60209383610263565b81010312610503575161072781610508565b3d9150613760565b9080600052602091600a83526137a06040600020610389565b80516138e15750613825918173ffffffffffffffffffffffffffffffffffffffff6137cb8694613ba3565b16906040518095819482937fbd51923c000000000000000000000000000000000000000000000000000000008452600484016020909392919373ffffffffffffffffffffffffffffffffffffffff60408201951681520152565b03915afa801561247d5761388e92613853604992610727946000916138c4575b5061384e6102a4565b613bfc565b60405194827f3c696d61676520687265663d220000000000000000000000000000000000000087948501528251928391602d8601910161044b565b81017f222077696474683d2234303022206865696768743d22343030222f3e00000000602d820152036029810184520182610263565b6138db9150833d85116125c2576125b38183610263565b38613845565b9250505090565b60446107276040516108476008613a6760208401937f7b66696c6c3a6e6f6e653b7d00000000000000000000000000000000000000008552600c815261392d8161022b565b6003613a3d81613a136040519a8b997f3c7374796c653e2e6f7b66696c6c3a233830383038303b7d2e6232000000000060208c0152603b6139748c8951928391018461044b565b8b017f2e62330000000000000000000000000000000000000000000000000000000000603b8201528751906139ad82603e83018561044b565b017f2e62340000000000000000000000000000000000000000000000000000000000603e8201526139e588518093604184019061044b565b017f2e613100000000000000000000000000000000000000000000000000000000006041820152018561185b565b7f2e613200000000000000000000000000000000000000000000000000000000008152018361185b565b7f2e613300000000000000000000000000000000000000000000000000000000008152019061185b565b7f3c2f7374796c653e000000000000000000000000000000000000000000000000815201612845565b906102e360ba60405180947f3c7376672077696474683d2234303022206865696768743d223430302220766960208301527f6577426f783d223020302034303020343030222066696c6c3d226e6f6e65222060408301527f786d6c6e733d22687474703a2f2f7777772e77332e6f72672f323030302f737660608301527f67223e3c7374796c653e2e6f7b66696c6c3a233035303530353b7d2e777b666960808301527f6c6c3a236639663966393b7d3c2f7374796c653e00000000000000000000000060a0830152613b6d81518092602060b48601910161044b565b81017f3c2f7376673e000000000000000000000000000000000000000000000000000060b482015203609a810185520183610263565b602073ffffffffffffffffffffffffffffffffffffffff916004604051809481937f507f1465000000000000000000000000000000000000000000000000000000008352165afa90811561247d57600091613752575090565b9061072790613c466040516020927f122000000000000000000000000000000000000000000000000000000000000084830152602282015260228152613c4181610247565b6153ad565b926040519381613c5f869351809286808701910161044b565b8201613c738251809386808501910161044b565b01038084520182610263565b906102e3602160405184613c9d82965180926020808601910161044b565b81017f20000000000000000000000000000000000000000000000000000000000000006020820152036001810185520183610263565b60405190613ce08261022b565b600a82527f2072656d61696e696e67000000000000000000000000000000000000000000006020830152565b906102e3929493602192613d91604051978894602093613d348151809287808b01910161044b565b8601613d488251809387808501910161044b565b017f2f0000000000000000000000000000000000000000000000000000000000000084820152613d8082518093868a8501910161044b565b01918351938491878501910161044b565b01036001810185520183610263565b906102e3929493602d92613e3b604051978894602093613dc88151809287808b01910161044b565b86017f2028534f4c44204f55542920000000000000000000000000000000000000000085820152613e028251809387602c8501910161044b565b017f2f00000000000000000000000000000000000000000000000000000000000000602c820152613d8082518093868a8501910161044b565b0103600d810185520183610263565b6102e391613d919493602192604051968793602092613e718151809286808a01910161044b565b8501613e858251809386808501910161044b565b01917f2f00000000000000000000000000000000000000000000000000000000000000818401528351938491878501910161044b565b906102e3602360405184613ed982965180926020808601910161044b565b81017f203a2000000000000000000000000000000000000000000000000000000000006020820152036003810185520183610263565b60216102e3919392936040519481613f3187935180926020808701910161044b565b8201613f46825180936020808501910161044b565b017f20000000000000000000000000000000000000000000000000000000000000006020820152036001810185520183610263565b60256102e3919392936040519481613f9d87935180926020808701910161044b565b82017f55504320230000000000000000000000000000000000000000000000000000006020820152613fd8825180936020878501910161044b565b01036005810185520183610263565b9061405561072792633b9aca0061401561401061400b611f60875163ffffffff1690565b61421d565b613c7f565b910661401f613cd3565b81156140b957509061403361405092613583565b61404a611f9d611f60606088015163ffffffff1690565b91613e4a565b613ebb565b9061407a61407561406d61010084015162ffffff1690565b62ffffff1690565b614594565b805161409c575b50611f9d611f60614096925163ffffffff1690565b90613f7b565b611f606140b0611f9d926140969495613f0f565b93925050614081565b9050604084019163ffffffff6140d3845163ffffffff1690565b168061410e57506140f1611f9d611f60614050955163ffffffff1690565b614108611f9d611f60606089015163ffffffff1690565b91613da0565b614050935061411c90613583565b614133611f9d611f60606089015163ffffffff1690565b91613d0c565b604051906141468261022b565b600882527f4f726967696e616c0000000000000000000000000000000000000000000000006020830152565b6040519061417f8261022b565b600682527f4f72616e676500000000000000000000000000000000000000000000000000006020830152565b604051906141b88261022b565b600482527f50696e6b000000000000000000000000000000000000000000000000000000006020830152565b604051906141f18261022b565b600582527f416c69656e0000000000000000000000000000000000000000000000000000006020830152565b6001810361422e57506107276141e4565b6002810361423f57506107276141ab565b600381036142505750610727614172565b600481036142615750610727614139565b60005260096020526107276040600020610389565b604051906142838261022b565b600782527f546f7070696e67000000000000000000000000000000000000000000000000006020830152565b604051906142bc8261022b565b600482527f46697374000000000000000000000000000000000000000000000000000000006020830152565b604051906142f58261022b565b600b82527f5375697420626f74746f6d0000000000000000000000000000000000000000006020830152565b6040519061432e8261022b565b600882527f5375697420746f700000000000000000000000000000000000000000000000006020830152565b604051906143678261022b565b600482527f53756974000000000000000000000000000000000000000000000000000000006020830152565b604051906143a08261022b565b600482527f48656164000000000000000000000000000000000000000000000000000000006020830152565b604051906143d98261022b565b600882527f4865616420746f700000000000000000000000000000000000000000000000006020830152565b604051906144128261022b565b600582527f4d6f7574680000000000000000000000000000000000000000000000000000006020830152565b6040519061444b8261022b565b600782527f476c6173736573000000000000000000000000000000000000000000000000006020830152565b604051906144848261022b565b600882527f4e65636b6c6163650000000000000000000000000000000000000000000000006020830152565b604051906144bd8261022b565b600482527f4c656773000000000000000000000000000000000000000000000000000000006020830152565b604051906144f68261022b565b600882527f4261636b736964650000000000000000000000000000000000000000000000006020830152565b6040519061452f8261022b565b600582527f576f726c640000000000000000000000000000000000000000000000000000006020830152565b604051906145688261022b565b600b82527f4e616b65642042616e6e790000000000000000000000000000000000000000006020830152565b806145a2575061072761455b565b600181036145b35750610727614522565b600281036145c457506107276144e9565b600781036145d557506107276144b0565b600381036145e65750610727614477565b600581036145f7575061072761443e565b600681036146085750610727614405565b600b810361461957506107276143cc565b6004810361462a5750610727614393565b6008810361463b575061072761435a565b600a810361464c5750610727614321565b6009810361465d57506107276142e8565b600c810361466e57506107276142af565b600d1461467d57610727611a87565b610727614276565b6040519061469282610247565b604082527f6768696a6b6c6d6e6f707172737475767778797a303132333435363738392b2f6040837f4142434445464748494a4b4c4d4e4f505152535455565758595a61626364656660208201520152565b908160021b917f3fffffffffffffffffffffffffffffffffffffffffffffffffffffffffffffff8116036114d357565b80511561486557614723614685565b61473f61473a6147338451613278565b6003900490565b6146e4565b9161475161474c84613286565b61353e565b92835280815182019060208501935b828210614813575050506003905106806001146147ca57600214614782575090565b7fffffffffffffffffffffffffffffffffffffffffffffffffffffffffffffffff7f3d0000000000000000000000000000000000000000000000000000000000000091015290565b507ffffffffffffffffffffffffffffffffffffffffffffffffffffffffffffffffe7f3d3d00000000000000000000000000000000000000000000000000000000000091015290565b9091936004906003809401938451600190603f9082828260121c16880101518553828282600c1c16880101518386015382828260061c1688010151600286015316850101519082015301939190614760565b50610727611a87565b73ffffffffffffffffffffffffffffffffffffffff806000541681614891615a03565b160361489a5750565b6024906148a5615a03565b6040517f118cdaa700000000000000000000000000000000000000000000000000000000815291166004820152fd5b6148dd906158bf565b93604096959693919351968796602088017f3c7374796c653e2e62317b66696c6c3a2300000000000000000000000000000090528051908160318a0191602001916149279261044b565b8701603181017f3b7d2e62327b66696c6c3a230000000000000000000000000000000000000000905281519182603d830191602001916149669261044b565b01603d81017f3b7d2e62337b66696c6c3a2300000000000000000000000000000000000000009052815191826049830191602001916149a49261044b565b01604981016149d2907f3b7d2e62347b66696c6c3a2300000000000000000000000000000000000000009052565b6055016149de9161185b565b7f3b7d2e61317b66696c6c3a2300000000000000000000000000000000000000008152600c01614a0d9161185b565b7f3b7d2e61327b66696c6c3a2300000000000000000000000000000000000000008152600c01614a3c9161185b565b7f3b7d2e61337b66696c6c3a2300000000000000000000000000000000000000008152600c01614a6b9161185b565b7f3b7d3c2f7374796c653e000000000000000000000000000000000000000000008152600a01614a9a90612845565b037fffffffffffffffffffffffffffffffffffffffffffffffffffffffffffffffe0810182526107279082610263565b919091606092805191600092839084938791614ae581613294565b965b878110614af8575050505050505050565b81811015614c2a57614b0a818461169f565b51614b2861406d610100614b1e848b613424565b015162ffffff1690565b945b600386811497908815614bfb57505050600195614b478289613787565b985b6006878103614bc7575050600a6001965b1180614bbd575b614ba3575b8115159081614b9a575b50614b82575b50600101959295614ae7565b6001919a612d0d614b939289613787565b9990614b76565b90501538614b70565b97614bae919b611d13565b99614bb7611a87565b97614b66565b5088511515614b61565b8791971180614bf3575b614bde575b600a90614b5a565b95509a614bea90612bb2565b9a600195614bd6565b508615614bd1565b879a9198929a1180614c22575b15614b495796509a614c1990612ade565b9a600196614b49565b508715614c08565b600e93600090614b2a565b90614c3f916136f2565b73ffffffffffffffffffffffffffffffffffffffff80614c5d615a03565b16911603614c6757565b60046040517f2add3f4b000000000000000000000000000000000000000000000000000000008152fd5b9190614cc1816114968573ffffffffffffffffffffffffffffffffffffffff16600052600c602052604060002090565b5491828103614cd1575b50505050565b8015614e4e57614cdf615a03565b614cec61250983876136f2565b73ffffffffffffffffffffffffffffffffffffffff80921614159081614e23575b50614df95763ffffffff614d2e614d248387613424565b5163ffffffff1690565b1615614dcf578181614d67614da7946114968873ffffffffffffffffffffffffffffffffffffffff16600052600c602052604060002090565b55614d96826114968773ffffffffffffffffffffffffffffffffffffffff16600052600d602052604060002090565b55614d9f615a03565b309085615a87565b80614db4575b8080614ccb565b614dc891614dc0615a03565b903090615a87565b3880614dad565b60046040517f265ba879000000000000000000000000000000000000000000000000000000008152fd5b60046040517f9d17cec7000000000000000000000000000000000000000000000000000000008152fd5b9050614e2d615a03565b90614e44612509614e3e8589612774565b886136f2565b9116141538614d0d565b50614e7f6000916114968573ffffffffffffffffffffffffffffffffffffffff16600052600c602052604060002090565b55614da7565b81519167ffffffffffffffff831161020a5768010000000000000000831161020a578154838355808410614ee7575b5060208091019160005260206000209060005b848110614ed5575050505050565b83518382015592810192600101614ec7565b614eff90836000528460206000209182019101611872565b38614eb4565b919290600091829483614f44614f3f856114968973ffffffffffffffffffffffffffffffffffffffff16600052600b602052604060002090565b6115be565b928351958095819482908a8a615346575b5091969798999a9592938495915b83518710156152bb57614f76878561169f565b51978d89614f82615a03565b614f8f61250983856136f2565b73ffffffffffffffffffffffffffffffffffffffff8092161415928361528c575b50505061526257614fcb61406d8f614b1e8c61010092613424565b96600288108015615258575b61522e578815159081615223575b506151f957600487810361510e57505060019490939192935b8681111580615105575b1561508d57509081888e9695949303615074575b506150268b6116e2565b8c819c106000146150675761503a906116e2565b9a615045908b61169f565b51948561505191613424565b610100015162ffffff16905b9192939490614ffe565b9a5060009450849061505d565b61508790615080615a03565b3088615a87565b3861501c565b92958d600192999e9d9c9b9a9598969e808b036150bb575b5050940195919b96939490929798999a9b614f63565b81876150ee836114966150fe9673ffffffffffffffffffffffffffffffffffffffff16600052600e602052604060002090565b556150f7615a03565b3091615a87565b8c386150a5565b50801515615008565b909493600888036151285750506001929192939490614ffe565b9291909d9c9b9a999897969594936005871480156151ef575b80156151e5575b806151de575b1561517c578e6040517f3caa16de000000000000000000000000000000000000000000000000000000008152fd5b909192939495969798999a9b9c9d600a881480156151d4575b806151cd575b6151a5575061505d565b6040517f5e701b2b000000000000000000000000000000000000000000000000000000008152fd5b508461519b565b5060098814615195565b508461514e565b50600b8714615148565b5060068714615141565b60046040517ffb81d04a000000000000000000000000000000000000000000000000000000008152fd5b905087111538614fe5565b60046040517fc89badbd000000000000000000000000000000000000000000000000000000008152fd5b50600d8811614fd7565b60046040517f812a6989000000000000000000000000000000000000000000000000000000008152fd5b6152af91929350612509906152a96152a2615a03565b9582612f88565b906136f2565b91161415898f80614fb0565b509a9796989550509792508091505b61530957505050506102e392916114966153049273ffffffffffffffffffffffffffffffffffffffff16600052600b602052604060002090565b614e85565b61531c90615315615a03565b3087615a87565b80615326836116e2565b92101561533e57615337828461169f565b51806152ca565b6000806152ca565b9650905061536761406d610100614b1e61535f8b61168d565b51809a613424565b908a614f55565b604051906105e0820182811067ffffffffffffffff82111761020a57604052602e82526105c0366020840137565b90815181101561169a570160200190565b908151156154ec576153bd61536e565b9160009060006153cc8561168d565b526001918151916000925b8084106153fd57505050506153f36153f8916107279394615b12565b615b55565b615bba565b9091929461544661544061543a615414898761539c565b517fff000000000000000000000000000000000000000000000000000000000000001690565b60f81c90565b60ff1690565b9184925b60ff90898289168610156154ab576001929161547f6154796154406154728a6154859661169f565b5160ff1690565b60081b90565b906132a2565b6154a28b61549a88603a95868606169261169f565b9060ff169052565b0493019261544a565b50919594935050809691965b6154c55750600101926153d7565b9460ff6001603a926154e283858b061661549a8d8685169061169f565b01169504806154b7565b9050610727613526565b604051906155038261022b565b600682527f66666539303000000000000000000000000000000000000000000000000000006020830152565b6040519061553c8261022b565b600682527f66666337303000000000000000000000000000000000000000000000000000006020830152565b604051906155758261022b565b600682527f66336136303300000000000000000000000000000000000000000000000000006020830152565b604051906155ae8261022b565b600682527f39363561316100000000000000000000000000000000000000000000000000006020830152565b604051906155e78261022b565b600682527f66663763303200000000000000000000000000000000000000000000000000006020830152565b604051906156208261022b565b600682527f66643336303000000000000000000000000000000000000000000000000000006020830152565b604051906156598261022b565b600682527f63333265306400000000000000000000000000000000000000000000000000006020830152565b604051906156928261022b565b600682527f66666438633500000000000000000000000000000000000000000000000000006020830152565b604051906156cb8261022b565b600682527f66663936613900000000000000000000000000000000000000000000000000006020830152565b604051906157048261022b565b600682527f66653538386200000000000000000000000000000000000000000000000000006020830152565b6040519061573d8261022b565b600682527f63393266343500000000000000000000000000000000000000000000000000006020830152565b604051906157768261022b565b600682527f36376437353700000000000000000000000000000000000000000000000000006020830152565b604051906157af8261022b565b600682527f33306132323000000000000000000000000000000000000000000000000000006020830152565b604051906157e88261022b565b600682527f32313761313500000000000000000000000000000000000000000000000000006020830152565b604051906158218261022b565b600482527f6e6f6e65000000000000000000000000000000000000000000000000000000006020830152565b6040519061585a8261022b565b600682527f65343833656600000000000000000000000000000000000000000000000000006020830152565b604051906158938261022b565b600682527f64633266656600000000000000000000000000000000000000000000000000006020830152565b6001810361590657506158d0615769565b906158d96157a2565b906158e26157db565b906158eb615814565b906158f461584d565b906158fd615886565b90610727615886565b6002810361594d5750615917615685565b906159206156be565b906159296156f7565b90615932615730565b9061593b615685565b906159446156be565b906107276156f7565b60038103615994575061595e615568565b906159676155da565b90615970615613565b9061597961564c565b90615982615568565b9061598b6155da565b90610727615613565b6004146159c55760046040517fee72de6c000000000000000000000000000000000000000000000000000000008152fd5b6159cd6154f6565b906159d661552f565b906159df615568565b906159e86155a1565b906159f16154f6565b906159fa61552f565b90610727615568565b73ffffffffffffffffffffffffffffffffffffffff7f000000000000000000000000b2b5841dbef766d4b521221732f9b618fcf34a8716331480615a7c575b15615a78577fffffffffffffffffffffffffffffffffffffffffffffffffffffffffffffffec36013681116114d3573560601c90565b3390565b506014361015615a42565b9092919273ffffffffffffffffffffffffffffffffffffffff80921690813b1561050357600060649281958560405198899788967f42842e0e00000000000000000000000000000000000000000000000000000000885216600487015216602485015260448401525af1801561247d57615afe5750565b67ffffffffffffffff811161020a57604052565b9060ff80911690615b228261160f565b9260005b838110615b34575050505090565b8083615b426001938561169f565b5116615b4e828861169f565b5201615b26565b908151615b618161160f565b9060005b818110615b73575090925050565b8060ff615ba77fffffffffffffffffffffffffffffffffffffffffffffffffffffffffffffffff600194895103018861169f565b5116615bb3828661169f565b5201615b65565b8051615bc581611236565b91604090615bd66040519485610263565b828452615be283611236565b907fffffffffffffffffffffffffffffffffffffffffffffffffffffffffffffffe06020920136602087013760009260005b858110615c245750505050505090565b6001907fff00000000000000000000000000000000000000000000000000000000000000615cb88451615c5681610247565b603a81527f31323334353637383941424344454647484a4b4c4d4e50515253545556575859888201527f5a6162636465666768696a6b6d6e6f707172737475767778797a0000000000008682015260ff615cb0858961169f565b51169061539c565b5116861a615cc6828a61539c565b5301615c1456fea26469706673582212208a0b5cb826a40ae43e49e65b6dd51c1628e3990cc3d1e1075ff3dd4aeea33a9e64736f6c63430008170033",
	"devdoc": {
		"kind": "dev",
		"methods": {
			"assetIdsOf(address,uint256)": {
				"custom:param": "hook The hook address of the collection.",
				"params": {
					"nakedBannyId": "The ID of the naked banny shows with the associated assets."
				},
				"returns": {
					"outfitIds": "The outfits attached to the Naked Banny.",
					"worldId": "The world attached to the Naked Banny."
				}
			},
			"constructor": {
				"params": {
					"owner": "The owner allowed to add SVG files that correspond to product IDs.",
					"trustedForwarder": "The trusted forwarder for the ERC2771Context."
				}
			},
			"decorateBannyWith(address,uint256,uint256,uint256[])": {
				"details": "The caller must own the naked banny being dressed and all outfits being worn.",
				"params": {
					"hook": "The hook storing the assets.",
					"nakedBannyId": "The ID of the Naked Banny being dressed.",
					"outfitIds": "The IDs of the outfits that'll be associated with the specified banny. Only one outfit per outfit category allowed at a time and they must be passed in order.",
					"worldId": "The ID of the world that'll be associated with the specified banny."
				}
			},
			"isTrustedForwarder(address)": {
				"details": "Indicates whether any particular address is the trusted forwarder."
			},
			"lockOutfitChangesFor(address,uint256,uint256)": {
				"params": {
					"duration": "The amount of seconds to lock the naked banny for.",
					"hook": "The hook address of the collection.",
					"nakedBannyId": "The ID of the Naked Banny to lock."
				}
			},
			"namesOf(address,uint256)": {
				"params": {
					"hook": "The hook storing the assets.",
					"tokenId": "The ID of the token to show."
				},
				"returns": {
					"_0": "fullName The full name of the token.",
					"_1": "categoryName The name of the token's category.",
					"_2": "productName The name of the token's product."
				}
			},
			"onERC721Received(address,address,uint256,bytes)": {
				"details": "Make sure tokens can be receieved if the transaction was initiated by this contract."
			},
			"owner()": {
				"details": "Returns the address of the current owner."
			},
			"renounceOwnership()": {
				"details": "Leaves the contract without owner. It will not be possible to call `onlyOwner` functions. Can only be called by the current owner. NOTE: Renouncing ownership will leave the contract without an owner, thereby disabling any functionality that is only available to the owner."
			},
			"setProductNames(uint256[],string[])": {
				"params": {
					"names": "The names of the products.",
					"upcs": "The universal product codes of the products having their name stored."
				}
			},
			"setSvgContentsOf(uint256[],string[])": {
				"params": {
					"svgContents": "The svg contents being stored, not including the parent <svg></svg> element.",
					"upcs": "The universal product codes of the products having SVGs stored."
				}
			},
			"setSvgHashsOf(uint256[],bytes32[])": {
				"details": "This allows anyone to lazily upload the correct svg file.",
				"params": {
					"svgHashs": "The svg hashes being stored, not including the parent <svg></svg> element.",
					"upcs": "The universal product codes of the products having SVG hashes stored."
				}
			},
			"svgOf(address,uint256,bool,bool)": {
				"params": {
					"hook": "The hook storing the assets.",
					"shouldDressNakedBanny": "Whether the naked banny should be dressed.",
					"shouldIncludeWorldOnNakedBanny": "Whether the world should be included on the naked banny.",
					"tokenId": "The ID of the token to show. If the ID belongs to a Naked Banny, it will be shown with its current outfits in its current world if specified."
				},
				"returns": {
					"_0": "svg The SVG."
				}
			},
			"tokenUriOf(address,uint256)": {
				"params": {
					"tokenId": "The ID of the token to show. If the ID belongs to a Naked Banny, it will be shown with its current outfits in its current world."
				},
				"returns": {
					"_0": "tokenUri The URI representing the SVG."
				}
			},
			"transferOwnership(address)": {
				"details": "Transfers ownership of the contract to a new account (`newOwner`). Can only be called by the current owner."
			},
			"trustedForwarder()": {
				"details": "Returns the address of the trusted forwarder."
			},
			"userOf(address,uint256)": {
				"custom:param": "hook The hook address of the collection.",
				"params": {
					"worldId": "The ID of the world being used."
				},
				"returns": {
					"_0": "The ID of the naked banny using the world."
				}
			},
			"wearerOf(address,uint256)": {
				"custom:param": "hook The hook address of the collection.",
				"params": {
					"outfitId": "The ID of the outfit being worn."
				},
				"returns": {
					"_0": "The ID of the naked banny wearing the outfit."
				}
			}
		},
		"version": 1
	},
	"userdoc": {
		"kind": "user",
		"methods": {
			"assetIdsOf(address,uint256)": {
				"notice": "The assets currently attached to each Naked Banny."
			},
			"decorateBannyWith(address,uint256,uint256,uint256[])": {
				"notice": "Dress your Naked Banny with outfits."
			},
			"lockOutfitChangesFor(address,uint256,uint256)": {
				"notice": "Locks a naked banny ID so that it can't change its outfit for a period of time."
			},
			"namesOf(address,uint256)": {
				"notice": "Returns the name of the token."
			},
			"outfitLockedUntil(address,address,uint256)": {
				"notice": "The amount of time each naked banny is currently locked for."
			},
			"setProductNames(uint256[],string[])": {
				"notice": "Allows the owner to set the product's name."
			},
			"setSvgBaseUri(string)": {
				"notice": "Allows the owner of this contract to specify the base of the domain hosting the SVG files."
			},
			"setSvgContentsOf(uint256[],string[])": {
				"notice": "The owner of this contract can store SVG files for product IDs."
			},
			"setSvgHashsOf(uint256[],bytes32[])": {
				"notice": "Allows the owner of this contract to upload the hash of an svg file for a universal product code."
			},
			"svgBaseUri()": {
				"notice": "The base of the domain hosting the SVG files that can be lazily uploaded to the contract."
			},
			"svgHashOf(uint256)": {
				"notice": "The Naked Banny and outfit SVG hash files."
			},
			"svgOf(address,uint256,bool,bool)": {
				"notice": "Returns the SVG showing either a naked banny with/without outfits and a world, or the stand alone outfit or world."
			},
			"tokenUriOf(address,uint256)": {
				"notice": "Returns the SVG showing a dressed Naked Banny in a world."
			},
			"userOf(address,uint256)": {
				"notice": "Checks to see which naked banny is currently using a particular world."
			},
			"wearerOf(address,uint256)": {
				"notice": "Checks to see which naked banny is currently wearing a particular outfit."
			}
		},
		"version": 1
	},
	"gitCommit": "e2f3f7a484306dab88ae99e1f6937d1a53ab858a",
	"sourceName": "src/Banny721TokenUriResolver.sol",
	"chainId": "11155111",
	"linkReferences": {},
	"deployedLinkReferences": {},
	"history": []
}