{
	"_format": "sphinx-sol-ct-artifact-1",
	"merkleRoot": "0x8c8bcf5914412ca203d9597047f9626518f042c01ef34db984b2fe108ff463b3",
	"contractName": "Banny721TokenUriResolver",
	"address": "0x238C0c8B475fEAB628875408d7CEfBd9a7f0c3C3",
	"abi": [
		{
			"type": "constructor",
			"inputs": [
				{
					"name": "nakedBanny",
					"type": "string",
					"internalType": "string"
				},
				{
					"name": "defaultNecklace",
					"type": "string",
					"internalType": "string"
				},
				{
					"name": "defaultMouth",
					"type": "string",
					"internalType": "string"
				},
				{
					"name": "defaultStandardEyes",
					"type": "string",
					"internalType": "string"
				},
				{
					"name": "defaultAlienEyes",
					"type": "string",
					"internalType": "string"
				},
				{
					"name": "owner",
					"type": "address",
					"internalType": "address"
				},
				{
					"name": "trustedForwarder",
					"type": "address",
					"internalType": "address"
				}
			],
			"stateMutability": "nonpayable"
		},
		{
			"type": "function",
			"name": "DEFAULT_ALIEN_EYES",
			"inputs": [],
			"outputs": [
				{
					"name": "",
					"type": "string",
					"internalType": "string"
				}
			],
			"stateMutability": "view"
		},
		{
			"type": "function",
			"name": "DEFAULT_MOUTH",
			"inputs": [],
			"outputs": [
				{
					"name": "",
					"type": "string",
					"internalType": "string"
				}
			],
			"stateMutability": "view"
		},
		{
			"type": "function",
			"name": "DEFAULT_NECKLACE",
			"inputs": [],
			"outputs": [
				{
					"name": "",
					"type": "string",
					"internalType": "string"
				}
			],
			"stateMutability": "view"
		},
		{
			"type": "function",
			"name": "DEFAULT_STANDARD_EYES",
			"inputs": [],
			"outputs": [
				{
					"name": "",
					"type": "string",
					"internalType": "string"
				}
			],
			"stateMutability": "view"
		},
		{
			"type": "function",
			"name": "NAKED_BANNY",
			"inputs": [],
			"outputs": [
				{
					"name": "",
					"type": "string",
					"internalType": "string"
				}
			],
			"stateMutability": "view"
		},
		{
			"type": "function",
			"name": "assetIdsOf",
			"inputs": [
				{
					"name": "hook",
					"type": "address",
					"internalType": "address"
				},
				{
					"name": "nakedBannyId",
					"type": "uint256",
					"internalType": "uint256"
				}
			],
			"outputs": [
				{
					"name": "worldId",
					"type": "uint256",
					"internalType": "uint256"
				},
				{
					"name": "outfitIds",
					"type": "uint256[]",
					"internalType": "uint256[]"
				}
			],
			"stateMutability": "view"
		},
		{
			"type": "function",
			"name": "decorateBannyWith",
			"inputs": [
				{
					"name": "hook",
					"type": "address",
					"internalType": "address"
				},
				{
					"name": "nakedBannyId",
					"type": "uint256",
					"internalType": "uint256"
				},
				{
					"name": "worldId",
					"type": "uint256",
					"internalType": "uint256"
				},
				{
					"name": "outfitIds",
					"type": "uint256[]",
					"internalType": "uint256[]"
				}
			],
			"outputs": [],
			"stateMutability": "nonpayable"
		},
		{
			"type": "function",
			"name": "isTrustedForwarder",
			"inputs": [
				{
					"name": "forwarder",
					"type": "address",
					"internalType": "address"
				}
			],
			"outputs": [
				{
					"name": "",
					"type": "bool",
					"internalType": "bool"
				}
			],
			"stateMutability": "view"
		},
		{
			"type": "function",
			"name": "lockOutfitChangesFor",
			"inputs": [
				{
					"name": "hook",
					"type": "address",
					"internalType": "address"
				},
				{
					"name": "nakedBannyId",
					"type": "uint256",
					"internalType": "uint256"
				},
				{
					"name": "duration",
					"type": "uint256",
					"internalType": "uint256"
				}
			],
			"outputs": [],
			"stateMutability": "nonpayable"
		},
		{
			"type": "function",
			"name": "namesOf",
			"inputs": [
				{
					"name": "hook",
					"type": "address",
					"internalType": "address"
				},
				{
					"name": "tokenId",
					"type": "uint256",
					"internalType": "uint256"
				}
			],
			"outputs": [
				{
					"name": "",
					"type": "string",
					"internalType": "string"
				},
				{
					"name": "",
					"type": "string",
					"internalType": "string"
				},
				{
					"name": "",
					"type": "string",
					"internalType": "string"
				}
			],
			"stateMutability": "view"
		},
		{
			"type": "function",
			"name": "onERC721Received",
			"inputs": [
				{
					"name": "operator",
					"type": "address",
					"internalType": "address"
				},
				{
					"name": "from",
					"type": "address",
					"internalType": "address"
				},
				{
					"name": "tokenId",
					"type": "uint256",
					"internalType": "uint256"
				},
				{
					"name": "data",
					"type": "bytes",
					"internalType": "bytes"
				}
			],
			"outputs": [
				{
					"name": "",
					"type": "bytes4",
					"internalType": "bytes4"
				}
			],
			"stateMutability": "view"
		},
		{
			"type": "function",
			"name": "outfitLockedUntil",
			"inputs": [
				{
					"name": "hook",
					"type": "address",
					"internalType": "address"
				},
				{
					"name": "upc",
					"type": "uint256",
					"internalType": "uint256"
				}
			],
			"outputs": [
				{
					"name": "",
					"type": "uint256",
					"internalType": "uint256"
				}
			],
			"stateMutability": "view"
		},
		{
			"type": "function",
			"name": "owner",
			"inputs": [],
			"outputs": [
				{
					"name": "",
					"type": "address",
					"internalType": "address"
				}
			],
			"stateMutability": "view"
		},
		{
			"type": "function",
			"name": "renounceOwnership",
			"inputs": [],
			"outputs": [],
			"stateMutability": "nonpayable"
		},
		{
			"type": "function",
			"name": "setProductNames",
			"inputs": [
				{
					"name": "upcs",
					"type": "uint256[]",
					"internalType": "uint256[]"
				},
				{
					"name": "names",
					"type": "string[]",
					"internalType": "string[]"
				}
			],
			"outputs": [],
			"stateMutability": "nonpayable"
		},
		{
			"type": "function",
			"name": "setSvgBaseUri",
			"inputs": [
				{
					"name": "baseUri",
					"type": "string",
					"internalType": "string"
				}
			],
			"outputs": [],
			"stateMutability": "nonpayable"
		},
		{
			"type": "function",
			"name": "setSvgContentsOf",
			"inputs": [
				{
					"name": "upcs",
					"type": "uint256[]",
					"internalType": "uint256[]"
				},
				{
					"name": "svgContents",
					"type": "string[]",
					"internalType": "string[]"
				}
			],
			"outputs": [],
			"stateMutability": "nonpayable"
		},
		{
			"type": "function",
			"name": "setSvgHashsOf",
			"inputs": [
				{
					"name": "upcs",
					"type": "uint256[]",
					"internalType": "uint256[]"
				},
				{
					"name": "svgHashs",
					"type": "bytes32[]",
					"internalType": "bytes32[]"
				}
			],
			"outputs": [],
			"stateMutability": "nonpayable"
		},
		{
			"type": "function",
			"name": "svgBaseUri",
			"inputs": [],
			"outputs": [
				{
					"name": "",
					"type": "string",
					"internalType": "string"
				}
			],
			"stateMutability": "view"
		},
		{
			"type": "function",
			"name": "svgHashOf",
			"inputs": [
				{
					"name": "upc",
					"type": "uint256",
					"internalType": "uint256"
				}
			],
			"outputs": [
				{
					"name": "",
					"type": "bytes32",
					"internalType": "bytes32"
				}
			],
			"stateMutability": "view"
		},
		{
			"type": "function",
			"name": "svgOf",
			"inputs": [
				{
					"name": "hook",
					"type": "address",
					"internalType": "address"
				},
				{
					"name": "tokenId",
					"type": "uint256",
					"internalType": "uint256"
				},
				{
					"name": "shouldDressNakedBanny",
					"type": "bool",
					"internalType": "bool"
				},
				{
					"name": "shouldIncludeWorldOnNakedBanny",
					"type": "bool",
					"internalType": "bool"
				}
			],
			"outputs": [
				{
					"name": "",
					"type": "string",
					"internalType": "string"
				}
			],
			"stateMutability": "view"
		},
		{
			"type": "function",
			"name": "tokenUriOf",
			"inputs": [
				{
					"name": "hook",
					"type": "address",
					"internalType": "address"
				},
				{
					"name": "tokenId",
					"type": "uint256",
					"internalType": "uint256"
				}
			],
			"outputs": [
				{
					"name": "",
					"type": "string",
					"internalType": "string"
				}
			],
			"stateMutability": "view"
		},
		{
			"type": "function",
			"name": "transferOwnership",
			"inputs": [
				{
					"name": "newOwner",
					"type": "address",
					"internalType": "address"
				}
			],
			"outputs": [],
			"stateMutability": "nonpayable"
		},
		{
			"type": "function",
			"name": "trustedForwarder",
			"inputs": [],
			"outputs": [
				{
					"name": "",
					"type": "address",
					"internalType": "address"
				}
			],
			"stateMutability": "view"
		},
		{
			"type": "function",
			"name": "userOf",
			"inputs": [
				{
					"name": "hook",
					"type": "address",
					"internalType": "address"
				},
				{
					"name": "worldId",
					"type": "uint256",
					"internalType": "uint256"
				}
			],
			"outputs": [
				{
					"name": "",
					"type": "uint256",
					"internalType": "uint256"
				}
			],
			"stateMutability": "view"
		},
		{
			"type": "function",
			"name": "wearerOf",
			"inputs": [
				{
					"name": "hook",
					"type": "address",
					"internalType": "address"
				},
				{
					"name": "outfitId",
					"type": "uint256",
					"internalType": "uint256"
				}
			],
			"outputs": [
				{
					"name": "",
					"type": "uint256",
					"internalType": "uint256"
				}
			],
			"stateMutability": "view"
		},
		{
			"type": "event",
			"name": "DecorateBanny",
			"inputs": [
				{
					"name": "hook",
					"type": "address",
					"indexed": true,
					"internalType": "address"
				},
				{
					"name": "nakedBannyId",
					"type": "uint256",
					"indexed": true,
					"internalType": "uint256"
				},
				{
					"name": "worldId",
					"type": "uint256",
					"indexed": true,
					"internalType": "uint256"
				},
				{
					"name": "outfitIds",
					"type": "uint256[]",
					"indexed": false,
					"internalType": "uint256[]"
				},
				{
					"name": "caller",
					"type": "address",
					"indexed": false,
					"internalType": "address"
				}
			],
			"anonymous": false
		},
		{
			"type": "event",
			"name": "OwnershipTransferred",
			"inputs": [
				{
					"name": "previousOwner",
					"type": "address",
					"indexed": true,
					"internalType": "address"
				},
				{
					"name": "newOwner",
					"type": "address",
					"indexed": true,
					"internalType": "address"
				}
			],
			"anonymous": false
		},
		{
			"type": "event",
			"name": "SetProductName",
			"inputs": [
				{
					"name": "upc",
					"type": "uint256",
					"indexed": true,
					"internalType": "uint256"
				},
				{
					"name": "name",
					"type": "string",
					"indexed": false,
					"internalType": "string"
				},
				{
					"name": "caller",
					"type": "address",
					"indexed": false,
					"internalType": "address"
				}
			],
			"anonymous": false
		},
		{
			"type": "event",
			"name": "SetSvgBaseUri",
			"inputs": [
				{
					"name": "baseUri",
					"type": "string",
					"indexed": false,
					"internalType": "string"
				},
				{
					"name": "caller",
					"type": "address",
					"indexed": false,
					"internalType": "address"
				}
			],
			"anonymous": false
		},
		{
			"type": "event",
			"name": "SetSvgContent",
			"inputs": [
				{
					"name": "upc",
					"type": "uint256",
					"indexed": true,
					"internalType": "uint256"
				},
				{
					"name": "svgContent",
					"type": "string",
					"indexed": false,
					"internalType": "string"
				},
				{
					"name": "caller",
					"type": "address",
					"indexed": false,
					"internalType": "address"
				}
			],
			"anonymous": false
		},
		{
			"type": "event",
			"name": "SetSvgHash",
			"inputs": [
				{
					"name": "upc",
					"type": "uint256",
					"indexed": true,
					"internalType": "uint256"
				},
				{
					"name": "svgHash",
					"type": "bytes32",
					"indexed": true,
					"internalType": "bytes32"
				},
				{
					"name": "caller",
					"type": "address",
					"indexed": false,
					"internalType": "address"
				}
			],
			"anonymous": false
		},
		{
			"type": "error",
			"name": "Banny721TokenUriResolver_CantAccelerateTheLock",
			"inputs": []
		},
		{
			"type": "error",
			"name": "Banny721TokenUriResolver_ContentsAlreadyStored",
			"inputs": []
		},
		{
			"type": "error",
			"name": "Banny721TokenUriResolver_ContentsMismatch",
			"inputs": []
		},
		{
			"type": "error",
			"name": "Banny721TokenUriResolver_HashAlreadyStored",
			"inputs": []
		},
		{
			"type": "error",
			"name": "Banny721TokenUriResolver_HashNotFound",
			"inputs": []
		},
		{
			"type": "error",
			"name": "Banny721TokenUriResolver_HeadAlreadyAdded",
			"inputs": []
		},
		{
			"type": "error",
			"name": "Banny721TokenUriResolver_LockedNakedBanny",
			"inputs": []
		},
		{
			"type": "error",
			"name": "Banny721TokenUriResolver_OutfitChangesLocked",
			"inputs": []
		},
		{
			"type": "error",
			"name": "Banny721TokenUriResolver_SuitAlreadyAdded",
			"inputs": []
		},
		{
			"type": "error",
			"name": "Banny721TokenUriResolver_UnauthorizedNakedBanny",
			"inputs": []
		},
		{
			"type": "error",
			"name": "Banny721TokenUriResolver_UnauthorizedOutfit",
			"inputs": []
		},
		{
			"type": "error",
			"name": "Banny721TokenUriResolver_UnauthorizedTransfer",
			"inputs": []
		},
		{
			"type": "error",
			"name": "Banny721TokenUriResolver_UnauthorizedWorld",
			"inputs": []
		},
		{
			"type": "error",
			"name": "Banny721TokenUriResolver_UnorderedCategories",
			"inputs": []
		},
		{
			"type": "error",
			"name": "Banny721TokenUriResolver_UnrecognizedCategory",
			"inputs": []
		},
		{
			"type": "error",
			"name": "Banny721TokenUriResolver_UnrecognizedProduct",
			"inputs": []
		},
		{
			"type": "error",
			"name": "Banny721TokenUriResolver_UnrecognizedWorld",
			"inputs": []
		},
		{
			"type": "error",
			"name": "OwnableInvalidOwner",
			"inputs": [
				{
					"name": "owner",
					"type": "address",
					"internalType": "address"
				}
			]
		},
		{
			"type": "error",
			"name": "OwnableUnauthorizedAccount",
			"inputs": [
				{
					"name": "account",
					"type": "address",
					"internalType": "address"
				}
			]
		}
	],
	"solcInputHash": "ca9e5b6c47a2b3805f691241d23e4246",
	"args": [
		"<g class=\"a1\"><path d=\"M173 53h4v17h-4z\"/></g><g class=\"a2\"><path d=\"M167 57h3v10h-3z\"/><path d=\"M169 53h4v17h-4z\"/></g><g class=\"a3\"><path d=\"M167 53h3v4h-3z\"/><path d=\"M163 57h4v10h-4z\"/><path d=\"M167 67h3v3h-3z\"/></g><g class=\"b1\"><path d=\"M213 253h-3v-3-3h-3v-7-3h-4v-10h-3v-7-7-3h-3v-73h-4v-10h-3v-10h-3v-7h-4v-7h-3v-3h-3v-3h-4v10h4v10h3v10h3v3h4v7 3 70 3h3v7h3v20h4v7h3v3h3v3h4v4h3v3h3v-3-4z\"/><path d=\"M253 307v-4h-3v-3h-3v-3h-4v-4h-3v-3h-3v-3h-4v-4h-3v-3h-3v-3h-4v-4h-3v-6h-3v-7h-4v17h4v3h3v3h3 4v4h3v3h3v3h4v4h3v3h3v3h4v4h3v3h3v3h4v-6h-4z\"/></g><g class=\"b2\"><path d=\"M250 310v-3h-3v-4h-4v-3h-3v-3h-3v-4h-4v-3h-3v-3h-3v-4h-7v-3h-3v-3h-4v-17h-3v-3h-3v-4h-4v-3h-3v-3h-3v-7h-4v-20h-3v-7h-3v-73-3-7h-4v-3h-3v-10h-3v-10h-4V70h-3v-3l-3 100 3-100v40h-3v10h-4v6h-3v14h-3v3 13h-4v44h4v16h3v14h3v13h4v10h3v7h3v3h4v3h3v4h3v3h4v3h3v4h3v3h4v3h3v7h7v7h6v3h7v3h7v4h13v3h3v3h10v-3h-3zm-103-87v-16h3v-10h-3v6h-4v17h-3v10h3v-7h4z\"/><path d=\"M143 230h4v7h-4zm4 10h3v3h-3zm3 7h3v3h-3zm3 6h4v4h-4z\"/><path d=\"M163 257h-6v3h3v3h3v4h4v-4-3h-4v-3z\"/></g><g class=\"b3\"><path d=\"M143 197v6h4v-6h6v-44h4v-16h3v-14h3v-6h4v-10h3V97h-7v6h-3v4h-3v3h-4v3h-3v4 3h-3v3 4h-4v10h-3v16 4h-3v46h3v-6h3z\"/><path d=\"M140 203h3v17h-3z\"/><path d=\"M137 220h3v10h-3z\"/><path d=\"M153 250h-3v-7h-3v-6h-4v-7h-3v10h3v7h4v6h3v4h3v-7zm-3 10h3v7h-3z\"/><path d=\"M147 257h3v3h-3zm6 0h4v3h-4z\"/><path d=\"M160 263v-3h-3v3 7h6v-7h-3zm-10-56v16h-3v7h3v10h3v7h4v6h6v4h7v-4-3h-3v-10h-4v-13h-3v-14h-3v-16h-4v10h-3z\"/><path d=\"M243 313v-3h-3v-3h-10-3v-4h-7v-3h-7v-3h-6v-7h-7v-7h-3v-3h-4v-3h-3v-4h-3v-3h-4v-3h-3v-4h-3v-3h-4v-3h-3v10h-3v3h-4v3h-3v7h3v7h4v6h3v5h4v3h6v3h3v3h4 3v3h3 4v3h3 3v4h10v3h7 7 3v3h10 3v-3h10v-3h4v-4h-14z\"/></g><g class=\"b4\"><path d=\"M183 130h4v7h-4z\"/><path d=\"M180 127h3v3h-3zm-27-4h4v7h-4z\"/><path d=\"M157 117h3v6h-3z\"/><path d=\"M160 110h3v7h-3z\"/><path d=\"M163 107h4v3h-4zm-3 83h3v7h-3z\"/><path d=\"M163 187h4v3h-4zm20 0h7v3h-7z\"/><path d=\"M180 190h3v3h-3zm10-7h3v4h-3z\"/><path d=\"M193 187h4v6h-4zm-20 53h4v7h-4z\"/><path d=\"M177 247h3v6h-3z\"/><path d=\"M180 253h3v7h-3z\"/><path d=\"M183 260h7v3h-7z\"/><path d=\"M190 263h3v4h-3zm0-20h3v4h-3z\"/><path d=\"M187 240h3v3h-3z\"/><path d=\"M190 237h3v3h-3zm13 23h4v3h-4z\"/><path d=\"M207 263h3v7h-3z\"/><path d=\"M210 270h3v3h-3zm-10 7h3v6h-3z\"/><path d=\"M203 283h4v7h-4z\"/><path d=\"M207 290h6v3h-6z\"/></g><g class=\"o\"><path d=\"M133 157h4v50h-4zm0 63h4v10h-4zm27-163h3v10h-3z\"/><path d=\"M163 53h4v4h-4z\"/><path d=\"M167 50h10v3h-10z\"/><path d=\"M177 53h3v17h-3z\"/><path d=\"M173 70h4v27h-4zm-6 0h3v27h-3z\"/><path d=\"M163 67h4v3h-4zm0 30h4v3h-4z\"/><path d=\"M160 100h3v3h-3z\"/><path d=\"M157 103h3v4h-3z\"/><path d=\"M153 107h4v3h-4z\"/><path d=\"M150 110h3v3h-3z\"/><path d=\"M147 113h3v7h-3z\"/><path d=\"M143 120h4v7h-4z\"/><path d=\"M140 127h3v10h-3z\"/><path d=\"M137 137h3v20h-3zm56-10h4v10h-4z\"/><path d=\"M190 117h3v10h-3z\"/><path d=\"M187 110h3v7h-3z\"/><path d=\"M183 103h4v7h-4z\"/><path d=\"M180 100h3v3h-3z\"/><path d=\"M177 97h3v3h-3zm-40 106h3v17h-3zm0 27h3v10h-3zm10 30h3v7h-3z\"/><path d=\"M150 257v-4h-3v-6h-4v-7h-3v10h3v10h4v-3h3z\"/><path d=\"M150 257h3v3h-3z\"/><path d=\"M163 273v-3h-6v-10h-4v7h-3v3h3v3h4v7h3v-7h3z\"/><path d=\"M163 267h4v3h-4z\"/><path d=\"M170 257h-3-4v3h4v7h3v-10z\"/><path d=\"M157 253h6v4h-6z\"/><path d=\"M153 247h4v6h-4z\"/><path d=\"M150 240h3v7h-3z\"/><path d=\"M147 230h3v10h-3zm13 50h3v7h-3z\"/><path d=\"M143 223h4v7h-4z\"/><path d=\"M147 207h3v16h-3z\"/><path d=\"M150 197h3v10h-3zm-10 0h3v6h-3zm50 113h7v3h-7zm23 10h17v3h-17z\"/><path d=\"M230 323h13v4h-13z\"/><path d=\"M243 320h10v3h-10z\"/><path d=\"M253 317h4v3h-4z\"/><path d=\"M257 307h3v10h-3z\"/><path d=\"M253 303h4v4h-4z\"/><path d=\"M250 300h3v3h-3z\"/><path d=\"M247 297h3v3h-3z\"/><path d=\"M243 293h4v4h-4z\"/><path d=\"M240 290h3v3h-3z\"/><path d=\"M237 287h3v3h-3z\"/><path d=\"M233 283h4v4h-4z\"/><path d=\"M230 280h3v3h-3z\"/><path d=\"M227 277h3v3h-3z\"/><path d=\"M223 273h4v4h-4z\"/><path d=\"M220 267h3v6h-3z\"/><path d=\"M217 260h3v7h-3z\"/><path d=\"M213 253h4v7h-4z\"/><path d=\"M210 247h3v6h-3z\"/><path d=\"M207 237h3v10h-3z\"/><path d=\"M203 227h4v10h-4zm-40 60h4v6h-4zm24 20h3v3h-3z\"/><path d=\"M167 293h3v5h-3zm16 14h4v3h-4z\"/><path d=\"M170 298h4v3h-4zm10 6h3v3h-3z\"/><path d=\"M174 301h6v3h-6zm23 12h6v4h-6z\"/><path d=\"M203 317h10v3h-10zm-2-107v-73h-4v73h3v17h3v-17h-2z\"/></g><g class=\"o\"><path d=\"M187 307v-4h3v-6h-3v-4h-4v-3h-3v-3h-7v-4h-6v4h-4v3h4v27h-4v13h-3v10h-4v7h4v3h3 10 14v-3h-4v-4h-3v-3h-3v-3h-4v-7h4v-10h3v-7h3v-3h7v-3h-3zm16 10v-4h-6v17h-4v10h-3v7h3v3h4 6 4 3 14v-3h-4v-4h-7v-3h-3v-3h-3v-10h3v-7h3v-3h-10z\"/></g>",
		"<g class=\"o\"><path d=\"M190 173h-37v-3h-10v-4h-6v4h3v3h-3v4h6v3h10v4h37v-4h3v-3h-3v-4zm-40 4h-3v-4h3v4zm7 3v-3h3v3h-3zm6 0v-3h4v3h-4zm7 0v-3h3v3h-3zm7 0v-3h3v3h-3zm10 0h-4v-3h4v3z\"/><path d=\"M190 170h3v3h-3z\"/><path d=\"M193 166h4v4h-4zm0 7h4v4h-4z\"/></g><g class=\"w\"><path d=\"M137 170h3v3h-3zm10 3h3v4h-3zm10 4h3v3h-3zm6 0h4v3h-4zm7 0h3v3h-3zm7 0h3v3h-3zm6 0h4v3h-4zm7-4h3v4h-3z\"/><path d=\"M193 170h4v3h-4z\"/></g>",
		"<g class=\"o\"><path d=\"M183 160v-4h-20v4h-3v3h3v4h24v-7h-4zm-13 3v-3h10v3h-10z\" fill=\"#ad71c8\"/><path d=\"M170 160h10v3h-10z\"/></g>",
		"<g class=\"o\"><path d=\"M177 140v3h6v11h10v-11h4v-3h-20z\"/><path d=\"M153 140v3h7v8 3h7 3v-11h3v-3h-20z\"/></g><g class=\"w\"><path d=\"M153 143h7v4h-7z\"/><path d=\"M157 147h3v3h-3zm20-4h6v4h-6z\"/><path d=\"M180 147h3v3h-3z\"/></g>",
		"<g class=\"o\"><path d=\"M190 127h3v3h-3zm3 13h4v3h-4zm-42 0h6v6h-6z\"/><path d=\"M151 133h3v7h-3zm10 0h6v4h-6z\"/><path d=\"M157 137h17v6h-17zm3 13h14v3h-14zm17-13h7v16h-7z\"/><path d=\"M184 137h6v6h-6zm0 10h10v6h-10z\"/><path d=\"M187 143h10v4h-10z\"/><path d=\"M190 140h3v3h-3zm-6-10h3v7h-3z\"/><path d=\"M187 130h6v3h-6zm-36 0h10v3h-10zm16 13h7v7h-7zm-10 0h7v7h-7z\"/><path d=\"M164 147h3v3h-3zm29-20h4v6h-4z\"/><path d=\"M194 133h3v7h-3z\"/></g><g class=\"w\"><path d=\"M154 133h7v4h-7z\"/><path d=\"M154 137h3v3h-3zm10 6h3v4h-3zm20 0h3v4h-3zm3-10h7v4h-7z\"/><path d=\"M190 137h4v3h-4z\"/></g>",
		"0x961d4191965C49537c88F764D88318872CE405bE",
		"0xB2b5841DBeF766d4b521221732F9B618fCf34A87"
	],
	"bytecode": "0x60a060405234620007b95762006500803803806200001d81620007be565b928339810160e082820312620007b95781516001600160401b0390818111620007b957826200004e918501620007fa565b60209283850151838111620007b957816200006b918701620007fa565b906040860151848111620007b9578162000087918801620007fa565b956060810151858111620007b95782620000a3918301620007fa565b91608082015190868211620007b957620000bf918301620007fa565b91620000dc60c0620000d460a085016200086c565b93016200086c565b6001600160a01b039283168015620007a057600080546001600160a01b03198116831782559094167f8be0079c531659141344cd1fd0a4f28419497f9722a3daafe3b4186f6b6457e08580a3608052845193868511620004f457600854946001968787811c9716801562000795575b8a881014620005ca578190601f9788811162000741575b508a90888311600114620006da578692620006ce575b5050600019600383901b1c191690871b176008555b805190878211620006ba576006548781811c91168015620006af575b8a821014620005ca579081878493116200065b575b508990878311600114620005f5578592620005e9575b5050600019600383901b1c191690861b176006555b8751868111620004f45760059889548781811c91168015620005de575b8a821014620005ca5790818784931162000578575b5089908783116001146200051457859262000508575b5050600019600383901b1c191690861b1788555b805190868211620004f4576007548681811c91168015620004e9575b89821014620004d55790818684931162000483575b5088908683116001146200041d57849262000411575b5050600019600383901b1c191690851b176007555b8151948511620003fd576004968754908582811c92168015620003f2575b88831014620003df5784821162000399575b5050859285116001146200033257939450849291908362000326575b50501b916000199060031b1c19161790555b604051615c7e9081620008828239608051818181610b9601528181610cf401526159d10152f35b015192503880620002ed565b86815285812093958591601f198316915b888383106200037e575050501062000364575b505050811b019055620002ff565b015160001960f88460031b161c1916905538808062000356565b85870151885590960195948501948793509081019062000343565b8883528783209085808901821c8301938a8a10620003d5575b01901c019085905b828110620003c95750620002d1565b838155018590620003ba565b93508293620003b2565b634e487b7160e01b835260228952602483fd5b91607f1691620002bf565b634e487b7160e01b81526041600452602490fd5b0151905038806200028c565b600785528985208894509190601f198416865b8c8282106200046c575050841162000452575b505050811b01600755620002a1565b015160001960f88460031b161c1916905538808062000443565b8385015186558b9790950194938401930162000430565b90915060078452888420868085018c1c8201928b8610620004cb575b91899186959493018d1c01915b828110620004bc57505062000276565b868155859450899101620004ac565b925081926200049f565b634e487b7160e01b84526022600452602484fd5b90607f169062000261565b634e487b7160e01b83526041600452602483fd5b01519050388062000231565b8b86528a86208994509190601f198416875b8d82821062000561575050841162000547575b505050811b01885562000245565b015160001960f88460031b161c1916905538808062000539565b8385015186558c9790950194938401930162000526565b9091508a8552898520878085018d1c8201928c8610620005c0575b918d8b928796959401901c01915b828110620005b15750506200021b565b8781558594508a9101620005a1565b9250819262000593565b634e487b7160e01b85526022600452602485fd5b90607f169062000206565b015190503880620001d4565b600686528a86208994509190601f198416875b8d8282106200064457505084116200062a575b505050811b01600655620001e9565b015160001960f88460031b161c191690553880806200061b565b8385015186558c9790950194938401930162000608565b909150600685528985208780850160051c8201928c8610620006a5575b918a91869594930160051c01915b82811062000696575050620001be565b8781558594508a910162000686565b9250819262000678565b90607f1690620001a9565b634e487b7160e01b84526041600452602484fd5b01519050388062000178565b600887528b87208a94509190601f198416888e5b8282106200072957505084116200070f575b505050811b016008556200018d565b015160001960f88460031b161c1916905538808062000700565b8385015186558d979095019493840193018e620006ee565b909150600886528a86208880850160051c8201928d86106200078b575b918b91869594930160051c01915b8281106200077c57505062000162565b8881558594508b91016200076c565b925081926200075e565b96607f16966200014b565b604051631e4fbdf760e01b815260006004820152602490fd5b600080fd5b6040519190601f01601f191682016001600160401b03811183821017620007e457604052565b634e487b7160e01b600052604160045260246000fd5b919080601f84011215620007b95782516001600160401b038111620007e45760209062000830601f8201601f19168301620007be565b92818452828287010111620007b95760005b8181106200085857508260009394955001015290565b858101830151848201840152820162000842565b51906001600160a01b0382168203620007b95756fe6080604052600436101561001257600080fd5b60003560e01c806257bfdd146101b657806305b2ae1b146101b1578063150b7a02146101ac57806318ab522d146101a75780632150a138146101a25780632580833d1461019d57806331a290ac14610198578063572b6c05146101935780635e703e711461018e5780636aff31dd14610189578063715018a61461018457806379a2696e1461017f5780637da0a8771461017a578063875e4bea146101755780638da5cb5b14610170578063a0122c091461016b578063a22d0dd514610166578063b03a3eab14610161578063b1fa9e7b1461015c578063b3fa278314610157578063c06e7bc714610152578063c12280461461014d578063d756227e14610148578063da4fb43414610143578063e9379bad1461013e5763f2fde38b1461013957600080fd5b611549565b6114a1565b6113e0565b611310565b611264565b61110e565b611066565b61103b565b610f97565b610f52565b610ebd565b610e89565b610d18565b610cc7565b610c94565b610c15565b610be9565b610bbd565b610b5a565b6109a3565b61083c565b610794565b61071c565b610661565b610512565b6104d9565b90600182811c92168015610204575b60208310146101d557565b7f4e487b7100000000000000000000000000000000000000000000000000000000600052602260045260246000fd5b91607f16916101ca565b7f4e487b7100000000000000000000000000000000000000000000000000000000600052604160045260246000fd5b6101e0810190811067ffffffffffffffff82111761025a57604052565b61020e565b6020810190811067ffffffffffffffff82111761025a57604052565b6040810190811067ffffffffffffffff82111761025a57604052565b6060810190811067ffffffffffffffff82111761025a57604052565b90601f601f19910116810190811067ffffffffffffffff82111761025a57604052565b60405190600082600254916102ea836101bb565b808352926020906001908181169081156103785750600114610317575b5050610315925003836102b3565b565b91509260026000527f405787fa12a823e0f2b7631cc41b3ba8828b3321ca811111fa75cd3aa3bb5ace936000925b82841061036057506103159450505081016020013880610307565b85548885018301529485019487945092810192610345565b9050602093506103159592507fffffffffffffffffffffffffffffffffffffffffffffffffffffffffffffff0091501682840152151560051b8201013880610307565b906040519182600082546103ce816101bb565b9081845260209460019160018116908160001461043c57506001146103fd575b505050610315925003836102b3565b600090815285812095935091905b81831061042457505061031593508201013880806103ee565b8554888401850152948501948794509183019161040b565b9150506103159593507fffffffffffffffffffffffffffffffffffffffffffffffffffffffffffffff0091501682840152151560051b8201013880806103ee565b60005b8381106104905750506000910152565b8181015183820152602001610480565b90601f19601f6020936104be8151809281875287808801910161047d565b0116010190565b9060206104d69281815201906104a0565b90565b3461050d57600060031936011261050d576105096104f56102d6565b6040519182916020835260208301906104a0565b0390f35b600080fd5b3461050d5760008060031936011261061257604051908060075490610536826101bb565b808552916020916001918281169081156105c7575060011461056f575b61050986610563818803826102b3565b604051918291826104c5565b9350600784527fa66cc928b5edb82af9bd49922954155ab7b0942694bea4ce44661d9a8736c6885b8385106105b4575050505081016020016105638261050938610553565b8054868601840152938201938101610597565b879650610509979450602093506105639592507fffffffffffffffffffffffffffffffffffffffffffffffffffffffffffffff0091501682840152151560051b820101929338610553565b80fd5b73ffffffffffffffffffffffffffffffffffffffff81160361050d57565b9181601f8401121561050d5782359167ffffffffffffffff831161050d576020838186019501011161050d57565b3461050d57608060031936011261050d5760043561067e81610615565b610689602435610615565b60643567ffffffffffffffff811161050d576106a9903690600401610633565b505073ffffffffffffffffffffffffffffffffffffffff309116036106f25760206040517f150b7a02000000000000000000000000000000000000000000000000000000008152f35b60046040517fecb1aa84000000000000000000000000000000000000000000000000000000008152fd5b3461050d57604060031936011261050d5761074560043561073c81610615565b60243590611726565b906040519182916040830190835260209060406020850152825180915260206060850193019160005b82811061077d57505050500390f35b83518552869550938101939281019260010161076e565b3461050d57600080600319360112610612576040519080600454906107b8826101bb565b808552916020916001918281169081156105c757506001146107e45761050986610563818803826102b3565b9350600484527f8a35acfbc15ff81a39ae7d344fd709f28e8600b4aa8c65c6b64bfe7fe36bd19b5b838510610829575050505081016020016105638261050938610553565b805486860184015293820193810161080c565b3461050d5760008060031936011261061257604051908060055490610860826101bb565b808552916020916001918281169081156105c7575060011461088c5761050986610563818803826102b3565b9350600584527f036b6384b5eca791c62761152d0c79bb0604c104a5fb6f4eb0703f3154bb3db05b8385106108d1575050505081016020016105638261050938610553565b80548686018401529382019381016108b4565b604051906103158261023d565b67ffffffffffffffff811161025a5760051b60200190565b9291610914826108f1565b9161092260405193846102b3565b829481845260208094019160051b810192831161050d57905b8282106109485750505050565b8135815290830190830161093b565b9080601f8301121561050d578160206104d693359101610909565b9181601f8401121561050d5782359167ffffffffffffffff831161050d576020808501948460051b01011161050d57565b3461050d5760408060031936011261050d5760049067ffffffffffffffff823581811161050d576109d79036908501610957565b9060243590811161050d576109ef9036908501610972565b92909160005b8151811015610b5857610a0881836116d4565b51610a1e610a1783888861180e565b36916112d9565b610a3a610a3583600052600c602052604060002090565b61186e565b610b3057610a52826000526003602052604060002090565b548015610b085785516020810190610a7c81610a6e8487611878565b03601f1981018352826102b3565b51902003610ae057907faeb631726b45aa3f6b09da79f7af03a9784614901f61a967ed84d63c37b7edc7610ad783610aca60019695610ac586600052600c602052604060002090565b611941565b8751918291339083611a16565b0390a2016109f5565b8785517fd8e55daf000000000000000000000000000000000000000000000000000000008152fd5b8886517f38d87d39000000000000000000000000000000000000000000000000000000008152fd5b8785517f444244f5000000000000000000000000000000000000000000000000000000008152fd5b005b3461050d57602060031936011261050d576020600435610b7981610615565b73ffffffffffffffffffffffffffffffffffffffff9060405191807f0000000000000000000000000000000000000000000000000000000000000000169116148152f35b3461050d57604060031936011261050d576105096104f5600435610be081610615565b60243590611ec3565b3461050d57602060031936011261050d5760043560005260036020526020604060002054604051908152f35b3461050d5760008060031936011261061257610c2f61461f565b8073ffffffffffffffffffffffffffffffffffffffff81547fffffffffffffffffffffffff000000000000000000000000000000000000000081168355167f8be0079c531659141344cd1fd0a4f28419497f9722a3daafe3b4186f6b6457e08280a380f35b3461050d57604060031936011261050d576020610cbf600435610cb681610615565b602435906126ff565b604051908152f35b3461050d57600060031936011261050d57602060405173ffffffffffffffffffffffffffffffffffffffff7f0000000000000000000000000000000000000000000000000000000000000000168152f35b3461050d5760208060031936011261050d5767ffffffffffffffff60043581811161050d57610d4b903690600401610633565b9091610d5561461f565b811161025a57610d6f81610d6a6002546101bb565b6118a6565b600092601f8211600114610de55750610dc081807f512c3c91736f50c57a0548c1d01ab02f24c420f002b8b20e2bfe63df9693cd3f95600091610dda575b506000198260011b9260031b1c19161790565b6002555b610dd560405192839233918461276b565b0390a1005b905084013538610dad565b6002600052601f198216937f405787fa12a823e0f2b7631cc41b3ba8828b3321ca811111fa75cd3aa3bb5ace9181905b868210610e71575050827f512c3c91736f50c57a0548c1d01ab02f24c420f002b8b20e2bfe63df9693cd3f9510610e57575b5050600181811b01600255610dc4565b60001960f88460031b161c19908401351690553880610e47565b80600184958294958901358155019401920190610e15565b3461050d57600060031936011261050d57602073ffffffffffffffffffffffffffffffffffffffff60005416604051908152f35b3461050d57604060031936011261050d57610f2c600435610edd81610615565b610509610eed6024358093613282565b91610f3a610f17610f1162ffffff610100610f088887613db6565b97015116614363565b92613fec565b916040519586956060875260608701906104a0565b9085820360208701526104a0565b9083820360408501526104a0565b8015150361050d57565b3461050d57608060031936011261050d576105096104f5600435610f7581610615565b604435610f8181610f48565b60643591610f8e83610f48565b60243590612cad565b3461050d57604060031936011261050d5767ffffffffffffffff60043581811161050d57610fc9903690600401610957565b9060243590811161050d573660238201121561050d578060040135610fed816108f1565b91610ffb60405193846102b3565b8183526020916024602085019160051b8301019136831161050d57602401905b82821061102c57610b588587612dbf565b8135815290830190830161101b565b3461050d57604060031936011261050d576020610cbf60043561105d81610615565b60243590612e7b565b3461050d576000806003193601126106125760405190806006549061108a826101bb565b808552916020916001918281169081156105c757506001146110b65761050986610563818803826102b3565b9350600684527ff652222313e28459528d920b65115c16c04f3efc82aaedc97be59f3f377c0d3f5b8385106110fb575050505081016020016105638261050938610553565b80548686018401529382019381016110de565b3461050d57608060031936011261050d5760043561112b81610615565b602435906044359060643567ffffffffffffffff811161050d57611153903690600401610972565b61116085849693966149d9565b73ffffffffffffffffffffffffffffffffffffffff94858416916000968388526001602052604096878920868a5260205287892054421061123b576111a36159ba565b97838151918083528201527f07ffffffffffffffffffffffffffffffffffffffffffffffffffffffffffffff8411611237578661122e967f6a68946ba06488db8585d7c7637fa954b574035fe15720ea760125ef8601725883606086958a6112349f996112279a8c60051b8093868601371660208301528101030190a48587614aa8565b3691610909565b91614dda565b80f35b8980fd5b600488517f5a5ecb46000000000000000000000000000000000000000000000000000000008152fd5b3461050d57604060031936011261050d5773ffffffffffffffffffffffffffffffffffffffff60043561129681610615565b16600052600160205260406000206024356000526020526020604060002054604051908152f35b67ffffffffffffffff811161025a57601f01601f191660200190565b9291926112e5826112bd565b916112f360405193846102b3565b82948184528183011161050d578281602093846000960137010152565b3461050d57604060031936011261050d5767ffffffffffffffff60043581811161050d57611342903690600401610957565b60249060243583811161050d573660238201121561050d57806004013592611369846108f1565b9361137760405195866102b3565b8085526020956024602087019260051b8501019336851161050d5760248101925b8584106113a957610b588888612f27565b833583811161050d5782013660438201121561050d5789916113d58392369060448a82013591016112d9565b815201930192611398565b3461050d57606060031936011261050d576004356113fd81610615565b73ffffffffffffffffffffffffffffffffffffffff6024359161142083826149d9565b169060009180835260016020526040832082845260205260408320549160443542019283421161149c5783106114725761146e91845260016020526040842090600052602052604060002090565b5580f35b60046040517f415f2254000000000000000000000000000000000000000000000000000000008152fd5b6116e8565b3461050d57600080600319360112610612576040519080600854906114c5826101bb565b808552916020916001918281169081156105c757506001146114f15761050986610563818803826102b3565b9350600884527ff3f7a9fe364faab93b216da50a3214154f22a0a2b415b23a84c8169e8b636ee35b838510611536575050505081016020016105638261050938610553565b8054868601840152938201938101611519565b3461050d57602060031936011261050d5760043561156681610615565b61156e61461f565b73ffffffffffffffffffffffffffffffffffffffff80911680156115e0576000918254827fffffffffffffffffffffffff00000000000000000000000000000000000000008216178455167f8be0079c531659141344cd1fd0a4f28419497f9722a3daafe3b4186f6b6457e08380a380f35b60246040517f1e4fbdf700000000000000000000000000000000000000000000000000000000815260006004820152fd5b90604051918281549182825260209260208301916000526020600020936000905b82821061164857505050610315925003836102b3565b855484526001958601958895509381019390910190611632565b9061166c826108f1565b61167960405191826102b3565b828152601f1961168982946108f1565b0190602036910137565b7f4e487b7100000000000000000000000000000000000000000000000000000000600052603260045260246000fd5b8051156116cf5760200190565b611693565b80518210156116cf5760209160051b010190565b7f4e487b7100000000000000000000000000000000000000000000000000000000600052601160045260246000fd5b600019811461149c5760010190565b9190916000809273ffffffffffffffffffffffffffffffffffffffff8316845260096020526040842085855260205261176160408520611611565b9461176c8651611662565b928592865b88518110156117ba57806117876001928b6116d4565b5185611793828b612e7b565b146117a0575b5001611771565b6117b36117ac88611717565b97896116d4565b5238611799565b5094939560409197506118029293506117f38573ffffffffffffffffffffffffffffffffffffffff16600052600a602052604060002090565b848252602052205480936126ff565b1461180a5750565b9250565b91908110156116cf5760051b810135907fffffffffffffffffffffffffffffffffffffffffffffffffffffffffffffffe18136030182121561050d57019081359167ffffffffffffffff831161050d57602001823603811361050d579190565b6104d690546101bb565b9061188b6020928281519485920161047d565b0190565b81811061189a575050565b6000815560010161188f565b90601f82116118b3575050565b6103159160026000527f405787fa12a823e0f2b7631cc41b3ba8828b3321ca811111fa75cd3aa3bb5ace906020601f840160051c830193106118fd575b601f0160051c019061188f565b90915081906118f0565b9190601f811161191657505050565b610315926000526020600020906020601f840160051c830193106118fd57601f0160051c019061188f565b919091825167ffffffffffffffff811161025a576119698161196384546101bb565b84611907565b602080601f83116001146119ab5750819061199c9394956000926119a0575b50506000198260011b9260031b1c19161790565b9055565b015190503880611988565b90601f198316956119c185600052602060002090565b926000905b8882106119fe575050836001959697106119e5575b505050811b019055565b015160001960f88460031b161c191690553880806119db565b806001859682949686015181550195019301906119c6565b9073ffffffffffffffffffffffffffffffffffffffff611a436020929594956040855260408501906104a0565b9416910152565b60405190611a578261025f565b60008252565b60405190611a6a8261027b565b600e82527f226f7574666974496473223a205b0000000000000000000000000000000000006020830152565b6021610315919392936040519481611ab887935180926020808701910161047d565b8201611acd825180936020808501910161047d565b017f2c0000000000000000000000000000000000000000000000000000000000000060208201520360018101855201836102b3565b90610315602260405184611b2082965180926020808601910161047d565b81017f5d2c00000000000000000000000000000000000000000000000000000000000060208201520360028101855201836102b3565b602c610315919392936040519481611b7887935180926020808701910161047d565b82017f22776f726c644964223a200000000000000000000000000000000000000000006020820152611bb4825180936020602b8501910161047d565b017f2c00000000000000000000000000000000000000000000000000000000000000602b82015203600c8101855201836102b3565b603b610315919392936040519481611c0b87935180926020808701910161047d565b82017f226465636f726174696f6e734c6f636b6564556e74696c223a200000000000006020820152611c47825180936020603a8501910161047d565b017f2c00000000000000000000000000000000000000000000000000000000000000603a82015203601b8101855201836102b3565b90604051918260605160005b818110611cbd575090602061031593611cb182948401918383016000815281519485920161047d565b010380855201836102b3565b6020919250806080015182828801015201908491611c88565b6020610315919392936040519481611cf7879351809286808701910161047d565b8201611cb18251809386808501910161047d565b90610315603760405180947f22776f726e42794e616b656442616e6e794964223a20000000000000000000006020830152611d5081518092602060368601910161047d565b81017f2c0000000000000000000000000000000000000000000000000000000000000060368201520360178101855201836102b3565b90610315603760405180947f227573656442794e616b656442616e6e794964223a20000000000000000000006020830152611d5081518092602060368601910161047d565b81601f8201121561050d578051611de1816112bd565b92611def60405194856102b3565b8184526020828401011161050d576104d6916020808501910161047d565b9060208282031261050d57815167ffffffffffffffff811161050d576104d69201611dcb565b6040513d6000823e3d90fd5b9081602091031261050d575190565b9081606091031261050d57805191604060208301519201516104d681610615565b90610315603d60405180947f646174613a6170706c69636174696f6e2f6a736f6e3b6261736536342c0000006020830152611eb3815180926020868601910161047d565b810103601d8101855201836102b3565b90611ece8183613282565b9063ffffffff611ee2835163ffffffff1690565b16156126f457611ef0611a4a565b5061010082019062ffffff80611f09845162ffffff1690565b16156125fc57611f32611f2c611f23865163ffffffff1690565b63ffffffff1690565b86613521565b9283516125c0575b600182611f4a835162ffffff1690565b16036125a557611f6a611f65611f6085896126ff565b6133d1565b611d86565b915b8451156124275750606073ffffffffffffffffffffffffffffffffffffffff9495966004604051809781937f08786b1a000000000000000000000000000000000000000000000000000000008352165afa938415612422576000906000956123ed575b50611fda8785613db6565b948751611fea9063ffffffff1690565b63ffffffff16611ff990613fec565b9783516120089062ffffff1690565b62ffffff1661201690614363565b95612020906133d1565b9381516120309063ffffffff1690565b63ffffffff1661203f906133d1565b905161204f9062ffffff166133d1565b60608301516120639063ffffffff166133d1565b9160408401516120769063ffffffff1690565b63ffffffff16612085906133d1565b602094909401516120a4906cffffffffffffffffffffffffff166133d1565b946120ae906133d1565b956120b8906133d1565b96604051809c602082016120cb91611878565b039b601f199c8d810182526120e090826102b3565b6120e9906144e3565b6040517f7b226e616d65223a22000000000000000000000000000000000000000000000060208201529d8e9c919b9160298e0161212591611878565b7f222c202270726f647563744e616d65223a202200000000000000000000000000815260130161215491611878565b7f222c202263617465676f72794e616d65223a2022000000000000000000000000815260140161218391611878565b7f222c2022746f6b656e4964223a200000000000000000000000000000000000008152600e016121b291611878565b7f2c2022757063223a20000000000000000000000000000000000000000000000081526009016121e191611878565b7f2c202263617465676f7279223a200000000000000000000000000000000000008152600e0161221091611878565b7f2c2022737570706c79223a2000000000000000000000000000000000000000008152600c0161223f91611878565b7f2c202272656d61696e696e67223a2000000000000000000000000000000000008152600f0161226e91611878565b7f2c20227072696365223a200000000000000000000000000000000000000000008152600b0161229d91611878565b7f2c2022646563696d616c73223a200000000000000000000000000000000000008152600e016122cc91611878565b7f2c202263757272656e6379223a200000000000000000000000000000000000008152600e016122fb91611878565b7f2c20000000000000000000000000000000000000000000000000000000000000815260020161232a91611878565b7f226465736372697074696f6e223a2241207069656365206f662074686520426181527f6e6e797665727365222c22696d616765223a22646174613a696d6167652f737660208201527f672b786d6c3b6261736536342c000000000000000000000000000000000000006040820152604d016123a591611878565b7f227d00000000000000000000000000000000000000000000000000000000000081526002010390810182526123db90826102b3565b6123e4906144e3565b6104d690611e6f565b905061241291945060603d60601161241b575b61240a81836102b3565b810190611e4e565b50939038611fcf565b503d612400565b611e33565b92959450600d935061243d91505162ffffff1690565b161115612591576040517f6c0360eb00000000000000000000000000000000000000000000000000000000815260008160048173ffffffffffffffffffffffffffffffffffffffff86165afa928315612422576125209360209260009161256e575b50925b6124c76124ae8261393d565b73ffffffffffffffffffffffffffffffffffffffff1690565b906040518096819482937fc8df1710000000000000000000000000000000000000000000000000000000008452600484016020909392919373ffffffffffffffffffffffffffffffffffffffff60408201951681520152565b03915afa908115612422576104d69260009261253d575b506139cb565b61256091925060203d602011612567575b61255881836102b3565b810190611e3f565b9038612537565b503d61254e565b61258b91503d806000833e61258381836102b3565b810190611e0d565b3861249f565b60206125209261259f6102d6565b926124a2565b6125ba6125b5611f608589612e7b565b611d0b565b91611f6c565b926125e0906001836125d5875162ffffff1690565b16036125e65761382a565b92611f3a565b6125f7906125f2613682565b611cd6565b61382a565b93909261260c8483979497612b79565b6126168584611726565b9590612620611a5d565b986000995b88518b10156126555761264d6001916126476126418e8d6116d4565b516133d1565b90611a96565b9a0199612625565b909396995061266a9194975097919497611b02565b92806126d9575b506126af846126a08973ffffffffffffffffffffffffffffffffffffffff166000526001602052604060002090565b90600052602052604060002090565b544281116126be575b50611f6c565b926126cc6126d292946133d1565b90611be9565b91386126b8565b926126e76126ed92946133d1565b90611b56565b9138612671565b5050506104d6611a4a565b73ffffffffffffffffffffffffffffffffffffffff16600090808252600d602052604082208383526020526040822054928315918215612749575b5050612744575090565b905090565b9091508252600a6020526040822083835260205260408220541415388061273a565b916060601f19601f8373ffffffffffffffffffffffffffffffffffffffff94602096999899604089528160408a015285890137600084828901015201168401019416910152565b600854600092916127c2826101bb565b9160019081811690811561282e57506001146127dd57505050565b909192935060086000527ff3f7a9fe364faab93b216da50a3214154f22a0a2b415b23a84c8169e8b636ee3906000915b84831061281b575050500190565b818160209254858701520192019161280d565b7fffffffffffffffffffffffffffffffffffffffffffffffffffffffffffffff001683525050811515909102019150565b90604051918260209161287a8151809285808601910161047d565b600754600091830161288b826101bb565b9160019081811690811561291657506001146128b8575b505050610315925003601f1981018452836102b3565b94925060076000527fa66cc928b5edb82af9bd49922954155ab7b0942694bea4ce44661d9a8736c688946000905b8382106128fe575050610315945001013880806128a2565b865482840186015295860195889550908401906128e6565b90506103159694507fffffffffffffffffffffffffffffffffffffffffffffffffffffffffffffff00915092919216838301528015150201013880806128a2565b9060405191826020916129728151809285808601910161047d565b6004546000918301612983826101bb565b9160019081811690811561291657506001146129af57505050610315925003601f1981018452836102b3565b94925060046000527f8a35acfbc15ff81a39ae7d344fd709f28e8600b4aa8c65c6b64bfe7fe36bd19b946000905b8382106129f5575050610315945001013880806128a2565b865482840186015295860195889550908401906129dd565b906040519182602091612a288151809285808601910161047d565b6006546000918301612a39826101bb565b916001908181169081156129165750600114612a6557505050610315925003601f1981018452836102b3565b94925060066000527ff652222313e28459528d920b65115c16c04f3efc82aaedc97be59f3f377c0d3f946000905b838210612aab575050610315945001013880806128a2565b86548284018601529586019588955090840190612a93565b906040519182602091612ade8151809285808601910161047d565b6005546000918301612aef826101bb565b916001908181169081156129165750600114612b1b57505050610315925003601f1981018452836102b3565b94925060056000527f036b6384b5eca791c62761152d0c79bb0604c104a5fb6f4eb0703f3154bb3db0946000905b838210612b61575050610315945001013880806128a2565b86548284018601529586019588955090840190612b49565b612b838282613282565b9163ffffffff80612b98855163ffffffff1690565b1615612ca15760609162ffffff612bb661010087015162ffffff1690565b16612c6c57936001612c269392612c11612c06612bd66104d69989611726565b969080151580612c65575b612c4b575b50612c00612bfb611f23885163ffffffff1690565b614685565b90611cd6565b935163ffffffff1690565b1603612c4257612c2090612957565b9261485d565b8051612c33575b5061382a565b612c3c91611cd6565b38612c2d565b612c209061285f565b612c5f9150612c5a908a613521565b611c7c565b38612be6565b5085612be1565b505050612c83611f23612c89935163ffffffff1690565b90613521565b8051612c9857506104d6611a4a565b6104d69061382a565b505050506104d6611a4a565b9092612cb98483613282565b9363ffffffff9081612ccf875163ffffffff1690565b1615612db15760609062ffffff612ced61010089015162ffffff1690565b16612d975791612d2f612c06600193612d0a6104d69a9689611726565b978115159081612d8f575b50612d805750612c00612bfb611f23885163ffffffff1690565b1603612d7157612d3e90612957565b925b612d4c575b505061382a565b612d559161485d565b8051612d62575b80612d45565b612d6b91611cd6565b38612d5c565b612d7a9061285f565b92612d40565b612c5f9150612c5a9089613521565b905038612d15565b505050509050612c83611f23612c89935163ffffffff1690565b5050505050506104d6611a4a565b9190612dc961461f565b60009260005b8151811015612e7457612de281836116d4565b51612ded82856116d4565b5190808752602060038152604080892054612e4b5782917fb10eb6fc7557a7109693cb8f3fac48d44328de56c0368ee4cac539b424d2cad99185612e3f60019897966000526003602052604060002090565b5551338152a301612dcf565b600490517f2165e0ab000000000000000000000000000000000000000000000000000000008152fd5b5050509050565b60009173ffffffffffffffffffffffffffffffffffffffff82168352600e602052604083208184526020526040832054918215612f2157612edc9073ffffffffffffffffffffffffffffffffffffffff166000526009602052604060002090565b828452602052612eee60408420611611565b835b8151811015612f1a5782612f0482846116d4565b5114612f1257600101612ef0565b505050905090565b5050505090565b50505090565b91612f3061461f565b6000925b805184101561309e57612f4784826116d4565b5193612f5381856116d4565b519480600052602095600b8752604080600020825167ffffffffffffffff811161025a57612f858161196384546101bb565b89601f82116001146130045750917f9dedd219289ed514faff576c477c66bd097aef59a236e3b8ebcf0d0070cb4e969391612fde84612fed9560019a9b9c9d600091612ff957506000198260011b9260031b1c19161790565b90555b51918291339083611a16565b0390a201929190612f34565b905085015138610dad565b99601f19821661301984600052602060002090565b9b6000905b82821061308457505091600198999a9b7f9dedd219289ed514faff576c477c66bd097aef59a236e3b8ebcf0d0070cb4e9696949282612fed97951061306b575b5050881b88019055612fe1565b85015160001960f88460031b161c19169055388061305e565b80600181939f868b015181550194019d01909c929c61301e565b50915050565b906002820180921161149c57565b906020820180921161149c57565b906001820180921161149c57565b9190820180921161149c57565b519063ffffffff8216820361050d57565b51906cffffffffffffffffffffffffff8216820361050d57565b519061ffff8216820361050d57565b519061031582610615565b519062ffffff8216820361050d57565b519060ff8216820361050d57565b519061031582610f48565b60208183031261050d57805167ffffffffffffffff9182821161050d57016101e08184031261050d5761317a6108e4565b92613184826130db565b8452613192602083016130ec565b60208501526131a3604083016130db565b60408501526131b4606083016130db565b60608501526131c5608083016130ec565b60808501526131d660a08301613106565b60a08501526131e760c08301613115565b60c085015260e082015160e0850152610100613204818401613120565b90850152610120613216818401613130565b9085015261014061322881840161313e565b9085015261016061323a81840161313e565b9085015261018061324c81840161313e565b908501526101a061325e81840161313e565b908501526101c0928383015190811161050d5761327b9201611dcb565b9082015290565b6040516101c092613360926132968361023d565b6060600095848780965285602082015285604082015285838201528560808201528560a08201528560c08201528560e08201528561010082015285610120820152856101408201528561016082015285610180820152856101a082015201526133016124ae8261393d565b906040518095819482937fc44a8e6d00000000000000000000000000000000000000000000000000000000845260048401604090600092949373ffffffffffffffffffffffffffffffffffffffff606083019616825260208201520152565b03915afa91821561242257809261337657505090565b6104d692503d8091833e61338a81836102b3565b810190613149565b60405161339e8161025f565b60008152906000368137565b906133b4826112bd565b6133c160405191826102b3565b828152601f1961168982946112bd565b806000917a184f03e93ff9f4daa797ed6e38ed64bf6a1f01000000000000000080821015613513575b506d04ee2d6d415b85acef810000000080831015613504575b50662386f26fc10000808310156134f5575b506305f5e100808310156134e6575b50612710808310156134d7575b5060648210156134c7575b600a809210156134bd575b600190816021613469600187016133aa565b95860101905b61347a575050505090565b600019849101917f30313233343536373839616263646566000000000000000000000000000000008282061a8353049182156134b85791908261346f565b612f1a565b9160010191613457565b919060646002910491019161344c565b60049193920491019138613441565b60089193920491019138613434565b60109193920491019138613425565b60209193920491019138613413565b6040935081049150386133fa565b9080600052602091600c835261353a60406000206103bb565b805161367b57506135bf918173ffffffffffffffffffffffffffffffffffffffff613565869461393d565b16906040518095819482937fbd51923c000000000000000000000000000000000000000000000000000000008452600484016020909392919373ffffffffffffffffffffffffffffffffffffffff60408201951681520152565b03915afa801561242257613628926135ed6049926104d69460009161365e575b506135e86102d6565b6139cb565b60405194827f3c696d61676520687265663d220000000000000000000000000000000000000087948501528251928391602d8601910161047d565b81017f222077696474683d2234303022206865696768743d22343030222f3e00000000602d8201520360298101845201826102b3565b6136759150833d85116125675761255881836102b3565b386135df565b9250505090565b60446104d6604051610a6e600861380160208401937f7b66696c6c3a6e6f6e653b7d00000000000000000000000000000000000000008552600c81526136c78161027b565b60036137d7816137ad6040519a8b997f3c7374796c653e2e6f7b66696c6c3a233830383038303b7d2e6232000000000060208c0152603b61370e8c8951928391018461047d565b8b017f2e62330000000000000000000000000000000000000000000000000000000000603b82015287519061374782603e83018561047d565b017f2e62340000000000000000000000000000000000000000000000000000000000603e82015261377f88518093604184019061047d565b017f2e6131000000000000000000000000000000000000000000000000000000000060418201520185611878565b7f2e6132000000000000000000000000000000000000000000000000000000000081520183611878565b7f2e6133000000000000000000000000000000000000000000000000000000000081520190611878565b7f3c2f7374796c653e0000000000000000000000000000000000000000000000008152016127b2565b9061031560bb60405180947f3c7376672077696474683d2234303022206865696768743d223430302220766960208301527f6577426f783d223020302034303020343030222066696c6c3d2277686974652260408301527f20786d6c6e733d22687474703a2f2f7777772e77332e6f72672f323030302f7360608301527f7667223e3c7374796c653e2e6f7b66696c6c3a233035303530353b7d2e777b6660808301527f696c6c3a236639663966393b7d3c2f7374796c653e000000000000000000000060a083015261390781518092602060b58601910161047d565b81017f3c2f7376673e000000000000000000000000000000000000000000000000000060b582015203609b8101855201836102b3565b602073ffffffffffffffffffffffffffffffffffffffff916004604051809481937f507f1465000000000000000000000000000000000000000000000000000000008352165afa90811561242257600091613996575090565b90506020813d6020116139c3575b816139b1602093836102b3565b8101031261050d57516104d681610615565b3d91506139a4565b906104d690613a156040516020927f122000000000000000000000000000000000000000000000000000000000000084830152602282015260228152613a1081610297565b615364565b926040519381613a2e869351809286808701910161047d565b8201613a428251809386808501910161047d565b010380845201826102b3565b90610315602160405184613a6c82965180926020808601910161047d565b81017f200000000000000000000000000000000000000000000000000000000000000060208201520360018101855201836102b3565b60405190613aaf8261027b565b600a82527f2072656d61696e696e67000000000000000000000000000000000000000000006020830152565b90610315929493602192613b60604051978894602093613b038151809287808b01910161047d565b8601613b178251809387808501910161047d565b017f2f0000000000000000000000000000000000000000000000000000000000000084820152613b4f82518093868a8501910161047d565b01918351938491878501910161047d565b010360018101855201836102b3565b90610315929493602d92613c0a604051978894602093613b978151809287808b01910161047d565b86017f2028534f4c44204f55542920000000000000000000000000000000000000000085820152613bd18251809387602c8501910161047d565b017f2f00000000000000000000000000000000000000000000000000000000000000602c820152613b4f82518093868a8501910161047d565b0103600d8101855201836102b3565b61031591613b609493602192604051968793602092613c408151809286808a01910161047d565b8501613c548251809386808501910161047d565b01917f2f00000000000000000000000000000000000000000000000000000000000000818401528351938491878501910161047d565b90610315602360405184613ca882965180926020808601910161047d565b81017f203a20000000000000000000000000000000000000000000000000000000000060208201520360038101855201836102b3565b6021610315919392936040519481613d0087935180926020808701910161047d565b8201613d15825180936020808501910161047d565b017f200000000000000000000000000000000000000000000000000000000000000060208201520360018101855201836102b3565b6025610315919392936040519481613d6c87935180926020808701910161047d565b82017f55504320230000000000000000000000000000000000000000000000000000006020820152613da7825180936020878501910161047d565b010360058101855201836102b3565b90613e246104d692633b9aca00613de4613ddf613dda611f23875163ffffffff1690565b613fec565b613a4e565b9106613dee613aa2565b8115613e88575090613e02613e1f926133d1565b613e19611f60611f23606088015163ffffffff1690565b91613c19565b613c8a565b90613e49613e44613e3c61010084015162ffffff1690565b62ffffff1690565b614363565b8051613e6b575b50611f60611f23613e65925163ffffffff1690565b90613d4a565b611f23613e7f611f6092613e659495613cde565b93925050613e50565b9050604084019163ffffffff613ea2845163ffffffff1690565b1680613edd5750613ec0611f60611f23613e1f955163ffffffff1690565b613ed7611f60611f23606089015163ffffffff1690565b91613b6f565b613e1f9350613eeb906133d1565b613f02611f60611f23606089015163ffffffff1690565b91613adb565b60405190613f158261027b565b600882527f4f726967696e616c0000000000000000000000000000000000000000000000006020830152565b60405190613f4e8261027b565b600682527f4f72616e676500000000000000000000000000000000000000000000000000006020830152565b60405190613f878261027b565b600482527f50696e6b000000000000000000000000000000000000000000000000000000006020830152565b60405190613fc08261027b565b600582527f416c69656e0000000000000000000000000000000000000000000000000000006020830152565b60018103613ffd57506104d6613fb3565b6002810361400e57506104d6613f7a565b6003810361401f57506104d6613f41565b6004810361403057506104d6613f08565b600052600b6020526104d660406000206103bb565b604051906140528261027b565b600782527f546f7070696e67000000000000000000000000000000000000000000000000006020830152565b6040519061408b8261027b565b600482527f46697374000000000000000000000000000000000000000000000000000000006020830152565b604051906140c48261027b565b600b82527f5375697420626f74746f6d0000000000000000000000000000000000000000006020830152565b604051906140fd8261027b565b600882527f5375697420746f700000000000000000000000000000000000000000000000006020830152565b604051906141368261027b565b600482527f53756974000000000000000000000000000000000000000000000000000000006020830152565b6040519061416f8261027b565b600482527f48656164000000000000000000000000000000000000000000000000000000006020830152565b604051906141a88261027b565b600882527f4865616420746f700000000000000000000000000000000000000000000000006020830152565b604051906141e18261027b565b600582527f4d6f7574680000000000000000000000000000000000000000000000000000006020830152565b6040519061421a8261027b565b600782527f476c6173736573000000000000000000000000000000000000000000000000006020830152565b604051906142538261027b565b600882527f4e65636b6c6163650000000000000000000000000000000000000000000000006020830152565b6040519061428c8261027b565b600482527f4c656773000000000000000000000000000000000000000000000000000000006020830152565b604051906142c58261027b565b600882527f4261636b736964650000000000000000000000000000000000000000000000006020830152565b604051906142fe8261027b565b600582527f576f726c640000000000000000000000000000000000000000000000000000006020830152565b604051906143378261027b565b600b82527f4e616b65642042616e6e790000000000000000000000000000000000000000006020830152565b8061437157506104d661432a565b6001810361438257506104d66142f1565b6002810361439357506104d66142b8565b600781036143a457506104d661427f565b600381036143b557506104d6614246565b600581036143c657506104d661420d565b600681036143d757506104d66141d4565b600b81036143e857506104d661419b565b600481036143f957506104d6614162565b6008810361440a57506104d6614129565b600a810361441b57506104d66140f0565b6009810361442c57506104d66140b7565b600c810361443d57506104d661407e565b600d1461444c576104d6611a4a565b6104d6614045565b6040519061446182610297565b604082527f6768696a6b6c6d6e6f707172737475767778797a303132333435363738392b2f6040837f4142434445464748494a4b4c4d4e4f505152535455565758595a61626364656660208201520152565b908160021b917f3fffffffffffffffffffffffffffffffffffffffffffffffffffffffffffffff81160361149c57565b805115614616576144f2614454565b61450e61450961450284516130a4565b6003900490565b6144b3565b9161452061451b846130b2565b6133aa565b92835280815182019060208501935b8282106145c45750505060039051068060011461457b57600214614551575090565b6000197f3d0000000000000000000000000000000000000000000000000000000000000091015290565b507ffffffffffffffffffffffffffffffffffffffffffffffffffffffffffffffffe7f3d3d00000000000000000000000000000000000000000000000000000000000091015290565b9091936004906003809401938451600190603f9082828260121c16880101518553828282600c1c16880101518386015382828260061c168801015160028601531685010151908201530193919061452f565b506104d6611a4a565b73ffffffffffffffffffffffffffffffffffffffff8060005416816146426159ba565b160361464b5750565b6024906146566159ba565b6040517f118cdaa700000000000000000000000000000000000000000000000000000000815291166004820152fd5b61468e90615876565b93604096959693919351968796602088017f3c7374796c653e2e62317b66696c6c3a2300000000000000000000000000000090528051908160318a0191602001916146d89261047d565b8701603181017f3b7d2e62327b66696c6c3a230000000000000000000000000000000000000000905281519182603d830191602001916147179261047d565b01603d81017f3b7d2e62337b66696c6c3a2300000000000000000000000000000000000000009052815191826049830191602001916147559261047d565b0160498101614783907f3b7d2e62347b66696c6c3a2300000000000000000000000000000000000000009052565b60550161478f91611878565b7f3b7d2e61317b66696c6c3a2300000000000000000000000000000000000000008152600c016147be91611878565b7f3b7d2e61327b66696c6c3a2300000000000000000000000000000000000000008152600c016147ed91611878565b7f3b7d2e61337b66696c6c3a2300000000000000000000000000000000000000008152600c0161481c91611878565b7f3b7d3c2f7374796c653e000000000000000000000000000000000000000000008152600a0161484b906127b2565b03601f19810182526104d690826102b3565b9190916060835191600080938390825b614876826130c0565b8110156149ba576000828210156149b25750614892818a6116d4565b516148b0613e3c6101006148a6848a613282565b015162ffffff1690565b935b600385811496908715614983575050506001946148cf8288613521565b985b600686810361494f575050600a6001955b1180614945575b61492b575b8115159081614922575b5061490a575b5060010195919561486d565b60019196612c0061491b9288613521565b95906148fe565b905015386148f8565b976149369197611cd6565b9561493f611a4a565b976148ee565b50885115156148e9565b869196118061497b575b614966575b600a906148e2565b94509661497290612ac3565b9660019461495e565b508515614959565b869a9197929a11806149aa575b156148d1579550966149a190612a0d565b966001956148d1565b508615614990565b600e936148b2565b5050505050925050565b9081602091031261050d57516104d681610615565b90602060249273ffffffffffffffffffffffffffffffffffffffff93849360405195869384927f6352211e0000000000000000000000000000000000000000000000000000000084526004840152165afa91821561242257600092614a77575b5080614a436159ba565b16911603614a4d57565b60046040517f115472e4000000000000000000000000000000000000000000000000000000008152fd5b614a9a91925060203d602011614aa1575b614a9281836102b3565b8101906149c4565b9038614a39565b503d614a88565b9190614ad8816126a08573ffffffffffffffffffffffffffffffffffffffff16600052600a602052604060002090565b5491828103614ae8575b50505050565b8015614d2357614af66159ba565b73ffffffffffffffffffffffffffffffffffffffff808616906040517f6352211e0000000000000000000000000000000000000000000000000000000093848252602091828180614b4f8a600483019190602083019252565b0381885afa9081156124225784918291600091614d06575b5016911614159384614c8d575b50505050614c635763ffffffff614b98614b8e8387613282565b5163ffffffff1690565b1615614c39578181614bd1614c11946126a08873ffffffffffffffffffffffffffffffffffffffff16600052600a602052604060002090565b55614c00826126a08773ffffffffffffffffffffffffffffffffffffffff16600052600d602052604060002090565b55614c096159ba565b309085615a3e565b80614c1e575b8080614ae2565b614c3291614c2a6159ba565b903090615a3e565b3880614c17565b60046040517fe06a750d000000000000000000000000000000000000000000000000000000008152fd5b60046040517f8c7c7aa2000000000000000000000000000000000000000000000000000000008152fd5b819293945090614cc491614c9f6159ba565b95614caa888c6126ff565b916040518095819482938352600483019190602083019252565b03915afa908115612422578392600092614ce9575b5050169116141538808080614b74565b614cff9250803d10614aa157614a9281836102b3565b3880614cd9565b614d1d9150853d8711614aa157614a9281836102b3565b38614b67565b50614d546000916126a08573ffffffffffffffffffffffffffffffffffffffff16600052600a602052604060002090565b55614c11565b81519167ffffffffffffffff831161025a5768010000000000000000831161025a578154838355808410614dbc575b5060208091019160005260206000209060005b848110614daa575050505050565b83518382015592810192600101614d9c565b614dd49083600052846020600020918201910161188f565b38614d89565b929190600091828094614e19614e14856126a08a73ffffffffffffffffffffffffffffffffffffffff166000526009602052604060002090565b611611565b958294839484908a8a516152fd575b5085989195979397969296945b815186101561527357614e4886836116d4565b51968c73ffffffffffffffffffffffffffffffffffffffff6020614ea9614e6d6159ba565b938c6040519485809481937f6352211e000000000000000000000000000000000000000000000000000000008352600483019190602083019252565b0392165afa9081156124225773ffffffffffffffffffffffffffffffffffffffff918291600091615254575b50169116141580615195575b61516b578c9a886101009c8d91614ef791613282565b015162ffffff169a60028c108015615161575b61513757881515908161512c575b506151025760048b03615037575091948c946001935b8b8111158061502e575b15614fb05750908189614f519303614f97575b50611717565b948a868d80518210600014614f8857916148a6614f74613e3c93614f7c956116d4565b518099613282565b905b9590948d95614f2e565b50505093506000938490614f7e565b614faa90614fa36159ba565b3089615a3e565b38614f4b565b949b509894600192979693989a919a86614fca8284612e7b565b03614fe4575b505094019498919598979397969296614e35565b8187615017836126a06150279673ffffffffffffffffffffffffffffffffffffffff16600052600e602052604060002090565b556150206159ba565b3091615a3e565b8c38614fd0565b50801515614f38565b929360088b0361504e575092948c94600194614f2e565b9360058b1480156150f8575b80156150ee575b806150e7575b156150965760046040517f9b8fdcd1000000000000000000000000000000000000000000000000000000008152fd5b600a8b1480156150dd575b806150d6575b15614f7e5760046040517f06f75887000000000000000000000000000000000000000000000000000000008152fd5b50846150a7565b5060098b146150a1565b5083615067565b50600b8b14615061565b5060068b1461505a565b60046040517fe1a6af64000000000000000000000000000000000000000000000000000000008152fd5b90508b111538614f18565b60046040517fb0ee46ab000000000000000000000000000000000000000000000000000000008152fd5b50600d8c11614f0a565b60046040517f032cac03000000000000000000000000000000000000000000000000000000008152fd5b508c73ffffffffffffffffffffffffffffffffffffffff60206151fe6151b96159ba565b936151c48d82612e7b565b6040519485809481937f6352211e000000000000000000000000000000000000000000000000000000008352600483019190602083019252565b0392165afa9081156124225773ffffffffffffffffffffffffffffffffffffffff918291600091615235575b501691161415614ee1565b61524e915060203d602011614aa157614a9281836102b3565b3861522a565b61526d915060203d602011614aa157614a9281836102b3565b38614ed5565b9a9750989597505091509150805b6152bf5750505061031592916126a06152ba9273ffffffffffffffffffffffffffffffffffffffff166000526009602052604060002090565b614d5a565b906152d66152db926152cf6159ba565b3087615a3e565b611717565b81518110156152f5576152ee81836116d4565b5180615281565b600080615281565b9650905061531e613e3c6101006148a66153168d6116c2565b51809a613282565b908a614e28565b604051906105e0820182811067ffffffffffffffff82111761025a57604052602e82526105c0366020840137565b9081518110156116cf570160200190565b908151156154a357615374615325565b916000906000615383856116c2565b526001918151916000925b8084106153b457505050506153aa6153af916104d69394615ac9565b615b0c565b615b53565b909192946153fd6153f76153f16153cb8987615353565b517fff000000000000000000000000000000000000000000000000000000000000001690565b60f81c90565b60ff1690565b9184925b60ff908982891686101561546257600192916154366154306153f76154298a61543c966116d4565b5160ff1690565b60081b90565b906130ce565b6154598b61545188603a9586860616926116d4565b9060ff169052565b04930192615401565b50919594935050809691965b61547c57506001019261538e565b9460ff6001603a9261549983858b06166154518d868516906116d4565b011695048061546e565b90506104d6613392565b604051906154ba8261027b565b600682527f66666539303000000000000000000000000000000000000000000000000000006020830152565b604051906154f38261027b565b600682527f66666337303000000000000000000000000000000000000000000000000000006020830152565b6040519061552c8261027b565b600682527f66336136303300000000000000000000000000000000000000000000000000006020830152565b604051906155658261027b565b600682527f39363561316100000000000000000000000000000000000000000000000000006020830152565b6040519061559e8261027b565b600682527f66663763303200000000000000000000000000000000000000000000000000006020830152565b604051906155d78261027b565b600682527f66643336303000000000000000000000000000000000000000000000000000006020830152565b604051906156108261027b565b600682527f63333265306400000000000000000000000000000000000000000000000000006020830152565b604051906156498261027b565b600682527f66666438633500000000000000000000000000000000000000000000000000006020830152565b604051906156828261027b565b600682527f66663936613900000000000000000000000000000000000000000000000000006020830152565b604051906156bb8261027b565b600682527f66653538386200000000000000000000000000000000000000000000000000006020830152565b604051906156f48261027b565b600682527f63393266343500000000000000000000000000000000000000000000000000006020830152565b6040519061572d8261027b565b600682527f36376437353700000000000000000000000000000000000000000000000000006020830152565b604051906157668261027b565b600682527f33306132323000000000000000000000000000000000000000000000000000006020830152565b6040519061579f8261027b565b600682527f32313761313500000000000000000000000000000000000000000000000000006020830152565b604051906157d88261027b565b600682527f30393439306600000000000000000000000000000000000000000000000000006020830152565b604051906158118261027b565b600682527f65343833656600000000000000000000000000000000000000000000000000006020830152565b6040519061584a8261027b565b600682527f64633266656600000000000000000000000000000000000000000000000000006020830152565b600181036158bd5750615887615720565b90615890615759565b90615899615792565b906158a26157cb565b906158ab615804565b906158b461583d565b906104d661583d565b6002810361590457506158ce61563c565b906158d7615675565b906158e06156ae565b906158e96156e7565b906158f261563c565b906158fb615675565b906104d66156ae565b6003810361594b575061591561551f565b9061591e615591565b906159276155ca565b90615930615603565b9061593961551f565b90615942615591565b906104d66155ca565b60041461597c5760046040517f9a7b3323000000000000000000000000000000000000000000000000000000008152fd5b6159846154ad565b9061598d6154e6565b9061599661551f565b9061599f615558565b906159a86154ad565b906159b16154e6565b906104d661551f565b73ffffffffffffffffffffffffffffffffffffffff7f000000000000000000000000000000000000000000000000000000000000000016331480615a33575b15615a2f577fffffffffffffffffffffffffffffffffffffffffffffffffffffffffffffffec360136811161149c573560601c90565b3390565b5060143610156159f9565b9092919273ffffffffffffffffffffffffffffffffffffffff80921690813b1561050d57600060649281958560405198899788967f42842e0e00000000000000000000000000000000000000000000000000000000885216600487015216602485015260448401525af1801561242257615ab55750565b67ffffffffffffffff811161025a57604052565b9060ff80911690615ad982611662565b9260005b838110615aeb575050505090565b8083615af9600193856116d4565b5116615b0582886116d4565b5201615add565b908151615b1881611662565b9060005b818110615b2a575090925050565b8060ff615b4060001960019489510301886116d4565b5116615b4c82866116d4565b5201615b1c565b8051615b5e816112bd565b91604090615b6f60405194856102b3565b828452615b7b836112bd565b90601f196020920136602087013760009260005b858110615b9f5750505050505090565b6001907fff00000000000000000000000000000000000000000000000000000000000000615c338451615bd181610297565b603a81527f31323334353637383941424344454647484a4b4c4d4e50515253545556575859888201527f5a6162636465666768696a6b6d6e6f707172737475767778797a0000000000008682015260ff615c2b85896116d4565b511690615353565b5116861a615c41828a615353565b5301615b8f56fea26469706673582212203d3a0c5c4bec4abb59b12685551f6c7e935d29d19e66c11de12a4fa907e2255c64736f6c63430008170033",
	"deployedBytecode": "0x6080604052600436101561001257600080fd5b60003560e01c806257bfdd146101b657806305b2ae1b146101b1578063150b7a02146101ac57806318ab522d146101a75780632150a138146101a25780632580833d1461019d57806331a290ac14610198578063572b6c05146101935780635e703e711461018e5780636aff31dd14610189578063715018a61461018457806379a2696e1461017f5780637da0a8771461017a578063875e4bea146101755780638da5cb5b14610170578063a0122c091461016b578063a22d0dd514610166578063b03a3eab14610161578063b1fa9e7b1461015c578063b3fa278314610157578063c06e7bc714610152578063c12280461461014d578063d756227e14610148578063da4fb43414610143578063e9379bad1461013e5763f2fde38b1461013957600080fd5b611549565b6114a1565b6113e0565b611310565b611264565b61110e565b611066565b61103b565b610f97565b610f52565b610ebd565b610e89565b610d18565b610cc7565b610c94565b610c15565b610be9565b610bbd565b610b5a565b6109a3565b61083c565b610794565b61071c565b610661565b610512565b6104d9565b90600182811c92168015610204575b60208310146101d557565b7f4e487b7100000000000000000000000000000000000000000000000000000000600052602260045260246000fd5b91607f16916101ca565b7f4e487b7100000000000000000000000000000000000000000000000000000000600052604160045260246000fd5b6101e0810190811067ffffffffffffffff82111761025a57604052565b61020e565b6020810190811067ffffffffffffffff82111761025a57604052565b6040810190811067ffffffffffffffff82111761025a57604052565b6060810190811067ffffffffffffffff82111761025a57604052565b90601f601f19910116810190811067ffffffffffffffff82111761025a57604052565b60405190600082600254916102ea836101bb565b808352926020906001908181169081156103785750600114610317575b5050610315925003836102b3565b565b91509260026000527f405787fa12a823e0f2b7631cc41b3ba8828b3321ca811111fa75cd3aa3bb5ace936000925b82841061036057506103159450505081016020013880610307565b85548885018301529485019487945092810192610345565b9050602093506103159592507fffffffffffffffffffffffffffffffffffffffffffffffffffffffffffffff0091501682840152151560051b8201013880610307565b906040519182600082546103ce816101bb565b9081845260209460019160018116908160001461043c57506001146103fd575b505050610315925003836102b3565b600090815285812095935091905b81831061042457505061031593508201013880806103ee565b8554888401850152948501948794509183019161040b565b9150506103159593507fffffffffffffffffffffffffffffffffffffffffffffffffffffffffffffff0091501682840152151560051b8201013880806103ee565b60005b8381106104905750506000910152565b8181015183820152602001610480565b90601f19601f6020936104be8151809281875287808801910161047d565b0116010190565b9060206104d69281815201906104a0565b90565b3461050d57600060031936011261050d576105096104f56102d6565b6040519182916020835260208301906104a0565b0390f35b600080fd5b3461050d5760008060031936011261061257604051908060075490610536826101bb565b808552916020916001918281169081156105c7575060011461056f575b61050986610563818803826102b3565b604051918291826104c5565b9350600784527fa66cc928b5edb82af9bd49922954155ab7b0942694bea4ce44661d9a8736c6885b8385106105b4575050505081016020016105638261050938610553565b8054868601840152938201938101610597565b879650610509979450602093506105639592507fffffffffffffffffffffffffffffffffffffffffffffffffffffffffffffff0091501682840152151560051b820101929338610553565b80fd5b73ffffffffffffffffffffffffffffffffffffffff81160361050d57565b9181601f8401121561050d5782359167ffffffffffffffff831161050d576020838186019501011161050d57565b3461050d57608060031936011261050d5760043561067e81610615565b610689602435610615565b60643567ffffffffffffffff811161050d576106a9903690600401610633565b505073ffffffffffffffffffffffffffffffffffffffff309116036106f25760206040517f150b7a02000000000000000000000000000000000000000000000000000000008152f35b60046040517fecb1aa84000000000000000000000000000000000000000000000000000000008152fd5b3461050d57604060031936011261050d5761074560043561073c81610615565b60243590611726565b906040519182916040830190835260209060406020850152825180915260206060850193019160005b82811061077d57505050500390f35b83518552869550938101939281019260010161076e565b3461050d57600080600319360112610612576040519080600454906107b8826101bb565b808552916020916001918281169081156105c757506001146107e45761050986610563818803826102b3565b9350600484527f8a35acfbc15ff81a39ae7d344fd709f28e8600b4aa8c65c6b64bfe7fe36bd19b5b838510610829575050505081016020016105638261050938610553565b805486860184015293820193810161080c565b3461050d5760008060031936011261061257604051908060055490610860826101bb565b808552916020916001918281169081156105c7575060011461088c5761050986610563818803826102b3565b9350600584527f036b6384b5eca791c62761152d0c79bb0604c104a5fb6f4eb0703f3154bb3db05b8385106108d1575050505081016020016105638261050938610553565b80548686018401529382019381016108b4565b604051906103158261023d565b67ffffffffffffffff811161025a5760051b60200190565b9291610914826108f1565b9161092260405193846102b3565b829481845260208094019160051b810192831161050d57905b8282106109485750505050565b8135815290830190830161093b565b9080601f8301121561050d578160206104d693359101610909565b9181601f8401121561050d5782359167ffffffffffffffff831161050d576020808501948460051b01011161050d57565b3461050d5760408060031936011261050d5760049067ffffffffffffffff823581811161050d576109d79036908501610957565b9060243590811161050d576109ef9036908501610972565b92909160005b8151811015610b5857610a0881836116d4565b51610a1e610a1783888861180e565b36916112d9565b610a3a610a3583600052600c602052604060002090565b61186e565b610b3057610a52826000526003602052604060002090565b548015610b085785516020810190610a7c81610a6e8487611878565b03601f1981018352826102b3565b51902003610ae057907faeb631726b45aa3f6b09da79f7af03a9784614901f61a967ed84d63c37b7edc7610ad783610aca60019695610ac586600052600c602052604060002090565b611941565b8751918291339083611a16565b0390a2016109f5565b8785517fd8e55daf000000000000000000000000000000000000000000000000000000008152fd5b8886517f38d87d39000000000000000000000000000000000000000000000000000000008152fd5b8785517f444244f5000000000000000000000000000000000000000000000000000000008152fd5b005b3461050d57602060031936011261050d576020600435610b7981610615565b73ffffffffffffffffffffffffffffffffffffffff9060405191807f000000000000000000000000b2b5841dbef766d4b521221732f9b618fcf34a87169116148152f35b3461050d57604060031936011261050d576105096104f5600435610be081610615565b60243590611ec3565b3461050d57602060031936011261050d5760043560005260036020526020604060002054604051908152f35b3461050d5760008060031936011261061257610c2f61461f565b8073ffffffffffffffffffffffffffffffffffffffff81547fffffffffffffffffffffffff000000000000000000000000000000000000000081168355167f8be0079c531659141344cd1fd0a4f28419497f9722a3daafe3b4186f6b6457e08280a380f35b3461050d57604060031936011261050d576020610cbf600435610cb681610615565b602435906126ff565b604051908152f35b3461050d57600060031936011261050d57602060405173ffffffffffffffffffffffffffffffffffffffff7f000000000000000000000000b2b5841dbef766d4b521221732f9b618fcf34a87168152f35b3461050d5760208060031936011261050d5767ffffffffffffffff60043581811161050d57610d4b903690600401610633565b9091610d5561461f565b811161025a57610d6f81610d6a6002546101bb565b6118a6565b600092601f8211600114610de55750610dc081807f512c3c91736f50c57a0548c1d01ab02f24c420f002b8b20e2bfe63df9693cd3f95600091610dda575b506000198260011b9260031b1c19161790565b6002555b610dd560405192839233918461276b565b0390a1005b905084013538610dad565b6002600052601f198216937f405787fa12a823e0f2b7631cc41b3ba8828b3321ca811111fa75cd3aa3bb5ace9181905b868210610e71575050827f512c3c91736f50c57a0548c1d01ab02f24c420f002b8b20e2bfe63df9693cd3f9510610e57575b5050600181811b01600255610dc4565b60001960f88460031b161c19908401351690553880610e47565b80600184958294958901358155019401920190610e15565b3461050d57600060031936011261050d57602073ffffffffffffffffffffffffffffffffffffffff60005416604051908152f35b3461050d57604060031936011261050d57610f2c600435610edd81610615565b610509610eed6024358093613282565b91610f3a610f17610f1162ffffff610100610f088887613db6565b97015116614363565b92613fec565b916040519586956060875260608701906104a0565b9085820360208701526104a0565b9083820360408501526104a0565b8015150361050d57565b3461050d57608060031936011261050d576105096104f5600435610f7581610615565b604435610f8181610f48565b60643591610f8e83610f48565b60243590612cad565b3461050d57604060031936011261050d5767ffffffffffffffff60043581811161050d57610fc9903690600401610957565b9060243590811161050d573660238201121561050d578060040135610fed816108f1565b91610ffb60405193846102b3565b8183526020916024602085019160051b8301019136831161050d57602401905b82821061102c57610b588587612dbf565b8135815290830190830161101b565b3461050d57604060031936011261050d576020610cbf60043561105d81610615565b60243590612e7b565b3461050d576000806003193601126106125760405190806006549061108a826101bb565b808552916020916001918281169081156105c757506001146110b65761050986610563818803826102b3565b9350600684527ff652222313e28459528d920b65115c16c04f3efc82aaedc97be59f3f377c0d3f5b8385106110fb575050505081016020016105638261050938610553565b80548686018401529382019381016110de565b3461050d57608060031936011261050d5760043561112b81610615565b602435906044359060643567ffffffffffffffff811161050d57611153903690600401610972565b61116085849693966149d9565b73ffffffffffffffffffffffffffffffffffffffff94858416916000968388526001602052604096878920868a5260205287892054421061123b576111a36159ba565b97838151918083528201527f07ffffffffffffffffffffffffffffffffffffffffffffffffffffffffffffff8411611237578661122e967f6a68946ba06488db8585d7c7637fa954b574035fe15720ea760125ef8601725883606086958a6112349f996112279a8c60051b8093868601371660208301528101030190a48587614aa8565b3691610909565b91614dda565b80f35b8980fd5b600488517f5a5ecb46000000000000000000000000000000000000000000000000000000008152fd5b3461050d57604060031936011261050d5773ffffffffffffffffffffffffffffffffffffffff60043561129681610615565b16600052600160205260406000206024356000526020526020604060002054604051908152f35b67ffffffffffffffff811161025a57601f01601f191660200190565b9291926112e5826112bd565b916112f360405193846102b3565b82948184528183011161050d578281602093846000960137010152565b3461050d57604060031936011261050d5767ffffffffffffffff60043581811161050d57611342903690600401610957565b60249060243583811161050d573660238201121561050d57806004013592611369846108f1565b9361137760405195866102b3565b8085526020956024602087019260051b8501019336851161050d5760248101925b8584106113a957610b588888612f27565b833583811161050d5782013660438201121561050d5789916113d58392369060448a82013591016112d9565b815201930192611398565b3461050d57606060031936011261050d576004356113fd81610615565b73ffffffffffffffffffffffffffffffffffffffff6024359161142083826149d9565b169060009180835260016020526040832082845260205260408320549160443542019283421161149c5783106114725761146e91845260016020526040842090600052602052604060002090565b5580f35b60046040517f415f2254000000000000000000000000000000000000000000000000000000008152fd5b6116e8565b3461050d57600080600319360112610612576040519080600854906114c5826101bb565b808552916020916001918281169081156105c757506001146114f15761050986610563818803826102b3565b9350600884527ff3f7a9fe364faab93b216da50a3214154f22a0a2b415b23a84c8169e8b636ee35b838510611536575050505081016020016105638261050938610553565b8054868601840152938201938101611519565b3461050d57602060031936011261050d5760043561156681610615565b61156e61461f565b73ffffffffffffffffffffffffffffffffffffffff80911680156115e0576000918254827fffffffffffffffffffffffff00000000000000000000000000000000000000008216178455167f8be0079c531659141344cd1fd0a4f28419497f9722a3daafe3b4186f6b6457e08380a380f35b60246040517f1e4fbdf700000000000000000000000000000000000000000000000000000000815260006004820152fd5b90604051918281549182825260209260208301916000526020600020936000905b82821061164857505050610315925003836102b3565b855484526001958601958895509381019390910190611632565b9061166c826108f1565b61167960405191826102b3565b828152601f1961168982946108f1565b0190602036910137565b7f4e487b7100000000000000000000000000000000000000000000000000000000600052603260045260246000fd5b8051156116cf5760200190565b611693565b80518210156116cf5760209160051b010190565b7f4e487b7100000000000000000000000000000000000000000000000000000000600052601160045260246000fd5b600019811461149c5760010190565b9190916000809273ffffffffffffffffffffffffffffffffffffffff8316845260096020526040842085855260205261176160408520611611565b9461176c8651611662565b928592865b88518110156117ba57806117876001928b6116d4565b5185611793828b612e7b565b146117a0575b5001611771565b6117b36117ac88611717565b97896116d4565b5238611799565b5094939560409197506118029293506117f38573ffffffffffffffffffffffffffffffffffffffff16600052600a602052604060002090565b848252602052205480936126ff565b1461180a5750565b9250565b91908110156116cf5760051b810135907fffffffffffffffffffffffffffffffffffffffffffffffffffffffffffffffe18136030182121561050d57019081359167ffffffffffffffff831161050d57602001823603811361050d579190565b6104d690546101bb565b9061188b6020928281519485920161047d565b0190565b81811061189a575050565b6000815560010161188f565b90601f82116118b3575050565b6103159160026000527f405787fa12a823e0f2b7631cc41b3ba8828b3321ca811111fa75cd3aa3bb5ace906020601f840160051c830193106118fd575b601f0160051c019061188f565b90915081906118f0565b9190601f811161191657505050565b610315926000526020600020906020601f840160051c830193106118fd57601f0160051c019061188f565b919091825167ffffffffffffffff811161025a576119698161196384546101bb565b84611907565b602080601f83116001146119ab5750819061199c9394956000926119a0575b50506000198260011b9260031b1c19161790565b9055565b015190503880611988565b90601f198316956119c185600052602060002090565b926000905b8882106119fe575050836001959697106119e5575b505050811b019055565b015160001960f88460031b161c191690553880806119db565b806001859682949686015181550195019301906119c6565b9073ffffffffffffffffffffffffffffffffffffffff611a436020929594956040855260408501906104a0565b9416910152565b60405190611a578261025f565b60008252565b60405190611a6a8261027b565b600e82527f226f7574666974496473223a205b0000000000000000000000000000000000006020830152565b6021610315919392936040519481611ab887935180926020808701910161047d565b8201611acd825180936020808501910161047d565b017f2c0000000000000000000000000000000000000000000000000000000000000060208201520360018101855201836102b3565b90610315602260405184611b2082965180926020808601910161047d565b81017f5d2c00000000000000000000000000000000000000000000000000000000000060208201520360028101855201836102b3565b602c610315919392936040519481611b7887935180926020808701910161047d565b82017f22776f726c644964223a200000000000000000000000000000000000000000006020820152611bb4825180936020602b8501910161047d565b017f2c00000000000000000000000000000000000000000000000000000000000000602b82015203600c8101855201836102b3565b603b610315919392936040519481611c0b87935180926020808701910161047d565b82017f226465636f726174696f6e734c6f636b6564556e74696c223a200000000000006020820152611c47825180936020603a8501910161047d565b017f2c00000000000000000000000000000000000000000000000000000000000000603a82015203601b8101855201836102b3565b90604051918260605160005b818110611cbd575090602061031593611cb182948401918383016000815281519485920161047d565b010380855201836102b3565b6020919250806080015182828801015201908491611c88565b6020610315919392936040519481611cf7879351809286808701910161047d565b8201611cb18251809386808501910161047d565b90610315603760405180947f22776f726e42794e616b656442616e6e794964223a20000000000000000000006020830152611d5081518092602060368601910161047d565b81017f2c0000000000000000000000000000000000000000000000000000000000000060368201520360178101855201836102b3565b90610315603760405180947f227573656442794e616b656442616e6e794964223a20000000000000000000006020830152611d5081518092602060368601910161047d565b81601f8201121561050d578051611de1816112bd565b92611def60405194856102b3565b8184526020828401011161050d576104d6916020808501910161047d565b9060208282031261050d57815167ffffffffffffffff811161050d576104d69201611dcb565b6040513d6000823e3d90fd5b9081602091031261050d575190565b9081606091031261050d57805191604060208301519201516104d681610615565b90610315603d60405180947f646174613a6170706c69636174696f6e2f6a736f6e3b6261736536342c0000006020830152611eb3815180926020868601910161047d565b810103601d8101855201836102b3565b90611ece8183613282565b9063ffffffff611ee2835163ffffffff1690565b16156126f457611ef0611a4a565b5061010082019062ffffff80611f09845162ffffff1690565b16156125fc57611f32611f2c611f23865163ffffffff1690565b63ffffffff1690565b86613521565b9283516125c0575b600182611f4a835162ffffff1690565b16036125a557611f6a611f65611f6085896126ff565b6133d1565b611d86565b915b8451156124275750606073ffffffffffffffffffffffffffffffffffffffff9495966004604051809781937f08786b1a000000000000000000000000000000000000000000000000000000008352165afa938415612422576000906000956123ed575b50611fda8785613db6565b948751611fea9063ffffffff1690565b63ffffffff16611ff990613fec565b9783516120089062ffffff1690565b62ffffff1661201690614363565b95612020906133d1565b9381516120309063ffffffff1690565b63ffffffff1661203f906133d1565b905161204f9062ffffff166133d1565b60608301516120639063ffffffff166133d1565b9160408401516120769063ffffffff1690565b63ffffffff16612085906133d1565b602094909401516120a4906cffffffffffffffffffffffffff166133d1565b946120ae906133d1565b956120b8906133d1565b96604051809c602082016120cb91611878565b039b601f199c8d810182526120e090826102b3565b6120e9906144e3565b6040517f7b226e616d65223a22000000000000000000000000000000000000000000000060208201529d8e9c919b9160298e0161212591611878565b7f222c202270726f647563744e616d65223a202200000000000000000000000000815260130161215491611878565b7f222c202263617465676f72794e616d65223a2022000000000000000000000000815260140161218391611878565b7f222c2022746f6b656e4964223a200000000000000000000000000000000000008152600e016121b291611878565b7f2c2022757063223a20000000000000000000000000000000000000000000000081526009016121e191611878565b7f2c202263617465676f7279223a200000000000000000000000000000000000008152600e0161221091611878565b7f2c2022737570706c79223a2000000000000000000000000000000000000000008152600c0161223f91611878565b7f2c202272656d61696e696e67223a2000000000000000000000000000000000008152600f0161226e91611878565b7f2c20227072696365223a200000000000000000000000000000000000000000008152600b0161229d91611878565b7f2c2022646563696d616c73223a200000000000000000000000000000000000008152600e016122cc91611878565b7f2c202263757272656e6379223a200000000000000000000000000000000000008152600e016122fb91611878565b7f2c20000000000000000000000000000000000000000000000000000000000000815260020161232a91611878565b7f226465736372697074696f6e223a2241207069656365206f662074686520426181527f6e6e797665727365222c22696d616765223a22646174613a696d6167652f737660208201527f672b786d6c3b6261736536342c000000000000000000000000000000000000006040820152604d016123a591611878565b7f227d00000000000000000000000000000000000000000000000000000000000081526002010390810182526123db90826102b3565b6123e4906144e3565b6104d690611e6f565b905061241291945060603d60601161241b575b61240a81836102b3565b810190611e4e565b50939038611fcf565b503d612400565b611e33565b92959450600d935061243d91505162ffffff1690565b161115612591576040517f6c0360eb00000000000000000000000000000000000000000000000000000000815260008160048173ffffffffffffffffffffffffffffffffffffffff86165afa928315612422576125209360209260009161256e575b50925b6124c76124ae8261393d565b73ffffffffffffffffffffffffffffffffffffffff1690565b906040518096819482937fc8df1710000000000000000000000000000000000000000000000000000000008452600484016020909392919373ffffffffffffffffffffffffffffffffffffffff60408201951681520152565b03915afa908115612422576104d69260009261253d575b506139cb565b61256091925060203d602011612567575b61255881836102b3565b810190611e3f565b9038612537565b503d61254e565b61258b91503d806000833e61258381836102b3565b810190611e0d565b3861249f565b60206125209261259f6102d6565b926124a2565b6125ba6125b5611f608589612e7b565b611d0b565b91611f6c565b926125e0906001836125d5875162ffffff1690565b16036125e65761382a565b92611f3a565b6125f7906125f2613682565b611cd6565b61382a565b93909261260c8483979497612b79565b6126168584611726565b9590612620611a5d565b986000995b88518b10156126555761264d6001916126476126418e8d6116d4565b516133d1565b90611a96565b9a0199612625565b909396995061266a9194975097919497611b02565b92806126d9575b506126af846126a08973ffffffffffffffffffffffffffffffffffffffff166000526001602052604060002090565b90600052602052604060002090565b544281116126be575b50611f6c565b926126cc6126d292946133d1565b90611be9565b91386126b8565b926126e76126ed92946133d1565b90611b56565b9138612671565b5050506104d6611a4a565b73ffffffffffffffffffffffffffffffffffffffff16600090808252600d602052604082208383526020526040822054928315918215612749575b5050612744575090565b905090565b9091508252600a6020526040822083835260205260408220541415388061273a565b916060601f19601f8373ffffffffffffffffffffffffffffffffffffffff94602096999899604089528160408a015285890137600084828901015201168401019416910152565b600854600092916127c2826101bb565b9160019081811690811561282e57506001146127dd57505050565b909192935060086000527ff3f7a9fe364faab93b216da50a3214154f22a0a2b415b23a84c8169e8b636ee3906000915b84831061281b575050500190565b818160209254858701520192019161280d565b7fffffffffffffffffffffffffffffffffffffffffffffffffffffffffffffff001683525050811515909102019150565b90604051918260209161287a8151809285808601910161047d565b600754600091830161288b826101bb565b9160019081811690811561291657506001146128b8575b505050610315925003601f1981018452836102b3565b94925060076000527fa66cc928b5edb82af9bd49922954155ab7b0942694bea4ce44661d9a8736c688946000905b8382106128fe575050610315945001013880806128a2565b865482840186015295860195889550908401906128e6565b90506103159694507fffffffffffffffffffffffffffffffffffffffffffffffffffffffffffffff00915092919216838301528015150201013880806128a2565b9060405191826020916129728151809285808601910161047d565b6004546000918301612983826101bb565b9160019081811690811561291657506001146129af57505050610315925003601f1981018452836102b3565b94925060046000527f8a35acfbc15ff81a39ae7d344fd709f28e8600b4aa8c65c6b64bfe7fe36bd19b946000905b8382106129f5575050610315945001013880806128a2565b865482840186015295860195889550908401906129dd565b906040519182602091612a288151809285808601910161047d565b6006546000918301612a39826101bb565b916001908181169081156129165750600114612a6557505050610315925003601f1981018452836102b3565b94925060066000527ff652222313e28459528d920b65115c16c04f3efc82aaedc97be59f3f377c0d3f946000905b838210612aab575050610315945001013880806128a2565b86548284018601529586019588955090840190612a93565b906040519182602091612ade8151809285808601910161047d565b6005546000918301612aef826101bb565b916001908181169081156129165750600114612b1b57505050610315925003601f1981018452836102b3565b94925060056000527f036b6384b5eca791c62761152d0c79bb0604c104a5fb6f4eb0703f3154bb3db0946000905b838210612b61575050610315945001013880806128a2565b86548284018601529586019588955090840190612b49565b612b838282613282565b9163ffffffff80612b98855163ffffffff1690565b1615612ca15760609162ffffff612bb661010087015162ffffff1690565b16612c6c57936001612c269392612c11612c06612bd66104d69989611726565b969080151580612c65575b612c4b575b50612c00612bfb611f23885163ffffffff1690565b614685565b90611cd6565b935163ffffffff1690565b1603612c4257612c2090612957565b9261485d565b8051612c33575b5061382a565b612c3c91611cd6565b38612c2d565b612c209061285f565b612c5f9150612c5a908a613521565b611c7c565b38612be6565b5085612be1565b505050612c83611f23612c89935163ffffffff1690565b90613521565b8051612c9857506104d6611a4a565b6104d69061382a565b505050506104d6611a4a565b9092612cb98483613282565b9363ffffffff9081612ccf875163ffffffff1690565b1615612db15760609062ffffff612ced61010089015162ffffff1690565b16612d975791612d2f612c06600193612d0a6104d69a9689611726565b978115159081612d8f575b50612d805750612c00612bfb611f23885163ffffffff1690565b1603612d7157612d3e90612957565b925b612d4c575b505061382a565b612d559161485d565b8051612d62575b80612d45565b612d6b91611cd6565b38612d5c565b612d7a9061285f565b92612d40565b612c5f9150612c5a9089613521565b905038612d15565b505050509050612c83611f23612c89935163ffffffff1690565b5050505050506104d6611a4a565b9190612dc961461f565b60009260005b8151811015612e7457612de281836116d4565b51612ded82856116d4565b5190808752602060038152604080892054612e4b5782917fb10eb6fc7557a7109693cb8f3fac48d44328de56c0368ee4cac539b424d2cad99185612e3f60019897966000526003602052604060002090565b5551338152a301612dcf565b600490517f2165e0ab000000000000000000000000000000000000000000000000000000008152fd5b5050509050565b60009173ffffffffffffffffffffffffffffffffffffffff82168352600e602052604083208184526020526040832054918215612f2157612edc9073ffffffffffffffffffffffffffffffffffffffff166000526009602052604060002090565b828452602052612eee60408420611611565b835b8151811015612f1a5782612f0482846116d4565b5114612f1257600101612ef0565b505050905090565b5050505090565b50505090565b91612f3061461f565b6000925b805184101561309e57612f4784826116d4565b5193612f5381856116d4565b519480600052602095600b8752604080600020825167ffffffffffffffff811161025a57612f858161196384546101bb565b89601f82116001146130045750917f9dedd219289ed514faff576c477c66bd097aef59a236e3b8ebcf0d0070cb4e969391612fde84612fed9560019a9b9c9d600091612ff957506000198260011b9260031b1c19161790565b90555b51918291339083611a16565b0390a201929190612f34565b905085015138610dad565b99601f19821661301984600052602060002090565b9b6000905b82821061308457505091600198999a9b7f9dedd219289ed514faff576c477c66bd097aef59a236e3b8ebcf0d0070cb4e9696949282612fed97951061306b575b5050881b88019055612fe1565b85015160001960f88460031b161c19169055388061305e565b80600181939f868b015181550194019d01909c929c61301e565b50915050565b906002820180921161149c57565b906020820180921161149c57565b906001820180921161149c57565b9190820180921161149c57565b519063ffffffff8216820361050d57565b51906cffffffffffffffffffffffffff8216820361050d57565b519061ffff8216820361050d57565b519061031582610615565b519062ffffff8216820361050d57565b519060ff8216820361050d57565b519061031582610f48565b60208183031261050d57805167ffffffffffffffff9182821161050d57016101e08184031261050d5761317a6108e4565b92613184826130db565b8452613192602083016130ec565b60208501526131a3604083016130db565b60408501526131b4606083016130db565b60608501526131c5608083016130ec565b60808501526131d660a08301613106565b60a08501526131e760c08301613115565b60c085015260e082015160e0850152610100613204818401613120565b90850152610120613216818401613130565b9085015261014061322881840161313e565b9085015261016061323a81840161313e565b9085015261018061324c81840161313e565b908501526101a061325e81840161313e565b908501526101c0928383015190811161050d5761327b9201611dcb565b9082015290565b6040516101c092613360926132968361023d565b6060600095848780965285602082015285604082015285838201528560808201528560a08201528560c08201528560e08201528561010082015285610120820152856101408201528561016082015285610180820152856101a082015201526133016124ae8261393d565b906040518095819482937fc44a8e6d00000000000000000000000000000000000000000000000000000000845260048401604090600092949373ffffffffffffffffffffffffffffffffffffffff606083019616825260208201520152565b03915afa91821561242257809261337657505090565b6104d692503d8091833e61338a81836102b3565b810190613149565b60405161339e8161025f565b60008152906000368137565b906133b4826112bd565b6133c160405191826102b3565b828152601f1961168982946112bd565b806000917a184f03e93ff9f4daa797ed6e38ed64bf6a1f01000000000000000080821015613513575b506d04ee2d6d415b85acef810000000080831015613504575b50662386f26fc10000808310156134f5575b506305f5e100808310156134e6575b50612710808310156134d7575b5060648210156134c7575b600a809210156134bd575b600190816021613469600187016133aa565b95860101905b61347a575050505090565b600019849101917f30313233343536373839616263646566000000000000000000000000000000008282061a8353049182156134b85791908261346f565b612f1a565b9160010191613457565b919060646002910491019161344c565b60049193920491019138613441565b60089193920491019138613434565b60109193920491019138613425565b60209193920491019138613413565b6040935081049150386133fa565b9080600052602091600c835261353a60406000206103bb565b805161367b57506135bf918173ffffffffffffffffffffffffffffffffffffffff613565869461393d565b16906040518095819482937fbd51923c000000000000000000000000000000000000000000000000000000008452600484016020909392919373ffffffffffffffffffffffffffffffffffffffff60408201951681520152565b03915afa801561242257613628926135ed6049926104d69460009161365e575b506135e86102d6565b6139cb565b60405194827f3c696d61676520687265663d220000000000000000000000000000000000000087948501528251928391602d8601910161047d565b81017f222077696474683d2234303022206865696768743d22343030222f3e00000000602d8201520360298101845201826102b3565b6136759150833d85116125675761255881836102b3565b386135df565b9250505090565b60446104d6604051610a6e600861380160208401937f7b66696c6c3a6e6f6e653b7d00000000000000000000000000000000000000008552600c81526136c78161027b565b60036137d7816137ad6040519a8b997f3c7374796c653e2e6f7b66696c6c3a233830383038303b7d2e6232000000000060208c0152603b61370e8c8951928391018461047d565b8b017f2e62330000000000000000000000000000000000000000000000000000000000603b82015287519061374782603e83018561047d565b017f2e62340000000000000000000000000000000000000000000000000000000000603e82015261377f88518093604184019061047d565b017f2e6131000000000000000000000000000000000000000000000000000000000060418201520185611878565b7f2e6132000000000000000000000000000000000000000000000000000000000081520183611878565b7f2e6133000000000000000000000000000000000000000000000000000000000081520190611878565b7f3c2f7374796c653e0000000000000000000000000000000000000000000000008152016127b2565b9061031560bb60405180947f3c7376672077696474683d2234303022206865696768743d223430302220766960208301527f6577426f783d223020302034303020343030222066696c6c3d2277686974652260408301527f20786d6c6e733d22687474703a2f2f7777772e77332e6f72672f323030302f7360608301527f7667223e3c7374796c653e2e6f7b66696c6c3a233035303530353b7d2e777b6660808301527f696c6c3a236639663966393b7d3c2f7374796c653e000000000000000000000060a083015261390781518092602060b58601910161047d565b81017f3c2f7376673e000000000000000000000000000000000000000000000000000060b582015203609b8101855201836102b3565b602073ffffffffffffffffffffffffffffffffffffffff916004604051809481937f507f1465000000000000000000000000000000000000000000000000000000008352165afa90811561242257600091613996575090565b90506020813d6020116139c3575b816139b1602093836102b3565b8101031261050d57516104d681610615565b3d91506139a4565b906104d690613a156040516020927f122000000000000000000000000000000000000000000000000000000000000084830152602282015260228152613a1081610297565b615364565b926040519381613a2e869351809286808701910161047d565b8201613a428251809386808501910161047d565b010380845201826102b3565b90610315602160405184613a6c82965180926020808601910161047d565b81017f200000000000000000000000000000000000000000000000000000000000000060208201520360018101855201836102b3565b60405190613aaf8261027b565b600a82527f2072656d61696e696e67000000000000000000000000000000000000000000006020830152565b90610315929493602192613b60604051978894602093613b038151809287808b01910161047d565b8601613b178251809387808501910161047d565b017f2f0000000000000000000000000000000000000000000000000000000000000084820152613b4f82518093868a8501910161047d565b01918351938491878501910161047d565b010360018101855201836102b3565b90610315929493602d92613c0a604051978894602093613b978151809287808b01910161047d565b86017f2028534f4c44204f55542920000000000000000000000000000000000000000085820152613bd18251809387602c8501910161047d565b017f2f00000000000000000000000000000000000000000000000000000000000000602c820152613b4f82518093868a8501910161047d565b0103600d8101855201836102b3565b61031591613b609493602192604051968793602092613c408151809286808a01910161047d565b8501613c548251809386808501910161047d565b01917f2f00000000000000000000000000000000000000000000000000000000000000818401528351938491878501910161047d565b90610315602360405184613ca882965180926020808601910161047d565b81017f203a20000000000000000000000000000000000000000000000000000000000060208201520360038101855201836102b3565b6021610315919392936040519481613d0087935180926020808701910161047d565b8201613d15825180936020808501910161047d565b017f200000000000000000000000000000000000000000000000000000000000000060208201520360018101855201836102b3565b6025610315919392936040519481613d6c87935180926020808701910161047d565b82017f55504320230000000000000000000000000000000000000000000000000000006020820152613da7825180936020878501910161047d565b010360058101855201836102b3565b90613e246104d692633b9aca00613de4613ddf613dda611f23875163ffffffff1690565b613fec565b613a4e565b9106613dee613aa2565b8115613e88575090613e02613e1f926133d1565b613e19611f60611f23606088015163ffffffff1690565b91613c19565b613c8a565b90613e49613e44613e3c61010084015162ffffff1690565b62ffffff1690565b614363565b8051613e6b575b50611f60611f23613e65925163ffffffff1690565b90613d4a565b611f23613e7f611f6092613e659495613cde565b93925050613e50565b9050604084019163ffffffff613ea2845163ffffffff1690565b1680613edd5750613ec0611f60611f23613e1f955163ffffffff1690565b613ed7611f60611f23606089015163ffffffff1690565b91613b6f565b613e1f9350613eeb906133d1565b613f02611f60611f23606089015163ffffffff1690565b91613adb565b60405190613f158261027b565b600882527f4f726967696e616c0000000000000000000000000000000000000000000000006020830152565b60405190613f4e8261027b565b600682527f4f72616e676500000000000000000000000000000000000000000000000000006020830152565b60405190613f878261027b565b600482527f50696e6b000000000000000000000000000000000000000000000000000000006020830152565b60405190613fc08261027b565b600582527f416c69656e0000000000000000000000000000000000000000000000000000006020830152565b60018103613ffd57506104d6613fb3565b6002810361400e57506104d6613f7a565b6003810361401f57506104d6613f41565b6004810361403057506104d6613f08565b600052600b6020526104d660406000206103bb565b604051906140528261027b565b600782527f546f7070696e67000000000000000000000000000000000000000000000000006020830152565b6040519061408b8261027b565b600482527f46697374000000000000000000000000000000000000000000000000000000006020830152565b604051906140c48261027b565b600b82527f5375697420626f74746f6d0000000000000000000000000000000000000000006020830152565b604051906140fd8261027b565b600882527f5375697420746f700000000000000000000000000000000000000000000000006020830152565b604051906141368261027b565b600482527f53756974000000000000000000000000000000000000000000000000000000006020830152565b6040519061416f8261027b565b600482527f48656164000000000000000000000000000000000000000000000000000000006020830152565b604051906141a88261027b565b600882527f4865616420746f700000000000000000000000000000000000000000000000006020830152565b604051906141e18261027b565b600582527f4d6f7574680000000000000000000000000000000000000000000000000000006020830152565b6040519061421a8261027b565b600782527f476c6173736573000000000000000000000000000000000000000000000000006020830152565b604051906142538261027b565b600882527f4e65636b6c6163650000000000000000000000000000000000000000000000006020830152565b6040519061428c8261027b565b600482527f4c656773000000000000000000000000000000000000000000000000000000006020830152565b604051906142c58261027b565b600882527f4261636b736964650000000000000000000000000000000000000000000000006020830152565b604051906142fe8261027b565b600582527f576f726c640000000000000000000000000000000000000000000000000000006020830152565b604051906143378261027b565b600b82527f4e616b65642042616e6e790000000000000000000000000000000000000000006020830152565b8061437157506104d661432a565b6001810361438257506104d66142f1565b6002810361439357506104d66142b8565b600781036143a457506104d661427f565b600381036143b557506104d6614246565b600581036143c657506104d661420d565b600681036143d757506104d66141d4565b600b81036143e857506104d661419b565b600481036143f957506104d6614162565b6008810361440a57506104d6614129565b600a810361441b57506104d66140f0565b6009810361442c57506104d66140b7565b600c810361443d57506104d661407e565b600d1461444c576104d6611a4a565b6104d6614045565b6040519061446182610297565b604082527f6768696a6b6c6d6e6f707172737475767778797a303132333435363738392b2f6040837f4142434445464748494a4b4c4d4e4f505152535455565758595a61626364656660208201520152565b908160021b917f3fffffffffffffffffffffffffffffffffffffffffffffffffffffffffffffff81160361149c57565b805115614616576144f2614454565b61450e61450961450284516130a4565b6003900490565b6144b3565b9161452061451b846130b2565b6133aa565b92835280815182019060208501935b8282106145c45750505060039051068060011461457b57600214614551575090565b6000197f3d0000000000000000000000000000000000000000000000000000000000000091015290565b507ffffffffffffffffffffffffffffffffffffffffffffffffffffffffffffffffe7f3d3d00000000000000000000000000000000000000000000000000000000000091015290565b9091936004906003809401938451600190603f9082828260121c16880101518553828282600c1c16880101518386015382828260061c168801015160028601531685010151908201530193919061452f565b506104d6611a4a565b73ffffffffffffffffffffffffffffffffffffffff8060005416816146426159ba565b160361464b5750565b6024906146566159ba565b6040517f118cdaa700000000000000000000000000000000000000000000000000000000815291166004820152fd5b61468e90615876565b93604096959693919351968796602088017f3c7374796c653e2e62317b66696c6c3a2300000000000000000000000000000090528051908160318a0191602001916146d89261047d565b8701603181017f3b7d2e62327b66696c6c3a230000000000000000000000000000000000000000905281519182603d830191602001916147179261047d565b01603d81017f3b7d2e62337b66696c6c3a2300000000000000000000000000000000000000009052815191826049830191602001916147559261047d565b0160498101614783907f3b7d2e62347b66696c6c3a2300000000000000000000000000000000000000009052565b60550161478f91611878565b7f3b7d2e61317b66696c6c3a2300000000000000000000000000000000000000008152600c016147be91611878565b7f3b7d2e61327b66696c6c3a2300000000000000000000000000000000000000008152600c016147ed91611878565b7f3b7d2e61337b66696c6c3a2300000000000000000000000000000000000000008152600c0161481c91611878565b7f3b7d3c2f7374796c653e000000000000000000000000000000000000000000008152600a0161484b906127b2565b03601f19810182526104d690826102b3565b9190916060835191600080938390825b614876826130c0565b8110156149ba576000828210156149b25750614892818a6116d4565b516148b0613e3c6101006148a6848a613282565b015162ffffff1690565b935b600385811496908715614983575050506001946148cf8288613521565b985b600686810361494f575050600a6001955b1180614945575b61492b575b8115159081614922575b5061490a575b5060010195919561486d565b60019196612c0061491b9288613521565b95906148fe565b905015386148f8565b976149369197611cd6565b9561493f611a4a565b976148ee565b50885115156148e9565b869196118061497b575b614966575b600a906148e2565b94509661497290612ac3565b9660019461495e565b508515614959565b869a9197929a11806149aa575b156148d1579550966149a190612a0d565b966001956148d1565b508615614990565b600e936148b2565b5050505050925050565b9081602091031261050d57516104d681610615565b90602060249273ffffffffffffffffffffffffffffffffffffffff93849360405195869384927f6352211e0000000000000000000000000000000000000000000000000000000084526004840152165afa91821561242257600092614a77575b5080614a436159ba565b16911603614a4d57565b60046040517f115472e4000000000000000000000000000000000000000000000000000000008152fd5b614a9a91925060203d602011614aa1575b614a9281836102b3565b8101906149c4565b9038614a39565b503d614a88565b9190614ad8816126a08573ffffffffffffffffffffffffffffffffffffffff16600052600a602052604060002090565b5491828103614ae8575b50505050565b8015614d2357614af66159ba565b73ffffffffffffffffffffffffffffffffffffffff808616906040517f6352211e0000000000000000000000000000000000000000000000000000000093848252602091828180614b4f8a600483019190602083019252565b0381885afa9081156124225784918291600091614d06575b5016911614159384614c8d575b50505050614c635763ffffffff614b98614b8e8387613282565b5163ffffffff1690565b1615614c39578181614bd1614c11946126a08873ffffffffffffffffffffffffffffffffffffffff16600052600a602052604060002090565b55614c00826126a08773ffffffffffffffffffffffffffffffffffffffff16600052600d602052604060002090565b55614c096159ba565b309085615a3e565b80614c1e575b8080614ae2565b614c3291614c2a6159ba565b903090615a3e565b3880614c17565b60046040517fe06a750d000000000000000000000000000000000000000000000000000000008152fd5b60046040517f8c7c7aa2000000000000000000000000000000000000000000000000000000008152fd5b819293945090614cc491614c9f6159ba565b95614caa888c6126ff565b916040518095819482938352600483019190602083019252565b03915afa908115612422578392600092614ce9575b5050169116141538808080614b74565b614cff9250803d10614aa157614a9281836102b3565b3880614cd9565b614d1d9150853d8711614aa157614a9281836102b3565b38614b67565b50614d546000916126a08573ffffffffffffffffffffffffffffffffffffffff16600052600a602052604060002090565b55614c11565b81519167ffffffffffffffff831161025a5768010000000000000000831161025a578154838355808410614dbc575b5060208091019160005260206000209060005b848110614daa575050505050565b83518382015592810192600101614d9c565b614dd49083600052846020600020918201910161188f565b38614d89565b929190600091828094614e19614e14856126a08a73ffffffffffffffffffffffffffffffffffffffff166000526009602052604060002090565b611611565b958294839484908a8a516152fd575b5085989195979397969296945b815186101561527357614e4886836116d4565b51968c73ffffffffffffffffffffffffffffffffffffffff6020614ea9614e6d6159ba565b938c6040519485809481937f6352211e000000000000000000000000000000000000000000000000000000008352600483019190602083019252565b0392165afa9081156124225773ffffffffffffffffffffffffffffffffffffffff918291600091615254575b50169116141580615195575b61516b578c9a886101009c8d91614ef791613282565b015162ffffff169a60028c108015615161575b61513757881515908161512c575b506151025760048b03615037575091948c946001935b8b8111158061502e575b15614fb05750908189614f519303614f97575b50611717565b948a868d80518210600014614f8857916148a6614f74613e3c93614f7c956116d4565b518099613282565b905b9590948d95614f2e565b50505093506000938490614f7e565b614faa90614fa36159ba565b3089615a3e565b38614f4b565b949b509894600192979693989a919a86614fca8284612e7b565b03614fe4575b505094019498919598979397969296614e35565b8187615017836126a06150279673ffffffffffffffffffffffffffffffffffffffff16600052600e602052604060002090565b556150206159ba565b3091615a3e565b8c38614fd0565b50801515614f38565b929360088b0361504e575092948c94600194614f2e565b9360058b1480156150f8575b80156150ee575b806150e7575b156150965760046040517f9b8fdcd1000000000000000000000000000000000000000000000000000000008152fd5b600a8b1480156150dd575b806150d6575b15614f7e5760046040517f06f75887000000000000000000000000000000000000000000000000000000008152fd5b50846150a7565b5060098b146150a1565b5083615067565b50600b8b14615061565b5060068b1461505a565b60046040517fe1a6af64000000000000000000000000000000000000000000000000000000008152fd5b90508b111538614f18565b60046040517fb0ee46ab000000000000000000000000000000000000000000000000000000008152fd5b50600d8c11614f0a565b60046040517f032cac03000000000000000000000000000000000000000000000000000000008152fd5b508c73ffffffffffffffffffffffffffffffffffffffff60206151fe6151b96159ba565b936151c48d82612e7b565b6040519485809481937f6352211e000000000000000000000000000000000000000000000000000000008352600483019190602083019252565b0392165afa9081156124225773ffffffffffffffffffffffffffffffffffffffff918291600091615235575b501691161415614ee1565b61524e915060203d602011614aa157614a9281836102b3565b3861522a565b61526d915060203d602011614aa157614a9281836102b3565b38614ed5565b9a9750989597505091509150805b6152bf5750505061031592916126a06152ba9273ffffffffffffffffffffffffffffffffffffffff166000526009602052604060002090565b614d5a565b906152d66152db926152cf6159ba565b3087615a3e565b611717565b81518110156152f5576152ee81836116d4565b5180615281565b600080615281565b9650905061531e613e3c6101006148a66153168d6116c2565b51809a613282565b908a614e28565b604051906105e0820182811067ffffffffffffffff82111761025a57604052602e82526105c0366020840137565b9081518110156116cf570160200190565b908151156154a357615374615325565b916000906000615383856116c2565b526001918151916000925b8084106153b457505050506153aa6153af916104d69394615ac9565b615b0c565b615b53565b909192946153fd6153f76153f16153cb8987615353565b517fff000000000000000000000000000000000000000000000000000000000000001690565b60f81c90565b60ff1690565b9184925b60ff908982891686101561546257600192916154366154306153f76154298a61543c966116d4565b5160ff1690565b60081b90565b906130ce565b6154598b61545188603a9586860616926116d4565b9060ff169052565b04930192615401565b50919594935050809691965b61547c57506001019261538e565b9460ff6001603a9261549983858b06166154518d868516906116d4565b011695048061546e565b90506104d6613392565b604051906154ba8261027b565b600682527f66666539303000000000000000000000000000000000000000000000000000006020830152565b604051906154f38261027b565b600682527f66666337303000000000000000000000000000000000000000000000000000006020830152565b6040519061552c8261027b565b600682527f66336136303300000000000000000000000000000000000000000000000000006020830152565b604051906155658261027b565b600682527f39363561316100000000000000000000000000000000000000000000000000006020830152565b6040519061559e8261027b565b600682527f66663763303200000000000000000000000000000000000000000000000000006020830152565b604051906155d78261027b565b600682527f66643336303000000000000000000000000000000000000000000000000000006020830152565b604051906156108261027b565b600682527f63333265306400000000000000000000000000000000000000000000000000006020830152565b604051906156498261027b565b600682527f66666438633500000000000000000000000000000000000000000000000000006020830152565b604051906156828261027b565b600682527f66663936613900000000000000000000000000000000000000000000000000006020830152565b604051906156bb8261027b565b600682527f66653538386200000000000000000000000000000000000000000000000000006020830152565b604051906156f48261027b565b600682527f63393266343500000000000000000000000000000000000000000000000000006020830152565b6040519061572d8261027b565b600682527f36376437353700000000000000000000000000000000000000000000000000006020830152565b604051906157668261027b565b600682527f33306132323000000000000000000000000000000000000000000000000000006020830152565b6040519061579f8261027b565b600682527f32313761313500000000000000000000000000000000000000000000000000006020830152565b604051906157d88261027b565b600682527f30393439306600000000000000000000000000000000000000000000000000006020830152565b604051906158118261027b565b600682527f65343833656600000000000000000000000000000000000000000000000000006020830152565b6040519061584a8261027b565b600682527f64633266656600000000000000000000000000000000000000000000000000006020830152565b600181036158bd5750615887615720565b90615890615759565b90615899615792565b906158a26157cb565b906158ab615804565b906158b461583d565b906104d661583d565b6002810361590457506158ce61563c565b906158d7615675565b906158e06156ae565b906158e96156e7565b906158f261563c565b906158fb615675565b906104d66156ae565b6003810361594b575061591561551f565b9061591e615591565b906159276155ca565b90615930615603565b9061593961551f565b90615942615591565b906104d66155ca565b60041461597c5760046040517f9a7b3323000000000000000000000000000000000000000000000000000000008152fd5b6159846154ad565b9061598d6154e6565b9061599661551f565b9061599f615558565b906159a86154ad565b906159b16154e6565b906104d661551f565b73ffffffffffffffffffffffffffffffffffffffff7f000000000000000000000000b2b5841dbef766d4b521221732f9b618fcf34a8716331480615a33575b15615a2f577fffffffffffffffffffffffffffffffffffffffffffffffffffffffffffffffec360136811161149c573560601c90565b3390565b5060143610156159f9565b9092919273ffffffffffffffffffffffffffffffffffffffff80921690813b1561050d57600060649281958560405198899788967f42842e0e00000000000000000000000000000000000000000000000000000000885216600487015216602485015260448401525af1801561242257615ab55750565b67ffffffffffffffff811161025a57604052565b9060ff80911690615ad982611662565b9260005b838110615aeb575050505090565b8083615af9600193856116d4565b5116615b0582886116d4565b5201615add565b908151615b1881611662565b9060005b818110615b2a575090925050565b8060ff615b4060001960019489510301886116d4565b5116615b4c82866116d4565b5201615b1c565b8051615b5e816112bd565b91604090615b6f60405194856102b3565b828452615b7b836112bd565b90601f196020920136602087013760009260005b858110615b9f5750505050505090565b6001907fff00000000000000000000000000000000000000000000000000000000000000615c338451615bd181610297565b603a81527f31323334353637383941424344454647484a4b4c4d4e50515253545556575859888201527f5a6162636465666768696a6b6d6e6f707172737475767778797a0000000000008682015260ff615c2b85896116d4565b511690615353565b5116861a615c41828a615353565b5301615b8f56fea26469706673582212203d3a0c5c4bec4abb59b12685551f6c7e935d29d19e66c11de12a4fa907e2255c64736f6c63430008170033",
	"devdoc": {
		"kind": "dev",
		"methods": {
			"assetIdsOf(address,uint256)": {
				"custom:param": "hook The hook address of the collection.",
				"params": {
					"nakedBannyId": "The ID of the naked banny shows with the associated assets."
				},
				"returns": {
					"outfitIds": "The outfits attached to the Naked Banny.",
					"worldId": "The world attached to the Naked Banny."
				}
			},
			"constructor": {
				"params": {
					"defaultAlienEyes": "The SVG of the default alien eyes.",
					"defaultMouth": "The SVG of the default mouth.",
					"defaultNecklace": "The SVG of the default necklace.",
					"defaultStandardEyes": "The SVG of the default standard eyes.",
					"nakedBanny": "The SVG of the naked banny.",
					"owner": "The owner allowed to add SVG files that correspond to product IDs.",
					"trustedForwarder": "The trusted forwarder for the ERC2771Context."
				}
			},
			"decorateBannyWith(address,uint256,uint256,uint256[])": {
				"details": "The caller must own the naked banny being dressed and all outfits being worn.",
				"params": {
					"hook": "The hook storing the assets.",
					"nakedBannyId": "The ID of the Naked Banny being dressed.",
					"outfitIds": "The IDs of the outfits that'll be associated with the specified banny. Only one outfit per outfit category allowed at a time and they must be passed in order.",
					"worldId": "The ID of the world that'll be associated with the specified banny."
				}
			},
			"isTrustedForwarder(address)": {
				"details": "Indicates whether any particular address is the trusted forwarder."
			},
			"lockOutfitChangesFor(address,uint256,uint256)": {
				"params": {
					"duration": "The amount of seconds to lock the naked banny for.",
					"hook": "The hook address of the collection.",
					"nakedBannyId": "The ID of the Naked Banny to lock."
				}
			},
			"namesOf(address,uint256)": {
				"params": {
					"hook": "The hook storing the assets.",
					"tokenId": "The ID of the token to show."
				},
				"returns": {
					"_0": "fullName The full name of the token.",
					"_1": "categoryName The name of the token's category.",
					"_2": "productName The name of the token's product."
				}
			},
			"onERC721Received(address,address,uint256,bytes)": {
				"details": "Make sure tokens can be receieved if the transaction was initiated by this contract.",
				"params": {
					"data": "The data of the transfer.",
					"from": "The address that initiated the transfer.",
					"operator": "The address that initiated the transaction.",
					"tokenId": "The ID of the token being transferred."
				}
			},
			"owner()": {
				"details": "Returns the address of the current owner."
			},
			"renounceOwnership()": {
				"details": "Leaves the contract without owner. It will not be possible to call `onlyOwner` functions. Can only be called by the current owner. NOTE: Renouncing ownership will leave the contract without an owner, thereby disabling any functionality that is only available to the owner."
			},
			"setProductNames(uint256[],string[])": {
				"params": {
					"names": "The names of the products.",
					"upcs": "The universal product codes of the products having their name stored."
				}
			},
			"setSvgBaseUri(string)": {
				"params": {
					"baseUri": "The base URI of the SVG files."
				}
			},
			"setSvgContentsOf(uint256[],string[])": {
				"params": {
					"svgContents": "The svg contents being stored, not including the parent <svg></svg> element.",
					"upcs": "The universal product codes of the products having SVGs stored."
				}
			},
			"setSvgHashsOf(uint256[],bytes32[])": {
				"details": "This allows anyone to lazily upload the correct svg file.",
				"params": {
					"svgHashs": "The svg hashes being stored, not including the parent <svg></svg> element.",
					"upcs": "The universal product codes of the products having SVG hashes stored."
				}
			},
			"svgOf(address,uint256,bool,bool)": {
				"params": {
					"hook": "The hook storing the assets.",
					"shouldDressNakedBanny": "Whether the naked banny should be dressed.",
					"shouldIncludeWorldOnNakedBanny": "Whether the world should be included on the naked banny.",
					"tokenId": "The ID of the token to show. If the ID belongs to a Naked Banny, it will be shown with its current outfits in its current world if specified."
				},
				"returns": {
					"_0": "svg The SVG."
				}
			},
			"tokenUriOf(address,uint256)": {
				"params": {
					"tokenId": "The ID of the token to show. If the ID belongs to a Naked Banny, it will be shown with its current outfits in its current world."
				},
				"returns": {
					"_0": "tokenUri The URI representing the SVG."
				}
			},
			"transferOwnership(address)": {
				"details": "Transfers ownership of the contract to a new account (`newOwner`). Can only be called by the current owner."
			},
			"trustedForwarder()": {
				"details": "Returns the address of the trusted forwarder."
			},
			"userOf(address,uint256)": {
				"params": {
					"hook": "The hook address of the collection.",
					"worldId": "The ID of the world being used."
				},
				"returns": {
					"_0": "The ID of the naked banny using the world."
				}
			},
			"wearerOf(address,uint256)": {
				"params": {
					"hook": "The hook address of the collection.",
					"outfitId": "The ID of the outfit being worn."
				},
				"returns": {
					"_0": "The ID of the naked banny wearing the outfit."
				}
			}
		},
		"version": 1
	},
	"userdoc": {
		"kind": "user",
		"methods": {
			"assetIdsOf(address,uint256)": {
				"notice": "The assets currently attached to each Naked Banny."
			},
			"decorateBannyWith(address,uint256,uint256,uint256[])": {
				"notice": "Dress your Naked Banny with outfits."
			},
			"lockOutfitChangesFor(address,uint256,uint256)": {
				"notice": "Locks a naked banny ID so that it can't change its outfit for a period of time."
			},
			"namesOf(address,uint256)": {
				"notice": "Returns the name of the token."
			},
			"outfitLockedUntil(address,uint256)": {
				"notice": "The amount of time each naked banny is currently locked for."
			},
			"setProductNames(uint256[],string[])": {
				"notice": "Allows the owner to set the product's name."
			},
			"setSvgBaseUri(string)": {
				"notice": "Allows the owner of this contract to specify the base of the domain hosting the SVG files."
			},
			"setSvgContentsOf(uint256[],string[])": {
				"notice": "The owner of this contract can store SVG files for product IDs."
			},
			"setSvgHashsOf(uint256[],bytes32[])": {
				"notice": "Allows the owner of this contract to upload the hash of an svg file for a universal product code."
			},
			"svgBaseUri()": {
				"notice": "The base of the domain hosting the SVG files that can be lazily uploaded to the contract."
			},
			"svgHashOf(uint256)": {
				"notice": "The Naked Banny and outfit SVG hash files."
			},
			"svgOf(address,uint256,bool,bool)": {
				"notice": "Returns the SVG showing either a naked banny with/without outfits and a world, or the stand alone outfit or world."
			},
			"tokenUriOf(address,uint256)": {
				"notice": "Returns the SVG showing a dressed Naked Banny in a world."
			},
			"userOf(address,uint256)": {
				"notice": "Checks to see which naked banny is currently using a particular world."
			},
			"wearerOf(address,uint256)": {
				"notice": "Checks to see which naked banny is currently wearing a particular outfit."
			}
		},
		"version": 1
	},
	"gitCommit": "57b015063ed156fa1e6437b59019f8c3375b1c37",
	"sourceName": "src/Banny721TokenUriResolver.sol",
	"chainId": "421614",
	"linkReferences": {},
	"deployedLinkReferences": {},
	"history": []
}