{
	"_format": "sphinx-sol-ct-artifact-1",
	"merkleRoot": "0x8a2da1cf13f3264a3b6fae1aecf6e1e9efd78153eb202f45bc5fa9567482db6a",
	"address": "0xd8345ce13f113aeff06450e9a636a7df8d1ecd17",
	"sourceName": "src/Banny721TokenUriResolver.sol",
	"contractName": "Banny721TokenUriResolver",
	"chainId": "0x66eee",
	"abi": [
		{
			"inputs": [
				{
					"internalType": "string",
					"name": "nakedBanny",
					"type": "string"
				},
				{
					"internalType": "string",
					"name": "defaultNecklace",
					"type": "string"
				},
				{
					"internalType": "string",
					"name": "defaultMouth",
					"type": "string"
				},
				{
					"internalType": "string",
					"name": "defaultStandardEyes",
					"type": "string"
				},
				{
					"internalType": "string",
					"name": "defaultAlienEyes",
					"type": "string"
				},
				{
					"internalType": "address",
					"name": "owner",
					"type": "address"
				},
				{
					"internalType": "address",
					"name": "trustedForwarder",
					"type": "address"
				}
			],
			"stateMutability": "nonpayable",
			"type": "constructor"
		},
		{
			"inputs": [],
			"name": "DEFAULT_ALIEN_EYES",
			"outputs": [
				{
					"internalType": "string",
					"name": "",
					"type": "string"
				}
			],
			"stateMutability": "view",
			"type": "function"
		},
		{
			"inputs": [],
			"name": "DEFAULT_MOUTH",
			"outputs": [
				{
					"internalType": "string",
					"name": "",
					"type": "string"
				}
			],
			"stateMutability": "view",
			"type": "function"
		},
		{
			"inputs": [],
			"name": "DEFAULT_NECKLACE",
			"outputs": [
				{
					"internalType": "string",
					"name": "",
					"type": "string"
				}
			],
			"stateMutability": "view",
			"type": "function"
		},
		{
			"inputs": [],
			"name": "DEFAULT_STANDARD_EYES",
			"outputs": [
				{
					"internalType": "string",
					"name": "",
					"type": "string"
				}
			],
			"stateMutability": "view",
			"type": "function"
		},
		{
			"inputs": [],
			"name": "NAKED_BANNY",
			"outputs": [
				{
					"internalType": "string",
					"name": "",
					"type": "string"
				}
			],
			"stateMutability": "view",
			"type": "function"
		},
		{
			"inputs": [
				{
					"internalType": "address",
					"name": "hook",
					"type": "address"
				},
				{
					"internalType": "uint256",
					"name": "nakedBannyId",
					"type": "uint256"
				}
			],
			"name": "assetIdsOf",
			"outputs": [
				{
					"internalType": "uint256",
					"name": "worldId",
					"type": "uint256"
				},
				{
					"internalType": "uint256[]",
					"name": "outfitIds",
					"type": "uint256[]"
				}
			],
			"stateMutability": "view",
			"type": "function"
		},
		{
			"inputs": [
				{
					"internalType": "address",
					"name": "hook",
					"type": "address"
				},
				{
					"internalType": "uint256",
					"name": "nakedBannyId",
					"type": "uint256"
				},
				{
					"internalType": "uint256",
					"name": "worldId",
					"type": "uint256"
				},
				{
					"internalType": "uint256[]",
					"name": "outfitIds",
					"type": "uint256[]"
				}
			],
			"name": "decorateBannyWith",
			"outputs": [],
			"stateMutability": "nonpayable",
			"type": "function"
		},
		{
			"inputs": [
				{
					"internalType": "address",
					"name": "forwarder",
					"type": "address"
				}
			],
			"name": "isTrustedForwarder",
			"outputs": [
				{
					"internalType": "bool",
					"name": "",
					"type": "bool"
				}
			],
			"stateMutability": "view",
			"type": "function"
		},
		{
			"inputs": [
				{
					"internalType": "address",
					"name": "hook",
					"type": "address"
				},
				{
					"internalType": "uint256",
					"name": "nakedBannyId",
					"type": "uint256"
				}
			],
			"name": "lockOutfitChangesFor",
			"outputs": [],
			"stateMutability": "nonpayable",
			"type": "function"
		},
		{
			"inputs": [
				{
					"internalType": "address",
					"name": "hook",
					"type": "address"
				},
				{
					"internalType": "uint256",
					"name": "tokenId",
					"type": "uint256"
				}
			],
			"name": "namesOf",
			"outputs": [
				{
					"internalType": "string",
					"name": "",
					"type": "string"
				},
				{
					"internalType": "string",
					"name": "",
					"type": "string"
				},
				{
					"internalType": "string",
					"name": "",
					"type": "string"
				}
			],
			"stateMutability": "view",
			"type": "function"
		},
		{
			"inputs": [
				{
					"internalType": "address",
					"name": "operator",
					"type": "address"
				},
				{
					"internalType": "address",
					"name": "from",
					"type": "address"
				},
				{
					"internalType": "uint256",
					"name": "tokenId",
					"type": "uint256"
				},
				{
					"internalType": "bytes",
					"name": "data",
					"type": "bytes"
				}
			],
			"name": "onERC721Received",
			"outputs": [
				{
					"internalType": "bytes4",
					"name": "",
					"type": "bytes4"
				}
			],
			"stateMutability": "view",
			"type": "function"
		},
		{
			"inputs": [
				{
					"internalType": "address",
					"name": "hook",
					"type": "address"
				},
				{
					"internalType": "uint256",
					"name": "upc",
					"type": "uint256"
				}
			],
			"name": "outfitLockedUntil",
			"outputs": [
				{
					"internalType": "uint256",
					"name": "",
					"type": "uint256"
				}
			],
			"stateMutability": "view",
			"type": "function"
		},
		{
			"inputs": [],
			"name": "owner",
			"outputs": [
				{
					"internalType": "address",
					"name": "",
					"type": "address"
				}
			],
			"stateMutability": "view",
			"type": "function"
		},
		{
			"inputs": [],
			"name": "renounceOwnership",
			"outputs": [],
			"stateMutability": "nonpayable",
			"type": "function"
		},
		{
			"inputs": [
				{
					"internalType": "uint256[]",
					"name": "upcs",
					"type": "uint256[]"
				},
				{
					"internalType": "string[]",
					"name": "names",
					"type": "string[]"
				}
			],
			"name": "setProductNames",
			"outputs": [],
			"stateMutability": "nonpayable",
			"type": "function"
		},
		{
			"inputs": [
				{
					"internalType": "string",
					"name": "baseUri",
					"type": "string"
				}
			],
			"name": "setSvgBaseUri",
			"outputs": [],
			"stateMutability": "nonpayable",
			"type": "function"
		},
		{
			"inputs": [
				{
					"internalType": "uint256[]",
					"name": "upcs",
					"type": "uint256[]"
				},
				{
					"internalType": "string[]",
					"name": "svgContents",
					"type": "string[]"
				}
			],
			"name": "setSvgContentsOf",
			"outputs": [],
			"stateMutability": "nonpayable",
			"type": "function"
		},
		{
			"inputs": [
				{
					"internalType": "uint256[]",
					"name": "upcs",
					"type": "uint256[]"
				},
				{
					"internalType": "bytes32[]",
					"name": "svgHashs",
					"type": "bytes32[]"
				}
			],
			"name": "setSvgHashsOf",
			"outputs": [],
			"stateMutability": "nonpayable",
			"type": "function"
		},
		{
			"inputs": [],
			"name": "svgBaseUri",
			"outputs": [
				{
					"internalType": "string",
					"name": "",
					"type": "string"
				}
			],
			"stateMutability": "view",
			"type": "function"
		},
		{
			"inputs": [
				{
					"internalType": "uint256",
					"name": "upc",
					"type": "uint256"
				}
			],
			"name": "svgHashOf",
			"outputs": [
				{
					"internalType": "bytes32",
					"name": "",
					"type": "bytes32"
				}
			],
			"stateMutability": "view",
			"type": "function"
		},
		{
			"inputs": [
				{
					"internalType": "address",
					"name": "hook",
					"type": "address"
				},
				{
					"internalType": "uint256",
					"name": "tokenId",
					"type": "uint256"
				},
				{
					"internalType": "bool",
					"name": "shouldDressNakedBanny",
					"type": "bool"
				},
				{
					"internalType": "bool",
					"name": "shouldIncludeWorldOnNakedBanny",
					"type": "bool"
				}
			],
			"name": "svgOf",
			"outputs": [
				{
					"internalType": "string",
					"name": "",
					"type": "string"
				}
			],
			"stateMutability": "view",
			"type": "function"
		},
		{
			"inputs": [
				{
					"internalType": "address",
					"name": "hook",
					"type": "address"
				},
				{
					"internalType": "uint256",
					"name": "tokenId",
					"type": "uint256"
				}
			],
			"name": "tokenUriOf",
			"outputs": [
				{
					"internalType": "string",
					"name": "",
					"type": "string"
				}
			],
			"stateMutability": "view",
			"type": "function"
		},
		{
			"inputs": [
				{
					"internalType": "address",
					"name": "newOwner",
					"type": "address"
				}
			],
			"name": "transferOwnership",
			"outputs": [],
			"stateMutability": "nonpayable",
			"type": "function"
		},
		{
			"inputs": [],
			"name": "trustedForwarder",
			"outputs": [
				{
					"internalType": "address",
					"name": "",
					"type": "address"
				}
			],
			"stateMutability": "view",
			"type": "function"
		},
		{
			"inputs": [
				{
					"internalType": "address",
					"name": "hook",
					"type": "address"
				},
				{
					"internalType": "uint256",
					"name": "worldId",
					"type": "uint256"
				}
			],
			"name": "userOf",
			"outputs": [
				{
					"internalType": "uint256",
					"name": "",
					"type": "uint256"
				}
			],
			"stateMutability": "view",
			"type": "function"
		},
		{
			"inputs": [
				{
					"internalType": "address",
					"name": "hook",
					"type": "address"
				},
				{
					"internalType": "uint256",
					"name": "outfitId",
					"type": "uint256"
				}
			],
			"name": "wearerOf",
			"outputs": [
				{
					"internalType": "uint256",
					"name": "",
					"type": "uint256"
				}
			],
			"stateMutability": "view",
			"type": "function"
		},
		{
			"anonymous": false,
			"inputs": [
				{
					"indexed": true,
					"internalType": "address",
					"name": "hook",
					"type": "address"
				},
				{
					"indexed": true,
					"internalType": "uint256",
					"name": "nakedBannyId",
					"type": "uint256"
				},
				{
					"indexed": true,
					"internalType": "uint256",
					"name": "worldId",
					"type": "uint256"
				},
				{
					"indexed": false,
					"internalType": "uint256[]",
					"name": "outfitIds",
					"type": "uint256[]"
				},
				{
					"indexed": false,
					"internalType": "address",
					"name": "caller",
					"type": "address"
				}
			],
			"name": "DecorateBanny",
			"type": "event"
		},
		{
			"anonymous": false,
			"inputs": [
				{
					"indexed": true,
					"internalType": "address",
					"name": "previousOwner",
					"type": "address"
				},
				{
					"indexed": true,
					"internalType": "address",
					"name": "newOwner",
					"type": "address"
				}
			],
			"name": "OwnershipTransferred",
			"type": "event"
		},
		{
			"anonymous": false,
			"inputs": [
				{
					"indexed": true,
					"internalType": "uint256",
					"name": "upc",
					"type": "uint256"
				},
				{
					"indexed": false,
					"internalType": "string",
					"name": "name",
					"type": "string"
				},
				{
					"indexed": false,
					"internalType": "address",
					"name": "caller",
					"type": "address"
				}
			],
			"name": "SetProductName",
			"type": "event"
		},
		{
			"anonymous": false,
			"inputs": [
				{
					"indexed": false,
					"internalType": "string",
					"name": "baseUri",
					"type": "string"
				},
				{
					"indexed": false,
					"internalType": "address",
					"name": "caller",
					"type": "address"
				}
			],
			"name": "SetSvgBaseUri",
			"type": "event"
		},
		{
			"anonymous": false,
			"inputs": [
				{
					"indexed": true,
					"internalType": "uint256",
					"name": "upc",
					"type": "uint256"
				},
				{
					"indexed": false,
					"internalType": "string",
					"name": "svgContent",
					"type": "string"
				},
				{
					"indexed": false,
					"internalType": "address",
					"name": "caller",
					"type": "address"
				}
			],
			"name": "SetSvgContent",
			"type": "event"
		},
		{
			"anonymous": false,
			"inputs": [
				{
					"indexed": true,
					"internalType": "uint256",
					"name": "upc",
					"type": "uint256"
				},
				{
					"indexed": true,
					"internalType": "bytes32",
					"name": "svgHash",
					"type": "bytes32"
				},
				{
					"indexed": false,
					"internalType": "address",
					"name": "caller",
					"type": "address"
				}
			],
			"name": "SetSvgHash",
			"type": "event"
		},
		{
			"inputs": [],
			"name": "Banny721TokenUriResolver_CantAccelerateTheLock",
			"type": "error"
		},
		{
			"inputs": [],
			"name": "Banny721TokenUriResolver_ContentsAlreadyStored",
			"type": "error"
		},
		{
			"inputs": [],
			"name": "Banny721TokenUriResolver_ContentsMismatch",
			"type": "error"
		},
		{
			"inputs": [],
			"name": "Banny721TokenUriResolver_HashAlreadyStored",
			"type": "error"
		},
		{
			"inputs": [],
			"name": "Banny721TokenUriResolver_HashNotFound",
			"type": "error"
		},
		{
			"inputs": [],
			"name": "Banny721TokenUriResolver_HeadAlreadyAdded",
			"type": "error"
		},
		{
			"inputs": [],
			"name": "Banny721TokenUriResolver_LockedNakedBanny",
			"type": "error"
		},
		{
			"inputs": [],
			"name": "Banny721TokenUriResolver_OutfitChangesLocked",
			"type": "error"
		},
		{
			"inputs": [],
			"name": "Banny721TokenUriResolver_SuitAlreadyAdded",
			"type": "error"
		},
		{
			"inputs": [],
			"name": "Banny721TokenUriResolver_UnauthorizedNakedBanny",
			"type": "error"
		},
		{
			"inputs": [],
			"name": "Banny721TokenUriResolver_UnauthorizedOutfit",
			"type": "error"
		},
		{
			"inputs": [],
			"name": "Banny721TokenUriResolver_UnauthorizedTransfer",
			"type": "error"
		},
		{
			"inputs": [],
			"name": "Banny721TokenUriResolver_UnauthorizedWorld",
			"type": "error"
		},
		{
			"inputs": [],
			"name": "Banny721TokenUriResolver_UnorderedCategories",
			"type": "error"
		},
		{
			"inputs": [],
			"name": "Banny721TokenUriResolver_UnrecognizedCategory",
			"type": "error"
		},
		{
			"inputs": [],
			"name": "Banny721TokenUriResolver_UnrecognizedProduct",
			"type": "error"
		},
		{
			"inputs": [],
			"name": "Banny721TokenUriResolver_UnrecognizedWorld",
			"type": "error"
		},
		{
			"inputs": [
				{
					"internalType": "address",
					"name": "owner",
					"type": "address"
				}
			],
			"name": "OwnableInvalidOwner",
			"type": "error"
		},
		{
			"inputs": [
				{
					"internalType": "address",
					"name": "account",
					"type": "address"
				}
			],
			"name": "OwnableUnauthorizedAccount",
			"type": "error"
		},
		{
			"inputs": [],
			"name": "ReentrancyGuardReentrantCall",
			"type": "error"
		}
	],
	"args": [],
	"solcInputHash": "958ec6ab2abf52065583f4d6896758cd",
	"bytecode": "0x60a06040523462000768576200655b803803806200001d816200076c565b928339810160e082820312620007685781516001600160401b03908181116200076857826200004e91850162000792565b602093848101518381116200076857846200006b91830162000792565b9360408201518481116200076857816200008791840162000792565b6060830151858111620007685782620000a291850162000792565b916080840151908682116200076857620000be91850162000792565b92620000db60c0620000d360a0840162000802565b920162000802565b906001600160a01b0390811690811562000750575f548260018060a01b03198216175f55167f8be0079c531659141344cd1fd0a4f28419497f9722a3daafe3b4186f6b6457e05f80a36080526001958680558451868111620003f657600954958887811c9716801562000745575b8a881014620003d7578190601f97888111620006f1575b508a9088831160011462000689575f926200067d575b50505f19600383901b1c191690881b176009555b805190868211620003f657600754908882811c9216801562000672575b8a831014620003d75781878493116200061e575b508990878311600114620005b8575f92620005ac575b50505f19600383901b1c191690871b176007555b805190858211620003f657600654908782811c92168015620005a1575b89831014620003d75781868493116200054d575b508890868311600114620004e7575f92620004db575b50505f19600383901b1c191690861b176006555b805190848211620003f657600854908682811c92168015620004d0575b88831014620003d75781858493116200047c575b50879085831160011462000416575f926200040a575b50505f19600383901b1c191690851b176008555b8051928311620003f65760059485548581811c91168015620003eb575b82821014620003d75783811162000391575b50809284116001146200032a57509282939183925f946200031e575b50501b915f199060031b1c19161790555b604051615d439081620008188239608051818181610c2901528181610d810152615a9f0152f35b015192505f80620002e6565b919083601f198116875f52845f20945f905b888383106200037657505050106200035d575b505050811b019055620002f7565b01515f1960f88460031b161c191690555f80806200034f565b8587015188559096019594850194879350908101906200033c565b865f52815f2084808701891c820192848810620003cd575b01881c019086905b828110620003c1575050620002ca565b5f8155018690620003b1565b92508192620003a9565b634e487b7160e01b5f52602260045260245ffd5b90607f1690620002b8565b634e487b7160e01b5f52604160045260245ffd5b015190505f8062000287565b90879350601f1983169160085f52895f20925f5b8b8282106200046557505084116200044c575b505050811b016008556200029b565b01515f1960f88460031b161c191690555f80806200043d565b8385015186558b979095019493840193016200042a565b90915060085f52875f208580850160051c8201928a8610620004c6575b918991869594930160051c01915b828110620004b757505062000271565b5f8155859450899101620004a7565b9250819262000499565b91607f16916200025d565b015190505f806200022c565b90889350601f1983169160065f528a5f20925f5b8c8282106200053657505084116200051d575b505050811b0160065562000240565b01515f1960f88460031b161c191690555f80806200050e565b8385015186558c97909501949384019301620004fb565b90915060065f52885f208680850160051c8201928b861062000597575b918a91869594930160051c01915b8281106200058857505062000216565b5f81558594508a910162000578565b925081926200056a565b91607f169162000202565b015190505f80620001d1565b90899350601f1983169160075f528b5f20925f5b8d828210620006075750508411620005ee575b505050811b01600755620001e5565b01515f1960f88460031b161c191690555f8080620005df565b8385015186558d97909501949384019301620005cc565b90915060075f52895f208780850160051c8201928c861062000668575b918b91869594930160051c01915b82811062000659575050620001bb565b5f81558594508b910162000649565b925081926200063b565b91607f1691620001a7565b015190505f8062000176565b908a9350601f1983169160095f528c5f20928d5f905b828210620006d95750508411620006c0575b505050811b016009556200018a565b01515f1960f88460031b161c191690555f8080620006b1565b8385015186558e979095019493840193018e6200069f565b90915060095f528a5f208880850160051c8201928d86106200073b575b918c91869594930160051c01915b8281106200072c57505062000160565b5f81558594508c91016200071c565b925081926200070e565b96607f169662000149565b604051631e4fbdf760e01b81525f6004820152602490fd5b5f80fd5b6040519190601f01601f191682016001600160401b03811183821017620003f657604052565b919080601f84011215620007685782516001600160401b038111620003f657602090620007c8601f8201601f191683016200076c565b9281845282828701011162000768575f5b818110620007ee5750825f9394955001015290565b8581018301518482018401528201620007d9565b51906001600160a01b0382168203620007685756fe60806040526004361015610011575f80fd5b5f3560e01c806257bfdd146101b357806305b2ae1b146101ae578063150b7a02146101a9578063187be308146101a457806318ab522d1461019f5780632150a1381461019a5780632580833d1461019557806331a290ac14610190578063572b6c051461018b5780635e703e71146101865780636aff31dd14610181578063715018a61461017c57806379a2696e146101775780637da0a87714610172578063875e4bea1461016d5780638da5cb5b14610168578063a0122c0914610163578063a22d0dd51461015e578063b03a3eab14610159578063b1fa9e7b14610154578063b3fa27831461014f578063c06e7bc71461014a578063c122804614610145578063d756227e14610140578063e9379bad1461013b5763f2fde38b14610136575f80fd5b61153f565b61149a565b6113ca565b611323565b611198565b6110f3565b6110c8565b611024565b610fdf565b610f43565b610f11565b610da5565b610d55565b610d22565b610ca6565b610c7c565b610c50565b610bed565b610a3d565b6108d9565b610834565b6107bd565b610702565b610647565b610501565b6104ca565b90600182811c921680156101ff575b60208310146101d257565b7f4e487b71000000000000000000000000000000000000000000000000000000005f52602260045260245ffd5b91607f16916101c7565b7f4e487b71000000000000000000000000000000000000000000000000000000005f52604160045260245ffd5b6101e0810190811067ffffffffffffffff82111761025357604052565b610209565b6020810190811067ffffffffffffffff82111761025357604052565b6040810190811067ffffffffffffffff82111761025357604052565b6060810190811067ffffffffffffffff82111761025357604052565b90601f601f19910116810190811067ffffffffffffffff82111761025357604052565b604051905f82600354916102e2836101b8565b8083529260209060019081811690811561036e575060011461030f575b505061030d925003836102ac565b565b91509260035f527fc2575a0e9e593c00f959f8c92f12db2869c3395a3b0502d05e2516446f71f85b935f925b828410610356575061030d9450505081016020015f806102ff565b8554888501830152948501948794509281019261033b565b90506020935061030d9592507fffffffffffffffffffffffffffffffffffffffffffffffffffffffffffffff0091501682840152151560051b8201015f806102ff565b9060405191825f82546103c3816101b8565b908184526020946001916001811690815f1461042f57506001146103f1575b50505061030d925003836102ac565b5f90815285812095935091905b81831061041757505061030d93508201015f80806103e2565b855488840185015294850194879450918301916103fe565b91505061030d9593507fffffffffffffffffffffffffffffffffffffffffffffffffffffffffffffff0091501682840152151560051b8201015f80806103e2565b5f5b8381106104815750505f910152565b8181015183820152602001610472565b90601f19601f6020936104af81518092818752878088019101610470565b0116010190565b9060206104c7928181520190610491565b90565b346104fd575f6003193601126104fd576104f96104e56102cf565b604051918291602083526020830190610491565b0390f35b5f80fd5b346104fd575f6003193601126104fd576040515f600854610521816101b8565b808452906020906001908181169081156105b3575060011461055a575b6104f98561054e818703826102ac565b604051918291826104b6565b60085f90815293507ff3f7a9fe364faab93b216da50a3214154f22a0a2b415b23a84c8169e8b636ee35b8385106105a05750505050810160200161054e826104f961053e565b8054868601840152938201938101610584565b8695506104f99693506020925061054e9491507fffffffffffffffffffffffffffffffffffffffffffffffffffffffffffffff001682840152151560051b820101929361053e565b73ffffffffffffffffffffffffffffffffffffffff8116036104fd57565b9181601f840112156104fd5782359167ffffffffffffffff83116104fd57602083818601950101116104fd57565b346104fd5760806003193601126104fd57600435610664816105fb565b61066f6024356105fb565b60643567ffffffffffffffff81116104fd5761068f903690600401610619565b505073ffffffffffffffffffffffffffffffffffffffff309116036106d85760206040517f150b7a02000000000000000000000000000000000000000000000000000000008152f35b60046040517fecb1aa84000000000000000000000000000000000000000000000000000000008152fd5b346104fd5760406003193601126104fd5760043561071f816105fb565b73ffffffffffffffffffffffffffffffffffffffff6024359161074283826130ab565b16805f52600260205260405f20825f5260205260405f20549162093a804201928342116107b857831061078e5761078b915f52600260205260405f20905f5260205260405f2090565b55005b60046040517f415f2254000000000000000000000000000000000000000000000000000000008152fd5b611603565b346104fd5760406003193601126104fd576107e66004356107dd816105fb565b60243590611747565b90604051918291604083019083526020906040602085015282518091526020606085019301915f5b82811061081d57505050500390f35b83518552869550938101939281019260010161080e565b346104fd575f6003193601126104fd576040515f600554610854816101b8565b808452906020906001908181169081156105b35750600114610880576104f98561054e818703826102ac565b60055f90815293507f036b6384b5eca791c62761152d0c79bb0604c104a5fb6f4eb0703f3154bb3db05b8385106108c65750505050810160200161054e826104f961053e565b80548686018401529382019381016108aa565b346104fd575f6003193601126104fd576040515f6006546108f9816101b8565b808452906020906001908181169081156105b35750600114610925576104f98561054e818703826102ac565b60065f90815293507ff652222313e28459528d920b65115c16c04f3efc82aaedc97be59f3f377c0d3f5b83851061096b5750505050810160200161054e826104f961053e565b805486860184015293820193810161094f565b6040519061030d82610236565b67ffffffffffffffff81116102535760051b60200190565b92916109ae8261098b565b916109bc60405193846102ac565b829481845260208094019160051b81019283116104fd57905b8282106109e25750505050565b813581529083019083016109d5565b9080601f830112156104fd578160206104c7933591016109a3565b9181601f840112156104fd5782359167ffffffffffffffff83116104fd576020808501948460051b0101116104fd57565b346104fd576040806003193601126104fd5760049067ffffffffffffffff82358181116104fd57610a7190369085016109f1565b906024359081116104fd57610a899036908501610a0c565b9290915f5b8151811015610beb57610aa18183611725565b51610ab7610ab083888861182b565b3691611394565b610ad1610acc835f52600d60205260405f2090565b61188b565b610bc357610ae7825f52600460205260405f2090565b548015610b9b5785516020810190610b1181610b038487611895565b03601f1981018352826102ac565b51902003610b7357907faeb631726b45aa3f6b09da79f7af03a9784614901f61a967ed84d63c37b7edc7610b6a83610b5d60019695610b58865f52600d60205260405f2090565b61195a565b8751918291339083611a29565b0390a201610a8e565b8785517fd8e55daf000000000000000000000000000000000000000000000000000000008152fd5b8886517f38d87d39000000000000000000000000000000000000000000000000000000008152fd5b8785517f444244f5000000000000000000000000000000000000000000000000000000008152fd5b005b346104fd5760206003193601126104fd576020600435610c0c816105fb565b73ffffffffffffffffffffffffffffffffffffffff9060405191807f0000000000000000000000000000000000000000000000000000000000000000169116148152f35b346104fd5760406003193601126104fd576104f96104e5600435610c73816105fb565b60243590611ec8565b346104fd5760206003193601126104fd576004355f526004602052602060405f2054604051908152f35b346104fd575f6003193601126104fd57610cbe614780565b5f73ffffffffffffffffffffffffffffffffffffffff81547fffffffffffffffffffffffff000000000000000000000000000000000000000081168355167f8be0079c531659141344cd1fd0a4f28419497f9722a3daafe3b4186f6b6457e08280a3005b346104fd5760406003193601126104fd576020610d4d600435610d44816105fb565b6024359061271e565b604051908152f35b346104fd575f6003193601126104fd57602060405173ffffffffffffffffffffffffffffffffffffffff7f0000000000000000000000000000000000000000000000000000000000000000168152f35b346104fd576020806003193601126104fd5767ffffffffffffffff6004358181116104fd57610dd8903690600401610619565b9091610de2614780565b811161025357610dfc81610df76003546101b8565b6118c2565b5f92601f8211600114610e6f5750610e4a81807f512c3c91736f50c57a0548c1d01ab02f24c420f002b8b20e2bfe63df9693cd3f955f91610e64575b505f198260011b9260031b1c19161790565b6003555b610e5f604051928392339184612786565b0390a1005b90508401355f610e38565b60035f52601f198216937fc2575a0e9e593c00f959f8c92f12db2869c3395a3b0502d05e2516446f71f85b915f905b868210610ef9575050827f512c3c91736f50c57a0548c1d01ab02f24c420f002b8b20e2bfe63df9693cd3f9510610ee0575b5050600181811b01600355610e4e565b5f1960f88460031b161c19908401351690555f80610ed0565b80600184958294958901358155019401920190610e9e565b346104fd575f6003193601126104fd57602073ffffffffffffffffffffffffffffffffffffffff5f5416604051908152f35b346104fd5760406003193601126104fd57610fb9600435610f63816105fb565b6104f9610f7d610f766024358094613315565b8093613e3c565b91610fc7610fa463ffffffff610f9c62ffffff61010086015116614492565b935116614072565b91604051958695606087526060870190610491565b908582036020870152610491565b908382036040850152610491565b801515036104fd57565b346104fd5760806003193601126104fd576104f96104e5600435611002816105fb565b60443561100e81610fd5565b6064359161101b83610fd5565b60243590612cb2565b346104fd5760406003193601126104fd5767ffffffffffffffff6004358181116104fd576110569036906004016109f1565b906024359081116104fd57366023820112156104fd57806004013561107a8161098b565b9161108860405193846102ac565b8183526020916024602085019160051b830101913683116104fd57602401905b8282106110b957610beb8587612dc4565b813581529083019083016110a8565b346104fd5760406003193601126104fd576020610d4d6004356110ea816105fb565b60243590612e74565b346104fd575f6003193601126104fd576040515f600754611113816101b8565b808452906020906001908181169081156105b3575060011461113f576104f98561054e818703826102ac565b60075f90815293507fa66cc928b5edb82af9bd49922954155ab7b0942694bea4ce44661d9a8736c6885b8385106111855750505050810160200161054e826104f961053e565b8054868601840152938201938101611169565b346104fd5760806003193601126104fd576004356111b5816105fb565b6044359060243560643567ffffffffffffffff81116104fd576111dc903690600401610a0c565b906002600154146112f95760026001556111f683856130ab565b73ffffffffffffffffffffffffffffffffffffffff9182851692835f526002602052604096875f20865f52602052875f205442106112d057611236615a88565b97838151918083528201527f07ffffffffffffffffffffffffffffffffffffffffffffffffffffffffffffff84116104fd57866112c1967f6a68946ba06488db8585d7c7637fa954b574035fe15720ea760125ef8601725883606086958a6112c79f996112ba9a8c60051b8093868601371660208301528101030190a48587614b21565b36916109a3565b91614e68565b610beb60018055565b600488517f5a5ecb46000000000000000000000000000000000000000000000000000000008152fd5b60046040517f3ee5aeb5000000000000000000000000000000000000000000000000000000008152fd5b346104fd5760406003193601126104fd5773ffffffffffffffffffffffffffffffffffffffff600435611355816105fb565b165f52600260205260405f206024355f52602052602060405f2054604051908152f35b67ffffffffffffffff811161025357601f01601f191660200190565b9291926113a082611378565b916113ae60405193846102ac565b8294818452818301116104fd578281602093845f960137010152565b346104fd5760406003193601126104fd5767ffffffffffffffff6004358181116104fd576113fc9036906004016109f1565b6024906024358381116104fd57366023820112156104fd578060040135926114238461098b565b9361143160405195866102ac565b8085526020956024602087019260051b850101933685116104fd5760248101925b85841061146357610beb8888612f1d565b83358381116104fd578201366043820112156104fd57899161148f8392369060448a8201359101611394565b815201930192611452565b346104fd575f6003193601126104fd576040515f6009546114ba816101b8565b808452906020906001908181169081156105b357506001146114e6576104f98561054e818703826102ac565b60095f90815293507f6e1540171b6c0c960b71a7020d9f60077f6af931a8bbf590da0223dacf75c7af5b83851061152c5750505050810160200161054e826104f961053e565b8054868601840152938201938101611510565b346104fd5760206003193601126104fd5760043561155c816105fb565b611564614780565b73ffffffffffffffffffffffffffffffffffffffff8091169081156115d3575f54827fffffffffffffffffffffffff00000000000000000000000000000000000000008216175f55167f8be0079c531659141344cd1fd0a4f28419497f9722a3daafe3b4186f6b6457e05f80a3005b60246040517f1e4fbdf70000000000000000000000000000000000000000000000000000000081525f6004820152fd5b7f4e487b71000000000000000000000000000000000000000000000000000000005f52601160045260245ffd5b90600282018092116107b857565b90602082018092116107b857565b90600182018092116107b857565b919082018092116107b857565b90604051918281549182825260209260208301915f5260205f20935f905b82821061169b5750505061030d925003836102ac565b855484526001958601958895509381019390910190611685565b906116bf8261098b565b6116cc60405191826102ac565b828152601f196116dc829461098b565b0190602036910137565b7f4e487b71000000000000000000000000000000000000000000000000000000005f52603260045260245ffd5b8051156117205760200190565b6116e6565b80518210156117205760209160051b010190565b5f1981146107b85760010190565b9190915f9273ffffffffffffffffffffffffffffffffffffffff82165f52600a60205260405f20815f5260205261178060405f20611667565b9361178b85516116b5565b915f915f5b87518110156117d957806117a66001928a611725565b51846117b2828a612e74565b146117bf575b5001611790565b6117d26117cb87611739565b9688611725565b525f6117b8565b50955090509291909261180a8273ffffffffffffffffffffffffffffffffffffffff165f52600b60205260405f2090565b815f5260205261181f60405f2054809361271e565b146118275750565b9250565b91908110156117205760051b810135907fffffffffffffffffffffffffffffffffffffffffffffffffffffffffffffffe1813603018212156104fd57019081359167ffffffffffffffff83116104fd5760200182360381136104fd579190565b6104c790546101b8565b906118a860209282815194859201610470565b0190565b8181106118b7575050565b5f81556001016118ac565b90601f82116118cf575050565b61030d9160035f527fc2575a0e9e593c00f959f8c92f12db2869c3395a3b0502d05e2516446f71f85b906020601f840160051c83019310611918575b601f0160051c01906118ac565b909150819061190b565b9190601f811161193157505050565b61030d925f5260205f20906020601f840160051c8301931061191857601f0160051c01906118ac565b919091825167ffffffffffffffff8111610253576119828161197c84546101b8565b84611922565b602080601f83116001146119c2575081906119b39394955f926119b7575b50505f198260011b9260031b1c19161790565b9055565b015190505f806119a0565b90601f198316956119d6855f5260205f2090565b925f905b888210611a11575050836001959697106119f9575b505050811b019055565b01515f1960f88460031b161c191690555f80806119ef565b806001859682949686015181550195019301906119da565b9073ffffffffffffffffffffffffffffffffffffffff611a56602092959495604085526040850190610491565b9416910152565b60405190611a6a82610258565b5f8252565b60405190611a7c82610274565b600e82527f226f7574666974496473223a205b0000000000000000000000000000000000006020830152565b9060405191826060515f5b818110611ae7575090602061030d93611adb82948401918383015f8152815194859201610470565b010380855201836102ac565b6020919250806080015182828801015201908491611ab3565b602061030d919392936040519481611b218793518092868087019101610470565b8201611adb82518093868085019101610470565b905f1982019182116107b857565b9061030d602160405184611b61829651809260208086019101610470565b81017f2c0000000000000000000000000000000000000000000000000000000000000060208201520360018101855201836102ac565b9061030d602260405184611bb5829651809260208086019101610470565b81017f5d2c00000000000000000000000000000000000000000000000000000000000060208201520360028101855201836102ac565b602c61030d919392936040519481611c0d879351809260208087019101610470565b82017f22776f726c644964223a200000000000000000000000000000000000000000006020820152611c49825180936020602b85019101610470565b017f2c00000000000000000000000000000000000000000000000000000000000000602b82015203600c8101855201836102ac565b603b61030d919392936040519481611ca0879351809260208087019101610470565b82017f226465636f726174696f6e734c6f636b6564556e74696c223a200000000000006020820152611cdc825180936020603a85019101610470565b017f2c00000000000000000000000000000000000000000000000000000000000000603a82015203601b8101855201836102ac565b9061030d603760405180947f22776f726e42794e616b656442616e6e794964223a20000000000000000000006020830152611d56815180926020603686019101610470565b81017f2c0000000000000000000000000000000000000000000000000000000000000060368201520360178101855201836102ac565b9061030d603760405180947f227573656442794e616b656442616e6e794964223a20000000000000000000006020830152611d56815180926020603686019101610470565b81601f820112156104fd578051611de781611378565b92611df560405194856102ac565b818452602082840101116104fd576104c79160208085019101610470565b906020828203126104fd57815167ffffffffffffffff81116104fd576104c79201611dd1565b6040513d5f823e3d90fd5b908160209103126104fd575190565b908160609103126104fd57805191604060208301519201516104c7816105fb565b9061030d603d60405180947f646174613a6170706c69636174696f6e2f6a736f6e3b6261736536342c0000006020830152611eb88151809260208686019101610470565b810103601d8101855201836102ac565b90611ed38183613315565b9063ffffffff611ee7835163ffffffff1690565b161561271357611ef5611a5d565b5061010082019062ffffff80611f0e845162ffffff1690565b16156125fb57611f37611f31611f28865163ffffffff1690565b63ffffffff1690565b866135ab565b9283516125bf575b600182611f4f835162ffffff1690565b16036125a457611f6f611f6a611f65858961271e565b61345c565b611d8c565b915b84511561242a5750606073ffffffffffffffffffffffffffffffffffffffff9495966004604051809781937f08786b1a000000000000000000000000000000000000000000000000000000008352165afa938415612425575f905f956123f0575b50611fdd8785613e3c565b948751611fed9063ffffffff1690565b63ffffffff16611ffc90614072565b97835161200b9062ffffff1690565b62ffffff1661201990614492565b956120239061345c565b9381516120339063ffffffff1690565b63ffffffff166120429061345c565b90516120529062ffffff1661345c565b60608301516120669063ffffffff1661345c565b9160408401516120799063ffffffff1690565b63ffffffff166120889061345c565b602094909401516120a7906cffffffffffffffffffffffffff1661345c565b946120b19061345c565b956120bb9061345c565b96604051809c602082016120ce91611895565b039b601f199c8d810182526120e390826102ac565b6120ec90614645565b6040517f7b226e616d65223a22000000000000000000000000000000000000000000000060208201529d8e9c919b9160298e0161212891611895565b7f222c202270726f647563744e616d65223a202200000000000000000000000000815260130161215791611895565b7f222c202263617465676f72794e616d65223a2022000000000000000000000000815260140161218691611895565b7f222c2022746f6b656e4964223a200000000000000000000000000000000000008152600e016121b591611895565b7f2c2022757063223a20000000000000000000000000000000000000000000000081526009016121e491611895565b7f2c202263617465676f7279223a200000000000000000000000000000000000008152600e0161221391611895565b7f2c2022737570706c79223a2000000000000000000000000000000000000000008152600c0161224291611895565b7f2c202272656d61696e696e67223a2000000000000000000000000000000000008152600f0161227191611895565b7f2c20227072696365223a200000000000000000000000000000000000000000008152600b016122a091611895565b7f2c2022646563696d616c73223a200000000000000000000000000000000000008152600e016122cf91611895565b7f2c202263757272656e6379223a200000000000000000000000000000000000008152600e016122fe91611895565b7f2c20000000000000000000000000000000000000000000000000000000000000815260020161232d91611895565b7f226465736372697074696f6e223a2241207069656365206f662074686520426181527f6e6e797665727365222c22696d616765223a22646174613a696d6167652f737660208201527f672b786d6c3b6261736536342c000000000000000000000000000000000000006040820152604d016123a891611895565b7f227d00000000000000000000000000000000000000000000000000000000000081526002010390810182526123de90826102ac565b6123e790614645565b6104c790611e74565b905061241591945060603d60601161241e575b61240d81836102ac565b810190611e53565b5093905f611fd2565b503d612403565b611e39565b929594506010935061244091505162ffffff1690565b161115612590576040517f6c0360eb0000000000000000000000000000000000000000000000000000000081525f8160048173ffffffffffffffffffffffffffffffffffffffff86165afa92831561242557612521936020925f9161256e575b50925b6124c86124af826139c4565b73ffffffffffffffffffffffffffffffffffffffff1690565b906040518096819482937fc8df1710000000000000000000000000000000000000000000000000000000008452600484016020909392919373ffffffffffffffffffffffffffffffffffffffff60408201951681520152565b03915afa908115612425576104c7925f9261253d575b50613a51565b61256091925060203d602011612567575b61255881836102ac565b810190611e44565b905f612537565b503d61254e565b61258a91503d805f833e61258281836102ac565b810190611e13565b5f6124a0565b60206125219261259e6102cf565b926124a3565b6125b96125b4611f658589612e74565b611d11565b91611f71565b926125df906001836125d4875162ffffff1690565b16036125e5576138b1565b92611f3f565b6125f6906125f1613709565b611b00565b6138b1565b93909261260b8483979497612b84565b6126158584611747565b959061261f611a6f565b985f995b88518b1015612678576126499061264361263d8d8c611725565b5161345c565b90611b00565b996126548951611b35565b8110612664575b60010199612623565b99612670600191611b43565b9a905061265b565b909396995061268d9194975097919497611b97565b92806126f8575b506126ce846126c18973ffffffffffffffffffffffffffffffffffffffff165f52600260205260405f2090565b905f5260205260405f2090565b544281116126dd575b50611f71565b926126eb6126f1929461345c565b90611c7e565b915f6126d7565b9261270661270c929461345c565b90611beb565b915f612694565b5050506104c7611a5d565b73ffffffffffffffffffffffffffffffffffffffff16805f52600e60205260405f20825f5260205260405f2054918215918215612764575b505061275f5790565b505f90565b9091505f52600b60205260405f20825f5260205260405f205414155f80612756565b916060601f19601f8373ffffffffffffffffffffffffffffffffffffffff94602096999899604089528160408a0152858901375f84828901015201168401019416910152565b6009545f92916127db826101b8565b9160019081811690811561284557506001146127f657505050565b909192935060095f527f6e1540171b6c0c960b71a7020d9f60077f6af931a8bbf590da0223dacf75c7af905f915b848310612832575050500190565b8181602092548587015201920191612824565b7fffffffffffffffffffffffffffffffffffffffffffffffffffffffffffffff001683525050811515909102019150565b90604051918260209161289181518092858086019101610470565b6008545f9183016128a1826101b8565b9160019081811690811561292a57506001146128ce575b50505061030d925003601f1981018452836102ac565b94925060085f527ff3f7a9fe364faab93b216da50a3214154f22a0a2b415b23a84c8169e8b636ee3945f905b83821061291257505061030d945001015f80806128b8565b865482840186015295860195889550908401906128fa565b905061030d9694507fffffffffffffffffffffffffffffffffffffffffffffffffffffffffffffff00915092919216838301528015150201015f80806128b8565b90604051918260209161298681518092858086019101610470565b6005545f918301612996826101b8565b9160019081811690811561292a57506001146129c25750505061030d925003601f1981018452836102ac565b94925060055f527f036b6384b5eca791c62761152d0c79bb0604c104a5fb6f4eb0703f3154bb3db0945f905b838210612a0657505061030d945001015f80806128b8565b865482840186015295860195889550908401906129ee565b906040519182602091612a3981518092858086019101610470565b6007545f918301612a49826101b8565b9160019081811690811561292a5750600114612a755750505061030d925003601f1981018452836102ac565b94925060075f527fa66cc928b5edb82af9bd49922954155ab7b0942694bea4ce44661d9a8736c688945f905b838210612ab957505061030d945001015f80806128b8565b86548284018601529586019588955090840190612aa1565b906040519182602091612aec81518092858086019101610470565b6006545f918301612afc826101b8565b9160019081811690811561292a5750600114612b285750505061030d925003601f1981018452836102ac565b94925060065f527ff652222313e28459528d920b65115c16c04f3efc82aaedc97be59f3f377c0d3f945f905b838210612b6c57505061030d945001015f80806128b8565b86548284018601529586019588955090840190612b54565b612b8e8282613315565b9163ffffffff80612ba3855163ffffffff1690565b1615612ca65760609162ffffff612bc161010087015162ffffff1690565b16612c7157936001612c2b9392612c16612c0b612be16104c79989611747565b969080151580612c6a575b612c50575b50612643612c06611f28885163ffffffff1690565b6147e5565b935163ffffffff1690565b1603612c4757612c259061296b565b926149bd565b8051612c38575b506138b1565b612c4191611b00565b5f612c32565b612c2590612876565b612c649150612c5f908a6135ab565b611aa8565b5f612bf1565b5085612bec565b505050612c88611f28612c8e935163ffffffff1690565b906135ab565b8051612c9d57506104c7611a5d565b6104c7906138b1565b505050506104c7611a5d565b9092612cbe8483613315565b9363ffffffff9081612cd4875163ffffffff1690565b1615612db65760609062ffffff612cf261010089015162ffffff1690565b16612d9c5791612d34612c0b600193612d0f6104c79a9689611747565b978115159081612d94575b50612d855750612643612c06611f28885163ffffffff1690565b1603612d7657612d439061296b565b925b612d51575b50506138b1565b612d5a916149bd565b8051612d67575b80612d4a565b612d7091611b00565b5f612d61565b612d7f90612876565b92612d45565b612c649150612c5f90896135ab565b90505f612d1a565b505050509050612c88611f28612c8e935163ffffffff1690565b5050505050506104c7611a5d565b91612dcd614780565b5f925b8051841015612e6e57612de38482611725565b5193612def8185611725565b51855f5260049560208781526040805f2054612e4657907fb10eb6fc7557a7109693cb8f3fac48d44328de56c0368ee4cac539b424d2cad991600196979899845f52825284815f205551338152a301929190612dd0565b8890517f2165e0ab000000000000000000000000000000000000000000000000000000008152fd5b50915050565b73ffffffffffffffffffffffffffffffffffffffff81165f52600f60205260405f20825f5260205260405f2054908115612f1657612ed09073ffffffffffffffffffffffffffffffffffffffff165f52600a60205260405f2090565b815f52602052612ee260405f20611667565b915f5b8351811015612f0e5781612ef98286611725565b5114612f0757600101612ee5565b5050905090565b505050505f90565b5050505f90565b91612f26614780565b5f925b8051841015612e6e57612f3c8482611725565b5193612f488185611725565b5194805f52602095600c87526040805f20825167ffffffffffffffff811161025357612f788161197c84546101b8565b89601f8211600114612ff55750917f9dedd219289ed514faff576c477c66bd097aef59a236e3b8ebcf0d0070cb4e969391612fcf84612fde9560019a9b9c9d5f91612fea57505f198260011b9260031b1c19161790565b90555b51918291339083611a29565b0390a201929190612f29565b90508501515f610e38565b99601f198216613008845f5260205f2090565b9b5f905b82821061307157505091600198999a9b7f9dedd219289ed514faff576c477c66bd097aef59a236e3b8ebcf0d0070cb4e9696949282612fde979510613059575b5050881b88019055612fd2565b8501515f1960f88460031b161c191690555f8061304c565b80600181939f868b015181550194019d01909c929c61300c565b519061030d826105fb565b908160209103126104fd57516104c7816105fb565b90602060249273ffffffffffffffffffffffffffffffffffffffff93849360405195869384927f6352211e0000000000000000000000000000000000000000000000000000000084526004840152165afa918215612425575f92613148575b5080613114615a88565b1691160361311e57565b60046040517f115472e4000000000000000000000000000000000000000000000000000000008152fd5b61316b91925060203d602011613172575b61316381836102ac565b810190613096565b905f61310a565b503d613159565b519063ffffffff821682036104fd57565b51906cffffffffffffffffffffffffff821682036104fd57565b519061ffff821682036104fd57565b519062ffffff821682036104fd57565b519060ff821682036104fd57565b519061030d82610fd5565b6020818303126104fd57805167ffffffffffffffff918282116104fd57016101e0818403126104fd5761320d61097e565b9261321782613179565b84526132256020830161318a565b602085015261323660408301613179565b604085015261324760608301613179565b60608501526132586080830161318a565b608085015261326960a083016131a4565b60a085015261327a60c0830161308b565b60c085015260e082015160e08501526101006132978184016131b3565b908501526101206132a98184016131c3565b908501526101406132bb8184016131d1565b908501526101606132cd8184016131d1565b908501526101806132df8184016131d1565b908501526101a06132f18184016131d1565b908501526101c092838301519081116104fd5761330e9201611dd1565b9082015290565b6133ee915f9160606101c060405161332c81610236565b85815285602082015285604082015285838201528560808201528560a08201528560c08201528560e08201528561010082015285610120820152856101408201528561016082015285610180820152856101a082015201526133906124af826139c4565b906040518095819482937fc44a8e6d000000000000000000000000000000000000000000000000000000008452600484016040905f92949373ffffffffffffffffffffffffffffffffffffffff606083019616825260208201520152565b03915afa908115612425575f91613403575090565b6104c791503d805f833e61341781836102ac565b8101906131dc565b60405161342b81610258565b5f8152905f368137565b9061343f82611378565b61344c60405191826102ac565b828152601f196116dc8294611378565b805f917a184f03e93ff9f4daa797ed6e38ed64bf6a1f0100000000000000008082101561359d575b506d04ee2d6d415b85acef81000000008083101561358e575b50662386f26fc100008083101561357f575b506305f5e10080831015613570575b5061271080831015613561575b506064821015613551575b600a80921015613547575b6001908160216134f360018701613435565b95860101905b613505575b5050505090565b5f19849101917f30313233343536373839616263646566000000000000000000000000000000008282061a835304918215613542579190826134f9565b6134fe565b91600101916134e1565b91906064600291049101916134d6565b6004919392049101915f6134cb565b6008919392049101915f6134be565b6010919392049101915f6134af565b6020919392049101915f61349d565b60409350810491505f613484565b90805f52602091600d83526135c260405f206103b1565b80516137025750613647918173ffffffffffffffffffffffffffffffffffffffff6135ed86946139c4565b16906040518095819482937fbd51923c000000000000000000000000000000000000000000000000000000008452600484016020909392919373ffffffffffffffffffffffffffffffffffffffff60408201951681520152565b03915afa8015612425576136af926136746049926104c7945f916136e5575b5061366f6102cf565b613a51565b60405194827f3c696d61676520687265663d220000000000000000000000000000000000000087948501528251928391602d86019101610470565b81017f222077696474683d2234303022206865696768743d22343030222f3e00000000602d8201520360298101845201826102ac565b6136fc9150833d85116125675761255881836102ac565b5f613666565b9250505090565b60446104c7604051610b03600861388860208401937f7b66696c6c3a6e6f6e653b7d00000000000000000000000000000000000000008552600c815261374e81610274565b600361385e816138346040519a8b997f3c7374796c653e2e6f7b66696c6c3a233830383038303b7d2e6232000000000060208c0152603b6137958c89519283910184610470565b8b017f2e62330000000000000000000000000000000000000000000000000000000000603b8201528751906137ce82603e830185610470565b017f2e62340000000000000000000000000000000000000000000000000000000000603e820152613806885180936041840190610470565b017f2e6131000000000000000000000000000000000000000000000000000000000060418201520185611895565b7f2e6132000000000000000000000000000000000000000000000000000000000081520183611895565b7f2e6133000000000000000000000000000000000000000000000000000000000081520190611895565b7f3c2f7374796c653e0000000000000000000000000000000000000000000000008152016127cc565b9061030d60bb60405180947f3c7376672077696474683d2234303022206865696768743d223430302220766960208301527f6577426f783d223020302034303020343030222066696c6c3d2277686974652260408301527f20786d6c6e733d22687474703a2f2f7777772e77332e6f72672f323030302f7360608301527f7667223e3c7374796c653e2e6f7b66696c6c3a233035303530353b7d2e777b6660808301527f696c6c3a236639663966393b7d3c2f7374796c653e000000000000000000000060a083015261398e81518092602060b586019101610470565b81017f3c2f7376673e000000000000000000000000000000000000000000000000000060b582015203609b8101855201836102ac565b602073ffffffffffffffffffffffffffffffffffffffff916004604051809481937f507f1465000000000000000000000000000000000000000000000000000000008352165afa908115612425575f91613a1c575090565b90506020813d602011613a49575b81613a37602093836102ac565b810103126104fd57516104c7816105fb565b3d9150613a2a565b906104c790613a9b6040516020927f122000000000000000000000000000000000000000000000000000000000000084830152602282015260228152613a9681610290565b61543f565b926040519381613ab48693518092868087019101610470565b8201613ac882518093868085019101610470565b010380845201826102ac565b9061030d602160405184613af2829651809260208086019101610470565b81017f200000000000000000000000000000000000000000000000000000000000000060208201520360018101855201836102ac565b60405190613b3582610274565b600a82527f2072656d61696e696e67000000000000000000000000000000000000000000006020830152565b9061030d929493602192613be6604051978894602093613b898151809287808b019101610470565b8601613b9d82518093878085019101610470565b017f2f0000000000000000000000000000000000000000000000000000000000000084820152613bd582518093868a85019101610470565b019183519384918785019101610470565b010360018101855201836102ac565b9061030d929493602d92613c90604051978894602093613c1d8151809287808b019101610470565b86017f2028534f4c44204f55542920000000000000000000000000000000000000000085820152613c578251809387602c85019101610470565b017f2f00000000000000000000000000000000000000000000000000000000000000602c820152613bd582518093868a85019101610470565b0103600d8101855201836102ac565b61030d91613be69493602192604051968793602092613cc68151809286808a019101610470565b8501613cda82518093868085019101610470565b01917f2f000000000000000000000000000000000000000000000000000000000000008184015283519384918785019101610470565b9061030d602360405184613d2e829651809260208086019101610470565b81017f203a20000000000000000000000000000000000000000000000000000000000060208201520360038101855201836102ac565b602161030d919392936040519481613d86879351809260208087019101610470565b8201613d9b8251809360208085019101610470565b017f200000000000000000000000000000000000000000000000000000000000000060208201520360018101855201836102ac565b602561030d919392936040519481613df2879351809260208087019101610470565b82017f55504320230000000000000000000000000000000000000000000000000000006020820152613e2d8251809360208785019101610470565b010360058101855201836102ac565b90613eaa6104c792633b9aca00613e6a613e65613e60611f28875163ffffffff1690565b614072565b613ad4565b9106613e74613b28565b8115613f0e575090613e88613ea59261345c565b613e9f611f65611f28606088015163ffffffff1690565b91613c9f565b613d10565b90613ecf613eca613ec261010084015162ffffff1690565b62ffffff1690565b614492565b8051613ef1575b50611f65611f28613eeb925163ffffffff1690565b90613dd0565b611f28613f05611f6592613eeb9495613d64565b93925050613ed6565b9050604084019163ffffffff613f28845163ffffffff1690565b1680613f635750613f46611f65611f28613ea5955163ffffffff1690565b613f5d611f65611f28606089015163ffffffff1690565b91613bf5565b613ea59350613f719061345c565b613f88611f65611f28606089015163ffffffff1690565b91613b61565b60405190613f9b82610274565b600882527f4f726967696e616c0000000000000000000000000000000000000000000000006020830152565b60405190613fd482610274565b600682527f4f72616e676500000000000000000000000000000000000000000000000000006020830152565b6040519061400d82610274565b600482527f50696e6b000000000000000000000000000000000000000000000000000000006020830152565b6040519061404682610274565b600582527f416c69656e0000000000000000000000000000000000000000000000000000006020830152565b6001810361408357506104c7614039565b6002810361409457506104c7614000565b600381036140a557506104c7613fc7565b600481036140b657506104c7613f8e565b5f52600c6020526104c760405f206103b1565b604051906140d682610274565b600c82527f5370656369616c20426f647900000000000000000000000000000000000000006020830152565b6040519061410f82610274565b600c82527f5370656369616c204865616400000000000000000000000000000000000000006020830152565b6040519061414882610274565b600c82527f5370656369616c204c65677300000000000000000000000000000000000000006020830152565b6040519061418182610274565b600c82527f5370656369616c205375697400000000000000000000000000000000000000006020830152565b604051906141ba82610274565b600482527f46697374000000000000000000000000000000000000000000000000000000006020830152565b604051906141f382610274565b600b82527f5375697420626f74746f6d0000000000000000000000000000000000000000006020830152565b6040519061422c82610274565b600882527f5375697420746f700000000000000000000000000000000000000000000000006020830152565b6040519061426582610274565b600482527f53756974000000000000000000000000000000000000000000000000000000006020830152565b6040519061429e82610274565b600482527f48656164000000000000000000000000000000000000000000000000000000006020830152565b604051906142d782610274565b600882527f4865616420746f700000000000000000000000000000000000000000000000006020830152565b6040519061431082610274565b600582527f4d6f7574680000000000000000000000000000000000000000000000000000006020830152565b6040519061434982610274565b600782527f476c6173736573000000000000000000000000000000000000000000000000006020830152565b6040519061438282610274565b600882527f4e65636b6c6163650000000000000000000000000000000000000000000000006020830152565b604051906143bb82610274565b600482527f4c656773000000000000000000000000000000000000000000000000000000006020830152565b604051906143f482610274565b600882527f4261636b736964650000000000000000000000000000000000000000000000006020830152565b6040519061442d82610274565b600582527f576f726c640000000000000000000000000000000000000000000000000000006020830152565b6040519061446682610274565b600b82527f4e616b65642042616e6e790000000000000000000000000000000000000000006020830152565b806144a057506104c7614459565b600181036144b157506104c7614420565b600281036144c257506104c76143e7565b600781036144d357506104c76143ae565b600381036144e457506104c7614375565b600581036144f557506104c761433c565b6006810361450657506104c7614303565b600b810361451757506104c76142ca565b6004810361452857506104c7614291565b6008810361453957506104c7614258565b600a810361454a57506104c761421f565b6009810361455b57506104c76141e6565b600c810361456c57506104c76141ad565b600d810361457d57506104c7614174565b600e810361458e57506104c761413b565b600f810361459f57506104c7614102565b6010146145ae576104c7611a5d565b6104c76140c9565b604051906145c382610290565b604082527f6768696a6b6c6d6e6f707172737475767778797a303132333435363738392b2f6040837f4142434445464748494a4b4c4d4e4f505152535455565758595a61626364656660208201520152565b908160021b917f3fffffffffffffffffffffffffffffffffffffffffffffffffffffffffffffff8116036107b857565b805115614777576146546145b6565b61467061466b6146648451611630565b6003900490565b614615565b9161468261467d8461163e565b613435565b92835280815182019060208501935b828210614725575050506003905106806001146146dc576002146146b3575090565b5f197f3d0000000000000000000000000000000000000000000000000000000000000091015290565b507ffffffffffffffffffffffffffffffffffffffffffffffffffffffffffffffffe7f3d3d00000000000000000000000000000000000000000000000000000000000091015290565b9091936004906003809401938451600190603f9082828260121c16880101518553828282600c1c16880101518386015382828260061c1688010151600286015316850101519082015301939190614691565b506104c7611a5d565b73ffffffffffffffffffffffffffffffffffffffff805f5416816147a2615a88565b16036147ab5750565b6024906147b6615a88565b6040517f118cdaa700000000000000000000000000000000000000000000000000000000815291166004820152fd5b6147ee90615944565b93604096959693919351968796602088017f3c7374796c653e2e62317b66696c6c3a2300000000000000000000000000000090528051908160318a01916020019161483892610470565b8701603181017f3b7d2e62327b66696c6c3a230000000000000000000000000000000000000000905281519182603d8301916020019161487792610470565b01603d81017f3b7d2e62337b66696c6c3a2300000000000000000000000000000000000000009052815191826049830191602001916148b592610470565b01604981016148e3907f3b7d2e62347b66696c6c3a2300000000000000000000000000000000000000009052565b6055016148ef91611895565b7f3b7d2e61317b66696c6c3a2300000000000000000000000000000000000000008152600c0161491e91611895565b7f3b7d2e61327b66696c6c3a2300000000000000000000000000000000000000008152600c0161494d91611895565b7f3b7d2e61337b66696c6c3a2300000000000000000000000000000000000000008152600c0161497c91611895565b7f3b7d3c2f7374796c653e000000000000000000000000000000000000000000008152600a016149ab906127cc565b03601f19810182526104c790826102ac565b919060608151935f809383905f5b6149d48961164c565b811015614b175788811015614b0d576149ed8183611725565b51614a0b613ec2610100614a01848a613315565b015162ffffff1690565b935b600385811496908715614ade57505050600194614a2a82886135ab565b985b6006868103614aaa575050600a6001955b1180614aa0575b614a86575b8115159081614a7d575b50614a65575b506001019591956149cb565b60019196612643614a7692886135ab565b9590614a59565b9050155f614a53565b97614a919197611b00565b95614a9a611a5d565b97614a49565b5088511515614a44565b8691961180614ad6575b614ac1575b600a90614a3d565b945096614acd90612ad1565b96600194614ab9565b508515614ab4565b869a9197929a1180614b05575b15614a2c57955096614afc90612a1e565b96600195614a2c565b508615614aeb565b6011925f90614a0d565b5050505050925050565b9190614b4f816126c18573ffffffffffffffffffffffffffffffffffffffff165f52600b60205260405f2090565b54614b5a818561271e565b818414801590614de3575b614b71575b5050505050565b8214614dca575b508115614d96576040517f6352211e000000000000000000000000000000000000000000000000000000008082526004820184905273ffffffffffffffffffffffffffffffffffffffff92918584169060208082602481865afa80156124255786925f91614d79575b5082614beb615a88565b911696168614159384614d01575b50505050614cd75763ffffffff614c1d614c138587613315565b5163ffffffff1690565b1615614cad5782614c50826126c18773ffffffffffffffffffffffffffffffffffffffff165f52600b60205260405f2090565b55614c7d836126c18673ffffffffffffffffffffffffffffffffffffffff165f52600e60205260405f2090565b553003614c92575b50505b5f80808080614b6a565b614ca6913090614ca0615a88565b90615b0c565b5f80614c85565b60046040517fe06a750d000000000000000000000000000000000000000000000000000000008152fd5b60046040517f8c7c7aa2000000000000000000000000000000000000000000000000000000008152fd5b819293945090614d3891614d13615a88565b95614d1e8a8c61271e565b916040518095819482938352600483019190602083019252565b03915afa9081156124255783925f92614d5c575b505016911614155f808080614bf9565b614d729250803d106131725761316381836102ac565b5f80614d4c565b614d909150823d84116131725761316381836102ac565b5f614be1565b614dc491506126c15f9373ffffffffffffffffffffffffffffffffffffffff165f52600b60205260405f2090565b55614c88565b614ddd90614dd6615a88565b3086615b0c565b5f614b78565b5082811415614b65565b81519167ffffffffffffffff831161025357680100000000000000008311610253578154838355808410614e4c575b506020809101915f5260205f20905f5b848110614e3a575050505050565b83518382015592810192600101614e2c565b614e6290835f528460205f2091820191016118ac565b5f614e1c565b909291925f935f915f92614ea6614ea1836126c18873ffffffffffffffffffffffffffffffffffffffff165f52600a60205260405f2090565b611667565b955f945f945f9089516153d9575b90969299935f999899969296975b8251891015615341579a8a9b614edb8a859d9c9d611725565b51966040519d8e7f6352211e000000000000000000000000000000000000000000000000000000008152808a6004820190614f1890602083019252565b039173ffffffffffffffffffffffffffffffffffffffff1691815a93602094fa9d8e15612425575f9e615320575b508d73ffffffffffffffffffffffffffffffffffffffff80614f66615a88565b92169116141580615262575b61523857614f8a613ec2610100614a018f8c90613315565b9960028b10801561522e575b615204578b151590816151f9575b506151cf5760048a0361510257506001949095919293955b89811115806150f9575b1561505a57508a949392918188614fea93141580615048575b61502f575b50611739565b94858c805182105f1461502257610100614a0161500d61501594613ec294611725565b518099613315565b905b959192939490614fbc565b505093505f935f90615017565b6150429061503b615a88565b3089615b0c565b5f614fe4565b50896150548289612e74565b14614fdf565b93966001929a959d999199969396898d816150758583612e74565b03615092575b50505050930197939a949091999899969296614ec2565b836126c16150be9273ffffffffffffffffffffffffffffffffffffffff165f52600f60205260405f2090565b5573ffffffffffffffffffffffffffffffffffffffff309116036150e5575b80898d61507b565b6150f390308d614ca0615a88565b5f6150dd565b50801515614fc6565b939260088a0361511b5750600192959192939490614fbc565b9260058a1480156151c5575b80156151bb575b806151b4575b156151635760046040517f9b8fdcd1000000000000000000000000000000000000000000000000000000008152fd5b600a8a1480156151aa575b806151a3575b156150175760046040517f06f75887000000000000000000000000000000000000000000000000000000008152fd5b5083615174565b5060098a1461516e565b5084615134565b50600b8a1461512e565b5060068a14615127565b60046040517fe1a6af64000000000000000000000000000000000000000000000000000000008152fd5b90508a11155f614fa4565b60046040517fb0ee46ab000000000000000000000000000000000000000000000000000000008152fd5b5060108b11614f96565b60046040517f032cac03000000000000000000000000000000000000000000000000000000008152fd5b508b73ffffffffffffffffffffffffffffffffffffffff60206152cb615286615a88565b936152918d82612e74565b6040519485809481937f6352211e000000000000000000000000000000000000000000000000000000008352600483019190602083019252565b0392165afa9081156124255773ffffffffffffffffffffffffffffffffffffffff9182915f91615301575b501691161415614f72565b61531a915060203d6020116131725761316381836102ac565b5f6152f6565b61533a919e5060203d6020116131725761316381836102ac565b9c5f614f46565b5050979550915091949250805b61538a5750505061030d92916126c16153859273ffffffffffffffffffffffffffffffffffffffff165f52600a60205260405f2090565b614ded565b90818561539a6153a59487612e74565b146153c65750611739565b81518110156153bf576153b88183611725565b518061534e565b5f8061534e565b615042906153d2615a88565b3087615b0c565b9550506153e588611713565b51946153fa613ec2610100614a01898c613315565b90614eb4565b604051906105e0820182811067ffffffffffffffff82111761025357604052602e82526105c0366020840137565b908151811015611720570160200190565b908151156155715761544f615400565b915f61545a84611713565b5260019080515f915b8183106154885750505061547e615483916104c79394615b96565b615bd8565b615c1d565b9091936154d06154ca6154c461549e888661542e565b517fff000000000000000000000000000000000000000000000000000000000000001690565b60f81c90565b60ff1690565b905f915b60ff908882881685101561553457600192916155096155036154ca6154fc8961550f96611725565b5160ff1690565b60081b90565b9061165a565b61552b603a9283830616615523878d611725565b9060ff169052565b049201916154d4565b509196925050805b61554b57506001019190615463565b9360ff6001603a9261556783858a06166155238584168d611725565b011694048061553c565b90506104c761341f565b6040519061558882610274565b600682527f66666539303000000000000000000000000000000000000000000000000000006020830152565b604051906155c182610274565b600682527f66666337303000000000000000000000000000000000000000000000000000006020830152565b604051906155fa82610274565b600682527f66336136303300000000000000000000000000000000000000000000000000006020830152565b6040519061563382610274565b600682527f39363561316100000000000000000000000000000000000000000000000000006020830152565b6040519061566c82610274565b600682527f66663763303200000000000000000000000000000000000000000000000000006020830152565b604051906156a582610274565b600682527f66643336303000000000000000000000000000000000000000000000000000006020830152565b604051906156de82610274565b600682527f63333265306400000000000000000000000000000000000000000000000000006020830152565b6040519061571782610274565b600682527f66666438633500000000000000000000000000000000000000000000000000006020830152565b6040519061575082610274565b600682527f66663936613900000000000000000000000000000000000000000000000000006020830152565b6040519061578982610274565b600682527f66653538386200000000000000000000000000000000000000000000000000006020830152565b604051906157c282610274565b600682527f63393266343500000000000000000000000000000000000000000000000000006020830152565b604051906157fb82610274565b600682527f36376437353700000000000000000000000000000000000000000000000000006020830152565b6040519061583482610274565b600682527f33306132323000000000000000000000000000000000000000000000000000006020830152565b6040519061586d82610274565b600682527f32313761313500000000000000000000000000000000000000000000000000006020830152565b604051906158a682610274565b600682527f30393439306600000000000000000000000000000000000000000000000000006020830152565b604051906158df82610274565b600682527f65343833656600000000000000000000000000000000000000000000000000006020830152565b6040519061591882610274565b600682527f64633266656600000000000000000000000000000000000000000000000000006020830152565b6001810361598b57506159556157ee565b9061595e615827565b90615967615860565b90615970615899565b906159796158d2565b9061598261590b565b906104c761590b565b600281036159d2575061599c61570a565b906159a5615743565b906159ae61577c565b906159b76157b5565b906159c061570a565b906159c9615743565b906104c761577c565b60038103615a1957506159e36155ed565b906159ec61565f565b906159f5615698565b906159fe6156d1565b90615a076155ed565b90615a1061565f565b906104c7615698565b600414615a4a5760046040517f9a7b3323000000000000000000000000000000000000000000000000000000008152fd5b615a5261557b565b90615a5b6155b4565b90615a646155ed565b90615a6d615626565b90615a7661557b565b90615a7f6155b4565b906104c76155ed565b73ffffffffffffffffffffffffffffffffffffffff7f000000000000000000000000000000000000000000000000000000000000000016331480615b01575b15615afd577fffffffffffffffffffffffffffffffffffffffffffffffffffffffffffffffec36013681116107b8573560601c90565b3390565b506014361015615ac7565b9092919273ffffffffffffffffffffffffffffffffffffffff80921690813b156104fd575f60649281958560405198899788967f42842e0e00000000000000000000000000000000000000000000000000000000885216600487015216602485015260448401525af1801561242557615b825750565b67ffffffffffffffff811161025357604052565b9060ff80911690615ba6826116b5565b925f5b838110615bb7575050505090565b8083615bc560019385611725565b5116615bd18288611725565b5201615ba9565b908151615be4816116b5565b905f5b818110615bf5575090925050565b8060ff615c0a5f196001948951030188611725565b5116615c168286611725565b5201615be7565b8051615c2881611378565b91604090615c3960405194856102ac565b828452615c4583611378565b91601f19602093013660208701375f5b848110615c6457505050505090565b6001907fff00000000000000000000000000000000000000000000000000000000000000615cf88451615c9681610290565b603a81527f31323334353637383941424344454647484a4b4c4d4e50515253545556575859888201527f5a6162636465666768696a6b6d6e6f707172737475767778797a0000000000008682015260ff615cf08589611725565b51169061542e565b51165f1a615d06828961542e565b5301615c5556fea26469706673582212203afa9418c4f30857276fe4308268205b726b8996b01ab33baa60417c0fee495764736f6c63430008170033",
	"deployedBytecode": "0x",
	"gitCommit": "eb5d9cc8933d02797bdfaffcf9aa723ceaf64f9c"
}