{
	"_format": "sphinx-sol-ct-artifact-1",
	"merkleRoot": "0x213fe9f7371257201ac720b0dd306c801f55333ee2656f6541fd1d322866aacc",
	"contractName": "Banny721TokenUriResolver",
	"address": "0x136d12AfB824F4a11ef26dF1B5920A8fDcc47380",
	"abi": [
		{
			"type": "constructor",
			"inputs": [
				{
					"name": "owner",
					"type": "address",
					"internalType": "address"
				},
				{
					"name": "trustedForwarder",
					"type": "address",
					"internalType": "address"
				}
			],
			"stateMutability": "nonpayable"
		},
		{
			"type": "function",
			"name": "assetIdsOf",
			"inputs": [
				{
					"name": "hook",
					"type": "address",
					"internalType": "address"
				},
				{
					"name": "nakedBannyId",
					"type": "uint256",
					"internalType": "uint256"
				}
			],
			"outputs": [
				{
					"name": "worldId",
					"type": "uint256",
					"internalType": "uint256"
				},
				{
					"name": "outfitIds",
					"type": "uint256[]",
					"internalType": "uint256[]"
				}
			],
			"stateMutability": "view"
		},
		{
			"type": "function",
			"name": "decorateBannyWith",
			"inputs": [
				{
					"name": "hook",
					"type": "address",
					"internalType": "address"
				},
				{
					"name": "nakedBannyId",
					"type": "uint256",
					"internalType": "uint256"
				},
				{
					"name": "worldId",
					"type": "uint256",
					"internalType": "uint256"
				},
				{
					"name": "outfitIds",
					"type": "uint256[]",
					"internalType": "uint256[]"
				}
			],
			"outputs": [],
			"stateMutability": "nonpayable"
		},
		{
			"type": "function",
			"name": "isTrustedForwarder",
			"inputs": [
				{
					"name": "forwarder",
					"type": "address",
					"internalType": "address"
				}
			],
			"outputs": [
				{
					"name": "",
					"type": "bool",
					"internalType": "bool"
				}
			],
			"stateMutability": "view"
		},
		{
			"type": "function",
			"name": "namesOf",
			"inputs": [
				{
					"name": "hook",
					"type": "address",
					"internalType": "address"
				},
				{
					"name": "tokenId",
					"type": "uint256",
					"internalType": "uint256"
				}
			],
			"outputs": [
				{
					"name": "",
					"type": "string",
					"internalType": "string"
				},
				{
					"name": "",
					"type": "string",
					"internalType": "string"
				},
				{
					"name": "",
					"type": "string",
					"internalType": "string"
				}
			],
			"stateMutability": "view"
		},
		{
			"type": "function",
			"name": "owner",
			"inputs": [],
			"outputs": [
				{
					"name": "",
					"type": "address",
					"internalType": "address"
				}
			],
			"stateMutability": "view"
		},
		{
			"type": "function",
			"name": "renounceOwnership",
			"inputs": [],
			"outputs": [],
			"stateMutability": "nonpayable"
		},
		{
			"type": "function",
			"name": "setProductNames",
			"inputs": [
				{
					"name": "upcs",
					"type": "uint256[]",
					"internalType": "uint256[]"
				},
				{
					"name": "names",
					"type": "string[]",
					"internalType": "string[]"
				}
			],
			"outputs": [],
			"stateMutability": "nonpayable"
		},
		{
			"type": "function",
			"name": "setSvgBaseUri",
			"inputs": [
				{
					"name": "baseUri",
					"type": "string",
					"internalType": "string"
				}
			],
			"outputs": [],
			"stateMutability": "nonpayable"
		},
		{
			"type": "function",
			"name": "setSvgContentsOf",
			"inputs": [
				{
					"name": "upcs",
					"type": "uint256[]",
					"internalType": "uint256[]"
				},
				{
					"name": "svgContents",
					"type": "string[]",
					"internalType": "string[]"
				}
			],
			"outputs": [],
			"stateMutability": "nonpayable"
		},
		{
			"type": "function",
			"name": "setSvgHashsOf",
			"inputs": [
				{
					"name": "upcs",
					"type": "uint256[]",
					"internalType": "uint256[]"
				},
				{
					"name": "svgHashs",
					"type": "bytes32[]",
					"internalType": "bytes32[]"
				}
			],
			"outputs": [],
			"stateMutability": "nonpayable"
		},
		{
			"type": "function",
			"name": "svgBaseUri",
			"inputs": [],
			"outputs": [
				{
					"name": "",
					"type": "string",
					"internalType": "string"
				}
			],
			"stateMutability": "view"
		},
		{
			"type": "function",
			"name": "svgHashOf",
			"inputs": [
				{
					"name": "upc",
					"type": "uint256",
					"internalType": "uint256"
				}
			],
			"outputs": [
				{
					"name": "",
					"type": "bytes32",
					"internalType": "bytes32"
				}
			],
			"stateMutability": "view"
		},
		{
			"type": "function",
			"name": "svgOf",
			"inputs": [
				{
					"name": "hook",
					"type": "address",
					"internalType": "address"
				},
				{
					"name": "tokenId",
					"type": "uint256",
					"internalType": "uint256"
				},
				{
					"name": "shouldDressNakedBanny",
					"type": "bool",
					"internalType": "bool"
				},
				{
					"name": "shouldIncludeWorldOnNakedBanny",
					"type": "bool",
					"internalType": "bool"
				}
			],
			"outputs": [
				{
					"name": "",
					"type": "string",
					"internalType": "string"
				}
			],
			"stateMutability": "view"
		},
		{
			"type": "function",
			"name": "tokenUriOf",
			"inputs": [
				{
					"name": "hook",
					"type": "address",
					"internalType": "address"
				},
				{
					"name": "tokenId",
					"type": "uint256",
					"internalType": "uint256"
				}
			],
			"outputs": [
				{
					"name": "",
					"type": "string",
					"internalType": "string"
				}
			],
			"stateMutability": "view"
		},
		{
			"type": "function",
			"name": "transferOwnership",
			"inputs": [
				{
					"name": "newOwner",
					"type": "address",
					"internalType": "address"
				}
			],
			"outputs": [],
			"stateMutability": "nonpayable"
		},
		{
			"type": "function",
			"name": "trustedForwarder",
			"inputs": [],
			"outputs": [
				{
					"name": "",
					"type": "address",
					"internalType": "address"
				}
			],
			"stateMutability": "view"
		},
		{
			"type": "function",
			"name": "userOf",
			"inputs": [
				{
					"name": "hook",
					"type": "address",
					"internalType": "address"
				},
				{
					"name": "worldId",
					"type": "uint256",
					"internalType": "uint256"
				}
			],
			"outputs": [
				{
					"name": "",
					"type": "uint256",
					"internalType": "uint256"
				}
			],
			"stateMutability": "view"
		},
		{
			"type": "function",
			"name": "wearerOf",
			"inputs": [
				{
					"name": "hook",
					"type": "address",
					"internalType": "address"
				},
				{
					"name": "outfitId",
					"type": "uint256",
					"internalType": "uint256"
				}
			],
			"outputs": [
				{
					"name": "",
					"type": "uint256",
					"internalType": "uint256"
				}
			],
			"stateMutability": "view"
		},
		{
			"type": "event",
			"name": "DecorateBanny",
			"inputs": [
				{
					"name": "hook",
					"type": "address",
					"indexed": true,
					"internalType": "address"
				},
				{
					"name": "nakedBannyId",
					"type": "uint256",
					"indexed": true,
					"internalType": "uint256"
				},
				{
					"name": "worldId",
					"type": "uint256",
					"indexed": false,
					"internalType": "uint256"
				},
				{
					"name": "outfitIds",
					"type": "uint256[]",
					"indexed": false,
					"internalType": "uint256[]"
				},
				{
					"name": "caller",
					"type": "address",
					"indexed": false,
					"internalType": "address"
				}
			],
			"anonymous": false
		},
		{
			"type": "event",
			"name": "OwnershipTransferred",
			"inputs": [
				{
					"name": "previousOwner",
					"type": "address",
					"indexed": true,
					"internalType": "address"
				},
				{
					"name": "newOwner",
					"type": "address",
					"indexed": true,
					"internalType": "address"
				}
			],
			"anonymous": false
		},
		{
			"type": "event",
			"name": "SetProductName",
			"inputs": [
				{
					"name": "upc",
					"type": "uint256",
					"indexed": true,
					"internalType": "uint256"
				},
				{
					"name": "name",
					"type": "string",
					"indexed": false,
					"internalType": "string"
				},
				{
					"name": "caller",
					"type": "address",
					"indexed": false,
					"internalType": "address"
				}
			],
			"anonymous": false
		},
		{
			"type": "event",
			"name": "SetSvgBaseUri",
			"inputs": [
				{
					"name": "baseUri",
					"type": "string",
					"indexed": false,
					"internalType": "string"
				},
				{
					"name": "caller",
					"type": "address",
					"indexed": false,
					"internalType": "address"
				}
			],
			"anonymous": false
		},
		{
			"type": "event",
			"name": "SetSvgContent",
			"inputs": [
				{
					"name": "upc",
					"type": "uint256",
					"indexed": true,
					"internalType": "uint256"
				},
				{
					"name": "svgContent",
					"type": "string",
					"indexed": false,
					"internalType": "string"
				},
				{
					"name": "caller",
					"type": "address",
					"indexed": false,
					"internalType": "address"
				}
			],
			"anonymous": false
		},
		{
			"type": "event",
			"name": "SetSvgHash",
			"inputs": [
				{
					"name": "upc",
					"type": "uint256",
					"indexed": true,
					"internalType": "uint256"
				},
				{
					"name": "svgHash",
					"type": "bytes32",
					"indexed": true,
					"internalType": "bytes32"
				},
				{
					"name": "caller",
					"type": "address",
					"indexed": false,
					"internalType": "address"
				}
			],
			"anonymous": false
		},
		{
			"type": "error",
			"name": "ASSET_IS_ALREADY_BEING_WORN",
			"inputs": []
		},
		{
			"type": "error",
			"name": "CONTENTS_ALREADY_STORED",
			"inputs": []
		},
		{
			"type": "error",
			"name": "CONTENTS_MISMATCH",
			"inputs": []
		},
		{
			"type": "error",
			"name": "HASH_ALREADY_STORED",
			"inputs": []
		},
		{
			"type": "error",
			"name": "HASH_NOT_FOUND",
			"inputs": []
		},
		{
			"type": "error",
			"name": "HEAD_ALREADY_ADDED",
			"inputs": []
		},
		{
			"type": "error",
			"name": "OwnableInvalidOwner",
			"inputs": [
				{
					"name": "owner",
					"type": "address",
					"internalType": "address"
				}
			]
		},
		{
			"type": "error",
			"name": "OwnableUnauthorizedAccount",
			"inputs": [
				{
					"name": "account",
					"type": "address",
					"internalType": "address"
				}
			]
		},
		{
			"type": "error",
			"name": "SUIT_ALREADY_ADDED",
			"inputs": []
		},
		{
			"type": "error",
			"name": "UNAUTHORIZED_NAKED_BANNY",
			"inputs": []
		},
		{
			"type": "error",
			"name": "UNAUTHORIZED_OUTFIT",
			"inputs": []
		},
		{
			"type": "error",
			"name": "UNAUTHORIZED_WORLD",
			"inputs": []
		},
		{
			"type": "error",
			"name": "UNORDERED_CATEGORIES",
			"inputs": []
		},
		{
			"type": "error",
			"name": "UNRECOGNIZED_CATEGORY",
			"inputs": []
		},
		{
			"type": "error",
			"name": "UNRECOGNIZED_OUTFIT",
			"inputs": []
		},
		{
			"type": "error",
			"name": "UNRECOGNIZED_PRODUCT",
			"inputs": []
		},
		{
			"type": "error",
			"name": "UNRECOGNIZED_WORLD",
			"inputs": []
		}
	],
	"solcInputHash": "40a9679a870a4cc6e0668e364137e1b6",
	"args": [
		"0x9b2AEbe9ffa55703e4A7a3F1114e66f3170C80Bc",
		"0xB2b5841DBeF766d4b521221732F9B618fCf34A87"
	],
	"bytecode": "0x60a034620000e957601f6200608438819003918201601f19168301916001600160401b03831184841017620000ee578084926040948552833981010312620000e9576200005a6020620000528362000104565b920162000104565b6080526001600160a01b039081168015620000d057600080546001600160a01b03198116831782556040519316907f8be0079c531659141344cd1fd0a4f28419497f9722a3daafe3b4186f6b6457e09080a3615f6a90816200011a8239608051818181610723015281816108560152615d770152f35b604051631e4fbdf760e01b815260006004820152602490fd5b600080fd5b634e487b7160e01b600052604160045260246000fd5b51906001600160a01b0382168203620000e95756fe6080604052600436101561001257600080fd5b60003560e01c806257bfdd1461013657806318ab522d1461013157806331a290ac1461012c578063572b6c05146101275780635e703e71146101225780636aff31dd1461011d578063715018a61461011857806379a2696e146101135780637da0a8771461010e578063875e4bea146101095780638da5cb5b14610104578063a0122c09146100ff578063a22d0dd5146100fa578063b03a3eab146100f5578063b1fa9e7b146100f0578063c06e7bc7146100eb578063d756227e146100e65763f2fde38b146100e157600080fd5b611461565b611392565b610cca565b610c9f565b610bfa565b610bb5565b610a79565b610a16565b610885565b610840565b61080d565b6107af565b610783565b610757565b6106ff565b610590565b610451565b610407565b90600182811c9216801561016b575b602083101461015557565b634e487b7160e01b600052602260045260246000fd5b91607f169161014a565b634e487b7160e01b600052604160045260246000fd5b602081019081106001600160401b038211176101a657604052565b610175565b604081019081106001600160401b038211176101a657604052565b61026081019081106001600160401b038211176101a657604052565b6111a081019081106001600160401b038211176101a657604052565b606081019081106001600160401b038211176101a657604052565b6101c081019081106001600160401b038211176101a657604052565b90601f801991011681019081106001600160401b038211176101a657604052565b604051906000826002549161026a8361013b565b808352926020906001908181169081156102f85750600114610297575b505061029592500383610235565b565b91509260026000527f405787fa12a823e0f2b7631cc41b3ba8828b3321ca811111fa75cd3aa3bb5ace936000925b8284106102e057506102959450505081016020013880610287565b855488850183015294850194879450928101926102c5565b9150506020925061029594915060ff191682840152151560051b8201013880610287565b9060405191826000825461032f8161013b565b9081845260209460019160018116908160001461039d575060011461035e575b50505061029592500383610235565b600090815285812095935091905b818310610385575050610295935082010138808061034f565b8554888401850152948501948794509183019161036c565b9250505061029594925060ff191682840152151560051b82010138808061034f565b60005b8381106103d25750506000910152565b81810151838201526020016103c2565b906020916103fb815180928185528580860191016103bf565b601f01601f1916010190565b3461043b57600036600319011261043b57610437610423610256565b6040519182916020835260208301906103e2565b0390f35b600080fd5b6001600160a01b0381160361043b57565b3461043b57604036600319011261043b5761047a60043561047181610440565b602435906114ed565b906040519182916040830190835260209060406020850152825180915260206060850193019160005b8281106104b257505050500390f35b8351855286955093810193928101926001016104a3565b604051906101a082018281106001600160401b038211176101a657604052565b6001600160401b0381116101a65760051b60200190565b9080601f8301121561043b57602090823561051a816104e9565b936105286040519586610235565b81855260208086019260051b82010192831161043b57602001905b828210610551575050505090565b81358152908301908301610543565b9181601f8401121561043b578235916001600160401b03831161043b576020808501948460051b01011161043b57565b3461043b5760408060031936011261043b576004906001600160401b03823581811161043b576105c39036908501610500565b9060243590811161043b576105db9036908501610560565b92909180519360005b8581106105ed57005b6105f781846115a5565b5161060d6106068385896115b9565b369161135b565b610629610624836000526004602052604060002090565b6115fa565b6106ef57610641826000526001602052604060002090565b5480156106df578651602081019061066b8161065d8487611604565b03601f198101835282610235565b519020036106cf57907faeb631726b45aa3f6b09da79f7af03a9784614901f61a967ed84d63c37b7edc76106c6836106b9600196956106b4866000526004602052604060002090565b6116cd565b88519182913390836117a2565b0390a2016105e4565b85516375b5da0b60e01b81528990fd5b8651637ef41a4f60e01b81528a90fd5b8551630388067760e21b81528990fd5b3461043b57602036600319011261043b57602060043561071e81610440565b6040517f00000000000000000000000000000000000000000000000000000000000000006001600160a01b039081169216919091148152f35b3461043b57604036600319011261043b5761043761042360043561077a81610440565b60243590611c3c565b3461043b57602036600319011261043b5760043560005260016020526020604060002054604051908152f35b3461043b5760008060031936011261080a576107c96151ea565b80546001600160a01b03198116825581906001600160a01b03167f8be0079c531659141344cd1fd0a4f28419497f9722a3daafe3b4186f6b6457e08280a380f35b80fd5b3461043b57604036600319011261043b57602061083860043561082f81610440565b602435906122b9565b604051908152f35b3461043b57600036600319011261043b576040517f00000000000000000000000000000000000000000000000000000000000000006001600160a01b03168152602090f35b3461043b5760208060031936011261043b576004356001600160401b0380821161043b573660238301121561043b57816004013590811161043b57602492366024838501011161043b576108d76151ea565b6108eb826108e660025461013b565b611632565b600093601f831160011461096957505061093e81807f512c3c91736f50c57a0548c1d01ab02f24c420f002b8b20e2bfe63df9693cd3f9560009161095b575b508160011b916000199060031b1c19161790565b6002555b610956604051928392602433920184612317565b0390a1005b60249150850101353861092a565b6002600052601f19831694907f405787fa12a823e0f2b7631cc41b3ba8828b3321ca811111fa75cd3aa3bb5ace9282915b8783106109fa57505050827f512c3c91736f50c57a0548c1d01ab02f24c420f002b8b20e2bfe63df9693cd3f95106109dd575b5050600181811b01600255610942565b830160240135600019600384901b60f8161c1916905538806109cd565b908060018596848396978b01013581550195019301919061099a565b3461043b57600036600319011261043b576000546040516001600160a01b039091168152602090f35b91610a6890610a5a610a7695936060865260608601906103e2565b9084820360208601526103e2565b9160408184039101526103e2565b90565b3461043b57604036600319011261043b57600435610a9681610440565b60405163507f146560e01b815260243591906001600160a01b03906020816004818587165afa8015610b7557610b0d9360009386938593610b7a575b5060405163c44a8e6d60e01b81526001600160a01b039092166004830152602482019390935260006044820152938492839182906064820190565b0392165afa908115610b7557600091610b52575b50610437610b46610b40610100610b388587614bd9565b940151614f7a565b93614d3b565b60405193849384610a3f565b610b6f91503d806000833e610b678183610235565b810190611843565b38610b21565b6117df565b610b9d91935060203d602011610ba4575b610b958183610235565b8101906117ca565b9138610ad2565b503d610b8b565b8015150361043b57565b3461043b57608036600319011261043b57610437610423600435610bd881610440565b604435610be481610bab565b60643591610bf183610bab565b602435906128de565b3461043b57604036600319011261043b576001600160401b0360043581811161043b57610c2b903690600401610500565b9060243590811161043b573660238201121561043b578060040135610c4f816104e9565b91610c5d6040519384610235565b8183526020916024602085019160051b8301019136831161043b57602401905b828210610c9057610c8e8587612a69565b005b81358152908301908301610c7d565b3461043b57604036600319011261043b576020610838600435610cc181610440565b60243590612b0c565b3461043b57608036600319011261043b5760048035610ce881610440565b60243591604435916064356001600160401b03811161043b57610d0e9036908401610560565b93909160018060a01b039081811694604092835191610d476331a9108f60e11b938481528b818060209485938783019190602083019252565b03818d5afa908115610b7557600091611323575b5083610d74610d68615d74565b6001600160a01b031690565b911603611314578a8a88156112e15750508551848152818180610d9e8b8783019190602083019252565b03818d5afa908115610b75576000916112c4575b5083610dbf610d68615d74565b9116036112b557610dd087866122b9565b6112a657855163507f146560e01b8152818184818d5afa8015610b7557610e3760009186938391611289575b50895163c44a8e6d60e01b81526001600160a01b038a16878201908152602081018d9052600060408201529094859384928391606090910190565b0392165afa908115610b755760009161126e575b50511561125f57918493918a9388610e898e610e7a819a60018060a01b03166000526006602052604060002090565b90600052602052604060002090565b5586610eab8a610e7a8960018060a01b03166000526007602052604060002090565b5591909293505b600091610ebd612be0565b5060009182808e5b8210610f3c57505050505050505095610f248186610f1f610f379695610e7a7f6a68946ba06488db8585d7c7637fa954b574035fe15720ea760125ef860172589b9c60018060a01b03166000526005602052604060002090565b612c94565b610f2c615d74565b915194859485612d0d565b0390a3005b87989950610f778f948f8f908a8f9287859b9c9d9e98999a610f5d92612c51565b359687935195869485938493845283019190602083019252565b03915afa908115610b7557600091611242575b5084610f97610d68615d74565b91160361123257610fa8828b612b0c565b6112225787858f8d519283809263507f146560e01b82525afa8015610b7557836000918d8f8d8a91611016978795611203575b505163c44a8e6d60e01b81526001600160a01b0390931690830190815260208101949094526000604085015290948593849291839160600190565b0392165afa908115610b75576000916111ea575b508051156111da5761010001968751600281109081156111cf575b506111bf5783151590816111b3575b506111a357918f9998969492918f9896949286518881146000146110b3575050899695949392918b6110a5600193610e7a85995b516001600160a01b03909c16600090815260086020526040902090565b550191939092949697610ec5565b600891999b9c5080929496939597989a50146000146110ec57505092889795928f9995928f9895908b6110a5600193610e7a8598611088565b979f9d9b9998979a9e9c9a600581979297148015611199575b801561118f575b80611188575b1561112757508f8f51631e550b6f60e11b8152fd5b9d9f9798999b9d9c9e9a9c600a811490811561117d575b5080611176575b61116657928f999896938f989592938b6110a58c9996610e7a600195611088565b8a51635e701b2b60e01b81528890fd5b5085611145565b60099150143861113e565b5087611112565b50600b811461110c565b5060068114611105565b8a51637dc0e82560e11b81528890fd5b90508751111538611054565b8b5163c89badbd60e01b81528990fd5b600d91501138611045565b8b516354c0901d60e11b81528990fd5b6111fd913d8091833e610b678183610235565b3861102a565b61121b9195508d803d10610ba457610b958183610235565b9338610fdb565b8a5163670bdddd60e11b81528890fd5b8a5163812a698960e01b81528890fd5b6112599150863d8811610ba457610b958183610235565b38610f8a565b50845163265ba87960e01b8152fd5b61128391503d806000833e610b678183610235565b38610e4b565b6112a09150853d8711610ba457610b958183610235565b38610dfc565b50845163670bdddd60e11b8152fd5b508451639d17cec760e01b8152fd5b6112db9150823d8411610ba457610b958183610235565b38610db2565b9391600061130983610e7a8a9997959a60018060a01b03166000526006602052604060002090565b559190929350610eb2565b508451632add3f4b60e01b8152fd5b61133a9150823d8411610ba457610b958183610235565b38610d5b565b6001600160401b0381116101a657601f01601f191660200190565b92919261136782611340565b916113756040519384610235565b82948184528183011161043b578281602093846000960137010152565b3461043b57604036600319011261043b576001600160401b0360043581811161043b576113c3903690600401610500565b60249060243583811161043b573660238201121561043b578060040135926113ea846104e9565b936113f86040519586610235565b8085526020956024602087019260051b8501019336851161043b5760248101925b85841061142a57610c8e8888612d50565b833583811161043b5782013660438201121561043b5789916114568392369060448a820135910161135b565b815201930192611419565b3461043b57602036600319011261043b5760043561147e81610440565b6114866151ea565b6001600160a01b0390811680156114d457600080546001600160a01b03198116831782559092167f8be0079c531659141344cd1fd0a4f28419497f9722a3daafe3b4186f6b6457e08380a380f35b604051631e4fbdf760e01b815260006004820152602490fd5b6001600160a01b038116600090815260056020908152604080832085845282528083209051815480825291845282842081840197969392855b81811061156957505050806115446115609260409798990382610235565b6001600160a01b03909616600090815260066020526040902090565b91835252205491565b82548a529884019860019283019201611526565b634e487b7160e01b600052603260045260246000fd5b8051156115a05760200190565b61157d565b80518210156115a05760209160051b010190565b91908110156115a05760051b81013590601e198136030182121561043b5701908135916001600160401b03831161043b57602001823603811361043b579190565b610a76905461013b565b90611617602092828151948592016103bf565b0190565b818110611626575050565b6000815560010161161b565b90601f821161163f575050565b6102959160026000527f405787fa12a823e0f2b7631cc41b3ba8828b3321ca811111fa75cd3aa3bb5ace906020601f840160051c83019310611689575b601f0160051c019061161b565b909150819061167c565b9190601f81116116a257505050565b610295926000526020600020906020601f840160051c8301931061168957601f0160051c019061161b565b91909182516001600160401b0381116101a6576116f4816116ee845461013b565b84611693565b602080601f83116001146117375750819061172893949560009261172c575b50508160011b916000199060031b1c19161790565b9055565b015190503880611713565b90601f1983169561174d85600052602060002090565b926000905b88821061178a57505083600195969710611771575b505050811b019055565b015160001960f88460031b161c19169055388080611767565b80600185968294968601518155019501930190611752565b906117ba6020919493946040845260408401906103e2565b6001600160a01b03909416910152565b9081602091031261043b5751610a7681610440565b6040513d6000823e3d90fd5b519061029582610440565b519061029582610bab565b81601f8201121561043b57805161181781611340565b926118256040519485610235565b8184526020828401011161043b57610a7691602080850191016103bf565b60208183031261043b5780516001600160401b039182821161043b57016101a08184031261043b576118736104c9565b92815184526020820151602085015260408201516040850152606082015160608501526080820151608085015260a082015160a08501526118b660c083016117eb565b60c085015260e082015160e085015261010080830151908501526101206118de8184016117f6565b908501526101406118f08184016117f6565b908501526101606119028184016117f6565b90850152610180928383015190811161043b5761191f9201611801565b9082015290565b604051906119338261018b565b60008252565b60405190611946826101ab565b600e82526d226f7574666974496473223a205b60901b6020830152565b60236102959193929360405194816119858793518092602080870191016103bf565b8201601160f91b60208201526119a58251809360206021850191016103bf565b0161088b60f21b6021820152036003810185520183610235565b906102956022604051846119dd8296518092602080860191016103bf565b810161174b60f21b6020820152036002810185520183610235565b602e610295919392936040519481611a1a8793518092602080870191016103bf565b82016b113bb7b9363224b2111d101160a11b6020820152611a45825180936020602c850191016103bf565b0161088b60f21b602c82015203600e810185520183610235565b90604051918260605160005b818110611aa0575090602061029593611a948294840191838301600081528151948592016103bf565b01038085520183610235565b6020919250806080015182828801015201908491611a6b565b6020610295919392936040519481611ada87935180928680870191016103bf565b8201611a94825180938680850191016103bf565b90610295603960405180947f22776f726e42794e616b656442616e6e794964223a20220000000000000000006020830152611b338151809260206037860191016103bf565b810161088b60f21b6037820152036019810185520183610235565b90610295603960405180947f227573656442794e616b656442616e6e794964223a20220000000000000000006020830152611b338151809260206037860191016103bf565b9060208282031261043b5781516001600160401b03811161043b57610a769201611801565b9081602091031261043b575190565b9081606091031261043b5780519160406020830151920151610a7681610440565b90610295603d60405180947f646174613a6170706c69636174696f6e2f6a736f6e3b6261736536342c0000006020830152611c2c81518092602086860191016103bf565b810103601d810185520183610235565b6040805163507f146560e01b808252602092916001600160a01b03919060049086841686828481845afa8015610b755789600091611cb894839161229c575b50885163c44a8e6d60e01b81526001600160a01b038c1687820190815260208101939093526000604084015294859283918a918391606090910190565b0392165afa918215610b7557600092612281575b5081511561227057611cdc611926565b5061010082018051909490156121e357611cf783518a6130d8565b9889516121ac575b855160010361219157611d22611d1d611d188d846122b9565b612f2a565b611b4e565b965b8a511561205f575050865163043c358d60e11b81529360609285925082905afa908115610b755760009260009261202a575b50611d61818a614bd9565b988151611d6d90614d3b565b948051611d7990614f7a565b91611d8390612f2a565b908351611d8f90612f2a565b9051611d9a90612f2a565b916060850151611da990612f2a565b938b8b870151611db890612f2a565b960151611dc490612f2a565b96611dce90612f2a565b97611dd890612f2a565b988c8c519e8f918201611dea91611604565b039d601f199e8f81018252611dff9082610235565b611e0890615101565b9b51683d913730b6b2911d1160b91b9d81019d8e529e8f9d600901611e2c91611604565b7211161011383937b23ab1ba2730b6b2911d101160691b8152601301611e5191611604565b731116101131b0ba32b3b7b93ca730b6b2911d101160611b8152601401611e7791611604565b6e111610113a37b5b2b724b2111d101160891b8152600f01611e9891611604565b6a111610113ab831911d101160a91b8152600b01611eb591611604565b6f1116101131b0ba32b3b7b93c911d101160811b8152601001611ed791611604565b6d1116101139bab838363c911d101160911b8152600e01611ef791611604565b70111610113932b6b0b4b734b733911d101160791b8152601101611f1a91611604565b6c11161011383934b1b2911d101160991b8152600d01611f3991611604565b6f111610113232b1b4b6b0b639911d101160811b8152601001611f5b91611604565b6f1116101131bab93932b731bc911d101160811b8152601001611f7d91611604565b6201116160ed1b8152600301611f9291611604565b7f226465736372697074696f6e223a2241207069656365206f662074686520426181527f6e6e797665727365222c22696d616765223a22646174613a696d6167652f737660208201526c19cade1b5b0ed8985cd94d8d0b609a1b6040820152604d01611ffd91611604565b61227d60f01b81526002010390810182526120189082610235565b61202190615101565b610a7690611be8565b90925061204f915060603d606011612058575b6120478183610235565b810190611bc7565b50909138611d56565b503d61203d565b935093949097999550600d919698505111600014612182578651636c0360eb60e01b81526000818581895afa8015610b7557899160009161215f575b50965b8489518098819382525afa928315610b75576120f2978996600095612140575b5051630c8df17160e41b81526001600160a01b03909316908301908152602081019490945290958693849291839160400190565b0392165afa918215610b7557610a7693600093612111575b50506148f2565b612131929350803d10612139575b6121298183610235565b810190611bb8565b90388061210a565b503d61211f565b612158919550873d8911610ba457610b958183610235565b93386120be565b61217c91503d806000833e6121748183610235565b810190611b93565b3861209b565b8761218b610256565b9661209e565b6121a66121a1611d188d84612b0c565b611aee565b96611d24565b986121bf9060018751036121c5576147ff565b98611cff565b6121de906121d96121d46131d8565b614739565b611ab9565b6147ff565b6121ed8a8a612749565b986121f88b826114ed565b8098919851612205611939565b906000925b81841061224557505061221d91506119bf565b978061222a575b50611d24565b9761223861223e9299612f2a565b906119f8565b9638612224565b909161226660019161226061225a87866115a5565b51612f2a565b90611963565b930192919061220a565b505050505050505050610a76611926565b61229591923d8091833e610b678183610235565b9038611ccc565b6122b391508a3d8c11610ba457610b958183610235565b38611c7b565b60018060a01b031660009080825260076020526040822083835260205260408220549283159182156122f5575b50506122f0575090565b905090565b90915082526006602052604082208383526020526040822054141538806122e6565b918060609160209396959660408652816040870152838601376000828286010152601f80199101168301019360018060a01b0316910152565b6040519061010082018281106001600160401b038211176101a65760405260dd82527f746820643d224d3138302031343768337633682d337a222f3e3c2f673e00000060e0837f3c6720636c6173733d226f223e3c7061746820643d224d31373720313430763360208201527f6836763131683130762d31316834762d33682d32307a222f3e3c70617468206460408201527f3d224d31353320313430763368377638203368372033762d31316833762d336860608201527f2d32307a222f3e3c2f673e3c6720636c6173733d2277223e3c7061746820643d60808201527f224d3135332031343368377634682d377a222f3e3c7061746820643d224d313560a08201527f372031343768337633682d337a6d32302d3468367634682d367a222f3e3c706160c08201520152565b6040519061248b826101c6565b61023a82527f643d224d3139302031333768347633682d347a222f3e3c2f673e000000000000610240837f3c6720636c6173733d226f223e3c7061746820643d224d31393020313237683360208201527f7633682d337a6d3320313368347633682d347a6d2d3432203068367636682d3660408201527f7a222f3e3c7061746820643d224d3135312031333368337637682d337a6d313060608201527f203068367634682d367a222f3e3c7061746820643d224d31353720313337683160808201527f377636682d31377a6d332031336831347633682d31347a6d31372d313368377660a08201527f3136682d377a222f3e3c7061746820643d224d3138342031333768367636682d60c08201527f367a6d302031306831307636682d31307a222f3e3c7061746820643d224d313860e08201527f37203134336831307634682d31307a222f3e3c7061746820643d224d313930206101008201527f31343068337633682d337a6d2d362d313068337637682d337a222f3e3c7061746101208201527f6820643d224d3138372031333068367633682d367a6d2d3336203068313076336101408201527f682d31307a6d313620313368377637682d377a6d2d3130203068377637682d376101608201527f7a222f3e3c7061746820643d224d3136342031343768337633682d337a6d32396101808201527f2d323068347636682d347a222f3e3c7061746820643d224d31393420313333686101a08201527f337637682d337a222f3e3c2f673e3c6720636c6173733d2277223e3c706174686101c08201527f20643d224d3135342031333368377634682d377a222f3e3c7061746820643d226101e08201527f4d3135342031333768337633682d337a6d3130203668337634682d337a6d32306102008201527f203068337634682d337a6d332d313068377634682d377a222f3e3c70617468206102208201520152565b60405163507f146560e01b81526001600160a01b036020826004818685165afa918215610b75576000926128ba575b5060405163c44a8e6d60e01b81526001600160a01b0384166004820152602481018590526000604482018190529092909183916064918391165afa908115610b75576000916128a1575b5080511561289657606092610100820151612871579261282891600161280f6127ee610a7697876114ed565b94908015158061286a575b612850575b50612809845161522b565b90611ab9565b915103612844576128229061280961247e565b92615654565b8051612835575b506147ff565b61283e91611ab9565b3861282f565b61282290612809612350565b612864915061285f90886130d8565b611a5f565b386127fe565b50836127f9565b5061287e925051906130d8565b805161288d5750610a76611926565b610a76906147ff565b505050610a76611926565b6128b4913d8091833e610b678183610235565b386127c2565b60009192506128d79060203d602011610ba457610b958183610235565b9190612778565b60405163507f146560e01b81529390916001600160a01b036020866004818488165afa958615610b7557600096612a45575b5060405163c44a8e6d60e01b81526001600160a01b0385166004820152602481018390526000604482018190529096909187916064918391165afa948515610b7557600095612a2a575b50845115612a1d57606090610100860151612a0d5761299e610a769692612983600193876114ed565b958115159081612a05575b506129f65750612809845161522b565b9151036129e4576129b19061280961247e565b925b6129bf575b50506147ff565b6129c891615654565b80516129d5575b806129b8565b6129de91611ab9565b386129cf565b6129f090612809612350565b926129b3565b612864915061285f90876130d8565b90503861298e565b505050905061287e9151906130d8565b5050505050610a76611926565b612a3e91953d8091833e610b678183610235565b933861295a565b6000919650612a629060203d602011610ba457610b958183610235565b9590612910565b90612a726151ea565b81519060009260005b838110612a89575050505050565b612a9381836115a5565b51612a9e82856115a5565b5190808752602060018152604080892054612afc5782917fb10eb6fc7557a7109693cb8f3fac48d44328de56c0368ee4cac539b424d2cad99185612af060019897966000526001602052604060002090565b5551338152a301612a7b565b516333ded41b60e21b8152600490fd5b6001600160a01b03811660009081526008602090815260408083208584528252822054919390928215612bd9576001600160a01b03166000908152600560205260409020828552835260408420926040518094859183825491828152019188528388209388905b828210612bbf57505050612b8992500384610235565b825192845b848110612b9d57505050505090565b82612ba882846115a5565b5114612bb657600101612b8e565b50505091505090565b855484526001958601958995509381019390910190612b73565b5050505090565b604051906101a082018281106001600160401b038211176101a657604052606061018083600080825280602083015280604083015280848301528060808301528060a08301528060c08301528060e08301528061010083015280610120830152806101408301526101608201520152565b91908110156115a05760051b0190565b634e487b7160e01b600052601160045260246000fd5b600281901b91906001600160fe1b03811603612c8f57565b612c61565b906001600160401b0383116101a6576801000000000000000083116101a6578154838355808410612cef575b50906000526020806000209060005b848110612cdd575050505050565b83358382015592810192600101612ccf565b612d079083600052846020600020918201910161161b565b38612cc0565b9081526060602082018190528101839052929392916001600160fb1b03811161043b5760409160809160051b8091838601378301019360018060a01b0316910152565b9190612d5a6151ea565b82516000935b818510612d6e575050509050565b612d7885826115a5565b5194612d8481856115a5565b51958060005260039660209780895260409081600020908351906001600160401b0382116101a657612dc082612dba855461013b565b85611693565b8b601f8311600114612e43575050917f9dedd219289ed514faff576c477c66bd097aef59a236e3b8ebcf0d0070cb4e969391612e1c84612e2b9560019a9b9c9d9e600091612e3857508160011b916000199060031b1c19161790565b90555b519182913390836117a2565b0390a20193929190612d60565b90508501513861092a565b909b601f198316612e5985600052602060002090565b926000905b828210612ec8575050916001999a9b9c9d8492612e2b97957f9dedd219289ed514faff576c477c66bd097aef59a236e3b8ebcf0d0070cb4e9699979510612eae575b505050881b88019055612e1f565b8601519060f884600019921b161c19169055388080612ea0565b80600185968294968c01518155019501930190612e5e565b604051612eec8161018b565b60008152906000368137565b90612f0282611340565b612f0f6040519182610235565b8281528092612f20601f1991611340565b0190602036910137565b806000917a184f03e93ff9f4daa797ed6e38ed64bf6a1f0100000000000000008082101561305f575b506d04ee2d6d415b85acef810000000080831015613050575b50662386f26fc1000080831015613041575b506305f5e10080831015613032575b5061271080831015613023575b506064821015613013575b600a80921015613009575b600190816021612fc260018701612ef8565b95860101905b612fd3575050505090565b600019019083906f181899199a1a9b1b9c1cb0b131b232b360811b8282061a83530491821561300457919082612fc8565b612bd9565b9160010191612fb0565b9190606460029104910191612fa5565b60049193920491019138612f9a565b60089193920491019138612f8d565b60109193920491019138612f7e565b60209193920491019138612f6c565b604093508104915038612f53565b90610295604960405180946c1e34b6b0b3b290343932b31e9160991b60208301526130a2815180926020602d860191016103bf565b81017f222077696474683d2234303022206865696768743d22343030222f3e00000000602d820152036029810185520183610235565b6130f46130ef836000526004602052604060002090565b61031c565b80516131d2575060405163507f146560e01b81526001600160a01b039260209283836004818489165afa908115610b75576131679585946000936131b3575b50604051632f54648f60e21b81526001600160a01b0390921660048301526024820193909352948592839182906044820190565b0392165afa8015610b7557610a769261319192600092613196575b505061318c610256565b6148f2565b61306d565b6131ac9250803d10612139576121298183610235565b3880613182565b6131cb919350853d8711610ba457610b958183610235565b9138613133565b91505090565b604051906131e5826101e2565b61117a82527f762d31306833762d376833762d33682d31307a222f3e3c2f673e000000000000611180837f3c6720636c6173733d226131223e3c7061746820643d224d313733203533683460208201527f763137682d347a222f3e3c2f673e3c6720636c6173733d226132223e3c70617460408201527f6820643d224d3136372035376833763130682d337a222f3e3c7061746820643d60608201527f224d3136392035336834763137682d347a222f3e3c2f673e3c6720636c61737360808201527f3d226133223e3c7061746820643d224d31363720353368337634682d337a222f60a08201527f3e3c7061746820643d224d3136332035376834763130682d347a222f3e3c706160c08201527f746820643d224d31363720363768337633682d337a222f3e3c2f673e3c67206360e08201527f6c6173733d226231223e3c7061746820643d224d32313320323533682d33762d6101008201527f332d33682d33762d372d33682d34762d3130682d33762d372d372d33682d33766101208201527f2d3733682d34762d3130682d33762d3130682d33762d37682d34762d37682d336101408201527f762d33682d33762d33682d3476313068347631306833763130683376336834766101608201527f37203320373020336833763768337632306834763768337633683376336834766101808201527f34683376336833762d332d347a222f3e3c7061746820643d224d3235332033306101a08201527f37762d34682d33762d33682d33762d33682d34762d34682d33762d33682d33766101c08201527f2d33682d34762d34682d33762d33682d33762d33682d34762d34682d33762d366101e08201527f682d33762d37682d3476313768347633683376336833203476346833763368336102008201527f76336834763468337633683376336834763468337633683376336834762d36686102208201527f2d347a222f3e3c2f673e3c6720636c6173733d226232223e3c7061746820643d6102408201527f224d32353020333130762d33682d33762d34682d34762d33682d33762d33682d6102608201527f33762d34682d34762d33682d33762d33682d33762d34682d37762d33682d33766102808201527f2d33682d34762d3137682d33762d33682d33762d34682d34762d33682d33762d6102a08201527f33682d33762d37682d34762d3230682d33762d37682d33762d37332d332d37686102c08201527f2d34762d33682d33762d3130682d33762d3130682d34563730682d33762d336c6102e08201527f2d332031303020332d313030763430682d33763130682d347636682d337631346103008201527f682d337633203133682d347634346834763136683376313468337631336834766103208201527f31306833763768337633683476336833763468337633683476336833763468336103408201527f76336834763368337637683776376836763368377633683776346831337633686103608201527f337633683130762d33682d337a6d2d3130332d3837762d31366833762d3130686103808201527f2d337636682d34763137682d337631306833762d3768347a222f3e3c706174686103a08201527f20643d224d3134332032333068347637682d347a6d3420313068337633682d336103c08201527f7a6d33203768337633682d337a6d33203668347634682d347a222f3e3c7061746103e08201527f6820643d224d31363320323537682d36763368337633683376346834762d342d6104008201527f33682d34762d337a222f3e3c2f673e3c6720636c6173733d226233223e3c70616104208201527f746820643d224d3134332031393776366834762d366836762d34346834762d316104408201527f366833762d31346833762d366834762d31306833563937682d377636682d33766104608201527f34682d337633682d347633682d3376342033682d3376332034682d34763130686104808201527f2d337631362034682d337634366833762d3668337a222f3e3c7061746820643d6104a08201527f224d313430203230336833763137682d337a222f3e3c7061746820643d224d316104c08201527f3337203232306833763130682d337a222f3e3c7061746820643d224d313533206104e08201527f323530682d33762d37682d33762d36682d34762d37682d3376313068337637686105008201527f347636683376346833762d377a6d2d3320313068337637682d337a222f3e3c706105208201527f61746820643d224d3134372032353768337633682d337a6d36203068347633686105408201527f2d347a222f3e3c7061746820643d224d31363020323633762d33682d337633206105608201527f376836762d37682d337a6d2d31302d3536763136682d337637683376313068336105808201527f763768347636683676346837762d342d33682d33762d3130682d34762d3133686105a08201527f2d33762d3134682d33762d3136682d34763130682d337a222f3e3c70617468206105c08201527f643d224d32343320333133762d33682d33762d33682d31302d33762d34682d376105e08201527f762d33682d37762d33682d36762d37682d37762d37682d33762d33682d34762d6106008201527f33682d33762d34682d33762d33682d34762d33682d33762d34682d33762d33686106208201527f2d34762d33682d33763130682d337633682d347633682d3376376833763768346106408201527f76366833763568347633683676336833763368342033763368332034763368336106608201527f20337634683130763368372037203376336831302033762d33683130762d33686106808201527f34762d34682d31347a222f3e3c2f673e3c6720636c6173733d226234223e3c706106a08201527f61746820643d224d3138332031333068347637682d347a222f3e3c70617468206106c08201527f643d224d3138302031323768337633682d337a6d2d32372d3468347637682d346106e08201527f7a222f3e3c7061746820643d224d3135372031313768337636682d337a222f3e6107008201527f3c7061746820643d224d3136302031313068337637682d337a222f3e3c7061746107208201527f6820643d224d3136332031303768347633682d347a6d2d3320383368337637686107408201527f2d337a222f3e3c7061746820643d224d3136332031383768347633682d347a6d6107608201527f3230203068377633682d377a222f3e3c7061746820643d224d313830203139306107808201527f68337633682d337a6d31302d3768337634682d337a222f3e3c7061746820643d6107a08201527f224d3139332031383768347636682d347a6d2d323020353368347637682d347a6107c08201527f222f3e3c7061746820643d224d3137372032343768337636682d337a222f3e3c6107e08201527f7061746820643d224d3138302032353368337637682d337a222f3e3c706174686108008201527f20643d224d3138332032363068377633682d377a222f3e3c7061746820643d226108208201527f4d3139302032363368337634682d337a6d302d323068337634682d337a222f3e6108408201527f3c7061746820643d224d3138372032343068337633682d337a222f3e3c7061746108608201527f6820643d224d3139302032333768337633682d337a6d313320323368347633686108808201527f2d347a222f3e3c7061746820643d224d3230372032363368337637682d337a226108a08201527f2f3e3c7061746820643d224d3231302032373068337633682d337a6d2d3130206108c08201527f3768337636682d337a222f3e3c7061746820643d224d323033203238336834766108e08201527f37682d347a222f3e3c7061746820643d224d3230372032393068367633682d366109008201527f7a222f3e3c2f673e3c6720636c6173733d226f223e3c7061746820643d224d316109208201527f3333203135376834763530682d347a6d302036336834763130682d347a6d32376109408201527f2d3136336833763130682d337a222f3e3c7061746820643d224d3136332035336109608201527f68347634682d347a222f3e3c7061746820643d224d31363720353068313076336109808201527f682d31307a222f3e3c7061746820643d224d3137372035336833763137682d336109a08201527f7a222f3e3c7061746820643d224d3137332037306834763237682d347a6d2d366109c08201527f20306833763237682d337a222f3e3c7061746820643d224d31363320363768346109e08201527f7633682d347a6d3020333068347633682d347a222f3e3c7061746820643d224d610a008201527f3136302031303068337633682d337a222f3e3c7061746820643d224d31353720610a208201527f31303368337634682d337a222f3e3c7061746820643d224d3135332031303768610a408201527f347633682d347a222f3e3c7061746820643d224d313530203131306833763368610a608201527f2d337a222f3e3c7061746820643d224d3134372031313368337637682d337a22610a808201527f2f3e3c7061746820643d224d3134332031323068347637682d347a222f3e3c70610aa08201527f61746820643d224d313430203132376833763130682d337a222f3e3c70617468610ac08201527f20643d224d313337203133376833763230682d337a6d35362d31306834763130610ae08201527f682d347a222f3e3c7061746820643d224d313930203131376833763130682d33610b008201527f7a222f3e3c7061746820643d224d3138372031313068337637682d337a222f3e610b208201527f3c7061746820643d224d3138332031303368347637682d347a222f3e3c706174610b408201527f6820643d224d3138302031303068337633682d337a222f3e3c7061746820643d610b608201527f224d31373720393768337633682d337a6d2d3430203130366833763137682d33610b808201527f7a6d302032376833763130682d337a6d313020333068337637682d337a222f3e610ba08201527f3c7061746820643d224d31353020323537762d34682d33762d36682d34762d37610bc08201527f682d3376313068337631306834762d3368337a222f3e3c7061746820643d224d610be08201527f3135302032353768337633682d337a222f3e3c7061746820643d224d31363320610c008201527f323733762d33682d36762d3130682d347637682d337633683376336834763768610c208201527f33762d3768337a222f3e3c7061746820643d224d313633203236376834763368610c408201527f2d347a222f3e3c7061746820643d224d31373020323537682d332d3476336834610c608201527f76376833762d31307a222f3e3c7061746820643d224d31353720323533683676610c808201527f34682d367a222f3e3c7061746820643d224d3135332032343768347636682d34610ca08201527f7a222f3e3c7061746820643d224d3135302032343068337637682d337a222f3e610cc08201527f3c7061746820643d224d313437203233306833763130682d337a6d3133203530610ce08201527f68337637682d337a222f3e3c7061746820643d224d3134332032323368347637610d008201527f682d347a222f3e3c7061746820643d224d313437203230376833763136682d33610d208201527f7a222f3e3c7061746820643d224d313530203139376833763130682d337a6d2d610d408201527f3130203068337636682d337a6d35302031313368377633682d377a6d32332031610d608201527f306831377633682d31377a222f3e3c7061746820643d224d3233302033323368610d808201527f31337634682d31337a222f3e3c7061746820643d224d32343320333230683130610da08201527f7633682d31307a222f3e3c7061746820643d224d323533203331376834763368610dc08201527f2d347a222f3e3c7061746820643d224d323537203330376833763130682d337a610de08201527f222f3e3c7061746820643d224d3235332033303368347634682d347a222f3e3c610e008201527f7061746820643d224d3235302033303068337633682d337a222f3e3c70617468610e208201527f20643d224d3234372032393768337633682d337a222f3e3c7061746820643d22610e408201527f4d3234332032393368347634682d347a222f3e3c7061746820643d224d323430610e608201527f2032393068337633682d337a222f3e3c7061746820643d224d32333720323837610e808201527f68337633682d337a222f3e3c7061746820643d224d3233332032383368347634610ea08201527f682d347a222f3e3c7061746820643d224d3233302032383068337633682d337a610ec08201527f222f3e3c7061746820643d224d3232372032373768337633682d337a222f3e3c610ee08201527f7061746820643d224d3232332032373368347634682d347a222f3e3c70617468610f008201527f20643d224d3232302032363768337636682d337a222f3e3c7061746820643d22610f208201527f4d3231372032363068337637682d337a222f3e3c7061746820643d224d323133610f408201527f2032353368347637682d347a222f3e3c7061746820643d224d32313020323437610f608201527f68337636682d337a222f3e3c7061746820643d224d3230372032333768337631610f808201527f30682d337a222f3e3c7061746820643d224d323033203232376834763130682d610fa08201527f347a6d2d343020363068347636682d347a6d323420323068337633682d337a22610fc08201527f2f3e3c7061746820643d224d3136372032393368337635682d337a6d31362031610fe08201527f3468347633682d347a222f3e3c7061746820643d224d313730203239386834766110008201527f33682d347a6d3130203668337633682d337a222f3e3c7061746820643d224d316110208201527f37342033303168367633682d367a6d323320313268367634682d367a222f3e3c6110408201527f7061746820643d224d323033203331376831307633682d31307a6d2d322d31306110608201527f37762d3733682d3476373368337631376833762d3137682d327a222f3e3c2f676110808201527f3e3c6720636c6173733d226f223e3c7061746820643d224d31383720333037766110a08201527f2d346833762d36682d33762d34682d34762d33682d33762d33682d37762d34686110c08201527f2d367634682d3476336834763237682d34763133682d33763130682d347637686110e08201527f3476336833203130203134762d33682d34762d34682d33762d33682d33762d336111008201527f682d34762d376834762d31306833762d376833762d336837762d33682d337a6d6111208201527f3136203130762d34682d36763137682d34763130682d337637683376336834206111408201527f3620342033203134762d33682d34762d34682d37762d33682d33762d33682d336111608201520152565b90610295609a60405180947f3c7374796c653e2e6f7b66696c6c3a233830383038303b7d2e62327b66696c6c60208301527f3a6e6f6e653b7d2e62337b66696c6c3a6e6f6e653b7d2e62347b66696c6c3a6e60408301527f6f6e653b7d2e61317b66696c6c3a6e6f6e653b7d2e61327b66696c6c3a6e6f6e60608301527f653b7d2e61337b66696c6c3a6e6f6e653b7d3c2f7374796c653e00000000000060808301526147ef81518092602086860191016103bf565b810103607a810185520183610235565b9061029560ba60405180947f3c7376672077696474683d2234303022206865696768743d223430302220766960208301527f6577426f783d223020302034303020343030222066696c6c3d226e6f6e65222060408301527f786d6c6e733d22687474703a2f2f7777772e77332e6f72672f323030302f737660608301527f67223e3c7374796c653e2e6f7b66696c6c3a233035303530353b7d2e777b666960808301527336361d11b31cb31cb31c9dbe9e17b9ba3cb6329f60611b60a08301526148d381518092602060b4860191016103bf565b8101651e17b9bb339f60d11b60b482015203609a810185520183610235565b90610a7690614920604051602092609160f51b8483015260228201526022815261491b816101fe565b6158d7565b92604051938161493986935180928680870191016103bf565b820161494d825180938680850191016103bf565b01038084520182610235565b906102956021604051846149778296518092602080860191016103bf565b8101600160fd1b6020820152036001810185520183610235565b610295916149e79493602b926040519687936020926149b88151809286808a0191016103bf565b85016149cc825180938680850191016103bf565b0191602f60f81b8184015283519384916021850191016103bf565b01692072656d61696e696e6760b01b602182015203600b810185520183610235565b6037906102959294936040519582614a2b8894518092602080880191016103bf565b83016b0101429a7a6221027aaaa14960a51b6020820152614a56825180936020602c850191016103bf565b01602f60f81b602c820152614a75825180936020602d850191016103bf565b01692072656d61696e696e6760b01b602d820152036017810185520183610235565b61029591614aec9493602192604051968793602092614abe8151809286808a0191016103bf565b8501614ad2825180938680850191016103bf565b0191602f60f81b81840152835193849187850191016103bf565b01036001810185520183610235565b90610295602360405184614b198296518092602080860191016103bf565b8101620101d160ed1b6020820152036003810185520183610235565b6021610295919392936040519481614b578793518092602080870191016103bf565b8201614b6c82518093602080850191016103bf565b01600160fd1b6020820152036001810185520183610235565b6025610295919392936040519481614ba78793518092602080870191016103bf565b820164555043202360d81b6020820152614bca82518093602087850191016103bf565b01036005810185520183610235565b90614c25610a7692633b9aca00614bf8614bf38551614d3b565b614959565b91068015614c615790614c0d614c2092612f2a565b614c1a6060860151612f2a565b91614a97565b614afb565b90614c34610100820151614f7a565b8051614c4c575b50614c469051612f2a565b90614b85565b614c5a90614c469293614b35565b9190614c3b565b50604083019081518015600014614c935750614c80614c209251612f2a565b614c8d6060860151612f2a565b91614a09565b614c209250614ca190612f2a565b614cae6060860151612f2a565b91614991565b60405190614cc1826101ab565b600882526713dc9a59da5b985b60c21b6020830152565b60405190614ce5826101ab565b60068252654f72616e676560d01b6020830152565b60405190614d07826101ab565b600482526350696e6b60e01b6020830152565b60405190614d27826101ab565b600582526420b634b2b760d91b6020830152565b60018103614d4c5750610a76614d1a565b60028103614d5d5750610a76614cfa565b60038103614d6e5750610a76614cd8565b60048103614d7f5750610a76614cb4565b6000526003602052610a76604060002061031c565b60405190614da1826101ab565b6007825266546f7070696e6760c81b6020830152565b60405190614dc4826101ab565b6004825263119a5cdd60e21b6020830152565b60405190614de4826101ab565b600b82526a5375697420626f74746f6d60a81b6020830152565b60405190614e0b826101ab565b600882526705375697420746f760c41b6020830152565b60405190614e2f826101ab565b600482526314dd5a5d60e21b6020830152565b60405190614e4f826101ab565b60048252631219585960e21b6020830152565b60405190614e6f826101ab565b600882526704865616420746f760c41b6020830152565b60405190614e93826101ab565b600582526409adeeae8d60db1b6020830152565b60405190614eb4826101ab565b6007825266476c617373657360c81b6020830152565b60405190614ed7826101ab565b60088252674e65636b6c61636560c01b6020830152565b60405190614efb826101ab565b60048252634c65677360e01b6020830152565b60405190614f1b826101ab565b60088252674261636b7369646560c01b6020830152565b60405190614f3f826101ab565b600582526415dbdc9b1960da1b6020830152565b60405190614f60826101ab565b600b82526a4e616b65642042616e6e7960a81b6020830152565b80614f885750610a76614f53565b60018103614f995750610a76614f32565b60028103614faa5750610a76614f0e565b60078103614fbb5750610a76614eee565b60038103614fcc5750610a76614eca565b60058103614fdd5750610a76614ea7565b60068103614fee5750610a76614e86565b600b8103614fff5750610a76614e62565b600481036150105750610a76614e42565b600881036150215750610a76614e22565b600a81036150325750610a76614dfe565b600981036150435750610a76614dd7565b600c81036150545750610a76614db7565b600d1461506357610a76611926565b610a76614d94565b60405190615078826101fe565b604082527f6768696a6b6c6d6e6f707172737475767778797a303132333435363738392b2f6040837f4142434445464748494a4b4c4d4e4f505152535455565758595a61626364656660208201520152565b9060028201809211612c8f57565b9060208201809211612c8f57565b9060018201809211612c8f57565b91908201809211612c8f57565b8051156151e15761511061506b565b61512c61512761512084516150ca565b6003900490565b612c77565b9161513e615139846150d8565b612ef8565b92835280815182019060208501935b82821061518f5750505060039051068060011461517e5760021461516f575090565b603d60f81b6000199091015290565b50613d3d60f01b6001199091015290565b9091936004906003809401938451600190603f9082828260121c16880101518553828282600c1c16880101518386015382828260061c168801015160028601531685010151908201530193919061514d565b50610a76611926565b6000546001600160a01b0390811681615201615d74565b160361520a5750565b602490615215615d74565b60405163118cdaa760e01b815291166004820152fd5b61523490615c48565b926152439695969291926131d8565b9460405197889760208901703c7374796c653e2e62317b66696c6c3a2360781b90528051908160318b01916020019161527b926103bf565b8801603181016b3b7d2e62327b66696c6c3a2360a01b905281519182603d830191602001916152a9926103bf565b01603d81016b3b7d2e62337b66696c6c3a2360a01b9052815191826049830191602001916152d6926103bf565b01604981016152f3906b3b7d2e62347b66696c6c3a2360a01b9052565b6055016152ff91611604565b6b3b7d2e61317b66696c6c3a2360a01b8152600c0161531d91611604565b6b3b7d2e61327b66696c6c3a2360a01b8152600c0161533b91611604565b6b3b7d2e61337b66696c6c3a2360a01b8152600c0161535991611604565b691dbe9e17b9ba3cb6329f60b11b8152600a0161537591611604565b03601f1981018252610a769082610235565b6040519061539482610219565b61019c82527f6820643d224d3139332031373068347633682d347a222f3e3c2f673e000000006101a0837f3c6720636c6173733d226f223e3c7061746820643d224d31393020313733682d60208201527f3337762d33682d3130762d34682d36763468337633682d33763468367633683160408201527f307634683337762d346833762d33682d33762d347a6d2d34302034682d33762d60608201527f34683376347a6d372033762d3368337633682d337a6d362030762d336834763360808201527f682d347a6d372030762d3368337633682d337a6d372030762d3368337633682d60a08201527f337a6d31302030682d34762d33683476337a222f3e3c7061746820643d224d3160c08201527f39302031373068337633682d337a222f3e3c7061746820643d224d313933203160e08201527f363668347634682d347a6d30203768347634682d347a222f3e3c2f673e3c67206101008201527f636c6173733d2277223e3c7061746820643d224d3133372031373068337633686101208201527f2d337a6d3130203368337634682d337a6d3130203468337633682d337a6d36206101408201527f3068347633682d347a6d37203068337633682d337a6d37203068337633682d336101608201527f7a6d36203068347633682d347a6d372d3468337634682d337a222f3e3c7061746101808201520152565b6040519060c082018281106001600160401b038211176101a65760405260818252601f60f91b60a0837f3c6720636c6173733d226f223e3c7061746820643d224d31383320313630762d60208201527f34682d32307634682d33763368337634683234762d37682d347a6d2d3133203360408201527f762d336831307633682d31307a222066696c6c3d2223616437316338222f3e3c60608201527f7061746820643d224d313730203136306831307633682d31307a222f3e3c2f6760808201520152565b91906060928151600091828394879361566c816150e6565b955b86811061567f575050505050505050565b818110156158665761569181846115a5565b516040805163507f146560e01b8152600491906001600160a01b036020808386818e86165afa918215610b755761570c9560009588958e948896615847575b50505163c44a8e6d60e01b81526001600160a01b0390931690830190815260208101949094526000604085015290948593849291839160600190565b0392165afa8015610b75576101009160009161582e575b500151965b6003888114969087156157fc5750505060019461574582886130d8565b995b60068981036157c5575050600a6001985b11806157bb575b6157a1575b8115159081615798575b50615780575b5060010196949661566e565b6001919a61280961579192886130d8565b9990615774565b9050153861576e565b986157ac919b611ab9565b996157b5611926565b98615764565b508951151561575f565b89919911806157f4575b6157dc575b600a90615758565b97509a6157eb9061280961558f565b9a6001976157d4565b5088156157cf565b899b9197929b1180615826575b156157475795509a61581d90612809615387565b9a600195615747565b508615615809565b615841913d8091833e610b678183610235565b38615723565b61585e929650803d10610ba457610b958183610235565b9338806156d0565b600e95600090615728565b604051906105e082018281106001600160401b038211176101a657604052602e82526105c0366020840137565b906158a8826104e9565b6158b56040519182610235565b8281528092612f20601f19916104e9565b9081518110156115a0570160200190565b908151156159fe576158e7615871565b9160009060006158f685611593565b526001918151916000925b808410615927575050505061591d61592291610a769394615dcd565b615e10565b615e57565b9091929461595861595261594c61593e89876158c6565b516001600160f81b03191690565b60f81c90565b60ff1690565b9184925b60ff90898289168610156159bd576001929161599161598b6159526159848a615997966115a5565b5160ff1690565b60081b90565b906150f4565b6159b48b6159ac88603a9586860616926115a5565b9060ff169052565b0493019261595c565b50919594935050809691965b6159d7575060010192615901565b9460ff6001603a926159f483858b06166159ac8d868516906115a5565b01169504806159c9565b9050610a76612ee0565b60405190615a15826101ab565b600682526506666653930360d41b6020830152565b60405190615a37826101ab565b600682526506666633730360d41b6020830152565b60405190615a59826101ab565b600682526566336136303360d01b6020830152565b60405190615a7b826101ab565b600682526539363561316160d01b6020830152565b60405190615a9d826101ab565b600682526533331bb1981960d11b6020830152565b60405190615abf826101ab565b600682526506664333630360d41b6020830152565b60405190615ae1826101ab565b600682526518cccc994c1960d21b6020830152565b60405190615b03826101ab565b600682526566666438633560d01b6020830152565b60405190615b25826101ab565b600682526566663936613960d01b6020830152565b60405190615b47826101ab565b600682526533329a9c1c3160d11b6020830152565b60405190615b69826101ab565b600682526563393266343560d01b6020830152565b60405190615b8b826101ab565b600682526536376437353760d01b6020830152565b60405190615bad826101ab565b600682526503330613232360d41b6020830152565b60405190615bcf826101ab565b600682526532313761313560d01b6020830152565b60405190615bf1826101ab565b60048252636e6f6e6560e01b6020830152565b60405190615c11826101ab565b6006825265329a1c19b2b360d11b6020830152565b60405190615c33826101ab565b60068252653231993332b360d11b6020830152565b60018103615c8f5750615c59615b7e565b90615c62615ba0565b90615c6b615bc2565b90615c74615be4565b90615c7d615c04565b90615c86615c26565b90610a76615c26565b60028103615cd65750615ca0615af6565b90615ca9615b18565b90615cb2615b3a565b90615cbb615b5c565b90615cc4615af6565b90615ccd615b18565b90610a76615b3a565b60038103615d1d5750615ce7615a4c565b90615cf0615a90565b90615cf9615ab2565b90615d02615ad4565b90615d0b615a4c565b90615d14615a90565b90610a76615ab2565b600414615d3657604051633b9cb79b60e21b8152600490fd5b615d3e615a08565b90615d47615a2a565b90615d50615a4c565b90615d59615a6e565b90615d62615a08565b90615d6b615a2a565b90610a76615a4c565b337f00000000000000000000000000000000000000000000000000000000000000006001600160a01b03161480615dc2575b15615dbe576013193601368111612c8f573560601c90565b3390565b506014361015615da6565b9060ff80911690615ddd8261589e565b9260005b838110615def575050505090565b8083615dfd600193856115a5565b5116615e0982886115a5565b5201615de1565b908151615e1c8161589e565b9060005b818110615e2e575090925050565b60019060ff615e446000198389510301886115a5565b5116615e5082866115a5565b5201615e20565b8051615e6281611340565b91604090615e736040519485610235565b828452615e7f83611340565b602090601f1901368683013760009260005b858110615ea15750505050505090565b6001908251615eaf816101fe565b603a81527f31323334353637383941424344454647484a4b4c4d4e50515253545556575859858201527f5a6162636465666768696a6b6d6e6f707172737475767778797a000000000000848201526001600160f81b031990615f1f9060ff615f17858a6115a5565b5116906158c6565b5116861a615f2d828a6158c6565b5301615e9156fea264697066735822122068a504ed88265ec22f85fecdcf49db863ea0fb8e8b0f7d5d26815d7ac23903de64736f6c63430008170033",
	"deployedBytecode": "0x6080604052600436101561001257600080fd5b60003560e01c806257bfdd1461013657806318ab522d1461013157806331a290ac1461012c578063572b6c05146101275780635e703e71146101225780636aff31dd1461011d578063715018a61461011857806379a2696e146101135780637da0a8771461010e578063875e4bea146101095780638da5cb5b14610104578063a0122c09146100ff578063a22d0dd5146100fa578063b03a3eab146100f5578063b1fa9e7b146100f0578063c06e7bc7146100eb578063d756227e146100e65763f2fde38b146100e157600080fd5b611461565b611392565b610cca565b610c9f565b610bfa565b610bb5565b610a79565b610a16565b610885565b610840565b61080d565b6107af565b610783565b610757565b6106ff565b610590565b610451565b610407565b90600182811c9216801561016b575b602083101461015557565b634e487b7160e01b600052602260045260246000fd5b91607f169161014a565b634e487b7160e01b600052604160045260246000fd5b602081019081106001600160401b038211176101a657604052565b610175565b604081019081106001600160401b038211176101a657604052565b61026081019081106001600160401b038211176101a657604052565b6111a081019081106001600160401b038211176101a657604052565b606081019081106001600160401b038211176101a657604052565b6101c081019081106001600160401b038211176101a657604052565b90601f801991011681019081106001600160401b038211176101a657604052565b604051906000826002549161026a8361013b565b808352926020906001908181169081156102f85750600114610297575b505061029592500383610235565b565b91509260026000527f405787fa12a823e0f2b7631cc41b3ba8828b3321ca811111fa75cd3aa3bb5ace936000925b8284106102e057506102959450505081016020013880610287565b855488850183015294850194879450928101926102c5565b9150506020925061029594915060ff191682840152151560051b8201013880610287565b9060405191826000825461032f8161013b565b9081845260209460019160018116908160001461039d575060011461035e575b50505061029592500383610235565b600090815285812095935091905b818310610385575050610295935082010138808061034f565b8554888401850152948501948794509183019161036c565b9250505061029594925060ff191682840152151560051b82010138808061034f565b60005b8381106103d25750506000910152565b81810151838201526020016103c2565b906020916103fb815180928185528580860191016103bf565b601f01601f1916010190565b3461043b57600036600319011261043b57610437610423610256565b6040519182916020835260208301906103e2565b0390f35b600080fd5b6001600160a01b0381160361043b57565b3461043b57604036600319011261043b5761047a60043561047181610440565b602435906114ed565b906040519182916040830190835260209060406020850152825180915260206060850193019160005b8281106104b257505050500390f35b8351855286955093810193928101926001016104a3565b604051906101a082018281106001600160401b038211176101a657604052565b6001600160401b0381116101a65760051b60200190565b9080601f8301121561043b57602090823561051a816104e9565b936105286040519586610235565b81855260208086019260051b82010192831161043b57602001905b828210610551575050505090565b81358152908301908301610543565b9181601f8401121561043b578235916001600160401b03831161043b576020808501948460051b01011161043b57565b3461043b5760408060031936011261043b576004906001600160401b03823581811161043b576105c39036908501610500565b9060243590811161043b576105db9036908501610560565b92909180519360005b8581106105ed57005b6105f781846115a5565b5161060d6106068385896115b9565b369161135b565b610629610624836000526004602052604060002090565b6115fa565b6106ef57610641826000526001602052604060002090565b5480156106df578651602081019061066b8161065d8487611604565b03601f198101835282610235565b519020036106cf57907faeb631726b45aa3f6b09da79f7af03a9784614901f61a967ed84d63c37b7edc76106c6836106b9600196956106b4866000526004602052604060002090565b6116cd565b88519182913390836117a2565b0390a2016105e4565b85516375b5da0b60e01b81528990fd5b8651637ef41a4f60e01b81528a90fd5b8551630388067760e21b81528990fd5b3461043b57602036600319011261043b57602060043561071e81610440565b6040517f000000000000000000000000b2b5841dbef766d4b521221732f9b618fcf34a876001600160a01b039081169216919091148152f35b3461043b57604036600319011261043b5761043761042360043561077a81610440565b60243590611c3c565b3461043b57602036600319011261043b5760043560005260016020526020604060002054604051908152f35b3461043b5760008060031936011261080a576107c96151ea565b80546001600160a01b03198116825581906001600160a01b03167f8be0079c531659141344cd1fd0a4f28419497f9722a3daafe3b4186f6b6457e08280a380f35b80fd5b3461043b57604036600319011261043b57602061083860043561082f81610440565b602435906122b9565b604051908152f35b3461043b57600036600319011261043b576040517f000000000000000000000000b2b5841dbef766d4b521221732f9b618fcf34a876001600160a01b03168152602090f35b3461043b5760208060031936011261043b576004356001600160401b0380821161043b573660238301121561043b57816004013590811161043b57602492366024838501011161043b576108d76151ea565b6108eb826108e660025461013b565b611632565b600093601f831160011461096957505061093e81807f512c3c91736f50c57a0548c1d01ab02f24c420f002b8b20e2bfe63df9693cd3f9560009161095b575b508160011b916000199060031b1c19161790565b6002555b610956604051928392602433920184612317565b0390a1005b60249150850101353861092a565b6002600052601f19831694907f405787fa12a823e0f2b7631cc41b3ba8828b3321ca811111fa75cd3aa3bb5ace9282915b8783106109fa57505050827f512c3c91736f50c57a0548c1d01ab02f24c420f002b8b20e2bfe63df9693cd3f95106109dd575b5050600181811b01600255610942565b830160240135600019600384901b60f8161c1916905538806109cd565b908060018596848396978b01013581550195019301919061099a565b3461043b57600036600319011261043b576000546040516001600160a01b039091168152602090f35b91610a6890610a5a610a7695936060865260608601906103e2565b9084820360208601526103e2565b9160408184039101526103e2565b90565b3461043b57604036600319011261043b57600435610a9681610440565b60405163507f146560e01b815260243591906001600160a01b03906020816004818587165afa8015610b7557610b0d9360009386938593610b7a575b5060405163c44a8e6d60e01b81526001600160a01b039092166004830152602482019390935260006044820152938492839182906064820190565b0392165afa908115610b7557600091610b52575b50610437610b46610b40610100610b388587614bd9565b940151614f7a565b93614d3b565b60405193849384610a3f565b610b6f91503d806000833e610b678183610235565b810190611843565b38610b21565b6117df565b610b9d91935060203d602011610ba4575b610b958183610235565b8101906117ca565b9138610ad2565b503d610b8b565b8015150361043b57565b3461043b57608036600319011261043b57610437610423600435610bd881610440565b604435610be481610bab565b60643591610bf183610bab565b602435906128de565b3461043b57604036600319011261043b576001600160401b0360043581811161043b57610c2b903690600401610500565b9060243590811161043b573660238201121561043b578060040135610c4f816104e9565b91610c5d6040519384610235565b8183526020916024602085019160051b8301019136831161043b57602401905b828210610c9057610c8e8587612a69565b005b81358152908301908301610c7d565b3461043b57604036600319011261043b576020610838600435610cc181610440565b60243590612b0c565b3461043b57608036600319011261043b5760048035610ce881610440565b60243591604435916064356001600160401b03811161043b57610d0e9036908401610560565b93909160018060a01b039081811694604092835191610d476331a9108f60e11b938481528b818060209485938783019190602083019252565b03818d5afa908115610b7557600091611323575b5083610d74610d68615d74565b6001600160a01b031690565b911603611314578a8a88156112e15750508551848152818180610d9e8b8783019190602083019252565b03818d5afa908115610b75576000916112c4575b5083610dbf610d68615d74565b9116036112b557610dd087866122b9565b6112a657855163507f146560e01b8152818184818d5afa8015610b7557610e3760009186938391611289575b50895163c44a8e6d60e01b81526001600160a01b038a16878201908152602081018d9052600060408201529094859384928391606090910190565b0392165afa908115610b755760009161126e575b50511561125f57918493918a9388610e898e610e7a819a60018060a01b03166000526006602052604060002090565b90600052602052604060002090565b5586610eab8a610e7a8960018060a01b03166000526007602052604060002090565b5591909293505b600091610ebd612be0565b5060009182808e5b8210610f3c57505050505050505095610f248186610f1f610f379695610e7a7f6a68946ba06488db8585d7c7637fa954b574035fe15720ea760125ef860172589b9c60018060a01b03166000526005602052604060002090565b612c94565b610f2c615d74565b915194859485612d0d565b0390a3005b87989950610f778f948f8f908a8f9287859b9c9d9e98999a610f5d92612c51565b359687935195869485938493845283019190602083019252565b03915afa908115610b7557600091611242575b5084610f97610d68615d74565b91160361123257610fa8828b612b0c565b6112225787858f8d519283809263507f146560e01b82525afa8015610b7557836000918d8f8d8a91611016978795611203575b505163c44a8e6d60e01b81526001600160a01b0390931690830190815260208101949094526000604085015290948593849291839160600190565b0392165afa908115610b75576000916111ea575b508051156111da5761010001968751600281109081156111cf575b506111bf5783151590816111b3575b506111a357918f9998969492918f9896949286518881146000146110b3575050899695949392918b6110a5600193610e7a85995b516001600160a01b03909c16600090815260086020526040902090565b550191939092949697610ec5565b600891999b9c5080929496939597989a50146000146110ec57505092889795928f9995928f9895908b6110a5600193610e7a8598611088565b979f9d9b9998979a9e9c9a600581979297148015611199575b801561118f575b80611188575b1561112757508f8f51631e550b6f60e11b8152fd5b9d9f9798999b9d9c9e9a9c600a811490811561117d575b5080611176575b61116657928f999896938f989592938b6110a58c9996610e7a600195611088565b8a51635e701b2b60e01b81528890fd5b5085611145565b60099150143861113e565b5087611112565b50600b811461110c565b5060068114611105565b8a51637dc0e82560e11b81528890fd5b90508751111538611054565b8b5163c89badbd60e01b81528990fd5b600d91501138611045565b8b516354c0901d60e11b81528990fd5b6111fd913d8091833e610b678183610235565b3861102a565b61121b9195508d803d10610ba457610b958183610235565b9338610fdb565b8a5163670bdddd60e11b81528890fd5b8a5163812a698960e01b81528890fd5b6112599150863d8811610ba457610b958183610235565b38610f8a565b50845163265ba87960e01b8152fd5b61128391503d806000833e610b678183610235565b38610e4b565b6112a09150853d8711610ba457610b958183610235565b38610dfc565b50845163670bdddd60e11b8152fd5b508451639d17cec760e01b8152fd5b6112db9150823d8411610ba457610b958183610235565b38610db2565b9391600061130983610e7a8a9997959a60018060a01b03166000526006602052604060002090565b559190929350610eb2565b508451632add3f4b60e01b8152fd5b61133a9150823d8411610ba457610b958183610235565b38610d5b565b6001600160401b0381116101a657601f01601f191660200190565b92919261136782611340565b916113756040519384610235565b82948184528183011161043b578281602093846000960137010152565b3461043b57604036600319011261043b576001600160401b0360043581811161043b576113c3903690600401610500565b60249060243583811161043b573660238201121561043b578060040135926113ea846104e9565b936113f86040519586610235565b8085526020956024602087019260051b8501019336851161043b5760248101925b85841061142a57610c8e8888612d50565b833583811161043b5782013660438201121561043b5789916114568392369060448a820135910161135b565b815201930192611419565b3461043b57602036600319011261043b5760043561147e81610440565b6114866151ea565b6001600160a01b0390811680156114d457600080546001600160a01b03198116831782559092167f8be0079c531659141344cd1fd0a4f28419497f9722a3daafe3b4186f6b6457e08380a380f35b604051631e4fbdf760e01b815260006004820152602490fd5b6001600160a01b038116600090815260056020908152604080832085845282528083209051815480825291845282842081840197969392855b81811061156957505050806115446115609260409798990382610235565b6001600160a01b03909616600090815260066020526040902090565b91835252205491565b82548a529884019860019283019201611526565b634e487b7160e01b600052603260045260246000fd5b8051156115a05760200190565b61157d565b80518210156115a05760209160051b010190565b91908110156115a05760051b81013590601e198136030182121561043b5701908135916001600160401b03831161043b57602001823603811361043b579190565b610a76905461013b565b90611617602092828151948592016103bf565b0190565b818110611626575050565b6000815560010161161b565b90601f821161163f575050565b6102959160026000527f405787fa12a823e0f2b7631cc41b3ba8828b3321ca811111fa75cd3aa3bb5ace906020601f840160051c83019310611689575b601f0160051c019061161b565b909150819061167c565b9190601f81116116a257505050565b610295926000526020600020906020601f840160051c8301931061168957601f0160051c019061161b565b91909182516001600160401b0381116101a6576116f4816116ee845461013b565b84611693565b602080601f83116001146117375750819061172893949560009261172c575b50508160011b916000199060031b1c19161790565b9055565b015190503880611713565b90601f1983169561174d85600052602060002090565b926000905b88821061178a57505083600195969710611771575b505050811b019055565b015160001960f88460031b161c19169055388080611767565b80600185968294968601518155019501930190611752565b906117ba6020919493946040845260408401906103e2565b6001600160a01b03909416910152565b9081602091031261043b5751610a7681610440565b6040513d6000823e3d90fd5b519061029582610440565b519061029582610bab565b81601f8201121561043b57805161181781611340565b926118256040519485610235565b8184526020828401011161043b57610a7691602080850191016103bf565b60208183031261043b5780516001600160401b039182821161043b57016101a08184031261043b576118736104c9565b92815184526020820151602085015260408201516040850152606082015160608501526080820151608085015260a082015160a08501526118b660c083016117eb565b60c085015260e082015160e085015261010080830151908501526101206118de8184016117f6565b908501526101406118f08184016117f6565b908501526101606119028184016117f6565b90850152610180928383015190811161043b5761191f9201611801565b9082015290565b604051906119338261018b565b60008252565b60405190611946826101ab565b600e82526d226f7574666974496473223a205b60901b6020830152565b60236102959193929360405194816119858793518092602080870191016103bf565b8201601160f91b60208201526119a58251809360206021850191016103bf565b0161088b60f21b6021820152036003810185520183610235565b906102956022604051846119dd8296518092602080860191016103bf565b810161174b60f21b6020820152036002810185520183610235565b602e610295919392936040519481611a1a8793518092602080870191016103bf565b82016b113bb7b9363224b2111d101160a11b6020820152611a45825180936020602c850191016103bf565b0161088b60f21b602c82015203600e810185520183610235565b90604051918260605160005b818110611aa0575090602061029593611a948294840191838301600081528151948592016103bf565b01038085520183610235565b6020919250806080015182828801015201908491611a6b565b6020610295919392936040519481611ada87935180928680870191016103bf565b8201611a94825180938680850191016103bf565b90610295603960405180947f22776f726e42794e616b656442616e6e794964223a20220000000000000000006020830152611b338151809260206037860191016103bf565b810161088b60f21b6037820152036019810185520183610235565b90610295603960405180947f227573656442794e616b656442616e6e794964223a20220000000000000000006020830152611b338151809260206037860191016103bf565b9060208282031261043b5781516001600160401b03811161043b57610a769201611801565b9081602091031261043b575190565b9081606091031261043b5780519160406020830151920151610a7681610440565b90610295603d60405180947f646174613a6170706c69636174696f6e2f6a736f6e3b6261736536342c0000006020830152611c2c81518092602086860191016103bf565b810103601d810185520183610235565b6040805163507f146560e01b808252602092916001600160a01b03919060049086841686828481845afa8015610b755789600091611cb894839161229c575b50885163c44a8e6d60e01b81526001600160a01b038c1687820190815260208101939093526000604084015294859283918a918391606090910190565b0392165afa918215610b7557600092612281575b5081511561227057611cdc611926565b5061010082018051909490156121e357611cf783518a6130d8565b9889516121ac575b855160010361219157611d22611d1d611d188d846122b9565b612f2a565b611b4e565b965b8a511561205f575050865163043c358d60e11b81529360609285925082905afa908115610b755760009260009261202a575b50611d61818a614bd9565b988151611d6d90614d3b565b948051611d7990614f7a565b91611d8390612f2a565b908351611d8f90612f2a565b9051611d9a90612f2a565b916060850151611da990612f2a565b938b8b870151611db890612f2a565b960151611dc490612f2a565b96611dce90612f2a565b97611dd890612f2a565b988c8c519e8f918201611dea91611604565b039d601f199e8f81018252611dff9082610235565b611e0890615101565b9b51683d913730b6b2911d1160b91b9d81019d8e529e8f9d600901611e2c91611604565b7211161011383937b23ab1ba2730b6b2911d101160691b8152601301611e5191611604565b731116101131b0ba32b3b7b93ca730b6b2911d101160611b8152601401611e7791611604565b6e111610113a37b5b2b724b2111d101160891b8152600f01611e9891611604565b6a111610113ab831911d101160a91b8152600b01611eb591611604565b6f1116101131b0ba32b3b7b93c911d101160811b8152601001611ed791611604565b6d1116101139bab838363c911d101160911b8152600e01611ef791611604565b70111610113932b6b0b4b734b733911d101160791b8152601101611f1a91611604565b6c11161011383934b1b2911d101160991b8152600d01611f3991611604565b6f111610113232b1b4b6b0b639911d101160811b8152601001611f5b91611604565b6f1116101131bab93932b731bc911d101160811b8152601001611f7d91611604565b6201116160ed1b8152600301611f9291611604565b7f226465736372697074696f6e223a2241207069656365206f662074686520426181527f6e6e797665727365222c22696d616765223a22646174613a696d6167652f737660208201526c19cade1b5b0ed8985cd94d8d0b609a1b6040820152604d01611ffd91611604565b61227d60f01b81526002010390810182526120189082610235565b61202190615101565b610a7690611be8565b90925061204f915060603d606011612058575b6120478183610235565b810190611bc7565b50909138611d56565b503d61203d565b935093949097999550600d919698505111600014612182578651636c0360eb60e01b81526000818581895afa8015610b7557899160009161215f575b50965b8489518098819382525afa928315610b75576120f2978996600095612140575b5051630c8df17160e41b81526001600160a01b03909316908301908152602081019490945290958693849291839160400190565b0392165afa918215610b7557610a7693600093612111575b50506148f2565b612131929350803d10612139575b6121298183610235565b810190611bb8565b90388061210a565b503d61211f565b612158919550873d8911610ba457610b958183610235565b93386120be565b61217c91503d806000833e6121748183610235565b810190611b93565b3861209b565b8761218b610256565b9661209e565b6121a66121a1611d188d84612b0c565b611aee565b96611d24565b986121bf9060018751036121c5576147ff565b98611cff565b6121de906121d96121d46131d8565b614739565b611ab9565b6147ff565b6121ed8a8a612749565b986121f88b826114ed565b8098919851612205611939565b906000925b81841061224557505061221d91506119bf565b978061222a575b50611d24565b9761223861223e9299612f2a565b906119f8565b9638612224565b909161226660019161226061225a87866115a5565b51612f2a565b90611963565b930192919061220a565b505050505050505050610a76611926565b61229591923d8091833e610b678183610235565b9038611ccc565b6122b391508a3d8c11610ba457610b958183610235565b38611c7b565b60018060a01b031660009080825260076020526040822083835260205260408220549283159182156122f5575b50506122f0575090565b905090565b90915082526006602052604082208383526020526040822054141538806122e6565b918060609160209396959660408652816040870152838601376000828286010152601f80199101168301019360018060a01b0316910152565b6040519061010082018281106001600160401b038211176101a65760405260dd82527f746820643d224d3138302031343768337633682d337a222f3e3c2f673e00000060e0837f3c6720636c6173733d226f223e3c7061746820643d224d31373720313430763360208201527f6836763131683130762d31316834762d33682d32307a222f3e3c70617468206460408201527f3d224d31353320313430763368377638203368372033762d31316833762d336860608201527f2d32307a222f3e3c2f673e3c6720636c6173733d2277223e3c7061746820643d60808201527f224d3135332031343368377634682d377a222f3e3c7061746820643d224d313560a08201527f372031343768337633682d337a6d32302d3468367634682d367a222f3e3c706160c08201520152565b6040519061248b826101c6565b61023a82527f643d224d3139302031333768347633682d347a222f3e3c2f673e000000000000610240837f3c6720636c6173733d226f223e3c7061746820643d224d31393020313237683360208201527f7633682d337a6d3320313368347633682d347a6d2d3432203068367636682d3660408201527f7a222f3e3c7061746820643d224d3135312031333368337637682d337a6d313060608201527f203068367634682d367a222f3e3c7061746820643d224d31353720313337683160808201527f377636682d31377a6d332031336831347633682d31347a6d31372d313368377660a08201527f3136682d377a222f3e3c7061746820643d224d3138342031333768367636682d60c08201527f367a6d302031306831307636682d31307a222f3e3c7061746820643d224d313860e08201527f37203134336831307634682d31307a222f3e3c7061746820643d224d313930206101008201527f31343068337633682d337a6d2d362d313068337637682d337a222f3e3c7061746101208201527f6820643d224d3138372031333068367633682d367a6d2d3336203068313076336101408201527f682d31307a6d313620313368377637682d377a6d2d3130203068377637682d376101608201527f7a222f3e3c7061746820643d224d3136342031343768337633682d337a6d32396101808201527f2d323068347636682d347a222f3e3c7061746820643d224d31393420313333686101a08201527f337637682d337a222f3e3c2f673e3c6720636c6173733d2277223e3c706174686101c08201527f20643d224d3135342031333368377634682d377a222f3e3c7061746820643d226101e08201527f4d3135342031333768337633682d337a6d3130203668337634682d337a6d32306102008201527f203068337634682d337a6d332d313068377634682d377a222f3e3c70617468206102208201520152565b60405163507f146560e01b81526001600160a01b036020826004818685165afa918215610b75576000926128ba575b5060405163c44a8e6d60e01b81526001600160a01b0384166004820152602481018590526000604482018190529092909183916064918391165afa908115610b75576000916128a1575b5080511561289657606092610100820151612871579261282891600161280f6127ee610a7697876114ed565b94908015158061286a575b612850575b50612809845161522b565b90611ab9565b915103612844576128229061280961247e565b92615654565b8051612835575b506147ff565b61283e91611ab9565b3861282f565b61282290612809612350565b612864915061285f90886130d8565b611a5f565b386127fe565b50836127f9565b5061287e925051906130d8565b805161288d5750610a76611926565b610a76906147ff565b505050610a76611926565b6128b4913d8091833e610b678183610235565b386127c2565b60009192506128d79060203d602011610ba457610b958183610235565b9190612778565b60405163507f146560e01b81529390916001600160a01b036020866004818488165afa958615610b7557600096612a45575b5060405163c44a8e6d60e01b81526001600160a01b0385166004820152602481018390526000604482018190529096909187916064918391165afa948515610b7557600095612a2a575b50845115612a1d57606090610100860151612a0d5761299e610a769692612983600193876114ed565b958115159081612a05575b506129f65750612809845161522b565b9151036129e4576129b19061280961247e565b925b6129bf575b50506147ff565b6129c891615654565b80516129d5575b806129b8565b6129de91611ab9565b386129cf565b6129f090612809612350565b926129b3565b612864915061285f90876130d8565b90503861298e565b505050905061287e9151906130d8565b5050505050610a76611926565b612a3e91953d8091833e610b678183610235565b933861295a565b6000919650612a629060203d602011610ba457610b958183610235565b9590612910565b90612a726151ea565b81519060009260005b838110612a89575050505050565b612a9381836115a5565b51612a9e82856115a5565b5190808752602060018152604080892054612afc5782917fb10eb6fc7557a7109693cb8f3fac48d44328de56c0368ee4cac539b424d2cad99185612af060019897966000526001602052604060002090565b5551338152a301612a7b565b516333ded41b60e21b8152600490fd5b6001600160a01b03811660009081526008602090815260408083208584528252822054919390928215612bd9576001600160a01b03166000908152600560205260409020828552835260408420926040518094859183825491828152019188528388209388905b828210612bbf57505050612b8992500384610235565b825192845b848110612b9d57505050505090565b82612ba882846115a5565b5114612bb657600101612b8e565b50505091505090565b855484526001958601958995509381019390910190612b73565b5050505090565b604051906101a082018281106001600160401b038211176101a657604052606061018083600080825280602083015280604083015280848301528060808301528060a08301528060c08301528060e08301528061010083015280610120830152806101408301526101608201520152565b91908110156115a05760051b0190565b634e487b7160e01b600052601160045260246000fd5b600281901b91906001600160fe1b03811603612c8f57565b612c61565b906001600160401b0383116101a6576801000000000000000083116101a6578154838355808410612cef575b50906000526020806000209060005b848110612cdd575050505050565b83358382015592810192600101612ccf565b612d079083600052846020600020918201910161161b565b38612cc0565b9081526060602082018190528101839052929392916001600160fb1b03811161043b5760409160809160051b8091838601378301019360018060a01b0316910152565b9190612d5a6151ea565b82516000935b818510612d6e575050509050565b612d7885826115a5565b5194612d8481856115a5565b51958060005260039660209780895260409081600020908351906001600160401b0382116101a657612dc082612dba855461013b565b85611693565b8b601f8311600114612e43575050917f9dedd219289ed514faff576c477c66bd097aef59a236e3b8ebcf0d0070cb4e969391612e1c84612e2b9560019a9b9c9d9e600091612e3857508160011b916000199060031b1c19161790565b90555b519182913390836117a2565b0390a20193929190612d60565b90508501513861092a565b909b601f198316612e5985600052602060002090565b926000905b828210612ec8575050916001999a9b9c9d8492612e2b97957f9dedd219289ed514faff576c477c66bd097aef59a236e3b8ebcf0d0070cb4e9699979510612eae575b505050881b88019055612e1f565b8601519060f884600019921b161c19169055388080612ea0565b80600185968294968c01518155019501930190612e5e565b604051612eec8161018b565b60008152906000368137565b90612f0282611340565b612f0f6040519182610235565b8281528092612f20601f1991611340565b0190602036910137565b806000917a184f03e93ff9f4daa797ed6e38ed64bf6a1f0100000000000000008082101561305f575b506d04ee2d6d415b85acef810000000080831015613050575b50662386f26fc1000080831015613041575b506305f5e10080831015613032575b5061271080831015613023575b506064821015613013575b600a80921015613009575b600190816021612fc260018701612ef8565b95860101905b612fd3575050505090565b600019019083906f181899199a1a9b1b9c1cb0b131b232b360811b8282061a83530491821561300457919082612fc8565b612bd9565b9160010191612fb0565b9190606460029104910191612fa5565b60049193920491019138612f9a565b60089193920491019138612f8d565b60109193920491019138612f7e565b60209193920491019138612f6c565b604093508104915038612f53565b90610295604960405180946c1e34b6b0b3b290343932b31e9160991b60208301526130a2815180926020602d860191016103bf565b81017f222077696474683d2234303022206865696768743d22343030222f3e00000000602d820152036029810185520183610235565b6130f46130ef836000526004602052604060002090565b61031c565b80516131d2575060405163507f146560e01b81526001600160a01b039260209283836004818489165afa908115610b75576131679585946000936131b3575b50604051632f54648f60e21b81526001600160a01b0390921660048301526024820193909352948592839182906044820190565b0392165afa8015610b7557610a769261319192600092613196575b505061318c610256565b6148f2565b61306d565b6131ac9250803d10612139576121298183610235565b3880613182565b6131cb919350853d8711610ba457610b958183610235565b9138613133565b91505090565b604051906131e5826101e2565b61117a82527f762d31306833762d376833762d33682d31307a222f3e3c2f673e000000000000611180837f3c6720636c6173733d226131223e3c7061746820643d224d313733203533683460208201527f763137682d347a222f3e3c2f673e3c6720636c6173733d226132223e3c70617460408201527f6820643d224d3136372035376833763130682d337a222f3e3c7061746820643d60608201527f224d3136392035336834763137682d347a222f3e3c2f673e3c6720636c61737360808201527f3d226133223e3c7061746820643d224d31363720353368337634682d337a222f60a08201527f3e3c7061746820643d224d3136332035376834763130682d347a222f3e3c706160c08201527f746820643d224d31363720363768337633682d337a222f3e3c2f673e3c67206360e08201527f6c6173733d226231223e3c7061746820643d224d32313320323533682d33762d6101008201527f332d33682d33762d372d33682d34762d3130682d33762d372d372d33682d33766101208201527f2d3733682d34762d3130682d33762d3130682d33762d37682d34762d37682d336101408201527f762d33682d33762d33682d3476313068347631306833763130683376336834766101608201527f37203320373020336833763768337632306834763768337633683376336834766101808201527f34683376336833762d332d347a222f3e3c7061746820643d224d3235332033306101a08201527f37762d34682d33762d33682d33762d33682d34762d34682d33762d33682d33766101c08201527f2d33682d34762d34682d33762d33682d33762d33682d34762d34682d33762d366101e08201527f682d33762d37682d3476313768347633683376336833203476346833763368336102008201527f76336834763468337633683376336834763468337633683376336834762d36686102208201527f2d347a222f3e3c2f673e3c6720636c6173733d226232223e3c7061746820643d6102408201527f224d32353020333130762d33682d33762d34682d34762d33682d33762d33682d6102608201527f33762d34682d34762d33682d33762d33682d33762d34682d37762d33682d33766102808201527f2d33682d34762d3137682d33762d33682d33762d34682d34762d33682d33762d6102a08201527f33682d33762d37682d34762d3230682d33762d37682d33762d37332d332d37686102c08201527f2d34762d33682d33762d3130682d33762d3130682d34563730682d33762d336c6102e08201527f2d332031303020332d313030763430682d33763130682d347636682d337631346103008201527f682d337633203133682d347634346834763136683376313468337631336834766103208201527f31306833763768337633683476336833763468337633683476336833763468336103408201527f76336834763368337637683776376836763368377633683776346831337633686103608201527f337633683130762d33682d337a6d2d3130332d3837762d31366833762d3130686103808201527f2d337636682d34763137682d337631306833762d3768347a222f3e3c706174686103a08201527f20643d224d3134332032333068347637682d347a6d3420313068337633682d336103c08201527f7a6d33203768337633682d337a6d33203668347634682d347a222f3e3c7061746103e08201527f6820643d224d31363320323537682d36763368337633683376346834762d342d6104008201527f33682d34762d337a222f3e3c2f673e3c6720636c6173733d226233223e3c70616104208201527f746820643d224d3134332031393776366834762d366836762d34346834762d316104408201527f366833762d31346833762d366834762d31306833563937682d377636682d33766104608201527f34682d337633682d347633682d3376342033682d3376332034682d34763130686104808201527f2d337631362034682d337634366833762d3668337a222f3e3c7061746820643d6104a08201527f224d313430203230336833763137682d337a222f3e3c7061746820643d224d316104c08201527f3337203232306833763130682d337a222f3e3c7061746820643d224d313533206104e08201527f323530682d33762d37682d33762d36682d34762d37682d3376313068337637686105008201527f347636683376346833762d377a6d2d3320313068337637682d337a222f3e3c706105208201527f61746820643d224d3134372032353768337633682d337a6d36203068347633686105408201527f2d347a222f3e3c7061746820643d224d31363020323633762d33682d337633206105608201527f376836762d37682d337a6d2d31302d3536763136682d337637683376313068336105808201527f763768347636683676346837762d342d33682d33762d3130682d34762d3133686105a08201527f2d33762d3134682d33762d3136682d34763130682d337a222f3e3c70617468206105c08201527f643d224d32343320333133762d33682d33762d33682d31302d33762d34682d376105e08201527f762d33682d37762d33682d36762d37682d37762d37682d33762d33682d34762d6106008201527f33682d33762d34682d33762d33682d34762d33682d33762d34682d33762d33686106208201527f2d34762d33682d33763130682d337633682d347633682d3376376833763768346106408201527f76366833763568347633683676336833763368342033763368332034763368336106608201527f20337634683130763368372037203376336831302033762d33683130762d33686106808201527f34762d34682d31347a222f3e3c2f673e3c6720636c6173733d226234223e3c706106a08201527f61746820643d224d3138332031333068347637682d347a222f3e3c70617468206106c08201527f643d224d3138302031323768337633682d337a6d2d32372d3468347637682d346106e08201527f7a222f3e3c7061746820643d224d3135372031313768337636682d337a222f3e6107008201527f3c7061746820643d224d3136302031313068337637682d337a222f3e3c7061746107208201527f6820643d224d3136332031303768347633682d347a6d2d3320383368337637686107408201527f2d337a222f3e3c7061746820643d224d3136332031383768347633682d347a6d6107608201527f3230203068377633682d377a222f3e3c7061746820643d224d313830203139306107808201527f68337633682d337a6d31302d3768337634682d337a222f3e3c7061746820643d6107a08201527f224d3139332031383768347636682d347a6d2d323020353368347637682d347a6107c08201527f222f3e3c7061746820643d224d3137372032343768337636682d337a222f3e3c6107e08201527f7061746820643d224d3138302032353368337637682d337a222f3e3c706174686108008201527f20643d224d3138332032363068377633682d377a222f3e3c7061746820643d226108208201527f4d3139302032363368337634682d337a6d302d323068337634682d337a222f3e6108408201527f3c7061746820643d224d3138372032343068337633682d337a222f3e3c7061746108608201527f6820643d224d3139302032333768337633682d337a6d313320323368347633686108808201527f2d347a222f3e3c7061746820643d224d3230372032363368337637682d337a226108a08201527f2f3e3c7061746820643d224d3231302032373068337633682d337a6d2d3130206108c08201527f3768337636682d337a222f3e3c7061746820643d224d323033203238336834766108e08201527f37682d347a222f3e3c7061746820643d224d3230372032393068367633682d366109008201527f7a222f3e3c2f673e3c6720636c6173733d226f223e3c7061746820643d224d316109208201527f3333203135376834763530682d347a6d302036336834763130682d347a6d32376109408201527f2d3136336833763130682d337a222f3e3c7061746820643d224d3136332035336109608201527f68347634682d347a222f3e3c7061746820643d224d31363720353068313076336109808201527f682d31307a222f3e3c7061746820643d224d3137372035336833763137682d336109a08201527f7a222f3e3c7061746820643d224d3137332037306834763237682d347a6d2d366109c08201527f20306833763237682d337a222f3e3c7061746820643d224d31363320363768346109e08201527f7633682d347a6d3020333068347633682d347a222f3e3c7061746820643d224d610a008201527f3136302031303068337633682d337a222f3e3c7061746820643d224d31353720610a208201527f31303368337634682d337a222f3e3c7061746820643d224d3135332031303768610a408201527f347633682d347a222f3e3c7061746820643d224d313530203131306833763368610a608201527f2d337a222f3e3c7061746820643d224d3134372031313368337637682d337a22610a808201527f2f3e3c7061746820643d224d3134332031323068347637682d347a222f3e3c70610aa08201527f61746820643d224d313430203132376833763130682d337a222f3e3c70617468610ac08201527f20643d224d313337203133376833763230682d337a6d35362d31306834763130610ae08201527f682d347a222f3e3c7061746820643d224d313930203131376833763130682d33610b008201527f7a222f3e3c7061746820643d224d3138372031313068337637682d337a222f3e610b208201527f3c7061746820643d224d3138332031303368347637682d347a222f3e3c706174610b408201527f6820643d224d3138302031303068337633682d337a222f3e3c7061746820643d610b608201527f224d31373720393768337633682d337a6d2d3430203130366833763137682d33610b808201527f7a6d302032376833763130682d337a6d313020333068337637682d337a222f3e610ba08201527f3c7061746820643d224d31353020323537762d34682d33762d36682d34762d37610bc08201527f682d3376313068337631306834762d3368337a222f3e3c7061746820643d224d610be08201527f3135302032353768337633682d337a222f3e3c7061746820643d224d31363320610c008201527f323733762d33682d36762d3130682d347637682d337633683376336834763768610c208201527f33762d3768337a222f3e3c7061746820643d224d313633203236376834763368610c408201527f2d347a222f3e3c7061746820643d224d31373020323537682d332d3476336834610c608201527f76376833762d31307a222f3e3c7061746820643d224d31353720323533683676610c808201527f34682d367a222f3e3c7061746820643d224d3135332032343768347636682d34610ca08201527f7a222f3e3c7061746820643d224d3135302032343068337637682d337a222f3e610cc08201527f3c7061746820643d224d313437203233306833763130682d337a6d3133203530610ce08201527f68337637682d337a222f3e3c7061746820643d224d3134332032323368347637610d008201527f682d347a222f3e3c7061746820643d224d313437203230376833763136682d33610d208201527f7a222f3e3c7061746820643d224d313530203139376833763130682d337a6d2d610d408201527f3130203068337636682d337a6d35302031313368377633682d377a6d32332031610d608201527f306831377633682d31377a222f3e3c7061746820643d224d3233302033323368610d808201527f31337634682d31337a222f3e3c7061746820643d224d32343320333230683130610da08201527f7633682d31307a222f3e3c7061746820643d224d323533203331376834763368610dc08201527f2d347a222f3e3c7061746820643d224d323537203330376833763130682d337a610de08201527f222f3e3c7061746820643d224d3235332033303368347634682d347a222f3e3c610e008201527f7061746820643d224d3235302033303068337633682d337a222f3e3c70617468610e208201527f20643d224d3234372032393768337633682d337a222f3e3c7061746820643d22610e408201527f4d3234332032393368347634682d347a222f3e3c7061746820643d224d323430610e608201527f2032393068337633682d337a222f3e3c7061746820643d224d32333720323837610e808201527f68337633682d337a222f3e3c7061746820643d224d3233332032383368347634610ea08201527f682d347a222f3e3c7061746820643d224d3233302032383068337633682d337a610ec08201527f222f3e3c7061746820643d224d3232372032373768337633682d337a222f3e3c610ee08201527f7061746820643d224d3232332032373368347634682d347a222f3e3c70617468610f008201527f20643d224d3232302032363768337636682d337a222f3e3c7061746820643d22610f208201527f4d3231372032363068337637682d337a222f3e3c7061746820643d224d323133610f408201527f2032353368347637682d347a222f3e3c7061746820643d224d32313020323437610f608201527f68337636682d337a222f3e3c7061746820643d224d3230372032333768337631610f808201527f30682d337a222f3e3c7061746820643d224d323033203232376834763130682d610fa08201527f347a6d2d343020363068347636682d347a6d323420323068337633682d337a22610fc08201527f2f3e3c7061746820643d224d3136372032393368337635682d337a6d31362031610fe08201527f3468347633682d347a222f3e3c7061746820643d224d313730203239386834766110008201527f33682d347a6d3130203668337633682d337a222f3e3c7061746820643d224d316110208201527f37342033303168367633682d367a6d323320313268367634682d367a222f3e3c6110408201527f7061746820643d224d323033203331376831307633682d31307a6d2d322d31306110608201527f37762d3733682d3476373368337631376833762d3137682d327a222f3e3c2f676110808201527f3e3c6720636c6173733d226f223e3c7061746820643d224d31383720333037766110a08201527f2d346833762d36682d33762d34682d34762d33682d33762d33682d37762d34686110c08201527f2d367634682d3476336834763237682d34763133682d33763130682d347637686110e08201527f3476336833203130203134762d33682d34762d34682d33762d33682d33762d336111008201527f682d34762d376834762d31306833762d376833762d336837762d33682d337a6d6111208201527f3136203130762d34682d36763137682d34763130682d337637683376336834206111408201527f3620342033203134762d33682d34762d34682d37762d33682d33762d33682d336111608201520152565b90610295609a60405180947f3c7374796c653e2e6f7b66696c6c3a233830383038303b7d2e62327b66696c6c60208301527f3a6e6f6e653b7d2e62337b66696c6c3a6e6f6e653b7d2e62347b66696c6c3a6e60408301527f6f6e653b7d2e61317b66696c6c3a6e6f6e653b7d2e61327b66696c6c3a6e6f6e60608301527f653b7d2e61337b66696c6c3a6e6f6e653b7d3c2f7374796c653e00000000000060808301526147ef81518092602086860191016103bf565b810103607a810185520183610235565b9061029560ba60405180947f3c7376672077696474683d2234303022206865696768743d223430302220766960208301527f6577426f783d223020302034303020343030222066696c6c3d226e6f6e65222060408301527f786d6c6e733d22687474703a2f2f7777772e77332e6f72672f323030302f737660608301527f67223e3c7374796c653e2e6f7b66696c6c3a233035303530353b7d2e777b666960808301527336361d11b31cb31cb31c9dbe9e17b9ba3cb6329f60611b60a08301526148d381518092602060b4860191016103bf565b8101651e17b9bb339f60d11b60b482015203609a810185520183610235565b90610a7690614920604051602092609160f51b8483015260228201526022815261491b816101fe565b6158d7565b92604051938161493986935180928680870191016103bf565b820161494d825180938680850191016103bf565b01038084520182610235565b906102956021604051846149778296518092602080860191016103bf565b8101600160fd1b6020820152036001810185520183610235565b610295916149e79493602b926040519687936020926149b88151809286808a0191016103bf565b85016149cc825180938680850191016103bf565b0191602f60f81b8184015283519384916021850191016103bf565b01692072656d61696e696e6760b01b602182015203600b810185520183610235565b6037906102959294936040519582614a2b8894518092602080880191016103bf565b83016b0101429a7a6221027aaaa14960a51b6020820152614a56825180936020602c850191016103bf565b01602f60f81b602c820152614a75825180936020602d850191016103bf565b01692072656d61696e696e6760b01b602d820152036017810185520183610235565b61029591614aec9493602192604051968793602092614abe8151809286808a0191016103bf565b8501614ad2825180938680850191016103bf565b0191602f60f81b81840152835193849187850191016103bf565b01036001810185520183610235565b90610295602360405184614b198296518092602080860191016103bf565b8101620101d160ed1b6020820152036003810185520183610235565b6021610295919392936040519481614b578793518092602080870191016103bf565b8201614b6c82518093602080850191016103bf565b01600160fd1b6020820152036001810185520183610235565b6025610295919392936040519481614ba78793518092602080870191016103bf565b820164555043202360d81b6020820152614bca82518093602087850191016103bf565b01036005810185520183610235565b90614c25610a7692633b9aca00614bf8614bf38551614d3b565b614959565b91068015614c615790614c0d614c2092612f2a565b614c1a6060860151612f2a565b91614a97565b614afb565b90614c34610100820151614f7a565b8051614c4c575b50614c469051612f2a565b90614b85565b614c5a90614c469293614b35565b9190614c3b565b50604083019081518015600014614c935750614c80614c209251612f2a565b614c8d6060860151612f2a565b91614a09565b614c209250614ca190612f2a565b614cae6060860151612f2a565b91614991565b60405190614cc1826101ab565b600882526713dc9a59da5b985b60c21b6020830152565b60405190614ce5826101ab565b60068252654f72616e676560d01b6020830152565b60405190614d07826101ab565b600482526350696e6b60e01b6020830152565b60405190614d27826101ab565b600582526420b634b2b760d91b6020830152565b60018103614d4c5750610a76614d1a565b60028103614d5d5750610a76614cfa565b60038103614d6e5750610a76614cd8565b60048103614d7f5750610a76614cb4565b6000526003602052610a76604060002061031c565b60405190614da1826101ab565b6007825266546f7070696e6760c81b6020830152565b60405190614dc4826101ab565b6004825263119a5cdd60e21b6020830152565b60405190614de4826101ab565b600b82526a5375697420626f74746f6d60a81b6020830152565b60405190614e0b826101ab565b600882526705375697420746f760c41b6020830152565b60405190614e2f826101ab565b600482526314dd5a5d60e21b6020830152565b60405190614e4f826101ab565b60048252631219585960e21b6020830152565b60405190614e6f826101ab565b600882526704865616420746f760c41b6020830152565b60405190614e93826101ab565b600582526409adeeae8d60db1b6020830152565b60405190614eb4826101ab565b6007825266476c617373657360c81b6020830152565b60405190614ed7826101ab565b60088252674e65636b6c61636560c01b6020830152565b60405190614efb826101ab565b60048252634c65677360e01b6020830152565b60405190614f1b826101ab565b60088252674261636b7369646560c01b6020830152565b60405190614f3f826101ab565b600582526415dbdc9b1960da1b6020830152565b60405190614f60826101ab565b600b82526a4e616b65642042616e6e7960a81b6020830152565b80614f885750610a76614f53565b60018103614f995750610a76614f32565b60028103614faa5750610a76614f0e565b60078103614fbb5750610a76614eee565b60038103614fcc5750610a76614eca565b60058103614fdd5750610a76614ea7565b60068103614fee5750610a76614e86565b600b8103614fff5750610a76614e62565b600481036150105750610a76614e42565b600881036150215750610a76614e22565b600a81036150325750610a76614dfe565b600981036150435750610a76614dd7565b600c81036150545750610a76614db7565b600d1461506357610a76611926565b610a76614d94565b60405190615078826101fe565b604082527f6768696a6b6c6d6e6f707172737475767778797a303132333435363738392b2f6040837f4142434445464748494a4b4c4d4e4f505152535455565758595a61626364656660208201520152565b9060028201809211612c8f57565b9060208201809211612c8f57565b9060018201809211612c8f57565b91908201809211612c8f57565b8051156151e15761511061506b565b61512c61512761512084516150ca565b6003900490565b612c77565b9161513e615139846150d8565b612ef8565b92835280815182019060208501935b82821061518f5750505060039051068060011461517e5760021461516f575090565b603d60f81b6000199091015290565b50613d3d60f01b6001199091015290565b9091936004906003809401938451600190603f9082828260121c16880101518553828282600c1c16880101518386015382828260061c168801015160028601531685010151908201530193919061514d565b50610a76611926565b6000546001600160a01b0390811681615201615d74565b160361520a5750565b602490615215615d74565b60405163118cdaa760e01b815291166004820152fd5b61523490615c48565b926152439695969291926131d8565b9460405197889760208901703c7374796c653e2e62317b66696c6c3a2360781b90528051908160318b01916020019161527b926103bf565b8801603181016b3b7d2e62327b66696c6c3a2360a01b905281519182603d830191602001916152a9926103bf565b01603d81016b3b7d2e62337b66696c6c3a2360a01b9052815191826049830191602001916152d6926103bf565b01604981016152f3906b3b7d2e62347b66696c6c3a2360a01b9052565b6055016152ff91611604565b6b3b7d2e61317b66696c6c3a2360a01b8152600c0161531d91611604565b6b3b7d2e61327b66696c6c3a2360a01b8152600c0161533b91611604565b6b3b7d2e61337b66696c6c3a2360a01b8152600c0161535991611604565b691dbe9e17b9ba3cb6329f60b11b8152600a0161537591611604565b03601f1981018252610a769082610235565b6040519061539482610219565b61019c82527f6820643d224d3139332031373068347633682d347a222f3e3c2f673e000000006101a0837f3c6720636c6173733d226f223e3c7061746820643d224d31393020313733682d60208201527f3337762d33682d3130762d34682d36763468337633682d33763468367633683160408201527f307634683337762d346833762d33682d33762d347a6d2d34302034682d33762d60608201527f34683376347a6d372033762d3368337633682d337a6d362030762d336834763360808201527f682d347a6d372030762d3368337633682d337a6d372030762d3368337633682d60a08201527f337a6d31302030682d34762d33683476337a222f3e3c7061746820643d224d3160c08201527f39302031373068337633682d337a222f3e3c7061746820643d224d313933203160e08201527f363668347634682d347a6d30203768347634682d347a222f3e3c2f673e3c67206101008201527f636c6173733d2277223e3c7061746820643d224d3133372031373068337633686101208201527f2d337a6d3130203368337634682d337a6d3130203468337633682d337a6d36206101408201527f3068347633682d347a6d37203068337633682d337a6d37203068337633682d336101608201527f7a6d36203068347633682d347a6d372d3468337634682d337a222f3e3c7061746101808201520152565b6040519060c082018281106001600160401b038211176101a65760405260818252601f60f91b60a0837f3c6720636c6173733d226f223e3c7061746820643d224d31383320313630762d60208201527f34682d32307634682d33763368337634683234762d37682d347a6d2d3133203360408201527f762d336831307633682d31307a222066696c6c3d2223616437316338222f3e3c60608201527f7061746820643d224d313730203136306831307633682d31307a222f3e3c2f6760808201520152565b91906060928151600091828394879361566c816150e6565b955b86811061567f575050505050505050565b818110156158665761569181846115a5565b516040805163507f146560e01b8152600491906001600160a01b036020808386818e86165afa918215610b755761570c9560009588958e948896615847575b50505163c44a8e6d60e01b81526001600160a01b0390931690830190815260208101949094526000604085015290948593849291839160600190565b0392165afa8015610b75576101009160009161582e575b500151965b6003888114969087156157fc5750505060019461574582886130d8565b995b60068981036157c5575050600a6001985b11806157bb575b6157a1575b8115159081615798575b50615780575b5060010196949661566e565b6001919a61280961579192886130d8565b9990615774565b9050153861576e565b986157ac919b611ab9565b996157b5611926565b98615764565b508951151561575f565b89919911806157f4575b6157dc575b600a90615758565b97509a6157eb9061280961558f565b9a6001976157d4565b5088156157cf565b899b9197929b1180615826575b156157475795509a61581d90612809615387565b9a600195615747565b508615615809565b615841913d8091833e610b678183610235565b38615723565b61585e929650803d10610ba457610b958183610235565b9338806156d0565b600e95600090615728565b604051906105e082018281106001600160401b038211176101a657604052602e82526105c0366020840137565b906158a8826104e9565b6158b56040519182610235565b8281528092612f20601f19916104e9565b9081518110156115a0570160200190565b908151156159fe576158e7615871565b9160009060006158f685611593565b526001918151916000925b808410615927575050505061591d61592291610a769394615dcd565b615e10565b615e57565b9091929461595861595261594c61593e89876158c6565b516001600160f81b03191690565b60f81c90565b60ff1690565b9184925b60ff90898289168610156159bd576001929161599161598b6159526159848a615997966115a5565b5160ff1690565b60081b90565b906150f4565b6159b48b6159ac88603a9586860616926115a5565b9060ff169052565b0493019261595c565b50919594935050809691965b6159d7575060010192615901565b9460ff6001603a926159f483858b06166159ac8d868516906115a5565b01169504806159c9565b9050610a76612ee0565b60405190615a15826101ab565b600682526506666653930360d41b6020830152565b60405190615a37826101ab565b600682526506666633730360d41b6020830152565b60405190615a59826101ab565b600682526566336136303360d01b6020830152565b60405190615a7b826101ab565b600682526539363561316160d01b6020830152565b60405190615a9d826101ab565b600682526533331bb1981960d11b6020830152565b60405190615abf826101ab565b600682526506664333630360d41b6020830152565b60405190615ae1826101ab565b600682526518cccc994c1960d21b6020830152565b60405190615b03826101ab565b600682526566666438633560d01b6020830152565b60405190615b25826101ab565b600682526566663936613960d01b6020830152565b60405190615b47826101ab565b600682526533329a9c1c3160d11b6020830152565b60405190615b69826101ab565b600682526563393266343560d01b6020830152565b60405190615b8b826101ab565b600682526536376437353760d01b6020830152565b60405190615bad826101ab565b600682526503330613232360d41b6020830152565b60405190615bcf826101ab565b600682526532313761313560d01b6020830152565b60405190615bf1826101ab565b60048252636e6f6e6560e01b6020830152565b60405190615c11826101ab565b6006825265329a1c19b2b360d11b6020830152565b60405190615c33826101ab565b60068252653231993332b360d11b6020830152565b60018103615c8f5750615c59615b7e565b90615c62615ba0565b90615c6b615bc2565b90615c74615be4565b90615c7d615c04565b90615c86615c26565b90610a76615c26565b60028103615cd65750615ca0615af6565b90615ca9615b18565b90615cb2615b3a565b90615cbb615b5c565b90615cc4615af6565b90615ccd615b18565b90610a76615b3a565b60038103615d1d5750615ce7615a4c565b90615cf0615a90565b90615cf9615ab2565b90615d02615ad4565b90615d0b615a4c565b90615d14615a90565b90610a76615ab2565b600414615d3657604051633b9cb79b60e21b8152600490fd5b615d3e615a08565b90615d47615a2a565b90615d50615a4c565b90615d59615a6e565b90615d62615a08565b90615d6b615a2a565b90610a76615a4c565b337f000000000000000000000000b2b5841dbef766d4b521221732f9b618fcf34a876001600160a01b03161480615dc2575b15615dbe576013193601368111612c8f573560601c90565b3390565b506014361015615da6565b9060ff80911690615ddd8261589e565b9260005b838110615def575050505090565b8083615dfd600193856115a5565b5116615e0982886115a5565b5201615de1565b908151615e1c8161589e565b9060005b818110615e2e575090925050565b60019060ff615e446000198389510301886115a5565b5116615e5082866115a5565b5201615e20565b8051615e6281611340565b91604090615e736040519485610235565b828452615e7f83611340565b602090601f1901368683013760009260005b858110615ea15750505050505090565b6001908251615eaf816101fe565b603a81527f31323334353637383941424344454647484a4b4c4d4e50515253545556575859858201527f5a6162636465666768696a6b6d6e6f707172737475767778797a000000000000848201526001600160f81b031990615f1f9060ff615f17858a6115a5565b5116906158c6565b5116861a615f2d828a6158c6565b5301615e9156fea264697066735822122068a504ed88265ec22f85fecdcf49db863ea0fb8e8b0f7d5d26815d7ac23903de64736f6c63430008170033",
	"devdoc": {
		"kind": "dev",
		"methods": {
			"assetIdsOf(address,uint256)": {
				"custom:param": "hook The hook address of the collection.",
				"params": {
					"nakedBannyId": "The ID of the naked banny shows with the associated assets."
				},
				"returns": {
					"outfitIds": "The outfits attached to the Naked Banny.",
					"worldId": "The world attached to the Naked Banny."
				}
			},
			"constructor": {
				"params": {
					"owner": "The owner allowed to add SVG files that correspond to product IDs.",
					"trustedForwarder": "The trusted forwarder for the ERC2771Context."
				}
			},
			"decorateBannyWith(address,uint256,uint256,uint256[])": {
				"details": "The caller must own the naked banny being dressed and all outfits being worn.",
				"params": {
					"hook": "The hook storing the assets.",
					"nakedBannyId": "The ID of the Naked Banny being dressed.",
					"outfitIds": "The IDs of the outfits that'll be associated with the specified banny. Only one outfit per outfit category allowed at a time and they must be passed in order.",
					"worldId": "The ID of the world that'll be associated with the specified banny."
				}
			},
			"isTrustedForwarder(address)": {
				"details": "Indicates whether any particular address is the trusted forwarder."
			},
			"namesOf(address,uint256)": {
				"params": {
					"hook": "The hook storing the assets.",
					"tokenId": "The ID of the token to show."
				},
				"returns": {
					"_0": "fullName The full name of the token.",
					"_1": "categoryName The name of the token's category.",
					"_2": "productName The name of the token's product."
				}
			},
			"owner()": {
				"details": "Returns the address of the current owner."
			},
			"renounceOwnership()": {
				"details": "Leaves the contract without owner. It will not be possible to call `onlyOwner` functions. Can only be called by the current owner. NOTE: Renouncing ownership will leave the contract without an owner, thereby disabling any functionality that is only available to the owner."
			},
			"setProductNames(uint256[],string[])": {
				"params": {
					"names": "The names of the products.",
					"upcs": "The universal product codes of the products having their name stored."
				}
			},
			"setSvgContentsOf(uint256[],string[])": {
				"params": {
					"svgContents": "The svg contents being stored, not including the parent <svg></svg> element.",
					"upcs": "The universal product codes of the products having SVGs stored."
				}
			},
			"setSvgHashsOf(uint256[],bytes32[])": {
				"details": "This allows anyone to lazily upload the correct svg file.",
				"params": {
					"svgHashs": "The svg hashes being stored, not including the parent <svg></svg> element.",
					"upcs": "The universal product codes of the products having SVG hashes stored."
				}
			},
			"svgOf(address,uint256,bool,bool)": {
				"params": {
					"hook": "The hook storing the assets.",
					"shouldDressNakedBanny": "Whether the naked banny should be dressed.",
					"shouldIncludeWorldOnNakedBanny": "Whether the world should be included on the naked banny.",
					"tokenId": "The ID of the token to show. If the ID belongs to a Naked Banny, it will be shown with its current outfits in its current world if specified."
				},
				"returns": {
					"_0": "svg The SVG."
				}
			},
			"tokenUriOf(address,uint256)": {
				"params": {
					"tokenId": "The ID of the token to show. If the ID belongs to a Naked Banny, it will be shown with its current outfits in its current world."
				},
				"returns": {
					"_0": "tokenUri The URI representing the SVG."
				}
			},
			"transferOwnership(address)": {
				"details": "Transfers ownership of the contract to a new account (`newOwner`). Can only be called by the current owner."
			},
			"trustedForwarder()": {
				"details": "Returns the address of the trusted forwarder."
			},
			"userOf(address,uint256)": {
				"custom:param": "hook The hook address of the collection.",
				"params": {
					"worldId": "The ID of the world being used."
				},
				"returns": {
					"_0": "The ID of the naked banny using the world."
				}
			},
			"wearerOf(address,uint256)": {
				"custom:param": "hook The hook address of the collection.",
				"params": {
					"outfitId": "The ID of the outfit being worn."
				},
				"returns": {
					"_0": "The ID of the naked banny wearing the outfit."
				}
			}
		},
		"version": 1
	},
	"userdoc": {
		"kind": "user",
		"methods": {
			"assetIdsOf(address,uint256)": {
				"notice": "The assets currently attached to each Naked Banny, owned by the naked Banny's owner."
			},
			"decorateBannyWith(address,uint256,uint256,uint256[])": {
				"notice": "Dress your Naked Banny with outfits."
			},
			"namesOf(address,uint256)": {
				"notice": "Returns the name of the token."
			},
			"setProductNames(uint256[],string[])": {
				"notice": "Allows the owner to set the product's name."
			},
			"setSvgBaseUri(string)": {
				"notice": "Allows the owner of this contract to specify the base of the domain hosting the SVG files."
			},
			"setSvgContentsOf(uint256[],string[])": {
				"notice": "The owner of this contract can store SVG files for product IDs."
			},
			"setSvgHashsOf(uint256[],bytes32[])": {
				"notice": "Allows the owner of this contract to upload the hash of an svg file for a universal product code."
			},
			"svgBaseUri()": {
				"notice": "The base of the domain hosting the SVG files that can be lazily uploaded to the contract."
			},
			"svgHashOf(uint256)": {
				"notice": "The Naked Banny and outfit SVG hash files."
			},
			"svgOf(address,uint256,bool,bool)": {
				"notice": "Returns the SVG showing either a naked banny with/without outfits and a world, or the stand alone outfit or world."
			},
			"tokenUriOf(address,uint256)": {
				"notice": "Returns the SVG showing a dressed Naked Banny in a world."
			},
			"userOf(address,uint256)": {
				"notice": "Checks to see which naked banny is currently using a particular world."
			},
			"wearerOf(address,uint256)": {
				"notice": "Checks to see which naked banny is currently wearing a particular outfit."
			}
		},
		"version": 1
	},
	"gitCommit": "096bd227008bc73a7b5f8707e01121bd1e7eb495",
	"sourceName": "src/Banny721TokenUriResolver.sol",
	"chainId": "11155420",
	"linkReferences": {},
	"deployedLinkReferences": {},
	"history": [
		{
			"_format": "sphinx-sol-ct-artifact-1",
			"merkleRoot": "0xfb3de635310e8ba46c7102090d8c3678ad962a479cd3749714588d79bee1ad8e",
			"contractName": "Banny721TokenUriResolver",
			"address": "0x027c353C0164EE238ea36Ec92b0d9CD340a815B1",
			"abi": [
				{
					"type": "constructor",
					"inputs": [
						{
							"name": "owner",
							"type": "address",
							"internalType": "address"
						},
						{
							"name": "trustedForwarder",
							"type": "address",
							"internalType": "address"
						}
					],
					"stateMutability": "nonpayable"
				},
				{
					"type": "function",
					"name": "assetIdsOf",
					"inputs": [
						{
							"name": "hook",
							"type": "address",
							"internalType": "address"
						},
						{
							"name": "nakedBannyId",
							"type": "uint256",
							"internalType": "uint256"
						}
					],
					"outputs": [
						{
							"name": "worldId",
							"type": "uint256",
							"internalType": "uint256"
						},
						{
							"name": "outfitIds",
							"type": "uint256[]",
							"internalType": "uint256[]"
						}
					],
					"stateMutability": "view"
				},
				{
					"type": "function",
					"name": "decorateBannyWith",
					"inputs": [
						{
							"name": "hook",
							"type": "address",
							"internalType": "address"
						},
						{
							"name": "nakedBannyId",
							"type": "uint256",
							"internalType": "uint256"
						},
						{
							"name": "worldId",
							"type": "uint256",
							"internalType": "uint256"
						},
						{
							"name": "outfitIds",
							"type": "uint256[]",
							"internalType": "uint256[]"
						}
					],
					"outputs": [],
					"stateMutability": "nonpayable"
				},
				{
					"type": "function",
					"name": "isTrustedForwarder",
					"inputs": [
						{
							"name": "forwarder",
							"type": "address",
							"internalType": "address"
						}
					],
					"outputs": [
						{
							"name": "",
							"type": "bool",
							"internalType": "bool"
						}
					],
					"stateMutability": "view"
				},
				{
					"type": "function",
					"name": "namesOf",
					"inputs": [
						{
							"name": "hook",
							"type": "address",
							"internalType": "address"
						},
						{
							"name": "tokenId",
							"type": "uint256",
							"internalType": "uint256"
						}
					],
					"outputs": [
						{
							"name": "",
							"type": "string",
							"internalType": "string"
						},
						{
							"name": "",
							"type": "string",
							"internalType": "string"
						},
						{
							"name": "",
							"type": "string",
							"internalType": "string"
						}
					],
					"stateMutability": "view"
				},
				{
					"type": "function",
					"name": "owner",
					"inputs": [],
					"outputs": [
						{
							"name": "",
							"type": "address",
							"internalType": "address"
						}
					],
					"stateMutability": "view"
				},
				{
					"type": "function",
					"name": "renounceOwnership",
					"inputs": [],
					"outputs": [],
					"stateMutability": "nonpayable"
				},
				{
					"type": "function",
					"name": "setProductNames",
					"inputs": [
						{
							"name": "upcs",
							"type": "uint256[]",
							"internalType": "uint256[]"
						},
						{
							"name": "names",
							"type": "string[]",
							"internalType": "string[]"
						}
					],
					"outputs": [],
					"stateMutability": "nonpayable"
				},
				{
					"type": "function",
					"name": "setSvgBaseUri",
					"inputs": [
						{
							"name": "baseUri",
							"type": "string",
							"internalType": "string"
						}
					],
					"outputs": [],
					"stateMutability": "nonpayable"
				},
				{
					"type": "function",
					"name": "setSvgContentsOf",
					"inputs": [
						{
							"name": "upcs",
							"type": "uint256[]",
							"internalType": "uint256[]"
						},
						{
							"name": "svgContents",
							"type": "string[]",
							"internalType": "string[]"
						}
					],
					"outputs": [],
					"stateMutability": "nonpayable"
				},
				{
					"type": "function",
					"name": "setSvgHashsOf",
					"inputs": [
						{
							"name": "upcs",
							"type": "uint256[]",
							"internalType": "uint256[]"
						},
						{
							"name": "svgHashs",
							"type": "bytes32[]",
							"internalType": "bytes32[]"
						}
					],
					"outputs": [],
					"stateMutability": "nonpayable"
				},
				{
					"type": "function",
					"name": "svgBaseUri",
					"inputs": [],
					"outputs": [
						{
							"name": "",
							"type": "string",
							"internalType": "string"
						}
					],
					"stateMutability": "view"
				},
				{
					"type": "function",
					"name": "svgHashOf",
					"inputs": [
						{
							"name": "upc",
							"type": "uint256",
							"internalType": "uint256"
						}
					],
					"outputs": [
						{
							"name": "",
							"type": "bytes32",
							"internalType": "bytes32"
						}
					],
					"stateMutability": "view"
				},
				{
					"type": "function",
					"name": "svgOf",
					"inputs": [
						{
							"name": "hook",
							"type": "address",
							"internalType": "address"
						},
						{
							"name": "tokenId",
							"type": "uint256",
							"internalType": "uint256"
						},
						{
							"name": "shouldDressNakedBanny",
							"type": "bool",
							"internalType": "bool"
						},
						{
							"name": "shouldIncludeWorldOnNakedBanny",
							"type": "bool",
							"internalType": "bool"
						}
					],
					"outputs": [
						{
							"name": "",
							"type": "string",
							"internalType": "string"
						}
					],
					"stateMutability": "view"
				},
				{
					"type": "function",
					"name": "tokenUriOf",
					"inputs": [
						{
							"name": "hook",
							"type": "address",
							"internalType": "address"
						},
						{
							"name": "tokenId",
							"type": "uint256",
							"internalType": "uint256"
						}
					],
					"outputs": [
						{
							"name": "",
							"type": "string",
							"internalType": "string"
						}
					],
					"stateMutability": "view"
				},
				{
					"type": "function",
					"name": "transferOwnership",
					"inputs": [
						{
							"name": "newOwner",
							"type": "address",
							"internalType": "address"
						}
					],
					"outputs": [],
					"stateMutability": "nonpayable"
				},
				{
					"type": "function",
					"name": "trustedForwarder",
					"inputs": [],
					"outputs": [
						{
							"name": "",
							"type": "address",
							"internalType": "address"
						}
					],
					"stateMutability": "view"
				},
				{
					"type": "function",
					"name": "userOf",
					"inputs": [
						{
							"name": "hook",
							"type": "address",
							"internalType": "address"
						},
						{
							"name": "worldId",
							"type": "uint256",
							"internalType": "uint256"
						}
					],
					"outputs": [
						{
							"name": "",
							"type": "uint256",
							"internalType": "uint256"
						}
					],
					"stateMutability": "view"
				},
				{
					"type": "function",
					"name": "wearerOf",
					"inputs": [
						{
							"name": "hook",
							"type": "address",
							"internalType": "address"
						},
						{
							"name": "outfitId",
							"type": "uint256",
							"internalType": "uint256"
						}
					],
					"outputs": [
						{
							"name": "",
							"type": "uint256",
							"internalType": "uint256"
						}
					],
					"stateMutability": "view"
				},
				{
					"type": "event",
					"name": "DecorateBanny",
					"inputs": [
						{
							"name": "hook",
							"type": "address",
							"indexed": true,
							"internalType": "address"
						},
						{
							"name": "nakedBannyId",
							"type": "uint256",
							"indexed": true,
							"internalType": "uint256"
						},
						{
							"name": "worldId",
							"type": "uint256",
							"indexed": false,
							"internalType": "uint256"
						},
						{
							"name": "outfitIds",
							"type": "uint256[]",
							"indexed": false,
							"internalType": "uint256[]"
						},
						{
							"name": "caller",
							"type": "address",
							"indexed": false,
							"internalType": "address"
						}
					],
					"anonymous": false
				},
				{
					"type": "event",
					"name": "OwnershipTransferred",
					"inputs": [
						{
							"name": "previousOwner",
							"type": "address",
							"indexed": true,
							"internalType": "address"
						},
						{
							"name": "newOwner",
							"type": "address",
							"indexed": true,
							"internalType": "address"
						}
					],
					"anonymous": false
				},
				{
					"type": "event",
					"name": "SetProductName",
					"inputs": [
						{
							"name": "upc",
							"type": "uint256",
							"indexed": true,
							"internalType": "uint256"
						},
						{
							"name": "name",
							"type": "string",
							"indexed": false,
							"internalType": "string"
						},
						{
							"name": "caller",
							"type": "address",
							"indexed": false,
							"internalType": "address"
						}
					],
					"anonymous": false
				},
				{
					"type": "event",
					"name": "SetSvgBaseUri",
					"inputs": [
						{
							"name": "baseUri",
							"type": "string",
							"indexed": false,
							"internalType": "string"
						},
						{
							"name": "caller",
							"type": "address",
							"indexed": false,
							"internalType": "address"
						}
					],
					"anonymous": false
				},
				{
					"type": "event",
					"name": "SetSvgContent",
					"inputs": [
						{
							"name": "upc",
							"type": "uint256",
							"indexed": true,
							"internalType": "uint256"
						},
						{
							"name": "svgContent",
							"type": "string",
							"indexed": false,
							"internalType": "string"
						},
						{
							"name": "caller",
							"type": "address",
							"indexed": false,
							"internalType": "address"
						}
					],
					"anonymous": false
				},
				{
					"type": "event",
					"name": "SetSvgHash",
					"inputs": [
						{
							"name": "upc",
							"type": "uint256",
							"indexed": true,
							"internalType": "uint256"
						},
						{
							"name": "svgHash",
							"type": "bytes32",
							"indexed": true,
							"internalType": "bytes32"
						},
						{
							"name": "caller",
							"type": "address",
							"indexed": false,
							"internalType": "address"
						}
					],
					"anonymous": false
				},
				{
					"type": "error",
					"name": "ASSET_IS_ALREADY_BEING_WORN",
					"inputs": []
				},
				{
					"type": "error",
					"name": "CONTENTS_ALREADY_STORED",
					"inputs": []
				},
				{
					"type": "error",
					"name": "CONTENTS_MISMATCH",
					"inputs": []
				},
				{
					"type": "error",
					"name": "HASH_ALREADY_STORED",
					"inputs": []
				},
				{
					"type": "error",
					"name": "HASH_NOT_FOUND",
					"inputs": []
				},
				{
					"type": "error",
					"name": "HEAD_ALREADY_ADDED",
					"inputs": []
				},
				{
					"type": "error",
					"name": "OwnableInvalidOwner",
					"inputs": [
						{
							"name": "owner",
							"type": "address",
							"internalType": "address"
						}
					]
				},
				{
					"type": "error",
					"name": "OwnableUnauthorizedAccount",
					"inputs": [
						{
							"name": "account",
							"type": "address",
							"internalType": "address"
						}
					]
				},
				{
					"type": "error",
					"name": "SUIT_ALREADY_ADDED",
					"inputs": []
				},
				{
					"type": "error",
					"name": "UNAUTHORIZED_NAKED_BANNY",
					"inputs": []
				},
				{
					"type": "error",
					"name": "UNAUTHORIZED_OUTFIT",
					"inputs": []
				},
				{
					"type": "error",
					"name": "UNAUTHORIZED_WORLD",
					"inputs": []
				},
				{
					"type": "error",
					"name": "UNORDERED_CATEGORIES",
					"inputs": []
				},
				{
					"type": "error",
					"name": "UNRECOGNIZED_CATEGORY",
					"inputs": []
				},
				{
					"type": "error",
					"name": "UNRECOGNIZED_OUTFIT",
					"inputs": []
				},
				{
					"type": "error",
					"name": "UNRECOGNIZED_PRODUCT",
					"inputs": []
				},
				{
					"type": "error",
					"name": "UNRECOGNIZED_WORLD",
					"inputs": []
				}
			],
			"solcInputHash": "4d81baae574e28e31c1d4b870f375f23",
			"receipt": {
				"blockHash": "0x3aa2d7bb5396ee24ab6d3f066f7e24074b61421b9a8b361f0715e395b833b56e",
				"blockNumber": 13129444,
				"contractAddress": null,
				"cumulativeGasUsed": "13422433",
				"from": "0xC034550B542b83BA1De312b21d1C94a9a52B1595",
				"gasPrice": "1000273",
				"gasUsed": "11129166",
				"hash": "0x9015f9532d29dafcbd359ef0d556df6ebdfaf0e1b42c95490a308fee0fd4cf4f",
				"index": 6,
				"logs": [
					{
						"address": "0xB5E96127D417b1B3ef8438496a38A143167209c7",
						"blockHash": "0x3aa2d7bb5396ee24ab6d3f066f7e24074b61421b9a8b361f0715e395b833b56e",
						"blockNumber": 13129444,
						"data": "0x0000000000000000000000000000000000000000000000000000000000000000",
						"index": 35,
						"topics": [
							"0x572f161235911da04685a68c06adf558fc7e4a36909dca394650e0adc19cc93d",
							"0x000000000000000000000000c034550b542b83ba1de312b21d1c94a9a52b1595",
							"0x000000000000000000000000a75d2466dda887ffb81e0da82e43d5223a6571c5",
							"0xfb3d74bddff58fa7f404bc0e541d91e0748ffccd191d7b0af0e28412c045fca2"
						],
						"transactionHash": "0x9015f9532d29dafcbd359ef0d556df6ebdfaf0e1b42c95490a308fee0fd4cf4f",
						"transactionIndex": 6
					},
					{
						"address": "0x027c353C0164EE238ea36Ec92b0d9CD340a815B1",
						"blockHash": "0x3aa2d7bb5396ee24ab6d3f066f7e24074b61421b9a8b361f0715e395b833b56e",
						"blockNumber": 13129444,
						"data": "0x",
						"index": 36,
						"topics": [
							"0x8be0079c531659141344cd1fd0a4f28419497f9722a3daafe3b4186f6b6457e0",
							"0x0000000000000000000000000000000000000000000000000000000000000000",
							"0x0000000000000000000000009b2aebe9ffa55703e4a7a3f1114e66f3170c80bc"
						],
						"transactionHash": "0x9015f9532d29dafcbd359ef0d556df6ebdfaf0e1b42c95490a308fee0fd4cf4f",
						"transactionIndex": 6
					},
					{
						"address": "0x9b2AEbe9ffa55703e4A7a3F1114e66f3170C80Bc",
						"blockHash": "0x3aa2d7bb5396ee24ab6d3f066f7e24074b61421b9a8b361f0715e395b833b56e",
						"blockNumber": 13129444,
						"data": "0x",
						"index": 37,
						"topics": [
							"0x6895c13664aa4f67288b25d7a21d7aaa34916e355fb9b6fae0a139a9085becb8",
							"0x000000000000000000000000a75d2466dda887ffb81e0da82e43d5223a6571c5"
						],
						"transactionHash": "0x9015f9532d29dafcbd359ef0d556df6ebdfaf0e1b42c95490a308fee0fd4cf4f",
						"transactionIndex": 6
					},
					{
						"address": "0xA75D2466DdA887fFB81E0DA82e43d5223A6571c5",
						"blockHash": "0x3aa2d7bb5396ee24ab6d3f066f7e24074b61421b9a8b361f0715e395b833b56e",
						"blockNumber": 13129444,
						"data": "0x0000000000000000000000000000000000000000000000000000000000000001",
						"index": 38,
						"topics": [
							"0xa65fb05c5808f5f389d72edeaf719ce38f4cc55c1f69ca3cbfb31c21501caa07",
							"0xfb3de635310e8ba46c7102090d8c3678ad962a479cd3749714588d79bee1ad8e"
						],
						"transactionHash": "0x9015f9532d29dafcbd359ef0d556df6ebdfaf0e1b42c95490a308fee0fd4cf4f",
						"transactionIndex": 6
					},
					{
						"address": "0x9A0E17738c9682FEc796ebA4ea4241796e439D3f",
						"blockHash": "0x3aa2d7bb5396ee24ab6d3f066f7e24074b61421b9a8b361f0715e395b833b56e",
						"blockNumber": 13129444,
						"data": "0x",
						"index": 39,
						"topics": [
							"0x8be0079c531659141344cd1fd0a4f28419497f9722a3daafe3b4186f6b6457e0",
							"0x0000000000000000000000000000000000000000000000000000000000000000",
							"0x000000000000000000000000f97086e4cea8d11fcd64cb2e5dde0ab7588f5f01"
						],
						"transactionHash": "0x9015f9532d29dafcbd359ef0d556df6ebdfaf0e1b42c95490a308fee0fd4cf4f",
						"transactionIndex": 6
					},
					{
						"address": "0x9A0E17738c9682FEc796ebA4ea4241796e439D3f",
						"blockHash": "0x3aa2d7bb5396ee24ab6d3f066f7e24074b61421b9a8b361f0715e395b833b56e",
						"blockNumber": 13129444,
						"data": "0x",
						"index": 40,
						"topics": [
							"0x8be0079c531659141344cd1fd0a4f28419497f9722a3daafe3b4186f6b6457e0",
							"0x000000000000000000000000f97086e4cea8d11fcd64cb2e5dde0ab7588f5f01",
							"0x0000000000000000000000009ad5f8352494be4dcf75ffcb477c77018691df7e"
						],
						"transactionHash": "0x9015f9532d29dafcbd359ef0d556df6ebdfaf0e1b42c95490a308fee0fd4cf4f",
						"transactionIndex": 6
					},
					{
						"address": "0x989566Bf9fF4CffA55a98ADa7dc3E58b2a0a19c6",
						"blockHash": "0x3aa2d7bb5396ee24ab6d3f066f7e24074b61421b9a8b361f0715e395b833b56e",
						"blockNumber": 13129444,
						"data": "0x",
						"index": 41,
						"topics": [
							"0x72b627b4904fa8a0160a923aa5b142eb19f6e56dc75017884162206f8886df09",
							"0x0000000000000000000000009a0e17738c9682fec796eba4ea4241796e439d3f",
							"0x000000000000000000000000f97086e4cea8d11fcd64cb2e5dde0ab7588f5f01"
						],
						"transactionHash": "0x9015f9532d29dafcbd359ef0d556df6ebdfaf0e1b42c95490a308fee0fd4cf4f",
						"transactionIndex": 6
					},
					{
						"address": "0xF97086E4CeA8D11FCD64cb2E5dDE0Ab7588f5F01",
						"blockHash": "0x3aa2d7bb5396ee24ab6d3f066f7e24074b61421b9a8b361f0715e395b833b56e",
						"blockNumber": 13129444,
						"data": "0x0000000000000000000000009a0e17738c9682fec796eba4ea4241796e439d3f",
						"index": 42,
						"topics": [
							"0xa42f6bb68e81f4650a7966f109d861f6c3d2a477e608e30807f568bed1cebdb9",
							"0x0000000000000000000000000000000000000000000000000000000000000003"
						],
						"transactionHash": "0x9015f9532d29dafcbd359ef0d556df6ebdfaf0e1b42c95490a308fee0fd4cf4f",
						"transactionIndex": 6
					},
					{
						"address": "0xC99C2fCc0dC51dd0dAd1fd7B58236bB4d73bAaa8",
						"blockHash": "0x3aa2d7bb5396ee24ab6d3f066f7e24074b61421b9a8b361f0715e395b833b56e",
						"blockNumber": 13129444,
						"data": "0x",
						"index": 43,
						"topics": [
							"0xddf252ad1be2c89b69c2b068fc378daa952ba7f163c4a11628f55a4df523b3ef",
							"0x0000000000000000000000000000000000000000000000000000000000000000",
							"0x0000000000000000000000009ad5f8352494be4dcf75ffcb477c77018691df7e",
							"0x0000000000000000000000000000000000000000000000000000000000000003"
						],
						"transactionHash": "0x9015f9532d29dafcbd359ef0d556df6ebdfaf0e1b42c95490a308fee0fd4cf4f",
						"transactionIndex": 6
					},
					{
						"address": "0xC99C2fCc0dC51dd0dAd1fd7B58236bB4d73bAaa8",
						"blockHash": "0x3aa2d7bb5396ee24ab6d3f066f7e24074b61421b9a8b361f0715e395b833b56e",
						"blockNumber": 13129444,
						"data": "0x0000000000000000000000009c7993bff32dfd4e96f5c24d7ab3f9c93c303704",
						"index": 44,
						"topics": [
							"0x365b3162cd780731fc55a794b59494d472bc2af701007f581843a70673814698",
							"0x0000000000000000000000000000000000000000000000000000000000000003",
							"0x0000000000000000000000009ad5f8352494be4dcf75ffcb477c77018691df7e"
						],
						"transactionHash": "0x9015f9532d29dafcbd359ef0d556df6ebdfaf0e1b42c95490a308fee0fd4cf4f",
						"transactionIndex": 6
					},
					{
						"address": "0xc9cb7a0BAB7569b5B6De26A679D107D4D412B349",
						"blockHash": "0x3aa2d7bb5396ee24ab6d3f066f7e24074b61421b9a8b361f0715e395b833b56e",
						"blockNumber": 13129444,
						"data": "0x0000000000000000000000009c7993bff32dfd4e96f5c24d7ab3f9c93c303704",
						"index": 45,
						"topics": [
							"0x7f9a7dcb234c909a09de2f344661ad9e5b24067adb97c908647c2edcbb121c30",
							"0x0000000000000000000000000000000000000000000000000000000000000003",
							"0x0000000000000000000000009c7993bff32dfd4e96f5c24d7ab3f9c93c303704"
						],
						"transactionHash": "0x9015f9532d29dafcbd359ef0d556df6ebdfaf0e1b42c95490a308fee0fd4cf4f",
						"transactionIndex": 6
					},
					{
						"address": "0x453cf7F1e15d71532671C8c2931675dfB9AA148B",
						"blockHash": "0x3aa2d7bb5396ee24ab6d3f066f7e24074b61421b9a8b361f0715e395b833b56e",
						"blockNumber": 13129444,
						"data": "0x",
						"index": 46,
						"topics": [
							"0xfda207e5d149787155cf9596283f246f082d4744a57e37dda99146e5dcc542bb",
							"0x0000000000000000000000000000000000000000000000000000000066678974",
							"0x0000000000000000000000000000000000000000000000000000000000000003",
							"0x0000000000000000000000000000000000000000000000000000000000000000"
						],
						"transactionHash": "0x9015f9532d29dafcbd359ef0d556df6ebdfaf0e1b42c95490a308fee0fd4cf4f",
						"transactionIndex": 6
					},
					{
						"address": "0x453cf7F1e15d71532671C8c2931675dfB9AA148B",
						"blockHash": "0x3aa2d7bb5396ee24ab6d3f066f7e24074b61421b9a8b361f0715e395b833b56e",
						"blockNumber": 13129444,
						"data": "0x000000000000000000000000000000000000000000000000000000000001518000000000000000000000000000000000000000000000d3c21bcecceda10000000000000000000000000000000000000000000000000000000000000002faf080000000000000000000000000000000000000000000000000000000000000000000009ad5f8352494be4dcf75ffcb477c77018691df7e40c0000eeee1f4013881000000000000000000000000000000000000000000000000000000006668d9b40000000000000000000000009c7993bff32dfd4e96f5c24d7ab3f9c93c303704",
						"index": 47,
						"topics": [
							"0x11a490bebff1beffe4bdd210894aca6ea5049427ce4b3c48865717677199cb07",
							"0x0000000000000000000000000000000000000000000000000000000066678974",
							"0x0000000000000000000000000000000000000000000000000000000000000003"
						],
						"transactionHash": "0x9015f9532d29dafcbd359ef0d556df6ebdfaf0e1b42c95490a308fee0fd4cf4f",
						"transactionIndex": 6
					},
					{
						"address": "0x453cf7F1e15d71532671C8c2931675dfB9AA148B",
						"blockHash": "0x3aa2d7bb5396ee24ab6d3f066f7e24074b61421b9a8b361f0715e395b833b56e",
						"blockNumber": 13129444,
						"data": "0x",
						"index": 48,
						"topics": [
							"0xfda207e5d149787155cf9596283f246f082d4744a57e37dda99146e5dcc542bb",
							"0x0000000000000000000000000000000000000000000000000000000066678975",
							"0x0000000000000000000000000000000000000000000000000000000000000003",
							"0x0000000000000000000000000000000000000000000000000000000066678974"
						],
						"transactionHash": "0x9015f9532d29dafcbd359ef0d556df6ebdfaf0e1b42c95490a308fee0fd4cf4f",
						"transactionIndex": 6
					},
					{
						"address": "0x453cf7F1e15d71532671C8c2931675dfB9AA148B",
						"blockHash": "0x3aa2d7bb5396ee24ab6d3f066f7e24074b61421b9a8b361f0715e395b833b56e",
						"blockNumber": 13129444,
						"data": "0x0000000000000000000000000000000000000000000000000000000000093a8000000000000000000000000000000000000000000000152d02c7e14af68000000000000000000000000000000000000000000000000000000000000000989680000000000000000000000000000000000000000000000000000000000000000000009ad5f8352494be4dcf75ffcb477c77018691df7e40c0000eeee13881388100000000000000000000000000000000000000000000000000000000668c72340000000000000000000000009c7993bff32dfd4e96f5c24d7ab3f9c93c303704",
						"index": 49,
						"topics": [
							"0x11a490bebff1beffe4bdd210894aca6ea5049427ce4b3c48865717677199cb07",
							"0x0000000000000000000000000000000000000000000000000000000066678975",
							"0x0000000000000000000000000000000000000000000000000000000000000003"
						],
						"transactionHash": "0x9015f9532d29dafcbd359ef0d556df6ebdfaf0e1b42c95490a308fee0fd4cf4f",
						"transactionIndex": 6
					},
					{
						"address": "0x9446b613d0423AbfF13E24A57390EFCD3a0F0d17",
						"blockHash": "0x3aa2d7bb5396ee24ab6d3f066f7e24074b61421b9a8b361f0715e395b833b56e",
						"blockNumber": 13129444,
						"data": "0x000000000000000000000000000000000000000000000000000000000000eeee0000000000000000000000000000000000000000000000000000000000000012000000000000000000000000000000000000000000000000000000000000eeee0000000000000000000000009c7993bff32dfd4e96f5c24d7ab3f9c93c303704",
						"index": 50,
						"topics": [
							"0x9570de6fc0456f642bd0a001b24cd31676388c24596df64a17190c24310690a1",
							"0x0000000000000000000000000000000000000000000000000000000000000003",
							"0x000000000000000000000000000000000000000000000000000000000000eeee"
						],
						"transactionHash": "0x9015f9532d29dafcbd359ef0d556df6ebdfaf0e1b42c95490a308fee0fd4cf4f",
						"transactionIndex": 6
					},
					{
						"address": "0xc9cb7a0BAB7569b5B6De26A679D107D4D412B349",
						"blockHash": "0x3aa2d7bb5396ee24ab6d3f066f7e24074b61421b9a8b361f0715e395b833b56e",
						"blockNumber": 13129444,
						"data": "0x00000000000000000000000000000000000000000000000000000000000000400000000000000000000000009c7993bff32dfd4e96f5c24d7ab3f9c93c30370400000000000000000000000000000000000000000000000000000000000000010000000000000000000000009446b613d0423abff13e24a57390efcd3a0f0d17",
						"index": 51,
						"topics": [
							"0xb648241d83df6540fc10f2acc641e4bf80a1e84e7ae2f1f6b0ad204b8fee635b",
							"0x0000000000000000000000000000000000000000000000000000000000000003"
						],
						"transactionHash": "0x9015f9532d29dafcbd359ef0d556df6ebdfaf0e1b42c95490a308fee0fd4cf4f",
						"transactionIndex": 6
					},
					{
						"address": "0x9c7993bff32dfd4e96F5C24D7AB3f9c93c303704",
						"blockHash": "0x3aa2d7bb5396ee24ab6d3f066f7e24074b61421b9a8b361f0715e395b833b56e",
						"blockNumber": 13129444,
						"data": "0x0000000000000000000000000000000000000000000000000000000066678975000000000000000000000000000000000000000000000000000000000000000300000000000000000000000000000000000000000000000000000000000000a000000000000000000000000000000000000000000000000000000000000000c00000000000000000000000009ad5f8352494be4dcf75ffcb477c77018691df7e000000000000000000000000000000000000000000000000000000000000000000000000000000000000000000000000000000000000000000000000000000162442414e4e59207265766e6574206465706c6f79656400000000000000000000",
						"index": 52,
						"topics": [
							"0x8dac501f24f52bda9ebdfa6a1789878c1d1e23823c771f7d52b5ba41261b0f45"
						],
						"transactionHash": "0x9015f9532d29dafcbd359ef0d556df6ebdfaf0e1b42c95490a308fee0fd4cf4f",
						"transactionIndex": 6
					},
					{
						"address": "0xbF68e6C5C1b02F9fA79f5410EB57eFCB5fFED4b4",
						"blockHash": "0x3aa2d7bb5396ee24ab6d3f066f7e24074b61421b9a8b361f0715e395b833b56e",
						"blockNumber": 13129444,
						"data": "0x",
						"index": 53,
						"topics": [
							"0x8be0079c531659141344cd1fd0a4f28419497f9722a3daafe3b4186f6b6457e0",
							"0x0000000000000000000000000000000000000000000000000000000000000000",
							"0x0000000000000000000000004b91b0593302d5f033f0fdcef7d82e2ff57e2467"
						],
						"transactionHash": "0x9015f9532d29dafcbd359ef0d556df6ebdfaf0e1b42c95490a308fee0fd4cf4f",
						"transactionIndex": 6
					},
					{
						"address": "0x4B91b0593302D5f033F0FDcEf7D82E2ff57e2467",
						"blockHash": "0x3aa2d7bb5396ee24ab6d3f066f7e24074b61421b9a8b361f0715e395b833b56e",
						"blockNumber": 13129444,
						"data": "0x000000000000000000000000000000000000000000000000000000000000008000000000000000000000000000000000000000000000000000000000000000c0faf83455c9bb59abad017171941cca8a46271657861825af3baf0da820cd6f500000000000000000000000009c7993bff32dfd4e96f5c24d7ab3f9c93c303704000000000000000000000000000000000000000000000000000000000000000a42616e6e79766572736500000000000000000000000000000000000000000000000000000000000000000000000000000000000000000000000000000000000542414e4e59000000000000000000000000000000000000000000000000000000",
						"index": 54,
						"topics": [
							"0xb4510654a5884cae50948507300dc482833ed1446cef375e064bef00b6b4ba4e",
							"0x0000000000000000000000000000000000000000000000000000000000000003",
							"0x000000000000000000000000bf68e6c5c1b02f9fa79f5410eb57efcb5ffed4b4"
						],
						"transactionHash": "0x9015f9532d29dafcbd359ef0d556df6ebdfaf0e1b42c95490a308fee0fd4cf4f",
						"transactionIndex": 6
					},
					{
						"address": "0x9968f7f05A68CDEF1581957f9f03e268817Fc0f1",
						"blockHash": "0x3aa2d7bb5396ee24ab6d3f066f7e24074b61421b9a8b361f0715e395b833b56e",
						"blockNumber": 13129444,
						"data": "0x0000000000000000000000000000000000000000000000000000000000000000000000000000000000000000000000000000000000000000000000000002a3000000000000000000000000009ad5f8352494be4dcf75ffcb477c77018691df7e",
						"index": 55,
						"topics": [
							"0xa8d6b20cd05f07d50e9855ce0fc6de3517f3df2e890a5ec6357892b3808a53ce",
							"0x0000000000000000000000000000000000000000000000000000000000000003"
						],
						"transactionHash": "0x9015f9532d29dafcbd359ef0d556df6ebdfaf0e1b42c95490a308fee0fd4cf4f",
						"transactionIndex": 6
					},
					{
						"address": "0x9968f7f05A68CDEF1581957f9f03e268817Fc0f1",
						"blockHash": "0x3aa2d7bb5396ee24ab6d3f066f7e24074b61421b9a8b361f0715e395b833b56e",
						"blockNumber": 13129444,
						"data": "0x000000000000000000000000000000000000000000000000000000000000000000000000000000000000000000000000000000000000000000000000000023280000000000000000000000009ad5f8352494be4dcf75ffcb477c77018691df7e",
						"index": 56,
						"topics": [
							"0xaafe2470cbfb11a09f9b45d6a795226e93cc251e30fdcabddbabb157a1db5353",
							"0x0000000000000000000000000000000000000000000000000000000000000003"
						],
						"transactionHash": "0x9015f9532d29dafcbd359ef0d556df6ebdfaf0e1b42c95490a308fee0fd4cf4f",
						"transactionIndex": 6
					},
					{
						"address": "0x9968f7f05A68CDEF1581957f9f03e268817Fc0f1",
						"blockHash": "0x3aa2d7bb5396ee24ab6d3f066f7e24074b61421b9a8b361f0715e395b833b56e",
						"blockNumber": 13129444,
						"data": "0x000000000000000000000000efe91810a073e6f836532133be8790257ab747c40000000000000000000000009ad5f8352494be4dcf75ffcb477c77018691df7e",
						"index": 57,
						"topics": [
							"0xe694de883385e30d535f625d68df4b2b5e866e8e86fe9d15554480c8d1812e60",
							"0x0000000000000000000000000000000000000000000000000000000000000003",
							"0x0000000000000000000000004200000000000000000000000000000000000006"
						],
						"transactionHash": "0x9015f9532d29dafcbd359ef0d556df6ebdfaf0e1b42c95490a308fee0fd4cf4f",
						"transactionIndex": 6
					},
					{
						"address": "0xBF86912A8B061a0bb03d9B7428B0e40b2a4811c7",
						"blockHash": "0x3aa2d7bb5396ee24ab6d3f066f7e24074b61421b9a8b361f0715e395b833b56e",
						"blockNumber": 13129444,
						"data": "0x0000000000000000000000000000000000000000000000000000000000000000000000000000000000000000000000000000000000000000000000003b9aca0000000000000000000000000000000000000000000000000000000000000000000000000000000000000000009b2aebe9ffa55703e4a7a3f1114e66f3170c80bc000000000000000000000000000000000000000000000000000000000000000000000000000000000000000000000000000000000000000000000000000000000000000000000000000000009c7993bff32dfd4e96f5c24d7ab3f9c93c303704",
						"index": 58,
						"topics": [
							"0x0d7ea8ac1cb69dfa18ce2b18e90d31b4d4a0370aacadf7db42d42930a09b3f01",
							"0x0000000000000000000000000000000000000000000000000000000000000003",
							"0x0000000000000000000000000000000000000000000000000000000000000000",
							"0x0000000000000000000000000000000000000000000000000000000000000001"
						],
						"transactionHash": "0x9015f9532d29dafcbd359ef0d556df6ebdfaf0e1b42c95490a308fee0fd4cf4f",
						"transactionIndex": 6
					},
					{
						"address": "0xaDa1E1EE4576Da063EAD17d1ACf49254FA881F0E",
						"blockHash": "0x3aa2d7bb5396ee24ab6d3f066f7e24074b61421b9a8b361f0715e395b833b56e",
						"blockNumber": 13129444,
						"data": "0x00000000000000000000000000000000000000000000000000000000000000600000000000000000000000000000000000000000000000000000000002e200400000000000000000000000009ad5f8352494be4dcf75ffcb477c77018691df7e0000000000000000000000000000000000000000000000000000000000000006000000000000000000000000000000000000000000000000000000000000001100000000000000000000000000000000000000000000000000000000000000190000000000000000000000000000000000000000000000000000000000000006000000000000000000000000000000000000000000000000000000000000001500000000000000000000000000000000000000000000000000000000000000160000000000000000000000000000000000000000000000000000000000000017",
						"index": 59,
						"topics": [
							"0xf8cdf10a0ce6189c6d069e97320ef146e2bcbd32d6c0b86dcbfbf3bd8578fa70",
							"0x0000000000000000000000009b2aebe9ffa55703e4a7a3f1114e66f3170c80bc",
							"0x0000000000000000000000009ad5f8352494be4dcf75ffcb477c77018691df7e",
							"0x0000000000000000000000000000000000000000000000000000000000000003"
						],
						"transactionHash": "0x9015f9532d29dafcbd359ef0d556df6ebdfaf0e1b42c95490a308fee0fd4cf4f",
						"transactionIndex": 6
					},
					{
						"address": "0xaDa1E1EE4576Da063EAD17d1ACf49254FA881F0E",
						"blockHash": "0x3aa2d7bb5396ee24ab6d3f066f7e24074b61421b9a8b361f0715e395b833b56e",
						"blockNumber": 13129444,
						"data": "0x000000000000000000000000000000000000000000000000000000000000006000000000000000000000000000000000000000000000000000000000100000000000000000000000000000009ad5f8352494be4dcf75ffcb477c77018691df7e0000000000000000000000000000000000000000000000000000000000000001000000000000000000000000000000000000000000000000000000000000001c",
						"index": 60,
						"topics": [
							"0xf8cdf10a0ce6189c6d069e97320ef146e2bcbd32d6c0b86dcbfbf3bd8578fa70",
							"0x00000000000000000000000001ad7869d85dc136f473db7f4f07b8f61414f644",
							"0x0000000000000000000000009ad5f8352494be4dcf75ffcb477c77018691df7e",
							"0x0000000000000000000000000000000000000000000000000000000000000003"
						],
						"transactionHash": "0x9015f9532d29dafcbd359ef0d556df6ebdfaf0e1b42c95490a308fee0fd4cf4f",
						"transactionIndex": 6
					},
					{
						"address": "0x01aD7869D85dC136F473DB7F4F07b8F61414f644",
						"blockHash": "0x3aa2d7bb5396ee24ab6d3f066f7e24074b61421b9a8b361f0715e395b833b56e",
						"blockNumber": 13129444,
						"data": "0x000000000000000000000000000000000000000000000000000000000000000300000000000000000000000000000000000000000000000000000000000000400000000000000000000000000000000000000000000000000000000000000001000000000000000000000000b9e65b2b123a095817a4b5bbe03dac297ac8d954",
						"index": 61,
						"topics": [
							"0xd982fdd7a5657847f0905ad1aff9ab6105d1ff64590493b3486837504dafe55a"
						],
						"transactionHash": "0x9015f9532d29dafcbd359ef0d556df6ebdfaf0e1b42c95490a308fee0fd4cf4f",
						"transactionIndex": 6
					},
					{
						"address": "0x9Ad5F8352494Be4dCf75Ffcb477C77018691dF7E",
						"blockHash": "0x3aa2d7bb5396ee24ab6d3f066f7e24074b61421b9a8b361f0715e395b833b56e",
						"blockNumber": 13129444,
						"data": "0x000000000000000000000000000000000000000000000000000000000000010000000000000000000000000000000000000000000000000000000000000005600000000000000000000000000000000000000000000000000000000000000620000000000000000000000000000000000000000000000000000000000000070000000000000000000000000000000000000000000000000000000000000008600000000000000000000000000000000000000000000000000000000000000f4000000000000000000000000000000000000000000000000000000000000000000000000000000000000000009b2aebe9ffa55703e4a7a3f1114e66f3170c80bc0000000000000000000000000000000000000000000000000000000000000080000000000000000000000000000000000000000000000000000000000000eeee0000000000000000000000009b2aebe9ffa55703e4a7a3f1114e66f3170c80bc00000000000000000000000000000000000000000000000000000000000001a0000000000000000000000000000000000000000000000000000000000000008000000000000000000000000000000000000000000000000000000000000000c0000000000000000000000000000000000000000000000000000000000000010042414e4e59000000000000000000000000000000000000000000000000000000000000000000000000000000000000000000000000000000000000000000000a42616e6e79766572736500000000000000000000000000000000000000000000000000000000000000000000000000000000000000000000000000000000000542414e4e5900000000000000000000000000000000000000000000000000000000000000000000000000000000000000000000000000000000000000000000000000000000000000000000000000000000000000000000000000000000000002000000000000000000000000000000000000000000000000000000000000004000000000000000000000000000000000000000000000000000000000000001a0000000000000000000000000000000000000000000000000000000006668d9b400000000000000000000000000000000000000000000000000000000000000e0000000000000000000000000000000000000000000000000000000000000138800000000000000000000000000000000000000000000d3c21bcecceda100000000000000000000000000000000000000000000000000000000000000000151800000000000000000000000000000000000000000000000000000000002faf08000000000000000000000000000000000000000000000000000000000000007d000000000000000000000000000000000000000000000000000000000000000010000000000000000000000000000000000000000000000000000000000000001000000000000000000000000000000000000000000422ca8b0a00a42500000000000000000000000000000009b2aebe9ffa55703e4a7a3f1114e66f3170c80bc00000000000000000000000000000000000000000000000000000000668c723400000000000000000000000000000000000000000000000000000000000000e0000000000000000000000000000000000000000000000000000000000000138800000000000000000000000000000000000000000000152d02c7e14af68000000000000000000000000000000000000000000000000000000000000000093a80000000000000000000000000000000000000000000000000000000000098968000000000000000000000000000000000000000000000000000000000000013880000000000000000000000000000000000000000000000000000000000000000000000000000000000000000000000000000000000000000000000000000000100000000000000000000000000000000000000000000000000000000000000200000000000000000000000009446b613d0423abff13e24a57390efcd3a0f0d1700000000000000000000000000000000000000000000000000000000000000400000000000000000000000000000000000000000000000000000000000000001000000000000000000000000000000000000000000000000000000000000eeee0000000000000000000000009968f7f05a68cdef1581957f9f03e268817fc0f100000000000000000000000000000000000000000000000000000000000000400000000000000000000000000000000000000000000000000000000000000001000000000000000000000000000000000000000000000000000000000000eeee0000000000000000000000000000000000000000000000000000000000002710000000000000000000000000000000000000000000000000000000000002a3000000000000000000000000000000000000000000000000000000000000002328000000000000000000000000000000000000000000000000000000000000004042414e4e595f5355434b4552000000000000000000000000000000000000000000000000000000000000000000000000000000000000000000000000000000010000000000000000000000000000000000000000000000000000000000000020000000000000000000000000e7fd1c1792ecb62512cef9ad1ab3689a679a04eb00000000000000000000000000000000000000000000000000000000000000400000000000000000000000000000000000000000000000000000000000000001000000000000000000000000000000000000000000000000000000000000eeee0000000000000000000000000000000000000000000000000000000000030d40000000000000000000000000000000000000000000000000000000000000eeee000000000000000000000000000000000000000000000000002386f26fc10000000000000000000000000000000000000000000000000000000000000000000200000000000000000000000000000000000000000000000000000000000000400000000000000000000000000000000000000000000000000000000000000380000000000000000000000000000000000000000000000000000000006668d9b4000000000000000000000000000000000000000000000000000000000001518000000000000000000000000000000000000000000000d3c21bcecceda10000000000000000000000000000000000000000000000000000000000000002faf080000000000000000000000000000000000000000000000000000000000000000000000000000000000000000000000000000000000000000000000000000013880000000000000000000000000000000000000000000000000000000000001f40000000000000000000000000000000000000000000000000000000000000eeee0000000000000000000000000000000000000000000000000000000000000000000000000000000000000000000000000000000000000000000000000000000000000000000000000000000000000000000000000000000000000000000000010000000000000000000000000000000000000000000000000000000000000001000000000000000000000000000000000000000000000000000000000000000000000000000000000000000000000000000000000000000000000000000000000000000000000000000000000000000000000000000000000000000000000000000000000000000000000000000000000000000000000000000000000000000000000000000000000000000000000000000000000000000000000000000000000000000000000000000000000000000000000000000000000000000000000000000000000000000000000000000000000000000000000000000000000000000100000000000000000000000000000000000000000000000000000000000000000000000000000000000000009ad5f8352494be4dcf75ffcb477c77018691df7e0000000000000000000000000000000000000000000000000000000000000000000000000000000000000000000000000000000000000000000000000000030000000000000000000000000000000000000000000000000000000000000003200000000000000000000000000000000000000000000000000000000000000000000000000000000000000000000000000000000000000000000000000000000000000000000000000000000000000000000000000000000000000000668c72340000000000000000000000000000000000000000000000000000000000093a8000000000000000000000000000000000000000000000152d02c7e14af68000000000000000000000000000000000000000000000000000000000000000989680000000000000000000000000000000000000000000000000000000000000000000000000000000000000000000000000000000000000000000000000000013880000000000000000000000000000000000000000000000000000000000001388000000000000000000000000000000000000000000000000000000000000eeee0000000000000000000000000000000000000000000000000000000000000000000000000000000000000000000000000000000000000000000000000000000000000000000000000000000000000000000000000000000000000000000000010000000000000000000000000000000000000000000000000000000000000001000000000000000000000000000000000000000000000000000000000000000000000000000000000000000000000000000000000000000000000000000000000000000000000000000000000000000000000000000000000000000000000000000000000000000000000000000000000000000000000000000000000000000000000000000000000000000000000000000000000000000000000000000000000000000000000000000000000000000000000000000000000000000000000000000000000000000000000000000000000000000000000000000000000000000100000000000000000000000000000000000000000000000000000000000000000000000000000000000000009ad5f8352494be4dcf75ffcb477c77018691df7e0000000000000000000000000000000000000000000000000000000000000000000000000000000000000000000000000000000000000000000000000000030000000000000000000000000000000000000000000000000000000000000003200000000000000000000000000000000000000000000000000000000000000000000000000000000000000000000000000000000000000000000000000000000000000000000000000000000000000000000000000000000000000000000002e0000000000000000000000000000000000000000000000000000000000000eeee000000000000000000000000000000000000000000000000000000000000008000000000000000000000000000000000000000000000000000000000000000c042414e4e59000000000000000000000000000000000000000000000000000000000000000000000000000000000000000000000000000000000000000000000a42616e6e79766572736500000000000000000000000000000000000000000000000000000000000000000000000000000000000000000000000000000000000542414e4e59000000000000000000000000000000000000000000000000000000000000000000000000000000000000000000000000000000000000006668d9b4000000000000000000000000000000000000000000000000000000000000138800000000000000000000000000000000000000000000d3c21bcecceda100000000000000000000000000000000000000000000000000000000000000000151800000000000000000000000000000000000000000000000000000000002faf08000000000000000000000000000000000000000000000000000000000000007d000000000000000000000000000000000000000000000000000000000000000010000000000000000000000009b2aebe9ffa55703e4a7a3f1114e66f3170c80bc000000000000000000000000000000000000000000422ca8b0a00a425000000000000000000000000000000000000000000000000000000000000000668c7234000000000000000000000000000000000000000000000000000000000000138800000000000000000000000000000000000000000000152d02c7e14af68000000000000000000000000000000000000000000000000000000000000000093a8000000000000000000000000000000000000000000000000000000000009896800000000000000000000000000000000000000000000000000000000000001388",
						"index": 62,
						"topics": [
							"0xabdf3ec8139195645b1e44778a910396624b7d2913c04b613f4800ad25d71046",
							"0x0000000000000000000000000000000000000000000000000000000000000003"
						],
						"transactionHash": "0x9015f9532d29dafcbd359ef0d556df6ebdfaf0e1b42c95490a308fee0fd4cf4f",
						"transactionIndex": 6
					},
					{
						"address": "0x9Ad5F8352494Be4dCf75Ffcb477C77018691dF7E",
						"blockHash": "0x3aa2d7bb5396ee24ab6d3f066f7e24074b61421b9a8b361f0715e395b833b56e",
						"blockNumber": 13129444,
						"data": "0x00000000000000000000000000000000000000000000000000000000000000400000000000000000000000009b2aebe9ffa55703e4a7a3f1114e66f3170c80bc000000000000000000000000000000000000000000000000000000000000000100000000000000000000000000000000000000000000000000000000000000200000000000000000000000009a0e17738c9682fec796eba4ea4241796e439d3f000000000000000000000000000000000000000000000000000000000000000000000000000000000000000000000000000000000000000000000000000000600000000000000000000000000000000000000000000000000000000000000000",
						"index": 63,
						"topics": [
							"0xdfaf2737f25eace49d372b472ec03f1df0f9814dfc69d2b95c5e92a041f42e29",
							"0x0000000000000000000000000000000000000000000000000000000000000003"
						],
						"transactionHash": "0x9015f9532d29dafcbd359ef0d556df6ebdfaf0e1b42c95490a308fee0fd4cf4f",
						"transactionIndex": 6
					},
					{
						"address": "0x24F256088C151a071Bf51DeE9d37F9E1Ea553548",
						"blockHash": "0x3aa2d7bb5396ee24ab6d3f066f7e24074b61421b9a8b361f0715e395b833b56e",
						"blockNumber": 13129444,
						"data": "0x00000000000000000000000000000000000000000000000000000000000000400000000000000000000000009ad5f8352494be4dcf75ffcb477c77018691df7e0000000000000000000000009a0e17738c9682fec796eba4ea4241796e439d3f000000000000000000000000000000000000000000000000000000000000006400000000000000000000000000000000000000000000000000038d7ea4c680000000000000000000000000000000000000000000000000000000000000002710000000000000000000000000000000000000000000000000000000003b9ac9ff00000000000000000000000000000000000000000000000000000000000000c00000000000000000000000000000000000000000000000000000000000000000",
						"index": 64,
						"topics": [
							"0x0f3142087587009e4617c9975a6a584e016f80bf46aac68e39a08b376678f32b",
							"0x0000000000000000000000009a0e17738c9682fec796eba4ea4241796e439d3f"
						],
						"transactionHash": "0x9015f9532d29dafcbd359ef0d556df6ebdfaf0e1b42c95490a308fee0fd4cf4f",
						"transactionIndex": 6
					},
					{
						"address": "0x24F256088C151a071Bf51DeE9d37F9E1Ea553548",
						"blockHash": "0x3aa2d7bb5396ee24ab6d3f066f7e24074b61421b9a8b361f0715e395b833b56e",
						"blockNumber": 13129444,
						"data": "0x00000000000000000000000000000000000000000000000000000000000000400000000000000000000000009ad5f8352494be4dcf75ffcb477c77018691df7e0000000000000000000000009a0e17738c9682fec796eba4ea4241796e439d3f0000000000000000000000000000000000000000000000000000000000000065000000000000000000000000000000000000000000000000016345785d8a00000000000000000000000000000000000000000000000000000000000000000064000000000000000000000000000000000000000000000000000000003b9ac9ff00000000000000000000000000000000000000000000000000000000000000c00000000000000000000000000000000000000000000000000000000000000000",
						"index": 65,
						"topics": [
							"0x0f3142087587009e4617c9975a6a584e016f80bf46aac68e39a08b376678f32b",
							"0x0000000000000000000000009a0e17738c9682fec796eba4ea4241796e439d3f"
						],
						"transactionHash": "0x9015f9532d29dafcbd359ef0d556df6ebdfaf0e1b42c95490a308fee0fd4cf4f",
						"transactionIndex": 6
					},
					{
						"address": "0x24F256088C151a071Bf51DeE9d37F9E1Ea553548",
						"blockHash": "0x3aa2d7bb5396ee24ab6d3f066f7e24074b61421b9a8b361f0715e395b833b56e",
						"blockNumber": 13129444,
						"data": "0x00000000000000000000000000000000000000000000000000000000000000400000000000000000000000009ad5f8352494be4dcf75ffcb477c77018691df7e0000000000000000000000009a0e17738c9682fec796eba4ea4241796e439d3f00000000000000000000000000000000000000000000000000000000000000660000000000000000000000000000000000000000000000000de0b6b3a7640000000000000000000000000000000000000000000000000000000000000000000a000000000000000000000000000000000000000000000000000000003b9ac9ff00000000000000000000000000000000000000000000000000000000000000c00000000000000000000000000000000000000000000000000000000000000000",
						"index": 66,
						"topics": [
							"0x0f3142087587009e4617c9975a6a584e016f80bf46aac68e39a08b376678f32b",
							"0x0000000000000000000000009a0e17738c9682fec796eba4ea4241796e439d3f"
						],
						"transactionHash": "0x9015f9532d29dafcbd359ef0d556df6ebdfaf0e1b42c95490a308fee0fd4cf4f",
						"transactionIndex": 6
					},
					{
						"address": "0x24F256088C151a071Bf51DeE9d37F9E1Ea553548",
						"blockHash": "0x3aa2d7bb5396ee24ab6d3f066f7e24074b61421b9a8b361f0715e395b833b56e",
						"blockNumber": 13129444,
						"data": "0x00000000000000000000000000000000000000000000000000000000000000400000000000000000000000009ad5f8352494be4dcf75ffcb477c77018691df7e0000000000000000000000009a0e17738c9682fec796eba4ea4241796e439d3f00000000000000000000000000000000000000000000000000000000000000670000000000000000000000000000000000000000000000056bc75e2d63100000000000000000000000000000000000000000000000000000000000000000000a000000000000000000000000000000000000000000000000000000003b9ac9ff00000000000000000000000000000000000000000000000000000000000000c00000000000000000000000000000000000000000000000000000000000000000",
						"index": 67,
						"topics": [
							"0x0f3142087587009e4617c9975a6a584e016f80bf46aac68e39a08b376678f32b",
							"0x0000000000000000000000009a0e17738c9682fec796eba4ea4241796e439d3f"
						],
						"transactionHash": "0x9015f9532d29dafcbd359ef0d556df6ebdfaf0e1b42c95490a308fee0fd4cf4f",
						"transactionIndex": 6
					},
					{
						"address": "0xaDa1E1EE4576Da063EAD17d1ACf49254FA881F0E",
						"blockHash": "0x3aa2d7bb5396ee24ab6d3f066f7e24074b61421b9a8b361f0715e395b833b56e",
						"blockNumber": 13129444,
						"data": "0x000000000000000000000000000000000000000000000000000000000000006000000000000000000000000000000000000000000000000000000000002000000000000000000000000000009ad5f8352494be4dcf75ffcb477c77018691df7e00000000000000000000000000000000000000000000000000000000000000010000000000000000000000000000000000000000000000000000000000000015",
						"index": 68,
						"topics": [
							"0xf8cdf10a0ce6189c6d069e97320ef146e2bcbd32d6c0b86dcbfbf3bd8578fa70",
							"0x00000000000000000000000024f256088c151a071bf51dee9d37f9e1ea553548",
							"0x0000000000000000000000009ad5f8352494be4dcf75ffcb477c77018691df7e",
							"0x0000000000000000000000000000000000000000000000000000000000000003"
						],
						"transactionHash": "0x9015f9532d29dafcbd359ef0d556df6ebdfaf0e1b42c95490a308fee0fd4cf4f",
						"transactionIndex": 6
					},
					{
						"address": "0x9b2AEbe9ffa55703e4A7a3F1114e66f3170C80Bc",
						"blockHash": "0x3aa2d7bb5396ee24ab6d3f066f7e24074b61421b9a8b361f0715e395b833b56e",
						"blockNumber": 13129444,
						"data": "0x",
						"index": 69,
						"topics": [
							"0x6895c13664aa4f67288b25d7a21d7aaa34916e355fb9b6fae0a139a9085becb8",
							"0x000000000000000000000000a75d2466dda887ffb81e0da82e43d5223a6571c5"
						],
						"transactionHash": "0x9015f9532d29dafcbd359ef0d556df6ebdfaf0e1b42c95490a308fee0fd4cf4f",
						"transactionIndex": 6
					},
					{
						"address": "0xA75D2466DdA887fFB81E0DA82e43d5223A6571c5",
						"blockHash": "0x3aa2d7bb5396ee24ab6d3f066f7e24074b61421b9a8b361f0715e395b833b56e",
						"blockNumber": 13129444,
						"data": "0x0000000000000000000000000000000000000000000000000000000000000002",
						"index": 70,
						"topics": [
							"0xa65fb05c5808f5f389d72edeaf719ce38f4cc55c1f69ca3cbfb31c21501caa07",
							"0xfb3de635310e8ba46c7102090d8c3678ad962a479cd3749714588d79bee1ad8e"
						],
						"transactionHash": "0x9015f9532d29dafcbd359ef0d556df6ebdfaf0e1b42c95490a308fee0fd4cf4f",
						"transactionIndex": 6
					},
					{
						"address": "0xA75D2466DdA887fFB81E0DA82e43d5223A6571c5",
						"blockHash": "0x3aa2d7bb5396ee24ab6d3f066f7e24074b61421b9a8b361f0715e395b833b56e",
						"blockNumber": 13129444,
						"data": "0x",
						"index": 71,
						"topics": [
							"0x4383d976757d67ca920616be0b6430a681ea9d3dcce8d6d61d4603ca4a9bff63",
							"0xfb3de635310e8ba46c7102090d8c3678ad962a479cd3749714588d79bee1ad8e"
						],
						"transactionHash": "0x9015f9532d29dafcbd359ef0d556df6ebdfaf0e1b42c95490a308fee0fd4cf4f",
						"transactionIndex": 6
					}
				],
				"logsBloom": "0x00400000084010100080090001892202400008000008004080911002004000000000400000400104000000201440408000004000024002000028800000040000000000100200200010100808010000184001080000841a00020080001080801220000000020000808820002000000800000810000000840060028012010000c0822000001440000090010808000000010102204c00000000000060410240004000401084001440000000040000004402021000000080004020020001080c6000000001020008a400008090000800088001400002802001800061048000026000240000002002008800000000000400030021100201200000800010200a000801",
				"status": 1,
				"to": "0xB5E96127D417b1B3ef8438496a38A143167209c7"
			},
			"metadata": "{\"compiler\":{\"version\":\"0.8.23+commit.f704f362\"},\"language\":\"Solidity\",\"output\":{\"abi\":[{\"inputs\":[{\"internalType\":\"address\",\"name\":\"owner\",\"type\":\"address\"},{\"internalType\":\"address\",\"name\":\"trustedForwarder\",\"type\":\"address\"}],\"stateMutability\":\"nonpayable\",\"type\":\"constructor\"},{\"inputs\":[],\"type\":\"error\",\"name\":\"ASSET_IS_ALREADY_BEING_WORN\"},{\"inputs\":[],\"type\":\"error\",\"name\":\"CONTENTS_ALREADY_STORED\"},{\"inputs\":[],\"type\":\"error\",\"name\":\"CONTENTS_MISMATCH\"},{\"inputs\":[],\"type\":\"error\",\"name\":\"HASH_ALREADY_STORED\"},{\"inputs\":[],\"type\":\"error\",\"name\":\"HASH_NOT_FOUND\"},{\"inputs\":[],\"type\":\"error\",\"name\":\"HEAD_ALREADY_ADDED\"},{\"inputs\":[{\"internalType\":\"address\",\"name\":\"owner\",\"type\":\"address\"}],\"type\":\"error\",\"name\":\"OwnableInvalidOwner\"},{\"inputs\":[{\"internalType\":\"address\",\"name\":\"account\",\"type\":\"address\"}],\"type\":\"error\",\"name\":\"OwnableUnauthorizedAccount\"},{\"inputs\":[],\"type\":\"error\",\"name\":\"SUIT_ALREADY_ADDED\"},{\"inputs\":[],\"type\":\"error\",\"name\":\"UNAUTHORIZED_NAKED_BANNY\"},{\"inputs\":[],\"type\":\"error\",\"name\":\"UNAUTHORIZED_OUTFIT\"},{\"inputs\":[],\"type\":\"error\",\"name\":\"UNAUTHORIZED_WORLD\"},{\"inputs\":[],\"type\":\"error\",\"name\":\"UNORDERED_CATEGORIES\"},{\"inputs\":[],\"type\":\"error\",\"name\":\"UNRECOGNIZED_CATEGORY\"},{\"inputs\":[],\"type\":\"error\",\"name\":\"UNRECOGNIZED_OUTFIT\"},{\"inputs\":[],\"type\":\"error\",\"name\":\"UNRECOGNIZED_PRODUCT\"},{\"inputs\":[],\"type\":\"error\",\"name\":\"UNRECOGNIZED_WORLD\"},{\"inputs\":[{\"internalType\":\"address\",\"name\":\"hook\",\"type\":\"address\",\"indexed\":true},{\"internalType\":\"uint256\",\"name\":\"nakedBannyId\",\"type\":\"uint256\",\"indexed\":true},{\"internalType\":\"uint256\",\"name\":\"worldId\",\"type\":\"uint256\",\"indexed\":false},{\"internalType\":\"uint256[]\",\"name\":\"outfitIds\",\"type\":\"uint256[]\",\"indexed\":false},{\"internalType\":\"address\",\"name\":\"caller\",\"type\":\"address\",\"indexed\":false}],\"type\":\"event\",\"name\":\"DecorateBanny\",\"anonymous\":false},{\"inputs\":[{\"internalType\":\"address\",\"name\":\"previousOwner\",\"type\":\"address\",\"indexed\":true},{\"internalType\":\"address\",\"name\":\"newOwner\",\"type\":\"address\",\"indexed\":true}],\"type\":\"event\",\"name\":\"OwnershipTransferred\",\"anonymous\":false},{\"inputs\":[{\"internalType\":\"uint256\",\"name\":\"upc\",\"type\":\"uint256\",\"indexed\":true},{\"internalType\":\"string\",\"name\":\"name\",\"type\":\"string\",\"indexed\":false},{\"internalType\":\"address\",\"name\":\"caller\",\"type\":\"address\",\"indexed\":false}],\"type\":\"event\",\"name\":\"SetProductName\",\"anonymous\":false},{\"inputs\":[{\"internalType\":\"string\",\"name\":\"baseUri\",\"type\":\"string\",\"indexed\":false},{\"internalType\":\"address\",\"name\":\"caller\",\"type\":\"address\",\"indexed\":false}],\"type\":\"event\",\"name\":\"SetSvgBaseUri\",\"anonymous\":false},{\"inputs\":[{\"internalType\":\"uint256\",\"name\":\"upc\",\"type\":\"uint256\",\"indexed\":true},{\"internalType\":\"string\",\"name\":\"svgContent\",\"type\":\"string\",\"indexed\":false},{\"internalType\":\"address\",\"name\":\"caller\",\"type\":\"address\",\"indexed\":false}],\"type\":\"event\",\"name\":\"SetSvgContent\",\"anonymous\":false},{\"inputs\":[{\"internalType\":\"uint256\",\"name\":\"upc\",\"type\":\"uint256\",\"indexed\":true},{\"internalType\":\"bytes32\",\"name\":\"svgHash\",\"type\":\"bytes32\",\"indexed\":true},{\"internalType\":\"address\",\"name\":\"caller\",\"type\":\"address\",\"indexed\":false}],\"type\":\"event\",\"name\":\"SetSvgHash\",\"anonymous\":false},{\"inputs\":[{\"internalType\":\"address\",\"name\":\"hook\",\"type\":\"address\"},{\"internalType\":\"uint256\",\"name\":\"nakedBannyId\",\"type\":\"uint256\"}],\"stateMutability\":\"view\",\"type\":\"function\",\"name\":\"assetIdsOf\",\"outputs\":[{\"internalType\":\"uint256\",\"name\":\"worldId\",\"type\":\"uint256\"},{\"internalType\":\"uint256[]\",\"name\":\"outfitIds\",\"type\":\"uint256[]\"}]},{\"inputs\":[{\"internalType\":\"address\",\"name\":\"hook\",\"type\":\"address\"},{\"internalType\":\"uint256\",\"name\":\"nakedBannyId\",\"type\":\"uint256\"},{\"internalType\":\"uint256\",\"name\":\"worldId\",\"type\":\"uint256\"},{\"internalType\":\"uint256[]\",\"name\":\"outfitIds\",\"type\":\"uint256[]\"}],\"stateMutability\":\"nonpayable\",\"type\":\"function\",\"name\":\"decorateBannyWith\"},{\"inputs\":[{\"internalType\":\"address\",\"name\":\"forwarder\",\"type\":\"address\"}],\"stateMutability\":\"view\",\"type\":\"function\",\"name\":\"isTrustedForwarder\",\"outputs\":[{\"internalType\":\"bool\",\"name\":\"\",\"type\":\"bool\"}]},{\"inputs\":[{\"internalType\":\"address\",\"name\":\"hook\",\"type\":\"address\"},{\"internalType\":\"uint256\",\"name\":\"tokenId\",\"type\":\"uint256\"}],\"stateMutability\":\"view\",\"type\":\"function\",\"name\":\"namesOf\",\"outputs\":[{\"internalType\":\"string\",\"name\":\"\",\"type\":\"string\"},{\"internalType\":\"string\",\"name\":\"\",\"type\":\"string\"},{\"internalType\":\"string\",\"name\":\"\",\"type\":\"string\"}]},{\"inputs\":[],\"stateMutability\":\"view\",\"type\":\"function\",\"name\":\"owner\",\"outputs\":[{\"internalType\":\"address\",\"name\":\"\",\"type\":\"address\"}]},{\"inputs\":[],\"stateMutability\":\"nonpayable\",\"type\":\"function\",\"name\":\"renounceOwnership\"},{\"inputs\":[{\"internalType\":\"uint256[]\",\"name\":\"upcs\",\"type\":\"uint256[]\"},{\"internalType\":\"string[]\",\"name\":\"names\",\"type\":\"string[]\"}],\"stateMutability\":\"nonpayable\",\"type\":\"function\",\"name\":\"setProductNames\"},{\"inputs\":[{\"internalType\":\"string\",\"name\":\"baseUri\",\"type\":\"string\"}],\"stateMutability\":\"nonpayable\",\"type\":\"function\",\"name\":\"setSvgBaseUri\"},{\"inputs\":[{\"internalType\":\"uint256[]\",\"name\":\"upcs\",\"type\":\"uint256[]\"},{\"internalType\":\"string[]\",\"name\":\"svgContents\",\"type\":\"string[]\"}],\"stateMutability\":\"nonpayable\",\"type\":\"function\",\"name\":\"setSvgContentsOf\"},{\"inputs\":[{\"internalType\":\"uint256[]\",\"name\":\"upcs\",\"type\":\"uint256[]\"},{\"internalType\":\"bytes32[]\",\"name\":\"svgHashs\",\"type\":\"bytes32[]\"}],\"stateMutability\":\"nonpayable\",\"type\":\"function\",\"name\":\"setSvgHashsOf\"},{\"inputs\":[],\"stateMutability\":\"view\",\"type\":\"function\",\"name\":\"svgBaseUri\",\"outputs\":[{\"internalType\":\"string\",\"name\":\"\",\"type\":\"string\"}]},{\"inputs\":[{\"internalType\":\"uint256\",\"name\":\"upc\",\"type\":\"uint256\"}],\"stateMutability\":\"view\",\"type\":\"function\",\"name\":\"svgHashOf\",\"outputs\":[{\"internalType\":\"bytes32\",\"name\":\"\",\"type\":\"bytes32\"}]},{\"inputs\":[{\"internalType\":\"address\",\"name\":\"hook\",\"type\":\"address\"},{\"internalType\":\"uint256\",\"name\":\"tokenId\",\"type\":\"uint256\"},{\"internalType\":\"bool\",\"name\":\"shouldDressNakedBanny\",\"type\":\"bool\"},{\"internalType\":\"bool\",\"name\":\"shouldIncludeWorldOnNakedBanny\",\"type\":\"bool\"}],\"stateMutability\":\"view\",\"type\":\"function\",\"name\":\"svgOf\",\"outputs\":[{\"internalType\":\"string\",\"name\":\"\",\"type\":\"string\"}]},{\"inputs\":[{\"internalType\":\"address\",\"name\":\"hook\",\"type\":\"address\"},{\"internalType\":\"uint256\",\"name\":\"tokenId\",\"type\":\"uint256\"}],\"stateMutability\":\"view\",\"type\":\"function\",\"name\":\"tokenUriOf\",\"outputs\":[{\"internalType\":\"string\",\"name\":\"\",\"type\":\"string\"}]},{\"inputs\":[{\"internalType\":\"address\",\"name\":\"newOwner\",\"type\":\"address\"}],\"stateMutability\":\"nonpayable\",\"type\":\"function\",\"name\":\"transferOwnership\"},{\"inputs\":[],\"stateMutability\":\"view\",\"type\":\"function\",\"name\":\"trustedForwarder\",\"outputs\":[{\"internalType\":\"address\",\"name\":\"\",\"type\":\"address\"}]},{\"inputs\":[{\"internalType\":\"address\",\"name\":\"hook\",\"type\":\"address\"},{\"internalType\":\"uint256\",\"name\":\"worldId\",\"type\":\"uint256\"}],\"stateMutability\":\"view\",\"type\":\"function\",\"name\":\"userOf\",\"outputs\":[{\"internalType\":\"uint256\",\"name\":\"\",\"type\":\"uint256\"}]},{\"inputs\":[{\"internalType\":\"address\",\"name\":\"hook\",\"type\":\"address\"},{\"internalType\":\"uint256\",\"name\":\"outfitId\",\"type\":\"uint256\"}],\"stateMutability\":\"view\",\"type\":\"function\",\"name\":\"wearerOf\",\"outputs\":[{\"internalType\":\"uint256\",\"name\":\"\",\"type\":\"uint256\"}]}],\"devdoc\":{\"kind\":\"dev\",\"methods\":{\"assetIdsOf(address,uint256)\":{\"custom:param\":\"hook The hook address of the collection.\",\"params\":{\"nakedBannyId\":\"The ID of the naked banny shows with the associated assets.\"},\"returns\":{\"outfitIds\":\"The outfits attached to the Naked Banny.\",\"worldId\":\"The world attached to the Naked Banny.\"}},\"constructor\":{\"params\":{\"owner\":\"The owner allowed to add SVG files that correspond to product IDs.\",\"trustedForwarder\":\"The trusted forwarder for the ERC2771Context.\"}},\"decorateBannyWith(address,uint256,uint256,uint256[])\":{\"details\":\"The caller must own the naked banny being dressed and all outfits being worn.\",\"params\":{\"hook\":\"The hook storing the assets.\",\"nakedBannyId\":\"The ID of the Naked Banny being dressed.\",\"outfitIds\":\"The IDs of the outfits that'll be associated with the specified banny. Only one outfit per outfit category allowed at a time and they must be passed in order.\",\"worldId\":\"The ID of the world that'll be associated with the specified banny.\"}},\"isTrustedForwarder(address)\":{\"details\":\"Indicates whether any particular address is the trusted forwarder.\"},\"namesOf(address,uint256)\":{\"params\":{\"hook\":\"The hook storing the assets.\",\"tokenId\":\"The ID of the token to show.\"},\"returns\":{\"_0\":\"fullName The full name of the token.\",\"_1\":\"categoryName The name of the token's category.\",\"_2\":\"productName The name of the token's product.\"}},\"owner()\":{\"details\":\"Returns the address of the current owner.\"},\"renounceOwnership()\":{\"details\":\"Leaves the contract without owner. It will not be possible to call `onlyOwner` functions. Can only be called by the current owner. NOTE: Renouncing ownership will leave the contract without an owner, thereby disabling any functionality that is only available to the owner.\"},\"setProductNames(uint256[],string[])\":{\"params\":{\"names\":\"The names of the products.\",\"upcs\":\"The universal product codes of the products having their name stored.\"}},\"setSvgContentsOf(uint256[],string[])\":{\"params\":{\"svgContents\":\"The svg contents being stored, not including the parent <svg></svg> element.\",\"upcs\":\"The universal product codes of the products having SVGs stored.\"}},\"setSvgHashsOf(uint256[],bytes32[])\":{\"details\":\"This allows anyone to lazily upload the correct svg file.\",\"params\":{\"svgHashs\":\"The svg hashes being stored, not including the parent <svg></svg> element.\",\"upcs\":\"The universal product codes of the products having SVG hashes stored.\"}},\"svgOf(address,uint256,bool,bool)\":{\"params\":{\"hook\":\"The hook storing the assets.\",\"shouldDressNakedBanny\":\"Whether the naked banny should be dressed.\",\"shouldIncludeWorldOnNakedBanny\":\"Whether the world should be included on the naked banny.\",\"tokenId\":\"The ID of the token to show. If the ID belongs to a Naked Banny, it will be shown with its current outfits in its current world if specified.\"},\"returns\":{\"_0\":\"svg The SVG.\"}},\"tokenUriOf(address,uint256)\":{\"params\":{\"tokenId\":\"The ID of the token to show. If the ID belongs to a Naked Banny, it will be shown with its current outfits in its current world.\"},\"returns\":{\"_0\":\"tokenUri The URI representing the SVG.\"}},\"transferOwnership(address)\":{\"details\":\"Transfers ownership of the contract to a new account (`newOwner`). Can only be called by the current owner.\"},\"trustedForwarder()\":{\"details\":\"Returns the address of the trusted forwarder.\"},\"userOf(address,uint256)\":{\"custom:param\":\"hook The hook address of the collection.\",\"params\":{\"worldId\":\"The ID of the world being used.\"},\"returns\":{\"_0\":\"The ID of the naked banny using the world.\"}},\"wearerOf(address,uint256)\":{\"custom:param\":\"hook The hook address of the collection.\",\"params\":{\"outfitId\":\"The ID of the outfit being worn.\"},\"returns\":{\"_0\":\"The ID of the naked banny wearing the outfit.\"}}},\"version\":1},\"userdoc\":{\"kind\":\"user\",\"methods\":{\"assetIdsOf(address,uint256)\":{\"notice\":\"The assets currently attached to each Naked Banny, owned by the naked Banny's owner.\"},\"decorateBannyWith(address,uint256,uint256,uint256[])\":{\"notice\":\"Dress your Naked Banny with outfits.\"},\"namesOf(address,uint256)\":{\"notice\":\"Returns the name of the token.\"},\"setProductNames(uint256[],string[])\":{\"notice\":\"Allows the owner to set the product's name.\"},\"setSvgBaseUri(string)\":{\"notice\":\"Allows the owner of this contract to specify the base of the domain hosting the SVG files.\"},\"setSvgContentsOf(uint256[],string[])\":{\"notice\":\"The owner of this contract can store SVG files for product IDs.\"},\"setSvgHashsOf(uint256[],bytes32[])\":{\"notice\":\"Allows the owner of this contract to upload the hash of an svg file for a universal product code.\"},\"svgBaseUri()\":{\"notice\":\"The base of the domain hosting the SVG files that can be lazily uploaded to the contract.\"},\"svgHashOf(uint256)\":{\"notice\":\"The Naked Banny and outfit SVG hash files.\"},\"svgOf(address,uint256,bool,bool)\":{\"notice\":\"Returns the SVG showing either a naked banny with/without outfits and a world, or the stand alone outfit or world.\"},\"tokenUriOf(address,uint256)\":{\"notice\":\"Returns the SVG showing a dressed Naked Banny in a world.\"},\"userOf(address,uint256)\":{\"notice\":\"Checks to see which naked banny is currently using a particular world.\"},\"wearerOf(address,uint256)\":{\"notice\":\"Checks to see which naked banny is currently wearing a particular outfit.\"}},\"version\":1}},\"settings\":{\"remappings\":[\"@arbitrum/=node_modules/@arbitrum/\",\"@bananapus/=node_modules/@bananapus/\",\"@chainlink/=node_modules/@chainlink/\",\"@croptop/=node_modules/@croptop/\",\"@eth-optimism/=node_modules/@eth-optimism/\",\"@exhausted-pigeon/=node_modules/@exhausted-pigeon/\",\"@offchainlabs/=node_modules/@offchainlabs/\",\"@openzeppelin/=node_modules/@openzeppelin/\",\"@prb/=node_modules/@prb/\",\"@rev-net/=node_modules/@rev-net/\",\"@scroll-tech/=node_modules/@scroll-tech/\",\"@sphinx-labs/contracts/=node_modules/@sphinx-labs/contracts/contracts/foundry/\",\"@uniswap/=node_modules/@uniswap/\",\"base64-sol/=node_modules/base64-sol/\",\"base64/=lib/base64/\",\"ds-test/=lib/forge-std/lib/ds-test/src/\",\"forge-std/=lib/forge-std/src/\",\"hardhat/=node_modules/hardhat/\",\"solmate/=node_modules/solmate/\",\"sphinx/=lib/sphinx/packages/contracts/contracts/forge-std/src/\"],\"optimizer\":{\"enabled\":true,\"runs\":200},\"metadata\":{\"bytecodeHash\":\"ipfs\"},\"compilationTarget\":{\"src/Banny721TokenUriResolver.sol\":\"Banny721TokenUriResolver\"},\"evmVersion\":\"paris\",\"libraries\":{},\"viaIR\":true},\"sources\":{\"lib/base64/base64.sol\":{\"keccak256\":\"0xa73959e6ef0b693e4423a562e612370160b934a75e618361ddd8c9c4b8ddbaaf\",\"urls\":[\"bzz-raw://17c12e16d8d66f3af15d8787920bd41ca6c1e7517a212a6b9cebd4b6d38f36fe\",\"dweb:/ipfs/QmcXMnZUXEz6LRKsm3CSvqdPboAzmezavi8bTg2dRxM2yE\"],\"license\":\"MIT\"},\"node_modules/@bananapus/721-hook/src/abstract/ERC721.sol\":{\"keccak256\":\"0xc25c7c60c88684adc3f7a49621d27866866a44a3f3796e63c9fcaba75fbb2e84\",\"urls\":[\"bzz-raw://713103b7a05402264493430cfcd7d85f1a241a2eb4756af53a370fa529ea07bf\",\"dweb:/ipfs/QmSXZfxCG1N9XheS1kLCNJZ9k6ZRq4GnAMY7MKFfbKLXmz\"],\"license\":\"MIT\"},\"node_modules/@bananapus/721-hook/src/interfaces/IJB721Hook.sol\":{\"keccak256\":\"0x24935445bc4c5b0fe2a10aabe549122588940842a68e79a8c39b1df9458dd7fd\",\"urls\":[\"bzz-raw://1dee273fa76d9abae116de911fdda5e3113db2a58939e62e24fba98c63fd037a\",\"dweb:/ipfs/QmT6Lih7DeRAfrLc8uC7ecaw2EAKwhaP2BZHeY5DxeeVLM\"],\"license\":\"MIT\"},\"node_modules/@bananapus/721-hook/src/interfaces/IJB721TiersHook.sol\":{\"keccak256\":\"0xbd9a8dae00a4b1a02c628bd172fe4ae496e49f7651426cef08774ffdb6125c23\",\"urls\":[\"bzz-raw://9ce4fd77d5af1f570dad6b70758f09f9599768e1ab32f6b473f6181197daa0c8\",\"dweb:/ipfs/QmWj6sCTvZ2CbfSyRuhaXADxYbwwPcR42pZokcgfjpsabg\"],\"license\":\"MIT\"},\"node_modules/@bananapus/721-hook/src/interfaces/IJB721TiersHookStore.sol\":{\"keccak256\":\"0x8550e216c12c9cda865c1b1b0eb3f244aeaa8d465b197d4bd0dd8d4df265682e\",\"urls\":[\"bzz-raw://674a312f1eaffd7c6b21f58f8d4a628104e71220daf48a22237fa3bd035ddf21\",\"dweb:/ipfs/QmSRSW6cSwdpoGjVxDqiwJmJyCxfHWhCxZ2iaqeJcN2Ccy\"],\"license\":\"MIT\"},\"node_modules/@bananapus/721-hook/src/interfaces/IJB721TokenUriResolver.sol\":{\"keccak256\":\"0xfa599167098f4459320ec4141a98a17b2dfffbce422baa27d8b4e4530f61ece1\",\"urls\":[\"bzz-raw://8b758b161f4c7b520b2c34b4d91e585e961b8f4ca278eebb91d791f7f2f45140\",\"dweb:/ipfs/QmcD9DF7NJ9QykQpT4KPzm4bs3fkjzukdAUWwdU6Atfw85\"],\"license\":\"MIT\"},\"node_modules/@bananapus/721-hook/src/libraries/JBIpfsDecoder.sol\":{\"keccak256\":\"0xb93ba562ac1fc9d3829be00e61f3a90f51df5661cf0f2c819a7f1d8ba19ec171\",\"urls\":[\"bzz-raw://fc9bc948fac8897d9720ef25b13d63c60b40a18aa1897dd1c657fc278c416b4f\",\"dweb:/ipfs/QmNtiJTALZW5zfyKVy7XG5GkqGgMrfkVvU4Auu4bb9cGQc\"],\"license\":\"MIT\"},\"node_modules/@bananapus/721-hook/src/structs/JB721InitTiersConfig.sol\":{\"keccak256\":\"0xfb78486cec94189d0ecf2050dc9cfc11245b426c73a0711a85bff1359d774307\",\"urls\":[\"bzz-raw://a8fa01f6e64dd204dbde07a60851e9a5a74e439e1411139ae16b7cf67d2a2692\",\"dweb:/ipfs/QmZAnHyfpKr3xr7NWHj5sGaCEEtG8RtmHhkRUJJvNauym5\"],\"license\":\"MIT\"},\"node_modules/@bananapus/721-hook/src/structs/JB721Tier.sol\":{\"keccak256\":\"0x2e267a8af02f125465cdda9308477346ae4a94b024c3b2c2a6af0c00027944dd\",\"urls\":[\"bzz-raw://367ccea2c8fa815d498d771d4367ef1ded718a76e89644102034bfe4a3636b82\",\"dweb:/ipfs/QmYiFFa6ei9wZBSSVUHfY2Cb35zCDVXvbmLcgLj2BTiC1u\"],\"license\":\"MIT\"},\"node_modules/@bananapus/721-hook/src/structs/JB721TierConfig.sol\":{\"keccak256\":\"0x2fa9c5c8cec182b854a656d3b284e9d5306be35ad3dc4da79d65dca12b804af0\",\"urls\":[\"bzz-raw://b443a5f70195a66145ea1dade04454ce9a3ff1209e1aaecf53c8a9909b294d79\",\"dweb:/ipfs/QmUDPFZ4L6XpV3zLQUNVchUvecD4XfddKz2S46BKek5XL1\"],\"license\":\"MIT\"},\"node_modules/@bananapus/721-hook/src/structs/JB721TiersHookFlags.sol\":{\"keccak256\":\"0x283d8429f31bd58875c056515aa42abd09c95362bd929e85cfc44a0d92585766\",\"urls\":[\"bzz-raw://9a580b89fe99d9f8e930c58a4d0d63a5ff7c01c79d210af01373d066c9e72ed6\",\"dweb:/ipfs/QmdY1eSGSoTjv4KSdsG4Tm5CzJN6iqk3qTRga5ZWNbejRz\"],\"license\":\"MIT\"},\"node_modules/@bananapus/721-hook/src/structs/JB721TiersMintReservesConfig.sol\":{\"keccak256\":\"0xab3b319dc4e736586ae595de194d93dcdfeba365bc7a54cf6c37e697f6074ad9\",\"urls\":[\"bzz-raw://a84ae2cf2e8c3e39e831dbb39a67a8eb43c78a6de6bb78b1be2e1f1e80c69efe\",\"dweb:/ipfs/QmboGXEMqsYTxc4a7oft9rggNU7ShWSa9yB4HFMVmzXCHz\"],\"license\":\"MIT\"},\"node_modules/@bananapus/core/src/enums/JBApprovalStatus.sol\":{\"keccak256\":\"0x61c69b6bac7d24b566d87cda23a77e4ca9cdb87200b106aba8534cb9a0973e33\",\"urls\":[\"bzz-raw://6a9ca7249de76f77a8252eefe6bd1b63d47952f25a2acfa2c8db967cdff4470c\",\"dweb:/ipfs/QmaxSxptRQNj8bNy96EreENmrnRWdKmhyihBcxyWzBX5BN\"],\"license\":\"MIT\"},\"node_modules/@bananapus/core/src/interfaces/IJBDirectory.sol\":{\"keccak256\":\"0x9cc380844aef60078ee47a61861e55a29c4a8c947efd556ebd36e6909f7b9d62\",\"urls\":[\"bzz-raw://9f5190ec8b6683d9781ee6e9eedcc91294753242748875d4a06349077e4cbaaf\",\"dweb:/ipfs/QmTQrPuXT9TCA4txwrperMeXSGvGxP8iokUK47f62F388i\"],\"license\":\"MIT\"},\"node_modules/@bananapus/core/src/interfaces/IJBPayHook.sol\":{\"keccak256\":\"0x9438866782c652c2942f4d114e35f393cd3c8b0334abce8387eed90bca35e8b2\",\"urls\":[\"bzz-raw://cfd99daf57213f92325aad7d7d16e98476d38e870470e95ba01e3ae3cdecc95d\",\"dweb:/ipfs/QmUKKAVGf7ki8BHksr99tFcRW8APveeB5tNH63ctTbbCW8\"],\"license\":\"MIT\"},\"node_modules/@bananapus/core/src/interfaces/IJBPriceFeed.sol\":{\"keccak256\":\"0x4bd84c0f1a5d4729ed709bcddd43f4c50ec4a165ece79780af8dce482ed07d4a\",\"urls\":[\"bzz-raw://62bac4bfb6982fb002f620c77e5c445e62d50241a5aa64a07e51d929f5a42180\",\"dweb:/ipfs/QmWgJUDreVY2BuMX38a1iUUR5kNbMwGnKG3VvurB7oZtuM\"],\"license\":\"MIT\"},\"node_modules/@bananapus/core/src/interfaces/IJBPrices.sol\":{\"keccak256\":\"0x99525f31440b955742dce84ba57de9fc1221139b5367c1f834723bef9e13e6e1\",\"urls\":[\"bzz-raw://6fa03f0cd4ad87dd7cbae7bf7f54463450874291773c8f70f2c31ef2cae62bb0\",\"dweb:/ipfs/QmSPajPV5ismteJuB6Spzm9VmhTj2iS3eVrfpJC1Zuzg8n\"],\"license\":\"MIT\"},\"node_modules/@bananapus/core/src/interfaces/IJBProjects.sol\":{\"keccak256\":\"0x735c2fb8f1fa827f054ee77f7a0ae4b312656217acb75b624d2c8fd9dc40151b\",\"urls\":[\"bzz-raw://ee7fc92299a8633a80693ae63ab494dcd125f1789487a54a39dc0e5696e5996f\",\"dweb:/ipfs/QmX7YJD4pS2XhgQb7p3JbBAXynT7YGPXcZe92BiWWRrsCL\"],\"license\":\"MIT\"},\"node_modules/@bananapus/core/src/interfaces/IJBRulesetApprovalHook.sol\":{\"keccak256\":\"0x592e95d159494421c6b1bcb362d0cee1df0132921697351304e9cd7af4fbd386\",\"urls\":[\"bzz-raw://5bebfd5fa67c1b6ea16fa2e76e9520e9dfe52a579f48dd94d0c2ec45f78ad178\",\"dweb:/ipfs/QmRUawEGtfYoYSHmHELGhvJoWuMsxLPKtqAXgsrb7fJboP\"],\"license\":\"MIT\"},\"node_modules/@bananapus/core/src/interfaces/IJBRulesets.sol\":{\"keccak256\":\"0x733fbe50cf2157c936a1d4f0014c14ca90a3da1b1379e2e8a802e39340ed1434\",\"urls\":[\"bzz-raw://f16a428bacc0310dffadd399f3ef2f5f5c2813ebc0e4f12955cac0062a192497\",\"dweb:/ipfs/QmXtG5VAsSLH5Ew6wegTaJn4ymPgiLGy3zN55JrqqxKVjd\"],\"license\":\"MIT\"},\"node_modules/@bananapus/core/src/interfaces/IJBTerminal.sol\":{\"keccak256\":\"0x19dc9bf8cbdc8f13ee5da9dc3a87047eacb94a3fc19740a286c1f0bad2cc39ca\",\"urls\":[\"bzz-raw://0b05ae6fda9a85672508232fd992b8a5f5ffd8096622eeb12c8a7b3317eb3867\",\"dweb:/ipfs/QmNh9Quj37BXYGdTdcCD1Q58PchRsE5TLbEZep56qS3MpV\"],\"license\":\"MIT\"},\"node_modules/@bananapus/core/src/interfaces/IJBTokenUriResolver.sol\":{\"keccak256\":\"0xfa5cb00dcd6085d1ef912d071fe73c63f9478a2cd0f9d8bddaf659b6af2d0967\",\"urls\":[\"bzz-raw://282e4e7c342d65f77cde0e9a08fcaf20ef5cf379c7a48b639842c0ffd0b2afb8\",\"dweb:/ipfs/QmbnN3PEQeZaXdPLT75V1J79kMg7KqSMru37RHrL3z8Yf2\"],\"license\":\"MIT\"},\"node_modules/@bananapus/core/src/structs/JBAccountingContext.sol\":{\"keccak256\":\"0x2907ff54d1e903cc7e0390dd88c3975884702dc2673642aacbe22b66560b56de\",\"urls\":[\"bzz-raw://a66a5381ce877b32f0e0058ceeaf843e9b6b2bc8af666c0c9f4a9d01091da004\",\"dweb:/ipfs/QmQynCetUr37dBkS1YwDS8evxuXGiqanW6THmeUxXtim8w\"],\"license\":\"MIT\"},\"node_modules/@bananapus/core/src/structs/JBAfterPayRecordedContext.sol\":{\"keccak256\":\"0xd26c3a774ff38be79064085970454fe2603a23a638c76270d5b1b3829206c3e8\",\"urls\":[\"bzz-raw://3b55dbe3bf1ef625b7ca04efab3de35406e6041d5b3d82c7265469c500e2b702\",\"dweb:/ipfs/QmUdBDo4Lt3mcsFcsXT2mqq3czFwZjQJFPLM89YA2VtD7k\"],\"license\":\"MIT\"},\"node_modules/@bananapus/core/src/structs/JBRuleset.sol\":{\"keccak256\":\"0x15b2bf3174d84846a91ccbf5a344dfb125b55ed9cf50102db8d6868844225189\",\"urls\":[\"bzz-raw://647416b025dbd941094db89cbc69f755c155bd6c87be3f322394ccc4a8e0442d\",\"dweb:/ipfs/QmTCL9xcHnxQ4t5AmCPoZvXDUPW5xhzhyyXYbkMdyg44au\"],\"license\":\"MIT\"},\"node_modules/@bananapus/core/src/structs/JBTokenAmount.sol\":{\"keccak256\":\"0x5cf0626b73a596c1e2da17c89ae039a7c0374310b060d48568d3b6c11fbe6180\",\"urls\":[\"bzz-raw://63348b50be95e2995409394a17caffc563a646f0972650a1230bf864fbd3219b\",\"dweb:/ipfs/QmZXZpS3SbFD5nWaCauf6AqbEhLURv5qsKHpThBvQgDU6u\"],\"license\":\"MIT\"},\"node_modules/@openzeppelin/contracts/access/Ownable.sol\":{\"keccak256\":\"0xff6d0bb2e285473e5311d9d3caacb525ae3538a80758c10649a4d61029b017bb\",\"urls\":[\"bzz-raw://8ed324d3920bb545059d66ab97d43e43ee85fd3bd52e03e401f020afb0b120f6\",\"dweb:/ipfs/QmfEckWLmZkDDcoWrkEvMWhms66xwTLff9DDhegYpvHo1a\"],\"license\":\"MIT\"},\"node_modules/@openzeppelin/contracts/interfaces/draft-IERC6093.sol\":{\"keccak256\":\"0x60c65f701957fdd6faea1acb0bb45825791d473693ed9ecb34726fdfaa849dd7\",\"urls\":[\"bzz-raw://ea290300e0efc4d901244949dc4d877fd46e6c5e43dc2b26620e8efab3ab803f\",\"dweb:/ipfs/QmcLLJppxKeJWqHxE2CUkcfhuRTgHSn8J4kijcLa5MYhSt\"],\"license\":\"MIT\"},\"node_modules/@openzeppelin/contracts/metatx/ERC2771Context.sol\":{\"keccak256\":\"0x98256cf37b71a69b2f5a8a6fe975ea03590dff703102bd141a830f94e8adebf6\",\"urls\":[\"bzz-raw://6251fe1f6a1e45e6d619d150c123afc88b8646b38ee26a136efa9a6988a31d3f\",\"dweb:/ipfs/QmeXDT85wSZdP31wkz3ah3KhponCiksJLP5o2LR5e1JxcK\"],\"license\":\"MIT\"},\"node_modules/@openzeppelin/contracts/token/ERC721/IERC721.sol\":{\"keccak256\":\"0x5ef46daa3b58ef2702279d514780316efaa952915ee1aa3396f041ee2982b0b4\",\"urls\":[\"bzz-raw://2f8f2a76e23b02fc69e8cd24c3cb47da6c7af3a2d6c3a382f8ac25c6e094ade7\",\"dweb:/ipfs/QmPV4ZS4tPVv4mTCf9ejyZ1ai57EEibDRj7mN2ARDCLV5n\"],\"license\":\"MIT\"},\"node_modules/@openzeppelin/contracts/token/ERC721/IERC721Receiver.sol\":{\"keccak256\":\"0x7f7a26306c79a65fb8b3b6c757cd74660c532cd8a02e165488e30027dd34ca49\",\"urls\":[\"bzz-raw://d01e0b2b837ee2f628545e54d8715b49c7ef2befd08356c2e7f6c50dde8a1c22\",\"dweb:/ipfs/QmWBAn6y2D1xgftci97Z3qR9tQnkvwQpYwFwkTvDMvqU4i\"],\"license\":\"MIT\"},\"node_modules/@openzeppelin/contracts/token/ERC721/extensions/IERC721Metadata.sol\":{\"keccak256\":\"0x37d1aaaa5a2908a09e9dcf56a26ddf762ecf295afb5964695937344fc6802ce1\",\"urls\":[\"bzz-raw://ed0bfc1b92153c5000e50f4021367b931bbe96372ac6facec3c4961b72053d02\",\"dweb:/ipfs/Qmbwp8VDerjS5SV1quwHH1oMXxPQ93fzfLVqJ2RCqbowGE\"],\"license\":\"MIT\"},\"node_modules/@openzeppelin/contracts/utils/Context.sol\":{\"keccak256\":\"0x493033a8d1b176a037b2cc6a04dad01a5c157722049bbecf632ca876224dd4b2\",\"urls\":[\"bzz-raw://6a708e8a5bdb1011c2c381c9a5cfd8a9a956d7d0a9dc1bd8bcdaf52f76ef2f12\",\"dweb:/ipfs/Qmax9WHBnVsZP46ZxEMNRQpLQnrdE4dK8LehML1Py8FowF\"],\"license\":\"MIT\"},\"node_modules/@openzeppelin/contracts/utils/Strings.sol\":{\"keccak256\":\"0x55f102ea785d8399c0e58d1108e2d289506dde18abc6db1b7f68c1f9f9bc5792\",\"urls\":[\"bzz-raw://6e52e0a7765c943ef14e5bcf11e46e6139fa044be564881378349236bf2e3453\",\"dweb:/ipfs/QmZEeeXoFPW47amyP35gfzomF9DixqqTEPwzBakv6cZw6i\"],\"license\":\"MIT\"},\"node_modules/@openzeppelin/contracts/utils/introspection/ERC165.sol\":{\"keccak256\":\"0x9e8778b14317ba9e256c30a76fd6c32b960af621987f56069e1e819c77c6a133\",\"urls\":[\"bzz-raw://1777404f1dcd0fac188e55a288724ec3c67b45288e49cc64723e95e702b49ab8\",\"dweb:/ipfs/QmZFdC626GButBApwDUvvTnUzdinevC3B24d7yyh57XkiA\"],\"license\":\"MIT\"},\"node_modules/@openzeppelin/contracts/utils/introspection/IERC165.sol\":{\"keccak256\":\"0x4296879f55019b23e135000eb36896057e7101fb7fb859c5ef690cf14643757b\",\"urls\":[\"bzz-raw://87b3541437c8c443ccd36795e56a338ed12855eec17f8da624511b8d1a7e14df\",\"dweb:/ipfs/QmeJQCtZrQjtJLr6u7ZHWeH3pBnjtLWzvRrKViAi7UZqxL\"],\"license\":\"MIT\"},\"node_modules/@openzeppelin/contracts/utils/math/Math.sol\":{\"keccak256\":\"0x005ec64c6313f0555d59e278f9a7a5ab2db5bdc72a027f255a37c327af1ec02d\",\"urls\":[\"bzz-raw://4ece9f0b9c8daca08c76b6b5405a6446b6f73b3a15fab7ff56e296cbd4a2c875\",\"dweb:/ipfs/QmQyRpyPRL5SQuAgj6SHmbir3foX65FJjbVTTQrA2EFg6L\"],\"license\":\"MIT\"},\"node_modules/@openzeppelin/contracts/utils/math/SignedMath.sol\":{\"keccak256\":\"0x5f7e4076e175393767754387c962926577f1660dd9b810187b9002407656be72\",\"urls\":[\"bzz-raw://7d533a1c97cd43a57cd9c465f7ee8dd0e39ae93a8fb8ff8e5303a356b081cdcc\",\"dweb:/ipfs/QmVBEei6aTnvYNZp2CHYVNKyZS4q1KkjANfY39WVXZXVoT\"],\"license\":\"MIT\"},\"src/Banny721TokenUriResolver.sol\":{\"keccak256\":\"0x2f9db0062c6356379c35568966c648e89aee77f4433c36fa2fdd3ab26aa62571\",\"urls\":[\"bzz-raw://29e900596f54a7141d442d00e1f62a8801343a22ffe06672a5baa0b909ed49c3\",\"dweb:/ipfs/QmSrMCcJi6EXADeGqSsz4m9hYLL388vwwvSoeV7xmGFCyo\"],\"license\":\"MIT\"}},\"version\":1}",
			"args": [
				"0x9b2AEbe9ffa55703e4A7a3F1114e66f3170C80Bc",
				"0xB2b5841DBeF766d4b521221732F9B618fCf34A87"
			],
			"bytecode": "0x60a034620000e957601f6200608438819003918201601f19168301916001600160401b03831184841017620000ee578084926040948552833981010312620000e9576200005a6020620000528362000104565b920162000104565b6080526001600160a01b039081168015620000d057600080546001600160a01b03198116831782556040519316907f8be0079c531659141344cd1fd0a4f28419497f9722a3daafe3b4186f6b6457e09080a3615f6a90816200011a8239608051818181610723015281816108560152615d770152f35b604051631e4fbdf760e01b815260006004820152602490fd5b600080fd5b634e487b7160e01b600052604160045260246000fd5b51906001600160a01b0382168203620000e95756fe6080604052600436101561001257600080fd5b60003560e01c806257bfdd1461013657806318ab522d1461013157806331a290ac1461012c578063572b6c05146101275780635e703e71146101225780636aff31dd1461011d578063715018a61461011857806379a2696e146101135780637da0a8771461010e578063875e4bea146101095780638da5cb5b14610104578063a0122c09146100ff578063a22d0dd5146100fa578063b03a3eab146100f5578063b1fa9e7b146100f0578063c06e7bc7146100eb578063d756227e146100e65763f2fde38b146100e157600080fd5b611461565b611392565b610cca565b610c9f565b610bfa565b610bb5565b610a79565b610a16565b610885565b610840565b61080d565b6107af565b610783565b610757565b6106ff565b610590565b610451565b610407565b90600182811c9216801561016b575b602083101461015557565b634e487b7160e01b600052602260045260246000fd5b91607f169161014a565b634e487b7160e01b600052604160045260246000fd5b602081019081106001600160401b038211176101a657604052565b610175565b604081019081106001600160401b038211176101a657604052565b61026081019081106001600160401b038211176101a657604052565b6111a081019081106001600160401b038211176101a657604052565b606081019081106001600160401b038211176101a657604052565b6101c081019081106001600160401b038211176101a657604052565b90601f801991011681019081106001600160401b038211176101a657604052565b604051906000826002549161026a8361013b565b808352926020906001908181169081156102f85750600114610297575b505061029592500383610235565b565b91509260026000527f405787fa12a823e0f2b7631cc41b3ba8828b3321ca811111fa75cd3aa3bb5ace936000925b8284106102e057506102959450505081016020013880610287565b855488850183015294850194879450928101926102c5565b9150506020925061029594915060ff191682840152151560051b8201013880610287565b9060405191826000825461032f8161013b565b9081845260209460019160018116908160001461039d575060011461035e575b50505061029592500383610235565b600090815285812095935091905b818310610385575050610295935082010138808061034f565b8554888401850152948501948794509183019161036c565b9250505061029594925060ff191682840152151560051b82010138808061034f565b60005b8381106103d25750506000910152565b81810151838201526020016103c2565b906020916103fb815180928185528580860191016103bf565b601f01601f1916010190565b3461043b57600036600319011261043b57610437610423610256565b6040519182916020835260208301906103e2565b0390f35b600080fd5b6001600160a01b0381160361043b57565b3461043b57604036600319011261043b5761047a60043561047181610440565b602435906114ed565b906040519182916040830190835260209060406020850152825180915260206060850193019160005b8281106104b257505050500390f35b8351855286955093810193928101926001016104a3565b604051906101a082018281106001600160401b038211176101a657604052565b6001600160401b0381116101a65760051b60200190565b9080601f8301121561043b57602090823561051a816104e9565b936105286040519586610235565b81855260208086019260051b82010192831161043b57602001905b828210610551575050505090565b81358152908301908301610543565b9181601f8401121561043b578235916001600160401b03831161043b576020808501948460051b01011161043b57565b3461043b5760408060031936011261043b576004906001600160401b03823581811161043b576105c39036908501610500565b9060243590811161043b576105db9036908501610560565b92909180519360005b8581106105ed57005b6105f781846115a5565b5161060d6106068385896115b9565b369161135b565b610629610624836000526004602052604060002090565b6115fa565b6106ef57610641826000526001602052604060002090565b5480156106df578651602081019061066b8161065d8487611604565b03601f198101835282610235565b519020036106cf57907faeb631726b45aa3f6b09da79f7af03a9784614901f61a967ed84d63c37b7edc76106c6836106b9600196956106b4866000526004602052604060002090565b6116cd565b88519182913390836117a2565b0390a2016105e4565b85516375b5da0b60e01b81528990fd5b8651637ef41a4f60e01b81528a90fd5b8551630388067760e21b81528990fd5b3461043b57602036600319011261043b57602060043561071e81610440565b6040517f00000000000000000000000000000000000000000000000000000000000000006001600160a01b039081169216919091148152f35b3461043b57604036600319011261043b5761043761042360043561077a81610440565b60243590611c3c565b3461043b57602036600319011261043b5760043560005260016020526020604060002054604051908152f35b3461043b5760008060031936011261080a576107c96151ea565b80546001600160a01b03198116825581906001600160a01b03167f8be0079c531659141344cd1fd0a4f28419497f9722a3daafe3b4186f6b6457e08280a380f35b80fd5b3461043b57604036600319011261043b57602061083860043561082f81610440565b602435906122b9565b604051908152f35b3461043b57600036600319011261043b576040517f00000000000000000000000000000000000000000000000000000000000000006001600160a01b03168152602090f35b3461043b5760208060031936011261043b576004356001600160401b0380821161043b573660238301121561043b57816004013590811161043b57602492366024838501011161043b576108d76151ea565b6108eb826108e660025461013b565b611632565b600093601f831160011461096957505061093e81807f512c3c91736f50c57a0548c1d01ab02f24c420f002b8b20e2bfe63df9693cd3f9560009161095b575b508160011b916000199060031b1c19161790565b6002555b610956604051928392602433920184612317565b0390a1005b60249150850101353861092a565b6002600052601f19831694907f405787fa12a823e0f2b7631cc41b3ba8828b3321ca811111fa75cd3aa3bb5ace9282915b8783106109fa57505050827f512c3c91736f50c57a0548c1d01ab02f24c420f002b8b20e2bfe63df9693cd3f95106109dd575b5050600181811b01600255610942565b830160240135600019600384901b60f8161c1916905538806109cd565b908060018596848396978b01013581550195019301919061099a565b3461043b57600036600319011261043b576000546040516001600160a01b039091168152602090f35b91610a6890610a5a610a7695936060865260608601906103e2565b9084820360208601526103e2565b9160408184039101526103e2565b90565b3461043b57604036600319011261043b57600435610a9681610440565b60405163507f146560e01b815260243591906001600160a01b03906020816004818587165afa8015610b7557610b0d9360009386938593610b7a575b5060405163c44a8e6d60e01b81526001600160a01b039092166004830152602482019390935260006044820152938492839182906064820190565b0392165afa908115610b7557600091610b52575b50610437610b46610b40610100610b388587614bd9565b940151614f7a565b93614d3b565b60405193849384610a3f565b610b6f91503d806000833e610b678183610235565b810190611843565b38610b21565b6117df565b610b9d91935060203d602011610ba4575b610b958183610235565b8101906117ca565b9138610ad2565b503d610b8b565b8015150361043b57565b3461043b57608036600319011261043b57610437610423600435610bd881610440565b604435610be481610bab565b60643591610bf183610bab565b602435906128de565b3461043b57604036600319011261043b576001600160401b0360043581811161043b57610c2b903690600401610500565b9060243590811161043b573660238201121561043b578060040135610c4f816104e9565b91610c5d6040519384610235565b8183526020916024602085019160051b8301019136831161043b57602401905b828210610c9057610c8e8587612a69565b005b81358152908301908301610c7d565b3461043b57604036600319011261043b576020610838600435610cc181610440565b60243590612b0c565b3461043b57608036600319011261043b5760048035610ce881610440565b60243591604435916064356001600160401b03811161043b57610d0e9036908401610560565b93909160018060a01b039081811694604092835191610d476331a9108f60e11b938481528b818060209485938783019190602083019252565b03818d5afa908115610b7557600091611323575b5083610d74610d68615d74565b6001600160a01b031690565b911603611314578a8a88156112e15750508551848152818180610d9e8b8783019190602083019252565b03818d5afa908115610b75576000916112c4575b5083610dbf610d68615d74565b9116036112b557610dd087866122b9565b6112a657855163507f146560e01b8152818184818d5afa8015610b7557610e3760009186938391611289575b50895163c44a8e6d60e01b81526001600160a01b038a16878201908152602081018d9052600060408201529094859384928391606090910190565b0392165afa908115610b755760009161126e575b50511561125f57918493918a9388610e898e610e7a819a60018060a01b03166000526006602052604060002090565b90600052602052604060002090565b5586610eab8a610e7a8960018060a01b03166000526007602052604060002090565b5591909293505b600091610ebd612be0565b5060009182808e5b8210610f3c57505050505050505095610f248186610f1f610f379695610e7a7f6a68946ba06488db8585d7c7637fa954b574035fe15720ea760125ef860172589b9c60018060a01b03166000526005602052604060002090565b612c94565b610f2c615d74565b915194859485612d0d565b0390a3005b87989950610f778f948f8f908a8f9287859b9c9d9e98999a610f5d92612c51565b359687935195869485938493845283019190602083019252565b03915afa908115610b7557600091611242575b5084610f97610d68615d74565b91160361123257610fa8828b612b0c565b6112225787858f8d519283809263507f146560e01b82525afa8015610b7557836000918d8f8d8a91611016978795611203575b505163c44a8e6d60e01b81526001600160a01b0390931690830190815260208101949094526000604085015290948593849291839160600190565b0392165afa908115610b75576000916111ea575b508051156111da5761010001968751600281109081156111cf575b506111bf5783151590816111b3575b506111a357918f9998969492918f9896949286518881146000146110b3575050899695949392918b6110a5600193610e7a85995b516001600160a01b03909c16600090815260086020526040902090565b550191939092949697610ec5565b600891999b9c5080929496939597989a50146000146110ec57505092889795928f9995928f9895908b6110a5600193610e7a8598611088565b979f9d9b9998979a9e9c9a600581979297148015611199575b801561118f575b80611188575b1561112757508f8f51631e550b6f60e11b8152fd5b9d9f9798999b9d9c9e9a9c600a811490811561117d575b5080611176575b61116657928f999896938f989592938b6110a58c9996610e7a600195611088565b8a51635e701b2b60e01b81528890fd5b5085611145565b60099150143861113e565b5087611112565b50600b811461110c565b5060068114611105565b8a51637dc0e82560e11b81528890fd5b90508751111538611054565b8b5163c89badbd60e01b81528990fd5b600d91501138611045565b8b516354c0901d60e11b81528990fd5b6111fd913d8091833e610b678183610235565b3861102a565b61121b9195508d803d10610ba457610b958183610235565b9338610fdb565b8a5163670bdddd60e11b81528890fd5b8a5163812a698960e01b81528890fd5b6112599150863d8811610ba457610b958183610235565b38610f8a565b50845163265ba87960e01b8152fd5b61128391503d806000833e610b678183610235565b38610e4b565b6112a09150853d8711610ba457610b958183610235565b38610dfc565b50845163670bdddd60e11b8152fd5b508451639d17cec760e01b8152fd5b6112db9150823d8411610ba457610b958183610235565b38610db2565b9391600061130983610e7a8a9997959a60018060a01b03166000526006602052604060002090565b559190929350610eb2565b508451632add3f4b60e01b8152fd5b61133a9150823d8411610ba457610b958183610235565b38610d5b565b6001600160401b0381116101a657601f01601f191660200190565b92919261136782611340565b916113756040519384610235565b82948184528183011161043b578281602093846000960137010152565b3461043b57604036600319011261043b576001600160401b0360043581811161043b576113c3903690600401610500565b60249060243583811161043b573660238201121561043b578060040135926113ea846104e9565b936113f86040519586610235565b8085526020956024602087019260051b8501019336851161043b5760248101925b85841061142a57610c8e8888612d50565b833583811161043b5782013660438201121561043b5789916114568392369060448a820135910161135b565b815201930192611419565b3461043b57602036600319011261043b5760043561147e81610440565b6114866151ea565b6001600160a01b0390811680156114d457600080546001600160a01b03198116831782559092167f8be0079c531659141344cd1fd0a4f28419497f9722a3daafe3b4186f6b6457e08380a380f35b604051631e4fbdf760e01b815260006004820152602490fd5b6001600160a01b038116600090815260056020908152604080832085845282528083209051815480825291845282842081840197969392855b81811061156957505050806115446115609260409798990382610235565b6001600160a01b03909616600090815260066020526040902090565b91835252205491565b82548a529884019860019283019201611526565b634e487b7160e01b600052603260045260246000fd5b8051156115a05760200190565b61157d565b80518210156115a05760209160051b010190565b91908110156115a05760051b81013590601e198136030182121561043b5701908135916001600160401b03831161043b57602001823603811361043b579190565b610a76905461013b565b90611617602092828151948592016103bf565b0190565b818110611626575050565b6000815560010161161b565b90601f821161163f575050565b6102959160026000527f405787fa12a823e0f2b7631cc41b3ba8828b3321ca811111fa75cd3aa3bb5ace906020601f840160051c83019310611689575b601f0160051c019061161b565b909150819061167c565b9190601f81116116a257505050565b610295926000526020600020906020601f840160051c8301931061168957601f0160051c019061161b565b91909182516001600160401b0381116101a6576116f4816116ee845461013b565b84611693565b602080601f83116001146117375750819061172893949560009261172c575b50508160011b916000199060031b1c19161790565b9055565b015190503880611713565b90601f1983169561174d85600052602060002090565b926000905b88821061178a57505083600195969710611771575b505050811b019055565b015160001960f88460031b161c19169055388080611767565b80600185968294968601518155019501930190611752565b906117ba6020919493946040845260408401906103e2565b6001600160a01b03909416910152565b9081602091031261043b5751610a7681610440565b6040513d6000823e3d90fd5b519061029582610440565b519061029582610bab565b81601f8201121561043b57805161181781611340565b926118256040519485610235565b8184526020828401011161043b57610a7691602080850191016103bf565b60208183031261043b5780516001600160401b039182821161043b57016101a08184031261043b576118736104c9565b92815184526020820151602085015260408201516040850152606082015160608501526080820151608085015260a082015160a08501526118b660c083016117eb565b60c085015260e082015160e085015261010080830151908501526101206118de8184016117f6565b908501526101406118f08184016117f6565b908501526101606119028184016117f6565b90850152610180928383015190811161043b5761191f9201611801565b9082015290565b604051906119338261018b565b60008252565b60405190611946826101ab565b600e82526d226f7574666974496473223a205b60901b6020830152565b60236102959193929360405194816119858793518092602080870191016103bf565b8201601160f91b60208201526119a58251809360206021850191016103bf565b0161088b60f21b6021820152036003810185520183610235565b906102956022604051846119dd8296518092602080860191016103bf565b810161174b60f21b6020820152036002810185520183610235565b602e610295919392936040519481611a1a8793518092602080870191016103bf565b82016b113bb7b9363224b2111d101160a11b6020820152611a45825180936020602c850191016103bf565b0161088b60f21b602c82015203600e810185520183610235565b90604051918260605160005b818110611aa0575090602061029593611a948294840191838301600081528151948592016103bf565b01038085520183610235565b6020919250806080015182828801015201908491611a6b565b6020610295919392936040519481611ada87935180928680870191016103bf565b8201611a94825180938680850191016103bf565b90610295603960405180947f22776f726e42794e616b656442616e6e794964223a20220000000000000000006020830152611b338151809260206037860191016103bf565b810161088b60f21b6037820152036019810185520183610235565b90610295603960405180947f227573656442794e616b656442616e6e794964223a20220000000000000000006020830152611b338151809260206037860191016103bf565b9060208282031261043b5781516001600160401b03811161043b57610a769201611801565b9081602091031261043b575190565b9081606091031261043b5780519160406020830151920151610a7681610440565b90610295603d60405180947f646174613a6170706c69636174696f6e2f6a736f6e3b6261736536342c0000006020830152611c2c81518092602086860191016103bf565b810103601d810185520183610235565b6040805163507f146560e01b808252602092916001600160a01b03919060049086841686828481845afa8015610b755789600091611cb894839161229c575b50885163c44a8e6d60e01b81526001600160a01b038c1687820190815260208101939093526000604084015294859283918a918391606090910190565b0392165afa918215610b7557600092612281575b5081511561227057611cdc611926565b5061010082018051909490156121e357611cf783518a6130d8565b9889516121ac575b855160010361219157611d22611d1d611d188d846122b9565b612f2a565b611b4e565b965b8a511561205f575050865163043c358d60e11b81529360609285925082905afa908115610b755760009260009261202a575b50611d61818a614bd9565b988151611d6d90614d3b565b948051611d7990614f7a565b91611d8390612f2a565b908351611d8f90612f2a565b9051611d9a90612f2a565b916060850151611da990612f2a565b938b8b870151611db890612f2a565b960151611dc490612f2a565b96611dce90612f2a565b97611dd890612f2a565b988c8c519e8f918201611dea91611604565b039d601f199e8f81018252611dff9082610235565b611e0890615101565b9b51683d913730b6b2911d1160b91b9d81019d8e529e8f9d600901611e2c91611604565b7211161011383937b23ab1ba2730b6b2911d101160691b8152601301611e5191611604565b731116101131b0ba32b3b7b93ca730b6b2911d101160611b8152601401611e7791611604565b6e111610113a37b5b2b724b2111d101160891b8152600f01611e9891611604565b6a111610113ab831911d101160a91b8152600b01611eb591611604565b6f1116101131b0ba32b3b7b93c911d101160811b8152601001611ed791611604565b6d1116101139bab838363c911d101160911b8152600e01611ef791611604565b70111610113932b6b0b4b734b733911d101160791b8152601101611f1a91611604565b6c11161011383934b1b2911d101160991b8152600d01611f3991611604565b6f111610113232b1b4b6b0b639911d101160811b8152601001611f5b91611604565b6f1116101131bab93932b731bc911d101160811b8152601001611f7d91611604565b6201116160ed1b8152600301611f9291611604565b7f226465736372697074696f6e223a2241207069656365206f662074686520426181527f6e6e797665727365222c22696d616765223a22646174613a696d6167652f737660208201526c19cade1b5b0ed8985cd94d8d0b609a1b6040820152604d01611ffd91611604565b61227d60f01b81526002010390810182526120189082610235565b61202190615101565b610a7690611be8565b90925061204f915060603d606011612058575b6120478183610235565b810190611bc7565b50909138611d56565b503d61203d565b935093949097999550600d919698505111600014612182578651636c0360eb60e01b81526000818581895afa8015610b7557899160009161215f575b50965b8489518098819382525afa928315610b75576120f2978996600095612140575b5051630c8df17160e41b81526001600160a01b03909316908301908152602081019490945290958693849291839160400190565b0392165afa918215610b7557610a7693600093612111575b50506148f2565b612131929350803d10612139575b6121298183610235565b810190611bb8565b90388061210a565b503d61211f565b612158919550873d8911610ba457610b958183610235565b93386120be565b61217c91503d806000833e6121748183610235565b810190611b93565b3861209b565b8761218b610256565b9661209e565b6121a66121a1611d188d84612b0c565b611aee565b96611d24565b986121bf9060018751036121c5576147ff565b98611cff565b6121de906121d96121d46131d8565b614739565b611ab9565b6147ff565b6121ed8a8a612749565b986121f88b826114ed565b8098919851612205611939565b906000925b81841061224557505061221d91506119bf565b978061222a575b50611d24565b9761223861223e9299612f2a565b906119f8565b9638612224565b909161226660019161226061225a87866115a5565b51612f2a565b90611963565b930192919061220a565b505050505050505050610a76611926565b61229591923d8091833e610b678183610235565b9038611ccc565b6122b391508a3d8c11610ba457610b958183610235565b38611c7b565b60018060a01b031660009080825260076020526040822083835260205260408220549283159182156122f5575b50506122f0575090565b905090565b90915082526006602052604082208383526020526040822054141538806122e6565b918060609160209396959660408652816040870152838601376000828286010152601f80199101168301019360018060a01b0316910152565b6040519061010082018281106001600160401b038211176101a65760405260dd82527f746820643d224d3138302031343768337633682d337a222f3e3c2f673e00000060e0837f3c6720636c6173733d226f223e3c7061746820643d224d31373720313430763360208201527f6836763131683130762d31316834762d33682d32307a222f3e3c70617468206460408201527f3d224d31353320313430763368377638203368372033762d31316833762d336860608201527f2d32307a222f3e3c2f673e3c6720636c6173733d2277223e3c7061746820643d60808201527f224d3135332031343368377634682d377a222f3e3c7061746820643d224d313560a08201527f372031343768337633682d337a6d32302d3468367634682d367a222f3e3c706160c08201520152565b6040519061248b826101c6565b61023a82527f643d224d3139302031333768347633682d347a222f3e3c2f673e000000000000610240837f3c6720636c6173733d226f223e3c7061746820643d224d31393020313237683360208201527f7633682d337a6d3320313368347633682d347a6d2d3432203068367636682d3660408201527f7a222f3e3c7061746820643d224d3135312031333368337637682d337a6d313060608201527f203068367634682d367a222f3e3c7061746820643d224d31353720313337683160808201527f377636682d31377a6d332031336831347633682d31347a6d31372d313368377660a08201527f3136682d377a222f3e3c7061746820643d224d3138342031333768367636682d60c08201527f367a6d302031306831307636682d31307a222f3e3c7061746820643d224d313860e08201527f37203134336831307634682d31307a222f3e3c7061746820643d224d313930206101008201527f31343068337633682d337a6d2d362d313068337637682d337a222f3e3c7061746101208201527f6820643d224d3138372031333068367633682d367a6d2d3336203068313076336101408201527f682d31307a6d313620313368377637682d377a6d2d3130203068377637682d376101608201527f7a222f3e3c7061746820643d224d3136342031343768337633682d337a6d32396101808201527f2d323068347636682d347a222f3e3c7061746820643d224d31393420313333686101a08201527f337637682d337a222f3e3c2f673e3c6720636c6173733d2277223e3c706174686101c08201527f20643d224d3135342031333368377634682d377a222f3e3c7061746820643d226101e08201527f4d3135342031333768337633682d337a6d3130203668337634682d337a6d32306102008201527f203068337634682d337a6d332d313068377634682d377a222f3e3c70617468206102208201520152565b60405163507f146560e01b81526001600160a01b036020826004818685165afa918215610b75576000926128ba575b5060405163c44a8e6d60e01b81526001600160a01b0384166004820152602481018590526000604482018190529092909183916064918391165afa908115610b75576000916128a1575b5080511561289657606092610100820151612871579261282891600161280f6127ee610a7697876114ed565b94908015158061286a575b612850575b50612809845161522b565b90611ab9565b915103612844576128229061280961247e565b92615654565b8051612835575b506147ff565b61283e91611ab9565b3861282f565b61282290612809612350565b612864915061285f90886130d8565b611a5f565b386127fe565b50836127f9565b5061287e925051906130d8565b805161288d5750610a76611926565b610a76906147ff565b505050610a76611926565b6128b4913d8091833e610b678183610235565b386127c2565b60009192506128d79060203d602011610ba457610b958183610235565b9190612778565b60405163507f146560e01b81529390916001600160a01b036020866004818488165afa958615610b7557600096612a45575b5060405163c44a8e6d60e01b81526001600160a01b0385166004820152602481018390526000604482018190529096909187916064918391165afa948515610b7557600095612a2a575b50845115612a1d57606090610100860151612a0d5761299e610a769692612983600193876114ed565b958115159081612a05575b506129f65750612809845161522b565b9151036129e4576129b19061280961247e565b925b6129bf575b50506147ff565b6129c891615654565b80516129d5575b806129b8565b6129de91611ab9565b386129cf565b6129f090612809612350565b926129b3565b612864915061285f90876130d8565b90503861298e565b505050905061287e9151906130d8565b5050505050610a76611926565b612a3e91953d8091833e610b678183610235565b933861295a565b6000919650612a629060203d602011610ba457610b958183610235565b9590612910565b90612a726151ea565b81519060009260005b838110612a89575050505050565b612a9381836115a5565b51612a9e82856115a5565b5190808752602060018152604080892054612afc5782917fb10eb6fc7557a7109693cb8f3fac48d44328de56c0368ee4cac539b424d2cad99185612af060019897966000526001602052604060002090565b5551338152a301612a7b565b516333ded41b60e21b8152600490fd5b6001600160a01b03811660009081526008602090815260408083208584528252822054919390928215612bd9576001600160a01b03166000908152600560205260409020828552835260408420926040518094859183825491828152019188528388209388905b828210612bbf57505050612b8992500384610235565b825192845b848110612b9d57505050505090565b82612ba882846115a5565b5114612bb657600101612b8e565b50505091505090565b855484526001958601958995509381019390910190612b73565b5050505090565b604051906101a082018281106001600160401b038211176101a657604052606061018083600080825280602083015280604083015280848301528060808301528060a08301528060c08301528060e08301528061010083015280610120830152806101408301526101608201520152565b91908110156115a05760051b0190565b634e487b7160e01b600052601160045260246000fd5b600281901b91906001600160fe1b03811603612c8f57565b612c61565b906001600160401b0383116101a6576801000000000000000083116101a6578154838355808410612cef575b50906000526020806000209060005b848110612cdd575050505050565b83358382015592810192600101612ccf565b612d079083600052846020600020918201910161161b565b38612cc0565b9081526060602082018190528101839052929392916001600160fb1b03811161043b5760409160809160051b8091838601378301019360018060a01b0316910152565b9190612d5a6151ea565b82516000935b818510612d6e575050509050565b612d7885826115a5565b5194612d8481856115a5565b51958060005260039660209780895260409081600020908351906001600160401b0382116101a657612dc082612dba855461013b565b85611693565b8b601f8311600114612e43575050917f9dedd219289ed514faff576c477c66bd097aef59a236e3b8ebcf0d0070cb4e969391612e1c84612e2b9560019a9b9c9d9e600091612e3857508160011b916000199060031b1c19161790565b90555b519182913390836117a2565b0390a20193929190612d60565b90508501513861092a565b909b601f198316612e5985600052602060002090565b926000905b828210612ec8575050916001999a9b9c9d8492612e2b97957f9dedd219289ed514faff576c477c66bd097aef59a236e3b8ebcf0d0070cb4e9699979510612eae575b505050881b88019055612e1f565b8601519060f884600019921b161c19169055388080612ea0565b80600185968294968c01518155019501930190612e5e565b604051612eec8161018b565b60008152906000368137565b90612f0282611340565b612f0f6040519182610235565b8281528092612f20601f1991611340565b0190602036910137565b806000917a184f03e93ff9f4daa797ed6e38ed64bf6a1f0100000000000000008082101561305f575b506d04ee2d6d415b85acef810000000080831015613050575b50662386f26fc1000080831015613041575b506305f5e10080831015613032575b5061271080831015613023575b506064821015613013575b600a80921015613009575b600190816021612fc260018701612ef8565b95860101905b612fd3575050505090565b600019019083906f181899199a1a9b1b9c1cb0b131b232b360811b8282061a83530491821561300457919082612fc8565b612bd9565b9160010191612fb0565b9190606460029104910191612fa5565b60049193920491019138612f9a565b60089193920491019138612f8d565b60109193920491019138612f7e565b60209193920491019138612f6c565b604093508104915038612f53565b90610295604960405180946c1e34b6b0b3b290343932b31e9160991b60208301526130a2815180926020602d860191016103bf565b81017f222077696474683d2234303022206865696768743d22343030222f3e00000000602d820152036029810185520183610235565b6130f46130ef836000526004602052604060002090565b61031c565b80516131d2575060405163507f146560e01b81526001600160a01b039260209283836004818489165afa908115610b75576131679585946000936131b3575b50604051632f54648f60e21b81526001600160a01b0390921660048301526024820193909352948592839182906044820190565b0392165afa8015610b7557610a769261319192600092613196575b505061318c610256565b6148f2565b61306d565b6131ac9250803d10612139576121298183610235565b3880613182565b6131cb919350853d8711610ba457610b958183610235565b9138613133565b91505090565b604051906131e5826101e2565b61117a82527f762d31306833762d376833762d33682d31307a222f3e3c2f673e000000000000611180837f3c6720636c6173733d226131223e3c7061746820643d224d313733203533683460208201527f763137682d347a222f3e3c2f673e3c6720636c6173733d226132223e3c70617460408201527f6820643d224d3136372035376833763130682d337a222f3e3c7061746820643d60608201527f224d3136392035336834763137682d347a222f3e3c2f673e3c6720636c61737360808201527f3d226133223e3c7061746820643d224d31363720353368337634682d337a222f60a08201527f3e3c7061746820643d224d3136332035376834763130682d347a222f3e3c706160c08201527f746820643d224d31363720363768337633682d337a222f3e3c2f673e3c67206360e08201527f6c6173733d226231223e3c7061746820643d224d32313320323533682d33762d6101008201527f332d33682d33762d372d33682d34762d3130682d33762d372d372d33682d33766101208201527f2d3733682d34762d3130682d33762d3130682d33762d37682d34762d37682d336101408201527f762d33682d33762d33682d3476313068347631306833763130683376336834766101608201527f37203320373020336833763768337632306834763768337633683376336834766101808201527f34683376336833762d332d347a222f3e3c7061746820643d224d3235332033306101a08201527f37762d34682d33762d33682d33762d33682d34762d34682d33762d33682d33766101c08201527f2d33682d34762d34682d33762d33682d33762d33682d34762d34682d33762d366101e08201527f682d33762d37682d3476313768347633683376336833203476346833763368336102008201527f76336834763468337633683376336834763468337633683376336834762d36686102208201527f2d347a222f3e3c2f673e3c6720636c6173733d226232223e3c7061746820643d6102408201527f224d32353020333130762d33682d33762d34682d34762d33682d33762d33682d6102608201527f33762d34682d34762d33682d33762d33682d33762d34682d37762d33682d33766102808201527f2d33682d34762d3137682d33762d33682d33762d34682d34762d33682d33762d6102a08201527f33682d33762d37682d34762d3230682d33762d37682d33762d37332d332d37686102c08201527f2d34762d33682d33762d3130682d33762d3130682d34563730682d33762d336c6102e08201527f2d332031303020332d313030763430682d33763130682d347636682d337631346103008201527f682d337633203133682d347634346834763136683376313468337631336834766103208201527f31306833763768337633683476336833763468337633683476336833763468336103408201527f76336834763368337637683776376836763368377633683776346831337633686103608201527f337633683130762d33682d337a6d2d3130332d3837762d31366833762d3130686103808201527f2d337636682d34763137682d337631306833762d3768347a222f3e3c706174686103a08201527f20643d224d3134332032333068347637682d347a6d3420313068337633682d336103c08201527f7a6d33203768337633682d337a6d33203668347634682d347a222f3e3c7061746103e08201527f6820643d224d31363320323537682d36763368337633683376346834762d342d6104008201527f33682d34762d337a222f3e3c2f673e3c6720636c6173733d226233223e3c70616104208201527f746820643d224d3134332031393776366834762d366836762d34346834762d316104408201527f366833762d31346833762d366834762d31306833563937682d377636682d33766104608201527f34682d337633682d347633682d3376342033682d3376332034682d34763130686104808201527f2d337631362034682d337634366833762d3668337a222f3e3c7061746820643d6104a08201527f224d313430203230336833763137682d337a222f3e3c7061746820643d224d316104c08201527f3337203232306833763130682d337a222f3e3c7061746820643d224d313533206104e08201527f323530682d33762d37682d33762d36682d34762d37682d3376313068337637686105008201527f347636683376346833762d377a6d2d3320313068337637682d337a222f3e3c706105208201527f61746820643d224d3134372032353768337633682d337a6d36203068347633686105408201527f2d347a222f3e3c7061746820643d224d31363020323633762d33682d337633206105608201527f376836762d37682d337a6d2d31302d3536763136682d337637683376313068336105808201527f763768347636683676346837762d342d33682d33762d3130682d34762d3133686105a08201527f2d33762d3134682d33762d3136682d34763130682d337a222f3e3c70617468206105c08201527f643d224d32343320333133762d33682d33762d33682d31302d33762d34682d376105e08201527f762d33682d37762d33682d36762d37682d37762d37682d33762d33682d34762d6106008201527f33682d33762d34682d33762d33682d34762d33682d33762d34682d33762d33686106208201527f2d34762d33682d33763130682d337633682d347633682d3376376833763768346106408201527f76366833763568347633683676336833763368342033763368332034763368336106608201527f20337634683130763368372037203376336831302033762d33683130762d33686106808201527f34762d34682d31347a222f3e3c2f673e3c6720636c6173733d226234223e3c706106a08201527f61746820643d224d3138332031333068347637682d347a222f3e3c70617468206106c08201527f643d224d3138302031323768337633682d337a6d2d32372d3468347637682d346106e08201527f7a222f3e3c7061746820643d224d3135372031313768337636682d337a222f3e6107008201527f3c7061746820643d224d3136302031313068337637682d337a222f3e3c7061746107208201527f6820643d224d3136332031303768347633682d347a6d2d3320383368337637686107408201527f2d337a222f3e3c7061746820643d224d3136332031383768347633682d347a6d6107608201527f3230203068377633682d377a222f3e3c7061746820643d224d313830203139306107808201527f68337633682d337a6d31302d3768337634682d337a222f3e3c7061746820643d6107a08201527f224d3139332031383768347636682d347a6d2d323020353368347637682d347a6107c08201527f222f3e3c7061746820643d224d3137372032343768337636682d337a222f3e3c6107e08201527f7061746820643d224d3138302032353368337637682d337a222f3e3c706174686108008201527f20643d224d3138332032363068377633682d377a222f3e3c7061746820643d226108208201527f4d3139302032363368337634682d337a6d302d323068337634682d337a222f3e6108408201527f3c7061746820643d224d3138372032343068337633682d337a222f3e3c7061746108608201527f6820643d224d3139302032333768337633682d337a6d313320323368347633686108808201527f2d347a222f3e3c7061746820643d224d3230372032363368337637682d337a226108a08201527f2f3e3c7061746820643d224d3231302032373068337633682d337a6d2d3130206108c08201527f3768337636682d337a222f3e3c7061746820643d224d323033203238336834766108e08201527f37682d347a222f3e3c7061746820643d224d3230372032393068367633682d366109008201527f7a222f3e3c2f673e3c6720636c6173733d226f223e3c7061746820643d224d316109208201527f3333203135376834763530682d347a6d302036336834763130682d347a6d32376109408201527f2d3136336833763130682d337a222f3e3c7061746820643d224d3136332035336109608201527f68347634682d347a222f3e3c7061746820643d224d31363720353068313076336109808201527f682d31307a222f3e3c7061746820643d224d3137372035336833763137682d336109a08201527f7a222f3e3c7061746820643d224d3137332037306834763237682d347a6d2d366109c08201527f20306833763237682d337a222f3e3c7061746820643d224d31363320363768346109e08201527f7633682d347a6d3020333068347633682d347a222f3e3c7061746820643d224d610a008201527f3136302031303068337633682d337a222f3e3c7061746820643d224d31353720610a208201527f31303368337634682d337a222f3e3c7061746820643d224d3135332031303768610a408201527f347633682d347a222f3e3c7061746820643d224d313530203131306833763368610a608201527f2d337a222f3e3c7061746820643d224d3134372031313368337637682d337a22610a808201527f2f3e3c7061746820643d224d3134332031323068347637682d347a222f3e3c70610aa08201527f61746820643d224d313430203132376833763130682d337a222f3e3c70617468610ac08201527f20643d224d313337203133376833763230682d337a6d35362d31306834763130610ae08201527f682d347a222f3e3c7061746820643d224d313930203131376833763130682d33610b008201527f7a222f3e3c7061746820643d224d3138372031313068337637682d337a222f3e610b208201527f3c7061746820643d224d3138332031303368347637682d347a222f3e3c706174610b408201527f6820643d224d3138302031303068337633682d337a222f3e3c7061746820643d610b608201527f224d31373720393768337633682d337a6d2d3430203130366833763137682d33610b808201527f7a6d302032376833763130682d337a6d313020333068337637682d337a222f3e610ba08201527f3c7061746820643d224d31353020323537762d34682d33762d36682d34762d37610bc08201527f682d3376313068337631306834762d3368337a222f3e3c7061746820643d224d610be08201527f3135302032353768337633682d337a222f3e3c7061746820643d224d31363320610c008201527f323733762d33682d36762d3130682d347637682d337633683376336834763768610c208201527f33762d3768337a222f3e3c7061746820643d224d313633203236376834763368610c408201527f2d347a222f3e3c7061746820643d224d31373020323537682d332d3476336834610c608201527f76376833762d31307a222f3e3c7061746820643d224d31353720323533683676610c808201527f34682d367a222f3e3c7061746820643d224d3135332032343768347636682d34610ca08201527f7a222f3e3c7061746820643d224d3135302032343068337637682d337a222f3e610cc08201527f3c7061746820643d224d313437203233306833763130682d337a6d3133203530610ce08201527f68337637682d337a222f3e3c7061746820643d224d3134332032323368347637610d008201527f682d347a222f3e3c7061746820643d224d313437203230376833763136682d33610d208201527f7a222f3e3c7061746820643d224d313530203139376833763130682d337a6d2d610d408201527f3130203068337636682d337a6d35302031313368377633682d377a6d32332031610d608201527f306831377633682d31377a222f3e3c7061746820643d224d3233302033323368610d808201527f31337634682d31337a222f3e3c7061746820643d224d32343320333230683130610da08201527f7633682d31307a222f3e3c7061746820643d224d323533203331376834763368610dc08201527f2d347a222f3e3c7061746820643d224d323537203330376833763130682d337a610de08201527f222f3e3c7061746820643d224d3235332033303368347634682d347a222f3e3c610e008201527f7061746820643d224d3235302033303068337633682d337a222f3e3c70617468610e208201527f20643d224d3234372032393768337633682d337a222f3e3c7061746820643d22610e408201527f4d3234332032393368347634682d347a222f3e3c7061746820643d224d323430610e608201527f2032393068337633682d337a222f3e3c7061746820643d224d32333720323837610e808201527f68337633682d337a222f3e3c7061746820643d224d3233332032383368347634610ea08201527f682d347a222f3e3c7061746820643d224d3233302032383068337633682d337a610ec08201527f222f3e3c7061746820643d224d3232372032373768337633682d337a222f3e3c610ee08201527f7061746820643d224d3232332032373368347634682d347a222f3e3c70617468610f008201527f20643d224d3232302032363768337636682d337a222f3e3c7061746820643d22610f208201527f4d3231372032363068337637682d337a222f3e3c7061746820643d224d323133610f408201527f2032353368347637682d347a222f3e3c7061746820643d224d32313020323437610f608201527f68337636682d337a222f3e3c7061746820643d224d3230372032333768337631610f808201527f30682d337a222f3e3c7061746820643d224d323033203232376834763130682d610fa08201527f347a6d2d343020363068347636682d347a6d323420323068337633682d337a22610fc08201527f2f3e3c7061746820643d224d3136372032393368337635682d337a6d31362031610fe08201527f3468347633682d347a222f3e3c7061746820643d224d313730203239386834766110008201527f33682d347a6d3130203668337633682d337a222f3e3c7061746820643d224d316110208201527f37342033303168367633682d367a6d323320313268367634682d367a222f3e3c6110408201527f7061746820643d224d323033203331376831307633682d31307a6d2d322d31306110608201527f37762d3733682d3476373368337631376833762d3137682d327a222f3e3c2f676110808201527f3e3c6720636c6173733d226f223e3c7061746820643d224d31383720333037766110a08201527f2d346833762d36682d33762d34682d34762d33682d33762d33682d37762d34686110c08201527f2d367634682d3476336834763237682d34763133682d33763130682d347637686110e08201527f3476336833203130203134762d33682d34762d34682d33762d33682d33762d336111008201527f682d34762d376834762d31306833762d376833762d336837762d33682d337a6d6111208201527f3136203130762d34682d36763137682d34763130682d337637683376336834206111408201527f3620342033203134762d33682d34762d34682d37762d33682d33762d33682d336111608201520152565b90610295609a60405180947f3c7374796c653e2e6f7b66696c6c3a233830383038303b7d2e62327b66696c6c60208301527f3a6e6f6e653b7d2e62337b66696c6c3a6e6f6e653b7d2e62347b66696c6c3a6e60408301527f6f6e653b7d2e61317b66696c6c3a6e6f6e653b7d2e61327b66696c6c3a6e6f6e60608301527f653b7d2e61337b66696c6c3a6e6f6e653b7d3c2f7374796c653e00000000000060808301526147ef81518092602086860191016103bf565b810103607a810185520183610235565b9061029560ba60405180947f3c7376672077696474683d2234303022206865696768743d223430302220766960208301527f6577426f783d223020302034303020343030222066696c6c3d226e6f6e65222060408301527f786d6c6e733d22687474703a2f2f7777772e77332e6f72672f323030302f737660608301527f67223e3c7374796c653e2e6f7b66696c6c3a233035303530353b7d2e777b666960808301527336361d11b31cb31cb31c9dbe9e17b9ba3cb6329f60611b60a08301526148d381518092602060b4860191016103bf565b8101651e17b9bb339f60d11b60b482015203609a810185520183610235565b90610a7690614920604051602092609160f51b8483015260228201526022815261491b816101fe565b6158d7565b92604051938161493986935180928680870191016103bf565b820161494d825180938680850191016103bf565b01038084520182610235565b906102956021604051846149778296518092602080860191016103bf565b8101600160fd1b6020820152036001810185520183610235565b610295916149e79493602b926040519687936020926149b88151809286808a0191016103bf565b85016149cc825180938680850191016103bf565b0191602f60f81b8184015283519384916021850191016103bf565b01692072656d61696e696e6760b01b602182015203600b810185520183610235565b6037906102959294936040519582614a2b8894518092602080880191016103bf565b83016b0101429a7a6221027aaaa14960a51b6020820152614a56825180936020602c850191016103bf565b01602f60f81b602c820152614a75825180936020602d850191016103bf565b01692072656d61696e696e6760b01b602d820152036017810185520183610235565b61029591614aec9493602192604051968793602092614abe8151809286808a0191016103bf565b8501614ad2825180938680850191016103bf565b0191602f60f81b81840152835193849187850191016103bf565b01036001810185520183610235565b90610295602360405184614b198296518092602080860191016103bf565b8101620101d160ed1b6020820152036003810185520183610235565b6021610295919392936040519481614b578793518092602080870191016103bf565b8201614b6c82518093602080850191016103bf565b01600160fd1b6020820152036001810185520183610235565b6025610295919392936040519481614ba78793518092602080870191016103bf565b820164555043202360d81b6020820152614bca82518093602087850191016103bf565b01036005810185520183610235565b90614c25610a7692633b9aca00614bf8614bf38551614d3b565b614959565b91068015614c615790614c0d614c2092612f2a565b614c1a6060860151612f2a565b91614a97565b614afb565b90614c34610100820151614f7a565b8051614c4c575b50614c469051612f2a565b90614b85565b614c5a90614c469293614b35565b9190614c3b565b50604083019081518015600014614c935750614c80614c209251612f2a565b614c8d6060860151612f2a565b91614a09565b614c209250614ca190612f2a565b614cae6060860151612f2a565b91614991565b60405190614cc1826101ab565b600882526713dc9a59da5b985b60c21b6020830152565b60405190614ce5826101ab565b60068252654f72616e676560d01b6020830152565b60405190614d07826101ab565b600482526350696e6b60e01b6020830152565b60405190614d27826101ab565b600582526420b634b2b760d91b6020830152565b60018103614d4c5750610a76614d1a565b60028103614d5d5750610a76614cfa565b60038103614d6e5750610a76614cd8565b60048103614d7f5750610a76614cb4565b6000526003602052610a76604060002061031c565b60405190614da1826101ab565b6007825266546f7070696e6760c81b6020830152565b60405190614dc4826101ab565b6004825263119a5cdd60e21b6020830152565b60405190614de4826101ab565b600b82526a5375697420626f74746f6d60a81b6020830152565b60405190614e0b826101ab565b600882526705375697420746f760c41b6020830152565b60405190614e2f826101ab565b600482526314dd5a5d60e21b6020830152565b60405190614e4f826101ab565b60048252631219585960e21b6020830152565b60405190614e6f826101ab565b600882526704865616420746f760c41b6020830152565b60405190614e93826101ab565b600582526409adeeae8d60db1b6020830152565b60405190614eb4826101ab565b6007825266476c617373657360c81b6020830152565b60405190614ed7826101ab565b60088252674e65636b6c61636560c01b6020830152565b60405190614efb826101ab565b60048252634c65677360e01b6020830152565b60405190614f1b826101ab565b60088252674261636b7369646560c01b6020830152565b60405190614f3f826101ab565b600582526415dbdc9b1960da1b6020830152565b60405190614f60826101ab565b600b82526a4e616b65642042616e6e7960a81b6020830152565b80614f885750610a76614f53565b60018103614f995750610a76614f32565b60028103614faa5750610a76614f0e565b60078103614fbb5750610a76614eee565b60038103614fcc5750610a76614eca565b60058103614fdd5750610a76614ea7565b60068103614fee5750610a76614e86565b600b8103614fff5750610a76614e62565b600481036150105750610a76614e42565b600881036150215750610a76614e22565b600a81036150325750610a76614dfe565b600981036150435750610a76614dd7565b600c81036150545750610a76614db7565b600d1461506357610a76611926565b610a76614d94565b60405190615078826101fe565b604082527f6768696a6b6c6d6e6f707172737475767778797a303132333435363738392b2f6040837f4142434445464748494a4b4c4d4e4f505152535455565758595a61626364656660208201520152565b9060028201809211612c8f57565b9060208201809211612c8f57565b9060018201809211612c8f57565b91908201809211612c8f57565b8051156151e15761511061506b565b61512c61512761512084516150ca565b6003900490565b612c77565b9161513e615139846150d8565b612ef8565b92835280815182019060208501935b82821061518f5750505060039051068060011461517e5760021461516f575090565b603d60f81b6000199091015290565b50613d3d60f01b6001199091015290565b9091936004906003809401938451600190603f9082828260121c16880101518553828282600c1c16880101518386015382828260061c168801015160028601531685010151908201530193919061514d565b50610a76611926565b6000546001600160a01b0390811681615201615d74565b160361520a5750565b602490615215615d74565b60405163118cdaa760e01b815291166004820152fd5b61523490615c48565b926152439695969291926131d8565b9460405197889760208901703c7374796c653e2e62317b66696c6c3a2360781b90528051908160318b01916020019161527b926103bf565b8801603181016b3b7d2e62327b66696c6c3a2360a01b905281519182603d830191602001916152a9926103bf565b01603d81016b3b7d2e62337b66696c6c3a2360a01b9052815191826049830191602001916152d6926103bf565b01604981016152f3906b3b7d2e62347b66696c6c3a2360a01b9052565b6055016152ff91611604565b6b3b7d2e61317b66696c6c3a2360a01b8152600c0161531d91611604565b6b3b7d2e61327b66696c6c3a2360a01b8152600c0161533b91611604565b6b3b7d2e61337b66696c6c3a2360a01b8152600c0161535991611604565b691dbe9e17b9ba3cb6329f60b11b8152600a0161537591611604565b03601f1981018252610a769082610235565b6040519061539482610219565b61019c82527f6820643d224d3139332031373068347633682d347a222f3e3c2f673e000000006101a0837f3c6720636c6173733d226f223e3c7061746820643d224d31393020313733682d60208201527f3337762d33682d3130762d34682d36763468337633682d33763468367633683160408201527f307634683337762d346833762d33682d33762d347a6d2d34302034682d33762d60608201527f34683376347a6d372033762d3368337633682d337a6d362030762d336834763360808201527f682d347a6d372030762d3368337633682d337a6d372030762d3368337633682d60a08201527f337a6d31302030682d34762d33683476337a222f3e3c7061746820643d224d3160c08201527f39302031373068337633682d337a222f3e3c7061746820643d224d313933203160e08201527f363668347634682d347a6d30203768347634682d347a222f3e3c2f673e3c67206101008201527f636c6173733d2277223e3c7061746820643d224d3133372031373068337633686101208201527f2d337a6d3130203368337634682d337a6d3130203468337633682d337a6d36206101408201527f3068347633682d347a6d37203068337633682d337a6d37203068337633682d336101608201527f7a6d36203068347633682d347a6d372d3468337634682d337a222f3e3c7061746101808201520152565b6040519060c082018281106001600160401b038211176101a65760405260818252601f60f91b60a0837f3c6720636c6173733d226f223e3c7061746820643d224d31383320313630762d60208201527f34682d32307634682d33763368337634683234762d37682d347a6d2d3133203360408201527f762d336831307633682d31307a222066696c6c3d2223616437316338222f3e3c60608201527f7061746820643d224d313730203136306831307633682d31307a222f3e3c2f6760808201520152565b91906060928151600091828394879361566c816150e6565b955b86811061567f575050505050505050565b818110156158665761569181846115a5565b516040805163507f146560e01b8152600491906001600160a01b036020808386818e86165afa918215610b755761570c9560009588958e948896615847575b50505163c44a8e6d60e01b81526001600160a01b0390931690830190815260208101949094526000604085015290948593849291839160600190565b0392165afa8015610b75576101009160009161582e575b500151965b6003888114969087156157fc5750505060019461574582886130d8565b995b60068981036157c5575050600a6001985b11806157bb575b6157a1575b8115159081615798575b50615780575b5060010196949661566e565b6001919a61280961579192886130d8565b9990615774565b9050153861576e565b986157ac919b611ab9565b996157b5611926565b98615764565b508951151561575f565b89919911806157f4575b6157dc575b600a90615758565b97509a6157eb9061280961558f565b9a6001976157d4565b5088156157cf565b899b9197929b1180615826575b156157475795509a61581d90612809615387565b9a600195615747565b508615615809565b615841913d8091833e610b678183610235565b38615723565b61585e929650803d10610ba457610b958183610235565b9338806156d0565b600e95600090615728565b604051906105e082018281106001600160401b038211176101a657604052602e82526105c0366020840137565b906158a8826104e9565b6158b56040519182610235565b8281528092612f20601f19916104e9565b9081518110156115a0570160200190565b908151156159fe576158e7615871565b9160009060006158f685611593565b526001918151916000925b808410615927575050505061591d61592291610a769394615dcd565b615e10565b615e57565b9091929461595861595261594c61593e89876158c6565b516001600160f81b03191690565b60f81c90565b60ff1690565b9184925b60ff90898289168610156159bd576001929161599161598b6159526159848a615997966115a5565b5160ff1690565b60081b90565b906150f4565b6159b48b6159ac88603a9586860616926115a5565b9060ff169052565b0493019261595c565b50919594935050809691965b6159d7575060010192615901565b9460ff6001603a926159f483858b06166159ac8d868516906115a5565b01169504806159c9565b9050610a76612ee0565b60405190615a15826101ab565b600682526506666653930360d41b6020830152565b60405190615a37826101ab565b600682526506666633730360d41b6020830152565b60405190615a59826101ab565b600682526566336136303360d01b6020830152565b60405190615a7b826101ab565b600682526539363561316160d01b6020830152565b60405190615a9d826101ab565b600682526533331bb1981960d11b6020830152565b60405190615abf826101ab565b600682526506664333630360d41b6020830152565b60405190615ae1826101ab565b600682526518cccc994c1960d21b6020830152565b60405190615b03826101ab565b600682526566666438633560d01b6020830152565b60405190615b25826101ab565b600682526566663936613960d01b6020830152565b60405190615b47826101ab565b600682526533329a9c1c3160d11b6020830152565b60405190615b69826101ab565b600682526563393266343560d01b6020830152565b60405190615b8b826101ab565b600682526536376437353760d01b6020830152565b60405190615bad826101ab565b600682526503330613232360d41b6020830152565b60405190615bcf826101ab565b600682526532313761313560d01b6020830152565b60405190615bf1826101ab565b60048252636e6f6e6560e01b6020830152565b60405190615c11826101ab565b6006825265329a1c19b2b360d11b6020830152565b60405190615c33826101ab565b60068252653231993332b360d11b6020830152565b60018103615c8f5750615c59615b7e565b90615c62615ba0565b90615c6b615bc2565b90615c74615be4565b90615c7d615c04565b90615c86615c26565b90610a76615c26565b60028103615cd65750615ca0615af6565b90615ca9615b18565b90615cb2615b3a565b90615cbb615b5c565b90615cc4615af6565b90615ccd615b18565b90610a76615b3a565b60038103615d1d5750615ce7615a4c565b90615cf0615a90565b90615cf9615ab2565b90615d02615ad4565b90615d0b615a4c565b90615d14615a90565b90610a76615ab2565b600414615d3657604051633b9cb79b60e21b8152600490fd5b615d3e615a08565b90615d47615a2a565b90615d50615a4c565b90615d59615a6e565b90615d62615a08565b90615d6b615a2a565b90610a76615a4c565b337f00000000000000000000000000000000000000000000000000000000000000006001600160a01b03161480615dc2575b15615dbe576013193601368111612c8f573560601c90565b3390565b506014361015615da6565b9060ff80911690615ddd8261589e565b9260005b838110615def575050505090565b8083615dfd600193856115a5565b5116615e0982886115a5565b5201615de1565b908151615e1c8161589e565b9060005b818110615e2e575090925050565b60019060ff615e446000198389510301886115a5565b5116615e5082866115a5565b5201615e20565b8051615e6281611340565b91604090615e736040519485610235565b828452615e7f83611340565b602090601f1901368683013760009260005b858110615ea15750505050505090565b6001908251615eaf816101fe565b603a81527f31323334353637383941424344454647484a4b4c4d4e50515253545556575859858201527f5a6162636465666768696a6b6d6e6f707172737475767778797a000000000000848201526001600160f81b031990615f1f9060ff615f17858a6115a5565b5116906158c6565b5116861a615f2d828a6158c6565b5301615e9156fea2646970667358221220f4c28235c2577961bfb96f025f5626f87693022b891a47164c12465d5e52a4fe64736f6c63430008170033",
			"deployedBytecode": "0x6080604052600436101561001257600080fd5b60003560e01c806257bfdd1461013657806318ab522d1461013157806331a290ac1461012c578063572b6c05146101275780635e703e71146101225780636aff31dd1461011d578063715018a61461011857806379a2696e146101135780637da0a8771461010e578063875e4bea146101095780638da5cb5b14610104578063a0122c09146100ff578063a22d0dd5146100fa578063b03a3eab146100f5578063b1fa9e7b146100f0578063c06e7bc7146100eb578063d756227e146100e65763f2fde38b146100e157600080fd5b611461565b611392565b610cca565b610c9f565b610bfa565b610bb5565b610a79565b610a16565b610885565b610840565b61080d565b6107af565b610783565b610757565b6106ff565b610590565b610451565b610407565b90600182811c9216801561016b575b602083101461015557565b634e487b7160e01b600052602260045260246000fd5b91607f169161014a565b634e487b7160e01b600052604160045260246000fd5b602081019081106001600160401b038211176101a657604052565b610175565b604081019081106001600160401b038211176101a657604052565b61026081019081106001600160401b038211176101a657604052565b6111a081019081106001600160401b038211176101a657604052565b606081019081106001600160401b038211176101a657604052565b6101c081019081106001600160401b038211176101a657604052565b90601f801991011681019081106001600160401b038211176101a657604052565b604051906000826002549161026a8361013b565b808352926020906001908181169081156102f85750600114610297575b505061029592500383610235565b565b91509260026000527f405787fa12a823e0f2b7631cc41b3ba8828b3321ca811111fa75cd3aa3bb5ace936000925b8284106102e057506102959450505081016020013880610287565b855488850183015294850194879450928101926102c5565b9150506020925061029594915060ff191682840152151560051b8201013880610287565b9060405191826000825461032f8161013b565b9081845260209460019160018116908160001461039d575060011461035e575b50505061029592500383610235565b600090815285812095935091905b818310610385575050610295935082010138808061034f565b8554888401850152948501948794509183019161036c565b9250505061029594925060ff191682840152151560051b82010138808061034f565b60005b8381106103d25750506000910152565b81810151838201526020016103c2565b906020916103fb815180928185528580860191016103bf565b601f01601f1916010190565b3461043b57600036600319011261043b57610437610423610256565b6040519182916020835260208301906103e2565b0390f35b600080fd5b6001600160a01b0381160361043b57565b3461043b57604036600319011261043b5761047a60043561047181610440565b602435906114ed565b906040519182916040830190835260209060406020850152825180915260206060850193019160005b8281106104b257505050500390f35b8351855286955093810193928101926001016104a3565b604051906101a082018281106001600160401b038211176101a657604052565b6001600160401b0381116101a65760051b60200190565b9080601f8301121561043b57602090823561051a816104e9565b936105286040519586610235565b81855260208086019260051b82010192831161043b57602001905b828210610551575050505090565b81358152908301908301610543565b9181601f8401121561043b578235916001600160401b03831161043b576020808501948460051b01011161043b57565b3461043b5760408060031936011261043b576004906001600160401b03823581811161043b576105c39036908501610500565b9060243590811161043b576105db9036908501610560565b92909180519360005b8581106105ed57005b6105f781846115a5565b5161060d6106068385896115b9565b369161135b565b610629610624836000526004602052604060002090565b6115fa565b6106ef57610641826000526001602052604060002090565b5480156106df578651602081019061066b8161065d8487611604565b03601f198101835282610235565b519020036106cf57907faeb631726b45aa3f6b09da79f7af03a9784614901f61a967ed84d63c37b7edc76106c6836106b9600196956106b4866000526004602052604060002090565b6116cd565b88519182913390836117a2565b0390a2016105e4565b85516375b5da0b60e01b81528990fd5b8651637ef41a4f60e01b81528a90fd5b8551630388067760e21b81528990fd5b3461043b57602036600319011261043b57602060043561071e81610440565b6040517f000000000000000000000000b2b5841dbef766d4b521221732f9b618fcf34a876001600160a01b039081169216919091148152f35b3461043b57604036600319011261043b5761043761042360043561077a81610440565b60243590611c3c565b3461043b57602036600319011261043b5760043560005260016020526020604060002054604051908152f35b3461043b5760008060031936011261080a576107c96151ea565b80546001600160a01b03198116825581906001600160a01b03167f8be0079c531659141344cd1fd0a4f28419497f9722a3daafe3b4186f6b6457e08280a380f35b80fd5b3461043b57604036600319011261043b57602061083860043561082f81610440565b602435906122b9565b604051908152f35b3461043b57600036600319011261043b576040517f000000000000000000000000b2b5841dbef766d4b521221732f9b618fcf34a876001600160a01b03168152602090f35b3461043b5760208060031936011261043b576004356001600160401b0380821161043b573660238301121561043b57816004013590811161043b57602492366024838501011161043b576108d76151ea565b6108eb826108e660025461013b565b611632565b600093601f831160011461096957505061093e81807f512c3c91736f50c57a0548c1d01ab02f24c420f002b8b20e2bfe63df9693cd3f9560009161095b575b508160011b916000199060031b1c19161790565b6002555b610956604051928392602433920184612317565b0390a1005b60249150850101353861092a565b6002600052601f19831694907f405787fa12a823e0f2b7631cc41b3ba8828b3321ca811111fa75cd3aa3bb5ace9282915b8783106109fa57505050827f512c3c91736f50c57a0548c1d01ab02f24c420f002b8b20e2bfe63df9693cd3f95106109dd575b5050600181811b01600255610942565b830160240135600019600384901b60f8161c1916905538806109cd565b908060018596848396978b01013581550195019301919061099a565b3461043b57600036600319011261043b576000546040516001600160a01b039091168152602090f35b91610a6890610a5a610a7695936060865260608601906103e2565b9084820360208601526103e2565b9160408184039101526103e2565b90565b3461043b57604036600319011261043b57600435610a9681610440565b60405163507f146560e01b815260243591906001600160a01b03906020816004818587165afa8015610b7557610b0d9360009386938593610b7a575b5060405163c44a8e6d60e01b81526001600160a01b039092166004830152602482019390935260006044820152938492839182906064820190565b0392165afa908115610b7557600091610b52575b50610437610b46610b40610100610b388587614bd9565b940151614f7a565b93614d3b565b60405193849384610a3f565b610b6f91503d806000833e610b678183610235565b810190611843565b38610b21565b6117df565b610b9d91935060203d602011610ba4575b610b958183610235565b8101906117ca565b9138610ad2565b503d610b8b565b8015150361043b57565b3461043b57608036600319011261043b57610437610423600435610bd881610440565b604435610be481610bab565b60643591610bf183610bab565b602435906128de565b3461043b57604036600319011261043b576001600160401b0360043581811161043b57610c2b903690600401610500565b9060243590811161043b573660238201121561043b578060040135610c4f816104e9565b91610c5d6040519384610235565b8183526020916024602085019160051b8301019136831161043b57602401905b828210610c9057610c8e8587612a69565b005b81358152908301908301610c7d565b3461043b57604036600319011261043b576020610838600435610cc181610440565b60243590612b0c565b3461043b57608036600319011261043b5760048035610ce881610440565b60243591604435916064356001600160401b03811161043b57610d0e9036908401610560565b93909160018060a01b039081811694604092835191610d476331a9108f60e11b938481528b818060209485938783019190602083019252565b03818d5afa908115610b7557600091611323575b5083610d74610d68615d74565b6001600160a01b031690565b911603611314578a8a88156112e15750508551848152818180610d9e8b8783019190602083019252565b03818d5afa908115610b75576000916112c4575b5083610dbf610d68615d74565b9116036112b557610dd087866122b9565b6112a657855163507f146560e01b8152818184818d5afa8015610b7557610e3760009186938391611289575b50895163c44a8e6d60e01b81526001600160a01b038a16878201908152602081018d9052600060408201529094859384928391606090910190565b0392165afa908115610b755760009161126e575b50511561125f57918493918a9388610e898e610e7a819a60018060a01b03166000526006602052604060002090565b90600052602052604060002090565b5586610eab8a610e7a8960018060a01b03166000526007602052604060002090565b5591909293505b600091610ebd612be0565b5060009182808e5b8210610f3c57505050505050505095610f248186610f1f610f379695610e7a7f6a68946ba06488db8585d7c7637fa954b574035fe15720ea760125ef860172589b9c60018060a01b03166000526005602052604060002090565b612c94565b610f2c615d74565b915194859485612d0d565b0390a3005b87989950610f778f948f8f908a8f9287859b9c9d9e98999a610f5d92612c51565b359687935195869485938493845283019190602083019252565b03915afa908115610b7557600091611242575b5084610f97610d68615d74565b91160361123257610fa8828b612b0c565b6112225787858f8d519283809263507f146560e01b82525afa8015610b7557836000918d8f8d8a91611016978795611203575b505163c44a8e6d60e01b81526001600160a01b0390931690830190815260208101949094526000604085015290948593849291839160600190565b0392165afa908115610b75576000916111ea575b508051156111da5761010001968751600281109081156111cf575b506111bf5783151590816111b3575b506111a357918f9998969492918f9896949286518881146000146110b3575050899695949392918b6110a5600193610e7a85995b516001600160a01b03909c16600090815260086020526040902090565b550191939092949697610ec5565b600891999b9c5080929496939597989a50146000146110ec57505092889795928f9995928f9895908b6110a5600193610e7a8598611088565b979f9d9b9998979a9e9c9a600581979297148015611199575b801561118f575b80611188575b1561112757508f8f51631e550b6f60e11b8152fd5b9d9f9798999b9d9c9e9a9c600a811490811561117d575b5080611176575b61116657928f999896938f989592938b6110a58c9996610e7a600195611088565b8a51635e701b2b60e01b81528890fd5b5085611145565b60099150143861113e565b5087611112565b50600b811461110c565b5060068114611105565b8a51637dc0e82560e11b81528890fd5b90508751111538611054565b8b5163c89badbd60e01b81528990fd5b600d91501138611045565b8b516354c0901d60e11b81528990fd5b6111fd913d8091833e610b678183610235565b3861102a565b61121b9195508d803d10610ba457610b958183610235565b9338610fdb565b8a5163670bdddd60e11b81528890fd5b8a5163812a698960e01b81528890fd5b6112599150863d8811610ba457610b958183610235565b38610f8a565b50845163265ba87960e01b8152fd5b61128391503d806000833e610b678183610235565b38610e4b565b6112a09150853d8711610ba457610b958183610235565b38610dfc565b50845163670bdddd60e11b8152fd5b508451639d17cec760e01b8152fd5b6112db9150823d8411610ba457610b958183610235565b38610db2565b9391600061130983610e7a8a9997959a60018060a01b03166000526006602052604060002090565b559190929350610eb2565b508451632add3f4b60e01b8152fd5b61133a9150823d8411610ba457610b958183610235565b38610d5b565b6001600160401b0381116101a657601f01601f191660200190565b92919261136782611340565b916113756040519384610235565b82948184528183011161043b578281602093846000960137010152565b3461043b57604036600319011261043b576001600160401b0360043581811161043b576113c3903690600401610500565b60249060243583811161043b573660238201121561043b578060040135926113ea846104e9565b936113f86040519586610235565b8085526020956024602087019260051b8501019336851161043b5760248101925b85841061142a57610c8e8888612d50565b833583811161043b5782013660438201121561043b5789916114568392369060448a820135910161135b565b815201930192611419565b3461043b57602036600319011261043b5760043561147e81610440565b6114866151ea565b6001600160a01b0390811680156114d457600080546001600160a01b03198116831782559092167f8be0079c531659141344cd1fd0a4f28419497f9722a3daafe3b4186f6b6457e08380a380f35b604051631e4fbdf760e01b815260006004820152602490fd5b6001600160a01b038116600090815260056020908152604080832085845282528083209051815480825291845282842081840197969392855b81811061156957505050806115446115609260409798990382610235565b6001600160a01b03909616600090815260066020526040902090565b91835252205491565b82548a529884019860019283019201611526565b634e487b7160e01b600052603260045260246000fd5b8051156115a05760200190565b61157d565b80518210156115a05760209160051b010190565b91908110156115a05760051b81013590601e198136030182121561043b5701908135916001600160401b03831161043b57602001823603811361043b579190565b610a76905461013b565b90611617602092828151948592016103bf565b0190565b818110611626575050565b6000815560010161161b565b90601f821161163f575050565b6102959160026000527f405787fa12a823e0f2b7631cc41b3ba8828b3321ca811111fa75cd3aa3bb5ace906020601f840160051c83019310611689575b601f0160051c019061161b565b909150819061167c565b9190601f81116116a257505050565b610295926000526020600020906020601f840160051c8301931061168957601f0160051c019061161b565b91909182516001600160401b0381116101a6576116f4816116ee845461013b565b84611693565b602080601f83116001146117375750819061172893949560009261172c575b50508160011b916000199060031b1c19161790565b9055565b015190503880611713565b90601f1983169561174d85600052602060002090565b926000905b88821061178a57505083600195969710611771575b505050811b019055565b015160001960f88460031b161c19169055388080611767565b80600185968294968601518155019501930190611752565b906117ba6020919493946040845260408401906103e2565b6001600160a01b03909416910152565b9081602091031261043b5751610a7681610440565b6040513d6000823e3d90fd5b519061029582610440565b519061029582610bab565b81601f8201121561043b57805161181781611340565b926118256040519485610235565b8184526020828401011161043b57610a7691602080850191016103bf565b60208183031261043b5780516001600160401b039182821161043b57016101a08184031261043b576118736104c9565b92815184526020820151602085015260408201516040850152606082015160608501526080820151608085015260a082015160a08501526118b660c083016117eb565b60c085015260e082015160e085015261010080830151908501526101206118de8184016117f6565b908501526101406118f08184016117f6565b908501526101606119028184016117f6565b90850152610180928383015190811161043b5761191f9201611801565b9082015290565b604051906119338261018b565b60008252565b60405190611946826101ab565b600e82526d226f7574666974496473223a205b60901b6020830152565b60236102959193929360405194816119858793518092602080870191016103bf565b8201601160f91b60208201526119a58251809360206021850191016103bf565b0161088b60f21b6021820152036003810185520183610235565b906102956022604051846119dd8296518092602080860191016103bf565b810161174b60f21b6020820152036002810185520183610235565b602e610295919392936040519481611a1a8793518092602080870191016103bf565b82016b113bb7b9363224b2111d101160a11b6020820152611a45825180936020602c850191016103bf565b0161088b60f21b602c82015203600e810185520183610235565b90604051918260605160005b818110611aa0575090602061029593611a948294840191838301600081528151948592016103bf565b01038085520183610235565b6020919250806080015182828801015201908491611a6b565b6020610295919392936040519481611ada87935180928680870191016103bf565b8201611a94825180938680850191016103bf565b90610295603960405180947f22776f726e42794e616b656442616e6e794964223a20220000000000000000006020830152611b338151809260206037860191016103bf565b810161088b60f21b6037820152036019810185520183610235565b90610295603960405180947f227573656442794e616b656442616e6e794964223a20220000000000000000006020830152611b338151809260206037860191016103bf565b9060208282031261043b5781516001600160401b03811161043b57610a769201611801565b9081602091031261043b575190565b9081606091031261043b5780519160406020830151920151610a7681610440565b90610295603d60405180947f646174613a6170706c69636174696f6e2f6a736f6e3b6261736536342c0000006020830152611c2c81518092602086860191016103bf565b810103601d810185520183610235565b6040805163507f146560e01b808252602092916001600160a01b03919060049086841686828481845afa8015610b755789600091611cb894839161229c575b50885163c44a8e6d60e01b81526001600160a01b038c1687820190815260208101939093526000604084015294859283918a918391606090910190565b0392165afa918215610b7557600092612281575b5081511561227057611cdc611926565b5061010082018051909490156121e357611cf783518a6130d8565b9889516121ac575b855160010361219157611d22611d1d611d188d846122b9565b612f2a565b611b4e565b965b8a511561205f575050865163043c358d60e11b81529360609285925082905afa908115610b755760009260009261202a575b50611d61818a614bd9565b988151611d6d90614d3b565b948051611d7990614f7a565b91611d8390612f2a565b908351611d8f90612f2a565b9051611d9a90612f2a565b916060850151611da990612f2a565b938b8b870151611db890612f2a565b960151611dc490612f2a565b96611dce90612f2a565b97611dd890612f2a565b988c8c519e8f918201611dea91611604565b039d601f199e8f81018252611dff9082610235565b611e0890615101565b9b51683d913730b6b2911d1160b91b9d81019d8e529e8f9d600901611e2c91611604565b7211161011383937b23ab1ba2730b6b2911d101160691b8152601301611e5191611604565b731116101131b0ba32b3b7b93ca730b6b2911d101160611b8152601401611e7791611604565b6e111610113a37b5b2b724b2111d101160891b8152600f01611e9891611604565b6a111610113ab831911d101160a91b8152600b01611eb591611604565b6f1116101131b0ba32b3b7b93c911d101160811b8152601001611ed791611604565b6d1116101139bab838363c911d101160911b8152600e01611ef791611604565b70111610113932b6b0b4b734b733911d101160791b8152601101611f1a91611604565b6c11161011383934b1b2911d101160991b8152600d01611f3991611604565b6f111610113232b1b4b6b0b639911d101160811b8152601001611f5b91611604565b6f1116101131bab93932b731bc911d101160811b8152601001611f7d91611604565b6201116160ed1b8152600301611f9291611604565b7f226465736372697074696f6e223a2241207069656365206f662074686520426181527f6e6e797665727365222c22696d616765223a22646174613a696d6167652f737660208201526c19cade1b5b0ed8985cd94d8d0b609a1b6040820152604d01611ffd91611604565b61227d60f01b81526002010390810182526120189082610235565b61202190615101565b610a7690611be8565b90925061204f915060603d606011612058575b6120478183610235565b810190611bc7565b50909138611d56565b503d61203d565b935093949097999550600d919698505111600014612182578651636c0360eb60e01b81526000818581895afa8015610b7557899160009161215f575b50965b8489518098819382525afa928315610b75576120f2978996600095612140575b5051630c8df17160e41b81526001600160a01b03909316908301908152602081019490945290958693849291839160400190565b0392165afa918215610b7557610a7693600093612111575b50506148f2565b612131929350803d10612139575b6121298183610235565b810190611bb8565b90388061210a565b503d61211f565b612158919550873d8911610ba457610b958183610235565b93386120be565b61217c91503d806000833e6121748183610235565b810190611b93565b3861209b565b8761218b610256565b9661209e565b6121a66121a1611d188d84612b0c565b611aee565b96611d24565b986121bf9060018751036121c5576147ff565b98611cff565b6121de906121d96121d46131d8565b614739565b611ab9565b6147ff565b6121ed8a8a612749565b986121f88b826114ed565b8098919851612205611939565b906000925b81841061224557505061221d91506119bf565b978061222a575b50611d24565b9761223861223e9299612f2a565b906119f8565b9638612224565b909161226660019161226061225a87866115a5565b51612f2a565b90611963565b930192919061220a565b505050505050505050610a76611926565b61229591923d8091833e610b678183610235565b9038611ccc565b6122b391508a3d8c11610ba457610b958183610235565b38611c7b565b60018060a01b031660009080825260076020526040822083835260205260408220549283159182156122f5575b50506122f0575090565b905090565b90915082526006602052604082208383526020526040822054141538806122e6565b918060609160209396959660408652816040870152838601376000828286010152601f80199101168301019360018060a01b0316910152565b6040519061010082018281106001600160401b038211176101a65760405260dd82527f746820643d224d3138302031343768337633682d337a222f3e3c2f673e00000060e0837f3c6720636c6173733d226f223e3c7061746820643d224d31373720313430763360208201527f6836763131683130762d31316834762d33682d32307a222f3e3c70617468206460408201527f3d224d31353320313430763368377638203368372033762d31316833762d336860608201527f2d32307a222f3e3c2f673e3c6720636c6173733d2277223e3c7061746820643d60808201527f224d3135332031343368377634682d377a222f3e3c7061746820643d224d313560a08201527f372031343768337633682d337a6d32302d3468367634682d367a222f3e3c706160c08201520152565b6040519061248b826101c6565b61023a82527f643d224d3139302031333768347633682d347a222f3e3c2f673e000000000000610240837f3c6720636c6173733d226f223e3c7061746820643d224d31393020313237683360208201527f7633682d337a6d3320313368347633682d347a6d2d3432203068367636682d3660408201527f7a222f3e3c7061746820643d224d3135312031333368337637682d337a6d313060608201527f203068367634682d367a222f3e3c7061746820643d224d31353720313337683160808201527f377636682d31377a6d332031336831347633682d31347a6d31372d313368377660a08201527f3136682d377a222f3e3c7061746820643d224d3138342031333768367636682d60c08201527f367a6d302031306831307636682d31307a222f3e3c7061746820643d224d313860e08201527f37203134336831307634682d31307a222f3e3c7061746820643d224d313930206101008201527f31343068337633682d337a6d2d362d313068337637682d337a222f3e3c7061746101208201527f6820643d224d3138372031333068367633682d367a6d2d3336203068313076336101408201527f682d31307a6d313620313368377637682d377a6d2d3130203068377637682d376101608201527f7a222f3e3c7061746820643d224d3136342031343768337633682d337a6d32396101808201527f2d323068347636682d347a222f3e3c7061746820643d224d31393420313333686101a08201527f337637682d337a222f3e3c2f673e3c6720636c6173733d2277223e3c706174686101c08201527f20643d224d3135342031333368377634682d377a222f3e3c7061746820643d226101e08201527f4d3135342031333768337633682d337a6d3130203668337634682d337a6d32306102008201527f203068337634682d337a6d332d313068377634682d377a222f3e3c70617468206102208201520152565b60405163507f146560e01b81526001600160a01b036020826004818685165afa918215610b75576000926128ba575b5060405163c44a8e6d60e01b81526001600160a01b0384166004820152602481018590526000604482018190529092909183916064918391165afa908115610b75576000916128a1575b5080511561289657606092610100820151612871579261282891600161280f6127ee610a7697876114ed565b94908015158061286a575b612850575b50612809845161522b565b90611ab9565b915103612844576128229061280961247e565b92615654565b8051612835575b506147ff565b61283e91611ab9565b3861282f565b61282290612809612350565b612864915061285f90886130d8565b611a5f565b386127fe565b50836127f9565b5061287e925051906130d8565b805161288d5750610a76611926565b610a76906147ff565b505050610a76611926565b6128b4913d8091833e610b678183610235565b386127c2565b60009192506128d79060203d602011610ba457610b958183610235565b9190612778565b60405163507f146560e01b81529390916001600160a01b036020866004818488165afa958615610b7557600096612a45575b5060405163c44a8e6d60e01b81526001600160a01b0385166004820152602481018390526000604482018190529096909187916064918391165afa948515610b7557600095612a2a575b50845115612a1d57606090610100860151612a0d5761299e610a769692612983600193876114ed565b958115159081612a05575b506129f65750612809845161522b565b9151036129e4576129b19061280961247e565b925b6129bf575b50506147ff565b6129c891615654565b80516129d5575b806129b8565b6129de91611ab9565b386129cf565b6129f090612809612350565b926129b3565b612864915061285f90876130d8565b90503861298e565b505050905061287e9151906130d8565b5050505050610a76611926565b612a3e91953d8091833e610b678183610235565b933861295a565b6000919650612a629060203d602011610ba457610b958183610235565b9590612910565b90612a726151ea565b81519060009260005b838110612a89575050505050565b612a9381836115a5565b51612a9e82856115a5565b5190808752602060018152604080892054612afc5782917fb10eb6fc7557a7109693cb8f3fac48d44328de56c0368ee4cac539b424d2cad99185612af060019897966000526001602052604060002090565b5551338152a301612a7b565b516333ded41b60e21b8152600490fd5b6001600160a01b03811660009081526008602090815260408083208584528252822054919390928215612bd9576001600160a01b03166000908152600560205260409020828552835260408420926040518094859183825491828152019188528388209388905b828210612bbf57505050612b8992500384610235565b825192845b848110612b9d57505050505090565b82612ba882846115a5565b5114612bb657600101612b8e565b50505091505090565b855484526001958601958995509381019390910190612b73565b5050505090565b604051906101a082018281106001600160401b038211176101a657604052606061018083600080825280602083015280604083015280848301528060808301528060a08301528060c08301528060e08301528061010083015280610120830152806101408301526101608201520152565b91908110156115a05760051b0190565b634e487b7160e01b600052601160045260246000fd5b600281901b91906001600160fe1b03811603612c8f57565b612c61565b906001600160401b0383116101a6576801000000000000000083116101a6578154838355808410612cef575b50906000526020806000209060005b848110612cdd575050505050565b83358382015592810192600101612ccf565b612d079083600052846020600020918201910161161b565b38612cc0565b9081526060602082018190528101839052929392916001600160fb1b03811161043b5760409160809160051b8091838601378301019360018060a01b0316910152565b9190612d5a6151ea565b82516000935b818510612d6e575050509050565b612d7885826115a5565b5194612d8481856115a5565b51958060005260039660209780895260409081600020908351906001600160401b0382116101a657612dc082612dba855461013b565b85611693565b8b601f8311600114612e43575050917f9dedd219289ed514faff576c477c66bd097aef59a236e3b8ebcf0d0070cb4e969391612e1c84612e2b9560019a9b9c9d9e600091612e3857508160011b916000199060031b1c19161790565b90555b519182913390836117a2565b0390a20193929190612d60565b90508501513861092a565b909b601f198316612e5985600052602060002090565b926000905b828210612ec8575050916001999a9b9c9d8492612e2b97957f9dedd219289ed514faff576c477c66bd097aef59a236e3b8ebcf0d0070cb4e9699979510612eae575b505050881b88019055612e1f565b8601519060f884600019921b161c19169055388080612ea0565b80600185968294968c01518155019501930190612e5e565b604051612eec8161018b565b60008152906000368137565b90612f0282611340565b612f0f6040519182610235565b8281528092612f20601f1991611340565b0190602036910137565b806000917a184f03e93ff9f4daa797ed6e38ed64bf6a1f0100000000000000008082101561305f575b506d04ee2d6d415b85acef810000000080831015613050575b50662386f26fc1000080831015613041575b506305f5e10080831015613032575b5061271080831015613023575b506064821015613013575b600a80921015613009575b600190816021612fc260018701612ef8565b95860101905b612fd3575050505090565b600019019083906f181899199a1a9b1b9c1cb0b131b232b360811b8282061a83530491821561300457919082612fc8565b612bd9565b9160010191612fb0565b9190606460029104910191612fa5565b60049193920491019138612f9a565b60089193920491019138612f8d565b60109193920491019138612f7e565b60209193920491019138612f6c565b604093508104915038612f53565b90610295604960405180946c1e34b6b0b3b290343932b31e9160991b60208301526130a2815180926020602d860191016103bf565b81017f222077696474683d2234303022206865696768743d22343030222f3e00000000602d820152036029810185520183610235565b6130f46130ef836000526004602052604060002090565b61031c565b80516131d2575060405163507f146560e01b81526001600160a01b039260209283836004818489165afa908115610b75576131679585946000936131b3575b50604051632f54648f60e21b81526001600160a01b0390921660048301526024820193909352948592839182906044820190565b0392165afa8015610b7557610a769261319192600092613196575b505061318c610256565b6148f2565b61306d565b6131ac9250803d10612139576121298183610235565b3880613182565b6131cb919350853d8711610ba457610b958183610235565b9138613133565b91505090565b604051906131e5826101e2565b61117a82527f762d31306833762d376833762d33682d31307a222f3e3c2f673e000000000000611180837f3c6720636c6173733d226131223e3c7061746820643d224d313733203533683460208201527f763137682d347a222f3e3c2f673e3c6720636c6173733d226132223e3c70617460408201527f6820643d224d3136372035376833763130682d337a222f3e3c7061746820643d60608201527f224d3136392035336834763137682d347a222f3e3c2f673e3c6720636c61737360808201527f3d226133223e3c7061746820643d224d31363720353368337634682d337a222f60a08201527f3e3c7061746820643d224d3136332035376834763130682d347a222f3e3c706160c08201527f746820643d224d31363720363768337633682d337a222f3e3c2f673e3c67206360e08201527f6c6173733d226231223e3c7061746820643d224d32313320323533682d33762d6101008201527f332d33682d33762d372d33682d34762d3130682d33762d372d372d33682d33766101208201527f2d3733682d34762d3130682d33762d3130682d33762d37682d34762d37682d336101408201527f762d33682d33762d33682d3476313068347631306833763130683376336834766101608201527f37203320373020336833763768337632306834763768337633683376336834766101808201527f34683376336833762d332d347a222f3e3c7061746820643d224d3235332033306101a08201527f37762d34682d33762d33682d33762d33682d34762d34682d33762d33682d33766101c08201527f2d33682d34762d34682d33762d33682d33762d33682d34762d34682d33762d366101e08201527f682d33762d37682d3476313768347633683376336833203476346833763368336102008201527f76336834763468337633683376336834763468337633683376336834762d36686102208201527f2d347a222f3e3c2f673e3c6720636c6173733d226232223e3c7061746820643d6102408201527f224d32353020333130762d33682d33762d34682d34762d33682d33762d33682d6102608201527f33762d34682d34762d33682d33762d33682d33762d34682d37762d33682d33766102808201527f2d33682d34762d3137682d33762d33682d33762d34682d34762d33682d33762d6102a08201527f33682d33762d37682d34762d3230682d33762d37682d33762d37332d332d37686102c08201527f2d34762d33682d33762d3130682d33762d3130682d34563730682d33762d336c6102e08201527f2d332031303020332d313030763430682d33763130682d347636682d337631346103008201527f682d337633203133682d347634346834763136683376313468337631336834766103208201527f31306833763768337633683476336833763468337633683476336833763468336103408201527f76336834763368337637683776376836763368377633683776346831337633686103608201527f337633683130762d33682d337a6d2d3130332d3837762d31366833762d3130686103808201527f2d337636682d34763137682d337631306833762d3768347a222f3e3c706174686103a08201527f20643d224d3134332032333068347637682d347a6d3420313068337633682d336103c08201527f7a6d33203768337633682d337a6d33203668347634682d347a222f3e3c7061746103e08201527f6820643d224d31363320323537682d36763368337633683376346834762d342d6104008201527f33682d34762d337a222f3e3c2f673e3c6720636c6173733d226233223e3c70616104208201527f746820643d224d3134332031393776366834762d366836762d34346834762d316104408201527f366833762d31346833762d366834762d31306833563937682d377636682d33766104608201527f34682d337633682d347633682d3376342033682d3376332034682d34763130686104808201527f2d337631362034682d337634366833762d3668337a222f3e3c7061746820643d6104a08201527f224d313430203230336833763137682d337a222f3e3c7061746820643d224d316104c08201527f3337203232306833763130682d337a222f3e3c7061746820643d224d313533206104e08201527f323530682d33762d37682d33762d36682d34762d37682d3376313068337637686105008201527f347636683376346833762d377a6d2d3320313068337637682d337a222f3e3c706105208201527f61746820643d224d3134372032353768337633682d337a6d36203068347633686105408201527f2d347a222f3e3c7061746820643d224d31363020323633762d33682d337633206105608201527f376836762d37682d337a6d2d31302d3536763136682d337637683376313068336105808201527f763768347636683676346837762d342d33682d33762d3130682d34762d3133686105a08201527f2d33762d3134682d33762d3136682d34763130682d337a222f3e3c70617468206105c08201527f643d224d32343320333133762d33682d33762d33682d31302d33762d34682d376105e08201527f762d33682d37762d33682d36762d37682d37762d37682d33762d33682d34762d6106008201527f33682d33762d34682d33762d33682d34762d33682d33762d34682d33762d33686106208201527f2d34762d33682d33763130682d337633682d347633682d3376376833763768346106408201527f76366833763568347633683676336833763368342033763368332034763368336106608201527f20337634683130763368372037203376336831302033762d33683130762d33686106808201527f34762d34682d31347a222f3e3c2f673e3c6720636c6173733d226234223e3c706106a08201527f61746820643d224d3138332031333068347637682d347a222f3e3c70617468206106c08201527f643d224d3138302031323768337633682d337a6d2d32372d3468347637682d346106e08201527f7a222f3e3c7061746820643d224d3135372031313768337636682d337a222f3e6107008201527f3c7061746820643d224d3136302031313068337637682d337a222f3e3c7061746107208201527f6820643d224d3136332031303768347633682d347a6d2d3320383368337637686107408201527f2d337a222f3e3c7061746820643d224d3136332031383768347633682d347a6d6107608201527f3230203068377633682d377a222f3e3c7061746820643d224d313830203139306107808201527f68337633682d337a6d31302d3768337634682d337a222f3e3c7061746820643d6107a08201527f224d3139332031383768347636682d347a6d2d323020353368347637682d347a6107c08201527f222f3e3c7061746820643d224d3137372032343768337636682d337a222f3e3c6107e08201527f7061746820643d224d3138302032353368337637682d337a222f3e3c706174686108008201527f20643d224d3138332032363068377633682d377a222f3e3c7061746820643d226108208201527f4d3139302032363368337634682d337a6d302d323068337634682d337a222f3e6108408201527f3c7061746820643d224d3138372032343068337633682d337a222f3e3c7061746108608201527f6820643d224d3139302032333768337633682d337a6d313320323368347633686108808201527f2d347a222f3e3c7061746820643d224d3230372032363368337637682d337a226108a08201527f2f3e3c7061746820643d224d3231302032373068337633682d337a6d2d3130206108c08201527f3768337636682d337a222f3e3c7061746820643d224d323033203238336834766108e08201527f37682d347a222f3e3c7061746820643d224d3230372032393068367633682d366109008201527f7a222f3e3c2f673e3c6720636c6173733d226f223e3c7061746820643d224d316109208201527f3333203135376834763530682d347a6d302036336834763130682d347a6d32376109408201527f2d3136336833763130682d337a222f3e3c7061746820643d224d3136332035336109608201527f68347634682d347a222f3e3c7061746820643d224d31363720353068313076336109808201527f682d31307a222f3e3c7061746820643d224d3137372035336833763137682d336109a08201527f7a222f3e3c7061746820643d224d3137332037306834763237682d347a6d2d366109c08201527f20306833763237682d337a222f3e3c7061746820643d224d31363320363768346109e08201527f7633682d347a6d3020333068347633682d347a222f3e3c7061746820643d224d610a008201527f3136302031303068337633682d337a222f3e3c7061746820643d224d31353720610a208201527f31303368337634682d337a222f3e3c7061746820643d224d3135332031303768610a408201527f347633682d347a222f3e3c7061746820643d224d313530203131306833763368610a608201527f2d337a222f3e3c7061746820643d224d3134372031313368337637682d337a22610a808201527f2f3e3c7061746820643d224d3134332031323068347637682d347a222f3e3c70610aa08201527f61746820643d224d313430203132376833763130682d337a222f3e3c70617468610ac08201527f20643d224d313337203133376833763230682d337a6d35362d31306834763130610ae08201527f682d347a222f3e3c7061746820643d224d313930203131376833763130682d33610b008201527f7a222f3e3c7061746820643d224d3138372031313068337637682d337a222f3e610b208201527f3c7061746820643d224d3138332031303368347637682d347a222f3e3c706174610b408201527f6820643d224d3138302031303068337633682d337a222f3e3c7061746820643d610b608201527f224d31373720393768337633682d337a6d2d3430203130366833763137682d33610b808201527f7a6d302032376833763130682d337a6d313020333068337637682d337a222f3e610ba08201527f3c7061746820643d224d31353020323537762d34682d33762d36682d34762d37610bc08201527f682d3376313068337631306834762d3368337a222f3e3c7061746820643d224d610be08201527f3135302032353768337633682d337a222f3e3c7061746820643d224d31363320610c008201527f323733762d33682d36762d3130682d347637682d337633683376336834763768610c208201527f33762d3768337a222f3e3c7061746820643d224d313633203236376834763368610c408201527f2d347a222f3e3c7061746820643d224d31373020323537682d332d3476336834610c608201527f76376833762d31307a222f3e3c7061746820643d224d31353720323533683676610c808201527f34682d367a222f3e3c7061746820643d224d3135332032343768347636682d34610ca08201527f7a222f3e3c7061746820643d224d3135302032343068337637682d337a222f3e610cc08201527f3c7061746820643d224d313437203233306833763130682d337a6d3133203530610ce08201527f68337637682d337a222f3e3c7061746820643d224d3134332032323368347637610d008201527f682d347a222f3e3c7061746820643d224d313437203230376833763136682d33610d208201527f7a222f3e3c7061746820643d224d313530203139376833763130682d337a6d2d610d408201527f3130203068337636682d337a6d35302031313368377633682d377a6d32332031610d608201527f306831377633682d31377a222f3e3c7061746820643d224d3233302033323368610d808201527f31337634682d31337a222f3e3c7061746820643d224d32343320333230683130610da08201527f7633682d31307a222f3e3c7061746820643d224d323533203331376834763368610dc08201527f2d347a222f3e3c7061746820643d224d323537203330376833763130682d337a610de08201527f222f3e3c7061746820643d224d3235332033303368347634682d347a222f3e3c610e008201527f7061746820643d224d3235302033303068337633682d337a222f3e3c70617468610e208201527f20643d224d3234372032393768337633682d337a222f3e3c7061746820643d22610e408201527f4d3234332032393368347634682d347a222f3e3c7061746820643d224d323430610e608201527f2032393068337633682d337a222f3e3c7061746820643d224d32333720323837610e808201527f68337633682d337a222f3e3c7061746820643d224d3233332032383368347634610ea08201527f682d347a222f3e3c7061746820643d224d3233302032383068337633682d337a610ec08201527f222f3e3c7061746820643d224d3232372032373768337633682d337a222f3e3c610ee08201527f7061746820643d224d3232332032373368347634682d347a222f3e3c70617468610f008201527f20643d224d3232302032363768337636682d337a222f3e3c7061746820643d22610f208201527f4d3231372032363068337637682d337a222f3e3c7061746820643d224d323133610f408201527f2032353368347637682d347a222f3e3c7061746820643d224d32313020323437610f608201527f68337636682d337a222f3e3c7061746820643d224d3230372032333768337631610f808201527f30682d337a222f3e3c7061746820643d224d323033203232376834763130682d610fa08201527f347a6d2d343020363068347636682d347a6d323420323068337633682d337a22610fc08201527f2f3e3c7061746820643d224d3136372032393368337635682d337a6d31362031610fe08201527f3468347633682d347a222f3e3c7061746820643d224d313730203239386834766110008201527f33682d347a6d3130203668337633682d337a222f3e3c7061746820643d224d316110208201527f37342033303168367633682d367a6d323320313268367634682d367a222f3e3c6110408201527f7061746820643d224d323033203331376831307633682d31307a6d2d322d31306110608201527f37762d3733682d3476373368337631376833762d3137682d327a222f3e3c2f676110808201527f3e3c6720636c6173733d226f223e3c7061746820643d224d31383720333037766110a08201527f2d346833762d36682d33762d34682d34762d33682d33762d33682d37762d34686110c08201527f2d367634682d3476336834763237682d34763133682d33763130682d347637686110e08201527f3476336833203130203134762d33682d34762d34682d33762d33682d33762d336111008201527f682d34762d376834762d31306833762d376833762d336837762d33682d337a6d6111208201527f3136203130762d34682d36763137682d34763130682d337637683376336834206111408201527f3620342033203134762d33682d34762d34682d37762d33682d33762d33682d336111608201520152565b90610295609a60405180947f3c7374796c653e2e6f7b66696c6c3a233830383038303b7d2e62327b66696c6c60208301527f3a6e6f6e653b7d2e62337b66696c6c3a6e6f6e653b7d2e62347b66696c6c3a6e60408301527f6f6e653b7d2e61317b66696c6c3a6e6f6e653b7d2e61327b66696c6c3a6e6f6e60608301527f653b7d2e61337b66696c6c3a6e6f6e653b7d3c2f7374796c653e00000000000060808301526147ef81518092602086860191016103bf565b810103607a810185520183610235565b9061029560ba60405180947f3c7376672077696474683d2234303022206865696768743d223430302220766960208301527f6577426f783d223020302034303020343030222066696c6c3d226e6f6e65222060408301527f786d6c6e733d22687474703a2f2f7777772e77332e6f72672f323030302f737660608301527f67223e3c7374796c653e2e6f7b66696c6c3a233035303530353b7d2e777b666960808301527336361d11b31cb31cb31c9dbe9e17b9ba3cb6329f60611b60a08301526148d381518092602060b4860191016103bf565b8101651e17b9bb339f60d11b60b482015203609a810185520183610235565b90610a7690614920604051602092609160f51b8483015260228201526022815261491b816101fe565b6158d7565b92604051938161493986935180928680870191016103bf565b820161494d825180938680850191016103bf565b01038084520182610235565b906102956021604051846149778296518092602080860191016103bf565b8101600160fd1b6020820152036001810185520183610235565b610295916149e79493602b926040519687936020926149b88151809286808a0191016103bf565b85016149cc825180938680850191016103bf565b0191602f60f81b8184015283519384916021850191016103bf565b01692072656d61696e696e6760b01b602182015203600b810185520183610235565b6037906102959294936040519582614a2b8894518092602080880191016103bf565b83016b0101429a7a6221027aaaa14960a51b6020820152614a56825180936020602c850191016103bf565b01602f60f81b602c820152614a75825180936020602d850191016103bf565b01692072656d61696e696e6760b01b602d820152036017810185520183610235565b61029591614aec9493602192604051968793602092614abe8151809286808a0191016103bf565b8501614ad2825180938680850191016103bf565b0191602f60f81b81840152835193849187850191016103bf565b01036001810185520183610235565b90610295602360405184614b198296518092602080860191016103bf565b8101620101d160ed1b6020820152036003810185520183610235565b6021610295919392936040519481614b578793518092602080870191016103bf565b8201614b6c82518093602080850191016103bf565b01600160fd1b6020820152036001810185520183610235565b6025610295919392936040519481614ba78793518092602080870191016103bf565b820164555043202360d81b6020820152614bca82518093602087850191016103bf565b01036005810185520183610235565b90614c25610a7692633b9aca00614bf8614bf38551614d3b565b614959565b91068015614c615790614c0d614c2092612f2a565b614c1a6060860151612f2a565b91614a97565b614afb565b90614c34610100820151614f7a565b8051614c4c575b50614c469051612f2a565b90614b85565b614c5a90614c469293614b35565b9190614c3b565b50604083019081518015600014614c935750614c80614c209251612f2a565b614c8d6060860151612f2a565b91614a09565b614c209250614ca190612f2a565b614cae6060860151612f2a565b91614991565b60405190614cc1826101ab565b600882526713dc9a59da5b985b60c21b6020830152565b60405190614ce5826101ab565b60068252654f72616e676560d01b6020830152565b60405190614d07826101ab565b600482526350696e6b60e01b6020830152565b60405190614d27826101ab565b600582526420b634b2b760d91b6020830152565b60018103614d4c5750610a76614d1a565b60028103614d5d5750610a76614cfa565b60038103614d6e5750610a76614cd8565b60048103614d7f5750610a76614cb4565b6000526003602052610a76604060002061031c565b60405190614da1826101ab565b6007825266546f7070696e6760c81b6020830152565b60405190614dc4826101ab565b6004825263119a5cdd60e21b6020830152565b60405190614de4826101ab565b600b82526a5375697420626f74746f6d60a81b6020830152565b60405190614e0b826101ab565b600882526705375697420746f760c41b6020830152565b60405190614e2f826101ab565b600482526314dd5a5d60e21b6020830152565b60405190614e4f826101ab565b60048252631219585960e21b6020830152565b60405190614e6f826101ab565b600882526704865616420746f760c41b6020830152565b60405190614e93826101ab565b600582526409adeeae8d60db1b6020830152565b60405190614eb4826101ab565b6007825266476c617373657360c81b6020830152565b60405190614ed7826101ab565b60088252674e65636b6c61636560c01b6020830152565b60405190614efb826101ab565b60048252634c65677360e01b6020830152565b60405190614f1b826101ab565b60088252674261636b7369646560c01b6020830152565b60405190614f3f826101ab565b600582526415dbdc9b1960da1b6020830152565b60405190614f60826101ab565b600b82526a4e616b65642042616e6e7960a81b6020830152565b80614f885750610a76614f53565b60018103614f995750610a76614f32565b60028103614faa5750610a76614f0e565b60078103614fbb5750610a76614eee565b60038103614fcc5750610a76614eca565b60058103614fdd5750610a76614ea7565b60068103614fee5750610a76614e86565b600b8103614fff5750610a76614e62565b600481036150105750610a76614e42565b600881036150215750610a76614e22565b600a81036150325750610a76614dfe565b600981036150435750610a76614dd7565b600c81036150545750610a76614db7565b600d1461506357610a76611926565b610a76614d94565b60405190615078826101fe565b604082527f6768696a6b6c6d6e6f707172737475767778797a303132333435363738392b2f6040837f4142434445464748494a4b4c4d4e4f505152535455565758595a61626364656660208201520152565b9060028201809211612c8f57565b9060208201809211612c8f57565b9060018201809211612c8f57565b91908201809211612c8f57565b8051156151e15761511061506b565b61512c61512761512084516150ca565b6003900490565b612c77565b9161513e615139846150d8565b612ef8565b92835280815182019060208501935b82821061518f5750505060039051068060011461517e5760021461516f575090565b603d60f81b6000199091015290565b50613d3d60f01b6001199091015290565b9091936004906003809401938451600190603f9082828260121c16880101518553828282600c1c16880101518386015382828260061c168801015160028601531685010151908201530193919061514d565b50610a76611926565b6000546001600160a01b0390811681615201615d74565b160361520a5750565b602490615215615d74565b60405163118cdaa760e01b815291166004820152fd5b61523490615c48565b926152439695969291926131d8565b9460405197889760208901703c7374796c653e2e62317b66696c6c3a2360781b90528051908160318b01916020019161527b926103bf565b8801603181016b3b7d2e62327b66696c6c3a2360a01b905281519182603d830191602001916152a9926103bf565b01603d81016b3b7d2e62337b66696c6c3a2360a01b9052815191826049830191602001916152d6926103bf565b01604981016152f3906b3b7d2e62347b66696c6c3a2360a01b9052565b6055016152ff91611604565b6b3b7d2e61317b66696c6c3a2360a01b8152600c0161531d91611604565b6b3b7d2e61327b66696c6c3a2360a01b8152600c0161533b91611604565b6b3b7d2e61337b66696c6c3a2360a01b8152600c0161535991611604565b691dbe9e17b9ba3cb6329f60b11b8152600a0161537591611604565b03601f1981018252610a769082610235565b6040519061539482610219565b61019c82527f6820643d224d3139332031373068347633682d347a222f3e3c2f673e000000006101a0837f3c6720636c6173733d226f223e3c7061746820643d224d31393020313733682d60208201527f3337762d33682d3130762d34682d36763468337633682d33763468367633683160408201527f307634683337762d346833762d33682d33762d347a6d2d34302034682d33762d60608201527f34683376347a6d372033762d3368337633682d337a6d362030762d336834763360808201527f682d347a6d372030762d3368337633682d337a6d372030762d3368337633682d60a08201527f337a6d31302030682d34762d33683476337a222f3e3c7061746820643d224d3160c08201527f39302031373068337633682d337a222f3e3c7061746820643d224d313933203160e08201527f363668347634682d347a6d30203768347634682d347a222f3e3c2f673e3c67206101008201527f636c6173733d2277223e3c7061746820643d224d3133372031373068337633686101208201527f2d337a6d3130203368337634682d337a6d3130203468337633682d337a6d36206101408201527f3068347633682d347a6d37203068337633682d337a6d37203068337633682d336101608201527f7a6d36203068347633682d347a6d372d3468337634682d337a222f3e3c7061746101808201520152565b6040519060c082018281106001600160401b038211176101a65760405260818252601f60f91b60a0837f3c6720636c6173733d226f223e3c7061746820643d224d31383320313630762d60208201527f34682d32307634682d33763368337634683234762d37682d347a6d2d3133203360408201527f762d336831307633682d31307a222066696c6c3d2223616437316338222f3e3c60608201527f7061746820643d224d313730203136306831307633682d31307a222f3e3c2f6760808201520152565b91906060928151600091828394879361566c816150e6565b955b86811061567f575050505050505050565b818110156158665761569181846115a5565b516040805163507f146560e01b8152600491906001600160a01b036020808386818e86165afa918215610b755761570c9560009588958e948896615847575b50505163c44a8e6d60e01b81526001600160a01b0390931690830190815260208101949094526000604085015290948593849291839160600190565b0392165afa8015610b75576101009160009161582e575b500151965b6003888114969087156157fc5750505060019461574582886130d8565b995b60068981036157c5575050600a6001985b11806157bb575b6157a1575b8115159081615798575b50615780575b5060010196949661566e565b6001919a61280961579192886130d8565b9990615774565b9050153861576e565b986157ac919b611ab9565b996157b5611926565b98615764565b508951151561575f565b89919911806157f4575b6157dc575b600a90615758565b97509a6157eb9061280961558f565b9a6001976157d4565b5088156157cf565b899b9197929b1180615826575b156157475795509a61581d90612809615387565b9a600195615747565b508615615809565b615841913d8091833e610b678183610235565b38615723565b61585e929650803d10610ba457610b958183610235565b9338806156d0565b600e95600090615728565b604051906105e082018281106001600160401b038211176101a657604052602e82526105c0366020840137565b906158a8826104e9565b6158b56040519182610235565b8281528092612f20601f19916104e9565b9081518110156115a0570160200190565b908151156159fe576158e7615871565b9160009060006158f685611593565b526001918151916000925b808410615927575050505061591d61592291610a769394615dcd565b615e10565b615e57565b9091929461595861595261594c61593e89876158c6565b516001600160f81b03191690565b60f81c90565b60ff1690565b9184925b60ff90898289168610156159bd576001929161599161598b6159526159848a615997966115a5565b5160ff1690565b60081b90565b906150f4565b6159b48b6159ac88603a9586860616926115a5565b9060ff169052565b0493019261595c565b50919594935050809691965b6159d7575060010192615901565b9460ff6001603a926159f483858b06166159ac8d868516906115a5565b01169504806159c9565b9050610a76612ee0565b60405190615a15826101ab565b600682526506666653930360d41b6020830152565b60405190615a37826101ab565b600682526506666633730360d41b6020830152565b60405190615a59826101ab565b600682526566336136303360d01b6020830152565b60405190615a7b826101ab565b600682526539363561316160d01b6020830152565b60405190615a9d826101ab565b600682526533331bb1981960d11b6020830152565b60405190615abf826101ab565b600682526506664333630360d41b6020830152565b60405190615ae1826101ab565b600682526518cccc994c1960d21b6020830152565b60405190615b03826101ab565b600682526566666438633560d01b6020830152565b60405190615b25826101ab565b600682526566663936613960d01b6020830152565b60405190615b47826101ab565b600682526533329a9c1c3160d11b6020830152565b60405190615b69826101ab565b600682526563393266343560d01b6020830152565b60405190615b8b826101ab565b600682526536376437353760d01b6020830152565b60405190615bad826101ab565b600682526503330613232360d41b6020830152565b60405190615bcf826101ab565b600682526532313761313560d01b6020830152565b60405190615bf1826101ab565b60048252636e6f6e6560e01b6020830152565b60405190615c11826101ab565b6006825265329a1c19b2b360d11b6020830152565b60405190615c33826101ab565b60068252653231993332b360d11b6020830152565b60018103615c8f5750615c59615b7e565b90615c62615ba0565b90615c6b615bc2565b90615c74615be4565b90615c7d615c04565b90615c86615c26565b90610a76615c26565b60028103615cd65750615ca0615af6565b90615ca9615b18565b90615cb2615b3a565b90615cbb615b5c565b90615cc4615af6565b90615ccd615b18565b90610a76615b3a565b60038103615d1d5750615ce7615a4c565b90615cf0615a90565b90615cf9615ab2565b90615d02615ad4565b90615d0b615a4c565b90615d14615a90565b90610a76615ab2565b600414615d3657604051633b9cb79b60e21b8152600490fd5b615d3e615a08565b90615d47615a2a565b90615d50615a4c565b90615d59615a6e565b90615d62615a08565b90615d6b615a2a565b90610a76615a4c565b337f000000000000000000000000b2b5841dbef766d4b521221732f9b618fcf34a876001600160a01b03161480615dc2575b15615dbe576013193601368111612c8f573560601c90565b3390565b506014361015615da6565b9060ff80911690615ddd8261589e565b9260005b838110615def575050505090565b8083615dfd600193856115a5565b5116615e0982886115a5565b5201615de1565b908151615e1c8161589e565b9060005b818110615e2e575090925050565b60019060ff615e446000198389510301886115a5565b5116615e5082866115a5565b5201615e20565b8051615e6281611340565b91604090615e736040519485610235565b828452615e7f83611340565b602090601f1901368683013760009260005b858110615ea15750505050505090565b6001908251615eaf816101fe565b603a81527f31323334353637383941424344454647484a4b4c4d4e50515253545556575859858201527f5a6162636465666768696a6b6d6e6f707172737475767778797a000000000000848201526001600160f81b031990615f1f9060ff615f17858a6115a5565b5116906158c6565b5116861a615f2d828a6158c6565b5301615e9156fea2646970667358221220f4c28235c2577961bfb96f025f5626f87693022b891a47164c12465d5e52a4fe64736f6c63430008170033",
			"devdoc": {
				"kind": "dev",
				"methods": {
					"assetIdsOf(address,uint256)": {
						"custom:param": "hook The hook address of the collection.",
						"params": {
							"nakedBannyId": "The ID of the naked banny shows with the associated assets."
						},
						"returns": {
							"outfitIds": "The outfits attached to the Naked Banny.",
							"worldId": "The world attached to the Naked Banny."
						}
					},
					"constructor": {
						"params": {
							"owner": "The owner allowed to add SVG files that correspond to product IDs.",
							"trustedForwarder": "The trusted forwarder for the ERC2771Context."
						}
					},
					"decorateBannyWith(address,uint256,uint256,uint256[])": {
						"details": "The caller must own the naked banny being dressed and all outfits being worn.",
						"params": {
							"hook": "The hook storing the assets.",
							"nakedBannyId": "The ID of the Naked Banny being dressed.",
							"outfitIds": "The IDs of the outfits that'll be associated with the specified banny. Only one outfit per outfit category allowed at a time and they must be passed in order.",
							"worldId": "The ID of the world that'll be associated with the specified banny."
						}
					},
					"isTrustedForwarder(address)": {
						"details": "Indicates whether any particular address is the trusted forwarder."
					},
					"namesOf(address,uint256)": {
						"params": {
							"hook": "The hook storing the assets.",
							"tokenId": "The ID of the token to show."
						},
						"returns": {
							"_0": "fullName The full name of the token.",
							"_1": "categoryName The name of the token's category.",
							"_2": "productName The name of the token's product."
						}
					},
					"owner()": {
						"details": "Returns the address of the current owner."
					},
					"renounceOwnership()": {
						"details": "Leaves the contract without owner. It will not be possible to call `onlyOwner` functions. Can only be called by the current owner. NOTE: Renouncing ownership will leave the contract without an owner, thereby disabling any functionality that is only available to the owner."
					},
					"setProductNames(uint256[],string[])": {
						"params": {
							"names": "The names of the products.",
							"upcs": "The universal product codes of the products having their name stored."
						}
					},
					"setSvgContentsOf(uint256[],string[])": {
						"params": {
							"svgContents": "The svg contents being stored, not including the parent <svg></svg> element.",
							"upcs": "The universal product codes of the products having SVGs stored."
						}
					},
					"setSvgHashsOf(uint256[],bytes32[])": {
						"details": "This allows anyone to lazily upload the correct svg file.",
						"params": {
							"svgHashs": "The svg hashes being stored, not including the parent <svg></svg> element.",
							"upcs": "The universal product codes of the products having SVG hashes stored."
						}
					},
					"svgOf(address,uint256,bool,bool)": {
						"params": {
							"hook": "The hook storing the assets.",
							"shouldDressNakedBanny": "Whether the naked banny should be dressed.",
							"shouldIncludeWorldOnNakedBanny": "Whether the world should be included on the naked banny.",
							"tokenId": "The ID of the token to show. If the ID belongs to a Naked Banny, it will be shown with its current outfits in its current world if specified."
						},
						"returns": {
							"_0": "svg The SVG."
						}
					},
					"tokenUriOf(address,uint256)": {
						"params": {
							"tokenId": "The ID of the token to show. If the ID belongs to a Naked Banny, it will be shown with its current outfits in its current world."
						},
						"returns": {
							"_0": "tokenUri The URI representing the SVG."
						}
					},
					"transferOwnership(address)": {
						"details": "Transfers ownership of the contract to a new account (`newOwner`). Can only be called by the current owner."
					},
					"trustedForwarder()": {
						"details": "Returns the address of the trusted forwarder."
					},
					"userOf(address,uint256)": {
						"custom:param": "hook The hook address of the collection.",
						"params": {
							"worldId": "The ID of the world being used."
						},
						"returns": {
							"_0": "The ID of the naked banny using the world."
						}
					},
					"wearerOf(address,uint256)": {
						"custom:param": "hook The hook address of the collection.",
						"params": {
							"outfitId": "The ID of the outfit being worn."
						},
						"returns": {
							"_0": "The ID of the naked banny wearing the outfit."
						}
					}
				},
				"version": 1
			},
			"userdoc": {
				"kind": "user",
				"methods": {
					"assetIdsOf(address,uint256)": {
						"notice": "The assets currently attached to each Naked Banny, owned by the naked Banny's owner."
					},
					"decorateBannyWith(address,uint256,uint256,uint256[])": {
						"notice": "Dress your Naked Banny with outfits."
					},
					"namesOf(address,uint256)": {
						"notice": "Returns the name of the token."
					},
					"setProductNames(uint256[],string[])": {
						"notice": "Allows the owner to set the product's name."
					},
					"setSvgBaseUri(string)": {
						"notice": "Allows the owner of this contract to specify the base of the domain hosting the SVG files."
					},
					"setSvgContentsOf(uint256[],string[])": {
						"notice": "The owner of this contract can store SVG files for product IDs."
					},
					"setSvgHashsOf(uint256[],bytes32[])": {
						"notice": "Allows the owner of this contract to upload the hash of an svg file for a universal product code."
					},
					"svgBaseUri()": {
						"notice": "The base of the domain hosting the SVG files that can be lazily uploaded to the contract."
					},
					"svgHashOf(uint256)": {
						"notice": "The Naked Banny and outfit SVG hash files."
					},
					"svgOf(address,uint256,bool,bool)": {
						"notice": "Returns the SVG showing either a naked banny with/without outfits and a world, or the stand alone outfit or world."
					},
					"tokenUriOf(address,uint256)": {
						"notice": "Returns the SVG showing a dressed Naked Banny in a world."
					},
					"userOf(address,uint256)": {
						"notice": "Checks to see which naked banny is currently using a particular world."
					},
					"wearerOf(address,uint256)": {
						"notice": "Checks to see which naked banny is currently wearing a particular outfit."
					}
				},
				"version": 1
			},
			"gitCommit": "096bd227008bc73a7b5f8707e01121bd1e7eb495",
			"sourceName": "src/Banny721TokenUriResolver.sol",
			"chainId": "11155420",
			"linkReferences": {},
			"deployedLinkReferences": {}
		}
	]
}