{
	"_format": "sphinx-sol-ct-artifact-1",
	"merkleRoot": "0x624251a5a5e03dc8f29b09b1b483440201c55a9e339f1c332d746b5f95f3e368",
	"contractName": "Banny721TokenUriResolver",
	"address": "0x2814Da6483329f212593e75f00c6422f4CbD7a78",
	"abi": [
		{
			"type": "constructor",
			"inputs": [
				{
					"name": "owner",
					"type": "address",
					"internalType": "address"
				},
				{
					"name": "trustedForwarder",
					"type": "address",
					"internalType": "address"
				}
			],
			"stateMutability": "nonpayable"
		},
		{
			"type": "function",
			"name": "assetIdsOf",
			"inputs": [
				{
					"name": "hook",
					"type": "address",
					"internalType": "address"
				},
				{
					"name": "nakedBannyId",
					"type": "uint256",
					"internalType": "uint256"
				}
			],
			"outputs": [
				{
					"name": "worldId",
					"type": "uint256",
					"internalType": "uint256"
				},
				{
					"name": "outfitIds",
					"type": "uint256[]",
					"internalType": "uint256[]"
				}
			],
			"stateMutability": "view"
		},
		{
			"type": "function",
			"name": "decorateBannyWith",
			"inputs": [
				{
					"name": "hook",
					"type": "address",
					"internalType": "address"
				},
				{
					"name": "nakedBannyId",
					"type": "uint256",
					"internalType": "uint256"
				},
				{
					"name": "worldId",
					"type": "uint256",
					"internalType": "uint256"
				},
				{
					"name": "outfitIds",
					"type": "uint256[]",
					"internalType": "uint256[]"
				}
			],
			"outputs": [],
			"stateMutability": "nonpayable"
		},
		{
			"type": "function",
			"name": "isTrustedForwarder",
			"inputs": [
				{
					"name": "forwarder",
					"type": "address",
					"internalType": "address"
				}
			],
			"outputs": [
				{
					"name": "",
					"type": "bool",
					"internalType": "bool"
				}
			],
			"stateMutability": "view"
		},
		{
			"type": "function",
			"name": "namesOf",
			"inputs": [
				{
					"name": "hook",
					"type": "address",
					"internalType": "address"
				},
				{
					"name": "tokenId",
					"type": "uint256",
					"internalType": "uint256"
				}
			],
			"outputs": [
				{
					"name": "",
					"type": "string",
					"internalType": "string"
				},
				{
					"name": "",
					"type": "string",
					"internalType": "string"
				},
				{
					"name": "",
					"type": "string",
					"internalType": "string"
				}
			],
			"stateMutability": "view"
		},
		{
			"type": "function",
			"name": "owner",
			"inputs": [],
			"outputs": [
				{
					"name": "",
					"type": "address",
					"internalType": "address"
				}
			],
			"stateMutability": "view"
		},
		{
			"type": "function",
			"name": "renounceOwnership",
			"inputs": [],
			"outputs": [],
			"stateMutability": "nonpayable"
		},
		{
			"type": "function",
			"name": "setProductNames",
			"inputs": [
				{
					"name": "upcs",
					"type": "uint256[]",
					"internalType": "uint256[]"
				},
				{
					"name": "names",
					"type": "string[]",
					"internalType": "string[]"
				}
			],
			"outputs": [],
			"stateMutability": "nonpayable"
		},
		{
			"type": "function",
			"name": "setSvgBaseUri",
			"inputs": [
				{
					"name": "baseUri",
					"type": "string",
					"internalType": "string"
				}
			],
			"outputs": [],
			"stateMutability": "nonpayable"
		},
		{
			"type": "function",
			"name": "setSvgContentsOf",
			"inputs": [
				{
					"name": "upcs",
					"type": "uint256[]",
					"internalType": "uint256[]"
				},
				{
					"name": "svgContents",
					"type": "string[]",
					"internalType": "string[]"
				}
			],
			"outputs": [],
			"stateMutability": "nonpayable"
		},
		{
			"type": "function",
			"name": "setSvgHashsOf",
			"inputs": [
				{
					"name": "upcs",
					"type": "uint256[]",
					"internalType": "uint256[]"
				},
				{
					"name": "svgHashs",
					"type": "bytes32[]",
					"internalType": "bytes32[]"
				}
			],
			"outputs": [],
			"stateMutability": "nonpayable"
		},
		{
			"type": "function",
			"name": "svgBaseUri",
			"inputs": [],
			"outputs": [
				{
					"name": "",
					"type": "string",
					"internalType": "string"
				}
			],
			"stateMutability": "view"
		},
		{
			"type": "function",
			"name": "svgHashOf",
			"inputs": [
				{
					"name": "upc",
					"type": "uint256",
					"internalType": "uint256"
				}
			],
			"outputs": [
				{
					"name": "",
					"type": "bytes32",
					"internalType": "bytes32"
				}
			],
			"stateMutability": "view"
		},
		{
			"type": "function",
			"name": "svgOf",
			"inputs": [
				{
					"name": "hook",
					"type": "address",
					"internalType": "address"
				},
				{
					"name": "tokenId",
					"type": "uint256",
					"internalType": "uint256"
				},
				{
					"name": "shouldDressNakedBanny",
					"type": "bool",
					"internalType": "bool"
				},
				{
					"name": "shouldIncludeWorldOnNakedBanny",
					"type": "bool",
					"internalType": "bool"
				}
			],
			"outputs": [
				{
					"name": "",
					"type": "string",
					"internalType": "string"
				}
			],
			"stateMutability": "view"
		},
		{
			"type": "function",
			"name": "tokenUriOf",
			"inputs": [
				{
					"name": "hook",
					"type": "address",
					"internalType": "address"
				},
				{
					"name": "tokenId",
					"type": "uint256",
					"internalType": "uint256"
				}
			],
			"outputs": [
				{
					"name": "",
					"type": "string",
					"internalType": "string"
				}
			],
			"stateMutability": "view"
		},
		{
			"type": "function",
			"name": "transferOwnership",
			"inputs": [
				{
					"name": "newOwner",
					"type": "address",
					"internalType": "address"
				}
			],
			"outputs": [],
			"stateMutability": "nonpayable"
		},
		{
			"type": "function",
			"name": "trustedForwarder",
			"inputs": [],
			"outputs": [
				{
					"name": "",
					"type": "address",
					"internalType": "address"
				}
			],
			"stateMutability": "view"
		},
		{
			"type": "function",
			"name": "userOf",
			"inputs": [
				{
					"name": "hook",
					"type": "address",
					"internalType": "address"
				},
				{
					"name": "worldId",
					"type": "uint256",
					"internalType": "uint256"
				}
			],
			"outputs": [
				{
					"name": "",
					"type": "uint256",
					"internalType": "uint256"
				}
			],
			"stateMutability": "view"
		},
		{
			"type": "function",
			"name": "wearerOf",
			"inputs": [
				{
					"name": "hook",
					"type": "address",
					"internalType": "address"
				},
				{
					"name": "outfitId",
					"type": "uint256",
					"internalType": "uint256"
				}
			],
			"outputs": [
				{
					"name": "",
					"type": "uint256",
					"internalType": "uint256"
				}
			],
			"stateMutability": "view"
		},
		{
			"type": "event",
			"name": "DecorateBanny",
			"inputs": [
				{
					"name": "hook",
					"type": "address",
					"indexed": true,
					"internalType": "address"
				},
				{
					"name": "nakedBannyId",
					"type": "uint256",
					"indexed": true,
					"internalType": "uint256"
				},
				{
					"name": "worldId",
					"type": "uint256",
					"indexed": false,
					"internalType": "uint256"
				},
				{
					"name": "outfitIds",
					"type": "uint256[]",
					"indexed": false,
					"internalType": "uint256[]"
				},
				{
					"name": "caller",
					"type": "address",
					"indexed": false,
					"internalType": "address"
				}
			],
			"anonymous": false
		},
		{
			"type": "event",
			"name": "OwnershipTransferred",
			"inputs": [
				{
					"name": "previousOwner",
					"type": "address",
					"indexed": true,
					"internalType": "address"
				},
				{
					"name": "newOwner",
					"type": "address",
					"indexed": true,
					"internalType": "address"
				}
			],
			"anonymous": false
		},
		{
			"type": "event",
			"name": "SetProductName",
			"inputs": [
				{
					"name": "upc",
					"type": "uint256",
					"indexed": true,
					"internalType": "uint256"
				},
				{
					"name": "name",
					"type": "string",
					"indexed": false,
					"internalType": "string"
				},
				{
					"name": "caller",
					"type": "address",
					"indexed": false,
					"internalType": "address"
				}
			],
			"anonymous": false
		},
		{
			"type": "event",
			"name": "SetSvgBaseUri",
			"inputs": [
				{
					"name": "baseUri",
					"type": "string",
					"indexed": false,
					"internalType": "string"
				},
				{
					"name": "caller",
					"type": "address",
					"indexed": false,
					"internalType": "address"
				}
			],
			"anonymous": false
		},
		{
			"type": "event",
			"name": "SetSvgContent",
			"inputs": [
				{
					"name": "upc",
					"type": "uint256",
					"indexed": true,
					"internalType": "uint256"
				},
				{
					"name": "svgContent",
					"type": "string",
					"indexed": false,
					"internalType": "string"
				},
				{
					"name": "caller",
					"type": "address",
					"indexed": false,
					"internalType": "address"
				}
			],
			"anonymous": false
		},
		{
			"type": "event",
			"name": "SetSvgHash",
			"inputs": [
				{
					"name": "upc",
					"type": "uint256",
					"indexed": true,
					"internalType": "uint256"
				},
				{
					"name": "svgHash",
					"type": "bytes32",
					"indexed": true,
					"internalType": "bytes32"
				},
				{
					"name": "caller",
					"type": "address",
					"indexed": false,
					"internalType": "address"
				}
			],
			"anonymous": false
		},
		{
			"type": "error",
			"name": "ASSET_IS_ALREADY_BEING_WORN",
			"inputs": []
		},
		{
			"type": "error",
			"name": "CONTENTS_ALREADY_STORED",
			"inputs": []
		},
		{
			"type": "error",
			"name": "CONTENTS_MISMATCH",
			"inputs": []
		},
		{
			"type": "error",
			"name": "HASH_ALREADY_STORED",
			"inputs": []
		},
		{
			"type": "error",
			"name": "HASH_NOT_FOUND",
			"inputs": []
		},
		{
			"type": "error",
			"name": "HEAD_ALREADY_ADDED",
			"inputs": []
		},
		{
			"type": "error",
			"name": "OwnableInvalidOwner",
			"inputs": [
				{
					"name": "owner",
					"type": "address",
					"internalType": "address"
				}
			]
		},
		{
			"type": "error",
			"name": "OwnableUnauthorizedAccount",
			"inputs": [
				{
					"name": "account",
					"type": "address",
					"internalType": "address"
				}
			]
		},
		{
			"type": "error",
			"name": "SUIT_ALREADY_ADDED",
			"inputs": []
		},
		{
			"type": "error",
			"name": "UNAUTHORIZED_NAKED_BANNY",
			"inputs": []
		},
		{
			"type": "error",
			"name": "UNAUTHORIZED_OUTFIT",
			"inputs": []
		},
		{
			"type": "error",
			"name": "UNAUTHORIZED_WORLD",
			"inputs": []
		},
		{
			"type": "error",
			"name": "UNORDERED_CATEGORIES",
			"inputs": []
		},
		{
			"type": "error",
			"name": "UNRECOGNIZED_CATEGORY",
			"inputs": []
		},
		{
			"type": "error",
			"name": "UNRECOGNIZED_OUTFIT",
			"inputs": []
		},
		{
			"type": "error",
			"name": "UNRECOGNIZED_PRODUCT",
			"inputs": []
		},
		{
			"type": "error",
			"name": "UNRECOGNIZED_WORLD",
			"inputs": []
		}
	],
	"solcInputHash": "3c0cb41cfa0f9a548ffe6309cfe0db04",
	"args": [
		"0x584F5Da53cb18789099466074e3B5c32Ed17243a",
		"0xB2b5841DBeF766d4b521221732F9B618fCf34A87"
	],
	"bytecode": "0x60a034620000e957601f6200608438819003918201601f19168301916001600160401b03831184841017620000ee578084926040948552833981010312620000e9576200005a6020620000528362000104565b920162000104565b6080526001600160a01b039081168015620000d057600080546001600160a01b03198116831782556040519316907f8be0079c531659141344cd1fd0a4f28419497f9722a3daafe3b4186f6b6457e09080a3615f6a90816200011a8239608051818181610723015281816108560152615d770152f35b604051631e4fbdf760e01b815260006004820152602490fd5b600080fd5b634e487b7160e01b600052604160045260246000fd5b51906001600160a01b0382168203620000e95756fe6080604052600436101561001257600080fd5b60003560e01c806257bfdd1461013657806318ab522d1461013157806331a290ac1461012c578063572b6c05146101275780635e703e71146101225780636aff31dd1461011d578063715018a61461011857806379a2696e146101135780637da0a8771461010e578063875e4bea146101095780638da5cb5b14610104578063a0122c09146100ff578063a22d0dd5146100fa578063b03a3eab146100f5578063b1fa9e7b146100f0578063c06e7bc7146100eb578063d756227e146100e65763f2fde38b146100e157600080fd5b611461565b611392565b610cca565b610c9f565b610bfa565b610bb5565b610a79565b610a16565b610885565b610840565b61080d565b6107af565b610783565b610757565b6106ff565b610590565b610451565b610407565b90600182811c9216801561016b575b602083101461015557565b634e487b7160e01b600052602260045260246000fd5b91607f169161014a565b634e487b7160e01b600052604160045260246000fd5b602081019081106001600160401b038211176101a657604052565b610175565b604081019081106001600160401b038211176101a657604052565b61026081019081106001600160401b038211176101a657604052565b6111a081019081106001600160401b038211176101a657604052565b606081019081106001600160401b038211176101a657604052565b6101c081019081106001600160401b038211176101a657604052565b90601f801991011681019081106001600160401b038211176101a657604052565b604051906000826002549161026a8361013b565b808352926020906001908181169081156102f85750600114610297575b505061029592500383610235565b565b91509260026000527f405787fa12a823e0f2b7631cc41b3ba8828b3321ca811111fa75cd3aa3bb5ace936000925b8284106102e057506102959450505081016020013880610287565b855488850183015294850194879450928101926102c5565b9150506020925061029594915060ff191682840152151560051b8201013880610287565b9060405191826000825461032f8161013b565b9081845260209460019160018116908160001461039d575060011461035e575b50505061029592500383610235565b600090815285812095935091905b818310610385575050610295935082010138808061034f565b8554888401850152948501948794509183019161036c565b9250505061029594925060ff191682840152151560051b82010138808061034f565b60005b8381106103d25750506000910152565b81810151838201526020016103c2565b906020916103fb815180928185528580860191016103bf565b601f01601f1916010190565b3461043b57600036600319011261043b57610437610423610256565b6040519182916020835260208301906103e2565b0390f35b600080fd5b6001600160a01b0381160361043b57565b3461043b57604036600319011261043b5761047a60043561047181610440565b602435906114ed565b906040519182916040830190835260209060406020850152825180915260206060850193019160005b8281106104b257505050500390f35b8351855286955093810193928101926001016104a3565b604051906101a082018281106001600160401b038211176101a657604052565b6001600160401b0381116101a65760051b60200190565b9080601f8301121561043b57602090823561051a816104e9565b936105286040519586610235565b81855260208086019260051b82010192831161043b57602001905b828210610551575050505090565b81358152908301908301610543565b9181601f8401121561043b578235916001600160401b03831161043b576020808501948460051b01011161043b57565b3461043b5760408060031936011261043b576004906001600160401b03823581811161043b576105c39036908501610500565b9060243590811161043b576105db9036908501610560565b92909180519360005b8581106105ed57005b6105f781846115a5565b5161060d6106068385896115b9565b369161135b565b610629610624836000526004602052604060002090565b6115fa565b6106ef57610641826000526001602052604060002090565b5480156106df578651602081019061066b8161065d8487611604565b03601f198101835282610235565b519020036106cf57907faeb631726b45aa3f6b09da79f7af03a9784614901f61a967ed84d63c37b7edc76106c6836106b9600196956106b4866000526004602052604060002090565b6116cd565b88519182913390836117a2565b0390a2016105e4565b85516375b5da0b60e01b81528990fd5b8651637ef41a4f60e01b81528a90fd5b8551630388067760e21b81528990fd5b3461043b57602036600319011261043b57602060043561071e81610440565b6040517f00000000000000000000000000000000000000000000000000000000000000006001600160a01b039081169216919091148152f35b3461043b57604036600319011261043b5761043761042360043561077a81610440565b60243590611c3c565b3461043b57602036600319011261043b5760043560005260016020526020604060002054604051908152f35b3461043b5760008060031936011261080a576107c96151ea565b80546001600160a01b03198116825581906001600160a01b03167f8be0079c531659141344cd1fd0a4f28419497f9722a3daafe3b4186f6b6457e08280a380f35b80fd5b3461043b57604036600319011261043b57602061083860043561082f81610440565b602435906122b9565b604051908152f35b3461043b57600036600319011261043b576040517f00000000000000000000000000000000000000000000000000000000000000006001600160a01b03168152602090f35b3461043b5760208060031936011261043b576004356001600160401b0380821161043b573660238301121561043b57816004013590811161043b57602492366024838501011161043b576108d76151ea565b6108eb826108e660025461013b565b611632565b600093601f831160011461096957505061093e81807f512c3c91736f50c57a0548c1d01ab02f24c420f002b8b20e2bfe63df9693cd3f9560009161095b575b508160011b916000199060031b1c19161790565b6002555b610956604051928392602433920184612317565b0390a1005b60249150850101353861092a565b6002600052601f19831694907f405787fa12a823e0f2b7631cc41b3ba8828b3321ca811111fa75cd3aa3bb5ace9282915b8783106109fa57505050827f512c3c91736f50c57a0548c1d01ab02f24c420f002b8b20e2bfe63df9693cd3f95106109dd575b5050600181811b01600255610942565b830160240135600019600384901b60f8161c1916905538806109cd565b908060018596848396978b01013581550195019301919061099a565b3461043b57600036600319011261043b576000546040516001600160a01b039091168152602090f35b91610a6890610a5a610a7695936060865260608601906103e2565b9084820360208601526103e2565b9160408184039101526103e2565b90565b3461043b57604036600319011261043b57600435610a9681610440565b60405163507f146560e01b815260243591906001600160a01b03906020816004818587165afa8015610b7557610b0d9360009386938593610b7a575b5060405163c44a8e6d60e01b81526001600160a01b039092166004830152602482019390935260006044820152938492839182906064820190565b0392165afa908115610b7557600091610b52575b50610437610b46610b40610100610b388587614bd9565b940151614f7a565b93614d3b565b60405193849384610a3f565b610b6f91503d806000833e610b678183610235565b810190611843565b38610b21565b6117df565b610b9d91935060203d602011610ba4575b610b958183610235565b8101906117ca565b9138610ad2565b503d610b8b565b8015150361043b57565b3461043b57608036600319011261043b57610437610423600435610bd881610440565b604435610be481610bab565b60643591610bf183610bab565b602435906128de565b3461043b57604036600319011261043b576001600160401b0360043581811161043b57610c2b903690600401610500565b9060243590811161043b573660238201121561043b578060040135610c4f816104e9565b91610c5d6040519384610235565b8183526020916024602085019160051b8301019136831161043b57602401905b828210610c9057610c8e8587612a69565b005b81358152908301908301610c7d565b3461043b57604036600319011261043b576020610838600435610cc181610440565b60243590612b0c565b3461043b57608036600319011261043b5760048035610ce881610440565b60243591604435916064356001600160401b03811161043b57610d0e9036908401610560565b93909160018060a01b039081811694604092835191610d476331a9108f60e11b938481528b818060209485938783019190602083019252565b03818d5afa908115610b7557600091611323575b5083610d74610d68615d74565b6001600160a01b031690565b911603611314578a8a88156112e15750508551848152818180610d9e8b8783019190602083019252565b03818d5afa908115610b75576000916112c4575b5083610dbf610d68615d74565b9116036112b557610dd087866122b9565b6112a657855163507f146560e01b8152818184818d5afa8015610b7557610e3760009186938391611289575b50895163c44a8e6d60e01b81526001600160a01b038a16878201908152602081018d9052600060408201529094859384928391606090910190565b0392165afa908115610b755760009161126e575b50511561125f57918493918a9388610e898e610e7a819a60018060a01b03166000526006602052604060002090565b90600052602052604060002090565b5586610eab8a610e7a8960018060a01b03166000526007602052604060002090565b5591909293505b600091610ebd612be0565b5060009182808e5b8210610f3c57505050505050505095610f248186610f1f610f379695610e7a7f6a68946ba06488db8585d7c7637fa954b574035fe15720ea760125ef860172589b9c60018060a01b03166000526005602052604060002090565b612c94565b610f2c615d74565b915194859485612d0d565b0390a3005b87989950610f778f948f8f908a8f9287859b9c9d9e98999a610f5d92612c51565b359687935195869485938493845283019190602083019252565b03915afa908115610b7557600091611242575b5084610f97610d68615d74565b91160361123257610fa8828b612b0c565b6112225787858f8d519283809263507f146560e01b82525afa8015610b7557836000918d8f8d8a91611016978795611203575b505163c44a8e6d60e01b81526001600160a01b0390931690830190815260208101949094526000604085015290948593849291839160600190565b0392165afa908115610b75576000916111ea575b508051156111da5761010001968751600281109081156111cf575b506111bf5783151590816111b3575b506111a357918f9998969492918f9896949286518881146000146110b3575050899695949392918b6110a5600193610e7a85995b516001600160a01b03909c16600090815260086020526040902090565b550191939092949697610ec5565b600891999b9c5080929496939597989a50146000146110ec57505092889795928f9995928f9895908b6110a5600193610e7a8598611088565b979f9d9b9998979a9e9c9a600581979297148015611199575b801561118f575b80611188575b1561112757508f8f51631e550b6f60e11b8152fd5b9d9f9798999b9d9c9e9a9c600a811490811561117d575b5080611176575b61116657928f999896938f989592938b6110a58c9996610e7a600195611088565b8a51635e701b2b60e01b81528890fd5b5085611145565b60099150143861113e565b5087611112565b50600b811461110c565b5060068114611105565b8a51637dc0e82560e11b81528890fd5b90508751111538611054565b8b5163c89badbd60e01b81528990fd5b600d91501138611045565b8b516354c0901d60e11b81528990fd5b6111fd913d8091833e610b678183610235565b3861102a565b61121b9195508d803d10610ba457610b958183610235565b9338610fdb565b8a5163670bdddd60e11b81528890fd5b8a5163812a698960e01b81528890fd5b6112599150863d8811610ba457610b958183610235565b38610f8a565b50845163265ba87960e01b8152fd5b61128391503d806000833e610b678183610235565b38610e4b565b6112a09150853d8711610ba457610b958183610235565b38610dfc565b50845163670bdddd60e11b8152fd5b508451639d17cec760e01b8152fd5b6112db9150823d8411610ba457610b958183610235565b38610db2565b9391600061130983610e7a8a9997959a60018060a01b03166000526006602052604060002090565b559190929350610eb2565b508451632add3f4b60e01b8152fd5b61133a9150823d8411610ba457610b958183610235565b38610d5b565b6001600160401b0381116101a657601f01601f191660200190565b92919261136782611340565b916113756040519384610235565b82948184528183011161043b578281602093846000960137010152565b3461043b57604036600319011261043b576001600160401b0360043581811161043b576113c3903690600401610500565b60249060243583811161043b573660238201121561043b578060040135926113ea846104e9565b936113f86040519586610235565b8085526020956024602087019260051b8501019336851161043b5760248101925b85841061142a57610c8e8888612d50565b833583811161043b5782013660438201121561043b5789916114568392369060448a820135910161135b565b815201930192611419565b3461043b57602036600319011261043b5760043561147e81610440565b6114866151ea565b6001600160a01b0390811680156114d457600080546001600160a01b03198116831782559092167f8be0079c531659141344cd1fd0a4f28419497f9722a3daafe3b4186f6b6457e08380a380f35b604051631e4fbdf760e01b815260006004820152602490fd5b6001600160a01b038116600090815260056020908152604080832085845282528083209051815480825291845282842081840197969392855b81811061156957505050806115446115609260409798990382610235565b6001600160a01b03909616600090815260066020526040902090565b91835252205491565b82548a529884019860019283019201611526565b634e487b7160e01b600052603260045260246000fd5b8051156115a05760200190565b61157d565b80518210156115a05760209160051b010190565b91908110156115a05760051b81013590601e198136030182121561043b5701908135916001600160401b03831161043b57602001823603811361043b579190565b610a76905461013b565b90611617602092828151948592016103bf565b0190565b818110611626575050565b6000815560010161161b565b90601f821161163f575050565b6102959160026000527f405787fa12a823e0f2b7631cc41b3ba8828b3321ca811111fa75cd3aa3bb5ace906020601f840160051c83019310611689575b601f0160051c019061161b565b909150819061167c565b9190601f81116116a257505050565b610295926000526020600020906020601f840160051c8301931061168957601f0160051c019061161b565b91909182516001600160401b0381116101a6576116f4816116ee845461013b565b84611693565b602080601f83116001146117375750819061172893949560009261172c575b50508160011b916000199060031b1c19161790565b9055565b015190503880611713565b90601f1983169561174d85600052602060002090565b926000905b88821061178a57505083600195969710611771575b505050811b019055565b015160001960f88460031b161c19169055388080611767565b80600185968294968601518155019501930190611752565b906117ba6020919493946040845260408401906103e2565b6001600160a01b03909416910152565b9081602091031261043b5751610a7681610440565b6040513d6000823e3d90fd5b519061029582610440565b519061029582610bab565b81601f8201121561043b57805161181781611340565b926118256040519485610235565b8184526020828401011161043b57610a7691602080850191016103bf565b60208183031261043b5780516001600160401b039182821161043b57016101a08184031261043b576118736104c9565b92815184526020820151602085015260408201516040850152606082015160608501526080820151608085015260a082015160a08501526118b660c083016117eb565b60c085015260e082015160e085015261010080830151908501526101206118de8184016117f6565b908501526101406118f08184016117f6565b908501526101606119028184016117f6565b90850152610180928383015190811161043b5761191f9201611801565b9082015290565b604051906119338261018b565b60008252565b60405190611946826101ab565b600e82526d226f7574666974496473223a205b60901b6020830152565b60236102959193929360405194816119858793518092602080870191016103bf565b8201601160f91b60208201526119a58251809360206021850191016103bf565b0161088b60f21b6021820152036003810185520183610235565b906102956022604051846119dd8296518092602080860191016103bf565b810161174b60f21b6020820152036002810185520183610235565b602e610295919392936040519481611a1a8793518092602080870191016103bf565b82016b113bb7b9363224b2111d101160a11b6020820152611a45825180936020602c850191016103bf565b0161088b60f21b602c82015203600e810185520183610235565b90604051918260605160005b818110611aa0575090602061029593611a948294840191838301600081528151948592016103bf565b01038085520183610235565b6020919250806080015182828801015201908491611a6b565b6020610295919392936040519481611ada87935180928680870191016103bf565b8201611a94825180938680850191016103bf565b90610295603960405180947f22776f726e42794e616b656442616e6e794964223a20220000000000000000006020830152611b338151809260206037860191016103bf565b810161088b60f21b6037820152036019810185520183610235565b90610295603960405180947f227573656442794e616b656442616e6e794964223a20220000000000000000006020830152611b338151809260206037860191016103bf565b9060208282031261043b5781516001600160401b03811161043b57610a769201611801565b9081602091031261043b575190565b9081606091031261043b5780519160406020830151920151610a7681610440565b90610295603d60405180947f646174613a6170706c69636174696f6e2f6a736f6e3b6261736536342c0000006020830152611c2c81518092602086860191016103bf565b810103601d810185520183610235565b6040805163507f146560e01b808252602092916001600160a01b03919060049086841686828481845afa8015610b755789600091611cb894839161229c575b50885163c44a8e6d60e01b81526001600160a01b038c1687820190815260208101939093526000604084015294859283918a918391606090910190565b0392165afa918215610b7557600092612281575b5081511561227057611cdc611926565b5061010082018051909490156121e357611cf783518a6130d8565b9889516121ac575b855160010361219157611d22611d1d611d188d846122b9565b612f2a565b611b4e565b965b8a511561205f575050865163043c358d60e11b81529360609285925082905afa908115610b755760009260009261202a575b50611d61818a614bd9565b988151611d6d90614d3b565b948051611d7990614f7a565b91611d8390612f2a565b908351611d8f90612f2a565b9051611d9a90612f2a565b916060850151611da990612f2a565b938b8b870151611db890612f2a565b960151611dc490612f2a565b96611dce90612f2a565b97611dd890612f2a565b988c8c519e8f918201611dea91611604565b039d601f199e8f81018252611dff9082610235565b611e0890615101565b9b51683d913730b6b2911d1160b91b9d81019d8e529e8f9d600901611e2c91611604565b7211161011383937b23ab1ba2730b6b2911d101160691b8152601301611e5191611604565b731116101131b0ba32b3b7b93ca730b6b2911d101160611b8152601401611e7791611604565b6e111610113a37b5b2b724b2111d101160891b8152600f01611e9891611604565b6a111610113ab831911d101160a91b8152600b01611eb591611604565b6f1116101131b0ba32b3b7b93c911d101160811b8152601001611ed791611604565b6d1116101139bab838363c911d101160911b8152600e01611ef791611604565b70111610113932b6b0b4b734b733911d101160791b8152601101611f1a91611604565b6c11161011383934b1b2911d101160991b8152600d01611f3991611604565b6f111610113232b1b4b6b0b639911d101160811b8152601001611f5b91611604565b6f1116101131bab93932b731bc911d101160811b8152601001611f7d91611604565b6201116160ed1b8152600301611f9291611604565b7f226465736372697074696f6e223a2241207069656365206f662074686520426181527f6e6e797665727365222c22696d616765223a22646174613a696d6167652f737660208201526c19cade1b5b0ed8985cd94d8d0b609a1b6040820152604d01611ffd91611604565b61227d60f01b81526002010390810182526120189082610235565b61202190615101565b610a7690611be8565b90925061204f915060603d606011612058575b6120478183610235565b810190611bc7565b50909138611d56565b503d61203d565b935093949097999550600d919698505111600014612182578651636c0360eb60e01b81526000818581895afa8015610b7557899160009161215f575b50965b8489518098819382525afa928315610b75576120f2978996600095612140575b5051630c8df17160e41b81526001600160a01b03909316908301908152602081019490945290958693849291839160400190565b0392165afa918215610b7557610a7693600093612111575b50506148f2565b612131929350803d10612139575b6121298183610235565b810190611bb8565b90388061210a565b503d61211f565b612158919550873d8911610ba457610b958183610235565b93386120be565b61217c91503d806000833e6121748183610235565b810190611b93565b3861209b565b8761218b610256565b9661209e565b6121a66121a1611d188d84612b0c565b611aee565b96611d24565b986121bf9060018751036121c5576147ff565b98611cff565b6121de906121d96121d46131d8565b614739565b611ab9565b6147ff565b6121ed8a8a612749565b986121f88b826114ed565b8098919851612205611939565b906000925b81841061224557505061221d91506119bf565b978061222a575b50611d24565b9761223861223e9299612f2a565b906119f8565b9638612224565b909161226660019161226061225a87866115a5565b51612f2a565b90611963565b930192919061220a565b505050505050505050610a76611926565b61229591923d8091833e610b678183610235565b9038611ccc565b6122b391508a3d8c11610ba457610b958183610235565b38611c7b565b60018060a01b031660009080825260076020526040822083835260205260408220549283159182156122f5575b50506122f0575090565b905090565b90915082526006602052604082208383526020526040822054141538806122e6565b918060609160209396959660408652816040870152838601376000828286010152601f80199101168301019360018060a01b0316910152565b6040519061010082018281106001600160401b038211176101a65760405260dd82527f746820643d224d3138302031343768337633682d337a222f3e3c2f673e00000060e0837f3c6720636c6173733d226f223e3c7061746820643d224d31373720313430763360208201527f6836763131683130762d31316834762d33682d32307a222f3e3c70617468206460408201527f3d224d31353320313430763368377638203368372033762d31316833762d336860608201527f2d32307a222f3e3c2f673e3c6720636c6173733d2277223e3c7061746820643d60808201527f224d3135332031343368377634682d377a222f3e3c7061746820643d224d313560a08201527f372031343768337633682d337a6d32302d3468367634682d367a222f3e3c706160c08201520152565b6040519061248b826101c6565b61023a82527f643d224d3139302031333768347633682d347a222f3e3c2f673e000000000000610240837f3c6720636c6173733d226f223e3c7061746820643d224d31393020313237683360208201527f7633682d337a6d3320313368347633682d347a6d2d3432203068367636682d3660408201527f7a222f3e3c7061746820643d224d3135312031333368337637682d337a6d313060608201527f203068367634682d367a222f3e3c7061746820643d224d31353720313337683160808201527f377636682d31377a6d332031336831347633682d31347a6d31372d313368377660a08201527f3136682d377a222f3e3c7061746820643d224d3138342031333768367636682d60c08201527f367a6d302031306831307636682d31307a222f3e3c7061746820643d224d313860e08201527f37203134336831307634682d31307a222f3e3c7061746820643d224d313930206101008201527f31343068337633682d337a6d2d362d313068337637682d337a222f3e3c7061746101208201527f6820643d224d3138372031333068367633682d367a6d2d3336203068313076336101408201527f682d31307a6d313620313368377637682d377a6d2d3130203068377637682d376101608201527f7a222f3e3c7061746820643d224d3136342031343768337633682d337a6d32396101808201527f2d323068347636682d347a222f3e3c7061746820643d224d31393420313333686101a08201527f337637682d337a222f3e3c2f673e3c6720636c6173733d2277223e3c706174686101c08201527f20643d224d3135342031333368377634682d377a222f3e3c7061746820643d226101e08201527f4d3135342031333768337633682d337a6d3130203668337634682d337a6d32306102008201527f203068337634682d337a6d332d313068377634682d377a222f3e3c70617468206102208201520152565b60405163507f146560e01b81526001600160a01b036020826004818685165afa918215610b75576000926128ba575b5060405163c44a8e6d60e01b81526001600160a01b0384166004820152602481018590526000604482018190529092909183916064918391165afa908115610b75576000916128a1575b5080511561289657606092610100820151612871579261282891600161280f6127ee610a7697876114ed565b94908015158061286a575b612850575b50612809845161522b565b90611ab9565b915103612844576128229061280961247e565b92615654565b8051612835575b506147ff565b61283e91611ab9565b3861282f565b61282290612809612350565b612864915061285f90886130d8565b611a5f565b386127fe565b50836127f9565b5061287e925051906130d8565b805161288d5750610a76611926565b610a76906147ff565b505050610a76611926565b6128b4913d8091833e610b678183610235565b386127c2565b60009192506128d79060203d602011610ba457610b958183610235565b9190612778565b60405163507f146560e01b81529390916001600160a01b036020866004818488165afa958615610b7557600096612a45575b5060405163c44a8e6d60e01b81526001600160a01b0385166004820152602481018390526000604482018190529096909187916064918391165afa948515610b7557600095612a2a575b50845115612a1d57606090610100860151612a0d5761299e610a769692612983600193876114ed565b958115159081612a05575b506129f65750612809845161522b565b9151036129e4576129b19061280961247e565b925b6129bf575b50506147ff565b6129c891615654565b80516129d5575b806129b8565b6129de91611ab9565b386129cf565b6129f090612809612350565b926129b3565b612864915061285f90876130d8565b90503861298e565b505050905061287e9151906130d8565b5050505050610a76611926565b612a3e91953d8091833e610b678183610235565b933861295a565b6000919650612a629060203d602011610ba457610b958183610235565b9590612910565b90612a726151ea565b81519060009260005b838110612a89575050505050565b612a9381836115a5565b51612a9e82856115a5565b5190808752602060018152604080892054612afc5782917fb10eb6fc7557a7109693cb8f3fac48d44328de56c0368ee4cac539b424d2cad99185612af060019897966000526001602052604060002090565b5551338152a301612a7b565b516333ded41b60e21b8152600490fd5b6001600160a01b03811660009081526008602090815260408083208584528252822054919390928215612bd9576001600160a01b03166000908152600560205260409020828552835260408420926040518094859183825491828152019188528388209388905b828210612bbf57505050612b8992500384610235565b825192845b848110612b9d57505050505090565b82612ba882846115a5565b5114612bb657600101612b8e565b50505091505090565b855484526001958601958995509381019390910190612b73565b5050505090565b604051906101a082018281106001600160401b038211176101a657604052606061018083600080825280602083015280604083015280848301528060808301528060a08301528060c08301528060e08301528061010083015280610120830152806101408301526101608201520152565b91908110156115a05760051b0190565b634e487b7160e01b600052601160045260246000fd5b600281901b91906001600160fe1b03811603612c8f57565b612c61565b906001600160401b0383116101a6576801000000000000000083116101a6578154838355808410612cef575b50906000526020806000209060005b848110612cdd575050505050565b83358382015592810192600101612ccf565b612d079083600052846020600020918201910161161b565b38612cc0565b9081526060602082018190528101839052929392916001600160fb1b03811161043b5760409160809160051b8091838601378301019360018060a01b0316910152565b9190612d5a6151ea565b82516000935b818510612d6e575050509050565b612d7885826115a5565b5194612d8481856115a5565b51958060005260039660209780895260409081600020908351906001600160401b0382116101a657612dc082612dba855461013b565b85611693565b8b601f8311600114612e43575050917f9dedd219289ed514faff576c477c66bd097aef59a236e3b8ebcf0d0070cb4e969391612e1c84612e2b9560019a9b9c9d9e600091612e3857508160011b916000199060031b1c19161790565b90555b519182913390836117a2565b0390a20193929190612d60565b90508501513861092a565b909b601f198316612e5985600052602060002090565b926000905b828210612ec8575050916001999a9b9c9d8492612e2b97957f9dedd219289ed514faff576c477c66bd097aef59a236e3b8ebcf0d0070cb4e9699979510612eae575b505050881b88019055612e1f565b8601519060f884600019921b161c19169055388080612ea0565b80600185968294968c01518155019501930190612e5e565b604051612eec8161018b565b60008152906000368137565b90612f0282611340565b612f0f6040519182610235565b8281528092612f20601f1991611340565b0190602036910137565b806000917a184f03e93ff9f4daa797ed6e38ed64bf6a1f0100000000000000008082101561305f575b506d04ee2d6d415b85acef810000000080831015613050575b50662386f26fc1000080831015613041575b506305f5e10080831015613032575b5061271080831015613023575b506064821015613013575b600a80921015613009575b600190816021612fc260018701612ef8565b95860101905b612fd3575050505090565b600019019083906f181899199a1a9b1b9c1cb0b131b232b360811b8282061a83530491821561300457919082612fc8565b612bd9565b9160010191612fb0565b9190606460029104910191612fa5565b60049193920491019138612f9a565b60089193920491019138612f8d565b60109193920491019138612f7e565b60209193920491019138612f6c565b604093508104915038612f53565b90610295604960405180946c1e34b6b0b3b290343932b31e9160991b60208301526130a2815180926020602d860191016103bf565b81017f222077696474683d2234303022206865696768743d22343030222f3e00000000602d820152036029810185520183610235565b6130f46130ef836000526004602052604060002090565b61031c565b80516131d2575060405163507f146560e01b81526001600160a01b039260209283836004818489165afa908115610b75576131679585946000936131b3575b50604051632f54648f60e21b81526001600160a01b0390921660048301526024820193909352948592839182906044820190565b0392165afa8015610b7557610a769261319192600092613196575b505061318c610256565b6148f2565b61306d565b6131ac9250803d10612139576121298183610235565b3880613182565b6131cb919350853d8711610ba457610b958183610235565b9138613133565b91505090565b604051906131e5826101e2565b61117a82527f762d31306833762d376833762d33682d31307a222f3e3c2f673e000000000000611180837f3c6720636c6173733d226131223e3c7061746820643d224d313733203533683460208201527f763137682d347a222f3e3c2f673e3c6720636c6173733d226132223e3c70617460408201527f6820643d224d3136372035376833763130682d337a222f3e3c7061746820643d60608201527f224d3136392035336834763137682d347a222f3e3c2f673e3c6720636c61737360808201527f3d226133223e3c7061746820643d224d31363720353368337634682d337a222f60a08201527f3e3c7061746820643d224d3136332035376834763130682d347a222f3e3c706160c08201527f746820643d224d31363720363768337633682d337a222f3e3c2f673e3c67206360e08201527f6c6173733d226231223e3c7061746820643d224d32313320323533682d33762d6101008201527f332d33682d33762d372d33682d34762d3130682d33762d372d372d33682d33766101208201527f2d3733682d34762d3130682d33762d3130682d33762d37682d34762d37682d336101408201527f762d33682d33762d33682d3476313068347631306833763130683376336834766101608201527f37203320373020336833763768337632306834763768337633683376336834766101808201527f34683376336833762d332d347a222f3e3c7061746820643d224d3235332033306101a08201527f37762d34682d33762d33682d33762d33682d34762d34682d33762d33682d33766101c08201527f2d33682d34762d34682d33762d33682d33762d33682d34762d34682d33762d366101e08201527f682d33762d37682d3476313768347633683376336833203476346833763368336102008201527f76336834763468337633683376336834763468337633683376336834762d36686102208201527f2d347a222f3e3c2f673e3c6720636c6173733d226232223e3c7061746820643d6102408201527f224d32353020333130762d33682d33762d34682d34762d33682d33762d33682d6102608201527f33762d34682d34762d33682d33762d33682d33762d34682d37762d33682d33766102808201527f2d33682d34762d3137682d33762d33682d33762d34682d34762d33682d33762d6102a08201527f33682d33762d37682d34762d3230682d33762d37682d33762d37332d332d37686102c08201527f2d34762d33682d33762d3130682d33762d3130682d34563730682d33762d336c6102e08201527f2d332031303020332d313030763430682d33763130682d347636682d337631346103008201527f682d337633203133682d347634346834763136683376313468337631336834766103208201527f31306833763768337633683476336833763468337633683476336833763468336103408201527f76336834763368337637683776376836763368377633683776346831337633686103608201527f337633683130762d33682d337a6d2d3130332d3837762d31366833762d3130686103808201527f2d337636682d34763137682d337631306833762d3768347a222f3e3c706174686103a08201527f20643d224d3134332032333068347637682d347a6d3420313068337633682d336103c08201527f7a6d33203768337633682d337a6d33203668347634682d347a222f3e3c7061746103e08201527f6820643d224d31363320323537682d36763368337633683376346834762d342d6104008201527f33682d34762d337a222f3e3c2f673e3c6720636c6173733d226233223e3c70616104208201527f746820643d224d3134332031393776366834762d366836762d34346834762d316104408201527f366833762d31346833762d366834762d31306833563937682d377636682d33766104608201527f34682d337633682d347633682d3376342033682d3376332034682d34763130686104808201527f2d337631362034682d337634366833762d3668337a222f3e3c7061746820643d6104a08201527f224d313430203230336833763137682d337a222f3e3c7061746820643d224d316104c08201527f3337203232306833763130682d337a222f3e3c7061746820643d224d313533206104e08201527f323530682d33762d37682d33762d36682d34762d37682d3376313068337637686105008201527f347636683376346833762d377a6d2d3320313068337637682d337a222f3e3c706105208201527f61746820643d224d3134372032353768337633682d337a6d36203068347633686105408201527f2d347a222f3e3c7061746820643d224d31363020323633762d33682d337633206105608201527f376836762d37682d337a6d2d31302d3536763136682d337637683376313068336105808201527f763768347636683676346837762d342d33682d33762d3130682d34762d3133686105a08201527f2d33762d3134682d33762d3136682d34763130682d337a222f3e3c70617468206105c08201527f643d224d32343320333133762d33682d33762d33682d31302d33762d34682d376105e08201527f762d33682d37762d33682d36762d37682d37762d37682d33762d33682d34762d6106008201527f33682d33762d34682d33762d33682d34762d33682d33762d34682d33762d33686106208201527f2d34762d33682d33763130682d337633682d347633682d3376376833763768346106408201527f76366833763568347633683676336833763368342033763368332034763368336106608201527f20337634683130763368372037203376336831302033762d33683130762d33686106808201527f34762d34682d31347a222f3e3c2f673e3c6720636c6173733d226234223e3c706106a08201527f61746820643d224d3138332031333068347637682d347a222f3e3c70617468206106c08201527f643d224d3138302031323768337633682d337a6d2d32372d3468347637682d346106e08201527f7a222f3e3c7061746820643d224d3135372031313768337636682d337a222f3e6107008201527f3c7061746820643d224d3136302031313068337637682d337a222f3e3c7061746107208201527f6820643d224d3136332031303768347633682d347a6d2d3320383368337637686107408201527f2d337a222f3e3c7061746820643d224d3136332031383768347633682d347a6d6107608201527f3230203068377633682d377a222f3e3c7061746820643d224d313830203139306107808201527f68337633682d337a6d31302d3768337634682d337a222f3e3c7061746820643d6107a08201527f224d3139332031383768347636682d347a6d2d323020353368347637682d347a6107c08201527f222f3e3c7061746820643d224d3137372032343768337636682d337a222f3e3c6107e08201527f7061746820643d224d3138302032353368337637682d337a222f3e3c706174686108008201527f20643d224d3138332032363068377633682d377a222f3e3c7061746820643d226108208201527f4d3139302032363368337634682d337a6d302d323068337634682d337a222f3e6108408201527f3c7061746820643d224d3138372032343068337633682d337a222f3e3c7061746108608201527f6820643d224d3139302032333768337633682d337a6d313320323368347633686108808201527f2d347a222f3e3c7061746820643d224d3230372032363368337637682d337a226108a08201527f2f3e3c7061746820643d224d3231302032373068337633682d337a6d2d3130206108c08201527f3768337636682d337a222f3e3c7061746820643d224d323033203238336834766108e08201527f37682d347a222f3e3c7061746820643d224d3230372032393068367633682d366109008201527f7a222f3e3c2f673e3c6720636c6173733d226f223e3c7061746820643d224d316109208201527f3333203135376834763530682d347a6d302036336834763130682d347a6d32376109408201527f2d3136336833763130682d337a222f3e3c7061746820643d224d3136332035336109608201527f68347634682d347a222f3e3c7061746820643d224d31363720353068313076336109808201527f682d31307a222f3e3c7061746820643d224d3137372035336833763137682d336109a08201527f7a222f3e3c7061746820643d224d3137332037306834763237682d347a6d2d366109c08201527f20306833763237682d337a222f3e3c7061746820643d224d31363320363768346109e08201527f7633682d347a6d3020333068347633682d347a222f3e3c7061746820643d224d610a008201527f3136302031303068337633682d337a222f3e3c7061746820643d224d31353720610a208201527f31303368337634682d337a222f3e3c7061746820643d224d3135332031303768610a408201527f347633682d347a222f3e3c7061746820643d224d313530203131306833763368610a608201527f2d337a222f3e3c7061746820643d224d3134372031313368337637682d337a22610a808201527f2f3e3c7061746820643d224d3134332031323068347637682d347a222f3e3c70610aa08201527f61746820643d224d313430203132376833763130682d337a222f3e3c70617468610ac08201527f20643d224d313337203133376833763230682d337a6d35362d31306834763130610ae08201527f682d347a222f3e3c7061746820643d224d313930203131376833763130682d33610b008201527f7a222f3e3c7061746820643d224d3138372031313068337637682d337a222f3e610b208201527f3c7061746820643d224d3138332031303368347637682d347a222f3e3c706174610b408201527f6820643d224d3138302031303068337633682d337a222f3e3c7061746820643d610b608201527f224d31373720393768337633682d337a6d2d3430203130366833763137682d33610b808201527f7a6d302032376833763130682d337a6d313020333068337637682d337a222f3e610ba08201527f3c7061746820643d224d31353020323537762d34682d33762d36682d34762d37610bc08201527f682d3376313068337631306834762d3368337a222f3e3c7061746820643d224d610be08201527f3135302032353768337633682d337a222f3e3c7061746820643d224d31363320610c008201527f323733762d33682d36762d3130682d347637682d337633683376336834763768610c208201527f33762d3768337a222f3e3c7061746820643d224d313633203236376834763368610c408201527f2d347a222f3e3c7061746820643d224d31373020323537682d332d3476336834610c608201527f76376833762d31307a222f3e3c7061746820643d224d31353720323533683676610c808201527f34682d367a222f3e3c7061746820643d224d3135332032343768347636682d34610ca08201527f7a222f3e3c7061746820643d224d3135302032343068337637682d337a222f3e610cc08201527f3c7061746820643d224d313437203233306833763130682d337a6d3133203530610ce08201527f68337637682d337a222f3e3c7061746820643d224d3134332032323368347637610d008201527f682d347a222f3e3c7061746820643d224d313437203230376833763136682d33610d208201527f7a222f3e3c7061746820643d224d313530203139376833763130682d337a6d2d610d408201527f3130203068337636682d337a6d35302031313368377633682d377a6d32332031610d608201527f306831377633682d31377a222f3e3c7061746820643d224d3233302033323368610d808201527f31337634682d31337a222f3e3c7061746820643d224d32343320333230683130610da08201527f7633682d31307a222f3e3c7061746820643d224d323533203331376834763368610dc08201527f2d347a222f3e3c7061746820643d224d323537203330376833763130682d337a610de08201527f222f3e3c7061746820643d224d3235332033303368347634682d347a222f3e3c610e008201527f7061746820643d224d3235302033303068337633682d337a222f3e3c70617468610e208201527f20643d224d3234372032393768337633682d337a222f3e3c7061746820643d22610e408201527f4d3234332032393368347634682d347a222f3e3c7061746820643d224d323430610e608201527f2032393068337633682d337a222f3e3c7061746820643d224d32333720323837610e808201527f68337633682d337a222f3e3c7061746820643d224d3233332032383368347634610ea08201527f682d347a222f3e3c7061746820643d224d3233302032383068337633682d337a610ec08201527f222f3e3c7061746820643d224d3232372032373768337633682d337a222f3e3c610ee08201527f7061746820643d224d3232332032373368347634682d347a222f3e3c70617468610f008201527f20643d224d3232302032363768337636682d337a222f3e3c7061746820643d22610f208201527f4d3231372032363068337637682d337a222f3e3c7061746820643d224d323133610f408201527f2032353368347637682d347a222f3e3c7061746820643d224d32313020323437610f608201527f68337636682d337a222f3e3c7061746820643d224d3230372032333768337631610f808201527f30682d337a222f3e3c7061746820643d224d323033203232376834763130682d610fa08201527f347a6d2d343020363068347636682d347a6d323420323068337633682d337a22610fc08201527f2f3e3c7061746820643d224d3136372032393368337635682d337a6d31362031610fe08201527f3468347633682d347a222f3e3c7061746820643d224d313730203239386834766110008201527f33682d347a6d3130203668337633682d337a222f3e3c7061746820643d224d316110208201527f37342033303168367633682d367a6d323320313268367634682d367a222f3e3c6110408201527f7061746820643d224d323033203331376831307633682d31307a6d2d322d31306110608201527f37762d3733682d3476373368337631376833762d3137682d327a222f3e3c2f676110808201527f3e3c6720636c6173733d226f223e3c7061746820643d224d31383720333037766110a08201527f2d346833762d36682d33762d34682d34762d33682d33762d33682d37762d34686110c08201527f2d367634682d3476336834763237682d34763133682d33763130682d347637686110e08201527f3476336833203130203134762d33682d34762d34682d33762d33682d33762d336111008201527f682d34762d376834762d31306833762d376833762d336837762d33682d337a6d6111208201527f3136203130762d34682d36763137682d34763130682d337637683376336834206111408201527f3620342033203134762d33682d34762d34682d37762d33682d33762d33682d336111608201520152565b90610295609a60405180947f3c7374796c653e2e6f7b66696c6c3a233830383038303b7d2e62327b66696c6c60208301527f3a6e6f6e653b7d2e62337b66696c6c3a6e6f6e653b7d2e62347b66696c6c3a6e60408301527f6f6e653b7d2e61317b66696c6c3a6e6f6e653b7d2e61327b66696c6c3a6e6f6e60608301527f653b7d2e61337b66696c6c3a6e6f6e653b7d3c2f7374796c653e00000000000060808301526147ef81518092602086860191016103bf565b810103607a810185520183610235565b9061029560ba60405180947f3c7376672077696474683d2234303022206865696768743d223430302220766960208301527f6577426f783d223020302034303020343030222066696c6c3d226e6f6e65222060408301527f786d6c6e733d22687474703a2f2f7777772e77332e6f72672f323030302f737660608301527f67223e3c7374796c653e2e6f7b66696c6c3a233035303530353b7d2e777b666960808301527336361d11b31cb31cb31c9dbe9e17b9ba3cb6329f60611b60a08301526148d381518092602060b4860191016103bf565b8101651e17b9bb339f60d11b60b482015203609a810185520183610235565b90610a7690614920604051602092609160f51b8483015260228201526022815261491b816101fe565b6158d7565b92604051938161493986935180928680870191016103bf565b820161494d825180938680850191016103bf565b01038084520182610235565b906102956021604051846149778296518092602080860191016103bf565b8101600160fd1b6020820152036001810185520183610235565b610295916149e79493602b926040519687936020926149b88151809286808a0191016103bf565b85016149cc825180938680850191016103bf565b0191602f60f81b8184015283519384916021850191016103bf565b01692072656d61696e696e6760b01b602182015203600b810185520183610235565b6037906102959294936040519582614a2b8894518092602080880191016103bf565b83016b0101429a7a6221027aaaa14960a51b6020820152614a56825180936020602c850191016103bf565b01602f60f81b602c820152614a75825180936020602d850191016103bf565b01692072656d61696e696e6760b01b602d820152036017810185520183610235565b61029591614aec9493602192604051968793602092614abe8151809286808a0191016103bf565b8501614ad2825180938680850191016103bf565b0191602f60f81b81840152835193849187850191016103bf565b01036001810185520183610235565b90610295602360405184614b198296518092602080860191016103bf565b8101620101d160ed1b6020820152036003810185520183610235565b6021610295919392936040519481614b578793518092602080870191016103bf565b8201614b6c82518093602080850191016103bf565b01600160fd1b6020820152036001810185520183610235565b6025610295919392936040519481614ba78793518092602080870191016103bf565b820164555043202360d81b6020820152614bca82518093602087850191016103bf565b01036005810185520183610235565b90614c25610a7692633b9aca00614bf8614bf38551614d3b565b614959565b91068015614c615790614c0d614c2092612f2a565b614c1a6060860151612f2a565b91614a97565b614afb565b90614c34610100820151614f7a565b8051614c4c575b50614c469051612f2a565b90614b85565b614c5a90614c469293614b35565b9190614c3b565b50604083019081518015600014614c935750614c80614c209251612f2a565b614c8d6060860151612f2a565b91614a09565b614c209250614ca190612f2a565b614cae6060860151612f2a565b91614991565b60405190614cc1826101ab565b600882526713dc9a59da5b985b60c21b6020830152565b60405190614ce5826101ab565b60068252654f72616e676560d01b6020830152565b60405190614d07826101ab565b600482526350696e6b60e01b6020830152565b60405190614d27826101ab565b600582526420b634b2b760d91b6020830152565b60018103614d4c5750610a76614d1a565b60028103614d5d5750610a76614cfa565b60038103614d6e5750610a76614cd8565b60048103614d7f5750610a76614cb4565b6000526003602052610a76604060002061031c565b60405190614da1826101ab565b6007825266546f7070696e6760c81b6020830152565b60405190614dc4826101ab565b6004825263119a5cdd60e21b6020830152565b60405190614de4826101ab565b600b82526a5375697420626f74746f6d60a81b6020830152565b60405190614e0b826101ab565b600882526705375697420746f760c41b6020830152565b60405190614e2f826101ab565b600482526314dd5a5d60e21b6020830152565b60405190614e4f826101ab565b60048252631219585960e21b6020830152565b60405190614e6f826101ab565b600882526704865616420746f760c41b6020830152565b60405190614e93826101ab565b600582526409adeeae8d60db1b6020830152565b60405190614eb4826101ab565b6007825266476c617373657360c81b6020830152565b60405190614ed7826101ab565b60088252674e65636b6c61636560c01b6020830152565b60405190614efb826101ab565b60048252634c65677360e01b6020830152565b60405190614f1b826101ab565b60088252674261636b7369646560c01b6020830152565b60405190614f3f826101ab565b600582526415dbdc9b1960da1b6020830152565b60405190614f60826101ab565b600b82526a4e616b65642042616e6e7960a81b6020830152565b80614f885750610a76614f53565b60018103614f995750610a76614f32565b60028103614faa5750610a76614f0e565b60078103614fbb5750610a76614eee565b60038103614fcc5750610a76614eca565b60058103614fdd5750610a76614ea7565b60068103614fee5750610a76614e86565b600b8103614fff5750610a76614e62565b600481036150105750610a76614e42565b600881036150215750610a76614e22565b600a81036150325750610a76614dfe565b600981036150435750610a76614dd7565b600c81036150545750610a76614db7565b600d1461506357610a76611926565b610a76614d94565b60405190615078826101fe565b604082527f6768696a6b6c6d6e6f707172737475767778797a303132333435363738392b2f6040837f4142434445464748494a4b4c4d4e4f505152535455565758595a61626364656660208201520152565b9060028201809211612c8f57565b9060208201809211612c8f57565b9060018201809211612c8f57565b91908201809211612c8f57565b8051156151e15761511061506b565b61512c61512761512084516150ca565b6003900490565b612c77565b9161513e615139846150d8565b612ef8565b92835280815182019060208501935b82821061518f5750505060039051068060011461517e5760021461516f575090565b603d60f81b6000199091015290565b50613d3d60f01b6001199091015290565b9091936004906003809401938451600190603f9082828260121c16880101518553828282600c1c16880101518386015382828260061c168801015160028601531685010151908201530193919061514d565b50610a76611926565b6000546001600160a01b0390811681615201615d74565b160361520a5750565b602490615215615d74565b60405163118cdaa760e01b815291166004820152fd5b61523490615c48565b926152439695969291926131d8565b9460405197889760208901703c7374796c653e2e62317b66696c6c3a2360781b90528051908160318b01916020019161527b926103bf565b8801603181016b3b7d2e62327b66696c6c3a2360a01b905281519182603d830191602001916152a9926103bf565b01603d81016b3b7d2e62337b66696c6c3a2360a01b9052815191826049830191602001916152d6926103bf565b01604981016152f3906b3b7d2e62347b66696c6c3a2360a01b9052565b6055016152ff91611604565b6b3b7d2e61317b66696c6c3a2360a01b8152600c0161531d91611604565b6b3b7d2e61327b66696c6c3a2360a01b8152600c0161533b91611604565b6b3b7d2e61337b66696c6c3a2360a01b8152600c0161535991611604565b691dbe9e17b9ba3cb6329f60b11b8152600a0161537591611604565b03601f1981018252610a769082610235565b6040519061539482610219565b61019c82527f6820643d224d3139332031373068347633682d347a222f3e3c2f673e000000006101a0837f3c6720636c6173733d226f223e3c7061746820643d224d31393020313733682d60208201527f3337762d33682d3130762d34682d36763468337633682d33763468367633683160408201527f307634683337762d346833762d33682d33762d347a6d2d34302034682d33762d60608201527f34683376347a6d372033762d3368337633682d337a6d362030762d336834763360808201527f682d347a6d372030762d3368337633682d337a6d372030762d3368337633682d60a08201527f337a6d31302030682d34762d33683476337a222f3e3c7061746820643d224d3160c08201527f39302031373068337633682d337a222f3e3c7061746820643d224d313933203160e08201527f363668347634682d347a6d30203768347634682d347a222f3e3c2f673e3c67206101008201527f636c6173733d2277223e3c7061746820643d224d3133372031373068337633686101208201527f2d337a6d3130203368337634682d337a6d3130203468337633682d337a6d36206101408201527f3068347633682d347a6d37203068337633682d337a6d37203068337633682d336101608201527f7a6d36203068347633682d347a6d372d3468337634682d337a222f3e3c7061746101808201520152565b6040519060c082018281106001600160401b038211176101a65760405260818252601f60f91b60a0837f3c6720636c6173733d226f223e3c7061746820643d224d31383320313630762d60208201527f34682d32307634682d33763368337634683234762d37682d347a6d2d3133203360408201527f762d336831307633682d31307a222066696c6c3d2223616437316338222f3e3c60608201527f7061746820643d224d313730203136306831307633682d31307a222f3e3c2f6760808201520152565b91906060928151600091828394879361566c816150e6565b955b86811061567f575050505050505050565b818110156158665761569181846115a5565b516040805163507f146560e01b8152600491906001600160a01b036020808386818e86165afa918215610b755761570c9560009588958e948896615847575b50505163c44a8e6d60e01b81526001600160a01b0390931690830190815260208101949094526000604085015290948593849291839160600190565b0392165afa8015610b75576101009160009161582e575b500151965b6003888114969087156157fc5750505060019461574582886130d8565b995b60068981036157c5575050600a6001985b11806157bb575b6157a1575b8115159081615798575b50615780575b5060010196949661566e565b6001919a61280961579192886130d8565b9990615774565b9050153861576e565b986157ac919b611ab9565b996157b5611926565b98615764565b508951151561575f565b89919911806157f4575b6157dc575b600a90615758565b97509a6157eb9061280961558f565b9a6001976157d4565b5088156157cf565b899b9197929b1180615826575b156157475795509a61581d90612809615387565b9a600195615747565b508615615809565b615841913d8091833e610b678183610235565b38615723565b61585e929650803d10610ba457610b958183610235565b9338806156d0565b600e95600090615728565b604051906105e082018281106001600160401b038211176101a657604052602e82526105c0366020840137565b906158a8826104e9565b6158b56040519182610235565b8281528092612f20601f19916104e9565b9081518110156115a0570160200190565b908151156159fe576158e7615871565b9160009060006158f685611593565b526001918151916000925b808410615927575050505061591d61592291610a769394615dcd565b615e10565b615e57565b9091929461595861595261594c61593e89876158c6565b516001600160f81b03191690565b60f81c90565b60ff1690565b9184925b60ff90898289168610156159bd576001929161599161598b6159526159848a615997966115a5565b5160ff1690565b60081b90565b906150f4565b6159b48b6159ac88603a9586860616926115a5565b9060ff169052565b0493019261595c565b50919594935050809691965b6159d7575060010192615901565b9460ff6001603a926159f483858b06166159ac8d868516906115a5565b01169504806159c9565b9050610a76612ee0565b60405190615a15826101ab565b600682526506666653930360d41b6020830152565b60405190615a37826101ab565b600682526506666633730360d41b6020830152565b60405190615a59826101ab565b600682526566336136303360d01b6020830152565b60405190615a7b826101ab565b600682526539363561316160d01b6020830152565b60405190615a9d826101ab565b600682526533331bb1981960d11b6020830152565b60405190615abf826101ab565b600682526506664333630360d41b6020830152565b60405190615ae1826101ab565b600682526518cccc994c1960d21b6020830152565b60405190615b03826101ab565b600682526566666438633560d01b6020830152565b60405190615b25826101ab565b600682526566663936613960d01b6020830152565b60405190615b47826101ab565b600682526533329a9c1c3160d11b6020830152565b60405190615b69826101ab565b600682526563393266343560d01b6020830152565b60405190615b8b826101ab565b600682526536376437353760d01b6020830152565b60405190615bad826101ab565b600682526503330613232360d41b6020830152565b60405190615bcf826101ab565b600682526532313761313560d01b6020830152565b60405190615bf1826101ab565b60048252636e6f6e6560e01b6020830152565b60405190615c11826101ab565b6006825265329a1c19b2b360d11b6020830152565b60405190615c33826101ab565b60068252653231993332b360d11b6020830152565b60018103615c8f5750615c59615b7e565b90615c62615ba0565b90615c6b615bc2565b90615c74615be4565b90615c7d615c04565b90615c86615c26565b90610a76615c26565b60028103615cd65750615ca0615af6565b90615ca9615b18565b90615cb2615b3a565b90615cbb615b5c565b90615cc4615af6565b90615ccd615b18565b90610a76615b3a565b60038103615d1d5750615ce7615a4c565b90615cf0615a90565b90615cf9615ab2565b90615d02615ad4565b90615d0b615a4c565b90615d14615a90565b90610a76615ab2565b600414615d3657604051633b9cb79b60e21b8152600490fd5b615d3e615a08565b90615d47615a2a565b90615d50615a4c565b90615d59615a6e565b90615d62615a08565b90615d6b615a2a565b90610a76615a4c565b337f00000000000000000000000000000000000000000000000000000000000000006001600160a01b03161480615dc2575b15615dbe576013193601368111612c8f573560601c90565b3390565b506014361015615da6565b9060ff80911690615ddd8261589e565b9260005b838110615def575050505090565b8083615dfd600193856115a5565b5116615e0982886115a5565b5201615de1565b908151615e1c8161589e565b9060005b818110615e2e575090925050565b60019060ff615e446000198389510301886115a5565b5116615e5082866115a5565b5201615e20565b8051615e6281611340565b91604090615e736040519485610235565b828452615e7f83611340565b602090601f1901368683013760009260005b858110615ea15750505050505090565b6001908251615eaf816101fe565b603a81527f31323334353637383941424344454647484a4b4c4d4e50515253545556575859858201527f5a6162636465666768696a6b6d6e6f707172737475767778797a000000000000848201526001600160f81b031990615f1f9060ff615f17858a6115a5565b5116906158c6565b5116861a615f2d828a6158c6565b5301615e9156fea2646970667358221220f4c28235c2577961bfb96f025f5626f87693022b891a47164c12465d5e52a4fe64736f6c63430008170033",
	"deployedBytecode": "0x6080604052600436101561001257600080fd5b60003560e01c806257bfdd1461013657806318ab522d1461013157806331a290ac1461012c578063572b6c05146101275780635e703e71146101225780636aff31dd1461011d578063715018a61461011857806379a2696e146101135780637da0a8771461010e578063875e4bea146101095780638da5cb5b14610104578063a0122c09146100ff578063a22d0dd5146100fa578063b03a3eab146100f5578063b1fa9e7b146100f0578063c06e7bc7146100eb578063d756227e146100e65763f2fde38b146100e157600080fd5b611461565b611392565b610cca565b610c9f565b610bfa565b610bb5565b610a79565b610a16565b610885565b610840565b61080d565b6107af565b610783565b610757565b6106ff565b610590565b610451565b610407565b90600182811c9216801561016b575b602083101461015557565b634e487b7160e01b600052602260045260246000fd5b91607f169161014a565b634e487b7160e01b600052604160045260246000fd5b602081019081106001600160401b038211176101a657604052565b610175565b604081019081106001600160401b038211176101a657604052565b61026081019081106001600160401b038211176101a657604052565b6111a081019081106001600160401b038211176101a657604052565b606081019081106001600160401b038211176101a657604052565b6101c081019081106001600160401b038211176101a657604052565b90601f801991011681019081106001600160401b038211176101a657604052565b604051906000826002549161026a8361013b565b808352926020906001908181169081156102f85750600114610297575b505061029592500383610235565b565b91509260026000527f405787fa12a823e0f2b7631cc41b3ba8828b3321ca811111fa75cd3aa3bb5ace936000925b8284106102e057506102959450505081016020013880610287565b855488850183015294850194879450928101926102c5565b9150506020925061029594915060ff191682840152151560051b8201013880610287565b9060405191826000825461032f8161013b565b9081845260209460019160018116908160001461039d575060011461035e575b50505061029592500383610235565b600090815285812095935091905b818310610385575050610295935082010138808061034f565b8554888401850152948501948794509183019161036c565b9250505061029594925060ff191682840152151560051b82010138808061034f565b60005b8381106103d25750506000910152565b81810151838201526020016103c2565b906020916103fb815180928185528580860191016103bf565b601f01601f1916010190565b3461043b57600036600319011261043b57610437610423610256565b6040519182916020835260208301906103e2565b0390f35b600080fd5b6001600160a01b0381160361043b57565b3461043b57604036600319011261043b5761047a60043561047181610440565b602435906114ed565b906040519182916040830190835260209060406020850152825180915260206060850193019160005b8281106104b257505050500390f35b8351855286955093810193928101926001016104a3565b604051906101a082018281106001600160401b038211176101a657604052565b6001600160401b0381116101a65760051b60200190565b9080601f8301121561043b57602090823561051a816104e9565b936105286040519586610235565b81855260208086019260051b82010192831161043b57602001905b828210610551575050505090565b81358152908301908301610543565b9181601f8401121561043b578235916001600160401b03831161043b576020808501948460051b01011161043b57565b3461043b5760408060031936011261043b576004906001600160401b03823581811161043b576105c39036908501610500565b9060243590811161043b576105db9036908501610560565b92909180519360005b8581106105ed57005b6105f781846115a5565b5161060d6106068385896115b9565b369161135b565b610629610624836000526004602052604060002090565b6115fa565b6106ef57610641826000526001602052604060002090565b5480156106df578651602081019061066b8161065d8487611604565b03601f198101835282610235565b519020036106cf57907faeb631726b45aa3f6b09da79f7af03a9784614901f61a967ed84d63c37b7edc76106c6836106b9600196956106b4866000526004602052604060002090565b6116cd565b88519182913390836117a2565b0390a2016105e4565b85516375b5da0b60e01b81528990fd5b8651637ef41a4f60e01b81528a90fd5b8551630388067760e21b81528990fd5b3461043b57602036600319011261043b57602060043561071e81610440565b6040517f000000000000000000000000b2b5841dbef766d4b521221732f9b618fcf34a876001600160a01b039081169216919091148152f35b3461043b57604036600319011261043b5761043761042360043561077a81610440565b60243590611c3c565b3461043b57602036600319011261043b5760043560005260016020526020604060002054604051908152f35b3461043b5760008060031936011261080a576107c96151ea565b80546001600160a01b03198116825581906001600160a01b03167f8be0079c531659141344cd1fd0a4f28419497f9722a3daafe3b4186f6b6457e08280a380f35b80fd5b3461043b57604036600319011261043b57602061083860043561082f81610440565b602435906122b9565b604051908152f35b3461043b57600036600319011261043b576040517f000000000000000000000000b2b5841dbef766d4b521221732f9b618fcf34a876001600160a01b03168152602090f35b3461043b5760208060031936011261043b576004356001600160401b0380821161043b573660238301121561043b57816004013590811161043b57602492366024838501011161043b576108d76151ea565b6108eb826108e660025461013b565b611632565b600093601f831160011461096957505061093e81807f512c3c91736f50c57a0548c1d01ab02f24c420f002b8b20e2bfe63df9693cd3f9560009161095b575b508160011b916000199060031b1c19161790565b6002555b610956604051928392602433920184612317565b0390a1005b60249150850101353861092a565b6002600052601f19831694907f405787fa12a823e0f2b7631cc41b3ba8828b3321ca811111fa75cd3aa3bb5ace9282915b8783106109fa57505050827f512c3c91736f50c57a0548c1d01ab02f24c420f002b8b20e2bfe63df9693cd3f95106109dd575b5050600181811b01600255610942565b830160240135600019600384901b60f8161c1916905538806109cd565b908060018596848396978b01013581550195019301919061099a565b3461043b57600036600319011261043b576000546040516001600160a01b039091168152602090f35b91610a6890610a5a610a7695936060865260608601906103e2565b9084820360208601526103e2565b9160408184039101526103e2565b90565b3461043b57604036600319011261043b57600435610a9681610440565b60405163507f146560e01b815260243591906001600160a01b03906020816004818587165afa8015610b7557610b0d9360009386938593610b7a575b5060405163c44a8e6d60e01b81526001600160a01b039092166004830152602482019390935260006044820152938492839182906064820190565b0392165afa908115610b7557600091610b52575b50610437610b46610b40610100610b388587614bd9565b940151614f7a565b93614d3b565b60405193849384610a3f565b610b6f91503d806000833e610b678183610235565b810190611843565b38610b21565b6117df565b610b9d91935060203d602011610ba4575b610b958183610235565b8101906117ca565b9138610ad2565b503d610b8b565b8015150361043b57565b3461043b57608036600319011261043b57610437610423600435610bd881610440565b604435610be481610bab565b60643591610bf183610bab565b602435906128de565b3461043b57604036600319011261043b576001600160401b0360043581811161043b57610c2b903690600401610500565b9060243590811161043b573660238201121561043b578060040135610c4f816104e9565b91610c5d6040519384610235565b8183526020916024602085019160051b8301019136831161043b57602401905b828210610c9057610c8e8587612a69565b005b81358152908301908301610c7d565b3461043b57604036600319011261043b576020610838600435610cc181610440565b60243590612b0c565b3461043b57608036600319011261043b5760048035610ce881610440565b60243591604435916064356001600160401b03811161043b57610d0e9036908401610560565b93909160018060a01b039081811694604092835191610d476331a9108f60e11b938481528b818060209485938783019190602083019252565b03818d5afa908115610b7557600091611323575b5083610d74610d68615d74565b6001600160a01b031690565b911603611314578a8a88156112e15750508551848152818180610d9e8b8783019190602083019252565b03818d5afa908115610b75576000916112c4575b5083610dbf610d68615d74565b9116036112b557610dd087866122b9565b6112a657855163507f146560e01b8152818184818d5afa8015610b7557610e3760009186938391611289575b50895163c44a8e6d60e01b81526001600160a01b038a16878201908152602081018d9052600060408201529094859384928391606090910190565b0392165afa908115610b755760009161126e575b50511561125f57918493918a9388610e898e610e7a819a60018060a01b03166000526006602052604060002090565b90600052602052604060002090565b5586610eab8a610e7a8960018060a01b03166000526007602052604060002090565b5591909293505b600091610ebd612be0565b5060009182808e5b8210610f3c57505050505050505095610f248186610f1f610f379695610e7a7f6a68946ba06488db8585d7c7637fa954b574035fe15720ea760125ef860172589b9c60018060a01b03166000526005602052604060002090565b612c94565b610f2c615d74565b915194859485612d0d565b0390a3005b87989950610f778f948f8f908a8f9287859b9c9d9e98999a610f5d92612c51565b359687935195869485938493845283019190602083019252565b03915afa908115610b7557600091611242575b5084610f97610d68615d74565b91160361123257610fa8828b612b0c565b6112225787858f8d519283809263507f146560e01b82525afa8015610b7557836000918d8f8d8a91611016978795611203575b505163c44a8e6d60e01b81526001600160a01b0390931690830190815260208101949094526000604085015290948593849291839160600190565b0392165afa908115610b75576000916111ea575b508051156111da5761010001968751600281109081156111cf575b506111bf5783151590816111b3575b506111a357918f9998969492918f9896949286518881146000146110b3575050899695949392918b6110a5600193610e7a85995b516001600160a01b03909c16600090815260086020526040902090565b550191939092949697610ec5565b600891999b9c5080929496939597989a50146000146110ec57505092889795928f9995928f9895908b6110a5600193610e7a8598611088565b979f9d9b9998979a9e9c9a600581979297148015611199575b801561118f575b80611188575b1561112757508f8f51631e550b6f60e11b8152fd5b9d9f9798999b9d9c9e9a9c600a811490811561117d575b5080611176575b61116657928f999896938f989592938b6110a58c9996610e7a600195611088565b8a51635e701b2b60e01b81528890fd5b5085611145565b60099150143861113e565b5087611112565b50600b811461110c565b5060068114611105565b8a51637dc0e82560e11b81528890fd5b90508751111538611054565b8b5163c89badbd60e01b81528990fd5b600d91501138611045565b8b516354c0901d60e11b81528990fd5b6111fd913d8091833e610b678183610235565b3861102a565b61121b9195508d803d10610ba457610b958183610235565b9338610fdb565b8a5163670bdddd60e11b81528890fd5b8a5163812a698960e01b81528890fd5b6112599150863d8811610ba457610b958183610235565b38610f8a565b50845163265ba87960e01b8152fd5b61128391503d806000833e610b678183610235565b38610e4b565b6112a09150853d8711610ba457610b958183610235565b38610dfc565b50845163670bdddd60e11b8152fd5b508451639d17cec760e01b8152fd5b6112db9150823d8411610ba457610b958183610235565b38610db2565b9391600061130983610e7a8a9997959a60018060a01b03166000526006602052604060002090565b559190929350610eb2565b508451632add3f4b60e01b8152fd5b61133a9150823d8411610ba457610b958183610235565b38610d5b565b6001600160401b0381116101a657601f01601f191660200190565b92919261136782611340565b916113756040519384610235565b82948184528183011161043b578281602093846000960137010152565b3461043b57604036600319011261043b576001600160401b0360043581811161043b576113c3903690600401610500565b60249060243583811161043b573660238201121561043b578060040135926113ea846104e9565b936113f86040519586610235565b8085526020956024602087019260051b8501019336851161043b5760248101925b85841061142a57610c8e8888612d50565b833583811161043b5782013660438201121561043b5789916114568392369060448a820135910161135b565b815201930192611419565b3461043b57602036600319011261043b5760043561147e81610440565b6114866151ea565b6001600160a01b0390811680156114d457600080546001600160a01b03198116831782559092167f8be0079c531659141344cd1fd0a4f28419497f9722a3daafe3b4186f6b6457e08380a380f35b604051631e4fbdf760e01b815260006004820152602490fd5b6001600160a01b038116600090815260056020908152604080832085845282528083209051815480825291845282842081840197969392855b81811061156957505050806115446115609260409798990382610235565b6001600160a01b03909616600090815260066020526040902090565b91835252205491565b82548a529884019860019283019201611526565b634e487b7160e01b600052603260045260246000fd5b8051156115a05760200190565b61157d565b80518210156115a05760209160051b010190565b91908110156115a05760051b81013590601e198136030182121561043b5701908135916001600160401b03831161043b57602001823603811361043b579190565b610a76905461013b565b90611617602092828151948592016103bf565b0190565b818110611626575050565b6000815560010161161b565b90601f821161163f575050565b6102959160026000527f405787fa12a823e0f2b7631cc41b3ba8828b3321ca811111fa75cd3aa3bb5ace906020601f840160051c83019310611689575b601f0160051c019061161b565b909150819061167c565b9190601f81116116a257505050565b610295926000526020600020906020601f840160051c8301931061168957601f0160051c019061161b565b91909182516001600160401b0381116101a6576116f4816116ee845461013b565b84611693565b602080601f83116001146117375750819061172893949560009261172c575b50508160011b916000199060031b1c19161790565b9055565b015190503880611713565b90601f1983169561174d85600052602060002090565b926000905b88821061178a57505083600195969710611771575b505050811b019055565b015160001960f88460031b161c19169055388080611767565b80600185968294968601518155019501930190611752565b906117ba6020919493946040845260408401906103e2565b6001600160a01b03909416910152565b9081602091031261043b5751610a7681610440565b6040513d6000823e3d90fd5b519061029582610440565b519061029582610bab565b81601f8201121561043b57805161181781611340565b926118256040519485610235565b8184526020828401011161043b57610a7691602080850191016103bf565b60208183031261043b5780516001600160401b039182821161043b57016101a08184031261043b576118736104c9565b92815184526020820151602085015260408201516040850152606082015160608501526080820151608085015260a082015160a08501526118b660c083016117eb565b60c085015260e082015160e085015261010080830151908501526101206118de8184016117f6565b908501526101406118f08184016117f6565b908501526101606119028184016117f6565b90850152610180928383015190811161043b5761191f9201611801565b9082015290565b604051906119338261018b565b60008252565b60405190611946826101ab565b600e82526d226f7574666974496473223a205b60901b6020830152565b60236102959193929360405194816119858793518092602080870191016103bf565b8201601160f91b60208201526119a58251809360206021850191016103bf565b0161088b60f21b6021820152036003810185520183610235565b906102956022604051846119dd8296518092602080860191016103bf565b810161174b60f21b6020820152036002810185520183610235565b602e610295919392936040519481611a1a8793518092602080870191016103bf565b82016b113bb7b9363224b2111d101160a11b6020820152611a45825180936020602c850191016103bf565b0161088b60f21b602c82015203600e810185520183610235565b90604051918260605160005b818110611aa0575090602061029593611a948294840191838301600081528151948592016103bf565b01038085520183610235565b6020919250806080015182828801015201908491611a6b565b6020610295919392936040519481611ada87935180928680870191016103bf565b8201611a94825180938680850191016103bf565b90610295603960405180947f22776f726e42794e616b656442616e6e794964223a20220000000000000000006020830152611b338151809260206037860191016103bf565b810161088b60f21b6037820152036019810185520183610235565b90610295603960405180947f227573656442794e616b656442616e6e794964223a20220000000000000000006020830152611b338151809260206037860191016103bf565b9060208282031261043b5781516001600160401b03811161043b57610a769201611801565b9081602091031261043b575190565b9081606091031261043b5780519160406020830151920151610a7681610440565b90610295603d60405180947f646174613a6170706c69636174696f6e2f6a736f6e3b6261736536342c0000006020830152611c2c81518092602086860191016103bf565b810103601d810185520183610235565b6040805163507f146560e01b808252602092916001600160a01b03919060049086841686828481845afa8015610b755789600091611cb894839161229c575b50885163c44a8e6d60e01b81526001600160a01b038c1687820190815260208101939093526000604084015294859283918a918391606090910190565b0392165afa918215610b7557600092612281575b5081511561227057611cdc611926565b5061010082018051909490156121e357611cf783518a6130d8565b9889516121ac575b855160010361219157611d22611d1d611d188d846122b9565b612f2a565b611b4e565b965b8a511561205f575050865163043c358d60e11b81529360609285925082905afa908115610b755760009260009261202a575b50611d61818a614bd9565b988151611d6d90614d3b565b948051611d7990614f7a565b91611d8390612f2a565b908351611d8f90612f2a565b9051611d9a90612f2a565b916060850151611da990612f2a565b938b8b870151611db890612f2a565b960151611dc490612f2a565b96611dce90612f2a565b97611dd890612f2a565b988c8c519e8f918201611dea91611604565b039d601f199e8f81018252611dff9082610235565b611e0890615101565b9b51683d913730b6b2911d1160b91b9d81019d8e529e8f9d600901611e2c91611604565b7211161011383937b23ab1ba2730b6b2911d101160691b8152601301611e5191611604565b731116101131b0ba32b3b7b93ca730b6b2911d101160611b8152601401611e7791611604565b6e111610113a37b5b2b724b2111d101160891b8152600f01611e9891611604565b6a111610113ab831911d101160a91b8152600b01611eb591611604565b6f1116101131b0ba32b3b7b93c911d101160811b8152601001611ed791611604565b6d1116101139bab838363c911d101160911b8152600e01611ef791611604565b70111610113932b6b0b4b734b733911d101160791b8152601101611f1a91611604565b6c11161011383934b1b2911d101160991b8152600d01611f3991611604565b6f111610113232b1b4b6b0b639911d101160811b8152601001611f5b91611604565b6f1116101131bab93932b731bc911d101160811b8152601001611f7d91611604565b6201116160ed1b8152600301611f9291611604565b7f226465736372697074696f6e223a2241207069656365206f662074686520426181527f6e6e797665727365222c22696d616765223a22646174613a696d6167652f737660208201526c19cade1b5b0ed8985cd94d8d0b609a1b6040820152604d01611ffd91611604565b61227d60f01b81526002010390810182526120189082610235565b61202190615101565b610a7690611be8565b90925061204f915060603d606011612058575b6120478183610235565b810190611bc7565b50909138611d56565b503d61203d565b935093949097999550600d919698505111600014612182578651636c0360eb60e01b81526000818581895afa8015610b7557899160009161215f575b50965b8489518098819382525afa928315610b75576120f2978996600095612140575b5051630c8df17160e41b81526001600160a01b03909316908301908152602081019490945290958693849291839160400190565b0392165afa918215610b7557610a7693600093612111575b50506148f2565b612131929350803d10612139575b6121298183610235565b810190611bb8565b90388061210a565b503d61211f565b612158919550873d8911610ba457610b958183610235565b93386120be565b61217c91503d806000833e6121748183610235565b810190611b93565b3861209b565b8761218b610256565b9661209e565b6121a66121a1611d188d84612b0c565b611aee565b96611d24565b986121bf9060018751036121c5576147ff565b98611cff565b6121de906121d96121d46131d8565b614739565b611ab9565b6147ff565b6121ed8a8a612749565b986121f88b826114ed565b8098919851612205611939565b906000925b81841061224557505061221d91506119bf565b978061222a575b50611d24565b9761223861223e9299612f2a565b906119f8565b9638612224565b909161226660019161226061225a87866115a5565b51612f2a565b90611963565b930192919061220a565b505050505050505050610a76611926565b61229591923d8091833e610b678183610235565b9038611ccc565b6122b391508a3d8c11610ba457610b958183610235565b38611c7b565b60018060a01b031660009080825260076020526040822083835260205260408220549283159182156122f5575b50506122f0575090565b905090565b90915082526006602052604082208383526020526040822054141538806122e6565b918060609160209396959660408652816040870152838601376000828286010152601f80199101168301019360018060a01b0316910152565b6040519061010082018281106001600160401b038211176101a65760405260dd82527f746820643d224d3138302031343768337633682d337a222f3e3c2f673e00000060e0837f3c6720636c6173733d226f223e3c7061746820643d224d31373720313430763360208201527f6836763131683130762d31316834762d33682d32307a222f3e3c70617468206460408201527f3d224d31353320313430763368377638203368372033762d31316833762d336860608201527f2d32307a222f3e3c2f673e3c6720636c6173733d2277223e3c7061746820643d60808201527f224d3135332031343368377634682d377a222f3e3c7061746820643d224d313560a08201527f372031343768337633682d337a6d32302d3468367634682d367a222f3e3c706160c08201520152565b6040519061248b826101c6565b61023a82527f643d224d3139302031333768347633682d347a222f3e3c2f673e000000000000610240837f3c6720636c6173733d226f223e3c7061746820643d224d31393020313237683360208201527f7633682d337a6d3320313368347633682d347a6d2d3432203068367636682d3660408201527f7a222f3e3c7061746820643d224d3135312031333368337637682d337a6d313060608201527f203068367634682d367a222f3e3c7061746820643d224d31353720313337683160808201527f377636682d31377a6d332031336831347633682d31347a6d31372d313368377660a08201527f3136682d377a222f3e3c7061746820643d224d3138342031333768367636682d60c08201527f367a6d302031306831307636682d31307a222f3e3c7061746820643d224d313860e08201527f37203134336831307634682d31307a222f3e3c7061746820643d224d313930206101008201527f31343068337633682d337a6d2d362d313068337637682d337a222f3e3c7061746101208201527f6820643d224d3138372031333068367633682d367a6d2d3336203068313076336101408201527f682d31307a6d313620313368377637682d377a6d2d3130203068377637682d376101608201527f7a222f3e3c7061746820643d224d3136342031343768337633682d337a6d32396101808201527f2d323068347636682d347a222f3e3c7061746820643d224d31393420313333686101a08201527f337637682d337a222f3e3c2f673e3c6720636c6173733d2277223e3c706174686101c08201527f20643d224d3135342031333368377634682d377a222f3e3c7061746820643d226101e08201527f4d3135342031333768337633682d337a6d3130203668337634682d337a6d32306102008201527f203068337634682d337a6d332d313068377634682d377a222f3e3c70617468206102208201520152565b60405163507f146560e01b81526001600160a01b036020826004818685165afa918215610b75576000926128ba575b5060405163c44a8e6d60e01b81526001600160a01b0384166004820152602481018590526000604482018190529092909183916064918391165afa908115610b75576000916128a1575b5080511561289657606092610100820151612871579261282891600161280f6127ee610a7697876114ed565b94908015158061286a575b612850575b50612809845161522b565b90611ab9565b915103612844576128229061280961247e565b92615654565b8051612835575b506147ff565b61283e91611ab9565b3861282f565b61282290612809612350565b612864915061285f90886130d8565b611a5f565b386127fe565b50836127f9565b5061287e925051906130d8565b805161288d5750610a76611926565b610a76906147ff565b505050610a76611926565b6128b4913d8091833e610b678183610235565b386127c2565b60009192506128d79060203d602011610ba457610b958183610235565b9190612778565b60405163507f146560e01b81529390916001600160a01b036020866004818488165afa958615610b7557600096612a45575b5060405163c44a8e6d60e01b81526001600160a01b0385166004820152602481018390526000604482018190529096909187916064918391165afa948515610b7557600095612a2a575b50845115612a1d57606090610100860151612a0d5761299e610a769692612983600193876114ed565b958115159081612a05575b506129f65750612809845161522b565b9151036129e4576129b19061280961247e565b925b6129bf575b50506147ff565b6129c891615654565b80516129d5575b806129b8565b6129de91611ab9565b386129cf565b6129f090612809612350565b926129b3565b612864915061285f90876130d8565b90503861298e565b505050905061287e9151906130d8565b5050505050610a76611926565b612a3e91953d8091833e610b678183610235565b933861295a565b6000919650612a629060203d602011610ba457610b958183610235565b9590612910565b90612a726151ea565b81519060009260005b838110612a89575050505050565b612a9381836115a5565b51612a9e82856115a5565b5190808752602060018152604080892054612afc5782917fb10eb6fc7557a7109693cb8f3fac48d44328de56c0368ee4cac539b424d2cad99185612af060019897966000526001602052604060002090565b5551338152a301612a7b565b516333ded41b60e21b8152600490fd5b6001600160a01b03811660009081526008602090815260408083208584528252822054919390928215612bd9576001600160a01b03166000908152600560205260409020828552835260408420926040518094859183825491828152019188528388209388905b828210612bbf57505050612b8992500384610235565b825192845b848110612b9d57505050505090565b82612ba882846115a5565b5114612bb657600101612b8e565b50505091505090565b855484526001958601958995509381019390910190612b73565b5050505090565b604051906101a082018281106001600160401b038211176101a657604052606061018083600080825280602083015280604083015280848301528060808301528060a08301528060c08301528060e08301528061010083015280610120830152806101408301526101608201520152565b91908110156115a05760051b0190565b634e487b7160e01b600052601160045260246000fd5b600281901b91906001600160fe1b03811603612c8f57565b612c61565b906001600160401b0383116101a6576801000000000000000083116101a6578154838355808410612cef575b50906000526020806000209060005b848110612cdd575050505050565b83358382015592810192600101612ccf565b612d079083600052846020600020918201910161161b565b38612cc0565b9081526060602082018190528101839052929392916001600160fb1b03811161043b5760409160809160051b8091838601378301019360018060a01b0316910152565b9190612d5a6151ea565b82516000935b818510612d6e575050509050565b612d7885826115a5565b5194612d8481856115a5565b51958060005260039660209780895260409081600020908351906001600160401b0382116101a657612dc082612dba855461013b565b85611693565b8b601f8311600114612e43575050917f9dedd219289ed514faff576c477c66bd097aef59a236e3b8ebcf0d0070cb4e969391612e1c84612e2b9560019a9b9c9d9e600091612e3857508160011b916000199060031b1c19161790565b90555b519182913390836117a2565b0390a20193929190612d60565b90508501513861092a565b909b601f198316612e5985600052602060002090565b926000905b828210612ec8575050916001999a9b9c9d8492612e2b97957f9dedd219289ed514faff576c477c66bd097aef59a236e3b8ebcf0d0070cb4e9699979510612eae575b505050881b88019055612e1f565b8601519060f884600019921b161c19169055388080612ea0565b80600185968294968c01518155019501930190612e5e565b604051612eec8161018b565b60008152906000368137565b90612f0282611340565b612f0f6040519182610235565b8281528092612f20601f1991611340565b0190602036910137565b806000917a184f03e93ff9f4daa797ed6e38ed64bf6a1f0100000000000000008082101561305f575b506d04ee2d6d415b85acef810000000080831015613050575b50662386f26fc1000080831015613041575b506305f5e10080831015613032575b5061271080831015613023575b506064821015613013575b600a80921015613009575b600190816021612fc260018701612ef8565b95860101905b612fd3575050505090565b600019019083906f181899199a1a9b1b9c1cb0b131b232b360811b8282061a83530491821561300457919082612fc8565b612bd9565b9160010191612fb0565b9190606460029104910191612fa5565b60049193920491019138612f9a565b60089193920491019138612f8d565b60109193920491019138612f7e565b60209193920491019138612f6c565b604093508104915038612f53565b90610295604960405180946c1e34b6b0b3b290343932b31e9160991b60208301526130a2815180926020602d860191016103bf565b81017f222077696474683d2234303022206865696768743d22343030222f3e00000000602d820152036029810185520183610235565b6130f46130ef836000526004602052604060002090565b61031c565b80516131d2575060405163507f146560e01b81526001600160a01b039260209283836004818489165afa908115610b75576131679585946000936131b3575b50604051632f54648f60e21b81526001600160a01b0390921660048301526024820193909352948592839182906044820190565b0392165afa8015610b7557610a769261319192600092613196575b505061318c610256565b6148f2565b61306d565b6131ac9250803d10612139576121298183610235565b3880613182565b6131cb919350853d8711610ba457610b958183610235565b9138613133565b91505090565b604051906131e5826101e2565b61117a82527f762d31306833762d376833762d33682d31307a222f3e3c2f673e000000000000611180837f3c6720636c6173733d226131223e3c7061746820643d224d313733203533683460208201527f763137682d347a222f3e3c2f673e3c6720636c6173733d226132223e3c70617460408201527f6820643d224d3136372035376833763130682d337a222f3e3c7061746820643d60608201527f224d3136392035336834763137682d347a222f3e3c2f673e3c6720636c61737360808201527f3d226133223e3c7061746820643d224d31363720353368337634682d337a222f60a08201527f3e3c7061746820643d224d3136332035376834763130682d347a222f3e3c706160c08201527f746820643d224d31363720363768337633682d337a222f3e3c2f673e3c67206360e08201527f6c6173733d226231223e3c7061746820643d224d32313320323533682d33762d6101008201527f332d33682d33762d372d33682d34762d3130682d33762d372d372d33682d33766101208201527f2d3733682d34762d3130682d33762d3130682d33762d37682d34762d37682d336101408201527f762d33682d33762d33682d3476313068347631306833763130683376336834766101608201527f37203320373020336833763768337632306834763768337633683376336834766101808201527f34683376336833762d332d347a222f3e3c7061746820643d224d3235332033306101a08201527f37762d34682d33762d33682d33762d33682d34762d34682d33762d33682d33766101c08201527f2d33682d34762d34682d33762d33682d33762d33682d34762d34682d33762d366101e08201527f682d33762d37682d3476313768347633683376336833203476346833763368336102008201527f76336834763468337633683376336834763468337633683376336834762d36686102208201527f2d347a222f3e3c2f673e3c6720636c6173733d226232223e3c7061746820643d6102408201527f224d32353020333130762d33682d33762d34682d34762d33682d33762d33682d6102608201527f33762d34682d34762d33682d33762d33682d33762d34682d37762d33682d33766102808201527f2d33682d34762d3137682d33762d33682d33762d34682d34762d33682d33762d6102a08201527f33682d33762d37682d34762d3230682d33762d37682d33762d37332d332d37686102c08201527f2d34762d33682d33762d3130682d33762d3130682d34563730682d33762d336c6102e08201527f2d332031303020332d313030763430682d33763130682d347636682d337631346103008201527f682d337633203133682d347634346834763136683376313468337631336834766103208201527f31306833763768337633683476336833763468337633683476336833763468336103408201527f76336834763368337637683776376836763368377633683776346831337633686103608201527f337633683130762d33682d337a6d2d3130332d3837762d31366833762d3130686103808201527f2d337636682d34763137682d337631306833762d3768347a222f3e3c706174686103a08201527f20643d224d3134332032333068347637682d347a6d3420313068337633682d336103c08201527f7a6d33203768337633682d337a6d33203668347634682d347a222f3e3c7061746103e08201527f6820643d224d31363320323537682d36763368337633683376346834762d342d6104008201527f33682d34762d337a222f3e3c2f673e3c6720636c6173733d226233223e3c70616104208201527f746820643d224d3134332031393776366834762d366836762d34346834762d316104408201527f366833762d31346833762d366834762d31306833563937682d377636682d33766104608201527f34682d337633682d347633682d3376342033682d3376332034682d34763130686104808201527f2d337631362034682d337634366833762d3668337a222f3e3c7061746820643d6104a08201527f224d313430203230336833763137682d337a222f3e3c7061746820643d224d316104c08201527f3337203232306833763130682d337a222f3e3c7061746820643d224d313533206104e08201527f323530682d33762d37682d33762d36682d34762d37682d3376313068337637686105008201527f347636683376346833762d377a6d2d3320313068337637682d337a222f3e3c706105208201527f61746820643d224d3134372032353768337633682d337a6d36203068347633686105408201527f2d347a222f3e3c7061746820643d224d31363020323633762d33682d337633206105608201527f376836762d37682d337a6d2d31302d3536763136682d337637683376313068336105808201527f763768347636683676346837762d342d33682d33762d3130682d34762d3133686105a08201527f2d33762d3134682d33762d3136682d34763130682d337a222f3e3c70617468206105c08201527f643d224d32343320333133762d33682d33762d33682d31302d33762d34682d376105e08201527f762d33682d37762d33682d36762d37682d37762d37682d33762d33682d34762d6106008201527f33682d33762d34682d33762d33682d34762d33682d33762d34682d33762d33686106208201527f2d34762d33682d33763130682d337633682d347633682d3376376833763768346106408201527f76366833763568347633683676336833763368342033763368332034763368336106608201527f20337634683130763368372037203376336831302033762d33683130762d33686106808201527f34762d34682d31347a222f3e3c2f673e3c6720636c6173733d226234223e3c706106a08201527f61746820643d224d3138332031333068347637682d347a222f3e3c70617468206106c08201527f643d224d3138302031323768337633682d337a6d2d32372d3468347637682d346106e08201527f7a222f3e3c7061746820643d224d3135372031313768337636682d337a222f3e6107008201527f3c7061746820643d224d3136302031313068337637682d337a222f3e3c7061746107208201527f6820643d224d3136332031303768347633682d347a6d2d3320383368337637686107408201527f2d337a222f3e3c7061746820643d224d3136332031383768347633682d347a6d6107608201527f3230203068377633682d377a222f3e3c7061746820643d224d313830203139306107808201527f68337633682d337a6d31302d3768337634682d337a222f3e3c7061746820643d6107a08201527f224d3139332031383768347636682d347a6d2d323020353368347637682d347a6107c08201527f222f3e3c7061746820643d224d3137372032343768337636682d337a222f3e3c6107e08201527f7061746820643d224d3138302032353368337637682d337a222f3e3c706174686108008201527f20643d224d3138332032363068377633682d377a222f3e3c7061746820643d226108208201527f4d3139302032363368337634682d337a6d302d323068337634682d337a222f3e6108408201527f3c7061746820643d224d3138372032343068337633682d337a222f3e3c7061746108608201527f6820643d224d3139302032333768337633682d337a6d313320323368347633686108808201527f2d347a222f3e3c7061746820643d224d3230372032363368337637682d337a226108a08201527f2f3e3c7061746820643d224d3231302032373068337633682d337a6d2d3130206108c08201527f3768337636682d337a222f3e3c7061746820643d224d323033203238336834766108e08201527f37682d347a222f3e3c7061746820643d224d3230372032393068367633682d366109008201527f7a222f3e3c2f673e3c6720636c6173733d226f223e3c7061746820643d224d316109208201527f3333203135376834763530682d347a6d302036336834763130682d347a6d32376109408201527f2d3136336833763130682d337a222f3e3c7061746820643d224d3136332035336109608201527f68347634682d347a222f3e3c7061746820643d224d31363720353068313076336109808201527f682d31307a222f3e3c7061746820643d224d3137372035336833763137682d336109a08201527f7a222f3e3c7061746820643d224d3137332037306834763237682d347a6d2d366109c08201527f20306833763237682d337a222f3e3c7061746820643d224d31363320363768346109e08201527f7633682d347a6d3020333068347633682d347a222f3e3c7061746820643d224d610a008201527f3136302031303068337633682d337a222f3e3c7061746820643d224d31353720610a208201527f31303368337634682d337a222f3e3c7061746820643d224d3135332031303768610a408201527f347633682d347a222f3e3c7061746820643d224d313530203131306833763368610a608201527f2d337a222f3e3c7061746820643d224d3134372031313368337637682d337a22610a808201527f2f3e3c7061746820643d224d3134332031323068347637682d347a222f3e3c70610aa08201527f61746820643d224d313430203132376833763130682d337a222f3e3c70617468610ac08201527f20643d224d313337203133376833763230682d337a6d35362d31306834763130610ae08201527f682d347a222f3e3c7061746820643d224d313930203131376833763130682d33610b008201527f7a222f3e3c7061746820643d224d3138372031313068337637682d337a222f3e610b208201527f3c7061746820643d224d3138332031303368347637682d347a222f3e3c706174610b408201527f6820643d224d3138302031303068337633682d337a222f3e3c7061746820643d610b608201527f224d31373720393768337633682d337a6d2d3430203130366833763137682d33610b808201527f7a6d302032376833763130682d337a6d313020333068337637682d337a222f3e610ba08201527f3c7061746820643d224d31353020323537762d34682d33762d36682d34762d37610bc08201527f682d3376313068337631306834762d3368337a222f3e3c7061746820643d224d610be08201527f3135302032353768337633682d337a222f3e3c7061746820643d224d31363320610c008201527f323733762d33682d36762d3130682d347637682d337633683376336834763768610c208201527f33762d3768337a222f3e3c7061746820643d224d313633203236376834763368610c408201527f2d347a222f3e3c7061746820643d224d31373020323537682d332d3476336834610c608201527f76376833762d31307a222f3e3c7061746820643d224d31353720323533683676610c808201527f34682d367a222f3e3c7061746820643d224d3135332032343768347636682d34610ca08201527f7a222f3e3c7061746820643d224d3135302032343068337637682d337a222f3e610cc08201527f3c7061746820643d224d313437203233306833763130682d337a6d3133203530610ce08201527f68337637682d337a222f3e3c7061746820643d224d3134332032323368347637610d008201527f682d347a222f3e3c7061746820643d224d313437203230376833763136682d33610d208201527f7a222f3e3c7061746820643d224d313530203139376833763130682d337a6d2d610d408201527f3130203068337636682d337a6d35302031313368377633682d377a6d32332031610d608201527f306831377633682d31377a222f3e3c7061746820643d224d3233302033323368610d808201527f31337634682d31337a222f3e3c7061746820643d224d32343320333230683130610da08201527f7633682d31307a222f3e3c7061746820643d224d323533203331376834763368610dc08201527f2d347a222f3e3c7061746820643d224d323537203330376833763130682d337a610de08201527f222f3e3c7061746820643d224d3235332033303368347634682d347a222f3e3c610e008201527f7061746820643d224d3235302033303068337633682d337a222f3e3c70617468610e208201527f20643d224d3234372032393768337633682d337a222f3e3c7061746820643d22610e408201527f4d3234332032393368347634682d347a222f3e3c7061746820643d224d323430610e608201527f2032393068337633682d337a222f3e3c7061746820643d224d32333720323837610e808201527f68337633682d337a222f3e3c7061746820643d224d3233332032383368347634610ea08201527f682d347a222f3e3c7061746820643d224d3233302032383068337633682d337a610ec08201527f222f3e3c7061746820643d224d3232372032373768337633682d337a222f3e3c610ee08201527f7061746820643d224d3232332032373368347634682d347a222f3e3c70617468610f008201527f20643d224d3232302032363768337636682d337a222f3e3c7061746820643d22610f208201527f4d3231372032363068337637682d337a222f3e3c7061746820643d224d323133610f408201527f2032353368347637682d347a222f3e3c7061746820643d224d32313020323437610f608201527f68337636682d337a222f3e3c7061746820643d224d3230372032333768337631610f808201527f30682d337a222f3e3c7061746820643d224d323033203232376834763130682d610fa08201527f347a6d2d343020363068347636682d347a6d323420323068337633682d337a22610fc08201527f2f3e3c7061746820643d224d3136372032393368337635682d337a6d31362031610fe08201527f3468347633682d347a222f3e3c7061746820643d224d313730203239386834766110008201527f33682d347a6d3130203668337633682d337a222f3e3c7061746820643d224d316110208201527f37342033303168367633682d367a6d323320313268367634682d367a222f3e3c6110408201527f7061746820643d224d323033203331376831307633682d31307a6d2d322d31306110608201527f37762d3733682d3476373368337631376833762d3137682d327a222f3e3c2f676110808201527f3e3c6720636c6173733d226f223e3c7061746820643d224d31383720333037766110a08201527f2d346833762d36682d33762d34682d34762d33682d33762d33682d37762d34686110c08201527f2d367634682d3476336834763237682d34763133682d33763130682d347637686110e08201527f3476336833203130203134762d33682d34762d34682d33762d33682d33762d336111008201527f682d34762d376834762d31306833762d376833762d336837762d33682d337a6d6111208201527f3136203130762d34682d36763137682d34763130682d337637683376336834206111408201527f3620342033203134762d33682d34762d34682d37762d33682d33762d33682d336111608201520152565b90610295609a60405180947f3c7374796c653e2e6f7b66696c6c3a233830383038303b7d2e62327b66696c6c60208301527f3a6e6f6e653b7d2e62337b66696c6c3a6e6f6e653b7d2e62347b66696c6c3a6e60408301527f6f6e653b7d2e61317b66696c6c3a6e6f6e653b7d2e61327b66696c6c3a6e6f6e60608301527f653b7d2e61337b66696c6c3a6e6f6e653b7d3c2f7374796c653e00000000000060808301526147ef81518092602086860191016103bf565b810103607a810185520183610235565b9061029560ba60405180947f3c7376672077696474683d2234303022206865696768743d223430302220766960208301527f6577426f783d223020302034303020343030222066696c6c3d226e6f6e65222060408301527f786d6c6e733d22687474703a2f2f7777772e77332e6f72672f323030302f737660608301527f67223e3c7374796c653e2e6f7b66696c6c3a233035303530353b7d2e777b666960808301527336361d11b31cb31cb31c9dbe9e17b9ba3cb6329f60611b60a08301526148d381518092602060b4860191016103bf565b8101651e17b9bb339f60d11b60b482015203609a810185520183610235565b90610a7690614920604051602092609160f51b8483015260228201526022815261491b816101fe565b6158d7565b92604051938161493986935180928680870191016103bf565b820161494d825180938680850191016103bf565b01038084520182610235565b906102956021604051846149778296518092602080860191016103bf565b8101600160fd1b6020820152036001810185520183610235565b610295916149e79493602b926040519687936020926149b88151809286808a0191016103bf565b85016149cc825180938680850191016103bf565b0191602f60f81b8184015283519384916021850191016103bf565b01692072656d61696e696e6760b01b602182015203600b810185520183610235565b6037906102959294936040519582614a2b8894518092602080880191016103bf565b83016b0101429a7a6221027aaaa14960a51b6020820152614a56825180936020602c850191016103bf565b01602f60f81b602c820152614a75825180936020602d850191016103bf565b01692072656d61696e696e6760b01b602d820152036017810185520183610235565b61029591614aec9493602192604051968793602092614abe8151809286808a0191016103bf565b8501614ad2825180938680850191016103bf565b0191602f60f81b81840152835193849187850191016103bf565b01036001810185520183610235565b90610295602360405184614b198296518092602080860191016103bf565b8101620101d160ed1b6020820152036003810185520183610235565b6021610295919392936040519481614b578793518092602080870191016103bf565b8201614b6c82518093602080850191016103bf565b01600160fd1b6020820152036001810185520183610235565b6025610295919392936040519481614ba78793518092602080870191016103bf565b820164555043202360d81b6020820152614bca82518093602087850191016103bf565b01036005810185520183610235565b90614c25610a7692633b9aca00614bf8614bf38551614d3b565b614959565b91068015614c615790614c0d614c2092612f2a565b614c1a6060860151612f2a565b91614a97565b614afb565b90614c34610100820151614f7a565b8051614c4c575b50614c469051612f2a565b90614b85565b614c5a90614c469293614b35565b9190614c3b565b50604083019081518015600014614c935750614c80614c209251612f2a565b614c8d6060860151612f2a565b91614a09565b614c209250614ca190612f2a565b614cae6060860151612f2a565b91614991565b60405190614cc1826101ab565b600882526713dc9a59da5b985b60c21b6020830152565b60405190614ce5826101ab565b60068252654f72616e676560d01b6020830152565b60405190614d07826101ab565b600482526350696e6b60e01b6020830152565b60405190614d27826101ab565b600582526420b634b2b760d91b6020830152565b60018103614d4c5750610a76614d1a565b60028103614d5d5750610a76614cfa565b60038103614d6e5750610a76614cd8565b60048103614d7f5750610a76614cb4565b6000526003602052610a76604060002061031c565b60405190614da1826101ab565b6007825266546f7070696e6760c81b6020830152565b60405190614dc4826101ab565b6004825263119a5cdd60e21b6020830152565b60405190614de4826101ab565b600b82526a5375697420626f74746f6d60a81b6020830152565b60405190614e0b826101ab565b600882526705375697420746f760c41b6020830152565b60405190614e2f826101ab565b600482526314dd5a5d60e21b6020830152565b60405190614e4f826101ab565b60048252631219585960e21b6020830152565b60405190614e6f826101ab565b600882526704865616420746f760c41b6020830152565b60405190614e93826101ab565b600582526409adeeae8d60db1b6020830152565b60405190614eb4826101ab565b6007825266476c617373657360c81b6020830152565b60405190614ed7826101ab565b60088252674e65636b6c61636560c01b6020830152565b60405190614efb826101ab565b60048252634c65677360e01b6020830152565b60405190614f1b826101ab565b60088252674261636b7369646560c01b6020830152565b60405190614f3f826101ab565b600582526415dbdc9b1960da1b6020830152565b60405190614f60826101ab565b600b82526a4e616b65642042616e6e7960a81b6020830152565b80614f885750610a76614f53565b60018103614f995750610a76614f32565b60028103614faa5750610a76614f0e565b60078103614fbb5750610a76614eee565b60038103614fcc5750610a76614eca565b60058103614fdd5750610a76614ea7565b60068103614fee5750610a76614e86565b600b8103614fff5750610a76614e62565b600481036150105750610a76614e42565b600881036150215750610a76614e22565b600a81036150325750610a76614dfe565b600981036150435750610a76614dd7565b600c81036150545750610a76614db7565b600d1461506357610a76611926565b610a76614d94565b60405190615078826101fe565b604082527f6768696a6b6c6d6e6f707172737475767778797a303132333435363738392b2f6040837f4142434445464748494a4b4c4d4e4f505152535455565758595a61626364656660208201520152565b9060028201809211612c8f57565b9060208201809211612c8f57565b9060018201809211612c8f57565b91908201809211612c8f57565b8051156151e15761511061506b565b61512c61512761512084516150ca565b6003900490565b612c77565b9161513e615139846150d8565b612ef8565b92835280815182019060208501935b82821061518f5750505060039051068060011461517e5760021461516f575090565b603d60f81b6000199091015290565b50613d3d60f01b6001199091015290565b9091936004906003809401938451600190603f9082828260121c16880101518553828282600c1c16880101518386015382828260061c168801015160028601531685010151908201530193919061514d565b50610a76611926565b6000546001600160a01b0390811681615201615d74565b160361520a5750565b602490615215615d74565b60405163118cdaa760e01b815291166004820152fd5b61523490615c48565b926152439695969291926131d8565b9460405197889760208901703c7374796c653e2e62317b66696c6c3a2360781b90528051908160318b01916020019161527b926103bf565b8801603181016b3b7d2e62327b66696c6c3a2360a01b905281519182603d830191602001916152a9926103bf565b01603d81016b3b7d2e62337b66696c6c3a2360a01b9052815191826049830191602001916152d6926103bf565b01604981016152f3906b3b7d2e62347b66696c6c3a2360a01b9052565b6055016152ff91611604565b6b3b7d2e61317b66696c6c3a2360a01b8152600c0161531d91611604565b6b3b7d2e61327b66696c6c3a2360a01b8152600c0161533b91611604565b6b3b7d2e61337b66696c6c3a2360a01b8152600c0161535991611604565b691dbe9e17b9ba3cb6329f60b11b8152600a0161537591611604565b03601f1981018252610a769082610235565b6040519061539482610219565b61019c82527f6820643d224d3139332031373068347633682d347a222f3e3c2f673e000000006101a0837f3c6720636c6173733d226f223e3c7061746820643d224d31393020313733682d60208201527f3337762d33682d3130762d34682d36763468337633682d33763468367633683160408201527f307634683337762d346833762d33682d33762d347a6d2d34302034682d33762d60608201527f34683376347a6d372033762d3368337633682d337a6d362030762d336834763360808201527f682d347a6d372030762d3368337633682d337a6d372030762d3368337633682d60a08201527f337a6d31302030682d34762d33683476337a222f3e3c7061746820643d224d3160c08201527f39302031373068337633682d337a222f3e3c7061746820643d224d313933203160e08201527f363668347634682d347a6d30203768347634682d347a222f3e3c2f673e3c67206101008201527f636c6173733d2277223e3c7061746820643d224d3133372031373068337633686101208201527f2d337a6d3130203368337634682d337a6d3130203468337633682d337a6d36206101408201527f3068347633682d347a6d37203068337633682d337a6d37203068337633682d336101608201527f7a6d36203068347633682d347a6d372d3468337634682d337a222f3e3c7061746101808201520152565b6040519060c082018281106001600160401b038211176101a65760405260818252601f60f91b60a0837f3c6720636c6173733d226f223e3c7061746820643d224d31383320313630762d60208201527f34682d32307634682d33763368337634683234762d37682d347a6d2d3133203360408201527f762d336831307633682d31307a222066696c6c3d2223616437316338222f3e3c60608201527f7061746820643d224d313730203136306831307633682d31307a222f3e3c2f6760808201520152565b91906060928151600091828394879361566c816150e6565b955b86811061567f575050505050505050565b818110156158665761569181846115a5565b516040805163507f146560e01b8152600491906001600160a01b036020808386818e86165afa918215610b755761570c9560009588958e948896615847575b50505163c44a8e6d60e01b81526001600160a01b0390931690830190815260208101949094526000604085015290948593849291839160600190565b0392165afa8015610b75576101009160009161582e575b500151965b6003888114969087156157fc5750505060019461574582886130d8565b995b60068981036157c5575050600a6001985b11806157bb575b6157a1575b8115159081615798575b50615780575b5060010196949661566e565b6001919a61280961579192886130d8565b9990615774565b9050153861576e565b986157ac919b611ab9565b996157b5611926565b98615764565b508951151561575f565b89919911806157f4575b6157dc575b600a90615758565b97509a6157eb9061280961558f565b9a6001976157d4565b5088156157cf565b899b9197929b1180615826575b156157475795509a61581d90612809615387565b9a600195615747565b508615615809565b615841913d8091833e610b678183610235565b38615723565b61585e929650803d10610ba457610b958183610235565b9338806156d0565b600e95600090615728565b604051906105e082018281106001600160401b038211176101a657604052602e82526105c0366020840137565b906158a8826104e9565b6158b56040519182610235565b8281528092612f20601f19916104e9565b9081518110156115a0570160200190565b908151156159fe576158e7615871565b9160009060006158f685611593565b526001918151916000925b808410615927575050505061591d61592291610a769394615dcd565b615e10565b615e57565b9091929461595861595261594c61593e89876158c6565b516001600160f81b03191690565b60f81c90565b60ff1690565b9184925b60ff90898289168610156159bd576001929161599161598b6159526159848a615997966115a5565b5160ff1690565b60081b90565b906150f4565b6159b48b6159ac88603a9586860616926115a5565b9060ff169052565b0493019261595c565b50919594935050809691965b6159d7575060010192615901565b9460ff6001603a926159f483858b06166159ac8d868516906115a5565b01169504806159c9565b9050610a76612ee0565b60405190615a15826101ab565b600682526506666653930360d41b6020830152565b60405190615a37826101ab565b600682526506666633730360d41b6020830152565b60405190615a59826101ab565b600682526566336136303360d01b6020830152565b60405190615a7b826101ab565b600682526539363561316160d01b6020830152565b60405190615a9d826101ab565b600682526533331bb1981960d11b6020830152565b60405190615abf826101ab565b600682526506664333630360d41b6020830152565b60405190615ae1826101ab565b600682526518cccc994c1960d21b6020830152565b60405190615b03826101ab565b600682526566666438633560d01b6020830152565b60405190615b25826101ab565b600682526566663936613960d01b6020830152565b60405190615b47826101ab565b600682526533329a9c1c3160d11b6020830152565b60405190615b69826101ab565b600682526563393266343560d01b6020830152565b60405190615b8b826101ab565b600682526536376437353760d01b6020830152565b60405190615bad826101ab565b600682526503330613232360d41b6020830152565b60405190615bcf826101ab565b600682526532313761313560d01b6020830152565b60405190615bf1826101ab565b60048252636e6f6e6560e01b6020830152565b60405190615c11826101ab565b6006825265329a1c19b2b360d11b6020830152565b60405190615c33826101ab565b60068252653231993332b360d11b6020830152565b60018103615c8f5750615c59615b7e565b90615c62615ba0565b90615c6b615bc2565b90615c74615be4565b90615c7d615c04565b90615c86615c26565b90610a76615c26565b60028103615cd65750615ca0615af6565b90615ca9615b18565b90615cb2615b3a565b90615cbb615b5c565b90615cc4615af6565b90615ccd615b18565b90610a76615b3a565b60038103615d1d5750615ce7615a4c565b90615cf0615a90565b90615cf9615ab2565b90615d02615ad4565b90615d0b615a4c565b90615d14615a90565b90610a76615ab2565b600414615d3657604051633b9cb79b60e21b8152600490fd5b615d3e615a08565b90615d47615a2a565b90615d50615a4c565b90615d59615a6e565b90615d62615a08565b90615d6b615a2a565b90610a76615a4c565b337f000000000000000000000000b2b5841dbef766d4b521221732f9b618fcf34a876001600160a01b03161480615dc2575b15615dbe576013193601368111612c8f573560601c90565b3390565b506014361015615da6565b9060ff80911690615ddd8261589e565b9260005b838110615def575050505090565b8083615dfd600193856115a5565b5116615e0982886115a5565b5201615de1565b908151615e1c8161589e565b9060005b818110615e2e575090925050565b60019060ff615e446000198389510301886115a5565b5116615e5082866115a5565b5201615e20565b8051615e6281611340565b91604090615e736040519485610235565b828452615e7f83611340565b602090601f1901368683013760009260005b858110615ea15750505050505090565b6001908251615eaf816101fe565b603a81527f31323334353637383941424344454647484a4b4c4d4e50515253545556575859858201527f5a6162636465666768696a6b6d6e6f707172737475767778797a000000000000848201526001600160f81b031990615f1f9060ff615f17858a6115a5565b5116906158c6565b5116861a615f2d828a6158c6565b5301615e9156fea2646970667358221220f4c28235c2577961bfb96f025f5626f87693022b891a47164c12465d5e52a4fe64736f6c63430008170033",
	"devdoc": {
		"kind": "dev",
		"methods": {
			"assetIdsOf(address,uint256)": {
				"custom:param": "hook The hook address of the collection.",
				"params": {
					"nakedBannyId": "The ID of the naked banny shows with the associated assets."
				},
				"returns": {
					"outfitIds": "The outfits attached to the Naked Banny.",
					"worldId": "The world attached to the Naked Banny."
				}
			},
			"constructor": {
				"params": {
					"owner": "The owner allowed to add SVG files that correspond to product IDs.",
					"trustedForwarder": "The trusted forwarder for the ERC2771Context."
				}
			},
			"decorateBannyWith(address,uint256,uint256,uint256[])": {
				"details": "The caller must own the naked banny being dressed and all outfits being worn.",
				"params": {
					"hook": "The hook storing the assets.",
					"nakedBannyId": "The ID of the Naked Banny being dressed.",
					"outfitIds": "The IDs of the outfits that'll be associated with the specified banny. Only one outfit per outfit category allowed at a time and they must be passed in order.",
					"worldId": "The ID of the world that'll be associated with the specified banny."
				}
			},
			"isTrustedForwarder(address)": {
				"details": "Indicates whether any particular address is the trusted forwarder."
			},
			"namesOf(address,uint256)": {
				"params": {
					"hook": "The hook storing the assets.",
					"tokenId": "The ID of the token to show."
				},
				"returns": {
					"_0": "fullName The full name of the token.",
					"_1": "categoryName The name of the token's category.",
					"_2": "productName The name of the token's product."
				}
			},
			"owner()": {
				"details": "Returns the address of the current owner."
			},
			"renounceOwnership()": {
				"details": "Leaves the contract without owner. It will not be possible to call `onlyOwner` functions. Can only be called by the current owner. NOTE: Renouncing ownership will leave the contract without an owner, thereby disabling any functionality that is only available to the owner."
			},
			"setProductNames(uint256[],string[])": {
				"params": {
					"names": "The names of the products.",
					"upcs": "The universal product codes of the products having their name stored."
				}
			},
			"setSvgContentsOf(uint256[],string[])": {
				"params": {
					"svgContents": "The svg contents being stored, not including the parent <svg></svg> element.",
					"upcs": "The universal product codes of the products having SVGs stored."
				}
			},
			"setSvgHashsOf(uint256[],bytes32[])": {
				"details": "This allows anyone to lazily upload the correct svg file.",
				"params": {
					"svgHashs": "The svg hashes being stored, not including the parent <svg></svg> element.",
					"upcs": "The universal product codes of the products having SVG hashes stored."
				}
			},
			"svgOf(address,uint256,bool,bool)": {
				"params": {
					"hook": "The hook storing the assets.",
					"shouldDressNakedBanny": "Whether the naked banny should be dressed.",
					"shouldIncludeWorldOnNakedBanny": "Whether the world should be included on the naked banny.",
					"tokenId": "The ID of the token to show. If the ID belongs to a Naked Banny, it will be shown with its current outfits in its current world if specified."
				},
				"returns": {
					"_0": "svg The SVG."
				}
			},
			"tokenUriOf(address,uint256)": {
				"params": {
					"tokenId": "The ID of the token to show. If the ID belongs to a Naked Banny, it will be shown with its current outfits in its current world."
				},
				"returns": {
					"_0": "tokenUri The URI representing the SVG."
				}
			},
			"transferOwnership(address)": {
				"details": "Transfers ownership of the contract to a new account (`newOwner`). Can only be called by the current owner."
			},
			"trustedForwarder()": {
				"details": "Returns the address of the trusted forwarder."
			},
			"userOf(address,uint256)": {
				"custom:param": "hook The hook address of the collection.",
				"params": {
					"worldId": "The ID of the world being used."
				},
				"returns": {
					"_0": "The ID of the naked banny using the world."
				}
			},
			"wearerOf(address,uint256)": {
				"custom:param": "hook The hook address of the collection.",
				"params": {
					"outfitId": "The ID of the outfit being worn."
				},
				"returns": {
					"_0": "The ID of the naked banny wearing the outfit."
				}
			}
		},
		"version": 1
	},
	"userdoc": {
		"kind": "user",
		"methods": {
			"assetIdsOf(address,uint256)": {
				"notice": "The assets currently attached to each Naked Banny, owned by the naked Banny's owner."
			},
			"decorateBannyWith(address,uint256,uint256,uint256[])": {
				"notice": "Dress your Naked Banny with outfits."
			},
			"namesOf(address,uint256)": {
				"notice": "Returns the name of the token."
			},
			"setProductNames(uint256[],string[])": {
				"notice": "Allows the owner to set the product's name."
			},
			"setSvgBaseUri(string)": {
				"notice": "Allows the owner of this contract to specify the base of the domain hosting the SVG files."
			},
			"setSvgContentsOf(uint256[],string[])": {
				"notice": "The owner of this contract can store SVG files for product IDs."
			},
			"setSvgHashsOf(uint256[],bytes32[])": {
				"notice": "Allows the owner of this contract to upload the hash of an svg file for a universal product code."
			},
			"svgBaseUri()": {
				"notice": "The base of the domain hosting the SVG files that can be lazily uploaded to the contract."
			},
			"svgHashOf(uint256)": {
				"notice": "The Naked Banny and outfit SVG hash files."
			},
			"svgOf(address,uint256,bool,bool)": {
				"notice": "Returns the SVG showing either a naked banny with/without outfits and a world, or the stand alone outfit or world."
			},
			"tokenUriOf(address,uint256)": {
				"notice": "Returns the SVG showing a dressed Naked Banny in a world."
			},
			"userOf(address,uint256)": {
				"notice": "Checks to see which naked banny is currently using a particular world."
			},
			"wearerOf(address,uint256)": {
				"notice": "Checks to see which naked banny is currently wearing a particular outfit."
			}
		},
		"version": 1
	},
	"gitCommit": "096bd227008bc73a7b5f8707e01121bd1e7eb495",
	"sourceName": "src/Banny721TokenUriResolver.sol",
	"chainId": "84532",
	"linkReferences": {},
	"deployedLinkReferences": {},
	"history": [
		{
			"_format": "sphinx-sol-ct-artifact-1",
			"merkleRoot": "0xf71552bd89126626cc9a8b322587d1495e44702402cb10696fbdb74f33444828",
			"contractName": "Banny721TokenUriResolver",
			"address": "0xA14fe719C2fC8afC0b19EFC6C7d42850F65cca7b",
			"abi": [
				{
					"type": "constructor",
					"inputs": [
						{
							"name": "owner",
							"type": "address",
							"internalType": "address"
						},
						{
							"name": "trustedForwarder",
							"type": "address",
							"internalType": "address"
						}
					],
					"stateMutability": "nonpayable"
				},
				{
					"type": "function",
					"name": "assetIdsOf",
					"inputs": [
						{
							"name": "nakedBannyId",
							"type": "uint256",
							"internalType": "uint256"
						}
					],
					"outputs": [
						{
							"name": "worldId",
							"type": "uint256",
							"internalType": "uint256"
						},
						{
							"name": "outfitIds",
							"type": "uint256[]",
							"internalType": "uint256[]"
						}
					],
					"stateMutability": "view"
				},
				{
					"type": "function",
					"name": "decorateBannyWith",
					"inputs": [
						{
							"name": "hook",
							"type": "address",
							"internalType": "address"
						},
						{
							"name": "nakedBannyId",
							"type": "uint256",
							"internalType": "uint256"
						},
						{
							"name": "worldId",
							"type": "uint256",
							"internalType": "uint256"
						},
						{
							"name": "outfitIds",
							"type": "uint256[]",
							"internalType": "uint256[]"
						}
					],
					"outputs": [],
					"stateMutability": "nonpayable"
				},
				{
					"type": "function",
					"name": "isTrustedForwarder",
					"inputs": [
						{
							"name": "forwarder",
							"type": "address",
							"internalType": "address"
						}
					],
					"outputs": [
						{
							"name": "",
							"type": "bool",
							"internalType": "bool"
						}
					],
					"stateMutability": "view"
				},
				{
					"type": "function",
					"name": "namesOf",
					"inputs": [
						{
							"name": "hook",
							"type": "address",
							"internalType": "address"
						},
						{
							"name": "tokenId",
							"type": "uint256",
							"internalType": "uint256"
						}
					],
					"outputs": [
						{
							"name": "",
							"type": "string",
							"internalType": "string"
						},
						{
							"name": "",
							"type": "string",
							"internalType": "string"
						},
						{
							"name": "",
							"type": "string",
							"internalType": "string"
						}
					],
					"stateMutability": "view"
				},
				{
					"type": "function",
					"name": "owner",
					"inputs": [],
					"outputs": [
						{
							"name": "",
							"type": "address",
							"internalType": "address"
						}
					],
					"stateMutability": "view"
				},
				{
					"type": "function",
					"name": "renounceOwnership",
					"inputs": [],
					"outputs": [],
					"stateMutability": "nonpayable"
				},
				{
					"type": "function",
					"name": "setProductNames",
					"inputs": [
						{
							"name": "upcs",
							"type": "uint256[]",
							"internalType": "uint256[]"
						},
						{
							"name": "names",
							"type": "string[]",
							"internalType": "string[]"
						}
					],
					"outputs": [],
					"stateMutability": "nonpayable"
				},
				{
					"type": "function",
					"name": "setSvgBaseUri",
					"inputs": [
						{
							"name": "baseUri",
							"type": "string",
							"internalType": "string"
						}
					],
					"outputs": [],
					"stateMutability": "nonpayable"
				},
				{
					"type": "function",
					"name": "setSvgContentsOf",
					"inputs": [
						{
							"name": "upcs",
							"type": "uint256[]",
							"internalType": "uint256[]"
						},
						{
							"name": "svgContents",
							"type": "string[]",
							"internalType": "string[]"
						}
					],
					"outputs": [],
					"stateMutability": "nonpayable"
				},
				{
					"type": "function",
					"name": "setSvgHashsOf",
					"inputs": [
						{
							"name": "upcs",
							"type": "uint256[]",
							"internalType": "uint256[]"
						},
						{
							"name": "svgHashs",
							"type": "bytes32[]",
							"internalType": "bytes32[]"
						}
					],
					"outputs": [],
					"stateMutability": "nonpayable"
				},
				{
					"type": "function",
					"name": "svgBaseUri",
					"inputs": [],
					"outputs": [
						{
							"name": "",
							"type": "string",
							"internalType": "string"
						}
					],
					"stateMutability": "view"
				},
				{
					"type": "function",
					"name": "svgHashOf",
					"inputs": [
						{
							"name": "upc",
							"type": "uint256",
							"internalType": "uint256"
						}
					],
					"outputs": [
						{
							"name": "",
							"type": "bytes32",
							"internalType": "bytes32"
						}
					],
					"stateMutability": "view"
				},
				{
					"type": "function",
					"name": "svgOf",
					"inputs": [
						{
							"name": "hook",
							"type": "address",
							"internalType": "address"
						},
						{
							"name": "tokenId",
							"type": "uint256",
							"internalType": "uint256"
						},
						{
							"name": "shouldDressNakedBanny",
							"type": "bool",
							"internalType": "bool"
						},
						{
							"name": "shouldIncludeWorldOnNakedBanny",
							"type": "bool",
							"internalType": "bool"
						}
					],
					"outputs": [
						{
							"name": "",
							"type": "string",
							"internalType": "string"
						}
					],
					"stateMutability": "view"
				},
				{
					"type": "function",
					"name": "tokenUriOf",
					"inputs": [
						{
							"name": "hook",
							"type": "address",
							"internalType": "address"
						},
						{
							"name": "tokenId",
							"type": "uint256",
							"internalType": "uint256"
						}
					],
					"outputs": [
						{
							"name": "",
							"type": "string",
							"internalType": "string"
						}
					],
					"stateMutability": "view"
				},
				{
					"type": "function",
					"name": "transferOwnership",
					"inputs": [
						{
							"name": "newOwner",
							"type": "address",
							"internalType": "address"
						}
					],
					"outputs": [],
					"stateMutability": "nonpayable"
				},
				{
					"type": "function",
					"name": "trustedForwarder",
					"inputs": [],
					"outputs": [
						{
							"name": "",
							"type": "address",
							"internalType": "address"
						}
					],
					"stateMutability": "view"
				},
				{
					"type": "function",
					"name": "userOf",
					"inputs": [
						{
							"name": "worldId",
							"type": "uint256",
							"internalType": "uint256"
						}
					],
					"outputs": [
						{
							"name": "",
							"type": "uint256",
							"internalType": "uint256"
						}
					],
					"stateMutability": "view"
				},
				{
					"type": "function",
					"name": "wearerOf",
					"inputs": [
						{
							"name": "outfitId",
							"type": "uint256",
							"internalType": "uint256"
						}
					],
					"outputs": [
						{
							"name": "",
							"type": "uint256",
							"internalType": "uint256"
						}
					],
					"stateMutability": "view"
				},
				{
					"type": "event",
					"name": "DecorateBanny",
					"inputs": [
						{
							"name": "hook",
							"type": "address",
							"indexed": true,
							"internalType": "address"
						},
						{
							"name": "nakenBannyId",
							"type": "uint256",
							"indexed": true,
							"internalType": "uint256"
						},
						{
							"name": "worldId",
							"type": "uint256",
							"indexed": false,
							"internalType": "uint256"
						},
						{
							"name": "outfitIds",
							"type": "uint256[]",
							"indexed": false,
							"internalType": "uint256[]"
						},
						{
							"name": "caller",
							"type": "address",
							"indexed": false,
							"internalType": "address"
						}
					],
					"anonymous": false
				},
				{
					"type": "event",
					"name": "OwnershipTransferred",
					"inputs": [
						{
							"name": "previousOwner",
							"type": "address",
							"indexed": true,
							"internalType": "address"
						},
						{
							"name": "newOwner",
							"type": "address",
							"indexed": true,
							"internalType": "address"
						}
					],
					"anonymous": false
				},
				{
					"type": "event",
					"name": "SetProductName",
					"inputs": [
						{
							"name": "upc",
							"type": "uint256",
							"indexed": true,
							"internalType": "uint256"
						},
						{
							"name": "name",
							"type": "string",
							"indexed": false,
							"internalType": "string"
						},
						{
							"name": "caller",
							"type": "address",
							"indexed": false,
							"internalType": "address"
						}
					],
					"anonymous": false
				},
				{
					"type": "event",
					"name": "SetSvgBaseUri",
					"inputs": [
						{
							"name": "baseUri",
							"type": "string",
							"indexed": false,
							"internalType": "string"
						},
						{
							"name": "caller",
							"type": "address",
							"indexed": false,
							"internalType": "address"
						}
					],
					"anonymous": false
				},
				{
					"type": "event",
					"name": "SetSvgContent",
					"inputs": [
						{
							"name": "upc",
							"type": "uint256",
							"indexed": true,
							"internalType": "uint256"
						},
						{
							"name": "svgContent",
							"type": "string",
							"indexed": false,
							"internalType": "string"
						},
						{
							"name": "caller",
							"type": "address",
							"indexed": false,
							"internalType": "address"
						}
					],
					"anonymous": false
				},
				{
					"type": "event",
					"name": "SetSvgHash",
					"inputs": [
						{
							"name": "upc",
							"type": "uint256",
							"indexed": true,
							"internalType": "uint256"
						},
						{
							"name": "svgHash",
							"type": "bytes32",
							"indexed": true,
							"internalType": "bytes32"
						},
						{
							"name": "caller",
							"type": "address",
							"indexed": false,
							"internalType": "address"
						}
					],
					"anonymous": false
				},
				{
					"type": "error",
					"name": "ASSET_IS_ALREADY_BEING_WORN",
					"inputs": []
				},
				{
					"type": "error",
					"name": "CONTENTS_ALREADY_STORED",
					"inputs": []
				},
				{
					"type": "error",
					"name": "CONTENTS_MISMATCH",
					"inputs": []
				},
				{
					"type": "error",
					"name": "HASH_ALREADY_STORED",
					"inputs": []
				},
				{
					"type": "error",
					"name": "HASH_NOT_FOUND",
					"inputs": []
				},
				{
					"type": "error",
					"name": "HEAD_ALREADY_ADDED",
					"inputs": []
				},
				{
					"type": "error",
					"name": "OwnableInvalidOwner",
					"inputs": [
						{
							"name": "owner",
							"type": "address",
							"internalType": "address"
						}
					]
				},
				{
					"type": "error",
					"name": "OwnableUnauthorizedAccount",
					"inputs": [
						{
							"name": "account",
							"type": "address",
							"internalType": "address"
						}
					]
				},
				{
					"type": "error",
					"name": "SUIT_ALREADY_ADDED",
					"inputs": []
				},
				{
					"type": "error",
					"name": "UNAUTHORIZED_NAKED_BANNY",
					"inputs": []
				},
				{
					"type": "error",
					"name": "UNAUTHORIZED_OUTFIT",
					"inputs": []
				},
				{
					"type": "error",
					"name": "UNAUTHORIZED_WORLD",
					"inputs": []
				},
				{
					"type": "error",
					"name": "UNORDERED_CATEGORIES",
					"inputs": []
				},
				{
					"type": "error",
					"name": "UNRECOGNIZED_CATEGORY",
					"inputs": []
				},
				{
					"type": "error",
					"name": "UNRECOGNIZED_OUTFIT",
					"inputs": []
				},
				{
					"type": "error",
					"name": "UNRECOGNIZED_PRODUCT",
					"inputs": []
				},
				{
					"type": "error",
					"name": "UNRECOGNIZED_WORLD",
					"inputs": []
				}
			],
			"solcInputHash": "33807af44ae0a1bec47cee50fa192d8d",
			"receipt": {
				"blockHash": "0x9df6e9ab62d17262cad1f3c04a9a1c92f091089f740dfd81c02384bcf530e95f",
				"blockNumber": 8989504,
				"contractAddress": null,
				"cumulativeGasUsed": "11174319",
				"from": "0xC034550B542b83BA1De312b21d1C94a9a52B1595",
				"gasPrice": "1000272",
				"gasUsed": "10957712",
				"hash": "0xfd25c7a21f5504d1f7d799978d7d6b3f1060e379ccd24edd216f015e0f04b018",
				"index": 9,
				"logs": [
					{
						"address": "0xB5E96127D417b1B3ef8438496a38A143167209c7",
						"blockHash": "0x9df6e9ab62d17262cad1f3c04a9a1c92f091089f740dfd81c02384bcf530e95f",
						"blockNumber": 8989504,
						"data": "0x0000000000000000000000000000000000000000000000000000000000000000",
						"index": 0,
						"topics": [
							"0x572f161235911da04685a68c06adf558fc7e4a36909dca394650e0adc19cc93d",
							"0x000000000000000000000000c034550b542b83ba1de312b21d1c94a9a52b1595",
							"0x000000000000000000000000183b35e76a7bc60298dcb637515f50e4def9b68b",
							"0xaa8aa6dd36685558b3022752e737f4690ee607d6c4bbb1569bd18c85e38e6406"
						],
						"transactionHash": "0xfd25c7a21f5504d1f7d799978d7d6b3f1060e379ccd24edd216f015e0f04b018",
						"transactionIndex": 9
					},
					{
						"address": "0xA14fe719C2fC8afC0b19EFC6C7d42850F65cca7b",
						"blockHash": "0x9df6e9ab62d17262cad1f3c04a9a1c92f091089f740dfd81c02384bcf530e95f",
						"blockNumber": 8989504,
						"data": "0x",
						"index": 1,
						"topics": [
							"0x8be0079c531659141344cd1fd0a4f28419497f9722a3daafe3b4186f6b6457e0",
							"0x0000000000000000000000000000000000000000000000000000000000000000",
							"0x000000000000000000000000584f5da53cb18789099466074e3b5c32ed17243a"
						],
						"transactionHash": "0xfd25c7a21f5504d1f7d799978d7d6b3f1060e379ccd24edd216f015e0f04b018",
						"transactionIndex": 9
					},
					{
						"address": "0x584F5Da53cb18789099466074e3B5c32Ed17243a",
						"blockHash": "0x9df6e9ab62d17262cad1f3c04a9a1c92f091089f740dfd81c02384bcf530e95f",
						"blockNumber": 8989504,
						"data": "0x",
						"index": 2,
						"topics": [
							"0x6895c13664aa4f67288b25d7a21d7aaa34916e355fb9b6fae0a139a9085becb8",
							"0x000000000000000000000000183b35e76a7bc60298dcb637515f50e4def9b68b"
						],
						"transactionHash": "0xfd25c7a21f5504d1f7d799978d7d6b3f1060e379ccd24edd216f015e0f04b018",
						"transactionIndex": 9
					},
					{
						"address": "0x183b35E76A7BC60298DCb637515F50e4DeF9b68b",
						"blockHash": "0x9df6e9ab62d17262cad1f3c04a9a1c92f091089f740dfd81c02384bcf530e95f",
						"blockNumber": 8989504,
						"data": "0x0000000000000000000000000000000000000000000000000000000000000001",
						"index": 3,
						"topics": [
							"0xa65fb05c5808f5f389d72edeaf719ce38f4cc55c1f69ca3cbfb31c21501caa07",
							"0xf71552bd89126626cc9a8b322587d1495e44702402cb10696fbdb74f33444828"
						],
						"transactionHash": "0xfd25c7a21f5504d1f7d799978d7d6b3f1060e379ccd24edd216f015e0f04b018",
						"transactionIndex": 9
					},
					{
						"address": "0x07Eb010d960116898DEFD71F11b965fe29C3D65c",
						"blockHash": "0x9df6e9ab62d17262cad1f3c04a9a1c92f091089f740dfd81c02384bcf530e95f",
						"blockNumber": 8989504,
						"data": "0x",
						"index": 4,
						"topics": [
							"0x8be0079c531659141344cd1fd0a4f28419497f9722a3daafe3b4186f6b6457e0",
							"0x0000000000000000000000000000000000000000000000000000000000000000",
							"0x000000000000000000000000d3838b2875a06e61befc3679ee2c8d88d61067dc"
						],
						"transactionHash": "0xfd25c7a21f5504d1f7d799978d7d6b3f1060e379ccd24edd216f015e0f04b018",
						"transactionIndex": 9
					},
					{
						"address": "0x07Eb010d960116898DEFD71F11b965fe29C3D65c",
						"blockHash": "0x9df6e9ab62d17262cad1f3c04a9a1c92f091089f740dfd81c02384bcf530e95f",
						"blockNumber": 8989504,
						"data": "0x",
						"index": 5,
						"topics": [
							"0x8be0079c531659141344cd1fd0a4f28419497f9722a3daafe3b4186f6b6457e0",
							"0x000000000000000000000000d3838b2875a06e61befc3679ee2c8d88d61067dc",
							"0x00000000000000000000000081e3b9447f99aac78810a13075bdbb3d347f9515"
						],
						"transactionHash": "0xfd25c7a21f5504d1f7d799978d7d6b3f1060e379ccd24edd216f015e0f04b018",
						"transactionIndex": 9
					},
					{
						"address": "0x989566Bf9fF4CffA55a98ADa7dc3E58b2a0a19c6",
						"blockHash": "0x9df6e9ab62d17262cad1f3c04a9a1c92f091089f740dfd81c02384bcf530e95f",
						"blockNumber": 8989504,
						"data": "0x",
						"index": 6,
						"topics": [
							"0x72b627b4904fa8a0160a923aa5b142eb19f6e56dc75017884162206f8886df09",
							"0x00000000000000000000000007eb010d960116898defd71f11b965fe29c3d65c",
							"0x000000000000000000000000d3838b2875a06e61befc3679ee2c8d88d61067dc"
						],
						"transactionHash": "0xfd25c7a21f5504d1f7d799978d7d6b3f1060e379ccd24edd216f015e0f04b018",
						"transactionIndex": 9
					},
					{
						"address": "0xd3838B2875a06E61bEfc3679Ee2C8d88D61067dC",
						"blockHash": "0x9df6e9ab62d17262cad1f3c04a9a1c92f091089f740dfd81c02384bcf530e95f",
						"blockNumber": 8989504,
						"data": "0x00000000000000000000000007eb010d960116898defd71f11b965fe29c3d65c",
						"index": 7,
						"topics": [
							"0xa42f6bb68e81f4650a7966f109d861f6c3d2a477e608e30807f568bed1cebdb9",
							"0x0000000000000000000000000000000000000000000000000000000000000002"
						],
						"transactionHash": "0xfd25c7a21f5504d1f7d799978d7d6b3f1060e379ccd24edd216f015e0f04b018",
						"transactionIndex": 9
					},
					{
						"address": "0xf9dadA4628Eb3992202CF253625d4ECebBC1592f",
						"blockHash": "0x9df6e9ab62d17262cad1f3c04a9a1c92f091089f740dfd81c02384bcf530e95f",
						"blockNumber": 8989504,
						"data": "0x",
						"index": 8,
						"topics": [
							"0xddf252ad1be2c89b69c2b068fc378daa952ba7f163c4a11628f55a4df523b3ef",
							"0x0000000000000000000000000000000000000000000000000000000000000000",
							"0x00000000000000000000000081e3b9447f99aac78810a13075bdbb3d347f9515",
							"0x0000000000000000000000000000000000000000000000000000000000000002"
						],
						"transactionHash": "0xfd25c7a21f5504d1f7d799978d7d6b3f1060e379ccd24edd216f015e0f04b018",
						"transactionIndex": 9
					},
					{
						"address": "0xf9dadA4628Eb3992202CF253625d4ECebBC1592f",
						"blockHash": "0x9df6e9ab62d17262cad1f3c04a9a1c92f091089f740dfd81c02384bcf530e95f",
						"blockNumber": 8989504,
						"data": "0x000000000000000000000000799d42391ed21894b105590300eed66255d72225",
						"index": 9,
						"topics": [
							"0x365b3162cd780731fc55a794b59494d472bc2af701007f581843a70673814698",
							"0x0000000000000000000000000000000000000000000000000000000000000002",
							"0x00000000000000000000000081e3b9447f99aac78810a13075bdbb3d347f9515"
						],
						"transactionHash": "0xfd25c7a21f5504d1f7d799978d7d6b3f1060e379ccd24edd216f015e0f04b018",
						"transactionIndex": 9
					},
					{
						"address": "0xCD8c4da77dfb15C05486D3F71Ee4C2C0dfdbc94e",
						"blockHash": "0x9df6e9ab62d17262cad1f3c04a9a1c92f091089f740dfd81c02384bcf530e95f",
						"blockNumber": 8989504,
						"data": "0x000000000000000000000000799d42391ed21894b105590300eed66255d72225",
						"index": 10,
						"topics": [
							"0x7f9a7dcb234c909a09de2f344661ad9e5b24067adb97c908647c2edcbb121c30",
							"0x0000000000000000000000000000000000000000000000000000000000000002",
							"0x000000000000000000000000799d42391ed21894b105590300eed66255d72225"
						],
						"transactionHash": "0xfd25c7a21f5504d1f7d799978d7d6b3f1060e379ccd24edd216f015e0f04b018",
						"transactionIndex": 9
					},
					{
						"address": "0x077044a51C5481544Acf8BCB654f68E13F167B9f",
						"blockHash": "0x9df6e9ab62d17262cad1f3c04a9a1c92f091089f740dfd81c02384bcf530e95f",
						"blockNumber": 8989504,
						"data": "0x",
						"index": 11,
						"topics": [
							"0xfda207e5d149787155cf9596283f246f082d4744a57e37dda99146e5dcc542bb",
							"0x000000000000000000000000000000000000000000000000000000006625b560",
							"0x0000000000000000000000000000000000000000000000000000000000000002",
							"0x0000000000000000000000000000000000000000000000000000000000000000"
						],
						"transactionHash": "0xfd25c7a21f5504d1f7d799978d7d6b3f1060e379ccd24edd216f015e0f04b018",
						"transactionIndex": 9
					},
					{
						"address": "0x077044a51C5481544Acf8BCB654f68E13F167B9f",
						"blockHash": "0x9df6e9ab62d17262cad1f3c04a9a1c92f091089f740dfd81c02384bcf530e95f",
						"blockNumber": 8989504,
						"data": "0x000000000000000000000000000000000000000000000000000000000001518000000000000000000000000000000000000000000000d3c21bcecceda10000000000000000000000000000000000000000000000000000000000000002faf0800000000000000000000000000000000000000000000000000000000000000000000040f1dca23fccd563c40850983adedd9e9a3fca8aa040000eeee1f40138810000000000000000000000000000000000000000000000000000000065f9e319000000000000000000000000799d42391ed21894b105590300eed66255d72225",
						"index": 12,
						"topics": [
							"0x11a490bebff1beffe4bdd210894aca6ea5049427ce4b3c48865717677199cb07",
							"0x000000000000000000000000000000000000000000000000000000006625b560",
							"0x0000000000000000000000000000000000000000000000000000000000000002"
						],
						"transactionHash": "0xfd25c7a21f5504d1f7d799978d7d6b3f1060e379ccd24edd216f015e0f04b018",
						"transactionIndex": 9
					},
					{
						"address": "0x077044a51C5481544Acf8BCB654f68E13F167B9f",
						"blockHash": "0x9df6e9ab62d17262cad1f3c04a9a1c92f091089f740dfd81c02384bcf530e95f",
						"blockNumber": 8989504,
						"data": "0x",
						"index": 13,
						"topics": [
							"0xfda207e5d149787155cf9596283f246f082d4744a57e37dda99146e5dcc542bb",
							"0x000000000000000000000000000000000000000000000000000000006625b561",
							"0x0000000000000000000000000000000000000000000000000000000000000002",
							"0x000000000000000000000000000000000000000000000000000000006625b560"
						],
						"transactionHash": "0xfd25c7a21f5504d1f7d799978d7d6b3f1060e379ccd24edd216f015e0f04b018",
						"transactionIndex": 9
					},
					{
						"address": "0x077044a51C5481544Acf8BCB654f68E13F167B9f",
						"blockHash": "0x9df6e9ab62d17262cad1f3c04a9a1c92f091089f740dfd81c02384bcf530e95f",
						"blockNumber": 8989504,
						"data": "0x0000000000000000000000000000000000000000000000000000000000093a8000000000000000000000000000000000000000000000152d02c7e14af680000000000000000000000000000000000000000000000000000000000000000096800000000000000000000000000000000000000000000000000000000000000000000040f1dca23fccd563c40850983adedd9e9a3fca8aa040000eeee13881388100000000000000000000000000000000000000000000000000000000661ecd19000000000000000000000000799d42391ed21894b105590300eed66255d72225",
						"index": 14,
						"topics": [
							"0x11a490bebff1beffe4bdd210894aca6ea5049427ce4b3c48865717677199cb07",
							"0x000000000000000000000000000000000000000000000000000000006625b561",
							"0x0000000000000000000000000000000000000000000000000000000000000002"
						],
						"transactionHash": "0xfd25c7a21f5504d1f7d799978d7d6b3f1060e379ccd24edd216f015e0f04b018",
						"transactionIndex": 9
					},
					{
						"address": "0x966Ff291e13C5f8901a9ae5776813B89d772fDB9",
						"blockHash": "0x9df6e9ab62d17262cad1f3c04a9a1c92f091089f740dfd81c02384bcf530e95f",
						"blockNumber": 8989504,
						"data": "0x000000000000000000000000000000000000000000000000000000000000eeee0000000000000000000000000000000000000000000000000000000000000012000000000000000000000000000000000000000000000000000000000000eeee000000000000000000000000799d42391ed21894b105590300eed66255d72225",
						"index": 15,
						"topics": [
							"0x9570de6fc0456f642bd0a001b24cd31676388c24596df64a17190c24310690a1",
							"0x0000000000000000000000000000000000000000000000000000000000000002",
							"0x000000000000000000000000000000000000000000000000000000000000eeee"
						],
						"transactionHash": "0xfd25c7a21f5504d1f7d799978d7d6b3f1060e379ccd24edd216f015e0f04b018",
						"transactionIndex": 9
					},
					{
						"address": "0xCD8c4da77dfb15C05486D3F71Ee4C2C0dfdbc94e",
						"blockHash": "0x9df6e9ab62d17262cad1f3c04a9a1c92f091089f740dfd81c02384bcf530e95f",
						"blockNumber": 8989504,
						"data": "0x0000000000000000000000000000000000000000000000000000000000000040000000000000000000000000799d42391ed21894b105590300eed66255d722250000000000000000000000000000000000000000000000000000000000000001000000000000000000000000966ff291e13c5f8901a9ae5776813b89d772fdb9",
						"index": 16,
						"topics": [
							"0xb648241d83df6540fc10f2acc641e4bf80a1e84e7ae2f1f6b0ad204b8fee635b",
							"0x0000000000000000000000000000000000000000000000000000000000000002"
						],
						"transactionHash": "0xfd25c7a21f5504d1f7d799978d7d6b3f1060e379ccd24edd216f015e0f04b018",
						"transactionIndex": 9
					},
					{
						"address": "0x799D42391ed21894b105590300EEd66255d72225",
						"blockHash": "0x9df6e9ab62d17262cad1f3c04a9a1c92f091089f740dfd81c02384bcf530e95f",
						"blockNumber": 8989504,
						"data": "0x000000000000000000000000000000000000000000000000000000006625b561000000000000000000000000000000000000000000000000000000000000000200000000000000000000000000000000000000000000000000000000000000a000000000000000000000000000000000000000000000000000000000000000c000000000000000000000000081e3b9447f99aac78810a13075bdbb3d347f9515000000000000000000000000000000000000000000000000000000000000000000000000000000000000000000000000000000000000000000000000000000162442414e4e59207265766e6574206465706c6f79656400000000000000000000",
						"index": 17,
						"topics": [
							"0x8dac501f24f52bda9ebdfa6a1789878c1d1e23823c771f7d52b5ba41261b0f45"
						],
						"transactionHash": "0xfd25c7a21f5504d1f7d799978d7d6b3f1060e379ccd24edd216f015e0f04b018",
						"transactionIndex": 9
					},
					{
						"address": "0xd9843EC7bC4d32C14ff32B6bBAAe559708f7108C",
						"blockHash": "0x9df6e9ab62d17262cad1f3c04a9a1c92f091089f740dfd81c02384bcf530e95f",
						"blockNumber": 8989504,
						"data": "0x",
						"index": 18,
						"topics": [
							"0x8be0079c531659141344cd1fd0a4f28419497f9722a3daafe3b4186f6b6457e0",
							"0x0000000000000000000000000000000000000000000000000000000000000000",
							"0x000000000000000000000000792b79adb4aa06eddabd6ddef5ee06dcb946f436"
						],
						"transactionHash": "0xfd25c7a21f5504d1f7d799978d7d6b3f1060e379ccd24edd216f015e0f04b018",
						"transactionIndex": 9
					},
					{
						"address": "0x792b79adb4Aa06edDabd6ddef5EE06dCb946F436",
						"blockHash": "0x9df6e9ab62d17262cad1f3c04a9a1c92f091089f740dfd81c02384bcf530e95f",
						"blockNumber": 8989504,
						"data": "0x000000000000000000000000000000000000000000000000000000000000008000000000000000000000000000000000000000000000000000000000000000c030b2ce5a3f94d4707f540f6fbecc732ed1e75136d453875024efb603545adf08000000000000000000000000799d42391ed21894b105590300eed66255d72225000000000000000000000000000000000000000000000000000000000000000a42616e6e79766572736500000000000000000000000000000000000000000000000000000000000000000000000000000000000000000000000000000000000542414e4e59000000000000000000000000000000000000000000000000000000",
						"index": 19,
						"topics": [
							"0xb4510654a5884cae50948507300dc482833ed1446cef375e064bef00b6b4ba4e",
							"0x0000000000000000000000000000000000000000000000000000000000000002",
							"0x000000000000000000000000d9843ec7bc4d32c14ff32b6bbaae559708f7108c"
						],
						"transactionHash": "0xfd25c7a21f5504d1f7d799978d7d6b3f1060e379ccd24edd216f015e0f04b018",
						"transactionIndex": 9
					},
					{
						"address": "0x26FeC21A65ccCDb877A4b355bb9eBc0360C3D84E",
						"blockHash": "0x9df6e9ab62d17262cad1f3c04a9a1c92f091089f740dfd81c02384bcf530e95f",
						"blockNumber": 8989504,
						"data": "0x0000000000000000000000000000000000000000000000000000000000000000000000000000000000000000000000000000000000000000000000000002a30000000000000000000000000081e3b9447f99aac78810a13075bdbb3d347f9515",
						"index": 20,
						"topics": [
							"0xa8d6b20cd05f07d50e9855ce0fc6de3517f3df2e890a5ec6357892b3808a53ce",
							"0x0000000000000000000000000000000000000000000000000000000000000002"
						],
						"transactionHash": "0xfd25c7a21f5504d1f7d799978d7d6b3f1060e379ccd24edd216f015e0f04b018",
						"transactionIndex": 9
					},
					{
						"address": "0x26FeC21A65ccCDb877A4b355bb9eBc0360C3D84E",
						"blockHash": "0x9df6e9ab62d17262cad1f3c04a9a1c92f091089f740dfd81c02384bcf530e95f",
						"blockNumber": 8989504,
						"data": "0x0000000000000000000000000000000000000000000000000000000000000000000000000000000000000000000000000000000000000000000000000000232800000000000000000000000081e3b9447f99aac78810a13075bdbb3d347f9515",
						"index": 21,
						"topics": [
							"0xaafe2470cbfb11a09f9b45d6a795226e93cc251e30fdcabddbabb157a1db5353",
							"0x0000000000000000000000000000000000000000000000000000000000000002"
						],
						"transactionHash": "0xfd25c7a21f5504d1f7d799978d7d6b3f1060e379ccd24edd216f015e0f04b018",
						"transactionIndex": 9
					},
					{
						"address": "0x26FeC21A65ccCDb877A4b355bb9eBc0360C3D84E",
						"blockHash": "0x9df6e9ab62d17262cad1f3c04a9a1c92f091089f740dfd81c02384bcf530e95f",
						"blockNumber": 8989504,
						"data": "0x00000000000000000000000083d4a37c653ac34e2db7646554cfd712c72f2e6700000000000000000000000081e3b9447f99aac78810a13075bdbb3d347f9515",
						"index": 22,
						"topics": [
							"0xe694de883385e30d535f625d68df4b2b5e866e8e86fe9d15554480c8d1812e60",
							"0x0000000000000000000000000000000000000000000000000000000000000002",
							"0x0000000000000000000000004200000000000000000000000000000000000006"
						],
						"transactionHash": "0xfd25c7a21f5504d1f7d799978d7d6b3f1060e379ccd24edd216f015e0f04b018",
						"transactionIndex": 9
					},
					{
						"address": "0xf271e7329eD20B9b61BD5A13593e1F5bB6098644",
						"blockHash": "0x9df6e9ab62d17262cad1f3c04a9a1c92f091089f740dfd81c02384bcf530e95f",
						"blockNumber": 8989504,
						"data": "0x0000000000000000000000000000000000000000000000000000000000000000000000000000000000000000000000000000000000000000000000003b9aca000000000000000000000000000000000000000000000000000000000000000000000000000000000000000000584f5da53cb18789099466074e3b5c32ed17243a00000000000000000000000000000000000000000000000000000000000000000000000000000000000000000000000000000000000000000000000000000000000000000000000000000000799d42391ed21894b105590300eed66255d72225",
						"index": 23,
						"topics": [
							"0x0d7ea8ac1cb69dfa18ce2b18e90d31b4d4a0370aacadf7db42d42930a09b3f01",
							"0x0000000000000000000000000000000000000000000000000000000000000002",
							"0x0000000000000000000000000000000000000000000000000000000000000000",
							"0x0000000000000000000000000000000000000000000000000000000000000001"
						],
						"transactionHash": "0xfd25c7a21f5504d1f7d799978d7d6b3f1060e379ccd24edd216f015e0f04b018",
						"transactionIndex": 9
					},
					{
						"address": "0x1e2E8562b635fe19978640C784e47865A83d6605",
						"blockHash": "0x9df6e9ab62d17262cad1f3c04a9a1c92f091089f740dfd81c02384bcf530e95f",
						"blockNumber": 8989504,
						"data": "0x00000000000000000000000000000000000000000000000000000000000000600000000000000000000000000000000000000000000000000000000002e2004000000000000000000000000081e3b9447f99aac78810a13075bdbb3d347f95150000000000000000000000000000000000000000000000000000000000000006000000000000000000000000000000000000000000000000000000000000001100000000000000000000000000000000000000000000000000000000000000190000000000000000000000000000000000000000000000000000000000000006000000000000000000000000000000000000000000000000000000000000001500000000000000000000000000000000000000000000000000000000000000160000000000000000000000000000000000000000000000000000000000000017",
						"index": 24,
						"topics": [
							"0xf8cdf10a0ce6189c6d069e97320ef146e2bcbd32d6c0b86dcbfbf3bd8578fa70",
							"0x000000000000000000000000584f5da53cb18789099466074e3b5c32ed17243a",
							"0x00000000000000000000000081e3b9447f99aac78810a13075bdbb3d347f9515",
							"0x0000000000000000000000000000000000000000000000000000000000000002"
						],
						"transactionHash": "0xfd25c7a21f5504d1f7d799978d7d6b3f1060e379ccd24edd216f015e0f04b018",
						"transactionIndex": 9
					},
					{
						"address": "0x1e2E8562b635fe19978640C784e47865A83d6605",
						"blockHash": "0x9df6e9ab62d17262cad1f3c04a9a1c92f091089f740dfd81c02384bcf530e95f",
						"blockNumber": 8989504,
						"data": "0x0000000000000000000000000000000000000000000000000000000000000060000000000000000000000000000000000000000000000000000000001000000000000000000000000000000081e3b9447f99aac78810a13075bdbb3d347f95150000000000000000000000000000000000000000000000000000000000000001000000000000000000000000000000000000000000000000000000000000001c",
						"index": 25,
						"topics": [
							"0xf8cdf10a0ce6189c6d069e97320ef146e2bcbd32d6c0b86dcbfbf3bd8578fa70",
							"0x0000000000000000000000003f209ab51b59bc6c2c9c2f2147d3d51e29a862d7",
							"0x00000000000000000000000081e3b9447f99aac78810a13075bdbb3d347f9515",
							"0x0000000000000000000000000000000000000000000000000000000000000002"
						],
						"transactionHash": "0xfd25c7a21f5504d1f7d799978d7d6b3f1060e379ccd24edd216f015e0f04b018",
						"transactionIndex": 9
					},
					{
						"address": "0x3F209aB51b59Bc6C2c9C2f2147d3d51E29A862d7",
						"blockHash": "0x9df6e9ab62d17262cad1f3c04a9a1c92f091089f740dfd81c02384bcf530e95f",
						"blockNumber": 8989504,
						"data": "0x0000000000000000000000000000000000000000000000000000000000000002000000000000000000000000000000000000000000000000000000000000004000000000000000000000000000000000000000000000000000000000000000010000000000000000000000002c846087deb8cb3cdabf7319c70119732330c337",
						"index": 26,
						"topics": [
							"0xd982fdd7a5657847f0905ad1aff9ab6105d1ff64590493b3486837504dafe55a"
						],
						"transactionHash": "0xfd25c7a21f5504d1f7d799978d7d6b3f1060e379ccd24edd216f015e0f04b018",
						"transactionIndex": 9
					},
					{
						"address": "0x81e3b9447F99aac78810A13075BdBB3D347F9515",
						"blockHash": "0x9df6e9ab62d17262cad1f3c04a9a1c92f091089f740dfd81c02384bcf530e95f",
						"blockNumber": 8989504,
						"data": "0x000000000000000000000000000000000000000000000000000000000000010000000000000000000000000000000000000000000000000000000000000004800000000000000000000000000000000000000000000000000000000000000540000000000000000000000000000000000000000000000000000000000000062000000000000000000000000000000000000000000000000000000000000007800000000000000000000000000000000000000000000000000000000000000e200000000000000000000000000000000000000000000000000000000000000001000000000000000000000000584f5da53cb18789099466074e3b5c32ed17243a00000000000000000000000000000000000000000000000000000000000000c0000000000000000000000000000000000000000000000000000000000000eeee000000000000000000000000000000000000000000422ca8b0a00a42500000000000000000000000000000000000000000000000000000000000000000000001000000000000000000000000584f5da53cb18789099466074e3b5c32ed17243a00000000000000000000000000000000000000000000000000000000000001e0000000000000000000000000000000000000000000000000000000000000008000000000000000000000000000000000000000000000000000000000000000c0000000000000000000000000000000000000000000000000000000000000010042414e4e595f3200000000000000000000000000000000000000000000000000000000000000000000000000000000000000000000000000000000000000000a42616e6e79766572736500000000000000000000000000000000000000000000000000000000000000000000000000000000000000000000000000000000000542414e4e59000000000000000000000000000000000000000000000000000000000000000000000000000000000000000000000000000000000000000000000000000000000000000000000000000000000000000000000000000000000000020000000000000000000000000000000000000000000000000000000065f9e319000000000000000000000000000000000000000000000000000000000000138800000000000000000000000000000000000000000000d3c21bcecceda100000000000000000000000000000000000000000000000000000000000000000151800000000000000000000000000000000000000000000000000000000002faf08000000000000000000000000000000000000000000000000000000000000007d000000000000000000000000000000000000000000000000000000000661ecd19000000000000000000000000000000000000000000000000000000000000138800000000000000000000000000000000000000000000152d02c7e14af68000000000000000000000000000000000000000000000000000000000000000093a800000000000000000000000000000000000000000000000000000000000009680000000000000000000000000000000000000000000000000000000000000138800000000000000000000000000000000000000000000000000000000000000010000000000000000000000000000000000000000000000000000000000000020000000000000000000000000966ff291e13c5f8901a9ae5776813b89d772fdb900000000000000000000000000000000000000000000000000000000000000400000000000000000000000000000000000000000000000000000000000000001000000000000000000000000000000000000000000000000000000000000eeee00000000000000000000000026fec21a65cccdb877a4b355bb9ebc0360c3d84e00000000000000000000000000000000000000000000000000000000000000400000000000000000000000000000000000000000000000000000000000000001000000000000000000000000000000000000000000000000000000000000eeee0000000000000000000000000000000000000000000000000000000000002710000000000000000000000000000000000000000000000000000000000002a3000000000000000000000000000000000000000000000000000000000000002328000000000000000000000000000000000000000000000000000000000000004042414e4e595f32000000000000000000000000000000000000000000000000000000000000000000000000000000000000000000000000000000000000000001000000000000000000000000000000000000000000000000000000000000002000000000000000000000000028974ffdc4b5fb12c65da1fcf83fc9b3b9d2793a00000000000000000000000000000000000000000000000000000000000000400000000000000000000000000000000000000000000000000000000000000001000000000000000000000000000000000000000000000000000000000000eeee0000000000000000000000000000000000000000000000000000000000030d40000000000000000000000000000000000000000000000000000000000000eeee000000000000000000000000000000000000000000000000002386f26fc100000000000000000000000000000000000000000000000000000000000000000002000000000000000000000000000000000000000000000000000000000000004000000000000000000000000000000000000000000000000000000000000003600000000000000000000000000000000000000000000000000000000065f9e319000000000000000000000000000000000000000000000000000000000001518000000000000000000000000000000000000000000000d3c21bcecceda10000000000000000000000000000000000000000000000000000000000000002faf080000000000000000000000000000000000000000000000000000000000000000000000000000000000000000000000000000000000000000000000000000013880000000000000000000000000000000000000000000000000000000000001f40000000000000000000000000000000000000000000000000000000000000eeee0000000000000000000000000000000000000000000000000000000000000000000000000000000000000000000000000000000000000000000000000000000000000000000000000000000000000000000000000000000000000000000000010000000000000000000000000000000000000000000000000000000000000000000000000000000000000000000000000000000000000000000000000000000000000000000000000000000000000000000000000000000000000000000000000000000000000000000000000000000000000000000000000000000000000000000000000000000000000000000000000000000000000000000000000000000000000000000000000000000000000000000000000000000000000000000000000000000000000000000000000000000000000000000000000000000000000001000000000000000000000000000000000000000000000000000000000000000000000000000000000000000081e3b9447f99aac78810a13075bdbb3d347f9515000000000000000000000000000000000000000000000000000000000000000000000000000000000000000000000000000000000000000000000000000002e000000000000000000000000000000000000000000000000000000000000003000000000000000000000000000000000000000000000000000000000000000000000000000000000000000000000000000000000000000000000000000000000000000000000000000000000000000000000000000000000000000000661ecd190000000000000000000000000000000000000000000000000000000000093a8000000000000000000000000000000000000000000000152d02c7e14af68000000000000000000000000000000000000000000000000000000000000000009680000000000000000000000000000000000000000000000000000000000000000000000000000000000000000000000000000000000000000000000000000013880000000000000000000000000000000000000000000000000000000000001388000000000000000000000000000000000000000000000000000000000000eeee0000000000000000000000000000000000000000000000000000000000000000000000000000000000000000000000000000000000000000000000000000000000000000000000000000000000000000000000000000000000000000000000010000000000000000000000000000000000000000000000000000000000000000000000000000000000000000000000000000000000000000000000000000000000000000000000000000000000000000000000000000000000000000000000000000000000000000000000000000000000000000000000000000000000000000000000000000000000000000000000000000000000000000000000000000000000000000000000000000000000000000000000000000000000000000000000000000000000000000000000000000000000000000000000000000000000000001000000000000000000000000000000000000000000000000000000000000000000000000000000000000000081e3b9447f99aac78810a13075bdbb3d347f9515000000000000000000000000000000000000000000000000000000000000000000000000000000000000000000000000000000000000000000000000000002e000000000000000000000000000000000000000000000000000000000000003000000000000000000000000000000000000000000000000000000000000000000000000000000000000000000000000000000000000000000000000000000000000000000000000000000000000000000000000000000000000000000000002a0000000000000000000000000000000000000000000000000000000000000eeee000000000000000000000000000000000000000000000000000000000000000100000000000000000000000000000000000000000000000000000000000000a000000000000000000000000000000000000000000000000000000000000000e042414e4e595f3200000000000000000000000000000000000000000000000000000000000000000000000000000000000000000000000000000000000000000a42616e6e79766572736500000000000000000000000000000000000000000000000000000000000000000000000000000000000000000000000000000000000542414e4e590000000000000000000000000000000000000000000000000000000000000000000000000000000000000000000000000000000000000065f9e319000000000000000000000000000000000000000000000000000000000000138800000000000000000000000000000000000000000000d3c21bcecceda100000000000000000000000000000000000000000000000000000000000000000151800000000000000000000000000000000000000000000000000000000002faf08000000000000000000000000000000000000000000000000000000000000007d000000000000000000000000000000000000000000000000000000000661ecd19000000000000000000000000000000000000000000000000000000000000138800000000000000000000000000000000000000000000152d02c7e14af68000000000000000000000000000000000000000000000000000000000000000093a8000000000000000000000000000000000000000000000000000000000000096800000000000000000000000000000000000000000000000000000000000001388",
						"index": 27,
						"topics": [
							"0x4b827371715024f69a0bc98c8df6edafe6e471e78488ab1b3849de72f66b12e0",
							"0x0000000000000000000000000000000000000000000000000000000000000002"
						],
						"transactionHash": "0xfd25c7a21f5504d1f7d799978d7d6b3f1060e379ccd24edd216f015e0f04b018",
						"transactionIndex": 9
					},
					{
						"address": "0x81e3b9447F99aac78810A13075BdBB3D347F9515",
						"blockHash": "0x9df6e9ab62d17262cad1f3c04a9a1c92f091089f740dfd81c02384bcf530e95f",
						"blockNumber": 8989504,
						"data": "0x0000000000000000000000000000000000000000000000000000000000000040000000000000000000000000584f5da53cb18789099466074e3b5c32ed17243a0000000000000000000000000000000000000000000000000000000000000001000000000000000000000000000000000000000000000000000000000000002000000000000000000000000007eb010d960116898defd71f11b965fe29c3d65c000000000000000000000000000000000000000000000000000000000000000000000000000000000000000000000000000000000000000000000000000000600000000000000000000000000000000000000000000000000000000000000000",
						"index": 28,
						"topics": [
							"0xdfaf2737f25eace49d372b472ec03f1df0f9814dfc69d2b95c5e92a041f42e29",
							"0x0000000000000000000000000000000000000000000000000000000000000002"
						],
						"transactionHash": "0xfd25c7a21f5504d1f7d799978d7d6b3f1060e379ccd24edd216f015e0f04b018",
						"transactionIndex": 9
					},
					{
						"address": "0x2B4853136aB24f8eB08d9E1cb536B43f48503801",
						"blockHash": "0x9df6e9ab62d17262cad1f3c04a9a1c92f091089f740dfd81c02384bcf530e95f",
						"blockNumber": 8989504,
						"data": "0x000000000000000000000000000000000000000000000000000000000000004000000000000000000000000081e3b9447f99aac78810a13075bdbb3d347f95150000000000000000000000000000000000000000000000000000000000000004000000000000000000000000000000000000000000000000000000000000008000000000000000000000000000000000000000000000000000000000000001600000000000000000000000000000000000000000000000000000000000000240000000000000000000000000000000000000000000000000000000000000032000000000000000000000000007eb010d960116898defd71f11b965fe29c3d65c000000000000000000000000000000000000000000000000000000000000006400000000000000000000000000000000000000000000000000038d7ea4c680000000000000000000000000000000000000000000000000000000000000002710000000000000000000000000000000000000000000000000000000003b9ac9ff00000000000000000000000000000000000000000000000000000000000000c0000000000000000000000000000000000000000000000000000000000000000000000000000000000000000007eb010d960116898defd71f11b965fe29c3d65c0000000000000000000000000000000000000000000000000000000000000065000000000000000000000000000000000000000000000000016345785d8a00000000000000000000000000000000000000000000000000000000000000000064000000000000000000000000000000000000000000000000000000003b9ac9ff00000000000000000000000000000000000000000000000000000000000000c0000000000000000000000000000000000000000000000000000000000000000000000000000000000000000007eb010d960116898defd71f11b965fe29c3d65c00000000000000000000000000000000000000000000000000000000000000660000000000000000000000000000000000000000000000000de0b6b3a7640000000000000000000000000000000000000000000000000000000000000000000a000000000000000000000000000000000000000000000000000000003b9ac9ff00000000000000000000000000000000000000000000000000000000000000c0000000000000000000000000000000000000000000000000000000000000000000000000000000000000000007eb010d960116898defd71f11b965fe29c3d65c00000000000000000000000000000000000000000000000000000000000000670000000000000000000000000000000000000000000000056bc75e2d63100000000000000000000000000000000000000000000000000000000000000000000a000000000000000000000000000000000000000000000000000000003b9ac9ff00000000000000000000000000000000000000000000000000000000000000c00000000000000000000000000000000000000000000000000000000000000000",
						"index": 29,
						"topics": [
							"0x721f1fc2dbea25cab88bdd50f9b47aff50f4b8c43ea6ea02b3587c82b940ad41",
							"0x0000000000000000000000000000000000000000000000000000000000000002"
						],
						"transactionHash": "0xfd25c7a21f5504d1f7d799978d7d6b3f1060e379ccd24edd216f015e0f04b018",
						"transactionIndex": 9
					},
					{
						"address": "0x1e2E8562b635fe19978640C784e47865A83d6605",
						"blockHash": "0x9df6e9ab62d17262cad1f3c04a9a1c92f091089f740dfd81c02384bcf530e95f",
						"blockNumber": 8989504,
						"data": "0x0000000000000000000000000000000000000000000000000000000000000060000000000000000000000000000000000000000000000000000000000020000000000000000000000000000081e3b9447f99aac78810a13075bdbb3d347f951500000000000000000000000000000000000000000000000000000000000000010000000000000000000000000000000000000000000000000000000000000015",
						"index": 30,
						"topics": [
							"0xf8cdf10a0ce6189c6d069e97320ef146e2bcbd32d6c0b86dcbfbf3bd8578fa70",
							"0x0000000000000000000000002b4853136ab24f8eb08d9e1cb536b43f48503801",
							"0x00000000000000000000000081e3b9447f99aac78810a13075bdbb3d347f9515",
							"0x0000000000000000000000000000000000000000000000000000000000000002"
						],
						"transactionHash": "0xfd25c7a21f5504d1f7d799978d7d6b3f1060e379ccd24edd216f015e0f04b018",
						"transactionIndex": 9
					},
					{
						"address": "0x584F5Da53cb18789099466074e3B5c32Ed17243a",
						"blockHash": "0x9df6e9ab62d17262cad1f3c04a9a1c92f091089f740dfd81c02384bcf530e95f",
						"blockNumber": 8989504,
						"data": "0x",
						"index": 31,
						"topics": [
							"0x6895c13664aa4f67288b25d7a21d7aaa34916e355fb9b6fae0a139a9085becb8",
							"0x000000000000000000000000183b35e76a7bc60298dcb637515f50e4def9b68b"
						],
						"transactionHash": "0xfd25c7a21f5504d1f7d799978d7d6b3f1060e379ccd24edd216f015e0f04b018",
						"transactionIndex": 9
					},
					{
						"address": "0x183b35E76A7BC60298DCb637515F50e4DeF9b68b",
						"blockHash": "0x9df6e9ab62d17262cad1f3c04a9a1c92f091089f740dfd81c02384bcf530e95f",
						"blockNumber": 8989504,
						"data": "0x0000000000000000000000000000000000000000000000000000000000000002",
						"index": 32,
						"topics": [
							"0xa65fb05c5808f5f389d72edeaf719ce38f4cc55c1f69ca3cbfb31c21501caa07",
							"0xf71552bd89126626cc9a8b322587d1495e44702402cb10696fbdb74f33444828"
						],
						"transactionHash": "0xfd25c7a21f5504d1f7d799978d7d6b3f1060e379ccd24edd216f015e0f04b018",
						"transactionIndex": 9
					},
					{
						"address": "0x183b35E76A7BC60298DCb637515F50e4DeF9b68b",
						"blockHash": "0x9df6e9ab62d17262cad1f3c04a9a1c92f091089f740dfd81c02384bcf530e95f",
						"blockNumber": 8989504,
						"data": "0x",
						"index": 33,
						"topics": [
							"0x4383d976757d67ca920616be0b6430a681ea9d3dcce8d6d61d4603ca4a9bff63",
							"0xf71552bd89126626cc9a8b322587d1495e44702402cb10696fbdb74f33444828"
						],
						"transactionHash": "0xfd25c7a21f5504d1f7d799978d7d6b3f1060e379ccd24edd216f015e0f04b018",
						"transactionIndex": 9
					}
				],
				"logsBloom": "0x04c000000800100002280002000822020000088000080440009110020141000000000000004100000000202014480000000040800050000100200080000400100000001100002200000200081000000820210800000408000010800000c200100000000002020000800a00200110080000a81000000000004022005200004040800100021040013000010001000000000002200800100300000010632000000000401082001c000008082100000004020600080000c00060100220414004201000008012040884000280000848080800810004000144018002200000000260000040000060800008100000000000000380001006008200009000080408800120",
				"status": 1,
				"to": "0xB5E96127D417b1B3ef8438496a38A143167209c7"
			},
			"metadata": "{\"compiler\":{\"version\":\"0.8.23+commit.f704f362\"},\"language\":\"Solidity\",\"output\":{\"abi\":[{\"inputs\":[{\"internalType\":\"address\",\"name\":\"owner\",\"type\":\"address\"},{\"internalType\":\"address\",\"name\":\"trustedForwarder\",\"type\":\"address\"}],\"stateMutability\":\"nonpayable\",\"type\":\"constructor\"},{\"inputs\":[],\"type\":\"error\",\"name\":\"ASSET_IS_ALREADY_BEING_WORN\"},{\"inputs\":[],\"type\":\"error\",\"name\":\"CONTENTS_ALREADY_STORED\"},{\"inputs\":[],\"type\":\"error\",\"name\":\"CONTENTS_MISMATCH\"},{\"inputs\":[],\"type\":\"error\",\"name\":\"HASH_ALREADY_STORED\"},{\"inputs\":[],\"type\":\"error\",\"name\":\"HASH_NOT_FOUND\"},{\"inputs\":[],\"type\":\"error\",\"name\":\"HEAD_ALREADY_ADDED\"},{\"inputs\":[{\"internalType\":\"address\",\"name\":\"owner\",\"type\":\"address\"}],\"type\":\"error\",\"name\":\"OwnableInvalidOwner\"},{\"inputs\":[{\"internalType\":\"address\",\"name\":\"account\",\"type\":\"address\"}],\"type\":\"error\",\"name\":\"OwnableUnauthorizedAccount\"},{\"inputs\":[],\"type\":\"error\",\"name\":\"SUIT_ALREADY_ADDED\"},{\"inputs\":[],\"type\":\"error\",\"name\":\"UNAUTHORIZED_NAKED_BANNY\"},{\"inputs\":[],\"type\":\"error\",\"name\":\"UNAUTHORIZED_OUTFIT\"},{\"inputs\":[],\"type\":\"error\",\"name\":\"UNAUTHORIZED_WORLD\"},{\"inputs\":[],\"type\":\"error\",\"name\":\"UNORDERED_CATEGORIES\"},{\"inputs\":[],\"type\":\"error\",\"name\":\"UNRECOGNIZED_CATEGORY\"},{\"inputs\":[],\"type\":\"error\",\"name\":\"UNRECOGNIZED_OUTFIT\"},{\"inputs\":[],\"type\":\"error\",\"name\":\"UNRECOGNIZED_PRODUCT\"},{\"inputs\":[],\"type\":\"error\",\"name\":\"UNRECOGNIZED_WORLD\"},{\"inputs\":[{\"internalType\":\"address\",\"name\":\"hook\",\"type\":\"address\",\"indexed\":true},{\"internalType\":\"uint256\",\"name\":\"nakenBannyId\",\"type\":\"uint256\",\"indexed\":true},{\"internalType\":\"uint256\",\"name\":\"worldId\",\"type\":\"uint256\",\"indexed\":false},{\"internalType\":\"uint256[]\",\"name\":\"outfitIds\",\"type\":\"uint256[]\",\"indexed\":false},{\"internalType\":\"address\",\"name\":\"caller\",\"type\":\"address\",\"indexed\":false}],\"type\":\"event\",\"name\":\"DecorateBanny\",\"anonymous\":false},{\"inputs\":[{\"internalType\":\"address\",\"name\":\"previousOwner\",\"type\":\"address\",\"indexed\":true},{\"internalType\":\"address\",\"name\":\"newOwner\",\"type\":\"address\",\"indexed\":true}],\"type\":\"event\",\"name\":\"OwnershipTransferred\",\"anonymous\":false},{\"inputs\":[{\"internalType\":\"uint256\",\"name\":\"upc\",\"type\":\"uint256\",\"indexed\":true},{\"internalType\":\"string\",\"name\":\"name\",\"type\":\"string\",\"indexed\":false},{\"internalType\":\"address\",\"name\":\"caller\",\"type\":\"address\",\"indexed\":false}],\"type\":\"event\",\"name\":\"SetProductName\",\"anonymous\":false},{\"inputs\":[{\"internalType\":\"string\",\"name\":\"baseUri\",\"type\":\"string\",\"indexed\":false},{\"internalType\":\"address\",\"name\":\"caller\",\"type\":\"address\",\"indexed\":false}],\"type\":\"event\",\"name\":\"SetSvgBaseUri\",\"anonymous\":false},{\"inputs\":[{\"internalType\":\"uint256\",\"name\":\"upc\",\"type\":\"uint256\",\"indexed\":true},{\"internalType\":\"string\",\"name\":\"svgContent\",\"type\":\"string\",\"indexed\":false},{\"internalType\":\"address\",\"name\":\"caller\",\"type\":\"address\",\"indexed\":false}],\"type\":\"event\",\"name\":\"SetSvgContent\",\"anonymous\":false},{\"inputs\":[{\"internalType\":\"uint256\",\"name\":\"upc\",\"type\":\"uint256\",\"indexed\":true},{\"internalType\":\"bytes32\",\"name\":\"svgHash\",\"type\":\"bytes32\",\"indexed\":true},{\"internalType\":\"address\",\"name\":\"caller\",\"type\":\"address\",\"indexed\":false}],\"type\":\"event\",\"name\":\"SetSvgHash\",\"anonymous\":false},{\"inputs\":[{\"internalType\":\"uint256\",\"name\":\"nakedBannyId\",\"type\":\"uint256\"}],\"stateMutability\":\"view\",\"type\":\"function\",\"name\":\"assetIdsOf\",\"outputs\":[{\"internalType\":\"uint256\",\"name\":\"worldId\",\"type\":\"uint256\"},{\"internalType\":\"uint256[]\",\"name\":\"outfitIds\",\"type\":\"uint256[]\"}]},{\"inputs\":[{\"internalType\":\"address\",\"name\":\"hook\",\"type\":\"address\"},{\"internalType\":\"uint256\",\"name\":\"nakedBannyId\",\"type\":\"uint256\"},{\"internalType\":\"uint256\",\"name\":\"worldId\",\"type\":\"uint256\"},{\"internalType\":\"uint256[]\",\"name\":\"outfitIds\",\"type\":\"uint256[]\"}],\"stateMutability\":\"nonpayable\",\"type\":\"function\",\"name\":\"decorateBannyWith\"},{\"inputs\":[{\"internalType\":\"address\",\"name\":\"forwarder\",\"type\":\"address\"}],\"stateMutability\":\"view\",\"type\":\"function\",\"name\":\"isTrustedForwarder\",\"outputs\":[{\"internalType\":\"bool\",\"name\":\"\",\"type\":\"bool\"}]},{\"inputs\":[{\"internalType\":\"address\",\"name\":\"hook\",\"type\":\"address\"},{\"internalType\":\"uint256\",\"name\":\"tokenId\",\"type\":\"uint256\"}],\"stateMutability\":\"view\",\"type\":\"function\",\"name\":\"namesOf\",\"outputs\":[{\"internalType\":\"string\",\"name\":\"\",\"type\":\"string\"},{\"internalType\":\"string\",\"name\":\"\",\"type\":\"string\"},{\"internalType\":\"string\",\"name\":\"\",\"type\":\"string\"}]},{\"inputs\":[],\"stateMutability\":\"view\",\"type\":\"function\",\"name\":\"owner\",\"outputs\":[{\"internalType\":\"address\",\"name\":\"\",\"type\":\"address\"}]},{\"inputs\":[],\"stateMutability\":\"nonpayable\",\"type\":\"function\",\"name\":\"renounceOwnership\"},{\"inputs\":[{\"internalType\":\"uint256[]\",\"name\":\"upcs\",\"type\":\"uint256[]\"},{\"internalType\":\"string[]\",\"name\":\"names\",\"type\":\"string[]\"}],\"stateMutability\":\"nonpayable\",\"type\":\"function\",\"name\":\"setProductNames\"},{\"inputs\":[{\"internalType\":\"string\",\"name\":\"baseUri\",\"type\":\"string\"}],\"stateMutability\":\"nonpayable\",\"type\":\"function\",\"name\":\"setSvgBaseUri\"},{\"inputs\":[{\"internalType\":\"uint256[]\",\"name\":\"upcs\",\"type\":\"uint256[]\"},{\"internalType\":\"string[]\",\"name\":\"svgContents\",\"type\":\"string[]\"}],\"stateMutability\":\"nonpayable\",\"type\":\"function\",\"name\":\"setSvgContentsOf\"},{\"inputs\":[{\"internalType\":\"uint256[]\",\"name\":\"upcs\",\"type\":\"uint256[]\"},{\"internalType\":\"bytes32[]\",\"name\":\"svgHashs\",\"type\":\"bytes32[]\"}],\"stateMutability\":\"nonpayable\",\"type\":\"function\",\"name\":\"setSvgHashsOf\"},{\"inputs\":[],\"stateMutability\":\"view\",\"type\":\"function\",\"name\":\"svgBaseUri\",\"outputs\":[{\"internalType\":\"string\",\"name\":\"\",\"type\":\"string\"}]},{\"inputs\":[{\"internalType\":\"uint256\",\"name\":\"upc\",\"type\":\"uint256\"}],\"stateMutability\":\"view\",\"type\":\"function\",\"name\":\"svgHashOf\",\"outputs\":[{\"internalType\":\"bytes32\",\"name\":\"\",\"type\":\"bytes32\"}]},{\"inputs\":[{\"internalType\":\"address\",\"name\":\"hook\",\"type\":\"address\"},{\"internalType\":\"uint256\",\"name\":\"tokenId\",\"type\":\"uint256\"},{\"internalType\":\"bool\",\"name\":\"shouldDressNakedBanny\",\"type\":\"bool\"},{\"internalType\":\"bool\",\"name\":\"shouldIncludeWorldOnNakedBanny\",\"type\":\"bool\"}],\"stateMutability\":\"view\",\"type\":\"function\",\"name\":\"svgOf\",\"outputs\":[{\"internalType\":\"string\",\"name\":\"\",\"type\":\"string\"}]},{\"inputs\":[{\"internalType\":\"address\",\"name\":\"hook\",\"type\":\"address\"},{\"internalType\":\"uint256\",\"name\":\"tokenId\",\"type\":\"uint256\"}],\"stateMutability\":\"view\",\"type\":\"function\",\"name\":\"tokenUriOf\",\"outputs\":[{\"internalType\":\"string\",\"name\":\"\",\"type\":\"string\"}]},{\"inputs\":[{\"internalType\":\"address\",\"name\":\"newOwner\",\"type\":\"address\"}],\"stateMutability\":\"nonpayable\",\"type\":\"function\",\"name\":\"transferOwnership\"},{\"inputs\":[],\"stateMutability\":\"view\",\"type\":\"function\",\"name\":\"trustedForwarder\",\"outputs\":[{\"internalType\":\"address\",\"name\":\"\",\"type\":\"address\"}]},{\"inputs\":[{\"internalType\":\"uint256\",\"name\":\"worldId\",\"type\":\"uint256\"}],\"stateMutability\":\"view\",\"type\":\"function\",\"name\":\"userOf\",\"outputs\":[{\"internalType\":\"uint256\",\"name\":\"\",\"type\":\"uint256\"}]},{\"inputs\":[{\"internalType\":\"uint256\",\"name\":\"outfitId\",\"type\":\"uint256\"}],\"stateMutability\":\"view\",\"type\":\"function\",\"name\":\"wearerOf\",\"outputs\":[{\"internalType\":\"uint256\",\"name\":\"\",\"type\":\"uint256\"}]}],\"devdoc\":{\"kind\":\"dev\",\"methods\":{\"assetIdsOf(uint256)\":{\"params\":{\"nakedBannyId\":\"The ID of the naked banny shows with the associated assets.\"},\"returns\":{\"outfitIds\":\"The outfits attached to the Naked Banny.\",\"worldId\":\"The world attached to the Naked Banny.\"}},\"constructor\":{\"params\":{\"owner\":\"The owner allowed to add SVG files that correspond to product IDs.\",\"trustedForwarder\":\"The trusted forwarder for the ERC2771Context.\"}},\"decorateBannyWith(address,uint256,uint256,uint256[])\":{\"details\":\"The caller must own the naked banny being dressed and all outfits being worn.\",\"params\":{\"hook\":\"The hook storing the assets.\",\"nakedBannyId\":\"The ID of the Naked Banny being dressed.\",\"outfitIds\":\"The IDs of the outfits that'll be associated with the specified banny. Only one outfit per outfit category allowed at a time and they must be passed in order.\",\"worldId\":\"The ID of the world that'll be associated with the specified banny.\"}},\"isTrustedForwarder(address)\":{\"details\":\"Indicates whether any particular address is the trusted forwarder.\"},\"namesOf(address,uint256)\":{\"params\":{\"hook\":\"The hook storing the assets.\",\"tokenId\":\"The ID of the token to show.\"},\"returns\":{\"_0\":\"fullName The full name of the token.\",\"_1\":\"categoryName The name of the token's category.\",\"_2\":\"productName The name of the token's product.\"}},\"owner()\":{\"details\":\"Returns the address of the current owner.\"},\"renounceOwnership()\":{\"details\":\"Leaves the contract without owner. It will not be possible to call `onlyOwner` functions. Can only be called by the current owner. NOTE: Renouncing ownership will leave the contract without an owner, thereby disabling any functionality that is only available to the owner.\"},\"setProductNames(uint256[],string[])\":{\"params\":{\"names\":\"The names of the products.\",\"upcs\":\"The universal product codes of the products having their name stored.\"}},\"setSvgContentsOf(uint256[],string[])\":{\"params\":{\"svgContents\":\"The svg contents being stored, not including the parent <svg></svg> element.\",\"upcs\":\"The universal product codes of the products having SVGs stored.\"}},\"setSvgHashsOf(uint256[],bytes32[])\":{\"details\":\"This allows anyone to lazily upload the correct svg file.\",\"params\":{\"svgHashs\":\"The svg hashes being stored, not including the parent <svg></svg> element.\",\"upcs\":\"The universal product codes of the products having SVG hashes stored.\"}},\"svgOf(address,uint256,bool,bool)\":{\"params\":{\"hook\":\"The hook storing the assets.\",\"shouldDressNakedBanny\":\"Whether the naked banny should be dressed.\",\"shouldIncludeWorldOnNakedBanny\":\"Whether the world should be included on the naked banny.\",\"tokenId\":\"The ID of the token to show. If the ID belongs to a Naked Banny, it will be shown with its current outfits in its current world if specified.\"},\"returns\":{\"_0\":\"svg The SVG.\"}},\"tokenUriOf(address,uint256)\":{\"params\":{\"tokenId\":\"The ID of the token to show. If the ID belongs to a Naked Banny, it will be shown with its current outfits in its current world.\"},\"returns\":{\"_0\":\"tokenUri The URI representing the SVG.\"}},\"transferOwnership(address)\":{\"details\":\"Transfers ownership of the contract to a new account (`newOwner`). Can only be called by the current owner.\"},\"trustedForwarder()\":{\"details\":\"Returns the address of the trusted forwarder.\"},\"userOf(uint256)\":{\"params\":{\"worldId\":\"The ID of the world being used.\"},\"returns\":{\"_0\":\"The ID of the naked banny using the world.\"}},\"wearerOf(uint256)\":{\"params\":{\"outfitId\":\"The ID of the outfit being worn.\"},\"returns\":{\"_0\":\"The ID of the naked banny wearing the outfit.\"}}},\"version\":1},\"userdoc\":{\"kind\":\"user\",\"methods\":{\"assetIdsOf(uint256)\":{\"notice\":\"The assets currently attached to each Naked Banny, owned by the naked Banny's owner.\"},\"decorateBannyWith(address,uint256,uint256,uint256[])\":{\"notice\":\"Dress your Naked Banny with outfits.\"},\"namesOf(address,uint256)\":{\"notice\":\"Returns the name of the token.\"},\"setProductNames(uint256[],string[])\":{\"notice\":\"Allows the owner to set the product's name.\"},\"setSvgBaseUri(string)\":{\"notice\":\"Allows the owner of this contract to specify the base of the domain hosting the SVG files.\"},\"setSvgContentsOf(uint256[],string[])\":{\"notice\":\"The owner of this contract can store SVG files for product IDs.\"},\"setSvgHashsOf(uint256[],bytes32[])\":{\"notice\":\"Allows the owner of this contract to upload the hash of an svg file for a universal product code.\"},\"svgBaseUri()\":{\"notice\":\"The base of the domain hosting the SVG files that can be lazily uploaded to the contract.\"},\"svgHashOf(uint256)\":{\"notice\":\"The Naked Banny and outfit SVG hash files.\"},\"svgOf(address,uint256,bool,bool)\":{\"notice\":\"Returns the SVG showing either a naked banny with/without outfits and a world, or the stand alone outfit or world.\"},\"tokenUriOf(address,uint256)\":{\"notice\":\"Returns the SVG showing a dressed Naked Banny in a world.\"},\"userOf(uint256)\":{\"notice\":\"Checks to see which naked banny is currently using a particular world.\"},\"wearerOf(uint256)\":{\"notice\":\"Checks to see which naked banny is currently wearing a particular outfit.\"}},\"version\":1}},\"settings\":{\"remappings\":[\"@arbitrum/=node_modules/@arbitrum/\",\"@bananapus/=node_modules/@bananapus/\",\"@chainlink/=node_modules/@chainlink/\",\"@croptop/=node_modules/@croptop/\",\"@eth-optimism/=node_modules/@eth-optimism/\",\"@exhausted-pigeon/=node_modules/@exhausted-pigeon/\",\"@offchainlabs/=node_modules/@offchainlabs/\",\"@openzeppelin/=node_modules/@openzeppelin/\",\"@prb/=node_modules/@prb/\",\"@rev-net/=node_modules/@rev-net/\",\"@scroll-tech/=node_modules/@scroll-tech/\",\"@sphinx-labs/contracts/=node_modules/@sphinx-labs/contracts/contracts/foundry/\",\"@uniswap/=node_modules/@uniswap/\",\"base64-sol/=node_modules/base64-sol/\",\"base64/=lib/base64/\",\"ds-test/=lib/forge-std/lib/ds-test/src/\",\"forge-std/=lib/forge-std/src/\",\"hardhat/=node_modules/hardhat/\",\"solmate/=node_modules/solmate/\",\"sphinx/=lib/sphinx/packages/contracts/contracts/forge-std/src/\"],\"optimizer\":{\"enabled\":true,\"runs\":200},\"metadata\":{\"bytecodeHash\":\"ipfs\"},\"compilationTarget\":{\"src/Banny721TokenUriResolver.sol\":\"Banny721TokenUriResolver\"},\"evmVersion\":\"paris\",\"libraries\":{},\"viaIR\":true},\"sources\":{\"lib/base64/base64.sol\":{\"keccak256\":\"0xa73959e6ef0b693e4423a562e612370160b934a75e618361ddd8c9c4b8ddbaaf\",\"urls\":[\"bzz-raw://17c12e16d8d66f3af15d8787920bd41ca6c1e7517a212a6b9cebd4b6d38f36fe\",\"dweb:/ipfs/QmcXMnZUXEz6LRKsm3CSvqdPboAzmezavi8bTg2dRxM2yE\"],\"license\":\"MIT\"},\"node_modules/@bananapus/721-hook/src/abstract/ERC721.sol\":{\"keccak256\":\"0xc25c7c60c88684adc3f7a49621d27866866a44a3f3796e63c9fcaba75fbb2e84\",\"urls\":[\"bzz-raw://713103b7a05402264493430cfcd7d85f1a241a2eb4756af53a370fa529ea07bf\",\"dweb:/ipfs/QmSXZfxCG1N9XheS1kLCNJZ9k6ZRq4GnAMY7MKFfbKLXmz\"],\"license\":\"MIT\"},\"node_modules/@bananapus/721-hook/src/interfaces/IJB721Hook.sol\":{\"keccak256\":\"0x24935445bc4c5b0fe2a10aabe549122588940842a68e79a8c39b1df9458dd7fd\",\"urls\":[\"bzz-raw://1dee273fa76d9abae116de911fdda5e3113db2a58939e62e24fba98c63fd037a\",\"dweb:/ipfs/QmT6Lih7DeRAfrLc8uC7ecaw2EAKwhaP2BZHeY5DxeeVLM\"],\"license\":\"MIT\"},\"node_modules/@bananapus/721-hook/src/interfaces/IJB721TiersHook.sol\":{\"keccak256\":\"0xbd9a8dae00a4b1a02c628bd172fe4ae496e49f7651426cef08774ffdb6125c23\",\"urls\":[\"bzz-raw://9ce4fd77d5af1f570dad6b70758f09f9599768e1ab32f6b473f6181197daa0c8\",\"dweb:/ipfs/QmWj6sCTvZ2CbfSyRuhaXADxYbwwPcR42pZokcgfjpsabg\"],\"license\":\"MIT\"},\"node_modules/@bananapus/721-hook/src/interfaces/IJB721TiersHookStore.sol\":{\"keccak256\":\"0x8550e216c12c9cda865c1b1b0eb3f244aeaa8d465b197d4bd0dd8d4df265682e\",\"urls\":[\"bzz-raw://674a312f1eaffd7c6b21f58f8d4a628104e71220daf48a22237fa3bd035ddf21\",\"dweb:/ipfs/QmSRSW6cSwdpoGjVxDqiwJmJyCxfHWhCxZ2iaqeJcN2Ccy\"],\"license\":\"MIT\"},\"node_modules/@bananapus/721-hook/src/interfaces/IJB721TokenUriResolver.sol\":{\"keccak256\":\"0xfa599167098f4459320ec4141a98a17b2dfffbce422baa27d8b4e4530f61ece1\",\"urls\":[\"bzz-raw://8b758b161f4c7b520b2c34b4d91e585e961b8f4ca278eebb91d791f7f2f45140\",\"dweb:/ipfs/QmcD9DF7NJ9QykQpT4KPzm4bs3fkjzukdAUWwdU6Atfw85\"],\"license\":\"MIT\"},\"node_modules/@bananapus/721-hook/src/libraries/JBIpfsDecoder.sol\":{\"keccak256\":\"0xb93ba562ac1fc9d3829be00e61f3a90f51df5661cf0f2c819a7f1d8ba19ec171\",\"urls\":[\"bzz-raw://fc9bc948fac8897d9720ef25b13d63c60b40a18aa1897dd1c657fc278c416b4f\",\"dweb:/ipfs/QmNtiJTALZW5zfyKVy7XG5GkqGgMrfkVvU4Auu4bb9cGQc\"],\"license\":\"MIT\"},\"node_modules/@bananapus/721-hook/src/structs/JB721InitTiersConfig.sol\":{\"keccak256\":\"0xfb78486cec94189d0ecf2050dc9cfc11245b426c73a0711a85bff1359d774307\",\"urls\":[\"bzz-raw://a8fa01f6e64dd204dbde07a60851e9a5a74e439e1411139ae16b7cf67d2a2692\",\"dweb:/ipfs/QmZAnHyfpKr3xr7NWHj5sGaCEEtG8RtmHhkRUJJvNauym5\"],\"license\":\"MIT\"},\"node_modules/@bananapus/721-hook/src/structs/JB721Tier.sol\":{\"keccak256\":\"0x2e267a8af02f125465cdda9308477346ae4a94b024c3b2c2a6af0c00027944dd\",\"urls\":[\"bzz-raw://367ccea2c8fa815d498d771d4367ef1ded718a76e89644102034bfe4a3636b82\",\"dweb:/ipfs/QmYiFFa6ei9wZBSSVUHfY2Cb35zCDVXvbmLcgLj2BTiC1u\"],\"license\":\"MIT\"},\"node_modules/@bananapus/721-hook/src/structs/JB721TierConfig.sol\":{\"keccak256\":\"0x2fa9c5c8cec182b854a656d3b284e9d5306be35ad3dc4da79d65dca12b804af0\",\"urls\":[\"bzz-raw://b443a5f70195a66145ea1dade04454ce9a3ff1209e1aaecf53c8a9909b294d79\",\"dweb:/ipfs/QmUDPFZ4L6XpV3zLQUNVchUvecD4XfddKz2S46BKek5XL1\"],\"license\":\"MIT\"},\"node_modules/@bananapus/721-hook/src/structs/JB721TiersHookFlags.sol\":{\"keccak256\":\"0x283d8429f31bd58875c056515aa42abd09c95362bd929e85cfc44a0d92585766\",\"urls\":[\"bzz-raw://9a580b89fe99d9f8e930c58a4d0d63a5ff7c01c79d210af01373d066c9e72ed6\",\"dweb:/ipfs/QmdY1eSGSoTjv4KSdsG4Tm5CzJN6iqk3qTRga5ZWNbejRz\"],\"license\":\"MIT\"},\"node_modules/@bananapus/721-hook/src/structs/JB721TiersMintReservesConfig.sol\":{\"keccak256\":\"0xab3b319dc4e736586ae595de194d93dcdfeba365bc7a54cf6c37e697f6074ad9\",\"urls\":[\"bzz-raw://a84ae2cf2e8c3e39e831dbb39a67a8eb43c78a6de6bb78b1be2e1f1e80c69efe\",\"dweb:/ipfs/QmboGXEMqsYTxc4a7oft9rggNU7ShWSa9yB4HFMVmzXCHz\"],\"license\":\"MIT\"},\"node_modules/@bananapus/core/src/enums/JBApprovalStatus.sol\":{\"keccak256\":\"0x61c69b6bac7d24b566d87cda23a77e4ca9cdb87200b106aba8534cb9a0973e33\",\"urls\":[\"bzz-raw://6a9ca7249de76f77a8252eefe6bd1b63d47952f25a2acfa2c8db967cdff4470c\",\"dweb:/ipfs/QmaxSxptRQNj8bNy96EreENmrnRWdKmhyihBcxyWzBX5BN\"],\"license\":\"MIT\"},\"node_modules/@bananapus/core/src/interfaces/IJBDirectory.sol\":{\"keccak256\":\"0x9cc380844aef60078ee47a61861e55a29c4a8c947efd556ebd36e6909f7b9d62\",\"urls\":[\"bzz-raw://9f5190ec8b6683d9781ee6e9eedcc91294753242748875d4a06349077e4cbaaf\",\"dweb:/ipfs/QmTQrPuXT9TCA4txwrperMeXSGvGxP8iokUK47f62F388i\"],\"license\":\"MIT\"},\"node_modules/@bananapus/core/src/interfaces/IJBPayHook.sol\":{\"keccak256\":\"0x9438866782c652c2942f4d114e35f393cd3c8b0334abce8387eed90bca35e8b2\",\"urls\":[\"bzz-raw://cfd99daf57213f92325aad7d7d16e98476d38e870470e95ba01e3ae3cdecc95d\",\"dweb:/ipfs/QmUKKAVGf7ki8BHksr99tFcRW8APveeB5tNH63ctTbbCW8\"],\"license\":\"MIT\"},\"node_modules/@bananapus/core/src/interfaces/IJBPriceFeed.sol\":{\"keccak256\":\"0x4bd84c0f1a5d4729ed709bcddd43f4c50ec4a165ece79780af8dce482ed07d4a\",\"urls\":[\"bzz-raw://62bac4bfb6982fb002f620c77e5c445e62d50241a5aa64a07e51d929f5a42180\",\"dweb:/ipfs/QmWgJUDreVY2BuMX38a1iUUR5kNbMwGnKG3VvurB7oZtuM\"],\"license\":\"MIT\"},\"node_modules/@bananapus/core/src/interfaces/IJBPrices.sol\":{\"keccak256\":\"0x99525f31440b955742dce84ba57de9fc1221139b5367c1f834723bef9e13e6e1\",\"urls\":[\"bzz-raw://6fa03f0cd4ad87dd7cbae7bf7f54463450874291773c8f70f2c31ef2cae62bb0\",\"dweb:/ipfs/QmSPajPV5ismteJuB6Spzm9VmhTj2iS3eVrfpJC1Zuzg8n\"],\"license\":\"MIT\"},\"node_modules/@bananapus/core/src/interfaces/IJBProjects.sol\":{\"keccak256\":\"0x735c2fb8f1fa827f054ee77f7a0ae4b312656217acb75b624d2c8fd9dc40151b\",\"urls\":[\"bzz-raw://ee7fc92299a8633a80693ae63ab494dcd125f1789487a54a39dc0e5696e5996f\",\"dweb:/ipfs/QmX7YJD4pS2XhgQb7p3JbBAXynT7YGPXcZe92BiWWRrsCL\"],\"license\":\"MIT\"},\"node_modules/@bananapus/core/src/interfaces/IJBRulesetApprovalHook.sol\":{\"keccak256\":\"0x592e95d159494421c6b1bcb362d0cee1df0132921697351304e9cd7af4fbd386\",\"urls\":[\"bzz-raw://5bebfd5fa67c1b6ea16fa2e76e9520e9dfe52a579f48dd94d0c2ec45f78ad178\",\"dweb:/ipfs/QmRUawEGtfYoYSHmHELGhvJoWuMsxLPKtqAXgsrb7fJboP\"],\"license\":\"MIT\"},\"node_modules/@bananapus/core/src/interfaces/IJBRulesets.sol\":{\"keccak256\":\"0xd3f817d22ecbe24da63c552c069bf0c4fbbf3bcd5c3b5633002afd24aacf6882\",\"urls\":[\"bzz-raw://c1185aec0f6b6f0f4d93ffeeed0972ccf38420b00fe570b5e1838ed2b1f5db49\",\"dweb:/ipfs/QmWz36azGTFnjFXpFSh6BHt4nactgjtF64L3PeTqs4ZqSR\"],\"license\":\"MIT\"},\"node_modules/@bananapus/core/src/interfaces/IJBTerminal.sol\":{\"keccak256\":\"0x19dc9bf8cbdc8f13ee5da9dc3a87047eacb94a3fc19740a286c1f0bad2cc39ca\",\"urls\":[\"bzz-raw://0b05ae6fda9a85672508232fd992b8a5f5ffd8096622eeb12c8a7b3317eb3867\",\"dweb:/ipfs/QmNh9Quj37BXYGdTdcCD1Q58PchRsE5TLbEZep56qS3MpV\"],\"license\":\"MIT\"},\"node_modules/@bananapus/core/src/interfaces/IJBTokenUriResolver.sol\":{\"keccak256\":\"0xfa5cb00dcd6085d1ef912d071fe73c63f9478a2cd0f9d8bddaf659b6af2d0967\",\"urls\":[\"bzz-raw://282e4e7c342d65f77cde0e9a08fcaf20ef5cf379c7a48b639842c0ffd0b2afb8\",\"dweb:/ipfs/QmbnN3PEQeZaXdPLT75V1J79kMg7KqSMru37RHrL3z8Yf2\"],\"license\":\"MIT\"},\"node_modules/@bananapus/core/src/structs/JBAccountingContext.sol\":{\"keccak256\":\"0x2907ff54d1e903cc7e0390dd88c3975884702dc2673642aacbe22b66560b56de\",\"urls\":[\"bzz-raw://a66a5381ce877b32f0e0058ceeaf843e9b6b2bc8af666c0c9f4a9d01091da004\",\"dweb:/ipfs/QmQynCetUr37dBkS1YwDS8evxuXGiqanW6THmeUxXtim8w\"],\"license\":\"MIT\"},\"node_modules/@bananapus/core/src/structs/JBAfterPayRecordedContext.sol\":{\"keccak256\":\"0xd26c3a774ff38be79064085970454fe2603a23a638c76270d5b1b3829206c3e8\",\"urls\":[\"bzz-raw://3b55dbe3bf1ef625b7ca04efab3de35406e6041d5b3d82c7265469c500e2b702\",\"dweb:/ipfs/QmUdBDo4Lt3mcsFcsXT2mqq3czFwZjQJFPLM89YA2VtD7k\"],\"license\":\"MIT\"},\"node_modules/@bananapus/core/src/structs/JBRuleset.sol\":{\"keccak256\":\"0x15b2bf3174d84846a91ccbf5a344dfb125b55ed9cf50102db8d6868844225189\",\"urls\":[\"bzz-raw://647416b025dbd941094db89cbc69f755c155bd6c87be3f322394ccc4a8e0442d\",\"dweb:/ipfs/QmTCL9xcHnxQ4t5AmCPoZvXDUPW5xhzhyyXYbkMdyg44au\"],\"license\":\"MIT\"},\"node_modules/@bananapus/core/src/structs/JBTokenAmount.sol\":{\"keccak256\":\"0x5cf0626b73a596c1e2da17c89ae039a7c0374310b060d48568d3b6c11fbe6180\",\"urls\":[\"bzz-raw://63348b50be95e2995409394a17caffc563a646f0972650a1230bf864fbd3219b\",\"dweb:/ipfs/QmZXZpS3SbFD5nWaCauf6AqbEhLURv5qsKHpThBvQgDU6u\"],\"license\":\"MIT\"},\"node_modules/@openzeppelin/contracts/access/Ownable.sol\":{\"keccak256\":\"0xff6d0bb2e285473e5311d9d3caacb525ae3538a80758c10649a4d61029b017bb\",\"urls\":[\"bzz-raw://8ed324d3920bb545059d66ab97d43e43ee85fd3bd52e03e401f020afb0b120f6\",\"dweb:/ipfs/QmfEckWLmZkDDcoWrkEvMWhms66xwTLff9DDhegYpvHo1a\"],\"license\":\"MIT\"},\"node_modules/@openzeppelin/contracts/interfaces/draft-IERC6093.sol\":{\"keccak256\":\"0x60c65f701957fdd6faea1acb0bb45825791d473693ed9ecb34726fdfaa849dd7\",\"urls\":[\"bzz-raw://ea290300e0efc4d901244949dc4d877fd46e6c5e43dc2b26620e8efab3ab803f\",\"dweb:/ipfs/QmcLLJppxKeJWqHxE2CUkcfhuRTgHSn8J4kijcLa5MYhSt\"],\"license\":\"MIT\"},\"node_modules/@openzeppelin/contracts/metatx/ERC2771Context.sol\":{\"keccak256\":\"0x98256cf37b71a69b2f5a8a6fe975ea03590dff703102bd141a830f94e8adebf6\",\"urls\":[\"bzz-raw://6251fe1f6a1e45e6d619d150c123afc88b8646b38ee26a136efa9a6988a31d3f\",\"dweb:/ipfs/QmeXDT85wSZdP31wkz3ah3KhponCiksJLP5o2LR5e1JxcK\"],\"license\":\"MIT\"},\"node_modules/@openzeppelin/contracts/token/ERC721/IERC721.sol\":{\"keccak256\":\"0x5ef46daa3b58ef2702279d514780316efaa952915ee1aa3396f041ee2982b0b4\",\"urls\":[\"bzz-raw://2f8f2a76e23b02fc69e8cd24c3cb47da6c7af3a2d6c3a382f8ac25c6e094ade7\",\"dweb:/ipfs/QmPV4ZS4tPVv4mTCf9ejyZ1ai57EEibDRj7mN2ARDCLV5n\"],\"license\":\"MIT\"},\"node_modules/@openzeppelin/contracts/token/ERC721/IERC721Receiver.sol\":{\"keccak256\":\"0x7f7a26306c79a65fb8b3b6c757cd74660c532cd8a02e165488e30027dd34ca49\",\"urls\":[\"bzz-raw://d01e0b2b837ee2f628545e54d8715b49c7ef2befd08356c2e7f6c50dde8a1c22\",\"dweb:/ipfs/QmWBAn6y2D1xgftci97Z3qR9tQnkvwQpYwFwkTvDMvqU4i\"],\"license\":\"MIT\"},\"node_modules/@openzeppelin/contracts/token/ERC721/extensions/IERC721Metadata.sol\":{\"keccak256\":\"0x37d1aaaa5a2908a09e9dcf56a26ddf762ecf295afb5964695937344fc6802ce1\",\"urls\":[\"bzz-raw://ed0bfc1b92153c5000e50f4021367b931bbe96372ac6facec3c4961b72053d02\",\"dweb:/ipfs/Qmbwp8VDerjS5SV1quwHH1oMXxPQ93fzfLVqJ2RCqbowGE\"],\"license\":\"MIT\"},\"node_modules/@openzeppelin/contracts/utils/Context.sol\":{\"keccak256\":\"0x493033a8d1b176a037b2cc6a04dad01a5c157722049bbecf632ca876224dd4b2\",\"urls\":[\"bzz-raw://6a708e8a5bdb1011c2c381c9a5cfd8a9a956d7d0a9dc1bd8bcdaf52f76ef2f12\",\"dweb:/ipfs/Qmax9WHBnVsZP46ZxEMNRQpLQnrdE4dK8LehML1Py8FowF\"],\"license\":\"MIT\"},\"node_modules/@openzeppelin/contracts/utils/Strings.sol\":{\"keccak256\":\"0x55f102ea785d8399c0e58d1108e2d289506dde18abc6db1b7f68c1f9f9bc5792\",\"urls\":[\"bzz-raw://6e52e0a7765c943ef14e5bcf11e46e6139fa044be564881378349236bf2e3453\",\"dweb:/ipfs/QmZEeeXoFPW47amyP35gfzomF9DixqqTEPwzBakv6cZw6i\"],\"license\":\"MIT\"},\"node_modules/@openzeppelin/contracts/utils/introspection/ERC165.sol\":{\"keccak256\":\"0x9e8778b14317ba9e256c30a76fd6c32b960af621987f56069e1e819c77c6a133\",\"urls\":[\"bzz-raw://1777404f1dcd0fac188e55a288724ec3c67b45288e49cc64723e95e702b49ab8\",\"dweb:/ipfs/QmZFdC626GButBApwDUvvTnUzdinevC3B24d7yyh57XkiA\"],\"license\":\"MIT\"},\"node_modules/@openzeppelin/contracts/utils/introspection/IERC165.sol\":{\"keccak256\":\"0x4296879f55019b23e135000eb36896057e7101fb7fb859c5ef690cf14643757b\",\"urls\":[\"bzz-raw://87b3541437c8c443ccd36795e56a338ed12855eec17f8da624511b8d1a7e14df\",\"dweb:/ipfs/QmeJQCtZrQjtJLr6u7ZHWeH3pBnjtLWzvRrKViAi7UZqxL\"],\"license\":\"MIT\"},\"node_modules/@openzeppelin/contracts/utils/math/Math.sol\":{\"keccak256\":\"0x005ec64c6313f0555d59e278f9a7a5ab2db5bdc72a027f255a37c327af1ec02d\",\"urls\":[\"bzz-raw://4ece9f0b9c8daca08c76b6b5405a6446b6f73b3a15fab7ff56e296cbd4a2c875\",\"dweb:/ipfs/QmQyRpyPRL5SQuAgj6SHmbir3foX65FJjbVTTQrA2EFg6L\"],\"license\":\"MIT\"},\"node_modules/@openzeppelin/contracts/utils/math/SignedMath.sol\":{\"keccak256\":\"0x5f7e4076e175393767754387c962926577f1660dd9b810187b9002407656be72\",\"urls\":[\"bzz-raw://7d533a1c97cd43a57cd9c465f7ee8dd0e39ae93a8fb8ff8e5303a356b081cdcc\",\"dweb:/ipfs/QmVBEei6aTnvYNZp2CHYVNKyZS4q1KkjANfY39WVXZXVoT\"],\"license\":\"MIT\"},\"src/Banny721TokenUriResolver.sol\":{\"keccak256\":\"0xc0379b19ec25c25c4201efd4dd8ff32a2469e9065a8d070775f216b305db1996\",\"urls\":[\"bzz-raw://41bb12c69143bcd7e15c1ab622d0027ce4373bd45ecac060825b8ea1b09e00c0\",\"dweb:/ipfs/QmdYtreaf9RsqswBRpQy7xbPuWgfF8HibTDs1DdY6WuUyb\"],\"license\":\"MIT\"}},\"version\":1}",
			"args": [
				"0x584F5Da53cb18789099466074e3B5c32Ed17243a",
				"0xB2b5841DBeF766d4b521221732F9B618fCf34A87"
			],
			"bytecode": "0x60a034620000e957601f62005c9b38819003918201601f19168301916001600160401b03831184841017620000ee578084926040948552833981010312620000e9576200005a6020620000528362000104565b920162000104565b6080526001600160a01b039081168015620000d057600080546001600160a01b03198116831782556040519316907f8be0079c531659141344cd1fd0a4f28419497f9722a3daafe3b4186f6b6457e09080a3615b8190816200011a823960805181818161071301528181610839015261598e0152f35b604051631e4fbdf760e01b815260006004820152602490fd5b600080fd5b634e487b7160e01b600052604160045260246000fd5b51906001600160a01b0382168203620000e95756fe6080604052600436101561001257600080fd5b60003560e01c806257bfdd146101365780631e4578de1461013157806331a290ac1461012c578063572b6c05146101275780635e703e711461012257806360b805411461011d5780636aff31dd14610118578063715018a6146101135780637da0a8771461010e578063875e4bea146101095780638da5cb5b14610104578063a0122c09146100ff578063a22d0dd5146100fa578063b03a3eab146100f5578063c06e7bc7146100f0578063c2f1f14a146100eb578063d756227e146100e65763f2fde38b146100e157600080fd5b6113cd565b6112fe565b61128e565b610c82565b610bdd565b610b98565b610a5c565b6109f9565b610868565b610823565b6107c5565b610799565b610773565b610747565b6106ef565b61056f565b610440565b610407565b90600182811c9216801561016b575b602083101461015557565b634e487b7160e01b600052602260045260246000fd5b91607f169161014a565b634e487b7160e01b600052604160045260246000fd5b602081019081106001600160401b038211176101a657604052565b610175565b604081019081106001600160401b038211176101a657604052565b61026081019081106001600160401b038211176101a657604052565b6111a081019081106001600160401b038211176101a657604052565b606081019081106001600160401b038211176101a657604052565b6101c081019081106001600160401b038211176101a657604052565b90601f801991011681019081106001600160401b038211176101a657604052565b604051906000826002549161026a8361013b565b808352926020906001908181169081156102f85750600114610297575b505061029592500383610235565b565b91509260026000527f405787fa12a823e0f2b7631cc41b3ba8828b3321ca811111fa75cd3aa3bb5ace936000925b8284106102e057506102959450505081016020013880610287565b855488850183015294850194879450928101926102c5565b9150506020925061029594915060ff191682840152151560051b8201013880610287565b9060405191826000825461032f8161013b565b9081845260209460019160018116908160001461039d575060011461035e575b50505061029592500383610235565b600090815285812095935091905b818310610385575050610295935082010138808061034f565b8554888401850152948501948794509183019161036c565b9250505061029594925060ff191682840152151560051b82010138808061034f565b60005b8381106103d25750506000910152565b81810151838201526020016103c2565b906020916103fb815180928185528580860191016103bf565b601f01601f1916010190565b3461043b57600036600319011261043b57610437610423610256565b6040519182916020835260208301906103e2565b0390f35b600080fd5b3461043b5760208060031936011261043b5761045d600435611459565b6040519283926040840190845260406020850152825180915260206060850193019160005b82811061049157505050500390f35b835185528695509381019392810192600101610482565b604051906101a082018281106001600160401b038211176101a657604052565b6001600160401b0381116101a65760051b60200190565b9080601f8301121561043b5760209082356104f9816104c8565b936105076040519586610235565b81855260208086019260051b82010192831161043b57602001905b828210610530575050505090565b81358152908301908301610522565b9181601f8401121561043b578235916001600160401b03831161043b576020808501948460051b01011161043b57565b3461043b5760408060031936011261043b576004906001600160401b03823581811161043b576105a290369085016104df565b9060243590811161043b576105ba903690850161053f565b92909180519360005b8581106105cc57005b6105d681846114ed565b516105ec6105e5838589611501565b36916112c7565b610608610603836000526004602052604060002090565b611542565b6106ce57610620826000526001602052604060002090565b5480156106be578651602081019061064a8161063c848761154c565b03601f198101835282610235565b519020036106ae57907faeb631726b45aa3f6b09da79f7af03a9784614901f61a967ed84d63c37b7edc76106a58361069860019695610693866000526004602052604060002090565b611615565b88519182913390836116ea565b0390a2016105c3565b85516375b5da0b60e01b81528990fd5b8651637ef41a4f60e01b81528a90fd5b8551630388067760e21b81528990fd5b6001600160a01b0381160361043b57565b3461043b57602036600319011261043b57602060043561070e816106de565b6040517f00000000000000000000000000000000000000000000000000000000000000006001600160a01b039081169216919091148152f35b3461043b57604036600319011261043b5761043761042360043561076a816106de565b60243590611a73565b3461043b57602036600319011261043b576020610791600435611fb3565b604051908152f35b3461043b57602036600319011261043b5760043560005260016020526020604060002054604051908152f35b3461043b57600080600319360112610820576107df614e51565b80546001600160a01b03198116825581906001600160a01b03167f8be0079c531659141344cd1fd0a4f28419497f9722a3daafe3b4186f6b6457e08280a380f35b80fd5b3461043b57600036600319011261043b576040517f00000000000000000000000000000000000000000000000000000000000000006001600160a01b03168152602090f35b3461043b5760208060031936011261043b576004356001600160401b0380821161043b573660238301121561043b57816004013590811161043b57602492366024838501011161043b576108ba614e51565b6108ce826108c960025461013b565b61157a565b600093601f831160011461094c57505061092181807f512c3c91736f50c57a0548c1d01ab02f24c420f002b8b20e2bfe63df9693cd3f9560009161093e575b508160011b916000199060031b1c19161790565b6002555b610939604051928392602433920184612061565b0390a1005b60249150850101353861090d565b6002600052601f19831694907f405787fa12a823e0f2b7631cc41b3ba8828b3321ca811111fa75cd3aa3bb5ace9282915b8783106109dd57505050827f512c3c91736f50c57a0548c1d01ab02f24c420f002b8b20e2bfe63df9693cd3f95106109c0575b5050600181811b01600255610925565b830160240135600019600384901b60f8161c1916905538806109b0565b908060018596848396978b01013581550195019301919061097d565b3461043b57600036600319011261043b576000546040516001600160a01b039091168152602090f35b91610a4b90610a3d610a5995936060865260608601906103e2565b9084820360208601526103e2565b9160408184039101526103e2565b90565b3461043b57604036600319011261043b57600435610a79816106de565b60405163507f146560e01b815260243591906001600160a01b03906020816004818587165afa8015610b5857610af09360009386938593610b5d575b5060405163c44a8e6d60e01b81526001600160a01b039092166004830152602482019390935260006044820152938492839182906064820190565b0392165afa908115610b5857600091610b35575b50610437610b29610b23610100610b1b858761483f565b940151614be1565b936149a2565b60405193849384610a22565b610b5291503d806000833e610b4a8183610235565b81019061178b565b38610b04565b611727565b610b8091935060203d602011610b87575b610b788183610235565b810190611712565b9138610ab5565b503d610b6e565b8015150361043b57565b3461043b57608036600319011261043b57610437610423600435610bbb816106de565b604435610bc781610b8e565b60643591610bd483610b8e565b60243590612627565b3461043b57604036600319011261043b576001600160401b0360043581811161043b57610c0e9036906004016104df565b9060243590811161043b573660238201121561043b578060040135610c32816104c8565b91610c406040519384610235565b8183526020916024602085019160051b8301019136831161043b57602401905b828210610c7357610c7185876127b1565b005b81358152908301908301610c60565b3461043b57608036600319011261043b5760048035610ca0816106de565b60243590604435926064356001600160401b03811161043b57610cc6903690830161053f565b94909160018060a01b0380851694604092610cfe8451926331a9108f60e11b938481528a818060209586938883019190602083019252565b03818d5afa908115610b5857600091611271575b5085610d2b610d1f61598b565b6001600160a01b031690565b911603611261578a871561123957508551848152828180610d538b8883019190602083019252565b03818d5afa908115610b585760009161121c575b5085610d74610d1f61598b565b91160361120c57610d84876129c4565b6111fc57855163507f146560e01b8152828185818d5afa8015610b5857610deb600091889383916111df575b50895163c44a8e6d60e01b81526001600160a01b038616888201908152602081018d9052600060408201529094859384928391606090910190565b0392165afa908115610b58576000916111c4575b5051156111b457908a93929187610e208c6000526006602052604060002090565b558a610e36896000526007602052604060002090565b55909a5093909192935b600091610e4b612854565b5060009b60009260005b888110610ebc578d8d7f6a68946ba06488db8585d7c7637fa954b574035fe15720ea760125ef860172588e8e610eb78f8f610ea48186610e9f8b6000526005602052604060002090565b612908565b610eac61598b565b915194859485612981565b0390a3005b889e610eef848f8f908b8f928e9f8890610ed5926128c5565b359e8f935195869485938493845283019190602083019252565b03915afa908115610b5857600091611197575b5085610f0f610d1f61598b565b91160361118757610f1f8a611fb3565b6111775787848f8d519283809263507f146560e01b82525afa8015610b58578b600091868f8d8b91610f8d978795611158575b505163c44a8e6d60e01b81526001600160a01b0390931690830190815260208101949094526000604085015290948593849291839160600190565b0392165afa908115610b585760009161113f575b5080511561112f576101000196875160028110908115611124575b50611114578215159081611108575b506110f857908f98979695949392918f9087518981146000146110195750509060019161100683985b519c6000526008602052604060002090565b550190919293949e509794959697610e55565b600891999a9b50809250969293949596146000146110495750509060018f989796959493928f6110068397610ff4565b979f9d9b9998979a9e9c9a6005819792971480156110ee575b80156110e4575b806110dd575b1561108457508f8f51631e550b6f60e11b8152fd5b9d9f9798999b9d9c9e9a9c600a81149081156110d2575b50806110cb575b6110bb578f98979695949392918f611006600193610ff4565b8a51635e701b2b60e01b81528890fd5b50856110a2565b60099150143861109b565b508761106f565b50600b8114611069565b5060068114611062565b8a51637dc0e82560e11b81528890fd5b90508751111538610fcb565b8b5163c89badbd60e01b81528990fd5b600d91501138610fbc565b8b516354c0901d60e11b81528990fd5b611152913d8091833e610b4a8183610235565b38610fa1565b6111709195508c8d3d10610b8757610b788183610235565b9338610f52565b8a5163670bdddd60e11b81528890fd5b8a5163812a698960e01b81528890fd5b6111ae9150853d8711610b8757610b788183610235565b38610f02565b855163265ba87960e01b81528390fd5b6111d991503d806000833e610b4a8183610235565b38610dff565b6111f69150863d8811610b8757610b788183610235565b38610db0565b855163670bdddd60e11b81528390fd5b8551639d17cec760e01b81528390fd5b6112339150833d8511610b8757610b788183610235565b38610d67565b9392919060006112538c6000526006602052604060002090565b55909a509390919293610e40565b8551632add3f4b60e01b81528390fd5b6112889150833d8511610b8757610b788183610235565b38610d12565b3461043b57602036600319011261043b5760206107916004356129c4565b6001600160401b0381116101a657601f01601f191660200190565b9291926112d3826112ac565b916112e16040519384610235565b82948184528183011161043b578281602093846000960137010152565b3461043b57604036600319011261043b576001600160401b0360043581811161043b5761132f9036906004016104df565b60249060243583811161043b573660238201121561043b57806004013592611356846104c8565b936113646040519586610235565b8085526020956024602087019260051b8501019336851161043b5760248101925b85841061139657610c718888612a05565b833583811161043b5782013660438201121561043b5789916113c28392369060448a82013591016112c7565b815201930192611385565b3461043b57602036600319011261043b576004356113ea816106de565b6113f2614e51565b6001600160a01b03908116801561144057600080546001600160a01b03198116831782559092167f8be0079c531659141344cd1fd0a4f28419497f9722a3daafe3b4186f6b6457e08380a380f35b604051631e4fbdf760e01b815260006004820152602490fd5b90600091808352602092600560205260408120936040519081602087549182815201968452602084209184905b8282106114ae57505050506114a18160409495960382610235565b9281526006602052205491565b835489529788019760019384019390910190611486565b634e487b7160e01b600052603260045260246000fd5b8051156114e85760200190565b6114c5565b80518210156114e85760209160051b010190565b91908110156114e85760051b81013590601e198136030182121561043b5701908135916001600160401b03831161043b57602001823603811361043b579190565b610a59905461013b565b9061155f602092828151948592016103bf565b0190565b81811061156e575050565b60008155600101611563565b90601f8211611587575050565b6102959160026000527f405787fa12a823e0f2b7631cc41b3ba8828b3321ca811111fa75cd3aa3bb5ace906020601f840160051c830193106115d1575b601f0160051c0190611563565b90915081906115c4565b9190601f81116115ea57505050565b610295926000526020600020906020601f840160051c830193106115d157601f0160051c0190611563565b91909182516001600160401b0381116101a65761163c81611636845461013b565b846115db565b602080601f831160011461167f57508190611670939495600092611674575b50508160011b916000199060031b1c19161790565b9055565b01519050388061165b565b90601f1983169561169585600052602060002090565b926000905b8882106116d2575050836001959697106116b9575b505050811b019055565b015160001960f88460031b161c191690553880806116af565b8060018596829496860151815501950193019061169a565b906117026020919493946040845260408401906103e2565b6001600160a01b03909416910152565b9081602091031261043b5751610a59816106de565b6040513d6000823e3d90fd5b5190610295826106de565b519061029582610b8e565b81601f8201121561043b57805161175f816112ac565b9261176d6040519485610235565b8184526020828401011161043b57610a5991602080850191016103bf565b60208183031261043b5780516001600160401b039182821161043b57016101a08184031261043b576117bb6104a8565b92815184526020820151602085015260408201516040850152606082015160608501526080820151608085015260a082015160a08501526117fe60c08301611733565b60c085015260e082015160e0850152610100808301519085015261012061182681840161173e565b9085015261014061183881840161173e565b9085015261016061184a81840161173e565b90850152610180928383015190811161043b576118679201611749565b9082015290565b6040519061187b8261018b565b60008252565b6040519061188e826101ab565b600f82526e226f757466697455706373223a205b60881b6020830152565b60236102959193929360405194816118ce8793518092602080870191016103bf565b8201601160f91b60208201526118ee8251809360206021850191016103bf565b0161088b60f21b6021820152036003810185520183610235565b9061029560336040518094702e9610113bb7b936322ab831b9911d101160791b60208301526119418151809260206031860191016103bf565b810161088b60f21b6031820152036013810185520183610235565b90604051918260605160005b81811061199d5750906020610295936119918294840191838301600081528151948592016103bf565b01038085520183610235565b6020919250806080015182828801015201908491611968565b60206102959193929360405194816119d787935180928680870191016103bf565b8201611991825180938680850191016103bf565b9060208282031261043b5781516001600160401b03811161043b57610a599201611749565b9081602091031261043b575190565b90610295603d60405180947f646174613a6170706c69636174696f6e2f6a736f6e3b6261736536342c0000006020830152611a6381518092602086860191016103bf565b810103601d810185520183610235565b6040805163507f146560e01b8082529093602092916001600160a01b038581169290918588600481875afa8015610b585782600091611af09a8391611f96575b50875163c44a8e6d60e01b81526001600160a01b038b16600482015260248101929092526000604483015290998a91908290879082906064820190565b0392165afa978815610b5857600098611f7b575b50875115611f6b57611b1461186e565b9361010089019384511515600014611efb57611b318a518a612d8e565b988951611ec4575b895115611d93575050505086611b4e9161483f565b958051611b5a906149a2565b918051611b6690614be1565b908251611b7290612bdf565b9051611b7d90612bdf565b906060840151611b8c90612bdf565b928888860151611b9b90612bdf565b950151611ba790612bdf565b958851809b8b8201611bb89161154c565b039a601f199b8c81018252611bcd9082610235565b611bd690614d68565b9851683d913730b6b2911d1160b91b9a81019a8b529b8c9a600901611bfa9161154c565b7211161011383937b23ab1ba2730b6b2911d101160691b8152601301611c1f9161154c565b731116101131b0ba32b3b7b93ca730b6b2911d101160611b8152601401611c459161154c565b6a111610113ab831911d101160a91b8152600b01611c629161154c565b6f1116101131b0ba32b3b7b93c911d101160811b8152601001611c849161154c565b6d1116101139bab838363c911d101160911b8152600e01611ca49161154c565b70111610113932b6b0b4b734b733911d101160791b8152601101611cc79161154c565b6c11161011383934b1b2911d101160991b8152600d01611ce69161154c565b6201116160ed1b8152600301611cfb9161154c565b7f226465736372697074696f6e223a2241207069656365206f662074686520426181527f6e6e797665727365222c22696d616765223a22646174613a696d6167652f737660208201526c19cade1b5b0ed8985cd94d8d0b609a1b6040820152604d01611d669161154c565b61227d60f01b8152600201039081018252611d819082610235565b611d8a90614d68565b610a5990611a1f565b9395509390959750600d919698505111600014611eb5578551636c0360eb60e01b8152600081600481885afa8015610b58578891600091611e92575b50955b600488518097819382525afa918215610b5857611e25968895600094611e73575b5051630c8df17160e41b81526001600160a01b0390921660048301526024820193909352948592839182906044820190565b0392165afa918215610b5857610a5993600093611e44575b50506145a8565b611e64929350803d10611e6c575b611e5c8183610235565b810190611a10565b903880611e3d565b503d611e52565b611e8b919450863d8811610b8757610b788183610235565b9238611df3565b611eaf91503d806000833e611ea78183610235565b8101906119eb565b38611dcf565b86611ebe610256565b95611dd2565b98611ed7906001875103611edd576144b5565b98611b39565b611ef690611ef1611eec612e8e565b6143ef565b6119b6565b6144b5565b979450611f088386612493565b97611f1284611459565b805190611f1d611881565b906000915b838310611f445750505050611f39611f3e91612bdf565b611908565b95611b39565b611f63600191611f5d611f5786866114ed565b51612bdf565b906118ac565b920191611f22565b5050505050505050610a5961186e565b611f8f91983d8091833e610b4a8183610235565b9638611b04565b611fad9150893d8b11610b8757610b788183610235565b38611ab3565b6000908082526020906008602052604083205490811561205b578184526005602052604084209260405180948591602082549182815201918852602088209388905b8282106120415750505061200b92500384610235565b825192845b84811061201f57505050505090565b8261202a82846114ed565b511461203857600101612010565b50505091505090565b855484526001958601958995509381019390910190611ff5565b50505090565b918060609160209396959660408652816040870152838601376000828286010152601f80199101168301019360018060a01b0316910152565b6040519061010082018281106001600160401b038211176101a65760405260dd82527f746820643d224d3138302031343768337633682d337a222f3e3c2f673e00000060e0837f3c6720636c6173733d226f223e3c7061746820643d224d31373720313430763360208201527f6836763131683130762d31316834762d33682d32307a222f3e3c70617468206460408201527f3d224d31353320313430763368377638203368372033762d31316833762d336860608201527f2d32307a222f3e3c2f673e3c6720636c6173733d2277223e3c7061746820643d60808201527f224d3135332031343368377634682d377a222f3e3c7061746820643d224d313560a08201527f372031343768337633682d337a6d32302d3468367634682d367a222f3e3c706160c08201520152565b604051906121d5826101c6565b61023a82527f643d224d3139302031333768347633682d347a222f3e3c2f673e000000000000610240837f3c6720636c6173733d226f223e3c7061746820643d224d31393020313237683360208201527f7633682d337a6d3320313368347633682d347a6d2d3432203068367636682d3660408201527f7a222f3e3c7061746820643d224d3135312031333368337637682d337a6d313060608201527f203068367634682d367a222f3e3c7061746820643d224d31353720313337683160808201527f377636682d31377a6d332031336831347633682d31347a6d31372d313368377660a08201527f3136682d377a222f3e3c7061746820643d224d3138342031333768367636682d60c08201527f367a6d302031306831307636682d31307a222f3e3c7061746820643d224d313860e08201527f37203134336831307634682d31307a222f3e3c7061746820643d224d313930206101008201527f31343068337633682d337a6d2d362d313068337637682d337a222f3e3c7061746101208201527f6820643d224d3138372031333068367633682d367a6d2d3336203068313076336101408201527f682d31307a6d313620313368377637682d377a6d2d3130203068377637682d376101608201527f7a222f3e3c7061746820643d224d3136342031343768337633682d337a6d32396101808201527f2d323068347636682d347a222f3e3c7061746820643d224d31393420313333686101a08201527f337637682d337a222f3e3c2f673e3c6720636c6173733d2277223e3c706174686101c08201527f20643d224d3135342031333368377634682d377a222f3e3c7061746820643d226101e08201527f4d3135342031333768337633682d337a6d3130203668337634682d337a6d32306102008201527f203068337634682d337a6d332d313068377634682d377a222f3e3c70617468206102208201520152565b60405163507f146560e01b81526001600160a01b036020826004818685165afa918215610b5857600092612603575b5060405163c44a8e6d60e01b81526001600160a01b0384166004820152602481018590526000604482018190529092909183916064918391165afa908115610b58576000916125ea575b508051156125df576060926101008201516125ba5792612571916001612558612537610a5997611459565b9490801515806125b3575b612599575b506125528451614e92565b906119b6565b91510361258d5761256b906125526121c8565b926152bb565b805161257e575b506144b5565b612587916119b6565b38612578565b61256b9061255261209a565b6125ad91506125a89088612d8e565b61195c565b38612547565b5083612542565b506125c792505190612d8e565b80516125d65750610a5961186e565b610a59906144b5565b505050610a5961186e565b6125fd913d8091833e610b4a8183610235565b3861250c565b60009192506126209060203d602011610b8757610b788183610235565b91906124c2565b60405163507f146560e01b81529390916001600160a01b036020866004818488165afa958615610b585760009661278d575b5060405163c44a8e6d60e01b81526001600160a01b0385166004820152602481018390526000604482018190529096909187916064918391165afa948515610b5857600095612772575b5084511561276557606090610100860151612755576126e6610a5996926126cb600193611459565b95811515908161274d575b5061273e57506125528451614e92565b91510361272c576126f9906125526121c8565b925b612707575b50506144b5565b612710916152bb565b805161271d575b80612700565b612726916119b6565b38612717565b6127389061255261209a565b926126fb565b6125ad91506125a89087612d8e565b9050386126d6565b50505090506125c7915190612d8e565b5050505050610a5961186e565b61278691953d8091833e610b4a8183610235565b93386126a3565b60009196506127aa9060203d602011610b8757610b788183610235565b9590612659565b906127ba614e51565b81519060009260005b8381106127d1575050505050565b6127db81836114ed565b516127e682856114ed565b51908087526020600181526040808920546128445782917fb10eb6fc7557a7109693cb8f3fac48d44328de56c0368ee4cac539b424d2cad9918561283860019897966000526001602052604060002090565b5551338152a3016127c3565b516333ded41b60e21b8152600490fd5b604051906101a082018281106001600160401b038211176101a657604052606061018083600080825280602083015280604083015280848301528060808301528060a08301528060c08301528060e08301528061010083015280610120830152806101408301526101608201520152565b91908110156114e85760051b0190565b634e487b7160e01b600052601160045260246000fd5b600281901b91906001600160fe1b0381160361290357565b6128d5565b906001600160401b0383116101a6576801000000000000000083116101a6578154838355808410612963575b50906000526020806000209060005b848110612951575050505050565b83358382015592810192600101612943565b61297b90836000528460206000209182019101611563565b38612934565b9081526060602082018190528101839052929392916001600160fb1b03811161043b5760409160809160051b8091838601378301019360018060a01b0316910152565b8060005260076020526040600020549081159081156129ec575b506129e65790565b50600090565b90508160005260066020526040600020541415386129de565b9190612a0f614e51565b82516000935b818510612a23575050509050565b612a2d85826114ed565b5194612a3981856114ed565b51958060005260039660209780895260409081600020908351906001600160401b0382116101a657612a7582612a6f855461013b565b856115db565b8b601f8311600114612af8575050917f9dedd219289ed514faff576c477c66bd097aef59a236e3b8ebcf0d0070cb4e969391612ad184612ae09560019a9b9c9d9e600091612aed57508160011b916000199060031b1c19161790565b90555b519182913390836116ea565b0390a20193929190612a15565b90508501513861090d565b909b601f198316612b0e85600052602060002090565b926000905b828210612b7d575050916001999a9b9c9d8492612ae097957f9dedd219289ed514faff576c477c66bd097aef59a236e3b8ebcf0d0070cb4e9699979510612b63575b505050881b88019055612ad4565b8601519060f884600019921b161c19169055388080612b55565b80600185968294968c01518155019501930190612b13565b604051612ba18161018b565b60008152906000368137565b90612bb7826112ac565b612bc46040519182610235565b8281528092612bd5601f19916112ac565b0190602036910137565b806000917a184f03e93ff9f4daa797ed6e38ed64bf6a1f01000000000000000080821015612d15575b506d04ee2d6d415b85acef810000000080831015612d06575b50662386f26fc1000080831015612cf7575b506305f5e10080831015612ce8575b5061271080831015612cd9575b506064821015612cc9575b600a80921015612cbf575b600190816021612c7760018701612bad565b95860101905b612c89575b5050505090565b600019019083906f181899199a1a9b1b9c1cb0b131b232b360811b8282061a835304918215612cba57919082612c7d565b612c82565b9160010191612c65565b9190606460029104910191612c5a565b60049193920491019138612c4f565b60089193920491019138612c42565b60109193920491019138612c33565b60209193920491019138612c21565b604093508104915038612c08565b90610295604960405180946c1e34b6b0b3b290343932b31e9160991b6020830152612d58815180926020602d860191016103bf565b81017f222077696474683d2234303022206865696768743d22343030222f3e00000000602d820152036029810185520183610235565b612daa612da5836000526004602052604060002090565b61031c565b8051612e88575060405163507f146560e01b81526001600160a01b039260209283836004818489165afa908115610b5857612e1d958594600093612e69575b50604051632f54648f60e21b81526001600160a01b0390921660048301526024820193909352948592839182906044820190565b0392165afa8015610b5857610a5992612e4792600092612e4c575b5050612e42610256565b6145a8565b612d23565b612e629250803d10611e6c57611e5c8183610235565b3880612e38565b612e81919350853d8711610b8757610b788183610235565b9138612de9565b91505090565b60405190612e9b826101e2565b61117a82527f762d31306833762d376833762d33682d31307a222f3e3c2f673e000000000000611180837f3c6720636c6173733d226131223e3c7061746820643d224d313733203533683460208201527f763137682d347a222f3e3c2f673e3c6720636c6173733d226132223e3c70617460408201527f6820643d224d3136372035376833763130682d337a222f3e3c7061746820643d60608201527f224d3136392035336834763137682d347a222f3e3c2f673e3c6720636c61737360808201527f3d226133223e3c7061746820643d224d31363720353368337634682d337a222f60a08201527f3e3c7061746820643d224d3136332035376834763130682d347a222f3e3c706160c08201527f746820643d224d31363720363768337633682d337a222f3e3c2f673e3c67206360e08201527f6c6173733d226231223e3c7061746820643d224d32313320323533682d33762d6101008201527f332d33682d33762d372d33682d34762d3130682d33762d372d372d33682d33766101208201527f2d3733682d34762d3130682d33762d3130682d33762d37682d34762d37682d336101408201527f762d33682d33762d33682d3476313068347631306833763130683376336834766101608201527f37203320373020336833763768337632306834763768337633683376336834766101808201527f34683376336833762d332d347a222f3e3c7061746820643d224d3235332033306101a08201527f37762d34682d33762d33682d33762d33682d34762d34682d33762d33682d33766101c08201527f2d33682d34762d34682d33762d33682d33762d33682d34762d34682d33762d366101e08201527f682d33762d37682d3476313768347633683376336833203476346833763368336102008201527f76336834763468337633683376336834763468337633683376336834762d36686102208201527f2d347a222f3e3c2f673e3c6720636c6173733d226232223e3c7061746820643d6102408201527f224d32353020333130762d33682d33762d34682d34762d33682d33762d33682d6102608201527f33762d34682d34762d33682d33762d33682d33762d34682d37762d33682d33766102808201527f2d33682d34762d3137682d33762d33682d33762d34682d34762d33682d33762d6102a08201527f33682d33762d37682d34762d3230682d33762d37682d33762d37332d332d37686102c08201527f2d34762d33682d33762d3130682d33762d3130682d34563730682d33762d336c6102e08201527f2d332031303020332d313030763430682d33763130682d347636682d337631346103008201527f682d337633203133682d347634346834763136683376313468337631336834766103208201527f31306833763768337633683476336833763468337633683476336833763468336103408201527f76336834763368337637683776376836763368377633683776346831337633686103608201527f337633683130762d33682d337a6d2d3130332d3837762d31366833762d3130686103808201527f2d337636682d34763137682d337631306833762d3768347a222f3e3c706174686103a08201527f20643d224d3134332032333068347637682d347a6d3420313068337633682d336103c08201527f7a6d33203768337633682d337a6d33203668347634682d347a222f3e3c7061746103e08201527f6820643d224d31363320323537682d36763368337633683376346834762d342d6104008201527f33682d34762d337a222f3e3c2f673e3c6720636c6173733d226233223e3c70616104208201527f746820643d224d3134332031393776366834762d366836762d34346834762d316104408201527f366833762d31346833762d366834762d31306833563937682d377636682d33766104608201527f34682d337633682d347633682d3376342033682d3376332034682d34763130686104808201527f2d337631362034682d337634366833762d3668337a222f3e3c7061746820643d6104a08201527f224d313430203230336833763137682d337a222f3e3c7061746820643d224d316104c08201527f3337203232306833763130682d337a222f3e3c7061746820643d224d313533206104e08201527f323530682d33762d37682d33762d36682d34762d37682d3376313068337637686105008201527f347636683376346833762d377a6d2d3320313068337637682d337a222f3e3c706105208201527f61746820643d224d3134372032353768337633682d337a6d36203068347633686105408201527f2d347a222f3e3c7061746820643d224d31363020323633762d33682d337633206105608201527f376836762d37682d337a6d2d31302d3536763136682d337637683376313068336105808201527f763768347636683676346837762d342d33682d33762d3130682d34762d3133686105a08201527f2d33762d3134682d33762d3136682d34763130682d337a222f3e3c70617468206105c08201527f643d224d32343320333133762d33682d33762d33682d31302d33762d34682d376105e08201527f762d33682d37762d33682d36762d37682d37762d37682d33762d33682d34762d6106008201527f33682d33762d34682d33762d33682d34762d33682d33762d34682d33762d33686106208201527f2d34762d33682d33763130682d337633682d347633682d3376376833763768346106408201527f76366833763568347633683676336833763368342033763368332034763368336106608201527f20337634683130763368372037203376336831302033762d33683130762d33686106808201527f34762d34682d31347a222f3e3c2f673e3c6720636c6173733d226234223e3c706106a08201527f61746820643d224d3138332031333068347637682d347a222f3e3c70617468206106c08201527f643d224d3138302031323768337633682d337a6d2d32372d3468347637682d346106e08201527f7a222f3e3c7061746820643d224d3135372031313768337636682d337a222f3e6107008201527f3c7061746820643d224d3136302031313068337637682d337a222f3e3c7061746107208201527f6820643d224d3136332031303768347633682d347a6d2d3320383368337637686107408201527f2d337a222f3e3c7061746820643d224d3136332031383768347633682d347a6d6107608201527f3230203068377633682d377a222f3e3c7061746820643d224d313830203139306107808201527f68337633682d337a6d31302d3768337634682d337a222f3e3c7061746820643d6107a08201527f224d3139332031383768347636682d347a6d2d323020353368347637682d347a6107c08201527f222f3e3c7061746820643d224d3137372032343768337636682d337a222f3e3c6107e08201527f7061746820643d224d3138302032353368337637682d337a222f3e3c706174686108008201527f20643d224d3138332032363068377633682d377a222f3e3c7061746820643d226108208201527f4d3139302032363368337634682d337a6d302d323068337634682d337a222f3e6108408201527f3c7061746820643d224d3138372032343068337633682d337a222f3e3c7061746108608201527f6820643d224d3139302032333768337633682d337a6d313320323368347633686108808201527f2d347a222f3e3c7061746820643d224d3230372032363368337637682d337a226108a08201527f2f3e3c7061746820643d224d3231302032373068337633682d337a6d2d3130206108c08201527f3768337636682d337a222f3e3c7061746820643d224d323033203238336834766108e08201527f37682d347a222f3e3c7061746820643d224d3230372032393068367633682d366109008201527f7a222f3e3c2f673e3c6720636c6173733d226f223e3c7061746820643d224d316109208201527f3333203135376834763530682d347a6d302036336834763130682d347a6d32376109408201527f2d3136336833763130682d337a222f3e3c7061746820643d224d3136332035336109608201527f68347634682d347a222f3e3c7061746820643d224d31363720353068313076336109808201527f682d31307a222f3e3c7061746820643d224d3137372035336833763137682d336109a08201527f7a222f3e3c7061746820643d224d3137332037306834763237682d347a6d2d366109c08201527f20306833763237682d337a222f3e3c7061746820643d224d31363320363768346109e08201527f7633682d347a6d3020333068347633682d347a222f3e3c7061746820643d224d610a008201527f3136302031303068337633682d337a222f3e3c7061746820643d224d31353720610a208201527f31303368337634682d337a222f3e3c7061746820643d224d3135332031303768610a408201527f347633682d347a222f3e3c7061746820643d224d313530203131306833763368610a608201527f2d337a222f3e3c7061746820643d224d3134372031313368337637682d337a22610a808201527f2f3e3c7061746820643d224d3134332031323068347637682d347a222f3e3c70610aa08201527f61746820643d224d313430203132376833763130682d337a222f3e3c70617468610ac08201527f20643d224d313337203133376833763230682d337a6d35362d31306834763130610ae08201527f682d347a222f3e3c7061746820643d224d313930203131376833763130682d33610b008201527f7a222f3e3c7061746820643d224d3138372031313068337637682d337a222f3e610b208201527f3c7061746820643d224d3138332031303368347637682d347a222f3e3c706174610b408201527f6820643d224d3138302031303068337633682d337a222f3e3c7061746820643d610b608201527f224d31373720393768337633682d337a6d2d3430203130366833763137682d33610b808201527f7a6d302032376833763130682d337a6d313020333068337637682d337a222f3e610ba08201527f3c7061746820643d224d31353020323537762d34682d33762d36682d34762d37610bc08201527f682d3376313068337631306834762d3368337a222f3e3c7061746820643d224d610be08201527f3135302032353768337633682d337a222f3e3c7061746820643d224d31363320610c008201527f323733762d33682d36762d3130682d347637682d337633683376336834763768610c208201527f33762d3768337a222f3e3c7061746820643d224d313633203236376834763368610c408201527f2d347a222f3e3c7061746820643d224d31373020323537682d332d3476336834610c608201527f76376833762d31307a222f3e3c7061746820643d224d31353720323533683676610c808201527f34682d367a222f3e3c7061746820643d224d3135332032343768347636682d34610ca08201527f7a222f3e3c7061746820643d224d3135302032343068337637682d337a222f3e610cc08201527f3c7061746820643d224d313437203233306833763130682d337a6d3133203530610ce08201527f68337637682d337a222f3e3c7061746820643d224d3134332032323368347637610d008201527f682d347a222f3e3c7061746820643d224d313437203230376833763136682d33610d208201527f7a222f3e3c7061746820643d224d313530203139376833763130682d337a6d2d610d408201527f3130203068337636682d337a6d35302031313368377633682d377a6d32332031610d608201527f306831377633682d31377a222f3e3c7061746820643d224d3233302033323368610d808201527f31337634682d31337a222f3e3c7061746820643d224d32343320333230683130610da08201527f7633682d31307a222f3e3c7061746820643d224d323533203331376834763368610dc08201527f2d347a222f3e3c7061746820643d224d323537203330376833763130682d337a610de08201527f222f3e3c7061746820643d224d3235332033303368347634682d347a222f3e3c610e008201527f7061746820643d224d3235302033303068337633682d337a222f3e3c70617468610e208201527f20643d224d3234372032393768337633682d337a222f3e3c7061746820643d22610e408201527f4d3234332032393368347634682d347a222f3e3c7061746820643d224d323430610e608201527f2032393068337633682d337a222f3e3c7061746820643d224d32333720323837610e808201527f68337633682d337a222f3e3c7061746820643d224d3233332032383368347634610ea08201527f682d347a222f3e3c7061746820643d224d3233302032383068337633682d337a610ec08201527f222f3e3c7061746820643d224d3232372032373768337633682d337a222f3e3c610ee08201527f7061746820643d224d3232332032373368347634682d347a222f3e3c70617468610f008201527f20643d224d3232302032363768337636682d337a222f3e3c7061746820643d22610f208201527f4d3231372032363068337637682d337a222f3e3c7061746820643d224d323133610f408201527f2032353368347637682d347a222f3e3c7061746820643d224d32313020323437610f608201527f68337636682d337a222f3e3c7061746820643d224d3230372032333768337631610f808201527f30682d337a222f3e3c7061746820643d224d323033203232376834763130682d610fa08201527f347a6d2d343020363068347636682d347a6d323420323068337633682d337a22610fc08201527f2f3e3c7061746820643d224d3136372032393368337635682d337a6d31362031610fe08201527f3468347633682d347a222f3e3c7061746820643d224d313730203239386834766110008201527f33682d347a6d3130203668337633682d337a222f3e3c7061746820643d224d316110208201527f37342033303168367633682d367a6d323320313268367634682d367a222f3e3c6110408201527f7061746820643d224d323033203331376831307633682d31307a6d2d322d31306110608201527f37762d3733682d3476373368337631376833762d3137682d327a222f3e3c2f676110808201527f3e3c6720636c6173733d226f223e3c7061746820643d224d31383720333037766110a08201527f2d346833762d36682d33762d34682d34762d33682d33762d33682d37762d34686110c08201527f2d367634682d3476336834763237682d34763133682d33763130682d347637686110e08201527f3476336833203130203134762d33682d34762d34682d33762d33682d33762d336111008201527f682d34762d376834762d31306833762d376833762d336837762d33682d337a6d6111208201527f3136203130762d34682d36763137682d34763130682d337637683376336834206111408201527f3620342033203134762d33682d34762d34682d37762d33682d33762d33682d336111608201520152565b90610295609a60405180947f3c7374796c653e2e6f7b66696c6c3a233830383038303b7d2e62327b66696c6c60208301527f3a6e6f6e653b7d2e62337b66696c6c3a6e6f6e653b7d2e62347b66696c6c3a6e60408301527f6f6e653b7d2e61317b66696c6c3a6e6f6e653b7d2e61327b66696c6c3a6e6f6e60608301527f653b7d2e61337b66696c6c3a6e6f6e653b7d3c2f7374796c653e00000000000060808301526144a581518092602086860191016103bf565b810103607a810185520183610235565b9061029560ba60405180947f3c7376672077696474683d2234303022206865696768743d223430302220766960208301527f6577426f783d223020302034303020343030222066696c6c3d226e6f6e65222060408301527f786d6c6e733d22687474703a2f2f7777772e77332e6f72672f323030302f737660608301527f67223e3c7374796c653e2e6f7b66696c6c3a233035303530353b7d2e777b666960808301527336361d11b31cb31cb31c9dbe9e17b9ba3cb6329f60611b60a083015261458981518092602060b4860191016103bf565b8101651e17b9bb339f60d11b60b482015203609a810185520183610235565b90610a59906145d6604051602092609160f51b848301526022820152602281526145d1816101fe565b6154ee565b9260405193816145ef86935180928680870191016103bf565b8201614603825180938680850191016103bf565b01038084520182610235565b9061029560216040518461462d8296518092602080860191016103bf565b8101600160fd1b6020820152036001810185520183610235565b6102959161469d9493602b9260405196879360209261466e8151809286808a0191016103bf565b8501614682825180938680850191016103bf565b0191602f60f81b8184015283519384916021850191016103bf565b01692072656d61696e696e6760b01b602182015203600b810185520183610235565b60379061029592949360405195826146e18894518092602080880191016103bf565b83016b0101429a7a6221027aaaa14960a51b602082015261470c825180936020602c850191016103bf565b01602f60f81b602c82015261472b825180936020602d850191016103bf565b01692072656d61696e696e6760b01b602d820152036017810185520183610235565b610295916147a294936021926040519687936020926147748151809286808a0191016103bf565b8501614788825180938680850191016103bf565b0191602f60f81b81840152835193849187850191016103bf565b01036001810185520183610235565b906102956023604051846147cf8296518092602080860191016103bf565b8101620101d160ed1b6020820152036003810185520183610235565b602561029591939293604051948161480d8793518092602080870191016103bf565b820164555043202360d81b602082015261483082518093602087850191016103bf565b01036005810185520183610235565b9061488b610a5992633b9aca0061485e61485985516149a2565b61460f565b910680156148c8579061487361488692612bdf565b6148806060860151612bdf565b9161474d565b6147b1565b9061489a610100820151614be1565b80516148b2575b506148ac9051612bdf565b906147eb565b6148ac9192506148c19061460f565b91906148a1565b506040830190815180156000146148fa57506148e76148869251612bdf565b6148f46060860151612bdf565b916146bf565b614886925061490890612bdf565b6149156060860151612bdf565b91614647565b60405190614928826101ab565b600882526713dc9a59da5b985b60c21b6020830152565b6040519061494c826101ab565b60068252654f72616e676560d01b6020830152565b6040519061496e826101ab565b600482526350696e6b60e01b6020830152565b6040519061498e826101ab565b600582526420b634b2b760d91b6020830152565b600181036149b35750610a59614981565b600281036149c45750610a59614961565b600381036149d55750610a5961493f565b600481036149e65750610a5961491b565b6000526003602052610a59604060002061031c565b60405190614a08826101ab565b6007825266546f7070696e6760c81b6020830152565b60405190614a2b826101ab565b6004825263119a5cdd60e21b6020830152565b60405190614a4b826101ab565b600b82526a5375697420626f74746f6d60a81b6020830152565b60405190614a72826101ab565b600882526705375697420746f760c41b6020830152565b60405190614a96826101ab565b600482526314dd5a5d60e21b6020830152565b60405190614ab6826101ab565b60048252631219585960e21b6020830152565b60405190614ad6826101ab565b600882526704865616420746f760c41b6020830152565b60405190614afa826101ab565b600582526409adeeae8d60db1b6020830152565b60405190614b1b826101ab565b6007825266476c617373657360c81b6020830152565b60405190614b3e826101ab565b60088252674e65636b6c61636560c01b6020830152565b60405190614b62826101ab565b60048252634c65677360e01b6020830152565b60405190614b82826101ab565b60088252674261636b7369646560c01b6020830152565b60405190614ba6826101ab565b600582526415dbdc9b1960da1b6020830152565b60405190614bc7826101ab565b600b82526a4e616b65642042616e6e7960a81b6020830152565b80614bef5750610a59614bba565b60018103614c005750610a59614b99565b60028103614c115750610a59614b75565b60078103614c225750610a59614b55565b60038103614c335750610a59614b31565b60058103614c445750610a59614b0e565b60068103614c555750610a59614aed565b600b8103614c665750610a59614ac9565b60048103614c775750610a59614aa9565b60088103614c885750610a59614a89565b600a8103614c995750610a59614a65565b60098103614caa5750610a59614a3e565b600c8103614cbb5750610a59614a1e565b600d14614cca57610a5961186e565b610a596149fb565b60405190614cdf826101fe565b604082527f6768696a6b6c6d6e6f707172737475767778797a303132333435363738392b2f6040837f4142434445464748494a4b4c4d4e4f505152535455565758595a61626364656660208201520152565b906002820180921161290357565b906020820180921161290357565b906001820180921161290357565b9190820180921161290357565b805115614e4857614d77614cd2565b614d93614d8e614d878451614d31565b6003900490565b6128eb565b91614da5614da084614d3f565b612bad565b92835280815182019060208501935b828210614df657505050600390510680600114614de557600214614dd6575090565b603d60f81b6000199091015290565b50613d3d60f01b6001199091015290565b9091936004906003809401938451600190603f9082828260121c16880101518553828282600c1c16880101518386015382828260061c1688010151600286015316850101519082015301939190614db4565b50610a5961186e565b6000546001600160a01b0390811681614e6861598b565b1603614e715750565b602490614e7c61598b565b60405163118cdaa760e01b815291166004820152fd5b614e9b9061585f565b92614eaa969596929192612e8e565b9460405197889760208901703c7374796c653e2e62317b66696c6c3a2360781b90528051908160318b019160200191614ee2926103bf565b8801603181016b3b7d2e62327b66696c6c3a2360a01b905281519182603d83019160200191614f10926103bf565b01603d81016b3b7d2e62337b66696c6c3a2360a01b905281519182604983019160200191614f3d926103bf565b0160498101614f5a906b3b7d2e62347b66696c6c3a2360a01b9052565b605501614f669161154c565b6b3b7d2e61317b66696c6c3a2360a01b8152600c01614f849161154c565b6b3b7d2e61327b66696c6c3a2360a01b8152600c01614fa29161154c565b6b3b7d2e61337b66696c6c3a2360a01b8152600c01614fc09161154c565b691dbe9e17b9ba3cb6329f60b11b8152600a01614fdc9161154c565b03601f1981018252610a599082610235565b60405190614ffb82610219565b61019c82527f6820643d224d3139332031373068347633682d347a222f3e3c2f673e000000006101a0837f3c6720636c6173733d226f223e3c7061746820643d224d31393020313733682d60208201527f3337762d33682d3130762d34682d36763468337633682d33763468367633683160408201527f307634683337762d346833762d33682d33762d347a6d2d34302034682d33762d60608201527f34683376347a6d372033762d3368337633682d337a6d362030762d336834763360808201527f682d347a6d372030762d3368337633682d337a6d372030762d3368337633682d60a08201527f337a6d31302030682d34762d33683476337a222f3e3c7061746820643d224d3160c08201527f39302031373068337633682d337a222f3e3c7061746820643d224d313933203160e08201527f363668347634682d347a6d30203768347634682d347a222f3e3c2f673e3c67206101008201527f636c6173733d2277223e3c7061746820643d224d3133372031373068337633686101208201527f2d337a6d3130203368337634682d337a6d3130203468337633682d337a6d36206101408201527f3068347633682d347a6d37203068337633682d337a6d37203068337633682d336101608201527f7a6d36203068347633682d347a6d372d3468337634682d337a222f3e3c7061746101808201520152565b6040519060c082018281106001600160401b038211176101a65760405260818252601f60f91b60a0837f3c6720636c6173733d226f223e3c7061746820643d224d31383320313630762d60208201527f34682d32307634682d33763368337634683234762d37682d347a6d2d3133203360408201527f762d336831307633682d31307a222066696c6c3d2223616437316338222f3e3c60608201527f7061746820643d224d313730203136306831307633682d31307a222f3e3c2f6760808201520152565b8151606093926000928392600392849184811015615481576152dc81614d4d565b955b8681106152ef575050505050505050565b818110156154755761530181846114ed565b516040805163507f146560e01b8152919591600491906001600160a01b036020808386818e86165afa918215610b585761537f956000958c958e948896615456575b50505163c44a8e6d60e01b81526001600160a01b0390931690830190815260208101949094526000604085015290948593849291839160600190565b0392165afa8015610b58576101009160009161543d575b500151985b89880361540e57506001985b6006908082036153df575050506001935b806153c7575b506001016152de565b6001919a6125526153d89288612d8e565b99906153be565b9591951180615406575b156153b8579350986153fd906125526151f6565b986001936153b8565b5084156153e9565b9887811180615435575b156153a75798509961542c90612552614fee565b996001986153a7565b508915615418565b615450913d8091833e610b4a8183610235565b38615396565b61546d929650803d10610b8757610b788183610235565b933880615343565b6007979360009461539b565b80956152de565b604051906105e082018281106001600160401b038211176101a657604052602e82526105c0366020840137565b906154bf826104c8565b6154cc6040519182610235565b8281528092612bd5601f19916104c8565b9081518110156114e8570160200190565b90815115615615576154fe615488565b91600090600061550d856114db565b526001918151916000925b80841061553e575050505061553461553991610a5993946159e4565b615a27565b615a6e565b9091929461556f61556961556361555589876154dd565b516001600160f81b03191690565b60f81c90565b60ff1690565b9184925b60ff90898289168610156155d457600192916155a86155a261556961559b8a6155ae966114ed565b5160ff1690565b60081b90565b90614d5b565b6155cb8b6155c388603a9586860616926114ed565b9060ff169052565b04930192615573565b50919594935050809691965b6155ee575060010192615518565b9460ff6001603a9261560b83858b06166155c38d868516906114ed565b01169504806155e0565b9050610a59612b95565b6040519061562c826101ab565b600682526506666653930360d41b6020830152565b6040519061564e826101ab565b600682526506666633730360d41b6020830152565b60405190615670826101ab565b600682526566336136303360d01b6020830152565b60405190615692826101ab565b600682526539363561316160d01b6020830152565b604051906156b4826101ab565b600682526533331bb1981960d11b6020830152565b604051906156d6826101ab565b600682526506664333630360d41b6020830152565b604051906156f8826101ab565b600682526518cccc994c1960d21b6020830152565b6040519061571a826101ab565b600682526566666438633560d01b6020830152565b6040519061573c826101ab565b600682526566663936613960d01b6020830152565b6040519061575e826101ab565b600682526533329a9c1c3160d11b6020830152565b60405190615780826101ab565b600682526563393266343560d01b6020830152565b604051906157a2826101ab565b600682526536376437353760d01b6020830152565b604051906157c4826101ab565b600682526503330613232360d41b6020830152565b604051906157e6826101ab565b600682526532313761313560d01b6020830152565b60405190615808826101ab565b60048252636e6f6e6560e01b6020830152565b60405190615828826101ab565b6006825265329a1c19b2b360d11b6020830152565b6040519061584a826101ab565b60068252653231993332b360d11b6020830152565b600181036158a65750615870615795565b906158796157b7565b906158826157d9565b9061588b6157fb565b9061589461581b565b9061589d61583d565b90610a5961583d565b600281036158ed57506158b761570d565b906158c061572f565b906158c9615751565b906158d2615773565b906158db61570d565b906158e461572f565b90610a59615751565b6003810361593457506158fe615663565b906159076156a7565b906159106156c9565b906159196156eb565b90615922615663565b9061592b6156a7565b90610a596156c9565b60041461594d57604051633b9cb79b60e21b8152600490fd5b61595561561f565b9061595e615641565b90615967615663565b90615970615685565b9061597961561f565b90615982615641565b90610a59615663565b337f00000000000000000000000000000000000000000000000000000000000000006001600160a01b031614806159d9575b156159d5576013193601368111612903573560601c90565b3390565b5060143610156159bd565b9060ff809116906159f4826154b5565b9260005b838110615a06575050505090565b8083615a14600193856114ed565b5116615a2082886114ed565b52016159f8565b908151615a33816154b5565b9060005b818110615a45575090925050565b60019060ff615a5b6000198389510301886114ed565b5116615a6782866114ed565b5201615a37565b8051615a79816112ac565b91604090615a8a6040519485610235565b828452615a96836112ac565b602090601f1901368683013760009260005b858110615ab85750505050505090565b6001908251615ac6816101fe565b603a81527f31323334353637383941424344454647484a4b4c4d4e50515253545556575859858201527f5a6162636465666768696a6b6d6e6f707172737475767778797a000000000000848201526001600160f81b031990615b369060ff615b2e858a6114ed565b5116906154dd565b5116861a615b44828a6154dd565b5301615aa856fea2646970667358221220165dde1521bdefb24692e2fc8010fc85b436c385af8cbb625aed6c7ec1705ed264736f6c63430008170033",
			"deployedBytecode": "0x6080604052600436101561001257600080fd5b60003560e01c806257bfdd146101365780631e4578de1461013157806331a290ac1461012c578063572b6c05146101275780635e703e711461012257806360b805411461011d5780636aff31dd14610118578063715018a6146101135780637da0a8771461010e578063875e4bea146101095780638da5cb5b14610104578063a0122c09146100ff578063a22d0dd5146100fa578063b03a3eab146100f5578063c06e7bc7146100f0578063c2f1f14a146100eb578063d756227e146100e65763f2fde38b146100e157600080fd5b6113cd565b6112fe565b61128e565b610c82565b610bdd565b610b98565b610a5c565b6109f9565b610868565b610823565b6107c5565b610799565b610773565b610747565b6106ef565b61056f565b610440565b610407565b90600182811c9216801561016b575b602083101461015557565b634e487b7160e01b600052602260045260246000fd5b91607f169161014a565b634e487b7160e01b600052604160045260246000fd5b602081019081106001600160401b038211176101a657604052565b610175565b604081019081106001600160401b038211176101a657604052565b61026081019081106001600160401b038211176101a657604052565b6111a081019081106001600160401b038211176101a657604052565b606081019081106001600160401b038211176101a657604052565b6101c081019081106001600160401b038211176101a657604052565b90601f801991011681019081106001600160401b038211176101a657604052565b604051906000826002549161026a8361013b565b808352926020906001908181169081156102f85750600114610297575b505061029592500383610235565b565b91509260026000527f405787fa12a823e0f2b7631cc41b3ba8828b3321ca811111fa75cd3aa3bb5ace936000925b8284106102e057506102959450505081016020013880610287565b855488850183015294850194879450928101926102c5565b9150506020925061029594915060ff191682840152151560051b8201013880610287565b9060405191826000825461032f8161013b565b9081845260209460019160018116908160001461039d575060011461035e575b50505061029592500383610235565b600090815285812095935091905b818310610385575050610295935082010138808061034f565b8554888401850152948501948794509183019161036c565b9250505061029594925060ff191682840152151560051b82010138808061034f565b60005b8381106103d25750506000910152565b81810151838201526020016103c2565b906020916103fb815180928185528580860191016103bf565b601f01601f1916010190565b3461043b57600036600319011261043b57610437610423610256565b6040519182916020835260208301906103e2565b0390f35b600080fd5b3461043b5760208060031936011261043b5761045d600435611459565b6040519283926040840190845260406020850152825180915260206060850193019160005b82811061049157505050500390f35b835185528695509381019392810192600101610482565b604051906101a082018281106001600160401b038211176101a657604052565b6001600160401b0381116101a65760051b60200190565b9080601f8301121561043b5760209082356104f9816104c8565b936105076040519586610235565b81855260208086019260051b82010192831161043b57602001905b828210610530575050505090565b81358152908301908301610522565b9181601f8401121561043b578235916001600160401b03831161043b576020808501948460051b01011161043b57565b3461043b5760408060031936011261043b576004906001600160401b03823581811161043b576105a290369085016104df565b9060243590811161043b576105ba903690850161053f565b92909180519360005b8581106105cc57005b6105d681846114ed565b516105ec6105e5838589611501565b36916112c7565b610608610603836000526004602052604060002090565b611542565b6106ce57610620826000526001602052604060002090565b5480156106be578651602081019061064a8161063c848761154c565b03601f198101835282610235565b519020036106ae57907faeb631726b45aa3f6b09da79f7af03a9784614901f61a967ed84d63c37b7edc76106a58361069860019695610693866000526004602052604060002090565b611615565b88519182913390836116ea565b0390a2016105c3565b85516375b5da0b60e01b81528990fd5b8651637ef41a4f60e01b81528a90fd5b8551630388067760e21b81528990fd5b6001600160a01b0381160361043b57565b3461043b57602036600319011261043b57602060043561070e816106de565b6040517f000000000000000000000000b2b5841dbef766d4b521221732f9b618fcf34a876001600160a01b039081169216919091148152f35b3461043b57604036600319011261043b5761043761042360043561076a816106de565b60243590611a73565b3461043b57602036600319011261043b576020610791600435611fb3565b604051908152f35b3461043b57602036600319011261043b5760043560005260016020526020604060002054604051908152f35b3461043b57600080600319360112610820576107df614e51565b80546001600160a01b03198116825581906001600160a01b03167f8be0079c531659141344cd1fd0a4f28419497f9722a3daafe3b4186f6b6457e08280a380f35b80fd5b3461043b57600036600319011261043b576040517f000000000000000000000000b2b5841dbef766d4b521221732f9b618fcf34a876001600160a01b03168152602090f35b3461043b5760208060031936011261043b576004356001600160401b0380821161043b573660238301121561043b57816004013590811161043b57602492366024838501011161043b576108ba614e51565b6108ce826108c960025461013b565b61157a565b600093601f831160011461094c57505061092181807f512c3c91736f50c57a0548c1d01ab02f24c420f002b8b20e2bfe63df9693cd3f9560009161093e575b508160011b916000199060031b1c19161790565b6002555b610939604051928392602433920184612061565b0390a1005b60249150850101353861090d565b6002600052601f19831694907f405787fa12a823e0f2b7631cc41b3ba8828b3321ca811111fa75cd3aa3bb5ace9282915b8783106109dd57505050827f512c3c91736f50c57a0548c1d01ab02f24c420f002b8b20e2bfe63df9693cd3f95106109c0575b5050600181811b01600255610925565b830160240135600019600384901b60f8161c1916905538806109b0565b908060018596848396978b01013581550195019301919061097d565b3461043b57600036600319011261043b576000546040516001600160a01b039091168152602090f35b91610a4b90610a3d610a5995936060865260608601906103e2565b9084820360208601526103e2565b9160408184039101526103e2565b90565b3461043b57604036600319011261043b57600435610a79816106de565b60405163507f146560e01b815260243591906001600160a01b03906020816004818587165afa8015610b5857610af09360009386938593610b5d575b5060405163c44a8e6d60e01b81526001600160a01b039092166004830152602482019390935260006044820152938492839182906064820190565b0392165afa908115610b5857600091610b35575b50610437610b29610b23610100610b1b858761483f565b940151614be1565b936149a2565b60405193849384610a22565b610b5291503d806000833e610b4a8183610235565b81019061178b565b38610b04565b611727565b610b8091935060203d602011610b87575b610b788183610235565b810190611712565b9138610ab5565b503d610b6e565b8015150361043b57565b3461043b57608036600319011261043b57610437610423600435610bbb816106de565b604435610bc781610b8e565b60643591610bd483610b8e565b60243590612627565b3461043b57604036600319011261043b576001600160401b0360043581811161043b57610c0e9036906004016104df565b9060243590811161043b573660238201121561043b578060040135610c32816104c8565b91610c406040519384610235565b8183526020916024602085019160051b8301019136831161043b57602401905b828210610c7357610c7185876127b1565b005b81358152908301908301610c60565b3461043b57608036600319011261043b5760048035610ca0816106de565b60243590604435926064356001600160401b03811161043b57610cc6903690830161053f565b94909160018060a01b0380851694604092610cfe8451926331a9108f60e11b938481528a818060209586938883019190602083019252565b03818d5afa908115610b5857600091611271575b5085610d2b610d1f61598b565b6001600160a01b031690565b911603611261578a871561123957508551848152828180610d538b8883019190602083019252565b03818d5afa908115610b585760009161121c575b5085610d74610d1f61598b565b91160361120c57610d84876129c4565b6111fc57855163507f146560e01b8152828185818d5afa8015610b5857610deb600091889383916111df575b50895163c44a8e6d60e01b81526001600160a01b038616888201908152602081018d9052600060408201529094859384928391606090910190565b0392165afa908115610b58576000916111c4575b5051156111b457908a93929187610e208c6000526006602052604060002090565b558a610e36896000526007602052604060002090565b55909a5093909192935b600091610e4b612854565b5060009b60009260005b888110610ebc578d8d7f6a68946ba06488db8585d7c7637fa954b574035fe15720ea760125ef860172588e8e610eb78f8f610ea48186610e9f8b6000526005602052604060002090565b612908565b610eac61598b565b915194859485612981565b0390a3005b889e610eef848f8f908b8f928e9f8890610ed5926128c5565b359e8f935195869485938493845283019190602083019252565b03915afa908115610b5857600091611197575b5085610f0f610d1f61598b565b91160361118757610f1f8a611fb3565b6111775787848f8d519283809263507f146560e01b82525afa8015610b58578b600091868f8d8b91610f8d978795611158575b505163c44a8e6d60e01b81526001600160a01b0390931690830190815260208101949094526000604085015290948593849291839160600190565b0392165afa908115610b585760009161113f575b5080511561112f576101000196875160028110908115611124575b50611114578215159081611108575b506110f857908f98979695949392918f9087518981146000146110195750509060019161100683985b519c6000526008602052604060002090565b550190919293949e509794959697610e55565b600891999a9b50809250969293949596146000146110495750509060018f989796959493928f6110068397610ff4565b979f9d9b9998979a9e9c9a6005819792971480156110ee575b80156110e4575b806110dd575b1561108457508f8f51631e550b6f60e11b8152fd5b9d9f9798999b9d9c9e9a9c600a81149081156110d2575b50806110cb575b6110bb578f98979695949392918f611006600193610ff4565b8a51635e701b2b60e01b81528890fd5b50856110a2565b60099150143861109b565b508761106f565b50600b8114611069565b5060068114611062565b8a51637dc0e82560e11b81528890fd5b90508751111538610fcb565b8b5163c89badbd60e01b81528990fd5b600d91501138610fbc565b8b516354c0901d60e11b81528990fd5b611152913d8091833e610b4a8183610235565b38610fa1565b6111709195508c8d3d10610b8757610b788183610235565b9338610f52565b8a5163670bdddd60e11b81528890fd5b8a5163812a698960e01b81528890fd5b6111ae9150853d8711610b8757610b788183610235565b38610f02565b855163265ba87960e01b81528390fd5b6111d991503d806000833e610b4a8183610235565b38610dff565b6111f69150863d8811610b8757610b788183610235565b38610db0565b855163670bdddd60e11b81528390fd5b8551639d17cec760e01b81528390fd5b6112339150833d8511610b8757610b788183610235565b38610d67565b9392919060006112538c6000526006602052604060002090565b55909a509390919293610e40565b8551632add3f4b60e01b81528390fd5b6112889150833d8511610b8757610b788183610235565b38610d12565b3461043b57602036600319011261043b5760206107916004356129c4565b6001600160401b0381116101a657601f01601f191660200190565b9291926112d3826112ac565b916112e16040519384610235565b82948184528183011161043b578281602093846000960137010152565b3461043b57604036600319011261043b576001600160401b0360043581811161043b5761132f9036906004016104df565b60249060243583811161043b573660238201121561043b57806004013592611356846104c8565b936113646040519586610235565b8085526020956024602087019260051b8501019336851161043b5760248101925b85841061139657610c718888612a05565b833583811161043b5782013660438201121561043b5789916113c28392369060448a82013591016112c7565b815201930192611385565b3461043b57602036600319011261043b576004356113ea816106de565b6113f2614e51565b6001600160a01b03908116801561144057600080546001600160a01b03198116831782559092167f8be0079c531659141344cd1fd0a4f28419497f9722a3daafe3b4186f6b6457e08380a380f35b604051631e4fbdf760e01b815260006004820152602490fd5b90600091808352602092600560205260408120936040519081602087549182815201968452602084209184905b8282106114ae57505050506114a18160409495960382610235565b9281526006602052205491565b835489529788019760019384019390910190611486565b634e487b7160e01b600052603260045260246000fd5b8051156114e85760200190565b6114c5565b80518210156114e85760209160051b010190565b91908110156114e85760051b81013590601e198136030182121561043b5701908135916001600160401b03831161043b57602001823603811361043b579190565b610a59905461013b565b9061155f602092828151948592016103bf565b0190565b81811061156e575050565b60008155600101611563565b90601f8211611587575050565b6102959160026000527f405787fa12a823e0f2b7631cc41b3ba8828b3321ca811111fa75cd3aa3bb5ace906020601f840160051c830193106115d1575b601f0160051c0190611563565b90915081906115c4565b9190601f81116115ea57505050565b610295926000526020600020906020601f840160051c830193106115d157601f0160051c0190611563565b91909182516001600160401b0381116101a65761163c81611636845461013b565b846115db565b602080601f831160011461167f57508190611670939495600092611674575b50508160011b916000199060031b1c19161790565b9055565b01519050388061165b565b90601f1983169561169585600052602060002090565b926000905b8882106116d2575050836001959697106116b9575b505050811b019055565b015160001960f88460031b161c191690553880806116af565b8060018596829496860151815501950193019061169a565b906117026020919493946040845260408401906103e2565b6001600160a01b03909416910152565b9081602091031261043b5751610a59816106de565b6040513d6000823e3d90fd5b5190610295826106de565b519061029582610b8e565b81601f8201121561043b57805161175f816112ac565b9261176d6040519485610235565b8184526020828401011161043b57610a5991602080850191016103bf565b60208183031261043b5780516001600160401b039182821161043b57016101a08184031261043b576117bb6104a8565b92815184526020820151602085015260408201516040850152606082015160608501526080820151608085015260a082015160a08501526117fe60c08301611733565b60c085015260e082015160e0850152610100808301519085015261012061182681840161173e565b9085015261014061183881840161173e565b9085015261016061184a81840161173e565b90850152610180928383015190811161043b576118679201611749565b9082015290565b6040519061187b8261018b565b60008252565b6040519061188e826101ab565b600f82526e226f757466697455706373223a205b60881b6020830152565b60236102959193929360405194816118ce8793518092602080870191016103bf565b8201601160f91b60208201526118ee8251809360206021850191016103bf565b0161088b60f21b6021820152036003810185520183610235565b9061029560336040518094702e9610113bb7b936322ab831b9911d101160791b60208301526119418151809260206031860191016103bf565b810161088b60f21b6031820152036013810185520183610235565b90604051918260605160005b81811061199d5750906020610295936119918294840191838301600081528151948592016103bf565b01038085520183610235565b6020919250806080015182828801015201908491611968565b60206102959193929360405194816119d787935180928680870191016103bf565b8201611991825180938680850191016103bf565b9060208282031261043b5781516001600160401b03811161043b57610a599201611749565b9081602091031261043b575190565b90610295603d60405180947f646174613a6170706c69636174696f6e2f6a736f6e3b6261736536342c0000006020830152611a6381518092602086860191016103bf565b810103601d810185520183610235565b6040805163507f146560e01b8082529093602092916001600160a01b038581169290918588600481875afa8015610b585782600091611af09a8391611f96575b50875163c44a8e6d60e01b81526001600160a01b038b16600482015260248101929092526000604483015290998a91908290879082906064820190565b0392165afa978815610b5857600098611f7b575b50875115611f6b57611b1461186e565b9361010089019384511515600014611efb57611b318a518a612d8e565b988951611ec4575b895115611d93575050505086611b4e9161483f565b958051611b5a906149a2565b918051611b6690614be1565b908251611b7290612bdf565b9051611b7d90612bdf565b906060840151611b8c90612bdf565b928888860151611b9b90612bdf565b950151611ba790612bdf565b958851809b8b8201611bb89161154c565b039a601f199b8c81018252611bcd9082610235565b611bd690614d68565b9851683d913730b6b2911d1160b91b9a81019a8b529b8c9a600901611bfa9161154c565b7211161011383937b23ab1ba2730b6b2911d101160691b8152601301611c1f9161154c565b731116101131b0ba32b3b7b93ca730b6b2911d101160611b8152601401611c459161154c565b6a111610113ab831911d101160a91b8152600b01611c629161154c565b6f1116101131b0ba32b3b7b93c911d101160811b8152601001611c849161154c565b6d1116101139bab838363c911d101160911b8152600e01611ca49161154c565b70111610113932b6b0b4b734b733911d101160791b8152601101611cc79161154c565b6c11161011383934b1b2911d101160991b8152600d01611ce69161154c565b6201116160ed1b8152600301611cfb9161154c565b7f226465736372697074696f6e223a2241207069656365206f662074686520426181527f6e6e797665727365222c22696d616765223a22646174613a696d6167652f737660208201526c19cade1b5b0ed8985cd94d8d0b609a1b6040820152604d01611d669161154c565b61227d60f01b8152600201039081018252611d819082610235565b611d8a90614d68565b610a5990611a1f565b9395509390959750600d919698505111600014611eb5578551636c0360eb60e01b8152600081600481885afa8015610b58578891600091611e92575b50955b600488518097819382525afa918215610b5857611e25968895600094611e73575b5051630c8df17160e41b81526001600160a01b0390921660048301526024820193909352948592839182906044820190565b0392165afa918215610b5857610a5993600093611e44575b50506145a8565b611e64929350803d10611e6c575b611e5c8183610235565b810190611a10565b903880611e3d565b503d611e52565b611e8b919450863d8811610b8757610b788183610235565b9238611df3565b611eaf91503d806000833e611ea78183610235565b8101906119eb565b38611dcf565b86611ebe610256565b95611dd2565b98611ed7906001875103611edd576144b5565b98611b39565b611ef690611ef1611eec612e8e565b6143ef565b6119b6565b6144b5565b979450611f088386612493565b97611f1284611459565b805190611f1d611881565b906000915b838310611f445750505050611f39611f3e91612bdf565b611908565b95611b39565b611f63600191611f5d611f5786866114ed565b51612bdf565b906118ac565b920191611f22565b5050505050505050610a5961186e565b611f8f91983d8091833e610b4a8183610235565b9638611b04565b611fad9150893d8b11610b8757610b788183610235565b38611ab3565b6000908082526020906008602052604083205490811561205b578184526005602052604084209260405180948591602082549182815201918852602088209388905b8282106120415750505061200b92500384610235565b825192845b84811061201f57505050505090565b8261202a82846114ed565b511461203857600101612010565b50505091505090565b855484526001958601958995509381019390910190611ff5565b50505090565b918060609160209396959660408652816040870152838601376000828286010152601f80199101168301019360018060a01b0316910152565b6040519061010082018281106001600160401b038211176101a65760405260dd82527f746820643d224d3138302031343768337633682d337a222f3e3c2f673e00000060e0837f3c6720636c6173733d226f223e3c7061746820643d224d31373720313430763360208201527f6836763131683130762d31316834762d33682d32307a222f3e3c70617468206460408201527f3d224d31353320313430763368377638203368372033762d31316833762d336860608201527f2d32307a222f3e3c2f673e3c6720636c6173733d2277223e3c7061746820643d60808201527f224d3135332031343368377634682d377a222f3e3c7061746820643d224d313560a08201527f372031343768337633682d337a6d32302d3468367634682d367a222f3e3c706160c08201520152565b604051906121d5826101c6565b61023a82527f643d224d3139302031333768347633682d347a222f3e3c2f673e000000000000610240837f3c6720636c6173733d226f223e3c7061746820643d224d31393020313237683360208201527f7633682d337a6d3320313368347633682d347a6d2d3432203068367636682d3660408201527f7a222f3e3c7061746820643d224d3135312031333368337637682d337a6d313060608201527f203068367634682d367a222f3e3c7061746820643d224d31353720313337683160808201527f377636682d31377a6d332031336831347633682d31347a6d31372d313368377660a08201527f3136682d377a222f3e3c7061746820643d224d3138342031333768367636682d60c08201527f367a6d302031306831307636682d31307a222f3e3c7061746820643d224d313860e08201527f37203134336831307634682d31307a222f3e3c7061746820643d224d313930206101008201527f31343068337633682d337a6d2d362d313068337637682d337a222f3e3c7061746101208201527f6820643d224d3138372031333068367633682d367a6d2d3336203068313076336101408201527f682d31307a6d313620313368377637682d377a6d2d3130203068377637682d376101608201527f7a222f3e3c7061746820643d224d3136342031343768337633682d337a6d32396101808201527f2d323068347636682d347a222f3e3c7061746820643d224d31393420313333686101a08201527f337637682d337a222f3e3c2f673e3c6720636c6173733d2277223e3c706174686101c08201527f20643d224d3135342031333368377634682d377a222f3e3c7061746820643d226101e08201527f4d3135342031333768337633682d337a6d3130203668337634682d337a6d32306102008201527f203068337634682d337a6d332d313068377634682d377a222f3e3c70617468206102208201520152565b60405163507f146560e01b81526001600160a01b036020826004818685165afa918215610b5857600092612603575b5060405163c44a8e6d60e01b81526001600160a01b0384166004820152602481018590526000604482018190529092909183916064918391165afa908115610b58576000916125ea575b508051156125df576060926101008201516125ba5792612571916001612558612537610a5997611459565b9490801515806125b3575b612599575b506125528451614e92565b906119b6565b91510361258d5761256b906125526121c8565b926152bb565b805161257e575b506144b5565b612587916119b6565b38612578565b61256b9061255261209a565b6125ad91506125a89088612d8e565b61195c565b38612547565b5083612542565b506125c792505190612d8e565b80516125d65750610a5961186e565b610a59906144b5565b505050610a5961186e565b6125fd913d8091833e610b4a8183610235565b3861250c565b60009192506126209060203d602011610b8757610b788183610235565b91906124c2565b60405163507f146560e01b81529390916001600160a01b036020866004818488165afa958615610b585760009661278d575b5060405163c44a8e6d60e01b81526001600160a01b0385166004820152602481018390526000604482018190529096909187916064918391165afa948515610b5857600095612772575b5084511561276557606090610100860151612755576126e6610a5996926126cb600193611459565b95811515908161274d575b5061273e57506125528451614e92565b91510361272c576126f9906125526121c8565b925b612707575b50506144b5565b612710916152bb565b805161271d575b80612700565b612726916119b6565b38612717565b6127389061255261209a565b926126fb565b6125ad91506125a89087612d8e565b9050386126d6565b50505090506125c7915190612d8e565b5050505050610a5961186e565b61278691953d8091833e610b4a8183610235565b93386126a3565b60009196506127aa9060203d602011610b8757610b788183610235565b9590612659565b906127ba614e51565b81519060009260005b8381106127d1575050505050565b6127db81836114ed565b516127e682856114ed565b51908087526020600181526040808920546128445782917fb10eb6fc7557a7109693cb8f3fac48d44328de56c0368ee4cac539b424d2cad9918561283860019897966000526001602052604060002090565b5551338152a3016127c3565b516333ded41b60e21b8152600490fd5b604051906101a082018281106001600160401b038211176101a657604052606061018083600080825280602083015280604083015280848301528060808301528060a08301528060c08301528060e08301528061010083015280610120830152806101408301526101608201520152565b91908110156114e85760051b0190565b634e487b7160e01b600052601160045260246000fd5b600281901b91906001600160fe1b0381160361290357565b6128d5565b906001600160401b0383116101a6576801000000000000000083116101a6578154838355808410612963575b50906000526020806000209060005b848110612951575050505050565b83358382015592810192600101612943565b61297b90836000528460206000209182019101611563565b38612934565b9081526060602082018190528101839052929392916001600160fb1b03811161043b5760409160809160051b8091838601378301019360018060a01b0316910152565b8060005260076020526040600020549081159081156129ec575b506129e65790565b50600090565b90508160005260066020526040600020541415386129de565b9190612a0f614e51565b82516000935b818510612a23575050509050565b612a2d85826114ed565b5194612a3981856114ed565b51958060005260039660209780895260409081600020908351906001600160401b0382116101a657612a7582612a6f855461013b565b856115db565b8b601f8311600114612af8575050917f9dedd219289ed514faff576c477c66bd097aef59a236e3b8ebcf0d0070cb4e969391612ad184612ae09560019a9b9c9d9e600091612aed57508160011b916000199060031b1c19161790565b90555b519182913390836116ea565b0390a20193929190612a15565b90508501513861090d565b909b601f198316612b0e85600052602060002090565b926000905b828210612b7d575050916001999a9b9c9d8492612ae097957f9dedd219289ed514faff576c477c66bd097aef59a236e3b8ebcf0d0070cb4e9699979510612b63575b505050881b88019055612ad4565b8601519060f884600019921b161c19169055388080612b55565b80600185968294968c01518155019501930190612b13565b604051612ba18161018b565b60008152906000368137565b90612bb7826112ac565b612bc46040519182610235565b8281528092612bd5601f19916112ac565b0190602036910137565b806000917a184f03e93ff9f4daa797ed6e38ed64bf6a1f01000000000000000080821015612d15575b506d04ee2d6d415b85acef810000000080831015612d06575b50662386f26fc1000080831015612cf7575b506305f5e10080831015612ce8575b5061271080831015612cd9575b506064821015612cc9575b600a80921015612cbf575b600190816021612c7760018701612bad565b95860101905b612c89575b5050505090565b600019019083906f181899199a1a9b1b9c1cb0b131b232b360811b8282061a835304918215612cba57919082612c7d565b612c82565b9160010191612c65565b9190606460029104910191612c5a565b60049193920491019138612c4f565b60089193920491019138612c42565b60109193920491019138612c33565b60209193920491019138612c21565b604093508104915038612c08565b90610295604960405180946c1e34b6b0b3b290343932b31e9160991b6020830152612d58815180926020602d860191016103bf565b81017f222077696474683d2234303022206865696768743d22343030222f3e00000000602d820152036029810185520183610235565b612daa612da5836000526004602052604060002090565b61031c565b8051612e88575060405163507f146560e01b81526001600160a01b039260209283836004818489165afa908115610b5857612e1d958594600093612e69575b50604051632f54648f60e21b81526001600160a01b0390921660048301526024820193909352948592839182906044820190565b0392165afa8015610b5857610a5992612e4792600092612e4c575b5050612e42610256565b6145a8565b612d23565b612e629250803d10611e6c57611e5c8183610235565b3880612e38565b612e81919350853d8711610b8757610b788183610235565b9138612de9565b91505090565b60405190612e9b826101e2565b61117a82527f762d31306833762d376833762d33682d31307a222f3e3c2f673e000000000000611180837f3c6720636c6173733d226131223e3c7061746820643d224d313733203533683460208201527f763137682d347a222f3e3c2f673e3c6720636c6173733d226132223e3c70617460408201527f6820643d224d3136372035376833763130682d337a222f3e3c7061746820643d60608201527f224d3136392035336834763137682d347a222f3e3c2f673e3c6720636c61737360808201527f3d226133223e3c7061746820643d224d31363720353368337634682d337a222f60a08201527f3e3c7061746820643d224d3136332035376834763130682d347a222f3e3c706160c08201527f746820643d224d31363720363768337633682d337a222f3e3c2f673e3c67206360e08201527f6c6173733d226231223e3c7061746820643d224d32313320323533682d33762d6101008201527f332d33682d33762d372d33682d34762d3130682d33762d372d372d33682d33766101208201527f2d3733682d34762d3130682d33762d3130682d33762d37682d34762d37682d336101408201527f762d33682d33762d33682d3476313068347631306833763130683376336834766101608201527f37203320373020336833763768337632306834763768337633683376336834766101808201527f34683376336833762d332d347a222f3e3c7061746820643d224d3235332033306101a08201527f37762d34682d33762d33682d33762d33682d34762d34682d33762d33682d33766101c08201527f2d33682d34762d34682d33762d33682d33762d33682d34762d34682d33762d366101e08201527f682d33762d37682d3476313768347633683376336833203476346833763368336102008201527f76336834763468337633683376336834763468337633683376336834762d36686102208201527f2d347a222f3e3c2f673e3c6720636c6173733d226232223e3c7061746820643d6102408201527f224d32353020333130762d33682d33762d34682d34762d33682d33762d33682d6102608201527f33762d34682d34762d33682d33762d33682d33762d34682d37762d33682d33766102808201527f2d33682d34762d3137682d33762d33682d33762d34682d34762d33682d33762d6102a08201527f33682d33762d37682d34762d3230682d33762d37682d33762d37332d332d37686102c08201527f2d34762d33682d33762d3130682d33762d3130682d34563730682d33762d336c6102e08201527f2d332031303020332d313030763430682d33763130682d347636682d337631346103008201527f682d337633203133682d347634346834763136683376313468337631336834766103208201527f31306833763768337633683476336833763468337633683476336833763468336103408201527f76336834763368337637683776376836763368377633683776346831337633686103608201527f337633683130762d33682d337a6d2d3130332d3837762d31366833762d3130686103808201527f2d337636682d34763137682d337631306833762d3768347a222f3e3c706174686103a08201527f20643d224d3134332032333068347637682d347a6d3420313068337633682d336103c08201527f7a6d33203768337633682d337a6d33203668347634682d347a222f3e3c7061746103e08201527f6820643d224d31363320323537682d36763368337633683376346834762d342d6104008201527f33682d34762d337a222f3e3c2f673e3c6720636c6173733d226233223e3c70616104208201527f746820643d224d3134332031393776366834762d366836762d34346834762d316104408201527f366833762d31346833762d366834762d31306833563937682d377636682d33766104608201527f34682d337633682d347633682d3376342033682d3376332034682d34763130686104808201527f2d337631362034682d337634366833762d3668337a222f3e3c7061746820643d6104a08201527f224d313430203230336833763137682d337a222f3e3c7061746820643d224d316104c08201527f3337203232306833763130682d337a222f3e3c7061746820643d224d313533206104e08201527f323530682d33762d37682d33762d36682d34762d37682d3376313068337637686105008201527f347636683376346833762d377a6d2d3320313068337637682d337a222f3e3c706105208201527f61746820643d224d3134372032353768337633682d337a6d36203068347633686105408201527f2d347a222f3e3c7061746820643d224d31363020323633762d33682d337633206105608201527f376836762d37682d337a6d2d31302d3536763136682d337637683376313068336105808201527f763768347636683676346837762d342d33682d33762d3130682d34762d3133686105a08201527f2d33762d3134682d33762d3136682d34763130682d337a222f3e3c70617468206105c08201527f643d224d32343320333133762d33682d33762d33682d31302d33762d34682d376105e08201527f762d33682d37762d33682d36762d37682d37762d37682d33762d33682d34762d6106008201527f33682d33762d34682d33762d33682d34762d33682d33762d34682d33762d33686106208201527f2d34762d33682d33763130682d337633682d347633682d3376376833763768346106408201527f76366833763568347633683676336833763368342033763368332034763368336106608201527f20337634683130763368372037203376336831302033762d33683130762d33686106808201527f34762d34682d31347a222f3e3c2f673e3c6720636c6173733d226234223e3c706106a08201527f61746820643d224d3138332031333068347637682d347a222f3e3c70617468206106c08201527f643d224d3138302031323768337633682d337a6d2d32372d3468347637682d346106e08201527f7a222f3e3c7061746820643d224d3135372031313768337636682d337a222f3e6107008201527f3c7061746820643d224d3136302031313068337637682d337a222f3e3c7061746107208201527f6820643d224d3136332031303768347633682d347a6d2d3320383368337637686107408201527f2d337a222f3e3c7061746820643d224d3136332031383768347633682d347a6d6107608201527f3230203068377633682d377a222f3e3c7061746820643d224d313830203139306107808201527f68337633682d337a6d31302d3768337634682d337a222f3e3c7061746820643d6107a08201527f224d3139332031383768347636682d347a6d2d323020353368347637682d347a6107c08201527f222f3e3c7061746820643d224d3137372032343768337636682d337a222f3e3c6107e08201527f7061746820643d224d3138302032353368337637682d337a222f3e3c706174686108008201527f20643d224d3138332032363068377633682d377a222f3e3c7061746820643d226108208201527f4d3139302032363368337634682d337a6d302d323068337634682d337a222f3e6108408201527f3c7061746820643d224d3138372032343068337633682d337a222f3e3c7061746108608201527f6820643d224d3139302032333768337633682d337a6d313320323368347633686108808201527f2d347a222f3e3c7061746820643d224d3230372032363368337637682d337a226108a08201527f2f3e3c7061746820643d224d3231302032373068337633682d337a6d2d3130206108c08201527f3768337636682d337a222f3e3c7061746820643d224d323033203238336834766108e08201527f37682d347a222f3e3c7061746820643d224d3230372032393068367633682d366109008201527f7a222f3e3c2f673e3c6720636c6173733d226f223e3c7061746820643d224d316109208201527f3333203135376834763530682d347a6d302036336834763130682d347a6d32376109408201527f2d3136336833763130682d337a222f3e3c7061746820643d224d3136332035336109608201527f68347634682d347a222f3e3c7061746820643d224d31363720353068313076336109808201527f682d31307a222f3e3c7061746820643d224d3137372035336833763137682d336109a08201527f7a222f3e3c7061746820643d224d3137332037306834763237682d347a6d2d366109c08201527f20306833763237682d337a222f3e3c7061746820643d224d31363320363768346109e08201527f7633682d347a6d3020333068347633682d347a222f3e3c7061746820643d224d610a008201527f3136302031303068337633682d337a222f3e3c7061746820643d224d31353720610a208201527f31303368337634682d337a222f3e3c7061746820643d224d3135332031303768610a408201527f347633682d347a222f3e3c7061746820643d224d313530203131306833763368610a608201527f2d337a222f3e3c7061746820643d224d3134372031313368337637682d337a22610a808201527f2f3e3c7061746820643d224d3134332031323068347637682d347a222f3e3c70610aa08201527f61746820643d224d313430203132376833763130682d337a222f3e3c70617468610ac08201527f20643d224d313337203133376833763230682d337a6d35362d31306834763130610ae08201527f682d347a222f3e3c7061746820643d224d313930203131376833763130682d33610b008201527f7a222f3e3c7061746820643d224d3138372031313068337637682d337a222f3e610b208201527f3c7061746820643d224d3138332031303368347637682d347a222f3e3c706174610b408201527f6820643d224d3138302031303068337633682d337a222f3e3c7061746820643d610b608201527f224d31373720393768337633682d337a6d2d3430203130366833763137682d33610b808201527f7a6d302032376833763130682d337a6d313020333068337637682d337a222f3e610ba08201527f3c7061746820643d224d31353020323537762d34682d33762d36682d34762d37610bc08201527f682d3376313068337631306834762d3368337a222f3e3c7061746820643d224d610be08201527f3135302032353768337633682d337a222f3e3c7061746820643d224d31363320610c008201527f323733762d33682d36762d3130682d347637682d337633683376336834763768610c208201527f33762d3768337a222f3e3c7061746820643d224d313633203236376834763368610c408201527f2d347a222f3e3c7061746820643d224d31373020323537682d332d3476336834610c608201527f76376833762d31307a222f3e3c7061746820643d224d31353720323533683676610c808201527f34682d367a222f3e3c7061746820643d224d3135332032343768347636682d34610ca08201527f7a222f3e3c7061746820643d224d3135302032343068337637682d337a222f3e610cc08201527f3c7061746820643d224d313437203233306833763130682d337a6d3133203530610ce08201527f68337637682d337a222f3e3c7061746820643d224d3134332032323368347637610d008201527f682d347a222f3e3c7061746820643d224d313437203230376833763136682d33610d208201527f7a222f3e3c7061746820643d224d313530203139376833763130682d337a6d2d610d408201527f3130203068337636682d337a6d35302031313368377633682d377a6d32332031610d608201527f306831377633682d31377a222f3e3c7061746820643d224d3233302033323368610d808201527f31337634682d31337a222f3e3c7061746820643d224d32343320333230683130610da08201527f7633682d31307a222f3e3c7061746820643d224d323533203331376834763368610dc08201527f2d347a222f3e3c7061746820643d224d323537203330376833763130682d337a610de08201527f222f3e3c7061746820643d224d3235332033303368347634682d347a222f3e3c610e008201527f7061746820643d224d3235302033303068337633682d337a222f3e3c70617468610e208201527f20643d224d3234372032393768337633682d337a222f3e3c7061746820643d22610e408201527f4d3234332032393368347634682d347a222f3e3c7061746820643d224d323430610e608201527f2032393068337633682d337a222f3e3c7061746820643d224d32333720323837610e808201527f68337633682d337a222f3e3c7061746820643d224d3233332032383368347634610ea08201527f682d347a222f3e3c7061746820643d224d3233302032383068337633682d337a610ec08201527f222f3e3c7061746820643d224d3232372032373768337633682d337a222f3e3c610ee08201527f7061746820643d224d3232332032373368347634682d347a222f3e3c70617468610f008201527f20643d224d3232302032363768337636682d337a222f3e3c7061746820643d22610f208201527f4d3231372032363068337637682d337a222f3e3c7061746820643d224d323133610f408201527f2032353368347637682d347a222f3e3c7061746820643d224d32313020323437610f608201527f68337636682d337a222f3e3c7061746820643d224d3230372032333768337631610f808201527f30682d337a222f3e3c7061746820643d224d323033203232376834763130682d610fa08201527f347a6d2d343020363068347636682d347a6d323420323068337633682d337a22610fc08201527f2f3e3c7061746820643d224d3136372032393368337635682d337a6d31362031610fe08201527f3468347633682d347a222f3e3c7061746820643d224d313730203239386834766110008201527f33682d347a6d3130203668337633682d337a222f3e3c7061746820643d224d316110208201527f37342033303168367633682d367a6d323320313268367634682d367a222f3e3c6110408201527f7061746820643d224d323033203331376831307633682d31307a6d2d322d31306110608201527f37762d3733682d3476373368337631376833762d3137682d327a222f3e3c2f676110808201527f3e3c6720636c6173733d226f223e3c7061746820643d224d31383720333037766110a08201527f2d346833762d36682d33762d34682d34762d33682d33762d33682d37762d34686110c08201527f2d367634682d3476336834763237682d34763133682d33763130682d347637686110e08201527f3476336833203130203134762d33682d34762d34682d33762d33682d33762d336111008201527f682d34762d376834762d31306833762d376833762d336837762d33682d337a6d6111208201527f3136203130762d34682d36763137682d34763130682d337637683376336834206111408201527f3620342033203134762d33682d34762d34682d37762d33682d33762d33682d336111608201520152565b90610295609a60405180947f3c7374796c653e2e6f7b66696c6c3a233830383038303b7d2e62327b66696c6c60208301527f3a6e6f6e653b7d2e62337b66696c6c3a6e6f6e653b7d2e62347b66696c6c3a6e60408301527f6f6e653b7d2e61317b66696c6c3a6e6f6e653b7d2e61327b66696c6c3a6e6f6e60608301527f653b7d2e61337b66696c6c3a6e6f6e653b7d3c2f7374796c653e00000000000060808301526144a581518092602086860191016103bf565b810103607a810185520183610235565b9061029560ba60405180947f3c7376672077696474683d2234303022206865696768743d223430302220766960208301527f6577426f783d223020302034303020343030222066696c6c3d226e6f6e65222060408301527f786d6c6e733d22687474703a2f2f7777772e77332e6f72672f323030302f737660608301527f67223e3c7374796c653e2e6f7b66696c6c3a233035303530353b7d2e777b666960808301527336361d11b31cb31cb31c9dbe9e17b9ba3cb6329f60611b60a083015261458981518092602060b4860191016103bf565b8101651e17b9bb339f60d11b60b482015203609a810185520183610235565b90610a59906145d6604051602092609160f51b848301526022820152602281526145d1816101fe565b6154ee565b9260405193816145ef86935180928680870191016103bf565b8201614603825180938680850191016103bf565b01038084520182610235565b9061029560216040518461462d8296518092602080860191016103bf565b8101600160fd1b6020820152036001810185520183610235565b6102959161469d9493602b9260405196879360209261466e8151809286808a0191016103bf565b8501614682825180938680850191016103bf565b0191602f60f81b8184015283519384916021850191016103bf565b01692072656d61696e696e6760b01b602182015203600b810185520183610235565b60379061029592949360405195826146e18894518092602080880191016103bf565b83016b0101429a7a6221027aaaa14960a51b602082015261470c825180936020602c850191016103bf565b01602f60f81b602c82015261472b825180936020602d850191016103bf565b01692072656d61696e696e6760b01b602d820152036017810185520183610235565b610295916147a294936021926040519687936020926147748151809286808a0191016103bf565b8501614788825180938680850191016103bf565b0191602f60f81b81840152835193849187850191016103bf565b01036001810185520183610235565b906102956023604051846147cf8296518092602080860191016103bf565b8101620101d160ed1b6020820152036003810185520183610235565b602561029591939293604051948161480d8793518092602080870191016103bf565b820164555043202360d81b602082015261483082518093602087850191016103bf565b01036005810185520183610235565b9061488b610a5992633b9aca0061485e61485985516149a2565b61460f565b910680156148c8579061487361488692612bdf565b6148806060860151612bdf565b9161474d565b6147b1565b9061489a610100820151614be1565b80516148b2575b506148ac9051612bdf565b906147eb565b6148ac9192506148c19061460f565b91906148a1565b506040830190815180156000146148fa57506148e76148869251612bdf565b6148f46060860151612bdf565b916146bf565b614886925061490890612bdf565b6149156060860151612bdf565b91614647565b60405190614928826101ab565b600882526713dc9a59da5b985b60c21b6020830152565b6040519061494c826101ab565b60068252654f72616e676560d01b6020830152565b6040519061496e826101ab565b600482526350696e6b60e01b6020830152565b6040519061498e826101ab565b600582526420b634b2b760d91b6020830152565b600181036149b35750610a59614981565b600281036149c45750610a59614961565b600381036149d55750610a5961493f565b600481036149e65750610a5961491b565b6000526003602052610a59604060002061031c565b60405190614a08826101ab565b6007825266546f7070696e6760c81b6020830152565b60405190614a2b826101ab565b6004825263119a5cdd60e21b6020830152565b60405190614a4b826101ab565b600b82526a5375697420626f74746f6d60a81b6020830152565b60405190614a72826101ab565b600882526705375697420746f760c41b6020830152565b60405190614a96826101ab565b600482526314dd5a5d60e21b6020830152565b60405190614ab6826101ab565b60048252631219585960e21b6020830152565b60405190614ad6826101ab565b600882526704865616420746f760c41b6020830152565b60405190614afa826101ab565b600582526409adeeae8d60db1b6020830152565b60405190614b1b826101ab565b6007825266476c617373657360c81b6020830152565b60405190614b3e826101ab565b60088252674e65636b6c61636560c01b6020830152565b60405190614b62826101ab565b60048252634c65677360e01b6020830152565b60405190614b82826101ab565b60088252674261636b7369646560c01b6020830152565b60405190614ba6826101ab565b600582526415dbdc9b1960da1b6020830152565b60405190614bc7826101ab565b600b82526a4e616b65642042616e6e7960a81b6020830152565b80614bef5750610a59614bba565b60018103614c005750610a59614b99565b60028103614c115750610a59614b75565b60078103614c225750610a59614b55565b60038103614c335750610a59614b31565b60058103614c445750610a59614b0e565b60068103614c555750610a59614aed565b600b8103614c665750610a59614ac9565b60048103614c775750610a59614aa9565b60088103614c885750610a59614a89565b600a8103614c995750610a59614a65565b60098103614caa5750610a59614a3e565b600c8103614cbb5750610a59614a1e565b600d14614cca57610a5961186e565b610a596149fb565b60405190614cdf826101fe565b604082527f6768696a6b6c6d6e6f707172737475767778797a303132333435363738392b2f6040837f4142434445464748494a4b4c4d4e4f505152535455565758595a61626364656660208201520152565b906002820180921161290357565b906020820180921161290357565b906001820180921161290357565b9190820180921161290357565b805115614e4857614d77614cd2565b614d93614d8e614d878451614d31565b6003900490565b6128eb565b91614da5614da084614d3f565b612bad565b92835280815182019060208501935b828210614df657505050600390510680600114614de557600214614dd6575090565b603d60f81b6000199091015290565b50613d3d60f01b6001199091015290565b9091936004906003809401938451600190603f9082828260121c16880101518553828282600c1c16880101518386015382828260061c1688010151600286015316850101519082015301939190614db4565b50610a5961186e565b6000546001600160a01b0390811681614e6861598b565b1603614e715750565b602490614e7c61598b565b60405163118cdaa760e01b815291166004820152fd5b614e9b9061585f565b92614eaa969596929192612e8e565b9460405197889760208901703c7374796c653e2e62317b66696c6c3a2360781b90528051908160318b019160200191614ee2926103bf565b8801603181016b3b7d2e62327b66696c6c3a2360a01b905281519182603d83019160200191614f10926103bf565b01603d81016b3b7d2e62337b66696c6c3a2360a01b905281519182604983019160200191614f3d926103bf565b0160498101614f5a906b3b7d2e62347b66696c6c3a2360a01b9052565b605501614f669161154c565b6b3b7d2e61317b66696c6c3a2360a01b8152600c01614f849161154c565b6b3b7d2e61327b66696c6c3a2360a01b8152600c01614fa29161154c565b6b3b7d2e61337b66696c6c3a2360a01b8152600c01614fc09161154c565b691dbe9e17b9ba3cb6329f60b11b8152600a01614fdc9161154c565b03601f1981018252610a599082610235565b60405190614ffb82610219565b61019c82527f6820643d224d3139332031373068347633682d347a222f3e3c2f673e000000006101a0837f3c6720636c6173733d226f223e3c7061746820643d224d31393020313733682d60208201527f3337762d33682d3130762d34682d36763468337633682d33763468367633683160408201527f307634683337762d346833762d33682d33762d347a6d2d34302034682d33762d60608201527f34683376347a6d372033762d3368337633682d337a6d362030762d336834763360808201527f682d347a6d372030762d3368337633682d337a6d372030762d3368337633682d60a08201527f337a6d31302030682d34762d33683476337a222f3e3c7061746820643d224d3160c08201527f39302031373068337633682d337a222f3e3c7061746820643d224d313933203160e08201527f363668347634682d347a6d30203768347634682d347a222f3e3c2f673e3c67206101008201527f636c6173733d2277223e3c7061746820643d224d3133372031373068337633686101208201527f2d337a6d3130203368337634682d337a6d3130203468337633682d337a6d36206101408201527f3068347633682d347a6d37203068337633682d337a6d37203068337633682d336101608201527f7a6d36203068347633682d347a6d372d3468337634682d337a222f3e3c7061746101808201520152565b6040519060c082018281106001600160401b038211176101a65760405260818252601f60f91b60a0837f3c6720636c6173733d226f223e3c7061746820643d224d31383320313630762d60208201527f34682d32307634682d33763368337634683234762d37682d347a6d2d3133203360408201527f762d336831307633682d31307a222066696c6c3d2223616437316338222f3e3c60608201527f7061746820643d224d313730203136306831307633682d31307a222f3e3c2f6760808201520152565b8151606093926000928392600392849184811015615481576152dc81614d4d565b955b8681106152ef575050505050505050565b818110156154755761530181846114ed565b516040805163507f146560e01b8152919591600491906001600160a01b036020808386818e86165afa918215610b585761537f956000958c958e948896615456575b50505163c44a8e6d60e01b81526001600160a01b0390931690830190815260208101949094526000604085015290948593849291839160600190565b0392165afa8015610b58576101009160009161543d575b500151985b89880361540e57506001985b6006908082036153df575050506001935b806153c7575b506001016152de565b6001919a6125526153d89288612d8e565b99906153be565b9591951180615406575b156153b8579350986153fd906125526151f6565b986001936153b8565b5084156153e9565b9887811180615435575b156153a75798509961542c90612552614fee565b996001986153a7565b508915615418565b615450913d8091833e610b4a8183610235565b38615396565b61546d929650803d10610b8757610b788183610235565b933880615343565b6007979360009461539b565b80956152de565b604051906105e082018281106001600160401b038211176101a657604052602e82526105c0366020840137565b906154bf826104c8565b6154cc6040519182610235565b8281528092612bd5601f19916104c8565b9081518110156114e8570160200190565b90815115615615576154fe615488565b91600090600061550d856114db565b526001918151916000925b80841061553e575050505061553461553991610a5993946159e4565b615a27565b615a6e565b9091929461556f61556961556361555589876154dd565b516001600160f81b03191690565b60f81c90565b60ff1690565b9184925b60ff90898289168610156155d457600192916155a86155a261556961559b8a6155ae966114ed565b5160ff1690565b60081b90565b90614d5b565b6155cb8b6155c388603a9586860616926114ed565b9060ff169052565b04930192615573565b50919594935050809691965b6155ee575060010192615518565b9460ff6001603a9261560b83858b06166155c38d868516906114ed565b01169504806155e0565b9050610a59612b95565b6040519061562c826101ab565b600682526506666653930360d41b6020830152565b6040519061564e826101ab565b600682526506666633730360d41b6020830152565b60405190615670826101ab565b600682526566336136303360d01b6020830152565b60405190615692826101ab565b600682526539363561316160d01b6020830152565b604051906156b4826101ab565b600682526533331bb1981960d11b6020830152565b604051906156d6826101ab565b600682526506664333630360d41b6020830152565b604051906156f8826101ab565b600682526518cccc994c1960d21b6020830152565b6040519061571a826101ab565b600682526566666438633560d01b6020830152565b6040519061573c826101ab565b600682526566663936613960d01b6020830152565b6040519061575e826101ab565b600682526533329a9c1c3160d11b6020830152565b60405190615780826101ab565b600682526563393266343560d01b6020830152565b604051906157a2826101ab565b600682526536376437353760d01b6020830152565b604051906157c4826101ab565b600682526503330613232360d41b6020830152565b604051906157e6826101ab565b600682526532313761313560d01b6020830152565b60405190615808826101ab565b60048252636e6f6e6560e01b6020830152565b60405190615828826101ab565b6006825265329a1c19b2b360d11b6020830152565b6040519061584a826101ab565b60068252653231993332b360d11b6020830152565b600181036158a65750615870615795565b906158796157b7565b906158826157d9565b9061588b6157fb565b9061589461581b565b9061589d61583d565b90610a5961583d565b600281036158ed57506158b761570d565b906158c061572f565b906158c9615751565b906158d2615773565b906158db61570d565b906158e461572f565b90610a59615751565b6003810361593457506158fe615663565b906159076156a7565b906159106156c9565b906159196156eb565b90615922615663565b9061592b6156a7565b90610a596156c9565b60041461594d57604051633b9cb79b60e21b8152600490fd5b61595561561f565b9061595e615641565b90615967615663565b90615970615685565b9061597961561f565b90615982615641565b90610a59615663565b337f000000000000000000000000b2b5841dbef766d4b521221732f9b618fcf34a876001600160a01b031614806159d9575b156159d5576013193601368111612903573560601c90565b3390565b5060143610156159bd565b9060ff809116906159f4826154b5565b9260005b838110615a06575050505090565b8083615a14600193856114ed565b5116615a2082886114ed565b52016159f8565b908151615a33816154b5565b9060005b818110615a45575090925050565b60019060ff615a5b6000198389510301886114ed565b5116615a6782866114ed565b5201615a37565b8051615a79816112ac565b91604090615a8a6040519485610235565b828452615a96836112ac565b602090601f1901368683013760009260005b858110615ab85750505050505090565b6001908251615ac6816101fe565b603a81527f31323334353637383941424344454647484a4b4c4d4e50515253545556575859858201527f5a6162636465666768696a6b6d6e6f707172737475767778797a000000000000848201526001600160f81b031990615b369060ff615b2e858a6114ed565b5116906154dd565b5116861a615b44828a6154dd565b5301615aa856fea2646970667358221220165dde1521bdefb24692e2fc8010fc85b436c385af8cbb625aed6c7ec1705ed264736f6c63430008170033",
			"devdoc": {
				"kind": "dev",
				"methods": {
					"assetIdsOf(uint256)": {
						"params": {
							"nakedBannyId": "The ID of the naked banny shows with the associated assets."
						},
						"returns": {
							"outfitIds": "The outfits attached to the Naked Banny.",
							"worldId": "The world attached to the Naked Banny."
						}
					},
					"constructor": {
						"params": {
							"owner": "The owner allowed to add SVG files that correspond to product IDs.",
							"trustedForwarder": "The trusted forwarder for the ERC2771Context."
						}
					},
					"decorateBannyWith(address,uint256,uint256,uint256[])": {
						"details": "The caller must own the naked banny being dressed and all outfits being worn.",
						"params": {
							"hook": "The hook storing the assets.",
							"nakedBannyId": "The ID of the Naked Banny being dressed.",
							"outfitIds": "The IDs of the outfits that'll be associated with the specified banny. Only one outfit per outfit category allowed at a time and they must be passed in order.",
							"worldId": "The ID of the world that'll be associated with the specified banny."
						}
					},
					"isTrustedForwarder(address)": {
						"details": "Indicates whether any particular address is the trusted forwarder."
					},
					"namesOf(address,uint256)": {
						"params": {
							"hook": "The hook storing the assets.",
							"tokenId": "The ID of the token to show."
						},
						"returns": {
							"_0": "fullName The full name of the token.",
							"_1": "categoryName The name of the token's category.",
							"_2": "productName The name of the token's product."
						}
					},
					"owner()": {
						"details": "Returns the address of the current owner."
					},
					"renounceOwnership()": {
						"details": "Leaves the contract without owner. It will not be possible to call `onlyOwner` functions. Can only be called by the current owner. NOTE: Renouncing ownership will leave the contract without an owner, thereby disabling any functionality that is only available to the owner."
					},
					"setProductNames(uint256[],string[])": {
						"params": {
							"names": "The names of the products.",
							"upcs": "The universal product codes of the products having their name stored."
						}
					},
					"setSvgContentsOf(uint256[],string[])": {
						"params": {
							"svgContents": "The svg contents being stored, not including the parent <svg></svg> element.",
							"upcs": "The universal product codes of the products having SVGs stored."
						}
					},
					"setSvgHashsOf(uint256[],bytes32[])": {
						"details": "This allows anyone to lazily upload the correct svg file.",
						"params": {
							"svgHashs": "The svg hashes being stored, not including the parent <svg></svg> element.",
							"upcs": "The universal product codes of the products having SVG hashes stored."
						}
					},
					"svgOf(address,uint256,bool,bool)": {
						"params": {
							"hook": "The hook storing the assets.",
							"shouldDressNakedBanny": "Whether the naked banny should be dressed.",
							"shouldIncludeWorldOnNakedBanny": "Whether the world should be included on the naked banny.",
							"tokenId": "The ID of the token to show. If the ID belongs to a Naked Banny, it will be shown with its current outfits in its current world if specified."
						},
						"returns": {
							"_0": "svg The SVG."
						}
					},
					"tokenUriOf(address,uint256)": {
						"params": {
							"tokenId": "The ID of the token to show. If the ID belongs to a Naked Banny, it will be shown with its current outfits in its current world."
						},
						"returns": {
							"_0": "tokenUri The URI representing the SVG."
						}
					},
					"transferOwnership(address)": {
						"details": "Transfers ownership of the contract to a new account (`newOwner`). Can only be called by the current owner."
					},
					"trustedForwarder()": {
						"details": "Returns the address of the trusted forwarder."
					},
					"userOf(uint256)": {
						"params": {
							"worldId": "The ID of the world being used."
						},
						"returns": {
							"_0": "The ID of the naked banny using the world."
						}
					},
					"wearerOf(uint256)": {
						"params": {
							"outfitId": "The ID of the outfit being worn."
						},
						"returns": {
							"_0": "The ID of the naked banny wearing the outfit."
						}
					}
				},
				"version": 1
			},
			"userdoc": {
				"kind": "user",
				"methods": {
					"assetIdsOf(uint256)": {
						"notice": "The assets currently attached to each Naked Banny, owned by the naked Banny's owner."
					},
					"decorateBannyWith(address,uint256,uint256,uint256[])": {
						"notice": "Dress your Naked Banny with outfits."
					},
					"namesOf(address,uint256)": {
						"notice": "Returns the name of the token."
					},
					"setProductNames(uint256[],string[])": {
						"notice": "Allows the owner to set the product's name."
					},
					"setSvgBaseUri(string)": {
						"notice": "Allows the owner of this contract to specify the base of the domain hosting the SVG files."
					},
					"setSvgContentsOf(uint256[],string[])": {
						"notice": "The owner of this contract can store SVG files for product IDs."
					},
					"setSvgHashsOf(uint256[],bytes32[])": {
						"notice": "Allows the owner of this contract to upload the hash of an svg file for a universal product code."
					},
					"svgBaseUri()": {
						"notice": "The base of the domain hosting the SVG files that can be lazily uploaded to the contract."
					},
					"svgHashOf(uint256)": {
						"notice": "The Naked Banny and outfit SVG hash files."
					},
					"svgOf(address,uint256,bool,bool)": {
						"notice": "Returns the SVG showing either a naked banny with/without outfits and a world, or the stand alone outfit or world."
					},
					"tokenUriOf(address,uint256)": {
						"notice": "Returns the SVG showing a dressed Naked Banny in a world."
					},
					"userOf(uint256)": {
						"notice": "Checks to see which naked banny is currently using a particular world."
					},
					"wearerOf(uint256)": {
						"notice": "Checks to see which naked banny is currently wearing a particular outfit."
					}
				},
				"version": 1
			},
			"gitCommit": "c87f7126fdf2d212ae9f0fed649d1a7e5add3e4b",
			"sourceName": "src/Banny721TokenUriResolver.sol",
			"chainId": "84532",
			"linkReferences": {},
			"deployedLinkReferences": {}
		},
		{
			"_format": "sphinx-sol-ct-artifact-1",
			"merkleRoot": "0x9a708eb13d601c4c15b233e0767aec4a756fa52c3bc4f31093f788004d4058f0",
			"contractName": "Banny721TokenUriResolver",
			"address": "0x1f236212E69c56fbb0CAFFF4f27A2E3Ab40915a0",
			"abi": [
				{
					"type": "constructor",
					"inputs": [
						{
							"name": "owner",
							"type": "address",
							"internalType": "address"
						},
						{
							"name": "trustedForwarder",
							"type": "address",
							"internalType": "address"
						}
					],
					"stateMutability": "nonpayable"
				},
				{
					"type": "function",
					"name": "assetIdsOf",
					"inputs": [
						{
							"name": "nakedBannyId",
							"type": "uint256",
							"internalType": "uint256"
						}
					],
					"outputs": [
						{
							"name": "worldId",
							"type": "uint256",
							"internalType": "uint256"
						},
						{
							"name": "outfitIds",
							"type": "uint256[]",
							"internalType": "uint256[]"
						}
					],
					"stateMutability": "view"
				},
				{
					"type": "function",
					"name": "decorateBannyWith",
					"inputs": [
						{
							"name": "hook",
							"type": "address",
							"internalType": "address"
						},
						{
							"name": "nakedBannyId",
							"type": "uint256",
							"internalType": "uint256"
						},
						{
							"name": "worldId",
							"type": "uint256",
							"internalType": "uint256"
						},
						{
							"name": "outfitIds",
							"type": "uint256[]",
							"internalType": "uint256[]"
						}
					],
					"outputs": [],
					"stateMutability": "nonpayable"
				},
				{
					"type": "function",
					"name": "isTrustedForwarder",
					"inputs": [
						{
							"name": "forwarder",
							"type": "address",
							"internalType": "address"
						}
					],
					"outputs": [
						{
							"name": "",
							"type": "bool",
							"internalType": "bool"
						}
					],
					"stateMutability": "view"
				},
				{
					"type": "function",
					"name": "namesOf",
					"inputs": [
						{
							"name": "hook",
							"type": "address",
							"internalType": "address"
						},
						{
							"name": "tokenId",
							"type": "uint256",
							"internalType": "uint256"
						}
					],
					"outputs": [
						{
							"name": "",
							"type": "string",
							"internalType": "string"
						},
						{
							"name": "",
							"type": "string",
							"internalType": "string"
						},
						{
							"name": "",
							"type": "string",
							"internalType": "string"
						}
					],
					"stateMutability": "view"
				},
				{
					"type": "function",
					"name": "owner",
					"inputs": [],
					"outputs": [
						{
							"name": "",
							"type": "address",
							"internalType": "address"
						}
					],
					"stateMutability": "view"
				},
				{
					"type": "function",
					"name": "renounceOwnership",
					"inputs": [],
					"outputs": [],
					"stateMutability": "nonpayable"
				},
				{
					"type": "function",
					"name": "setProductNames",
					"inputs": [
						{
							"name": "upcs",
							"type": "uint256[]",
							"internalType": "uint256[]"
						},
						{
							"name": "names",
							"type": "string[]",
							"internalType": "string[]"
						}
					],
					"outputs": [],
					"stateMutability": "nonpayable"
				},
				{
					"type": "function",
					"name": "setSvgBaseUri",
					"inputs": [
						{
							"name": "baseUri",
							"type": "string",
							"internalType": "string"
						}
					],
					"outputs": [],
					"stateMutability": "nonpayable"
				},
				{
					"type": "function",
					"name": "setSvgContentsOf",
					"inputs": [
						{
							"name": "upcs",
							"type": "uint256[]",
							"internalType": "uint256[]"
						},
						{
							"name": "svgContents",
							"type": "string[]",
							"internalType": "string[]"
						}
					],
					"outputs": [],
					"stateMutability": "nonpayable"
				},
				{
					"type": "function",
					"name": "setSvgHashsOf",
					"inputs": [
						{
							"name": "upcs",
							"type": "uint256[]",
							"internalType": "uint256[]"
						},
						{
							"name": "svgHashs",
							"type": "bytes32[]",
							"internalType": "bytes32[]"
						}
					],
					"outputs": [],
					"stateMutability": "nonpayable"
				},
				{
					"type": "function",
					"name": "svgBaseUri",
					"inputs": [],
					"outputs": [
						{
							"name": "",
							"type": "string",
							"internalType": "string"
						}
					],
					"stateMutability": "view"
				},
				{
					"type": "function",
					"name": "svgHashOf",
					"inputs": [
						{
							"name": "upc",
							"type": "uint256",
							"internalType": "uint256"
						}
					],
					"outputs": [
						{
							"name": "",
							"type": "bytes32",
							"internalType": "bytes32"
						}
					],
					"stateMutability": "view"
				},
				{
					"type": "function",
					"name": "svgOf",
					"inputs": [
						{
							"name": "hook",
							"type": "address",
							"internalType": "address"
						},
						{
							"name": "tokenId",
							"type": "uint256",
							"internalType": "uint256"
						},
						{
							"name": "shouldDressNakedBanny",
							"type": "bool",
							"internalType": "bool"
						},
						{
							"name": "shouldIncludeWorldOnNakedBanny",
							"type": "bool",
							"internalType": "bool"
						}
					],
					"outputs": [
						{
							"name": "",
							"type": "string",
							"internalType": "string"
						}
					],
					"stateMutability": "view"
				},
				{
					"type": "function",
					"name": "tokenUriOf",
					"inputs": [
						{
							"name": "hook",
							"type": "address",
							"internalType": "address"
						},
						{
							"name": "tokenId",
							"type": "uint256",
							"internalType": "uint256"
						}
					],
					"outputs": [
						{
							"name": "",
							"type": "string",
							"internalType": "string"
						}
					],
					"stateMutability": "view"
				},
				{
					"type": "function",
					"name": "transferOwnership",
					"inputs": [
						{
							"name": "newOwner",
							"type": "address",
							"internalType": "address"
						}
					],
					"outputs": [],
					"stateMutability": "nonpayable"
				},
				{
					"type": "function",
					"name": "trustedForwarder",
					"inputs": [],
					"outputs": [
						{
							"name": "",
							"type": "address",
							"internalType": "address"
						}
					],
					"stateMutability": "view"
				},
				{
					"type": "function",
					"name": "userOf",
					"inputs": [
						{
							"name": "worldId",
							"type": "uint256",
							"internalType": "uint256"
						}
					],
					"outputs": [
						{
							"name": "",
							"type": "uint256",
							"internalType": "uint256"
						}
					],
					"stateMutability": "view"
				},
				{
					"type": "function",
					"name": "wearerOf",
					"inputs": [
						{
							"name": "outfitId",
							"type": "uint256",
							"internalType": "uint256"
						}
					],
					"outputs": [
						{
							"name": "",
							"type": "uint256",
							"internalType": "uint256"
						}
					],
					"stateMutability": "view"
				},
				{
					"type": "event",
					"name": "DecorateBanny",
					"inputs": [
						{
							"name": "hook",
							"type": "address",
							"indexed": true,
							"internalType": "address"
						},
						{
							"name": "nakenBannyId",
							"type": "uint256",
							"indexed": true,
							"internalType": "uint256"
						},
						{
							"name": "worldId",
							"type": "uint256",
							"indexed": false,
							"internalType": "uint256"
						},
						{
							"name": "outfitIds",
							"type": "uint256[]",
							"indexed": false,
							"internalType": "uint256[]"
						},
						{
							"name": "caller",
							"type": "address",
							"indexed": false,
							"internalType": "address"
						}
					],
					"anonymous": false
				},
				{
					"type": "event",
					"name": "OwnershipTransferred",
					"inputs": [
						{
							"name": "previousOwner",
							"type": "address",
							"indexed": true,
							"internalType": "address"
						},
						{
							"name": "newOwner",
							"type": "address",
							"indexed": true,
							"internalType": "address"
						}
					],
					"anonymous": false
				},
				{
					"type": "event",
					"name": "SetProductName",
					"inputs": [
						{
							"name": "upc",
							"type": "uint256",
							"indexed": true,
							"internalType": "uint256"
						},
						{
							"name": "name",
							"type": "string",
							"indexed": false,
							"internalType": "string"
						},
						{
							"name": "caller",
							"type": "address",
							"indexed": false,
							"internalType": "address"
						}
					],
					"anonymous": false
				},
				{
					"type": "event",
					"name": "SetSvgBaseUri",
					"inputs": [
						{
							"name": "baseUri",
							"type": "string",
							"indexed": false,
							"internalType": "string"
						},
						{
							"name": "caller",
							"type": "address",
							"indexed": false,
							"internalType": "address"
						}
					],
					"anonymous": false
				},
				{
					"type": "event",
					"name": "SetSvgContent",
					"inputs": [
						{
							"name": "upc",
							"type": "uint256",
							"indexed": true,
							"internalType": "uint256"
						},
						{
							"name": "svgContent",
							"type": "string",
							"indexed": false,
							"internalType": "string"
						},
						{
							"name": "caller",
							"type": "address",
							"indexed": false,
							"internalType": "address"
						}
					],
					"anonymous": false
				},
				{
					"type": "event",
					"name": "SetSvgHash",
					"inputs": [
						{
							"name": "upc",
							"type": "uint256",
							"indexed": true,
							"internalType": "uint256"
						},
						{
							"name": "svgHash",
							"type": "bytes32",
							"indexed": true,
							"internalType": "bytes32"
						},
						{
							"name": "caller",
							"type": "address",
							"indexed": false,
							"internalType": "address"
						}
					],
					"anonymous": false
				},
				{
					"type": "error",
					"name": "ASSET_IS_ALREADY_BEING_WORN",
					"inputs": []
				},
				{
					"type": "error",
					"name": "CONTENTS_ALREADY_STORED",
					"inputs": []
				},
				{
					"type": "error",
					"name": "CONTENTS_MISMATCH",
					"inputs": []
				},
				{
					"type": "error",
					"name": "HASH_ALREADY_STORED",
					"inputs": []
				},
				{
					"type": "error",
					"name": "HASH_NOT_FOUND",
					"inputs": []
				},
				{
					"type": "error",
					"name": "HEAD_ALREADY_ADDED",
					"inputs": []
				},
				{
					"type": "error",
					"name": "OwnableInvalidOwner",
					"inputs": [
						{
							"name": "owner",
							"type": "address",
							"internalType": "address"
						}
					]
				},
				{
					"type": "error",
					"name": "OwnableUnauthorizedAccount",
					"inputs": [
						{
							"name": "account",
							"type": "address",
							"internalType": "address"
						}
					]
				},
				{
					"type": "error",
					"name": "SUIT_ALREADY_ADDED",
					"inputs": []
				},
				{
					"type": "error",
					"name": "UNAUTHORIZED_NAKED_BANNY",
					"inputs": []
				},
				{
					"type": "error",
					"name": "UNAUTHORIZED_OUTFIT",
					"inputs": []
				},
				{
					"type": "error",
					"name": "UNAUTHORIZED_WORLD",
					"inputs": []
				},
				{
					"type": "error",
					"name": "UNORDERED_CATEGORIES",
					"inputs": []
				},
				{
					"type": "error",
					"name": "UNRECOGNIZED_CATEGORY",
					"inputs": []
				},
				{
					"type": "error",
					"name": "UNRECOGNIZED_OUTFIT",
					"inputs": []
				},
				{
					"type": "error",
					"name": "UNRECOGNIZED_PRODUCT",
					"inputs": []
				},
				{
					"type": "error",
					"name": "UNRECOGNIZED_WORLD",
					"inputs": []
				}
			],
			"solcInputHash": "290e85c854d90f19cf02176afb8ed064",
			"receipt": {
				"blockHash": "0xb3a22ce7bed53cb202899729ea5fe3890a71ecb40ae73cd57952a4bfcb5fa739",
				"blockNumber": 9157546,
				"contractAddress": null,
				"cumulativeGasUsed": "11341962",
				"from": "0xC034550B542b83BA1De312b21d1C94a9a52B1595",
				"gasPrice": "1000277",
				"gasUsed": "11019749",
				"hash": "0x82a67101ff3d056e5962ac6fcd141051833d056b597db1b54f8fe38d7a31b791",
				"index": 6,
				"logs": [
					{
						"address": "0xB5E96127D417b1B3ef8438496a38A143167209c7",
						"blockHash": "0xb3a22ce7bed53cb202899729ea5fe3890a71ecb40ae73cd57952a4bfcb5fa739",
						"blockNumber": 9157546,
						"data": "0x0000000000000000000000000000000000000000000000000000000000000000",
						"index": 4,
						"topics": [
							"0x572f161235911da04685a68c06adf558fc7e4a36909dca394650e0adc19cc93d",
							"0x000000000000000000000000c034550b542b83ba1de312b21d1c94a9a52b1595",
							"0x000000000000000000000000183b35e76a7bc60298dcb637515f50e4def9b68b",
							"0x76ee7460d9d0800ae99c3389b460b07a2c81e264f7661ce83415e192bf878848"
						],
						"transactionHash": "0x82a67101ff3d056e5962ac6fcd141051833d056b597db1b54f8fe38d7a31b791",
						"transactionIndex": 6
					},
					{
						"address": "0x1f236212E69c56fbb0CAFFF4f27A2E3Ab40915a0",
						"blockHash": "0xb3a22ce7bed53cb202899729ea5fe3890a71ecb40ae73cd57952a4bfcb5fa739",
						"blockNumber": 9157546,
						"data": "0x",
						"index": 5,
						"topics": [
							"0x8be0079c531659141344cd1fd0a4f28419497f9722a3daafe3b4186f6b6457e0",
							"0x0000000000000000000000000000000000000000000000000000000000000000",
							"0x000000000000000000000000584f5da53cb18789099466074e3b5c32ed17243a"
						],
						"transactionHash": "0x82a67101ff3d056e5962ac6fcd141051833d056b597db1b54f8fe38d7a31b791",
						"transactionIndex": 6
					},
					{
						"address": "0x584F5Da53cb18789099466074e3B5c32Ed17243a",
						"blockHash": "0xb3a22ce7bed53cb202899729ea5fe3890a71ecb40ae73cd57952a4bfcb5fa739",
						"blockNumber": 9157546,
						"data": "0x",
						"index": 6,
						"topics": [
							"0x6895c13664aa4f67288b25d7a21d7aaa34916e355fb9b6fae0a139a9085becb8",
							"0x000000000000000000000000183b35e76a7bc60298dcb637515f50e4def9b68b"
						],
						"transactionHash": "0x82a67101ff3d056e5962ac6fcd141051833d056b597db1b54f8fe38d7a31b791",
						"transactionIndex": 6
					},
					{
						"address": "0x183b35E76A7BC60298DCb637515F50e4DeF9b68b",
						"blockHash": "0xb3a22ce7bed53cb202899729ea5fe3890a71ecb40ae73cd57952a4bfcb5fa739",
						"blockNumber": 9157546,
						"data": "0x0000000000000000000000000000000000000000000000000000000000000001",
						"index": 7,
						"topics": [
							"0xa65fb05c5808f5f389d72edeaf719ce38f4cc55c1f69ca3cbfb31c21501caa07",
							"0x9a708eb13d601c4c15b233e0767aec4a756fa52c3bc4f31093f788004d4058f0"
						],
						"transactionHash": "0x82a67101ff3d056e5962ac6fcd141051833d056b597db1b54f8fe38d7a31b791",
						"transactionIndex": 6
					},
					{
						"address": "0xC5fE393cB89632eaa226d77c5080fF34Db71b25F",
						"blockHash": "0xb3a22ce7bed53cb202899729ea5fe3890a71ecb40ae73cd57952a4bfcb5fa739",
						"blockNumber": 9157546,
						"data": "0x",
						"index": 8,
						"topics": [
							"0x8be0079c531659141344cd1fd0a4f28419497f9722a3daafe3b4186f6b6457e0",
							"0x0000000000000000000000000000000000000000000000000000000000000000",
							"0x000000000000000000000000d3838b2875a06e61befc3679ee2c8d88d61067dc"
						],
						"transactionHash": "0x82a67101ff3d056e5962ac6fcd141051833d056b597db1b54f8fe38d7a31b791",
						"transactionIndex": 6
					},
					{
						"address": "0xC5fE393cB89632eaa226d77c5080fF34Db71b25F",
						"blockHash": "0xb3a22ce7bed53cb202899729ea5fe3890a71ecb40ae73cd57952a4bfcb5fa739",
						"blockNumber": 9157546,
						"data": "0x",
						"index": 9,
						"topics": [
							"0x8be0079c531659141344cd1fd0a4f28419497f9722a3daafe3b4186f6b6457e0",
							"0x000000000000000000000000d3838b2875a06e61befc3679ee2c8d88d61067dc",
							"0x00000000000000000000000081e3b9447f99aac78810a13075bdbb3d347f9515"
						],
						"transactionHash": "0x82a67101ff3d056e5962ac6fcd141051833d056b597db1b54f8fe38d7a31b791",
						"transactionIndex": 6
					},
					{
						"address": "0x989566Bf9fF4CffA55a98ADa7dc3E58b2a0a19c6",
						"blockHash": "0xb3a22ce7bed53cb202899729ea5fe3890a71ecb40ae73cd57952a4bfcb5fa739",
						"blockNumber": 9157546,
						"data": "0x",
						"index": 10,
						"topics": [
							"0x72b627b4904fa8a0160a923aa5b142eb19f6e56dc75017884162206f8886df09",
							"0x000000000000000000000000c5fe393cb89632eaa226d77c5080ff34db71b25f",
							"0x000000000000000000000000d3838b2875a06e61befc3679ee2c8d88d61067dc"
						],
						"transactionHash": "0x82a67101ff3d056e5962ac6fcd141051833d056b597db1b54f8fe38d7a31b791",
						"transactionIndex": 6
					},
					{
						"address": "0xd3838B2875a06E61bEfc3679Ee2C8d88D61067dC",
						"blockHash": "0xb3a22ce7bed53cb202899729ea5fe3890a71ecb40ae73cd57952a4bfcb5fa739",
						"blockNumber": 9157546,
						"data": "0x000000000000000000000000c5fe393cb89632eaa226d77c5080ff34db71b25f",
						"index": 11,
						"topics": [
							"0xa42f6bb68e81f4650a7966f109d861f6c3d2a477e608e30807f568bed1cebdb9",
							"0x0000000000000000000000000000000000000000000000000000000000000003"
						],
						"transactionHash": "0x82a67101ff3d056e5962ac6fcd141051833d056b597db1b54f8fe38d7a31b791",
						"transactionIndex": 6
					},
					{
						"address": "0xf9dadA4628Eb3992202CF253625d4ECebBC1592f",
						"blockHash": "0xb3a22ce7bed53cb202899729ea5fe3890a71ecb40ae73cd57952a4bfcb5fa739",
						"blockNumber": 9157546,
						"data": "0x",
						"index": 12,
						"topics": [
							"0xddf252ad1be2c89b69c2b068fc378daa952ba7f163c4a11628f55a4df523b3ef",
							"0x0000000000000000000000000000000000000000000000000000000000000000",
							"0x00000000000000000000000081e3b9447f99aac78810a13075bdbb3d347f9515",
							"0x0000000000000000000000000000000000000000000000000000000000000003"
						],
						"transactionHash": "0x82a67101ff3d056e5962ac6fcd141051833d056b597db1b54f8fe38d7a31b791",
						"transactionIndex": 6
					},
					{
						"address": "0xf9dadA4628Eb3992202CF253625d4ECebBC1592f",
						"blockHash": "0xb3a22ce7bed53cb202899729ea5fe3890a71ecb40ae73cd57952a4bfcb5fa739",
						"blockNumber": 9157546,
						"data": "0x000000000000000000000000799d42391ed21894b105590300eed66255d72225",
						"index": 13,
						"topics": [
							"0x365b3162cd780731fc55a794b59494d472bc2af701007f581843a70673814698",
							"0x0000000000000000000000000000000000000000000000000000000000000003",
							"0x00000000000000000000000081e3b9447f99aac78810a13075bdbb3d347f9515"
						],
						"transactionHash": "0x82a67101ff3d056e5962ac6fcd141051833d056b597db1b54f8fe38d7a31b791",
						"transactionIndex": 6
					},
					{
						"address": "0xCD8c4da77dfb15C05486D3F71Ee4C2C0dfdbc94e",
						"blockHash": "0xb3a22ce7bed53cb202899729ea5fe3890a71ecb40ae73cd57952a4bfcb5fa739",
						"blockNumber": 9157546,
						"data": "0x000000000000000000000000799d42391ed21894b105590300eed66255d72225",
						"index": 14,
						"topics": [
							"0x7f9a7dcb234c909a09de2f344661ad9e5b24067adb97c908647c2edcbb121c30",
							"0x0000000000000000000000000000000000000000000000000000000000000003",
							"0x000000000000000000000000799d42391ed21894b105590300eed66255d72225"
						],
						"transactionHash": "0x82a67101ff3d056e5962ac6fcd141051833d056b597db1b54f8fe38d7a31b791",
						"transactionIndex": 6
					},
					{
						"address": "0x077044a51C5481544Acf8BCB654f68E13F167B9f",
						"blockHash": "0xb3a22ce7bed53cb202899729ea5fe3890a71ecb40ae73cd57952a4bfcb5fa739",
						"blockNumber": 9157546,
						"data": "0x",
						"index": 15,
						"topics": [
							"0xfda207e5d149787155cf9596283f246f082d4744a57e37dda99146e5dcc542bb",
							"0x00000000000000000000000000000000000000000000000000000000662ad634",
							"0x0000000000000000000000000000000000000000000000000000000000000003",
							"0x0000000000000000000000000000000000000000000000000000000000000000"
						],
						"transactionHash": "0x82a67101ff3d056e5962ac6fcd141051833d056b597db1b54f8fe38d7a31b791",
						"transactionIndex": 6
					},
					{
						"address": "0x077044a51C5481544Acf8BCB654f68E13F167B9f",
						"blockHash": "0xb3a22ce7bed53cb202899729ea5fe3890a71ecb40ae73cd57952a4bfcb5fa739",
						"blockNumber": 9157546,
						"data": "0x000000000000000000000000000000000000000000000000000000000001518000000000000000000000000000000000000000000000d3c21bcecceda10000000000000000000000000000000000000000000000000000000000000002faf0800000000000000000000000000000000000000000000000000000000000000000000040f1dca23fccd563c40850983adedd9e9a3fca8aa040000eeee1f40138810000000000000000000000000000000000000000000000000000000065f9e319000000000000000000000000799d42391ed21894b105590300eed66255d72225",
						"index": 16,
						"topics": [
							"0x11a490bebff1beffe4bdd210894aca6ea5049427ce4b3c48865717677199cb07",
							"0x00000000000000000000000000000000000000000000000000000000662ad634",
							"0x0000000000000000000000000000000000000000000000000000000000000003"
						],
						"transactionHash": "0x82a67101ff3d056e5962ac6fcd141051833d056b597db1b54f8fe38d7a31b791",
						"transactionIndex": 6
					},
					{
						"address": "0x077044a51C5481544Acf8BCB654f68E13F167B9f",
						"blockHash": "0xb3a22ce7bed53cb202899729ea5fe3890a71ecb40ae73cd57952a4bfcb5fa739",
						"blockNumber": 9157546,
						"data": "0x",
						"index": 17,
						"topics": [
							"0xfda207e5d149787155cf9596283f246f082d4744a57e37dda99146e5dcc542bb",
							"0x00000000000000000000000000000000000000000000000000000000662ad635",
							"0x0000000000000000000000000000000000000000000000000000000000000003",
							"0x00000000000000000000000000000000000000000000000000000000662ad634"
						],
						"transactionHash": "0x82a67101ff3d056e5962ac6fcd141051833d056b597db1b54f8fe38d7a31b791",
						"transactionIndex": 6
					},
					{
						"address": "0x077044a51C5481544Acf8BCB654f68E13F167B9f",
						"blockHash": "0xb3a22ce7bed53cb202899729ea5fe3890a71ecb40ae73cd57952a4bfcb5fa739",
						"blockNumber": 9157546,
						"data": "0x0000000000000000000000000000000000000000000000000000000000093a8000000000000000000000000000000000000000000000152d02c7e14af680000000000000000000000000000000000000000000000000000000000000000096800000000000000000000000000000000000000000000000000000000000000000000040f1dca23fccd563c40850983adedd9e9a3fca8aa040000eeee13881388100000000000000000000000000000000000000000000000000000000661ecd19000000000000000000000000799d42391ed21894b105590300eed66255d72225",
						"index": 18,
						"topics": [
							"0x11a490bebff1beffe4bdd210894aca6ea5049427ce4b3c48865717677199cb07",
							"0x00000000000000000000000000000000000000000000000000000000662ad635",
							"0x0000000000000000000000000000000000000000000000000000000000000003"
						],
						"transactionHash": "0x82a67101ff3d056e5962ac6fcd141051833d056b597db1b54f8fe38d7a31b791",
						"transactionIndex": 6
					},
					{
						"address": "0x966Ff291e13C5f8901a9ae5776813B89d772fDB9",
						"blockHash": "0xb3a22ce7bed53cb202899729ea5fe3890a71ecb40ae73cd57952a4bfcb5fa739",
						"blockNumber": 9157546,
						"data": "0x000000000000000000000000000000000000000000000000000000000000eeee0000000000000000000000000000000000000000000000000000000000000012000000000000000000000000000000000000000000000000000000000000eeee000000000000000000000000799d42391ed21894b105590300eed66255d72225",
						"index": 19,
						"topics": [
							"0x9570de6fc0456f642bd0a001b24cd31676388c24596df64a17190c24310690a1",
							"0x0000000000000000000000000000000000000000000000000000000000000003",
							"0x000000000000000000000000000000000000000000000000000000000000eeee"
						],
						"transactionHash": "0x82a67101ff3d056e5962ac6fcd141051833d056b597db1b54f8fe38d7a31b791",
						"transactionIndex": 6
					},
					{
						"address": "0xCD8c4da77dfb15C05486D3F71Ee4C2C0dfdbc94e",
						"blockHash": "0xb3a22ce7bed53cb202899729ea5fe3890a71ecb40ae73cd57952a4bfcb5fa739",
						"blockNumber": 9157546,
						"data": "0x0000000000000000000000000000000000000000000000000000000000000040000000000000000000000000799d42391ed21894b105590300eed66255d722250000000000000000000000000000000000000000000000000000000000000001000000000000000000000000966ff291e13c5f8901a9ae5776813b89d772fdb9",
						"index": 20,
						"topics": [
							"0xb648241d83df6540fc10f2acc641e4bf80a1e84e7ae2f1f6b0ad204b8fee635b",
							"0x0000000000000000000000000000000000000000000000000000000000000003"
						],
						"transactionHash": "0x82a67101ff3d056e5962ac6fcd141051833d056b597db1b54f8fe38d7a31b791",
						"transactionIndex": 6
					},
					{
						"address": "0x799D42391ed21894b105590300EEd66255d72225",
						"blockHash": "0xb3a22ce7bed53cb202899729ea5fe3890a71ecb40ae73cd57952a4bfcb5fa739",
						"blockNumber": 9157546,
						"data": "0x00000000000000000000000000000000000000000000000000000000662ad635000000000000000000000000000000000000000000000000000000000000000300000000000000000000000000000000000000000000000000000000000000a000000000000000000000000000000000000000000000000000000000000000c000000000000000000000000081e3b9447f99aac78810a13075bdbb3d347f9515000000000000000000000000000000000000000000000000000000000000000000000000000000000000000000000000000000000000000000000000000000162442414e4e59207265766e6574206465706c6f79656400000000000000000000",
						"index": 21,
						"topics": [
							"0x8dac501f24f52bda9ebdfa6a1789878c1d1e23823c771f7d52b5ba41261b0f45"
						],
						"transactionHash": "0x82a67101ff3d056e5962ac6fcd141051833d056b597db1b54f8fe38d7a31b791",
						"transactionIndex": 6
					},
					{
						"address": "0x8267f80C8A07198Aa06e9BA856AbD3eC690BaAfF",
						"blockHash": "0xb3a22ce7bed53cb202899729ea5fe3890a71ecb40ae73cd57952a4bfcb5fa739",
						"blockNumber": 9157546,
						"data": "0x",
						"index": 22,
						"topics": [
							"0x8be0079c531659141344cd1fd0a4f28419497f9722a3daafe3b4186f6b6457e0",
							"0x0000000000000000000000000000000000000000000000000000000000000000",
							"0x000000000000000000000000792b79adb4aa06eddabd6ddef5ee06dcb946f436"
						],
						"transactionHash": "0x82a67101ff3d056e5962ac6fcd141051833d056b597db1b54f8fe38d7a31b791",
						"transactionIndex": 6
					},
					{
						"address": "0x792b79adb4Aa06edDabd6ddef5EE06dCb946F436",
						"blockHash": "0xb3a22ce7bed53cb202899729ea5fe3890a71ecb40ae73cd57952a4bfcb5fa739",
						"blockNumber": 9157546,
						"data": "0x000000000000000000000000000000000000000000000000000000000000008000000000000000000000000000000000000000000000000000000000000000c04f122acd9d70463c24580d8aaf0b6e4851b8eafa0d6cf2df5c9ae4052e560fdc000000000000000000000000799d42391ed21894b105590300eed66255d72225000000000000000000000000000000000000000000000000000000000000000a42616e6e79766572736500000000000000000000000000000000000000000000000000000000000000000000000000000000000000000000000000000000000542414e4e59000000000000000000000000000000000000000000000000000000",
						"index": 23,
						"topics": [
							"0xb4510654a5884cae50948507300dc482833ed1446cef375e064bef00b6b4ba4e",
							"0x0000000000000000000000000000000000000000000000000000000000000003",
							"0x0000000000000000000000008267f80c8a07198aa06e9ba856abd3ec690baaff"
						],
						"transactionHash": "0x82a67101ff3d056e5962ac6fcd141051833d056b597db1b54f8fe38d7a31b791",
						"transactionIndex": 6
					},
					{
						"address": "0x26FeC21A65ccCDb877A4b355bb9eBc0360C3D84E",
						"blockHash": "0xb3a22ce7bed53cb202899729ea5fe3890a71ecb40ae73cd57952a4bfcb5fa739",
						"blockNumber": 9157546,
						"data": "0x0000000000000000000000000000000000000000000000000000000000000000000000000000000000000000000000000000000000000000000000000002a30000000000000000000000000081e3b9447f99aac78810a13075bdbb3d347f9515",
						"index": 24,
						"topics": [
							"0xa8d6b20cd05f07d50e9855ce0fc6de3517f3df2e890a5ec6357892b3808a53ce",
							"0x0000000000000000000000000000000000000000000000000000000000000003"
						],
						"transactionHash": "0x82a67101ff3d056e5962ac6fcd141051833d056b597db1b54f8fe38d7a31b791",
						"transactionIndex": 6
					},
					{
						"address": "0x26FeC21A65ccCDb877A4b355bb9eBc0360C3D84E",
						"blockHash": "0xb3a22ce7bed53cb202899729ea5fe3890a71ecb40ae73cd57952a4bfcb5fa739",
						"blockNumber": 9157546,
						"data": "0x0000000000000000000000000000000000000000000000000000000000000000000000000000000000000000000000000000000000000000000000000000232800000000000000000000000081e3b9447f99aac78810a13075bdbb3d347f9515",
						"index": 25,
						"topics": [
							"0xaafe2470cbfb11a09f9b45d6a795226e93cc251e30fdcabddbabb157a1db5353",
							"0x0000000000000000000000000000000000000000000000000000000000000003"
						],
						"transactionHash": "0x82a67101ff3d056e5962ac6fcd141051833d056b597db1b54f8fe38d7a31b791",
						"transactionIndex": 6
					},
					{
						"address": "0x26FeC21A65ccCDb877A4b355bb9eBc0360C3D84E",
						"blockHash": "0xb3a22ce7bed53cb202899729ea5fe3890a71ecb40ae73cd57952a4bfcb5fa739",
						"blockNumber": 9157546,
						"data": "0x000000000000000000000000bdded817027131779dd52b212cc6054e1c6ed6f000000000000000000000000081e3b9447f99aac78810a13075bdbb3d347f9515",
						"index": 26,
						"topics": [
							"0xe694de883385e30d535f625d68df4b2b5e866e8e86fe9d15554480c8d1812e60",
							"0x0000000000000000000000000000000000000000000000000000000000000003",
							"0x0000000000000000000000004200000000000000000000000000000000000006"
						],
						"transactionHash": "0x82a67101ff3d056e5962ac6fcd141051833d056b597db1b54f8fe38d7a31b791",
						"transactionIndex": 6
					},
					{
						"address": "0xf271e7329eD20B9b61BD5A13593e1F5bB6098644",
						"blockHash": "0xb3a22ce7bed53cb202899729ea5fe3890a71ecb40ae73cd57952a4bfcb5fa739",
						"blockNumber": 9157546,
						"data": "0x0000000000000000000000000000000000000000000000000000000000000000000000000000000000000000000000000000000000000000000000003b9aca000000000000000000000000000000000000000000000000000000000000000000000000000000000000000000584f5da53cb18789099466074e3b5c32ed17243a00000000000000000000000000000000000000000000000000000000000000000000000000000000000000000000000000000000000000000000000000000000000000000000000000000000799d42391ed21894b105590300eed66255d72225",
						"index": 27,
						"topics": [
							"0x0d7ea8ac1cb69dfa18ce2b18e90d31b4d4a0370aacadf7db42d42930a09b3f01",
							"0x0000000000000000000000000000000000000000000000000000000000000003",
							"0x0000000000000000000000000000000000000000000000000000000000000000",
							"0x0000000000000000000000000000000000000000000000000000000000000001"
						],
						"transactionHash": "0x82a67101ff3d056e5962ac6fcd141051833d056b597db1b54f8fe38d7a31b791",
						"transactionIndex": 6
					},
					{
						"address": "0x1e2E8562b635fe19978640C784e47865A83d6605",
						"blockHash": "0xb3a22ce7bed53cb202899729ea5fe3890a71ecb40ae73cd57952a4bfcb5fa739",
						"blockNumber": 9157546,
						"data": "0x00000000000000000000000000000000000000000000000000000000000000600000000000000000000000000000000000000000000000000000000002e2004000000000000000000000000081e3b9447f99aac78810a13075bdbb3d347f95150000000000000000000000000000000000000000000000000000000000000006000000000000000000000000000000000000000000000000000000000000001100000000000000000000000000000000000000000000000000000000000000190000000000000000000000000000000000000000000000000000000000000006000000000000000000000000000000000000000000000000000000000000001500000000000000000000000000000000000000000000000000000000000000160000000000000000000000000000000000000000000000000000000000000017",
						"index": 28,
						"topics": [
							"0xf8cdf10a0ce6189c6d069e97320ef146e2bcbd32d6c0b86dcbfbf3bd8578fa70",
							"0x000000000000000000000000584f5da53cb18789099466074e3b5c32ed17243a",
							"0x00000000000000000000000081e3b9447f99aac78810a13075bdbb3d347f9515",
							"0x0000000000000000000000000000000000000000000000000000000000000003"
						],
						"transactionHash": "0x82a67101ff3d056e5962ac6fcd141051833d056b597db1b54f8fe38d7a31b791",
						"transactionIndex": 6
					},
					{
						"address": "0x1e2E8562b635fe19978640C784e47865A83d6605",
						"blockHash": "0xb3a22ce7bed53cb202899729ea5fe3890a71ecb40ae73cd57952a4bfcb5fa739",
						"blockNumber": 9157546,
						"data": "0x0000000000000000000000000000000000000000000000000000000000000060000000000000000000000000000000000000000000000000000000001000000000000000000000000000000081e3b9447f99aac78810a13075bdbb3d347f95150000000000000000000000000000000000000000000000000000000000000001000000000000000000000000000000000000000000000000000000000000001c",
						"index": 29,
						"topics": [
							"0xf8cdf10a0ce6189c6d069e97320ef146e2bcbd32d6c0b86dcbfbf3bd8578fa70",
							"0x0000000000000000000000003f209ab51b59bc6c2c9c2f2147d3d51e29a862d7",
							"0x00000000000000000000000081e3b9447f99aac78810a13075bdbb3d347f9515",
							"0x0000000000000000000000000000000000000000000000000000000000000003"
						],
						"transactionHash": "0x82a67101ff3d056e5962ac6fcd141051833d056b597db1b54f8fe38d7a31b791",
						"transactionIndex": 6
					},
					{
						"address": "0x3F209aB51b59Bc6C2c9C2f2147d3d51E29A862d7",
						"blockHash": "0xb3a22ce7bed53cb202899729ea5fe3890a71ecb40ae73cd57952a4bfcb5fa739",
						"blockNumber": 9157546,
						"data": "0x000000000000000000000000000000000000000000000000000000000000000300000000000000000000000000000000000000000000000000000000000000400000000000000000000000000000000000000000000000000000000000000001000000000000000000000000582762c116610fc79c7980b473a2db64f2c9880b",
						"index": 30,
						"topics": [
							"0xd982fdd7a5657847f0905ad1aff9ab6105d1ff64590493b3486837504dafe55a"
						],
						"transactionHash": "0x82a67101ff3d056e5962ac6fcd141051833d056b597db1b54f8fe38d7a31b791",
						"transactionIndex": 6
					},
					{
						"address": "0x81e3b9447F99aac78810A13075BdBB3D347F9515",
						"blockHash": "0xb3a22ce7bed53cb202899729ea5fe3890a71ecb40ae73cd57952a4bfcb5fa739",
						"blockNumber": 9157546,
						"data": "0x000000000000000000000000000000000000000000000000000000000000010000000000000000000000000000000000000000000000000000000000000004800000000000000000000000000000000000000000000000000000000000000540000000000000000000000000000000000000000000000000000000000000062000000000000000000000000000000000000000000000000000000000000007800000000000000000000000000000000000000000000000000000000000000e200000000000000000000000000000000000000000000000000000000000000001000000000000000000000000584f5da53cb18789099466074e3b5c32ed17243a00000000000000000000000000000000000000000000000000000000000000c0000000000000000000000000000000000000000000000000000000000000eeee000000000000000000000000000000000000000000422ca8b0a00a42500000000000000000000000000000000000000000000000000000000000000000000001000000000000000000000000584f5da53cb18789099466074e3b5c32ed17243a00000000000000000000000000000000000000000000000000000000000001e0000000000000000000000000000000000000000000000000000000000000008000000000000000000000000000000000000000000000000000000000000000c0000000000000000000000000000000000000000000000000000000000000010042414e4e595f3300000000000000000000000000000000000000000000000000000000000000000000000000000000000000000000000000000000000000000a42616e6e79766572736500000000000000000000000000000000000000000000000000000000000000000000000000000000000000000000000000000000000542414e4e59000000000000000000000000000000000000000000000000000000000000000000000000000000000000000000000000000000000000000000000000000000000000000000000000000000000000000000000000000000000000020000000000000000000000000000000000000000000000000000000065f9e319000000000000000000000000000000000000000000000000000000000000138800000000000000000000000000000000000000000000d3c21bcecceda100000000000000000000000000000000000000000000000000000000000000000151800000000000000000000000000000000000000000000000000000000002faf08000000000000000000000000000000000000000000000000000000000000007d000000000000000000000000000000000000000000000000000000000661ecd19000000000000000000000000000000000000000000000000000000000000138800000000000000000000000000000000000000000000152d02c7e14af68000000000000000000000000000000000000000000000000000000000000000093a800000000000000000000000000000000000000000000000000000000000009680000000000000000000000000000000000000000000000000000000000000138800000000000000000000000000000000000000000000000000000000000000010000000000000000000000000000000000000000000000000000000000000020000000000000000000000000966ff291e13c5f8901a9ae5776813b89d772fdb900000000000000000000000000000000000000000000000000000000000000400000000000000000000000000000000000000000000000000000000000000001000000000000000000000000000000000000000000000000000000000000eeee00000000000000000000000026fec21a65cccdb877a4b355bb9ebc0360c3d84e00000000000000000000000000000000000000000000000000000000000000400000000000000000000000000000000000000000000000000000000000000001000000000000000000000000000000000000000000000000000000000000eeee0000000000000000000000000000000000000000000000000000000000002710000000000000000000000000000000000000000000000000000000000002a3000000000000000000000000000000000000000000000000000000000000002328000000000000000000000000000000000000000000000000000000000000004042414e4e595f33000000000000000000000000000000000000000000000000000000000000000000000000000000000000000000000000000000000000000001000000000000000000000000000000000000000000000000000000000000002000000000000000000000000028974ffdc4b5fb12c65da1fcf83fc9b3b9d2793a00000000000000000000000000000000000000000000000000000000000000400000000000000000000000000000000000000000000000000000000000000001000000000000000000000000000000000000000000000000000000000000eeee0000000000000000000000000000000000000000000000000000000000030d40000000000000000000000000000000000000000000000000000000000000eeee000000000000000000000000000000000000000000000000002386f26fc100000000000000000000000000000000000000000000000000000000000000000002000000000000000000000000000000000000000000000000000000000000004000000000000000000000000000000000000000000000000000000000000003600000000000000000000000000000000000000000000000000000000065f9e319000000000000000000000000000000000000000000000000000000000001518000000000000000000000000000000000000000000000d3c21bcecceda10000000000000000000000000000000000000000000000000000000000000002faf080000000000000000000000000000000000000000000000000000000000000000000000000000000000000000000000000000000000000000000000000000013880000000000000000000000000000000000000000000000000000000000001f40000000000000000000000000000000000000000000000000000000000000eeee0000000000000000000000000000000000000000000000000000000000000000000000000000000000000000000000000000000000000000000000000000000000000000000000000000000000000000000000000000000000000000000000010000000000000000000000000000000000000000000000000000000000000000000000000000000000000000000000000000000000000000000000000000000000000000000000000000000000000000000000000000000000000000000000000000000000000000000000000000000000000000000000000000000000000000000000000000000000000000000000000000000000000000000000000000000000000000000000000000000000000000000000000000000000000000000000000000000000000000000000000000000000000000000000000000000000000001000000000000000000000000000000000000000000000000000000000000000000000000000000000000000081e3b9447f99aac78810a13075bdbb3d347f9515000000000000000000000000000000000000000000000000000000000000000000000000000000000000000000000000000000000000000000000000000002e000000000000000000000000000000000000000000000000000000000000003000000000000000000000000000000000000000000000000000000000000000000000000000000000000000000000000000000000000000000000000000000000000000000000000000000000000000000000000000000000000000000661ecd190000000000000000000000000000000000000000000000000000000000093a8000000000000000000000000000000000000000000000152d02c7e14af68000000000000000000000000000000000000000000000000000000000000000009680000000000000000000000000000000000000000000000000000000000000000000000000000000000000000000000000000000000000000000000000000013880000000000000000000000000000000000000000000000000000000000001388000000000000000000000000000000000000000000000000000000000000eeee0000000000000000000000000000000000000000000000000000000000000000000000000000000000000000000000000000000000000000000000000000000000000000000000000000000000000000000000000000000000000000000000010000000000000000000000000000000000000000000000000000000000000000000000000000000000000000000000000000000000000000000000000000000000000000000000000000000000000000000000000000000000000000000000000000000000000000000000000000000000000000000000000000000000000000000000000000000000000000000000000000000000000000000000000000000000000000000000000000000000000000000000000000000000000000000000000000000000000000000000000000000000000000000000000000000000000001000000000000000000000000000000000000000000000000000000000000000000000000000000000000000081e3b9447f99aac78810a13075bdbb3d347f9515000000000000000000000000000000000000000000000000000000000000000000000000000000000000000000000000000000000000000000000000000002e000000000000000000000000000000000000000000000000000000000000003000000000000000000000000000000000000000000000000000000000000000000000000000000000000000000000000000000000000000000000000000000000000000000000000000000000000000000000000000000000000000000000002a0000000000000000000000000000000000000000000000000000000000000eeee000000000000000000000000000000000000000000000000000000000000000100000000000000000000000000000000000000000000000000000000000000a000000000000000000000000000000000000000000000000000000000000000e042414e4e595f3300000000000000000000000000000000000000000000000000000000000000000000000000000000000000000000000000000000000000000a42616e6e79766572736500000000000000000000000000000000000000000000000000000000000000000000000000000000000000000000000000000000000542414e4e590000000000000000000000000000000000000000000000000000000000000000000000000000000000000000000000000000000000000065f9e319000000000000000000000000000000000000000000000000000000000000138800000000000000000000000000000000000000000000d3c21bcecceda100000000000000000000000000000000000000000000000000000000000000000151800000000000000000000000000000000000000000000000000000000002faf08000000000000000000000000000000000000000000000000000000000000007d000000000000000000000000000000000000000000000000000000000661ecd19000000000000000000000000000000000000000000000000000000000000138800000000000000000000000000000000000000000000152d02c7e14af68000000000000000000000000000000000000000000000000000000000000000093a8000000000000000000000000000000000000000000000000000000000000096800000000000000000000000000000000000000000000000000000000000001388",
						"index": 31,
						"topics": [
							"0x4b827371715024f69a0bc98c8df6edafe6e471e78488ab1b3849de72f66b12e0",
							"0x0000000000000000000000000000000000000000000000000000000000000003"
						],
						"transactionHash": "0x82a67101ff3d056e5962ac6fcd141051833d056b597db1b54f8fe38d7a31b791",
						"transactionIndex": 6
					},
					{
						"address": "0x81e3b9447F99aac78810A13075BdBB3D347F9515",
						"blockHash": "0xb3a22ce7bed53cb202899729ea5fe3890a71ecb40ae73cd57952a4bfcb5fa739",
						"blockNumber": 9157546,
						"data": "0x0000000000000000000000000000000000000000000000000000000000000040000000000000000000000000584f5da53cb18789099466074e3b5c32ed17243a00000000000000000000000000000000000000000000000000000000000000010000000000000000000000000000000000000000000000000000000000000020000000000000000000000000c5fe393cb89632eaa226d77c5080ff34db71b25f000000000000000000000000000000000000000000000000000000000000000000000000000000000000000000000000000000000000000000000000000000600000000000000000000000000000000000000000000000000000000000000000",
						"index": 32,
						"topics": [
							"0xdfaf2737f25eace49d372b472ec03f1df0f9814dfc69d2b95c5e92a041f42e29",
							"0x0000000000000000000000000000000000000000000000000000000000000003"
						],
						"transactionHash": "0x82a67101ff3d056e5962ac6fcd141051833d056b597db1b54f8fe38d7a31b791",
						"transactionIndex": 6
					},
					{
						"address": "0x2B4853136aB24f8eB08d9E1cb536B43f48503801",
						"blockHash": "0xb3a22ce7bed53cb202899729ea5fe3890a71ecb40ae73cd57952a4bfcb5fa739",
						"blockNumber": 9157546,
						"data": "0x000000000000000000000000000000000000000000000000000000000000004000000000000000000000000081e3b9447f99aac78810a13075bdbb3d347f951500000000000000000000000000000000000000000000000000000000000000040000000000000000000000000000000000000000000000000000000000000080000000000000000000000000000000000000000000000000000000000000016000000000000000000000000000000000000000000000000000000000000002400000000000000000000000000000000000000000000000000000000000000320000000000000000000000000c5fe393cb89632eaa226d77c5080ff34db71b25f000000000000000000000000000000000000000000000000000000000000006400000000000000000000000000000000000000000000000000038d7ea4c680000000000000000000000000000000000000000000000000000000000000002710000000000000000000000000000000000000000000000000000000003b9ac9ff00000000000000000000000000000000000000000000000000000000000000c00000000000000000000000000000000000000000000000000000000000000000000000000000000000000000c5fe393cb89632eaa226d77c5080ff34db71b25f0000000000000000000000000000000000000000000000000000000000000065000000000000000000000000000000000000000000000000016345785d8a00000000000000000000000000000000000000000000000000000000000000000064000000000000000000000000000000000000000000000000000000003b9ac9ff00000000000000000000000000000000000000000000000000000000000000c00000000000000000000000000000000000000000000000000000000000000000000000000000000000000000c5fe393cb89632eaa226d77c5080ff34db71b25f00000000000000000000000000000000000000000000000000000000000000660000000000000000000000000000000000000000000000000de0b6b3a7640000000000000000000000000000000000000000000000000000000000000000000a000000000000000000000000000000000000000000000000000000003b9ac9ff00000000000000000000000000000000000000000000000000000000000000c00000000000000000000000000000000000000000000000000000000000000000000000000000000000000000c5fe393cb89632eaa226d77c5080ff34db71b25f00000000000000000000000000000000000000000000000000000000000000670000000000000000000000000000000000000000000000056bc75e2d63100000000000000000000000000000000000000000000000000000000000000000000a000000000000000000000000000000000000000000000000000000003b9ac9ff00000000000000000000000000000000000000000000000000000000000000c00000000000000000000000000000000000000000000000000000000000000000",
						"index": 33,
						"topics": [
							"0x721f1fc2dbea25cab88bdd50f9b47aff50f4b8c43ea6ea02b3587c82b940ad41",
							"0x0000000000000000000000000000000000000000000000000000000000000003"
						],
						"transactionHash": "0x82a67101ff3d056e5962ac6fcd141051833d056b597db1b54f8fe38d7a31b791",
						"transactionIndex": 6
					},
					{
						"address": "0x1e2E8562b635fe19978640C784e47865A83d6605",
						"blockHash": "0xb3a22ce7bed53cb202899729ea5fe3890a71ecb40ae73cd57952a4bfcb5fa739",
						"blockNumber": 9157546,
						"data": "0x0000000000000000000000000000000000000000000000000000000000000060000000000000000000000000000000000000000000000000000000000020000000000000000000000000000081e3b9447f99aac78810a13075bdbb3d347f951500000000000000000000000000000000000000000000000000000000000000010000000000000000000000000000000000000000000000000000000000000015",
						"index": 34,
						"topics": [
							"0xf8cdf10a0ce6189c6d069e97320ef146e2bcbd32d6c0b86dcbfbf3bd8578fa70",
							"0x0000000000000000000000002b4853136ab24f8eb08d9e1cb536b43f48503801",
							"0x00000000000000000000000081e3b9447f99aac78810a13075bdbb3d347f9515",
							"0x0000000000000000000000000000000000000000000000000000000000000003"
						],
						"transactionHash": "0x82a67101ff3d056e5962ac6fcd141051833d056b597db1b54f8fe38d7a31b791",
						"transactionIndex": 6
					},
					{
						"address": "0x584F5Da53cb18789099466074e3B5c32Ed17243a",
						"blockHash": "0xb3a22ce7bed53cb202899729ea5fe3890a71ecb40ae73cd57952a4bfcb5fa739",
						"blockNumber": 9157546,
						"data": "0x",
						"index": 35,
						"topics": [
							"0x6895c13664aa4f67288b25d7a21d7aaa34916e355fb9b6fae0a139a9085becb8",
							"0x000000000000000000000000183b35e76a7bc60298dcb637515f50e4def9b68b"
						],
						"transactionHash": "0x82a67101ff3d056e5962ac6fcd141051833d056b597db1b54f8fe38d7a31b791",
						"transactionIndex": 6
					},
					{
						"address": "0x183b35E76A7BC60298DCb637515F50e4DeF9b68b",
						"blockHash": "0xb3a22ce7bed53cb202899729ea5fe3890a71ecb40ae73cd57952a4bfcb5fa739",
						"blockNumber": 9157546,
						"data": "0x0000000000000000000000000000000000000000000000000000000000000002",
						"index": 36,
						"topics": [
							"0xa65fb05c5808f5f389d72edeaf719ce38f4cc55c1f69ca3cbfb31c21501caa07",
							"0x9a708eb13d601c4c15b233e0767aec4a756fa52c3bc4f31093f788004d4058f0"
						],
						"transactionHash": "0x82a67101ff3d056e5962ac6fcd141051833d056b597db1b54f8fe38d7a31b791",
						"transactionIndex": 6
					},
					{
						"address": "0x183b35E76A7BC60298DCb637515F50e4DeF9b68b",
						"blockHash": "0xb3a22ce7bed53cb202899729ea5fe3890a71ecb40ae73cd57952a4bfcb5fa739",
						"blockNumber": 9157546,
						"data": "0x",
						"index": 37,
						"topics": [
							"0x4383d976757d67ca920616be0b6430a681ea9d3dcce8d6d61d4603ca4a9bff63",
							"0x9a708eb13d601c4c15b233e0767aec4a756fa52c3bc4f31093f788004d4058f0"
						],
						"transactionHash": "0x82a67101ff3d056e5962ac6fcd141051833d056b597db1b54f8fe38d7a31b791",
						"transactionIndex": 6
					}
				],
				"logsBloom": "0x04c00800080014000228040200082222010000000008044000d110020141000000000000204100000000202014480000000041800250000100200080000420100000021400002000800000080000000820210800000409000010800000c000100000000002020000800a40200110080000881000000008004022005200004040800100021040012000010001000000240012200800100300000010632000000000401082001c000018080000000000020600080400c00060100220414004601000008002040804000280000048080800810100000004018002200010000260000040000020800008200000000000000780001002000200008000000408a04100",
				"status": 1,
				"to": "0xB5E96127D417b1B3ef8438496a38A143167209c7"
			},
			"metadata": "{\"compiler\":{\"version\":\"0.8.23+commit.f704f362\"},\"language\":\"Solidity\",\"output\":{\"abi\":[{\"inputs\":[{\"internalType\":\"address\",\"name\":\"owner\",\"type\":\"address\"},{\"internalType\":\"address\",\"name\":\"trustedForwarder\",\"type\":\"address\"}],\"stateMutability\":\"nonpayable\",\"type\":\"constructor\"},{\"inputs\":[],\"type\":\"error\",\"name\":\"ASSET_IS_ALREADY_BEING_WORN\"},{\"inputs\":[],\"type\":\"error\",\"name\":\"CONTENTS_ALREADY_STORED\"},{\"inputs\":[],\"type\":\"error\",\"name\":\"CONTENTS_MISMATCH\"},{\"inputs\":[],\"type\":\"error\",\"name\":\"HASH_ALREADY_STORED\"},{\"inputs\":[],\"type\":\"error\",\"name\":\"HASH_NOT_FOUND\"},{\"inputs\":[],\"type\":\"error\",\"name\":\"HEAD_ALREADY_ADDED\"},{\"inputs\":[{\"internalType\":\"address\",\"name\":\"owner\",\"type\":\"address\"}],\"type\":\"error\",\"name\":\"OwnableInvalidOwner\"},{\"inputs\":[{\"internalType\":\"address\",\"name\":\"account\",\"type\":\"address\"}],\"type\":\"error\",\"name\":\"OwnableUnauthorizedAccount\"},{\"inputs\":[],\"type\":\"error\",\"name\":\"SUIT_ALREADY_ADDED\"},{\"inputs\":[],\"type\":\"error\",\"name\":\"UNAUTHORIZED_NAKED_BANNY\"},{\"inputs\":[],\"type\":\"error\",\"name\":\"UNAUTHORIZED_OUTFIT\"},{\"inputs\":[],\"type\":\"error\",\"name\":\"UNAUTHORIZED_WORLD\"},{\"inputs\":[],\"type\":\"error\",\"name\":\"UNORDERED_CATEGORIES\"},{\"inputs\":[],\"type\":\"error\",\"name\":\"UNRECOGNIZED_CATEGORY\"},{\"inputs\":[],\"type\":\"error\",\"name\":\"UNRECOGNIZED_OUTFIT\"},{\"inputs\":[],\"type\":\"error\",\"name\":\"UNRECOGNIZED_PRODUCT\"},{\"inputs\":[],\"type\":\"error\",\"name\":\"UNRECOGNIZED_WORLD\"},{\"inputs\":[{\"internalType\":\"address\",\"name\":\"hook\",\"type\":\"address\",\"indexed\":true},{\"internalType\":\"uint256\",\"name\":\"nakenBannyId\",\"type\":\"uint256\",\"indexed\":true},{\"internalType\":\"uint256\",\"name\":\"worldId\",\"type\":\"uint256\",\"indexed\":false},{\"internalType\":\"uint256[]\",\"name\":\"outfitIds\",\"type\":\"uint256[]\",\"indexed\":false},{\"internalType\":\"address\",\"name\":\"caller\",\"type\":\"address\",\"indexed\":false}],\"type\":\"event\",\"name\":\"DecorateBanny\",\"anonymous\":false},{\"inputs\":[{\"internalType\":\"address\",\"name\":\"previousOwner\",\"type\":\"address\",\"indexed\":true},{\"internalType\":\"address\",\"name\":\"newOwner\",\"type\":\"address\",\"indexed\":true}],\"type\":\"event\",\"name\":\"OwnershipTransferred\",\"anonymous\":false},{\"inputs\":[{\"internalType\":\"uint256\",\"name\":\"upc\",\"type\":\"uint256\",\"indexed\":true},{\"internalType\":\"string\",\"name\":\"name\",\"type\":\"string\",\"indexed\":false},{\"internalType\":\"address\",\"name\":\"caller\",\"type\":\"address\",\"indexed\":false}],\"type\":\"event\",\"name\":\"SetProductName\",\"anonymous\":false},{\"inputs\":[{\"internalType\":\"string\",\"name\":\"baseUri\",\"type\":\"string\",\"indexed\":false},{\"internalType\":\"address\",\"name\":\"caller\",\"type\":\"address\",\"indexed\":false}],\"type\":\"event\",\"name\":\"SetSvgBaseUri\",\"anonymous\":false},{\"inputs\":[{\"internalType\":\"uint256\",\"name\":\"upc\",\"type\":\"uint256\",\"indexed\":true},{\"internalType\":\"string\",\"name\":\"svgContent\",\"type\":\"string\",\"indexed\":false},{\"internalType\":\"address\",\"name\":\"caller\",\"type\":\"address\",\"indexed\":false}],\"type\":\"event\",\"name\":\"SetSvgContent\",\"anonymous\":false},{\"inputs\":[{\"internalType\":\"uint256\",\"name\":\"upc\",\"type\":\"uint256\",\"indexed\":true},{\"internalType\":\"bytes32\",\"name\":\"svgHash\",\"type\":\"bytes32\",\"indexed\":true},{\"internalType\":\"address\",\"name\":\"caller\",\"type\":\"address\",\"indexed\":false}],\"type\":\"event\",\"name\":\"SetSvgHash\",\"anonymous\":false},{\"inputs\":[{\"internalType\":\"uint256\",\"name\":\"nakedBannyId\",\"type\":\"uint256\"}],\"stateMutability\":\"view\",\"type\":\"function\",\"name\":\"assetIdsOf\",\"outputs\":[{\"internalType\":\"uint256\",\"name\":\"worldId\",\"type\":\"uint256\"},{\"internalType\":\"uint256[]\",\"name\":\"outfitIds\",\"type\":\"uint256[]\"}]},{\"inputs\":[{\"internalType\":\"address\",\"name\":\"hook\",\"type\":\"address\"},{\"internalType\":\"uint256\",\"name\":\"nakedBannyId\",\"type\":\"uint256\"},{\"internalType\":\"uint256\",\"name\":\"worldId\",\"type\":\"uint256\"},{\"internalType\":\"uint256[]\",\"name\":\"outfitIds\",\"type\":\"uint256[]\"}],\"stateMutability\":\"nonpayable\",\"type\":\"function\",\"name\":\"decorateBannyWith\"},{\"inputs\":[{\"internalType\":\"address\",\"name\":\"forwarder\",\"type\":\"address\"}],\"stateMutability\":\"view\",\"type\":\"function\",\"name\":\"isTrustedForwarder\",\"outputs\":[{\"internalType\":\"bool\",\"name\":\"\",\"type\":\"bool\"}]},{\"inputs\":[{\"internalType\":\"address\",\"name\":\"hook\",\"type\":\"address\"},{\"internalType\":\"uint256\",\"name\":\"tokenId\",\"type\":\"uint256\"}],\"stateMutability\":\"view\",\"type\":\"function\",\"name\":\"namesOf\",\"outputs\":[{\"internalType\":\"string\",\"name\":\"\",\"type\":\"string\"},{\"internalType\":\"string\",\"name\":\"\",\"type\":\"string\"},{\"internalType\":\"string\",\"name\":\"\",\"type\":\"string\"}]},{\"inputs\":[],\"stateMutability\":\"view\",\"type\":\"function\",\"name\":\"owner\",\"outputs\":[{\"internalType\":\"address\",\"name\":\"\",\"type\":\"address\"}]},{\"inputs\":[],\"stateMutability\":\"nonpayable\",\"type\":\"function\",\"name\":\"renounceOwnership\"},{\"inputs\":[{\"internalType\":\"uint256[]\",\"name\":\"upcs\",\"type\":\"uint256[]\"},{\"internalType\":\"string[]\",\"name\":\"names\",\"type\":\"string[]\"}],\"stateMutability\":\"nonpayable\",\"type\":\"function\",\"name\":\"setProductNames\"},{\"inputs\":[{\"internalType\":\"string\",\"name\":\"baseUri\",\"type\":\"string\"}],\"stateMutability\":\"nonpayable\",\"type\":\"function\",\"name\":\"setSvgBaseUri\"},{\"inputs\":[{\"internalType\":\"uint256[]\",\"name\":\"upcs\",\"type\":\"uint256[]\"},{\"internalType\":\"string[]\",\"name\":\"svgContents\",\"type\":\"string[]\"}],\"stateMutability\":\"nonpayable\",\"type\":\"function\",\"name\":\"setSvgContentsOf\"},{\"inputs\":[{\"internalType\":\"uint256[]\",\"name\":\"upcs\",\"type\":\"uint256[]\"},{\"internalType\":\"bytes32[]\",\"name\":\"svgHashs\",\"type\":\"bytes32[]\"}],\"stateMutability\":\"nonpayable\",\"type\":\"function\",\"name\":\"setSvgHashsOf\"},{\"inputs\":[],\"stateMutability\":\"view\",\"type\":\"function\",\"name\":\"svgBaseUri\",\"outputs\":[{\"internalType\":\"string\",\"name\":\"\",\"type\":\"string\"}]},{\"inputs\":[{\"internalType\":\"uint256\",\"name\":\"upc\",\"type\":\"uint256\"}],\"stateMutability\":\"view\",\"type\":\"function\",\"name\":\"svgHashOf\",\"outputs\":[{\"internalType\":\"bytes32\",\"name\":\"\",\"type\":\"bytes32\"}]},{\"inputs\":[{\"internalType\":\"address\",\"name\":\"hook\",\"type\":\"address\"},{\"internalType\":\"uint256\",\"name\":\"tokenId\",\"type\":\"uint256\"},{\"internalType\":\"bool\",\"name\":\"shouldDressNakedBanny\",\"type\":\"bool\"},{\"internalType\":\"bool\",\"name\":\"shouldIncludeWorldOnNakedBanny\",\"type\":\"bool\"}],\"stateMutability\":\"view\",\"type\":\"function\",\"name\":\"svgOf\",\"outputs\":[{\"internalType\":\"string\",\"name\":\"\",\"type\":\"string\"}]},{\"inputs\":[{\"internalType\":\"address\",\"name\":\"hook\",\"type\":\"address\"},{\"internalType\":\"uint256\",\"name\":\"tokenId\",\"type\":\"uint256\"}],\"stateMutability\":\"view\",\"type\":\"function\",\"name\":\"tokenUriOf\",\"outputs\":[{\"internalType\":\"string\",\"name\":\"\",\"type\":\"string\"}]},{\"inputs\":[{\"internalType\":\"address\",\"name\":\"newOwner\",\"type\":\"address\"}],\"stateMutability\":\"nonpayable\",\"type\":\"function\",\"name\":\"transferOwnership\"},{\"inputs\":[],\"stateMutability\":\"view\",\"type\":\"function\",\"name\":\"trustedForwarder\",\"outputs\":[{\"internalType\":\"address\",\"name\":\"\",\"type\":\"address\"}]},{\"inputs\":[{\"internalType\":\"uint256\",\"name\":\"worldId\",\"type\":\"uint256\"}],\"stateMutability\":\"view\",\"type\":\"function\",\"name\":\"userOf\",\"outputs\":[{\"internalType\":\"uint256\",\"name\":\"\",\"type\":\"uint256\"}]},{\"inputs\":[{\"internalType\":\"uint256\",\"name\":\"outfitId\",\"type\":\"uint256\"}],\"stateMutability\":\"view\",\"type\":\"function\",\"name\":\"wearerOf\",\"outputs\":[{\"internalType\":\"uint256\",\"name\":\"\",\"type\":\"uint256\"}]}],\"devdoc\":{\"kind\":\"dev\",\"methods\":{\"assetIdsOf(uint256)\":{\"params\":{\"nakedBannyId\":\"The ID of the naked banny shows with the associated assets.\"},\"returns\":{\"outfitIds\":\"The outfits attached to the Naked Banny.\",\"worldId\":\"The world attached to the Naked Banny.\"}},\"constructor\":{\"params\":{\"owner\":\"The owner allowed to add SVG files that correspond to product IDs.\",\"trustedForwarder\":\"The trusted forwarder for the ERC2771Context.\"}},\"decorateBannyWith(address,uint256,uint256,uint256[])\":{\"details\":\"The caller must own the naked banny being dressed and all outfits being worn.\",\"params\":{\"hook\":\"The hook storing the assets.\",\"nakedBannyId\":\"The ID of the Naked Banny being dressed.\",\"outfitIds\":\"The IDs of the outfits that'll be associated with the specified banny. Only one outfit per outfit category allowed at a time and they must be passed in order.\",\"worldId\":\"The ID of the world that'll be associated with the specified banny.\"}},\"isTrustedForwarder(address)\":{\"details\":\"Indicates whether any particular address is the trusted forwarder.\"},\"namesOf(address,uint256)\":{\"params\":{\"hook\":\"The hook storing the assets.\",\"tokenId\":\"The ID of the token to show.\"},\"returns\":{\"_0\":\"fullName The full name of the token.\",\"_1\":\"categoryName The name of the token's category.\",\"_2\":\"productName The name of the token's product.\"}},\"owner()\":{\"details\":\"Returns the address of the current owner.\"},\"renounceOwnership()\":{\"details\":\"Leaves the contract without owner. It will not be possible to call `onlyOwner` functions. Can only be called by the current owner. NOTE: Renouncing ownership will leave the contract without an owner, thereby disabling any functionality that is only available to the owner.\"},\"setProductNames(uint256[],string[])\":{\"params\":{\"names\":\"The names of the products.\",\"upcs\":\"The universal product codes of the products having their name stored.\"}},\"setSvgContentsOf(uint256[],string[])\":{\"params\":{\"svgContents\":\"The svg contents being stored, not including the parent <svg></svg> element.\",\"upcs\":\"The universal product codes of the products having SVGs stored.\"}},\"setSvgHashsOf(uint256[],bytes32[])\":{\"details\":\"This allows anyone to lazily upload the correct svg file.\",\"params\":{\"svgHashs\":\"The svg hashes being stored, not including the parent <svg></svg> element.\",\"upcs\":\"The universal product codes of the products having SVG hashes stored.\"}},\"svgOf(address,uint256,bool,bool)\":{\"params\":{\"hook\":\"The hook storing the assets.\",\"shouldDressNakedBanny\":\"Whether the naked banny should be dressed.\",\"shouldIncludeWorldOnNakedBanny\":\"Whether the world should be included on the naked banny.\",\"tokenId\":\"The ID of the token to show. If the ID belongs to a Naked Banny, it will be shown with its current outfits in its current world if specified.\"},\"returns\":{\"_0\":\"svg The SVG.\"}},\"tokenUriOf(address,uint256)\":{\"params\":{\"tokenId\":\"The ID of the token to show. If the ID belongs to a Naked Banny, it will be shown with its current outfits in its current world.\"},\"returns\":{\"_0\":\"tokenUri The URI representing the SVG.\"}},\"transferOwnership(address)\":{\"details\":\"Transfers ownership of the contract to a new account (`newOwner`). Can only be called by the current owner.\"},\"trustedForwarder()\":{\"details\":\"Returns the address of the trusted forwarder.\"},\"userOf(uint256)\":{\"params\":{\"worldId\":\"The ID of the world being used.\"},\"returns\":{\"_0\":\"The ID of the naked banny using the world.\"}},\"wearerOf(uint256)\":{\"params\":{\"outfitId\":\"The ID of the outfit being worn.\"},\"returns\":{\"_0\":\"The ID of the naked banny wearing the outfit.\"}}},\"version\":1},\"userdoc\":{\"kind\":\"user\",\"methods\":{\"assetIdsOf(uint256)\":{\"notice\":\"The assets currently attached to each Naked Banny, owned by the naked Banny's owner.\"},\"decorateBannyWith(address,uint256,uint256,uint256[])\":{\"notice\":\"Dress your Naked Banny with outfits.\"},\"namesOf(address,uint256)\":{\"notice\":\"Returns the name of the token.\"},\"setProductNames(uint256[],string[])\":{\"notice\":\"Allows the owner to set the product's name.\"},\"setSvgBaseUri(string)\":{\"notice\":\"Allows the owner of this contract to specify the base of the domain hosting the SVG files.\"},\"setSvgContentsOf(uint256[],string[])\":{\"notice\":\"The owner of this contract can store SVG files for product IDs.\"},\"setSvgHashsOf(uint256[],bytes32[])\":{\"notice\":\"Allows the owner of this contract to upload the hash of an svg file for a universal product code.\"},\"svgBaseUri()\":{\"notice\":\"The base of the domain hosting the SVG files that can be lazily uploaded to the contract.\"},\"svgHashOf(uint256)\":{\"notice\":\"The Naked Banny and outfit SVG hash files.\"},\"svgOf(address,uint256,bool,bool)\":{\"notice\":\"Returns the SVG showing either a naked banny with/without outfits and a world, or the stand alone outfit or world.\"},\"tokenUriOf(address,uint256)\":{\"notice\":\"Returns the SVG showing a dressed Naked Banny in a world.\"},\"userOf(uint256)\":{\"notice\":\"Checks to see which naked banny is currently using a particular world.\"},\"wearerOf(uint256)\":{\"notice\":\"Checks to see which naked banny is currently wearing a particular outfit.\"}},\"version\":1}},\"settings\":{\"remappings\":[\"@arbitrum/=node_modules/@arbitrum/\",\"@bananapus/=node_modules/@bananapus/\",\"@chainlink/=node_modules/@chainlink/\",\"@croptop/=node_modules/@croptop/\",\"@eth-optimism/=node_modules/@eth-optimism/\",\"@exhausted-pigeon/=node_modules/@exhausted-pigeon/\",\"@offchainlabs/=node_modules/@offchainlabs/\",\"@openzeppelin/=node_modules/@openzeppelin/\",\"@prb/=node_modules/@prb/\",\"@rev-net/=node_modules/@rev-net/\",\"@scroll-tech/=node_modules/@scroll-tech/\",\"@sphinx-labs/contracts/=node_modules/@sphinx-labs/contracts/contracts/foundry/\",\"@uniswap/=node_modules/@uniswap/\",\"base64-sol/=node_modules/base64-sol/\",\"base64/=lib/base64/\",\"ds-test/=lib/forge-std/lib/ds-test/src/\",\"forge-std/=lib/forge-std/src/\",\"hardhat/=node_modules/hardhat/\",\"solmate/=node_modules/solmate/\",\"sphinx/=lib/sphinx/packages/contracts/contracts/forge-std/src/\"],\"optimizer\":{\"enabled\":true,\"runs\":200},\"metadata\":{\"bytecodeHash\":\"ipfs\"},\"compilationTarget\":{\"src/Banny721TokenUriResolver.sol\":\"Banny721TokenUriResolver\"},\"evmVersion\":\"paris\",\"libraries\":{},\"viaIR\":true},\"sources\":{\"lib/base64/base64.sol\":{\"keccak256\":\"0xa73959e6ef0b693e4423a562e612370160b934a75e618361ddd8c9c4b8ddbaaf\",\"urls\":[\"bzz-raw://17c12e16d8d66f3af15d8787920bd41ca6c1e7517a212a6b9cebd4b6d38f36fe\",\"dweb:/ipfs/QmcXMnZUXEz6LRKsm3CSvqdPboAzmezavi8bTg2dRxM2yE\"],\"license\":\"MIT\"},\"node_modules/@bananapus/721-hook/src/abstract/ERC721.sol\":{\"keccak256\":\"0xc25c7c60c88684adc3f7a49621d27866866a44a3f3796e63c9fcaba75fbb2e84\",\"urls\":[\"bzz-raw://713103b7a05402264493430cfcd7d85f1a241a2eb4756af53a370fa529ea07bf\",\"dweb:/ipfs/QmSXZfxCG1N9XheS1kLCNJZ9k6ZRq4GnAMY7MKFfbKLXmz\"],\"license\":\"MIT\"},\"node_modules/@bananapus/721-hook/src/interfaces/IJB721Hook.sol\":{\"keccak256\":\"0x24935445bc4c5b0fe2a10aabe549122588940842a68e79a8c39b1df9458dd7fd\",\"urls\":[\"bzz-raw://1dee273fa76d9abae116de911fdda5e3113db2a58939e62e24fba98c63fd037a\",\"dweb:/ipfs/QmT6Lih7DeRAfrLc8uC7ecaw2EAKwhaP2BZHeY5DxeeVLM\"],\"license\":\"MIT\"},\"node_modules/@bananapus/721-hook/src/interfaces/IJB721TiersHook.sol\":{\"keccak256\":\"0xbd9a8dae00a4b1a02c628bd172fe4ae496e49f7651426cef08774ffdb6125c23\",\"urls\":[\"bzz-raw://9ce4fd77d5af1f570dad6b70758f09f9599768e1ab32f6b473f6181197daa0c8\",\"dweb:/ipfs/QmWj6sCTvZ2CbfSyRuhaXADxYbwwPcR42pZokcgfjpsabg\"],\"license\":\"MIT\"},\"node_modules/@bananapus/721-hook/src/interfaces/IJB721TiersHookStore.sol\":{\"keccak256\":\"0x8550e216c12c9cda865c1b1b0eb3f244aeaa8d465b197d4bd0dd8d4df265682e\",\"urls\":[\"bzz-raw://674a312f1eaffd7c6b21f58f8d4a628104e71220daf48a22237fa3bd035ddf21\",\"dweb:/ipfs/QmSRSW6cSwdpoGjVxDqiwJmJyCxfHWhCxZ2iaqeJcN2Ccy\"],\"license\":\"MIT\"},\"node_modules/@bananapus/721-hook/src/interfaces/IJB721TokenUriResolver.sol\":{\"keccak256\":\"0xfa599167098f4459320ec4141a98a17b2dfffbce422baa27d8b4e4530f61ece1\",\"urls\":[\"bzz-raw://8b758b161f4c7b520b2c34b4d91e585e961b8f4ca278eebb91d791f7f2f45140\",\"dweb:/ipfs/QmcD9DF7NJ9QykQpT4KPzm4bs3fkjzukdAUWwdU6Atfw85\"],\"license\":\"MIT\"},\"node_modules/@bananapus/721-hook/src/libraries/JBIpfsDecoder.sol\":{\"keccak256\":\"0xb93ba562ac1fc9d3829be00e61f3a90f51df5661cf0f2c819a7f1d8ba19ec171\",\"urls\":[\"bzz-raw://fc9bc948fac8897d9720ef25b13d63c60b40a18aa1897dd1c657fc278c416b4f\",\"dweb:/ipfs/QmNtiJTALZW5zfyKVy7XG5GkqGgMrfkVvU4Auu4bb9cGQc\"],\"license\":\"MIT\"},\"node_modules/@bananapus/721-hook/src/structs/JB721InitTiersConfig.sol\":{\"keccak256\":\"0xfb78486cec94189d0ecf2050dc9cfc11245b426c73a0711a85bff1359d774307\",\"urls\":[\"bzz-raw://a8fa01f6e64dd204dbde07a60851e9a5a74e439e1411139ae16b7cf67d2a2692\",\"dweb:/ipfs/QmZAnHyfpKr3xr7NWHj5sGaCEEtG8RtmHhkRUJJvNauym5\"],\"license\":\"MIT\"},\"node_modules/@bananapus/721-hook/src/structs/JB721Tier.sol\":{\"keccak256\":\"0x2e267a8af02f125465cdda9308477346ae4a94b024c3b2c2a6af0c00027944dd\",\"urls\":[\"bzz-raw://367ccea2c8fa815d498d771d4367ef1ded718a76e89644102034bfe4a3636b82\",\"dweb:/ipfs/QmYiFFa6ei9wZBSSVUHfY2Cb35zCDVXvbmLcgLj2BTiC1u\"],\"license\":\"MIT\"},\"node_modules/@bananapus/721-hook/src/structs/JB721TierConfig.sol\":{\"keccak256\":\"0x2fa9c5c8cec182b854a656d3b284e9d5306be35ad3dc4da79d65dca12b804af0\",\"urls\":[\"bzz-raw://b443a5f70195a66145ea1dade04454ce9a3ff1209e1aaecf53c8a9909b294d79\",\"dweb:/ipfs/QmUDPFZ4L6XpV3zLQUNVchUvecD4XfddKz2S46BKek5XL1\"],\"license\":\"MIT\"},\"node_modules/@bananapus/721-hook/src/structs/JB721TiersHookFlags.sol\":{\"keccak256\":\"0x283d8429f31bd58875c056515aa42abd09c95362bd929e85cfc44a0d92585766\",\"urls\":[\"bzz-raw://9a580b89fe99d9f8e930c58a4d0d63a5ff7c01c79d210af01373d066c9e72ed6\",\"dweb:/ipfs/QmdY1eSGSoTjv4KSdsG4Tm5CzJN6iqk3qTRga5ZWNbejRz\"],\"license\":\"MIT\"},\"node_modules/@bananapus/721-hook/src/structs/JB721TiersMintReservesConfig.sol\":{\"keccak256\":\"0xab3b319dc4e736586ae595de194d93dcdfeba365bc7a54cf6c37e697f6074ad9\",\"urls\":[\"bzz-raw://a84ae2cf2e8c3e39e831dbb39a67a8eb43c78a6de6bb78b1be2e1f1e80c69efe\",\"dweb:/ipfs/QmboGXEMqsYTxc4a7oft9rggNU7ShWSa9yB4HFMVmzXCHz\"],\"license\":\"MIT\"},\"node_modules/@bananapus/core/src/enums/JBApprovalStatus.sol\":{\"keccak256\":\"0x61c69b6bac7d24b566d87cda23a77e4ca9cdb87200b106aba8534cb9a0973e33\",\"urls\":[\"bzz-raw://6a9ca7249de76f77a8252eefe6bd1b63d47952f25a2acfa2c8db967cdff4470c\",\"dweb:/ipfs/QmaxSxptRQNj8bNy96EreENmrnRWdKmhyihBcxyWzBX5BN\"],\"license\":\"MIT\"},\"node_modules/@bananapus/core/src/interfaces/IJBDirectory.sol\":{\"keccak256\":\"0x9cc380844aef60078ee47a61861e55a29c4a8c947efd556ebd36e6909f7b9d62\",\"urls\":[\"bzz-raw://9f5190ec8b6683d9781ee6e9eedcc91294753242748875d4a06349077e4cbaaf\",\"dweb:/ipfs/QmTQrPuXT9TCA4txwrperMeXSGvGxP8iokUK47f62F388i\"],\"license\":\"MIT\"},\"node_modules/@bananapus/core/src/interfaces/IJBPayHook.sol\":{\"keccak256\":\"0x9438866782c652c2942f4d114e35f393cd3c8b0334abce8387eed90bca35e8b2\",\"urls\":[\"bzz-raw://cfd99daf57213f92325aad7d7d16e98476d38e870470e95ba01e3ae3cdecc95d\",\"dweb:/ipfs/QmUKKAVGf7ki8BHksr99tFcRW8APveeB5tNH63ctTbbCW8\"],\"license\":\"MIT\"},\"node_modules/@bananapus/core/src/interfaces/IJBPriceFeed.sol\":{\"keccak256\":\"0x4bd84c0f1a5d4729ed709bcddd43f4c50ec4a165ece79780af8dce482ed07d4a\",\"urls\":[\"bzz-raw://62bac4bfb6982fb002f620c77e5c445e62d50241a5aa64a07e51d929f5a42180\",\"dweb:/ipfs/QmWgJUDreVY2BuMX38a1iUUR5kNbMwGnKG3VvurB7oZtuM\"],\"license\":\"MIT\"},\"node_modules/@bananapus/core/src/interfaces/IJBPrices.sol\":{\"keccak256\":\"0x99525f31440b955742dce84ba57de9fc1221139b5367c1f834723bef9e13e6e1\",\"urls\":[\"bzz-raw://6fa03f0cd4ad87dd7cbae7bf7f54463450874291773c8f70f2c31ef2cae62bb0\",\"dweb:/ipfs/QmSPajPV5ismteJuB6Spzm9VmhTj2iS3eVrfpJC1Zuzg8n\"],\"license\":\"MIT\"},\"node_modules/@bananapus/core/src/interfaces/IJBProjects.sol\":{\"keccak256\":\"0x735c2fb8f1fa827f054ee77f7a0ae4b312656217acb75b624d2c8fd9dc40151b\",\"urls\":[\"bzz-raw://ee7fc92299a8633a80693ae63ab494dcd125f1789487a54a39dc0e5696e5996f\",\"dweb:/ipfs/QmX7YJD4pS2XhgQb7p3JbBAXynT7YGPXcZe92BiWWRrsCL\"],\"license\":\"MIT\"},\"node_modules/@bananapus/core/src/interfaces/IJBRulesetApprovalHook.sol\":{\"keccak256\":\"0x592e95d159494421c6b1bcb362d0cee1df0132921697351304e9cd7af4fbd386\",\"urls\":[\"bzz-raw://5bebfd5fa67c1b6ea16fa2e76e9520e9dfe52a579f48dd94d0c2ec45f78ad178\",\"dweb:/ipfs/QmRUawEGtfYoYSHmHELGhvJoWuMsxLPKtqAXgsrb7fJboP\"],\"license\":\"MIT\"},\"node_modules/@bananapus/core/src/interfaces/IJBRulesets.sol\":{\"keccak256\":\"0xd3f817d22ecbe24da63c552c069bf0c4fbbf3bcd5c3b5633002afd24aacf6882\",\"urls\":[\"bzz-raw://c1185aec0f6b6f0f4d93ffeeed0972ccf38420b00fe570b5e1838ed2b1f5db49\",\"dweb:/ipfs/QmWz36azGTFnjFXpFSh6BHt4nactgjtF64L3PeTqs4ZqSR\"],\"license\":\"MIT\"},\"node_modules/@bananapus/core/src/interfaces/IJBTerminal.sol\":{\"keccak256\":\"0x19dc9bf8cbdc8f13ee5da9dc3a87047eacb94a3fc19740a286c1f0bad2cc39ca\",\"urls\":[\"bzz-raw://0b05ae6fda9a85672508232fd992b8a5f5ffd8096622eeb12c8a7b3317eb3867\",\"dweb:/ipfs/QmNh9Quj37BXYGdTdcCD1Q58PchRsE5TLbEZep56qS3MpV\"],\"license\":\"MIT\"},\"node_modules/@bananapus/core/src/interfaces/IJBTokenUriResolver.sol\":{\"keccak256\":\"0xfa5cb00dcd6085d1ef912d071fe73c63f9478a2cd0f9d8bddaf659b6af2d0967\",\"urls\":[\"bzz-raw://282e4e7c342d65f77cde0e9a08fcaf20ef5cf379c7a48b639842c0ffd0b2afb8\",\"dweb:/ipfs/QmbnN3PEQeZaXdPLT75V1J79kMg7KqSMru37RHrL3z8Yf2\"],\"license\":\"MIT\"},\"node_modules/@bananapus/core/src/structs/JBAccountingContext.sol\":{\"keccak256\":\"0x2907ff54d1e903cc7e0390dd88c3975884702dc2673642aacbe22b66560b56de\",\"urls\":[\"bzz-raw://a66a5381ce877b32f0e0058ceeaf843e9b6b2bc8af666c0c9f4a9d01091da004\",\"dweb:/ipfs/QmQynCetUr37dBkS1YwDS8evxuXGiqanW6THmeUxXtim8w\"],\"license\":\"MIT\"},\"node_modules/@bananapus/core/src/structs/JBAfterPayRecordedContext.sol\":{\"keccak256\":\"0xd26c3a774ff38be79064085970454fe2603a23a638c76270d5b1b3829206c3e8\",\"urls\":[\"bzz-raw://3b55dbe3bf1ef625b7ca04efab3de35406e6041d5b3d82c7265469c500e2b702\",\"dweb:/ipfs/QmUdBDo4Lt3mcsFcsXT2mqq3czFwZjQJFPLM89YA2VtD7k\"],\"license\":\"MIT\"},\"node_modules/@bananapus/core/src/structs/JBRuleset.sol\":{\"keccak256\":\"0x15b2bf3174d84846a91ccbf5a344dfb125b55ed9cf50102db8d6868844225189\",\"urls\":[\"bzz-raw://647416b025dbd941094db89cbc69f755c155bd6c87be3f322394ccc4a8e0442d\",\"dweb:/ipfs/QmTCL9xcHnxQ4t5AmCPoZvXDUPW5xhzhyyXYbkMdyg44au\"],\"license\":\"MIT\"},\"node_modules/@bananapus/core/src/structs/JBTokenAmount.sol\":{\"keccak256\":\"0x5cf0626b73a596c1e2da17c89ae039a7c0374310b060d48568d3b6c11fbe6180\",\"urls\":[\"bzz-raw://63348b50be95e2995409394a17caffc563a646f0972650a1230bf864fbd3219b\",\"dweb:/ipfs/QmZXZpS3SbFD5nWaCauf6AqbEhLURv5qsKHpThBvQgDU6u\"],\"license\":\"MIT\"},\"node_modules/@openzeppelin/contracts/access/Ownable.sol\":{\"keccak256\":\"0xff6d0bb2e285473e5311d9d3caacb525ae3538a80758c10649a4d61029b017bb\",\"urls\":[\"bzz-raw://8ed324d3920bb545059d66ab97d43e43ee85fd3bd52e03e401f020afb0b120f6\",\"dweb:/ipfs/QmfEckWLmZkDDcoWrkEvMWhms66xwTLff9DDhegYpvHo1a\"],\"license\":\"MIT\"},\"node_modules/@openzeppelin/contracts/interfaces/draft-IERC6093.sol\":{\"keccak256\":\"0x60c65f701957fdd6faea1acb0bb45825791d473693ed9ecb34726fdfaa849dd7\",\"urls\":[\"bzz-raw://ea290300e0efc4d901244949dc4d877fd46e6c5e43dc2b26620e8efab3ab803f\",\"dweb:/ipfs/QmcLLJppxKeJWqHxE2CUkcfhuRTgHSn8J4kijcLa5MYhSt\"],\"license\":\"MIT\"},\"node_modules/@openzeppelin/contracts/metatx/ERC2771Context.sol\":{\"keccak256\":\"0x98256cf37b71a69b2f5a8a6fe975ea03590dff703102bd141a830f94e8adebf6\",\"urls\":[\"bzz-raw://6251fe1f6a1e45e6d619d150c123afc88b8646b38ee26a136efa9a6988a31d3f\",\"dweb:/ipfs/QmeXDT85wSZdP31wkz3ah3KhponCiksJLP5o2LR5e1JxcK\"],\"license\":\"MIT\"},\"node_modules/@openzeppelin/contracts/token/ERC721/IERC721.sol\":{\"keccak256\":\"0x5ef46daa3b58ef2702279d514780316efaa952915ee1aa3396f041ee2982b0b4\",\"urls\":[\"bzz-raw://2f8f2a76e23b02fc69e8cd24c3cb47da6c7af3a2d6c3a382f8ac25c6e094ade7\",\"dweb:/ipfs/QmPV4ZS4tPVv4mTCf9ejyZ1ai57EEibDRj7mN2ARDCLV5n\"],\"license\":\"MIT\"},\"node_modules/@openzeppelin/contracts/token/ERC721/IERC721Receiver.sol\":{\"keccak256\":\"0x7f7a26306c79a65fb8b3b6c757cd74660c532cd8a02e165488e30027dd34ca49\",\"urls\":[\"bzz-raw://d01e0b2b837ee2f628545e54d8715b49c7ef2befd08356c2e7f6c50dde8a1c22\",\"dweb:/ipfs/QmWBAn6y2D1xgftci97Z3qR9tQnkvwQpYwFwkTvDMvqU4i\"],\"license\":\"MIT\"},\"node_modules/@openzeppelin/contracts/token/ERC721/extensions/IERC721Metadata.sol\":{\"keccak256\":\"0x37d1aaaa5a2908a09e9dcf56a26ddf762ecf295afb5964695937344fc6802ce1\",\"urls\":[\"bzz-raw://ed0bfc1b92153c5000e50f4021367b931bbe96372ac6facec3c4961b72053d02\",\"dweb:/ipfs/Qmbwp8VDerjS5SV1quwHH1oMXxPQ93fzfLVqJ2RCqbowGE\"],\"license\":\"MIT\"},\"node_modules/@openzeppelin/contracts/utils/Context.sol\":{\"keccak256\":\"0x493033a8d1b176a037b2cc6a04dad01a5c157722049bbecf632ca876224dd4b2\",\"urls\":[\"bzz-raw://6a708e8a5bdb1011c2c381c9a5cfd8a9a956d7d0a9dc1bd8bcdaf52f76ef2f12\",\"dweb:/ipfs/Qmax9WHBnVsZP46ZxEMNRQpLQnrdE4dK8LehML1Py8FowF\"],\"license\":\"MIT\"},\"node_modules/@openzeppelin/contracts/utils/Strings.sol\":{\"keccak256\":\"0x55f102ea785d8399c0e58d1108e2d289506dde18abc6db1b7f68c1f9f9bc5792\",\"urls\":[\"bzz-raw://6e52e0a7765c943ef14e5bcf11e46e6139fa044be564881378349236bf2e3453\",\"dweb:/ipfs/QmZEeeXoFPW47amyP35gfzomF9DixqqTEPwzBakv6cZw6i\"],\"license\":\"MIT\"},\"node_modules/@openzeppelin/contracts/utils/introspection/ERC165.sol\":{\"keccak256\":\"0x9e8778b14317ba9e256c30a76fd6c32b960af621987f56069e1e819c77c6a133\",\"urls\":[\"bzz-raw://1777404f1dcd0fac188e55a288724ec3c67b45288e49cc64723e95e702b49ab8\",\"dweb:/ipfs/QmZFdC626GButBApwDUvvTnUzdinevC3B24d7yyh57XkiA\"],\"license\":\"MIT\"},\"node_modules/@openzeppelin/contracts/utils/introspection/IERC165.sol\":{\"keccak256\":\"0x4296879f55019b23e135000eb36896057e7101fb7fb859c5ef690cf14643757b\",\"urls\":[\"bzz-raw://87b3541437c8c443ccd36795e56a338ed12855eec17f8da624511b8d1a7e14df\",\"dweb:/ipfs/QmeJQCtZrQjtJLr6u7ZHWeH3pBnjtLWzvRrKViAi7UZqxL\"],\"license\":\"MIT\"},\"node_modules/@openzeppelin/contracts/utils/math/Math.sol\":{\"keccak256\":\"0x005ec64c6313f0555d59e278f9a7a5ab2db5bdc72a027f255a37c327af1ec02d\",\"urls\":[\"bzz-raw://4ece9f0b9c8daca08c76b6b5405a6446b6f73b3a15fab7ff56e296cbd4a2c875\",\"dweb:/ipfs/QmQyRpyPRL5SQuAgj6SHmbir3foX65FJjbVTTQrA2EFg6L\"],\"license\":\"MIT\"},\"node_modules/@openzeppelin/contracts/utils/math/SignedMath.sol\":{\"keccak256\":\"0x5f7e4076e175393767754387c962926577f1660dd9b810187b9002407656be72\",\"urls\":[\"bzz-raw://7d533a1c97cd43a57cd9c465f7ee8dd0e39ae93a8fb8ff8e5303a356b081cdcc\",\"dweb:/ipfs/QmVBEei6aTnvYNZp2CHYVNKyZS4q1KkjANfY39WVXZXVoT\"],\"license\":\"MIT\"},\"src/Banny721TokenUriResolver.sol\":{\"keccak256\":\"0x0114de6c55071f50f4c1087af382b0f23d05722d333fa56ec2e1396f8ef79f1b\",\"urls\":[\"bzz-raw://d6549de71814e78cb90f2d3c95cd10b96845652e64853b502e1127a55474a8d2\",\"dweb:/ipfs/QmdLhkRobKzoVmHBuJRosMCiNwGtcfpnqH1AToUD7fBAia\"],\"license\":\"MIT\"}},\"version\":1}",
			"args": [
				"0x584F5Da53cb18789099466074e3B5c32Ed17243a",
				"0xB2b5841DBeF766d4b521221732F9B618fCf34A87"
			],
			"bytecode": "0x60a034620000e957601f62005da638819003918201601f19168301916001600160401b03831184841017620000ee578084926040948552833981010312620000e9576200005a6020620000528362000104565b920162000104565b6080526001600160a01b039081168015620000d057600080546001600160a01b03198116831782556040519316907f8be0079c531659141344cd1fd0a4f28419497f9722a3daafe3b4186f6b6457e09080a3615c8c90816200011a8239608051818181610713015281816108390152615a990152f35b604051631e4fbdf760e01b815260006004820152602490fd5b600080fd5b634e487b7160e01b600052604160045260246000fd5b51906001600160a01b0382168203620000e95756fe6080604052600436101561001257600080fd5b60003560e01c806257bfdd146101365780631e4578de1461013157806331a290ac1461012c578063572b6c05146101275780635e703e711461012257806360b805411461011d5780636aff31dd14610118578063715018a6146101135780637da0a8771461010e578063875e4bea146101095780638da5cb5b14610104578063a0122c09146100ff578063a22d0dd5146100fa578063b03a3eab146100f5578063c06e7bc7146100f0578063c2f1f14a146100eb578063d756227e146100e65763f2fde38b146100e157600080fd5b6113cd565b6112fe565b61128e565b610c82565b610bdd565b610b98565b610a5c565b6109f9565b610868565b610823565b6107c5565b610799565b610773565b610747565b6106ef565b61056f565b610440565b610407565b90600182811c9216801561016b575b602083101461015557565b634e487b7160e01b600052602260045260246000fd5b91607f169161014a565b634e487b7160e01b600052604160045260246000fd5b602081019081106001600160401b038211176101a657604052565b610175565b604081019081106001600160401b038211176101a657604052565b61026081019081106001600160401b038211176101a657604052565b6111a081019081106001600160401b038211176101a657604052565b606081019081106001600160401b038211176101a657604052565b6101c081019081106001600160401b038211176101a657604052565b90601f801991011681019081106001600160401b038211176101a657604052565b604051906000826002549161026a8361013b565b808352926020906001908181169081156102f85750600114610297575b505061029592500383610235565b565b91509260026000527f405787fa12a823e0f2b7631cc41b3ba8828b3321ca811111fa75cd3aa3bb5ace936000925b8284106102e057506102959450505081016020013880610287565b855488850183015294850194879450928101926102c5565b9150506020925061029594915060ff191682840152151560051b8201013880610287565b9060405191826000825461032f8161013b565b9081845260209460019160018116908160001461039d575060011461035e575b50505061029592500383610235565b600090815285812095935091905b818310610385575050610295935082010138808061034f565b8554888401850152948501948794509183019161036c565b9250505061029594925060ff191682840152151560051b82010138808061034f565b60005b8381106103d25750506000910152565b81810151838201526020016103c2565b906020916103fb815180928185528580860191016103bf565b601f01601f1916010190565b3461043b57600036600319011261043b57610437610423610256565b6040519182916020835260208301906103e2565b0390f35b600080fd5b3461043b5760208060031936011261043b5761045d600435611459565b6040519283926040840190845260406020850152825180915260206060850193019160005b82811061049157505050500390f35b835185528695509381019392810192600101610482565b604051906101a082018281106001600160401b038211176101a657604052565b6001600160401b0381116101a65760051b60200190565b9080601f8301121561043b5760209082356104f9816104c8565b936105076040519586610235565b81855260208086019260051b82010192831161043b57602001905b828210610530575050505090565b81358152908301908301610522565b9181601f8401121561043b578235916001600160401b03831161043b576020808501948460051b01011161043b57565b3461043b5760408060031936011261043b576004906001600160401b03823581811161043b576105a290369085016104df565b9060243590811161043b576105ba903690850161053f565b92909180519360005b8581106105cc57005b6105d681846114ed565b516105ec6105e5838589611501565b36916112c7565b610608610603836000526004602052604060002090565b611542565b6106ce57610620826000526001602052604060002090565b5480156106be578651602081019061064a8161063c848761154c565b03601f198101835282610235565b519020036106ae57907faeb631726b45aa3f6b09da79f7af03a9784614901f61a967ed84d63c37b7edc76106a58361069860019695610693866000526004602052604060002090565b611615565b88519182913390836116ea565b0390a2016105c3565b85516375b5da0b60e01b81528990fd5b8651637ef41a4f60e01b81528a90fd5b8551630388067760e21b81528990fd5b6001600160a01b0381160361043b57565b3461043b57602036600319011261043b57602060043561070e816106de565b6040517f00000000000000000000000000000000000000000000000000000000000000006001600160a01b039081169216919091148152f35b3461043b57604036600319011261043b5761043761042360043561076a816106de565b60243590611ac0565b3461043b57602036600319011261043b57602061079160043561201f565b604051908152f35b3461043b57602036600319011261043b5760043560005260016020526020604060002054604051908152f35b3461043b57600080600319360112610820576107df614f0c565b80546001600160a01b03198116825581906001600160a01b03167f8be0079c531659141344cd1fd0a4f28419497f9722a3daafe3b4186f6b6457e08280a380f35b80fd5b3461043b57600036600319011261043b576040517f00000000000000000000000000000000000000000000000000000000000000006001600160a01b03168152602090f35b3461043b5760208060031936011261043b576004356001600160401b0380821161043b573660238301121561043b57816004013590811161043b57602492366024838501011161043b576108ba614f0c565b6108ce826108c960025461013b565b61157a565b600093601f831160011461094c57505061092181807f512c3c91736f50c57a0548c1d01ab02f24c420f002b8b20e2bfe63df9693cd3f9560009161093e575b508160011b916000199060031b1c19161790565b6002555b6109396040519283926024339201846120cd565b0390a1005b60249150850101353861090d565b6002600052601f19831694907f405787fa12a823e0f2b7631cc41b3ba8828b3321ca811111fa75cd3aa3bb5ace9282915b8783106109dd57505050827f512c3c91736f50c57a0548c1d01ab02f24c420f002b8b20e2bfe63df9693cd3f95106109c0575b5050600181811b01600255610925565b830160240135600019600384901b60f8161c1916905538806109b0565b908060018596848396978b01013581550195019301919061097d565b3461043b57600036600319011261043b576000546040516001600160a01b039091168152602090f35b91610a4b90610a3d610a5995936060865260608601906103e2565b9084820360208601526103e2565b9160408184039101526103e2565b90565b3461043b57604036600319011261043b57600435610a79816106de565b60405163507f146560e01b815260243591906001600160a01b03906020816004818587165afa8015610b5857610af09360009386938593610b5d575b5060405163c44a8e6d60e01b81526001600160a01b039092166004830152602482019390935260006044820152938492839182906064820190565b0392165afa908115610b5857600091610b35575b50610437610b29610b23610100610b1b85876148fb565b940151614c9c565b93614a5d565b60405193849384610a22565b610b5291503d806000833e610b4a8183610235565b81019061178b565b38610b04565b611727565b610b8091935060203d602011610b87575b610b788183610235565b810190611712565b9138610ab5565b503d610b6e565b8015150361043b57565b3461043b57608036600319011261043b57610437610423600435610bbb816106de565b604435610bc781610b8e565b60643591610bd483610b8e565b60243590612693565b3461043b57604036600319011261043b576001600160401b0360043581811161043b57610c0e9036906004016104df565b9060243590811161043b573660238201121561043b578060040135610c32816104c8565b91610c406040519384610235565b8183526020916024602085019160051b8301019136831161043b57602401905b828210610c7357610c71858761281d565b005b81358152908301908301610c60565b3461043b57608036600319011261043b5760048035610ca0816106de565b60243590604435926064356001600160401b03811161043b57610cc6903690830161053f565b94909160018060a01b0380851694604092610cfe8451926331a9108f60e11b938481528a818060209586938883019190602083019252565b03818d5afa908115610b5857600091611271575b5085610d2b610d1f615a96565b6001600160a01b031690565b911603611261578a871561123957508551848152828180610d538b8883019190602083019252565b03818d5afa908115610b585760009161121c575b5085610d74610d1f615a96565b91160361120c57610d8487612a30565b6111fc57855163507f146560e01b8152828185818d5afa8015610b5857610deb600091889383916111df575b50895163c44a8e6d60e01b81526001600160a01b038616888201908152602081018d9052600060408201529094859384928391606090910190565b0392165afa908115610b58576000916111c4575b5051156111b457908a93929187610e208c6000526006602052604060002090565b558a610e36896000526007602052604060002090565b55909a5093909192935b600091610e4b6128c0565b5060009b60009260005b888110610ebc578d8d7f6a68946ba06488db8585d7c7637fa954b574035fe15720ea760125ef860172588e8e610eb78f8f610ea48186610e9f8b6000526005602052604060002090565b612974565b610eac615a96565b9151948594856129ed565b0390a3005b889e610eef848f8f908b8f928e9f8890610ed592612931565b359e8f935195869485938493845283019190602083019252565b03915afa908115610b5857600091611197575b5085610f0f610d1f615a96565b91160361118757610f1f8a61201f565b6111775787848f8d519283809263507f146560e01b82525afa8015610b58578b600091868f8d8b91610f8d978795611158575b505163c44a8e6d60e01b81526001600160a01b0390931690830190815260208101949094526000604085015290948593849291839160600190565b0392165afa908115610b585760009161113f575b5080511561112f576101000196875160028110908115611124575b50611114578215159081611108575b506110f857908f98979695949392918f9087518981146000146110195750509060019161100683985b519c6000526008602052604060002090565b550190919293949e509794959697610e55565b600891999a9b50809250969293949596146000146110495750509060018f989796959493928f6110068397610ff4565b979f9d9b9998979a9e9c9a6005819792971480156110ee575b80156110e4575b806110dd575b1561108457508f8f51631e550b6f60e11b8152fd5b9d9f9798999b9d9c9e9a9c600a81149081156110d2575b50806110cb575b6110bb578f98979695949392918f611006600193610ff4565b8a51635e701b2b60e01b81528890fd5b50856110a2565b60099150143861109b565b508761106f565b50600b8114611069565b5060068114611062565b8a51637dc0e82560e11b81528890fd5b90508751111538610fcb565b8b5163c89badbd60e01b81528990fd5b600d91501138610fbc565b8b516354c0901d60e11b81528990fd5b611152913d8091833e610b4a8183610235565b38610fa1565b6111709195508c8d3d10610b8757610b788183610235565b9338610f52565b8a5163670bdddd60e11b81528890fd5b8a5163812a698960e01b81528890fd5b6111ae9150853d8711610b8757610b788183610235565b38610f02565b855163265ba87960e01b81528390fd5b6111d991503d806000833e610b4a8183610235565b38610dff565b6111f69150863d8811610b8757610b788183610235565b38610db0565b855163670bdddd60e11b81528390fd5b8551639d17cec760e01b81528390fd5b6112339150833d8511610b8757610b788183610235565b38610d67565b9392919060006112538c6000526006602052604060002090565b55909a509390919293610e40565b8551632add3f4b60e01b81528390fd5b6112889150833d8511610b8757610b788183610235565b38610d12565b3461043b57602036600319011261043b576020610791600435612a30565b6001600160401b0381116101a657601f01601f191660200190565b9291926112d3826112ac565b916112e16040519384610235565b82948184528183011161043b578281602093846000960137010152565b3461043b57604036600319011261043b576001600160401b0360043581811161043b5761132f9036906004016104df565b60249060243583811161043b573660238201121561043b57806004013592611356846104c8565b936113646040519586610235565b8085526020956024602087019260051b8501019336851161043b5760248101925b85841061139657610c718888612a71565b833583811161043b5782013660438201121561043b5789916113c28392369060448a82013591016112c7565b815201930192611385565b3461043b57602036600319011261043b576004356113ea816106de565b6113f2614f0c565b6001600160a01b03908116801561144057600080546001600160a01b03198116831782559092167f8be0079c531659141344cd1fd0a4f28419497f9722a3daafe3b4186f6b6457e08380a380f35b604051631e4fbdf760e01b815260006004820152602490fd5b90600091808352602092600560205260408120936040519081602087549182815201968452602084209184905b8282106114ae57505050506114a18160409495960382610235565b9281526006602052205491565b835489529788019760019384019390910190611486565b634e487b7160e01b600052603260045260246000fd5b8051156114e85760200190565b6114c5565b80518210156114e85760209160051b010190565b91908110156114e85760051b81013590601e198136030182121561043b5701908135916001600160401b03831161043b57602001823603811361043b579190565b610a59905461013b565b9061155f602092828151948592016103bf565b0190565b81811061156e575050565b60008155600101611563565b90601f8211611587575050565b6102959160026000527f405787fa12a823e0f2b7631cc41b3ba8828b3321ca811111fa75cd3aa3bb5ace906020601f840160051c830193106115d1575b601f0160051c0190611563565b90915081906115c4565b9190601f81116115ea57505050565b610295926000526020600020906020601f840160051c830193106115d157601f0160051c0190611563565b91909182516001600160401b0381116101a65761163c81611636845461013b565b846115db565b602080601f831160011461167f57508190611670939495600092611674575b50508160011b916000199060031b1c19161790565b9055565b01519050388061165b565b90601f1983169561169585600052602060002090565b926000905b8882106116d2575050836001959697106116b9575b505050811b019055565b015160001960f88460031b161c191690553880806116af565b8060018596829496860151815501950193019061169a565b906117026020919493946040845260408401906103e2565b6001600160a01b03909416910152565b9081602091031261043b5751610a59816106de565b6040513d6000823e3d90fd5b5190610295826106de565b519061029582610b8e565b81601f8201121561043b57805161175f816112ac565b9261176d6040519485610235565b8184526020828401011161043b57610a5991602080850191016103bf565b60208183031261043b5780516001600160401b039182821161043b57016101a08184031261043b576117bb6104a8565b92815184526020820151602085015260408201516040850152606082015160608501526080820151608085015260a082015160a08501526117fe60c08301611733565b60c085015260e082015160e0850152610100808301519085015261012061182681840161173e565b9085015261014061183881840161173e565b9085015261016061184a81840161173e565b90850152610180928383015190811161043b576118679201611749565b9082015290565b6040519061187b8261018b565b60008252565b6040519061188e826101ab565b600f82526e226f757466697455706373223a205b60881b6020830152565b60236102959193929360405194816118ce8793518092602080870191016103bf565b8201601160f91b60208201526118ee8251809360206021850191016103bf565b0161088b60f21b6021820152036003810185520183610235565b906102956022604051846119268296518092602080860191016103bf565b810161174b60f21b6020820152036002810185520183610235565b602f6102959193929360405194816119638793518092602080870191016103bf565b82016c113bb7b936322ab831911d101160991b602082015261198f825180936020602d850191016103bf565b0161088b60f21b602d82015203600f810185520183610235565b90604051918260605160005b8181106119ea5750906020610295936119de8294840191838301600081528151948592016103bf565b01038085520183610235565b60209192508060800151828288010152019084916119b5565b6020610295919392936040519481611a2487935180928680870191016103bf565b82016119de825180938680850191016103bf565b9060208282031261043b5781516001600160401b03811161043b57610a599201611749565b9081602091031261043b575190565b90610295603d60405180947f646174613a6170706c69636174696f6e2f6a736f6e3b6261736536342c0000006020830152611ab081518092602086860191016103bf565b810103601d810185520183610235565b6040805163507f146560e01b8082529093602092916001600160a01b038581169290918588600481875afa8015610b585782600091611b3d9a8391612002575b50875163c44a8e6d60e01b81526001600160a01b038b16600482015260248101929092526000604483015290998a91908290879082906064820190565b0392165afa978815610b5857600098611fe7575b50875115611fd757611b6161186e565b9361010089019384511515600014611f4857611b7e8a518a612dfa565b988951611f11575b895115611de0575050505086611b9b916148fb565b958051611ba790614a5d565b918051611bb390614c9c565b908251611bbf90612c4b565b9051611bca90612c4b565b906060840151611bd990612c4b565b928888860151611be890612c4b565b950151611bf490612c4b565b958851809b8b8201611c059161154c565b039a601f199b8c81018252611c1a9082610235565b611c2390614e23565b9851683d913730b6b2911d1160b91b9a81019a8b529b8c9a600901611c479161154c565b7211161011383937b23ab1ba2730b6b2911d101160691b8152601301611c6c9161154c565b731116101131b0ba32b3b7b93ca730b6b2911d101160611b8152601401611c929161154c565b6a111610113ab831911d101160a91b8152600b01611caf9161154c565b6f1116101131b0ba32b3b7b93c911d101160811b8152601001611cd19161154c565b6d1116101139bab838363c911d101160911b8152600e01611cf19161154c565b70111610113932b6b0b4b734b733911d101160791b8152601101611d149161154c565b6c11161011383934b1b2911d101160991b8152600d01611d339161154c565b6201116160ed1b8152600301611d489161154c565b7f226465736372697074696f6e223a2241207069656365206f662074686520426181527f6e6e797665727365222c22696d616765223a22646174613a696d6167652f737660208201526c19cade1b5b0ed8985cd94d8d0b609a1b6040820152604d01611db39161154c565b61227d60f01b8152600201039081018252611dce9082610235565b611dd790614e23565b610a5990611a6c565b9395509390959750600d919698505111600014611f02578551636c0360eb60e01b8152600081600481885afa8015610b58578891600091611edf575b50955b600488518097819382525afa918215610b5857611e72968895600094611ec0575b5051630c8df17160e41b81526001600160a01b0390921660048301526024820193909352948592839182906044820190565b0392165afa918215610b5857610a5993600093611e91575b5050614614565b611eb1929350803d10611eb9575b611ea98183610235565b810190611a5d565b903880611e8a565b503d611e9f565b611ed8919450863d8811610b8757610b788183610235565b9238611e40565b611efc91503d806000833e611ef48183610235565b810190611a38565b38611e1c565b86611f0b610256565b95611e1f565b98611f24906001875103611f2a57614521565b98611b86565b611f4390611f3e611f39612efa565b61445b565b611a03565b614521565b979450611f5583866124ff565b97611f5f84611459565b8097919751611f6c611881565b906000925b818410611fac575050611f849150611908565b9680611f91575b50611b86565b96611f9f611fa59298612c4b565b90611941565b9538611f8b565b9091611fcd600191611fc7611fc187866114ed565b51612c4b565b906118ac565b9301929190611f71565b5050505050505050610a5961186e565b611ffb91983d8091833e610b4a8183610235565b9638611b51565b6120199150893d8b11610b8757610b788183610235565b38611b00565b600090808252602090600860205260408320549081156120c7578184526005602052604084209260405180948591602082549182815201918852602088209388905b8282106120ad5750505061207792500384610235565b825192845b84811061208b57505050505090565b8261209682846114ed565b51146120a45760010161207c565b50505091505090565b855484526001958601958995509381019390910190612061565b50505090565b918060609160209396959660408652816040870152838601376000828286010152601f80199101168301019360018060a01b0316910152565b6040519061010082018281106001600160401b038211176101a65760405260dd82527f746820643d224d3138302031343768337633682d337a222f3e3c2f673e00000060e0837f3c6720636c6173733d226f223e3c7061746820643d224d31373720313430763360208201527f6836763131683130762d31316834762d33682d32307a222f3e3c70617468206460408201527f3d224d31353320313430763368377638203368372033762d31316833762d336860608201527f2d32307a222f3e3c2f673e3c6720636c6173733d2277223e3c7061746820643d60808201527f224d3135332031343368377634682d377a222f3e3c7061746820643d224d313560a08201527f372031343768337633682d337a6d32302d3468367634682d367a222f3e3c706160c08201520152565b60405190612241826101c6565b61023a82527f643d224d3139302031333768347633682d347a222f3e3c2f673e000000000000610240837f3c6720636c6173733d226f223e3c7061746820643d224d31393020313237683360208201527f7633682d337a6d3320313368347633682d347a6d2d3432203068367636682d3660408201527f7a222f3e3c7061746820643d224d3135312031333368337637682d337a6d313060608201527f203068367634682d367a222f3e3c7061746820643d224d31353720313337683160808201527f377636682d31377a6d332031336831347633682d31347a6d31372d313368377660a08201527f3136682d377a222f3e3c7061746820643d224d3138342031333768367636682d60c08201527f367a6d302031306831307636682d31307a222f3e3c7061746820643d224d313860e08201527f37203134336831307634682d31307a222f3e3c7061746820643d224d313930206101008201527f31343068337633682d337a6d2d362d313068337637682d337a222f3e3c7061746101208201527f6820643d224d3138372031333068367633682d367a6d2d3336203068313076336101408201527f682d31307a6d313620313368377637682d377a6d2d3130203068377637682d376101608201527f7a222f3e3c7061746820643d224d3136342031343768337633682d337a6d32396101808201527f2d323068347636682d347a222f3e3c7061746820643d224d31393420313333686101a08201527f337637682d337a222f3e3c2f673e3c6720636c6173733d2277223e3c706174686101c08201527f20643d224d3135342031333368377634682d377a222f3e3c7061746820643d226101e08201527f4d3135342031333768337633682d337a6d3130203668337634682d337a6d32306102008201527f203068337634682d337a6d332d313068377634682d377a222f3e3c70617468206102208201520152565b60405163507f146560e01b81526001600160a01b036020826004818685165afa918215610b585760009261266f575b5060405163c44a8e6d60e01b81526001600160a01b0384166004820152602481018590526000604482018190529092909183916064918391165afa908115610b5857600091612656575b5080511561264b5760609261010082015161262657926125dd9160016125c46125a3610a5997611459565b94908015158061261f575b612605575b506125be8451614f4d565b90611a03565b9151036125f9576125d7906125be612234565b92615376565b80516125ea575b50614521565b6125f391611a03565b386125e4565b6125d7906125be612106565b61261991506126149088612dfa565b6119a9565b386125b3565b50836125ae565b5061263392505190612dfa565b80516126425750610a5961186e565b610a5990614521565b505050610a5961186e565b612669913d8091833e610b4a8183610235565b38612578565b600091925061268c9060203d602011610b8757610b788183610235565b919061252e565b60405163507f146560e01b81529390916001600160a01b036020866004818488165afa958615610b58576000966127f9575b5060405163c44a8e6d60e01b81526001600160a01b0385166004820152602481018390526000604482018190529096909187916064918391165afa948515610b58576000956127de575b508451156127d1576060906101008601516127c157612752610a599692612737600193611459565b9581151590816127b9575b506127aa57506125be8451614f4d565b91510361279857612765906125be612234565b925b612773575b5050614521565b61277c91615376565b8051612789575b8061276c565b61279291611a03565b38612783565b6127a4906125be612106565b92612767565b61261991506126149087612dfa565b905038612742565b5050509050612633915190612dfa565b5050505050610a5961186e565b6127f291953d8091833e610b4a8183610235565b933861270f565b60009196506128169060203d602011610b8757610b788183610235565b95906126c5565b90612826614f0c565b81519060009260005b83811061283d575050505050565b61284781836114ed565b5161285282856114ed565b51908087526020600181526040808920546128b05782917fb10eb6fc7557a7109693cb8f3fac48d44328de56c0368ee4cac539b424d2cad991856128a460019897966000526001602052604060002090565b5551338152a30161282f565b516333ded41b60e21b8152600490fd5b604051906101a082018281106001600160401b038211176101a657604052606061018083600080825280602083015280604083015280848301528060808301528060a08301528060c08301528060e08301528061010083015280610120830152806101408301526101608201520152565b91908110156114e85760051b0190565b634e487b7160e01b600052601160045260246000fd5b600281901b91906001600160fe1b0381160361296f57565b612941565b906001600160401b0383116101a6576801000000000000000083116101a65781548383558084106129cf575b50906000526020806000209060005b8481106129bd575050505050565b833583820155928101926001016129af565b6129e790836000528460206000209182019101611563565b386129a0565b9081526060602082018190528101839052929392916001600160fb1b03811161043b5760409160809160051b8091838601378301019360018060a01b0316910152565b806000526007602052604060002054908115908115612a58575b50612a525790565b50600090565b9050816000526006602052604060002054141538612a4a565b9190612a7b614f0c565b82516000935b818510612a8f575050509050565b612a9985826114ed565b5194612aa581856114ed565b51958060005260039660209780895260409081600020908351906001600160401b0382116101a657612ae182612adb855461013b565b856115db565b8b601f8311600114612b64575050917f9dedd219289ed514faff576c477c66bd097aef59a236e3b8ebcf0d0070cb4e969391612b3d84612b4c9560019a9b9c9d9e600091612b5957508160011b916000199060031b1c19161790565b90555b519182913390836116ea565b0390a20193929190612a81565b90508501513861090d565b909b601f198316612b7a85600052602060002090565b926000905b828210612be9575050916001999a9b9c9d8492612b4c97957f9dedd219289ed514faff576c477c66bd097aef59a236e3b8ebcf0d0070cb4e9699979510612bcf575b505050881b88019055612b40565b8601519060f884600019921b161c19169055388080612bc1565b80600185968294968c01518155019501930190612b7f565b604051612c0d8161018b565b60008152906000368137565b90612c23826112ac565b612c306040519182610235565b8281528092612c41601f19916112ac565b0190602036910137565b806000917a184f03e93ff9f4daa797ed6e38ed64bf6a1f01000000000000000080821015612d81575b506d04ee2d6d415b85acef810000000080831015612d72575b50662386f26fc1000080831015612d63575b506305f5e10080831015612d54575b5061271080831015612d45575b506064821015612d35575b600a80921015612d2b575b600190816021612ce360018701612c19565b95860101905b612cf5575b5050505090565b600019019083906f181899199a1a9b1b9c1cb0b131b232b360811b8282061a835304918215612d2657919082612ce9565b612cee565b9160010191612cd1565b9190606460029104910191612cc6565b60049193920491019138612cbb565b60089193920491019138612cae565b60109193920491019138612c9f565b60209193920491019138612c8d565b604093508104915038612c74565b90610295604960405180946c1e34b6b0b3b290343932b31e9160991b6020830152612dc4815180926020602d860191016103bf565b81017f222077696474683d2234303022206865696768743d22343030222f3e00000000602d820152036029810185520183610235565b612e16612e11836000526004602052604060002090565b61031c565b8051612ef4575060405163507f146560e01b81526001600160a01b039260209283836004818489165afa908115610b5857612e89958594600093612ed5575b50604051632f54648f60e21b81526001600160a01b0390921660048301526024820193909352948592839182906044820190565b0392165afa8015610b5857610a5992612eb392600092612eb8575b5050612eae610256565b614614565b612d8f565b612ece9250803d10611eb957611ea98183610235565b3880612ea4565b612eed919350853d8711610b8757610b788183610235565b9138612e55565b91505090565b60405190612f07826101e2565b61117a82527f762d31306833762d376833762d33682d31307a222f3e3c2f673e000000000000611180837f3c6720636c6173733d226131223e3c7061746820643d224d313733203533683460208201527f763137682d347a222f3e3c2f673e3c6720636c6173733d226132223e3c70617460408201527f6820643d224d3136372035376833763130682d337a222f3e3c7061746820643d60608201527f224d3136392035336834763137682d347a222f3e3c2f673e3c6720636c61737360808201527f3d226133223e3c7061746820643d224d31363720353368337634682d337a222f60a08201527f3e3c7061746820643d224d3136332035376834763130682d347a222f3e3c706160c08201527f746820643d224d31363720363768337633682d337a222f3e3c2f673e3c67206360e08201527f6c6173733d226231223e3c7061746820643d224d32313320323533682d33762d6101008201527f332d33682d33762d372d33682d34762d3130682d33762d372d372d33682d33766101208201527f2d3733682d34762d3130682d33762d3130682d33762d37682d34762d37682d336101408201527f762d33682d33762d33682d3476313068347631306833763130683376336834766101608201527f37203320373020336833763768337632306834763768337633683376336834766101808201527f34683376336833762d332d347a222f3e3c7061746820643d224d3235332033306101a08201527f37762d34682d33762d33682d33762d33682d34762d34682d33762d33682d33766101c08201527f2d33682d34762d34682d33762d33682d33762d33682d34762d34682d33762d366101e08201527f682d33762d37682d3476313768347633683376336833203476346833763368336102008201527f76336834763468337633683376336834763468337633683376336834762d36686102208201527f2d347a222f3e3c2f673e3c6720636c6173733d226232223e3c7061746820643d6102408201527f224d32353020333130762d33682d33762d34682d34762d33682d33762d33682d6102608201527f33762d34682d34762d33682d33762d33682d33762d34682d37762d33682d33766102808201527f2d33682d34762d3137682d33762d33682d33762d34682d34762d33682d33762d6102a08201527f33682d33762d37682d34762d3230682d33762d37682d33762d37332d332d37686102c08201527f2d34762d33682d33762d3130682d33762d3130682d34563730682d33762d336c6102e08201527f2d332031303020332d313030763430682d33763130682d347636682d337631346103008201527f682d337633203133682d347634346834763136683376313468337631336834766103208201527f31306833763768337633683476336833763468337633683476336833763468336103408201527f76336834763368337637683776376836763368377633683776346831337633686103608201527f337633683130762d33682d337a6d2d3130332d3837762d31366833762d3130686103808201527f2d337636682d34763137682d337631306833762d3768347a222f3e3c706174686103a08201527f20643d224d3134332032333068347637682d347a6d3420313068337633682d336103c08201527f7a6d33203768337633682d337a6d33203668347634682d347a222f3e3c7061746103e08201527f6820643d224d31363320323537682d36763368337633683376346834762d342d6104008201527f33682d34762d337a222f3e3c2f673e3c6720636c6173733d226233223e3c70616104208201527f746820643d224d3134332031393776366834762d366836762d34346834762d316104408201527f366833762d31346833762d366834762d31306833563937682d377636682d33766104608201527f34682d337633682d347633682d3376342033682d3376332034682d34763130686104808201527f2d337631362034682d337634366833762d3668337a222f3e3c7061746820643d6104a08201527f224d313430203230336833763137682d337a222f3e3c7061746820643d224d316104c08201527f3337203232306833763130682d337a222f3e3c7061746820643d224d313533206104e08201527f323530682d33762d37682d33762d36682d34762d37682d3376313068337637686105008201527f347636683376346833762d377a6d2d3320313068337637682d337a222f3e3c706105208201527f61746820643d224d3134372032353768337633682d337a6d36203068347633686105408201527f2d347a222f3e3c7061746820643d224d31363020323633762d33682d337633206105608201527f376836762d37682d337a6d2d31302d3536763136682d337637683376313068336105808201527f763768347636683676346837762d342d33682d33762d3130682d34762d3133686105a08201527f2d33762d3134682d33762d3136682d34763130682d337a222f3e3c70617468206105c08201527f643d224d32343320333133762d33682d33762d33682d31302d33762d34682d376105e08201527f762d33682d37762d33682d36762d37682d37762d37682d33762d33682d34762d6106008201527f33682d33762d34682d33762d33682d34762d33682d33762d34682d33762d33686106208201527f2d34762d33682d33763130682d337633682d347633682d3376376833763768346106408201527f76366833763568347633683676336833763368342033763368332034763368336106608201527f20337634683130763368372037203376336831302033762d33683130762d33686106808201527f34762d34682d31347a222f3e3c2f673e3c6720636c6173733d226234223e3c706106a08201527f61746820643d224d3138332031333068347637682d347a222f3e3c70617468206106c08201527f643d224d3138302031323768337633682d337a6d2d32372d3468347637682d346106e08201527f7a222f3e3c7061746820643d224d3135372031313768337636682d337a222f3e6107008201527f3c7061746820643d224d3136302031313068337637682d337a222f3e3c7061746107208201527f6820643d224d3136332031303768347633682d347a6d2d3320383368337637686107408201527f2d337a222f3e3c7061746820643d224d3136332031383768347633682d347a6d6107608201527f3230203068377633682d377a222f3e3c7061746820643d224d313830203139306107808201527f68337633682d337a6d31302d3768337634682d337a222f3e3c7061746820643d6107a08201527f224d3139332031383768347636682d347a6d2d323020353368347637682d347a6107c08201527f222f3e3c7061746820643d224d3137372032343768337636682d337a222f3e3c6107e08201527f7061746820643d224d3138302032353368337637682d337a222f3e3c706174686108008201527f20643d224d3138332032363068377633682d377a222f3e3c7061746820643d226108208201527f4d3139302032363368337634682d337a6d302d323068337634682d337a222f3e6108408201527f3c7061746820643d224d3138372032343068337633682d337a222f3e3c7061746108608201527f6820643d224d3139302032333768337633682d337a6d313320323368347633686108808201527f2d347a222f3e3c7061746820643d224d3230372032363368337637682d337a226108a08201527f2f3e3c7061746820643d224d3231302032373068337633682d337a6d2d3130206108c08201527f3768337636682d337a222f3e3c7061746820643d224d323033203238336834766108e08201527f37682d347a222f3e3c7061746820643d224d3230372032393068367633682d366109008201527f7a222f3e3c2f673e3c6720636c6173733d226f223e3c7061746820643d224d316109208201527f3333203135376834763530682d347a6d302036336834763130682d347a6d32376109408201527f2d3136336833763130682d337a222f3e3c7061746820643d224d3136332035336109608201527f68347634682d347a222f3e3c7061746820643d224d31363720353068313076336109808201527f682d31307a222f3e3c7061746820643d224d3137372035336833763137682d336109a08201527f7a222f3e3c7061746820643d224d3137332037306834763237682d347a6d2d366109c08201527f20306833763237682d337a222f3e3c7061746820643d224d31363320363768346109e08201527f7633682d347a6d3020333068347633682d347a222f3e3c7061746820643d224d610a008201527f3136302031303068337633682d337a222f3e3c7061746820643d224d31353720610a208201527f31303368337634682d337a222f3e3c7061746820643d224d3135332031303768610a408201527f347633682d347a222f3e3c7061746820643d224d313530203131306833763368610a608201527f2d337a222f3e3c7061746820643d224d3134372031313368337637682d337a22610a808201527f2f3e3c7061746820643d224d3134332031323068347637682d347a222f3e3c70610aa08201527f61746820643d224d313430203132376833763130682d337a222f3e3c70617468610ac08201527f20643d224d313337203133376833763230682d337a6d35362d31306834763130610ae08201527f682d347a222f3e3c7061746820643d224d313930203131376833763130682d33610b008201527f7a222f3e3c7061746820643d224d3138372031313068337637682d337a222f3e610b208201527f3c7061746820643d224d3138332031303368347637682d347a222f3e3c706174610b408201527f6820643d224d3138302031303068337633682d337a222f3e3c7061746820643d610b608201527f224d31373720393768337633682d337a6d2d3430203130366833763137682d33610b808201527f7a6d302032376833763130682d337a6d313020333068337637682d337a222f3e610ba08201527f3c7061746820643d224d31353020323537762d34682d33762d36682d34762d37610bc08201527f682d3376313068337631306834762d3368337a222f3e3c7061746820643d224d610be08201527f3135302032353768337633682d337a222f3e3c7061746820643d224d31363320610c008201527f323733762d33682d36762d3130682d347637682d337633683376336834763768610c208201527f33762d3768337a222f3e3c7061746820643d224d313633203236376834763368610c408201527f2d347a222f3e3c7061746820643d224d31373020323537682d332d3476336834610c608201527f76376833762d31307a222f3e3c7061746820643d224d31353720323533683676610c808201527f34682d367a222f3e3c7061746820643d224d3135332032343768347636682d34610ca08201527f7a222f3e3c7061746820643d224d3135302032343068337637682d337a222f3e610cc08201527f3c7061746820643d224d313437203233306833763130682d337a6d3133203530610ce08201527f68337637682d337a222f3e3c7061746820643d224d3134332032323368347637610d008201527f682d347a222f3e3c7061746820643d224d313437203230376833763136682d33610d208201527f7a222f3e3c7061746820643d224d313530203139376833763130682d337a6d2d610d408201527f3130203068337636682d337a6d35302031313368377633682d377a6d32332031610d608201527f306831377633682d31377a222f3e3c7061746820643d224d3233302033323368610d808201527f31337634682d31337a222f3e3c7061746820643d224d32343320333230683130610da08201527f7633682d31307a222f3e3c7061746820643d224d323533203331376834763368610dc08201527f2d347a222f3e3c7061746820643d224d323537203330376833763130682d337a610de08201527f222f3e3c7061746820643d224d3235332033303368347634682d347a222f3e3c610e008201527f7061746820643d224d3235302033303068337633682d337a222f3e3c70617468610e208201527f20643d224d3234372032393768337633682d337a222f3e3c7061746820643d22610e408201527f4d3234332032393368347634682d347a222f3e3c7061746820643d224d323430610e608201527f2032393068337633682d337a222f3e3c7061746820643d224d32333720323837610e808201527f68337633682d337a222f3e3c7061746820643d224d3233332032383368347634610ea08201527f682d347a222f3e3c7061746820643d224d3233302032383068337633682d337a610ec08201527f222f3e3c7061746820643d224d3232372032373768337633682d337a222f3e3c610ee08201527f7061746820643d224d3232332032373368347634682d347a222f3e3c70617468610f008201527f20643d224d3232302032363768337636682d337a222f3e3c7061746820643d22610f208201527f4d3231372032363068337637682d337a222f3e3c7061746820643d224d323133610f408201527f2032353368347637682d347a222f3e3c7061746820643d224d32313020323437610f608201527f68337636682d337a222f3e3c7061746820643d224d3230372032333768337631610f808201527f30682d337a222f3e3c7061746820643d224d323033203232376834763130682d610fa08201527f347a6d2d343020363068347636682d347a6d323420323068337633682d337a22610fc08201527f2f3e3c7061746820643d224d3136372032393368337635682d337a6d31362031610fe08201527f3468347633682d347a222f3e3c7061746820643d224d313730203239386834766110008201527f33682d347a6d3130203668337633682d337a222f3e3c7061746820643d224d316110208201527f37342033303168367633682d367a6d323320313268367634682d367a222f3e3c6110408201527f7061746820643d224d323033203331376831307633682d31307a6d2d322d31306110608201527f37762d3733682d3476373368337631376833762d3137682d327a222f3e3c2f676110808201527f3e3c6720636c6173733d226f223e3c7061746820643d224d31383720333037766110a08201527f2d346833762d36682d33762d34682d34762d33682d33762d33682d37762d34686110c08201527f2d367634682d3476336834763237682d34763133682d33763130682d347637686110e08201527f3476336833203130203134762d33682d34762d34682d33762d33682d33762d336111008201527f682d34762d376834762d31306833762d376833762d336837762d33682d337a6d6111208201527f3136203130762d34682d36763137682d34763130682d337637683376336834206111408201527f3620342033203134762d33682d34762d34682d37762d33682d33762d33682d336111608201520152565b90610295609a60405180947f3c7374796c653e2e6f7b66696c6c3a233830383038303b7d2e62327b66696c6c60208301527f3a6e6f6e653b7d2e62337b66696c6c3a6e6f6e653b7d2e62347b66696c6c3a6e60408301527f6f6e653b7d2e61317b66696c6c3a6e6f6e653b7d2e61327b66696c6c3a6e6f6e60608301527f653b7d2e61337b66696c6c3a6e6f6e653b7d3c2f7374796c653e000000000000608083015261451181518092602086860191016103bf565b810103607a810185520183610235565b9061029560ba60405180947f3c7376672077696474683d2234303022206865696768743d223430302220766960208301527f6577426f783d223020302034303020343030222066696c6c3d226e6f6e65222060408301527f786d6c6e733d22687474703a2f2f7777772e77332e6f72672f323030302f737660608301527f67223e3c7374796c653e2e6f7b66696c6c3a233035303530353b7d2e777b666960808301527336361d11b31cb31cb31c9dbe9e17b9ba3cb6329f60611b60a08301526145f581518092602060b4860191016103bf565b8101651e17b9bb339f60d11b60b482015203609a810185520183610235565b90610a5990614642604051602092609160f51b8483015260228201526022815261463d816101fe565b6155f9565b92604051938161465b86935180928680870191016103bf565b820161466f825180938680850191016103bf565b01038084520182610235565b906102956021604051846146998296518092602080860191016103bf565b8101600160fd1b6020820152036001810185520183610235565b610295916147099493602b926040519687936020926146da8151809286808a0191016103bf565b85016146ee825180938680850191016103bf565b0191602f60f81b8184015283519384916021850191016103bf565b01692072656d61696e696e6760b01b602182015203600b810185520183610235565b603790610295929493604051958261474d8894518092602080880191016103bf565b83016b0101429a7a6221027aaaa14960a51b6020820152614778825180936020602c850191016103bf565b01602f60f81b602c820152614797825180936020602d850191016103bf565b01692072656d61696e696e6760b01b602d820152036017810185520183610235565b6102959161480e94936021926040519687936020926147e08151809286808a0191016103bf565b85016147f4825180938680850191016103bf565b0191602f60f81b81840152835193849187850191016103bf565b01036001810185520183610235565b9061029560236040518461483b8296518092602080860191016103bf565b8101620101d160ed1b6020820152036003810185520183610235565b60216102959193929360405194816148798793518092602080870191016103bf565b820161488e82518093602080850191016103bf565b01600160fd1b6020820152036001810185520183610235565b60256102959193929360405194816148c98793518092602080870191016103bf565b820164555043202360d81b60208201526148ec82518093602087850191016103bf565b01036005810185520183610235565b90614947610a5992633b9aca0061491a6149158551614a5d565b61467b565b91068015614983579061492f61494292612c4b565b61493c6060860151612c4b565b916147b9565b61481d565b90614956610100820151614c9c565b805161496e575b506149689051612c4b565b906148a7565b61497c906149689293614857565b919061495d565b506040830190815180156000146149b557506149a26149429251612c4b565b6149af6060860151612c4b565b9161472b565b61494292506149c390612c4b565b6149d06060860151612c4b565b916146b3565b604051906149e3826101ab565b600882526713dc9a59da5b985b60c21b6020830152565b60405190614a07826101ab565b60068252654f72616e676560d01b6020830152565b60405190614a29826101ab565b600482526350696e6b60e01b6020830152565b60405190614a49826101ab565b600582526420b634b2b760d91b6020830152565b60018103614a6e5750610a59614a3c565b60028103614a7f5750610a59614a1c565b60038103614a905750610a596149fa565b60048103614aa15750610a596149d6565b6000526003602052610a59604060002061031c565b60405190614ac3826101ab565b6007825266546f7070696e6760c81b6020830152565b60405190614ae6826101ab565b6004825263119a5cdd60e21b6020830152565b60405190614b06826101ab565b600b82526a5375697420626f74746f6d60a81b6020830152565b60405190614b2d826101ab565b600882526705375697420746f760c41b6020830152565b60405190614b51826101ab565b600482526314dd5a5d60e21b6020830152565b60405190614b71826101ab565b60048252631219585960e21b6020830152565b60405190614b91826101ab565b600882526704865616420746f760c41b6020830152565b60405190614bb5826101ab565b600582526409adeeae8d60db1b6020830152565b60405190614bd6826101ab565b6007825266476c617373657360c81b6020830152565b60405190614bf9826101ab565b60088252674e65636b6c61636560c01b6020830152565b60405190614c1d826101ab565b60048252634c65677360e01b6020830152565b60405190614c3d826101ab565b60088252674261636b7369646560c01b6020830152565b60405190614c61826101ab565b600582526415dbdc9b1960da1b6020830152565b60405190614c82826101ab565b600b82526a4e616b65642042616e6e7960a81b6020830152565b80614caa5750610a59614c75565b60018103614cbb5750610a59614c54565b60028103614ccc5750610a59614c30565b60078103614cdd5750610a59614c10565b60038103614cee5750610a59614bec565b60058103614cff5750610a59614bc9565b60068103614d105750610a59614ba8565b600b8103614d215750610a59614b84565b60048103614d325750610a59614b64565b60088103614d435750610a59614b44565b600a8103614d545750610a59614b20565b60098103614d655750610a59614af9565b600c8103614d765750610a59614ad9565b600d14614d8557610a5961186e565b610a59614ab6565b60405190614d9a826101fe565b604082527f6768696a6b6c6d6e6f707172737475767778797a303132333435363738392b2f6040837f4142434445464748494a4b4c4d4e4f505152535455565758595a61626364656660208201520152565b906002820180921161296f57565b906020820180921161296f57565b906001820180921161296f57565b9190820180921161296f57565b805115614f0357614e32614d8d565b614e4e614e49614e428451614dec565b6003900490565b612957565b91614e60614e5b84614dfa565b612c19565b92835280815182019060208501935b828210614eb157505050600390510680600114614ea057600214614e91575090565b603d60f81b6000199091015290565b50613d3d60f01b6001199091015290565b9091936004906003809401938451600190603f9082828260121c16880101518553828282600c1c16880101518386015382828260061c1688010151600286015316850101519082015301939190614e6f565b50610a5961186e565b6000546001600160a01b0390811681614f23615a96565b1603614f2c5750565b602490614f37615a96565b60405163118cdaa760e01b815291166004820152fd5b614f569061596a565b92614f65969596929192612efa565b9460405197889760208901703c7374796c653e2e62317b66696c6c3a2360781b90528051908160318b019160200191614f9d926103bf565b8801603181016b3b7d2e62327b66696c6c3a2360a01b905281519182603d83019160200191614fcb926103bf565b01603d81016b3b7d2e62337b66696c6c3a2360a01b905281519182604983019160200191614ff8926103bf565b0160498101615015906b3b7d2e62347b66696c6c3a2360a01b9052565b6055016150219161154c565b6b3b7d2e61317b66696c6c3a2360a01b8152600c0161503f9161154c565b6b3b7d2e61327b66696c6c3a2360a01b8152600c0161505d9161154c565b6b3b7d2e61337b66696c6c3a2360a01b8152600c0161507b9161154c565b691dbe9e17b9ba3cb6329f60b11b8152600a016150979161154c565b03601f1981018252610a599082610235565b604051906150b682610219565b61019c82527f6820643d224d3139332031373068347633682d347a222f3e3c2f673e000000006101a0837f3c6720636c6173733d226f223e3c7061746820643d224d31393020313733682d60208201527f3337762d33682d3130762d34682d36763468337633682d33763468367633683160408201527f307634683337762d346833762d33682d33762d347a6d2d34302034682d33762d60608201527f34683376347a6d372033762d3368337633682d337a6d362030762d336834763360808201527f682d347a6d372030762d3368337633682d337a6d372030762d3368337633682d60a08201527f337a6d31302030682d34762d33683476337a222f3e3c7061746820643d224d3160c08201527f39302031373068337633682d337a222f3e3c7061746820643d224d313933203160e08201527f363668347634682d347a6d30203768347634682d347a222f3e3c2f673e3c67206101008201527f636c6173733d2277223e3c7061746820643d224d3133372031373068337633686101208201527f2d337a6d3130203368337634682d337a6d3130203468337633682d337a6d36206101408201527f3068347633682d347a6d37203068337633682d337a6d37203068337633682d336101608201527f7a6d36203068347633682d347a6d372d3468337634682d337a222f3e3c7061746101808201520152565b6040519060c082018281106001600160401b038211176101a65760405260818252601f60f91b60a0837f3c6720636c6173733d226f223e3c7061746820643d224d31383320313630762d60208201527f34682d32307634682d33763368337634683234762d37682d347a6d2d3133203360408201527f762d336831307633682d31307a222066696c6c3d2223616437316338222f3e3c60608201527f7061746820643d224d313730203136306831307633682d31307a222f3e3c2f6760808201520152565b91906060928151600091828394879361538e81614e08565b955b8681106153a1575050505050505050565b81811015615588576153b381846114ed565b516040805163507f146560e01b8152600491906001600160a01b036020808386818e86165afa918215610b585761542e9560009588958e948896615569575b50505163c44a8e6d60e01b81526001600160a01b0390931690830190815260208101949094526000604085015290948593849291839160600190565b0392165afa8015610b585761010091600091615550575b500151965b60038881149690871561551e575050506001946154678288612dfa565b995b60068981036154e7575050600a6001985b11806154dd575b6154c3575b81151590816154ba575b506154a2575b50600101969496615390565b6001919a6125be6154b39288612dfa565b9990615496565b90501538615490565b986154ce919b611a03565b996154d761186e565b98615486565b5089511515615481565b8991991180615516575b6154fe575b600a9061547a565b97509a61550d906125be6152b1565b9a6001976154f6565b5088156154f1565b899b9197929b1180615548575b156154695795509a61553f906125be6150a9565b9a600195615469565b50861561552b565b615563913d8091833e610b4a8183610235565b38615445565b615580929650803d10610b8757610b788183610235565b9338806153f2565b600e9560009061544a565b604051906105e082018281106001600160401b038211176101a657604052602e82526105c0366020840137565b906155ca826104c8565b6155d76040519182610235565b8281528092612c41601f19916104c8565b9081518110156114e8570160200190565b9081511561572057615609615593565b916000906000615618856114db565b526001918151916000925b808410615649575050505061563f61564491610a599394615aef565b615b32565b615b79565b9091929461567a61567461566e61566089876155e8565b516001600160f81b03191690565b60f81c90565b60ff1690565b9184925b60ff90898289168610156156df57600192916156b36156ad6156746156a68a6156b9966114ed565b5160ff1690565b60081b90565b90614e16565b6156d68b6156ce88603a9586860616926114ed565b9060ff169052565b0493019261567e565b50919594935050809691965b6156f9575060010192615623565b9460ff6001603a9261571683858b06166156ce8d868516906114ed565b01169504806156eb565b9050610a59612c01565b60405190615737826101ab565b600682526506666653930360d41b6020830152565b60405190615759826101ab565b600682526506666633730360d41b6020830152565b6040519061577b826101ab565b600682526566336136303360d01b6020830152565b6040519061579d826101ab565b600682526539363561316160d01b6020830152565b604051906157bf826101ab565b600682526533331bb1981960d11b6020830152565b604051906157e1826101ab565b600682526506664333630360d41b6020830152565b60405190615803826101ab565b600682526518cccc994c1960d21b6020830152565b60405190615825826101ab565b600682526566666438633560d01b6020830152565b60405190615847826101ab565b600682526566663936613960d01b6020830152565b60405190615869826101ab565b600682526533329a9c1c3160d11b6020830152565b6040519061588b826101ab565b600682526563393266343560d01b6020830152565b604051906158ad826101ab565b600682526536376437353760d01b6020830152565b604051906158cf826101ab565b600682526503330613232360d41b6020830152565b604051906158f1826101ab565b600682526532313761313560d01b6020830152565b60405190615913826101ab565b60048252636e6f6e6560e01b6020830152565b60405190615933826101ab565b6006825265329a1c19b2b360d11b6020830152565b60405190615955826101ab565b60068252653231993332b360d11b6020830152565b600181036159b1575061597b6158a0565b906159846158c2565b9061598d6158e4565b90615996615906565b9061599f615926565b906159a8615948565b90610a59615948565b600281036159f857506159c2615818565b906159cb61583a565b906159d461585c565b906159dd61587e565b906159e6615818565b906159ef61583a565b90610a5961585c565b60038103615a3f5750615a0961576e565b90615a126157b2565b90615a1b6157d4565b90615a246157f6565b90615a2d61576e565b90615a366157b2565b90610a596157d4565b600414615a5857604051633b9cb79b60e21b8152600490fd5b615a6061572a565b90615a6961574c565b90615a7261576e565b90615a7b615790565b90615a8461572a565b90615a8d61574c565b90610a5961576e565b337f00000000000000000000000000000000000000000000000000000000000000006001600160a01b03161480615ae4575b15615ae057601319360136811161296f573560601c90565b3390565b506014361015615ac8565b9060ff80911690615aff826155c0565b9260005b838110615b11575050505090565b8083615b1f600193856114ed565b5116615b2b82886114ed565b5201615b03565b908151615b3e816155c0565b9060005b818110615b50575090925050565b60019060ff615b666000198389510301886114ed565b5116615b7282866114ed565b5201615b42565b8051615b84816112ac565b91604090615b956040519485610235565b828452615ba1836112ac565b602090601f1901368683013760009260005b858110615bc35750505050505090565b6001908251615bd1816101fe565b603a81527f31323334353637383941424344454647484a4b4c4d4e50515253545556575859858201527f5a6162636465666768696a6b6d6e6f707172737475767778797a000000000000848201526001600160f81b031990615c419060ff615c39858a6114ed565b5116906155e8565b5116861a615c4f828a6155e8565b5301615bb356fea26469706673582212206ff62347e4d6db6b06adca91dda891751e96b9d09799e47f995fc15f3c4320fb64736f6c63430008170033",
			"deployedBytecode": "0x6080604052600436101561001257600080fd5b60003560e01c806257bfdd146101365780631e4578de1461013157806331a290ac1461012c578063572b6c05146101275780635e703e711461012257806360b805411461011d5780636aff31dd14610118578063715018a6146101135780637da0a8771461010e578063875e4bea146101095780638da5cb5b14610104578063a0122c09146100ff578063a22d0dd5146100fa578063b03a3eab146100f5578063c06e7bc7146100f0578063c2f1f14a146100eb578063d756227e146100e65763f2fde38b146100e157600080fd5b6113cd565b6112fe565b61128e565b610c82565b610bdd565b610b98565b610a5c565b6109f9565b610868565b610823565b6107c5565b610799565b610773565b610747565b6106ef565b61056f565b610440565b610407565b90600182811c9216801561016b575b602083101461015557565b634e487b7160e01b600052602260045260246000fd5b91607f169161014a565b634e487b7160e01b600052604160045260246000fd5b602081019081106001600160401b038211176101a657604052565b610175565b604081019081106001600160401b038211176101a657604052565b61026081019081106001600160401b038211176101a657604052565b6111a081019081106001600160401b038211176101a657604052565b606081019081106001600160401b038211176101a657604052565b6101c081019081106001600160401b038211176101a657604052565b90601f801991011681019081106001600160401b038211176101a657604052565b604051906000826002549161026a8361013b565b808352926020906001908181169081156102f85750600114610297575b505061029592500383610235565b565b91509260026000527f405787fa12a823e0f2b7631cc41b3ba8828b3321ca811111fa75cd3aa3bb5ace936000925b8284106102e057506102959450505081016020013880610287565b855488850183015294850194879450928101926102c5565b9150506020925061029594915060ff191682840152151560051b8201013880610287565b9060405191826000825461032f8161013b565b9081845260209460019160018116908160001461039d575060011461035e575b50505061029592500383610235565b600090815285812095935091905b818310610385575050610295935082010138808061034f565b8554888401850152948501948794509183019161036c565b9250505061029594925060ff191682840152151560051b82010138808061034f565b60005b8381106103d25750506000910152565b81810151838201526020016103c2565b906020916103fb815180928185528580860191016103bf565b601f01601f1916010190565b3461043b57600036600319011261043b57610437610423610256565b6040519182916020835260208301906103e2565b0390f35b600080fd5b3461043b5760208060031936011261043b5761045d600435611459565b6040519283926040840190845260406020850152825180915260206060850193019160005b82811061049157505050500390f35b835185528695509381019392810192600101610482565b604051906101a082018281106001600160401b038211176101a657604052565b6001600160401b0381116101a65760051b60200190565b9080601f8301121561043b5760209082356104f9816104c8565b936105076040519586610235565b81855260208086019260051b82010192831161043b57602001905b828210610530575050505090565b81358152908301908301610522565b9181601f8401121561043b578235916001600160401b03831161043b576020808501948460051b01011161043b57565b3461043b5760408060031936011261043b576004906001600160401b03823581811161043b576105a290369085016104df565b9060243590811161043b576105ba903690850161053f565b92909180519360005b8581106105cc57005b6105d681846114ed565b516105ec6105e5838589611501565b36916112c7565b610608610603836000526004602052604060002090565b611542565b6106ce57610620826000526001602052604060002090565b5480156106be578651602081019061064a8161063c848761154c565b03601f198101835282610235565b519020036106ae57907faeb631726b45aa3f6b09da79f7af03a9784614901f61a967ed84d63c37b7edc76106a58361069860019695610693866000526004602052604060002090565b611615565b88519182913390836116ea565b0390a2016105c3565b85516375b5da0b60e01b81528990fd5b8651637ef41a4f60e01b81528a90fd5b8551630388067760e21b81528990fd5b6001600160a01b0381160361043b57565b3461043b57602036600319011261043b57602060043561070e816106de565b6040517f000000000000000000000000b2b5841dbef766d4b521221732f9b618fcf34a876001600160a01b039081169216919091148152f35b3461043b57604036600319011261043b5761043761042360043561076a816106de565b60243590611ac0565b3461043b57602036600319011261043b57602061079160043561201f565b604051908152f35b3461043b57602036600319011261043b5760043560005260016020526020604060002054604051908152f35b3461043b57600080600319360112610820576107df614f0c565b80546001600160a01b03198116825581906001600160a01b03167f8be0079c531659141344cd1fd0a4f28419497f9722a3daafe3b4186f6b6457e08280a380f35b80fd5b3461043b57600036600319011261043b576040517f000000000000000000000000b2b5841dbef766d4b521221732f9b618fcf34a876001600160a01b03168152602090f35b3461043b5760208060031936011261043b576004356001600160401b0380821161043b573660238301121561043b57816004013590811161043b57602492366024838501011161043b576108ba614f0c565b6108ce826108c960025461013b565b61157a565b600093601f831160011461094c57505061092181807f512c3c91736f50c57a0548c1d01ab02f24c420f002b8b20e2bfe63df9693cd3f9560009161093e575b508160011b916000199060031b1c19161790565b6002555b6109396040519283926024339201846120cd565b0390a1005b60249150850101353861090d565b6002600052601f19831694907f405787fa12a823e0f2b7631cc41b3ba8828b3321ca811111fa75cd3aa3bb5ace9282915b8783106109dd57505050827f512c3c91736f50c57a0548c1d01ab02f24c420f002b8b20e2bfe63df9693cd3f95106109c0575b5050600181811b01600255610925565b830160240135600019600384901b60f8161c1916905538806109b0565b908060018596848396978b01013581550195019301919061097d565b3461043b57600036600319011261043b576000546040516001600160a01b039091168152602090f35b91610a4b90610a3d610a5995936060865260608601906103e2565b9084820360208601526103e2565b9160408184039101526103e2565b90565b3461043b57604036600319011261043b57600435610a79816106de565b60405163507f146560e01b815260243591906001600160a01b03906020816004818587165afa8015610b5857610af09360009386938593610b5d575b5060405163c44a8e6d60e01b81526001600160a01b039092166004830152602482019390935260006044820152938492839182906064820190565b0392165afa908115610b5857600091610b35575b50610437610b29610b23610100610b1b85876148fb565b940151614c9c565b93614a5d565b60405193849384610a22565b610b5291503d806000833e610b4a8183610235565b81019061178b565b38610b04565b611727565b610b8091935060203d602011610b87575b610b788183610235565b810190611712565b9138610ab5565b503d610b6e565b8015150361043b57565b3461043b57608036600319011261043b57610437610423600435610bbb816106de565b604435610bc781610b8e565b60643591610bd483610b8e565b60243590612693565b3461043b57604036600319011261043b576001600160401b0360043581811161043b57610c0e9036906004016104df565b9060243590811161043b573660238201121561043b578060040135610c32816104c8565b91610c406040519384610235565b8183526020916024602085019160051b8301019136831161043b57602401905b828210610c7357610c71858761281d565b005b81358152908301908301610c60565b3461043b57608036600319011261043b5760048035610ca0816106de565b60243590604435926064356001600160401b03811161043b57610cc6903690830161053f565b94909160018060a01b0380851694604092610cfe8451926331a9108f60e11b938481528a818060209586938883019190602083019252565b03818d5afa908115610b5857600091611271575b5085610d2b610d1f615a96565b6001600160a01b031690565b911603611261578a871561123957508551848152828180610d538b8883019190602083019252565b03818d5afa908115610b585760009161121c575b5085610d74610d1f615a96565b91160361120c57610d8487612a30565b6111fc57855163507f146560e01b8152828185818d5afa8015610b5857610deb600091889383916111df575b50895163c44a8e6d60e01b81526001600160a01b038616888201908152602081018d9052600060408201529094859384928391606090910190565b0392165afa908115610b58576000916111c4575b5051156111b457908a93929187610e208c6000526006602052604060002090565b558a610e36896000526007602052604060002090565b55909a5093909192935b600091610e4b6128c0565b5060009b60009260005b888110610ebc578d8d7f6a68946ba06488db8585d7c7637fa954b574035fe15720ea760125ef860172588e8e610eb78f8f610ea48186610e9f8b6000526005602052604060002090565b612974565b610eac615a96565b9151948594856129ed565b0390a3005b889e610eef848f8f908b8f928e9f8890610ed592612931565b359e8f935195869485938493845283019190602083019252565b03915afa908115610b5857600091611197575b5085610f0f610d1f615a96565b91160361118757610f1f8a61201f565b6111775787848f8d519283809263507f146560e01b82525afa8015610b58578b600091868f8d8b91610f8d978795611158575b505163c44a8e6d60e01b81526001600160a01b0390931690830190815260208101949094526000604085015290948593849291839160600190565b0392165afa908115610b585760009161113f575b5080511561112f576101000196875160028110908115611124575b50611114578215159081611108575b506110f857908f98979695949392918f9087518981146000146110195750509060019161100683985b519c6000526008602052604060002090565b550190919293949e509794959697610e55565b600891999a9b50809250969293949596146000146110495750509060018f989796959493928f6110068397610ff4565b979f9d9b9998979a9e9c9a6005819792971480156110ee575b80156110e4575b806110dd575b1561108457508f8f51631e550b6f60e11b8152fd5b9d9f9798999b9d9c9e9a9c600a81149081156110d2575b50806110cb575b6110bb578f98979695949392918f611006600193610ff4565b8a51635e701b2b60e01b81528890fd5b50856110a2565b60099150143861109b565b508761106f565b50600b8114611069565b5060068114611062565b8a51637dc0e82560e11b81528890fd5b90508751111538610fcb565b8b5163c89badbd60e01b81528990fd5b600d91501138610fbc565b8b516354c0901d60e11b81528990fd5b611152913d8091833e610b4a8183610235565b38610fa1565b6111709195508c8d3d10610b8757610b788183610235565b9338610f52565b8a5163670bdddd60e11b81528890fd5b8a5163812a698960e01b81528890fd5b6111ae9150853d8711610b8757610b788183610235565b38610f02565b855163265ba87960e01b81528390fd5b6111d991503d806000833e610b4a8183610235565b38610dff565b6111f69150863d8811610b8757610b788183610235565b38610db0565b855163670bdddd60e11b81528390fd5b8551639d17cec760e01b81528390fd5b6112339150833d8511610b8757610b788183610235565b38610d67565b9392919060006112538c6000526006602052604060002090565b55909a509390919293610e40565b8551632add3f4b60e01b81528390fd5b6112889150833d8511610b8757610b788183610235565b38610d12565b3461043b57602036600319011261043b576020610791600435612a30565b6001600160401b0381116101a657601f01601f191660200190565b9291926112d3826112ac565b916112e16040519384610235565b82948184528183011161043b578281602093846000960137010152565b3461043b57604036600319011261043b576001600160401b0360043581811161043b5761132f9036906004016104df565b60249060243583811161043b573660238201121561043b57806004013592611356846104c8565b936113646040519586610235565b8085526020956024602087019260051b8501019336851161043b5760248101925b85841061139657610c718888612a71565b833583811161043b5782013660438201121561043b5789916113c28392369060448a82013591016112c7565b815201930192611385565b3461043b57602036600319011261043b576004356113ea816106de565b6113f2614f0c565b6001600160a01b03908116801561144057600080546001600160a01b03198116831782559092167f8be0079c531659141344cd1fd0a4f28419497f9722a3daafe3b4186f6b6457e08380a380f35b604051631e4fbdf760e01b815260006004820152602490fd5b90600091808352602092600560205260408120936040519081602087549182815201968452602084209184905b8282106114ae57505050506114a18160409495960382610235565b9281526006602052205491565b835489529788019760019384019390910190611486565b634e487b7160e01b600052603260045260246000fd5b8051156114e85760200190565b6114c5565b80518210156114e85760209160051b010190565b91908110156114e85760051b81013590601e198136030182121561043b5701908135916001600160401b03831161043b57602001823603811361043b579190565b610a59905461013b565b9061155f602092828151948592016103bf565b0190565b81811061156e575050565b60008155600101611563565b90601f8211611587575050565b6102959160026000527f405787fa12a823e0f2b7631cc41b3ba8828b3321ca811111fa75cd3aa3bb5ace906020601f840160051c830193106115d1575b601f0160051c0190611563565b90915081906115c4565b9190601f81116115ea57505050565b610295926000526020600020906020601f840160051c830193106115d157601f0160051c0190611563565b91909182516001600160401b0381116101a65761163c81611636845461013b565b846115db565b602080601f831160011461167f57508190611670939495600092611674575b50508160011b916000199060031b1c19161790565b9055565b01519050388061165b565b90601f1983169561169585600052602060002090565b926000905b8882106116d2575050836001959697106116b9575b505050811b019055565b015160001960f88460031b161c191690553880806116af565b8060018596829496860151815501950193019061169a565b906117026020919493946040845260408401906103e2565b6001600160a01b03909416910152565b9081602091031261043b5751610a59816106de565b6040513d6000823e3d90fd5b5190610295826106de565b519061029582610b8e565b81601f8201121561043b57805161175f816112ac565b9261176d6040519485610235565b8184526020828401011161043b57610a5991602080850191016103bf565b60208183031261043b5780516001600160401b039182821161043b57016101a08184031261043b576117bb6104a8565b92815184526020820151602085015260408201516040850152606082015160608501526080820151608085015260a082015160a08501526117fe60c08301611733565b60c085015260e082015160e0850152610100808301519085015261012061182681840161173e565b9085015261014061183881840161173e565b9085015261016061184a81840161173e565b90850152610180928383015190811161043b576118679201611749565b9082015290565b6040519061187b8261018b565b60008252565b6040519061188e826101ab565b600f82526e226f757466697455706373223a205b60881b6020830152565b60236102959193929360405194816118ce8793518092602080870191016103bf565b8201601160f91b60208201526118ee8251809360206021850191016103bf565b0161088b60f21b6021820152036003810185520183610235565b906102956022604051846119268296518092602080860191016103bf565b810161174b60f21b6020820152036002810185520183610235565b602f6102959193929360405194816119638793518092602080870191016103bf565b82016c113bb7b936322ab831911d101160991b602082015261198f825180936020602d850191016103bf565b0161088b60f21b602d82015203600f810185520183610235565b90604051918260605160005b8181106119ea5750906020610295936119de8294840191838301600081528151948592016103bf565b01038085520183610235565b60209192508060800151828288010152019084916119b5565b6020610295919392936040519481611a2487935180928680870191016103bf565b82016119de825180938680850191016103bf565b9060208282031261043b5781516001600160401b03811161043b57610a599201611749565b9081602091031261043b575190565b90610295603d60405180947f646174613a6170706c69636174696f6e2f6a736f6e3b6261736536342c0000006020830152611ab081518092602086860191016103bf565b810103601d810185520183610235565b6040805163507f146560e01b8082529093602092916001600160a01b038581169290918588600481875afa8015610b585782600091611b3d9a8391612002575b50875163c44a8e6d60e01b81526001600160a01b038b16600482015260248101929092526000604483015290998a91908290879082906064820190565b0392165afa978815610b5857600098611fe7575b50875115611fd757611b6161186e565b9361010089019384511515600014611f4857611b7e8a518a612dfa565b988951611f11575b895115611de0575050505086611b9b916148fb565b958051611ba790614a5d565b918051611bb390614c9c565b908251611bbf90612c4b565b9051611bca90612c4b565b906060840151611bd990612c4b565b928888860151611be890612c4b565b950151611bf490612c4b565b958851809b8b8201611c059161154c565b039a601f199b8c81018252611c1a9082610235565b611c2390614e23565b9851683d913730b6b2911d1160b91b9a81019a8b529b8c9a600901611c479161154c565b7211161011383937b23ab1ba2730b6b2911d101160691b8152601301611c6c9161154c565b731116101131b0ba32b3b7b93ca730b6b2911d101160611b8152601401611c929161154c565b6a111610113ab831911d101160a91b8152600b01611caf9161154c565b6f1116101131b0ba32b3b7b93c911d101160811b8152601001611cd19161154c565b6d1116101139bab838363c911d101160911b8152600e01611cf19161154c565b70111610113932b6b0b4b734b733911d101160791b8152601101611d149161154c565b6c11161011383934b1b2911d101160991b8152600d01611d339161154c565b6201116160ed1b8152600301611d489161154c565b7f226465736372697074696f6e223a2241207069656365206f662074686520426181527f6e6e797665727365222c22696d616765223a22646174613a696d6167652f737660208201526c19cade1b5b0ed8985cd94d8d0b609a1b6040820152604d01611db39161154c565b61227d60f01b8152600201039081018252611dce9082610235565b611dd790614e23565b610a5990611a6c565b9395509390959750600d919698505111600014611f02578551636c0360eb60e01b8152600081600481885afa8015610b58578891600091611edf575b50955b600488518097819382525afa918215610b5857611e72968895600094611ec0575b5051630c8df17160e41b81526001600160a01b0390921660048301526024820193909352948592839182906044820190565b0392165afa918215610b5857610a5993600093611e91575b5050614614565b611eb1929350803d10611eb9575b611ea98183610235565b810190611a5d565b903880611e8a565b503d611e9f565b611ed8919450863d8811610b8757610b788183610235565b9238611e40565b611efc91503d806000833e611ef48183610235565b810190611a38565b38611e1c565b86611f0b610256565b95611e1f565b98611f24906001875103611f2a57614521565b98611b86565b611f4390611f3e611f39612efa565b61445b565b611a03565b614521565b979450611f5583866124ff565b97611f5f84611459565b8097919751611f6c611881565b906000925b818410611fac575050611f849150611908565b9680611f91575b50611b86565b96611f9f611fa59298612c4b565b90611941565b9538611f8b565b9091611fcd600191611fc7611fc187866114ed565b51612c4b565b906118ac565b9301929190611f71565b5050505050505050610a5961186e565b611ffb91983d8091833e610b4a8183610235565b9638611b51565b6120199150893d8b11610b8757610b788183610235565b38611b00565b600090808252602090600860205260408320549081156120c7578184526005602052604084209260405180948591602082549182815201918852602088209388905b8282106120ad5750505061207792500384610235565b825192845b84811061208b57505050505090565b8261209682846114ed565b51146120a45760010161207c565b50505091505090565b855484526001958601958995509381019390910190612061565b50505090565b918060609160209396959660408652816040870152838601376000828286010152601f80199101168301019360018060a01b0316910152565b6040519061010082018281106001600160401b038211176101a65760405260dd82527f746820643d224d3138302031343768337633682d337a222f3e3c2f673e00000060e0837f3c6720636c6173733d226f223e3c7061746820643d224d31373720313430763360208201527f6836763131683130762d31316834762d33682d32307a222f3e3c70617468206460408201527f3d224d31353320313430763368377638203368372033762d31316833762d336860608201527f2d32307a222f3e3c2f673e3c6720636c6173733d2277223e3c7061746820643d60808201527f224d3135332031343368377634682d377a222f3e3c7061746820643d224d313560a08201527f372031343768337633682d337a6d32302d3468367634682d367a222f3e3c706160c08201520152565b60405190612241826101c6565b61023a82527f643d224d3139302031333768347633682d347a222f3e3c2f673e000000000000610240837f3c6720636c6173733d226f223e3c7061746820643d224d31393020313237683360208201527f7633682d337a6d3320313368347633682d347a6d2d3432203068367636682d3660408201527f7a222f3e3c7061746820643d224d3135312031333368337637682d337a6d313060608201527f203068367634682d367a222f3e3c7061746820643d224d31353720313337683160808201527f377636682d31377a6d332031336831347633682d31347a6d31372d313368377660a08201527f3136682d377a222f3e3c7061746820643d224d3138342031333768367636682d60c08201527f367a6d302031306831307636682d31307a222f3e3c7061746820643d224d313860e08201527f37203134336831307634682d31307a222f3e3c7061746820643d224d313930206101008201527f31343068337633682d337a6d2d362d313068337637682d337a222f3e3c7061746101208201527f6820643d224d3138372031333068367633682d367a6d2d3336203068313076336101408201527f682d31307a6d313620313368377637682d377a6d2d3130203068377637682d376101608201527f7a222f3e3c7061746820643d224d3136342031343768337633682d337a6d32396101808201527f2d323068347636682d347a222f3e3c7061746820643d224d31393420313333686101a08201527f337637682d337a222f3e3c2f673e3c6720636c6173733d2277223e3c706174686101c08201527f20643d224d3135342031333368377634682d377a222f3e3c7061746820643d226101e08201527f4d3135342031333768337633682d337a6d3130203668337634682d337a6d32306102008201527f203068337634682d337a6d332d313068377634682d377a222f3e3c70617468206102208201520152565b60405163507f146560e01b81526001600160a01b036020826004818685165afa918215610b585760009261266f575b5060405163c44a8e6d60e01b81526001600160a01b0384166004820152602481018590526000604482018190529092909183916064918391165afa908115610b5857600091612656575b5080511561264b5760609261010082015161262657926125dd9160016125c46125a3610a5997611459565b94908015158061261f575b612605575b506125be8451614f4d565b90611a03565b9151036125f9576125d7906125be612234565b92615376565b80516125ea575b50614521565b6125f391611a03565b386125e4565b6125d7906125be612106565b61261991506126149088612dfa565b6119a9565b386125b3565b50836125ae565b5061263392505190612dfa565b80516126425750610a5961186e565b610a5990614521565b505050610a5961186e565b612669913d8091833e610b4a8183610235565b38612578565b600091925061268c9060203d602011610b8757610b788183610235565b919061252e565b60405163507f146560e01b81529390916001600160a01b036020866004818488165afa958615610b58576000966127f9575b5060405163c44a8e6d60e01b81526001600160a01b0385166004820152602481018390526000604482018190529096909187916064918391165afa948515610b58576000956127de575b508451156127d1576060906101008601516127c157612752610a599692612737600193611459565b9581151590816127b9575b506127aa57506125be8451614f4d565b91510361279857612765906125be612234565b925b612773575b5050614521565b61277c91615376565b8051612789575b8061276c565b61279291611a03565b38612783565b6127a4906125be612106565b92612767565b61261991506126149087612dfa565b905038612742565b5050509050612633915190612dfa565b5050505050610a5961186e565b6127f291953d8091833e610b4a8183610235565b933861270f565b60009196506128169060203d602011610b8757610b788183610235565b95906126c5565b90612826614f0c565b81519060009260005b83811061283d575050505050565b61284781836114ed565b5161285282856114ed565b51908087526020600181526040808920546128b05782917fb10eb6fc7557a7109693cb8f3fac48d44328de56c0368ee4cac539b424d2cad991856128a460019897966000526001602052604060002090565b5551338152a30161282f565b516333ded41b60e21b8152600490fd5b604051906101a082018281106001600160401b038211176101a657604052606061018083600080825280602083015280604083015280848301528060808301528060a08301528060c08301528060e08301528061010083015280610120830152806101408301526101608201520152565b91908110156114e85760051b0190565b634e487b7160e01b600052601160045260246000fd5b600281901b91906001600160fe1b0381160361296f57565b612941565b906001600160401b0383116101a6576801000000000000000083116101a65781548383558084106129cf575b50906000526020806000209060005b8481106129bd575050505050565b833583820155928101926001016129af565b6129e790836000528460206000209182019101611563565b386129a0565b9081526060602082018190528101839052929392916001600160fb1b03811161043b5760409160809160051b8091838601378301019360018060a01b0316910152565b806000526007602052604060002054908115908115612a58575b50612a525790565b50600090565b9050816000526006602052604060002054141538612a4a565b9190612a7b614f0c565b82516000935b818510612a8f575050509050565b612a9985826114ed565b5194612aa581856114ed565b51958060005260039660209780895260409081600020908351906001600160401b0382116101a657612ae182612adb855461013b565b856115db565b8b601f8311600114612b64575050917f9dedd219289ed514faff576c477c66bd097aef59a236e3b8ebcf0d0070cb4e969391612b3d84612b4c9560019a9b9c9d9e600091612b5957508160011b916000199060031b1c19161790565b90555b519182913390836116ea565b0390a20193929190612a81565b90508501513861090d565b909b601f198316612b7a85600052602060002090565b926000905b828210612be9575050916001999a9b9c9d8492612b4c97957f9dedd219289ed514faff576c477c66bd097aef59a236e3b8ebcf0d0070cb4e9699979510612bcf575b505050881b88019055612b40565b8601519060f884600019921b161c19169055388080612bc1565b80600185968294968c01518155019501930190612b7f565b604051612c0d8161018b565b60008152906000368137565b90612c23826112ac565b612c306040519182610235565b8281528092612c41601f19916112ac565b0190602036910137565b806000917a184f03e93ff9f4daa797ed6e38ed64bf6a1f01000000000000000080821015612d81575b506d04ee2d6d415b85acef810000000080831015612d72575b50662386f26fc1000080831015612d63575b506305f5e10080831015612d54575b5061271080831015612d45575b506064821015612d35575b600a80921015612d2b575b600190816021612ce360018701612c19565b95860101905b612cf5575b5050505090565b600019019083906f181899199a1a9b1b9c1cb0b131b232b360811b8282061a835304918215612d2657919082612ce9565b612cee565b9160010191612cd1565b9190606460029104910191612cc6565b60049193920491019138612cbb565b60089193920491019138612cae565b60109193920491019138612c9f565b60209193920491019138612c8d565b604093508104915038612c74565b90610295604960405180946c1e34b6b0b3b290343932b31e9160991b6020830152612dc4815180926020602d860191016103bf565b81017f222077696474683d2234303022206865696768743d22343030222f3e00000000602d820152036029810185520183610235565b612e16612e11836000526004602052604060002090565b61031c565b8051612ef4575060405163507f146560e01b81526001600160a01b039260209283836004818489165afa908115610b5857612e89958594600093612ed5575b50604051632f54648f60e21b81526001600160a01b0390921660048301526024820193909352948592839182906044820190565b0392165afa8015610b5857610a5992612eb392600092612eb8575b5050612eae610256565b614614565b612d8f565b612ece9250803d10611eb957611ea98183610235565b3880612ea4565b612eed919350853d8711610b8757610b788183610235565b9138612e55565b91505090565b60405190612f07826101e2565b61117a82527f762d31306833762d376833762d33682d31307a222f3e3c2f673e000000000000611180837f3c6720636c6173733d226131223e3c7061746820643d224d313733203533683460208201527f763137682d347a222f3e3c2f673e3c6720636c6173733d226132223e3c70617460408201527f6820643d224d3136372035376833763130682d337a222f3e3c7061746820643d60608201527f224d3136392035336834763137682d347a222f3e3c2f673e3c6720636c61737360808201527f3d226133223e3c7061746820643d224d31363720353368337634682d337a222f60a08201527f3e3c7061746820643d224d3136332035376834763130682d347a222f3e3c706160c08201527f746820643d224d31363720363768337633682d337a222f3e3c2f673e3c67206360e08201527f6c6173733d226231223e3c7061746820643d224d32313320323533682d33762d6101008201527f332d33682d33762d372d33682d34762d3130682d33762d372d372d33682d33766101208201527f2d3733682d34762d3130682d33762d3130682d33762d37682d34762d37682d336101408201527f762d33682d33762d33682d3476313068347631306833763130683376336834766101608201527f37203320373020336833763768337632306834763768337633683376336834766101808201527f34683376336833762d332d347a222f3e3c7061746820643d224d3235332033306101a08201527f37762d34682d33762d33682d33762d33682d34762d34682d33762d33682d33766101c08201527f2d33682d34762d34682d33762d33682d33762d33682d34762d34682d33762d366101e08201527f682d33762d37682d3476313768347633683376336833203476346833763368336102008201527f76336834763468337633683376336834763468337633683376336834762d36686102208201527f2d347a222f3e3c2f673e3c6720636c6173733d226232223e3c7061746820643d6102408201527f224d32353020333130762d33682d33762d34682d34762d33682d33762d33682d6102608201527f33762d34682d34762d33682d33762d33682d33762d34682d37762d33682d33766102808201527f2d33682d34762d3137682d33762d33682d33762d34682d34762d33682d33762d6102a08201527f33682d33762d37682d34762d3230682d33762d37682d33762d37332d332d37686102c08201527f2d34762d33682d33762d3130682d33762d3130682d34563730682d33762d336c6102e08201527f2d332031303020332d313030763430682d33763130682d347636682d337631346103008201527f682d337633203133682d347634346834763136683376313468337631336834766103208201527f31306833763768337633683476336833763468337633683476336833763468336103408201527f76336834763368337637683776376836763368377633683776346831337633686103608201527f337633683130762d33682d337a6d2d3130332d3837762d31366833762d3130686103808201527f2d337636682d34763137682d337631306833762d3768347a222f3e3c706174686103a08201527f20643d224d3134332032333068347637682d347a6d3420313068337633682d336103c08201527f7a6d33203768337633682d337a6d33203668347634682d347a222f3e3c7061746103e08201527f6820643d224d31363320323537682d36763368337633683376346834762d342d6104008201527f33682d34762d337a222f3e3c2f673e3c6720636c6173733d226233223e3c70616104208201527f746820643d224d3134332031393776366834762d366836762d34346834762d316104408201527f366833762d31346833762d366834762d31306833563937682d377636682d33766104608201527f34682d337633682d347633682d3376342033682d3376332034682d34763130686104808201527f2d337631362034682d337634366833762d3668337a222f3e3c7061746820643d6104a08201527f224d313430203230336833763137682d337a222f3e3c7061746820643d224d316104c08201527f3337203232306833763130682d337a222f3e3c7061746820643d224d313533206104e08201527f323530682d33762d37682d33762d36682d34762d37682d3376313068337637686105008201527f347636683376346833762d377a6d2d3320313068337637682d337a222f3e3c706105208201527f61746820643d224d3134372032353768337633682d337a6d36203068347633686105408201527f2d347a222f3e3c7061746820643d224d31363020323633762d33682d337633206105608201527f376836762d37682d337a6d2d31302d3536763136682d337637683376313068336105808201527f763768347636683676346837762d342d33682d33762d3130682d34762d3133686105a08201527f2d33762d3134682d33762d3136682d34763130682d337a222f3e3c70617468206105c08201527f643d224d32343320333133762d33682d33762d33682d31302d33762d34682d376105e08201527f762d33682d37762d33682d36762d37682d37762d37682d33762d33682d34762d6106008201527f33682d33762d34682d33762d33682d34762d33682d33762d34682d33762d33686106208201527f2d34762d33682d33763130682d337633682d347633682d3376376833763768346106408201527f76366833763568347633683676336833763368342033763368332034763368336106608201527f20337634683130763368372037203376336831302033762d33683130762d33686106808201527f34762d34682d31347a222f3e3c2f673e3c6720636c6173733d226234223e3c706106a08201527f61746820643d224d3138332031333068347637682d347a222f3e3c70617468206106c08201527f643d224d3138302031323768337633682d337a6d2d32372d3468347637682d346106e08201527f7a222f3e3c7061746820643d224d3135372031313768337636682d337a222f3e6107008201527f3c7061746820643d224d3136302031313068337637682d337a222f3e3c7061746107208201527f6820643d224d3136332031303768347633682d347a6d2d3320383368337637686107408201527f2d337a222f3e3c7061746820643d224d3136332031383768347633682d347a6d6107608201527f3230203068377633682d377a222f3e3c7061746820643d224d313830203139306107808201527f68337633682d337a6d31302d3768337634682d337a222f3e3c7061746820643d6107a08201527f224d3139332031383768347636682d347a6d2d323020353368347637682d347a6107c08201527f222f3e3c7061746820643d224d3137372032343768337636682d337a222f3e3c6107e08201527f7061746820643d224d3138302032353368337637682d337a222f3e3c706174686108008201527f20643d224d3138332032363068377633682d377a222f3e3c7061746820643d226108208201527f4d3139302032363368337634682d337a6d302d323068337634682d337a222f3e6108408201527f3c7061746820643d224d3138372032343068337633682d337a222f3e3c7061746108608201527f6820643d224d3139302032333768337633682d337a6d313320323368347633686108808201527f2d347a222f3e3c7061746820643d224d3230372032363368337637682d337a226108a08201527f2f3e3c7061746820643d224d3231302032373068337633682d337a6d2d3130206108c08201527f3768337636682d337a222f3e3c7061746820643d224d323033203238336834766108e08201527f37682d347a222f3e3c7061746820643d224d3230372032393068367633682d366109008201527f7a222f3e3c2f673e3c6720636c6173733d226f223e3c7061746820643d224d316109208201527f3333203135376834763530682d347a6d302036336834763130682d347a6d32376109408201527f2d3136336833763130682d337a222f3e3c7061746820643d224d3136332035336109608201527f68347634682d347a222f3e3c7061746820643d224d31363720353068313076336109808201527f682d31307a222f3e3c7061746820643d224d3137372035336833763137682d336109a08201527f7a222f3e3c7061746820643d224d3137332037306834763237682d347a6d2d366109c08201527f20306833763237682d337a222f3e3c7061746820643d224d31363320363768346109e08201527f7633682d347a6d3020333068347633682d347a222f3e3c7061746820643d224d610a008201527f3136302031303068337633682d337a222f3e3c7061746820643d224d31353720610a208201527f31303368337634682d337a222f3e3c7061746820643d224d3135332031303768610a408201527f347633682d347a222f3e3c7061746820643d224d313530203131306833763368610a608201527f2d337a222f3e3c7061746820643d224d3134372031313368337637682d337a22610a808201527f2f3e3c7061746820643d224d3134332031323068347637682d347a222f3e3c70610aa08201527f61746820643d224d313430203132376833763130682d337a222f3e3c70617468610ac08201527f20643d224d313337203133376833763230682d337a6d35362d31306834763130610ae08201527f682d347a222f3e3c7061746820643d224d313930203131376833763130682d33610b008201527f7a222f3e3c7061746820643d224d3138372031313068337637682d337a222f3e610b208201527f3c7061746820643d224d3138332031303368347637682d347a222f3e3c706174610b408201527f6820643d224d3138302031303068337633682d337a222f3e3c7061746820643d610b608201527f224d31373720393768337633682d337a6d2d3430203130366833763137682d33610b808201527f7a6d302032376833763130682d337a6d313020333068337637682d337a222f3e610ba08201527f3c7061746820643d224d31353020323537762d34682d33762d36682d34762d37610bc08201527f682d3376313068337631306834762d3368337a222f3e3c7061746820643d224d610be08201527f3135302032353768337633682d337a222f3e3c7061746820643d224d31363320610c008201527f323733762d33682d36762d3130682d347637682d337633683376336834763768610c208201527f33762d3768337a222f3e3c7061746820643d224d313633203236376834763368610c408201527f2d347a222f3e3c7061746820643d224d31373020323537682d332d3476336834610c608201527f76376833762d31307a222f3e3c7061746820643d224d31353720323533683676610c808201527f34682d367a222f3e3c7061746820643d224d3135332032343768347636682d34610ca08201527f7a222f3e3c7061746820643d224d3135302032343068337637682d337a222f3e610cc08201527f3c7061746820643d224d313437203233306833763130682d337a6d3133203530610ce08201527f68337637682d337a222f3e3c7061746820643d224d3134332032323368347637610d008201527f682d347a222f3e3c7061746820643d224d313437203230376833763136682d33610d208201527f7a222f3e3c7061746820643d224d313530203139376833763130682d337a6d2d610d408201527f3130203068337636682d337a6d35302031313368377633682d377a6d32332031610d608201527f306831377633682d31377a222f3e3c7061746820643d224d3233302033323368610d808201527f31337634682d31337a222f3e3c7061746820643d224d32343320333230683130610da08201527f7633682d31307a222f3e3c7061746820643d224d323533203331376834763368610dc08201527f2d347a222f3e3c7061746820643d224d323537203330376833763130682d337a610de08201527f222f3e3c7061746820643d224d3235332033303368347634682d347a222f3e3c610e008201527f7061746820643d224d3235302033303068337633682d337a222f3e3c70617468610e208201527f20643d224d3234372032393768337633682d337a222f3e3c7061746820643d22610e408201527f4d3234332032393368347634682d347a222f3e3c7061746820643d224d323430610e608201527f2032393068337633682d337a222f3e3c7061746820643d224d32333720323837610e808201527f68337633682d337a222f3e3c7061746820643d224d3233332032383368347634610ea08201527f682d347a222f3e3c7061746820643d224d3233302032383068337633682d337a610ec08201527f222f3e3c7061746820643d224d3232372032373768337633682d337a222f3e3c610ee08201527f7061746820643d224d3232332032373368347634682d347a222f3e3c70617468610f008201527f20643d224d3232302032363768337636682d337a222f3e3c7061746820643d22610f208201527f4d3231372032363068337637682d337a222f3e3c7061746820643d224d323133610f408201527f2032353368347637682d347a222f3e3c7061746820643d224d32313020323437610f608201527f68337636682d337a222f3e3c7061746820643d224d3230372032333768337631610f808201527f30682d337a222f3e3c7061746820643d224d323033203232376834763130682d610fa08201527f347a6d2d343020363068347636682d347a6d323420323068337633682d337a22610fc08201527f2f3e3c7061746820643d224d3136372032393368337635682d337a6d31362031610fe08201527f3468347633682d347a222f3e3c7061746820643d224d313730203239386834766110008201527f33682d347a6d3130203668337633682d337a222f3e3c7061746820643d224d316110208201527f37342033303168367633682d367a6d323320313268367634682d367a222f3e3c6110408201527f7061746820643d224d323033203331376831307633682d31307a6d2d322d31306110608201527f37762d3733682d3476373368337631376833762d3137682d327a222f3e3c2f676110808201527f3e3c6720636c6173733d226f223e3c7061746820643d224d31383720333037766110a08201527f2d346833762d36682d33762d34682d34762d33682d33762d33682d37762d34686110c08201527f2d367634682d3476336834763237682d34763133682d33763130682d347637686110e08201527f3476336833203130203134762d33682d34762d34682d33762d33682d33762d336111008201527f682d34762d376834762d31306833762d376833762d336837762d33682d337a6d6111208201527f3136203130762d34682d36763137682d34763130682d337637683376336834206111408201527f3620342033203134762d33682d34762d34682d37762d33682d33762d33682d336111608201520152565b90610295609a60405180947f3c7374796c653e2e6f7b66696c6c3a233830383038303b7d2e62327b66696c6c60208301527f3a6e6f6e653b7d2e62337b66696c6c3a6e6f6e653b7d2e62347b66696c6c3a6e60408301527f6f6e653b7d2e61317b66696c6c3a6e6f6e653b7d2e61327b66696c6c3a6e6f6e60608301527f653b7d2e61337b66696c6c3a6e6f6e653b7d3c2f7374796c653e000000000000608083015261451181518092602086860191016103bf565b810103607a810185520183610235565b9061029560ba60405180947f3c7376672077696474683d2234303022206865696768743d223430302220766960208301527f6577426f783d223020302034303020343030222066696c6c3d226e6f6e65222060408301527f786d6c6e733d22687474703a2f2f7777772e77332e6f72672f323030302f737660608301527f67223e3c7374796c653e2e6f7b66696c6c3a233035303530353b7d2e777b666960808301527336361d11b31cb31cb31c9dbe9e17b9ba3cb6329f60611b60a08301526145f581518092602060b4860191016103bf565b8101651e17b9bb339f60d11b60b482015203609a810185520183610235565b90610a5990614642604051602092609160f51b8483015260228201526022815261463d816101fe565b6155f9565b92604051938161465b86935180928680870191016103bf565b820161466f825180938680850191016103bf565b01038084520182610235565b906102956021604051846146998296518092602080860191016103bf565b8101600160fd1b6020820152036001810185520183610235565b610295916147099493602b926040519687936020926146da8151809286808a0191016103bf565b85016146ee825180938680850191016103bf565b0191602f60f81b8184015283519384916021850191016103bf565b01692072656d61696e696e6760b01b602182015203600b810185520183610235565b603790610295929493604051958261474d8894518092602080880191016103bf565b83016b0101429a7a6221027aaaa14960a51b6020820152614778825180936020602c850191016103bf565b01602f60f81b602c820152614797825180936020602d850191016103bf565b01692072656d61696e696e6760b01b602d820152036017810185520183610235565b6102959161480e94936021926040519687936020926147e08151809286808a0191016103bf565b85016147f4825180938680850191016103bf565b0191602f60f81b81840152835193849187850191016103bf565b01036001810185520183610235565b9061029560236040518461483b8296518092602080860191016103bf565b8101620101d160ed1b6020820152036003810185520183610235565b60216102959193929360405194816148798793518092602080870191016103bf565b820161488e82518093602080850191016103bf565b01600160fd1b6020820152036001810185520183610235565b60256102959193929360405194816148c98793518092602080870191016103bf565b820164555043202360d81b60208201526148ec82518093602087850191016103bf565b01036005810185520183610235565b90614947610a5992633b9aca0061491a6149158551614a5d565b61467b565b91068015614983579061492f61494292612c4b565b61493c6060860151612c4b565b916147b9565b61481d565b90614956610100820151614c9c565b805161496e575b506149689051612c4b565b906148a7565b61497c906149689293614857565b919061495d565b506040830190815180156000146149b557506149a26149429251612c4b565b6149af6060860151612c4b565b9161472b565b61494292506149c390612c4b565b6149d06060860151612c4b565b916146b3565b604051906149e3826101ab565b600882526713dc9a59da5b985b60c21b6020830152565b60405190614a07826101ab565b60068252654f72616e676560d01b6020830152565b60405190614a29826101ab565b600482526350696e6b60e01b6020830152565b60405190614a49826101ab565b600582526420b634b2b760d91b6020830152565b60018103614a6e5750610a59614a3c565b60028103614a7f5750610a59614a1c565b60038103614a905750610a596149fa565b60048103614aa15750610a596149d6565b6000526003602052610a59604060002061031c565b60405190614ac3826101ab565b6007825266546f7070696e6760c81b6020830152565b60405190614ae6826101ab565b6004825263119a5cdd60e21b6020830152565b60405190614b06826101ab565b600b82526a5375697420626f74746f6d60a81b6020830152565b60405190614b2d826101ab565b600882526705375697420746f760c41b6020830152565b60405190614b51826101ab565b600482526314dd5a5d60e21b6020830152565b60405190614b71826101ab565b60048252631219585960e21b6020830152565b60405190614b91826101ab565b600882526704865616420746f760c41b6020830152565b60405190614bb5826101ab565b600582526409adeeae8d60db1b6020830152565b60405190614bd6826101ab565b6007825266476c617373657360c81b6020830152565b60405190614bf9826101ab565b60088252674e65636b6c61636560c01b6020830152565b60405190614c1d826101ab565b60048252634c65677360e01b6020830152565b60405190614c3d826101ab565b60088252674261636b7369646560c01b6020830152565b60405190614c61826101ab565b600582526415dbdc9b1960da1b6020830152565b60405190614c82826101ab565b600b82526a4e616b65642042616e6e7960a81b6020830152565b80614caa5750610a59614c75565b60018103614cbb5750610a59614c54565b60028103614ccc5750610a59614c30565b60078103614cdd5750610a59614c10565b60038103614cee5750610a59614bec565b60058103614cff5750610a59614bc9565b60068103614d105750610a59614ba8565b600b8103614d215750610a59614b84565b60048103614d325750610a59614b64565b60088103614d435750610a59614b44565b600a8103614d545750610a59614b20565b60098103614d655750610a59614af9565b600c8103614d765750610a59614ad9565b600d14614d8557610a5961186e565b610a59614ab6565b60405190614d9a826101fe565b604082527f6768696a6b6c6d6e6f707172737475767778797a303132333435363738392b2f6040837f4142434445464748494a4b4c4d4e4f505152535455565758595a61626364656660208201520152565b906002820180921161296f57565b906020820180921161296f57565b906001820180921161296f57565b9190820180921161296f57565b805115614f0357614e32614d8d565b614e4e614e49614e428451614dec565b6003900490565b612957565b91614e60614e5b84614dfa565b612c19565b92835280815182019060208501935b828210614eb157505050600390510680600114614ea057600214614e91575090565b603d60f81b6000199091015290565b50613d3d60f01b6001199091015290565b9091936004906003809401938451600190603f9082828260121c16880101518553828282600c1c16880101518386015382828260061c1688010151600286015316850101519082015301939190614e6f565b50610a5961186e565b6000546001600160a01b0390811681614f23615a96565b1603614f2c5750565b602490614f37615a96565b60405163118cdaa760e01b815291166004820152fd5b614f569061596a565b92614f65969596929192612efa565b9460405197889760208901703c7374796c653e2e62317b66696c6c3a2360781b90528051908160318b019160200191614f9d926103bf565b8801603181016b3b7d2e62327b66696c6c3a2360a01b905281519182603d83019160200191614fcb926103bf565b01603d81016b3b7d2e62337b66696c6c3a2360a01b905281519182604983019160200191614ff8926103bf565b0160498101615015906b3b7d2e62347b66696c6c3a2360a01b9052565b6055016150219161154c565b6b3b7d2e61317b66696c6c3a2360a01b8152600c0161503f9161154c565b6b3b7d2e61327b66696c6c3a2360a01b8152600c0161505d9161154c565b6b3b7d2e61337b66696c6c3a2360a01b8152600c0161507b9161154c565b691dbe9e17b9ba3cb6329f60b11b8152600a016150979161154c565b03601f1981018252610a599082610235565b604051906150b682610219565b61019c82527f6820643d224d3139332031373068347633682d347a222f3e3c2f673e000000006101a0837f3c6720636c6173733d226f223e3c7061746820643d224d31393020313733682d60208201527f3337762d33682d3130762d34682d36763468337633682d33763468367633683160408201527f307634683337762d346833762d33682d33762d347a6d2d34302034682d33762d60608201527f34683376347a6d372033762d3368337633682d337a6d362030762d336834763360808201527f682d347a6d372030762d3368337633682d337a6d372030762d3368337633682d60a08201527f337a6d31302030682d34762d33683476337a222f3e3c7061746820643d224d3160c08201527f39302031373068337633682d337a222f3e3c7061746820643d224d313933203160e08201527f363668347634682d347a6d30203768347634682d347a222f3e3c2f673e3c67206101008201527f636c6173733d2277223e3c7061746820643d224d3133372031373068337633686101208201527f2d337a6d3130203368337634682d337a6d3130203468337633682d337a6d36206101408201527f3068347633682d347a6d37203068337633682d337a6d37203068337633682d336101608201527f7a6d36203068347633682d347a6d372d3468337634682d337a222f3e3c7061746101808201520152565b6040519060c082018281106001600160401b038211176101a65760405260818252601f60f91b60a0837f3c6720636c6173733d226f223e3c7061746820643d224d31383320313630762d60208201527f34682d32307634682d33763368337634683234762d37682d347a6d2d3133203360408201527f762d336831307633682d31307a222066696c6c3d2223616437316338222f3e3c60608201527f7061746820643d224d313730203136306831307633682d31307a222f3e3c2f6760808201520152565b91906060928151600091828394879361538e81614e08565b955b8681106153a1575050505050505050565b81811015615588576153b381846114ed565b516040805163507f146560e01b8152600491906001600160a01b036020808386818e86165afa918215610b585761542e9560009588958e948896615569575b50505163c44a8e6d60e01b81526001600160a01b0390931690830190815260208101949094526000604085015290948593849291839160600190565b0392165afa8015610b585761010091600091615550575b500151965b60038881149690871561551e575050506001946154678288612dfa565b995b60068981036154e7575050600a6001985b11806154dd575b6154c3575b81151590816154ba575b506154a2575b50600101969496615390565b6001919a6125be6154b39288612dfa565b9990615496565b90501538615490565b986154ce919b611a03565b996154d761186e565b98615486565b5089511515615481565b8991991180615516575b6154fe575b600a9061547a565b97509a61550d906125be6152b1565b9a6001976154f6565b5088156154f1565b899b9197929b1180615548575b156154695795509a61553f906125be6150a9565b9a600195615469565b50861561552b565b615563913d8091833e610b4a8183610235565b38615445565b615580929650803d10610b8757610b788183610235565b9338806153f2565b600e9560009061544a565b604051906105e082018281106001600160401b038211176101a657604052602e82526105c0366020840137565b906155ca826104c8565b6155d76040519182610235565b8281528092612c41601f19916104c8565b9081518110156114e8570160200190565b9081511561572057615609615593565b916000906000615618856114db565b526001918151916000925b808410615649575050505061563f61564491610a599394615aef565b615b32565b615b79565b9091929461567a61567461566e61566089876155e8565b516001600160f81b03191690565b60f81c90565b60ff1690565b9184925b60ff90898289168610156156df57600192916156b36156ad6156746156a68a6156b9966114ed565b5160ff1690565b60081b90565b90614e16565b6156d68b6156ce88603a9586860616926114ed565b9060ff169052565b0493019261567e565b50919594935050809691965b6156f9575060010192615623565b9460ff6001603a9261571683858b06166156ce8d868516906114ed565b01169504806156eb565b9050610a59612c01565b60405190615737826101ab565b600682526506666653930360d41b6020830152565b60405190615759826101ab565b600682526506666633730360d41b6020830152565b6040519061577b826101ab565b600682526566336136303360d01b6020830152565b6040519061579d826101ab565b600682526539363561316160d01b6020830152565b604051906157bf826101ab565b600682526533331bb1981960d11b6020830152565b604051906157e1826101ab565b600682526506664333630360d41b6020830152565b60405190615803826101ab565b600682526518cccc994c1960d21b6020830152565b60405190615825826101ab565b600682526566666438633560d01b6020830152565b60405190615847826101ab565b600682526566663936613960d01b6020830152565b60405190615869826101ab565b600682526533329a9c1c3160d11b6020830152565b6040519061588b826101ab565b600682526563393266343560d01b6020830152565b604051906158ad826101ab565b600682526536376437353760d01b6020830152565b604051906158cf826101ab565b600682526503330613232360d41b6020830152565b604051906158f1826101ab565b600682526532313761313560d01b6020830152565b60405190615913826101ab565b60048252636e6f6e6560e01b6020830152565b60405190615933826101ab565b6006825265329a1c19b2b360d11b6020830152565b60405190615955826101ab565b60068252653231993332b360d11b6020830152565b600181036159b1575061597b6158a0565b906159846158c2565b9061598d6158e4565b90615996615906565b9061599f615926565b906159a8615948565b90610a59615948565b600281036159f857506159c2615818565b906159cb61583a565b906159d461585c565b906159dd61587e565b906159e6615818565b906159ef61583a565b90610a5961585c565b60038103615a3f5750615a0961576e565b90615a126157b2565b90615a1b6157d4565b90615a246157f6565b90615a2d61576e565b90615a366157b2565b90610a596157d4565b600414615a5857604051633b9cb79b60e21b8152600490fd5b615a6061572a565b90615a6961574c565b90615a7261576e565b90615a7b615790565b90615a8461572a565b90615a8d61574c565b90610a5961576e565b337f000000000000000000000000b2b5841dbef766d4b521221732f9b618fcf34a876001600160a01b03161480615ae4575b15615ae057601319360136811161296f573560601c90565b3390565b506014361015615ac8565b9060ff80911690615aff826155c0565b9260005b838110615b11575050505090565b8083615b1f600193856114ed565b5116615b2b82886114ed565b5201615b03565b908151615b3e816155c0565b9060005b818110615b50575090925050565b60019060ff615b666000198389510301886114ed565b5116615b7282866114ed565b5201615b42565b8051615b84816112ac565b91604090615b956040519485610235565b828452615ba1836112ac565b602090601f1901368683013760009260005b858110615bc35750505050505090565b6001908251615bd1816101fe565b603a81527f31323334353637383941424344454647484a4b4c4d4e50515253545556575859858201527f5a6162636465666768696a6b6d6e6f707172737475767778797a000000000000848201526001600160f81b031990615c419060ff615c39858a6114ed565b5116906155e8565b5116861a615c4f828a6155e8565b5301615bb356fea26469706673582212206ff62347e4d6db6b06adca91dda891751e96b9d09799e47f995fc15f3c4320fb64736f6c63430008170033",
			"devdoc": {
				"kind": "dev",
				"methods": {
					"assetIdsOf(uint256)": {
						"params": {
							"nakedBannyId": "The ID of the naked banny shows with the associated assets."
						},
						"returns": {
							"outfitIds": "The outfits attached to the Naked Banny.",
							"worldId": "The world attached to the Naked Banny."
						}
					},
					"constructor": {
						"params": {
							"owner": "The owner allowed to add SVG files that correspond to product IDs.",
							"trustedForwarder": "The trusted forwarder for the ERC2771Context."
						}
					},
					"decorateBannyWith(address,uint256,uint256,uint256[])": {
						"details": "The caller must own the naked banny being dressed and all outfits being worn.",
						"params": {
							"hook": "The hook storing the assets.",
							"nakedBannyId": "The ID of the Naked Banny being dressed.",
							"outfitIds": "The IDs of the outfits that'll be associated with the specified banny. Only one outfit per outfit category allowed at a time and they must be passed in order.",
							"worldId": "The ID of the world that'll be associated with the specified banny."
						}
					},
					"isTrustedForwarder(address)": {
						"details": "Indicates whether any particular address is the trusted forwarder."
					},
					"namesOf(address,uint256)": {
						"params": {
							"hook": "The hook storing the assets.",
							"tokenId": "The ID of the token to show."
						},
						"returns": {
							"_0": "fullName The full name of the token.",
							"_1": "categoryName The name of the token's category.",
							"_2": "productName The name of the token's product."
						}
					},
					"owner()": {
						"details": "Returns the address of the current owner."
					},
					"renounceOwnership()": {
						"details": "Leaves the contract without owner. It will not be possible to call `onlyOwner` functions. Can only be called by the current owner. NOTE: Renouncing ownership will leave the contract without an owner, thereby disabling any functionality that is only available to the owner."
					},
					"setProductNames(uint256[],string[])": {
						"params": {
							"names": "The names of the products.",
							"upcs": "The universal product codes of the products having their name stored."
						}
					},
					"setSvgContentsOf(uint256[],string[])": {
						"params": {
							"svgContents": "The svg contents being stored, not including the parent <svg></svg> element.",
							"upcs": "The universal product codes of the products having SVGs stored."
						}
					},
					"setSvgHashsOf(uint256[],bytes32[])": {
						"details": "This allows anyone to lazily upload the correct svg file.",
						"params": {
							"svgHashs": "The svg hashes being stored, not including the parent <svg></svg> element.",
							"upcs": "The universal product codes of the products having SVG hashes stored."
						}
					},
					"svgOf(address,uint256,bool,bool)": {
						"params": {
							"hook": "The hook storing the assets.",
							"shouldDressNakedBanny": "Whether the naked banny should be dressed.",
							"shouldIncludeWorldOnNakedBanny": "Whether the world should be included on the naked banny.",
							"tokenId": "The ID of the token to show. If the ID belongs to a Naked Banny, it will be shown with its current outfits in its current world if specified."
						},
						"returns": {
							"_0": "svg The SVG."
						}
					},
					"tokenUriOf(address,uint256)": {
						"params": {
							"tokenId": "The ID of the token to show. If the ID belongs to a Naked Banny, it will be shown with its current outfits in its current world."
						},
						"returns": {
							"_0": "tokenUri The URI representing the SVG."
						}
					},
					"transferOwnership(address)": {
						"details": "Transfers ownership of the contract to a new account (`newOwner`). Can only be called by the current owner."
					},
					"trustedForwarder()": {
						"details": "Returns the address of the trusted forwarder."
					},
					"userOf(uint256)": {
						"params": {
							"worldId": "The ID of the world being used."
						},
						"returns": {
							"_0": "The ID of the naked banny using the world."
						}
					},
					"wearerOf(uint256)": {
						"params": {
							"outfitId": "The ID of the outfit being worn."
						},
						"returns": {
							"_0": "The ID of the naked banny wearing the outfit."
						}
					}
				},
				"version": 1
			},
			"userdoc": {
				"kind": "user",
				"methods": {
					"assetIdsOf(uint256)": {
						"notice": "The assets currently attached to each Naked Banny, owned by the naked Banny's owner."
					},
					"decorateBannyWith(address,uint256,uint256,uint256[])": {
						"notice": "Dress your Naked Banny with outfits."
					},
					"namesOf(address,uint256)": {
						"notice": "Returns the name of the token."
					},
					"setProductNames(uint256[],string[])": {
						"notice": "Allows the owner to set the product's name."
					},
					"setSvgBaseUri(string)": {
						"notice": "Allows the owner of this contract to specify the base of the domain hosting the SVG files."
					},
					"setSvgContentsOf(uint256[],string[])": {
						"notice": "The owner of this contract can store SVG files for product IDs."
					},
					"setSvgHashsOf(uint256[],bytes32[])": {
						"notice": "Allows the owner of this contract to upload the hash of an svg file for a universal product code."
					},
					"svgBaseUri()": {
						"notice": "The base of the domain hosting the SVG files that can be lazily uploaded to the contract."
					},
					"svgHashOf(uint256)": {
						"notice": "The Naked Banny and outfit SVG hash files."
					},
					"svgOf(address,uint256,bool,bool)": {
						"notice": "Returns the SVG showing either a naked banny with/without outfits and a world, or the stand alone outfit or world."
					},
					"tokenUriOf(address,uint256)": {
						"notice": "Returns the SVG showing a dressed Naked Banny in a world."
					},
					"userOf(uint256)": {
						"notice": "Checks to see which naked banny is currently using a particular world."
					},
					"wearerOf(uint256)": {
						"notice": "Checks to see which naked banny is currently wearing a particular outfit."
					}
				},
				"version": 1
			},
			"gitCommit": "6b0f34ef19b54a6b7610472f2409e9b8b06a3522",
			"sourceName": "src/Banny721TokenUriResolver.sol",
			"chainId": "84532",
			"linkReferences": {},
			"deployedLinkReferences": {}
		},
		{
			"_format": "sphinx-sol-ct-artifact-1",
			"merkleRoot": "0x39d1801f5a46845a7c5bc2af1f9b00c0a0d0b5735b3b957fab5ea2b56d97c5cb",
			"contractName": "Banny721TokenUriResolver",
			"address": "0xB7f55361dF4a62201A28B145c6Ca2A77d1896eEE",
			"abi": [
				{
					"type": "constructor",
					"inputs": [
						{
							"name": "owner",
							"type": "address",
							"internalType": "address"
						},
						{
							"name": "trustedForwarder",
							"type": "address",
							"internalType": "address"
						}
					],
					"stateMutability": "nonpayable"
				},
				{
					"type": "function",
					"name": "assetIdsOf",
					"inputs": [
						{
							"name": "nakedBannyId",
							"type": "uint256",
							"internalType": "uint256"
						}
					],
					"outputs": [
						{
							"name": "worldId",
							"type": "uint256",
							"internalType": "uint256"
						},
						{
							"name": "outfitIds",
							"type": "uint256[]",
							"internalType": "uint256[]"
						}
					],
					"stateMutability": "view"
				},
				{
					"type": "function",
					"name": "decorateBannyWith",
					"inputs": [
						{
							"name": "hook",
							"type": "address",
							"internalType": "address"
						},
						{
							"name": "nakedBannyId",
							"type": "uint256",
							"internalType": "uint256"
						},
						{
							"name": "worldId",
							"type": "uint256",
							"internalType": "uint256"
						},
						{
							"name": "outfitIds",
							"type": "uint256[]",
							"internalType": "uint256[]"
						}
					],
					"outputs": [],
					"stateMutability": "nonpayable"
				},
				{
					"type": "function",
					"name": "isTrustedForwarder",
					"inputs": [
						{
							"name": "forwarder",
							"type": "address",
							"internalType": "address"
						}
					],
					"outputs": [
						{
							"name": "",
							"type": "bool",
							"internalType": "bool"
						}
					],
					"stateMutability": "view"
				},
				{
					"type": "function",
					"name": "namesOf",
					"inputs": [
						{
							"name": "hook",
							"type": "address",
							"internalType": "address"
						},
						{
							"name": "tokenId",
							"type": "uint256",
							"internalType": "uint256"
						}
					],
					"outputs": [
						{
							"name": "",
							"type": "string",
							"internalType": "string"
						},
						{
							"name": "",
							"type": "string",
							"internalType": "string"
						},
						{
							"name": "",
							"type": "string",
							"internalType": "string"
						}
					],
					"stateMutability": "view"
				},
				{
					"type": "function",
					"name": "owner",
					"inputs": [],
					"outputs": [
						{
							"name": "",
							"type": "address",
							"internalType": "address"
						}
					],
					"stateMutability": "view"
				},
				{
					"type": "function",
					"name": "renounceOwnership",
					"inputs": [],
					"outputs": [],
					"stateMutability": "nonpayable"
				},
				{
					"type": "function",
					"name": "setProductNames",
					"inputs": [
						{
							"name": "upcs",
							"type": "uint256[]",
							"internalType": "uint256[]"
						},
						{
							"name": "names",
							"type": "string[]",
							"internalType": "string[]"
						}
					],
					"outputs": [],
					"stateMutability": "nonpayable"
				},
				{
					"type": "function",
					"name": "setSvgBaseUri",
					"inputs": [
						{
							"name": "baseUri",
							"type": "string",
							"internalType": "string"
						}
					],
					"outputs": [],
					"stateMutability": "nonpayable"
				},
				{
					"type": "function",
					"name": "setSvgContentsOf",
					"inputs": [
						{
							"name": "upcs",
							"type": "uint256[]",
							"internalType": "uint256[]"
						},
						{
							"name": "svgContents",
							"type": "string[]",
							"internalType": "string[]"
						}
					],
					"outputs": [],
					"stateMutability": "nonpayable"
				},
				{
					"type": "function",
					"name": "setSvgHashsOf",
					"inputs": [
						{
							"name": "upcs",
							"type": "uint256[]",
							"internalType": "uint256[]"
						},
						{
							"name": "svgHashs",
							"type": "bytes32[]",
							"internalType": "bytes32[]"
						}
					],
					"outputs": [],
					"stateMutability": "nonpayable"
				},
				{
					"type": "function",
					"name": "svgBaseUri",
					"inputs": [],
					"outputs": [
						{
							"name": "",
							"type": "string",
							"internalType": "string"
						}
					],
					"stateMutability": "view"
				},
				{
					"type": "function",
					"name": "svgHashOf",
					"inputs": [
						{
							"name": "upc",
							"type": "uint256",
							"internalType": "uint256"
						}
					],
					"outputs": [
						{
							"name": "",
							"type": "bytes32",
							"internalType": "bytes32"
						}
					],
					"stateMutability": "view"
				},
				{
					"type": "function",
					"name": "svgOf",
					"inputs": [
						{
							"name": "hook",
							"type": "address",
							"internalType": "address"
						},
						{
							"name": "tokenId",
							"type": "uint256",
							"internalType": "uint256"
						},
						{
							"name": "shouldDressNakedBanny",
							"type": "bool",
							"internalType": "bool"
						},
						{
							"name": "shouldIncludeWorldOnNakedBanny",
							"type": "bool",
							"internalType": "bool"
						}
					],
					"outputs": [
						{
							"name": "",
							"type": "string",
							"internalType": "string"
						}
					],
					"stateMutability": "view"
				},
				{
					"type": "function",
					"name": "tokenUriOf",
					"inputs": [
						{
							"name": "hook",
							"type": "address",
							"internalType": "address"
						},
						{
							"name": "tokenId",
							"type": "uint256",
							"internalType": "uint256"
						}
					],
					"outputs": [
						{
							"name": "",
							"type": "string",
							"internalType": "string"
						}
					],
					"stateMutability": "view"
				},
				{
					"type": "function",
					"name": "transferOwnership",
					"inputs": [
						{
							"name": "newOwner",
							"type": "address",
							"internalType": "address"
						}
					],
					"outputs": [],
					"stateMutability": "nonpayable"
				},
				{
					"type": "function",
					"name": "trustedForwarder",
					"inputs": [],
					"outputs": [
						{
							"name": "",
							"type": "address",
							"internalType": "address"
						}
					],
					"stateMutability": "view"
				},
				{
					"type": "function",
					"name": "userOf",
					"inputs": [
						{
							"name": "worldId",
							"type": "uint256",
							"internalType": "uint256"
						}
					],
					"outputs": [
						{
							"name": "",
							"type": "uint256",
							"internalType": "uint256"
						}
					],
					"stateMutability": "view"
				},
				{
					"type": "function",
					"name": "wearerOf",
					"inputs": [
						{
							"name": "outfitId",
							"type": "uint256",
							"internalType": "uint256"
						}
					],
					"outputs": [
						{
							"name": "",
							"type": "uint256",
							"internalType": "uint256"
						}
					],
					"stateMutability": "view"
				},
				{
					"type": "event",
					"name": "DecorateBanny",
					"inputs": [
						{
							"name": "hook",
							"type": "address",
							"indexed": true,
							"internalType": "address"
						},
						{
							"name": "nakedBannyId",
							"type": "uint256",
							"indexed": true,
							"internalType": "uint256"
						},
						{
							"name": "worldId",
							"type": "uint256",
							"indexed": false,
							"internalType": "uint256"
						},
						{
							"name": "outfitIds",
							"type": "uint256[]",
							"indexed": false,
							"internalType": "uint256[]"
						},
						{
							"name": "caller",
							"type": "address",
							"indexed": false,
							"internalType": "address"
						}
					],
					"anonymous": false
				},
				{
					"type": "event",
					"name": "OwnershipTransferred",
					"inputs": [
						{
							"name": "previousOwner",
							"type": "address",
							"indexed": true,
							"internalType": "address"
						},
						{
							"name": "newOwner",
							"type": "address",
							"indexed": true,
							"internalType": "address"
						}
					],
					"anonymous": false
				},
				{
					"type": "event",
					"name": "SetProductName",
					"inputs": [
						{
							"name": "upc",
							"type": "uint256",
							"indexed": true,
							"internalType": "uint256"
						},
						{
							"name": "name",
							"type": "string",
							"indexed": false,
							"internalType": "string"
						},
						{
							"name": "caller",
							"type": "address",
							"indexed": false,
							"internalType": "address"
						}
					],
					"anonymous": false
				},
				{
					"type": "event",
					"name": "SetSvgBaseUri",
					"inputs": [
						{
							"name": "baseUri",
							"type": "string",
							"indexed": false,
							"internalType": "string"
						},
						{
							"name": "caller",
							"type": "address",
							"indexed": false,
							"internalType": "address"
						}
					],
					"anonymous": false
				},
				{
					"type": "event",
					"name": "SetSvgContent",
					"inputs": [
						{
							"name": "upc",
							"type": "uint256",
							"indexed": true,
							"internalType": "uint256"
						},
						{
							"name": "svgContent",
							"type": "string",
							"indexed": false,
							"internalType": "string"
						},
						{
							"name": "caller",
							"type": "address",
							"indexed": false,
							"internalType": "address"
						}
					],
					"anonymous": false
				},
				{
					"type": "event",
					"name": "SetSvgHash",
					"inputs": [
						{
							"name": "upc",
							"type": "uint256",
							"indexed": true,
							"internalType": "uint256"
						},
						{
							"name": "svgHash",
							"type": "bytes32",
							"indexed": true,
							"internalType": "bytes32"
						},
						{
							"name": "caller",
							"type": "address",
							"indexed": false,
							"internalType": "address"
						}
					],
					"anonymous": false
				},
				{
					"type": "error",
					"name": "ASSET_IS_ALREADY_BEING_WORN",
					"inputs": []
				},
				{
					"type": "error",
					"name": "CONTENTS_ALREADY_STORED",
					"inputs": []
				},
				{
					"type": "error",
					"name": "CONTENTS_MISMATCH",
					"inputs": []
				},
				{
					"type": "error",
					"name": "HASH_ALREADY_STORED",
					"inputs": []
				},
				{
					"type": "error",
					"name": "HASH_NOT_FOUND",
					"inputs": []
				},
				{
					"type": "error",
					"name": "HEAD_ALREADY_ADDED",
					"inputs": []
				},
				{
					"type": "error",
					"name": "OwnableInvalidOwner",
					"inputs": [
						{
							"name": "owner",
							"type": "address",
							"internalType": "address"
						}
					]
				},
				{
					"type": "error",
					"name": "OwnableUnauthorizedAccount",
					"inputs": [
						{
							"name": "account",
							"type": "address",
							"internalType": "address"
						}
					]
				},
				{
					"type": "error",
					"name": "SUIT_ALREADY_ADDED",
					"inputs": []
				},
				{
					"type": "error",
					"name": "UNAUTHORIZED_NAKED_BANNY",
					"inputs": []
				},
				{
					"type": "error",
					"name": "UNAUTHORIZED_OUTFIT",
					"inputs": []
				},
				{
					"type": "error",
					"name": "UNAUTHORIZED_WORLD",
					"inputs": []
				},
				{
					"type": "error",
					"name": "UNORDERED_CATEGORIES",
					"inputs": []
				},
				{
					"type": "error",
					"name": "UNRECOGNIZED_CATEGORY",
					"inputs": []
				},
				{
					"type": "error",
					"name": "UNRECOGNIZED_OUTFIT",
					"inputs": []
				},
				{
					"type": "error",
					"name": "UNRECOGNIZED_PRODUCT",
					"inputs": []
				},
				{
					"type": "error",
					"name": "UNRECOGNIZED_WORLD",
					"inputs": []
				}
			],
			"solcInputHash": "a0bf0047a22b56abb28de6b22609e811",
			"receipt": {
				"blockHash": "0x6fa05bbdcffe2f2d3a683ee04e319f559921606b458259cdb713955a93e62015",
				"blockNumber": 9456076,
				"contractAddress": null,
				"cumulativeGasUsed": "12941253",
				"from": "0xC034550B542b83BA1De312b21d1C94a9a52B1595",
				"gasPrice": "1000280",
				"gasUsed": "11146413",
				"hash": "0x054e32e1cfb422d1003737dcc605b75626648948a3d9a331b3dd26c2ebb6a38a",
				"index": 9,
				"logs": [
					{
						"address": "0xB5E96127D417b1B3ef8438496a38A143167209c7",
						"blockHash": "0x6fa05bbdcffe2f2d3a683ee04e319f559921606b458259cdb713955a93e62015",
						"blockNumber": 9456076,
						"data": "0x0000000000000000000000000000000000000000000000000000000000000000",
						"index": 6,
						"topics": [
							"0x572f161235911da04685a68c06adf558fc7e4a36909dca394650e0adc19cc93d",
							"0x000000000000000000000000c034550b542b83ba1de312b21d1c94a9a52b1595",
							"0x000000000000000000000000183b35e76a7bc60298dcb637515f50e4def9b68b",
							"0x46d18913e8b3289e5961de90c9a638cc682a00834fbafcf61b752c39fbe93b0c"
						],
						"transactionHash": "0x054e32e1cfb422d1003737dcc605b75626648948a3d9a331b3dd26c2ebb6a38a",
						"transactionIndex": 9
					},
					{
						"address": "0xB7f55361dF4a62201A28B145c6Ca2A77d1896eEE",
						"blockHash": "0x6fa05bbdcffe2f2d3a683ee04e319f559921606b458259cdb713955a93e62015",
						"blockNumber": 9456076,
						"data": "0x",
						"index": 7,
						"topics": [
							"0x8be0079c531659141344cd1fd0a4f28419497f9722a3daafe3b4186f6b6457e0",
							"0x0000000000000000000000000000000000000000000000000000000000000000",
							"0x000000000000000000000000584f5da53cb18789099466074e3b5c32ed17243a"
						],
						"transactionHash": "0x054e32e1cfb422d1003737dcc605b75626648948a3d9a331b3dd26c2ebb6a38a",
						"transactionIndex": 9
					},
					{
						"address": "0x584F5Da53cb18789099466074e3B5c32Ed17243a",
						"blockHash": "0x6fa05bbdcffe2f2d3a683ee04e319f559921606b458259cdb713955a93e62015",
						"blockNumber": 9456076,
						"data": "0x",
						"index": 8,
						"topics": [
							"0x6895c13664aa4f67288b25d7a21d7aaa34916e355fb9b6fae0a139a9085becb8",
							"0x000000000000000000000000183b35e76a7bc60298dcb637515f50e4def9b68b"
						],
						"transactionHash": "0x054e32e1cfb422d1003737dcc605b75626648948a3d9a331b3dd26c2ebb6a38a",
						"transactionIndex": 9
					},
					{
						"address": "0x183b35E76A7BC60298DCb637515F50e4DeF9b68b",
						"blockHash": "0x6fa05bbdcffe2f2d3a683ee04e319f559921606b458259cdb713955a93e62015",
						"blockNumber": 9456076,
						"data": "0x0000000000000000000000000000000000000000000000000000000000000001",
						"index": 9,
						"topics": [
							"0xa65fb05c5808f5f389d72edeaf719ce38f4cc55c1f69ca3cbfb31c21501caa07",
							"0x39d1801f5a46845a7c5bc2af1f9b00c0a0d0b5735b3b957fab5ea2b56d97c5cb"
						],
						"transactionHash": "0x054e32e1cfb422d1003737dcc605b75626648948a3d9a331b3dd26c2ebb6a38a",
						"transactionIndex": 9
					},
					{
						"address": "0x9078eBcF358F18901D34AB0249d42030Fae06786",
						"blockHash": "0x6fa05bbdcffe2f2d3a683ee04e319f559921606b458259cdb713955a93e62015",
						"blockNumber": 9456076,
						"data": "0x",
						"index": 10,
						"topics": [
							"0x8be0079c531659141344cd1fd0a4f28419497f9722a3daafe3b4186f6b6457e0",
							"0x0000000000000000000000000000000000000000000000000000000000000000",
							"0x000000000000000000000000f2dee65acd9cca20692c19e9635274b9c9e3309a"
						],
						"transactionHash": "0x054e32e1cfb422d1003737dcc605b75626648948a3d9a331b3dd26c2ebb6a38a",
						"transactionIndex": 9
					},
					{
						"address": "0x9078eBcF358F18901D34AB0249d42030Fae06786",
						"blockHash": "0x6fa05bbdcffe2f2d3a683ee04e319f559921606b458259cdb713955a93e62015",
						"blockNumber": 9456076,
						"data": "0x",
						"index": 11,
						"topics": [
							"0x8be0079c531659141344cd1fd0a4f28419497f9722a3daafe3b4186f6b6457e0",
							"0x000000000000000000000000f2dee65acd9cca20692c19e9635274b9c9e3309a",
							"0x000000000000000000000000c0288b1a94b889f6c68821f14bf9f12220a89dff"
						],
						"transactionHash": "0x054e32e1cfb422d1003737dcc605b75626648948a3d9a331b3dd26c2ebb6a38a",
						"transactionIndex": 9
					},
					{
						"address": "0x989566Bf9fF4CffA55a98ADa7dc3E58b2a0a19c6",
						"blockHash": "0x6fa05bbdcffe2f2d3a683ee04e319f559921606b458259cdb713955a93e62015",
						"blockNumber": 9456076,
						"data": "0x",
						"index": 12,
						"topics": [
							"0x72b627b4904fa8a0160a923aa5b142eb19f6e56dc75017884162206f8886df09",
							"0x0000000000000000000000009078ebcf358f18901d34ab0249d42030fae06786",
							"0x000000000000000000000000f2dee65acd9cca20692c19e9635274b9c9e3309a"
						],
						"transactionHash": "0x054e32e1cfb422d1003737dcc605b75626648948a3d9a331b3dd26c2ebb6a38a",
						"transactionIndex": 9
					},
					{
						"address": "0xf2dEE65acD9ccA20692C19E9635274b9c9e3309A",
						"blockHash": "0x6fa05bbdcffe2f2d3a683ee04e319f559921606b458259cdb713955a93e62015",
						"blockNumber": 9456076,
						"data": "0x0000000000000000000000009078ebcf358f18901d34ab0249d42030fae06786",
						"index": 13,
						"topics": [
							"0xa42f6bb68e81f4650a7966f109d861f6c3d2a477e608e30807f568bed1cebdb9",
							"0x0000000000000000000000000000000000000000000000000000000000000002"
						],
						"transactionHash": "0x054e32e1cfb422d1003737dcc605b75626648948a3d9a331b3dd26c2ebb6a38a",
						"transactionIndex": 9
					},
					{
						"address": "0x2ca466eB84DD69A99E25d10BBbdA6e1B3c562c49",
						"blockHash": "0x6fa05bbdcffe2f2d3a683ee04e319f559921606b458259cdb713955a93e62015",
						"blockNumber": 9456076,
						"data": "0x",
						"index": 14,
						"topics": [
							"0xddf252ad1be2c89b69c2b068fc378daa952ba7f163c4a11628f55a4df523b3ef",
							"0x0000000000000000000000000000000000000000000000000000000000000000",
							"0x000000000000000000000000c0288b1a94b889f6c68821f14bf9f12220a89dff",
							"0x0000000000000000000000000000000000000000000000000000000000000002"
						],
						"transactionHash": "0x054e32e1cfb422d1003737dcc605b75626648948a3d9a331b3dd26c2ebb6a38a",
						"transactionIndex": 9
					},
					{
						"address": "0x2ca466eB84DD69A99E25d10BBbdA6e1B3c562c49",
						"blockHash": "0x6fa05bbdcffe2f2d3a683ee04e319f559921606b458259cdb713955a93e62015",
						"blockNumber": 9456076,
						"data": "0x000000000000000000000000ff7e1c600b8af88de885a7c68c3e737401082423",
						"index": 15,
						"topics": [
							"0x365b3162cd780731fc55a794b59494d472bc2af701007f581843a70673814698",
							"0x0000000000000000000000000000000000000000000000000000000000000002",
							"0x000000000000000000000000c0288b1a94b889f6c68821f14bf9f12220a89dff"
						],
						"transactionHash": "0x054e32e1cfb422d1003737dcc605b75626648948a3d9a331b3dd26c2ebb6a38a",
						"transactionIndex": 9
					},
					{
						"address": "0xCd7112aE7c3b2505F0795c1ba965e5694c25d696",
						"blockHash": "0x6fa05bbdcffe2f2d3a683ee04e319f559921606b458259cdb713955a93e62015",
						"blockNumber": 9456076,
						"data": "0x000000000000000000000000ff7e1c600b8af88de885a7c68c3e737401082423",
						"index": 16,
						"topics": [
							"0x7f9a7dcb234c909a09de2f344661ad9e5b24067adb97c908647c2edcbb121c30",
							"0x0000000000000000000000000000000000000000000000000000000000000002",
							"0x000000000000000000000000ff7e1c600b8af88de885a7c68c3e737401082423"
						],
						"transactionHash": "0x054e32e1cfb422d1003737dcc605b75626648948a3d9a331b3dd26c2ebb6a38a",
						"transactionIndex": 9
					},
					{
						"address": "0xEac995E09d18A0E7C44d4cf0c7c85400666524cF",
						"blockHash": "0x6fa05bbdcffe2f2d3a683ee04e319f559921606b458259cdb713955a93e62015",
						"blockNumber": 9456076,
						"data": "0x",
						"index": 17,
						"topics": [
							"0xfda207e5d149787155cf9596283f246f082d4744a57e37dda99146e5dcc542bb",
							"0x000000000000000000000000000000000000000000000000000000006633f278",
							"0x0000000000000000000000000000000000000000000000000000000000000002",
							"0x0000000000000000000000000000000000000000000000000000000000000000"
						],
						"transactionHash": "0x054e32e1cfb422d1003737dcc605b75626648948a3d9a331b3dd26c2ebb6a38a",
						"transactionIndex": 9
					},
					{
						"address": "0xEac995E09d18A0E7C44d4cf0c7c85400666524cF",
						"blockHash": "0x6fa05bbdcffe2f2d3a683ee04e319f559921606b458259cdb713955a93e62015",
						"blockNumber": 9456076,
						"data": "0x000000000000000000000000000000000000000000000000000000000001518000000000000000000000000000000000000000000000d3c21bcecceda10000000000000000000000000000000000000000000000000000000000000002faf080000000000000000000000000000000000000000000000000000000000000000000006014458d4a5c44fb634410f8a5fcf89110544effa040000eeee1f40138810000000000000000000000000000000000000000000000000000000065f9e319000000000000000000000000ff7e1c600b8af88de885a7c68c3e737401082423",
						"index": 18,
						"topics": [
							"0x11a490bebff1beffe4bdd210894aca6ea5049427ce4b3c48865717677199cb07",
							"0x000000000000000000000000000000000000000000000000000000006633f278",
							"0x0000000000000000000000000000000000000000000000000000000000000002"
						],
						"transactionHash": "0x054e32e1cfb422d1003737dcc605b75626648948a3d9a331b3dd26c2ebb6a38a",
						"transactionIndex": 9
					},
					{
						"address": "0xEac995E09d18A0E7C44d4cf0c7c85400666524cF",
						"blockHash": "0x6fa05bbdcffe2f2d3a683ee04e319f559921606b458259cdb713955a93e62015",
						"blockNumber": 9456076,
						"data": "0x",
						"index": 19,
						"topics": [
							"0xfda207e5d149787155cf9596283f246f082d4744a57e37dda99146e5dcc542bb",
							"0x000000000000000000000000000000000000000000000000000000006633f279",
							"0x0000000000000000000000000000000000000000000000000000000000000002",
							"0x000000000000000000000000000000000000000000000000000000006633f278"
						],
						"transactionHash": "0x054e32e1cfb422d1003737dcc605b75626648948a3d9a331b3dd26c2ebb6a38a",
						"transactionIndex": 9
					},
					{
						"address": "0xEac995E09d18A0E7C44d4cf0c7c85400666524cF",
						"blockHash": "0x6fa05bbdcffe2f2d3a683ee04e319f559921606b458259cdb713955a93e62015",
						"blockNumber": 9456076,
						"data": "0x0000000000000000000000000000000000000000000000000000000000093a8000000000000000000000000000000000000000000000152d02c7e14af68000000000000000000000000000000000000000000000000000000000000000009680000000000000000000000000000000000000000000000000000000000000000000006014458d4a5c44fb634410f8a5fcf89110544effa040000eeee13881388100000000000000000000000000000000000000000000000000000000661ecd19000000000000000000000000ff7e1c600b8af88de885a7c68c3e737401082423",
						"index": 20,
						"topics": [
							"0x11a490bebff1beffe4bdd210894aca6ea5049427ce4b3c48865717677199cb07",
							"0x000000000000000000000000000000000000000000000000000000006633f279",
							"0x0000000000000000000000000000000000000000000000000000000000000002"
						],
						"transactionHash": "0x054e32e1cfb422d1003737dcc605b75626648948a3d9a331b3dd26c2ebb6a38a",
						"transactionIndex": 9
					},
					{
						"address": "0xdf75f3CDf0277633A1C8dcEfc3f2538e0D42F990",
						"blockHash": "0x6fa05bbdcffe2f2d3a683ee04e319f559921606b458259cdb713955a93e62015",
						"blockNumber": 9456076,
						"data": "0x000000000000000000000000000000000000000000000000000000000000eeee0000000000000000000000000000000000000000000000000000000000000012000000000000000000000000000000000000000000000000000000000000eeee000000000000000000000000ff7e1c600b8af88de885a7c68c3e737401082423",
						"index": 21,
						"topics": [
							"0x9570de6fc0456f642bd0a001b24cd31676388c24596df64a17190c24310690a1",
							"0x0000000000000000000000000000000000000000000000000000000000000002",
							"0x000000000000000000000000000000000000000000000000000000000000eeee"
						],
						"transactionHash": "0x054e32e1cfb422d1003737dcc605b75626648948a3d9a331b3dd26c2ebb6a38a",
						"transactionIndex": 9
					},
					{
						"address": "0xCd7112aE7c3b2505F0795c1ba965e5694c25d696",
						"blockHash": "0x6fa05bbdcffe2f2d3a683ee04e319f559921606b458259cdb713955a93e62015",
						"blockNumber": 9456076,
						"data": "0x0000000000000000000000000000000000000000000000000000000000000040000000000000000000000000ff7e1c600b8af88de885a7c68c3e7374010824230000000000000000000000000000000000000000000000000000000000000001000000000000000000000000df75f3cdf0277633a1c8dcefc3f2538e0d42f990",
						"index": 22,
						"topics": [
							"0xb648241d83df6540fc10f2acc641e4bf80a1e84e7ae2f1f6b0ad204b8fee635b",
							"0x0000000000000000000000000000000000000000000000000000000000000002"
						],
						"transactionHash": "0x054e32e1cfb422d1003737dcc605b75626648948a3d9a331b3dd26c2ebb6a38a",
						"transactionIndex": 9
					},
					{
						"address": "0xFF7e1C600b8af88De885A7c68C3e737401082423",
						"blockHash": "0x6fa05bbdcffe2f2d3a683ee04e319f559921606b458259cdb713955a93e62015",
						"blockNumber": 9456076,
						"data": "0x000000000000000000000000000000000000000000000000000000006633f279000000000000000000000000000000000000000000000000000000000000000200000000000000000000000000000000000000000000000000000000000000a000000000000000000000000000000000000000000000000000000000000000c0000000000000000000000000c0288b1a94b889f6c68821f14bf9f12220a89dff000000000000000000000000000000000000000000000000000000000000000000000000000000000000000000000000000000000000000000000000000000162442414e4e59207265766e6574206465706c6f79656400000000000000000000",
						"index": 23,
						"topics": [
							"0x8dac501f24f52bda9ebdfa6a1789878c1d1e23823c771f7d52b5ba41261b0f45"
						],
						"transactionHash": "0x054e32e1cfb422d1003737dcc605b75626648948a3d9a331b3dd26c2ebb6a38a",
						"transactionIndex": 9
					},
					{
						"address": "0x761d24Ffa7e94544fb6d2F16198D1b91527d22CC",
						"blockHash": "0x6fa05bbdcffe2f2d3a683ee04e319f559921606b458259cdb713955a93e62015",
						"blockNumber": 9456076,
						"data": "0x",
						"index": 24,
						"topics": [
							"0x8be0079c531659141344cd1fd0a4f28419497f9722a3daafe3b4186f6b6457e0",
							"0x0000000000000000000000000000000000000000000000000000000000000000",
							"0x0000000000000000000000004207c2a3491d2f3ae33609588ddfebeb8eebcb6e"
						],
						"transactionHash": "0x054e32e1cfb422d1003737dcc605b75626648948a3d9a331b3dd26c2ebb6a38a",
						"transactionIndex": 9
					},
					{
						"address": "0x4207C2a3491D2f3AE33609588DDFEBEb8EEbcB6E",
						"blockHash": "0x6fa05bbdcffe2f2d3a683ee04e319f559921606b458259cdb713955a93e62015",
						"blockNumber": 9456076,
						"data": "0x000000000000000000000000000000000000000000000000000000000000008000000000000000000000000000000000000000000000000000000000000000c00fcd04cb8248c48ceb3e2cdd81bf9313675ea00db678ec9106a95840a43a0fbe000000000000000000000000ff7e1c600b8af88de885a7c68c3e737401082423000000000000000000000000000000000000000000000000000000000000000a42616e6e79766572736500000000000000000000000000000000000000000000000000000000000000000000000000000000000000000000000000000000000542414e4e59000000000000000000000000000000000000000000000000000000",
						"index": 25,
						"topics": [
							"0xb4510654a5884cae50948507300dc482833ed1446cef375e064bef00b6b4ba4e",
							"0x0000000000000000000000000000000000000000000000000000000000000002",
							"0x000000000000000000000000761d24ffa7e94544fb6d2f16198d1b91527d22cc"
						],
						"transactionHash": "0x054e32e1cfb422d1003737dcc605b75626648948a3d9a331b3dd26c2ebb6a38a",
						"transactionIndex": 9
					},
					{
						"address": "0x21E5b48b8c6985f664569e8bFAf738F90bc81C11",
						"blockHash": "0x6fa05bbdcffe2f2d3a683ee04e319f559921606b458259cdb713955a93e62015",
						"blockNumber": 9456076,
						"data": "0x0000000000000000000000000000000000000000000000000000000000000000000000000000000000000000000000000000000000000000000000000002a300000000000000000000000000c0288b1a94b889f6c68821f14bf9f12220a89dff",
						"index": 26,
						"topics": [
							"0xa8d6b20cd05f07d50e9855ce0fc6de3517f3df2e890a5ec6357892b3808a53ce",
							"0x0000000000000000000000000000000000000000000000000000000000000002"
						],
						"transactionHash": "0x054e32e1cfb422d1003737dcc605b75626648948a3d9a331b3dd26c2ebb6a38a",
						"transactionIndex": 9
					},
					{
						"address": "0x21E5b48b8c6985f664569e8bFAf738F90bc81C11",
						"blockHash": "0x6fa05bbdcffe2f2d3a683ee04e319f559921606b458259cdb713955a93e62015",
						"blockNumber": 9456076,
						"data": "0x00000000000000000000000000000000000000000000000000000000000000000000000000000000000000000000000000000000000000000000000000002328000000000000000000000000c0288b1a94b889f6c68821f14bf9f12220a89dff",
						"index": 27,
						"topics": [
							"0xaafe2470cbfb11a09f9b45d6a795226e93cc251e30fdcabddbabb157a1db5353",
							"0x0000000000000000000000000000000000000000000000000000000000000002"
						],
						"transactionHash": "0x054e32e1cfb422d1003737dcc605b75626648948a3d9a331b3dd26c2ebb6a38a",
						"transactionIndex": 9
					},
					{
						"address": "0x21E5b48b8c6985f664569e8bFAf738F90bc81C11",
						"blockHash": "0x6fa05bbdcffe2f2d3a683ee04e319f559921606b458259cdb713955a93e62015",
						"blockNumber": 9456076,
						"data": "0x000000000000000000000000d86ae4fda97069419359150b50607e2ca111b7a1000000000000000000000000c0288b1a94b889f6c68821f14bf9f12220a89dff",
						"index": 28,
						"topics": [
							"0xe694de883385e30d535f625d68df4b2b5e866e8e86fe9d15554480c8d1812e60",
							"0x0000000000000000000000000000000000000000000000000000000000000002",
							"0x0000000000000000000000004200000000000000000000000000000000000006"
						],
						"transactionHash": "0x054e32e1cfb422d1003737dcc605b75626648948a3d9a331b3dd26c2ebb6a38a",
						"transactionIndex": 9
					},
					{
						"address": "0xD685A38eA59b8Fca6dfed1AF41924a9B327af936",
						"blockHash": "0x6fa05bbdcffe2f2d3a683ee04e319f559921606b458259cdb713955a93e62015",
						"blockNumber": 9456076,
						"data": "0x0000000000000000000000000000000000000000000000000000000000000000000000000000000000000000000000000000000000000000000000003b9aca000000000000000000000000000000000000000000000000000000000000000000000000000000000000000000584f5da53cb18789099466074e3b5c32ed17243a00000000000000000000000000000000000000000000000000000000000000000000000000000000000000000000000000000000000000000000000000000000000000000000000000000000ff7e1c600b8af88de885a7c68c3e737401082423",
						"index": 29,
						"topics": [
							"0x0d7ea8ac1cb69dfa18ce2b18e90d31b4d4a0370aacadf7db42d42930a09b3f01",
							"0x0000000000000000000000000000000000000000000000000000000000000002",
							"0x0000000000000000000000000000000000000000000000000000000000000000",
							"0x0000000000000000000000000000000000000000000000000000000000000001"
						],
						"transactionHash": "0x054e32e1cfb422d1003737dcc605b75626648948a3d9a331b3dd26c2ebb6a38a",
						"transactionIndex": 9
					},
					{
						"address": "0x6B8340b759d72E08b3fb674B48547E80631007cb",
						"blockHash": "0x6fa05bbdcffe2f2d3a683ee04e319f559921606b458259cdb713955a93e62015",
						"blockNumber": 9456076,
						"data": "0x00000000000000000000000000000000000000000000000000000000000000600000000000000000000000000000000000000000000000000000000002e20040000000000000000000000000c0288b1a94b889f6c68821f14bf9f12220a89dff0000000000000000000000000000000000000000000000000000000000000006000000000000000000000000000000000000000000000000000000000000001100000000000000000000000000000000000000000000000000000000000000190000000000000000000000000000000000000000000000000000000000000006000000000000000000000000000000000000000000000000000000000000001500000000000000000000000000000000000000000000000000000000000000160000000000000000000000000000000000000000000000000000000000000017",
						"index": 30,
						"topics": [
							"0xf8cdf10a0ce6189c6d069e97320ef146e2bcbd32d6c0b86dcbfbf3bd8578fa70",
							"0x000000000000000000000000584f5da53cb18789099466074e3b5c32ed17243a",
							"0x000000000000000000000000c0288b1a94b889f6c68821f14bf9f12220a89dff",
							"0x0000000000000000000000000000000000000000000000000000000000000002"
						],
						"transactionHash": "0x054e32e1cfb422d1003737dcc605b75626648948a3d9a331b3dd26c2ebb6a38a",
						"transactionIndex": 9
					},
					{
						"address": "0x6B8340b759d72E08b3fb674B48547E80631007cb",
						"blockHash": "0x6fa05bbdcffe2f2d3a683ee04e319f559921606b458259cdb713955a93e62015",
						"blockNumber": 9456076,
						"data": "0x00000000000000000000000000000000000000000000000000000000000000600000000000000000000000000000000000000000000000000000000010000000000000000000000000000000c0288b1a94b889f6c68821f14bf9f12220a89dff0000000000000000000000000000000000000000000000000000000000000001000000000000000000000000000000000000000000000000000000000000001c",
						"index": 31,
						"topics": [
							"0xf8cdf10a0ce6189c6d069e97320ef146e2bcbd32d6c0b86dcbfbf3bd8578fa70",
							"0x0000000000000000000000000c86d0204c6ece28122daec16c613d3b69941845",
							"0x000000000000000000000000c0288b1a94b889f6c68821f14bf9f12220a89dff",
							"0x0000000000000000000000000000000000000000000000000000000000000002"
						],
						"transactionHash": "0x054e32e1cfb422d1003737dcc605b75626648948a3d9a331b3dd26c2ebb6a38a",
						"transactionIndex": 9
					},
					{
						"address": "0x0c86d0204C6eCE28122daec16C613D3B69941845",
						"blockHash": "0x6fa05bbdcffe2f2d3a683ee04e319f559921606b458259cdb713955a93e62015",
						"blockNumber": 9456076,
						"data": "0x000000000000000000000000000000000000000000000000000000000000000200000000000000000000000000000000000000000000000000000000000000400000000000000000000000000000000000000000000000000000000000000001000000000000000000000000799a485291bc285b878b734571e89262d83b8829",
						"index": 32,
						"topics": [
							"0xd982fdd7a5657847f0905ad1aff9ab6105d1ff64590493b3486837504dafe55a"
						],
						"transactionHash": "0x054e32e1cfb422d1003737dcc605b75626648948a3d9a331b3dd26c2ebb6a38a",
						"transactionIndex": 9
					},
					{
						"address": "0xc0288B1a94B889F6C68821f14Bf9F12220A89DFF",
						"blockHash": "0x6fa05bbdcffe2f2d3a683ee04e319f559921606b458259cdb713955a93e62015",
						"blockNumber": 9456076,
						"data": "0x000000000000000000000000000000000000000000000000000000000000010000000000000000000000000000000000000000000000000000000000000005600000000000000000000000000000000000000000000000000000000000000620000000000000000000000000000000000000000000000000000000000000070000000000000000000000000000000000000000000000000000000000000008600000000000000000000000000000000000000000000000000000000000000f000000000000000000000000000000000000000000000000000000000000000001000000000000000000000000584f5da53cb18789099466074e3b5c32ed17243a0000000000000000000000000000000000000000000000000000000000000080000000000000000000000000000000000000000000000000000000000000eeee000000000000000000000000584f5da53cb18789099466074e3b5c32ed17243a00000000000000000000000000000000000000000000000000000000000001a0000000000000000000000000000000000000000000000000000000000000008000000000000000000000000000000000000000000000000000000000000000c0000000000000000000000000000000000000000000000000000000000000010042414e4e595f3300000000000000000000000000000000000000000000000000000000000000000000000000000000000000000000000000000000000000000a42616e6e79766572736500000000000000000000000000000000000000000000000000000000000000000000000000000000000000000000000000000000000542414e4e5900000000000000000000000000000000000000000000000000000000000000000000000000000000000000000000000000000000000000000000000000000000000000000000000000000000000000000000000000000000000002000000000000000000000000000000000000000000000000000000000000004000000000000000000000000000000000000000000000000000000000000001a00000000000000000000000000000000000000000000000000000000065f9e31900000000000000000000000000000000000000000000000000000000000000e0000000000000000000000000000000000000000000000000000000000000138800000000000000000000000000000000000000000000d3c21bcecceda100000000000000000000000000000000000000000000000000000000000000000151800000000000000000000000000000000000000000000000000000000002faf08000000000000000000000000000000000000000000000000000000000000007d000000000000000000000000000000000000000000000000000000000000000010000000000000000000000000000000000000000000000000000000000000001000000000000000000000000000000000000000000422ca8b0a00a4250000000000000000000000000000000584f5da53cb18789099466074e3b5c32ed17243a00000000000000000000000000000000000000000000000000000000661ecd1900000000000000000000000000000000000000000000000000000000000000e0000000000000000000000000000000000000000000000000000000000000138800000000000000000000000000000000000000000000152d02c7e14af68000000000000000000000000000000000000000000000000000000000000000093a8000000000000000000000000000000000000000000000000000000000000096800000000000000000000000000000000000000000000000000000000000001388000000000000000000000000000000000000000000000000000000000000000000000000000000000000000000000000000000000000000000000000000000010000000000000000000000000000000000000000000000000000000000000020000000000000000000000000df75f3cdf0277633a1c8dcefc3f2538e0d42f99000000000000000000000000000000000000000000000000000000000000000400000000000000000000000000000000000000000000000000000000000000001000000000000000000000000000000000000000000000000000000000000eeee00000000000000000000000021e5b48b8c6985f664569e8bfaf738f90bc81c1100000000000000000000000000000000000000000000000000000000000000400000000000000000000000000000000000000000000000000000000000000001000000000000000000000000000000000000000000000000000000000000eeee0000000000000000000000000000000000000000000000000000000000002710000000000000000000000000000000000000000000000000000000000002a3000000000000000000000000000000000000000000000000000000000000002328000000000000000000000000000000000000000000000000000000000000004042414e4e595f330000000000000000000000000000000000000000000000000000000000000000000000000000000000000000000000000000000000000000010000000000000000000000000000000000000000000000000000000000000020000000000000000000000000d0e84fc9fb603c5ca3e7438623ffed6b6004b2b700000000000000000000000000000000000000000000000000000000000000400000000000000000000000000000000000000000000000000000000000000001000000000000000000000000000000000000000000000000000000000000eeee0000000000000000000000000000000000000000000000000000000000030d40000000000000000000000000000000000000000000000000000000000000eeee000000000000000000000000000000000000000000000000002386f26fc100000000000000000000000000000000000000000000000000000000000000000002000000000000000000000000000000000000000000000000000000000000004000000000000000000000000000000000000000000000000000000000000003600000000000000000000000000000000000000000000000000000000065f9e319000000000000000000000000000000000000000000000000000000000001518000000000000000000000000000000000000000000000d3c21bcecceda10000000000000000000000000000000000000000000000000000000000000002faf080000000000000000000000000000000000000000000000000000000000000000000000000000000000000000000000000000000000000000000000000000013880000000000000000000000000000000000000000000000000000000000001f40000000000000000000000000000000000000000000000000000000000000eeee00000000000000000000000000000000000000000000000000000000000000000000000000000000000000000000000000000000000000000000000000000000000000000000000000000000000000000000000000000000000000000000000100000000000000000000000000000000000000000000000000000000000000000000000000000000000000000000000000000000000000000000000000000000000000000000000000000000000000000000000000000000000000000000000000000000000000000000000000000000000000000000000000000000000000000000000000000000000000000000000000000000000000000000000000000000000000000000000000000000000000000000000000000000000000000000000000000000000000000000000000000000000000000000000000000000000000010000000000000000000000000000000000000000000000000000000000000000000000000000000000000000c0288b1a94b889f6c68821f14bf9f12220a89dff000000000000000000000000000000000000000000000000000000000000000000000000000000000000000000000000000000000000000000000000000002e000000000000000000000000000000000000000000000000000000000000003000000000000000000000000000000000000000000000000000000000000000000000000000000000000000000000000000000000000000000000000000000000000000000000000000000000000000000000000000000000000000000661ecd190000000000000000000000000000000000000000000000000000000000093a8000000000000000000000000000000000000000000000152d02c7e14af68000000000000000000000000000000000000000000000000000000000000000009680000000000000000000000000000000000000000000000000000000000000000000000000000000000000000000000000000000000000000000000000000013880000000000000000000000000000000000000000000000000000000000001388000000000000000000000000000000000000000000000000000000000000eeee00000000000000000000000000000000000000000000000000000000000000000000000000000000000000000000000000000000000000000000000000000000000000000000000000000000000000000000000000000000000000000000000100000000000000000000000000000000000000000000000000000000000000000000000000000000000000000000000000000000000000000000000000000000000000000000000000000000000000000000000000000000000000000000000000000000000000000000000000000000000000000000000000000000000000000000000000000000000000000000000000000000000000000000000000000000000000000000000000000000000000000000000000000000000000000000000000000000000000000000000000000000000000000000000000000000000000010000000000000000000000000000000000000000000000000000000000000000000000000000000000000000c0288b1a94b889f6c68821f14bf9f12220a89dff000000000000000000000000000000000000000000000000000000000000000000000000000000000000000000000000000000000000000000000000000002e000000000000000000000000000000000000000000000000000000000000003000000000000000000000000000000000000000000000000000000000000000000000000000000000000000000000000000000000000000000000000000000000000000000000000000000000000000000000000000000000000000000000002e0000000000000000000000000000000000000000000000000000000000000eeee000000000000000000000000000000000000000000000000000000000000008000000000000000000000000000000000000000000000000000000000000000c042414e4e595f3300000000000000000000000000000000000000000000000000000000000000000000000000000000000000000000000000000000000000000a42616e6e79766572736500000000000000000000000000000000000000000000000000000000000000000000000000000000000000000000000000000000000542414e4e590000000000000000000000000000000000000000000000000000000000000000000000000000000000000000000000000000000000000065f9e319000000000000000000000000000000000000000000000000000000000000138800000000000000000000000000000000000000000000d3c21bcecceda100000000000000000000000000000000000000000000000000000000000000000151800000000000000000000000000000000000000000000000000000000002faf08000000000000000000000000000000000000000000000000000000000000007d00000000000000000000000000000000000000000000000000000000000000001000000000000000000000000584f5da53cb18789099466074e3b5c32ed17243a000000000000000000000000000000000000000000422ca8b0a00a425000000000000000000000000000000000000000000000000000000000000000661ecd19000000000000000000000000000000000000000000000000000000000000138800000000000000000000000000000000000000000000152d02c7e14af68000000000000000000000000000000000000000000000000000000000000000093a8000000000000000000000000000000000000000000000000000000000000096800000000000000000000000000000000000000000000000000000000000001388",
						"index": 33,
						"topics": [
							"0xb00ad164380340ee6f18ec73024e25d390aa777602a69ede3c2da4d2b6cbc841",
							"0x0000000000000000000000000000000000000000000000000000000000000002"
						],
						"transactionHash": "0x054e32e1cfb422d1003737dcc605b75626648948a3d9a331b3dd26c2ebb6a38a",
						"transactionIndex": 9
					},
					{
						"address": "0xc0288B1a94B889F6C68821f14Bf9F12220A89DFF",
						"blockHash": "0x6fa05bbdcffe2f2d3a683ee04e319f559921606b458259cdb713955a93e62015",
						"blockNumber": 9456076,
						"data": "0x0000000000000000000000000000000000000000000000000000000000000040000000000000000000000000584f5da53cb18789099466074e3b5c32ed17243a000000000000000000000000000000000000000000000000000000000000000100000000000000000000000000000000000000000000000000000000000000200000000000000000000000009078ebcf358f18901d34ab0249d42030fae06786000000000000000000000000000000000000000000000000000000000000000000000000000000000000000000000000000000000000000000000000000000600000000000000000000000000000000000000000000000000000000000000000",
						"index": 34,
						"topics": [
							"0xdfaf2737f25eace49d372b472ec03f1df0f9814dfc69d2b95c5e92a041f42e29",
							"0x0000000000000000000000000000000000000000000000000000000000000002"
						],
						"transactionHash": "0x054e32e1cfb422d1003737dcc605b75626648948a3d9a331b3dd26c2ebb6a38a",
						"transactionIndex": 9
					},
					{
						"address": "0xEb088D0ff64c150eE1F1c355b61A0E841caDD2Ff",
						"blockHash": "0x6fa05bbdcffe2f2d3a683ee04e319f559921606b458259cdb713955a93e62015",
						"blockNumber": 9456076,
						"data": "0x0000000000000000000000000000000000000000000000000000000000000040000000000000000000000000c0288b1a94b889f6c68821f14bf9f12220a89dff000000000000000000000000000000000000000000000000000000000000000400000000000000000000000000000000000000000000000000000000000000800000000000000000000000000000000000000000000000000000000000000160000000000000000000000000000000000000000000000000000000000000024000000000000000000000000000000000000000000000000000000000000003200000000000000000000000009078ebcf358f18901d34ab0249d42030fae06786000000000000000000000000000000000000000000000000000000000000006400000000000000000000000000000000000000000000000000038d7ea4c680000000000000000000000000000000000000000000000000000000000000002710000000000000000000000000000000000000000000000000000000003b9ac9ff00000000000000000000000000000000000000000000000000000000000000c000000000000000000000000000000000000000000000000000000000000000000000000000000000000000009078ebcf358f18901d34ab0249d42030fae067860000000000000000000000000000000000000000000000000000000000000065000000000000000000000000000000000000000000000000016345785d8a00000000000000000000000000000000000000000000000000000000000000000064000000000000000000000000000000000000000000000000000000003b9ac9ff00000000000000000000000000000000000000000000000000000000000000c000000000000000000000000000000000000000000000000000000000000000000000000000000000000000009078ebcf358f18901d34ab0249d42030fae0678600000000000000000000000000000000000000000000000000000000000000660000000000000000000000000000000000000000000000000de0b6b3a7640000000000000000000000000000000000000000000000000000000000000000000a000000000000000000000000000000000000000000000000000000003b9ac9ff00000000000000000000000000000000000000000000000000000000000000c000000000000000000000000000000000000000000000000000000000000000000000000000000000000000009078ebcf358f18901d34ab0249d42030fae0678600000000000000000000000000000000000000000000000000000000000000670000000000000000000000000000000000000000000000056bc75e2d63100000000000000000000000000000000000000000000000000000000000000000000a000000000000000000000000000000000000000000000000000000003b9ac9ff00000000000000000000000000000000000000000000000000000000000000c00000000000000000000000000000000000000000000000000000000000000000",
						"index": 35,
						"topics": [
							"0x721f1fc2dbea25cab88bdd50f9b47aff50f4b8c43ea6ea02b3587c82b940ad41",
							"0x0000000000000000000000000000000000000000000000000000000000000002"
						],
						"transactionHash": "0x054e32e1cfb422d1003737dcc605b75626648948a3d9a331b3dd26c2ebb6a38a",
						"transactionIndex": 9
					},
					{
						"address": "0x6B8340b759d72E08b3fb674B48547E80631007cb",
						"blockHash": "0x6fa05bbdcffe2f2d3a683ee04e319f559921606b458259cdb713955a93e62015",
						"blockNumber": 9456076,
						"data": "0x00000000000000000000000000000000000000000000000000000000000000600000000000000000000000000000000000000000000000000000000000200000000000000000000000000000c0288b1a94b889f6c68821f14bf9f12220a89dff00000000000000000000000000000000000000000000000000000000000000010000000000000000000000000000000000000000000000000000000000000015",
						"index": 36,
						"topics": [
							"0xf8cdf10a0ce6189c6d069e97320ef146e2bcbd32d6c0b86dcbfbf3bd8578fa70",
							"0x000000000000000000000000eb088d0ff64c150ee1f1c355b61a0e841cadd2ff",
							"0x000000000000000000000000c0288b1a94b889f6c68821f14bf9f12220a89dff",
							"0x0000000000000000000000000000000000000000000000000000000000000002"
						],
						"transactionHash": "0x054e32e1cfb422d1003737dcc605b75626648948a3d9a331b3dd26c2ebb6a38a",
						"transactionIndex": 9
					},
					{
						"address": "0x584F5Da53cb18789099466074e3B5c32Ed17243a",
						"blockHash": "0x6fa05bbdcffe2f2d3a683ee04e319f559921606b458259cdb713955a93e62015",
						"blockNumber": 9456076,
						"data": "0x",
						"index": 37,
						"topics": [
							"0x6895c13664aa4f67288b25d7a21d7aaa34916e355fb9b6fae0a139a9085becb8",
							"0x000000000000000000000000183b35e76a7bc60298dcb637515f50e4def9b68b"
						],
						"transactionHash": "0x054e32e1cfb422d1003737dcc605b75626648948a3d9a331b3dd26c2ebb6a38a",
						"transactionIndex": 9
					},
					{
						"address": "0x183b35E76A7BC60298DCb637515F50e4DeF9b68b",
						"blockHash": "0x6fa05bbdcffe2f2d3a683ee04e319f559921606b458259cdb713955a93e62015",
						"blockNumber": 9456076,
						"data": "0x0000000000000000000000000000000000000000000000000000000000000002",
						"index": 38,
						"topics": [
							"0xa65fb05c5808f5f389d72edeaf719ce38f4cc55c1f69ca3cbfb31c21501caa07",
							"0x39d1801f5a46845a7c5bc2af1f9b00c0a0d0b5735b3b957fab5ea2b56d97c5cb"
						],
						"transactionHash": "0x054e32e1cfb422d1003737dcc605b75626648948a3d9a331b3dd26c2ebb6a38a",
						"transactionIndex": 9
					},
					{
						"address": "0x183b35E76A7BC60298DCb637515F50e4DeF9b68b",
						"blockHash": "0x6fa05bbdcffe2f2d3a683ee04e319f559921606b458259cdb713955a93e62015",
						"blockNumber": 9456076,
						"data": "0x",
						"index": 39,
						"topics": [
							"0x4383d976757d67ca920616be0b6430a681ea9d3dcce8d6d61d4603ca4a9bff63",
							"0x39d1801f5a46845a7c5bc2af1f9b00c0a0d0b5735b3b957fab5ea2b56d97c5cb"
						],
						"transactionHash": "0x054e32e1cfb422d1003737dcc605b75626648948a3d9a331b3dd26c2ebb6a38a",
						"transactionIndex": 9
					}
				],
				"logsBloom": "0x044000002800100002200002002a020200008000400c0240009110020140000101001100004406400402012014480404480040800040000000200000000400000000201000202000000001080000000800010801000c08020010800100800010000020400200000080000020400008000808300000000000404200120000004080008000104041110001800000000000000220082404100040000041200a02000040108200140000000005000000020282000040080800620002200140042200800010020008840000a0100048000800031000000400099040200080110260000000000029800008010400000020000380809002008200008040100008008000",
				"status": 1,
				"to": "0xB5E96127D417b1B3ef8438496a38A143167209c7"
			},
			"metadata": "{\"compiler\":{\"version\":\"0.8.23+commit.f704f362\"},\"language\":\"Solidity\",\"output\":{\"abi\":[{\"inputs\":[{\"internalType\":\"address\",\"name\":\"owner\",\"type\":\"address\"},{\"internalType\":\"address\",\"name\":\"trustedForwarder\",\"type\":\"address\"}],\"stateMutability\":\"nonpayable\",\"type\":\"constructor\"},{\"inputs\":[],\"type\":\"error\",\"name\":\"ASSET_IS_ALREADY_BEING_WORN\"},{\"inputs\":[],\"type\":\"error\",\"name\":\"CONTENTS_ALREADY_STORED\"},{\"inputs\":[],\"type\":\"error\",\"name\":\"CONTENTS_MISMATCH\"},{\"inputs\":[],\"type\":\"error\",\"name\":\"HASH_ALREADY_STORED\"},{\"inputs\":[],\"type\":\"error\",\"name\":\"HASH_NOT_FOUND\"},{\"inputs\":[],\"type\":\"error\",\"name\":\"HEAD_ALREADY_ADDED\"},{\"inputs\":[{\"internalType\":\"address\",\"name\":\"owner\",\"type\":\"address\"}],\"type\":\"error\",\"name\":\"OwnableInvalidOwner\"},{\"inputs\":[{\"internalType\":\"address\",\"name\":\"account\",\"type\":\"address\"}],\"type\":\"error\",\"name\":\"OwnableUnauthorizedAccount\"},{\"inputs\":[],\"type\":\"error\",\"name\":\"SUIT_ALREADY_ADDED\"},{\"inputs\":[],\"type\":\"error\",\"name\":\"UNAUTHORIZED_NAKED_BANNY\"},{\"inputs\":[],\"type\":\"error\",\"name\":\"UNAUTHORIZED_OUTFIT\"},{\"inputs\":[],\"type\":\"error\",\"name\":\"UNAUTHORIZED_WORLD\"},{\"inputs\":[],\"type\":\"error\",\"name\":\"UNORDERED_CATEGORIES\"},{\"inputs\":[],\"type\":\"error\",\"name\":\"UNRECOGNIZED_CATEGORY\"},{\"inputs\":[],\"type\":\"error\",\"name\":\"UNRECOGNIZED_OUTFIT\"},{\"inputs\":[],\"type\":\"error\",\"name\":\"UNRECOGNIZED_PRODUCT\"},{\"inputs\":[],\"type\":\"error\",\"name\":\"UNRECOGNIZED_WORLD\"},{\"inputs\":[{\"internalType\":\"address\",\"name\":\"hook\",\"type\":\"address\",\"indexed\":true},{\"internalType\":\"uint256\",\"name\":\"nakedBannyId\",\"type\":\"uint256\",\"indexed\":true},{\"internalType\":\"uint256\",\"name\":\"worldId\",\"type\":\"uint256\",\"indexed\":false},{\"internalType\":\"uint256[]\",\"name\":\"outfitIds\",\"type\":\"uint256[]\",\"indexed\":false},{\"internalType\":\"address\",\"name\":\"caller\",\"type\":\"address\",\"indexed\":false}],\"type\":\"event\",\"name\":\"DecorateBanny\",\"anonymous\":false},{\"inputs\":[{\"internalType\":\"address\",\"name\":\"previousOwner\",\"type\":\"address\",\"indexed\":true},{\"internalType\":\"address\",\"name\":\"newOwner\",\"type\":\"address\",\"indexed\":true}],\"type\":\"event\",\"name\":\"OwnershipTransferred\",\"anonymous\":false},{\"inputs\":[{\"internalType\":\"uint256\",\"name\":\"upc\",\"type\":\"uint256\",\"indexed\":true},{\"internalType\":\"string\",\"name\":\"name\",\"type\":\"string\",\"indexed\":false},{\"internalType\":\"address\",\"name\":\"caller\",\"type\":\"address\",\"indexed\":false}],\"type\":\"event\",\"name\":\"SetProductName\",\"anonymous\":false},{\"inputs\":[{\"internalType\":\"string\",\"name\":\"baseUri\",\"type\":\"string\",\"indexed\":false},{\"internalType\":\"address\",\"name\":\"caller\",\"type\":\"address\",\"indexed\":false}],\"type\":\"event\",\"name\":\"SetSvgBaseUri\",\"anonymous\":false},{\"inputs\":[{\"internalType\":\"uint256\",\"name\":\"upc\",\"type\":\"uint256\",\"indexed\":true},{\"internalType\":\"string\",\"name\":\"svgContent\",\"type\":\"string\",\"indexed\":false},{\"internalType\":\"address\",\"name\":\"caller\",\"type\":\"address\",\"indexed\":false}],\"type\":\"event\",\"name\":\"SetSvgContent\",\"anonymous\":false},{\"inputs\":[{\"internalType\":\"uint256\",\"name\":\"upc\",\"type\":\"uint256\",\"indexed\":true},{\"internalType\":\"bytes32\",\"name\":\"svgHash\",\"type\":\"bytes32\",\"indexed\":true},{\"internalType\":\"address\",\"name\":\"caller\",\"type\":\"address\",\"indexed\":false}],\"type\":\"event\",\"name\":\"SetSvgHash\",\"anonymous\":false},{\"inputs\":[{\"internalType\":\"uint256\",\"name\":\"nakedBannyId\",\"type\":\"uint256\"}],\"stateMutability\":\"view\",\"type\":\"function\",\"name\":\"assetIdsOf\",\"outputs\":[{\"internalType\":\"uint256\",\"name\":\"worldId\",\"type\":\"uint256\"},{\"internalType\":\"uint256[]\",\"name\":\"outfitIds\",\"type\":\"uint256[]\"}]},{\"inputs\":[{\"internalType\":\"address\",\"name\":\"hook\",\"type\":\"address\"},{\"internalType\":\"uint256\",\"name\":\"nakedBannyId\",\"type\":\"uint256\"},{\"internalType\":\"uint256\",\"name\":\"worldId\",\"type\":\"uint256\"},{\"internalType\":\"uint256[]\",\"name\":\"outfitIds\",\"type\":\"uint256[]\"}],\"stateMutability\":\"nonpayable\",\"type\":\"function\",\"name\":\"decorateBannyWith\"},{\"inputs\":[{\"internalType\":\"address\",\"name\":\"forwarder\",\"type\":\"address\"}],\"stateMutability\":\"view\",\"type\":\"function\",\"name\":\"isTrustedForwarder\",\"outputs\":[{\"internalType\":\"bool\",\"name\":\"\",\"type\":\"bool\"}]},{\"inputs\":[{\"internalType\":\"address\",\"name\":\"hook\",\"type\":\"address\"},{\"internalType\":\"uint256\",\"name\":\"tokenId\",\"type\":\"uint256\"}],\"stateMutability\":\"view\",\"type\":\"function\",\"name\":\"namesOf\",\"outputs\":[{\"internalType\":\"string\",\"name\":\"\",\"type\":\"string\"},{\"internalType\":\"string\",\"name\":\"\",\"type\":\"string\"},{\"internalType\":\"string\",\"name\":\"\",\"type\":\"string\"}]},{\"inputs\":[],\"stateMutability\":\"view\",\"type\":\"function\",\"name\":\"owner\",\"outputs\":[{\"internalType\":\"address\",\"name\":\"\",\"type\":\"address\"}]},{\"inputs\":[],\"stateMutability\":\"nonpayable\",\"type\":\"function\",\"name\":\"renounceOwnership\"},{\"inputs\":[{\"internalType\":\"uint256[]\",\"name\":\"upcs\",\"type\":\"uint256[]\"},{\"internalType\":\"string[]\",\"name\":\"names\",\"type\":\"string[]\"}],\"stateMutability\":\"nonpayable\",\"type\":\"function\",\"name\":\"setProductNames\"},{\"inputs\":[{\"internalType\":\"string\",\"name\":\"baseUri\",\"type\":\"string\"}],\"stateMutability\":\"nonpayable\",\"type\":\"function\",\"name\":\"setSvgBaseUri\"},{\"inputs\":[{\"internalType\":\"uint256[]\",\"name\":\"upcs\",\"type\":\"uint256[]\"},{\"internalType\":\"string[]\",\"name\":\"svgContents\",\"type\":\"string[]\"}],\"stateMutability\":\"nonpayable\",\"type\":\"function\",\"name\":\"setSvgContentsOf\"},{\"inputs\":[{\"internalType\":\"uint256[]\",\"name\":\"upcs\",\"type\":\"uint256[]\"},{\"internalType\":\"bytes32[]\",\"name\":\"svgHashs\",\"type\":\"bytes32[]\"}],\"stateMutability\":\"nonpayable\",\"type\":\"function\",\"name\":\"setSvgHashsOf\"},{\"inputs\":[],\"stateMutability\":\"view\",\"type\":\"function\",\"name\":\"svgBaseUri\",\"outputs\":[{\"internalType\":\"string\",\"name\":\"\",\"type\":\"string\"}]},{\"inputs\":[{\"internalType\":\"uint256\",\"name\":\"upc\",\"type\":\"uint256\"}],\"stateMutability\":\"view\",\"type\":\"function\",\"name\":\"svgHashOf\",\"outputs\":[{\"internalType\":\"bytes32\",\"name\":\"\",\"type\":\"bytes32\"}]},{\"inputs\":[{\"internalType\":\"address\",\"name\":\"hook\",\"type\":\"address\"},{\"internalType\":\"uint256\",\"name\":\"tokenId\",\"type\":\"uint256\"},{\"internalType\":\"bool\",\"name\":\"shouldDressNakedBanny\",\"type\":\"bool\"},{\"internalType\":\"bool\",\"name\":\"shouldIncludeWorldOnNakedBanny\",\"type\":\"bool\"}],\"stateMutability\":\"view\",\"type\":\"function\",\"name\":\"svgOf\",\"outputs\":[{\"internalType\":\"string\",\"name\":\"\",\"type\":\"string\"}]},{\"inputs\":[{\"internalType\":\"address\",\"name\":\"hook\",\"type\":\"address\"},{\"internalType\":\"uint256\",\"name\":\"tokenId\",\"type\":\"uint256\"}],\"stateMutability\":\"view\",\"type\":\"function\",\"name\":\"tokenUriOf\",\"outputs\":[{\"internalType\":\"string\",\"name\":\"\",\"type\":\"string\"}]},{\"inputs\":[{\"internalType\":\"address\",\"name\":\"newOwner\",\"type\":\"address\"}],\"stateMutability\":\"nonpayable\",\"type\":\"function\",\"name\":\"transferOwnership\"},{\"inputs\":[],\"stateMutability\":\"view\",\"type\":\"function\",\"name\":\"trustedForwarder\",\"outputs\":[{\"internalType\":\"address\",\"name\":\"\",\"type\":\"address\"}]},{\"inputs\":[{\"internalType\":\"uint256\",\"name\":\"worldId\",\"type\":\"uint256\"}],\"stateMutability\":\"view\",\"type\":\"function\",\"name\":\"userOf\",\"outputs\":[{\"internalType\":\"uint256\",\"name\":\"\",\"type\":\"uint256\"}]},{\"inputs\":[{\"internalType\":\"uint256\",\"name\":\"outfitId\",\"type\":\"uint256\"}],\"stateMutability\":\"view\",\"type\":\"function\",\"name\":\"wearerOf\",\"outputs\":[{\"internalType\":\"uint256\",\"name\":\"\",\"type\":\"uint256\"}]}],\"devdoc\":{\"kind\":\"dev\",\"methods\":{\"assetIdsOf(uint256)\":{\"params\":{\"nakedBannyId\":\"The ID of the naked banny shows with the associated assets.\"},\"returns\":{\"outfitIds\":\"The outfits attached to the Naked Banny.\",\"worldId\":\"The world attached to the Naked Banny.\"}},\"constructor\":{\"params\":{\"owner\":\"The owner allowed to add SVG files that correspond to product IDs.\",\"trustedForwarder\":\"The trusted forwarder for the ERC2771Context.\"}},\"decorateBannyWith(address,uint256,uint256,uint256[])\":{\"details\":\"The caller must own the naked banny being dressed and all outfits being worn.\",\"params\":{\"hook\":\"The hook storing the assets.\",\"nakedBannyId\":\"The ID of the Naked Banny being dressed.\",\"outfitIds\":\"The IDs of the outfits that'll be associated with the specified banny. Only one outfit per outfit category allowed at a time and they must be passed in order.\",\"worldId\":\"The ID of the world that'll be associated with the specified banny.\"}},\"isTrustedForwarder(address)\":{\"details\":\"Indicates whether any particular address is the trusted forwarder.\"},\"namesOf(address,uint256)\":{\"params\":{\"hook\":\"The hook storing the assets.\",\"tokenId\":\"The ID of the token to show.\"},\"returns\":{\"_0\":\"fullName The full name of the token.\",\"_1\":\"categoryName The name of the token's category.\",\"_2\":\"productName The name of the token's product.\"}},\"owner()\":{\"details\":\"Returns the address of the current owner.\"},\"renounceOwnership()\":{\"details\":\"Leaves the contract without owner. It will not be possible to call `onlyOwner` functions. Can only be called by the current owner. NOTE: Renouncing ownership will leave the contract without an owner, thereby disabling any functionality that is only available to the owner.\"},\"setProductNames(uint256[],string[])\":{\"params\":{\"names\":\"The names of the products.\",\"upcs\":\"The universal product codes of the products having their name stored.\"}},\"setSvgContentsOf(uint256[],string[])\":{\"params\":{\"svgContents\":\"The svg contents being stored, not including the parent <svg></svg> element.\",\"upcs\":\"The universal product codes of the products having SVGs stored.\"}},\"setSvgHashsOf(uint256[],bytes32[])\":{\"details\":\"This allows anyone to lazily upload the correct svg file.\",\"params\":{\"svgHashs\":\"The svg hashes being stored, not including the parent <svg></svg> element.\",\"upcs\":\"The universal product codes of the products having SVG hashes stored.\"}},\"svgOf(address,uint256,bool,bool)\":{\"params\":{\"hook\":\"The hook storing the assets.\",\"shouldDressNakedBanny\":\"Whether the naked banny should be dressed.\",\"shouldIncludeWorldOnNakedBanny\":\"Whether the world should be included on the naked banny.\",\"tokenId\":\"The ID of the token to show. If the ID belongs to a Naked Banny, it will be shown with its current outfits in its current world if specified.\"},\"returns\":{\"_0\":\"svg The SVG.\"}},\"tokenUriOf(address,uint256)\":{\"params\":{\"tokenId\":\"The ID of the token to show. If the ID belongs to a Naked Banny, it will be shown with its current outfits in its current world.\"},\"returns\":{\"_0\":\"tokenUri The URI representing the SVG.\"}},\"transferOwnership(address)\":{\"details\":\"Transfers ownership of the contract to a new account (`newOwner`). Can only be called by the current owner.\"},\"trustedForwarder()\":{\"details\":\"Returns the address of the trusted forwarder.\"},\"userOf(uint256)\":{\"params\":{\"worldId\":\"The ID of the world being used.\"},\"returns\":{\"_0\":\"The ID of the naked banny using the world.\"}},\"wearerOf(uint256)\":{\"params\":{\"outfitId\":\"The ID of the outfit being worn.\"},\"returns\":{\"_0\":\"The ID of the naked banny wearing the outfit.\"}}},\"version\":1},\"userdoc\":{\"kind\":\"user\",\"methods\":{\"assetIdsOf(uint256)\":{\"notice\":\"The assets currently attached to each Naked Banny, owned by the naked Banny's owner.\"},\"decorateBannyWith(address,uint256,uint256,uint256[])\":{\"notice\":\"Dress your Naked Banny with outfits.\"},\"namesOf(address,uint256)\":{\"notice\":\"Returns the name of the token.\"},\"setProductNames(uint256[],string[])\":{\"notice\":\"Allows the owner to set the product's name.\"},\"setSvgBaseUri(string)\":{\"notice\":\"Allows the owner of this contract to specify the base of the domain hosting the SVG files.\"},\"setSvgContentsOf(uint256[],string[])\":{\"notice\":\"The owner of this contract can store SVG files for product IDs.\"},\"setSvgHashsOf(uint256[],bytes32[])\":{\"notice\":\"Allows the owner of this contract to upload the hash of an svg file for a universal product code.\"},\"svgBaseUri()\":{\"notice\":\"The base of the domain hosting the SVG files that can be lazily uploaded to the contract.\"},\"svgHashOf(uint256)\":{\"notice\":\"The Naked Banny and outfit SVG hash files.\"},\"svgOf(address,uint256,bool,bool)\":{\"notice\":\"Returns the SVG showing either a naked banny with/without outfits and a world, or the stand alone outfit or world.\"},\"tokenUriOf(address,uint256)\":{\"notice\":\"Returns the SVG showing a dressed Naked Banny in a world.\"},\"userOf(uint256)\":{\"notice\":\"Checks to see which naked banny is currently using a particular world.\"},\"wearerOf(uint256)\":{\"notice\":\"Checks to see which naked banny is currently wearing a particular outfit.\"}},\"version\":1}},\"settings\":{\"remappings\":[\"@arbitrum/=node_modules/@arbitrum/\",\"@bananapus/=node_modules/@bananapus/\",\"@chainlink/=node_modules/@chainlink/\",\"@croptop/=node_modules/@croptop/\",\"@eth-optimism/=node_modules/@eth-optimism/\",\"@exhausted-pigeon/=node_modules/@exhausted-pigeon/\",\"@offchainlabs/=node_modules/@offchainlabs/\",\"@openzeppelin/=node_modules/@openzeppelin/\",\"@prb/=node_modules/@prb/\",\"@rev-net/=node_modules/@rev-net/\",\"@scroll-tech/=node_modules/@scroll-tech/\",\"@sphinx-labs/contracts/=node_modules/@sphinx-labs/contracts/contracts/foundry/\",\"@uniswap/=node_modules/@uniswap/\",\"base64-sol/=node_modules/base64-sol/\",\"base64/=lib/base64/\",\"ds-test/=lib/forge-std/lib/ds-test/src/\",\"forge-std/=lib/forge-std/src/\",\"hardhat/=node_modules/hardhat/\",\"solmate/=node_modules/solmate/\",\"sphinx/=lib/sphinx/packages/contracts/contracts/forge-std/src/\"],\"optimizer\":{\"enabled\":true,\"runs\":200},\"metadata\":{\"bytecodeHash\":\"ipfs\"},\"compilationTarget\":{\"src/Banny721TokenUriResolver.sol\":\"Banny721TokenUriResolver\"},\"evmVersion\":\"paris\",\"libraries\":{},\"viaIR\":true},\"sources\":{\"lib/base64/base64.sol\":{\"keccak256\":\"0xa73959e6ef0b693e4423a562e612370160b934a75e618361ddd8c9c4b8ddbaaf\",\"urls\":[\"bzz-raw://17c12e16d8d66f3af15d8787920bd41ca6c1e7517a212a6b9cebd4b6d38f36fe\",\"dweb:/ipfs/QmcXMnZUXEz6LRKsm3CSvqdPboAzmezavi8bTg2dRxM2yE\"],\"license\":\"MIT\"},\"node_modules/@bananapus/721-hook/src/abstract/ERC721.sol\":{\"keccak256\":\"0xc25c7c60c88684adc3f7a49621d27866866a44a3f3796e63c9fcaba75fbb2e84\",\"urls\":[\"bzz-raw://713103b7a05402264493430cfcd7d85f1a241a2eb4756af53a370fa529ea07bf\",\"dweb:/ipfs/QmSXZfxCG1N9XheS1kLCNJZ9k6ZRq4GnAMY7MKFfbKLXmz\"],\"license\":\"MIT\"},\"node_modules/@bananapus/721-hook/src/interfaces/IJB721Hook.sol\":{\"keccak256\":\"0x24935445bc4c5b0fe2a10aabe549122588940842a68e79a8c39b1df9458dd7fd\",\"urls\":[\"bzz-raw://1dee273fa76d9abae116de911fdda5e3113db2a58939e62e24fba98c63fd037a\",\"dweb:/ipfs/QmT6Lih7DeRAfrLc8uC7ecaw2EAKwhaP2BZHeY5DxeeVLM\"],\"license\":\"MIT\"},\"node_modules/@bananapus/721-hook/src/interfaces/IJB721TiersHook.sol\":{\"keccak256\":\"0xbd9a8dae00a4b1a02c628bd172fe4ae496e49f7651426cef08774ffdb6125c23\",\"urls\":[\"bzz-raw://9ce4fd77d5af1f570dad6b70758f09f9599768e1ab32f6b473f6181197daa0c8\",\"dweb:/ipfs/QmWj6sCTvZ2CbfSyRuhaXADxYbwwPcR42pZokcgfjpsabg\"],\"license\":\"MIT\"},\"node_modules/@bananapus/721-hook/src/interfaces/IJB721TiersHookStore.sol\":{\"keccak256\":\"0x8550e216c12c9cda865c1b1b0eb3f244aeaa8d465b197d4bd0dd8d4df265682e\",\"urls\":[\"bzz-raw://674a312f1eaffd7c6b21f58f8d4a628104e71220daf48a22237fa3bd035ddf21\",\"dweb:/ipfs/QmSRSW6cSwdpoGjVxDqiwJmJyCxfHWhCxZ2iaqeJcN2Ccy\"],\"license\":\"MIT\"},\"node_modules/@bananapus/721-hook/src/interfaces/IJB721TokenUriResolver.sol\":{\"keccak256\":\"0xfa599167098f4459320ec4141a98a17b2dfffbce422baa27d8b4e4530f61ece1\",\"urls\":[\"bzz-raw://8b758b161f4c7b520b2c34b4d91e585e961b8f4ca278eebb91d791f7f2f45140\",\"dweb:/ipfs/QmcD9DF7NJ9QykQpT4KPzm4bs3fkjzukdAUWwdU6Atfw85\"],\"license\":\"MIT\"},\"node_modules/@bananapus/721-hook/src/libraries/JBIpfsDecoder.sol\":{\"keccak256\":\"0xb93ba562ac1fc9d3829be00e61f3a90f51df5661cf0f2c819a7f1d8ba19ec171\",\"urls\":[\"bzz-raw://fc9bc948fac8897d9720ef25b13d63c60b40a18aa1897dd1c657fc278c416b4f\",\"dweb:/ipfs/QmNtiJTALZW5zfyKVy7XG5GkqGgMrfkVvU4Auu4bb9cGQc\"],\"license\":\"MIT\"},\"node_modules/@bananapus/721-hook/src/structs/JB721InitTiersConfig.sol\":{\"keccak256\":\"0xfb78486cec94189d0ecf2050dc9cfc11245b426c73a0711a85bff1359d774307\",\"urls\":[\"bzz-raw://a8fa01f6e64dd204dbde07a60851e9a5a74e439e1411139ae16b7cf67d2a2692\",\"dweb:/ipfs/QmZAnHyfpKr3xr7NWHj5sGaCEEtG8RtmHhkRUJJvNauym5\"],\"license\":\"MIT\"},\"node_modules/@bananapus/721-hook/src/structs/JB721Tier.sol\":{\"keccak256\":\"0x2e267a8af02f125465cdda9308477346ae4a94b024c3b2c2a6af0c00027944dd\",\"urls\":[\"bzz-raw://367ccea2c8fa815d498d771d4367ef1ded718a76e89644102034bfe4a3636b82\",\"dweb:/ipfs/QmYiFFa6ei9wZBSSVUHfY2Cb35zCDVXvbmLcgLj2BTiC1u\"],\"license\":\"MIT\"},\"node_modules/@bananapus/721-hook/src/structs/JB721TierConfig.sol\":{\"keccak256\":\"0x2fa9c5c8cec182b854a656d3b284e9d5306be35ad3dc4da79d65dca12b804af0\",\"urls\":[\"bzz-raw://b443a5f70195a66145ea1dade04454ce9a3ff1209e1aaecf53c8a9909b294d79\",\"dweb:/ipfs/QmUDPFZ4L6XpV3zLQUNVchUvecD4XfddKz2S46BKek5XL1\"],\"license\":\"MIT\"},\"node_modules/@bananapus/721-hook/src/structs/JB721TiersHookFlags.sol\":{\"keccak256\":\"0x283d8429f31bd58875c056515aa42abd09c95362bd929e85cfc44a0d92585766\",\"urls\":[\"bzz-raw://9a580b89fe99d9f8e930c58a4d0d63a5ff7c01c79d210af01373d066c9e72ed6\",\"dweb:/ipfs/QmdY1eSGSoTjv4KSdsG4Tm5CzJN6iqk3qTRga5ZWNbejRz\"],\"license\":\"MIT\"},\"node_modules/@bananapus/721-hook/src/structs/JB721TiersMintReservesConfig.sol\":{\"keccak256\":\"0xab3b319dc4e736586ae595de194d93dcdfeba365bc7a54cf6c37e697f6074ad9\",\"urls\":[\"bzz-raw://a84ae2cf2e8c3e39e831dbb39a67a8eb43c78a6de6bb78b1be2e1f1e80c69efe\",\"dweb:/ipfs/QmboGXEMqsYTxc4a7oft9rggNU7ShWSa9yB4HFMVmzXCHz\"],\"license\":\"MIT\"},\"node_modules/@bananapus/core/src/enums/JBApprovalStatus.sol\":{\"keccak256\":\"0x61c69b6bac7d24b566d87cda23a77e4ca9cdb87200b106aba8534cb9a0973e33\",\"urls\":[\"bzz-raw://6a9ca7249de76f77a8252eefe6bd1b63d47952f25a2acfa2c8db967cdff4470c\",\"dweb:/ipfs/QmaxSxptRQNj8bNy96EreENmrnRWdKmhyihBcxyWzBX5BN\"],\"license\":\"MIT\"},\"node_modules/@bananapus/core/src/interfaces/IJBDirectory.sol\":{\"keccak256\":\"0x9cc380844aef60078ee47a61861e55a29c4a8c947efd556ebd36e6909f7b9d62\",\"urls\":[\"bzz-raw://9f5190ec8b6683d9781ee6e9eedcc91294753242748875d4a06349077e4cbaaf\",\"dweb:/ipfs/QmTQrPuXT9TCA4txwrperMeXSGvGxP8iokUK47f62F388i\"],\"license\":\"MIT\"},\"node_modules/@bananapus/core/src/interfaces/IJBPayHook.sol\":{\"keccak256\":\"0x9438866782c652c2942f4d114e35f393cd3c8b0334abce8387eed90bca35e8b2\",\"urls\":[\"bzz-raw://cfd99daf57213f92325aad7d7d16e98476d38e870470e95ba01e3ae3cdecc95d\",\"dweb:/ipfs/QmUKKAVGf7ki8BHksr99tFcRW8APveeB5tNH63ctTbbCW8\"],\"license\":\"MIT\"},\"node_modules/@bananapus/core/src/interfaces/IJBPriceFeed.sol\":{\"keccak256\":\"0x4bd84c0f1a5d4729ed709bcddd43f4c50ec4a165ece79780af8dce482ed07d4a\",\"urls\":[\"bzz-raw://62bac4bfb6982fb002f620c77e5c445e62d50241a5aa64a07e51d929f5a42180\",\"dweb:/ipfs/QmWgJUDreVY2BuMX38a1iUUR5kNbMwGnKG3VvurB7oZtuM\"],\"license\":\"MIT\"},\"node_modules/@bananapus/core/src/interfaces/IJBPrices.sol\":{\"keccak256\":\"0x99525f31440b955742dce84ba57de9fc1221139b5367c1f834723bef9e13e6e1\",\"urls\":[\"bzz-raw://6fa03f0cd4ad87dd7cbae7bf7f54463450874291773c8f70f2c31ef2cae62bb0\",\"dweb:/ipfs/QmSPajPV5ismteJuB6Spzm9VmhTj2iS3eVrfpJC1Zuzg8n\"],\"license\":\"MIT\"},\"node_modules/@bananapus/core/src/interfaces/IJBProjects.sol\":{\"keccak256\":\"0x735c2fb8f1fa827f054ee77f7a0ae4b312656217acb75b624d2c8fd9dc40151b\",\"urls\":[\"bzz-raw://ee7fc92299a8633a80693ae63ab494dcd125f1789487a54a39dc0e5696e5996f\",\"dweb:/ipfs/QmX7YJD4pS2XhgQb7p3JbBAXynT7YGPXcZe92BiWWRrsCL\"],\"license\":\"MIT\"},\"node_modules/@bananapus/core/src/interfaces/IJBRulesetApprovalHook.sol\":{\"keccak256\":\"0x592e95d159494421c6b1bcb362d0cee1df0132921697351304e9cd7af4fbd386\",\"urls\":[\"bzz-raw://5bebfd5fa67c1b6ea16fa2e76e9520e9dfe52a579f48dd94d0c2ec45f78ad178\",\"dweb:/ipfs/QmRUawEGtfYoYSHmHELGhvJoWuMsxLPKtqAXgsrb7fJboP\"],\"license\":\"MIT\"},\"node_modules/@bananapus/core/src/interfaces/IJBRulesets.sol\":{\"keccak256\":\"0xd3f817d22ecbe24da63c552c069bf0c4fbbf3bcd5c3b5633002afd24aacf6882\",\"urls\":[\"bzz-raw://c1185aec0f6b6f0f4d93ffeeed0972ccf38420b00fe570b5e1838ed2b1f5db49\",\"dweb:/ipfs/QmWz36azGTFnjFXpFSh6BHt4nactgjtF64L3PeTqs4ZqSR\"],\"license\":\"MIT\"},\"node_modules/@bananapus/core/src/interfaces/IJBTerminal.sol\":{\"keccak256\":\"0x19dc9bf8cbdc8f13ee5da9dc3a87047eacb94a3fc19740a286c1f0bad2cc39ca\",\"urls\":[\"bzz-raw://0b05ae6fda9a85672508232fd992b8a5f5ffd8096622eeb12c8a7b3317eb3867\",\"dweb:/ipfs/QmNh9Quj37BXYGdTdcCD1Q58PchRsE5TLbEZep56qS3MpV\"],\"license\":\"MIT\"},\"node_modules/@bananapus/core/src/interfaces/IJBTokenUriResolver.sol\":{\"keccak256\":\"0xfa5cb00dcd6085d1ef912d071fe73c63f9478a2cd0f9d8bddaf659b6af2d0967\",\"urls\":[\"bzz-raw://282e4e7c342d65f77cde0e9a08fcaf20ef5cf379c7a48b639842c0ffd0b2afb8\",\"dweb:/ipfs/QmbnN3PEQeZaXdPLT75V1J79kMg7KqSMru37RHrL3z8Yf2\"],\"license\":\"MIT\"},\"node_modules/@bananapus/core/src/structs/JBAccountingContext.sol\":{\"keccak256\":\"0x2907ff54d1e903cc7e0390dd88c3975884702dc2673642aacbe22b66560b56de\",\"urls\":[\"bzz-raw://a66a5381ce877b32f0e0058ceeaf843e9b6b2bc8af666c0c9f4a9d01091da004\",\"dweb:/ipfs/QmQynCetUr37dBkS1YwDS8evxuXGiqanW6THmeUxXtim8w\"],\"license\":\"MIT\"},\"node_modules/@bananapus/core/src/structs/JBAfterPayRecordedContext.sol\":{\"keccak256\":\"0xd26c3a774ff38be79064085970454fe2603a23a638c76270d5b1b3829206c3e8\",\"urls\":[\"bzz-raw://3b55dbe3bf1ef625b7ca04efab3de35406e6041d5b3d82c7265469c500e2b702\",\"dweb:/ipfs/QmUdBDo4Lt3mcsFcsXT2mqq3czFwZjQJFPLM89YA2VtD7k\"],\"license\":\"MIT\"},\"node_modules/@bananapus/core/src/structs/JBRuleset.sol\":{\"keccak256\":\"0x15b2bf3174d84846a91ccbf5a344dfb125b55ed9cf50102db8d6868844225189\",\"urls\":[\"bzz-raw://647416b025dbd941094db89cbc69f755c155bd6c87be3f322394ccc4a8e0442d\",\"dweb:/ipfs/QmTCL9xcHnxQ4t5AmCPoZvXDUPW5xhzhyyXYbkMdyg44au\"],\"license\":\"MIT\"},\"node_modules/@bananapus/core/src/structs/JBTokenAmount.sol\":{\"keccak256\":\"0x5cf0626b73a596c1e2da17c89ae039a7c0374310b060d48568d3b6c11fbe6180\",\"urls\":[\"bzz-raw://63348b50be95e2995409394a17caffc563a646f0972650a1230bf864fbd3219b\",\"dweb:/ipfs/QmZXZpS3SbFD5nWaCauf6AqbEhLURv5qsKHpThBvQgDU6u\"],\"license\":\"MIT\"},\"node_modules/@openzeppelin/contracts/access/Ownable.sol\":{\"keccak256\":\"0xff6d0bb2e285473e5311d9d3caacb525ae3538a80758c10649a4d61029b017bb\",\"urls\":[\"bzz-raw://8ed324d3920bb545059d66ab97d43e43ee85fd3bd52e03e401f020afb0b120f6\",\"dweb:/ipfs/QmfEckWLmZkDDcoWrkEvMWhms66xwTLff9DDhegYpvHo1a\"],\"license\":\"MIT\"},\"node_modules/@openzeppelin/contracts/interfaces/draft-IERC6093.sol\":{\"keccak256\":\"0x60c65f701957fdd6faea1acb0bb45825791d473693ed9ecb34726fdfaa849dd7\",\"urls\":[\"bzz-raw://ea290300e0efc4d901244949dc4d877fd46e6c5e43dc2b26620e8efab3ab803f\",\"dweb:/ipfs/QmcLLJppxKeJWqHxE2CUkcfhuRTgHSn8J4kijcLa5MYhSt\"],\"license\":\"MIT\"},\"node_modules/@openzeppelin/contracts/metatx/ERC2771Context.sol\":{\"keccak256\":\"0x98256cf37b71a69b2f5a8a6fe975ea03590dff703102bd141a830f94e8adebf6\",\"urls\":[\"bzz-raw://6251fe1f6a1e45e6d619d150c123afc88b8646b38ee26a136efa9a6988a31d3f\",\"dweb:/ipfs/QmeXDT85wSZdP31wkz3ah3KhponCiksJLP5o2LR5e1JxcK\"],\"license\":\"MIT\"},\"node_modules/@openzeppelin/contracts/token/ERC721/IERC721.sol\":{\"keccak256\":\"0x5ef46daa3b58ef2702279d514780316efaa952915ee1aa3396f041ee2982b0b4\",\"urls\":[\"bzz-raw://2f8f2a76e23b02fc69e8cd24c3cb47da6c7af3a2d6c3a382f8ac25c6e094ade7\",\"dweb:/ipfs/QmPV4ZS4tPVv4mTCf9ejyZ1ai57EEibDRj7mN2ARDCLV5n\"],\"license\":\"MIT\"},\"node_modules/@openzeppelin/contracts/token/ERC721/IERC721Receiver.sol\":{\"keccak256\":\"0x7f7a26306c79a65fb8b3b6c757cd74660c532cd8a02e165488e30027dd34ca49\",\"urls\":[\"bzz-raw://d01e0b2b837ee2f628545e54d8715b49c7ef2befd08356c2e7f6c50dde8a1c22\",\"dweb:/ipfs/QmWBAn6y2D1xgftci97Z3qR9tQnkvwQpYwFwkTvDMvqU4i\"],\"license\":\"MIT\"},\"node_modules/@openzeppelin/contracts/token/ERC721/extensions/IERC721Metadata.sol\":{\"keccak256\":\"0x37d1aaaa5a2908a09e9dcf56a26ddf762ecf295afb5964695937344fc6802ce1\",\"urls\":[\"bzz-raw://ed0bfc1b92153c5000e50f4021367b931bbe96372ac6facec3c4961b72053d02\",\"dweb:/ipfs/Qmbwp8VDerjS5SV1quwHH1oMXxPQ93fzfLVqJ2RCqbowGE\"],\"license\":\"MIT\"},\"node_modules/@openzeppelin/contracts/utils/Context.sol\":{\"keccak256\":\"0x493033a8d1b176a037b2cc6a04dad01a5c157722049bbecf632ca876224dd4b2\",\"urls\":[\"bzz-raw://6a708e8a5bdb1011c2c381c9a5cfd8a9a956d7d0a9dc1bd8bcdaf52f76ef2f12\",\"dweb:/ipfs/Qmax9WHBnVsZP46ZxEMNRQpLQnrdE4dK8LehML1Py8FowF\"],\"license\":\"MIT\"},\"node_modules/@openzeppelin/contracts/utils/Strings.sol\":{\"keccak256\":\"0x55f102ea785d8399c0e58d1108e2d289506dde18abc6db1b7f68c1f9f9bc5792\",\"urls\":[\"bzz-raw://6e52e0a7765c943ef14e5bcf11e46e6139fa044be564881378349236bf2e3453\",\"dweb:/ipfs/QmZEeeXoFPW47amyP35gfzomF9DixqqTEPwzBakv6cZw6i\"],\"license\":\"MIT\"},\"node_modules/@openzeppelin/contracts/utils/introspection/ERC165.sol\":{\"keccak256\":\"0x9e8778b14317ba9e256c30a76fd6c32b960af621987f56069e1e819c77c6a133\",\"urls\":[\"bzz-raw://1777404f1dcd0fac188e55a288724ec3c67b45288e49cc64723e95e702b49ab8\",\"dweb:/ipfs/QmZFdC626GButBApwDUvvTnUzdinevC3B24d7yyh57XkiA\"],\"license\":\"MIT\"},\"node_modules/@openzeppelin/contracts/utils/introspection/IERC165.sol\":{\"keccak256\":\"0x4296879f55019b23e135000eb36896057e7101fb7fb859c5ef690cf14643757b\",\"urls\":[\"bzz-raw://87b3541437c8c443ccd36795e56a338ed12855eec17f8da624511b8d1a7e14df\",\"dweb:/ipfs/QmeJQCtZrQjtJLr6u7ZHWeH3pBnjtLWzvRrKViAi7UZqxL\"],\"license\":\"MIT\"},\"node_modules/@openzeppelin/contracts/utils/math/Math.sol\":{\"keccak256\":\"0x005ec64c6313f0555d59e278f9a7a5ab2db5bdc72a027f255a37c327af1ec02d\",\"urls\":[\"bzz-raw://4ece9f0b9c8daca08c76b6b5405a6446b6f73b3a15fab7ff56e296cbd4a2c875\",\"dweb:/ipfs/QmQyRpyPRL5SQuAgj6SHmbir3foX65FJjbVTTQrA2EFg6L\"],\"license\":\"MIT\"},\"node_modules/@openzeppelin/contracts/utils/math/SignedMath.sol\":{\"keccak256\":\"0x5f7e4076e175393767754387c962926577f1660dd9b810187b9002407656be72\",\"urls\":[\"bzz-raw://7d533a1c97cd43a57cd9c465f7ee8dd0e39ae93a8fb8ff8e5303a356b081cdcc\",\"dweb:/ipfs/QmVBEei6aTnvYNZp2CHYVNKyZS4q1KkjANfY39WVXZXVoT\"],\"license\":\"MIT\"},\"src/Banny721TokenUriResolver.sol\":{\"keccak256\":\"0xe402b51cf4249f61ecacd3e00cc792183534275cba338ae7f589aff624e356c6\",\"urls\":[\"bzz-raw://234d9bdf79382c12e0382867a2f9fc6be4c52e9308913f1e7623f964044139e1\",\"dweb:/ipfs/QmU9f7xRHkNSETGR5gW51s3NLGJwVrW4mzFcmMDsVVCMxN\"],\"license\":\"MIT\"}},\"version\":1}",
			"args": [
				"0x584F5Da53cb18789099466074e3B5c32Ed17243a",
				"0xB2b5841DBeF766d4b521221732F9B618fCf34A87"
			],
			"bytecode": "0x60a034620000e957601f62005f8538819003918201601f19168301916001600160401b03831184841017620000ee578084926040948552833981010312620000e9576200005a6020620000528362000104565b920162000104565b6080526001600160a01b039081168015620000d057600080546001600160a01b03198116831782556040519316907f8be0079c531659141344cd1fd0a4f28419497f9722a3daafe3b4186f6b6457e09080a3615e6b90816200011a8239608051818181610713015281816108390152615c780152f35b604051631e4fbdf760e01b815260006004820152602490fd5b600080fd5b634e487b7160e01b600052604160045260246000fd5b51906001600160a01b0382168203620000e95756fe6080604052600436101561001257600080fd5b60003560e01c806257bfdd146101365780631e4578de1461013157806331a290ac1461012c578063572b6c05146101275780635e703e711461012257806360b805411461011d5780636aff31dd14610118578063715018a6146101135780637da0a8771461010e578063875e4bea146101095780638da5cb5b14610104578063a0122c09146100ff578063a22d0dd5146100fa578063b03a3eab146100f5578063c06e7bc7146100f0578063c2f1f14a146100eb578063d756227e146100e65763f2fde38b146100e157600080fd5b6113cd565b6112fe565b61128e565b610c82565b610bdd565b610b98565b610a5c565b6109f9565b610868565b610823565b6107c5565b610799565b610773565b610747565b6106ef565b61056f565b610440565b610407565b90600182811c9216801561016b575b602083101461015557565b634e487b7160e01b600052602260045260246000fd5b91607f169161014a565b634e487b7160e01b600052604160045260246000fd5b602081019081106001600160401b038211176101a657604052565b610175565b604081019081106001600160401b038211176101a657604052565b61026081019081106001600160401b038211176101a657604052565b6111a081019081106001600160401b038211176101a657604052565b606081019081106001600160401b038211176101a657604052565b6101c081019081106001600160401b038211176101a657604052565b90601f801991011681019081106001600160401b038211176101a657604052565b604051906000826002549161026a8361013b565b808352926020906001908181169081156102f85750600114610297575b505061029592500383610235565b565b91509260026000527f405787fa12a823e0f2b7631cc41b3ba8828b3321ca811111fa75cd3aa3bb5ace936000925b8284106102e057506102959450505081016020013880610287565b855488850183015294850194879450928101926102c5565b9150506020925061029594915060ff191682840152151560051b8201013880610287565b9060405191826000825461032f8161013b565b9081845260209460019160018116908160001461039d575060011461035e575b50505061029592500383610235565b600090815285812095935091905b818310610385575050610295935082010138808061034f565b8554888401850152948501948794509183019161036c565b9250505061029594925060ff191682840152151560051b82010138808061034f565b60005b8381106103d25750506000910152565b81810151838201526020016103c2565b906020916103fb815180928185528580860191016103bf565b601f01601f1916010190565b3461043b57600036600319011261043b57610437610423610256565b6040519182916020835260208301906103e2565b0390f35b600080fd5b3461043b5760208060031936011261043b5761045d600435611459565b6040519283926040840190845260406020850152825180915260206060850193019160005b82811061049157505050500390f35b835185528695509381019392810192600101610482565b604051906101a082018281106001600160401b038211176101a657604052565b6001600160401b0381116101a65760051b60200190565b9080601f8301121561043b5760209082356104f9816104c8565b936105076040519586610235565b81855260208086019260051b82010192831161043b57602001905b828210610530575050505090565b81358152908301908301610522565b9181601f8401121561043b578235916001600160401b03831161043b576020808501948460051b01011161043b57565b3461043b5760408060031936011261043b576004906001600160401b03823581811161043b576105a290369085016104df565b9060243590811161043b576105ba903690850161053f565b92909180519360005b8581106105cc57005b6105d681846114ed565b516105ec6105e5838589611501565b36916112c7565b610608610603836000526004602052604060002090565b611542565b6106ce57610620826000526001602052604060002090565b5480156106be578651602081019061064a8161063c848761154c565b03601f198101835282610235565b519020036106ae57907faeb631726b45aa3f6b09da79f7af03a9784614901f61a967ed84d63c37b7edc76106a58361069860019695610693866000526004602052604060002090565b611615565b88519182913390836116ea565b0390a2016105c3565b85516375b5da0b60e01b81528990fd5b8651637ef41a4f60e01b81528a90fd5b8551630388067760e21b81528990fd5b6001600160a01b0381160361043b57565b3461043b57602036600319011261043b57602060043561070e816106de565b6040517f00000000000000000000000000000000000000000000000000000000000000006001600160a01b039081169216919091148152f35b3461043b57604036600319011261043b5761043761042360043561076a816106de565b60243590611b84565b3461043b57602036600319011261043b5760206107916004356121fe565b604051908152f35b3461043b57602036600319011261043b5760043560005260016020526020604060002054604051908152f35b3461043b57600080600319360112610820576107df6150eb565b80546001600160a01b03198116825581906001600160a01b03167f8be0079c531659141344cd1fd0a4f28419497f9722a3daafe3b4186f6b6457e08280a380f35b80fd5b3461043b57600036600319011261043b576040517f00000000000000000000000000000000000000000000000000000000000000006001600160a01b03168152602090f35b3461043b5760208060031936011261043b576004356001600160401b0380821161043b573660238301121561043b57816004013590811161043b57602492366024838501011161043b576108ba6150eb565b6108ce826108c960025461013b565b61157a565b600093601f831160011461094c57505061092181807f512c3c91736f50c57a0548c1d01ab02f24c420f002b8b20e2bfe63df9693cd3f9560009161093e575b508160011b916000199060031b1c19161790565b6002555b6109396040519283926024339201846122ac565b0390a1005b60249150850101353861090d565b6002600052601f19831694907f405787fa12a823e0f2b7631cc41b3ba8828b3321ca811111fa75cd3aa3bb5ace9282915b8783106109dd57505050827f512c3c91736f50c57a0548c1d01ab02f24c420f002b8b20e2bfe63df9693cd3f95106109c0575b5050600181811b01600255610925565b830160240135600019600384901b60f8161c1916905538806109b0565b908060018596848396978b01013581550195019301919061097d565b3461043b57600036600319011261043b576000546040516001600160a01b039091168152602090f35b91610a4b90610a3d610a5995936060865260608601906103e2565b9084820360208601526103e2565b9160408184039101526103e2565b90565b3461043b57604036600319011261043b57600435610a79816106de565b60405163507f146560e01b815260243591906001600160a01b03906020816004818587165afa8015610b5857610af09360009386938593610b5d575b5060405163c44a8e6d60e01b81526001600160a01b039092166004830152602482019390935260006044820152938492839182906064820190565b0392165afa908115610b5857600091610b35575b50610437610b29610b23610100610b1b8587614ada565b940151614e7b565b93614c3c565b60405193849384610a22565b610b5291503d806000833e610b4a8183610235565b81019061178b565b38610b04565b611727565b610b8091935060203d602011610b87575b610b788183610235565b810190611712565b9138610ab5565b503d610b6e565b8015150361043b57565b3461043b57608036600319011261043b57610437610423600435610bbb816106de565b604435610bc781610b8e565b60643591610bd483610b8e565b60243590612872565b3461043b57604036600319011261043b576001600160401b0360043581811161043b57610c0e9036906004016104df565b9060243590811161043b573660238201121561043b578060040135610c32816104c8565b91610c406040519384610235565b8183526020916024602085019160051b8301019136831161043b57602401905b828210610c7357610c7185876129fc565b005b81358152908301908301610c60565b3461043b57608036600319011261043b5760048035610ca0816106de565b60243590604435926064356001600160401b03811161043b57610cc6903690830161053f565b94909160018060a01b0380851694604092610cfe8451926331a9108f60e11b938481528a818060209586938883019190602083019252565b03818d5afa908115610b5857600091611271575b5085610d2b610d1f615c75565b6001600160a01b031690565b911603611261578a871561123957508551848152828180610d538b8883019190602083019252565b03818d5afa908115610b585760009161121c575b5085610d74610d1f615c75565b91160361120c57610d8487612c0f565b6111fc57855163507f146560e01b8152828185818d5afa8015610b5857610deb600091889383916111df575b50895163c44a8e6d60e01b81526001600160a01b038616888201908152602081018d9052600060408201529094859384928391606090910190565b0392165afa908115610b58576000916111c4575b5051156111b457908a93929187610e208c6000526006602052604060002090565b558a610e36896000526007602052604060002090565b55909a5093909192935b600091610e4b612a9f565b5060009b60009260005b888110610ebc578d8d7f6a68946ba06488db8585d7c7637fa954b574035fe15720ea760125ef860172588e8e610eb78f8f610ea48186610e9f8b6000526005602052604060002090565b612b53565b610eac615c75565b915194859485612bcc565b0390a3005b889e610eef848f8f908b8f928e9f8890610ed592612b10565b359e8f935195869485938493845283019190602083019252565b03915afa908115610b5857600091611197575b5085610f0f610d1f615c75565b91160361118757610f1f8a6121fe565b6111775787848f8d519283809263507f146560e01b82525afa8015610b58578b600091868f8d8b91610f8d978795611158575b505163c44a8e6d60e01b81526001600160a01b0390931690830190815260208101949094526000604085015290948593849291839160600190565b0392165afa908115610b585760009161113f575b5080511561112f576101000196875160028110908115611124575b50611114578215159081611108575b506110f857908f98979695949392918f9087518981146000146110195750509060019161100683985b519c6000526008602052604060002090565b550190919293949e509794959697610e55565b600891999a9b50809250969293949596146000146110495750509060018f989796959493928f6110068397610ff4565b979f9d9b9998979a9e9c9a6005819792971480156110ee575b80156110e4575b806110dd575b1561108457508f8f51631e550b6f60e11b8152fd5b9d9f9798999b9d9c9e9a9c600a81149081156110d2575b50806110cb575b6110bb578f98979695949392918f611006600193610ff4565b8a51635e701b2b60e01b81528890fd5b50856110a2565b60099150143861109b565b508761106f565b50600b8114611069565b5060068114611062565b8a51637dc0e82560e11b81528890fd5b90508751111538610fcb565b8b5163c89badbd60e01b81528990fd5b600d91501138610fbc565b8b516354c0901d60e11b81528990fd5b611152913d8091833e610b4a8183610235565b38610fa1565b6111709195508c8d3d10610b8757610b788183610235565b9338610f52565b8a5163670bdddd60e11b81528890fd5b8a5163812a698960e01b81528890fd5b6111ae9150853d8711610b8757610b788183610235565b38610f02565b855163265ba87960e01b81528390fd5b6111d991503d806000833e610b4a8183610235565b38610dff565b6111f69150863d8811610b8757610b788183610235565b38610db0565b855163670bdddd60e11b81528390fd5b8551639d17cec760e01b81528390fd5b6112339150833d8511610b8757610b788183610235565b38610d67565b9392919060006112538c6000526006602052604060002090565b55909a509390919293610e40565b8551632add3f4b60e01b81528390fd5b6112889150833d8511610b8757610b788183610235565b38610d12565b3461043b57602036600319011261043b576020610791600435612c0f565b6001600160401b0381116101a657601f01601f191660200190565b9291926112d3826112ac565b916112e16040519384610235565b82948184528183011161043b578281602093846000960137010152565b3461043b57604036600319011261043b576001600160401b0360043581811161043b5761132f9036906004016104df565b60249060243583811161043b573660238201121561043b57806004013592611356846104c8565b936113646040519586610235565b8085526020956024602087019260051b8501019336851161043b5760248101925b85841061139657610c718888612c50565b833583811161043b5782013660438201121561043b5789916113c28392369060448a82013591016112c7565b815201930192611385565b3461043b57602036600319011261043b576004356113ea816106de565b6113f26150eb565b6001600160a01b03908116801561144057600080546001600160a01b03198116831782559092167f8be0079c531659141344cd1fd0a4f28419497f9722a3daafe3b4186f6b6457e08380a380f35b604051631e4fbdf760e01b815260006004820152602490fd5b90600091808352602092600560205260408120936040519081602087549182815201968452602084209184905b8282106114ae57505050506114a18160409495960382610235565b9281526006602052205491565b835489529788019760019384019390910190611486565b634e487b7160e01b600052603260045260246000fd5b8051156114e85760200190565b6114c5565b80518210156114e85760209160051b010190565b91908110156114e85760051b81013590601e198136030182121561043b5701908135916001600160401b03831161043b57602001823603811361043b579190565b610a59905461013b565b9061155f602092828151948592016103bf565b0190565b81811061156e575050565b60008155600101611563565b90601f8211611587575050565b6102959160026000527f405787fa12a823e0f2b7631cc41b3ba8828b3321ca811111fa75cd3aa3bb5ace906020601f840160051c830193106115d1575b601f0160051c0190611563565b90915081906115c4565b9190601f81116115ea57505050565b610295926000526020600020906020601f840160051c830193106115d157601f0160051c0190611563565b91909182516001600160401b0381116101a65761163c81611636845461013b565b846115db565b602080601f831160011461167f57508190611670939495600092611674575b50508160011b916000199060031b1c19161790565b9055565b01519050388061165b565b90601f1983169561169585600052602060002090565b926000905b8882106116d2575050836001959697106116b9575b505050811b019055565b015160001960f88460031b161c191690553880806116af565b8060018596829496860151815501950193019061169a565b906117026020919493946040845260408401906103e2565b6001600160a01b03909416910152565b9081602091031261043b5751610a59816106de565b6040513d6000823e3d90fd5b5190610295826106de565b519061029582610b8e565b81601f8201121561043b57805161175f816112ac565b9261176d6040519485610235565b8184526020828401011161043b57610a5991602080850191016103bf565b60208183031261043b5780516001600160401b039182821161043b57016101a08184031261043b576117bb6104a8565b92815184526020820151602085015260408201516040850152606082015160608501526080820151608085015260a082015160a08501526117fe60c08301611733565b60c085015260e082015160e0850152610100808301519085015261012061182681840161173e565b9085015261014061183881840161173e565b9085015261016061184a81840161173e565b90850152610180928383015190811161043b576118679201611749565b9082015290565b6040519061187b8261018b565b60008252565b6040519061188e826101ab565b600e82526d226f7574666974496473223a205b60901b6020830152565b60236102959193929360405194816118cd8793518092602080870191016103bf565b8201601160f91b60208201526118ed8251809360206021850191016103bf565b0161088b60f21b6021820152036003810185520183610235565b906102956022604051846119258296518092602080860191016103bf565b810161174b60f21b6020820152036002810185520183610235565b602e6102959193929360405194816119628793518092602080870191016103bf565b82016b113bb7b9363224b2111d101160a11b602082015261198d825180936020602c850191016103bf565b0161088b60f21b602c82015203600e810185520183610235565b90604051918260605160005b8181106119e85750906020610295936119dc8294840191838301600081528151948592016103bf565b01038085520183610235565b60209192508060800151828288010152019084916119b3565b6020610295919392936040519481611a2287935180928680870191016103bf565b82016119dc825180938680850191016103bf565b90610295603960405180947f22776f726e42794e616b656442616e6e794964223a20220000000000000000006020830152611a7b8151809260206037860191016103bf565b810161088b60f21b6037820152036019810185520183610235565b90610295603960405180947f227573656442794e616b656442616e6e794964223a20220000000000000000006020830152611a7b8151809260206037860191016103bf565b9060208282031261043b5781516001600160401b03811161043b57610a599201611749565b9081602091031261043b575190565b9081606091031261043b5780519160406020830151920151610a59816106de565b90610295603d60405180947f646174613a6170706c69636174696f6e2f6a736f6e3b6261736536342c0000006020830152611b7481518092602086860191016103bf565b810103601d810185520183610235565b6040805163507f146560e01b808252602092916001600160a01b03919060049086841686828481845afa8015610b585789600091611c009483916121e1575b50885163c44a8e6d60e01b81526001600160a01b038c1687820190815260208101939093526000604084015294859283918a918391606090910190565b0392165afa918215610b58576000926121c6575b508151156121b557611c2461186e565b50610100820180519094901561212957611c3f83518a612fd9565b9889516120f2575b85516001036120d857611c69611c64611c5f8d612c0f565b612e2a565b611a96565b965b8a5115611fa6575050865163043c358d60e11b81529360609285925082905afa908115610b5857600092600092611f71575b50611ca8818a614ada565b988151611cb490614c3c565b948051611cc090614e7b565b91611cca90612e2a565b908351611cd690612e2a565b9051611ce190612e2a565b916060850151611cf090612e2a565b938b8b870151611cff90612e2a565b960151611d0b90612e2a565b96611d1590612e2a565b97611d1f90612e2a565b988c8c519e8f918201611d319161154c565b039d601f199e8f81018252611d469082610235565b611d4f90615002565b9b51683d913730b6b2911d1160b91b9d81019d8e529e8f9d600901611d739161154c565b7211161011383937b23ab1ba2730b6b2911d101160691b8152601301611d989161154c565b731116101131b0ba32b3b7b93ca730b6b2911d101160611b8152601401611dbe9161154c565b6e111610113a37b5b2b724b2111d101160891b8152600f01611ddf9161154c565b6a111610113ab831911d101160a91b8152600b01611dfc9161154c565b6f1116101131b0ba32b3b7b93c911d101160811b8152601001611e1e9161154c565b6d1116101139bab838363c911d101160911b8152600e01611e3e9161154c565b70111610113932b6b0b4b734b733911d101160791b8152601101611e619161154c565b6c11161011383934b1b2911d101160991b8152600d01611e809161154c565b6f111610113232b1b4b6b0b639911d101160811b8152601001611ea29161154c565b6f1116101131bab93932b731bc911d101160811b8152601001611ec49161154c565b6201116160ed1b8152600301611ed99161154c565b7f226465736372697074696f6e223a2241207069656365206f662074686520426181527f6e6e797665727365222c22696d616765223a22646174613a696d6167652f737660208201526c19cade1b5b0ed8985cd94d8d0b609a1b6040820152604d01611f449161154c565b61227d60f01b8152600201039081018252611f5f9082610235565b611f6890615002565b610a5990611b30565b909250611f96915060603d606011611f9f575b611f8e8183610235565b810190611b0f565b50909138611c9d565b503d611f84565b935093949097999550600d9196985051116000146120c9578651636c0360eb60e01b81526000818581895afa8015610b585789916000916120a6575b50965b8489518098819382525afa928315610b5857612039978996600095612087575b5051630c8df17160e41b81526001600160a01b03909316908301908152602081019490945290958693849291839160400190565b0392165afa918215610b5857610a5993600093612058575b50506147f3565b612078929350803d10612080575b6120708183610235565b810190611b00565b903880612051565b503d612066565b61209f919550873d8911610b8757610b788183610235565b9338612005565b6120c391503d806000833e6120bb8183610235565b810190611adb565b38611fe2565b876120d2610256565b96611fe5565b6120ec6120e7611c5f8d6121fe565b611a36565b96611c6b565b9861210590600187510361210b57614700565b98611c47565b6121249061211f61211a6130d9565b61463a565b611a01565b614700565b6121338a8a6126de565b9861213d8b611459565b809891985161214a611881565b906000925b81841061218a5750506121629150611907565b978061216f575b50611c6b565b9761217d6121839299612e2a565b90611940565b9638612169565b90916121ab6001916121a561219f87866114ed565b51612e2a565b906118ab565b930192919061214f565b505050505050505050610a5961186e565b6121da91923d8091833e610b4a8183610235565b9038611c14565b6121f891508a3d8c11610b8757610b788183610235565b38611bc3565b600090808252602090600860205260408320549081156122a6578184526005602052604084209260405180948591602082549182815201918852602088209388905b82821061228c5750505061225692500384610235565b825192845b84811061226a57505050505090565b8261227582846114ed565b51146122835760010161225b565b50505091505090565b855484526001958601958995509381019390910190612240565b50505090565b918060609160209396959660408652816040870152838601376000828286010152601f80199101168301019360018060a01b0316910152565b6040519061010082018281106001600160401b038211176101a65760405260dd82527f746820643d224d3138302031343768337633682d337a222f3e3c2f673e00000060e0837f3c6720636c6173733d226f223e3c7061746820643d224d31373720313430763360208201527f6836763131683130762d31316834762d33682d32307a222f3e3c70617468206460408201527f3d224d31353320313430763368377638203368372033762d31316833762d336860608201527f2d32307a222f3e3c2f673e3c6720636c6173733d2277223e3c7061746820643d60808201527f224d3135332031343368377634682d377a222f3e3c7061746820643d224d313560a08201527f372031343768337633682d337a6d32302d3468367634682d367a222f3e3c706160c08201520152565b60405190612420826101c6565b61023a82527f643d224d3139302031333768347633682d347a222f3e3c2f673e000000000000610240837f3c6720636c6173733d226f223e3c7061746820643d224d31393020313237683360208201527f7633682d337a6d3320313368347633682d347a6d2d3432203068367636682d3660408201527f7a222f3e3c7061746820643d224d3135312031333368337637682d337a6d313060608201527f203068367634682d367a222f3e3c7061746820643d224d31353720313337683160808201527f377636682d31377a6d332031336831347633682d31347a6d31372d313368377660a08201527f3136682d377a222f3e3c7061746820643d224d3138342031333768367636682d60c08201527f367a6d302031306831307636682d31307a222f3e3c7061746820643d224d313860e08201527f37203134336831307634682d31307a222f3e3c7061746820643d224d313930206101008201527f31343068337633682d337a6d2d362d313068337637682d337a222f3e3c7061746101208201527f6820643d224d3138372031333068367633682d367a6d2d3336203068313076336101408201527f682d31307a6d313620313368377637682d377a6d2d3130203068377637682d376101608201527f7a222f3e3c7061746820643d224d3136342031343768337633682d337a6d32396101808201527f2d323068347636682d347a222f3e3c7061746820643d224d31393420313333686101a08201527f337637682d337a222f3e3c2f673e3c6720636c6173733d2277223e3c706174686101c08201527f20643d224d3135342031333368377634682d377a222f3e3c7061746820643d226101e08201527f4d3135342031333768337633682d337a6d3130203668337634682d337a6d32306102008201527f203068337634682d337a6d332d313068377634682d377a222f3e3c70617468206102208201520152565b60405163507f146560e01b81526001600160a01b036020826004818685165afa918215610b585760009261284e575b5060405163c44a8e6d60e01b81526001600160a01b0384166004820152602481018590526000604482018190529092909183916064918391165afa908115610b5857600091612835575b5080511561282a5760609261010082015161280557926127bc9160016127a3612782610a5997611459565b9490801515806127fe575b6127e4575b5061279d845161512c565b90611a01565b9151036127d8576127b69061279d612413565b92615555565b80516127c9575b50614700565b6127d291611a01565b386127c3565b6127b69061279d6122e5565b6127f891506127f39088612fd9565b6119a7565b38612792565b508361278d565b5061281292505190612fd9565b80516128215750610a5961186e565b610a5990614700565b505050610a5961186e565b612848913d8091833e610b4a8183610235565b38612757565b600091925061286b9060203d602011610b8757610b788183610235565b919061270d565b60405163507f146560e01b81529390916001600160a01b036020866004818488165afa958615610b58576000966129d8575b5060405163c44a8e6d60e01b81526001600160a01b0385166004820152602481018390526000604482018190529096909187916064918391165afa948515610b58576000956129bd575b508451156129b0576060906101008601516129a057612931610a599692612916600193611459565b958115159081612998575b50612989575061279d845161512c565b915103612977576129449061279d612413565b925b612952575b5050614700565b61295b91615555565b8051612968575b8061294b565b61297191611a01565b38612962565b6129839061279d6122e5565b92612946565b6127f891506127f39087612fd9565b905038612921565b5050509050612812915190612fd9565b5050505050610a5961186e565b6129d191953d8091833e610b4a8183610235565b93386128ee565b60009196506129f59060203d602011610b8757610b788183610235565b95906128a4565b90612a056150eb565b81519060009260005b838110612a1c575050505050565b612a2681836114ed565b51612a3182856114ed565b5190808752602060018152604080892054612a8f5782917fb10eb6fc7557a7109693cb8f3fac48d44328de56c0368ee4cac539b424d2cad99185612a8360019897966000526001602052604060002090565b5551338152a301612a0e565b516333ded41b60e21b8152600490fd5b604051906101a082018281106001600160401b038211176101a657604052606061018083600080825280602083015280604083015280848301528060808301528060a08301528060c08301528060e08301528061010083015280610120830152806101408301526101608201520152565b91908110156114e85760051b0190565b634e487b7160e01b600052601160045260246000fd5b600281901b91906001600160fe1b03811603612b4e57565b612b20565b906001600160401b0383116101a6576801000000000000000083116101a6578154838355808410612bae575b50906000526020806000209060005b848110612b9c575050505050565b83358382015592810192600101612b8e565b612bc690836000528460206000209182019101611563565b38612b7f565b9081526060602082018190528101839052929392916001600160fb1b03811161043b5760409160809160051b8091838601378301019360018060a01b0316910152565b806000526007602052604060002054908115908115612c37575b50612c315790565b50600090565b9050816000526006602052604060002054141538612c29565b9190612c5a6150eb565b82516000935b818510612c6e575050509050565b612c7885826114ed565b5194612c8481856114ed565b51958060005260039660209780895260409081600020908351906001600160401b0382116101a657612cc082612cba855461013b565b856115db565b8b601f8311600114612d43575050917f9dedd219289ed514faff576c477c66bd097aef59a236e3b8ebcf0d0070cb4e969391612d1c84612d2b9560019a9b9c9d9e600091612d3857508160011b916000199060031b1c19161790565b90555b519182913390836116ea565b0390a20193929190612c60565b90508501513861090d565b909b601f198316612d5985600052602060002090565b926000905b828210612dc8575050916001999a9b9c9d8492612d2b97957f9dedd219289ed514faff576c477c66bd097aef59a236e3b8ebcf0d0070cb4e9699979510612dae575b505050881b88019055612d1f565b8601519060f884600019921b161c19169055388080612da0565b80600185968294968c01518155019501930190612d5e565b604051612dec8161018b565b60008152906000368137565b90612e02826112ac565b612e0f6040519182610235565b8281528092612e20601f19916112ac565b0190602036910137565b806000917a184f03e93ff9f4daa797ed6e38ed64bf6a1f01000000000000000080821015612f60575b506d04ee2d6d415b85acef810000000080831015612f51575b50662386f26fc1000080831015612f42575b506305f5e10080831015612f33575b5061271080831015612f24575b506064821015612f14575b600a80921015612f0a575b600190816021612ec260018701612df8565b95860101905b612ed4575b5050505090565b600019019083906f181899199a1a9b1b9c1cb0b131b232b360811b8282061a835304918215612f0557919082612ec8565b612ecd565b9160010191612eb0565b9190606460029104910191612ea5565b60049193920491019138612e9a565b60089193920491019138612e8d565b60109193920491019138612e7e565b60209193920491019138612e6c565b604093508104915038612e53565b90610295604960405180946c1e34b6b0b3b290343932b31e9160991b6020830152612fa3815180926020602d860191016103bf565b81017f222077696474683d2234303022206865696768743d22343030222f3e00000000602d820152036029810185520183610235565b612ff5612ff0836000526004602052604060002090565b61031c565b80516130d3575060405163507f146560e01b81526001600160a01b039260209283836004818489165afa908115610b58576130689585946000936130b4575b50604051632f54648f60e21b81526001600160a01b0390921660048301526024820193909352948592839182906044820190565b0392165afa8015610b5857610a599261309292600092613097575b505061308d610256565b6147f3565b612f6e565b6130ad9250803d10612080576120708183610235565b3880613083565b6130cc919350853d8711610b8757610b788183610235565b9138613034565b91505090565b604051906130e6826101e2565b61117a82527f762d31306833762d376833762d33682d31307a222f3e3c2f673e000000000000611180837f3c6720636c6173733d226131223e3c7061746820643d224d313733203533683460208201527f763137682d347a222f3e3c2f673e3c6720636c6173733d226132223e3c70617460408201527f6820643d224d3136372035376833763130682d337a222f3e3c7061746820643d60608201527f224d3136392035336834763137682d347a222f3e3c2f673e3c6720636c61737360808201527f3d226133223e3c7061746820643d224d31363720353368337634682d337a222f60a08201527f3e3c7061746820643d224d3136332035376834763130682d347a222f3e3c706160c08201527f746820643d224d31363720363768337633682d337a222f3e3c2f673e3c67206360e08201527f6c6173733d226231223e3c7061746820643d224d32313320323533682d33762d6101008201527f332d33682d33762d372d33682d34762d3130682d33762d372d372d33682d33766101208201527f2d3733682d34762d3130682d33762d3130682d33762d37682d34762d37682d336101408201527f762d33682d33762d33682d3476313068347631306833763130683376336834766101608201527f37203320373020336833763768337632306834763768337633683376336834766101808201527f34683376336833762d332d347a222f3e3c7061746820643d224d3235332033306101a08201527f37762d34682d33762d33682d33762d33682d34762d34682d33762d33682d33766101c08201527f2d33682d34762d34682d33762d33682d33762d33682d34762d34682d33762d366101e08201527f682d33762d37682d3476313768347633683376336833203476346833763368336102008201527f76336834763468337633683376336834763468337633683376336834762d36686102208201527f2d347a222f3e3c2f673e3c6720636c6173733d226232223e3c7061746820643d6102408201527f224d32353020333130762d33682d33762d34682d34762d33682d33762d33682d6102608201527f33762d34682d34762d33682d33762d33682d33762d34682d37762d33682d33766102808201527f2d33682d34762d3137682d33762d33682d33762d34682d34762d33682d33762d6102a08201527f33682d33762d37682d34762d3230682d33762d37682d33762d37332d332d37686102c08201527f2d34762d33682d33762d3130682d33762d3130682d34563730682d33762d336c6102e08201527f2d332031303020332d313030763430682d33763130682d347636682d337631346103008201527f682d337633203133682d347634346834763136683376313468337631336834766103208201527f31306833763768337633683476336833763468337633683476336833763468336103408201527f76336834763368337637683776376836763368377633683776346831337633686103608201527f337633683130762d33682d337a6d2d3130332d3837762d31366833762d3130686103808201527f2d337636682d34763137682d337631306833762d3768347a222f3e3c706174686103a08201527f20643d224d3134332032333068347637682d347a6d3420313068337633682d336103c08201527f7a6d33203768337633682d337a6d33203668347634682d347a222f3e3c7061746103e08201527f6820643d224d31363320323537682d36763368337633683376346834762d342d6104008201527f33682d34762d337a222f3e3c2f673e3c6720636c6173733d226233223e3c70616104208201527f746820643d224d3134332031393776366834762d366836762d34346834762d316104408201527f366833762d31346833762d366834762d31306833563937682d377636682d33766104608201527f34682d337633682d347633682d3376342033682d3376332034682d34763130686104808201527f2d337631362034682d337634366833762d3668337a222f3e3c7061746820643d6104a08201527f224d313430203230336833763137682d337a222f3e3c7061746820643d224d316104c08201527f3337203232306833763130682d337a222f3e3c7061746820643d224d313533206104e08201527f323530682d33762d37682d33762d36682d34762d37682d3376313068337637686105008201527f347636683376346833762d377a6d2d3320313068337637682d337a222f3e3c706105208201527f61746820643d224d3134372032353768337633682d337a6d36203068347633686105408201527f2d347a222f3e3c7061746820643d224d31363020323633762d33682d337633206105608201527f376836762d37682d337a6d2d31302d3536763136682d337637683376313068336105808201527f763768347636683676346837762d342d33682d33762d3130682d34762d3133686105a08201527f2d33762d3134682d33762d3136682d34763130682d337a222f3e3c70617468206105c08201527f643d224d32343320333133762d33682d33762d33682d31302d33762d34682d376105e08201527f762d33682d37762d33682d36762d37682d37762d37682d33762d33682d34762d6106008201527f33682d33762d34682d33762d33682d34762d33682d33762d34682d33762d33686106208201527f2d34762d33682d33763130682d337633682d347633682d3376376833763768346106408201527f76366833763568347633683676336833763368342033763368332034763368336106608201527f20337634683130763368372037203376336831302033762d33683130762d33686106808201527f34762d34682d31347a222f3e3c2f673e3c6720636c6173733d226234223e3c706106a08201527f61746820643d224d3138332031333068347637682d347a222f3e3c70617468206106c08201527f643d224d3138302031323768337633682d337a6d2d32372d3468347637682d346106e08201527f7a222f3e3c7061746820643d224d3135372031313768337636682d337a222f3e6107008201527f3c7061746820643d224d3136302031313068337637682d337a222f3e3c7061746107208201527f6820643d224d3136332031303768347633682d347a6d2d3320383368337637686107408201527f2d337a222f3e3c7061746820643d224d3136332031383768347633682d347a6d6107608201527f3230203068377633682d377a222f3e3c7061746820643d224d313830203139306107808201527f68337633682d337a6d31302d3768337634682d337a222f3e3c7061746820643d6107a08201527f224d3139332031383768347636682d347a6d2d323020353368347637682d347a6107c08201527f222f3e3c7061746820643d224d3137372032343768337636682d337a222f3e3c6107e08201527f7061746820643d224d3138302032353368337637682d337a222f3e3c706174686108008201527f20643d224d3138332032363068377633682d377a222f3e3c7061746820643d226108208201527f4d3139302032363368337634682d337a6d302d323068337634682d337a222f3e6108408201527f3c7061746820643d224d3138372032343068337633682d337a222f3e3c7061746108608201527f6820643d224d3139302032333768337633682d337a6d313320323368347633686108808201527f2d347a222f3e3c7061746820643d224d3230372032363368337637682d337a226108a08201527f2f3e3c7061746820643d224d3231302032373068337633682d337a6d2d3130206108c08201527f3768337636682d337a222f3e3c7061746820643d224d323033203238336834766108e08201527f37682d347a222f3e3c7061746820643d224d3230372032393068367633682d366109008201527f7a222f3e3c2f673e3c6720636c6173733d226f223e3c7061746820643d224d316109208201527f3333203135376834763530682d347a6d302036336834763130682d347a6d32376109408201527f2d3136336833763130682d337a222f3e3c7061746820643d224d3136332035336109608201527f68347634682d347a222f3e3c7061746820643d224d31363720353068313076336109808201527f682d31307a222f3e3c7061746820643d224d3137372035336833763137682d336109a08201527f7a222f3e3c7061746820643d224d3137332037306834763237682d347a6d2d366109c08201527f20306833763237682d337a222f3e3c7061746820643d224d31363320363768346109e08201527f7633682d347a6d3020333068347633682d347a222f3e3c7061746820643d224d610a008201527f3136302031303068337633682d337a222f3e3c7061746820643d224d31353720610a208201527f31303368337634682d337a222f3e3c7061746820643d224d3135332031303768610a408201527f347633682d347a222f3e3c7061746820643d224d313530203131306833763368610a608201527f2d337a222f3e3c7061746820643d224d3134372031313368337637682d337a22610a808201527f2f3e3c7061746820643d224d3134332031323068347637682d347a222f3e3c70610aa08201527f61746820643d224d313430203132376833763130682d337a222f3e3c70617468610ac08201527f20643d224d313337203133376833763230682d337a6d35362d31306834763130610ae08201527f682d347a222f3e3c7061746820643d224d313930203131376833763130682d33610b008201527f7a222f3e3c7061746820643d224d3138372031313068337637682d337a222f3e610b208201527f3c7061746820643d224d3138332031303368347637682d347a222f3e3c706174610b408201527f6820643d224d3138302031303068337633682d337a222f3e3c7061746820643d610b608201527f224d31373720393768337633682d337a6d2d3430203130366833763137682d33610b808201527f7a6d302032376833763130682d337a6d313020333068337637682d337a222f3e610ba08201527f3c7061746820643d224d31353020323537762d34682d33762d36682d34762d37610bc08201527f682d3376313068337631306834762d3368337a222f3e3c7061746820643d224d610be08201527f3135302032353768337633682d337a222f3e3c7061746820643d224d31363320610c008201527f323733762d33682d36762d3130682d347637682d337633683376336834763768610c208201527f33762d3768337a222f3e3c7061746820643d224d313633203236376834763368610c408201527f2d347a222f3e3c7061746820643d224d31373020323537682d332d3476336834610c608201527f76376833762d31307a222f3e3c7061746820643d224d31353720323533683676610c808201527f34682d367a222f3e3c7061746820643d224d3135332032343768347636682d34610ca08201527f7a222f3e3c7061746820643d224d3135302032343068337637682d337a222f3e610cc08201527f3c7061746820643d224d313437203233306833763130682d337a6d3133203530610ce08201527f68337637682d337a222f3e3c7061746820643d224d3134332032323368347637610d008201527f682d347a222f3e3c7061746820643d224d313437203230376833763136682d33610d208201527f7a222f3e3c7061746820643d224d313530203139376833763130682d337a6d2d610d408201527f3130203068337636682d337a6d35302031313368377633682d377a6d32332031610d608201527f306831377633682d31377a222f3e3c7061746820643d224d3233302033323368610d808201527f31337634682d31337a222f3e3c7061746820643d224d32343320333230683130610da08201527f7633682d31307a222f3e3c7061746820643d224d323533203331376834763368610dc08201527f2d347a222f3e3c7061746820643d224d323537203330376833763130682d337a610de08201527f222f3e3c7061746820643d224d3235332033303368347634682d347a222f3e3c610e008201527f7061746820643d224d3235302033303068337633682d337a222f3e3c70617468610e208201527f20643d224d3234372032393768337633682d337a222f3e3c7061746820643d22610e408201527f4d3234332032393368347634682d347a222f3e3c7061746820643d224d323430610e608201527f2032393068337633682d337a222f3e3c7061746820643d224d32333720323837610e808201527f68337633682d337a222f3e3c7061746820643d224d3233332032383368347634610ea08201527f682d347a222f3e3c7061746820643d224d3233302032383068337633682d337a610ec08201527f222f3e3c7061746820643d224d3232372032373768337633682d337a222f3e3c610ee08201527f7061746820643d224d3232332032373368347634682d347a222f3e3c70617468610f008201527f20643d224d3232302032363768337636682d337a222f3e3c7061746820643d22610f208201527f4d3231372032363068337637682d337a222f3e3c7061746820643d224d323133610f408201527f2032353368347637682d347a222f3e3c7061746820643d224d32313020323437610f608201527f68337636682d337a222f3e3c7061746820643d224d3230372032333768337631610f808201527f30682d337a222f3e3c7061746820643d224d323033203232376834763130682d610fa08201527f347a6d2d343020363068347636682d347a6d323420323068337633682d337a22610fc08201527f2f3e3c7061746820643d224d3136372032393368337635682d337a6d31362031610fe08201527f3468347633682d347a222f3e3c7061746820643d224d313730203239386834766110008201527f33682d347a6d3130203668337633682d337a222f3e3c7061746820643d224d316110208201527f37342033303168367633682d367a6d323320313268367634682d367a222f3e3c6110408201527f7061746820643d224d323033203331376831307633682d31307a6d2d322d31306110608201527f37762d3733682d3476373368337631376833762d3137682d327a222f3e3c2f676110808201527f3e3c6720636c6173733d226f223e3c7061746820643d224d31383720333037766110a08201527f2d346833762d36682d33762d34682d34762d33682d33762d33682d37762d34686110c08201527f2d367634682d3476336834763237682d34763133682d33763130682d347637686110e08201527f3476336833203130203134762d33682d34762d34682d33762d33682d33762d336111008201527f682d34762d376834762d31306833762d376833762d336837762d33682d337a6d6111208201527f3136203130762d34682d36763137682d34763130682d337637683376336834206111408201527f3620342033203134762d33682d34762d34682d37762d33682d33762d33682d336111608201520152565b90610295609a60405180947f3c7374796c653e2e6f7b66696c6c3a233830383038303b7d2e62327b66696c6c60208301527f3a6e6f6e653b7d2e62337b66696c6c3a6e6f6e653b7d2e62347b66696c6c3a6e60408301527f6f6e653b7d2e61317b66696c6c3a6e6f6e653b7d2e61327b66696c6c3a6e6f6e60608301527f653b7d2e61337b66696c6c3a6e6f6e653b7d3c2f7374796c653e00000000000060808301526146f081518092602086860191016103bf565b810103607a810185520183610235565b9061029560ba60405180947f3c7376672077696474683d2234303022206865696768743d223430302220766960208301527f6577426f783d223020302034303020343030222066696c6c3d226e6f6e65222060408301527f786d6c6e733d22687474703a2f2f7777772e77332e6f72672f323030302f737660608301527f67223e3c7374796c653e2e6f7b66696c6c3a233035303530353b7d2e777b666960808301527336361d11b31cb31cb31c9dbe9e17b9ba3cb6329f60611b60a08301526147d481518092602060b4860191016103bf565b8101651e17b9bb339f60d11b60b482015203609a810185520183610235565b90610a5990614821604051602092609160f51b8483015260228201526022815261481c816101fe565b6157d8565b92604051938161483a86935180928680870191016103bf565b820161484e825180938680850191016103bf565b01038084520182610235565b906102956021604051846148788296518092602080860191016103bf565b8101600160fd1b6020820152036001810185520183610235565b610295916148e89493602b926040519687936020926148b98151809286808a0191016103bf565b85016148cd825180938680850191016103bf565b0191602f60f81b8184015283519384916021850191016103bf565b01692072656d61696e696e6760b01b602182015203600b810185520183610235565b603790610295929493604051958261492c8894518092602080880191016103bf565b83016b0101429a7a6221027aaaa14960a51b6020820152614957825180936020602c850191016103bf565b01602f60f81b602c820152614976825180936020602d850191016103bf565b01692072656d61696e696e6760b01b602d820152036017810185520183610235565b610295916149ed94936021926040519687936020926149bf8151809286808a0191016103bf565b85016149d3825180938680850191016103bf565b0191602f60f81b81840152835193849187850191016103bf565b01036001810185520183610235565b90610295602360405184614a1a8296518092602080860191016103bf565b8101620101d160ed1b6020820152036003810185520183610235565b6021610295919392936040519481614a588793518092602080870191016103bf565b8201614a6d82518093602080850191016103bf565b01600160fd1b6020820152036001810185520183610235565b6025610295919392936040519481614aa88793518092602080870191016103bf565b820164555043202360d81b6020820152614acb82518093602087850191016103bf565b01036005810185520183610235565b90614b26610a5992633b9aca00614af9614af48551614c3c565b61485a565b91068015614b625790614b0e614b2192612e2a565b614b1b6060860151612e2a565b91614998565b6149fc565b90614b35610100820151614e7b565b8051614b4d575b50614b479051612e2a565b90614a86565b614b5b90614b479293614a36565b9190614b3c565b50604083019081518015600014614b945750614b81614b219251612e2a565b614b8e6060860151612e2a565b9161490a565b614b219250614ba290612e2a565b614baf6060860151612e2a565b91614892565b60405190614bc2826101ab565b600882526713dc9a59da5b985b60c21b6020830152565b60405190614be6826101ab565b60068252654f72616e676560d01b6020830152565b60405190614c08826101ab565b600482526350696e6b60e01b6020830152565b60405190614c28826101ab565b600582526420b634b2b760d91b6020830152565b60018103614c4d5750610a59614c1b565b60028103614c5e5750610a59614bfb565b60038103614c6f5750610a59614bd9565b60048103614c805750610a59614bb5565b6000526003602052610a59604060002061031c565b60405190614ca2826101ab565b6007825266546f7070696e6760c81b6020830152565b60405190614cc5826101ab565b6004825263119a5cdd60e21b6020830152565b60405190614ce5826101ab565b600b82526a5375697420626f74746f6d60a81b6020830152565b60405190614d0c826101ab565b600882526705375697420746f760c41b6020830152565b60405190614d30826101ab565b600482526314dd5a5d60e21b6020830152565b60405190614d50826101ab565b60048252631219585960e21b6020830152565b60405190614d70826101ab565b600882526704865616420746f760c41b6020830152565b60405190614d94826101ab565b600582526409adeeae8d60db1b6020830152565b60405190614db5826101ab565b6007825266476c617373657360c81b6020830152565b60405190614dd8826101ab565b60088252674e65636b6c61636560c01b6020830152565b60405190614dfc826101ab565b60048252634c65677360e01b6020830152565b60405190614e1c826101ab565b60088252674261636b7369646560c01b6020830152565b60405190614e40826101ab565b600582526415dbdc9b1960da1b6020830152565b60405190614e61826101ab565b600b82526a4e616b65642042616e6e7960a81b6020830152565b80614e895750610a59614e54565b60018103614e9a5750610a59614e33565b60028103614eab5750610a59614e0f565b60078103614ebc5750610a59614def565b60038103614ecd5750610a59614dcb565b60058103614ede5750610a59614da8565b60068103614eef5750610a59614d87565b600b8103614f005750610a59614d63565b60048103614f115750610a59614d43565b60088103614f225750610a59614d23565b600a8103614f335750610a59614cff565b60098103614f445750610a59614cd8565b600c8103614f555750610a59614cb8565b600d14614f6457610a5961186e565b610a59614c95565b60405190614f79826101fe565b604082527f6768696a6b6c6d6e6f707172737475767778797a303132333435363738392b2f6040837f4142434445464748494a4b4c4d4e4f505152535455565758595a61626364656660208201520152565b9060028201809211612b4e57565b9060208201809211612b4e57565b9060018201809211612b4e57565b91908201809211612b4e57565b8051156150e257615011614f6c565b61502d6150286150218451614fcb565b6003900490565b612b36565b9161503f61503a84614fd9565b612df8565b92835280815182019060208501935b8282106150905750505060039051068060011461507f57600214615070575090565b603d60f81b6000199091015290565b50613d3d60f01b6001199091015290565b9091936004906003809401938451600190603f9082828260121c16880101518553828282600c1c16880101518386015382828260061c168801015160028601531685010151908201530193919061504e565b50610a5961186e565b6000546001600160a01b0390811681615102615c75565b160361510b5750565b602490615116615c75565b60405163118cdaa760e01b815291166004820152fd5b61513590615b49565b926151449695969291926130d9565b9460405197889760208901703c7374796c653e2e62317b66696c6c3a2360781b90528051908160318b01916020019161517c926103bf565b8801603181016b3b7d2e62327b66696c6c3a2360a01b905281519182603d830191602001916151aa926103bf565b01603d81016b3b7d2e62337b66696c6c3a2360a01b9052815191826049830191602001916151d7926103bf565b01604981016151f4906b3b7d2e62347b66696c6c3a2360a01b9052565b6055016152009161154c565b6b3b7d2e61317b66696c6c3a2360a01b8152600c0161521e9161154c565b6b3b7d2e61327b66696c6c3a2360a01b8152600c0161523c9161154c565b6b3b7d2e61337b66696c6c3a2360a01b8152600c0161525a9161154c565b691dbe9e17b9ba3cb6329f60b11b8152600a016152769161154c565b03601f1981018252610a599082610235565b6040519061529582610219565b61019c82527f6820643d224d3139332031373068347633682d347a222f3e3c2f673e000000006101a0837f3c6720636c6173733d226f223e3c7061746820643d224d31393020313733682d60208201527f3337762d33682d3130762d34682d36763468337633682d33763468367633683160408201527f307634683337762d346833762d33682d33762d347a6d2d34302034682d33762d60608201527f34683376347a6d372033762d3368337633682d337a6d362030762d336834763360808201527f682d347a6d372030762d3368337633682d337a6d372030762d3368337633682d60a08201527f337a6d31302030682d34762d33683476337a222f3e3c7061746820643d224d3160c08201527f39302031373068337633682d337a222f3e3c7061746820643d224d313933203160e08201527f363668347634682d347a6d30203768347634682d347a222f3e3c2f673e3c67206101008201527f636c6173733d2277223e3c7061746820643d224d3133372031373068337633686101208201527f2d337a6d3130203368337634682d337a6d3130203468337633682d337a6d36206101408201527f3068347633682d347a6d37203068337633682d337a6d37203068337633682d336101608201527f7a6d36203068347633682d347a6d372d3468337634682d337a222f3e3c7061746101808201520152565b6040519060c082018281106001600160401b038211176101a65760405260818252601f60f91b60a0837f3c6720636c6173733d226f223e3c7061746820643d224d31383320313630762d60208201527f34682d32307634682d33763368337634683234762d37682d347a6d2d3133203360408201527f762d336831307633682d31307a222066696c6c3d2223616437316338222f3e3c60608201527f7061746820643d224d313730203136306831307633682d31307a222f3e3c2f6760808201520152565b91906060928151600091828394879361556d81614fe7565b955b868110615580575050505050505050565b818110156157675761559281846114ed565b516040805163507f146560e01b8152600491906001600160a01b036020808386818e86165afa918215610b585761560d9560009588958e948896615748575b50505163c44a8e6d60e01b81526001600160a01b0390931690830190815260208101949094526000604085015290948593849291839160600190565b0392165afa8015610b58576101009160009161572f575b500151965b6003888114969087156156fd575050506001946156468288612fd9565b995b60068981036156c6575050600a6001985b11806156bc575b6156a2575b8115159081615699575b50615681575b5060010196949661556f565b6001919a61279d6156929288612fd9565b9990615675565b9050153861566f565b986156ad919b611a01565b996156b661186e565b98615665565b5089511515615660565b89919911806156f5575b6156dd575b600a90615659565b97509a6156ec9061279d615490565b9a6001976156d5565b5088156156d0565b899b9197929b1180615727575b156156485795509a61571e9061279d615288565b9a600195615648565b50861561570a565b615742913d8091833e610b4a8183610235565b38615624565b61575f929650803d10610b8757610b788183610235565b9338806155d1565b600e95600090615629565b604051906105e082018281106001600160401b038211176101a657604052602e82526105c0366020840137565b906157a9826104c8565b6157b66040519182610235565b8281528092612e20601f19916104c8565b9081518110156114e8570160200190565b908151156158ff576157e8615772565b9160009060006157f7856114db565b526001918151916000925b808410615828575050505061581e61582391610a599394615cce565b615d11565b615d58565b9091929461585961585361584d61583f89876157c7565b516001600160f81b03191690565b60f81c90565b60ff1690565b9184925b60ff90898289168610156158be576001929161589261588c6158536158858a615898966114ed565b5160ff1690565b60081b90565b90614ff5565b6158b58b6158ad88603a9586860616926114ed565b9060ff169052565b0493019261585d565b50919594935050809691965b6158d8575060010192615802565b9460ff6001603a926158f583858b06166158ad8d868516906114ed565b01169504806158ca565b9050610a59612de0565b60405190615916826101ab565b600682526506666653930360d41b6020830152565b60405190615938826101ab565b600682526506666633730360d41b6020830152565b6040519061595a826101ab565b600682526566336136303360d01b6020830152565b6040519061597c826101ab565b600682526539363561316160d01b6020830152565b6040519061599e826101ab565b600682526533331bb1981960d11b6020830152565b604051906159c0826101ab565b600682526506664333630360d41b6020830152565b604051906159e2826101ab565b600682526518cccc994c1960d21b6020830152565b60405190615a04826101ab565b600682526566666438633560d01b6020830152565b60405190615a26826101ab565b600682526566663936613960d01b6020830152565b60405190615a48826101ab565b600682526533329a9c1c3160d11b6020830152565b60405190615a6a826101ab565b600682526563393266343560d01b6020830152565b60405190615a8c826101ab565b600682526536376437353760d01b6020830152565b60405190615aae826101ab565b600682526503330613232360d41b6020830152565b60405190615ad0826101ab565b600682526532313761313560d01b6020830152565b60405190615af2826101ab565b60048252636e6f6e6560e01b6020830152565b60405190615b12826101ab565b6006825265329a1c19b2b360d11b6020830152565b60405190615b34826101ab565b60068252653231993332b360d11b6020830152565b60018103615b905750615b5a615a7f565b90615b63615aa1565b90615b6c615ac3565b90615b75615ae5565b90615b7e615b05565b90615b87615b27565b90610a59615b27565b60028103615bd75750615ba16159f7565b90615baa615a19565b90615bb3615a3b565b90615bbc615a5d565b90615bc56159f7565b90615bce615a19565b90610a59615a3b565b60038103615c1e5750615be861594d565b90615bf1615991565b90615bfa6159b3565b90615c036159d5565b90615c0c61594d565b90615c15615991565b90610a596159b3565b600414615c3757604051633b9cb79b60e21b8152600490fd5b615c3f615909565b90615c4861592b565b90615c5161594d565b90615c5a61596f565b90615c63615909565b90615c6c61592b565b90610a5961594d565b337f00000000000000000000000000000000000000000000000000000000000000006001600160a01b03161480615cc3575b15615cbf576013193601368111612b4e573560601c90565b3390565b506014361015615ca7565b9060ff80911690615cde8261579f565b9260005b838110615cf0575050505090565b8083615cfe600193856114ed565b5116615d0a82886114ed565b5201615ce2565b908151615d1d8161579f565b9060005b818110615d2f575090925050565b60019060ff615d456000198389510301886114ed565b5116615d5182866114ed565b5201615d21565b8051615d63816112ac565b91604090615d746040519485610235565b828452615d80836112ac565b602090601f1901368683013760009260005b858110615da25750505050505090565b6001908251615db0816101fe565b603a81527f31323334353637383941424344454647484a4b4c4d4e50515253545556575859858201527f5a6162636465666768696a6b6d6e6f707172737475767778797a000000000000848201526001600160f81b031990615e209060ff615e18858a6114ed565b5116906157c7565b5116861a615e2e828a6157c7565b5301615d9256fea264697066735822122067e4934eed6e86d333d64263a5880ae73580aeef46ac0d7bfe2f2fb1f158357064736f6c63430008170033",
			"deployedBytecode": "0x6080604052600436101561001257600080fd5b60003560e01c806257bfdd146101365780631e4578de1461013157806331a290ac1461012c578063572b6c05146101275780635e703e711461012257806360b805411461011d5780636aff31dd14610118578063715018a6146101135780637da0a8771461010e578063875e4bea146101095780638da5cb5b14610104578063a0122c09146100ff578063a22d0dd5146100fa578063b03a3eab146100f5578063c06e7bc7146100f0578063c2f1f14a146100eb578063d756227e146100e65763f2fde38b146100e157600080fd5b6113cd565b6112fe565b61128e565b610c82565b610bdd565b610b98565b610a5c565b6109f9565b610868565b610823565b6107c5565b610799565b610773565b610747565b6106ef565b61056f565b610440565b610407565b90600182811c9216801561016b575b602083101461015557565b634e487b7160e01b600052602260045260246000fd5b91607f169161014a565b634e487b7160e01b600052604160045260246000fd5b602081019081106001600160401b038211176101a657604052565b610175565b604081019081106001600160401b038211176101a657604052565b61026081019081106001600160401b038211176101a657604052565b6111a081019081106001600160401b038211176101a657604052565b606081019081106001600160401b038211176101a657604052565b6101c081019081106001600160401b038211176101a657604052565b90601f801991011681019081106001600160401b038211176101a657604052565b604051906000826002549161026a8361013b565b808352926020906001908181169081156102f85750600114610297575b505061029592500383610235565b565b91509260026000527f405787fa12a823e0f2b7631cc41b3ba8828b3321ca811111fa75cd3aa3bb5ace936000925b8284106102e057506102959450505081016020013880610287565b855488850183015294850194879450928101926102c5565b9150506020925061029594915060ff191682840152151560051b8201013880610287565b9060405191826000825461032f8161013b565b9081845260209460019160018116908160001461039d575060011461035e575b50505061029592500383610235565b600090815285812095935091905b818310610385575050610295935082010138808061034f565b8554888401850152948501948794509183019161036c565b9250505061029594925060ff191682840152151560051b82010138808061034f565b60005b8381106103d25750506000910152565b81810151838201526020016103c2565b906020916103fb815180928185528580860191016103bf565b601f01601f1916010190565b3461043b57600036600319011261043b57610437610423610256565b6040519182916020835260208301906103e2565b0390f35b600080fd5b3461043b5760208060031936011261043b5761045d600435611459565b6040519283926040840190845260406020850152825180915260206060850193019160005b82811061049157505050500390f35b835185528695509381019392810192600101610482565b604051906101a082018281106001600160401b038211176101a657604052565b6001600160401b0381116101a65760051b60200190565b9080601f8301121561043b5760209082356104f9816104c8565b936105076040519586610235565b81855260208086019260051b82010192831161043b57602001905b828210610530575050505090565b81358152908301908301610522565b9181601f8401121561043b578235916001600160401b03831161043b576020808501948460051b01011161043b57565b3461043b5760408060031936011261043b576004906001600160401b03823581811161043b576105a290369085016104df565b9060243590811161043b576105ba903690850161053f565b92909180519360005b8581106105cc57005b6105d681846114ed565b516105ec6105e5838589611501565b36916112c7565b610608610603836000526004602052604060002090565b611542565b6106ce57610620826000526001602052604060002090565b5480156106be578651602081019061064a8161063c848761154c565b03601f198101835282610235565b519020036106ae57907faeb631726b45aa3f6b09da79f7af03a9784614901f61a967ed84d63c37b7edc76106a58361069860019695610693866000526004602052604060002090565b611615565b88519182913390836116ea565b0390a2016105c3565b85516375b5da0b60e01b81528990fd5b8651637ef41a4f60e01b81528a90fd5b8551630388067760e21b81528990fd5b6001600160a01b0381160361043b57565b3461043b57602036600319011261043b57602060043561070e816106de565b6040517f000000000000000000000000b2b5841dbef766d4b521221732f9b618fcf34a876001600160a01b039081169216919091148152f35b3461043b57604036600319011261043b5761043761042360043561076a816106de565b60243590611b84565b3461043b57602036600319011261043b5760206107916004356121fe565b604051908152f35b3461043b57602036600319011261043b5760043560005260016020526020604060002054604051908152f35b3461043b57600080600319360112610820576107df6150eb565b80546001600160a01b03198116825581906001600160a01b03167f8be0079c531659141344cd1fd0a4f28419497f9722a3daafe3b4186f6b6457e08280a380f35b80fd5b3461043b57600036600319011261043b576040517f000000000000000000000000b2b5841dbef766d4b521221732f9b618fcf34a876001600160a01b03168152602090f35b3461043b5760208060031936011261043b576004356001600160401b0380821161043b573660238301121561043b57816004013590811161043b57602492366024838501011161043b576108ba6150eb565b6108ce826108c960025461013b565b61157a565b600093601f831160011461094c57505061092181807f512c3c91736f50c57a0548c1d01ab02f24c420f002b8b20e2bfe63df9693cd3f9560009161093e575b508160011b916000199060031b1c19161790565b6002555b6109396040519283926024339201846122ac565b0390a1005b60249150850101353861090d565b6002600052601f19831694907f405787fa12a823e0f2b7631cc41b3ba8828b3321ca811111fa75cd3aa3bb5ace9282915b8783106109dd57505050827f512c3c91736f50c57a0548c1d01ab02f24c420f002b8b20e2bfe63df9693cd3f95106109c0575b5050600181811b01600255610925565b830160240135600019600384901b60f8161c1916905538806109b0565b908060018596848396978b01013581550195019301919061097d565b3461043b57600036600319011261043b576000546040516001600160a01b039091168152602090f35b91610a4b90610a3d610a5995936060865260608601906103e2565b9084820360208601526103e2565b9160408184039101526103e2565b90565b3461043b57604036600319011261043b57600435610a79816106de565b60405163507f146560e01b815260243591906001600160a01b03906020816004818587165afa8015610b5857610af09360009386938593610b5d575b5060405163c44a8e6d60e01b81526001600160a01b039092166004830152602482019390935260006044820152938492839182906064820190565b0392165afa908115610b5857600091610b35575b50610437610b29610b23610100610b1b8587614ada565b940151614e7b565b93614c3c565b60405193849384610a22565b610b5291503d806000833e610b4a8183610235565b81019061178b565b38610b04565b611727565b610b8091935060203d602011610b87575b610b788183610235565b810190611712565b9138610ab5565b503d610b6e565b8015150361043b57565b3461043b57608036600319011261043b57610437610423600435610bbb816106de565b604435610bc781610b8e565b60643591610bd483610b8e565b60243590612872565b3461043b57604036600319011261043b576001600160401b0360043581811161043b57610c0e9036906004016104df565b9060243590811161043b573660238201121561043b578060040135610c32816104c8565b91610c406040519384610235565b8183526020916024602085019160051b8301019136831161043b57602401905b828210610c7357610c7185876129fc565b005b81358152908301908301610c60565b3461043b57608036600319011261043b5760048035610ca0816106de565b60243590604435926064356001600160401b03811161043b57610cc6903690830161053f565b94909160018060a01b0380851694604092610cfe8451926331a9108f60e11b938481528a818060209586938883019190602083019252565b03818d5afa908115610b5857600091611271575b5085610d2b610d1f615c75565b6001600160a01b031690565b911603611261578a871561123957508551848152828180610d538b8883019190602083019252565b03818d5afa908115610b585760009161121c575b5085610d74610d1f615c75565b91160361120c57610d8487612c0f565b6111fc57855163507f146560e01b8152828185818d5afa8015610b5857610deb600091889383916111df575b50895163c44a8e6d60e01b81526001600160a01b038616888201908152602081018d9052600060408201529094859384928391606090910190565b0392165afa908115610b58576000916111c4575b5051156111b457908a93929187610e208c6000526006602052604060002090565b558a610e36896000526007602052604060002090565b55909a5093909192935b600091610e4b612a9f565b5060009b60009260005b888110610ebc578d8d7f6a68946ba06488db8585d7c7637fa954b574035fe15720ea760125ef860172588e8e610eb78f8f610ea48186610e9f8b6000526005602052604060002090565b612b53565b610eac615c75565b915194859485612bcc565b0390a3005b889e610eef848f8f908b8f928e9f8890610ed592612b10565b359e8f935195869485938493845283019190602083019252565b03915afa908115610b5857600091611197575b5085610f0f610d1f615c75565b91160361118757610f1f8a6121fe565b6111775787848f8d519283809263507f146560e01b82525afa8015610b58578b600091868f8d8b91610f8d978795611158575b505163c44a8e6d60e01b81526001600160a01b0390931690830190815260208101949094526000604085015290948593849291839160600190565b0392165afa908115610b585760009161113f575b5080511561112f576101000196875160028110908115611124575b50611114578215159081611108575b506110f857908f98979695949392918f9087518981146000146110195750509060019161100683985b519c6000526008602052604060002090565b550190919293949e509794959697610e55565b600891999a9b50809250969293949596146000146110495750509060018f989796959493928f6110068397610ff4565b979f9d9b9998979a9e9c9a6005819792971480156110ee575b80156110e4575b806110dd575b1561108457508f8f51631e550b6f60e11b8152fd5b9d9f9798999b9d9c9e9a9c600a81149081156110d2575b50806110cb575b6110bb578f98979695949392918f611006600193610ff4565b8a51635e701b2b60e01b81528890fd5b50856110a2565b60099150143861109b565b508761106f565b50600b8114611069565b5060068114611062565b8a51637dc0e82560e11b81528890fd5b90508751111538610fcb565b8b5163c89badbd60e01b81528990fd5b600d91501138610fbc565b8b516354c0901d60e11b81528990fd5b611152913d8091833e610b4a8183610235565b38610fa1565b6111709195508c8d3d10610b8757610b788183610235565b9338610f52565b8a5163670bdddd60e11b81528890fd5b8a5163812a698960e01b81528890fd5b6111ae9150853d8711610b8757610b788183610235565b38610f02565b855163265ba87960e01b81528390fd5b6111d991503d806000833e610b4a8183610235565b38610dff565b6111f69150863d8811610b8757610b788183610235565b38610db0565b855163670bdddd60e11b81528390fd5b8551639d17cec760e01b81528390fd5b6112339150833d8511610b8757610b788183610235565b38610d67565b9392919060006112538c6000526006602052604060002090565b55909a509390919293610e40565b8551632add3f4b60e01b81528390fd5b6112889150833d8511610b8757610b788183610235565b38610d12565b3461043b57602036600319011261043b576020610791600435612c0f565b6001600160401b0381116101a657601f01601f191660200190565b9291926112d3826112ac565b916112e16040519384610235565b82948184528183011161043b578281602093846000960137010152565b3461043b57604036600319011261043b576001600160401b0360043581811161043b5761132f9036906004016104df565b60249060243583811161043b573660238201121561043b57806004013592611356846104c8565b936113646040519586610235565b8085526020956024602087019260051b8501019336851161043b5760248101925b85841061139657610c718888612c50565b833583811161043b5782013660438201121561043b5789916113c28392369060448a82013591016112c7565b815201930192611385565b3461043b57602036600319011261043b576004356113ea816106de565b6113f26150eb565b6001600160a01b03908116801561144057600080546001600160a01b03198116831782559092167f8be0079c531659141344cd1fd0a4f28419497f9722a3daafe3b4186f6b6457e08380a380f35b604051631e4fbdf760e01b815260006004820152602490fd5b90600091808352602092600560205260408120936040519081602087549182815201968452602084209184905b8282106114ae57505050506114a18160409495960382610235565b9281526006602052205491565b835489529788019760019384019390910190611486565b634e487b7160e01b600052603260045260246000fd5b8051156114e85760200190565b6114c5565b80518210156114e85760209160051b010190565b91908110156114e85760051b81013590601e198136030182121561043b5701908135916001600160401b03831161043b57602001823603811361043b579190565b610a59905461013b565b9061155f602092828151948592016103bf565b0190565b81811061156e575050565b60008155600101611563565b90601f8211611587575050565b6102959160026000527f405787fa12a823e0f2b7631cc41b3ba8828b3321ca811111fa75cd3aa3bb5ace906020601f840160051c830193106115d1575b601f0160051c0190611563565b90915081906115c4565b9190601f81116115ea57505050565b610295926000526020600020906020601f840160051c830193106115d157601f0160051c0190611563565b91909182516001600160401b0381116101a65761163c81611636845461013b565b846115db565b602080601f831160011461167f57508190611670939495600092611674575b50508160011b916000199060031b1c19161790565b9055565b01519050388061165b565b90601f1983169561169585600052602060002090565b926000905b8882106116d2575050836001959697106116b9575b505050811b019055565b015160001960f88460031b161c191690553880806116af565b8060018596829496860151815501950193019061169a565b906117026020919493946040845260408401906103e2565b6001600160a01b03909416910152565b9081602091031261043b5751610a59816106de565b6040513d6000823e3d90fd5b5190610295826106de565b519061029582610b8e565b81601f8201121561043b57805161175f816112ac565b9261176d6040519485610235565b8184526020828401011161043b57610a5991602080850191016103bf565b60208183031261043b5780516001600160401b039182821161043b57016101a08184031261043b576117bb6104a8565b92815184526020820151602085015260408201516040850152606082015160608501526080820151608085015260a082015160a08501526117fe60c08301611733565b60c085015260e082015160e0850152610100808301519085015261012061182681840161173e565b9085015261014061183881840161173e565b9085015261016061184a81840161173e565b90850152610180928383015190811161043b576118679201611749565b9082015290565b6040519061187b8261018b565b60008252565b6040519061188e826101ab565b600e82526d226f7574666974496473223a205b60901b6020830152565b60236102959193929360405194816118cd8793518092602080870191016103bf565b8201601160f91b60208201526118ed8251809360206021850191016103bf565b0161088b60f21b6021820152036003810185520183610235565b906102956022604051846119258296518092602080860191016103bf565b810161174b60f21b6020820152036002810185520183610235565b602e6102959193929360405194816119628793518092602080870191016103bf565b82016b113bb7b9363224b2111d101160a11b602082015261198d825180936020602c850191016103bf565b0161088b60f21b602c82015203600e810185520183610235565b90604051918260605160005b8181106119e85750906020610295936119dc8294840191838301600081528151948592016103bf565b01038085520183610235565b60209192508060800151828288010152019084916119b3565b6020610295919392936040519481611a2287935180928680870191016103bf565b82016119dc825180938680850191016103bf565b90610295603960405180947f22776f726e42794e616b656442616e6e794964223a20220000000000000000006020830152611a7b8151809260206037860191016103bf565b810161088b60f21b6037820152036019810185520183610235565b90610295603960405180947f227573656442794e616b656442616e6e794964223a20220000000000000000006020830152611a7b8151809260206037860191016103bf565b9060208282031261043b5781516001600160401b03811161043b57610a599201611749565b9081602091031261043b575190565b9081606091031261043b5780519160406020830151920151610a59816106de565b90610295603d60405180947f646174613a6170706c69636174696f6e2f6a736f6e3b6261736536342c0000006020830152611b7481518092602086860191016103bf565b810103601d810185520183610235565b6040805163507f146560e01b808252602092916001600160a01b03919060049086841686828481845afa8015610b585789600091611c009483916121e1575b50885163c44a8e6d60e01b81526001600160a01b038c1687820190815260208101939093526000604084015294859283918a918391606090910190565b0392165afa918215610b58576000926121c6575b508151156121b557611c2461186e565b50610100820180519094901561212957611c3f83518a612fd9565b9889516120f2575b85516001036120d857611c69611c64611c5f8d612c0f565b612e2a565b611a96565b965b8a5115611fa6575050865163043c358d60e11b81529360609285925082905afa908115610b5857600092600092611f71575b50611ca8818a614ada565b988151611cb490614c3c565b948051611cc090614e7b565b91611cca90612e2a565b908351611cd690612e2a565b9051611ce190612e2a565b916060850151611cf090612e2a565b938b8b870151611cff90612e2a565b960151611d0b90612e2a565b96611d1590612e2a565b97611d1f90612e2a565b988c8c519e8f918201611d319161154c565b039d601f199e8f81018252611d469082610235565b611d4f90615002565b9b51683d913730b6b2911d1160b91b9d81019d8e529e8f9d600901611d739161154c565b7211161011383937b23ab1ba2730b6b2911d101160691b8152601301611d989161154c565b731116101131b0ba32b3b7b93ca730b6b2911d101160611b8152601401611dbe9161154c565b6e111610113a37b5b2b724b2111d101160891b8152600f01611ddf9161154c565b6a111610113ab831911d101160a91b8152600b01611dfc9161154c565b6f1116101131b0ba32b3b7b93c911d101160811b8152601001611e1e9161154c565b6d1116101139bab838363c911d101160911b8152600e01611e3e9161154c565b70111610113932b6b0b4b734b733911d101160791b8152601101611e619161154c565b6c11161011383934b1b2911d101160991b8152600d01611e809161154c565b6f111610113232b1b4b6b0b639911d101160811b8152601001611ea29161154c565b6f1116101131bab93932b731bc911d101160811b8152601001611ec49161154c565b6201116160ed1b8152600301611ed99161154c565b7f226465736372697074696f6e223a2241207069656365206f662074686520426181527f6e6e797665727365222c22696d616765223a22646174613a696d6167652f737660208201526c19cade1b5b0ed8985cd94d8d0b609a1b6040820152604d01611f449161154c565b61227d60f01b8152600201039081018252611f5f9082610235565b611f6890615002565b610a5990611b30565b909250611f96915060603d606011611f9f575b611f8e8183610235565b810190611b0f565b50909138611c9d565b503d611f84565b935093949097999550600d9196985051116000146120c9578651636c0360eb60e01b81526000818581895afa8015610b585789916000916120a6575b50965b8489518098819382525afa928315610b5857612039978996600095612087575b5051630c8df17160e41b81526001600160a01b03909316908301908152602081019490945290958693849291839160400190565b0392165afa918215610b5857610a5993600093612058575b50506147f3565b612078929350803d10612080575b6120708183610235565b810190611b00565b903880612051565b503d612066565b61209f919550873d8911610b8757610b788183610235565b9338612005565b6120c391503d806000833e6120bb8183610235565b810190611adb565b38611fe2565b876120d2610256565b96611fe5565b6120ec6120e7611c5f8d6121fe565b611a36565b96611c6b565b9861210590600187510361210b57614700565b98611c47565b6121249061211f61211a6130d9565b61463a565b611a01565b614700565b6121338a8a6126de565b9861213d8b611459565b809891985161214a611881565b906000925b81841061218a5750506121629150611907565b978061216f575b50611c6b565b9761217d6121839299612e2a565b90611940565b9638612169565b90916121ab6001916121a561219f87866114ed565b51612e2a565b906118ab565b930192919061214f565b505050505050505050610a5961186e565b6121da91923d8091833e610b4a8183610235565b9038611c14565b6121f891508a3d8c11610b8757610b788183610235565b38611bc3565b600090808252602090600860205260408320549081156122a6578184526005602052604084209260405180948591602082549182815201918852602088209388905b82821061228c5750505061225692500384610235565b825192845b84811061226a57505050505090565b8261227582846114ed565b51146122835760010161225b565b50505091505090565b855484526001958601958995509381019390910190612240565b50505090565b918060609160209396959660408652816040870152838601376000828286010152601f80199101168301019360018060a01b0316910152565b6040519061010082018281106001600160401b038211176101a65760405260dd82527f746820643d224d3138302031343768337633682d337a222f3e3c2f673e00000060e0837f3c6720636c6173733d226f223e3c7061746820643d224d31373720313430763360208201527f6836763131683130762d31316834762d33682d32307a222f3e3c70617468206460408201527f3d224d31353320313430763368377638203368372033762d31316833762d336860608201527f2d32307a222f3e3c2f673e3c6720636c6173733d2277223e3c7061746820643d60808201527f224d3135332031343368377634682d377a222f3e3c7061746820643d224d313560a08201527f372031343768337633682d337a6d32302d3468367634682d367a222f3e3c706160c08201520152565b60405190612420826101c6565b61023a82527f643d224d3139302031333768347633682d347a222f3e3c2f673e000000000000610240837f3c6720636c6173733d226f223e3c7061746820643d224d31393020313237683360208201527f7633682d337a6d3320313368347633682d347a6d2d3432203068367636682d3660408201527f7a222f3e3c7061746820643d224d3135312031333368337637682d337a6d313060608201527f203068367634682d367a222f3e3c7061746820643d224d31353720313337683160808201527f377636682d31377a6d332031336831347633682d31347a6d31372d313368377660a08201527f3136682d377a222f3e3c7061746820643d224d3138342031333768367636682d60c08201527f367a6d302031306831307636682d31307a222f3e3c7061746820643d224d313860e08201527f37203134336831307634682d31307a222f3e3c7061746820643d224d313930206101008201527f31343068337633682d337a6d2d362d313068337637682d337a222f3e3c7061746101208201527f6820643d224d3138372031333068367633682d367a6d2d3336203068313076336101408201527f682d31307a6d313620313368377637682d377a6d2d3130203068377637682d376101608201527f7a222f3e3c7061746820643d224d3136342031343768337633682d337a6d32396101808201527f2d323068347636682d347a222f3e3c7061746820643d224d31393420313333686101a08201527f337637682d337a222f3e3c2f673e3c6720636c6173733d2277223e3c706174686101c08201527f20643d224d3135342031333368377634682d377a222f3e3c7061746820643d226101e08201527f4d3135342031333768337633682d337a6d3130203668337634682d337a6d32306102008201527f203068337634682d337a6d332d313068377634682d377a222f3e3c70617468206102208201520152565b60405163507f146560e01b81526001600160a01b036020826004818685165afa918215610b585760009261284e575b5060405163c44a8e6d60e01b81526001600160a01b0384166004820152602481018590526000604482018190529092909183916064918391165afa908115610b5857600091612835575b5080511561282a5760609261010082015161280557926127bc9160016127a3612782610a5997611459565b9490801515806127fe575b6127e4575b5061279d845161512c565b90611a01565b9151036127d8576127b69061279d612413565b92615555565b80516127c9575b50614700565b6127d291611a01565b386127c3565b6127b69061279d6122e5565b6127f891506127f39088612fd9565b6119a7565b38612792565b508361278d565b5061281292505190612fd9565b80516128215750610a5961186e565b610a5990614700565b505050610a5961186e565b612848913d8091833e610b4a8183610235565b38612757565b600091925061286b9060203d602011610b8757610b788183610235565b919061270d565b60405163507f146560e01b81529390916001600160a01b036020866004818488165afa958615610b58576000966129d8575b5060405163c44a8e6d60e01b81526001600160a01b0385166004820152602481018390526000604482018190529096909187916064918391165afa948515610b58576000956129bd575b508451156129b0576060906101008601516129a057612931610a599692612916600193611459565b958115159081612998575b50612989575061279d845161512c565b915103612977576129449061279d612413565b925b612952575b5050614700565b61295b91615555565b8051612968575b8061294b565b61297191611a01565b38612962565b6129839061279d6122e5565b92612946565b6127f891506127f39087612fd9565b905038612921565b5050509050612812915190612fd9565b5050505050610a5961186e565b6129d191953d8091833e610b4a8183610235565b93386128ee565b60009196506129f59060203d602011610b8757610b788183610235565b95906128a4565b90612a056150eb565b81519060009260005b838110612a1c575050505050565b612a2681836114ed565b51612a3182856114ed565b5190808752602060018152604080892054612a8f5782917fb10eb6fc7557a7109693cb8f3fac48d44328de56c0368ee4cac539b424d2cad99185612a8360019897966000526001602052604060002090565b5551338152a301612a0e565b516333ded41b60e21b8152600490fd5b604051906101a082018281106001600160401b038211176101a657604052606061018083600080825280602083015280604083015280848301528060808301528060a08301528060c08301528060e08301528061010083015280610120830152806101408301526101608201520152565b91908110156114e85760051b0190565b634e487b7160e01b600052601160045260246000fd5b600281901b91906001600160fe1b03811603612b4e57565b612b20565b906001600160401b0383116101a6576801000000000000000083116101a6578154838355808410612bae575b50906000526020806000209060005b848110612b9c575050505050565b83358382015592810192600101612b8e565b612bc690836000528460206000209182019101611563565b38612b7f565b9081526060602082018190528101839052929392916001600160fb1b03811161043b5760409160809160051b8091838601378301019360018060a01b0316910152565b806000526007602052604060002054908115908115612c37575b50612c315790565b50600090565b9050816000526006602052604060002054141538612c29565b9190612c5a6150eb565b82516000935b818510612c6e575050509050565b612c7885826114ed565b5194612c8481856114ed565b51958060005260039660209780895260409081600020908351906001600160401b0382116101a657612cc082612cba855461013b565b856115db565b8b601f8311600114612d43575050917f9dedd219289ed514faff576c477c66bd097aef59a236e3b8ebcf0d0070cb4e969391612d1c84612d2b9560019a9b9c9d9e600091612d3857508160011b916000199060031b1c19161790565b90555b519182913390836116ea565b0390a20193929190612c60565b90508501513861090d565b909b601f198316612d5985600052602060002090565b926000905b828210612dc8575050916001999a9b9c9d8492612d2b97957f9dedd219289ed514faff576c477c66bd097aef59a236e3b8ebcf0d0070cb4e9699979510612dae575b505050881b88019055612d1f565b8601519060f884600019921b161c19169055388080612da0565b80600185968294968c01518155019501930190612d5e565b604051612dec8161018b565b60008152906000368137565b90612e02826112ac565b612e0f6040519182610235565b8281528092612e20601f19916112ac565b0190602036910137565b806000917a184f03e93ff9f4daa797ed6e38ed64bf6a1f01000000000000000080821015612f60575b506d04ee2d6d415b85acef810000000080831015612f51575b50662386f26fc1000080831015612f42575b506305f5e10080831015612f33575b5061271080831015612f24575b506064821015612f14575b600a80921015612f0a575b600190816021612ec260018701612df8565b95860101905b612ed4575b5050505090565b600019019083906f181899199a1a9b1b9c1cb0b131b232b360811b8282061a835304918215612f0557919082612ec8565b612ecd565b9160010191612eb0565b9190606460029104910191612ea5565b60049193920491019138612e9a565b60089193920491019138612e8d565b60109193920491019138612e7e565b60209193920491019138612e6c565b604093508104915038612e53565b90610295604960405180946c1e34b6b0b3b290343932b31e9160991b6020830152612fa3815180926020602d860191016103bf565b81017f222077696474683d2234303022206865696768743d22343030222f3e00000000602d820152036029810185520183610235565b612ff5612ff0836000526004602052604060002090565b61031c565b80516130d3575060405163507f146560e01b81526001600160a01b039260209283836004818489165afa908115610b58576130689585946000936130b4575b50604051632f54648f60e21b81526001600160a01b0390921660048301526024820193909352948592839182906044820190565b0392165afa8015610b5857610a599261309292600092613097575b505061308d610256565b6147f3565b612f6e565b6130ad9250803d10612080576120708183610235565b3880613083565b6130cc919350853d8711610b8757610b788183610235565b9138613034565b91505090565b604051906130e6826101e2565b61117a82527f762d31306833762d376833762d33682d31307a222f3e3c2f673e000000000000611180837f3c6720636c6173733d226131223e3c7061746820643d224d313733203533683460208201527f763137682d347a222f3e3c2f673e3c6720636c6173733d226132223e3c70617460408201527f6820643d224d3136372035376833763130682d337a222f3e3c7061746820643d60608201527f224d3136392035336834763137682d347a222f3e3c2f673e3c6720636c61737360808201527f3d226133223e3c7061746820643d224d31363720353368337634682d337a222f60a08201527f3e3c7061746820643d224d3136332035376834763130682d347a222f3e3c706160c08201527f746820643d224d31363720363768337633682d337a222f3e3c2f673e3c67206360e08201527f6c6173733d226231223e3c7061746820643d224d32313320323533682d33762d6101008201527f332d33682d33762d372d33682d34762d3130682d33762d372d372d33682d33766101208201527f2d3733682d34762d3130682d33762d3130682d33762d37682d34762d37682d336101408201527f762d33682d33762d33682d3476313068347631306833763130683376336834766101608201527f37203320373020336833763768337632306834763768337633683376336834766101808201527f34683376336833762d332d347a222f3e3c7061746820643d224d3235332033306101a08201527f37762d34682d33762d33682d33762d33682d34762d34682d33762d33682d33766101c08201527f2d33682d34762d34682d33762d33682d33762d33682d34762d34682d33762d366101e08201527f682d33762d37682d3476313768347633683376336833203476346833763368336102008201527f76336834763468337633683376336834763468337633683376336834762d36686102208201527f2d347a222f3e3c2f673e3c6720636c6173733d226232223e3c7061746820643d6102408201527f224d32353020333130762d33682d33762d34682d34762d33682d33762d33682d6102608201527f33762d34682d34762d33682d33762d33682d33762d34682d37762d33682d33766102808201527f2d33682d34762d3137682d33762d33682d33762d34682d34762d33682d33762d6102a08201527f33682d33762d37682d34762d3230682d33762d37682d33762d37332d332d37686102c08201527f2d34762d33682d33762d3130682d33762d3130682d34563730682d33762d336c6102e08201527f2d332031303020332d313030763430682d33763130682d347636682d337631346103008201527f682d337633203133682d347634346834763136683376313468337631336834766103208201527f31306833763768337633683476336833763468337633683476336833763468336103408201527f76336834763368337637683776376836763368377633683776346831337633686103608201527f337633683130762d33682d337a6d2d3130332d3837762d31366833762d3130686103808201527f2d337636682d34763137682d337631306833762d3768347a222f3e3c706174686103a08201527f20643d224d3134332032333068347637682d347a6d3420313068337633682d336103c08201527f7a6d33203768337633682d337a6d33203668347634682d347a222f3e3c7061746103e08201527f6820643d224d31363320323537682d36763368337633683376346834762d342d6104008201527f33682d34762d337a222f3e3c2f673e3c6720636c6173733d226233223e3c70616104208201527f746820643d224d3134332031393776366834762d366836762d34346834762d316104408201527f366833762d31346833762d366834762d31306833563937682d377636682d33766104608201527f34682d337633682d347633682d3376342033682d3376332034682d34763130686104808201527f2d337631362034682d337634366833762d3668337a222f3e3c7061746820643d6104a08201527f224d313430203230336833763137682d337a222f3e3c7061746820643d224d316104c08201527f3337203232306833763130682d337a222f3e3c7061746820643d224d313533206104e08201527f323530682d33762d37682d33762d36682d34762d37682d3376313068337637686105008201527f347636683376346833762d377a6d2d3320313068337637682d337a222f3e3c706105208201527f61746820643d224d3134372032353768337633682d337a6d36203068347633686105408201527f2d347a222f3e3c7061746820643d224d31363020323633762d33682d337633206105608201527f376836762d37682d337a6d2d31302d3536763136682d337637683376313068336105808201527f763768347636683676346837762d342d33682d33762d3130682d34762d3133686105a08201527f2d33762d3134682d33762d3136682d34763130682d337a222f3e3c70617468206105c08201527f643d224d32343320333133762d33682d33762d33682d31302d33762d34682d376105e08201527f762d33682d37762d33682d36762d37682d37762d37682d33762d33682d34762d6106008201527f33682d33762d34682d33762d33682d34762d33682d33762d34682d33762d33686106208201527f2d34762d33682d33763130682d337633682d347633682d3376376833763768346106408201527f76366833763568347633683676336833763368342033763368332034763368336106608201527f20337634683130763368372037203376336831302033762d33683130762d33686106808201527f34762d34682d31347a222f3e3c2f673e3c6720636c6173733d226234223e3c706106a08201527f61746820643d224d3138332031333068347637682d347a222f3e3c70617468206106c08201527f643d224d3138302031323768337633682d337a6d2d32372d3468347637682d346106e08201527f7a222f3e3c7061746820643d224d3135372031313768337636682d337a222f3e6107008201527f3c7061746820643d224d3136302031313068337637682d337a222f3e3c7061746107208201527f6820643d224d3136332031303768347633682d347a6d2d3320383368337637686107408201527f2d337a222f3e3c7061746820643d224d3136332031383768347633682d347a6d6107608201527f3230203068377633682d377a222f3e3c7061746820643d224d313830203139306107808201527f68337633682d337a6d31302d3768337634682d337a222f3e3c7061746820643d6107a08201527f224d3139332031383768347636682d347a6d2d323020353368347637682d347a6107c08201527f222f3e3c7061746820643d224d3137372032343768337636682d337a222f3e3c6107e08201527f7061746820643d224d3138302032353368337637682d337a222f3e3c706174686108008201527f20643d224d3138332032363068377633682d377a222f3e3c7061746820643d226108208201527f4d3139302032363368337634682d337a6d302d323068337634682d337a222f3e6108408201527f3c7061746820643d224d3138372032343068337633682d337a222f3e3c7061746108608201527f6820643d224d3139302032333768337633682d337a6d313320323368347633686108808201527f2d347a222f3e3c7061746820643d224d3230372032363368337637682d337a226108a08201527f2f3e3c7061746820643d224d3231302032373068337633682d337a6d2d3130206108c08201527f3768337636682d337a222f3e3c7061746820643d224d323033203238336834766108e08201527f37682d347a222f3e3c7061746820643d224d3230372032393068367633682d366109008201527f7a222f3e3c2f673e3c6720636c6173733d226f223e3c7061746820643d224d316109208201527f3333203135376834763530682d347a6d302036336834763130682d347a6d32376109408201527f2d3136336833763130682d337a222f3e3c7061746820643d224d3136332035336109608201527f68347634682d347a222f3e3c7061746820643d224d31363720353068313076336109808201527f682d31307a222f3e3c7061746820643d224d3137372035336833763137682d336109a08201527f7a222f3e3c7061746820643d224d3137332037306834763237682d347a6d2d366109c08201527f20306833763237682d337a222f3e3c7061746820643d224d31363320363768346109e08201527f7633682d347a6d3020333068347633682d347a222f3e3c7061746820643d224d610a008201527f3136302031303068337633682d337a222f3e3c7061746820643d224d31353720610a208201527f31303368337634682d337a222f3e3c7061746820643d224d3135332031303768610a408201527f347633682d347a222f3e3c7061746820643d224d313530203131306833763368610a608201527f2d337a222f3e3c7061746820643d224d3134372031313368337637682d337a22610a808201527f2f3e3c7061746820643d224d3134332031323068347637682d347a222f3e3c70610aa08201527f61746820643d224d313430203132376833763130682d337a222f3e3c70617468610ac08201527f20643d224d313337203133376833763230682d337a6d35362d31306834763130610ae08201527f682d347a222f3e3c7061746820643d224d313930203131376833763130682d33610b008201527f7a222f3e3c7061746820643d224d3138372031313068337637682d337a222f3e610b208201527f3c7061746820643d224d3138332031303368347637682d347a222f3e3c706174610b408201527f6820643d224d3138302031303068337633682d337a222f3e3c7061746820643d610b608201527f224d31373720393768337633682d337a6d2d3430203130366833763137682d33610b808201527f7a6d302032376833763130682d337a6d313020333068337637682d337a222f3e610ba08201527f3c7061746820643d224d31353020323537762d34682d33762d36682d34762d37610bc08201527f682d3376313068337631306834762d3368337a222f3e3c7061746820643d224d610be08201527f3135302032353768337633682d337a222f3e3c7061746820643d224d31363320610c008201527f323733762d33682d36762d3130682d347637682d337633683376336834763768610c208201527f33762d3768337a222f3e3c7061746820643d224d313633203236376834763368610c408201527f2d347a222f3e3c7061746820643d224d31373020323537682d332d3476336834610c608201527f76376833762d31307a222f3e3c7061746820643d224d31353720323533683676610c808201527f34682d367a222f3e3c7061746820643d224d3135332032343768347636682d34610ca08201527f7a222f3e3c7061746820643d224d3135302032343068337637682d337a222f3e610cc08201527f3c7061746820643d224d313437203233306833763130682d337a6d3133203530610ce08201527f68337637682d337a222f3e3c7061746820643d224d3134332032323368347637610d008201527f682d347a222f3e3c7061746820643d224d313437203230376833763136682d33610d208201527f7a222f3e3c7061746820643d224d313530203139376833763130682d337a6d2d610d408201527f3130203068337636682d337a6d35302031313368377633682d377a6d32332031610d608201527f306831377633682d31377a222f3e3c7061746820643d224d3233302033323368610d808201527f31337634682d31337a222f3e3c7061746820643d224d32343320333230683130610da08201527f7633682d31307a222f3e3c7061746820643d224d323533203331376834763368610dc08201527f2d347a222f3e3c7061746820643d224d323537203330376833763130682d337a610de08201527f222f3e3c7061746820643d224d3235332033303368347634682d347a222f3e3c610e008201527f7061746820643d224d3235302033303068337633682d337a222f3e3c70617468610e208201527f20643d224d3234372032393768337633682d337a222f3e3c7061746820643d22610e408201527f4d3234332032393368347634682d347a222f3e3c7061746820643d224d323430610e608201527f2032393068337633682d337a222f3e3c7061746820643d224d32333720323837610e808201527f68337633682d337a222f3e3c7061746820643d224d3233332032383368347634610ea08201527f682d347a222f3e3c7061746820643d224d3233302032383068337633682d337a610ec08201527f222f3e3c7061746820643d224d3232372032373768337633682d337a222f3e3c610ee08201527f7061746820643d224d3232332032373368347634682d347a222f3e3c70617468610f008201527f20643d224d3232302032363768337636682d337a222f3e3c7061746820643d22610f208201527f4d3231372032363068337637682d337a222f3e3c7061746820643d224d323133610f408201527f2032353368347637682d347a222f3e3c7061746820643d224d32313020323437610f608201527f68337636682d337a222f3e3c7061746820643d224d3230372032333768337631610f808201527f30682d337a222f3e3c7061746820643d224d323033203232376834763130682d610fa08201527f347a6d2d343020363068347636682d347a6d323420323068337633682d337a22610fc08201527f2f3e3c7061746820643d224d3136372032393368337635682d337a6d31362031610fe08201527f3468347633682d347a222f3e3c7061746820643d224d313730203239386834766110008201527f33682d347a6d3130203668337633682d337a222f3e3c7061746820643d224d316110208201527f37342033303168367633682d367a6d323320313268367634682d367a222f3e3c6110408201527f7061746820643d224d323033203331376831307633682d31307a6d2d322d31306110608201527f37762d3733682d3476373368337631376833762d3137682d327a222f3e3c2f676110808201527f3e3c6720636c6173733d226f223e3c7061746820643d224d31383720333037766110a08201527f2d346833762d36682d33762d34682d34762d33682d33762d33682d37762d34686110c08201527f2d367634682d3476336834763237682d34763133682d33763130682d347637686110e08201527f3476336833203130203134762d33682d34762d34682d33762d33682d33762d336111008201527f682d34762d376834762d31306833762d376833762d336837762d33682d337a6d6111208201527f3136203130762d34682d36763137682d34763130682d337637683376336834206111408201527f3620342033203134762d33682d34762d34682d37762d33682d33762d33682d336111608201520152565b90610295609a60405180947f3c7374796c653e2e6f7b66696c6c3a233830383038303b7d2e62327b66696c6c60208301527f3a6e6f6e653b7d2e62337b66696c6c3a6e6f6e653b7d2e62347b66696c6c3a6e60408301527f6f6e653b7d2e61317b66696c6c3a6e6f6e653b7d2e61327b66696c6c3a6e6f6e60608301527f653b7d2e61337b66696c6c3a6e6f6e653b7d3c2f7374796c653e00000000000060808301526146f081518092602086860191016103bf565b810103607a810185520183610235565b9061029560ba60405180947f3c7376672077696474683d2234303022206865696768743d223430302220766960208301527f6577426f783d223020302034303020343030222066696c6c3d226e6f6e65222060408301527f786d6c6e733d22687474703a2f2f7777772e77332e6f72672f323030302f737660608301527f67223e3c7374796c653e2e6f7b66696c6c3a233035303530353b7d2e777b666960808301527336361d11b31cb31cb31c9dbe9e17b9ba3cb6329f60611b60a08301526147d481518092602060b4860191016103bf565b8101651e17b9bb339f60d11b60b482015203609a810185520183610235565b90610a5990614821604051602092609160f51b8483015260228201526022815261481c816101fe565b6157d8565b92604051938161483a86935180928680870191016103bf565b820161484e825180938680850191016103bf565b01038084520182610235565b906102956021604051846148788296518092602080860191016103bf565b8101600160fd1b6020820152036001810185520183610235565b610295916148e89493602b926040519687936020926148b98151809286808a0191016103bf565b85016148cd825180938680850191016103bf565b0191602f60f81b8184015283519384916021850191016103bf565b01692072656d61696e696e6760b01b602182015203600b810185520183610235565b603790610295929493604051958261492c8894518092602080880191016103bf565b83016b0101429a7a6221027aaaa14960a51b6020820152614957825180936020602c850191016103bf565b01602f60f81b602c820152614976825180936020602d850191016103bf565b01692072656d61696e696e6760b01b602d820152036017810185520183610235565b610295916149ed94936021926040519687936020926149bf8151809286808a0191016103bf565b85016149d3825180938680850191016103bf565b0191602f60f81b81840152835193849187850191016103bf565b01036001810185520183610235565b90610295602360405184614a1a8296518092602080860191016103bf565b8101620101d160ed1b6020820152036003810185520183610235565b6021610295919392936040519481614a588793518092602080870191016103bf565b8201614a6d82518093602080850191016103bf565b01600160fd1b6020820152036001810185520183610235565b6025610295919392936040519481614aa88793518092602080870191016103bf565b820164555043202360d81b6020820152614acb82518093602087850191016103bf565b01036005810185520183610235565b90614b26610a5992633b9aca00614af9614af48551614c3c565b61485a565b91068015614b625790614b0e614b2192612e2a565b614b1b6060860151612e2a565b91614998565b6149fc565b90614b35610100820151614e7b565b8051614b4d575b50614b479051612e2a565b90614a86565b614b5b90614b479293614a36565b9190614b3c565b50604083019081518015600014614b945750614b81614b219251612e2a565b614b8e6060860151612e2a565b9161490a565b614b219250614ba290612e2a565b614baf6060860151612e2a565b91614892565b60405190614bc2826101ab565b600882526713dc9a59da5b985b60c21b6020830152565b60405190614be6826101ab565b60068252654f72616e676560d01b6020830152565b60405190614c08826101ab565b600482526350696e6b60e01b6020830152565b60405190614c28826101ab565b600582526420b634b2b760d91b6020830152565b60018103614c4d5750610a59614c1b565b60028103614c5e5750610a59614bfb565b60038103614c6f5750610a59614bd9565b60048103614c805750610a59614bb5565b6000526003602052610a59604060002061031c565b60405190614ca2826101ab565b6007825266546f7070696e6760c81b6020830152565b60405190614cc5826101ab565b6004825263119a5cdd60e21b6020830152565b60405190614ce5826101ab565b600b82526a5375697420626f74746f6d60a81b6020830152565b60405190614d0c826101ab565b600882526705375697420746f760c41b6020830152565b60405190614d30826101ab565b600482526314dd5a5d60e21b6020830152565b60405190614d50826101ab565b60048252631219585960e21b6020830152565b60405190614d70826101ab565b600882526704865616420746f760c41b6020830152565b60405190614d94826101ab565b600582526409adeeae8d60db1b6020830152565b60405190614db5826101ab565b6007825266476c617373657360c81b6020830152565b60405190614dd8826101ab565b60088252674e65636b6c61636560c01b6020830152565b60405190614dfc826101ab565b60048252634c65677360e01b6020830152565b60405190614e1c826101ab565b60088252674261636b7369646560c01b6020830152565b60405190614e40826101ab565b600582526415dbdc9b1960da1b6020830152565b60405190614e61826101ab565b600b82526a4e616b65642042616e6e7960a81b6020830152565b80614e895750610a59614e54565b60018103614e9a5750610a59614e33565b60028103614eab5750610a59614e0f565b60078103614ebc5750610a59614def565b60038103614ecd5750610a59614dcb565b60058103614ede5750610a59614da8565b60068103614eef5750610a59614d87565b600b8103614f005750610a59614d63565b60048103614f115750610a59614d43565b60088103614f225750610a59614d23565b600a8103614f335750610a59614cff565b60098103614f445750610a59614cd8565b600c8103614f555750610a59614cb8565b600d14614f6457610a5961186e565b610a59614c95565b60405190614f79826101fe565b604082527f6768696a6b6c6d6e6f707172737475767778797a303132333435363738392b2f6040837f4142434445464748494a4b4c4d4e4f505152535455565758595a61626364656660208201520152565b9060028201809211612b4e57565b9060208201809211612b4e57565b9060018201809211612b4e57565b91908201809211612b4e57565b8051156150e257615011614f6c565b61502d6150286150218451614fcb565b6003900490565b612b36565b9161503f61503a84614fd9565b612df8565b92835280815182019060208501935b8282106150905750505060039051068060011461507f57600214615070575090565b603d60f81b6000199091015290565b50613d3d60f01b6001199091015290565b9091936004906003809401938451600190603f9082828260121c16880101518553828282600c1c16880101518386015382828260061c168801015160028601531685010151908201530193919061504e565b50610a5961186e565b6000546001600160a01b0390811681615102615c75565b160361510b5750565b602490615116615c75565b60405163118cdaa760e01b815291166004820152fd5b61513590615b49565b926151449695969291926130d9565b9460405197889760208901703c7374796c653e2e62317b66696c6c3a2360781b90528051908160318b01916020019161517c926103bf565b8801603181016b3b7d2e62327b66696c6c3a2360a01b905281519182603d830191602001916151aa926103bf565b01603d81016b3b7d2e62337b66696c6c3a2360a01b9052815191826049830191602001916151d7926103bf565b01604981016151f4906b3b7d2e62347b66696c6c3a2360a01b9052565b6055016152009161154c565b6b3b7d2e61317b66696c6c3a2360a01b8152600c0161521e9161154c565b6b3b7d2e61327b66696c6c3a2360a01b8152600c0161523c9161154c565b6b3b7d2e61337b66696c6c3a2360a01b8152600c0161525a9161154c565b691dbe9e17b9ba3cb6329f60b11b8152600a016152769161154c565b03601f1981018252610a599082610235565b6040519061529582610219565b61019c82527f6820643d224d3139332031373068347633682d347a222f3e3c2f673e000000006101a0837f3c6720636c6173733d226f223e3c7061746820643d224d31393020313733682d60208201527f3337762d33682d3130762d34682d36763468337633682d33763468367633683160408201527f307634683337762d346833762d33682d33762d347a6d2d34302034682d33762d60608201527f34683376347a6d372033762d3368337633682d337a6d362030762d336834763360808201527f682d347a6d372030762d3368337633682d337a6d372030762d3368337633682d60a08201527f337a6d31302030682d34762d33683476337a222f3e3c7061746820643d224d3160c08201527f39302031373068337633682d337a222f3e3c7061746820643d224d313933203160e08201527f363668347634682d347a6d30203768347634682d347a222f3e3c2f673e3c67206101008201527f636c6173733d2277223e3c7061746820643d224d3133372031373068337633686101208201527f2d337a6d3130203368337634682d337a6d3130203468337633682d337a6d36206101408201527f3068347633682d347a6d37203068337633682d337a6d37203068337633682d336101608201527f7a6d36203068347633682d347a6d372d3468337634682d337a222f3e3c7061746101808201520152565b6040519060c082018281106001600160401b038211176101a65760405260818252601f60f91b60a0837f3c6720636c6173733d226f223e3c7061746820643d224d31383320313630762d60208201527f34682d32307634682d33763368337634683234762d37682d347a6d2d3133203360408201527f762d336831307633682d31307a222066696c6c3d2223616437316338222f3e3c60608201527f7061746820643d224d313730203136306831307633682d31307a222f3e3c2f6760808201520152565b91906060928151600091828394879361556d81614fe7565b955b868110615580575050505050505050565b818110156157675761559281846114ed565b516040805163507f146560e01b8152600491906001600160a01b036020808386818e86165afa918215610b585761560d9560009588958e948896615748575b50505163c44a8e6d60e01b81526001600160a01b0390931690830190815260208101949094526000604085015290948593849291839160600190565b0392165afa8015610b58576101009160009161572f575b500151965b6003888114969087156156fd575050506001946156468288612fd9565b995b60068981036156c6575050600a6001985b11806156bc575b6156a2575b8115159081615699575b50615681575b5060010196949661556f565b6001919a61279d6156929288612fd9565b9990615675565b9050153861566f565b986156ad919b611a01565b996156b661186e565b98615665565b5089511515615660565b89919911806156f5575b6156dd575b600a90615659565b97509a6156ec9061279d615490565b9a6001976156d5565b5088156156d0565b899b9197929b1180615727575b156156485795509a61571e9061279d615288565b9a600195615648565b50861561570a565b615742913d8091833e610b4a8183610235565b38615624565b61575f929650803d10610b8757610b788183610235565b9338806155d1565b600e95600090615629565b604051906105e082018281106001600160401b038211176101a657604052602e82526105c0366020840137565b906157a9826104c8565b6157b66040519182610235565b8281528092612e20601f19916104c8565b9081518110156114e8570160200190565b908151156158ff576157e8615772565b9160009060006157f7856114db565b526001918151916000925b808410615828575050505061581e61582391610a599394615cce565b615d11565b615d58565b9091929461585961585361584d61583f89876157c7565b516001600160f81b03191690565b60f81c90565b60ff1690565b9184925b60ff90898289168610156158be576001929161589261588c6158536158858a615898966114ed565b5160ff1690565b60081b90565b90614ff5565b6158b58b6158ad88603a9586860616926114ed565b9060ff169052565b0493019261585d565b50919594935050809691965b6158d8575060010192615802565b9460ff6001603a926158f583858b06166158ad8d868516906114ed565b01169504806158ca565b9050610a59612de0565b60405190615916826101ab565b600682526506666653930360d41b6020830152565b60405190615938826101ab565b600682526506666633730360d41b6020830152565b6040519061595a826101ab565b600682526566336136303360d01b6020830152565b6040519061597c826101ab565b600682526539363561316160d01b6020830152565b6040519061599e826101ab565b600682526533331bb1981960d11b6020830152565b604051906159c0826101ab565b600682526506664333630360d41b6020830152565b604051906159e2826101ab565b600682526518cccc994c1960d21b6020830152565b60405190615a04826101ab565b600682526566666438633560d01b6020830152565b60405190615a26826101ab565b600682526566663936613960d01b6020830152565b60405190615a48826101ab565b600682526533329a9c1c3160d11b6020830152565b60405190615a6a826101ab565b600682526563393266343560d01b6020830152565b60405190615a8c826101ab565b600682526536376437353760d01b6020830152565b60405190615aae826101ab565b600682526503330613232360d41b6020830152565b60405190615ad0826101ab565b600682526532313761313560d01b6020830152565b60405190615af2826101ab565b60048252636e6f6e6560e01b6020830152565b60405190615b12826101ab565b6006825265329a1c19b2b360d11b6020830152565b60405190615b34826101ab565b60068252653231993332b360d11b6020830152565b60018103615b905750615b5a615a7f565b90615b63615aa1565b90615b6c615ac3565b90615b75615ae5565b90615b7e615b05565b90615b87615b27565b90610a59615b27565b60028103615bd75750615ba16159f7565b90615baa615a19565b90615bb3615a3b565b90615bbc615a5d565b90615bc56159f7565b90615bce615a19565b90610a59615a3b565b60038103615c1e5750615be861594d565b90615bf1615991565b90615bfa6159b3565b90615c036159d5565b90615c0c61594d565b90615c15615991565b90610a596159b3565b600414615c3757604051633b9cb79b60e21b8152600490fd5b615c3f615909565b90615c4861592b565b90615c5161594d565b90615c5a61596f565b90615c63615909565b90615c6c61592b565b90610a5961594d565b337f000000000000000000000000b2b5841dbef766d4b521221732f9b618fcf34a876001600160a01b03161480615cc3575b15615cbf576013193601368111612b4e573560601c90565b3390565b506014361015615ca7565b9060ff80911690615cde8261579f565b9260005b838110615cf0575050505090565b8083615cfe600193856114ed565b5116615d0a82886114ed565b5201615ce2565b908151615d1d8161579f565b9060005b818110615d2f575090925050565b60019060ff615d456000198389510301886114ed565b5116615d5182866114ed565b5201615d21565b8051615d63816112ac565b91604090615d746040519485610235565b828452615d80836112ac565b602090601f1901368683013760009260005b858110615da25750505050505090565b6001908251615db0816101fe565b603a81527f31323334353637383941424344454647484a4b4c4d4e50515253545556575859858201527f5a6162636465666768696a6b6d6e6f707172737475767778797a000000000000848201526001600160f81b031990615e209060ff615e18858a6114ed565b5116906157c7565b5116861a615e2e828a6157c7565b5301615d9256fea264697066735822122067e4934eed6e86d333d64263a5880ae73580aeef46ac0d7bfe2f2fb1f158357064736f6c63430008170033",
			"devdoc": {
				"kind": "dev",
				"methods": {
					"assetIdsOf(uint256)": {
						"params": {
							"nakedBannyId": "The ID of the naked banny shows with the associated assets."
						},
						"returns": {
							"outfitIds": "The outfits attached to the Naked Banny.",
							"worldId": "The world attached to the Naked Banny."
						}
					},
					"constructor": {
						"params": {
							"owner": "The owner allowed to add SVG files that correspond to product IDs.",
							"trustedForwarder": "The trusted forwarder for the ERC2771Context."
						}
					},
					"decorateBannyWith(address,uint256,uint256,uint256[])": {
						"details": "The caller must own the naked banny being dressed and all outfits being worn.",
						"params": {
							"hook": "The hook storing the assets.",
							"nakedBannyId": "The ID of the Naked Banny being dressed.",
							"outfitIds": "The IDs of the outfits that'll be associated with the specified banny. Only one outfit per outfit category allowed at a time and they must be passed in order.",
							"worldId": "The ID of the world that'll be associated with the specified banny."
						}
					},
					"isTrustedForwarder(address)": {
						"details": "Indicates whether any particular address is the trusted forwarder."
					},
					"namesOf(address,uint256)": {
						"params": {
							"hook": "The hook storing the assets.",
							"tokenId": "The ID of the token to show."
						},
						"returns": {
							"_0": "fullName The full name of the token.",
							"_1": "categoryName The name of the token's category.",
							"_2": "productName The name of the token's product."
						}
					},
					"owner()": {
						"details": "Returns the address of the current owner."
					},
					"renounceOwnership()": {
						"details": "Leaves the contract without owner. It will not be possible to call `onlyOwner` functions. Can only be called by the current owner. NOTE: Renouncing ownership will leave the contract without an owner, thereby disabling any functionality that is only available to the owner."
					},
					"setProductNames(uint256[],string[])": {
						"params": {
							"names": "The names of the products.",
							"upcs": "The universal product codes of the products having their name stored."
						}
					},
					"setSvgContentsOf(uint256[],string[])": {
						"params": {
							"svgContents": "The svg contents being stored, not including the parent <svg></svg> element.",
							"upcs": "The universal product codes of the products having SVGs stored."
						}
					},
					"setSvgHashsOf(uint256[],bytes32[])": {
						"details": "This allows anyone to lazily upload the correct svg file.",
						"params": {
							"svgHashs": "The svg hashes being stored, not including the parent <svg></svg> element.",
							"upcs": "The universal product codes of the products having SVG hashes stored."
						}
					},
					"svgOf(address,uint256,bool,bool)": {
						"params": {
							"hook": "The hook storing the assets.",
							"shouldDressNakedBanny": "Whether the naked banny should be dressed.",
							"shouldIncludeWorldOnNakedBanny": "Whether the world should be included on the naked banny.",
							"tokenId": "The ID of the token to show. If the ID belongs to a Naked Banny, it will be shown with its current outfits in its current world if specified."
						},
						"returns": {
							"_0": "svg The SVG."
						}
					},
					"tokenUriOf(address,uint256)": {
						"params": {
							"tokenId": "The ID of the token to show. If the ID belongs to a Naked Banny, it will be shown with its current outfits in its current world."
						},
						"returns": {
							"_0": "tokenUri The URI representing the SVG."
						}
					},
					"transferOwnership(address)": {
						"details": "Transfers ownership of the contract to a new account (`newOwner`). Can only be called by the current owner."
					},
					"trustedForwarder()": {
						"details": "Returns the address of the trusted forwarder."
					},
					"userOf(uint256)": {
						"params": {
							"worldId": "The ID of the world being used."
						},
						"returns": {
							"_0": "The ID of the naked banny using the world."
						}
					},
					"wearerOf(uint256)": {
						"params": {
							"outfitId": "The ID of the outfit being worn."
						},
						"returns": {
							"_0": "The ID of the naked banny wearing the outfit."
						}
					}
				},
				"version": 1
			},
			"userdoc": {
				"kind": "user",
				"methods": {
					"assetIdsOf(uint256)": {
						"notice": "The assets currently attached to each Naked Banny, owned by the naked Banny's owner."
					},
					"decorateBannyWith(address,uint256,uint256,uint256[])": {
						"notice": "Dress your Naked Banny with outfits."
					},
					"namesOf(address,uint256)": {
						"notice": "Returns the name of the token."
					},
					"setProductNames(uint256[],string[])": {
						"notice": "Allows the owner to set the product's name."
					},
					"setSvgBaseUri(string)": {
						"notice": "Allows the owner of this contract to specify the base of the domain hosting the SVG files."
					},
					"setSvgContentsOf(uint256[],string[])": {
						"notice": "The owner of this contract can store SVG files for product IDs."
					},
					"setSvgHashsOf(uint256[],bytes32[])": {
						"notice": "Allows the owner of this contract to upload the hash of an svg file for a universal product code."
					},
					"svgBaseUri()": {
						"notice": "The base of the domain hosting the SVG files that can be lazily uploaded to the contract."
					},
					"svgHashOf(uint256)": {
						"notice": "The Naked Banny and outfit SVG hash files."
					},
					"svgOf(address,uint256,bool,bool)": {
						"notice": "Returns the SVG showing either a naked banny with/without outfits and a world, or the stand alone outfit or world."
					},
					"tokenUriOf(address,uint256)": {
						"notice": "Returns the SVG showing a dressed Naked Banny in a world."
					},
					"userOf(uint256)": {
						"notice": "Checks to see which naked banny is currently using a particular world."
					},
					"wearerOf(uint256)": {
						"notice": "Checks to see which naked banny is currently wearing a particular outfit."
					}
				},
				"version": 1
			},
			"gitCommit": "7e5b7b81eac42d066603dfe4106acdb58f4432e2",
			"sourceName": "src/Banny721TokenUriResolver.sol",
			"chainId": "84532",
			"linkReferences": {},
			"deployedLinkReferences": {}
		},
		{
			"_format": "sphinx-sol-ct-artifact-1",
			"merkleRoot": "0xe07565508cca32786396bf986a6d649bfe1c1ebcec72b71a5deb3dc96679d083",
			"contractName": "Banny721TokenUriResolver",
			"address": "0x52Aac9458dc797d48aF2B9f0904eaa990dB17787",
			"abi": [
				{
					"type": "constructor",
					"inputs": [
						{
							"name": "owner",
							"type": "address",
							"internalType": "address"
						},
						{
							"name": "trustedForwarder",
							"type": "address",
							"internalType": "address"
						}
					],
					"stateMutability": "nonpayable"
				},
				{
					"type": "function",
					"name": "assetIdsOf",
					"inputs": [
						{
							"name": "hook",
							"type": "address",
							"internalType": "address"
						},
						{
							"name": "nakedBannyId",
							"type": "uint256",
							"internalType": "uint256"
						}
					],
					"outputs": [
						{
							"name": "worldId",
							"type": "uint256",
							"internalType": "uint256"
						},
						{
							"name": "outfitIds",
							"type": "uint256[]",
							"internalType": "uint256[]"
						}
					],
					"stateMutability": "view"
				},
				{
					"type": "function",
					"name": "decorateBannyWith",
					"inputs": [
						{
							"name": "hook",
							"type": "address",
							"internalType": "address"
						},
						{
							"name": "nakedBannyId",
							"type": "uint256",
							"internalType": "uint256"
						},
						{
							"name": "worldId",
							"type": "uint256",
							"internalType": "uint256"
						},
						{
							"name": "outfitIds",
							"type": "uint256[]",
							"internalType": "uint256[]"
						}
					],
					"outputs": [],
					"stateMutability": "nonpayable"
				},
				{
					"type": "function",
					"name": "isTrustedForwarder",
					"inputs": [
						{
							"name": "forwarder",
							"type": "address",
							"internalType": "address"
						}
					],
					"outputs": [
						{
							"name": "",
							"type": "bool",
							"internalType": "bool"
						}
					],
					"stateMutability": "view"
				},
				{
					"type": "function",
					"name": "namesOf",
					"inputs": [
						{
							"name": "hook",
							"type": "address",
							"internalType": "address"
						},
						{
							"name": "tokenId",
							"type": "uint256",
							"internalType": "uint256"
						}
					],
					"outputs": [
						{
							"name": "",
							"type": "string",
							"internalType": "string"
						},
						{
							"name": "",
							"type": "string",
							"internalType": "string"
						},
						{
							"name": "",
							"type": "string",
							"internalType": "string"
						}
					],
					"stateMutability": "view"
				},
				{
					"type": "function",
					"name": "owner",
					"inputs": [],
					"outputs": [
						{
							"name": "",
							"type": "address",
							"internalType": "address"
						}
					],
					"stateMutability": "view"
				},
				{
					"type": "function",
					"name": "renounceOwnership",
					"inputs": [],
					"outputs": [],
					"stateMutability": "nonpayable"
				},
				{
					"type": "function",
					"name": "setProductNames",
					"inputs": [
						{
							"name": "upcs",
							"type": "uint256[]",
							"internalType": "uint256[]"
						},
						{
							"name": "names",
							"type": "string[]",
							"internalType": "string[]"
						}
					],
					"outputs": [],
					"stateMutability": "nonpayable"
				},
				{
					"type": "function",
					"name": "setSvgBaseUri",
					"inputs": [
						{
							"name": "baseUri",
							"type": "string",
							"internalType": "string"
						}
					],
					"outputs": [],
					"stateMutability": "nonpayable"
				},
				{
					"type": "function",
					"name": "setSvgContentsOf",
					"inputs": [
						{
							"name": "upcs",
							"type": "uint256[]",
							"internalType": "uint256[]"
						},
						{
							"name": "svgContents",
							"type": "string[]",
							"internalType": "string[]"
						}
					],
					"outputs": [],
					"stateMutability": "nonpayable"
				},
				{
					"type": "function",
					"name": "setSvgHashsOf",
					"inputs": [
						{
							"name": "upcs",
							"type": "uint256[]",
							"internalType": "uint256[]"
						},
						{
							"name": "svgHashs",
							"type": "bytes32[]",
							"internalType": "bytes32[]"
						}
					],
					"outputs": [],
					"stateMutability": "nonpayable"
				},
				{
					"type": "function",
					"name": "svgBaseUri",
					"inputs": [],
					"outputs": [
						{
							"name": "",
							"type": "string",
							"internalType": "string"
						}
					],
					"stateMutability": "view"
				},
				{
					"type": "function",
					"name": "svgHashOf",
					"inputs": [
						{
							"name": "upc",
							"type": "uint256",
							"internalType": "uint256"
						}
					],
					"outputs": [
						{
							"name": "",
							"type": "bytes32",
							"internalType": "bytes32"
						}
					],
					"stateMutability": "view"
				},
				{
					"type": "function",
					"name": "svgOf",
					"inputs": [
						{
							"name": "hook",
							"type": "address",
							"internalType": "address"
						},
						{
							"name": "tokenId",
							"type": "uint256",
							"internalType": "uint256"
						},
						{
							"name": "shouldDressNakedBanny",
							"type": "bool",
							"internalType": "bool"
						},
						{
							"name": "shouldIncludeWorldOnNakedBanny",
							"type": "bool",
							"internalType": "bool"
						}
					],
					"outputs": [
						{
							"name": "",
							"type": "string",
							"internalType": "string"
						}
					],
					"stateMutability": "view"
				},
				{
					"type": "function",
					"name": "tokenUriOf",
					"inputs": [
						{
							"name": "hook",
							"type": "address",
							"internalType": "address"
						},
						{
							"name": "tokenId",
							"type": "uint256",
							"internalType": "uint256"
						}
					],
					"outputs": [
						{
							"name": "",
							"type": "string",
							"internalType": "string"
						}
					],
					"stateMutability": "view"
				},
				{
					"type": "function",
					"name": "transferOwnership",
					"inputs": [
						{
							"name": "newOwner",
							"type": "address",
							"internalType": "address"
						}
					],
					"outputs": [],
					"stateMutability": "nonpayable"
				},
				{
					"type": "function",
					"name": "trustedForwarder",
					"inputs": [],
					"outputs": [
						{
							"name": "",
							"type": "address",
							"internalType": "address"
						}
					],
					"stateMutability": "view"
				},
				{
					"type": "function",
					"name": "userOf",
					"inputs": [
						{
							"name": "hook",
							"type": "address",
							"internalType": "address"
						},
						{
							"name": "worldId",
							"type": "uint256",
							"internalType": "uint256"
						}
					],
					"outputs": [
						{
							"name": "",
							"type": "uint256",
							"internalType": "uint256"
						}
					],
					"stateMutability": "view"
				},
				{
					"type": "function",
					"name": "wearerOf",
					"inputs": [
						{
							"name": "hook",
							"type": "address",
							"internalType": "address"
						},
						{
							"name": "outfitId",
							"type": "uint256",
							"internalType": "uint256"
						}
					],
					"outputs": [
						{
							"name": "",
							"type": "uint256",
							"internalType": "uint256"
						}
					],
					"stateMutability": "view"
				},
				{
					"type": "event",
					"name": "DecorateBanny",
					"inputs": [
						{
							"name": "hook",
							"type": "address",
							"indexed": true,
							"internalType": "address"
						},
						{
							"name": "nakedBannyId",
							"type": "uint256",
							"indexed": true,
							"internalType": "uint256"
						},
						{
							"name": "worldId",
							"type": "uint256",
							"indexed": false,
							"internalType": "uint256"
						},
						{
							"name": "outfitIds",
							"type": "uint256[]",
							"indexed": false,
							"internalType": "uint256[]"
						},
						{
							"name": "caller",
							"type": "address",
							"indexed": false,
							"internalType": "address"
						}
					],
					"anonymous": false
				},
				{
					"type": "event",
					"name": "OwnershipTransferred",
					"inputs": [
						{
							"name": "previousOwner",
							"type": "address",
							"indexed": true,
							"internalType": "address"
						},
						{
							"name": "newOwner",
							"type": "address",
							"indexed": true,
							"internalType": "address"
						}
					],
					"anonymous": false
				},
				{
					"type": "event",
					"name": "SetProductName",
					"inputs": [
						{
							"name": "upc",
							"type": "uint256",
							"indexed": true,
							"internalType": "uint256"
						},
						{
							"name": "name",
							"type": "string",
							"indexed": false,
							"internalType": "string"
						},
						{
							"name": "caller",
							"type": "address",
							"indexed": false,
							"internalType": "address"
						}
					],
					"anonymous": false
				},
				{
					"type": "event",
					"name": "SetSvgBaseUri",
					"inputs": [
						{
							"name": "baseUri",
							"type": "string",
							"indexed": false,
							"internalType": "string"
						},
						{
							"name": "caller",
							"type": "address",
							"indexed": false,
							"internalType": "address"
						}
					],
					"anonymous": false
				},
				{
					"type": "event",
					"name": "SetSvgContent",
					"inputs": [
						{
							"name": "upc",
							"type": "uint256",
							"indexed": true,
							"internalType": "uint256"
						},
						{
							"name": "svgContent",
							"type": "string",
							"indexed": false,
							"internalType": "string"
						},
						{
							"name": "caller",
							"type": "address",
							"indexed": false,
							"internalType": "address"
						}
					],
					"anonymous": false
				},
				{
					"type": "event",
					"name": "SetSvgHash",
					"inputs": [
						{
							"name": "upc",
							"type": "uint256",
							"indexed": true,
							"internalType": "uint256"
						},
						{
							"name": "svgHash",
							"type": "bytes32",
							"indexed": true,
							"internalType": "bytes32"
						},
						{
							"name": "caller",
							"type": "address",
							"indexed": false,
							"internalType": "address"
						}
					],
					"anonymous": false
				},
				{
					"type": "error",
					"name": "ASSET_IS_ALREADY_BEING_WORN",
					"inputs": []
				},
				{
					"type": "error",
					"name": "CONTENTS_ALREADY_STORED",
					"inputs": []
				},
				{
					"type": "error",
					"name": "CONTENTS_MISMATCH",
					"inputs": []
				},
				{
					"type": "error",
					"name": "HASH_ALREADY_STORED",
					"inputs": []
				},
				{
					"type": "error",
					"name": "HASH_NOT_FOUND",
					"inputs": []
				},
				{
					"type": "error",
					"name": "HEAD_ALREADY_ADDED",
					"inputs": []
				},
				{
					"type": "error",
					"name": "OwnableInvalidOwner",
					"inputs": [
						{
							"name": "owner",
							"type": "address",
							"internalType": "address"
						}
					]
				},
				{
					"type": "error",
					"name": "OwnableUnauthorizedAccount",
					"inputs": [
						{
							"name": "account",
							"type": "address",
							"internalType": "address"
						}
					]
				},
				{
					"type": "error",
					"name": "SUIT_ALREADY_ADDED",
					"inputs": []
				},
				{
					"type": "error",
					"name": "UNAUTHORIZED_NAKED_BANNY",
					"inputs": []
				},
				{
					"type": "error",
					"name": "UNAUTHORIZED_OUTFIT",
					"inputs": []
				},
				{
					"type": "error",
					"name": "UNAUTHORIZED_WORLD",
					"inputs": []
				},
				{
					"type": "error",
					"name": "UNORDERED_CATEGORIES",
					"inputs": []
				},
				{
					"type": "error",
					"name": "UNRECOGNIZED_CATEGORY",
					"inputs": []
				},
				{
					"type": "error",
					"name": "UNRECOGNIZED_OUTFIT",
					"inputs": []
				},
				{
					"type": "error",
					"name": "UNRECOGNIZED_PRODUCT",
					"inputs": []
				},
				{
					"type": "error",
					"name": "UNRECOGNIZED_WORLD",
					"inputs": []
				}
			],
			"solcInputHash": "9bb6ab21f4e2dc4ed5815f6b420c0375",
			"receipt": {
				"blockHash": "0xa7a8f3a601f5ba4203eaa4c8a9e9bb80a506ae4d5c81b127051605b093e64c96",
				"blockNumber": 10926958,
				"contractAddress": null,
				"cumulativeGasUsed": "11285366",
				"from": "0xC034550B542b83BA1De312b21d1C94a9a52B1595",
				"gasPrice": "1000256",
				"gasUsed": "11146313",
				"hash": "0x0eb548e4585a468b7676d7b77783ebd1dc554284c7fbf5551f60fd465619a593",
				"index": 2,
				"logs": [
					{
						"address": "0xB5E96127D417b1B3ef8438496a38A143167209c7",
						"blockHash": "0xa7a8f3a601f5ba4203eaa4c8a9e9bb80a506ae4d5c81b127051605b093e64c96",
						"blockNumber": 10926958,
						"data": "0x0000000000000000000000000000000000000000000000000000000000000000",
						"index": 1,
						"topics": [
							"0x572f161235911da04685a68c06adf558fc7e4a36909dca394650e0adc19cc93d",
							"0x000000000000000000000000c034550b542b83ba1de312b21d1c94a9a52b1595",
							"0x000000000000000000000000183b35e76a7bc60298dcb637515f50e4def9b68b",
							"0x02097992bd18e12ee3742b58685eef840db9b168de0b57c2cf39f701129db0d3"
						],
						"transactionHash": "0x0eb548e4585a468b7676d7b77783ebd1dc554284c7fbf5551f60fd465619a593",
						"transactionIndex": 2
					},
					{
						"address": "0x52Aac9458dc797d48aF2B9f0904eaa990dB17787",
						"blockHash": "0xa7a8f3a601f5ba4203eaa4c8a9e9bb80a506ae4d5c81b127051605b093e64c96",
						"blockNumber": 10926958,
						"data": "0x",
						"index": 2,
						"topics": [
							"0x8be0079c531659141344cd1fd0a4f28419497f9722a3daafe3b4186f6b6457e0",
							"0x0000000000000000000000000000000000000000000000000000000000000000",
							"0x000000000000000000000000584f5da53cb18789099466074e3b5c32ed17243a"
						],
						"transactionHash": "0x0eb548e4585a468b7676d7b77783ebd1dc554284c7fbf5551f60fd465619a593",
						"transactionIndex": 2
					},
					{
						"address": "0x584F5Da53cb18789099466074e3B5c32Ed17243a",
						"blockHash": "0xa7a8f3a601f5ba4203eaa4c8a9e9bb80a506ae4d5c81b127051605b093e64c96",
						"blockNumber": 10926958,
						"data": "0x",
						"index": 3,
						"topics": [
							"0x6895c13664aa4f67288b25d7a21d7aaa34916e355fb9b6fae0a139a9085becb8",
							"0x000000000000000000000000183b35e76a7bc60298dcb637515f50e4def9b68b"
						],
						"transactionHash": "0x0eb548e4585a468b7676d7b77783ebd1dc554284c7fbf5551f60fd465619a593",
						"transactionIndex": 2
					},
					{
						"address": "0x183b35E76A7BC60298DCb637515F50e4DeF9b68b",
						"blockHash": "0xa7a8f3a601f5ba4203eaa4c8a9e9bb80a506ae4d5c81b127051605b093e64c96",
						"blockNumber": 10926958,
						"data": "0x0000000000000000000000000000000000000000000000000000000000000001",
						"index": 4,
						"topics": [
							"0xa65fb05c5808f5f389d72edeaf719ce38f4cc55c1f69ca3cbfb31c21501caa07",
							"0xe07565508cca32786396bf986a6d649bfe1c1ebcec72b71a5deb3dc96679d083"
						],
						"transactionHash": "0x0eb548e4585a468b7676d7b77783ebd1dc554284c7fbf5551f60fd465619a593",
						"transactionIndex": 2
					},
					{
						"address": "0x7E784868Ddf1e1C240Fe0E97f8D7906f8Af4974c",
						"blockHash": "0xa7a8f3a601f5ba4203eaa4c8a9e9bb80a506ae4d5c81b127051605b093e64c96",
						"blockNumber": 10926958,
						"data": "0x",
						"index": 5,
						"topics": [
							"0x8be0079c531659141344cd1fd0a4f28419497f9722a3daafe3b4186f6b6457e0",
							"0x0000000000000000000000000000000000000000000000000000000000000000",
							"0x000000000000000000000000f97086e4cea8d11fcd64cb2e5dde0ab7588f5f01"
						],
						"transactionHash": "0x0eb548e4585a468b7676d7b77783ebd1dc554284c7fbf5551f60fd465619a593",
						"transactionIndex": 2
					},
					{
						"address": "0x7E784868Ddf1e1C240Fe0E97f8D7906f8Af4974c",
						"blockHash": "0xa7a8f3a601f5ba4203eaa4c8a9e9bb80a506ae4d5c81b127051605b093e64c96",
						"blockNumber": 10926958,
						"data": "0x",
						"index": 6,
						"topics": [
							"0x8be0079c531659141344cd1fd0a4f28419497f9722a3daafe3b4186f6b6457e0",
							"0x000000000000000000000000f97086e4cea8d11fcd64cb2e5dde0ab7588f5f01",
							"0x0000000000000000000000009ad5f8352494be4dcf75ffcb477c77018691df7e"
						],
						"transactionHash": "0x0eb548e4585a468b7676d7b77783ebd1dc554284c7fbf5551f60fd465619a593",
						"transactionIndex": 2
					},
					{
						"address": "0x989566Bf9fF4CffA55a98ADa7dc3E58b2a0a19c6",
						"blockHash": "0xa7a8f3a601f5ba4203eaa4c8a9e9bb80a506ae4d5c81b127051605b093e64c96",
						"blockNumber": 10926958,
						"data": "0x",
						"index": 7,
						"topics": [
							"0x72b627b4904fa8a0160a923aa5b142eb19f6e56dc75017884162206f8886df09",
							"0x0000000000000000000000007e784868ddf1e1c240fe0e97f8d7906f8af4974c",
							"0x000000000000000000000000f97086e4cea8d11fcd64cb2e5dde0ab7588f5f01"
						],
						"transactionHash": "0x0eb548e4585a468b7676d7b77783ebd1dc554284c7fbf5551f60fd465619a593",
						"transactionIndex": 2
					},
					{
						"address": "0xF97086E4CeA8D11FCD64cb2E5dDE0Ab7588f5F01",
						"blockHash": "0xa7a8f3a601f5ba4203eaa4c8a9e9bb80a506ae4d5c81b127051605b093e64c96",
						"blockNumber": 10926958,
						"data": "0x0000000000000000000000007e784868ddf1e1c240fe0e97f8d7906f8af4974c",
						"index": 8,
						"topics": [
							"0xa42f6bb68e81f4650a7966f109d861f6c3d2a477e608e30807f568bed1cebdb9",
							"0x0000000000000000000000000000000000000000000000000000000000000002"
						],
						"transactionHash": "0x0eb548e4585a468b7676d7b77783ebd1dc554284c7fbf5551f60fd465619a593",
						"transactionIndex": 2
					},
					{
						"address": "0xC99C2fCc0dC51dd0dAd1fd7B58236bB4d73bAaa8",
						"blockHash": "0xa7a8f3a601f5ba4203eaa4c8a9e9bb80a506ae4d5c81b127051605b093e64c96",
						"blockNumber": 10926958,
						"data": "0x",
						"index": 9,
						"topics": [
							"0xddf252ad1be2c89b69c2b068fc378daa952ba7f163c4a11628f55a4df523b3ef",
							"0x0000000000000000000000000000000000000000000000000000000000000000",
							"0x0000000000000000000000009ad5f8352494be4dcf75ffcb477c77018691df7e",
							"0x0000000000000000000000000000000000000000000000000000000000000002"
						],
						"transactionHash": "0x0eb548e4585a468b7676d7b77783ebd1dc554284c7fbf5551f60fd465619a593",
						"transactionIndex": 2
					},
					{
						"address": "0xC99C2fCc0dC51dd0dAd1fd7B58236bB4d73bAaa8",
						"blockHash": "0xa7a8f3a601f5ba4203eaa4c8a9e9bb80a506ae4d5c81b127051605b093e64c96",
						"blockNumber": 10926958,
						"data": "0x0000000000000000000000009c7993bff32dfd4e96f5c24d7ab3f9c93c303704",
						"index": 10,
						"topics": [
							"0x365b3162cd780731fc55a794b59494d472bc2af701007f581843a70673814698",
							"0x0000000000000000000000000000000000000000000000000000000000000002",
							"0x0000000000000000000000009ad5f8352494be4dcf75ffcb477c77018691df7e"
						],
						"transactionHash": "0x0eb548e4585a468b7676d7b77783ebd1dc554284c7fbf5551f60fd465619a593",
						"transactionIndex": 2
					},
					{
						"address": "0xc9cb7a0BAB7569b5B6De26A679D107D4D412B349",
						"blockHash": "0xa7a8f3a601f5ba4203eaa4c8a9e9bb80a506ae4d5c81b127051605b093e64c96",
						"blockNumber": 10926958,
						"data": "0x0000000000000000000000009c7993bff32dfd4e96f5c24d7ab3f9c93c303704",
						"index": 11,
						"topics": [
							"0x7f9a7dcb234c909a09de2f344661ad9e5b24067adb97c908647c2edcbb121c30",
							"0x0000000000000000000000000000000000000000000000000000000000000002",
							"0x0000000000000000000000009c7993bff32dfd4e96f5c24d7ab3f9c93c303704"
						],
						"transactionHash": "0x0eb548e4585a468b7676d7b77783ebd1dc554284c7fbf5551f60fd465619a593",
						"transactionIndex": 2
					},
					{
						"address": "0x453cf7F1e15d71532671C8c2931675dfB9AA148B",
						"blockHash": "0xa7a8f3a601f5ba4203eaa4c8a9e9bb80a506ae4d5c81b127051605b093e64c96",
						"blockNumber": 10926958,
						"data": "0x",
						"index": 12,
						"topics": [
							"0xfda207e5d149787155cf9596283f246f082d4744a57e37dda99146e5dcc542bb",
							"0x000000000000000000000000000000000000000000000000000000006660d5bc",
							"0x0000000000000000000000000000000000000000000000000000000000000002",
							"0x0000000000000000000000000000000000000000000000000000000000000000"
						],
						"transactionHash": "0x0eb548e4585a468b7676d7b77783ebd1dc554284c7fbf5551f60fd465619a593",
						"transactionIndex": 2
					},
					{
						"address": "0x453cf7F1e15d71532671C8c2931675dfB9AA148B",
						"blockHash": "0xa7a8f3a601f5ba4203eaa4c8a9e9bb80a506ae4d5c81b127051605b093e64c96",
						"blockNumber": 10926958,
						"data": "0x000000000000000000000000000000000000000000000000000000000001518000000000000000000000000000000000000000000000d3c21bcecceda10000000000000000000000000000000000000000000000000000000000000002faf080000000000000000000000000000000000000000000000000000000000000000000009ad5f8352494be4dcf75ffcb477c77018691df7e40c0000eeee1f4013881000000000000000000000000000000000000000000000000000000006660b1140000000000000000000000009c7993bff32dfd4e96f5c24d7ab3f9c93c303704",
						"index": 13,
						"topics": [
							"0x11a490bebff1beffe4bdd210894aca6ea5049427ce4b3c48865717677199cb07",
							"0x000000000000000000000000000000000000000000000000000000006660d5bc",
							"0x0000000000000000000000000000000000000000000000000000000000000002"
						],
						"transactionHash": "0x0eb548e4585a468b7676d7b77783ebd1dc554284c7fbf5551f60fd465619a593",
						"transactionIndex": 2
					},
					{
						"address": "0x453cf7F1e15d71532671C8c2931675dfB9AA148B",
						"blockHash": "0xa7a8f3a601f5ba4203eaa4c8a9e9bb80a506ae4d5c81b127051605b093e64c96",
						"blockNumber": 10926958,
						"data": "0x",
						"index": 14,
						"topics": [
							"0xfda207e5d149787155cf9596283f246f082d4744a57e37dda99146e5dcc542bb",
							"0x000000000000000000000000000000000000000000000000000000006660d5bd",
							"0x0000000000000000000000000000000000000000000000000000000000000002",
							"0x000000000000000000000000000000000000000000000000000000006660d5bc"
						],
						"transactionHash": "0x0eb548e4585a468b7676d7b77783ebd1dc554284c7fbf5551f60fd465619a593",
						"transactionIndex": 2
					},
					{
						"address": "0x453cf7F1e15d71532671C8c2931675dfB9AA148B",
						"blockHash": "0xa7a8f3a601f5ba4203eaa4c8a9e9bb80a506ae4d5c81b127051605b093e64c96",
						"blockNumber": 10926958,
						"data": "0x0000000000000000000000000000000000000000000000000000000000093a8000000000000000000000000000000000000000000000152d02c7e14af68000000000000000000000000000000000000000000000000000000000000000989680000000000000000000000000000000000000000000000000000000000000000000009ad5f8352494be4dcf75ffcb477c77018691df7e40c0000eeee1388138810000000000000000000000000000000000000000000000000000000066859b140000000000000000000000009c7993bff32dfd4e96f5c24d7ab3f9c93c303704",
						"index": 15,
						"topics": [
							"0x11a490bebff1beffe4bdd210894aca6ea5049427ce4b3c48865717677199cb07",
							"0x000000000000000000000000000000000000000000000000000000006660d5bd",
							"0x0000000000000000000000000000000000000000000000000000000000000002"
						],
						"transactionHash": "0x0eb548e4585a468b7676d7b77783ebd1dc554284c7fbf5551f60fd465619a593",
						"transactionIndex": 2
					},
					{
						"address": "0x9446b613d0423AbfF13E24A57390EFCD3a0F0d17",
						"blockHash": "0xa7a8f3a601f5ba4203eaa4c8a9e9bb80a506ae4d5c81b127051605b093e64c96",
						"blockNumber": 10926958,
						"data": "0x000000000000000000000000000000000000000000000000000000000000eeee0000000000000000000000000000000000000000000000000000000000000012000000000000000000000000000000000000000000000000000000000000eeee0000000000000000000000009c7993bff32dfd4e96f5c24d7ab3f9c93c303704",
						"index": 16,
						"topics": [
							"0x9570de6fc0456f642bd0a001b24cd31676388c24596df64a17190c24310690a1",
							"0x0000000000000000000000000000000000000000000000000000000000000002",
							"0x000000000000000000000000000000000000000000000000000000000000eeee"
						],
						"transactionHash": "0x0eb548e4585a468b7676d7b77783ebd1dc554284c7fbf5551f60fd465619a593",
						"transactionIndex": 2
					},
					{
						"address": "0xc9cb7a0BAB7569b5B6De26A679D107D4D412B349",
						"blockHash": "0xa7a8f3a601f5ba4203eaa4c8a9e9bb80a506ae4d5c81b127051605b093e64c96",
						"blockNumber": 10926958,
						"data": "0x00000000000000000000000000000000000000000000000000000000000000400000000000000000000000009c7993bff32dfd4e96f5c24d7ab3f9c93c30370400000000000000000000000000000000000000000000000000000000000000010000000000000000000000009446b613d0423abff13e24a57390efcd3a0f0d17",
						"index": 17,
						"topics": [
							"0xb648241d83df6540fc10f2acc641e4bf80a1e84e7ae2f1f6b0ad204b8fee635b",
							"0x0000000000000000000000000000000000000000000000000000000000000002"
						],
						"transactionHash": "0x0eb548e4585a468b7676d7b77783ebd1dc554284c7fbf5551f60fd465619a593",
						"transactionIndex": 2
					},
					{
						"address": "0x9c7993bff32dfd4e96F5C24D7AB3f9c93c303704",
						"blockHash": "0xa7a8f3a601f5ba4203eaa4c8a9e9bb80a506ae4d5c81b127051605b093e64c96",
						"blockNumber": 10926958,
						"data": "0x000000000000000000000000000000000000000000000000000000006660d5bd000000000000000000000000000000000000000000000000000000000000000200000000000000000000000000000000000000000000000000000000000000a000000000000000000000000000000000000000000000000000000000000000c00000000000000000000000009ad5f8352494be4dcf75ffcb477c77018691df7e000000000000000000000000000000000000000000000000000000000000000000000000000000000000000000000000000000000000000000000000000000162442414e4e59207265766e6574206465706c6f79656400000000000000000000",
						"index": 18,
						"topics": [
							"0x8dac501f24f52bda9ebdfa6a1789878c1d1e23823c771f7d52b5ba41261b0f45"
						],
						"transactionHash": "0x0eb548e4585a468b7676d7b77783ebd1dc554284c7fbf5551f60fd465619a593",
						"transactionIndex": 2
					},
					{
						"address": "0x25F657E5a655efF67B071EcDD28087BaCb7fb416",
						"blockHash": "0xa7a8f3a601f5ba4203eaa4c8a9e9bb80a506ae4d5c81b127051605b093e64c96",
						"blockNumber": 10926958,
						"data": "0x",
						"index": 19,
						"topics": [
							"0x8be0079c531659141344cd1fd0a4f28419497f9722a3daafe3b4186f6b6457e0",
							"0x0000000000000000000000000000000000000000000000000000000000000000",
							"0x0000000000000000000000004b91b0593302d5f033f0fdcef7d82e2ff57e2467"
						],
						"transactionHash": "0x0eb548e4585a468b7676d7b77783ebd1dc554284c7fbf5551f60fd465619a593",
						"transactionIndex": 2
					},
					{
						"address": "0x4B91b0593302D5f033F0FDcEf7D82E2ff57e2467",
						"blockHash": "0xa7a8f3a601f5ba4203eaa4c8a9e9bb80a506ae4d5c81b127051605b093e64c96",
						"blockNumber": 10926958,
						"data": "0x000000000000000000000000000000000000000000000000000000000000008000000000000000000000000000000000000000000000000000000000000000c05d9f448d44fd7a000af8314b962676b14b1e3bae0f30910510c4b548453c4aa60000000000000000000000009c7993bff32dfd4e96f5c24d7ab3f9c93c303704000000000000000000000000000000000000000000000000000000000000000a42616e6e79766572736500000000000000000000000000000000000000000000000000000000000000000000000000000000000000000000000000000000000542414e4e59000000000000000000000000000000000000000000000000000000",
						"index": 20,
						"topics": [
							"0xb4510654a5884cae50948507300dc482833ed1446cef375e064bef00b6b4ba4e",
							"0x0000000000000000000000000000000000000000000000000000000000000002",
							"0x00000000000000000000000025f657e5a655eff67b071ecdd28087bacb7fb416"
						],
						"transactionHash": "0x0eb548e4585a468b7676d7b77783ebd1dc554284c7fbf5551f60fd465619a593",
						"transactionIndex": 2
					},
					{
						"address": "0x9968f7f05A68CDEF1581957f9f03e268817Fc0f1",
						"blockHash": "0xa7a8f3a601f5ba4203eaa4c8a9e9bb80a506ae4d5c81b127051605b093e64c96",
						"blockNumber": 10926958,
						"data": "0x0000000000000000000000000000000000000000000000000000000000000000000000000000000000000000000000000000000000000000000000000002a3000000000000000000000000009ad5f8352494be4dcf75ffcb477c77018691df7e",
						"index": 21,
						"topics": [
							"0xa8d6b20cd05f07d50e9855ce0fc6de3517f3df2e890a5ec6357892b3808a53ce",
							"0x0000000000000000000000000000000000000000000000000000000000000002"
						],
						"transactionHash": "0x0eb548e4585a468b7676d7b77783ebd1dc554284c7fbf5551f60fd465619a593",
						"transactionIndex": 2
					},
					{
						"address": "0x9968f7f05A68CDEF1581957f9f03e268817Fc0f1",
						"blockHash": "0xa7a8f3a601f5ba4203eaa4c8a9e9bb80a506ae4d5c81b127051605b093e64c96",
						"blockNumber": 10926958,
						"data": "0x000000000000000000000000000000000000000000000000000000000000000000000000000000000000000000000000000000000000000000000000000023280000000000000000000000009ad5f8352494be4dcf75ffcb477c77018691df7e",
						"index": 22,
						"topics": [
							"0xaafe2470cbfb11a09f9b45d6a795226e93cc251e30fdcabddbabb157a1db5353",
							"0x0000000000000000000000000000000000000000000000000000000000000002"
						],
						"transactionHash": "0x0eb548e4585a468b7676d7b77783ebd1dc554284c7fbf5551f60fd465619a593",
						"transactionIndex": 2
					},
					{
						"address": "0x9968f7f05A68CDEF1581957f9f03e268817Fc0f1",
						"blockHash": "0xa7a8f3a601f5ba4203eaa4c8a9e9bb80a506ae4d5c81b127051605b093e64c96",
						"blockNumber": 10926958,
						"data": "0x0000000000000000000000009784ea737ba5f85959ced446ccac8aa2ac5eca5e0000000000000000000000009ad5f8352494be4dcf75ffcb477c77018691df7e",
						"index": 23,
						"topics": [
							"0xe694de883385e30d535f625d68df4b2b5e866e8e86fe9d15554480c8d1812e60",
							"0x0000000000000000000000000000000000000000000000000000000000000002",
							"0x0000000000000000000000004200000000000000000000000000000000000006"
						],
						"transactionHash": "0x0eb548e4585a468b7676d7b77783ebd1dc554284c7fbf5551f60fd465619a593",
						"transactionIndex": 2
					},
					{
						"address": "0xBF86912A8B061a0bb03d9B7428B0e40b2a4811c7",
						"blockHash": "0xa7a8f3a601f5ba4203eaa4c8a9e9bb80a506ae4d5c81b127051605b093e64c96",
						"blockNumber": 10926958,
						"data": "0x0000000000000000000000000000000000000000000000000000000000000000000000000000000000000000000000000000000000000000000000003b9aca000000000000000000000000000000000000000000000000000000000000000000000000000000000000000000584f5da53cb18789099466074e3b5c32ed17243a000000000000000000000000000000000000000000000000000000000000000000000000000000000000000000000000000000000000000000000000000000000000000000000000000000009c7993bff32dfd4e96f5c24d7ab3f9c93c303704",
						"index": 24,
						"topics": [
							"0x0d7ea8ac1cb69dfa18ce2b18e90d31b4d4a0370aacadf7db42d42930a09b3f01",
							"0x0000000000000000000000000000000000000000000000000000000000000002",
							"0x0000000000000000000000000000000000000000000000000000000000000000",
							"0x0000000000000000000000000000000000000000000000000000000000000001"
						],
						"transactionHash": "0x0eb548e4585a468b7676d7b77783ebd1dc554284c7fbf5551f60fd465619a593",
						"transactionIndex": 2
					},
					{
						"address": "0xaDa1E1EE4576Da063EAD17d1ACf49254FA881F0E",
						"blockHash": "0xa7a8f3a601f5ba4203eaa4c8a9e9bb80a506ae4d5c81b127051605b093e64c96",
						"blockNumber": 10926958,
						"data": "0x00000000000000000000000000000000000000000000000000000000000000600000000000000000000000000000000000000000000000000000000002e200400000000000000000000000009ad5f8352494be4dcf75ffcb477c77018691df7e0000000000000000000000000000000000000000000000000000000000000006000000000000000000000000000000000000000000000000000000000000001100000000000000000000000000000000000000000000000000000000000000190000000000000000000000000000000000000000000000000000000000000006000000000000000000000000000000000000000000000000000000000000001500000000000000000000000000000000000000000000000000000000000000160000000000000000000000000000000000000000000000000000000000000017",
						"index": 25,
						"topics": [
							"0xf8cdf10a0ce6189c6d069e97320ef146e2bcbd32d6c0b86dcbfbf3bd8578fa70",
							"0x000000000000000000000000584f5da53cb18789099466074e3b5c32ed17243a",
							"0x0000000000000000000000009ad5f8352494be4dcf75ffcb477c77018691df7e",
							"0x0000000000000000000000000000000000000000000000000000000000000002"
						],
						"transactionHash": "0x0eb548e4585a468b7676d7b77783ebd1dc554284c7fbf5551f60fd465619a593",
						"transactionIndex": 2
					},
					{
						"address": "0xaDa1E1EE4576Da063EAD17d1ACf49254FA881F0E",
						"blockHash": "0xa7a8f3a601f5ba4203eaa4c8a9e9bb80a506ae4d5c81b127051605b093e64c96",
						"blockNumber": 10926958,
						"data": "0x000000000000000000000000000000000000000000000000000000000000006000000000000000000000000000000000000000000000000000000000100000000000000000000000000000009ad5f8352494be4dcf75ffcb477c77018691df7e0000000000000000000000000000000000000000000000000000000000000001000000000000000000000000000000000000000000000000000000000000001c",
						"index": 26,
						"topics": [
							"0xf8cdf10a0ce6189c6d069e97320ef146e2bcbd32d6c0b86dcbfbf3bd8578fa70",
							"0x00000000000000000000000001ad7869d85dc136f473db7f4f07b8f61414f644",
							"0x0000000000000000000000009ad5f8352494be4dcf75ffcb477c77018691df7e",
							"0x0000000000000000000000000000000000000000000000000000000000000002"
						],
						"transactionHash": "0x0eb548e4585a468b7676d7b77783ebd1dc554284c7fbf5551f60fd465619a593",
						"transactionIndex": 2
					},
					{
						"address": "0x01aD7869D85dC136F473DB7F4F07b8F61414f644",
						"blockHash": "0xa7a8f3a601f5ba4203eaa4c8a9e9bb80a506ae4d5c81b127051605b093e64c96",
						"blockNumber": 10926958,
						"data": "0x000000000000000000000000000000000000000000000000000000000000000200000000000000000000000000000000000000000000000000000000000000400000000000000000000000000000000000000000000000000000000000000001000000000000000000000000a6833df0c0392d73e7b88bba932550c003bf913e",
						"index": 27,
						"topics": [
							"0xd982fdd7a5657847f0905ad1aff9ab6105d1ff64590493b3486837504dafe55a"
						],
						"transactionHash": "0x0eb548e4585a468b7676d7b77783ebd1dc554284c7fbf5551f60fd465619a593",
						"transactionIndex": 2
					},
					{
						"address": "0x9Ad5F8352494Be4dCf75Ffcb477C77018691dF7E",
						"blockHash": "0xa7a8f3a601f5ba4203eaa4c8a9e9bb80a506ae4d5c81b127051605b093e64c96",
						"blockNumber": 10926958,
						"data": "0x000000000000000000000000000000000000000000000000000000000000010000000000000000000000000000000000000000000000000000000000000005600000000000000000000000000000000000000000000000000000000000000620000000000000000000000000000000000000000000000000000000000000070000000000000000000000000000000000000000000000000000000000000008600000000000000000000000000000000000000000000000000000000000000f400000000000000000000000000000000000000000000000000000000000000001000000000000000000000000584f5da53cb18789099466074e3b5c32ed17243a0000000000000000000000000000000000000000000000000000000000000080000000000000000000000000000000000000000000000000000000000000eeee000000000000000000000000584f5da53cb18789099466074e3b5c32ed17243a00000000000000000000000000000000000000000000000000000000000001a0000000000000000000000000000000000000000000000000000000000000008000000000000000000000000000000000000000000000000000000000000000c0000000000000000000000000000000000000000000000000000000000000010042414e4e595f3300000000000000000000000000000000000000000000000000000000000000000000000000000000000000000000000000000000000000000a42616e6e79766572736500000000000000000000000000000000000000000000000000000000000000000000000000000000000000000000000000000000000542414e4e5900000000000000000000000000000000000000000000000000000000000000000000000000000000000000000000000000000000000000000000000000000000000000000000000000000000000000000000000000000000000002000000000000000000000000000000000000000000000000000000000000004000000000000000000000000000000000000000000000000000000000000001a0000000000000000000000000000000000000000000000000000000006660b11400000000000000000000000000000000000000000000000000000000000000e0000000000000000000000000000000000000000000000000000000000000138800000000000000000000000000000000000000000000d3c21bcecceda100000000000000000000000000000000000000000000000000000000000000000151800000000000000000000000000000000000000000000000000000000002faf08000000000000000000000000000000000000000000000000000000000000007d000000000000000000000000000000000000000000000000000000000000000010000000000000000000000000000000000000000000000000000000000000001000000000000000000000000000000000000000000422ca8b0a00a4250000000000000000000000000000000584f5da53cb18789099466074e3b5c32ed17243a0000000000000000000000000000000000000000000000000000000066859b1400000000000000000000000000000000000000000000000000000000000000e0000000000000000000000000000000000000000000000000000000000000138800000000000000000000000000000000000000000000152d02c7e14af68000000000000000000000000000000000000000000000000000000000000000093a80000000000000000000000000000000000000000000000000000000000098968000000000000000000000000000000000000000000000000000000000000013880000000000000000000000000000000000000000000000000000000000000000000000000000000000000000000000000000000000000000000000000000000100000000000000000000000000000000000000000000000000000000000000200000000000000000000000009446b613d0423abff13e24a57390efcd3a0f0d1700000000000000000000000000000000000000000000000000000000000000400000000000000000000000000000000000000000000000000000000000000001000000000000000000000000000000000000000000000000000000000000eeee0000000000000000000000009968f7f05a68cdef1581957f9f03e268817fc0f100000000000000000000000000000000000000000000000000000000000000400000000000000000000000000000000000000000000000000000000000000001000000000000000000000000000000000000000000000000000000000000eeee0000000000000000000000000000000000000000000000000000000000002710000000000000000000000000000000000000000000000000000000000002a3000000000000000000000000000000000000000000000000000000000000002328000000000000000000000000000000000000000000000000000000000000004042414e4e595f330000000000000000000000000000000000000000000000000000000000000000000000000000000000000000000000000000000000000000010000000000000000000000000000000000000000000000000000000000000020000000000000000000000000d4a8832ec759c06570994024c58908daddd340ef00000000000000000000000000000000000000000000000000000000000000400000000000000000000000000000000000000000000000000000000000000001000000000000000000000000000000000000000000000000000000000000eeee0000000000000000000000000000000000000000000000000000000000030d40000000000000000000000000000000000000000000000000000000000000eeee000000000000000000000000000000000000000000000000002386f26fc10000000000000000000000000000000000000000000000000000000000000000000200000000000000000000000000000000000000000000000000000000000000400000000000000000000000000000000000000000000000000000000000000380000000000000000000000000000000000000000000000000000000006660b114000000000000000000000000000000000000000000000000000000000001518000000000000000000000000000000000000000000000d3c21bcecceda10000000000000000000000000000000000000000000000000000000000000002faf080000000000000000000000000000000000000000000000000000000000000000000000000000000000000000000000000000000000000000000000000000013880000000000000000000000000000000000000000000000000000000000001f40000000000000000000000000000000000000000000000000000000000000eeee0000000000000000000000000000000000000000000000000000000000000000000000000000000000000000000000000000000000000000000000000000000000000000000000000000000000000000000000000000000000000000000000010000000000000000000000000000000000000000000000000000000000000001000000000000000000000000000000000000000000000000000000000000000000000000000000000000000000000000000000000000000000000000000000000000000000000000000000000000000000000000000000000000000000000000000000000000000000000000000000000000000000000000000000000000000000000000000000000000000000000000000000000000000000000000000000000000000000000000000000000000000000000000000000000000000000000000000000000000000000000000000000000000000000000000000000000000000100000000000000000000000000000000000000000000000000000000000000000000000000000000000000009ad5f8352494be4dcf75ffcb477c77018691df7e000000000000000000000000000000000000000000000000000000000000000000000000000000000000000000000000000000000000000000000000000003000000000000000000000000000000000000000000000000000000000000000320000000000000000000000000000000000000000000000000000000000000000000000000000000000000000000000000000000000000000000000000000000000000000000000000000000000000000000000000000000000000000066859b140000000000000000000000000000000000000000000000000000000000093a8000000000000000000000000000000000000000000000152d02c7e14af68000000000000000000000000000000000000000000000000000000000000000989680000000000000000000000000000000000000000000000000000000000000000000000000000000000000000000000000000000000000000000000000000013880000000000000000000000000000000000000000000000000000000000001388000000000000000000000000000000000000000000000000000000000000eeee0000000000000000000000000000000000000000000000000000000000000000000000000000000000000000000000000000000000000000000000000000000000000000000000000000000000000000000000000000000000000000000000010000000000000000000000000000000000000000000000000000000000000001000000000000000000000000000000000000000000000000000000000000000000000000000000000000000000000000000000000000000000000000000000000000000000000000000000000000000000000000000000000000000000000000000000000000000000000000000000000000000000000000000000000000000000000000000000000000000000000000000000000000000000000000000000000000000000000000000000000000000000000000000000000000000000000000000000000000000000000000000000000000000000000000000000000000000100000000000000000000000000000000000000000000000000000000000000000000000000000000000000009ad5f8352494be4dcf75ffcb477c77018691df7e0000000000000000000000000000000000000000000000000000000000000000000000000000000000000000000000000000000000000000000000000000030000000000000000000000000000000000000000000000000000000000000003200000000000000000000000000000000000000000000000000000000000000000000000000000000000000000000000000000000000000000000000000000000000000000000000000000000000000000000000000000000000000000000002e0000000000000000000000000000000000000000000000000000000000000eeee000000000000000000000000000000000000000000000000000000000000008000000000000000000000000000000000000000000000000000000000000000c042414e4e595f3300000000000000000000000000000000000000000000000000000000000000000000000000000000000000000000000000000000000000000a42616e6e79766572736500000000000000000000000000000000000000000000000000000000000000000000000000000000000000000000000000000000000542414e4e59000000000000000000000000000000000000000000000000000000000000000000000000000000000000000000000000000000000000006660b114000000000000000000000000000000000000000000000000000000000000138800000000000000000000000000000000000000000000d3c21bcecceda100000000000000000000000000000000000000000000000000000000000000000151800000000000000000000000000000000000000000000000000000000002faf08000000000000000000000000000000000000000000000000000000000000007d00000000000000000000000000000000000000000000000000000000000000001000000000000000000000000584f5da53cb18789099466074e3b5c32ed17243a000000000000000000000000000000000000000000422ca8b0a00a42500000000000000000000000000000000000000000000000000000000000000066859b14000000000000000000000000000000000000000000000000000000000000138800000000000000000000000000000000000000000000152d02c7e14af68000000000000000000000000000000000000000000000000000000000000000093a8000000000000000000000000000000000000000000000000000000000009896800000000000000000000000000000000000000000000000000000000000001388",
						"index": 28,
						"topics": [
							"0xabdf3ec8139195645b1e44778a910396624b7d2913c04b613f4800ad25d71046",
							"0x0000000000000000000000000000000000000000000000000000000000000002"
						],
						"transactionHash": "0x0eb548e4585a468b7676d7b77783ebd1dc554284c7fbf5551f60fd465619a593",
						"transactionIndex": 2
					},
					{
						"address": "0x9Ad5F8352494Be4dCf75Ffcb477C77018691dF7E",
						"blockHash": "0xa7a8f3a601f5ba4203eaa4c8a9e9bb80a506ae4d5c81b127051605b093e64c96",
						"blockNumber": 10926958,
						"data": "0x0000000000000000000000000000000000000000000000000000000000000040000000000000000000000000584f5da53cb18789099466074e3b5c32ed17243a000000000000000000000000000000000000000000000000000000000000000100000000000000000000000000000000000000000000000000000000000000200000000000000000000000007e784868ddf1e1c240fe0e97f8d7906f8af4974c000000000000000000000000000000000000000000000000000000000000000000000000000000000000000000000000000000000000000000000000000000600000000000000000000000000000000000000000000000000000000000000000",
						"index": 29,
						"topics": [
							"0xdfaf2737f25eace49d372b472ec03f1df0f9814dfc69d2b95c5e92a041f42e29",
							"0x0000000000000000000000000000000000000000000000000000000000000002"
						],
						"transactionHash": "0x0eb548e4585a468b7676d7b77783ebd1dc554284c7fbf5551f60fd465619a593",
						"transactionIndex": 2
					},
					{
						"address": "0x24F256088C151a071Bf51DeE9d37F9E1Ea553548",
						"blockHash": "0xa7a8f3a601f5ba4203eaa4c8a9e9bb80a506ae4d5c81b127051605b093e64c96",
						"blockNumber": 10926958,
						"data": "0x00000000000000000000000000000000000000000000000000000000000000400000000000000000000000009ad5f8352494be4dcf75ffcb477c77018691df7e0000000000000000000000007e784868ddf1e1c240fe0e97f8d7906f8af4974c000000000000000000000000000000000000000000000000000000000000006400000000000000000000000000000000000000000000000000038d7ea4c680000000000000000000000000000000000000000000000000000000000000002710000000000000000000000000000000000000000000000000000000003b9ac9ff00000000000000000000000000000000000000000000000000000000000000c00000000000000000000000000000000000000000000000000000000000000000",
						"index": 30,
						"topics": [
							"0x0f3142087587009e4617c9975a6a584e016f80bf46aac68e39a08b376678f32b",
							"0x0000000000000000000000007e784868ddf1e1c240fe0e97f8d7906f8af4974c"
						],
						"transactionHash": "0x0eb548e4585a468b7676d7b77783ebd1dc554284c7fbf5551f60fd465619a593",
						"transactionIndex": 2
					},
					{
						"address": "0x24F256088C151a071Bf51DeE9d37F9E1Ea553548",
						"blockHash": "0xa7a8f3a601f5ba4203eaa4c8a9e9bb80a506ae4d5c81b127051605b093e64c96",
						"blockNumber": 10926958,
						"data": "0x00000000000000000000000000000000000000000000000000000000000000400000000000000000000000009ad5f8352494be4dcf75ffcb477c77018691df7e0000000000000000000000007e784868ddf1e1c240fe0e97f8d7906f8af4974c0000000000000000000000000000000000000000000000000000000000000065000000000000000000000000000000000000000000000000016345785d8a00000000000000000000000000000000000000000000000000000000000000000064000000000000000000000000000000000000000000000000000000003b9ac9ff00000000000000000000000000000000000000000000000000000000000000c00000000000000000000000000000000000000000000000000000000000000000",
						"index": 31,
						"topics": [
							"0x0f3142087587009e4617c9975a6a584e016f80bf46aac68e39a08b376678f32b",
							"0x0000000000000000000000007e784868ddf1e1c240fe0e97f8d7906f8af4974c"
						],
						"transactionHash": "0x0eb548e4585a468b7676d7b77783ebd1dc554284c7fbf5551f60fd465619a593",
						"transactionIndex": 2
					},
					{
						"address": "0x24F256088C151a071Bf51DeE9d37F9E1Ea553548",
						"blockHash": "0xa7a8f3a601f5ba4203eaa4c8a9e9bb80a506ae4d5c81b127051605b093e64c96",
						"blockNumber": 10926958,
						"data": "0x00000000000000000000000000000000000000000000000000000000000000400000000000000000000000009ad5f8352494be4dcf75ffcb477c77018691df7e0000000000000000000000007e784868ddf1e1c240fe0e97f8d7906f8af4974c00000000000000000000000000000000000000000000000000000000000000660000000000000000000000000000000000000000000000000de0b6b3a7640000000000000000000000000000000000000000000000000000000000000000000a000000000000000000000000000000000000000000000000000000003b9ac9ff00000000000000000000000000000000000000000000000000000000000000c00000000000000000000000000000000000000000000000000000000000000000",
						"index": 32,
						"topics": [
							"0x0f3142087587009e4617c9975a6a584e016f80bf46aac68e39a08b376678f32b",
							"0x0000000000000000000000007e784868ddf1e1c240fe0e97f8d7906f8af4974c"
						],
						"transactionHash": "0x0eb548e4585a468b7676d7b77783ebd1dc554284c7fbf5551f60fd465619a593",
						"transactionIndex": 2
					},
					{
						"address": "0x24F256088C151a071Bf51DeE9d37F9E1Ea553548",
						"blockHash": "0xa7a8f3a601f5ba4203eaa4c8a9e9bb80a506ae4d5c81b127051605b093e64c96",
						"blockNumber": 10926958,
						"data": "0x00000000000000000000000000000000000000000000000000000000000000400000000000000000000000009ad5f8352494be4dcf75ffcb477c77018691df7e0000000000000000000000007e784868ddf1e1c240fe0e97f8d7906f8af4974c00000000000000000000000000000000000000000000000000000000000000670000000000000000000000000000000000000000000000056bc75e2d63100000000000000000000000000000000000000000000000000000000000000000000a000000000000000000000000000000000000000000000000000000003b9ac9ff00000000000000000000000000000000000000000000000000000000000000c00000000000000000000000000000000000000000000000000000000000000000",
						"index": 33,
						"topics": [
							"0x0f3142087587009e4617c9975a6a584e016f80bf46aac68e39a08b376678f32b",
							"0x0000000000000000000000007e784868ddf1e1c240fe0e97f8d7906f8af4974c"
						],
						"transactionHash": "0x0eb548e4585a468b7676d7b77783ebd1dc554284c7fbf5551f60fd465619a593",
						"transactionIndex": 2
					},
					{
						"address": "0xaDa1E1EE4576Da063EAD17d1ACf49254FA881F0E",
						"blockHash": "0xa7a8f3a601f5ba4203eaa4c8a9e9bb80a506ae4d5c81b127051605b093e64c96",
						"blockNumber": 10926958,
						"data": "0x000000000000000000000000000000000000000000000000000000000000006000000000000000000000000000000000000000000000000000000000002000000000000000000000000000009ad5f8352494be4dcf75ffcb477c77018691df7e00000000000000000000000000000000000000000000000000000000000000010000000000000000000000000000000000000000000000000000000000000015",
						"index": 34,
						"topics": [
							"0xf8cdf10a0ce6189c6d069e97320ef146e2bcbd32d6c0b86dcbfbf3bd8578fa70",
							"0x00000000000000000000000024f256088c151a071bf51dee9d37f9e1ea553548",
							"0x0000000000000000000000009ad5f8352494be4dcf75ffcb477c77018691df7e",
							"0x0000000000000000000000000000000000000000000000000000000000000002"
						],
						"transactionHash": "0x0eb548e4585a468b7676d7b77783ebd1dc554284c7fbf5551f60fd465619a593",
						"transactionIndex": 2
					},
					{
						"address": "0x584F5Da53cb18789099466074e3B5c32Ed17243a",
						"blockHash": "0xa7a8f3a601f5ba4203eaa4c8a9e9bb80a506ae4d5c81b127051605b093e64c96",
						"blockNumber": 10926958,
						"data": "0x",
						"index": 35,
						"topics": [
							"0x6895c13664aa4f67288b25d7a21d7aaa34916e355fb9b6fae0a139a9085becb8",
							"0x000000000000000000000000183b35e76a7bc60298dcb637515f50e4def9b68b"
						],
						"transactionHash": "0x0eb548e4585a468b7676d7b77783ebd1dc554284c7fbf5551f60fd465619a593",
						"transactionIndex": 2
					},
					{
						"address": "0x183b35E76A7BC60298DCb637515F50e4DeF9b68b",
						"blockHash": "0xa7a8f3a601f5ba4203eaa4c8a9e9bb80a506ae4d5c81b127051605b093e64c96",
						"blockNumber": 10926958,
						"data": "0x0000000000000000000000000000000000000000000000000000000000000002",
						"index": 36,
						"topics": [
							"0xa65fb05c5808f5f389d72edeaf719ce38f4cc55c1f69ca3cbfb31c21501caa07",
							"0xe07565508cca32786396bf986a6d649bfe1c1ebcec72b71a5deb3dc96679d083"
						],
						"transactionHash": "0x0eb548e4585a468b7676d7b77783ebd1dc554284c7fbf5551f60fd465619a593",
						"transactionIndex": 2
					},
					{
						"address": "0x183b35E76A7BC60298DCb637515F50e4DeF9b68b",
						"blockHash": "0xa7a8f3a601f5ba4203eaa4c8a9e9bb80a506ae4d5c81b127051605b093e64c96",
						"blockNumber": 10926958,
						"data": "0x",
						"index": 37,
						"topics": [
							"0x4383d976757d67ca920616be0b6430a681ea9d3dcce8d6d61d4603ca4a9bff63",
							"0xe07565508cca32786396bf986a6d649bfe1c1ebcec72b71a5deb3dc96679d083"
						],
						"transactionHash": "0x0eb548e4585a468b7676d7b77783ebd1dc554284c7fbf5551f60fd465619a593",
						"transactionIndex": 2
					}
				],
				"logsBloom": "0x04400000080090900288010203880202400008000008014080911002004000001000010000400100000000201449408000804000004000080020000000040000100020100240200600100008010000084001080080840a0000108000008000122000000002000080982000200000080000081000000084106002881201000040820000001040010090010008000000000102204800000000000060412240004000401084001400000000050000004002021020000080006000022001500420000000010200082400008090004800488001008002002201800060008000026000200000002082008800000000000000030020100201a200008001102008004800",
				"status": 1,
				"to": "0xB5E96127D417b1B3ef8438496a38A143167209c7"
			},
			"metadata": "{\"compiler\":{\"version\":\"0.8.23+commit.f704f362\"},\"language\":\"Solidity\",\"output\":{\"abi\":[{\"inputs\":[{\"internalType\":\"address\",\"name\":\"owner\",\"type\":\"address\"},{\"internalType\":\"address\",\"name\":\"trustedForwarder\",\"type\":\"address\"}],\"stateMutability\":\"nonpayable\",\"type\":\"constructor\"},{\"inputs\":[],\"type\":\"error\",\"name\":\"ASSET_IS_ALREADY_BEING_WORN\"},{\"inputs\":[],\"type\":\"error\",\"name\":\"CONTENTS_ALREADY_STORED\"},{\"inputs\":[],\"type\":\"error\",\"name\":\"CONTENTS_MISMATCH\"},{\"inputs\":[],\"type\":\"error\",\"name\":\"HASH_ALREADY_STORED\"},{\"inputs\":[],\"type\":\"error\",\"name\":\"HASH_NOT_FOUND\"},{\"inputs\":[],\"type\":\"error\",\"name\":\"HEAD_ALREADY_ADDED\"},{\"inputs\":[{\"internalType\":\"address\",\"name\":\"owner\",\"type\":\"address\"}],\"type\":\"error\",\"name\":\"OwnableInvalidOwner\"},{\"inputs\":[{\"internalType\":\"address\",\"name\":\"account\",\"type\":\"address\"}],\"type\":\"error\",\"name\":\"OwnableUnauthorizedAccount\"},{\"inputs\":[],\"type\":\"error\",\"name\":\"SUIT_ALREADY_ADDED\"},{\"inputs\":[],\"type\":\"error\",\"name\":\"UNAUTHORIZED_NAKED_BANNY\"},{\"inputs\":[],\"type\":\"error\",\"name\":\"UNAUTHORIZED_OUTFIT\"},{\"inputs\":[],\"type\":\"error\",\"name\":\"UNAUTHORIZED_WORLD\"},{\"inputs\":[],\"type\":\"error\",\"name\":\"UNORDERED_CATEGORIES\"},{\"inputs\":[],\"type\":\"error\",\"name\":\"UNRECOGNIZED_CATEGORY\"},{\"inputs\":[],\"type\":\"error\",\"name\":\"UNRECOGNIZED_OUTFIT\"},{\"inputs\":[],\"type\":\"error\",\"name\":\"UNRECOGNIZED_PRODUCT\"},{\"inputs\":[],\"type\":\"error\",\"name\":\"UNRECOGNIZED_WORLD\"},{\"inputs\":[{\"internalType\":\"address\",\"name\":\"hook\",\"type\":\"address\",\"indexed\":true},{\"internalType\":\"uint256\",\"name\":\"nakedBannyId\",\"type\":\"uint256\",\"indexed\":true},{\"internalType\":\"uint256\",\"name\":\"worldId\",\"type\":\"uint256\",\"indexed\":false},{\"internalType\":\"uint256[]\",\"name\":\"outfitIds\",\"type\":\"uint256[]\",\"indexed\":false},{\"internalType\":\"address\",\"name\":\"caller\",\"type\":\"address\",\"indexed\":false}],\"type\":\"event\",\"name\":\"DecorateBanny\",\"anonymous\":false},{\"inputs\":[{\"internalType\":\"address\",\"name\":\"previousOwner\",\"type\":\"address\",\"indexed\":true},{\"internalType\":\"address\",\"name\":\"newOwner\",\"type\":\"address\",\"indexed\":true}],\"type\":\"event\",\"name\":\"OwnershipTransferred\",\"anonymous\":false},{\"inputs\":[{\"internalType\":\"uint256\",\"name\":\"upc\",\"type\":\"uint256\",\"indexed\":true},{\"internalType\":\"string\",\"name\":\"name\",\"type\":\"string\",\"indexed\":false},{\"internalType\":\"address\",\"name\":\"caller\",\"type\":\"address\",\"indexed\":false}],\"type\":\"event\",\"name\":\"SetProductName\",\"anonymous\":false},{\"inputs\":[{\"internalType\":\"string\",\"name\":\"baseUri\",\"type\":\"string\",\"indexed\":false},{\"internalType\":\"address\",\"name\":\"caller\",\"type\":\"address\",\"indexed\":false}],\"type\":\"event\",\"name\":\"SetSvgBaseUri\",\"anonymous\":false},{\"inputs\":[{\"internalType\":\"uint256\",\"name\":\"upc\",\"type\":\"uint256\",\"indexed\":true},{\"internalType\":\"string\",\"name\":\"svgContent\",\"type\":\"string\",\"indexed\":false},{\"internalType\":\"address\",\"name\":\"caller\",\"type\":\"address\",\"indexed\":false}],\"type\":\"event\",\"name\":\"SetSvgContent\",\"anonymous\":false},{\"inputs\":[{\"internalType\":\"uint256\",\"name\":\"upc\",\"type\":\"uint256\",\"indexed\":true},{\"internalType\":\"bytes32\",\"name\":\"svgHash\",\"type\":\"bytes32\",\"indexed\":true},{\"internalType\":\"address\",\"name\":\"caller\",\"type\":\"address\",\"indexed\":false}],\"type\":\"event\",\"name\":\"SetSvgHash\",\"anonymous\":false},{\"inputs\":[{\"internalType\":\"address\",\"name\":\"hook\",\"type\":\"address\"},{\"internalType\":\"uint256\",\"name\":\"nakedBannyId\",\"type\":\"uint256\"}],\"stateMutability\":\"view\",\"type\":\"function\",\"name\":\"assetIdsOf\",\"outputs\":[{\"internalType\":\"uint256\",\"name\":\"worldId\",\"type\":\"uint256\"},{\"internalType\":\"uint256[]\",\"name\":\"outfitIds\",\"type\":\"uint256[]\"}]},{\"inputs\":[{\"internalType\":\"address\",\"name\":\"hook\",\"type\":\"address\"},{\"internalType\":\"uint256\",\"name\":\"nakedBannyId\",\"type\":\"uint256\"},{\"internalType\":\"uint256\",\"name\":\"worldId\",\"type\":\"uint256\"},{\"internalType\":\"uint256[]\",\"name\":\"outfitIds\",\"type\":\"uint256[]\"}],\"stateMutability\":\"nonpayable\",\"type\":\"function\",\"name\":\"decorateBannyWith\"},{\"inputs\":[{\"internalType\":\"address\",\"name\":\"forwarder\",\"type\":\"address\"}],\"stateMutability\":\"view\",\"type\":\"function\",\"name\":\"isTrustedForwarder\",\"outputs\":[{\"internalType\":\"bool\",\"name\":\"\",\"type\":\"bool\"}]},{\"inputs\":[{\"internalType\":\"address\",\"name\":\"hook\",\"type\":\"address\"},{\"internalType\":\"uint256\",\"name\":\"tokenId\",\"type\":\"uint256\"}],\"stateMutability\":\"view\",\"type\":\"function\",\"name\":\"namesOf\",\"outputs\":[{\"internalType\":\"string\",\"name\":\"\",\"type\":\"string\"},{\"internalType\":\"string\",\"name\":\"\",\"type\":\"string\"},{\"internalType\":\"string\",\"name\":\"\",\"type\":\"string\"}]},{\"inputs\":[],\"stateMutability\":\"view\",\"type\":\"function\",\"name\":\"owner\",\"outputs\":[{\"internalType\":\"address\",\"name\":\"\",\"type\":\"address\"}]},{\"inputs\":[],\"stateMutability\":\"nonpayable\",\"type\":\"function\",\"name\":\"renounceOwnership\"},{\"inputs\":[{\"internalType\":\"uint256[]\",\"name\":\"upcs\",\"type\":\"uint256[]\"},{\"internalType\":\"string[]\",\"name\":\"names\",\"type\":\"string[]\"}],\"stateMutability\":\"nonpayable\",\"type\":\"function\",\"name\":\"setProductNames\"},{\"inputs\":[{\"internalType\":\"string\",\"name\":\"baseUri\",\"type\":\"string\"}],\"stateMutability\":\"nonpayable\",\"type\":\"function\",\"name\":\"setSvgBaseUri\"},{\"inputs\":[{\"internalType\":\"uint256[]\",\"name\":\"upcs\",\"type\":\"uint256[]\"},{\"internalType\":\"string[]\",\"name\":\"svgContents\",\"type\":\"string[]\"}],\"stateMutability\":\"nonpayable\",\"type\":\"function\",\"name\":\"setSvgContentsOf\"},{\"inputs\":[{\"internalType\":\"uint256[]\",\"name\":\"upcs\",\"type\":\"uint256[]\"},{\"internalType\":\"bytes32[]\",\"name\":\"svgHashs\",\"type\":\"bytes32[]\"}],\"stateMutability\":\"nonpayable\",\"type\":\"function\",\"name\":\"setSvgHashsOf\"},{\"inputs\":[],\"stateMutability\":\"view\",\"type\":\"function\",\"name\":\"svgBaseUri\",\"outputs\":[{\"internalType\":\"string\",\"name\":\"\",\"type\":\"string\"}]},{\"inputs\":[{\"internalType\":\"uint256\",\"name\":\"upc\",\"type\":\"uint256\"}],\"stateMutability\":\"view\",\"type\":\"function\",\"name\":\"svgHashOf\",\"outputs\":[{\"internalType\":\"bytes32\",\"name\":\"\",\"type\":\"bytes32\"}]},{\"inputs\":[{\"internalType\":\"address\",\"name\":\"hook\",\"type\":\"address\"},{\"internalType\":\"uint256\",\"name\":\"tokenId\",\"type\":\"uint256\"},{\"internalType\":\"bool\",\"name\":\"shouldDressNakedBanny\",\"type\":\"bool\"},{\"internalType\":\"bool\",\"name\":\"shouldIncludeWorldOnNakedBanny\",\"type\":\"bool\"}],\"stateMutability\":\"view\",\"type\":\"function\",\"name\":\"svgOf\",\"outputs\":[{\"internalType\":\"string\",\"name\":\"\",\"type\":\"string\"}]},{\"inputs\":[{\"internalType\":\"address\",\"name\":\"hook\",\"type\":\"address\"},{\"internalType\":\"uint256\",\"name\":\"tokenId\",\"type\":\"uint256\"}],\"stateMutability\":\"view\",\"type\":\"function\",\"name\":\"tokenUriOf\",\"outputs\":[{\"internalType\":\"string\",\"name\":\"\",\"type\":\"string\"}]},{\"inputs\":[{\"internalType\":\"address\",\"name\":\"newOwner\",\"type\":\"address\"}],\"stateMutability\":\"nonpayable\",\"type\":\"function\",\"name\":\"transferOwnership\"},{\"inputs\":[],\"stateMutability\":\"view\",\"type\":\"function\",\"name\":\"trustedForwarder\",\"outputs\":[{\"internalType\":\"address\",\"name\":\"\",\"type\":\"address\"}]},{\"inputs\":[{\"internalType\":\"address\",\"name\":\"hook\",\"type\":\"address\"},{\"internalType\":\"uint256\",\"name\":\"worldId\",\"type\":\"uint256\"}],\"stateMutability\":\"view\",\"type\":\"function\",\"name\":\"userOf\",\"outputs\":[{\"internalType\":\"uint256\",\"name\":\"\",\"type\":\"uint256\"}]},{\"inputs\":[{\"internalType\":\"address\",\"name\":\"hook\",\"type\":\"address\"},{\"internalType\":\"uint256\",\"name\":\"outfitId\",\"type\":\"uint256\"}],\"stateMutability\":\"view\",\"type\":\"function\",\"name\":\"wearerOf\",\"outputs\":[{\"internalType\":\"uint256\",\"name\":\"\",\"type\":\"uint256\"}]}],\"devdoc\":{\"kind\":\"dev\",\"methods\":{\"assetIdsOf(address,uint256)\":{\"custom:param\":\"hook The hook address of the collection.\",\"params\":{\"nakedBannyId\":\"The ID of the naked banny shows with the associated assets.\"},\"returns\":{\"outfitIds\":\"The outfits attached to the Naked Banny.\",\"worldId\":\"The world attached to the Naked Banny.\"}},\"constructor\":{\"params\":{\"owner\":\"The owner allowed to add SVG files that correspond to product IDs.\",\"trustedForwarder\":\"The trusted forwarder for the ERC2771Context.\"}},\"decorateBannyWith(address,uint256,uint256,uint256[])\":{\"details\":\"The caller must own the naked banny being dressed and all outfits being worn.\",\"params\":{\"hook\":\"The hook storing the assets.\",\"nakedBannyId\":\"The ID of the Naked Banny being dressed.\",\"outfitIds\":\"The IDs of the outfits that'll be associated with the specified banny. Only one outfit per outfit category allowed at a time and they must be passed in order.\",\"worldId\":\"The ID of the world that'll be associated with the specified banny.\"}},\"isTrustedForwarder(address)\":{\"details\":\"Indicates whether any particular address is the trusted forwarder.\"},\"namesOf(address,uint256)\":{\"params\":{\"hook\":\"The hook storing the assets.\",\"tokenId\":\"The ID of the token to show.\"},\"returns\":{\"_0\":\"fullName The full name of the token.\",\"_1\":\"categoryName The name of the token's category.\",\"_2\":\"productName The name of the token's product.\"}},\"owner()\":{\"details\":\"Returns the address of the current owner.\"},\"renounceOwnership()\":{\"details\":\"Leaves the contract without owner. It will not be possible to call `onlyOwner` functions. Can only be called by the current owner. NOTE: Renouncing ownership will leave the contract without an owner, thereby disabling any functionality that is only available to the owner.\"},\"setProductNames(uint256[],string[])\":{\"params\":{\"names\":\"The names of the products.\",\"upcs\":\"The universal product codes of the products having their name stored.\"}},\"setSvgContentsOf(uint256[],string[])\":{\"params\":{\"svgContents\":\"The svg contents being stored, not including the parent <svg></svg> element.\",\"upcs\":\"The universal product codes of the products having SVGs stored.\"}},\"setSvgHashsOf(uint256[],bytes32[])\":{\"details\":\"This allows anyone to lazily upload the correct svg file.\",\"params\":{\"svgHashs\":\"The svg hashes being stored, not including the parent <svg></svg> element.\",\"upcs\":\"The universal product codes of the products having SVG hashes stored.\"}},\"svgOf(address,uint256,bool,bool)\":{\"params\":{\"hook\":\"The hook storing the assets.\",\"shouldDressNakedBanny\":\"Whether the naked banny should be dressed.\",\"shouldIncludeWorldOnNakedBanny\":\"Whether the world should be included on the naked banny.\",\"tokenId\":\"The ID of the token to show. If the ID belongs to a Naked Banny, it will be shown with its current outfits in its current world if specified.\"},\"returns\":{\"_0\":\"svg The SVG.\"}},\"tokenUriOf(address,uint256)\":{\"params\":{\"tokenId\":\"The ID of the token to show. If the ID belongs to a Naked Banny, it will be shown with its current outfits in its current world.\"},\"returns\":{\"_0\":\"tokenUri The URI representing the SVG.\"}},\"transferOwnership(address)\":{\"details\":\"Transfers ownership of the contract to a new account (`newOwner`). Can only be called by the current owner.\"},\"trustedForwarder()\":{\"details\":\"Returns the address of the trusted forwarder.\"},\"userOf(address,uint256)\":{\"custom:param\":\"hook The hook address of the collection.\",\"params\":{\"worldId\":\"The ID of the world being used.\"},\"returns\":{\"_0\":\"The ID of the naked banny using the world.\"}},\"wearerOf(address,uint256)\":{\"custom:param\":\"hook The hook address of the collection.\",\"params\":{\"outfitId\":\"The ID of the outfit being worn.\"},\"returns\":{\"_0\":\"The ID of the naked banny wearing the outfit.\"}}},\"version\":1},\"userdoc\":{\"kind\":\"user\",\"methods\":{\"assetIdsOf(address,uint256)\":{\"notice\":\"The assets currently attached to each Naked Banny, owned by the naked Banny's owner.\"},\"decorateBannyWith(address,uint256,uint256,uint256[])\":{\"notice\":\"Dress your Naked Banny with outfits.\"},\"namesOf(address,uint256)\":{\"notice\":\"Returns the name of the token.\"},\"setProductNames(uint256[],string[])\":{\"notice\":\"Allows the owner to set the product's name.\"},\"setSvgBaseUri(string)\":{\"notice\":\"Allows the owner of this contract to specify the base of the domain hosting the SVG files.\"},\"setSvgContentsOf(uint256[],string[])\":{\"notice\":\"The owner of this contract can store SVG files for product IDs.\"},\"setSvgHashsOf(uint256[],bytes32[])\":{\"notice\":\"Allows the owner of this contract to upload the hash of an svg file for a universal product code.\"},\"svgBaseUri()\":{\"notice\":\"The base of the domain hosting the SVG files that can be lazily uploaded to the contract.\"},\"svgHashOf(uint256)\":{\"notice\":\"The Naked Banny and outfit SVG hash files.\"},\"svgOf(address,uint256,bool,bool)\":{\"notice\":\"Returns the SVG showing either a naked banny with/without outfits and a world, or the stand alone outfit or world.\"},\"tokenUriOf(address,uint256)\":{\"notice\":\"Returns the SVG showing a dressed Naked Banny in a world.\"},\"userOf(address,uint256)\":{\"notice\":\"Checks to see which naked banny is currently using a particular world.\"},\"wearerOf(address,uint256)\":{\"notice\":\"Checks to see which naked banny is currently wearing a particular outfit.\"}},\"version\":1}},\"settings\":{\"remappings\":[\"@arbitrum/=node_modules/@arbitrum/\",\"@bananapus/=node_modules/@bananapus/\",\"@chainlink/=node_modules/@chainlink/\",\"@croptop/=node_modules/@croptop/\",\"@eth-optimism/=node_modules/@eth-optimism/\",\"@exhausted-pigeon/=node_modules/@exhausted-pigeon/\",\"@offchainlabs/=node_modules/@offchainlabs/\",\"@openzeppelin/=node_modules/@openzeppelin/\",\"@prb/=node_modules/@prb/\",\"@rev-net/=node_modules/@rev-net/\",\"@scroll-tech/=node_modules/@scroll-tech/\",\"@sphinx-labs/contracts/=node_modules/@sphinx-labs/contracts/contracts/foundry/\",\"@uniswap/=node_modules/@uniswap/\",\"base64-sol/=node_modules/base64-sol/\",\"base64/=lib/base64/\",\"ds-test/=lib/forge-std/lib/ds-test/src/\",\"forge-std/=lib/forge-std/src/\",\"hardhat/=node_modules/hardhat/\",\"solmate/=node_modules/solmate/\",\"sphinx/=lib/sphinx/packages/contracts/contracts/forge-std/src/\"],\"optimizer\":{\"enabled\":true,\"runs\":200},\"metadata\":{\"bytecodeHash\":\"ipfs\"},\"compilationTarget\":{\"src/Banny721TokenUriResolver.sol\":\"Banny721TokenUriResolver\"},\"evmVersion\":\"paris\",\"libraries\":{},\"viaIR\":true},\"sources\":{\"lib/base64/base64.sol\":{\"keccak256\":\"0xa73959e6ef0b693e4423a562e612370160b934a75e618361ddd8c9c4b8ddbaaf\",\"urls\":[\"bzz-raw://17c12e16d8d66f3af15d8787920bd41ca6c1e7517a212a6b9cebd4b6d38f36fe\",\"dweb:/ipfs/QmcXMnZUXEz6LRKsm3CSvqdPboAzmezavi8bTg2dRxM2yE\"],\"license\":\"MIT\"},\"node_modules/@bananapus/721-hook/src/abstract/ERC721.sol\":{\"keccak256\":\"0xc25c7c60c88684adc3f7a49621d27866866a44a3f3796e63c9fcaba75fbb2e84\",\"urls\":[\"bzz-raw://713103b7a05402264493430cfcd7d85f1a241a2eb4756af53a370fa529ea07bf\",\"dweb:/ipfs/QmSXZfxCG1N9XheS1kLCNJZ9k6ZRq4GnAMY7MKFfbKLXmz\"],\"license\":\"MIT\"},\"node_modules/@bananapus/721-hook/src/interfaces/IJB721Hook.sol\":{\"keccak256\":\"0x24935445bc4c5b0fe2a10aabe549122588940842a68e79a8c39b1df9458dd7fd\",\"urls\":[\"bzz-raw://1dee273fa76d9abae116de911fdda5e3113db2a58939e62e24fba98c63fd037a\",\"dweb:/ipfs/QmT6Lih7DeRAfrLc8uC7ecaw2EAKwhaP2BZHeY5DxeeVLM\"],\"license\":\"MIT\"},\"node_modules/@bananapus/721-hook/src/interfaces/IJB721TiersHook.sol\":{\"keccak256\":\"0xbd9a8dae00a4b1a02c628bd172fe4ae496e49f7651426cef08774ffdb6125c23\",\"urls\":[\"bzz-raw://9ce4fd77d5af1f570dad6b70758f09f9599768e1ab32f6b473f6181197daa0c8\",\"dweb:/ipfs/QmWj6sCTvZ2CbfSyRuhaXADxYbwwPcR42pZokcgfjpsabg\"],\"license\":\"MIT\"},\"node_modules/@bananapus/721-hook/src/interfaces/IJB721TiersHookStore.sol\":{\"keccak256\":\"0x8550e216c12c9cda865c1b1b0eb3f244aeaa8d465b197d4bd0dd8d4df265682e\",\"urls\":[\"bzz-raw://674a312f1eaffd7c6b21f58f8d4a628104e71220daf48a22237fa3bd035ddf21\",\"dweb:/ipfs/QmSRSW6cSwdpoGjVxDqiwJmJyCxfHWhCxZ2iaqeJcN2Ccy\"],\"license\":\"MIT\"},\"node_modules/@bananapus/721-hook/src/interfaces/IJB721TokenUriResolver.sol\":{\"keccak256\":\"0xfa599167098f4459320ec4141a98a17b2dfffbce422baa27d8b4e4530f61ece1\",\"urls\":[\"bzz-raw://8b758b161f4c7b520b2c34b4d91e585e961b8f4ca278eebb91d791f7f2f45140\",\"dweb:/ipfs/QmcD9DF7NJ9QykQpT4KPzm4bs3fkjzukdAUWwdU6Atfw85\"],\"license\":\"MIT\"},\"node_modules/@bananapus/721-hook/src/libraries/JBIpfsDecoder.sol\":{\"keccak256\":\"0xb93ba562ac1fc9d3829be00e61f3a90f51df5661cf0f2c819a7f1d8ba19ec171\",\"urls\":[\"bzz-raw://fc9bc948fac8897d9720ef25b13d63c60b40a18aa1897dd1c657fc278c416b4f\",\"dweb:/ipfs/QmNtiJTALZW5zfyKVy7XG5GkqGgMrfkVvU4Auu4bb9cGQc\"],\"license\":\"MIT\"},\"node_modules/@bananapus/721-hook/src/structs/JB721InitTiersConfig.sol\":{\"keccak256\":\"0xfb78486cec94189d0ecf2050dc9cfc11245b426c73a0711a85bff1359d774307\",\"urls\":[\"bzz-raw://a8fa01f6e64dd204dbde07a60851e9a5a74e439e1411139ae16b7cf67d2a2692\",\"dweb:/ipfs/QmZAnHyfpKr3xr7NWHj5sGaCEEtG8RtmHhkRUJJvNauym5\"],\"license\":\"MIT\"},\"node_modules/@bananapus/721-hook/src/structs/JB721Tier.sol\":{\"keccak256\":\"0x2e267a8af02f125465cdda9308477346ae4a94b024c3b2c2a6af0c00027944dd\",\"urls\":[\"bzz-raw://367ccea2c8fa815d498d771d4367ef1ded718a76e89644102034bfe4a3636b82\",\"dweb:/ipfs/QmYiFFa6ei9wZBSSVUHfY2Cb35zCDVXvbmLcgLj2BTiC1u\"],\"license\":\"MIT\"},\"node_modules/@bananapus/721-hook/src/structs/JB721TierConfig.sol\":{\"keccak256\":\"0x2fa9c5c8cec182b854a656d3b284e9d5306be35ad3dc4da79d65dca12b804af0\",\"urls\":[\"bzz-raw://b443a5f70195a66145ea1dade04454ce9a3ff1209e1aaecf53c8a9909b294d79\",\"dweb:/ipfs/QmUDPFZ4L6XpV3zLQUNVchUvecD4XfddKz2S46BKek5XL1\"],\"license\":\"MIT\"},\"node_modules/@bananapus/721-hook/src/structs/JB721TiersHookFlags.sol\":{\"keccak256\":\"0x283d8429f31bd58875c056515aa42abd09c95362bd929e85cfc44a0d92585766\",\"urls\":[\"bzz-raw://9a580b89fe99d9f8e930c58a4d0d63a5ff7c01c79d210af01373d066c9e72ed6\",\"dweb:/ipfs/QmdY1eSGSoTjv4KSdsG4Tm5CzJN6iqk3qTRga5ZWNbejRz\"],\"license\":\"MIT\"},\"node_modules/@bananapus/721-hook/src/structs/JB721TiersMintReservesConfig.sol\":{\"keccak256\":\"0xab3b319dc4e736586ae595de194d93dcdfeba365bc7a54cf6c37e697f6074ad9\",\"urls\":[\"bzz-raw://a84ae2cf2e8c3e39e831dbb39a67a8eb43c78a6de6bb78b1be2e1f1e80c69efe\",\"dweb:/ipfs/QmboGXEMqsYTxc4a7oft9rggNU7ShWSa9yB4HFMVmzXCHz\"],\"license\":\"MIT\"},\"node_modules/@bananapus/core/src/enums/JBApprovalStatus.sol\":{\"keccak256\":\"0x61c69b6bac7d24b566d87cda23a77e4ca9cdb87200b106aba8534cb9a0973e33\",\"urls\":[\"bzz-raw://6a9ca7249de76f77a8252eefe6bd1b63d47952f25a2acfa2c8db967cdff4470c\",\"dweb:/ipfs/QmaxSxptRQNj8bNy96EreENmrnRWdKmhyihBcxyWzBX5BN\"],\"license\":\"MIT\"},\"node_modules/@bananapus/core/src/interfaces/IJBDirectory.sol\":{\"keccak256\":\"0x9cc380844aef60078ee47a61861e55a29c4a8c947efd556ebd36e6909f7b9d62\",\"urls\":[\"bzz-raw://9f5190ec8b6683d9781ee6e9eedcc91294753242748875d4a06349077e4cbaaf\",\"dweb:/ipfs/QmTQrPuXT9TCA4txwrperMeXSGvGxP8iokUK47f62F388i\"],\"license\":\"MIT\"},\"node_modules/@bananapus/core/src/interfaces/IJBPayHook.sol\":{\"keccak256\":\"0x9438866782c652c2942f4d114e35f393cd3c8b0334abce8387eed90bca35e8b2\",\"urls\":[\"bzz-raw://cfd99daf57213f92325aad7d7d16e98476d38e870470e95ba01e3ae3cdecc95d\",\"dweb:/ipfs/QmUKKAVGf7ki8BHksr99tFcRW8APveeB5tNH63ctTbbCW8\"],\"license\":\"MIT\"},\"node_modules/@bananapus/core/src/interfaces/IJBPriceFeed.sol\":{\"keccak256\":\"0x4bd84c0f1a5d4729ed709bcddd43f4c50ec4a165ece79780af8dce482ed07d4a\",\"urls\":[\"bzz-raw://62bac4bfb6982fb002f620c77e5c445e62d50241a5aa64a07e51d929f5a42180\",\"dweb:/ipfs/QmWgJUDreVY2BuMX38a1iUUR5kNbMwGnKG3VvurB7oZtuM\"],\"license\":\"MIT\"},\"node_modules/@bananapus/core/src/interfaces/IJBPrices.sol\":{\"keccak256\":\"0x99525f31440b955742dce84ba57de9fc1221139b5367c1f834723bef9e13e6e1\",\"urls\":[\"bzz-raw://6fa03f0cd4ad87dd7cbae7bf7f54463450874291773c8f70f2c31ef2cae62bb0\",\"dweb:/ipfs/QmSPajPV5ismteJuB6Spzm9VmhTj2iS3eVrfpJC1Zuzg8n\"],\"license\":\"MIT\"},\"node_modules/@bananapus/core/src/interfaces/IJBProjects.sol\":{\"keccak256\":\"0x735c2fb8f1fa827f054ee77f7a0ae4b312656217acb75b624d2c8fd9dc40151b\",\"urls\":[\"bzz-raw://ee7fc92299a8633a80693ae63ab494dcd125f1789487a54a39dc0e5696e5996f\",\"dweb:/ipfs/QmX7YJD4pS2XhgQb7p3JbBAXynT7YGPXcZe92BiWWRrsCL\"],\"license\":\"MIT\"},\"node_modules/@bananapus/core/src/interfaces/IJBRulesetApprovalHook.sol\":{\"keccak256\":\"0x592e95d159494421c6b1bcb362d0cee1df0132921697351304e9cd7af4fbd386\",\"urls\":[\"bzz-raw://5bebfd5fa67c1b6ea16fa2e76e9520e9dfe52a579f48dd94d0c2ec45f78ad178\",\"dweb:/ipfs/QmRUawEGtfYoYSHmHELGhvJoWuMsxLPKtqAXgsrb7fJboP\"],\"license\":\"MIT\"},\"node_modules/@bananapus/core/src/interfaces/IJBRulesets.sol\":{\"keccak256\":\"0x733fbe50cf2157c936a1d4f0014c14ca90a3da1b1379e2e8a802e39340ed1434\",\"urls\":[\"bzz-raw://f16a428bacc0310dffadd399f3ef2f5f5c2813ebc0e4f12955cac0062a192497\",\"dweb:/ipfs/QmXtG5VAsSLH5Ew6wegTaJn4ymPgiLGy3zN55JrqqxKVjd\"],\"license\":\"MIT\"},\"node_modules/@bananapus/core/src/interfaces/IJBTerminal.sol\":{\"keccak256\":\"0x19dc9bf8cbdc8f13ee5da9dc3a87047eacb94a3fc19740a286c1f0bad2cc39ca\",\"urls\":[\"bzz-raw://0b05ae6fda9a85672508232fd992b8a5f5ffd8096622eeb12c8a7b3317eb3867\",\"dweb:/ipfs/QmNh9Quj37BXYGdTdcCD1Q58PchRsE5TLbEZep56qS3MpV\"],\"license\":\"MIT\"},\"node_modules/@bananapus/core/src/interfaces/IJBTokenUriResolver.sol\":{\"keccak256\":\"0xfa5cb00dcd6085d1ef912d071fe73c63f9478a2cd0f9d8bddaf659b6af2d0967\",\"urls\":[\"bzz-raw://282e4e7c342d65f77cde0e9a08fcaf20ef5cf379c7a48b639842c0ffd0b2afb8\",\"dweb:/ipfs/QmbnN3PEQeZaXdPLT75V1J79kMg7KqSMru37RHrL3z8Yf2\"],\"license\":\"MIT\"},\"node_modules/@bananapus/core/src/structs/JBAccountingContext.sol\":{\"keccak256\":\"0x2907ff54d1e903cc7e0390dd88c3975884702dc2673642aacbe22b66560b56de\",\"urls\":[\"bzz-raw://a66a5381ce877b32f0e0058ceeaf843e9b6b2bc8af666c0c9f4a9d01091da004\",\"dweb:/ipfs/QmQynCetUr37dBkS1YwDS8evxuXGiqanW6THmeUxXtim8w\"],\"license\":\"MIT\"},\"node_modules/@bananapus/core/src/structs/JBAfterPayRecordedContext.sol\":{\"keccak256\":\"0xd26c3a774ff38be79064085970454fe2603a23a638c76270d5b1b3829206c3e8\",\"urls\":[\"bzz-raw://3b55dbe3bf1ef625b7ca04efab3de35406e6041d5b3d82c7265469c500e2b702\",\"dweb:/ipfs/QmUdBDo4Lt3mcsFcsXT2mqq3czFwZjQJFPLM89YA2VtD7k\"],\"license\":\"MIT\"},\"node_modules/@bananapus/core/src/structs/JBRuleset.sol\":{\"keccak256\":\"0x15b2bf3174d84846a91ccbf5a344dfb125b55ed9cf50102db8d6868844225189\",\"urls\":[\"bzz-raw://647416b025dbd941094db89cbc69f755c155bd6c87be3f322394ccc4a8e0442d\",\"dweb:/ipfs/QmTCL9xcHnxQ4t5AmCPoZvXDUPW5xhzhyyXYbkMdyg44au\"],\"license\":\"MIT\"},\"node_modules/@bananapus/core/src/structs/JBTokenAmount.sol\":{\"keccak256\":\"0x5cf0626b73a596c1e2da17c89ae039a7c0374310b060d48568d3b6c11fbe6180\",\"urls\":[\"bzz-raw://63348b50be95e2995409394a17caffc563a646f0972650a1230bf864fbd3219b\",\"dweb:/ipfs/QmZXZpS3SbFD5nWaCauf6AqbEhLURv5qsKHpThBvQgDU6u\"],\"license\":\"MIT\"},\"node_modules/@openzeppelin/contracts/access/Ownable.sol\":{\"keccak256\":\"0xff6d0bb2e285473e5311d9d3caacb525ae3538a80758c10649a4d61029b017bb\",\"urls\":[\"bzz-raw://8ed324d3920bb545059d66ab97d43e43ee85fd3bd52e03e401f020afb0b120f6\",\"dweb:/ipfs/QmfEckWLmZkDDcoWrkEvMWhms66xwTLff9DDhegYpvHo1a\"],\"license\":\"MIT\"},\"node_modules/@openzeppelin/contracts/interfaces/draft-IERC6093.sol\":{\"keccak256\":\"0x60c65f701957fdd6faea1acb0bb45825791d473693ed9ecb34726fdfaa849dd7\",\"urls\":[\"bzz-raw://ea290300e0efc4d901244949dc4d877fd46e6c5e43dc2b26620e8efab3ab803f\",\"dweb:/ipfs/QmcLLJppxKeJWqHxE2CUkcfhuRTgHSn8J4kijcLa5MYhSt\"],\"license\":\"MIT\"},\"node_modules/@openzeppelin/contracts/metatx/ERC2771Context.sol\":{\"keccak256\":\"0x98256cf37b71a69b2f5a8a6fe975ea03590dff703102bd141a830f94e8adebf6\",\"urls\":[\"bzz-raw://6251fe1f6a1e45e6d619d150c123afc88b8646b38ee26a136efa9a6988a31d3f\",\"dweb:/ipfs/QmeXDT85wSZdP31wkz3ah3KhponCiksJLP5o2LR5e1JxcK\"],\"license\":\"MIT\"},\"node_modules/@openzeppelin/contracts/token/ERC721/IERC721.sol\":{\"keccak256\":\"0x5ef46daa3b58ef2702279d514780316efaa952915ee1aa3396f041ee2982b0b4\",\"urls\":[\"bzz-raw://2f8f2a76e23b02fc69e8cd24c3cb47da6c7af3a2d6c3a382f8ac25c6e094ade7\",\"dweb:/ipfs/QmPV4ZS4tPVv4mTCf9ejyZ1ai57EEibDRj7mN2ARDCLV5n\"],\"license\":\"MIT\"},\"node_modules/@openzeppelin/contracts/token/ERC721/IERC721Receiver.sol\":{\"keccak256\":\"0x7f7a26306c79a65fb8b3b6c757cd74660c532cd8a02e165488e30027dd34ca49\",\"urls\":[\"bzz-raw://d01e0b2b837ee2f628545e54d8715b49c7ef2befd08356c2e7f6c50dde8a1c22\",\"dweb:/ipfs/QmWBAn6y2D1xgftci97Z3qR9tQnkvwQpYwFwkTvDMvqU4i\"],\"license\":\"MIT\"},\"node_modules/@openzeppelin/contracts/token/ERC721/extensions/IERC721Metadata.sol\":{\"keccak256\":\"0x37d1aaaa5a2908a09e9dcf56a26ddf762ecf295afb5964695937344fc6802ce1\",\"urls\":[\"bzz-raw://ed0bfc1b92153c5000e50f4021367b931bbe96372ac6facec3c4961b72053d02\",\"dweb:/ipfs/Qmbwp8VDerjS5SV1quwHH1oMXxPQ93fzfLVqJ2RCqbowGE\"],\"license\":\"MIT\"},\"node_modules/@openzeppelin/contracts/utils/Context.sol\":{\"keccak256\":\"0x493033a8d1b176a037b2cc6a04dad01a5c157722049bbecf632ca876224dd4b2\",\"urls\":[\"bzz-raw://6a708e8a5bdb1011c2c381c9a5cfd8a9a956d7d0a9dc1bd8bcdaf52f76ef2f12\",\"dweb:/ipfs/Qmax9WHBnVsZP46ZxEMNRQpLQnrdE4dK8LehML1Py8FowF\"],\"license\":\"MIT\"},\"node_modules/@openzeppelin/contracts/utils/Strings.sol\":{\"keccak256\":\"0x55f102ea785d8399c0e58d1108e2d289506dde18abc6db1b7f68c1f9f9bc5792\",\"urls\":[\"bzz-raw://6e52e0a7765c943ef14e5bcf11e46e6139fa044be564881378349236bf2e3453\",\"dweb:/ipfs/QmZEeeXoFPW47amyP35gfzomF9DixqqTEPwzBakv6cZw6i\"],\"license\":\"MIT\"},\"node_modules/@openzeppelin/contracts/utils/introspection/ERC165.sol\":{\"keccak256\":\"0x9e8778b14317ba9e256c30a76fd6c32b960af621987f56069e1e819c77c6a133\",\"urls\":[\"bzz-raw://1777404f1dcd0fac188e55a288724ec3c67b45288e49cc64723e95e702b49ab8\",\"dweb:/ipfs/QmZFdC626GButBApwDUvvTnUzdinevC3B24d7yyh57XkiA\"],\"license\":\"MIT\"},\"node_modules/@openzeppelin/contracts/utils/introspection/IERC165.sol\":{\"keccak256\":\"0x4296879f55019b23e135000eb36896057e7101fb7fb859c5ef690cf14643757b\",\"urls\":[\"bzz-raw://87b3541437c8c443ccd36795e56a338ed12855eec17f8da624511b8d1a7e14df\",\"dweb:/ipfs/QmeJQCtZrQjtJLr6u7ZHWeH3pBnjtLWzvRrKViAi7UZqxL\"],\"license\":\"MIT\"},\"node_modules/@openzeppelin/contracts/utils/math/Math.sol\":{\"keccak256\":\"0x005ec64c6313f0555d59e278f9a7a5ab2db5bdc72a027f255a37c327af1ec02d\",\"urls\":[\"bzz-raw://4ece9f0b9c8daca08c76b6b5405a6446b6f73b3a15fab7ff56e296cbd4a2c875\",\"dweb:/ipfs/QmQyRpyPRL5SQuAgj6SHmbir3foX65FJjbVTTQrA2EFg6L\"],\"license\":\"MIT\"},\"node_modules/@openzeppelin/contracts/utils/math/SignedMath.sol\":{\"keccak256\":\"0x5f7e4076e175393767754387c962926577f1660dd9b810187b9002407656be72\",\"urls\":[\"bzz-raw://7d533a1c97cd43a57cd9c465f7ee8dd0e39ae93a8fb8ff8e5303a356b081cdcc\",\"dweb:/ipfs/QmVBEei6aTnvYNZp2CHYVNKyZS4q1KkjANfY39WVXZXVoT\"],\"license\":\"MIT\"},\"src/Banny721TokenUriResolver.sol\":{\"keccak256\":\"0x2f9db0062c6356379c35568966c648e89aee77f4433c36fa2fdd3ab26aa62571\",\"urls\":[\"bzz-raw://29e900596f54a7141d442d00e1f62a8801343a22ffe06672a5baa0b909ed49c3\",\"dweb:/ipfs/QmSrMCcJi6EXADeGqSsz4m9hYLL388vwwvSoeV7xmGFCyo\"],\"license\":\"MIT\"}},\"version\":1}",
			"args": [
				"0x584F5Da53cb18789099466074e3B5c32Ed17243a",
				"0xB2b5841DBeF766d4b521221732F9B618fCf34A87"
			],
			"bytecode": "0x60a034620000e957601f6200608438819003918201601f19168301916001600160401b03831184841017620000ee578084926040948552833981010312620000e9576200005a6020620000528362000104565b920162000104565b6080526001600160a01b039081168015620000d057600080546001600160a01b03198116831782556040519316907f8be0079c531659141344cd1fd0a4f28419497f9722a3daafe3b4186f6b6457e09080a3615f6a90816200011a8239608051818181610723015281816108560152615d770152f35b604051631e4fbdf760e01b815260006004820152602490fd5b600080fd5b634e487b7160e01b600052604160045260246000fd5b51906001600160a01b0382168203620000e95756fe6080604052600436101561001257600080fd5b60003560e01c806257bfdd1461013657806318ab522d1461013157806331a290ac1461012c578063572b6c05146101275780635e703e71146101225780636aff31dd1461011d578063715018a61461011857806379a2696e146101135780637da0a8771461010e578063875e4bea146101095780638da5cb5b14610104578063a0122c09146100ff578063a22d0dd5146100fa578063b03a3eab146100f5578063b1fa9e7b146100f0578063c06e7bc7146100eb578063d756227e146100e65763f2fde38b146100e157600080fd5b611461565b611392565b610cca565b610c9f565b610bfa565b610bb5565b610a79565b610a16565b610885565b610840565b61080d565b6107af565b610783565b610757565b6106ff565b610590565b610451565b610407565b90600182811c9216801561016b575b602083101461015557565b634e487b7160e01b600052602260045260246000fd5b91607f169161014a565b634e487b7160e01b600052604160045260246000fd5b602081019081106001600160401b038211176101a657604052565b610175565b604081019081106001600160401b038211176101a657604052565b61026081019081106001600160401b038211176101a657604052565b6111a081019081106001600160401b038211176101a657604052565b606081019081106001600160401b038211176101a657604052565b6101c081019081106001600160401b038211176101a657604052565b90601f801991011681019081106001600160401b038211176101a657604052565b604051906000826002549161026a8361013b565b808352926020906001908181169081156102f85750600114610297575b505061029592500383610235565b565b91509260026000527f405787fa12a823e0f2b7631cc41b3ba8828b3321ca811111fa75cd3aa3bb5ace936000925b8284106102e057506102959450505081016020013880610287565b855488850183015294850194879450928101926102c5565b9150506020925061029594915060ff191682840152151560051b8201013880610287565b9060405191826000825461032f8161013b565b9081845260209460019160018116908160001461039d575060011461035e575b50505061029592500383610235565b600090815285812095935091905b818310610385575050610295935082010138808061034f565b8554888401850152948501948794509183019161036c565b9250505061029594925060ff191682840152151560051b82010138808061034f565b60005b8381106103d25750506000910152565b81810151838201526020016103c2565b906020916103fb815180928185528580860191016103bf565b601f01601f1916010190565b3461043b57600036600319011261043b57610437610423610256565b6040519182916020835260208301906103e2565b0390f35b600080fd5b6001600160a01b0381160361043b57565b3461043b57604036600319011261043b5761047a60043561047181610440565b602435906114ed565b906040519182916040830190835260209060406020850152825180915260206060850193019160005b8281106104b257505050500390f35b8351855286955093810193928101926001016104a3565b604051906101a082018281106001600160401b038211176101a657604052565b6001600160401b0381116101a65760051b60200190565b9080601f8301121561043b57602090823561051a816104e9565b936105286040519586610235565b81855260208086019260051b82010192831161043b57602001905b828210610551575050505090565b81358152908301908301610543565b9181601f8401121561043b578235916001600160401b03831161043b576020808501948460051b01011161043b57565b3461043b5760408060031936011261043b576004906001600160401b03823581811161043b576105c39036908501610500565b9060243590811161043b576105db9036908501610560565b92909180519360005b8581106105ed57005b6105f781846115a5565b5161060d6106068385896115b9565b369161135b565b610629610624836000526004602052604060002090565b6115fa565b6106ef57610641826000526001602052604060002090565b5480156106df578651602081019061066b8161065d8487611604565b03601f198101835282610235565b519020036106cf57907faeb631726b45aa3f6b09da79f7af03a9784614901f61a967ed84d63c37b7edc76106c6836106b9600196956106b4866000526004602052604060002090565b6116cd565b88519182913390836117a2565b0390a2016105e4565b85516375b5da0b60e01b81528990fd5b8651637ef41a4f60e01b81528a90fd5b8551630388067760e21b81528990fd5b3461043b57602036600319011261043b57602060043561071e81610440565b6040517f00000000000000000000000000000000000000000000000000000000000000006001600160a01b039081169216919091148152f35b3461043b57604036600319011261043b5761043761042360043561077a81610440565b60243590611c3c565b3461043b57602036600319011261043b5760043560005260016020526020604060002054604051908152f35b3461043b5760008060031936011261080a576107c96151ea565b80546001600160a01b03198116825581906001600160a01b03167f8be0079c531659141344cd1fd0a4f28419497f9722a3daafe3b4186f6b6457e08280a380f35b80fd5b3461043b57604036600319011261043b57602061083860043561082f81610440565b602435906122b9565b604051908152f35b3461043b57600036600319011261043b576040517f00000000000000000000000000000000000000000000000000000000000000006001600160a01b03168152602090f35b3461043b5760208060031936011261043b576004356001600160401b0380821161043b573660238301121561043b57816004013590811161043b57602492366024838501011161043b576108d76151ea565b6108eb826108e660025461013b565b611632565b600093601f831160011461096957505061093e81807f512c3c91736f50c57a0548c1d01ab02f24c420f002b8b20e2bfe63df9693cd3f9560009161095b575b508160011b916000199060031b1c19161790565b6002555b610956604051928392602433920184612317565b0390a1005b60249150850101353861092a565b6002600052601f19831694907f405787fa12a823e0f2b7631cc41b3ba8828b3321ca811111fa75cd3aa3bb5ace9282915b8783106109fa57505050827f512c3c91736f50c57a0548c1d01ab02f24c420f002b8b20e2bfe63df9693cd3f95106109dd575b5050600181811b01600255610942565b830160240135600019600384901b60f8161c1916905538806109cd565b908060018596848396978b01013581550195019301919061099a565b3461043b57600036600319011261043b576000546040516001600160a01b039091168152602090f35b91610a6890610a5a610a7695936060865260608601906103e2565b9084820360208601526103e2565b9160408184039101526103e2565b90565b3461043b57604036600319011261043b57600435610a9681610440565b60405163507f146560e01b815260243591906001600160a01b03906020816004818587165afa8015610b7557610b0d9360009386938593610b7a575b5060405163c44a8e6d60e01b81526001600160a01b039092166004830152602482019390935260006044820152938492839182906064820190565b0392165afa908115610b7557600091610b52575b50610437610b46610b40610100610b388587614bd9565b940151614f7a565b93614d3b565b60405193849384610a3f565b610b6f91503d806000833e610b678183610235565b810190611843565b38610b21565b6117df565b610b9d91935060203d602011610ba4575b610b958183610235565b8101906117ca565b9138610ad2565b503d610b8b565b8015150361043b57565b3461043b57608036600319011261043b57610437610423600435610bd881610440565b604435610be481610bab565b60643591610bf183610bab565b602435906128de565b3461043b57604036600319011261043b576001600160401b0360043581811161043b57610c2b903690600401610500565b9060243590811161043b573660238201121561043b578060040135610c4f816104e9565b91610c5d6040519384610235565b8183526020916024602085019160051b8301019136831161043b57602401905b828210610c9057610c8e8587612a69565b005b81358152908301908301610c7d565b3461043b57604036600319011261043b576020610838600435610cc181610440565b60243590612b0c565b3461043b57608036600319011261043b5760048035610ce881610440565b60243591604435916064356001600160401b03811161043b57610d0e9036908401610560565b93909160018060a01b039081811694604092835191610d476331a9108f60e11b938481528b818060209485938783019190602083019252565b03818d5afa908115610b7557600091611323575b5083610d74610d68615d74565b6001600160a01b031690565b911603611314578a8a88156112e15750508551848152818180610d9e8b8783019190602083019252565b03818d5afa908115610b75576000916112c4575b5083610dbf610d68615d74565b9116036112b557610dd087866122b9565b6112a657855163507f146560e01b8152818184818d5afa8015610b7557610e3760009186938391611289575b50895163c44a8e6d60e01b81526001600160a01b038a16878201908152602081018d9052600060408201529094859384928391606090910190565b0392165afa908115610b755760009161126e575b50511561125f57918493918a9388610e898e610e7a819a60018060a01b03166000526006602052604060002090565b90600052602052604060002090565b5586610eab8a610e7a8960018060a01b03166000526007602052604060002090565b5591909293505b600091610ebd612be0565b5060009182808e5b8210610f3c57505050505050505095610f248186610f1f610f379695610e7a7f6a68946ba06488db8585d7c7637fa954b574035fe15720ea760125ef860172589b9c60018060a01b03166000526005602052604060002090565b612c94565b610f2c615d74565b915194859485612d0d565b0390a3005b87989950610f778f948f8f908a8f9287859b9c9d9e98999a610f5d92612c51565b359687935195869485938493845283019190602083019252565b03915afa908115610b7557600091611242575b5084610f97610d68615d74565b91160361123257610fa8828b612b0c565b6112225787858f8d519283809263507f146560e01b82525afa8015610b7557836000918d8f8d8a91611016978795611203575b505163c44a8e6d60e01b81526001600160a01b0390931690830190815260208101949094526000604085015290948593849291839160600190565b0392165afa908115610b75576000916111ea575b508051156111da5761010001968751600281109081156111cf575b506111bf5783151590816111b3575b506111a357918f9998969492918f9896949286518881146000146110b3575050899695949392918b6110a5600193610e7a85995b516001600160a01b03909c16600090815260086020526040902090565b550191939092949697610ec5565b600891999b9c5080929496939597989a50146000146110ec57505092889795928f9995928f9895908b6110a5600193610e7a8598611088565b979f9d9b9998979a9e9c9a600581979297148015611199575b801561118f575b80611188575b1561112757508f8f51631e550b6f60e11b8152fd5b9d9f9798999b9d9c9e9a9c600a811490811561117d575b5080611176575b61116657928f999896938f989592938b6110a58c9996610e7a600195611088565b8a51635e701b2b60e01b81528890fd5b5085611145565b60099150143861113e565b5087611112565b50600b811461110c565b5060068114611105565b8a51637dc0e82560e11b81528890fd5b90508751111538611054565b8b5163c89badbd60e01b81528990fd5b600d91501138611045565b8b516354c0901d60e11b81528990fd5b6111fd913d8091833e610b678183610235565b3861102a565b61121b9195508d803d10610ba457610b958183610235565b9338610fdb565b8a5163670bdddd60e11b81528890fd5b8a5163812a698960e01b81528890fd5b6112599150863d8811610ba457610b958183610235565b38610f8a565b50845163265ba87960e01b8152fd5b61128391503d806000833e610b678183610235565b38610e4b565b6112a09150853d8711610ba457610b958183610235565b38610dfc565b50845163670bdddd60e11b8152fd5b508451639d17cec760e01b8152fd5b6112db9150823d8411610ba457610b958183610235565b38610db2565b9391600061130983610e7a8a9997959a60018060a01b03166000526006602052604060002090565b559190929350610eb2565b508451632add3f4b60e01b8152fd5b61133a9150823d8411610ba457610b958183610235565b38610d5b565b6001600160401b0381116101a657601f01601f191660200190565b92919261136782611340565b916113756040519384610235565b82948184528183011161043b578281602093846000960137010152565b3461043b57604036600319011261043b576001600160401b0360043581811161043b576113c3903690600401610500565b60249060243583811161043b573660238201121561043b578060040135926113ea846104e9565b936113f86040519586610235565b8085526020956024602087019260051b8501019336851161043b5760248101925b85841061142a57610c8e8888612d50565b833583811161043b5782013660438201121561043b5789916114568392369060448a820135910161135b565b815201930192611419565b3461043b57602036600319011261043b5760043561147e81610440565b6114866151ea565b6001600160a01b0390811680156114d457600080546001600160a01b03198116831782559092167f8be0079c531659141344cd1fd0a4f28419497f9722a3daafe3b4186f6b6457e08380a380f35b604051631e4fbdf760e01b815260006004820152602490fd5b6001600160a01b038116600090815260056020908152604080832085845282528083209051815480825291845282842081840197969392855b81811061156957505050806115446115609260409798990382610235565b6001600160a01b03909616600090815260066020526040902090565b91835252205491565b82548a529884019860019283019201611526565b634e487b7160e01b600052603260045260246000fd5b8051156115a05760200190565b61157d565b80518210156115a05760209160051b010190565b91908110156115a05760051b81013590601e198136030182121561043b5701908135916001600160401b03831161043b57602001823603811361043b579190565b610a76905461013b565b90611617602092828151948592016103bf565b0190565b818110611626575050565b6000815560010161161b565b90601f821161163f575050565b6102959160026000527f405787fa12a823e0f2b7631cc41b3ba8828b3321ca811111fa75cd3aa3bb5ace906020601f840160051c83019310611689575b601f0160051c019061161b565b909150819061167c565b9190601f81116116a257505050565b610295926000526020600020906020601f840160051c8301931061168957601f0160051c019061161b565b91909182516001600160401b0381116101a6576116f4816116ee845461013b565b84611693565b602080601f83116001146117375750819061172893949560009261172c575b50508160011b916000199060031b1c19161790565b9055565b015190503880611713565b90601f1983169561174d85600052602060002090565b926000905b88821061178a57505083600195969710611771575b505050811b019055565b015160001960f88460031b161c19169055388080611767565b80600185968294968601518155019501930190611752565b906117ba6020919493946040845260408401906103e2565b6001600160a01b03909416910152565b9081602091031261043b5751610a7681610440565b6040513d6000823e3d90fd5b519061029582610440565b519061029582610bab565b81601f8201121561043b57805161181781611340565b926118256040519485610235565b8184526020828401011161043b57610a7691602080850191016103bf565b60208183031261043b5780516001600160401b039182821161043b57016101a08184031261043b576118736104c9565b92815184526020820151602085015260408201516040850152606082015160608501526080820151608085015260a082015160a08501526118b660c083016117eb565b60c085015260e082015160e085015261010080830151908501526101206118de8184016117f6565b908501526101406118f08184016117f6565b908501526101606119028184016117f6565b90850152610180928383015190811161043b5761191f9201611801565b9082015290565b604051906119338261018b565b60008252565b60405190611946826101ab565b600e82526d226f7574666974496473223a205b60901b6020830152565b60236102959193929360405194816119858793518092602080870191016103bf565b8201601160f91b60208201526119a58251809360206021850191016103bf565b0161088b60f21b6021820152036003810185520183610235565b906102956022604051846119dd8296518092602080860191016103bf565b810161174b60f21b6020820152036002810185520183610235565b602e610295919392936040519481611a1a8793518092602080870191016103bf565b82016b113bb7b9363224b2111d101160a11b6020820152611a45825180936020602c850191016103bf565b0161088b60f21b602c82015203600e810185520183610235565b90604051918260605160005b818110611aa0575090602061029593611a948294840191838301600081528151948592016103bf565b01038085520183610235565b6020919250806080015182828801015201908491611a6b565b6020610295919392936040519481611ada87935180928680870191016103bf565b8201611a94825180938680850191016103bf565b90610295603960405180947f22776f726e42794e616b656442616e6e794964223a20220000000000000000006020830152611b338151809260206037860191016103bf565b810161088b60f21b6037820152036019810185520183610235565b90610295603960405180947f227573656442794e616b656442616e6e794964223a20220000000000000000006020830152611b338151809260206037860191016103bf565b9060208282031261043b5781516001600160401b03811161043b57610a769201611801565b9081602091031261043b575190565b9081606091031261043b5780519160406020830151920151610a7681610440565b90610295603d60405180947f646174613a6170706c69636174696f6e2f6a736f6e3b6261736536342c0000006020830152611c2c81518092602086860191016103bf565b810103601d810185520183610235565b6040805163507f146560e01b808252602092916001600160a01b03919060049086841686828481845afa8015610b755789600091611cb894839161229c575b50885163c44a8e6d60e01b81526001600160a01b038c1687820190815260208101939093526000604084015294859283918a918391606090910190565b0392165afa918215610b7557600092612281575b5081511561227057611cdc611926565b5061010082018051909490156121e357611cf783518a6130d8565b9889516121ac575b855160010361219157611d22611d1d611d188d846122b9565b612f2a565b611b4e565b965b8a511561205f575050865163043c358d60e11b81529360609285925082905afa908115610b755760009260009261202a575b50611d61818a614bd9565b988151611d6d90614d3b565b948051611d7990614f7a565b91611d8390612f2a565b908351611d8f90612f2a565b9051611d9a90612f2a565b916060850151611da990612f2a565b938b8b870151611db890612f2a565b960151611dc490612f2a565b96611dce90612f2a565b97611dd890612f2a565b988c8c519e8f918201611dea91611604565b039d601f199e8f81018252611dff9082610235565b611e0890615101565b9b51683d913730b6b2911d1160b91b9d81019d8e529e8f9d600901611e2c91611604565b7211161011383937b23ab1ba2730b6b2911d101160691b8152601301611e5191611604565b731116101131b0ba32b3b7b93ca730b6b2911d101160611b8152601401611e7791611604565b6e111610113a37b5b2b724b2111d101160891b8152600f01611e9891611604565b6a111610113ab831911d101160a91b8152600b01611eb591611604565b6f1116101131b0ba32b3b7b93c911d101160811b8152601001611ed791611604565b6d1116101139bab838363c911d101160911b8152600e01611ef791611604565b70111610113932b6b0b4b734b733911d101160791b8152601101611f1a91611604565b6c11161011383934b1b2911d101160991b8152600d01611f3991611604565b6f111610113232b1b4b6b0b639911d101160811b8152601001611f5b91611604565b6f1116101131bab93932b731bc911d101160811b8152601001611f7d91611604565b6201116160ed1b8152600301611f9291611604565b7f226465736372697074696f6e223a2241207069656365206f662074686520426181527f6e6e797665727365222c22696d616765223a22646174613a696d6167652f737660208201526c19cade1b5b0ed8985cd94d8d0b609a1b6040820152604d01611ffd91611604565b61227d60f01b81526002010390810182526120189082610235565b61202190615101565b610a7690611be8565b90925061204f915060603d606011612058575b6120478183610235565b810190611bc7565b50909138611d56565b503d61203d565b935093949097999550600d919698505111600014612182578651636c0360eb60e01b81526000818581895afa8015610b7557899160009161215f575b50965b8489518098819382525afa928315610b75576120f2978996600095612140575b5051630c8df17160e41b81526001600160a01b03909316908301908152602081019490945290958693849291839160400190565b0392165afa918215610b7557610a7693600093612111575b50506148f2565b612131929350803d10612139575b6121298183610235565b810190611bb8565b90388061210a565b503d61211f565b612158919550873d8911610ba457610b958183610235565b93386120be565b61217c91503d806000833e6121748183610235565b810190611b93565b3861209b565b8761218b610256565b9661209e565b6121a66121a1611d188d84612b0c565b611aee565b96611d24565b986121bf9060018751036121c5576147ff565b98611cff565b6121de906121d96121d46131d8565b614739565b611ab9565b6147ff565b6121ed8a8a612749565b986121f88b826114ed565b8098919851612205611939565b906000925b81841061224557505061221d91506119bf565b978061222a575b50611d24565b9761223861223e9299612f2a565b906119f8565b9638612224565b909161226660019161226061225a87866115a5565b51612f2a565b90611963565b930192919061220a565b505050505050505050610a76611926565b61229591923d8091833e610b678183610235565b9038611ccc565b6122b391508a3d8c11610ba457610b958183610235565b38611c7b565b60018060a01b031660009080825260076020526040822083835260205260408220549283159182156122f5575b50506122f0575090565b905090565b90915082526006602052604082208383526020526040822054141538806122e6565b918060609160209396959660408652816040870152838601376000828286010152601f80199101168301019360018060a01b0316910152565b6040519061010082018281106001600160401b038211176101a65760405260dd82527f746820643d224d3138302031343768337633682d337a222f3e3c2f673e00000060e0837f3c6720636c6173733d226f223e3c7061746820643d224d31373720313430763360208201527f6836763131683130762d31316834762d33682d32307a222f3e3c70617468206460408201527f3d224d31353320313430763368377638203368372033762d31316833762d336860608201527f2d32307a222f3e3c2f673e3c6720636c6173733d2277223e3c7061746820643d60808201527f224d3135332031343368377634682d377a222f3e3c7061746820643d224d313560a08201527f372031343768337633682d337a6d32302d3468367634682d367a222f3e3c706160c08201520152565b6040519061248b826101c6565b61023a82527f643d224d3139302031333768347633682d347a222f3e3c2f673e000000000000610240837f3c6720636c6173733d226f223e3c7061746820643d224d31393020313237683360208201527f7633682d337a6d3320313368347633682d347a6d2d3432203068367636682d3660408201527f7a222f3e3c7061746820643d224d3135312031333368337637682d337a6d313060608201527f203068367634682d367a222f3e3c7061746820643d224d31353720313337683160808201527f377636682d31377a6d332031336831347633682d31347a6d31372d313368377660a08201527f3136682d377a222f3e3c7061746820643d224d3138342031333768367636682d60c08201527f367a6d302031306831307636682d31307a222f3e3c7061746820643d224d313860e08201527f37203134336831307634682d31307a222f3e3c7061746820643d224d313930206101008201527f31343068337633682d337a6d2d362d313068337637682d337a222f3e3c7061746101208201527f6820643d224d3138372031333068367633682d367a6d2d3336203068313076336101408201527f682d31307a6d313620313368377637682d377a6d2d3130203068377637682d376101608201527f7a222f3e3c7061746820643d224d3136342031343768337633682d337a6d32396101808201527f2d323068347636682d347a222f3e3c7061746820643d224d31393420313333686101a08201527f337637682d337a222f3e3c2f673e3c6720636c6173733d2277223e3c706174686101c08201527f20643d224d3135342031333368377634682d377a222f3e3c7061746820643d226101e08201527f4d3135342031333768337633682d337a6d3130203668337634682d337a6d32306102008201527f203068337634682d337a6d332d313068377634682d377a222f3e3c70617468206102208201520152565b60405163507f146560e01b81526001600160a01b036020826004818685165afa918215610b75576000926128ba575b5060405163c44a8e6d60e01b81526001600160a01b0384166004820152602481018590526000604482018190529092909183916064918391165afa908115610b75576000916128a1575b5080511561289657606092610100820151612871579261282891600161280f6127ee610a7697876114ed565b94908015158061286a575b612850575b50612809845161522b565b90611ab9565b915103612844576128229061280961247e565b92615654565b8051612835575b506147ff565b61283e91611ab9565b3861282f565b61282290612809612350565b612864915061285f90886130d8565b611a5f565b386127fe565b50836127f9565b5061287e925051906130d8565b805161288d5750610a76611926565b610a76906147ff565b505050610a76611926565b6128b4913d8091833e610b678183610235565b386127c2565b60009192506128d79060203d602011610ba457610b958183610235565b9190612778565b60405163507f146560e01b81529390916001600160a01b036020866004818488165afa958615610b7557600096612a45575b5060405163c44a8e6d60e01b81526001600160a01b0385166004820152602481018390526000604482018190529096909187916064918391165afa948515610b7557600095612a2a575b50845115612a1d57606090610100860151612a0d5761299e610a769692612983600193876114ed565b958115159081612a05575b506129f65750612809845161522b565b9151036129e4576129b19061280961247e565b925b6129bf575b50506147ff565b6129c891615654565b80516129d5575b806129b8565b6129de91611ab9565b386129cf565b6129f090612809612350565b926129b3565b612864915061285f90876130d8565b90503861298e565b505050905061287e9151906130d8565b5050505050610a76611926565b612a3e91953d8091833e610b678183610235565b933861295a565b6000919650612a629060203d602011610ba457610b958183610235565b9590612910565b90612a726151ea565b81519060009260005b838110612a89575050505050565b612a9381836115a5565b51612a9e82856115a5565b5190808752602060018152604080892054612afc5782917fb10eb6fc7557a7109693cb8f3fac48d44328de56c0368ee4cac539b424d2cad99185612af060019897966000526001602052604060002090565b5551338152a301612a7b565b516333ded41b60e21b8152600490fd5b6001600160a01b03811660009081526008602090815260408083208584528252822054919390928215612bd9576001600160a01b03166000908152600560205260409020828552835260408420926040518094859183825491828152019188528388209388905b828210612bbf57505050612b8992500384610235565b825192845b848110612b9d57505050505090565b82612ba882846115a5565b5114612bb657600101612b8e565b50505091505090565b855484526001958601958995509381019390910190612b73565b5050505090565b604051906101a082018281106001600160401b038211176101a657604052606061018083600080825280602083015280604083015280848301528060808301528060a08301528060c08301528060e08301528061010083015280610120830152806101408301526101608201520152565b91908110156115a05760051b0190565b634e487b7160e01b600052601160045260246000fd5b600281901b91906001600160fe1b03811603612c8f57565b612c61565b906001600160401b0383116101a6576801000000000000000083116101a6578154838355808410612cef575b50906000526020806000209060005b848110612cdd575050505050565b83358382015592810192600101612ccf565b612d079083600052846020600020918201910161161b565b38612cc0565b9081526060602082018190528101839052929392916001600160fb1b03811161043b5760409160809160051b8091838601378301019360018060a01b0316910152565b9190612d5a6151ea565b82516000935b818510612d6e575050509050565b612d7885826115a5565b5194612d8481856115a5565b51958060005260039660209780895260409081600020908351906001600160401b0382116101a657612dc082612dba855461013b565b85611693565b8b601f8311600114612e43575050917f9dedd219289ed514faff576c477c66bd097aef59a236e3b8ebcf0d0070cb4e969391612e1c84612e2b9560019a9b9c9d9e600091612e3857508160011b916000199060031b1c19161790565b90555b519182913390836117a2565b0390a20193929190612d60565b90508501513861092a565b909b601f198316612e5985600052602060002090565b926000905b828210612ec8575050916001999a9b9c9d8492612e2b97957f9dedd219289ed514faff576c477c66bd097aef59a236e3b8ebcf0d0070cb4e9699979510612eae575b505050881b88019055612e1f565b8601519060f884600019921b161c19169055388080612ea0565b80600185968294968c01518155019501930190612e5e565b604051612eec8161018b565b60008152906000368137565b90612f0282611340565b612f0f6040519182610235565b8281528092612f20601f1991611340565b0190602036910137565b806000917a184f03e93ff9f4daa797ed6e38ed64bf6a1f0100000000000000008082101561305f575b506d04ee2d6d415b85acef810000000080831015613050575b50662386f26fc1000080831015613041575b506305f5e10080831015613032575b5061271080831015613023575b506064821015613013575b600a80921015613009575b600190816021612fc260018701612ef8565b95860101905b612fd3575050505090565b600019019083906f181899199a1a9b1b9c1cb0b131b232b360811b8282061a83530491821561300457919082612fc8565b612bd9565b9160010191612fb0565b9190606460029104910191612fa5565b60049193920491019138612f9a565b60089193920491019138612f8d565b60109193920491019138612f7e565b60209193920491019138612f6c565b604093508104915038612f53565b90610295604960405180946c1e34b6b0b3b290343932b31e9160991b60208301526130a2815180926020602d860191016103bf565b81017f222077696474683d2234303022206865696768743d22343030222f3e00000000602d820152036029810185520183610235565b6130f46130ef836000526004602052604060002090565b61031c565b80516131d2575060405163507f146560e01b81526001600160a01b039260209283836004818489165afa908115610b75576131679585946000936131b3575b50604051632f54648f60e21b81526001600160a01b0390921660048301526024820193909352948592839182906044820190565b0392165afa8015610b7557610a769261319192600092613196575b505061318c610256565b6148f2565b61306d565b6131ac9250803d10612139576121298183610235565b3880613182565b6131cb919350853d8711610ba457610b958183610235565b9138613133565b91505090565b604051906131e5826101e2565b61117a82527f762d31306833762d376833762d33682d31307a222f3e3c2f673e000000000000611180837f3c6720636c6173733d226131223e3c7061746820643d224d313733203533683460208201527f763137682d347a222f3e3c2f673e3c6720636c6173733d226132223e3c70617460408201527f6820643d224d3136372035376833763130682d337a222f3e3c7061746820643d60608201527f224d3136392035336834763137682d347a222f3e3c2f673e3c6720636c61737360808201527f3d226133223e3c7061746820643d224d31363720353368337634682d337a222f60a08201527f3e3c7061746820643d224d3136332035376834763130682d347a222f3e3c706160c08201527f746820643d224d31363720363768337633682d337a222f3e3c2f673e3c67206360e08201527f6c6173733d226231223e3c7061746820643d224d32313320323533682d33762d6101008201527f332d33682d33762d372d33682d34762d3130682d33762d372d372d33682d33766101208201527f2d3733682d34762d3130682d33762d3130682d33762d37682d34762d37682d336101408201527f762d33682d33762d33682d3476313068347631306833763130683376336834766101608201527f37203320373020336833763768337632306834763768337633683376336834766101808201527f34683376336833762d332d347a222f3e3c7061746820643d224d3235332033306101a08201527f37762d34682d33762d33682d33762d33682d34762d34682d33762d33682d33766101c08201527f2d33682d34762d34682d33762d33682d33762d33682d34762d34682d33762d366101e08201527f682d33762d37682d3476313768347633683376336833203476346833763368336102008201527f76336834763468337633683376336834763468337633683376336834762d36686102208201527f2d347a222f3e3c2f673e3c6720636c6173733d226232223e3c7061746820643d6102408201527f224d32353020333130762d33682d33762d34682d34762d33682d33762d33682d6102608201527f33762d34682d34762d33682d33762d33682d33762d34682d37762d33682d33766102808201527f2d33682d34762d3137682d33762d33682d33762d34682d34762d33682d33762d6102a08201527f33682d33762d37682d34762d3230682d33762d37682d33762d37332d332d37686102c08201527f2d34762d33682d33762d3130682d33762d3130682d34563730682d33762d336c6102e08201527f2d332031303020332d313030763430682d33763130682d347636682d337631346103008201527f682d337633203133682d347634346834763136683376313468337631336834766103208201527f31306833763768337633683476336833763468337633683476336833763468336103408201527f76336834763368337637683776376836763368377633683776346831337633686103608201527f337633683130762d33682d337a6d2d3130332d3837762d31366833762d3130686103808201527f2d337636682d34763137682d337631306833762d3768347a222f3e3c706174686103a08201527f20643d224d3134332032333068347637682d347a6d3420313068337633682d336103c08201527f7a6d33203768337633682d337a6d33203668347634682d347a222f3e3c7061746103e08201527f6820643d224d31363320323537682d36763368337633683376346834762d342d6104008201527f33682d34762d337a222f3e3c2f673e3c6720636c6173733d226233223e3c70616104208201527f746820643d224d3134332031393776366834762d366836762d34346834762d316104408201527f366833762d31346833762d366834762d31306833563937682d377636682d33766104608201527f34682d337633682d347633682d3376342033682d3376332034682d34763130686104808201527f2d337631362034682d337634366833762d3668337a222f3e3c7061746820643d6104a08201527f224d313430203230336833763137682d337a222f3e3c7061746820643d224d316104c08201527f3337203232306833763130682d337a222f3e3c7061746820643d224d313533206104e08201527f323530682d33762d37682d33762d36682d34762d37682d3376313068337637686105008201527f347636683376346833762d377a6d2d3320313068337637682d337a222f3e3c706105208201527f61746820643d224d3134372032353768337633682d337a6d36203068347633686105408201527f2d347a222f3e3c7061746820643d224d31363020323633762d33682d337633206105608201527f376836762d37682d337a6d2d31302d3536763136682d337637683376313068336105808201527f763768347636683676346837762d342d33682d33762d3130682d34762d3133686105a08201527f2d33762d3134682d33762d3136682d34763130682d337a222f3e3c70617468206105c08201527f643d224d32343320333133762d33682d33762d33682d31302d33762d34682d376105e08201527f762d33682d37762d33682d36762d37682d37762d37682d33762d33682d34762d6106008201527f33682d33762d34682d33762d33682d34762d33682d33762d34682d33762d33686106208201527f2d34762d33682d33763130682d337633682d347633682d3376376833763768346106408201527f76366833763568347633683676336833763368342033763368332034763368336106608201527f20337634683130763368372037203376336831302033762d33683130762d33686106808201527f34762d34682d31347a222f3e3c2f673e3c6720636c6173733d226234223e3c706106a08201527f61746820643d224d3138332031333068347637682d347a222f3e3c70617468206106c08201527f643d224d3138302031323768337633682d337a6d2d32372d3468347637682d346106e08201527f7a222f3e3c7061746820643d224d3135372031313768337636682d337a222f3e6107008201527f3c7061746820643d224d3136302031313068337637682d337a222f3e3c7061746107208201527f6820643d224d3136332031303768347633682d347a6d2d3320383368337637686107408201527f2d337a222f3e3c7061746820643d224d3136332031383768347633682d347a6d6107608201527f3230203068377633682d377a222f3e3c7061746820643d224d313830203139306107808201527f68337633682d337a6d31302d3768337634682d337a222f3e3c7061746820643d6107a08201527f224d3139332031383768347636682d347a6d2d323020353368347637682d347a6107c08201527f222f3e3c7061746820643d224d3137372032343768337636682d337a222f3e3c6107e08201527f7061746820643d224d3138302032353368337637682d337a222f3e3c706174686108008201527f20643d224d3138332032363068377633682d377a222f3e3c7061746820643d226108208201527f4d3139302032363368337634682d337a6d302d323068337634682d337a222f3e6108408201527f3c7061746820643d224d3138372032343068337633682d337a222f3e3c7061746108608201527f6820643d224d3139302032333768337633682d337a6d313320323368347633686108808201527f2d347a222f3e3c7061746820643d224d3230372032363368337637682d337a226108a08201527f2f3e3c7061746820643d224d3231302032373068337633682d337a6d2d3130206108c08201527f3768337636682d337a222f3e3c7061746820643d224d323033203238336834766108e08201527f37682d347a222f3e3c7061746820643d224d3230372032393068367633682d366109008201527f7a222f3e3c2f673e3c6720636c6173733d226f223e3c7061746820643d224d316109208201527f3333203135376834763530682d347a6d302036336834763130682d347a6d32376109408201527f2d3136336833763130682d337a222f3e3c7061746820643d224d3136332035336109608201527f68347634682d347a222f3e3c7061746820643d224d31363720353068313076336109808201527f682d31307a222f3e3c7061746820643d224d3137372035336833763137682d336109a08201527f7a222f3e3c7061746820643d224d3137332037306834763237682d347a6d2d366109c08201527f20306833763237682d337a222f3e3c7061746820643d224d31363320363768346109e08201527f7633682d347a6d3020333068347633682d347a222f3e3c7061746820643d224d610a008201527f3136302031303068337633682d337a222f3e3c7061746820643d224d31353720610a208201527f31303368337634682d337a222f3e3c7061746820643d224d3135332031303768610a408201527f347633682d347a222f3e3c7061746820643d224d313530203131306833763368610a608201527f2d337a222f3e3c7061746820643d224d3134372031313368337637682d337a22610a808201527f2f3e3c7061746820643d224d3134332031323068347637682d347a222f3e3c70610aa08201527f61746820643d224d313430203132376833763130682d337a222f3e3c70617468610ac08201527f20643d224d313337203133376833763230682d337a6d35362d31306834763130610ae08201527f682d347a222f3e3c7061746820643d224d313930203131376833763130682d33610b008201527f7a222f3e3c7061746820643d224d3138372031313068337637682d337a222f3e610b208201527f3c7061746820643d224d3138332031303368347637682d347a222f3e3c706174610b408201527f6820643d224d3138302031303068337633682d337a222f3e3c7061746820643d610b608201527f224d31373720393768337633682d337a6d2d3430203130366833763137682d33610b808201527f7a6d302032376833763130682d337a6d313020333068337637682d337a222f3e610ba08201527f3c7061746820643d224d31353020323537762d34682d33762d36682d34762d37610bc08201527f682d3376313068337631306834762d3368337a222f3e3c7061746820643d224d610be08201527f3135302032353768337633682d337a222f3e3c7061746820643d224d31363320610c008201527f323733762d33682d36762d3130682d347637682d337633683376336834763768610c208201527f33762d3768337a222f3e3c7061746820643d224d313633203236376834763368610c408201527f2d347a222f3e3c7061746820643d224d31373020323537682d332d3476336834610c608201527f76376833762d31307a222f3e3c7061746820643d224d31353720323533683676610c808201527f34682d367a222f3e3c7061746820643d224d3135332032343768347636682d34610ca08201527f7a222f3e3c7061746820643d224d3135302032343068337637682d337a222f3e610cc08201527f3c7061746820643d224d313437203233306833763130682d337a6d3133203530610ce08201527f68337637682d337a222f3e3c7061746820643d224d3134332032323368347637610d008201527f682d347a222f3e3c7061746820643d224d313437203230376833763136682d33610d208201527f7a222f3e3c7061746820643d224d313530203139376833763130682d337a6d2d610d408201527f3130203068337636682d337a6d35302031313368377633682d377a6d32332031610d608201527f306831377633682d31377a222f3e3c7061746820643d224d3233302033323368610d808201527f31337634682d31337a222f3e3c7061746820643d224d32343320333230683130610da08201527f7633682d31307a222f3e3c7061746820643d224d323533203331376834763368610dc08201527f2d347a222f3e3c7061746820643d224d323537203330376833763130682d337a610de08201527f222f3e3c7061746820643d224d3235332033303368347634682d347a222f3e3c610e008201527f7061746820643d224d3235302033303068337633682d337a222f3e3c70617468610e208201527f20643d224d3234372032393768337633682d337a222f3e3c7061746820643d22610e408201527f4d3234332032393368347634682d347a222f3e3c7061746820643d224d323430610e608201527f2032393068337633682d337a222f3e3c7061746820643d224d32333720323837610e808201527f68337633682d337a222f3e3c7061746820643d224d3233332032383368347634610ea08201527f682d347a222f3e3c7061746820643d224d3233302032383068337633682d337a610ec08201527f222f3e3c7061746820643d224d3232372032373768337633682d337a222f3e3c610ee08201527f7061746820643d224d3232332032373368347634682d347a222f3e3c70617468610f008201527f20643d224d3232302032363768337636682d337a222f3e3c7061746820643d22610f208201527f4d3231372032363068337637682d337a222f3e3c7061746820643d224d323133610f408201527f2032353368347637682d347a222f3e3c7061746820643d224d32313020323437610f608201527f68337636682d337a222f3e3c7061746820643d224d3230372032333768337631610f808201527f30682d337a222f3e3c7061746820643d224d323033203232376834763130682d610fa08201527f347a6d2d343020363068347636682d347a6d323420323068337633682d337a22610fc08201527f2f3e3c7061746820643d224d3136372032393368337635682d337a6d31362031610fe08201527f3468347633682d347a222f3e3c7061746820643d224d313730203239386834766110008201527f33682d347a6d3130203668337633682d337a222f3e3c7061746820643d224d316110208201527f37342033303168367633682d367a6d323320313268367634682d367a222f3e3c6110408201527f7061746820643d224d323033203331376831307633682d31307a6d2d322d31306110608201527f37762d3733682d3476373368337631376833762d3137682d327a222f3e3c2f676110808201527f3e3c6720636c6173733d226f223e3c7061746820643d224d31383720333037766110a08201527f2d346833762d36682d33762d34682d34762d33682d33762d33682d37762d34686110c08201527f2d367634682d3476336834763237682d34763133682d33763130682d347637686110e08201527f3476336833203130203134762d33682d34762d34682d33762d33682d33762d336111008201527f682d34762d376834762d31306833762d376833762d336837762d33682d337a6d6111208201527f3136203130762d34682d36763137682d34763130682d337637683376336834206111408201527f3620342033203134762d33682d34762d34682d37762d33682d33762d33682d336111608201520152565b90610295609a60405180947f3c7374796c653e2e6f7b66696c6c3a233830383038303b7d2e62327b66696c6c60208301527f3a6e6f6e653b7d2e62337b66696c6c3a6e6f6e653b7d2e62347b66696c6c3a6e60408301527f6f6e653b7d2e61317b66696c6c3a6e6f6e653b7d2e61327b66696c6c3a6e6f6e60608301527f653b7d2e61337b66696c6c3a6e6f6e653b7d3c2f7374796c653e00000000000060808301526147ef81518092602086860191016103bf565b810103607a810185520183610235565b9061029560ba60405180947f3c7376672077696474683d2234303022206865696768743d223430302220766960208301527f6577426f783d223020302034303020343030222066696c6c3d226e6f6e65222060408301527f786d6c6e733d22687474703a2f2f7777772e77332e6f72672f323030302f737660608301527f67223e3c7374796c653e2e6f7b66696c6c3a233035303530353b7d2e777b666960808301527336361d11b31cb31cb31c9dbe9e17b9ba3cb6329f60611b60a08301526148d381518092602060b4860191016103bf565b8101651e17b9bb339f60d11b60b482015203609a810185520183610235565b90610a7690614920604051602092609160f51b8483015260228201526022815261491b816101fe565b6158d7565b92604051938161493986935180928680870191016103bf565b820161494d825180938680850191016103bf565b01038084520182610235565b906102956021604051846149778296518092602080860191016103bf565b8101600160fd1b6020820152036001810185520183610235565b610295916149e79493602b926040519687936020926149b88151809286808a0191016103bf565b85016149cc825180938680850191016103bf565b0191602f60f81b8184015283519384916021850191016103bf565b01692072656d61696e696e6760b01b602182015203600b810185520183610235565b6037906102959294936040519582614a2b8894518092602080880191016103bf565b83016b0101429a7a6221027aaaa14960a51b6020820152614a56825180936020602c850191016103bf565b01602f60f81b602c820152614a75825180936020602d850191016103bf565b01692072656d61696e696e6760b01b602d820152036017810185520183610235565b61029591614aec9493602192604051968793602092614abe8151809286808a0191016103bf565b8501614ad2825180938680850191016103bf565b0191602f60f81b81840152835193849187850191016103bf565b01036001810185520183610235565b90610295602360405184614b198296518092602080860191016103bf565b8101620101d160ed1b6020820152036003810185520183610235565b6021610295919392936040519481614b578793518092602080870191016103bf565b8201614b6c82518093602080850191016103bf565b01600160fd1b6020820152036001810185520183610235565b6025610295919392936040519481614ba78793518092602080870191016103bf565b820164555043202360d81b6020820152614bca82518093602087850191016103bf565b01036005810185520183610235565b90614c25610a7692633b9aca00614bf8614bf38551614d3b565b614959565b91068015614c615790614c0d614c2092612f2a565b614c1a6060860151612f2a565b91614a97565b614afb565b90614c34610100820151614f7a565b8051614c4c575b50614c469051612f2a565b90614b85565b614c5a90614c469293614b35565b9190614c3b565b50604083019081518015600014614c935750614c80614c209251612f2a565b614c8d6060860151612f2a565b91614a09565b614c209250614ca190612f2a565b614cae6060860151612f2a565b91614991565b60405190614cc1826101ab565b600882526713dc9a59da5b985b60c21b6020830152565b60405190614ce5826101ab565b60068252654f72616e676560d01b6020830152565b60405190614d07826101ab565b600482526350696e6b60e01b6020830152565b60405190614d27826101ab565b600582526420b634b2b760d91b6020830152565b60018103614d4c5750610a76614d1a565b60028103614d5d5750610a76614cfa565b60038103614d6e5750610a76614cd8565b60048103614d7f5750610a76614cb4565b6000526003602052610a76604060002061031c565b60405190614da1826101ab565b6007825266546f7070696e6760c81b6020830152565b60405190614dc4826101ab565b6004825263119a5cdd60e21b6020830152565b60405190614de4826101ab565b600b82526a5375697420626f74746f6d60a81b6020830152565b60405190614e0b826101ab565b600882526705375697420746f760c41b6020830152565b60405190614e2f826101ab565b600482526314dd5a5d60e21b6020830152565b60405190614e4f826101ab565b60048252631219585960e21b6020830152565b60405190614e6f826101ab565b600882526704865616420746f760c41b6020830152565b60405190614e93826101ab565b600582526409adeeae8d60db1b6020830152565b60405190614eb4826101ab565b6007825266476c617373657360c81b6020830152565b60405190614ed7826101ab565b60088252674e65636b6c61636560c01b6020830152565b60405190614efb826101ab565b60048252634c65677360e01b6020830152565b60405190614f1b826101ab565b60088252674261636b7369646560c01b6020830152565b60405190614f3f826101ab565b600582526415dbdc9b1960da1b6020830152565b60405190614f60826101ab565b600b82526a4e616b65642042616e6e7960a81b6020830152565b80614f885750610a76614f53565b60018103614f995750610a76614f32565b60028103614faa5750610a76614f0e565b60078103614fbb5750610a76614eee565b60038103614fcc5750610a76614eca565b60058103614fdd5750610a76614ea7565b60068103614fee5750610a76614e86565b600b8103614fff5750610a76614e62565b600481036150105750610a76614e42565b600881036150215750610a76614e22565b600a81036150325750610a76614dfe565b600981036150435750610a76614dd7565b600c81036150545750610a76614db7565b600d1461506357610a76611926565b610a76614d94565b60405190615078826101fe565b604082527f6768696a6b6c6d6e6f707172737475767778797a303132333435363738392b2f6040837f4142434445464748494a4b4c4d4e4f505152535455565758595a61626364656660208201520152565b9060028201809211612c8f57565b9060208201809211612c8f57565b9060018201809211612c8f57565b91908201809211612c8f57565b8051156151e15761511061506b565b61512c61512761512084516150ca565b6003900490565b612c77565b9161513e615139846150d8565b612ef8565b92835280815182019060208501935b82821061518f5750505060039051068060011461517e5760021461516f575090565b603d60f81b6000199091015290565b50613d3d60f01b6001199091015290565b9091936004906003809401938451600190603f9082828260121c16880101518553828282600c1c16880101518386015382828260061c168801015160028601531685010151908201530193919061514d565b50610a76611926565b6000546001600160a01b0390811681615201615d74565b160361520a5750565b602490615215615d74565b60405163118cdaa760e01b815291166004820152fd5b61523490615c48565b926152439695969291926131d8565b9460405197889760208901703c7374796c653e2e62317b66696c6c3a2360781b90528051908160318b01916020019161527b926103bf565b8801603181016b3b7d2e62327b66696c6c3a2360a01b905281519182603d830191602001916152a9926103bf565b01603d81016b3b7d2e62337b66696c6c3a2360a01b9052815191826049830191602001916152d6926103bf565b01604981016152f3906b3b7d2e62347b66696c6c3a2360a01b9052565b6055016152ff91611604565b6b3b7d2e61317b66696c6c3a2360a01b8152600c0161531d91611604565b6b3b7d2e61327b66696c6c3a2360a01b8152600c0161533b91611604565b6b3b7d2e61337b66696c6c3a2360a01b8152600c0161535991611604565b691dbe9e17b9ba3cb6329f60b11b8152600a0161537591611604565b03601f1981018252610a769082610235565b6040519061539482610219565b61019c82527f6820643d224d3139332031373068347633682d347a222f3e3c2f673e000000006101a0837f3c6720636c6173733d226f223e3c7061746820643d224d31393020313733682d60208201527f3337762d33682d3130762d34682d36763468337633682d33763468367633683160408201527f307634683337762d346833762d33682d33762d347a6d2d34302034682d33762d60608201527f34683376347a6d372033762d3368337633682d337a6d362030762d336834763360808201527f682d347a6d372030762d3368337633682d337a6d372030762d3368337633682d60a08201527f337a6d31302030682d34762d33683476337a222f3e3c7061746820643d224d3160c08201527f39302031373068337633682d337a222f3e3c7061746820643d224d313933203160e08201527f363668347634682d347a6d30203768347634682d347a222f3e3c2f673e3c67206101008201527f636c6173733d2277223e3c7061746820643d224d3133372031373068337633686101208201527f2d337a6d3130203368337634682d337a6d3130203468337633682d337a6d36206101408201527f3068347633682d347a6d37203068337633682d337a6d37203068337633682d336101608201527f7a6d36203068347633682d347a6d372d3468337634682d337a222f3e3c7061746101808201520152565b6040519060c082018281106001600160401b038211176101a65760405260818252601f60f91b60a0837f3c6720636c6173733d226f223e3c7061746820643d224d31383320313630762d60208201527f34682d32307634682d33763368337634683234762d37682d347a6d2d3133203360408201527f762d336831307633682d31307a222066696c6c3d2223616437316338222f3e3c60608201527f7061746820643d224d313730203136306831307633682d31307a222f3e3c2f6760808201520152565b91906060928151600091828394879361566c816150e6565b955b86811061567f575050505050505050565b818110156158665761569181846115a5565b516040805163507f146560e01b8152600491906001600160a01b036020808386818e86165afa918215610b755761570c9560009588958e948896615847575b50505163c44a8e6d60e01b81526001600160a01b0390931690830190815260208101949094526000604085015290948593849291839160600190565b0392165afa8015610b75576101009160009161582e575b500151965b6003888114969087156157fc5750505060019461574582886130d8565b995b60068981036157c5575050600a6001985b11806157bb575b6157a1575b8115159081615798575b50615780575b5060010196949661566e565b6001919a61280961579192886130d8565b9990615774565b9050153861576e565b986157ac919b611ab9565b996157b5611926565b98615764565b508951151561575f565b89919911806157f4575b6157dc575b600a90615758565b97509a6157eb9061280961558f565b9a6001976157d4565b5088156157cf565b899b9197929b1180615826575b156157475795509a61581d90612809615387565b9a600195615747565b508615615809565b615841913d8091833e610b678183610235565b38615723565b61585e929650803d10610ba457610b958183610235565b9338806156d0565b600e95600090615728565b604051906105e082018281106001600160401b038211176101a657604052602e82526105c0366020840137565b906158a8826104e9565b6158b56040519182610235565b8281528092612f20601f19916104e9565b9081518110156115a0570160200190565b908151156159fe576158e7615871565b9160009060006158f685611593565b526001918151916000925b808410615927575050505061591d61592291610a769394615dcd565b615e10565b615e57565b9091929461595861595261594c61593e89876158c6565b516001600160f81b03191690565b60f81c90565b60ff1690565b9184925b60ff90898289168610156159bd576001929161599161598b6159526159848a615997966115a5565b5160ff1690565b60081b90565b906150f4565b6159b48b6159ac88603a9586860616926115a5565b9060ff169052565b0493019261595c565b50919594935050809691965b6159d7575060010192615901565b9460ff6001603a926159f483858b06166159ac8d868516906115a5565b01169504806159c9565b9050610a76612ee0565b60405190615a15826101ab565b600682526506666653930360d41b6020830152565b60405190615a37826101ab565b600682526506666633730360d41b6020830152565b60405190615a59826101ab565b600682526566336136303360d01b6020830152565b60405190615a7b826101ab565b600682526539363561316160d01b6020830152565b60405190615a9d826101ab565b600682526533331bb1981960d11b6020830152565b60405190615abf826101ab565b600682526506664333630360d41b6020830152565b60405190615ae1826101ab565b600682526518cccc994c1960d21b6020830152565b60405190615b03826101ab565b600682526566666438633560d01b6020830152565b60405190615b25826101ab565b600682526566663936613960d01b6020830152565b60405190615b47826101ab565b600682526533329a9c1c3160d11b6020830152565b60405190615b69826101ab565b600682526563393266343560d01b6020830152565b60405190615b8b826101ab565b600682526536376437353760d01b6020830152565b60405190615bad826101ab565b600682526503330613232360d41b6020830152565b60405190615bcf826101ab565b600682526532313761313560d01b6020830152565b60405190615bf1826101ab565b60048252636e6f6e6560e01b6020830152565b60405190615c11826101ab565b6006825265329a1c19b2b360d11b6020830152565b60405190615c33826101ab565b60068252653231993332b360d11b6020830152565b60018103615c8f5750615c59615b7e565b90615c62615ba0565b90615c6b615bc2565b90615c74615be4565b90615c7d615c04565b90615c86615c26565b90610a76615c26565b60028103615cd65750615ca0615af6565b90615ca9615b18565b90615cb2615b3a565b90615cbb615b5c565b90615cc4615af6565b90615ccd615b18565b90610a76615b3a565b60038103615d1d5750615ce7615a4c565b90615cf0615a90565b90615cf9615ab2565b90615d02615ad4565b90615d0b615a4c565b90615d14615a90565b90610a76615ab2565b600414615d3657604051633b9cb79b60e21b8152600490fd5b615d3e615a08565b90615d47615a2a565b90615d50615a4c565b90615d59615a6e565b90615d62615a08565b90615d6b615a2a565b90610a76615a4c565b337f00000000000000000000000000000000000000000000000000000000000000006001600160a01b03161480615dc2575b15615dbe576013193601368111612c8f573560601c90565b3390565b506014361015615da6565b9060ff80911690615ddd8261589e565b9260005b838110615def575050505090565b8083615dfd600193856115a5565b5116615e0982886115a5565b5201615de1565b908151615e1c8161589e565b9060005b818110615e2e575090925050565b60019060ff615e446000198389510301886115a5565b5116615e5082866115a5565b5201615e20565b8051615e6281611340565b91604090615e736040519485610235565b828452615e7f83611340565b602090601f1901368683013760009260005b858110615ea15750505050505090565b6001908251615eaf816101fe565b603a81527f31323334353637383941424344454647484a4b4c4d4e50515253545556575859858201527f5a6162636465666768696a6b6d6e6f707172737475767778797a000000000000848201526001600160f81b031990615f1f9060ff615f17858a6115a5565b5116906158c6565b5116861a615f2d828a6158c6565b5301615e9156fea2646970667358221220f4c28235c2577961bfb96f025f5626f87693022b891a47164c12465d5e52a4fe64736f6c63430008170033",
			"deployedBytecode": "0x6080604052600436101561001257600080fd5b60003560e01c806257bfdd1461013657806318ab522d1461013157806331a290ac1461012c578063572b6c05146101275780635e703e71146101225780636aff31dd1461011d578063715018a61461011857806379a2696e146101135780637da0a8771461010e578063875e4bea146101095780638da5cb5b14610104578063a0122c09146100ff578063a22d0dd5146100fa578063b03a3eab146100f5578063b1fa9e7b146100f0578063c06e7bc7146100eb578063d756227e146100e65763f2fde38b146100e157600080fd5b611461565b611392565b610cca565b610c9f565b610bfa565b610bb5565b610a79565b610a16565b610885565b610840565b61080d565b6107af565b610783565b610757565b6106ff565b610590565b610451565b610407565b90600182811c9216801561016b575b602083101461015557565b634e487b7160e01b600052602260045260246000fd5b91607f169161014a565b634e487b7160e01b600052604160045260246000fd5b602081019081106001600160401b038211176101a657604052565b610175565b604081019081106001600160401b038211176101a657604052565b61026081019081106001600160401b038211176101a657604052565b6111a081019081106001600160401b038211176101a657604052565b606081019081106001600160401b038211176101a657604052565b6101c081019081106001600160401b038211176101a657604052565b90601f801991011681019081106001600160401b038211176101a657604052565b604051906000826002549161026a8361013b565b808352926020906001908181169081156102f85750600114610297575b505061029592500383610235565b565b91509260026000527f405787fa12a823e0f2b7631cc41b3ba8828b3321ca811111fa75cd3aa3bb5ace936000925b8284106102e057506102959450505081016020013880610287565b855488850183015294850194879450928101926102c5565b9150506020925061029594915060ff191682840152151560051b8201013880610287565b9060405191826000825461032f8161013b565b9081845260209460019160018116908160001461039d575060011461035e575b50505061029592500383610235565b600090815285812095935091905b818310610385575050610295935082010138808061034f565b8554888401850152948501948794509183019161036c565b9250505061029594925060ff191682840152151560051b82010138808061034f565b60005b8381106103d25750506000910152565b81810151838201526020016103c2565b906020916103fb815180928185528580860191016103bf565b601f01601f1916010190565b3461043b57600036600319011261043b57610437610423610256565b6040519182916020835260208301906103e2565b0390f35b600080fd5b6001600160a01b0381160361043b57565b3461043b57604036600319011261043b5761047a60043561047181610440565b602435906114ed565b906040519182916040830190835260209060406020850152825180915260206060850193019160005b8281106104b257505050500390f35b8351855286955093810193928101926001016104a3565b604051906101a082018281106001600160401b038211176101a657604052565b6001600160401b0381116101a65760051b60200190565b9080601f8301121561043b57602090823561051a816104e9565b936105286040519586610235565b81855260208086019260051b82010192831161043b57602001905b828210610551575050505090565b81358152908301908301610543565b9181601f8401121561043b578235916001600160401b03831161043b576020808501948460051b01011161043b57565b3461043b5760408060031936011261043b576004906001600160401b03823581811161043b576105c39036908501610500565b9060243590811161043b576105db9036908501610560565b92909180519360005b8581106105ed57005b6105f781846115a5565b5161060d6106068385896115b9565b369161135b565b610629610624836000526004602052604060002090565b6115fa565b6106ef57610641826000526001602052604060002090565b5480156106df578651602081019061066b8161065d8487611604565b03601f198101835282610235565b519020036106cf57907faeb631726b45aa3f6b09da79f7af03a9784614901f61a967ed84d63c37b7edc76106c6836106b9600196956106b4866000526004602052604060002090565b6116cd565b88519182913390836117a2565b0390a2016105e4565b85516375b5da0b60e01b81528990fd5b8651637ef41a4f60e01b81528a90fd5b8551630388067760e21b81528990fd5b3461043b57602036600319011261043b57602060043561071e81610440565b6040517f000000000000000000000000b2b5841dbef766d4b521221732f9b618fcf34a876001600160a01b039081169216919091148152f35b3461043b57604036600319011261043b5761043761042360043561077a81610440565b60243590611c3c565b3461043b57602036600319011261043b5760043560005260016020526020604060002054604051908152f35b3461043b5760008060031936011261080a576107c96151ea565b80546001600160a01b03198116825581906001600160a01b03167f8be0079c531659141344cd1fd0a4f28419497f9722a3daafe3b4186f6b6457e08280a380f35b80fd5b3461043b57604036600319011261043b57602061083860043561082f81610440565b602435906122b9565b604051908152f35b3461043b57600036600319011261043b576040517f000000000000000000000000b2b5841dbef766d4b521221732f9b618fcf34a876001600160a01b03168152602090f35b3461043b5760208060031936011261043b576004356001600160401b0380821161043b573660238301121561043b57816004013590811161043b57602492366024838501011161043b576108d76151ea565b6108eb826108e660025461013b565b611632565b600093601f831160011461096957505061093e81807f512c3c91736f50c57a0548c1d01ab02f24c420f002b8b20e2bfe63df9693cd3f9560009161095b575b508160011b916000199060031b1c19161790565b6002555b610956604051928392602433920184612317565b0390a1005b60249150850101353861092a565b6002600052601f19831694907f405787fa12a823e0f2b7631cc41b3ba8828b3321ca811111fa75cd3aa3bb5ace9282915b8783106109fa57505050827f512c3c91736f50c57a0548c1d01ab02f24c420f002b8b20e2bfe63df9693cd3f95106109dd575b5050600181811b01600255610942565b830160240135600019600384901b60f8161c1916905538806109cd565b908060018596848396978b01013581550195019301919061099a565b3461043b57600036600319011261043b576000546040516001600160a01b039091168152602090f35b91610a6890610a5a610a7695936060865260608601906103e2565b9084820360208601526103e2565b9160408184039101526103e2565b90565b3461043b57604036600319011261043b57600435610a9681610440565b60405163507f146560e01b815260243591906001600160a01b03906020816004818587165afa8015610b7557610b0d9360009386938593610b7a575b5060405163c44a8e6d60e01b81526001600160a01b039092166004830152602482019390935260006044820152938492839182906064820190565b0392165afa908115610b7557600091610b52575b50610437610b46610b40610100610b388587614bd9565b940151614f7a565b93614d3b565b60405193849384610a3f565b610b6f91503d806000833e610b678183610235565b810190611843565b38610b21565b6117df565b610b9d91935060203d602011610ba4575b610b958183610235565b8101906117ca565b9138610ad2565b503d610b8b565b8015150361043b57565b3461043b57608036600319011261043b57610437610423600435610bd881610440565b604435610be481610bab565b60643591610bf183610bab565b602435906128de565b3461043b57604036600319011261043b576001600160401b0360043581811161043b57610c2b903690600401610500565b9060243590811161043b573660238201121561043b578060040135610c4f816104e9565b91610c5d6040519384610235565b8183526020916024602085019160051b8301019136831161043b57602401905b828210610c9057610c8e8587612a69565b005b81358152908301908301610c7d565b3461043b57604036600319011261043b576020610838600435610cc181610440565b60243590612b0c565b3461043b57608036600319011261043b5760048035610ce881610440565b60243591604435916064356001600160401b03811161043b57610d0e9036908401610560565b93909160018060a01b039081811694604092835191610d476331a9108f60e11b938481528b818060209485938783019190602083019252565b03818d5afa908115610b7557600091611323575b5083610d74610d68615d74565b6001600160a01b031690565b911603611314578a8a88156112e15750508551848152818180610d9e8b8783019190602083019252565b03818d5afa908115610b75576000916112c4575b5083610dbf610d68615d74565b9116036112b557610dd087866122b9565b6112a657855163507f146560e01b8152818184818d5afa8015610b7557610e3760009186938391611289575b50895163c44a8e6d60e01b81526001600160a01b038a16878201908152602081018d9052600060408201529094859384928391606090910190565b0392165afa908115610b755760009161126e575b50511561125f57918493918a9388610e898e610e7a819a60018060a01b03166000526006602052604060002090565b90600052602052604060002090565b5586610eab8a610e7a8960018060a01b03166000526007602052604060002090565b5591909293505b600091610ebd612be0565b5060009182808e5b8210610f3c57505050505050505095610f248186610f1f610f379695610e7a7f6a68946ba06488db8585d7c7637fa954b574035fe15720ea760125ef860172589b9c60018060a01b03166000526005602052604060002090565b612c94565b610f2c615d74565b915194859485612d0d565b0390a3005b87989950610f778f948f8f908a8f9287859b9c9d9e98999a610f5d92612c51565b359687935195869485938493845283019190602083019252565b03915afa908115610b7557600091611242575b5084610f97610d68615d74565b91160361123257610fa8828b612b0c565b6112225787858f8d519283809263507f146560e01b82525afa8015610b7557836000918d8f8d8a91611016978795611203575b505163c44a8e6d60e01b81526001600160a01b0390931690830190815260208101949094526000604085015290948593849291839160600190565b0392165afa908115610b75576000916111ea575b508051156111da5761010001968751600281109081156111cf575b506111bf5783151590816111b3575b506111a357918f9998969492918f9896949286518881146000146110b3575050899695949392918b6110a5600193610e7a85995b516001600160a01b03909c16600090815260086020526040902090565b550191939092949697610ec5565b600891999b9c5080929496939597989a50146000146110ec57505092889795928f9995928f9895908b6110a5600193610e7a8598611088565b979f9d9b9998979a9e9c9a600581979297148015611199575b801561118f575b80611188575b1561112757508f8f51631e550b6f60e11b8152fd5b9d9f9798999b9d9c9e9a9c600a811490811561117d575b5080611176575b61116657928f999896938f989592938b6110a58c9996610e7a600195611088565b8a51635e701b2b60e01b81528890fd5b5085611145565b60099150143861113e565b5087611112565b50600b811461110c565b5060068114611105565b8a51637dc0e82560e11b81528890fd5b90508751111538611054565b8b5163c89badbd60e01b81528990fd5b600d91501138611045565b8b516354c0901d60e11b81528990fd5b6111fd913d8091833e610b678183610235565b3861102a565b61121b9195508d803d10610ba457610b958183610235565b9338610fdb565b8a5163670bdddd60e11b81528890fd5b8a5163812a698960e01b81528890fd5b6112599150863d8811610ba457610b958183610235565b38610f8a565b50845163265ba87960e01b8152fd5b61128391503d806000833e610b678183610235565b38610e4b565b6112a09150853d8711610ba457610b958183610235565b38610dfc565b50845163670bdddd60e11b8152fd5b508451639d17cec760e01b8152fd5b6112db9150823d8411610ba457610b958183610235565b38610db2565b9391600061130983610e7a8a9997959a60018060a01b03166000526006602052604060002090565b559190929350610eb2565b508451632add3f4b60e01b8152fd5b61133a9150823d8411610ba457610b958183610235565b38610d5b565b6001600160401b0381116101a657601f01601f191660200190565b92919261136782611340565b916113756040519384610235565b82948184528183011161043b578281602093846000960137010152565b3461043b57604036600319011261043b576001600160401b0360043581811161043b576113c3903690600401610500565b60249060243583811161043b573660238201121561043b578060040135926113ea846104e9565b936113f86040519586610235565b8085526020956024602087019260051b8501019336851161043b5760248101925b85841061142a57610c8e8888612d50565b833583811161043b5782013660438201121561043b5789916114568392369060448a820135910161135b565b815201930192611419565b3461043b57602036600319011261043b5760043561147e81610440565b6114866151ea565b6001600160a01b0390811680156114d457600080546001600160a01b03198116831782559092167f8be0079c531659141344cd1fd0a4f28419497f9722a3daafe3b4186f6b6457e08380a380f35b604051631e4fbdf760e01b815260006004820152602490fd5b6001600160a01b038116600090815260056020908152604080832085845282528083209051815480825291845282842081840197969392855b81811061156957505050806115446115609260409798990382610235565b6001600160a01b03909616600090815260066020526040902090565b91835252205491565b82548a529884019860019283019201611526565b634e487b7160e01b600052603260045260246000fd5b8051156115a05760200190565b61157d565b80518210156115a05760209160051b010190565b91908110156115a05760051b81013590601e198136030182121561043b5701908135916001600160401b03831161043b57602001823603811361043b579190565b610a76905461013b565b90611617602092828151948592016103bf565b0190565b818110611626575050565b6000815560010161161b565b90601f821161163f575050565b6102959160026000527f405787fa12a823e0f2b7631cc41b3ba8828b3321ca811111fa75cd3aa3bb5ace906020601f840160051c83019310611689575b601f0160051c019061161b565b909150819061167c565b9190601f81116116a257505050565b610295926000526020600020906020601f840160051c8301931061168957601f0160051c019061161b565b91909182516001600160401b0381116101a6576116f4816116ee845461013b565b84611693565b602080601f83116001146117375750819061172893949560009261172c575b50508160011b916000199060031b1c19161790565b9055565b015190503880611713565b90601f1983169561174d85600052602060002090565b926000905b88821061178a57505083600195969710611771575b505050811b019055565b015160001960f88460031b161c19169055388080611767565b80600185968294968601518155019501930190611752565b906117ba6020919493946040845260408401906103e2565b6001600160a01b03909416910152565b9081602091031261043b5751610a7681610440565b6040513d6000823e3d90fd5b519061029582610440565b519061029582610bab565b81601f8201121561043b57805161181781611340565b926118256040519485610235565b8184526020828401011161043b57610a7691602080850191016103bf565b60208183031261043b5780516001600160401b039182821161043b57016101a08184031261043b576118736104c9565b92815184526020820151602085015260408201516040850152606082015160608501526080820151608085015260a082015160a08501526118b660c083016117eb565b60c085015260e082015160e085015261010080830151908501526101206118de8184016117f6565b908501526101406118f08184016117f6565b908501526101606119028184016117f6565b90850152610180928383015190811161043b5761191f9201611801565b9082015290565b604051906119338261018b565b60008252565b60405190611946826101ab565b600e82526d226f7574666974496473223a205b60901b6020830152565b60236102959193929360405194816119858793518092602080870191016103bf565b8201601160f91b60208201526119a58251809360206021850191016103bf565b0161088b60f21b6021820152036003810185520183610235565b906102956022604051846119dd8296518092602080860191016103bf565b810161174b60f21b6020820152036002810185520183610235565b602e610295919392936040519481611a1a8793518092602080870191016103bf565b82016b113bb7b9363224b2111d101160a11b6020820152611a45825180936020602c850191016103bf565b0161088b60f21b602c82015203600e810185520183610235565b90604051918260605160005b818110611aa0575090602061029593611a948294840191838301600081528151948592016103bf565b01038085520183610235565b6020919250806080015182828801015201908491611a6b565b6020610295919392936040519481611ada87935180928680870191016103bf565b8201611a94825180938680850191016103bf565b90610295603960405180947f22776f726e42794e616b656442616e6e794964223a20220000000000000000006020830152611b338151809260206037860191016103bf565b810161088b60f21b6037820152036019810185520183610235565b90610295603960405180947f227573656442794e616b656442616e6e794964223a20220000000000000000006020830152611b338151809260206037860191016103bf565b9060208282031261043b5781516001600160401b03811161043b57610a769201611801565b9081602091031261043b575190565b9081606091031261043b5780519160406020830151920151610a7681610440565b90610295603d60405180947f646174613a6170706c69636174696f6e2f6a736f6e3b6261736536342c0000006020830152611c2c81518092602086860191016103bf565b810103601d810185520183610235565b6040805163507f146560e01b808252602092916001600160a01b03919060049086841686828481845afa8015610b755789600091611cb894839161229c575b50885163c44a8e6d60e01b81526001600160a01b038c1687820190815260208101939093526000604084015294859283918a918391606090910190565b0392165afa918215610b7557600092612281575b5081511561227057611cdc611926565b5061010082018051909490156121e357611cf783518a6130d8565b9889516121ac575b855160010361219157611d22611d1d611d188d846122b9565b612f2a565b611b4e565b965b8a511561205f575050865163043c358d60e11b81529360609285925082905afa908115610b755760009260009261202a575b50611d61818a614bd9565b988151611d6d90614d3b565b948051611d7990614f7a565b91611d8390612f2a565b908351611d8f90612f2a565b9051611d9a90612f2a565b916060850151611da990612f2a565b938b8b870151611db890612f2a565b960151611dc490612f2a565b96611dce90612f2a565b97611dd890612f2a565b988c8c519e8f918201611dea91611604565b039d601f199e8f81018252611dff9082610235565b611e0890615101565b9b51683d913730b6b2911d1160b91b9d81019d8e529e8f9d600901611e2c91611604565b7211161011383937b23ab1ba2730b6b2911d101160691b8152601301611e5191611604565b731116101131b0ba32b3b7b93ca730b6b2911d101160611b8152601401611e7791611604565b6e111610113a37b5b2b724b2111d101160891b8152600f01611e9891611604565b6a111610113ab831911d101160a91b8152600b01611eb591611604565b6f1116101131b0ba32b3b7b93c911d101160811b8152601001611ed791611604565b6d1116101139bab838363c911d101160911b8152600e01611ef791611604565b70111610113932b6b0b4b734b733911d101160791b8152601101611f1a91611604565b6c11161011383934b1b2911d101160991b8152600d01611f3991611604565b6f111610113232b1b4b6b0b639911d101160811b8152601001611f5b91611604565b6f1116101131bab93932b731bc911d101160811b8152601001611f7d91611604565b6201116160ed1b8152600301611f9291611604565b7f226465736372697074696f6e223a2241207069656365206f662074686520426181527f6e6e797665727365222c22696d616765223a22646174613a696d6167652f737660208201526c19cade1b5b0ed8985cd94d8d0b609a1b6040820152604d01611ffd91611604565b61227d60f01b81526002010390810182526120189082610235565b61202190615101565b610a7690611be8565b90925061204f915060603d606011612058575b6120478183610235565b810190611bc7565b50909138611d56565b503d61203d565b935093949097999550600d919698505111600014612182578651636c0360eb60e01b81526000818581895afa8015610b7557899160009161215f575b50965b8489518098819382525afa928315610b75576120f2978996600095612140575b5051630c8df17160e41b81526001600160a01b03909316908301908152602081019490945290958693849291839160400190565b0392165afa918215610b7557610a7693600093612111575b50506148f2565b612131929350803d10612139575b6121298183610235565b810190611bb8565b90388061210a565b503d61211f565b612158919550873d8911610ba457610b958183610235565b93386120be565b61217c91503d806000833e6121748183610235565b810190611b93565b3861209b565b8761218b610256565b9661209e565b6121a66121a1611d188d84612b0c565b611aee565b96611d24565b986121bf9060018751036121c5576147ff565b98611cff565b6121de906121d96121d46131d8565b614739565b611ab9565b6147ff565b6121ed8a8a612749565b986121f88b826114ed565b8098919851612205611939565b906000925b81841061224557505061221d91506119bf565b978061222a575b50611d24565b9761223861223e9299612f2a565b906119f8565b9638612224565b909161226660019161226061225a87866115a5565b51612f2a565b90611963565b930192919061220a565b505050505050505050610a76611926565b61229591923d8091833e610b678183610235565b9038611ccc565b6122b391508a3d8c11610ba457610b958183610235565b38611c7b565b60018060a01b031660009080825260076020526040822083835260205260408220549283159182156122f5575b50506122f0575090565b905090565b90915082526006602052604082208383526020526040822054141538806122e6565b918060609160209396959660408652816040870152838601376000828286010152601f80199101168301019360018060a01b0316910152565b6040519061010082018281106001600160401b038211176101a65760405260dd82527f746820643d224d3138302031343768337633682d337a222f3e3c2f673e00000060e0837f3c6720636c6173733d226f223e3c7061746820643d224d31373720313430763360208201527f6836763131683130762d31316834762d33682d32307a222f3e3c70617468206460408201527f3d224d31353320313430763368377638203368372033762d31316833762d336860608201527f2d32307a222f3e3c2f673e3c6720636c6173733d2277223e3c7061746820643d60808201527f224d3135332031343368377634682d377a222f3e3c7061746820643d224d313560a08201527f372031343768337633682d337a6d32302d3468367634682d367a222f3e3c706160c08201520152565b6040519061248b826101c6565b61023a82527f643d224d3139302031333768347633682d347a222f3e3c2f673e000000000000610240837f3c6720636c6173733d226f223e3c7061746820643d224d31393020313237683360208201527f7633682d337a6d3320313368347633682d347a6d2d3432203068367636682d3660408201527f7a222f3e3c7061746820643d224d3135312031333368337637682d337a6d313060608201527f203068367634682d367a222f3e3c7061746820643d224d31353720313337683160808201527f377636682d31377a6d332031336831347633682d31347a6d31372d313368377660a08201527f3136682d377a222f3e3c7061746820643d224d3138342031333768367636682d60c08201527f367a6d302031306831307636682d31307a222f3e3c7061746820643d224d313860e08201527f37203134336831307634682d31307a222f3e3c7061746820643d224d313930206101008201527f31343068337633682d337a6d2d362d313068337637682d337a222f3e3c7061746101208201527f6820643d224d3138372031333068367633682d367a6d2d3336203068313076336101408201527f682d31307a6d313620313368377637682d377a6d2d3130203068377637682d376101608201527f7a222f3e3c7061746820643d224d3136342031343768337633682d337a6d32396101808201527f2d323068347636682d347a222f3e3c7061746820643d224d31393420313333686101a08201527f337637682d337a222f3e3c2f673e3c6720636c6173733d2277223e3c706174686101c08201527f20643d224d3135342031333368377634682d377a222f3e3c7061746820643d226101e08201527f4d3135342031333768337633682d337a6d3130203668337634682d337a6d32306102008201527f203068337634682d337a6d332d313068377634682d377a222f3e3c70617468206102208201520152565b60405163507f146560e01b81526001600160a01b036020826004818685165afa918215610b75576000926128ba575b5060405163c44a8e6d60e01b81526001600160a01b0384166004820152602481018590526000604482018190529092909183916064918391165afa908115610b75576000916128a1575b5080511561289657606092610100820151612871579261282891600161280f6127ee610a7697876114ed565b94908015158061286a575b612850575b50612809845161522b565b90611ab9565b915103612844576128229061280961247e565b92615654565b8051612835575b506147ff565b61283e91611ab9565b3861282f565b61282290612809612350565b612864915061285f90886130d8565b611a5f565b386127fe565b50836127f9565b5061287e925051906130d8565b805161288d5750610a76611926565b610a76906147ff565b505050610a76611926565b6128b4913d8091833e610b678183610235565b386127c2565b60009192506128d79060203d602011610ba457610b958183610235565b9190612778565b60405163507f146560e01b81529390916001600160a01b036020866004818488165afa958615610b7557600096612a45575b5060405163c44a8e6d60e01b81526001600160a01b0385166004820152602481018390526000604482018190529096909187916064918391165afa948515610b7557600095612a2a575b50845115612a1d57606090610100860151612a0d5761299e610a769692612983600193876114ed565b958115159081612a05575b506129f65750612809845161522b565b9151036129e4576129b19061280961247e565b925b6129bf575b50506147ff565b6129c891615654565b80516129d5575b806129b8565b6129de91611ab9565b386129cf565b6129f090612809612350565b926129b3565b612864915061285f90876130d8565b90503861298e565b505050905061287e9151906130d8565b5050505050610a76611926565b612a3e91953d8091833e610b678183610235565b933861295a565b6000919650612a629060203d602011610ba457610b958183610235565b9590612910565b90612a726151ea565b81519060009260005b838110612a89575050505050565b612a9381836115a5565b51612a9e82856115a5565b5190808752602060018152604080892054612afc5782917fb10eb6fc7557a7109693cb8f3fac48d44328de56c0368ee4cac539b424d2cad99185612af060019897966000526001602052604060002090565b5551338152a301612a7b565b516333ded41b60e21b8152600490fd5b6001600160a01b03811660009081526008602090815260408083208584528252822054919390928215612bd9576001600160a01b03166000908152600560205260409020828552835260408420926040518094859183825491828152019188528388209388905b828210612bbf57505050612b8992500384610235565b825192845b848110612b9d57505050505090565b82612ba882846115a5565b5114612bb657600101612b8e565b50505091505090565b855484526001958601958995509381019390910190612b73565b5050505090565b604051906101a082018281106001600160401b038211176101a657604052606061018083600080825280602083015280604083015280848301528060808301528060a08301528060c08301528060e08301528061010083015280610120830152806101408301526101608201520152565b91908110156115a05760051b0190565b634e487b7160e01b600052601160045260246000fd5b600281901b91906001600160fe1b03811603612c8f57565b612c61565b906001600160401b0383116101a6576801000000000000000083116101a6578154838355808410612cef575b50906000526020806000209060005b848110612cdd575050505050565b83358382015592810192600101612ccf565b612d079083600052846020600020918201910161161b565b38612cc0565b9081526060602082018190528101839052929392916001600160fb1b03811161043b5760409160809160051b8091838601378301019360018060a01b0316910152565b9190612d5a6151ea565b82516000935b818510612d6e575050509050565b612d7885826115a5565b5194612d8481856115a5565b51958060005260039660209780895260409081600020908351906001600160401b0382116101a657612dc082612dba855461013b565b85611693565b8b601f8311600114612e43575050917f9dedd219289ed514faff576c477c66bd097aef59a236e3b8ebcf0d0070cb4e969391612e1c84612e2b9560019a9b9c9d9e600091612e3857508160011b916000199060031b1c19161790565b90555b519182913390836117a2565b0390a20193929190612d60565b90508501513861092a565b909b601f198316612e5985600052602060002090565b926000905b828210612ec8575050916001999a9b9c9d8492612e2b97957f9dedd219289ed514faff576c477c66bd097aef59a236e3b8ebcf0d0070cb4e9699979510612eae575b505050881b88019055612e1f565b8601519060f884600019921b161c19169055388080612ea0565b80600185968294968c01518155019501930190612e5e565b604051612eec8161018b565b60008152906000368137565b90612f0282611340565b612f0f6040519182610235565b8281528092612f20601f1991611340565b0190602036910137565b806000917a184f03e93ff9f4daa797ed6e38ed64bf6a1f0100000000000000008082101561305f575b506d04ee2d6d415b85acef810000000080831015613050575b50662386f26fc1000080831015613041575b506305f5e10080831015613032575b5061271080831015613023575b506064821015613013575b600a80921015613009575b600190816021612fc260018701612ef8565b95860101905b612fd3575050505090565b600019019083906f181899199a1a9b1b9c1cb0b131b232b360811b8282061a83530491821561300457919082612fc8565b612bd9565b9160010191612fb0565b9190606460029104910191612fa5565b60049193920491019138612f9a565b60089193920491019138612f8d565b60109193920491019138612f7e565b60209193920491019138612f6c565b604093508104915038612f53565b90610295604960405180946c1e34b6b0b3b290343932b31e9160991b60208301526130a2815180926020602d860191016103bf565b81017f222077696474683d2234303022206865696768743d22343030222f3e00000000602d820152036029810185520183610235565b6130f46130ef836000526004602052604060002090565b61031c565b80516131d2575060405163507f146560e01b81526001600160a01b039260209283836004818489165afa908115610b75576131679585946000936131b3575b50604051632f54648f60e21b81526001600160a01b0390921660048301526024820193909352948592839182906044820190565b0392165afa8015610b7557610a769261319192600092613196575b505061318c610256565b6148f2565b61306d565b6131ac9250803d10612139576121298183610235565b3880613182565b6131cb919350853d8711610ba457610b958183610235565b9138613133565b91505090565b604051906131e5826101e2565b61117a82527f762d31306833762d376833762d33682d31307a222f3e3c2f673e000000000000611180837f3c6720636c6173733d226131223e3c7061746820643d224d313733203533683460208201527f763137682d347a222f3e3c2f673e3c6720636c6173733d226132223e3c70617460408201527f6820643d224d3136372035376833763130682d337a222f3e3c7061746820643d60608201527f224d3136392035336834763137682d347a222f3e3c2f673e3c6720636c61737360808201527f3d226133223e3c7061746820643d224d31363720353368337634682d337a222f60a08201527f3e3c7061746820643d224d3136332035376834763130682d347a222f3e3c706160c08201527f746820643d224d31363720363768337633682d337a222f3e3c2f673e3c67206360e08201527f6c6173733d226231223e3c7061746820643d224d32313320323533682d33762d6101008201527f332d33682d33762d372d33682d34762d3130682d33762d372d372d33682d33766101208201527f2d3733682d34762d3130682d33762d3130682d33762d37682d34762d37682d336101408201527f762d33682d33762d33682d3476313068347631306833763130683376336834766101608201527f37203320373020336833763768337632306834763768337633683376336834766101808201527f34683376336833762d332d347a222f3e3c7061746820643d224d3235332033306101a08201527f37762d34682d33762d33682d33762d33682d34762d34682d33762d33682d33766101c08201527f2d33682d34762d34682d33762d33682d33762d33682d34762d34682d33762d366101e08201527f682d33762d37682d3476313768347633683376336833203476346833763368336102008201527f76336834763468337633683376336834763468337633683376336834762d36686102208201527f2d347a222f3e3c2f673e3c6720636c6173733d226232223e3c7061746820643d6102408201527f224d32353020333130762d33682d33762d34682d34762d33682d33762d33682d6102608201527f33762d34682d34762d33682d33762d33682d33762d34682d37762d33682d33766102808201527f2d33682d34762d3137682d33762d33682d33762d34682d34762d33682d33762d6102a08201527f33682d33762d37682d34762d3230682d33762d37682d33762d37332d332d37686102c08201527f2d34762d33682d33762d3130682d33762d3130682d34563730682d33762d336c6102e08201527f2d332031303020332d313030763430682d33763130682d347636682d337631346103008201527f682d337633203133682d347634346834763136683376313468337631336834766103208201527f31306833763768337633683476336833763468337633683476336833763468336103408201527f76336834763368337637683776376836763368377633683776346831337633686103608201527f337633683130762d33682d337a6d2d3130332d3837762d31366833762d3130686103808201527f2d337636682d34763137682d337631306833762d3768347a222f3e3c706174686103a08201527f20643d224d3134332032333068347637682d347a6d3420313068337633682d336103c08201527f7a6d33203768337633682d337a6d33203668347634682d347a222f3e3c7061746103e08201527f6820643d224d31363320323537682d36763368337633683376346834762d342d6104008201527f33682d34762d337a222f3e3c2f673e3c6720636c6173733d226233223e3c70616104208201527f746820643d224d3134332031393776366834762d366836762d34346834762d316104408201527f366833762d31346833762d366834762d31306833563937682d377636682d33766104608201527f34682d337633682d347633682d3376342033682d3376332034682d34763130686104808201527f2d337631362034682d337634366833762d3668337a222f3e3c7061746820643d6104a08201527f224d313430203230336833763137682d337a222f3e3c7061746820643d224d316104c08201527f3337203232306833763130682d337a222f3e3c7061746820643d224d313533206104e08201527f323530682d33762d37682d33762d36682d34762d37682d3376313068337637686105008201527f347636683376346833762d377a6d2d3320313068337637682d337a222f3e3c706105208201527f61746820643d224d3134372032353768337633682d337a6d36203068347633686105408201527f2d347a222f3e3c7061746820643d224d31363020323633762d33682d337633206105608201527f376836762d37682d337a6d2d31302d3536763136682d337637683376313068336105808201527f763768347636683676346837762d342d33682d33762d3130682d34762d3133686105a08201527f2d33762d3134682d33762d3136682d34763130682d337a222f3e3c70617468206105c08201527f643d224d32343320333133762d33682d33762d33682d31302d33762d34682d376105e08201527f762d33682d37762d33682d36762d37682d37762d37682d33762d33682d34762d6106008201527f33682d33762d34682d33762d33682d34762d33682d33762d34682d33762d33686106208201527f2d34762d33682d33763130682d337633682d347633682d3376376833763768346106408201527f76366833763568347633683676336833763368342033763368332034763368336106608201527f20337634683130763368372037203376336831302033762d33683130762d33686106808201527f34762d34682d31347a222f3e3c2f673e3c6720636c6173733d226234223e3c706106a08201527f61746820643d224d3138332031333068347637682d347a222f3e3c70617468206106c08201527f643d224d3138302031323768337633682d337a6d2d32372d3468347637682d346106e08201527f7a222f3e3c7061746820643d224d3135372031313768337636682d337a222f3e6107008201527f3c7061746820643d224d3136302031313068337637682d337a222f3e3c7061746107208201527f6820643d224d3136332031303768347633682d347a6d2d3320383368337637686107408201527f2d337a222f3e3c7061746820643d224d3136332031383768347633682d347a6d6107608201527f3230203068377633682d377a222f3e3c7061746820643d224d313830203139306107808201527f68337633682d337a6d31302d3768337634682d337a222f3e3c7061746820643d6107a08201527f224d3139332031383768347636682d347a6d2d323020353368347637682d347a6107c08201527f222f3e3c7061746820643d224d3137372032343768337636682d337a222f3e3c6107e08201527f7061746820643d224d3138302032353368337637682d337a222f3e3c706174686108008201527f20643d224d3138332032363068377633682d377a222f3e3c7061746820643d226108208201527f4d3139302032363368337634682d337a6d302d323068337634682d337a222f3e6108408201527f3c7061746820643d224d3138372032343068337633682d337a222f3e3c7061746108608201527f6820643d224d3139302032333768337633682d337a6d313320323368347633686108808201527f2d347a222f3e3c7061746820643d224d3230372032363368337637682d337a226108a08201527f2f3e3c7061746820643d224d3231302032373068337633682d337a6d2d3130206108c08201527f3768337636682d337a222f3e3c7061746820643d224d323033203238336834766108e08201527f37682d347a222f3e3c7061746820643d224d3230372032393068367633682d366109008201527f7a222f3e3c2f673e3c6720636c6173733d226f223e3c7061746820643d224d316109208201527f3333203135376834763530682d347a6d302036336834763130682d347a6d32376109408201527f2d3136336833763130682d337a222f3e3c7061746820643d224d3136332035336109608201527f68347634682d347a222f3e3c7061746820643d224d31363720353068313076336109808201527f682d31307a222f3e3c7061746820643d224d3137372035336833763137682d336109a08201527f7a222f3e3c7061746820643d224d3137332037306834763237682d347a6d2d366109c08201527f20306833763237682d337a222f3e3c7061746820643d224d31363320363768346109e08201527f7633682d347a6d3020333068347633682d347a222f3e3c7061746820643d224d610a008201527f3136302031303068337633682d337a222f3e3c7061746820643d224d31353720610a208201527f31303368337634682d337a222f3e3c7061746820643d224d3135332031303768610a408201527f347633682d347a222f3e3c7061746820643d224d313530203131306833763368610a608201527f2d337a222f3e3c7061746820643d224d3134372031313368337637682d337a22610a808201527f2f3e3c7061746820643d224d3134332031323068347637682d347a222f3e3c70610aa08201527f61746820643d224d313430203132376833763130682d337a222f3e3c70617468610ac08201527f20643d224d313337203133376833763230682d337a6d35362d31306834763130610ae08201527f682d347a222f3e3c7061746820643d224d313930203131376833763130682d33610b008201527f7a222f3e3c7061746820643d224d3138372031313068337637682d337a222f3e610b208201527f3c7061746820643d224d3138332031303368347637682d347a222f3e3c706174610b408201527f6820643d224d3138302031303068337633682d337a222f3e3c7061746820643d610b608201527f224d31373720393768337633682d337a6d2d3430203130366833763137682d33610b808201527f7a6d302032376833763130682d337a6d313020333068337637682d337a222f3e610ba08201527f3c7061746820643d224d31353020323537762d34682d33762d36682d34762d37610bc08201527f682d3376313068337631306834762d3368337a222f3e3c7061746820643d224d610be08201527f3135302032353768337633682d337a222f3e3c7061746820643d224d31363320610c008201527f323733762d33682d36762d3130682d347637682d337633683376336834763768610c208201527f33762d3768337a222f3e3c7061746820643d224d313633203236376834763368610c408201527f2d347a222f3e3c7061746820643d224d31373020323537682d332d3476336834610c608201527f76376833762d31307a222f3e3c7061746820643d224d31353720323533683676610c808201527f34682d367a222f3e3c7061746820643d224d3135332032343768347636682d34610ca08201527f7a222f3e3c7061746820643d224d3135302032343068337637682d337a222f3e610cc08201527f3c7061746820643d224d313437203233306833763130682d337a6d3133203530610ce08201527f68337637682d337a222f3e3c7061746820643d224d3134332032323368347637610d008201527f682d347a222f3e3c7061746820643d224d313437203230376833763136682d33610d208201527f7a222f3e3c7061746820643d224d313530203139376833763130682d337a6d2d610d408201527f3130203068337636682d337a6d35302031313368377633682d377a6d32332031610d608201527f306831377633682d31377a222f3e3c7061746820643d224d3233302033323368610d808201527f31337634682d31337a222f3e3c7061746820643d224d32343320333230683130610da08201527f7633682d31307a222f3e3c7061746820643d224d323533203331376834763368610dc08201527f2d347a222f3e3c7061746820643d224d323537203330376833763130682d337a610de08201527f222f3e3c7061746820643d224d3235332033303368347634682d347a222f3e3c610e008201527f7061746820643d224d3235302033303068337633682d337a222f3e3c70617468610e208201527f20643d224d3234372032393768337633682d337a222f3e3c7061746820643d22610e408201527f4d3234332032393368347634682d347a222f3e3c7061746820643d224d323430610e608201527f2032393068337633682d337a222f3e3c7061746820643d224d32333720323837610e808201527f68337633682d337a222f3e3c7061746820643d224d3233332032383368347634610ea08201527f682d347a222f3e3c7061746820643d224d3233302032383068337633682d337a610ec08201527f222f3e3c7061746820643d224d3232372032373768337633682d337a222f3e3c610ee08201527f7061746820643d224d3232332032373368347634682d347a222f3e3c70617468610f008201527f20643d224d3232302032363768337636682d337a222f3e3c7061746820643d22610f208201527f4d3231372032363068337637682d337a222f3e3c7061746820643d224d323133610f408201527f2032353368347637682d347a222f3e3c7061746820643d224d32313020323437610f608201527f68337636682d337a222f3e3c7061746820643d224d3230372032333768337631610f808201527f30682d337a222f3e3c7061746820643d224d323033203232376834763130682d610fa08201527f347a6d2d343020363068347636682d347a6d323420323068337633682d337a22610fc08201527f2f3e3c7061746820643d224d3136372032393368337635682d337a6d31362031610fe08201527f3468347633682d347a222f3e3c7061746820643d224d313730203239386834766110008201527f33682d347a6d3130203668337633682d337a222f3e3c7061746820643d224d316110208201527f37342033303168367633682d367a6d323320313268367634682d367a222f3e3c6110408201527f7061746820643d224d323033203331376831307633682d31307a6d2d322d31306110608201527f37762d3733682d3476373368337631376833762d3137682d327a222f3e3c2f676110808201527f3e3c6720636c6173733d226f223e3c7061746820643d224d31383720333037766110a08201527f2d346833762d36682d33762d34682d34762d33682d33762d33682d37762d34686110c08201527f2d367634682d3476336834763237682d34763133682d33763130682d347637686110e08201527f3476336833203130203134762d33682d34762d34682d33762d33682d33762d336111008201527f682d34762d376834762d31306833762d376833762d336837762d33682d337a6d6111208201527f3136203130762d34682d36763137682d34763130682d337637683376336834206111408201527f3620342033203134762d33682d34762d34682d37762d33682d33762d33682d336111608201520152565b90610295609a60405180947f3c7374796c653e2e6f7b66696c6c3a233830383038303b7d2e62327b66696c6c60208301527f3a6e6f6e653b7d2e62337b66696c6c3a6e6f6e653b7d2e62347b66696c6c3a6e60408301527f6f6e653b7d2e61317b66696c6c3a6e6f6e653b7d2e61327b66696c6c3a6e6f6e60608301527f653b7d2e61337b66696c6c3a6e6f6e653b7d3c2f7374796c653e00000000000060808301526147ef81518092602086860191016103bf565b810103607a810185520183610235565b9061029560ba60405180947f3c7376672077696474683d2234303022206865696768743d223430302220766960208301527f6577426f783d223020302034303020343030222066696c6c3d226e6f6e65222060408301527f786d6c6e733d22687474703a2f2f7777772e77332e6f72672f323030302f737660608301527f67223e3c7374796c653e2e6f7b66696c6c3a233035303530353b7d2e777b666960808301527336361d11b31cb31cb31c9dbe9e17b9ba3cb6329f60611b60a08301526148d381518092602060b4860191016103bf565b8101651e17b9bb339f60d11b60b482015203609a810185520183610235565b90610a7690614920604051602092609160f51b8483015260228201526022815261491b816101fe565b6158d7565b92604051938161493986935180928680870191016103bf565b820161494d825180938680850191016103bf565b01038084520182610235565b906102956021604051846149778296518092602080860191016103bf565b8101600160fd1b6020820152036001810185520183610235565b610295916149e79493602b926040519687936020926149b88151809286808a0191016103bf565b85016149cc825180938680850191016103bf565b0191602f60f81b8184015283519384916021850191016103bf565b01692072656d61696e696e6760b01b602182015203600b810185520183610235565b6037906102959294936040519582614a2b8894518092602080880191016103bf565b83016b0101429a7a6221027aaaa14960a51b6020820152614a56825180936020602c850191016103bf565b01602f60f81b602c820152614a75825180936020602d850191016103bf565b01692072656d61696e696e6760b01b602d820152036017810185520183610235565b61029591614aec9493602192604051968793602092614abe8151809286808a0191016103bf565b8501614ad2825180938680850191016103bf565b0191602f60f81b81840152835193849187850191016103bf565b01036001810185520183610235565b90610295602360405184614b198296518092602080860191016103bf565b8101620101d160ed1b6020820152036003810185520183610235565b6021610295919392936040519481614b578793518092602080870191016103bf565b8201614b6c82518093602080850191016103bf565b01600160fd1b6020820152036001810185520183610235565b6025610295919392936040519481614ba78793518092602080870191016103bf565b820164555043202360d81b6020820152614bca82518093602087850191016103bf565b01036005810185520183610235565b90614c25610a7692633b9aca00614bf8614bf38551614d3b565b614959565b91068015614c615790614c0d614c2092612f2a565b614c1a6060860151612f2a565b91614a97565b614afb565b90614c34610100820151614f7a565b8051614c4c575b50614c469051612f2a565b90614b85565b614c5a90614c469293614b35565b9190614c3b565b50604083019081518015600014614c935750614c80614c209251612f2a565b614c8d6060860151612f2a565b91614a09565b614c209250614ca190612f2a565b614cae6060860151612f2a565b91614991565b60405190614cc1826101ab565b600882526713dc9a59da5b985b60c21b6020830152565b60405190614ce5826101ab565b60068252654f72616e676560d01b6020830152565b60405190614d07826101ab565b600482526350696e6b60e01b6020830152565b60405190614d27826101ab565b600582526420b634b2b760d91b6020830152565b60018103614d4c5750610a76614d1a565b60028103614d5d5750610a76614cfa565b60038103614d6e5750610a76614cd8565b60048103614d7f5750610a76614cb4565b6000526003602052610a76604060002061031c565b60405190614da1826101ab565b6007825266546f7070696e6760c81b6020830152565b60405190614dc4826101ab565b6004825263119a5cdd60e21b6020830152565b60405190614de4826101ab565b600b82526a5375697420626f74746f6d60a81b6020830152565b60405190614e0b826101ab565b600882526705375697420746f760c41b6020830152565b60405190614e2f826101ab565b600482526314dd5a5d60e21b6020830152565b60405190614e4f826101ab565b60048252631219585960e21b6020830152565b60405190614e6f826101ab565b600882526704865616420746f760c41b6020830152565b60405190614e93826101ab565b600582526409adeeae8d60db1b6020830152565b60405190614eb4826101ab565b6007825266476c617373657360c81b6020830152565b60405190614ed7826101ab565b60088252674e65636b6c61636560c01b6020830152565b60405190614efb826101ab565b60048252634c65677360e01b6020830152565b60405190614f1b826101ab565b60088252674261636b7369646560c01b6020830152565b60405190614f3f826101ab565b600582526415dbdc9b1960da1b6020830152565b60405190614f60826101ab565b600b82526a4e616b65642042616e6e7960a81b6020830152565b80614f885750610a76614f53565b60018103614f995750610a76614f32565b60028103614faa5750610a76614f0e565b60078103614fbb5750610a76614eee565b60038103614fcc5750610a76614eca565b60058103614fdd5750610a76614ea7565b60068103614fee5750610a76614e86565b600b8103614fff5750610a76614e62565b600481036150105750610a76614e42565b600881036150215750610a76614e22565b600a81036150325750610a76614dfe565b600981036150435750610a76614dd7565b600c81036150545750610a76614db7565b600d1461506357610a76611926565b610a76614d94565b60405190615078826101fe565b604082527f6768696a6b6c6d6e6f707172737475767778797a303132333435363738392b2f6040837f4142434445464748494a4b4c4d4e4f505152535455565758595a61626364656660208201520152565b9060028201809211612c8f57565b9060208201809211612c8f57565b9060018201809211612c8f57565b91908201809211612c8f57565b8051156151e15761511061506b565b61512c61512761512084516150ca565b6003900490565b612c77565b9161513e615139846150d8565b612ef8565b92835280815182019060208501935b82821061518f5750505060039051068060011461517e5760021461516f575090565b603d60f81b6000199091015290565b50613d3d60f01b6001199091015290565b9091936004906003809401938451600190603f9082828260121c16880101518553828282600c1c16880101518386015382828260061c168801015160028601531685010151908201530193919061514d565b50610a76611926565b6000546001600160a01b0390811681615201615d74565b160361520a5750565b602490615215615d74565b60405163118cdaa760e01b815291166004820152fd5b61523490615c48565b926152439695969291926131d8565b9460405197889760208901703c7374796c653e2e62317b66696c6c3a2360781b90528051908160318b01916020019161527b926103bf565b8801603181016b3b7d2e62327b66696c6c3a2360a01b905281519182603d830191602001916152a9926103bf565b01603d81016b3b7d2e62337b66696c6c3a2360a01b9052815191826049830191602001916152d6926103bf565b01604981016152f3906b3b7d2e62347b66696c6c3a2360a01b9052565b6055016152ff91611604565b6b3b7d2e61317b66696c6c3a2360a01b8152600c0161531d91611604565b6b3b7d2e61327b66696c6c3a2360a01b8152600c0161533b91611604565b6b3b7d2e61337b66696c6c3a2360a01b8152600c0161535991611604565b691dbe9e17b9ba3cb6329f60b11b8152600a0161537591611604565b03601f1981018252610a769082610235565b6040519061539482610219565b61019c82527f6820643d224d3139332031373068347633682d347a222f3e3c2f673e000000006101a0837f3c6720636c6173733d226f223e3c7061746820643d224d31393020313733682d60208201527f3337762d33682d3130762d34682d36763468337633682d33763468367633683160408201527f307634683337762d346833762d33682d33762d347a6d2d34302034682d33762d60608201527f34683376347a6d372033762d3368337633682d337a6d362030762d336834763360808201527f682d347a6d372030762d3368337633682d337a6d372030762d3368337633682d60a08201527f337a6d31302030682d34762d33683476337a222f3e3c7061746820643d224d3160c08201527f39302031373068337633682d337a222f3e3c7061746820643d224d313933203160e08201527f363668347634682d347a6d30203768347634682d347a222f3e3c2f673e3c67206101008201527f636c6173733d2277223e3c7061746820643d224d3133372031373068337633686101208201527f2d337a6d3130203368337634682d337a6d3130203468337633682d337a6d36206101408201527f3068347633682d347a6d37203068337633682d337a6d37203068337633682d336101608201527f7a6d36203068347633682d347a6d372d3468337634682d337a222f3e3c7061746101808201520152565b6040519060c082018281106001600160401b038211176101a65760405260818252601f60f91b60a0837f3c6720636c6173733d226f223e3c7061746820643d224d31383320313630762d60208201527f34682d32307634682d33763368337634683234762d37682d347a6d2d3133203360408201527f762d336831307633682d31307a222066696c6c3d2223616437316338222f3e3c60608201527f7061746820643d224d313730203136306831307633682d31307a222f3e3c2f6760808201520152565b91906060928151600091828394879361566c816150e6565b955b86811061567f575050505050505050565b818110156158665761569181846115a5565b516040805163507f146560e01b8152600491906001600160a01b036020808386818e86165afa918215610b755761570c9560009588958e948896615847575b50505163c44a8e6d60e01b81526001600160a01b0390931690830190815260208101949094526000604085015290948593849291839160600190565b0392165afa8015610b75576101009160009161582e575b500151965b6003888114969087156157fc5750505060019461574582886130d8565b995b60068981036157c5575050600a6001985b11806157bb575b6157a1575b8115159081615798575b50615780575b5060010196949661566e565b6001919a61280961579192886130d8565b9990615774565b9050153861576e565b986157ac919b611ab9565b996157b5611926565b98615764565b508951151561575f565b89919911806157f4575b6157dc575b600a90615758565b97509a6157eb9061280961558f565b9a6001976157d4565b5088156157cf565b899b9197929b1180615826575b156157475795509a61581d90612809615387565b9a600195615747565b508615615809565b615841913d8091833e610b678183610235565b38615723565b61585e929650803d10610ba457610b958183610235565b9338806156d0565b600e95600090615728565b604051906105e082018281106001600160401b038211176101a657604052602e82526105c0366020840137565b906158a8826104e9565b6158b56040519182610235565b8281528092612f20601f19916104e9565b9081518110156115a0570160200190565b908151156159fe576158e7615871565b9160009060006158f685611593565b526001918151916000925b808410615927575050505061591d61592291610a769394615dcd565b615e10565b615e57565b9091929461595861595261594c61593e89876158c6565b516001600160f81b03191690565b60f81c90565b60ff1690565b9184925b60ff90898289168610156159bd576001929161599161598b6159526159848a615997966115a5565b5160ff1690565b60081b90565b906150f4565b6159b48b6159ac88603a9586860616926115a5565b9060ff169052565b0493019261595c565b50919594935050809691965b6159d7575060010192615901565b9460ff6001603a926159f483858b06166159ac8d868516906115a5565b01169504806159c9565b9050610a76612ee0565b60405190615a15826101ab565b600682526506666653930360d41b6020830152565b60405190615a37826101ab565b600682526506666633730360d41b6020830152565b60405190615a59826101ab565b600682526566336136303360d01b6020830152565b60405190615a7b826101ab565b600682526539363561316160d01b6020830152565b60405190615a9d826101ab565b600682526533331bb1981960d11b6020830152565b60405190615abf826101ab565b600682526506664333630360d41b6020830152565b60405190615ae1826101ab565b600682526518cccc994c1960d21b6020830152565b60405190615b03826101ab565b600682526566666438633560d01b6020830152565b60405190615b25826101ab565b600682526566663936613960d01b6020830152565b60405190615b47826101ab565b600682526533329a9c1c3160d11b6020830152565b60405190615b69826101ab565b600682526563393266343560d01b6020830152565b60405190615b8b826101ab565b600682526536376437353760d01b6020830152565b60405190615bad826101ab565b600682526503330613232360d41b6020830152565b60405190615bcf826101ab565b600682526532313761313560d01b6020830152565b60405190615bf1826101ab565b60048252636e6f6e6560e01b6020830152565b60405190615c11826101ab565b6006825265329a1c19b2b360d11b6020830152565b60405190615c33826101ab565b60068252653231993332b360d11b6020830152565b60018103615c8f5750615c59615b7e565b90615c62615ba0565b90615c6b615bc2565b90615c74615be4565b90615c7d615c04565b90615c86615c26565b90610a76615c26565b60028103615cd65750615ca0615af6565b90615ca9615b18565b90615cb2615b3a565b90615cbb615b5c565b90615cc4615af6565b90615ccd615b18565b90610a76615b3a565b60038103615d1d5750615ce7615a4c565b90615cf0615a90565b90615cf9615ab2565b90615d02615ad4565b90615d0b615a4c565b90615d14615a90565b90610a76615ab2565b600414615d3657604051633b9cb79b60e21b8152600490fd5b615d3e615a08565b90615d47615a2a565b90615d50615a4c565b90615d59615a6e565b90615d62615a08565b90615d6b615a2a565b90610a76615a4c565b337f000000000000000000000000b2b5841dbef766d4b521221732f9b618fcf34a876001600160a01b03161480615dc2575b15615dbe576013193601368111612c8f573560601c90565b3390565b506014361015615da6565b9060ff80911690615ddd8261589e565b9260005b838110615def575050505090565b8083615dfd600193856115a5565b5116615e0982886115a5565b5201615de1565b908151615e1c8161589e565b9060005b818110615e2e575090925050565b60019060ff615e446000198389510301886115a5565b5116615e5082866115a5565b5201615e20565b8051615e6281611340565b91604090615e736040519485610235565b828452615e7f83611340565b602090601f1901368683013760009260005b858110615ea15750505050505090565b6001908251615eaf816101fe565b603a81527f31323334353637383941424344454647484a4b4c4d4e50515253545556575859858201527f5a6162636465666768696a6b6d6e6f707172737475767778797a000000000000848201526001600160f81b031990615f1f9060ff615f17858a6115a5565b5116906158c6565b5116861a615f2d828a6158c6565b5301615e9156fea2646970667358221220f4c28235c2577961bfb96f025f5626f87693022b891a47164c12465d5e52a4fe64736f6c63430008170033",
			"devdoc": {
				"kind": "dev",
				"methods": {
					"assetIdsOf(address,uint256)": {
						"custom:param": "hook The hook address of the collection.",
						"params": {
							"nakedBannyId": "The ID of the naked banny shows with the associated assets."
						},
						"returns": {
							"outfitIds": "The outfits attached to the Naked Banny.",
							"worldId": "The world attached to the Naked Banny."
						}
					},
					"constructor": {
						"params": {
							"owner": "The owner allowed to add SVG files that correspond to product IDs.",
							"trustedForwarder": "The trusted forwarder for the ERC2771Context."
						}
					},
					"decorateBannyWith(address,uint256,uint256,uint256[])": {
						"details": "The caller must own the naked banny being dressed and all outfits being worn.",
						"params": {
							"hook": "The hook storing the assets.",
							"nakedBannyId": "The ID of the Naked Banny being dressed.",
							"outfitIds": "The IDs of the outfits that'll be associated with the specified banny. Only one outfit per outfit category allowed at a time and they must be passed in order.",
							"worldId": "The ID of the world that'll be associated with the specified banny."
						}
					},
					"isTrustedForwarder(address)": {
						"details": "Indicates whether any particular address is the trusted forwarder."
					},
					"namesOf(address,uint256)": {
						"params": {
							"hook": "The hook storing the assets.",
							"tokenId": "The ID of the token to show."
						},
						"returns": {
							"_0": "fullName The full name of the token.",
							"_1": "categoryName The name of the token's category.",
							"_2": "productName The name of the token's product."
						}
					},
					"owner()": {
						"details": "Returns the address of the current owner."
					},
					"renounceOwnership()": {
						"details": "Leaves the contract without owner. It will not be possible to call `onlyOwner` functions. Can only be called by the current owner. NOTE: Renouncing ownership will leave the contract without an owner, thereby disabling any functionality that is only available to the owner."
					},
					"setProductNames(uint256[],string[])": {
						"params": {
							"names": "The names of the products.",
							"upcs": "The universal product codes of the products having their name stored."
						}
					},
					"setSvgContentsOf(uint256[],string[])": {
						"params": {
							"svgContents": "The svg contents being stored, not including the parent <svg></svg> element.",
							"upcs": "The universal product codes of the products having SVGs stored."
						}
					},
					"setSvgHashsOf(uint256[],bytes32[])": {
						"details": "This allows anyone to lazily upload the correct svg file.",
						"params": {
							"svgHashs": "The svg hashes being stored, not including the parent <svg></svg> element.",
							"upcs": "The universal product codes of the products having SVG hashes stored."
						}
					},
					"svgOf(address,uint256,bool,bool)": {
						"params": {
							"hook": "The hook storing the assets.",
							"shouldDressNakedBanny": "Whether the naked banny should be dressed.",
							"shouldIncludeWorldOnNakedBanny": "Whether the world should be included on the naked banny.",
							"tokenId": "The ID of the token to show. If the ID belongs to a Naked Banny, it will be shown with its current outfits in its current world if specified."
						},
						"returns": {
							"_0": "svg The SVG."
						}
					},
					"tokenUriOf(address,uint256)": {
						"params": {
							"tokenId": "The ID of the token to show. If the ID belongs to a Naked Banny, it will be shown with its current outfits in its current world."
						},
						"returns": {
							"_0": "tokenUri The URI representing the SVG."
						}
					},
					"transferOwnership(address)": {
						"details": "Transfers ownership of the contract to a new account (`newOwner`). Can only be called by the current owner."
					},
					"trustedForwarder()": {
						"details": "Returns the address of the trusted forwarder."
					},
					"userOf(address,uint256)": {
						"custom:param": "hook The hook address of the collection.",
						"params": {
							"worldId": "The ID of the world being used."
						},
						"returns": {
							"_0": "The ID of the naked banny using the world."
						}
					},
					"wearerOf(address,uint256)": {
						"custom:param": "hook The hook address of the collection.",
						"params": {
							"outfitId": "The ID of the outfit being worn."
						},
						"returns": {
							"_0": "The ID of the naked banny wearing the outfit."
						}
					}
				},
				"version": 1
			},
			"userdoc": {
				"kind": "user",
				"methods": {
					"assetIdsOf(address,uint256)": {
						"notice": "The assets currently attached to each Naked Banny, owned by the naked Banny's owner."
					},
					"decorateBannyWith(address,uint256,uint256,uint256[])": {
						"notice": "Dress your Naked Banny with outfits."
					},
					"namesOf(address,uint256)": {
						"notice": "Returns the name of the token."
					},
					"setProductNames(uint256[],string[])": {
						"notice": "Allows the owner to set the product's name."
					},
					"setSvgBaseUri(string)": {
						"notice": "Allows the owner of this contract to specify the base of the domain hosting the SVG files."
					},
					"setSvgContentsOf(uint256[],string[])": {
						"notice": "The owner of this contract can store SVG files for product IDs."
					},
					"setSvgHashsOf(uint256[],bytes32[])": {
						"notice": "Allows the owner of this contract to upload the hash of an svg file for a universal product code."
					},
					"svgBaseUri()": {
						"notice": "The base of the domain hosting the SVG files that can be lazily uploaded to the contract."
					},
					"svgHashOf(uint256)": {
						"notice": "The Naked Banny and outfit SVG hash files."
					},
					"svgOf(address,uint256,bool,bool)": {
						"notice": "Returns the SVG showing either a naked banny with/without outfits and a world, or the stand alone outfit or world."
					},
					"tokenUriOf(address,uint256)": {
						"notice": "Returns the SVG showing a dressed Naked Banny in a world."
					},
					"userOf(address,uint256)": {
						"notice": "Checks to see which naked banny is currently using a particular world."
					},
					"wearerOf(address,uint256)": {
						"notice": "Checks to see which naked banny is currently wearing a particular outfit."
					}
				},
				"version": 1
			},
			"gitCommit": "80859e1ea89b5aafecfda8aff6fc7e98fdd6d371",
			"sourceName": "src/Banny721TokenUriResolver.sol",
			"chainId": "84532",
			"linkReferences": {},
			"deployedLinkReferences": {}
		}
	]
}