{
	"_format": "sphinx-sol-ct-artifact-1",
	"merkleRoot": "0xd7df488757732a3deddf15078b05be6cfe58c2007083c3be4861de2917d55bf4",
	"contractName": "Banny721TokenUriResolver",
	"address": "0x7EE8978713A69Be9527EB494Cf03360174e9De54",
	"abi": [
		{
			"type": "constructor",
			"inputs": [
				{
					"name": "owner",
					"type": "address",
					"internalType": "address"
				},
				{
					"name": "trustedForwarder",
					"type": "address",
					"internalType": "address"
				}
			],
			"stateMutability": "nonpayable"
		},
		{
			"type": "function",
			"name": "_nameOf",
			"inputs": [
				{
					"name": "tokenId",
					"type": "uint256",
					"internalType": "uint256"
				},
				{
					"name": "tierId",
					"type": "uint256",
					"internalType": "uint256"
				},
				{
					"name": "category",
					"type": "uint256",
					"internalType": "uint256"
				}
			],
			"outputs": [
				{
					"name": "",
					"type": "string",
					"internalType": "string"
				}
			],
			"stateMutability": "view"
		},
		{
			"type": "function",
			"name": "assetIdsOf",
			"inputs": [
				{
					"name": "nakedBannyId",
					"type": "uint256",
					"internalType": "uint256"
				}
			],
			"outputs": [
				{
					"name": "worldId",
					"type": "uint256",
					"internalType": "uint256"
				},
				{
					"name": "outfitIds",
					"type": "uint256[]",
					"internalType": "uint256[]"
				}
			],
			"stateMutability": "view"
		},
		{
			"type": "function",
			"name": "decorateBannyWith",
			"inputs": [
				{
					"name": "hook",
					"type": "address",
					"internalType": "address"
				},
				{
					"name": "nakedBannyId",
					"type": "uint256",
					"internalType": "uint256"
				},
				{
					"name": "worldId",
					"type": "uint256",
					"internalType": "uint256"
				},
				{
					"name": "outfitIds",
					"type": "uint256[]",
					"internalType": "uint256[]"
				}
			],
			"outputs": [],
			"stateMutability": "nonpayable"
		},
		{
			"type": "function",
			"name": "isTrustedForwarder",
			"inputs": [
				{
					"name": "forwarder",
					"type": "address",
					"internalType": "address"
				}
			],
			"outputs": [
				{
					"name": "",
					"type": "bool",
					"internalType": "bool"
				}
			],
			"stateMutability": "view"
		},
		{
			"type": "function",
			"name": "nameOf",
			"inputs": [
				{
					"name": "hook",
					"type": "address",
					"internalType": "address"
				},
				{
					"name": "tokenId",
					"type": "uint256",
					"internalType": "uint256"
				}
			],
			"outputs": [
				{
					"name": "",
					"type": "string",
					"internalType": "string"
				}
			],
			"stateMutability": "view"
		},
		{
			"type": "function",
			"name": "outfitIsBeingWornBy",
			"inputs": [
				{
					"name": "outfitId",
					"type": "uint256",
					"internalType": "uint256"
				}
			],
			"outputs": [
				{
					"name": "",
					"type": "uint256",
					"internalType": "uint256"
				}
			],
			"stateMutability": "view"
		},
		{
			"type": "function",
			"name": "owner",
			"inputs": [],
			"outputs": [
				{
					"name": "",
					"type": "address",
					"internalType": "address"
				}
			],
			"stateMutability": "view"
		},
		{
			"type": "function",
			"name": "renounceOwnership",
			"inputs": [],
			"outputs": [],
			"stateMutability": "nonpayable"
		},
		{
			"type": "function",
			"name": "setSvgBaseUri",
			"inputs": [
				{
					"name": "baseUri",
					"type": "string",
					"internalType": "string"
				}
			],
			"outputs": [],
			"stateMutability": "nonpayable"
		},
		{
			"type": "function",
			"name": "setSvgContentsOf",
			"inputs": [
				{
					"name": "tierIds",
					"type": "uint256[]",
					"internalType": "uint256[]"
				},
				{
					"name": "svgContents",
					"type": "string[]",
					"internalType": "string[]"
				}
			],
			"outputs": [],
			"stateMutability": "nonpayable"
		},
		{
			"type": "function",
			"name": "setSvgHashsOf",
			"inputs": [
				{
					"name": "tierIds",
					"type": "uint256[]",
					"internalType": "uint256[]"
				},
				{
					"name": "svgHashs",
					"type": "bytes32[]",
					"internalType": "bytes32[]"
				}
			],
			"outputs": [],
			"stateMutability": "nonpayable"
		},
		{
			"type": "function",
			"name": "setTierNames",
			"inputs": [
				{
					"name": "tierIds",
					"type": "uint256[]",
					"internalType": "uint256[]"
				},
				{
					"name": "names",
					"type": "string[]",
					"internalType": "string[]"
				}
			],
			"outputs": [],
			"stateMutability": "nonpayable"
		},
		{
			"type": "function",
			"name": "svgBaseUri",
			"inputs": [],
			"outputs": [
				{
					"name": "",
					"type": "string",
					"internalType": "string"
				}
			],
			"stateMutability": "view"
		},
		{
			"type": "function",
			"name": "svgHashOf",
			"inputs": [
				{
					"name": "tierId",
					"type": "uint256",
					"internalType": "uint256"
				}
			],
			"outputs": [
				{
					"name": "",
					"type": "bytes32",
					"internalType": "bytes32"
				}
			],
			"stateMutability": "view"
		},
		{
			"type": "function",
			"name": "svgOf",
			"inputs": [
				{
					"name": "hook",
					"type": "address",
					"internalType": "address"
				},
				{
					"name": "tokenId",
					"type": "uint256",
					"internalType": "uint256"
				},
				{
					"name": "shouldDressNakedBanny",
					"type": "bool",
					"internalType": "bool"
				},
				{
					"name": "shouldIncludeWorldOnNakedBanny",
					"type": "bool",
					"internalType": "bool"
				}
			],
			"outputs": [
				{
					"name": "",
					"type": "string",
					"internalType": "string"
				}
			],
			"stateMutability": "view"
		},
		{
			"type": "function",
			"name": "tokenUriOf",
			"inputs": [
				{
					"name": "hook",
					"type": "address",
					"internalType": "address"
				},
				{
					"name": "tokenId",
					"type": "uint256",
					"internalType": "uint256"
				}
			],
			"outputs": [
				{
					"name": "",
					"type": "string",
					"internalType": "string"
				}
			],
			"stateMutability": "view"
		},
		{
			"type": "function",
			"name": "transferOwnership",
			"inputs": [
				{
					"name": "newOwner",
					"type": "address",
					"internalType": "address"
				}
			],
			"outputs": [],
			"stateMutability": "nonpayable"
		},
		{
			"type": "function",
			"name": "trustedForwarder",
			"inputs": [],
			"outputs": [
				{
					"name": "",
					"type": "address",
					"internalType": "address"
				}
			],
			"stateMutability": "view"
		},
		{
			"type": "function",
			"name": "worldIsBeingUsedBy",
			"inputs": [
				{
					"name": "worldId",
					"type": "uint256",
					"internalType": "uint256"
				}
			],
			"outputs": [
				{
					"name": "",
					"type": "uint256",
					"internalType": "uint256"
				}
			],
			"stateMutability": "view"
		},
		{
			"type": "event",
			"name": "DecorateBanny",
			"inputs": [
				{
					"name": "hook",
					"type": "address",
					"indexed": true,
					"internalType": "address"
				},
				{
					"name": "nakenBannyId",
					"type": "uint256",
					"indexed": true,
					"internalType": "uint256"
				},
				{
					"name": "worldId",
					"type": "uint256",
					"indexed": false,
					"internalType": "uint256"
				},
				{
					"name": "outfitIds",
					"type": "uint256[]",
					"indexed": false,
					"internalType": "uint256[]"
				},
				{
					"name": "caller",
					"type": "address",
					"indexed": false,
					"internalType": "address"
				}
			],
			"anonymous": false
		},
		{
			"type": "event",
			"name": "OwnershipTransferred",
			"inputs": [
				{
					"name": "previousOwner",
					"type": "address",
					"indexed": true,
					"internalType": "address"
				},
				{
					"name": "newOwner",
					"type": "address",
					"indexed": true,
					"internalType": "address"
				}
			],
			"anonymous": false
		},
		{
			"type": "event",
			"name": "SetSvgBaseUri",
			"inputs": [
				{
					"name": "baseUri",
					"type": "string",
					"indexed": false,
					"internalType": "string"
				},
				{
					"name": "caller",
					"type": "address",
					"indexed": false,
					"internalType": "address"
				}
			],
			"anonymous": false
		},
		{
			"type": "event",
			"name": "SetSvgContent",
			"inputs": [
				{
					"name": "tierId",
					"type": "uint256",
					"indexed": true,
					"internalType": "uint256"
				},
				{
					"name": "svgContents",
					"type": "string",
					"indexed": false,
					"internalType": "string"
				},
				{
					"name": "caller",
					"type": "address",
					"indexed": false,
					"internalType": "address"
				}
			],
			"anonymous": false
		},
		{
			"type": "event",
			"name": "SetSvgHash",
			"inputs": [
				{
					"name": "tierIds",
					"type": "uint256",
					"indexed": true,
					"internalType": "uint256"
				},
				{
					"name": "svgHashs",
					"type": "bytes32",
					"indexed": true,
					"internalType": "bytes32"
				},
				{
					"name": "caller",
					"type": "address",
					"indexed": false,
					"internalType": "address"
				}
			],
			"anonymous": false
		},
		{
			"type": "event",
			"name": "SetTierName",
			"inputs": [
				{
					"name": "tierIds",
					"type": "uint256",
					"indexed": true,
					"internalType": "uint256"
				},
				{
					"name": "names",
					"type": "string",
					"indexed": false,
					"internalType": "string"
				},
				{
					"name": "caller",
					"type": "address",
					"indexed": false,
					"internalType": "address"
				}
			],
			"anonymous": false
		},
		{
			"type": "error",
			"name": "ASSET_IS_ALREADY_BEING_WORN",
			"inputs": []
		},
		{
			"type": "error",
			"name": "CONTENTS_ALREADY_STORED",
			"inputs": []
		},
		{
			"type": "error",
			"name": "CONTENTS_MISMATCH",
			"inputs": []
		},
		{
			"type": "error",
			"name": "HASH_ALREADY_STORED",
			"inputs": []
		},
		{
			"type": "error",
			"name": "HASH_NOT_FOUND",
			"inputs": []
		},
		{
			"type": "error",
			"name": "HEAD_ALREADY_ADDED",
			"inputs": []
		},
		{
			"type": "error",
			"name": "OwnableInvalidOwner",
			"inputs": [
				{
					"name": "owner",
					"type": "address",
					"internalType": "address"
				}
			]
		},
		{
			"type": "error",
			"name": "OwnableUnauthorizedAccount",
			"inputs": [
				{
					"name": "account",
					"type": "address",
					"internalType": "address"
				}
			]
		},
		{
			"type": "error",
			"name": "SUIT_ALREADY_ADDED",
			"inputs": []
		},
		{
			"type": "error",
			"name": "UNAUTHORIZED_NAKED_BANNY",
			"inputs": []
		},
		{
			"type": "error",
			"name": "UNAUTHORIZED_OUTFIT",
			"inputs": []
		},
		{
			"type": "error",
			"name": "UNAUTHORIZED_WORLD",
			"inputs": []
		},
		{
			"type": "error",
			"name": "UNORDERED_CATEGORIES",
			"inputs": []
		},
		{
			"type": "error",
			"name": "UNRECOGNIZED_CATEGORY",
			"inputs": []
		},
		{
			"type": "error",
			"name": "UNRECOGNIZED_OUTFIT",
			"inputs": []
		},
		{
			"type": "error",
			"name": "UNRECOGNIZED_TIER",
			"inputs": []
		},
		{
			"type": "error",
			"name": "UNRECOGNIZED_WORLD",
			"inputs": []
		}
	],
	"solcInputHash": "0150b39401cd7c6faed43131654b4bce",
	"args": [
		"0x584F5Da53cb18789099466074e3B5c32Ed17243a",
		"0xB2b5841DBeF766d4b521221732F9B618fCf34A87"
	],
	"bytecode": "0x60a034620000e957601f62005b1a38819003918201601f19168301916001600160401b03831184841017620000ee578084926040948552833981010312620000e9576200005a6020620000528362000104565b920162000104565b6080526001600160a01b039081168015620000d057600080546001600160a01b03198116831782556040519316907f8be0079c531659141344cd1fd0a4f28419497f9722a3daafe3b4186f6b6457e09080a3615a0090816200011a82396080518181816108fc01528181610a22015261580d0152f35b604051631e4fbdf760e01b815260006004820152602490fd5b600080fd5b634e487b7160e01b600052604160045260246000fd5b51906001600160a01b0382168203620000e95756fe6080604052600436101561001257600080fd5b60003560e01c806257bfdd146101465780631e4578de1461014157806331a290ac1461013c5780634d03376e14610137578063572b6c05146101325780635e703e711461012d5780636aff31dd14610128578063715018a6146101235780637508ac831461011e5780637da0a87714610119578063875e4bea146101145780638da5cb5b1461010f578063a22d0dd51461010a578063aeac5e3514610105578063b03a3eab14610100578063c06e7bc7146100fb578063f2fde38b146100f6578063f92df2e3146100f15763f9fed041146100ec57600080fd5b6114de565b6114b9565b61142d565b610e21565b610d7e565b610c5a565b610c15565b610be2565b610a51565b610a0c565b6109e6565b610988565b61095c565b610930565b6108d8565b6107f6565b610635565b6104a6565b61042b565b90600182811c9216801561017b575b602083101461016557565b634e487b7160e01b600052602260045260246000fd5b91607f169161015a565b634e487b7160e01b600052604160045260246000fd5b602081019081106001600160401b038211176101b657604052565b610185565b61026081019081106001600160401b038211176101b657604052565b6111a081019081106001600160401b038211176101b657604052565b606081019081106001600160401b038211176101b657604052565b6101c081019081106001600160401b038211176101b657604052565b604081019081106001600160401b038211176101b657604052565b90601f801991011681019081106001600160401b038211176101b657604052565b604051906000826002549161027a8361014b565b8083529260209060019081811690811561030857506001146102a7575b50506102a592500383610245565b565b91509260026000527f405787fa12a823e0f2b7631cc41b3ba8828b3321ca811111fa75cd3aa3bb5ace936000925b8284106102f057506102a59450505081016020013880610297565b855488850183015294850194879450928101926102d5565b915050602092506102a594915060ff191682840152151560051b8201013880610297565b9060405191826000825461033f8161014b565b908184526020946001916001811690816000146103ad575060011461036e575b5050506102a592500383610245565b600090815285812095935091905b8183106103955750506102a5935082010138808061035f565b8554888401850152948501948794509183019161037c565b925050506102a594925060ff191682840152151560051b82010138808061035f565b60005b8381106103e25750506000910152565b81810151838201526020016103d2565b9060209161040b815180928185528580860191016103cf565b601f01601f1916010190565b9060206104289281815201906103f2565b90565b3461045f57600036600319011261045f5761045b610447610266565b6040519182916020835260208301906103f2565b0390f35b600080fd5b604081019181526060602091604060208201528151809452019160809160005b828110610492575050505090565b835185529381019392810192600101610484565b3461045f5760208060031936011261045f57600435906000918083526005602052604083209060405180938491602085549182815201948752602087209187905b828210610554575050505061050190610511930384610245565b6000526006602052604060002090565b5491815191815b83811061052d576040518061045b8782610464565b8061053a60019284611537565b5161054d61054786611561565b95611512565b5201610518565b8354875295860195879450600193840193909101906104e7565b604051906101a082018281106001600160401b038211176101b657604052565b6001600160401b0381116101b65760051b60200190565b9080601f8301121561045f5760209082356105bf8161058e565b936105cd6040519586610245565b81855260208086019260051b82010192831161045f57602001905b8282106105f6575050505090565b813581529083019083016105e8565b9181601f8401121561045f578235916001600160401b03831161045f576020808501948460051b01011161045f57565b3461045f5760408060031936011261045f576004906001600160401b03823581811161045f5761066890369085016105a5565b9060243590811161045f576106809036908501610605565b92909180519360005b85811061069257005b61069c8184611537565b516106b26106ab838589611575565b36916107bf565b6106ce6106c9836000526004602052604060002090565b6115b6565b610794576106e6826000526001602052604060002090565b54801561078457865160208101906107108161070284876115c0565b03601f198101835282610245565b5190200361077457907faeb631726b45aa3f6b09da79f7af03a9784614901f61a967ed84d63c37b7edc761076b8361075e60019695610759866000526004602052604060002090565b611689565b885191829133908361175e565b0390a201610689565b85516375b5da0b60e01b81528990fd5b8651637ef41a4f60e01b81528a90fd5b8551630388067760e21b81528990fd5b6001600160401b0381116101b657601f01601f191660200190565b9291926107cb826107a4565b916107d96040519384610245565b82948184528183011161045f578281602093846000960137010152565b3461045f57604036600319011261045f576001600160401b0360043581811161045f576108279036906004016105a5565b60249060243583811161045f573660238201121561045f5780600401359261084e8461058e565b9361085c6040519586610245565b8085526020956024602087019260051b8501019336851161045f5760248101925b8584106108905761088e8888611786565b005b833583811161045f5782013660438201121561045f5789916108bc8392369060448a82013591016107bf565b81520193019261087d565b6001600160a01b0381160361045f57565b3461045f57602036600319011261045f5760206004356108f7816108c7565b6040517f00000000000000000000000000000000000000000000000000000000000000006001600160a01b039081169216919091148152f35b3461045f57604036600319011261045f5761045b610447600435610953816108c7565b60243590611b9c565b3461045f57602036600319011261045f5760043560005260016020526020604060002054604051908152f35b3461045f576000806003193601126109e3576109a26130dc565b80546001600160a01b03198116825581906001600160a01b03167f8be0079c531659141344cd1fd0a4f28419497f9722a3daafe3b4186f6b6457e08280a380f35b80fd5b3461045f57602036600319011261045f576020610a04600435611f34565b604051908152f35b3461045f57600036600319011261045f576040517f00000000000000000000000000000000000000000000000000000000000000006001600160a01b03168152602090f35b3461045f5760208060031936011261045f576004356001600160401b0380821161045f573660238301121561045f57816004013590811161045f57602492366024838501011161045f57610aa36130dc565b610ab782610ab260025461014b565b6115ee565b600093601f8311600114610b35575050610b0a81807f512c3c91736f50c57a0548c1d01ab02f24c420f002b8b20e2bfe63df9693cd3f95600091610b27575b508160011b916000199060031b1c19161790565b6002555b610b22604051928392602433920184611fe2565b0390a1005b602491508501013538610af6565b6002600052601f19831694907f405787fa12a823e0f2b7631cc41b3ba8828b3321ca811111fa75cd3aa3bb5ace9282915b878310610bc657505050827f512c3c91736f50c57a0548c1d01ab02f24c420f002b8b20e2bfe63df9693cd3f9510610ba9575b5050600181811b01600255610b0e565b830160240135600019600384901b60f8161c191690553880610b99565b908060018596848396978b010135815501950193019190610b66565b3461045f57600036600319011261045f576000546040516001600160a01b039091168152602090f35b8015150361045f57565b3461045f57608036600319011261045f5761045b610447600435610c38816108c7565b604435610c4481610c0b565b60643591610c5183610c0b565b602435906126c7565b3461045f57604036600319011261045f57600435610c77816108c7565b60405163507f146560e01b815260243591906001600160a01b03906020816004818587165afa8015610d4857610cee9360009386938593610d4d575b5060405163c44a8e6d60e01b81526001600160a01b039092166004830152602482019390935260006044820152938492839182906064820190565b0392165afa918215610d485761045b92610d1992600091610d25575b50610100815191015191612ed3565b60405191829182610417565b610d4291503d806000833e610d3a8183610245565b81019061198f565b38610d0a565b61192b565b610d7091935060203d602011610d77575b610d688183610245565b810190611916565b9138610cb3565b503d610d5e565b3461045f57604036600319011261045f576001600160401b0360043581811161045f57610daf9036906004016105a5565b9060243590811161045f573660238201121561045f578060040135610dd38161058e565b91610de16040519384610245565b8183526020916024602085019160051b8301019136831161045f57602401905b828210610e125761088e85876128ab565b81358152908301908301610e01565b3461045f57608036600319011261045f5760048035610e3f816108c7565b60243590604435926064356001600160401b03811161045f57610e659036908301610605565b94909160018060a01b0380851694604092610e9d8451926331a9108f60e11b938481528a818060209586938883019190602083019252565b03818d5afa908115610d4857600091611410575b5085610eca610ebe61580a565b6001600160a01b031690565b911603611400578a87156113d857508551848152828180610ef28b8883019190602083019252565b03818d5afa908115610d48576000916113bb575b5085610f13610ebe61580a565b9116036113ab57610f238761309b565b61139b57855163507f146560e01b8152828185818d5afa8015610d4857610f8a6000918893839161137e575b50895163c44a8e6d60e01b81526001600160a01b038616888201908152602081018d9052600060408201529094859384928391606090910190565b0392165afa908115610d4857600091611363575b50511561135357908a93929187610fbf8c6000526006602052604060002090565b558a610fd5896000526007602052604060002090565b55909a5093909192935b600091610fea61294e565b5060009b60009260005b88811061105b578d8d7f6a68946ba06488db8585d7c7637fa954b574035fe15720ea760125ef860172588e8e6110568f8f611043818661103e8b6000526005602052604060002090565b6129e7565b61104b61580a565b915194859485612a60565b0390a3005b889e61108e848f8f908b8f928e9f8890611074926129bf565b359e8f935195869485938493845283019190602083019252565b03915afa908115610d4857600091611336575b50856110ae610ebe61580a565b911603611326576110be8a611f34565b6113165787848f8d519283809263507f146560e01b82525afa8015610d48578b600091868f8d8b9161112c9787956112f7575b505163c44a8e6d60e01b81526001600160a01b0390931690830190815260208101949094526000604085015290948593849291839160600190565b0392165afa908115610d48576000916112de575b508051156112ce5761010001968751600281109081156112c3575b506112b35782151590816112a7575b5061129757908f98979695949392918f9087518981146000146111b8575050906001916111a583985b519c6000526008602052604060002090565b550190919293949e509794959697610ff4565b600891999a9b50809250969293949596146000146111e85750509060018f989796959493928f6111a58397611193565b979f9d9b9998979a9e9c9a60058197929714801561128d575b8015611283575b8061127c575b1561122357508f8f51631e550b6f60e11b8152fd5b9d9f9798999b9d9c9e9a9c600a8114908115611271575b508061126a575b61125a578f98979695949392918f6111a5600193611193565b8a51635e701b2b60e01b81528890fd5b5085611241565b60099150143861123a565b508761120e565b50600b8114611208565b5060068114611201565b8a51637dc0e82560e11b81528890fd5b9050875111153861116a565b8b5163c89badbd60e01b81528990fd5b600d9150113861115b565b8b516354c0901d60e11b81528990fd5b6112f1913d8091833e610d3a8183610245565b38611140565b61130f9195508c8d3d10610d7757610d688183610245565b93386110f1565b8a5163670bdddd60e11b81528890fd5b8a5163812a698960e01b81528890fd5b61134d9150853d8711610d7757610d688183610245565b386110a1565b855163265ba87960e01b81528390fd5b61137891503d806000833e610d3a8183610245565b38610f9e565b6113959150863d8811610d7757610d688183610245565b38610f4f565b855163670bdddd60e11b81528390fd5b8551639d17cec760e01b81528390fd5b6113d29150833d8511610d7757610d688183610245565b38610f06565b9392919060006113f28c6000526006602052604060002090565b55909a509390919293610fdf565b8551632add3f4b60e01b81528390fd5b6114279150833d8511610d7757610d688183610245565b38610eb1565b3461045f57602036600319011261045f5760043561144a816108c7565b6114526130dc565b6001600160a01b0390811680156114a057600080546001600160a01b03198116831782559092167f8be0079c531659141344cd1fd0a4f28419497f9722a3daafe3b4186f6b6457e08380a380f35b604051631e4fbdf760e01b815260006004820152602490fd5b3461045f57606036600319011261045f5761045b610447604435602435600435612ed3565b3461045f57602036600319011261045f576020610a0460043561309b565b634e487b7160e01b600052603260045260246000fd5b6060518110156115255760051b60800190565b6114fc565b8051156115255760200190565b80518210156115255760209160051b010190565b634e487b7160e01b600052601160045260246000fd5b60001981146115705760010190565b61154b565b91908110156115255760051b81013590601e198136030182121561045f5701908135916001600160401b03831161045f57602001823603811361045f579190565b610428905461014b565b906115d3602092828151948592016103cf565b0190565b8181106115e2575050565b600081556001016115d7565b90601f82116115fb575050565b6102a59160026000527f405787fa12a823e0f2b7631cc41b3ba8828b3321ca811111fa75cd3aa3bb5ace906020601f840160051c83019310611645575b601f0160051c01906115d7565b9091508190611638565b9190601f811161165e57505050565b6102a5926000526020600020906020601f840160051c8301931061164557601f0160051c01906115d7565b91909182516001600160401b0381116101b6576116b0816116aa845461014b565b8461164f565b602080601f83116001146116f3575081906116e49394956000926116e8575b50508160011b916000199060031b1c19161790565b9055565b0151905038806116cf565b90601f1983169561170985600052602060002090565b926000905b8882106117465750508360019596971061172d575b505050811b019055565b015160001960f88460031b161c19169055388080611723565b8060018596829496860151815501950193019061170e565b906117766020919493946040845260408401906103f2565b6001600160a01b03909416910152565b91906117906130dc565b82516000935b8185106117a4575050509050565b6117ae8582611537565b51946117ba8185611537565b51958060005260039660209780895260409081600020908351906001600160401b0382116101b6576117f6826117f0855461014b565b8561164f565b8b601f8311600114611879575050917fa67f37d9972d5f886682fb18abfea16db5777cc4d12c43e59dfee7e48663cb389391611852846118619560019a9b9c9d9e60009161186e57508160011b916000199060031b1c19161790565b90555b5191829133908361175e565b0390a20193929190611796565b905085015138610af6565b909b601f19831661188f85600052602060002090565b926000905b8282106118fe575050916001999a9b9c9d849261186197957fa67f37d9972d5f886682fb18abfea16db5777cc4d12c43e59dfee7e48663cb38999795106118e4575b505050881b88019055611855565b8601519060f884600019921b161c191690553880806118d6565b80600185968294968c01518155019501930190611894565b9081602091031261045f5751610428816108c7565b6040513d6000823e3d90fd5b51906102a5826108c7565b51906102a582610c0b565b81601f8201121561045f578051611963816107a4565b926119716040519485610245565b8184526020828401011161045f5761042891602080850191016103cf565b60208183031261045f5780516001600160401b039182821161045f57016101a08184031261045f576119bf61056e565b92815184526020820151602085015260408201516040850152606082015160608501526080820151608085015260a082015160a0850152611a0260c08301611937565b60c085015260e082015160e08501526101008083015190850152610120611a2a818401611942565b90850152610140611a3c818401611942565b90850152610160611a4e818401611942565b90850152610180928383015190811161045f57611a6b920161194d565b9082015290565b60405190611a7f8261019b565b60008252565b90604051918260605160005b818110611ac657509060206102a593611aba8294840191838301600081528151948592016103cf565b01038085520183610245565b6020919250806080015182828801015201908491611a91565b60206102a5919392936040519481611b0087935180928680870191016103cf565b8201611aba825180938680850191016103cf565b9060208282031261045f5781516001600160401b03811161045f57610428920161194d565b9081602091031261045f575190565b906102a5603d60405180947f646174613a6170706c69636174696f6e2f6a736f6e3b6261736536342c0000006020830152611b8c81518092602086860191016103cf565b810103601d810185520183610245565b6040805163507f146560e01b808252602094929392906001600160a01b03908185168785600481845afa948515610d4857600095611f15575b50865163c44a8e6d60e01b81526001600160a01b03871660048201526024810185905260006044820181905290958690606490829087165afa948515610d4857600095611efa575b50845115611eea576101008501805190939015611ee057611c3f865188613188565b968751611ea9575b875115611d7d575050505094611d6c611d5e611d7896611cdb611cf7611cdb98611cdb611ce18a611cbd6104289f611c8e611ca49d611cb89f92611c959351905191612ed3565b9251614a4e565b9488519c8d918d8301906115c0565b039b611cb8601f199d8e8101835282610245565b614c28565b9651683d913730b6b2911d1160b91b9a81019a8b529c8d9a60090190565b906115c0565b691116101134b2111d101160b11b8152600a0190565b7f222c226465736372697074696f6e223a2241207069656365206f66207468652081527f42616e6e797665727365222c22696d616765223a22646174613a696d6167652f60208201526e1cdd99cade1b5b0ed8985cd94d8d0b608a1b6040820152604f0190565b61227d60f01b815260020190565b03908101835282610245565b611b48565b92965092600d9195505111600014611e9a578551636c0360eb60e01b8152600081600481885afa8015610d48578891600091611e77575b50955b600488518097819382525afa918215610d4857611e0a968895600094611e58575b5051630c8df17160e41b81526001600160a01b0390921660048301526024820193909352948592839182906044820190565b0392165afa918215610d485761042893600093611e29575b505061499d565b611e49929350803d10611e51575b611e418183610245565b810190611b39565b903880611e22565b503d611e37565b611e70919450863d8811610d7757610d688183610245565b9238611dd8565b611e9491503d806000833e611e8c8183610245565b810190611b14565b38611db4565b86611ea3610266565b95611db7565b96611ebc906001865103611ec2576148aa565b96611c47565b611edb90611ed6611ed1613283565b6147e4565b611adf565b6148aa565b611ebc85886124c5565b5050505050505050610428611a72565b611f0e91953d8091833e610d3a8183610245565b9338611c1d565b611f2d919550883d8a11610d7757610d688183610245565b9338611bd5565b60009080825260209060086020526040832054908115611fdc578184526005602052604084209260405180948591602082549182815201918852602088209388905b828210611fc257505050611f8c92500384610245565b825192845b848110611fa057505050505090565b82611fab8284611537565b5114611fb957600101611f91565b50505091505090565b855484526001958601958995509381019390910190611f76565b50505090565b918060609160209396959660408652816040870152838601376000828286010152601f80199101168301019360018060a01b0316910152565b919060408382031261045f5782519260209081810151906001600160401b03821161045f57019180601f8401121561045f5782516120588161058e565b936120666040519586610245565b818552838086019260051b82010192831161045f578301905b82821061208d575050505090565b8151815290830190830161207f565b3d156120c7573d906120ad826107a4565b916120bb6040519384610245565b82523d6000602084013e565b606090565b6040519061010082018281106001600160401b038211176101b65760405260dd82527f746820643d224d3138302031343768337633682d337a222f3e3c2f673e00000060e0837f3c6720636c6173733d226f223e3c7061746820643d224d31373720313430763360208201527f6836763131683130762d31316834762d33682d32307a222f3e3c70617468206460408201527f3d224d31353320313430763368377638203368372033762d31316833762d336860608201527f2d32307a222f3e3c2f673e3c6720636c6173733d2277223e3c7061746820643d60808201527f224d3135332031343368377634682d377a222f3e3c7061746820643d224d313560a08201527f372031343768337633682d337a6d32302d3468367634682d367a222f3e3c706160c08201520152565b60405190612207826101bb565b61023a82527f643d224d3139302031333768347633682d347a222f3e3c2f673e000000000000610240837f3c6720636c6173733d226f223e3c7061746820643d224d31393020313237683360208201527f7633682d337a6d3320313368347633682d347a6d2d3432203068367636682d3660408201527f7a222f3e3c7061746820643d224d3135312031333368337637682d337a6d313060608201527f203068367634682d367a222f3e3c7061746820643d224d31353720313337683160808201527f377636682d31377a6d332031336831347633682d31347a6d31372d313368377660a08201527f3136682d377a222f3e3c7061746820643d224d3138342031333768367636682d60c08201527f367a6d302031306831307636682d31307a222f3e3c7061746820643d224d313860e08201527f37203134336831307634682d31307a222f3e3c7061746820643d224d313930206101008201527f31343068337633682d337a6d2d362d313068337637682d337a222f3e3c7061746101208201527f6820643d224d3138372031333068367633682d367a6d2d3336203068313076336101408201527f682d31307a6d313620313368377637682d377a6d2d3130203068377637682d376101608201527f7a222f3e3c7061746820643d224d3136342031343768337633682d337a6d32396101808201527f2d323068347636682d347a222f3e3c7061746820643d224d31393420313333686101a08201527f337637682d337a222f3e3c2f673e3c6720636c6173733d2277223e3c706174686101c08201527f20643d224d3135342031333368377634682d377a222f3e3c7061746820643d226101e08201527f4d3135342031333768337633682d337a6d3130203668337634682d337a6d32306102008201527f203068337634682d337a6d332d313068377634682d377a222f3e3c70617468206102208201520152565b60405163507f146560e01b81526001600160a01b036020826004818685165afa918215610d48576000926126a3575b5060405163c44a8e6d60e01b81526001600160a01b0384166004820152602481018590526000604482018190529092909183916064918391165afa908115610d485760009161268a575b5080511561267f57606061010082015161265a57604051630f22bc6f60e11b81526004810194909452610428936125da929082906000908181602481305afa9081600091600093612633575b506126235750506001916125c1916125a061209c565b505b8015158061261c575b612602575b506125bb8451614d11565b90611adf565b9151036125f6576125d4906125bb6121fa565b9261513a565b80516125e7575b506148aa565b6125f091611adf565b386125e1565b6125d4906125bb6120cc565b61261691506126119088613188565b611a85565b386125b0565b50836125ab565b6001939195506125c192506125a2565b90925061265391503d806000833e61264b8183610245565b81019061201b565b913861258a565b5061266792505190613188565b80516126765750610428611a72565b610428906148aa565b505050610428611a72565b61269d913d8091833e610d3a8183610245565b3861253e565b60009192506126c09060203d602011610d7757610d688183610245565b91906124f4565b60405163507f146560e01b81529390916001600160a01b036020866004818488165afa958615610d4857600096612887575b5060405163c44a8e6d60e01b81526001600160a01b0385166004820152602481018390526000604482018190529096909187916064918391165afa948515610d485760009561286c575b5084511561285f57606061010086015161284f57604051630f22bc6f60e11b8152600481019290925261042895909182906000908181602481305afa9081600091600093612830575b506128205750506127be9293946127a161209c565b505b8115159081612818575b50612803575b506125bb8351614d11565b936127cc575b5050506148aa565b5191926127e6926001036125f6576125d4906125bb6121fa565b80516127f4575b80806127c4565b6127fd91611adf565b386127ed565b61281291506126119086613188565b386127b3565b9050386127ad565b9091506127be93945090946127a3565b90925061284891503d806000833e61264b8183610245565b913861278c565b5050509050612667915190613188565b5050505050610428611a72565b61288091953d8091833e610d3a8183610245565b9338612743565b60009196506128a49060203d602011610d7757610d688183610245565b95906126f9565b906128b46130dc565b81519060009260005b8381106128cb575050505050565b6128d58183611537565b516128e08285611537565b519080875260206001815260408089205461293e5782917fb10eb6fc7557a7109693cb8f3fac48d44328de56c0368ee4cac539b424d2cad9918561293260019897966000526001602052604060002090565b5551338152a3016128bd565b516333ded41b60e21b8152600490fd5b604051906101a082018281106001600160401b038211176101b657604052606061018083600080825280602083015280604083015280848301528060808301528060a08301528060c08301528060e08301528061010083015280610120830152806101408301526101608201520152565b91908110156115255760051b0190565b600281901b91906001600160fe1b0381160361157057565b906001600160401b0383116101b6576801000000000000000083116101b6578154838355808410612a42575b50906000526020806000209060005b848110612a30575050505050565b83358382015592810192600101612a22565b612a5a908360005284602060002091820191016115d7565b38612a13565b9081526060602082018190528101839052929392916001600160fb1b03811161045f5760409160809160051b8091838601378301019360018060a01b0316910152565b60226102a5919392936040519481612ac58793518092602080870191016103cf565b820161202360f01b6020820152612ae582518093602087850191016103cf565b01036002810185520183610245565b906102a5602960405180946802a37b83834b7339d160bd1b6020830152612b2481518092602086860191016103cf565b8101036009810185520183610245565b906102a5602660405180946502334b9ba1d160d51b6020830152612b6181518092602086860191016103cf565b8101036006810185520183610245565b906102a5602d60405180946c029bab4ba103137ba3a37b69d1609d1b6020830152612ba581518092602086860191016103cf565b810103600d810185520183610245565b906102a5602a604051809469029bab4ba103a37b81d160b51b6020830152612be681518092602086860191016103cf565b810103600a810185520183610245565b906102a56026604051809465029bab4ba1d160d51b6020830152612b6181518092602086860191016103cf565b906102a5602660405180946502432b0b21d160d51b6020830152612b6181518092602086860191016103cf565b906102a5602a60405180946902432b0b2103a37b81d160b51b6020830152612be681518092602086860191016103cf565b906102a56027604051809466026b7baba341d160cd1b6020830152612caf81518092602086860191016103cf565b8101036007810185520183610245565b906102a56029604051809468023b630b9b9b2b99d160bd1b6020830152612b2481518092602086860191016103cf565b906102a5602a60405180946902732b1b5b630b1b29d160b51b6020830152612be681518092602086860191016103cf565b906102a5602660405180946502632b3b99d160d51b6020830152612b6181518092602086860191016103cf565b906102a5602a60405180946902130b1b5b9b4b2329d160b51b6020830152612be681518092602086860191016103cf565b906102a5602760405180946602bb7b936321d160cd1b6020830152612caf81518092602086860191016103cf565b906102a56035604051809474027b934b3b4b730b6102730b5b2b2102130b7373c9605d1b6020830152612de881518092602086860191016103cf565b8101036015810185520183610245565b906102a56033604051809472027b930b733b2902730b5b2b2102130b7373c9606d1b6020830152612e3281518092602086860191016103cf565b8101036013810185520183610245565b906102a5603160405180947002834b735902730b5b2b2102130b7373c9607d1b6020830152612e7a81518092602086860191016103cf565b8101036011810185520183610245565b906102a56032604051809471020b634b2b7102730b5b2b2102130b7373c960751b6020830152612ec381518092602086860191016103cf565b8101036012810185520183610245565b91633b9aca0083069160018103612ef857505050612ef361042891614a4e565b612e8a565b60028103612f1457505050612f0f61042891614a4e565b612e42565b60038103612f3057505050612f2b61042891614a4e565b612df8565b60048103612f4c57505050612f4761042891614a4e565b612dac565b612f6c91929350612f67906000526003602052604060002090565b61032c565b9180613065575b5060018103612f86575061042890612d7e565b60028103612f98575061042890612d4d565b60078103612faa575061042890612d20565b60038103612fbc575061042890612cef565b60058103612fce575061042890612cbf565b60068103612fe0575061042890612c81565b600b8103612ff2575061042890612c50565b60048103613004575061042890612c23565b60088103613016575061042890612bf6565b600a8103613028575061042890612bb5565b6009810361303a575061042890612b71565b600c810361304c575061042890612b34565b600d1461305c5750610428611a72565b61042890612af4565b9091805115600014613083575061307b90614a4e565b905b38612f73565b61308f61309592614a4e565b90612aa3565b9061307d565b8060005260076020526040600020549081159081156130c3575b506130bd5790565b50600090565b90508160005260066020526040600020541415386130b5565b6000546001600160a01b03908116816130f361580a565b16036130fc5750565b60249061310761580a565b60405163118cdaa760e01b815291166004820152fd5b906102a5604960405180946c1e34b6b0b3b290343932b31e9160991b6020830152613152815180926020602d860191016103cf565b81017f222077696474683d2234303022206865696768743d22343030222f3e00000000602d820152036029810185520183610245565b61319f612f67836000526004602052604060002090565b805161327d575060405163507f146560e01b81526001600160a01b039260209283836004818489165afa908115610d485761321295859460009361325e575b50604051632f54648f60e21b81526001600160a01b0390921660048301526024820193909352948592839182906044820190565b0392165afa8015610d48576104289261323c92600092613241575b5050613237610266565b61499d565b61311d565b6132579250803d10611e5157611e418183610245565b388061322d565b613276919350853d8711610d7757610d688183610245565b91386131de565b91505090565b60405190613290826101d7565b61117a82527f762d31306833762d376833762d33682d31307a222f3e3c2f673e000000000000611180837f3c6720636c6173733d226131223e3c7061746820643d224d313733203533683460208201527f763137682d347a222f3e3c2f673e3c6720636c6173733d226132223e3c70617460408201527f6820643d224d3136372035376833763130682d337a222f3e3c7061746820643d60608201527f224d3136392035336834763137682d347a222f3e3c2f673e3c6720636c61737360808201527f3d226133223e3c7061746820643d224d31363720353368337634682d337a222f60a08201527f3e3c7061746820643d224d3136332035376834763130682d347a222f3e3c706160c08201527f746820643d224d31363720363768337633682d337a222f3e3c2f673e3c67206360e08201527f6c6173733d226231223e3c7061746820643d224d32313320323533682d33762d6101008201527f332d33682d33762d372d33682d34762d3130682d33762d372d372d33682d33766101208201527f2d3733682d34762d3130682d33762d3130682d33762d37682d34762d37682d336101408201527f762d33682d33762d33682d3476313068347631306833763130683376336834766101608201527f37203320373020336833763768337632306834763768337633683376336834766101808201527f34683376336833762d332d347a222f3e3c7061746820643d224d3235332033306101a08201527f37762d34682d33762d33682d33762d33682d34762d34682d33762d33682d33766101c08201527f2d33682d34762d34682d33762d33682d33762d33682d34762d34682d33762d366101e08201527f682d33762d37682d3476313768347633683376336833203476346833763368336102008201527f76336834763468337633683376336834763468337633683376336834762d36686102208201527f2d347a222f3e3c2f673e3c6720636c6173733d226232223e3c7061746820643d6102408201527f224d32353020333130762d33682d33762d34682d34762d33682d33762d33682d6102608201527f33762d34682d34762d33682d33762d33682d33762d34682d37762d33682d33766102808201527f2d33682d34762d3137682d33762d33682d33762d34682d34762d33682d33762d6102a08201527f33682d33762d37682d34762d3230682d33762d37682d33762d37332d332d37686102c08201527f2d34762d33682d33762d3130682d33762d3130682d34563730682d33762d336c6102e08201527f2d332031303020332d313030763430682d33763130682d347636682d337631346103008201527f682d337633203133682d347634346834763136683376313468337631336834766103208201527f31306833763768337633683476336833763468337633683476336833763468336103408201527f76336834763368337637683776376836763368377633683776346831337633686103608201527f337633683130762d33682d337a6d2d3130332d3837762d31366833762d3130686103808201527f2d337636682d34763137682d337631306833762d3768347a222f3e3c706174686103a08201527f20643d224d3134332032333068347637682d347a6d3420313068337633682d336103c08201527f7a6d33203768337633682d337a6d33203668347634682d347a222f3e3c7061746103e08201527f6820643d224d31363320323537682d36763368337633683376346834762d342d6104008201527f33682d34762d337a222f3e3c2f673e3c6720636c6173733d226233223e3c70616104208201527f746820643d224d3134332031393776366834762d366836762d34346834762d316104408201527f366833762d31346833762d366834762d31306833563937682d377636682d33766104608201527f34682d337633682d347633682d3376342033682d3376332034682d34763130686104808201527f2d337631362034682d337634366833762d3668337a222f3e3c7061746820643d6104a08201527f224d313430203230336833763137682d337a222f3e3c7061746820643d224d316104c08201527f3337203232306833763130682d337a222f3e3c7061746820643d224d313533206104e08201527f323530682d33762d37682d33762d36682d34762d37682d3376313068337637686105008201527f347636683376346833762d377a6d2d3320313068337637682d337a222f3e3c706105208201527f61746820643d224d3134372032353768337633682d337a6d36203068347633686105408201527f2d347a222f3e3c7061746820643d224d31363020323633762d33682d337633206105608201527f376836762d37682d337a6d2d31302d3536763136682d337637683376313068336105808201527f763768347636683676346837762d342d33682d33762d3130682d34762d3133686105a08201527f2d33762d3134682d33762d3136682d34763130682d337a222f3e3c70617468206105c08201527f643d224d32343320333133762d33682d33762d33682d31302d33762d34682d376105e08201527f762d33682d37762d33682d36762d37682d37762d37682d33762d33682d34762d6106008201527f33682d33762d34682d33762d33682d34762d33682d33762d34682d33762d33686106208201527f2d34762d33682d33763130682d337633682d347633682d3376376833763768346106408201527f76366833763568347633683676336833763368342033763368332034763368336106608201527f20337634683130763368372037203376336831302033762d33683130762d33686106808201527f34762d34682d31347a222f3e3c2f673e3c6720636c6173733d226234223e3c706106a08201527f61746820643d224d3138332031333068347637682d347a222f3e3c70617468206106c08201527f643d224d3138302031323768337633682d337a6d2d32372d3468347637682d346106e08201527f7a222f3e3c7061746820643d224d3135372031313768337636682d337a222f3e6107008201527f3c7061746820643d224d3136302031313068337637682d337a222f3e3c7061746107208201527f6820643d224d3136332031303768347633682d347a6d2d3320383368337637686107408201527f2d337a222f3e3c7061746820643d224d3136332031383768347633682d347a6d6107608201527f3230203068377633682d377a222f3e3c7061746820643d224d313830203139306107808201527f68337633682d337a6d31302d3768337634682d337a222f3e3c7061746820643d6107a08201527f224d3139332031383768347636682d347a6d2d323020353368347637682d347a6107c08201527f222f3e3c7061746820643d224d3137372032343768337636682d337a222f3e3c6107e08201527f7061746820643d224d3138302032353368337637682d337a222f3e3c706174686108008201527f20643d224d3138332032363068377633682d377a222f3e3c7061746820643d226108208201527f4d3139302032363368337634682d337a6d302d323068337634682d337a222f3e6108408201527f3c7061746820643d224d3138372032343068337633682d337a222f3e3c7061746108608201527f6820643d224d3139302032333768337633682d337a6d313320323368347633686108808201527f2d347a222f3e3c7061746820643d224d3230372032363368337637682d337a226108a08201527f2f3e3c7061746820643d224d3231302032373068337633682d337a6d2d3130206108c08201527f3768337636682d337a222f3e3c7061746820643d224d323033203238336834766108e08201527f37682d347a222f3e3c7061746820643d224d3230372032393068367633682d366109008201527f7a222f3e3c2f673e3c6720636c6173733d226f223e3c7061746820643d224d316109208201527f3333203135376834763530682d347a6d302036336834763130682d347a6d32376109408201527f2d3136336833763130682d337a222f3e3c7061746820643d224d3136332035336109608201527f68347634682d347a222f3e3c7061746820643d224d31363720353068313076336109808201527f682d31307a222f3e3c7061746820643d224d3137372035336833763137682d336109a08201527f7a222f3e3c7061746820643d224d3137332037306834763237682d347a6d2d366109c08201527f20306833763237682d337a222f3e3c7061746820643d224d31363320363768346109e08201527f7633682d347a6d3020333068347633682d347a222f3e3c7061746820643d224d610a008201527f3136302031303068337633682d337a222f3e3c7061746820643d224d31353720610a208201527f31303368337634682d337a222f3e3c7061746820643d224d3135332031303768610a408201527f347633682d347a222f3e3c7061746820643d224d313530203131306833763368610a608201527f2d337a222f3e3c7061746820643d224d3134372031313368337637682d337a22610a808201527f2f3e3c7061746820643d224d3134332031323068347637682d347a222f3e3c70610aa08201527f61746820643d224d313430203132376833763130682d337a222f3e3c70617468610ac08201527f20643d224d313337203133376833763230682d337a6d35362d31306834763130610ae08201527f682d347a222f3e3c7061746820643d224d313930203131376833763130682d33610b008201527f7a222f3e3c7061746820643d224d3138372031313068337637682d337a222f3e610b208201527f3c7061746820643d224d3138332031303368347637682d347a222f3e3c706174610b408201527f6820643d224d3138302031303068337633682d337a222f3e3c7061746820643d610b608201527f224d31373720393768337633682d337a6d2d3430203130366833763137682d33610b808201527f7a6d302032376833763130682d337a6d313020333068337637682d337a222f3e610ba08201527f3c7061746820643d224d31353020323537762d34682d33762d36682d34762d37610bc08201527f682d3376313068337631306834762d3368337a222f3e3c7061746820643d224d610be08201527f3135302032353768337633682d337a222f3e3c7061746820643d224d31363320610c008201527f323733762d33682d36762d3130682d347637682d337633683376336834763768610c208201527f33762d3768337a222f3e3c7061746820643d224d313633203236376834763368610c408201527f2d347a222f3e3c7061746820643d224d31373020323537682d332d3476336834610c608201527f76376833762d31307a222f3e3c7061746820643d224d31353720323533683676610c808201527f34682d367a222f3e3c7061746820643d224d3135332032343768347636682d34610ca08201527f7a222f3e3c7061746820643d224d3135302032343068337637682d337a222f3e610cc08201527f3c7061746820643d224d313437203233306833763130682d337a6d3133203530610ce08201527f68337637682d337a222f3e3c7061746820643d224d3134332032323368347637610d008201527f682d347a222f3e3c7061746820643d224d313437203230376833763136682d33610d208201527f7a222f3e3c7061746820643d224d313530203139376833763130682d337a6d2d610d408201527f3130203068337636682d337a6d35302031313368377633682d377a6d32332031610d608201527f306831377633682d31377a222f3e3c7061746820643d224d3233302033323368610d808201527f31337634682d31337a222f3e3c7061746820643d224d32343320333230683130610da08201527f7633682d31307a222f3e3c7061746820643d224d323533203331376834763368610dc08201527f2d347a222f3e3c7061746820643d224d323537203330376833763130682d337a610de08201527f222f3e3c7061746820643d224d3235332033303368347634682d347a222f3e3c610e008201527f7061746820643d224d3235302033303068337633682d337a222f3e3c70617468610e208201527f20643d224d3234372032393768337633682d337a222f3e3c7061746820643d22610e408201527f4d3234332032393368347634682d347a222f3e3c7061746820643d224d323430610e608201527f2032393068337633682d337a222f3e3c7061746820643d224d32333720323837610e808201527f68337633682d337a222f3e3c7061746820643d224d3233332032383368347634610ea08201527f682d347a222f3e3c7061746820643d224d3233302032383068337633682d337a610ec08201527f222f3e3c7061746820643d224d3232372032373768337633682d337a222f3e3c610ee08201527f7061746820643d224d3232332032373368347634682d347a222f3e3c70617468610f008201527f20643d224d3232302032363768337636682d337a222f3e3c7061746820643d22610f208201527f4d3231372032363068337637682d337a222f3e3c7061746820643d224d323133610f408201527f2032353368347637682d347a222f3e3c7061746820643d224d32313020323437610f608201527f68337636682d337a222f3e3c7061746820643d224d3230372032333768337631610f808201527f30682d337a222f3e3c7061746820643d224d323033203232376834763130682d610fa08201527f347a6d2d343020363068347636682d347a6d323420323068337633682d337a22610fc08201527f2f3e3c7061746820643d224d3136372032393368337635682d337a6d31362031610fe08201527f3468347633682d347a222f3e3c7061746820643d224d313730203239386834766110008201527f33682d347a6d3130203668337633682d337a222f3e3c7061746820643d224d316110208201527f37342033303168367633682d367a6d323320313268367634682d367a222f3e3c6110408201527f7061746820643d224d323033203331376831307633682d31307a6d2d322d31306110608201527f37762d3733682d3476373368337631376833762d3137682d327a222f3e3c2f676110808201527f3e3c6720636c6173733d226f223e3c7061746820643d224d31383720333037766110a08201527f2d346833762d36682d33762d34682d34762d33682d33762d33682d37762d34686110c08201527f2d367634682d3476336834763237682d34763133682d33763130682d347637686110e08201527f3476336833203130203134762d33682d34762d34682d33762d33682d33762d336111008201527f682d34762d376834762d31306833762d376833762d336837762d33682d337a6d6111208201527f3136203130762d34682d36763137682d34763130682d337637683376336834206111408201527f3620342033203134762d33682d34762d34682d37762d33682d33762d33682d336111608201520152565b906102a5609a60405180947f3c7374796c653e2e6f7b66696c6c3a233830383038303b7d2e62327b66696c6c60208301527f3a6e6f6e653b7d2e62337b66696c6c3a6e6f6e653b7d2e62347b66696c6c3a6e60408301527f6f6e653b7d2e61317b66696c6c3a6e6f6e653b7d2e61327b66696c6c3a6e6f6e60608301527f653b7d2e61337b66696c6c3a6e6f6e653b7d3c2f7374796c653e000000000000608083015261489a81518092602086860191016103cf565b810103607a810185520183610245565b906102a560ba60405180947f3c7376672077696474683d2234303022206865696768743d223430302220766960208301527f6577426f783d223020302034303020343030222066696c6c3d226e6f6e65222060408301527f786d6c6e733d22687474703a2f2f7777772e77332e6f72672f323030302f737660608301527f67223e3c7374796c653e2e6f7b66696c6c3a233035303530353b7d2e777b666960808301527336361d11b31cb31cb31c9dbe9e17b9ba3cb6329f60611b60a083015261497e81518092602060b4860191016103cf565b8101651e17b9bb339f60d11b60b482015203609a810185520183610245565b90610428906149cb604051602092609160f51b848301526022820152602281526149c6816101f3565b61536d565b9260405193816149e486935180928680870191016103cf565b82016149f8825180938680850191016103cf565b01038084520182610245565b604051614a108161019b565b60008152906000368137565b90614a26826107a4565b614a336040519182610245565b8281528092614a44601f19916107a4565b0190602036910137565b806000917a184f03e93ff9f4daa797ed6e38ed64bf6a1f01000000000000000080821015614b84575b506d04ee2d6d415b85acef810000000080831015614b75575b50662386f26fc1000080831015614b66575b506305f5e10080831015614b57575b5061271080831015614b48575b506064821015614b38575b600a80921015614b2e575b600190816021614ae660018701614a1c565b95860101905b614af8575b5050505090565b600019019083906f181899199a1a9b1b9c1cb0b131b232b360811b8282061a835304918215614b2957919082614aec565b614af1565b9160010191614ad4565b9190606460029104910191614ac9565b60049193920491019138614abe565b60089193920491019138614ab1565b60109193920491019138614aa2565b60209193920491019138614a90565b604093508104915038614a77565b60405190614b9f826101f3565b604082527f6768696a6b6c6d6e6f707172737475767778797a303132333435363738392b2f6040837f4142434445464748494a4b4c4d4e4f505152535455565758595a61626364656660208201520152565b906002820180921161157057565b906020820180921161157057565b906001820180921161157057565b9190820180921161157057565b805115614d0857614c37614b92565b614c53614c4e614c478451614bf1565b6003900490565b6129cf565b91614c65614c6084614bff565b614a1c565b92835280815182019060208501935b828210614cb657505050600390510680600114614ca557600214614c96575090565b603d60f81b6000199091015290565b50613d3d60f01b6001199091015290565b9091936004906003809401938451600190603f9082828260121c16880101518553828282600c1c16880101518386015382828260061c1688010151600286015316850101519082015301939190614c74565b50610428611a72565b614d1a906156de565b92614d29969596929192613283565b9460405197889760208901703c7374796c653e2e62317b66696c6c3a2360781b90528051908160318b019160200191614d61926103cf565b8801603181016b3b7d2e62327b66696c6c3a2360a01b905281519182603d83019160200191614d8f926103cf565b01603d81016b3b7d2e62337b66696c6c3a2360a01b905281519182604983019160200191614dbc926103cf565b0160498101614dd9906b3b7d2e62347b66696c6c3a2360a01b9052565b605501614de5916115c0565b6b3b7d2e61317b66696c6c3a2360a01b8152600c01614e03916115c0565b6b3b7d2e61327b66696c6c3a2360a01b8152600c01614e21916115c0565b6b3b7d2e61337b66696c6c3a2360a01b8152600c01614e3f916115c0565b691dbe9e17b9ba3cb6329f60b11b8152600a01614e5b916115c0565b03601f19810182526104289082610245565b60405190614e7a8261020e565b61019c82527f6820643d224d3139332031373068347633682d347a222f3e3c2f673e000000006101a0837f3c6720636c6173733d226f223e3c7061746820643d224d31393020313733682d60208201527f3337762d33682d3130762d34682d36763468337633682d33763468367633683160408201527f307634683337762d346833762d33682d33762d347a6d2d34302034682d33762d60608201527f34683376347a6d372033762d3368337633682d337a6d362030762d336834763360808201527f682d347a6d372030762d3368337633682d337a6d372030762d3368337633682d60a08201527f337a6d31302030682d34762d33683476337a222f3e3c7061746820643d224d3160c08201527f39302031373068337633682d337a222f3e3c7061746820643d224d313933203160e08201527f363668347634682d347a6d30203768347634682d347a222f3e3c2f673e3c67206101008201527f636c6173733d2277223e3c7061746820643d224d3133372031373068337633686101208201527f2d337a6d3130203368337634682d337a6d3130203468337633682d337a6d36206101408201527f3068347633682d347a6d37203068337633682d337a6d37203068337633682d336101608201527f7a6d36203068347633682d347a6d372d3468337634682d337a222f3e3c7061746101808201520152565b6040519060c082018281106001600160401b038211176101b65760405260818252601f60f91b60a0837f3c6720636c6173733d226f223e3c7061746820643d224d31383320313630762d60208201527f34682d32307634682d33763368337634683234762d37682d347a6d2d3133203360408201527f762d336831307633682d31307a222066696c6c3d2223616437316338222f3e3c60608201527f7061746820643d224d313730203136306831307633682d31307a222f3e3c2f6760808201520152565b81516060939260009283926003928491848110156153005761515b81614c0d565b955b86811061516e575050505050505050565b818110156152f4576151808184611537565b516040805163507f146560e01b8152919591600491906001600160a01b036020808386818e86165afa918215610d48576151fe956000958c958e9488966152d5575b50505163c44a8e6d60e01b81526001600160a01b0390931690830190815260208101949094526000604085015290948593849291839160600190565b0392165afa8015610d4857610100916000916152bc575b500151985b89880361528d57506001985b60069080820361525e575050506001935b80615246575b5060010161515d565b6001919a6125bb6152579288613188565b999061523d565b9591951180615285575b156152375793509861527c906125bb615075565b98600193615237565b508415615268565b98878111806152b4575b15615226579850996152ab906125bb614e6d565b99600198615226565b508915615297565b6152cf913d8091833e610d3a8183610245565b38615215565b6152ec929650803d10610d7757610d688183610245565b9338806151c2565b6007979360009461521a565b809561515d565b604051906105e082018281106001600160401b038211176101b657604052602e82526105c0366020840137565b9061533e8261058e565b61534b6040519182610245565b8281528092614a44601f199161058e565b908151811015611525570160200190565b908151156154945761537d615307565b91600090600061538c8561152a565b526001918151916000925b8084106153bd57505050506153b36153b8916104289394615863565b6158a6565b6158ed565b909192946153ee6153e86153e26153d4898761535c565b516001600160f81b03191690565b60f81c90565b60ff1690565b9184925b60ff908982891686101561545357600192916154276154216153e861541a8a61542d96611537565b5160ff1690565b60081b90565b90614c1b565b61544a8b61544288603a958686061692611537565b9060ff169052565b049301926153f2565b50919594935050809691965b61546d575060010192615397565b9460ff6001603a9261548a83858b06166154428d86851690611537565b011695048061545f565b9050610428614a04565b604051906154ab8261022a565b600682526506666653930360d41b6020830152565b604051906154cd8261022a565b600682526506666633730360d41b6020830152565b604051906154ef8261022a565b600682526566336136303360d01b6020830152565b604051906155118261022a565b600682526539363561316160d01b6020830152565b604051906155338261022a565b600682526533331bb1981960d11b6020830152565b604051906155558261022a565b600682526506664333630360d41b6020830152565b604051906155778261022a565b600682526518cccc994c1960d21b6020830152565b604051906155998261022a565b600682526566666438633560d01b6020830152565b604051906155bb8261022a565b600682526566663936613960d01b6020830152565b604051906155dd8261022a565b600682526533329a9c1c3160d11b6020830152565b604051906155ff8261022a565b600682526563393266343560d01b6020830152565b604051906156218261022a565b600682526536376437353760d01b6020830152565b604051906156438261022a565b600682526503330613232360d41b6020830152565b604051906156658261022a565b600682526532313761313560d01b6020830152565b604051906156878261022a565b60048252636e6f6e6560e01b6020830152565b604051906156a78261022a565b6006825265329a1c19b2b360d11b6020830152565b604051906156c98261022a565b60068252653231993332b360d11b6020830152565b6001810361572557506156ef615614565b906156f8615636565b90615701615658565b9061570a61567a565b9061571361569a565b9061571c6156bc565b906104286156bc565b6002810361576c575061573661558c565b9061573f6155ae565b906157486155d0565b906157516155f2565b9061575a61558c565b906157636155ae565b906104286155d0565b600381036157b3575061577d6154e2565b90615786615526565b9061578f615548565b9061579861556a565b906157a16154e2565b906157aa615526565b90610428615548565b6004146157cc57604051630992899d60e31b8152600490fd5b6157d461549e565b906157dd6154c0565b906157e66154e2565b906157ef615504565b906157f861549e565b906158016154c0565b906104286154e2565b337f00000000000000000000000000000000000000000000000000000000000000006001600160a01b03161480615858575b15615854576013193601368111611570573560601c90565b3390565b50601436101561583c565b9060ff8091169061587382615334565b9260005b838110615885575050505090565b808361589360019385611537565b511661589f8288611537565b5201615877565b9081516158b281615334565b9060005b8181106158c4575090925050565b60019060ff6158da600019838951030188611537565b51166158e68286611537565b52016158b6565b80516158f8816107a4565b916040906159096040519485610245565b828452615915836107a4565b602090601f1901368683013760009260005b8581106159375750505050505090565b6001908251615945816101f3565b603a81527f31323334353637383941424344454647484a4b4c4d4e50515253545556575859858201527f5a6162636465666768696a6b6d6e6f707172737475767778797a000000000000848201526001600160f81b0319906159b59060ff6159ad858a611537565b51169061535c565b5116861a6159c3828a61535c565b530161592756fea26469706673582212209ca312d7bf35d6bc3aa62cf14a443bf6ed845154244fe549090eb69a9cf84d0964736f6c63430008170033",
	"deployedBytecode": "0x6080604052600436101561001257600080fd5b60003560e01c806257bfdd146101465780631e4578de1461014157806331a290ac1461013c5780634d03376e14610137578063572b6c05146101325780635e703e711461012d5780636aff31dd14610128578063715018a6146101235780637508ac831461011e5780637da0a87714610119578063875e4bea146101145780638da5cb5b1461010f578063a22d0dd51461010a578063aeac5e3514610105578063b03a3eab14610100578063c06e7bc7146100fb578063f2fde38b146100f6578063f92df2e3146100f15763f9fed041146100ec57600080fd5b6114de565b6114b9565b61142d565b610e21565b610d7e565b610c5a565b610c15565b610be2565b610a51565b610a0c565b6109e6565b610988565b61095c565b610930565b6108d8565b6107f6565b610635565b6104a6565b61042b565b90600182811c9216801561017b575b602083101461016557565b634e487b7160e01b600052602260045260246000fd5b91607f169161015a565b634e487b7160e01b600052604160045260246000fd5b602081019081106001600160401b038211176101b657604052565b610185565b61026081019081106001600160401b038211176101b657604052565b6111a081019081106001600160401b038211176101b657604052565b606081019081106001600160401b038211176101b657604052565b6101c081019081106001600160401b038211176101b657604052565b604081019081106001600160401b038211176101b657604052565b90601f801991011681019081106001600160401b038211176101b657604052565b604051906000826002549161027a8361014b565b8083529260209060019081811690811561030857506001146102a7575b50506102a592500383610245565b565b91509260026000527f405787fa12a823e0f2b7631cc41b3ba8828b3321ca811111fa75cd3aa3bb5ace936000925b8284106102f057506102a59450505081016020013880610297565b855488850183015294850194879450928101926102d5565b915050602092506102a594915060ff191682840152151560051b8201013880610297565b9060405191826000825461033f8161014b565b908184526020946001916001811690816000146103ad575060011461036e575b5050506102a592500383610245565b600090815285812095935091905b8183106103955750506102a5935082010138808061035f565b8554888401850152948501948794509183019161037c565b925050506102a594925060ff191682840152151560051b82010138808061035f565b60005b8381106103e25750506000910152565b81810151838201526020016103d2565b9060209161040b815180928185528580860191016103cf565b601f01601f1916010190565b9060206104289281815201906103f2565b90565b3461045f57600036600319011261045f5761045b610447610266565b6040519182916020835260208301906103f2565b0390f35b600080fd5b604081019181526060602091604060208201528151809452019160809160005b828110610492575050505090565b835185529381019392810192600101610484565b3461045f5760208060031936011261045f57600435906000918083526005602052604083209060405180938491602085549182815201948752602087209187905b828210610554575050505061050190610511930384610245565b6000526006602052604060002090565b5491815191815b83811061052d576040518061045b8782610464565b8061053a60019284611537565b5161054d61054786611561565b95611512565b5201610518565b8354875295860195879450600193840193909101906104e7565b604051906101a082018281106001600160401b038211176101b657604052565b6001600160401b0381116101b65760051b60200190565b9080601f8301121561045f5760209082356105bf8161058e565b936105cd6040519586610245565b81855260208086019260051b82010192831161045f57602001905b8282106105f6575050505090565b813581529083019083016105e8565b9181601f8401121561045f578235916001600160401b03831161045f576020808501948460051b01011161045f57565b3461045f5760408060031936011261045f576004906001600160401b03823581811161045f5761066890369085016105a5565b9060243590811161045f576106809036908501610605565b92909180519360005b85811061069257005b61069c8184611537565b516106b26106ab838589611575565b36916107bf565b6106ce6106c9836000526004602052604060002090565b6115b6565b610794576106e6826000526001602052604060002090565b54801561078457865160208101906107108161070284876115c0565b03601f198101835282610245565b5190200361077457907faeb631726b45aa3f6b09da79f7af03a9784614901f61a967ed84d63c37b7edc761076b8361075e60019695610759866000526004602052604060002090565b611689565b885191829133908361175e565b0390a201610689565b85516375b5da0b60e01b81528990fd5b8651637ef41a4f60e01b81528a90fd5b8551630388067760e21b81528990fd5b6001600160401b0381116101b657601f01601f191660200190565b9291926107cb826107a4565b916107d96040519384610245565b82948184528183011161045f578281602093846000960137010152565b3461045f57604036600319011261045f576001600160401b0360043581811161045f576108279036906004016105a5565b60249060243583811161045f573660238201121561045f5780600401359261084e8461058e565b9361085c6040519586610245565b8085526020956024602087019260051b8501019336851161045f5760248101925b8584106108905761088e8888611786565b005b833583811161045f5782013660438201121561045f5789916108bc8392369060448a82013591016107bf565b81520193019261087d565b6001600160a01b0381160361045f57565b3461045f57602036600319011261045f5760206004356108f7816108c7565b6040517f000000000000000000000000b2b5841dbef766d4b521221732f9b618fcf34a876001600160a01b039081169216919091148152f35b3461045f57604036600319011261045f5761045b610447600435610953816108c7565b60243590611b9c565b3461045f57602036600319011261045f5760043560005260016020526020604060002054604051908152f35b3461045f576000806003193601126109e3576109a26130dc565b80546001600160a01b03198116825581906001600160a01b03167f8be0079c531659141344cd1fd0a4f28419497f9722a3daafe3b4186f6b6457e08280a380f35b80fd5b3461045f57602036600319011261045f576020610a04600435611f34565b604051908152f35b3461045f57600036600319011261045f576040517f000000000000000000000000b2b5841dbef766d4b521221732f9b618fcf34a876001600160a01b03168152602090f35b3461045f5760208060031936011261045f576004356001600160401b0380821161045f573660238301121561045f57816004013590811161045f57602492366024838501011161045f57610aa36130dc565b610ab782610ab260025461014b565b6115ee565b600093601f8311600114610b35575050610b0a81807f512c3c91736f50c57a0548c1d01ab02f24c420f002b8b20e2bfe63df9693cd3f95600091610b27575b508160011b916000199060031b1c19161790565b6002555b610b22604051928392602433920184611fe2565b0390a1005b602491508501013538610af6565b6002600052601f19831694907f405787fa12a823e0f2b7631cc41b3ba8828b3321ca811111fa75cd3aa3bb5ace9282915b878310610bc657505050827f512c3c91736f50c57a0548c1d01ab02f24c420f002b8b20e2bfe63df9693cd3f9510610ba9575b5050600181811b01600255610b0e565b830160240135600019600384901b60f8161c191690553880610b99565b908060018596848396978b010135815501950193019190610b66565b3461045f57600036600319011261045f576000546040516001600160a01b039091168152602090f35b8015150361045f57565b3461045f57608036600319011261045f5761045b610447600435610c38816108c7565b604435610c4481610c0b565b60643591610c5183610c0b565b602435906126c7565b3461045f57604036600319011261045f57600435610c77816108c7565b60405163507f146560e01b815260243591906001600160a01b03906020816004818587165afa8015610d4857610cee9360009386938593610d4d575b5060405163c44a8e6d60e01b81526001600160a01b039092166004830152602482019390935260006044820152938492839182906064820190565b0392165afa918215610d485761045b92610d1992600091610d25575b50610100815191015191612ed3565b60405191829182610417565b610d4291503d806000833e610d3a8183610245565b81019061198f565b38610d0a565b61192b565b610d7091935060203d602011610d77575b610d688183610245565b810190611916565b9138610cb3565b503d610d5e565b3461045f57604036600319011261045f576001600160401b0360043581811161045f57610daf9036906004016105a5565b9060243590811161045f573660238201121561045f578060040135610dd38161058e565b91610de16040519384610245565b8183526020916024602085019160051b8301019136831161045f57602401905b828210610e125761088e85876128ab565b81358152908301908301610e01565b3461045f57608036600319011261045f5760048035610e3f816108c7565b60243590604435926064356001600160401b03811161045f57610e659036908301610605565b94909160018060a01b0380851694604092610e9d8451926331a9108f60e11b938481528a818060209586938883019190602083019252565b03818d5afa908115610d4857600091611410575b5085610eca610ebe61580a565b6001600160a01b031690565b911603611400578a87156113d857508551848152828180610ef28b8883019190602083019252565b03818d5afa908115610d48576000916113bb575b5085610f13610ebe61580a565b9116036113ab57610f238761309b565b61139b57855163507f146560e01b8152828185818d5afa8015610d4857610f8a6000918893839161137e575b50895163c44a8e6d60e01b81526001600160a01b038616888201908152602081018d9052600060408201529094859384928391606090910190565b0392165afa908115610d4857600091611363575b50511561135357908a93929187610fbf8c6000526006602052604060002090565b558a610fd5896000526007602052604060002090565b55909a5093909192935b600091610fea61294e565b5060009b60009260005b88811061105b578d8d7f6a68946ba06488db8585d7c7637fa954b574035fe15720ea760125ef860172588e8e6110568f8f611043818661103e8b6000526005602052604060002090565b6129e7565b61104b61580a565b915194859485612a60565b0390a3005b889e61108e848f8f908b8f928e9f8890611074926129bf565b359e8f935195869485938493845283019190602083019252565b03915afa908115610d4857600091611336575b50856110ae610ebe61580a565b911603611326576110be8a611f34565b6113165787848f8d519283809263507f146560e01b82525afa8015610d48578b600091868f8d8b9161112c9787956112f7575b505163c44a8e6d60e01b81526001600160a01b0390931690830190815260208101949094526000604085015290948593849291839160600190565b0392165afa908115610d48576000916112de575b508051156112ce5761010001968751600281109081156112c3575b506112b35782151590816112a7575b5061129757908f98979695949392918f9087518981146000146111b8575050906001916111a583985b519c6000526008602052604060002090565b550190919293949e509794959697610ff4565b600891999a9b50809250969293949596146000146111e85750509060018f989796959493928f6111a58397611193565b979f9d9b9998979a9e9c9a60058197929714801561128d575b8015611283575b8061127c575b1561122357508f8f51631e550b6f60e11b8152fd5b9d9f9798999b9d9c9e9a9c600a8114908115611271575b508061126a575b61125a578f98979695949392918f6111a5600193611193565b8a51635e701b2b60e01b81528890fd5b5085611241565b60099150143861123a565b508761120e565b50600b8114611208565b5060068114611201565b8a51637dc0e82560e11b81528890fd5b9050875111153861116a565b8b5163c89badbd60e01b81528990fd5b600d9150113861115b565b8b516354c0901d60e11b81528990fd5b6112f1913d8091833e610d3a8183610245565b38611140565b61130f9195508c8d3d10610d7757610d688183610245565b93386110f1565b8a5163670bdddd60e11b81528890fd5b8a5163812a698960e01b81528890fd5b61134d9150853d8711610d7757610d688183610245565b386110a1565b855163265ba87960e01b81528390fd5b61137891503d806000833e610d3a8183610245565b38610f9e565b6113959150863d8811610d7757610d688183610245565b38610f4f565b855163670bdddd60e11b81528390fd5b8551639d17cec760e01b81528390fd5b6113d29150833d8511610d7757610d688183610245565b38610f06565b9392919060006113f28c6000526006602052604060002090565b55909a509390919293610fdf565b8551632add3f4b60e01b81528390fd5b6114279150833d8511610d7757610d688183610245565b38610eb1565b3461045f57602036600319011261045f5760043561144a816108c7565b6114526130dc565b6001600160a01b0390811680156114a057600080546001600160a01b03198116831782559092167f8be0079c531659141344cd1fd0a4f28419497f9722a3daafe3b4186f6b6457e08380a380f35b604051631e4fbdf760e01b815260006004820152602490fd5b3461045f57606036600319011261045f5761045b610447604435602435600435612ed3565b3461045f57602036600319011261045f576020610a0460043561309b565b634e487b7160e01b600052603260045260246000fd5b6060518110156115255760051b60800190565b6114fc565b8051156115255760200190565b80518210156115255760209160051b010190565b634e487b7160e01b600052601160045260246000fd5b60001981146115705760010190565b61154b565b91908110156115255760051b81013590601e198136030182121561045f5701908135916001600160401b03831161045f57602001823603811361045f579190565b610428905461014b565b906115d3602092828151948592016103cf565b0190565b8181106115e2575050565b600081556001016115d7565b90601f82116115fb575050565b6102a59160026000527f405787fa12a823e0f2b7631cc41b3ba8828b3321ca811111fa75cd3aa3bb5ace906020601f840160051c83019310611645575b601f0160051c01906115d7565b9091508190611638565b9190601f811161165e57505050565b6102a5926000526020600020906020601f840160051c8301931061164557601f0160051c01906115d7565b91909182516001600160401b0381116101b6576116b0816116aa845461014b565b8461164f565b602080601f83116001146116f3575081906116e49394956000926116e8575b50508160011b916000199060031b1c19161790565b9055565b0151905038806116cf565b90601f1983169561170985600052602060002090565b926000905b8882106117465750508360019596971061172d575b505050811b019055565b015160001960f88460031b161c19169055388080611723565b8060018596829496860151815501950193019061170e565b906117766020919493946040845260408401906103f2565b6001600160a01b03909416910152565b91906117906130dc565b82516000935b8185106117a4575050509050565b6117ae8582611537565b51946117ba8185611537565b51958060005260039660209780895260409081600020908351906001600160401b0382116101b6576117f6826117f0855461014b565b8561164f565b8b601f8311600114611879575050917fa67f37d9972d5f886682fb18abfea16db5777cc4d12c43e59dfee7e48663cb389391611852846118619560019a9b9c9d9e60009161186e57508160011b916000199060031b1c19161790565b90555b5191829133908361175e565b0390a20193929190611796565b905085015138610af6565b909b601f19831661188f85600052602060002090565b926000905b8282106118fe575050916001999a9b9c9d849261186197957fa67f37d9972d5f886682fb18abfea16db5777cc4d12c43e59dfee7e48663cb38999795106118e4575b505050881b88019055611855565b8601519060f884600019921b161c191690553880806118d6565b80600185968294968c01518155019501930190611894565b9081602091031261045f5751610428816108c7565b6040513d6000823e3d90fd5b51906102a5826108c7565b51906102a582610c0b565b81601f8201121561045f578051611963816107a4565b926119716040519485610245565b8184526020828401011161045f5761042891602080850191016103cf565b60208183031261045f5780516001600160401b039182821161045f57016101a08184031261045f576119bf61056e565b92815184526020820151602085015260408201516040850152606082015160608501526080820151608085015260a082015160a0850152611a0260c08301611937565b60c085015260e082015160e08501526101008083015190850152610120611a2a818401611942565b90850152610140611a3c818401611942565b90850152610160611a4e818401611942565b90850152610180928383015190811161045f57611a6b920161194d565b9082015290565b60405190611a7f8261019b565b60008252565b90604051918260605160005b818110611ac657509060206102a593611aba8294840191838301600081528151948592016103cf565b01038085520183610245565b6020919250806080015182828801015201908491611a91565b60206102a5919392936040519481611b0087935180928680870191016103cf565b8201611aba825180938680850191016103cf565b9060208282031261045f5781516001600160401b03811161045f57610428920161194d565b9081602091031261045f575190565b906102a5603d60405180947f646174613a6170706c69636174696f6e2f6a736f6e3b6261736536342c0000006020830152611b8c81518092602086860191016103cf565b810103601d810185520183610245565b6040805163507f146560e01b808252602094929392906001600160a01b03908185168785600481845afa948515610d4857600095611f15575b50865163c44a8e6d60e01b81526001600160a01b03871660048201526024810185905260006044820181905290958690606490829087165afa948515610d4857600095611efa575b50845115611eea576101008501805190939015611ee057611c3f865188613188565b968751611ea9575b875115611d7d575050505094611d6c611d5e611d7896611cdb611cf7611cdb98611cdb611ce18a611cbd6104289f611c8e611ca49d611cb89f92611c959351905191612ed3565b9251614a4e565b9488519c8d918d8301906115c0565b039b611cb8601f199d8e8101835282610245565b614c28565b9651683d913730b6b2911d1160b91b9a81019a8b529c8d9a60090190565b906115c0565b691116101134b2111d101160b11b8152600a0190565b7f222c226465736372697074696f6e223a2241207069656365206f66207468652081527f42616e6e797665727365222c22696d616765223a22646174613a696d6167652f60208201526e1cdd99cade1b5b0ed8985cd94d8d0b608a1b6040820152604f0190565b61227d60f01b815260020190565b03908101835282610245565b611b48565b92965092600d9195505111600014611e9a578551636c0360eb60e01b8152600081600481885afa8015610d48578891600091611e77575b50955b600488518097819382525afa918215610d4857611e0a968895600094611e58575b5051630c8df17160e41b81526001600160a01b0390921660048301526024820193909352948592839182906044820190565b0392165afa918215610d485761042893600093611e29575b505061499d565b611e49929350803d10611e51575b611e418183610245565b810190611b39565b903880611e22565b503d611e37565b611e70919450863d8811610d7757610d688183610245565b9238611dd8565b611e9491503d806000833e611e8c8183610245565b810190611b14565b38611db4565b86611ea3610266565b95611db7565b96611ebc906001865103611ec2576148aa565b96611c47565b611edb90611ed6611ed1613283565b6147e4565b611adf565b6148aa565b611ebc85886124c5565b5050505050505050610428611a72565b611f0e91953d8091833e610d3a8183610245565b9338611c1d565b611f2d919550883d8a11610d7757610d688183610245565b9338611bd5565b60009080825260209060086020526040832054908115611fdc578184526005602052604084209260405180948591602082549182815201918852602088209388905b828210611fc257505050611f8c92500384610245565b825192845b848110611fa057505050505090565b82611fab8284611537565b5114611fb957600101611f91565b50505091505090565b855484526001958601958995509381019390910190611f76565b50505090565b918060609160209396959660408652816040870152838601376000828286010152601f80199101168301019360018060a01b0316910152565b919060408382031261045f5782519260209081810151906001600160401b03821161045f57019180601f8401121561045f5782516120588161058e565b936120666040519586610245565b818552838086019260051b82010192831161045f578301905b82821061208d575050505090565b8151815290830190830161207f565b3d156120c7573d906120ad826107a4565b916120bb6040519384610245565b82523d6000602084013e565b606090565b6040519061010082018281106001600160401b038211176101b65760405260dd82527f746820643d224d3138302031343768337633682d337a222f3e3c2f673e00000060e0837f3c6720636c6173733d226f223e3c7061746820643d224d31373720313430763360208201527f6836763131683130762d31316834762d33682d32307a222f3e3c70617468206460408201527f3d224d31353320313430763368377638203368372033762d31316833762d336860608201527f2d32307a222f3e3c2f673e3c6720636c6173733d2277223e3c7061746820643d60808201527f224d3135332031343368377634682d377a222f3e3c7061746820643d224d313560a08201527f372031343768337633682d337a6d32302d3468367634682d367a222f3e3c706160c08201520152565b60405190612207826101bb565b61023a82527f643d224d3139302031333768347633682d347a222f3e3c2f673e000000000000610240837f3c6720636c6173733d226f223e3c7061746820643d224d31393020313237683360208201527f7633682d337a6d3320313368347633682d347a6d2d3432203068367636682d3660408201527f7a222f3e3c7061746820643d224d3135312031333368337637682d337a6d313060608201527f203068367634682d367a222f3e3c7061746820643d224d31353720313337683160808201527f377636682d31377a6d332031336831347633682d31347a6d31372d313368377660a08201527f3136682d377a222f3e3c7061746820643d224d3138342031333768367636682d60c08201527f367a6d302031306831307636682d31307a222f3e3c7061746820643d224d313860e08201527f37203134336831307634682d31307a222f3e3c7061746820643d224d313930206101008201527f31343068337633682d337a6d2d362d313068337637682d337a222f3e3c7061746101208201527f6820643d224d3138372031333068367633682d367a6d2d3336203068313076336101408201527f682d31307a6d313620313368377637682d377a6d2d3130203068377637682d376101608201527f7a222f3e3c7061746820643d224d3136342031343768337633682d337a6d32396101808201527f2d323068347636682d347a222f3e3c7061746820643d224d31393420313333686101a08201527f337637682d337a222f3e3c2f673e3c6720636c6173733d2277223e3c706174686101c08201527f20643d224d3135342031333368377634682d377a222f3e3c7061746820643d226101e08201527f4d3135342031333768337633682d337a6d3130203668337634682d337a6d32306102008201527f203068337634682d337a6d332d313068377634682d377a222f3e3c70617468206102208201520152565b60405163507f146560e01b81526001600160a01b036020826004818685165afa918215610d48576000926126a3575b5060405163c44a8e6d60e01b81526001600160a01b0384166004820152602481018590526000604482018190529092909183916064918391165afa908115610d485760009161268a575b5080511561267f57606061010082015161265a57604051630f22bc6f60e11b81526004810194909452610428936125da929082906000908181602481305afa9081600091600093612633575b506126235750506001916125c1916125a061209c565b505b8015158061261c575b612602575b506125bb8451614d11565b90611adf565b9151036125f6576125d4906125bb6121fa565b9261513a565b80516125e7575b506148aa565b6125f091611adf565b386125e1565b6125d4906125bb6120cc565b61261691506126119088613188565b611a85565b386125b0565b50836125ab565b6001939195506125c192506125a2565b90925061265391503d806000833e61264b8183610245565b81019061201b565b913861258a565b5061266792505190613188565b80516126765750610428611a72565b610428906148aa565b505050610428611a72565b61269d913d8091833e610d3a8183610245565b3861253e565b60009192506126c09060203d602011610d7757610d688183610245565b91906124f4565b60405163507f146560e01b81529390916001600160a01b036020866004818488165afa958615610d4857600096612887575b5060405163c44a8e6d60e01b81526001600160a01b0385166004820152602481018390526000604482018190529096909187916064918391165afa948515610d485760009561286c575b5084511561285f57606061010086015161284f57604051630f22bc6f60e11b8152600481019290925261042895909182906000908181602481305afa9081600091600093612830575b506128205750506127be9293946127a161209c565b505b8115159081612818575b50612803575b506125bb8351614d11565b936127cc575b5050506148aa565b5191926127e6926001036125f6576125d4906125bb6121fa565b80516127f4575b80806127c4565b6127fd91611adf565b386127ed565b61281291506126119086613188565b386127b3565b9050386127ad565b9091506127be93945090946127a3565b90925061284891503d806000833e61264b8183610245565b913861278c565b5050509050612667915190613188565b5050505050610428611a72565b61288091953d8091833e610d3a8183610245565b9338612743565b60009196506128a49060203d602011610d7757610d688183610245565b95906126f9565b906128b46130dc565b81519060009260005b8381106128cb575050505050565b6128d58183611537565b516128e08285611537565b519080875260206001815260408089205461293e5782917fb10eb6fc7557a7109693cb8f3fac48d44328de56c0368ee4cac539b424d2cad9918561293260019897966000526001602052604060002090565b5551338152a3016128bd565b516333ded41b60e21b8152600490fd5b604051906101a082018281106001600160401b038211176101b657604052606061018083600080825280602083015280604083015280848301528060808301528060a08301528060c08301528060e08301528061010083015280610120830152806101408301526101608201520152565b91908110156115255760051b0190565b600281901b91906001600160fe1b0381160361157057565b906001600160401b0383116101b6576801000000000000000083116101b6578154838355808410612a42575b50906000526020806000209060005b848110612a30575050505050565b83358382015592810192600101612a22565b612a5a908360005284602060002091820191016115d7565b38612a13565b9081526060602082018190528101839052929392916001600160fb1b03811161045f5760409160809160051b8091838601378301019360018060a01b0316910152565b60226102a5919392936040519481612ac58793518092602080870191016103cf565b820161202360f01b6020820152612ae582518093602087850191016103cf565b01036002810185520183610245565b906102a5602960405180946802a37b83834b7339d160bd1b6020830152612b2481518092602086860191016103cf565b8101036009810185520183610245565b906102a5602660405180946502334b9ba1d160d51b6020830152612b6181518092602086860191016103cf565b8101036006810185520183610245565b906102a5602d60405180946c029bab4ba103137ba3a37b69d1609d1b6020830152612ba581518092602086860191016103cf565b810103600d810185520183610245565b906102a5602a604051809469029bab4ba103a37b81d160b51b6020830152612be681518092602086860191016103cf565b810103600a810185520183610245565b906102a56026604051809465029bab4ba1d160d51b6020830152612b6181518092602086860191016103cf565b906102a5602660405180946502432b0b21d160d51b6020830152612b6181518092602086860191016103cf565b906102a5602a60405180946902432b0b2103a37b81d160b51b6020830152612be681518092602086860191016103cf565b906102a56027604051809466026b7baba341d160cd1b6020830152612caf81518092602086860191016103cf565b8101036007810185520183610245565b906102a56029604051809468023b630b9b9b2b99d160bd1b6020830152612b2481518092602086860191016103cf565b906102a5602a60405180946902732b1b5b630b1b29d160b51b6020830152612be681518092602086860191016103cf565b906102a5602660405180946502632b3b99d160d51b6020830152612b6181518092602086860191016103cf565b906102a5602a60405180946902130b1b5b9b4b2329d160b51b6020830152612be681518092602086860191016103cf565b906102a5602760405180946602bb7b936321d160cd1b6020830152612caf81518092602086860191016103cf565b906102a56035604051809474027b934b3b4b730b6102730b5b2b2102130b7373c9605d1b6020830152612de881518092602086860191016103cf565b8101036015810185520183610245565b906102a56033604051809472027b930b733b2902730b5b2b2102130b7373c9606d1b6020830152612e3281518092602086860191016103cf565b8101036013810185520183610245565b906102a5603160405180947002834b735902730b5b2b2102130b7373c9607d1b6020830152612e7a81518092602086860191016103cf565b8101036011810185520183610245565b906102a56032604051809471020b634b2b7102730b5b2b2102130b7373c960751b6020830152612ec381518092602086860191016103cf565b8101036012810185520183610245565b91633b9aca0083069160018103612ef857505050612ef361042891614a4e565b612e8a565b60028103612f1457505050612f0f61042891614a4e565b612e42565b60038103612f3057505050612f2b61042891614a4e565b612df8565b60048103612f4c57505050612f4761042891614a4e565b612dac565b612f6c91929350612f67906000526003602052604060002090565b61032c565b9180613065575b5060018103612f86575061042890612d7e565b60028103612f98575061042890612d4d565b60078103612faa575061042890612d20565b60038103612fbc575061042890612cef565b60058103612fce575061042890612cbf565b60068103612fe0575061042890612c81565b600b8103612ff2575061042890612c50565b60048103613004575061042890612c23565b60088103613016575061042890612bf6565b600a8103613028575061042890612bb5565b6009810361303a575061042890612b71565b600c810361304c575061042890612b34565b600d1461305c5750610428611a72565b61042890612af4565b9091805115600014613083575061307b90614a4e565b905b38612f73565b61308f61309592614a4e565b90612aa3565b9061307d565b8060005260076020526040600020549081159081156130c3575b506130bd5790565b50600090565b90508160005260066020526040600020541415386130b5565b6000546001600160a01b03908116816130f361580a565b16036130fc5750565b60249061310761580a565b60405163118cdaa760e01b815291166004820152fd5b906102a5604960405180946c1e34b6b0b3b290343932b31e9160991b6020830152613152815180926020602d860191016103cf565b81017f222077696474683d2234303022206865696768743d22343030222f3e00000000602d820152036029810185520183610245565b61319f612f67836000526004602052604060002090565b805161327d575060405163507f146560e01b81526001600160a01b039260209283836004818489165afa908115610d485761321295859460009361325e575b50604051632f54648f60e21b81526001600160a01b0390921660048301526024820193909352948592839182906044820190565b0392165afa8015610d48576104289261323c92600092613241575b5050613237610266565b61499d565b61311d565b6132579250803d10611e5157611e418183610245565b388061322d565b613276919350853d8711610d7757610d688183610245565b91386131de565b91505090565b60405190613290826101d7565b61117a82527f762d31306833762d376833762d33682d31307a222f3e3c2f673e000000000000611180837f3c6720636c6173733d226131223e3c7061746820643d224d313733203533683460208201527f763137682d347a222f3e3c2f673e3c6720636c6173733d226132223e3c70617460408201527f6820643d224d3136372035376833763130682d337a222f3e3c7061746820643d60608201527f224d3136392035336834763137682d347a222f3e3c2f673e3c6720636c61737360808201527f3d226133223e3c7061746820643d224d31363720353368337634682d337a222f60a08201527f3e3c7061746820643d224d3136332035376834763130682d347a222f3e3c706160c08201527f746820643d224d31363720363768337633682d337a222f3e3c2f673e3c67206360e08201527f6c6173733d226231223e3c7061746820643d224d32313320323533682d33762d6101008201527f332d33682d33762d372d33682d34762d3130682d33762d372d372d33682d33766101208201527f2d3733682d34762d3130682d33762d3130682d33762d37682d34762d37682d336101408201527f762d33682d33762d33682d3476313068347631306833763130683376336834766101608201527f37203320373020336833763768337632306834763768337633683376336834766101808201527f34683376336833762d332d347a222f3e3c7061746820643d224d3235332033306101a08201527f37762d34682d33762d33682d33762d33682d34762d34682d33762d33682d33766101c08201527f2d33682d34762d34682d33762d33682d33762d33682d34762d34682d33762d366101e08201527f682d33762d37682d3476313768347633683376336833203476346833763368336102008201527f76336834763468337633683376336834763468337633683376336834762d36686102208201527f2d347a222f3e3c2f673e3c6720636c6173733d226232223e3c7061746820643d6102408201527f224d32353020333130762d33682d33762d34682d34762d33682d33762d33682d6102608201527f33762d34682d34762d33682d33762d33682d33762d34682d37762d33682d33766102808201527f2d33682d34762d3137682d33762d33682d33762d34682d34762d33682d33762d6102a08201527f33682d33762d37682d34762d3230682d33762d37682d33762d37332d332d37686102c08201527f2d34762d33682d33762d3130682d33762d3130682d34563730682d33762d336c6102e08201527f2d332031303020332d313030763430682d33763130682d347636682d337631346103008201527f682d337633203133682d347634346834763136683376313468337631336834766103208201527f31306833763768337633683476336833763468337633683476336833763468336103408201527f76336834763368337637683776376836763368377633683776346831337633686103608201527f337633683130762d33682d337a6d2d3130332d3837762d31366833762d3130686103808201527f2d337636682d34763137682d337631306833762d3768347a222f3e3c706174686103a08201527f20643d224d3134332032333068347637682d347a6d3420313068337633682d336103c08201527f7a6d33203768337633682d337a6d33203668347634682d347a222f3e3c7061746103e08201527f6820643d224d31363320323537682d36763368337633683376346834762d342d6104008201527f33682d34762d337a222f3e3c2f673e3c6720636c6173733d226233223e3c70616104208201527f746820643d224d3134332031393776366834762d366836762d34346834762d316104408201527f366833762d31346833762d366834762d31306833563937682d377636682d33766104608201527f34682d337633682d347633682d3376342033682d3376332034682d34763130686104808201527f2d337631362034682d337634366833762d3668337a222f3e3c7061746820643d6104a08201527f224d313430203230336833763137682d337a222f3e3c7061746820643d224d316104c08201527f3337203232306833763130682d337a222f3e3c7061746820643d224d313533206104e08201527f323530682d33762d37682d33762d36682d34762d37682d3376313068337637686105008201527f347636683376346833762d377a6d2d3320313068337637682d337a222f3e3c706105208201527f61746820643d224d3134372032353768337633682d337a6d36203068347633686105408201527f2d347a222f3e3c7061746820643d224d31363020323633762d33682d337633206105608201527f376836762d37682d337a6d2d31302d3536763136682d337637683376313068336105808201527f763768347636683676346837762d342d33682d33762d3130682d34762d3133686105a08201527f2d33762d3134682d33762d3136682d34763130682d337a222f3e3c70617468206105c08201527f643d224d32343320333133762d33682d33762d33682d31302d33762d34682d376105e08201527f762d33682d37762d33682d36762d37682d37762d37682d33762d33682d34762d6106008201527f33682d33762d34682d33762d33682d34762d33682d33762d34682d33762d33686106208201527f2d34762d33682d33763130682d337633682d347633682d3376376833763768346106408201527f76366833763568347633683676336833763368342033763368332034763368336106608201527f20337634683130763368372037203376336831302033762d33683130762d33686106808201527f34762d34682d31347a222f3e3c2f673e3c6720636c6173733d226234223e3c706106a08201527f61746820643d224d3138332031333068347637682d347a222f3e3c70617468206106c08201527f643d224d3138302031323768337633682d337a6d2d32372d3468347637682d346106e08201527f7a222f3e3c7061746820643d224d3135372031313768337636682d337a222f3e6107008201527f3c7061746820643d224d3136302031313068337637682d337a222f3e3c7061746107208201527f6820643d224d3136332031303768347633682d347a6d2d3320383368337637686107408201527f2d337a222f3e3c7061746820643d224d3136332031383768347633682d347a6d6107608201527f3230203068377633682d377a222f3e3c7061746820643d224d313830203139306107808201527f68337633682d337a6d31302d3768337634682d337a222f3e3c7061746820643d6107a08201527f224d3139332031383768347636682d347a6d2d323020353368347637682d347a6107c08201527f222f3e3c7061746820643d224d3137372032343768337636682d337a222f3e3c6107e08201527f7061746820643d224d3138302032353368337637682d337a222f3e3c706174686108008201527f20643d224d3138332032363068377633682d377a222f3e3c7061746820643d226108208201527f4d3139302032363368337634682d337a6d302d323068337634682d337a222f3e6108408201527f3c7061746820643d224d3138372032343068337633682d337a222f3e3c7061746108608201527f6820643d224d3139302032333768337633682d337a6d313320323368347633686108808201527f2d347a222f3e3c7061746820643d224d3230372032363368337637682d337a226108a08201527f2f3e3c7061746820643d224d3231302032373068337633682d337a6d2d3130206108c08201527f3768337636682d337a222f3e3c7061746820643d224d323033203238336834766108e08201527f37682d347a222f3e3c7061746820643d224d3230372032393068367633682d366109008201527f7a222f3e3c2f673e3c6720636c6173733d226f223e3c7061746820643d224d316109208201527f3333203135376834763530682d347a6d302036336834763130682d347a6d32376109408201527f2d3136336833763130682d337a222f3e3c7061746820643d224d3136332035336109608201527f68347634682d347a222f3e3c7061746820643d224d31363720353068313076336109808201527f682d31307a222f3e3c7061746820643d224d3137372035336833763137682d336109a08201527f7a222f3e3c7061746820643d224d3137332037306834763237682d347a6d2d366109c08201527f20306833763237682d337a222f3e3c7061746820643d224d31363320363768346109e08201527f7633682d347a6d3020333068347633682d347a222f3e3c7061746820643d224d610a008201527f3136302031303068337633682d337a222f3e3c7061746820643d224d31353720610a208201527f31303368337634682d337a222f3e3c7061746820643d224d3135332031303768610a408201527f347633682d347a222f3e3c7061746820643d224d313530203131306833763368610a608201527f2d337a222f3e3c7061746820643d224d3134372031313368337637682d337a22610a808201527f2f3e3c7061746820643d224d3134332031323068347637682d347a222f3e3c70610aa08201527f61746820643d224d313430203132376833763130682d337a222f3e3c70617468610ac08201527f20643d224d313337203133376833763230682d337a6d35362d31306834763130610ae08201527f682d347a222f3e3c7061746820643d224d313930203131376833763130682d33610b008201527f7a222f3e3c7061746820643d224d3138372031313068337637682d337a222f3e610b208201527f3c7061746820643d224d3138332031303368347637682d347a222f3e3c706174610b408201527f6820643d224d3138302031303068337633682d337a222f3e3c7061746820643d610b608201527f224d31373720393768337633682d337a6d2d3430203130366833763137682d33610b808201527f7a6d302032376833763130682d337a6d313020333068337637682d337a222f3e610ba08201527f3c7061746820643d224d31353020323537762d34682d33762d36682d34762d37610bc08201527f682d3376313068337631306834762d3368337a222f3e3c7061746820643d224d610be08201527f3135302032353768337633682d337a222f3e3c7061746820643d224d31363320610c008201527f323733762d33682d36762d3130682d347637682d337633683376336834763768610c208201527f33762d3768337a222f3e3c7061746820643d224d313633203236376834763368610c408201527f2d347a222f3e3c7061746820643d224d31373020323537682d332d3476336834610c608201527f76376833762d31307a222f3e3c7061746820643d224d31353720323533683676610c808201527f34682d367a222f3e3c7061746820643d224d3135332032343768347636682d34610ca08201527f7a222f3e3c7061746820643d224d3135302032343068337637682d337a222f3e610cc08201527f3c7061746820643d224d313437203233306833763130682d337a6d3133203530610ce08201527f68337637682d337a222f3e3c7061746820643d224d3134332032323368347637610d008201527f682d347a222f3e3c7061746820643d224d313437203230376833763136682d33610d208201527f7a222f3e3c7061746820643d224d313530203139376833763130682d337a6d2d610d408201527f3130203068337636682d337a6d35302031313368377633682d377a6d32332031610d608201527f306831377633682d31377a222f3e3c7061746820643d224d3233302033323368610d808201527f31337634682d31337a222f3e3c7061746820643d224d32343320333230683130610da08201527f7633682d31307a222f3e3c7061746820643d224d323533203331376834763368610dc08201527f2d347a222f3e3c7061746820643d224d323537203330376833763130682d337a610de08201527f222f3e3c7061746820643d224d3235332033303368347634682d347a222f3e3c610e008201527f7061746820643d224d3235302033303068337633682d337a222f3e3c70617468610e208201527f20643d224d3234372032393768337633682d337a222f3e3c7061746820643d22610e408201527f4d3234332032393368347634682d347a222f3e3c7061746820643d224d323430610e608201527f2032393068337633682d337a222f3e3c7061746820643d224d32333720323837610e808201527f68337633682d337a222f3e3c7061746820643d224d3233332032383368347634610ea08201527f682d347a222f3e3c7061746820643d224d3233302032383068337633682d337a610ec08201527f222f3e3c7061746820643d224d3232372032373768337633682d337a222f3e3c610ee08201527f7061746820643d224d3232332032373368347634682d347a222f3e3c70617468610f008201527f20643d224d3232302032363768337636682d337a222f3e3c7061746820643d22610f208201527f4d3231372032363068337637682d337a222f3e3c7061746820643d224d323133610f408201527f2032353368347637682d347a222f3e3c7061746820643d224d32313020323437610f608201527f68337636682d337a222f3e3c7061746820643d224d3230372032333768337631610f808201527f30682d337a222f3e3c7061746820643d224d323033203232376834763130682d610fa08201527f347a6d2d343020363068347636682d347a6d323420323068337633682d337a22610fc08201527f2f3e3c7061746820643d224d3136372032393368337635682d337a6d31362031610fe08201527f3468347633682d347a222f3e3c7061746820643d224d313730203239386834766110008201527f33682d347a6d3130203668337633682d337a222f3e3c7061746820643d224d316110208201527f37342033303168367633682d367a6d323320313268367634682d367a222f3e3c6110408201527f7061746820643d224d323033203331376831307633682d31307a6d2d322d31306110608201527f37762d3733682d3476373368337631376833762d3137682d327a222f3e3c2f676110808201527f3e3c6720636c6173733d226f223e3c7061746820643d224d31383720333037766110a08201527f2d346833762d36682d33762d34682d34762d33682d33762d33682d37762d34686110c08201527f2d367634682d3476336834763237682d34763133682d33763130682d347637686110e08201527f3476336833203130203134762d33682d34762d34682d33762d33682d33762d336111008201527f682d34762d376834762d31306833762d376833762d336837762d33682d337a6d6111208201527f3136203130762d34682d36763137682d34763130682d337637683376336834206111408201527f3620342033203134762d33682d34762d34682d37762d33682d33762d33682d336111608201520152565b906102a5609a60405180947f3c7374796c653e2e6f7b66696c6c3a233830383038303b7d2e62327b66696c6c60208301527f3a6e6f6e653b7d2e62337b66696c6c3a6e6f6e653b7d2e62347b66696c6c3a6e60408301527f6f6e653b7d2e61317b66696c6c3a6e6f6e653b7d2e61327b66696c6c3a6e6f6e60608301527f653b7d2e61337b66696c6c3a6e6f6e653b7d3c2f7374796c653e000000000000608083015261489a81518092602086860191016103cf565b810103607a810185520183610245565b906102a560ba60405180947f3c7376672077696474683d2234303022206865696768743d223430302220766960208301527f6577426f783d223020302034303020343030222066696c6c3d226e6f6e65222060408301527f786d6c6e733d22687474703a2f2f7777772e77332e6f72672f323030302f737660608301527f67223e3c7374796c653e2e6f7b66696c6c3a233035303530353b7d2e777b666960808301527336361d11b31cb31cb31c9dbe9e17b9ba3cb6329f60611b60a083015261497e81518092602060b4860191016103cf565b8101651e17b9bb339f60d11b60b482015203609a810185520183610245565b90610428906149cb604051602092609160f51b848301526022820152602281526149c6816101f3565b61536d565b9260405193816149e486935180928680870191016103cf565b82016149f8825180938680850191016103cf565b01038084520182610245565b604051614a108161019b565b60008152906000368137565b90614a26826107a4565b614a336040519182610245565b8281528092614a44601f19916107a4565b0190602036910137565b806000917a184f03e93ff9f4daa797ed6e38ed64bf6a1f01000000000000000080821015614b84575b506d04ee2d6d415b85acef810000000080831015614b75575b50662386f26fc1000080831015614b66575b506305f5e10080831015614b57575b5061271080831015614b48575b506064821015614b38575b600a80921015614b2e575b600190816021614ae660018701614a1c565b95860101905b614af8575b5050505090565b600019019083906f181899199a1a9b1b9c1cb0b131b232b360811b8282061a835304918215614b2957919082614aec565b614af1565b9160010191614ad4565b9190606460029104910191614ac9565b60049193920491019138614abe565b60089193920491019138614ab1565b60109193920491019138614aa2565b60209193920491019138614a90565b604093508104915038614a77565b60405190614b9f826101f3565b604082527f6768696a6b6c6d6e6f707172737475767778797a303132333435363738392b2f6040837f4142434445464748494a4b4c4d4e4f505152535455565758595a61626364656660208201520152565b906002820180921161157057565b906020820180921161157057565b906001820180921161157057565b9190820180921161157057565b805115614d0857614c37614b92565b614c53614c4e614c478451614bf1565b6003900490565b6129cf565b91614c65614c6084614bff565b614a1c565b92835280815182019060208501935b828210614cb657505050600390510680600114614ca557600214614c96575090565b603d60f81b6000199091015290565b50613d3d60f01b6001199091015290565b9091936004906003809401938451600190603f9082828260121c16880101518553828282600c1c16880101518386015382828260061c1688010151600286015316850101519082015301939190614c74565b50610428611a72565b614d1a906156de565b92614d29969596929192613283565b9460405197889760208901703c7374796c653e2e62317b66696c6c3a2360781b90528051908160318b019160200191614d61926103cf565b8801603181016b3b7d2e62327b66696c6c3a2360a01b905281519182603d83019160200191614d8f926103cf565b01603d81016b3b7d2e62337b66696c6c3a2360a01b905281519182604983019160200191614dbc926103cf565b0160498101614dd9906b3b7d2e62347b66696c6c3a2360a01b9052565b605501614de5916115c0565b6b3b7d2e61317b66696c6c3a2360a01b8152600c01614e03916115c0565b6b3b7d2e61327b66696c6c3a2360a01b8152600c01614e21916115c0565b6b3b7d2e61337b66696c6c3a2360a01b8152600c01614e3f916115c0565b691dbe9e17b9ba3cb6329f60b11b8152600a01614e5b916115c0565b03601f19810182526104289082610245565b60405190614e7a8261020e565b61019c82527f6820643d224d3139332031373068347633682d347a222f3e3c2f673e000000006101a0837f3c6720636c6173733d226f223e3c7061746820643d224d31393020313733682d60208201527f3337762d33682d3130762d34682d36763468337633682d33763468367633683160408201527f307634683337762d346833762d33682d33762d347a6d2d34302034682d33762d60608201527f34683376347a6d372033762d3368337633682d337a6d362030762d336834763360808201527f682d347a6d372030762d3368337633682d337a6d372030762d3368337633682d60a08201527f337a6d31302030682d34762d33683476337a222f3e3c7061746820643d224d3160c08201527f39302031373068337633682d337a222f3e3c7061746820643d224d313933203160e08201527f363668347634682d347a6d30203768347634682d347a222f3e3c2f673e3c67206101008201527f636c6173733d2277223e3c7061746820643d224d3133372031373068337633686101208201527f2d337a6d3130203368337634682d337a6d3130203468337633682d337a6d36206101408201527f3068347633682d347a6d37203068337633682d337a6d37203068337633682d336101608201527f7a6d36203068347633682d347a6d372d3468337634682d337a222f3e3c7061746101808201520152565b6040519060c082018281106001600160401b038211176101b65760405260818252601f60f91b60a0837f3c6720636c6173733d226f223e3c7061746820643d224d31383320313630762d60208201527f34682d32307634682d33763368337634683234762d37682d347a6d2d3133203360408201527f762d336831307633682d31307a222066696c6c3d2223616437316338222f3e3c60608201527f7061746820643d224d313730203136306831307633682d31307a222f3e3c2f6760808201520152565b81516060939260009283926003928491848110156153005761515b81614c0d565b955b86811061516e575050505050505050565b818110156152f4576151808184611537565b516040805163507f146560e01b8152919591600491906001600160a01b036020808386818e86165afa918215610d48576151fe956000958c958e9488966152d5575b50505163c44a8e6d60e01b81526001600160a01b0390931690830190815260208101949094526000604085015290948593849291839160600190565b0392165afa8015610d4857610100916000916152bc575b500151985b89880361528d57506001985b60069080820361525e575050506001935b80615246575b5060010161515d565b6001919a6125bb6152579288613188565b999061523d565b9591951180615285575b156152375793509861527c906125bb615075565b98600193615237565b508415615268565b98878111806152b4575b15615226579850996152ab906125bb614e6d565b99600198615226565b508915615297565b6152cf913d8091833e610d3a8183610245565b38615215565b6152ec929650803d10610d7757610d688183610245565b9338806151c2565b6007979360009461521a565b809561515d565b604051906105e082018281106001600160401b038211176101b657604052602e82526105c0366020840137565b9061533e8261058e565b61534b6040519182610245565b8281528092614a44601f199161058e565b908151811015611525570160200190565b908151156154945761537d615307565b91600090600061538c8561152a565b526001918151916000925b8084106153bd57505050506153b36153b8916104289394615863565b6158a6565b6158ed565b909192946153ee6153e86153e26153d4898761535c565b516001600160f81b03191690565b60f81c90565b60ff1690565b9184925b60ff908982891686101561545357600192916154276154216153e861541a8a61542d96611537565b5160ff1690565b60081b90565b90614c1b565b61544a8b61544288603a958686061692611537565b9060ff169052565b049301926153f2565b50919594935050809691965b61546d575060010192615397565b9460ff6001603a9261548a83858b06166154428d86851690611537565b011695048061545f565b9050610428614a04565b604051906154ab8261022a565b600682526506666653930360d41b6020830152565b604051906154cd8261022a565b600682526506666633730360d41b6020830152565b604051906154ef8261022a565b600682526566336136303360d01b6020830152565b604051906155118261022a565b600682526539363561316160d01b6020830152565b604051906155338261022a565b600682526533331bb1981960d11b6020830152565b604051906155558261022a565b600682526506664333630360d41b6020830152565b604051906155778261022a565b600682526518cccc994c1960d21b6020830152565b604051906155998261022a565b600682526566666438633560d01b6020830152565b604051906155bb8261022a565b600682526566663936613960d01b6020830152565b604051906155dd8261022a565b600682526533329a9c1c3160d11b6020830152565b604051906155ff8261022a565b600682526563393266343560d01b6020830152565b604051906156218261022a565b600682526536376437353760d01b6020830152565b604051906156438261022a565b600682526503330613232360d41b6020830152565b604051906156658261022a565b600682526532313761313560d01b6020830152565b604051906156878261022a565b60048252636e6f6e6560e01b6020830152565b604051906156a78261022a565b6006825265329a1c19b2b360d11b6020830152565b604051906156c98261022a565b60068252653231993332b360d11b6020830152565b6001810361572557506156ef615614565b906156f8615636565b90615701615658565b9061570a61567a565b9061571361569a565b9061571c6156bc565b906104286156bc565b6002810361576c575061573661558c565b9061573f6155ae565b906157486155d0565b906157516155f2565b9061575a61558c565b906157636155ae565b906104286155d0565b600381036157b3575061577d6154e2565b90615786615526565b9061578f615548565b9061579861556a565b906157a16154e2565b906157aa615526565b90610428615548565b6004146157cc57604051630992899d60e31b8152600490fd5b6157d461549e565b906157dd6154c0565b906157e66154e2565b906157ef615504565b906157f861549e565b906158016154c0565b906104286154e2565b337f000000000000000000000000b2b5841dbef766d4b521221732f9b618fcf34a876001600160a01b03161480615858575b15615854576013193601368111611570573560601c90565b3390565b50601436101561583c565b9060ff8091169061587382615334565b9260005b838110615885575050505090565b808361589360019385611537565b511661589f8288611537565b5201615877565b9081516158b281615334565b9060005b8181106158c4575090925050565b60019060ff6158da600019838951030188611537565b51166158e68286611537565b52016158b6565b80516158f8816107a4565b916040906159096040519485610245565b828452615915836107a4565b602090601f1901368683013760009260005b8581106159375750505050505090565b6001908251615945816101f3565b603a81527f31323334353637383941424344454647484a4b4c4d4e50515253545556575859858201527f5a6162636465666768696a6b6d6e6f707172737475767778797a000000000000848201526001600160f81b0319906159b59060ff6159ad858a611537565b51169061535c565b5116861a6159c3828a61535c565b530161592756fea26469706673582212209ca312d7bf35d6bc3aa62cf14a443bf6ed845154244fe549090eb69a9cf84d0964736f6c63430008170033",
	"devdoc": {
		"kind": "dev",
		"methods": {
			"assetIdsOf(uint256)": {
				"params": {
					"nakedBannyId": "The ID of the naked banny shows with the associated assets."
				},
				"returns": {
					"outfitIds": "The outfits attached to the Naked Banny.",
					"worldId": "The world attached to the Naked Banny."
				}
			},
			"constructor": {
				"params": {
					"owner": "The owner allowed to add SVG files that correspond to tier IDs.",
					"trustedForwarder": "The trusted forwarder for the ERC2771Context."
				}
			},
			"decorateBannyWith(address,uint256,uint256,uint256[])": {
				"details": "The caller must own the naked banny being dressed and all outfits being worn.",
				"params": {
					"hook": "The hook storing the assets.",
					"nakedBannyId": "The ID of the Naked Banny being dressed.",
					"outfitIds": "The IDs of the outfits that'll be associated with the specified banny. Only one outfit per outfit category allowed at a time and they must be passed in order.",
					"worldId": "The ID of the world that'll be associated with the specified banny."
				}
			},
			"isTrustedForwarder(address)": {
				"details": "Indicates whether any particular address is the trusted forwarder."
			},
			"nameOf(address,uint256)": {
				"params": {
					"hook": "The hook storing the assets.",
					"tokenId": "The ID of the token to show."
				},
				"returns": {
					"_0": "The name of the token."
				}
			},
			"outfitIsBeingWornBy(uint256)": {
				"params": {
					"outfitId": "The ID of the outfit being worn."
				},
				"returns": {
					"_0": "The ID of the naked banny wearing the outfit."
				}
			},
			"owner()": {
				"details": "Returns the address of the current owner."
			},
			"renounceOwnership()": {
				"details": "Leaves the contract without owner. It will not be possible to call `onlyOwner` functions. Can only be called by the current owner. NOTE: Renouncing ownership will leave the contract without an owner, thereby disabling any functionality that is only available to the owner."
			},
			"setSvgContentsOf(uint256[],string[])": {
				"params": {
					"svgContents": "The svg contents being stored, not including the parent <svg></svg> element.",
					"tierIds": "The IDs of the tiers having SVGs stored."
				}
			},
			"setSvgHashsOf(uint256[],bytes32[])": {
				"details": "This allows anyone to lazily upload the correct svg file.",
				"params": {
					"svgHashs": "The svg hashes being stored, not including the parent <svg></svg> element.",
					"tierIds": "The IDs of the tiers having SVG hashes stored."
				}
			},
			"setTierNames(uint256[],string[])": {
				"params": {
					"names": "The names of the tiers.",
					"tierIds": "The IDs of the tiers having their name stored."
				}
			},
			"svgOf(address,uint256,bool,bool)": {
				"params": {
					"hook": "The hook storing the assets.",
					"shouldDressNakedBanny": "Whether the naked banny should be dressed.",
					"shouldIncludeWorldOnNakedBanny": "Whether the world should be included on the naked banny.",
					"tokenId": "The ID of the token to show. If the ID belongs to a Naked Banny, it will be shown with its current outfits in its current world if specified."
				},
				"returns": {
					"_0": "svg The SVG."
				}
			},
			"tokenUriOf(address,uint256)": {
				"params": {
					"tokenId": "The ID of the token to show. If the ID belongs to a Naked Banny, it will be shown with its current outfits in its current world."
				},
				"returns": {
					"_0": "tokenUri The URI representing the SVG."
				}
			},
			"transferOwnership(address)": {
				"details": "Transfers ownership of the contract to a new account (`newOwner`). Can only be called by the current owner."
			},
			"trustedForwarder()": {
				"details": "Returns the address of the trusted forwarder."
			},
			"worldIsBeingUsedBy(uint256)": {
				"params": {
					"worldId": "The ID of the world being used."
				},
				"returns": {
					"_0": "The ID of the naked banny using the world."
				}
			}
		},
		"version": 1
	},
	"userdoc": {
		"kind": "user",
		"methods": {
			"_nameOf(uint256,uint256,uint256)": {
				"notice": "The name of each tier."
			},
			"assetIdsOf(uint256)": {
				"notice": "The assets currently attached to each Naked Banny, owned by the naked Banny's owner."
			},
			"decorateBannyWith(address,uint256,uint256,uint256[])": {
				"notice": "Dress your Naked Banny with outfits."
			},
			"nameOf(address,uint256)": {
				"notice": "Returns the name of the token."
			},
			"outfitIsBeingWornBy(uint256)": {
				"notice": "Checks to see which naked banny is currently wearing a particular outfit."
			},
			"setSvgBaseUri(string)": {
				"notice": "Allows the owner of this contract to specify the base of the domain hosting the SVG files."
			},
			"setSvgContentsOf(uint256[],string[])": {
				"notice": "The owner of this contract can store SVG files for tier IDs."
			},
			"setSvgHashsOf(uint256[],bytes32[])": {
				"notice": "Allows the owner of this contract to upload the hash of an svg file for a tierId."
			},
			"setTierNames(uint256[],string[])": {
				"notice": "Allows the owner to set the tier's name."
			},
			"svgBaseUri()": {
				"notice": "The base of the domain hosting the SVG files that can be lazily uploaded to the contract."
			},
			"svgHashOf(uint256)": {
				"notice": "The Naked Banny and outfit SVG hash files."
			},
			"svgOf(address,uint256,bool,bool)": {
				"notice": "Returns the SVG showing either a naked banny with/without outfits and a world, or the stand alone outfit or world."
			},
			"tokenUriOf(address,uint256)": {
				"notice": "Returns the SVG showing a dressed Naked Banny in a world."
			},
			"worldIsBeingUsedBy(uint256)": {
				"notice": "Checks to see which naked banny is currently using a particular world."
			}
		},
		"version": 1
	},
	"gitCommit": "52998b5a698390fedf5b31837da3d4dbbf4a6a14",
	"sourceName": "src/Banny721TokenUriResolver.sol",
	"chainId": "11155111",
	"linkReferences": {},
	"deployedLinkReferences": {},
	"history": [
		{
			"_format": "sphinx-sol-ct-artifact-1",
			"merkleRoot": "0xbbfed4024e4f7cd9bfdaaf35439399f5cf88631e7a77ee1d8176fe9d470a8d0f",
			"contractName": "Banny721TokenUriResolver",
			"address": "0xA0005f07266A54Ad344b1670AA512A929134BF34",
			"abi": [
				{
					"type": "constructor",
					"inputs": [
						{
							"name": "owner",
							"type": "address",
							"internalType": "address"
						},
						{
							"name": "trustedForwarder",
							"type": "address",
							"internalType": "address"
						}
					],
					"stateMutability": "nonpayable"
				},
				{
					"type": "function",
					"name": "_nameOf",
					"inputs": [
						{
							"name": "tokenId",
							"type": "uint256",
							"internalType": "uint256"
						},
						{
							"name": "tierId",
							"type": "uint256",
							"internalType": "uint256"
						},
						{
							"name": "category",
							"type": "uint256",
							"internalType": "uint256"
						}
					],
					"outputs": [
						{
							"name": "",
							"type": "string",
							"internalType": "string"
						}
					],
					"stateMutability": "view"
				},
				{
					"type": "function",
					"name": "assetIdsOf",
					"inputs": [
						{
							"name": "nakedBannyId",
							"type": "uint256",
							"internalType": "uint256"
						}
					],
					"outputs": [
						{
							"name": "worldId",
							"type": "uint256",
							"internalType": "uint256"
						},
						{
							"name": "outfitIds",
							"type": "uint256[]",
							"internalType": "uint256[]"
						}
					],
					"stateMutability": "view"
				},
				{
					"type": "function",
					"name": "bannySvgOf",
					"inputs": [
						{
							"name": "hook",
							"type": "address",
							"internalType": "address"
						},
						{
							"name": "tokenId",
							"type": "uint256",
							"internalType": "uint256"
						},
						{
							"name": "shouldBeDressed",
							"type": "bool",
							"internalType": "bool"
						},
						{
							"name": "shouldIncludeWorld",
							"type": "bool",
							"internalType": "bool"
						}
					],
					"outputs": [
						{
							"name": "",
							"type": "string",
							"internalType": "string"
						}
					],
					"stateMutability": "view"
				},
				{
					"type": "function",
					"name": "decorateBannyWith",
					"inputs": [
						{
							"name": "hook",
							"type": "address",
							"internalType": "address"
						},
						{
							"name": "nakedBannyId",
							"type": "uint256",
							"internalType": "uint256"
						},
						{
							"name": "worldId",
							"type": "uint256",
							"internalType": "uint256"
						},
						{
							"name": "outfitIds",
							"type": "uint256[]",
							"internalType": "uint256[]"
						}
					],
					"outputs": [],
					"stateMutability": "nonpayable"
				},
				{
					"type": "function",
					"name": "isTrustedForwarder",
					"inputs": [
						{
							"name": "forwarder",
							"type": "address",
							"internalType": "address"
						}
					],
					"outputs": [
						{
							"name": "",
							"type": "bool",
							"internalType": "bool"
						}
					],
					"stateMutability": "view"
				},
				{
					"type": "function",
					"name": "nameOf",
					"inputs": [
						{
							"name": "hook",
							"type": "address",
							"internalType": "address"
						},
						{
							"name": "tokenId",
							"type": "uint256",
							"internalType": "uint256"
						}
					],
					"outputs": [
						{
							"name": "",
							"type": "string",
							"internalType": "string"
						}
					],
					"stateMutability": "view"
				},
				{
					"type": "function",
					"name": "owner",
					"inputs": [],
					"outputs": [
						{
							"name": "",
							"type": "address",
							"internalType": "address"
						}
					],
					"stateMutability": "view"
				},
				{
					"type": "function",
					"name": "renounceOwnership",
					"inputs": [],
					"outputs": [],
					"stateMutability": "nonpayable"
				},
				{
					"type": "function",
					"name": "setSvgBaseUriOf",
					"inputs": [
						{
							"name": "baseUri",
							"type": "string",
							"internalType": "string"
						}
					],
					"outputs": [],
					"stateMutability": "nonpayable"
				},
				{
					"type": "function",
					"name": "setSvgContentsOf",
					"inputs": [
						{
							"name": "tierId",
							"type": "uint256",
							"internalType": "uint256"
						},
						{
							"name": "svgContents",
							"type": "string",
							"internalType": "string"
						}
					],
					"outputs": [],
					"stateMutability": "nonpayable"
				},
				{
					"type": "function",
					"name": "setSvgHashOf",
					"inputs": [
						{
							"name": "tierId",
							"type": "uint256",
							"internalType": "uint256"
						},
						{
							"name": "svgHash",
							"type": "bytes32",
							"internalType": "bytes32"
						}
					],
					"outputs": [],
					"stateMutability": "nonpayable"
				},
				{
					"type": "function",
					"name": "setTierName",
					"inputs": [
						{
							"name": "tierId",
							"type": "uint256",
							"internalType": "uint256"
						},
						{
							"name": "name",
							"type": "string",
							"internalType": "string"
						}
					],
					"outputs": [],
					"stateMutability": "nonpayable"
				},
				{
					"type": "function",
					"name": "svgBaseUri",
					"inputs": [],
					"outputs": [
						{
							"name": "",
							"type": "string",
							"internalType": "string"
						}
					],
					"stateMutability": "view"
				},
				{
					"type": "function",
					"name": "svgHashOf",
					"inputs": [
						{
							"name": "tierId",
							"type": "uint256",
							"internalType": "uint256"
						}
					],
					"outputs": [
						{
							"name": "",
							"type": "bytes32",
							"internalType": "bytes32"
						}
					],
					"stateMutability": "view"
				},
				{
					"type": "function",
					"name": "tokenUriOf",
					"inputs": [
						{
							"name": "hook",
							"type": "address",
							"internalType": "address"
						},
						{
							"name": "tokenId",
							"type": "uint256",
							"internalType": "uint256"
						}
					],
					"outputs": [
						{
							"name": "",
							"type": "string",
							"internalType": "string"
						}
					],
					"stateMutability": "view"
				},
				{
					"type": "function",
					"name": "transferOwnership",
					"inputs": [
						{
							"name": "newOwner",
							"type": "address",
							"internalType": "address"
						}
					],
					"outputs": [],
					"stateMutability": "nonpayable"
				},
				{
					"type": "function",
					"name": "trustedForwarder",
					"inputs": [],
					"outputs": [
						{
							"name": "",
							"type": "address",
							"internalType": "address"
						}
					],
					"stateMutability": "view"
				},
				{
					"type": "event",
					"name": "DecorateBanny",
					"inputs": [
						{
							"name": "hook",
							"type": "address",
							"indexed": true,
							"internalType": "address"
						},
						{
							"name": "nakenBannyId",
							"type": "uint256",
							"indexed": true,
							"internalType": "uint256"
						},
						{
							"name": "worldId",
							"type": "uint256",
							"indexed": false,
							"internalType": "uint256"
						},
						{
							"name": "outfitIds",
							"type": "uint256[]",
							"indexed": false,
							"internalType": "uint256[]"
						},
						{
							"name": "caller",
							"type": "address",
							"indexed": false,
							"internalType": "address"
						}
					],
					"anonymous": false
				},
				{
					"type": "event",
					"name": "OwnershipTransferred",
					"inputs": [
						{
							"name": "previousOwner",
							"type": "address",
							"indexed": true,
							"internalType": "address"
						},
						{
							"name": "newOwner",
							"type": "address",
							"indexed": true,
							"internalType": "address"
						}
					],
					"anonymous": false
				},
				{
					"type": "event",
					"name": "SetSvgBaseUri",
					"inputs": [
						{
							"name": "baseUri",
							"type": "string",
							"indexed": false,
							"internalType": "string"
						},
						{
							"name": "caller",
							"type": "address",
							"indexed": false,
							"internalType": "address"
						}
					],
					"anonymous": false
				},
				{
					"type": "event",
					"name": "SetSvgContents",
					"inputs": [
						{
							"name": "tierId",
							"type": "uint256",
							"indexed": true,
							"internalType": "uint256"
						},
						{
							"name": "svgHash",
							"type": "bytes32",
							"indexed": true,
							"internalType": "bytes32"
						},
						{
							"name": "svgContents",
							"type": "string",
							"indexed": false,
							"internalType": "string"
						},
						{
							"name": "caller",
							"type": "address",
							"indexed": false,
							"internalType": "address"
						}
					],
					"anonymous": false
				},
				{
					"type": "event",
					"name": "SetSvgHash",
					"inputs": [
						{
							"name": "tierId",
							"type": "uint256",
							"indexed": true,
							"internalType": "uint256"
						},
						{
							"name": "svgHash",
							"type": "bytes32",
							"indexed": true,
							"internalType": "bytes32"
						},
						{
							"name": "caller",
							"type": "address",
							"indexed": false,
							"internalType": "address"
						}
					],
					"anonymous": false
				},
				{
					"type": "event",
					"name": "SetTierName",
					"inputs": [
						{
							"name": "tierId",
							"type": "uint256",
							"indexed": true,
							"internalType": "uint256"
						},
						{
							"name": "name",
							"type": "string",
							"indexed": false,
							"internalType": "string"
						},
						{
							"name": "caller",
							"type": "address",
							"indexed": false,
							"internalType": "address"
						}
					],
					"anonymous": false
				},
				{
					"type": "error",
					"name": "CONTENTS_ALREADY_STORED",
					"inputs": []
				},
				{
					"type": "error",
					"name": "CONTENTS_MISMATCH",
					"inputs": []
				},
				{
					"type": "error",
					"name": "FACE_ALREADY_ADDED",
					"inputs": []
				},
				{
					"type": "error",
					"name": "HASH_ALREADY_STORED",
					"inputs": []
				},
				{
					"type": "error",
					"name": "HASH_NOT_FOUND",
					"inputs": []
				},
				{
					"type": "error",
					"name": "OwnableInvalidOwner",
					"inputs": [
						{
							"name": "owner",
							"type": "address",
							"internalType": "address"
						}
					]
				},
				{
					"type": "error",
					"name": "OwnableUnauthorizedAccount",
					"inputs": [
						{
							"name": "account",
							"type": "address",
							"internalType": "address"
						}
					]
				},
				{
					"type": "error",
					"name": "SUIT_ALREADY_ADDED",
					"inputs": []
				},
				{
					"type": "error",
					"name": "UNAUTHORIZED_OUTFIT",
					"inputs": []
				},
				{
					"type": "error",
					"name": "UNAUTHORIZED_WORLD",
					"inputs": []
				},
				{
					"type": "error",
					"name": "UNAUTHORIZED__NAKED_BANNY",
					"inputs": []
				},
				{
					"type": "error",
					"name": "UNORDERED_CATEGORIES",
					"inputs": []
				},
				{
					"type": "error",
					"name": "UNRECOGNIZED_CATEGORY",
					"inputs": []
				},
				{
					"type": "error",
					"name": "UNRECOGNIZED_OUTFIT",
					"inputs": []
				},
				{
					"type": "error",
					"name": "UNRECOGNIZED_TIER",
					"inputs": []
				},
				{
					"type": "error",
					"name": "UNRECOGNIZED_WORLD",
					"inputs": []
				}
			],
			"solcInputHash": "6029981c4e1146a2a3afaee3b8f60809",
			"receipt": {
				"blockHash": "0xcbef490b30c0bec49f3a01db909b92431e740fc11b8892bd7f862753c7abc56c",
				"blockNumber": 5478845,
				"contractAddress": null,
				"cumulativeGasUsed": "18625706",
				"from": "0xC034550B542b83BA1De312b21d1C94a9a52B1595",
				"gasPrice": "27599754305",
				"gasUsed": "9000279",
				"hash": "0x3d60b335be03a637af2b4af1a82f9577dfc7d0df0e09c5b2177867d8a7dbbdc0",
				"index": 90,
				"logs": [
					{
						"address": "0xB5E96127D417b1B3ef8438496a38A143167209c7",
						"blockHash": "0xcbef490b30c0bec49f3a01db909b92431e740fc11b8892bd7f862753c7abc56c",
						"blockNumber": 5478845,
						"data": "0x0000000000000000000000000000000000000000000000000000000000000000",
						"index": 221,
						"topics": [
							"0x572f161235911da04685a68c06adf558fc7e4a36909dca394650e0adc19cc93d",
							"0x000000000000000000000000c034550b542b83ba1de312b21d1c94a9a52b1595",
							"0x000000000000000000000000183b35e76a7bc60298dcb637515f50e4def9b68b",
							"0x10305e54624db19f8bffa95d2e8dd5b4194fdcdf00e5daa3f8697cc22a46e640"
						],
						"transactionHash": "0x3d60b335be03a637af2b4af1a82f9577dfc7d0df0e09c5b2177867d8a7dbbdc0",
						"transactionIndex": 90
					},
					{
						"address": "0xA0005f07266A54Ad344b1670AA512A929134BF34",
						"blockHash": "0xcbef490b30c0bec49f3a01db909b92431e740fc11b8892bd7f862753c7abc56c",
						"blockNumber": 5478845,
						"data": "0x",
						"index": 222,
						"topics": [
							"0x8be0079c531659141344cd1fd0a4f28419497f9722a3daafe3b4186f6b6457e0",
							"0x0000000000000000000000000000000000000000000000000000000000000000",
							"0x000000000000000000000000817738dc393d682ca5fbb268707b99f2aae96bae"
						],
						"transactionHash": "0x3d60b335be03a637af2b4af1a82f9577dfc7d0df0e09c5b2177867d8a7dbbdc0",
						"transactionIndex": 90
					},
					{
						"address": "0x584F5Da53cb18789099466074e3B5c32Ed17243a",
						"blockHash": "0xcbef490b30c0bec49f3a01db909b92431e740fc11b8892bd7f862753c7abc56c",
						"blockNumber": 5478845,
						"data": "0x",
						"index": 223,
						"topics": [
							"0x6895c13664aa4f67288b25d7a21d7aaa34916e355fb9b6fae0a139a9085becb8",
							"0x000000000000000000000000183b35e76a7bc60298dcb637515f50e4def9b68b"
						],
						"transactionHash": "0x3d60b335be03a637af2b4af1a82f9577dfc7d0df0e09c5b2177867d8a7dbbdc0",
						"transactionIndex": 90
					},
					{
						"address": "0x183b35E76A7BC60298DCb637515F50e4DeF9b68b",
						"blockHash": "0xcbef490b30c0bec49f3a01db909b92431e740fc11b8892bd7f862753c7abc56c",
						"blockNumber": 5478845,
						"data": "0x0000000000000000000000000000000000000000000000000000000000000001",
						"index": 224,
						"topics": [
							"0xa65fb05c5808f5f389d72edeaf719ce38f4cc55c1f69ca3cbfb31c21501caa07",
							"0xbbfed4024e4f7cd9bfdaaf35439399f5cf88631e7a77ee1d8176fe9d470a8d0f"
						],
						"transactionHash": "0x3d60b335be03a637af2b4af1a82f9577dfc7d0df0e09c5b2177867d8a7dbbdc0",
						"transactionIndex": 90
					},
					{
						"address": "0x0eA449Af9c15BAb787626c00e40E5AdD8a201e53",
						"blockHash": "0xcbef490b30c0bec49f3a01db909b92431e740fc11b8892bd7f862753c7abc56c",
						"blockNumber": 5478845,
						"data": "0x",
						"index": 225,
						"topics": [
							"0x8be0079c531659141344cd1fd0a4f28419497f9722a3daafe3b4186f6b6457e0",
							"0x0000000000000000000000000000000000000000000000000000000000000000",
							"0x000000000000000000000000cdfa45a183fa6841ed1ef8550fca0a8aab42ec34"
						],
						"transactionHash": "0x3d60b335be03a637af2b4af1a82f9577dfc7d0df0e09c5b2177867d8a7dbbdc0",
						"transactionIndex": 90
					},
					{
						"address": "0x0eA449Af9c15BAb787626c00e40E5AdD8a201e53",
						"blockHash": "0xcbef490b30c0bec49f3a01db909b92431e740fc11b8892bd7f862753c7abc56c",
						"blockNumber": 5478845,
						"data": "0x",
						"index": 226,
						"topics": [
							"0x8be0079c531659141344cd1fd0a4f28419497f9722a3daafe3b4186f6b6457e0",
							"0x000000000000000000000000cdfa45a183fa6841ed1ef8550fca0a8aab42ec34",
							"0x0000000000000000000000001369cce8b184fe5c5d80c2f6938ad9a838537cbd"
						],
						"transactionHash": "0x3d60b335be03a637af2b4af1a82f9577dfc7d0df0e09c5b2177867d8a7dbbdc0",
						"transactionIndex": 90
					},
					{
						"address": "0x2012f03C32098e0a045d3e44df5bAD538e23a5FF",
						"blockHash": "0xcbef490b30c0bec49f3a01db909b92431e740fc11b8892bd7f862753c7abc56c",
						"blockNumber": 5478845,
						"data": "0x",
						"index": 227,
						"topics": [
							"0x72b627b4904fa8a0160a923aa5b142eb19f6e56dc75017884162206f8886df09",
							"0x0000000000000000000000000ea449af9c15bab787626c00e40e5add8a201e53",
							"0x000000000000000000000000cdfa45a183fa6841ed1ef8550fca0a8aab42ec34"
						],
						"transactionHash": "0x3d60b335be03a637af2b4af1a82f9577dfc7d0df0e09c5b2177867d8a7dbbdc0",
						"transactionIndex": 90
					},
					{
						"address": "0xcDFA45A183fa6841eD1Ef8550FCa0a8aAb42eC34",
						"blockHash": "0xcbef490b30c0bec49f3a01db909b92431e740fc11b8892bd7f862753c7abc56c",
						"blockNumber": 5478845,
						"data": "0x0000000000000000000000000ea449af9c15bab787626c00e40e5add8a201e53",
						"index": 228,
						"topics": [
							"0xa42f6bb68e81f4650a7966f109d861f6c3d2a477e608e30807f568bed1cebdb9",
							"0x0000000000000000000000000000000000000000000000000000000000000001"
						],
						"transactionHash": "0x3d60b335be03a637af2b4af1a82f9577dfc7d0df0e09c5b2177867d8a7dbbdc0",
						"transactionIndex": 90
					},
					{
						"address": "0x4d9207aBEcA883161A1eAee9DaBeDC0001c198d7",
						"blockHash": "0xcbef490b30c0bec49f3a01db909b92431e740fc11b8892bd7f862753c7abc56c",
						"blockNumber": 5478845,
						"data": "0x",
						"index": 229,
						"topics": [
							"0xddf252ad1be2c89b69c2b068fc378daa952ba7f163c4a11628f55a4df523b3ef",
							"0x0000000000000000000000000000000000000000000000000000000000000000",
							"0x0000000000000000000000001369cce8b184fe5c5d80c2f6938ad9a838537cbd",
							"0x0000000000000000000000000000000000000000000000000000000000000001"
						],
						"transactionHash": "0x3d60b335be03a637af2b4af1a82f9577dfc7d0df0e09c5b2177867d8a7dbbdc0",
						"transactionIndex": 90
					},
					{
						"address": "0x4d9207aBEcA883161A1eAee9DaBeDC0001c198d7",
						"blockHash": "0xcbef490b30c0bec49f3a01db909b92431e740fc11b8892bd7f862753c7abc56c",
						"blockNumber": 5478845,
						"data": "0x000000000000000000000000daf6226aafe296bbccbec815133386cd910ed582",
						"index": 230,
						"topics": [
							"0x365b3162cd780731fc55a794b59494d472bc2af701007f581843a70673814698",
							"0x0000000000000000000000000000000000000000000000000000000000000001",
							"0x0000000000000000000000001369cce8b184fe5c5d80c2f6938ad9a838537cbd"
						],
						"transactionHash": "0x3d60b335be03a637af2b4af1a82f9577dfc7d0df0e09c5b2177867d8a7dbbdc0",
						"transactionIndex": 90
					},
					{
						"address": "0x18017cfeD48E1dC0Adc445cEF8A9e6AfFCb330DA",
						"blockHash": "0xcbef490b30c0bec49f3a01db909b92431e740fc11b8892bd7f862753c7abc56c",
						"blockNumber": 5478845,
						"data": "0x000000000000000000000000daf6226aafe296bbccbec815133386cd910ed582",
						"index": 231,
						"topics": [
							"0x7f9a7dcb234c909a09de2f344661ad9e5b24067adb97c908647c2edcbb121c30",
							"0x0000000000000000000000000000000000000000000000000000000000000001",
							"0x000000000000000000000000daf6226aafe296bbccbec815133386cd910ed582"
						],
						"transactionHash": "0x3d60b335be03a637af2b4af1a82f9577dfc7d0df0e09c5b2177867d8a7dbbdc0",
						"transactionIndex": 90
					},
					{
						"address": "0x1Eb7799d3A230A0440F0d6C477256Df8d425AdBb",
						"blockHash": "0xcbef490b30c0bec49f3a01db909b92431e740fc11b8892bd7f862753c7abc56c",
						"blockNumber": 5478845,
						"data": "0x",
						"index": 232,
						"topics": [
							"0xfda207e5d149787155cf9596283f246f082d4744a57e37dda99146e5dcc542bb",
							"0x0000000000000000000000000000000000000000000000000000000065f1e7e4",
							"0x0000000000000000000000000000000000000000000000000000000000000001",
							"0x0000000000000000000000000000000000000000000000000000000000000000"
						],
						"transactionHash": "0x3d60b335be03a637af2b4af1a82f9577dfc7d0df0e09c5b2177867d8a7dbbdc0",
						"transactionIndex": 90
					},
					{
						"address": "0x1Eb7799d3A230A0440F0d6C477256Df8d425AdBb",
						"blockHash": "0xcbef490b30c0bec49f3a01db909b92431e740fc11b8892bd7f862753c7abc56c",
						"blockNumber": 5478845,
						"data": "0x000000000000000000000000000000000000000000000000000000000001518000000000000000000000000000000000000000000000d3c21bcecceda10000000000000000000000000000000000000000000000000000000000000002faf0800000000000000000000000000000000000000000000000000000000000000000000009b4e67458c27f2e2ec0617b49c56cd41c29be5ea040000eeee1f40138810000000000000000000000000000000000000000000000000000000065f1e580000000000000000000000000daf6226aafe296bbccbec815133386cd910ed582",
						"index": 233,
						"topics": [
							"0x11a490bebff1beffe4bdd210894aca6ea5049427ce4b3c48865717677199cb07",
							"0x0000000000000000000000000000000000000000000000000000000065f1e7e4",
							"0x0000000000000000000000000000000000000000000000000000000000000001"
						],
						"transactionHash": "0x3d60b335be03a637af2b4af1a82f9577dfc7d0df0e09c5b2177867d8a7dbbdc0",
						"transactionIndex": 90
					},
					{
						"address": "0x1Eb7799d3A230A0440F0d6C477256Df8d425AdBb",
						"blockHash": "0xcbef490b30c0bec49f3a01db909b92431e740fc11b8892bd7f862753c7abc56c",
						"blockNumber": 5478845,
						"data": "0x",
						"index": 234,
						"topics": [
							"0xfda207e5d149787155cf9596283f246f082d4744a57e37dda99146e5dcc542bb",
							"0x0000000000000000000000000000000000000000000000000000000065f1e7e5",
							"0x0000000000000000000000000000000000000000000000000000000000000001",
							"0x0000000000000000000000000000000000000000000000000000000065f1e7e4"
						],
						"transactionHash": "0x3d60b335be03a637af2b4af1a82f9577dfc7d0df0e09c5b2177867d8a7dbbdc0",
						"transactionIndex": 90
					},
					{
						"address": "0x1Eb7799d3A230A0440F0d6C477256Df8d425AdBb",
						"blockHash": "0xcbef490b30c0bec49f3a01db909b92431e740fc11b8892bd7f862753c7abc56c",
						"blockNumber": 5478845,
						"data": "0x0000000000000000000000000000000000000000000000000000000000093a8000000000000000000000000000000000000000000000152d02c7e14af680000000000000000000000000000000000000000000000000000000000000000096800000000000000000000000000000000000000000000000000000000000000000000009b4e67458c27f2e2ec0617b49c56cd41c29be5ea040000eeee138813881000000000000000000000000000000000000000000000000000000006616cf80000000000000000000000000daf6226aafe296bbccbec815133386cd910ed582",
						"index": 235,
						"topics": [
							"0x11a490bebff1beffe4bdd210894aca6ea5049427ce4b3c48865717677199cb07",
							"0x0000000000000000000000000000000000000000000000000000000065f1e7e5",
							"0x0000000000000000000000000000000000000000000000000000000000000001"
						],
						"transactionHash": "0x3d60b335be03a637af2b4af1a82f9577dfc7d0df0e09c5b2177867d8a7dbbdc0",
						"transactionIndex": 90
					},
					{
						"address": "0x12bB7Bcc941b2E5cCef740d0e4317a5B35717D30",
						"blockHash": "0xcbef490b30c0bec49f3a01db909b92431e740fc11b8892bd7f862753c7abc56c",
						"blockNumber": 5478845,
						"data": "0x000000000000000000000000000000000000000000000000000000000000eeee0000000000000000000000000000000000000000000000000000000000000012000000000000000000000000000000000000000000000000000000000000eeee000000000000000000000000daf6226aafe296bbccbec815133386cd910ed582",
						"index": 236,
						"topics": [
							"0x9570de6fc0456f642bd0a001b24cd31676388c24596df64a17190c24310690a1",
							"0x0000000000000000000000000000000000000000000000000000000000000001",
							"0x000000000000000000000000000000000000000000000000000000000000eeee"
						],
						"transactionHash": "0x3d60b335be03a637af2b4af1a82f9577dfc7d0df0e09c5b2177867d8a7dbbdc0",
						"transactionIndex": 90
					},
					{
						"address": "0x18017cfeD48E1dC0Adc445cEF8A9e6AfFCb330DA",
						"blockHash": "0xcbef490b30c0bec49f3a01db909b92431e740fc11b8892bd7f862753c7abc56c",
						"blockNumber": 5478845,
						"data": "0x0000000000000000000000000000000000000000000000000000000000000040000000000000000000000000daf6226aafe296bbccbec815133386cd910ed582000000000000000000000000000000000000000000000000000000000000000100000000000000000000000012bb7bcc941b2e5ccef740d0e4317a5b35717d30",
						"index": 237,
						"topics": [
							"0xb648241d83df6540fc10f2acc641e4bf80a1e84e7ae2f1f6b0ad204b8fee635b",
							"0x0000000000000000000000000000000000000000000000000000000000000001"
						],
						"transactionHash": "0x3d60b335be03a637af2b4af1a82f9577dfc7d0df0e09c5b2177867d8a7dbbdc0",
						"transactionIndex": 90
					},
					{
						"address": "0xdAF6226Aafe296bbCCBEC815133386Cd910Ed582",
						"blockHash": "0xcbef490b30c0bec49f3a01db909b92431e740fc11b8892bd7f862753c7abc56c",
						"blockNumber": 5478845,
						"data": "0x0000000000000000000000000000000000000000000000000000000065f1e7e5000000000000000000000000000000000000000000000000000000000000000100000000000000000000000000000000000000000000000000000000000000a000000000000000000000000000000000000000000000000000000000000000c00000000000000000000000001369cce8b184fe5c5d80c2f6938ad9a838537cbd000000000000000000000000000000000000000000000000000000000000000000000000000000000000000000000000000000000000000000000000000000162442414e4e59207265766e6574206465706c6f79656400000000000000000000",
						"index": 238,
						"topics": [
							"0x8dac501f24f52bda9ebdfa6a1789878c1d1e23823c771f7d52b5ba41261b0f45"
						],
						"transactionHash": "0x3d60b335be03a637af2b4af1a82f9577dfc7d0df0e09c5b2177867d8a7dbbdc0",
						"transactionIndex": 90
					},
					{
						"address": "0xB2eb0b6E78dA33B74cf9d36380C80C1c08771140",
						"blockHash": "0xcbef490b30c0bec49f3a01db909b92431e740fc11b8892bd7f862753c7abc56c",
						"blockNumber": 5478845,
						"data": "0x",
						"index": 239,
						"topics": [
							"0x8be0079c531659141344cd1fd0a4f28419497f9722a3daafe3b4186f6b6457e0",
							"0x0000000000000000000000000000000000000000000000000000000000000000",
							"0x0000000000000000000000003295c9c7374e583cb2e6ed455eaf9908022159d0"
						],
						"transactionHash": "0x3d60b335be03a637af2b4af1a82f9577dfc7d0df0e09c5b2177867d8a7dbbdc0",
						"transactionIndex": 90
					},
					{
						"address": "0x3295C9c7374E583cb2e6Ed455EAf9908022159D0",
						"blockHash": "0xcbef490b30c0bec49f3a01db909b92431e740fc11b8892bd7f862753c7abc56c",
						"blockNumber": 5478845,
						"data": "0x000000000000000000000000000000000000000000000000000000000000008000000000000000000000000000000000000000000000000000000000000000c07c81a6d5a5002e076dc5e1909b89ccb4a86210ac7201f0beeb188f6c8a2b6614000000000000000000000000daf6226aafe296bbccbec815133386cd910ed582000000000000000000000000000000000000000000000000000000000000000a42616e6e79766572736500000000000000000000000000000000000000000000000000000000000000000000000000000000000000000000000000000000000542414e4e59000000000000000000000000000000000000000000000000000000",
						"index": 240,
						"topics": [
							"0xb4510654a5884cae50948507300dc482833ed1446cef375e064bef00b6b4ba4e",
							"0x0000000000000000000000000000000000000000000000000000000000000001",
							"0x000000000000000000000000b2eb0b6e78da33b74cf9d36380c80c1c08771140"
						],
						"transactionHash": "0x3d60b335be03a637af2b4af1a82f9577dfc7d0df0e09c5b2177867d8a7dbbdc0",
						"transactionIndex": 90
					},
					{
						"address": "0x7CB4a75D21c45d1A0A0333BFa626f54636c84Da5",
						"blockHash": "0xcbef490b30c0bec49f3a01db909b92431e740fc11b8892bd7f862753c7abc56c",
						"blockNumber": 5478845,
						"data": "0x0000000000000000000000000000000000000000000000000000000000000000000000000000000000000000000000000000000000000000000000003b9aca000000000000000000000000000000000000000000000000000000000000000000000000000000000000000000817738dc393d682ca5fbb268707b99f2aae96bae00000000000000000000000000000000000000000000000000000000000000000000000000000000000000000000000000000000000000000000000000000000000000000000000000000000daf6226aafe296bbccbec815133386cd910ed582",
						"index": 241,
						"topics": [
							"0x0d7ea8ac1cb69dfa18ce2b18e90d31b4d4a0370aacadf7db42d42930a09b3f01",
							"0x0000000000000000000000000000000000000000000000000000000000000001",
							"0x0000000000000000000000000000000000000000000000000000000000000000",
							"0x0000000000000000000000000000000000000000000000000000000000000001"
						],
						"transactionHash": "0x3d60b335be03a637af2b4af1a82f9577dfc7d0df0e09c5b2177867d8a7dbbdc0",
						"transactionIndex": 90
					},
					{
						"address": "0xBA24624AE5dc821866E9E71Ed050412Ef01E2fe6",
						"blockHash": "0xcbef490b30c0bec49f3a01db909b92431e740fc11b8892bd7f862753c7abc56c",
						"blockNumber": 5478845,
						"data": "0x00000000000000000000000000000000000000000000000000000000000000600000000000000000000000000000000000000000000000000000000003c400000000000000000000000000001369cce8b184fe5c5d80c2f6938ad9a838537cbd000000000000000000000000000000000000000000000000000000000000000500000000000000000000000000000000000000000000000000000000000000120000000000000000000000000000000000000000000000000000000000000019000000000000000000000000000000000000000000000000000000000000001600000000000000000000000000000000000000000000000000000000000000170000000000000000000000000000000000000000000000000000000000000018",
						"index": 242,
						"topics": [
							"0xf8cdf10a0ce6189c6d069e97320ef146e2bcbd32d6c0b86dcbfbf3bd8578fa70",
							"0x000000000000000000000000817738dc393d682ca5fbb268707b99f2aae96bae",
							"0x0000000000000000000000001369cce8b184fe5c5d80c2f6938ad9a838537cbd",
							"0x0000000000000000000000000000000000000000000000000000000000000001"
						],
						"transactionHash": "0x3d60b335be03a637af2b4af1a82f9577dfc7d0df0e09c5b2177867d8a7dbbdc0",
						"transactionIndex": 90
					},
					{
						"address": "0xB2eb0b6E78dA33B74cf9d36380C80C1c08771140",
						"blockHash": "0xcbef490b30c0bec49f3a01db909b92431e740fc11b8892bd7f862753c7abc56c",
						"blockNumber": 5478845,
						"data": "0x000000000000000000000000000000000000000000422ca8b0a00a4250000000",
						"index": 243,
						"topics": [
							"0xddf252ad1be2c89b69c2b068fc378daa952ba7f163c4a11628f55a4df523b3ef",
							"0x0000000000000000000000000000000000000000000000000000000000000000",
							"0x000000000000000000000000817738dc393d682ca5fbb268707b99f2aae96bae"
						],
						"transactionHash": "0x3d60b335be03a637af2b4af1a82f9577dfc7d0df0e09c5b2177867d8a7dbbdc0",
						"transactionIndex": 90
					},
					{
						"address": "0x3295C9c7374E583cb2e6Ed455EAf9908022159D0",
						"blockHash": "0xcbef490b30c0bec49f3a01db909b92431e740fc11b8892bd7f862753c7abc56c",
						"blockNumber": 5478845,
						"data": "0x000000000000000000000000000000000000000000422ca8b0a00a42500000000000000000000000000000000000000000000000000000000000000000000001000000000000000000000000daf6226aafe296bbccbec815133386cd910ed582",
						"index": 244,
						"topics": [
							"0x0153be209252ccc3b70df14d55d2cc93fa5a74e263b163d9a1caf45152fd0e86",
							"0x000000000000000000000000817738dc393d682ca5fbb268707b99f2aae96bae",
							"0x0000000000000000000000000000000000000000000000000000000000000001"
						],
						"transactionHash": "0x3d60b335be03a637af2b4af1a82f9577dfc7d0df0e09c5b2177867d8a7dbbdc0",
						"transactionIndex": 90
					},
					{
						"address": "0xdAF6226Aafe296bbCCBEC815133386Cd910Ed582",
						"blockHash": "0xcbef490b30c0bec49f3a01db909b92431e740fc11b8892bd7f862753c7abc56c",
						"blockNumber": 5478845,
						"data": "0x000000000000000000000000000000000000000000422ca8b0a00a4250000000000000000000000000000000000000000000000000422ca8b0a00a425000000000000000000000000000000000000000000000000000000000000000000000a000000000000000000000000000000000000000000000000000000000000000000000000000000000000000001369cce8b184fe5c5d80c2f6938ad9a838537cbd00000000000000000000000000000000000000000000000000000000000000102442414e4e59207072656d696e74656400000000000000000000000000000000",
						"index": 245,
						"topics": [
							"0xe6fee9c572244c0c2238c3112ac12d411750a7ee00eeebd32521c3e5a666c14b",
							"0x000000000000000000000000817738dc393d682ca5fbb268707b99f2aae96bae",
							"0x0000000000000000000000000000000000000000000000000000000000000001"
						],
						"transactionHash": "0x3d60b335be03a637af2b4af1a82f9577dfc7d0df0e09c5b2177867d8a7dbbdc0",
						"transactionIndex": 90
					},
					{
						"address": "0xBA24624AE5dc821866E9E71Ed050412Ef01E2fe6",
						"blockHash": "0xcbef490b30c0bec49f3a01db909b92431e740fc11b8892bd7f862753c7abc56c",
						"blockNumber": 5478845,
						"data": "0x000000000000000000000000000000000000000000000000000000000000006000000000000000000000000000000000000000000000000000000000200000000000000000000000000000001369cce8b184fe5c5d80c2f6938ad9a838537cbd0000000000000000000000000000000000000000000000000000000000000001000000000000000000000000000000000000000000000000000000000000001d",
						"index": 246,
						"topics": [
							"0xf8cdf10a0ce6189c6d069e97320ef146e2bcbd32d6c0b86dcbfbf3bd8578fa70",
							"0x0000000000000000000000004be9d88be6e7a38644ea746cf78cb1bf30051c76",
							"0x0000000000000000000000001369cce8b184fe5c5d80c2f6938ad9a838537cbd",
							"0x0000000000000000000000000000000000000000000000000000000000000001"
						],
						"transactionHash": "0x3d60b335be03a637af2b4af1a82f9577dfc7d0df0e09c5b2177867d8a7dbbdc0",
						"transactionIndex": 90
					},
					{
						"address": "0x06350909758b8c7B07f2782dB1b9B821d807D06C",
						"blockHash": "0xcbef490b30c0bec49f3a01db909b92431e740fc11b8892bd7f862753c7abc56c",
						"blockNumber": 5478845,
						"data": "0x00000000000000000000000000000000000000000000000000000000000000400000000000000000000000001369cce8b184fe5c5d80c2f6938ad9a838537cbd000000000000000000000000000000000000000000000000000000000000000400000000000000000000000000000000000000000000000000000000000000800000000000000000000000000000000000000000000000000000000000000160000000000000000000000000000000000000000000000000000000000000024000000000000000000000000000000000000000000000000000000000000003200000000000000000000000000ea449af9c15bab787626c00e40e5add8a201e53000000000000000000000000000000000000000000000000000000000000006400000000000000000000000000000000000000000000000000038d7ea4c680000000000000000000000000000000000000000000000000000000000000002710000000000000000000000000000000000000000000000000000000003b9ac9ff00000000000000000000000000000000000000000000000000000000000000c000000000000000000000000000000000000000000000000000000000000000000000000000000000000000000ea449af9c15bab787626c00e40e5add8a201e530000000000000000000000000000000000000000000000000000000000000065000000000000000000000000000000000000000000000000016345785d8a00000000000000000000000000000000000000000000000000000000000000000064000000000000000000000000000000000000000000000000000000003b9ac9ff00000000000000000000000000000000000000000000000000000000000000c000000000000000000000000000000000000000000000000000000000000000000000000000000000000000000ea449af9c15bab787626c00e40e5add8a201e5300000000000000000000000000000000000000000000000000000000000000660000000000000000000000000000000000000000000000000de0b6b3a7640000000000000000000000000000000000000000000000000000000000000000000a000000000000000000000000000000000000000000000000000000003b9ac9ff00000000000000000000000000000000000000000000000000000000000000c000000000000000000000000000000000000000000000000000000000000000000000000000000000000000000ea449af9c15bab787626c00e40e5add8a201e5300000000000000000000000000000000000000000000000000000000000000670000000000000000000000000000000000000000000000056bc75e2d63100000000000000000000000000000000000000000000000000000000000000000000a000000000000000000000000000000000000000000000000000000003b9ac9ff00000000000000000000000000000000000000000000000000000000000000c00000000000000000000000000000000000000000000000000000000000000000",
						"index": 247,
						"topics": [
							"0xbccec612e631e987bbe45a96fe8ca1a685eb5d16c9765befacb1d79f0d4a040c",
							"0x0000000000000000000000000000000000000000000000000000000000000001"
						],
						"transactionHash": "0x3d60b335be03a637af2b4af1a82f9577dfc7d0df0e09c5b2177867d8a7dbbdc0",
						"transactionIndex": 90
					},
					{
						"address": "0xBA24624AE5dc821866E9E71Ed050412Ef01E2fe6",
						"blockHash": "0xcbef490b30c0bec49f3a01db909b92431e740fc11b8892bd7f862753c7abc56c",
						"blockNumber": 5478845,
						"data": "0x000000000000000000000000000000000000000000000000000000000000006000000000000000000000000000000000000000000000000000000000004000000000000000000000000000001369cce8b184fe5c5d80c2f6938ad9a838537cbd00000000000000000000000000000000000000000000000000000000000000010000000000000000000000000000000000000000000000000000000000000016",
						"index": 248,
						"topics": [
							"0xf8cdf10a0ce6189c6d069e97320ef146e2bcbd32d6c0b86dcbfbf3bd8578fa70",
							"0x00000000000000000000000006350909758b8c7b07f2782db1b9b821d807d06c",
							"0x0000000000000000000000001369cce8b184fe5c5d80c2f6938ad9a838537cbd",
							"0x0000000000000000000000000000000000000000000000000000000000000001"
						],
						"transactionHash": "0x3d60b335be03a637af2b4af1a82f9577dfc7d0df0e09c5b2177867d8a7dbbdc0",
						"transactionIndex": 90
					},
					{
						"address": "0x584F5Da53cb18789099466074e3B5c32Ed17243a",
						"blockHash": "0xcbef490b30c0bec49f3a01db909b92431e740fc11b8892bd7f862753c7abc56c",
						"blockNumber": 5478845,
						"data": "0x",
						"index": 249,
						"topics": [
							"0x6895c13664aa4f67288b25d7a21d7aaa34916e355fb9b6fae0a139a9085becb8",
							"0x000000000000000000000000183b35e76a7bc60298dcb637515f50e4def9b68b"
						],
						"transactionHash": "0x3d60b335be03a637af2b4af1a82f9577dfc7d0df0e09c5b2177867d8a7dbbdc0",
						"transactionIndex": 90
					},
					{
						"address": "0x183b35E76A7BC60298DCb637515F50e4DeF9b68b",
						"blockHash": "0xcbef490b30c0bec49f3a01db909b92431e740fc11b8892bd7f862753c7abc56c",
						"blockNumber": 5478845,
						"data": "0x0000000000000000000000000000000000000000000000000000000000000002",
						"index": 250,
						"topics": [
							"0xa65fb05c5808f5f389d72edeaf719ce38f4cc55c1f69ca3cbfb31c21501caa07",
							"0xbbfed4024e4f7cd9bfdaaf35439399f5cf88631e7a77ee1d8176fe9d470a8d0f"
						],
						"transactionHash": "0x3d60b335be03a637af2b4af1a82f9577dfc7d0df0e09c5b2177867d8a7dbbdc0",
						"transactionIndex": 90
					},
					{
						"address": "0x183b35E76A7BC60298DCb637515F50e4DeF9b68b",
						"blockHash": "0xcbef490b30c0bec49f3a01db909b92431e740fc11b8892bd7f862753c7abc56c",
						"blockNumber": 5478845,
						"data": "0x",
						"index": 251,
						"topics": [
							"0x4383d976757d67ca920616be0b6430a681ea9d3dcce8d6d61d4603ca4a9bff63",
							"0xbbfed4024e4f7cd9bfdaaf35439399f5cf88631e7a77ee1d8176fe9d470a8d0f"
						],
						"transactionHash": "0x3d60b335be03a637af2b4af1a82f9577dfc7d0df0e09c5b2177867d8a7dbbdc0",
						"transactionIndex": 90
					}
				],
				"logsBloom": "0x00408000080010008210000008080202000000000008004020813003004000000000000000c001000008002004480000801000000000000200010000000400000000001004222200000000080000800800010800000408008010c001008040101002000302000000808004200000094001080008300001024002001200c0004822000000004005000001008000008000000a200808000000100000402000000000401080101c0040000200000000500a02020000000000000002200140042020a402000200000400028000004c0004800100860020020184001000000200e8008000002000800008100000000000000210001022400200000000000009000000",
				"status": 1,
				"to": "0xB5E96127D417b1B3ef8438496a38A143167209c7"
			},
			"metadata": "{\"compiler\":{\"version\":\"0.8.23+commit.f704f362\"},\"language\":\"Solidity\",\"output\":{\"abi\":[{\"inputs\":[{\"internalType\":\"address\",\"name\":\"owner\",\"type\":\"address\"},{\"internalType\":\"address\",\"name\":\"trustedForwarder\",\"type\":\"address\"}],\"stateMutability\":\"nonpayable\",\"type\":\"constructor\"},{\"inputs\":[],\"type\":\"error\",\"name\":\"CONTENTS_ALREADY_STORED\"},{\"inputs\":[],\"type\":\"error\",\"name\":\"CONTENTS_MISMATCH\"},{\"inputs\":[],\"type\":\"error\",\"name\":\"FACE_ALREADY_ADDED\"},{\"inputs\":[],\"type\":\"error\",\"name\":\"HASH_ALREADY_STORED\"},{\"inputs\":[],\"type\":\"error\",\"name\":\"HASH_NOT_FOUND\"},{\"inputs\":[{\"internalType\":\"address\",\"name\":\"owner\",\"type\":\"address\"}],\"type\":\"error\",\"name\":\"OwnableInvalidOwner\"},{\"inputs\":[{\"internalType\":\"address\",\"name\":\"account\",\"type\":\"address\"}],\"type\":\"error\",\"name\":\"OwnableUnauthorizedAccount\"},{\"inputs\":[],\"type\":\"error\",\"name\":\"SUIT_ALREADY_ADDED\"},{\"inputs\":[],\"type\":\"error\",\"name\":\"UNAUTHORIZED_OUTFIT\"},{\"inputs\":[],\"type\":\"error\",\"name\":\"UNAUTHORIZED_WORLD\"},{\"inputs\":[],\"type\":\"error\",\"name\":\"UNAUTHORIZED__NAKED_BANNY\"},{\"inputs\":[],\"type\":\"error\",\"name\":\"UNORDERED_CATEGORIES\"},{\"inputs\":[],\"type\":\"error\",\"name\":\"UNRECOGNIZED_CATEGORY\"},{\"inputs\":[],\"type\":\"error\",\"name\":\"UNRECOGNIZED_OUTFIT\"},{\"inputs\":[],\"type\":\"error\",\"name\":\"UNRECOGNIZED_TIER\"},{\"inputs\":[],\"type\":\"error\",\"name\":\"UNRECOGNIZED_WORLD\"},{\"inputs\":[{\"internalType\":\"address\",\"name\":\"hook\",\"type\":\"address\",\"indexed\":true},{\"internalType\":\"uint256\",\"name\":\"nakenBannyId\",\"type\":\"uint256\",\"indexed\":true},{\"internalType\":\"uint256\",\"name\":\"worldId\",\"type\":\"uint256\",\"indexed\":false},{\"internalType\":\"uint256[]\",\"name\":\"outfitIds\",\"type\":\"uint256[]\",\"indexed\":false},{\"internalType\":\"address\",\"name\":\"caller\",\"type\":\"address\",\"indexed\":false}],\"type\":\"event\",\"name\":\"DecorateBanny\",\"anonymous\":false},{\"inputs\":[{\"internalType\":\"address\",\"name\":\"previousOwner\",\"type\":\"address\",\"indexed\":true},{\"internalType\":\"address\",\"name\":\"newOwner\",\"type\":\"address\",\"indexed\":true}],\"type\":\"event\",\"name\":\"OwnershipTransferred\",\"anonymous\":false},{\"inputs\":[{\"internalType\":\"string\",\"name\":\"baseUri\",\"type\":\"string\",\"indexed\":false},{\"internalType\":\"address\",\"name\":\"caller\",\"type\":\"address\",\"indexed\":false}],\"type\":\"event\",\"name\":\"SetSvgBaseUri\",\"anonymous\":false},{\"inputs\":[{\"internalType\":\"uint256\",\"name\":\"tierId\",\"type\":\"uint256\",\"indexed\":true},{\"internalType\":\"bytes32\",\"name\":\"svgHash\",\"type\":\"bytes32\",\"indexed\":true},{\"internalType\":\"string\",\"name\":\"svgContents\",\"type\":\"string\",\"indexed\":false},{\"internalType\":\"address\",\"name\":\"caller\",\"type\":\"address\",\"indexed\":false}],\"type\":\"event\",\"name\":\"SetSvgContents\",\"anonymous\":false},{\"inputs\":[{\"internalType\":\"uint256\",\"name\":\"tierId\",\"type\":\"uint256\",\"indexed\":true},{\"internalType\":\"bytes32\",\"name\":\"svgHash\",\"type\":\"bytes32\",\"indexed\":true},{\"internalType\":\"address\",\"name\":\"caller\",\"type\":\"address\",\"indexed\":false}],\"type\":\"event\",\"name\":\"SetSvgHash\",\"anonymous\":false},{\"inputs\":[{\"internalType\":\"uint256\",\"name\":\"tierId\",\"type\":\"uint256\",\"indexed\":true},{\"internalType\":\"string\",\"name\":\"name\",\"type\":\"string\",\"indexed\":false},{\"internalType\":\"address\",\"name\":\"caller\",\"type\":\"address\",\"indexed\":false}],\"type\":\"event\",\"name\":\"SetTierName\",\"anonymous\":false},{\"inputs\":[{\"internalType\":\"uint256\",\"name\":\"tokenId\",\"type\":\"uint256\"},{\"internalType\":\"uint256\",\"name\":\"tierId\",\"type\":\"uint256\"},{\"internalType\":\"uint256\",\"name\":\"category\",\"type\":\"uint256\"}],\"stateMutability\":\"view\",\"type\":\"function\",\"name\":\"_nameOf\",\"outputs\":[{\"internalType\":\"string\",\"name\":\"\",\"type\":\"string\"}]},{\"inputs\":[{\"internalType\":\"uint256\",\"name\":\"nakedBannyId\",\"type\":\"uint256\"}],\"stateMutability\":\"view\",\"type\":\"function\",\"name\":\"assetIdsOf\",\"outputs\":[{\"internalType\":\"uint256\",\"name\":\"worldId\",\"type\":\"uint256\"},{\"internalType\":\"uint256[]\",\"name\":\"outfitIds\",\"type\":\"uint256[]\"}]},{\"inputs\":[{\"internalType\":\"address\",\"name\":\"hook\",\"type\":\"address\"},{\"internalType\":\"uint256\",\"name\":\"tokenId\",\"type\":\"uint256\"},{\"internalType\":\"bool\",\"name\":\"shouldBeDressed\",\"type\":\"bool\"},{\"internalType\":\"bool\",\"name\":\"shouldIncludeWorld\",\"type\":\"bool\"}],\"stateMutability\":\"view\",\"type\":\"function\",\"name\":\"bannySvgOf\",\"outputs\":[{\"internalType\":\"string\",\"name\":\"\",\"type\":\"string\"}]},{\"inputs\":[{\"internalType\":\"address\",\"name\":\"hook\",\"type\":\"address\"},{\"internalType\":\"uint256\",\"name\":\"nakedBannyId\",\"type\":\"uint256\"},{\"internalType\":\"uint256\",\"name\":\"worldId\",\"type\":\"uint256\"},{\"internalType\":\"uint256[]\",\"name\":\"outfitIds\",\"type\":\"uint256[]\"}],\"stateMutability\":\"nonpayable\",\"type\":\"function\",\"name\":\"decorateBannyWith\"},{\"inputs\":[{\"internalType\":\"address\",\"name\":\"forwarder\",\"type\":\"address\"}],\"stateMutability\":\"view\",\"type\":\"function\",\"name\":\"isTrustedForwarder\",\"outputs\":[{\"internalType\":\"bool\",\"name\":\"\",\"type\":\"bool\"}]},{\"inputs\":[{\"internalType\":\"address\",\"name\":\"hook\",\"type\":\"address\"},{\"internalType\":\"uint256\",\"name\":\"tokenId\",\"type\":\"uint256\"}],\"stateMutability\":\"view\",\"type\":\"function\",\"name\":\"nameOf\",\"outputs\":[{\"internalType\":\"string\",\"name\":\"\",\"type\":\"string\"}]},{\"inputs\":[],\"stateMutability\":\"view\",\"type\":\"function\",\"name\":\"owner\",\"outputs\":[{\"internalType\":\"address\",\"name\":\"\",\"type\":\"address\"}]},{\"inputs\":[],\"stateMutability\":\"nonpayable\",\"type\":\"function\",\"name\":\"renounceOwnership\"},{\"inputs\":[{\"internalType\":\"string\",\"name\":\"baseUri\",\"type\":\"string\"}],\"stateMutability\":\"nonpayable\",\"type\":\"function\",\"name\":\"setSvgBaseUriOf\"},{\"inputs\":[{\"internalType\":\"uint256\",\"name\":\"tierId\",\"type\":\"uint256\"},{\"internalType\":\"string\",\"name\":\"svgContents\",\"type\":\"string\"}],\"stateMutability\":\"nonpayable\",\"type\":\"function\",\"name\":\"setSvgContentsOf\"},{\"inputs\":[{\"internalType\":\"uint256\",\"name\":\"tierId\",\"type\":\"uint256\"},{\"internalType\":\"bytes32\",\"name\":\"svgHash\",\"type\":\"bytes32\"}],\"stateMutability\":\"nonpayable\",\"type\":\"function\",\"name\":\"setSvgHashOf\"},{\"inputs\":[{\"internalType\":\"uint256\",\"name\":\"tierId\",\"type\":\"uint256\"},{\"internalType\":\"string\",\"name\":\"name\",\"type\":\"string\"}],\"stateMutability\":\"nonpayable\",\"type\":\"function\",\"name\":\"setTierName\"},{\"inputs\":[],\"stateMutability\":\"view\",\"type\":\"function\",\"name\":\"svgBaseUri\",\"outputs\":[{\"internalType\":\"string\",\"name\":\"\",\"type\":\"string\"}]},{\"inputs\":[{\"internalType\":\"uint256\",\"name\":\"tierId\",\"type\":\"uint256\"}],\"stateMutability\":\"view\",\"type\":\"function\",\"name\":\"svgHashOf\",\"outputs\":[{\"internalType\":\"bytes32\",\"name\":\"\",\"type\":\"bytes32\"}]},{\"inputs\":[{\"internalType\":\"address\",\"name\":\"hook\",\"type\":\"address\"},{\"internalType\":\"uint256\",\"name\":\"tokenId\",\"type\":\"uint256\"}],\"stateMutability\":\"view\",\"type\":\"function\",\"name\":\"tokenUriOf\",\"outputs\":[{\"internalType\":\"string\",\"name\":\"\",\"type\":\"string\"}]},{\"inputs\":[{\"internalType\":\"address\",\"name\":\"newOwner\",\"type\":\"address\"}],\"stateMutability\":\"nonpayable\",\"type\":\"function\",\"name\":\"transferOwnership\"},{\"inputs\":[],\"stateMutability\":\"view\",\"type\":\"function\",\"name\":\"trustedForwarder\",\"outputs\":[{\"internalType\":\"address\",\"name\":\"\",\"type\":\"address\"}]}],\"devdoc\":{\"kind\":\"dev\",\"methods\":{\"assetIdsOf(uint256)\":{\"params\":{\"nakedBannyId\":\"The ID of the naked banny shows with the associated assets.\"},\"returns\":{\"outfitIds\":\"The outfits attached to the Naked Banny.\",\"worldId\":\"The world attached to the Naked Banny.\"}},\"bannySvgOf(address,uint256,bool,bool)\":{\"params\":{\"hook\":\"The hook storing the assets.\",\"tokenId\":\"The ID of the token to show. If the ID belongs to a Naked Banny, it will be shown with its current outfits in its current world.\"},\"returns\":{\"_0\":\"bannySvg The SVG.\"}},\"constructor\":{\"params\":{\"owner\":\"The owner allowed to add SVG files that correspond to tier IDs.\",\"trustedForwarder\":\"The trusted forwarder for the ERC2771Context.\"}},\"decorateBannyWith(address,uint256,uint256,uint256[])\":{\"details\":\"The caller must own the naked banny being dressed and all outfits being worn.\",\"params\":{\"hook\":\"The hook storing the assets.\",\"nakedBannyId\":\"The ID of the Naked Banny being dressed.\",\"outfitIds\":\"The IDs of the outfits that'll be associated with the specified banny. Only one outfit per outfit category allowed at a time and they must be passed in order.\",\"worldId\":\"The ID of the world that'll be associated with the specified banny.\"}},\"isTrustedForwarder(address)\":{\"details\":\"Indicates whether any particular address is the trusted forwarder.\"},\"owner()\":{\"details\":\"Returns the address of the current owner.\"},\"renounceOwnership()\":{\"details\":\"Leaves the contract without owner. It will not be possible to call `onlyOwner` functions. Can only be called by the current owner. NOTE: Renouncing ownership will leave the contract without an owner, thereby disabling any functionality that is only available to the owner.\"},\"setSvgContentsOf(uint256,string)\":{\"params\":{\"svgContents\":\"The svg contents being stored, not including the parent <svg></svg> element.\",\"tierId\":\"The ID of the tier having an SVG stored.\"}},\"setSvgHashOf(uint256,bytes32)\":{\"details\":\"This allows anyone to lazily upload the correct svg file.\",\"params\":{\"svgHash\":\"The svg hash being stored, not including the parent <svg></svg> element.\",\"tierId\":\"The ID of the tier having an SVG hash stored.\"}},\"setTierName(uint256,string)\":{\"params\":{\"name\":\"The name of the tier.\",\"tierId\":\"The ID of the tier having its name stored.\"}},\"tokenUriOf(address,uint256)\":{\"params\":{\"tokenId\":\"The ID of the token to show. If the ID belongs to a Naked Banny, it will be shown with its current outfits in its current world.\"},\"returns\":{\"_0\":\"tokenUri The URI representing the SVG.\"}},\"transferOwnership(address)\":{\"details\":\"Transfers ownership of the contract to a new account (`newOwner`). Can only be called by the current owner.\"},\"trustedForwarder()\":{\"details\":\"Returns the address of the trusted forwarder.\"}},\"version\":1},\"userdoc\":{\"kind\":\"user\",\"methods\":{\"_nameOf(uint256,uint256,uint256)\":{\"notice\":\"The name of each tier.\"},\"assetIdsOf(uint256)\":{\"notice\":\"The assets currently attached to each Naked Banny, owned by the naked Banny's owner.\"},\"bannySvgOf(address,uint256,bool,bool)\":{\"notice\":\"Returns the SVG showing a dressed Naked Banny.\"},\"decorateBannyWith(address,uint256,uint256,uint256[])\":{\"notice\":\"Dress your Naked Banny with outfits.\"},\"setSvgBaseUriOf(string)\":{\"notice\":\"Allows the owner of this contract to specify the base of the domain hosting the SVG files.\"},\"setSvgContentsOf(uint256,string)\":{\"notice\":\"The owner of this contract can store SVG files for tier IDs.\"},\"setSvgHashOf(uint256,bytes32)\":{\"notice\":\"Allows the owner of this contract to upload the hash of an svg file for a tierId.\"},\"setTierName(uint256,string)\":{\"notice\":\"Allows the owner to set the tier's name.\"},\"svgBaseUri()\":{\"notice\":\"The base of the domain hosting the SVG files that can be lazily uploaded to the contract.\"},\"svgHashOf(uint256)\":{\"notice\":\"The Naked Banny and outfit SVG hash files.\"},\"tokenUriOf(address,uint256)\":{\"notice\":\"Returns the SVG showing a dressed Naked Banny in a world.\"}},\"version\":1}},\"settings\":{\"remappings\":[\"@arbitrum/=node_modules/@arbitrum/\",\"@bananapus/=node_modules/@bananapus/\",\"@chainlink/=node_modules/@chainlink/\",\"@croptop/=node_modules/@croptop/\",\"@eth-optimism/=node_modules/@eth-optimism/\",\"@exhausted-pigeon/=node_modules/@exhausted-pigeon/\",\"@gnosis.pm/=node_modules/@gnosis.pm/\",\"@offchainlabs/=node_modules/@offchainlabs/\",\"@openzeppelin/=node_modules/@openzeppelin/\",\"@prb/=node_modules/@prb/\",\"@rev-net/=node_modules/@rev-net/\",\"@sphinx-labs/contracts/=node_modules/@sphinx-labs/contracts/contracts/foundry/\",\"@uniswap/=node_modules/@uniswap/\",\"base64-sol/=node_modules/base64-sol/\",\"base64/=lib/base64/\",\"ds-test/=lib/forge-std/lib/ds-test/src/\",\"forge-std/=lib/forge-std/src/\",\"hardhat/=node_modules/hardhat/\",\"solmate/=node_modules/solmate/\",\"sphinx-forge-std/=node_modules/sphinx-forge-std/\",\"sphinx-solmate/=node_modules/sphinx-solmate/\",\"sphinx/=lib/sphinx/packages/contracts/contracts/forge-std/src/\"],\"optimizer\":{\"enabled\":true,\"runs\":1000},\"metadata\":{\"bytecodeHash\":\"ipfs\"},\"compilationTarget\":{\"src/Banny721TokenUriResolver.sol\":\"Banny721TokenUriResolver\"},\"evmVersion\":\"paris\",\"libraries\":{},\"viaIR\":true},\"sources\":{\"lib/base64/base64.sol\":{\"keccak256\":\"0xa73959e6ef0b693e4423a562e612370160b934a75e618361ddd8c9c4b8ddbaaf\",\"urls\":[\"bzz-raw://17c12e16d8d66f3af15d8787920bd41ca6c1e7517a212a6b9cebd4b6d38f36fe\",\"dweb:/ipfs/QmcXMnZUXEz6LRKsm3CSvqdPboAzmezavi8bTg2dRxM2yE\"],\"license\":\"MIT\"},\"node_modules/@bananapus/721-hook/src/abstract/ERC721.sol\":{\"keccak256\":\"0xc25c7c60c88684adc3f7a49621d27866866a44a3f3796e63c9fcaba75fbb2e84\",\"urls\":[\"bzz-raw://713103b7a05402264493430cfcd7d85f1a241a2eb4756af53a370fa529ea07bf\",\"dweb:/ipfs/QmSXZfxCG1N9XheS1kLCNJZ9k6ZRq4GnAMY7MKFfbKLXmz\"],\"license\":\"MIT\"},\"node_modules/@bananapus/721-hook/src/interfaces/IJB721Hook.sol\":{\"keccak256\":\"0x6cc09b57796ce71a103adb88ee851a9e2f4b5dc42cf7e153371e5c2157c4444d\",\"urls\":[\"bzz-raw://a2d0518c1f6803ab197049839de78debdd97908aa0fc7e44c6742ee209587b46\",\"dweb:/ipfs/QmXzoxr3DNH3NpwvTmRJcwKXFwUZQzCbAeTVh4NZzJedb7\"],\"license\":\"MIT\"},\"node_modules/@bananapus/721-hook/src/interfaces/IJB721TiersHook.sol\":{\"keccak256\":\"0xae662e642cb039931f0cac1a73e3c6b6833cf5edb6c5e3d4864f37cb07791684\",\"urls\":[\"bzz-raw://0942d829b0ba82ececd6de9148c6f3e85c0ecf398d23358086434e31e792b68b\",\"dweb:/ipfs/QmPdtTtoawqq2yTHBhqfs72DVHAQ3dbrjDGnQ3NmkHzLer\"],\"license\":\"MIT\"},\"node_modules/@bananapus/721-hook/src/interfaces/IJB721TiersHookStore.sol\":{\"keccak256\":\"0x8550e216c12c9cda865c1b1b0eb3f244aeaa8d465b197d4bd0dd8d4df265682e\",\"urls\":[\"bzz-raw://674a312f1eaffd7c6b21f58f8d4a628104e71220daf48a22237fa3bd035ddf21\",\"dweb:/ipfs/QmSRSW6cSwdpoGjVxDqiwJmJyCxfHWhCxZ2iaqeJcN2Ccy\"],\"license\":\"MIT\"},\"node_modules/@bananapus/721-hook/src/interfaces/IJB721TokenUriResolver.sol\":{\"keccak256\":\"0xfa599167098f4459320ec4141a98a17b2dfffbce422baa27d8b4e4530f61ece1\",\"urls\":[\"bzz-raw://8b758b161f4c7b520b2c34b4d91e585e961b8f4ca278eebb91d791f7f2f45140\",\"dweb:/ipfs/QmcD9DF7NJ9QykQpT4KPzm4bs3fkjzukdAUWwdU6Atfw85\"],\"license\":\"MIT\"},\"node_modules/@bananapus/721-hook/src/libraries/JBIpfsDecoder.sol\":{\"keccak256\":\"0xb93ba562ac1fc9d3829be00e61f3a90f51df5661cf0f2c819a7f1d8ba19ec171\",\"urls\":[\"bzz-raw://fc9bc948fac8897d9720ef25b13d63c60b40a18aa1897dd1c657fc278c416b4f\",\"dweb:/ipfs/QmNtiJTALZW5zfyKVy7XG5GkqGgMrfkVvU4Auu4bb9cGQc\"],\"license\":\"MIT\"},\"node_modules/@bananapus/721-hook/src/structs/JB721InitTiersConfig.sol\":{\"keccak256\":\"0xfb78486cec94189d0ecf2050dc9cfc11245b426c73a0711a85bff1359d774307\",\"urls\":[\"bzz-raw://a8fa01f6e64dd204dbde07a60851e9a5a74e439e1411139ae16b7cf67d2a2692\",\"dweb:/ipfs/QmZAnHyfpKr3xr7NWHj5sGaCEEtG8RtmHhkRUJJvNauym5\"],\"license\":\"MIT\"},\"node_modules/@bananapus/721-hook/src/structs/JB721Tier.sol\":{\"keccak256\":\"0x2e267a8af02f125465cdda9308477346ae4a94b024c3b2c2a6af0c00027944dd\",\"urls\":[\"bzz-raw://367ccea2c8fa815d498d771d4367ef1ded718a76e89644102034bfe4a3636b82\",\"dweb:/ipfs/QmYiFFa6ei9wZBSSVUHfY2Cb35zCDVXvbmLcgLj2BTiC1u\"],\"license\":\"MIT\"},\"node_modules/@bananapus/721-hook/src/structs/JB721TierConfig.sol\":{\"keccak256\":\"0x2fa9c5c8cec182b854a656d3b284e9d5306be35ad3dc4da79d65dca12b804af0\",\"urls\":[\"bzz-raw://b443a5f70195a66145ea1dade04454ce9a3ff1209e1aaecf53c8a9909b294d79\",\"dweb:/ipfs/QmUDPFZ4L6XpV3zLQUNVchUvecD4XfddKz2S46BKek5XL1\"],\"license\":\"MIT\"},\"node_modules/@bananapus/721-hook/src/structs/JB721TiersHookFlags.sol\":{\"keccak256\":\"0x283d8429f31bd58875c056515aa42abd09c95362bd929e85cfc44a0d92585766\",\"urls\":[\"bzz-raw://9a580b89fe99d9f8e930c58a4d0d63a5ff7c01c79d210af01373d066c9e72ed6\",\"dweb:/ipfs/QmdY1eSGSoTjv4KSdsG4Tm5CzJN6iqk3qTRga5ZWNbejRz\"],\"license\":\"MIT\"},\"node_modules/@bananapus/721-hook/src/structs/JB721TiersMintReservesConfig.sol\":{\"keccak256\":\"0xab3b319dc4e736586ae595de194d93dcdfeba365bc7a54cf6c37e697f6074ad9\",\"urls\":[\"bzz-raw://a84ae2cf2e8c3e39e831dbb39a67a8eb43c78a6de6bb78b1be2e1f1e80c69efe\",\"dweb:/ipfs/QmboGXEMqsYTxc4a7oft9rggNU7ShWSa9yB4HFMVmzXCHz\"],\"license\":\"MIT\"},\"node_modules/@bananapus/core/src/enums/JBApprovalStatus.sol\":{\"keccak256\":\"0x61c69b6bac7d24b566d87cda23a77e4ca9cdb87200b106aba8534cb9a0973e33\",\"urls\":[\"bzz-raw://6a9ca7249de76f77a8252eefe6bd1b63d47952f25a2acfa2c8db967cdff4470c\",\"dweb:/ipfs/QmaxSxptRQNj8bNy96EreENmrnRWdKmhyihBcxyWzBX5BN\"],\"license\":\"MIT\"},\"node_modules/@bananapus/core/src/interfaces/IJBControlled.sol\":{\"keccak256\":\"0x79fb8de7b3f809f1c3c7189f578b7331ec4dfe3350151d5b50240ecb3a2a907b\",\"urls\":[\"bzz-raw://45c82240dd4f0e9aec00d0d86f6b44bdda231db098ebdac17e922771b3e6f342\",\"dweb:/ipfs/QmPUvT8HZeVenrZDpP14HsZofaXPJjih8UAd35rTg3tU7E\"],\"license\":\"MIT\"},\"node_modules/@bananapus/core/src/interfaces/IJBDirectory.sol\":{\"keccak256\":\"0xd15957cc32974cde4f9f194b92574df2ad8a7aeec049d947136ce3381f9145f6\",\"urls\":[\"bzz-raw://7543e5cbde75ff777b16067016ff9ac5e995752842f03662137eb4ef3fc3c868\",\"dweb:/ipfs/QmPJZAmqNKRcj1JQ4Kc9hExbMtPPzrRB5hZ787utCfBmXg\"],\"license\":\"MIT\"},\"node_modules/@bananapus/core/src/interfaces/IJBPayHook.sol\":{\"keccak256\":\"0xe24aa2ca52f7a5f24f24ccae101cfc94d0f76705b2d23222f87c7852f8be4267\",\"urls\":[\"bzz-raw://6888140e9a7d4156fd22635654d5d08e21819af8b0356b5415f37b75083b3eb9\",\"dweb:/ipfs/QmbuwBNhar7rEbRhTJPiyo5PVsfaM5nqLow9NAkHhyvjV5\"],\"license\":\"MIT\"},\"node_modules/@bananapus/core/src/interfaces/IJBPriceFeed.sol\":{\"keccak256\":\"0x4bd84c0f1a5d4729ed709bcddd43f4c50ec4a165ece79780af8dce482ed07d4a\",\"urls\":[\"bzz-raw://62bac4bfb6982fb002f620c77e5c445e62d50241a5aa64a07e51d929f5a42180\",\"dweb:/ipfs/QmWgJUDreVY2BuMX38a1iUUR5kNbMwGnKG3VvurB7oZtuM\"],\"license\":\"MIT\"},\"node_modules/@bananapus/core/src/interfaces/IJBPrices.sol\":{\"keccak256\":\"0x99525f31440b955742dce84ba57de9fc1221139b5367c1f834723bef9e13e6e1\",\"urls\":[\"bzz-raw://6fa03f0cd4ad87dd7cbae7bf7f54463450874291773c8f70f2c31ef2cae62bb0\",\"dweb:/ipfs/QmSPajPV5ismteJuB6Spzm9VmhTj2iS3eVrfpJC1Zuzg8n\"],\"license\":\"MIT\"},\"node_modules/@bananapus/core/src/interfaces/IJBProjects.sol\":{\"keccak256\":\"0x85539f72c5871c53a919edc7db78931155464e9e00fccd30079b17e75820ddb9\",\"urls\":[\"bzz-raw://505466dbfbdeec77f948ce065676897a5b4a74b70bb234c1053b893c4849f3a1\",\"dweb:/ipfs/QmYBpZQub3Mv19xsRWqvzgiQSBAp4UNaKcqWQ2wwH62H95\"],\"license\":\"MIT\"},\"node_modules/@bananapus/core/src/interfaces/IJBRulesetApprovalHook.sol\":{\"keccak256\":\"0x5e9f921a6aa5d9396a12bbc0a878c3f5e8ae0a4ce8a3abe0de12e300718838d7\",\"urls\":[\"bzz-raw://6c9f0610f5bbe07554a1bdc39041be1284c20d81d930bec1eee2d374b86e03f4\",\"dweb:/ipfs/QmPH57wBoPERwDWkBCcj9c5tEUdeeLNe2kv1oFM7cTKVrd\"],\"license\":\"MIT\"},\"node_modules/@bananapus/core/src/interfaces/IJBRulesets.sol\":{\"keccak256\":\"0xda1a9aef337cf9fede3f638ffa58aea2815b87fde0f79628834aa03af9f582d7\",\"urls\":[\"bzz-raw://7941690ba6d94500474978ff0f02ecc56335eae5937759878e25cc1ac30a8ecc\",\"dweb:/ipfs/QmZFc7wof6PzfBTkVyNkjaQrQbjc36CK4uC3Ee2vgihqyK\"],\"license\":\"MIT\"},\"node_modules/@bananapus/core/src/interfaces/IJBTokenUriResolver.sol\":{\"keccak256\":\"0xfa5cb00dcd6085d1ef912d071fe73c63f9478a2cd0f9d8bddaf659b6af2d0967\",\"urls\":[\"bzz-raw://282e4e7c342d65f77cde0e9a08fcaf20ef5cf379c7a48b639842c0ffd0b2afb8\",\"dweb:/ipfs/QmbnN3PEQeZaXdPLT75V1J79kMg7KqSMru37RHrL3z8Yf2\"],\"license\":\"MIT\"},\"node_modules/@bananapus/core/src/interfaces/terminal/IJBTerminal.sol\":{\"keccak256\":\"0x36f23bc27e56fa86d100281a75f5a6ce73f39f32e6a1667ce69f902da1d005ee\",\"urls\":[\"bzz-raw://e8ffa2e264fa12444799cb5706ca577034f3f8be9ff7a2f072981de6a61d706d\",\"dweb:/ipfs/QmR6gQDymvk8JQ77J8VxpFD1Hnxga4w7LLiRvAT3m4LG6T\"],\"license\":\"MIT\"},\"node_modules/@bananapus/core/src/structs/JBAccountingContext.sol\":{\"keccak256\":\"0x2907ff54d1e903cc7e0390dd88c3975884702dc2673642aacbe22b66560b56de\",\"urls\":[\"bzz-raw://a66a5381ce877b32f0e0058ceeaf843e9b6b2bc8af666c0c9f4a9d01091da004\",\"dweb:/ipfs/QmQynCetUr37dBkS1YwDS8evxuXGiqanW6THmeUxXtim8w\"],\"license\":\"MIT\"},\"node_modules/@bananapus/core/src/structs/JBAfterPayRecordedContext.sol\":{\"keccak256\":\"0xd26c3a774ff38be79064085970454fe2603a23a638c76270d5b1b3829206c3e8\",\"urls\":[\"bzz-raw://3b55dbe3bf1ef625b7ca04efab3de35406e6041d5b3d82c7265469c500e2b702\",\"dweb:/ipfs/QmUdBDo4Lt3mcsFcsXT2mqq3czFwZjQJFPLM89YA2VtD7k\"],\"license\":\"MIT\"},\"node_modules/@bananapus/core/src/structs/JBRuleset.sol\":{\"keccak256\":\"0x15b2bf3174d84846a91ccbf5a344dfb125b55ed9cf50102db8d6868844225189\",\"urls\":[\"bzz-raw://647416b025dbd941094db89cbc69f755c155bd6c87be3f322394ccc4a8e0442d\",\"dweb:/ipfs/QmTCL9xcHnxQ4t5AmCPoZvXDUPW5xhzhyyXYbkMdyg44au\"],\"license\":\"MIT\"},\"node_modules/@bananapus/core/src/structs/JBTokenAmount.sol\":{\"keccak256\":\"0x5cf0626b73a596c1e2da17c89ae039a7c0374310b060d48568d3b6c11fbe6180\",\"urls\":[\"bzz-raw://63348b50be95e2995409394a17caffc563a646f0972650a1230bf864fbd3219b\",\"dweb:/ipfs/QmZXZpS3SbFD5nWaCauf6AqbEhLURv5qsKHpThBvQgDU6u\"],\"license\":\"MIT\"},\"node_modules/@openzeppelin/contracts/access/Ownable.sol\":{\"keccak256\":\"0xff6d0bb2e285473e5311d9d3caacb525ae3538a80758c10649a4d61029b017bb\",\"urls\":[\"bzz-raw://8ed324d3920bb545059d66ab97d43e43ee85fd3bd52e03e401f020afb0b120f6\",\"dweb:/ipfs/QmfEckWLmZkDDcoWrkEvMWhms66xwTLff9DDhegYpvHo1a\"],\"license\":\"MIT\"},\"node_modules/@openzeppelin/contracts/interfaces/draft-IERC6093.sol\":{\"keccak256\":\"0x60c65f701957fdd6faea1acb0bb45825791d473693ed9ecb34726fdfaa849dd7\",\"urls\":[\"bzz-raw://ea290300e0efc4d901244949dc4d877fd46e6c5e43dc2b26620e8efab3ab803f\",\"dweb:/ipfs/QmcLLJppxKeJWqHxE2CUkcfhuRTgHSn8J4kijcLa5MYhSt\"],\"license\":\"MIT\"},\"node_modules/@openzeppelin/contracts/metatx/ERC2771Context.sol\":{\"keccak256\":\"0x98256cf37b71a69b2f5a8a6fe975ea03590dff703102bd141a830f94e8adebf6\",\"urls\":[\"bzz-raw://6251fe1f6a1e45e6d619d150c123afc88b8646b38ee26a136efa9a6988a31d3f\",\"dweb:/ipfs/QmeXDT85wSZdP31wkz3ah3KhponCiksJLP5o2LR5e1JxcK\"],\"license\":\"MIT\"},\"node_modules/@openzeppelin/contracts/token/ERC721/IERC721.sol\":{\"keccak256\":\"0x5ef46daa3b58ef2702279d514780316efaa952915ee1aa3396f041ee2982b0b4\",\"urls\":[\"bzz-raw://2f8f2a76e23b02fc69e8cd24c3cb47da6c7af3a2d6c3a382f8ac25c6e094ade7\",\"dweb:/ipfs/QmPV4ZS4tPVv4mTCf9ejyZ1ai57EEibDRj7mN2ARDCLV5n\"],\"license\":\"MIT\"},\"node_modules/@openzeppelin/contracts/token/ERC721/IERC721Receiver.sol\":{\"keccak256\":\"0x7f7a26306c79a65fb8b3b6c757cd74660c532cd8a02e165488e30027dd34ca49\",\"urls\":[\"bzz-raw://d01e0b2b837ee2f628545e54d8715b49c7ef2befd08356c2e7f6c50dde8a1c22\",\"dweb:/ipfs/QmWBAn6y2D1xgftci97Z3qR9tQnkvwQpYwFwkTvDMvqU4i\"],\"license\":\"MIT\"},\"node_modules/@openzeppelin/contracts/token/ERC721/extensions/IERC721Metadata.sol\":{\"keccak256\":\"0x37d1aaaa5a2908a09e9dcf56a26ddf762ecf295afb5964695937344fc6802ce1\",\"urls\":[\"bzz-raw://ed0bfc1b92153c5000e50f4021367b931bbe96372ac6facec3c4961b72053d02\",\"dweb:/ipfs/Qmbwp8VDerjS5SV1quwHH1oMXxPQ93fzfLVqJ2RCqbowGE\"],\"license\":\"MIT\"},\"node_modules/@openzeppelin/contracts/utils/Context.sol\":{\"keccak256\":\"0x493033a8d1b176a037b2cc6a04dad01a5c157722049bbecf632ca876224dd4b2\",\"urls\":[\"bzz-raw://6a708e8a5bdb1011c2c381c9a5cfd8a9a956d7d0a9dc1bd8bcdaf52f76ef2f12\",\"dweb:/ipfs/Qmax9WHBnVsZP46ZxEMNRQpLQnrdE4dK8LehML1Py8FowF\"],\"license\":\"MIT\"},\"node_modules/@openzeppelin/contracts/utils/Strings.sol\":{\"keccak256\":\"0x55f102ea785d8399c0e58d1108e2d289506dde18abc6db1b7f68c1f9f9bc5792\",\"urls\":[\"bzz-raw://6e52e0a7765c943ef14e5bcf11e46e6139fa044be564881378349236bf2e3453\",\"dweb:/ipfs/QmZEeeXoFPW47amyP35gfzomF9DixqqTEPwzBakv6cZw6i\"],\"license\":\"MIT\"},\"node_modules/@openzeppelin/contracts/utils/introspection/ERC165.sol\":{\"keccak256\":\"0x9e8778b14317ba9e256c30a76fd6c32b960af621987f56069e1e819c77c6a133\",\"urls\":[\"bzz-raw://1777404f1dcd0fac188e55a288724ec3c67b45288e49cc64723e95e702b49ab8\",\"dweb:/ipfs/QmZFdC626GButBApwDUvvTnUzdinevC3B24d7yyh57XkiA\"],\"license\":\"MIT\"},\"node_modules/@openzeppelin/contracts/utils/introspection/IERC165.sol\":{\"keccak256\":\"0x4296879f55019b23e135000eb36896057e7101fb7fb859c5ef690cf14643757b\",\"urls\":[\"bzz-raw://87b3541437c8c443ccd36795e56a338ed12855eec17f8da624511b8d1a7e14df\",\"dweb:/ipfs/QmeJQCtZrQjtJLr6u7ZHWeH3pBnjtLWzvRrKViAi7UZqxL\"],\"license\":\"MIT\"},\"node_modules/@openzeppelin/contracts/utils/math/Math.sol\":{\"keccak256\":\"0x005ec64c6313f0555d59e278f9a7a5ab2db5bdc72a027f255a37c327af1ec02d\",\"urls\":[\"bzz-raw://4ece9f0b9c8daca08c76b6b5405a6446b6f73b3a15fab7ff56e296cbd4a2c875\",\"dweb:/ipfs/QmQyRpyPRL5SQuAgj6SHmbir3foX65FJjbVTTQrA2EFg6L\"],\"license\":\"MIT\"},\"node_modules/@openzeppelin/contracts/utils/math/SignedMath.sol\":{\"keccak256\":\"0x5f7e4076e175393767754387c962926577f1660dd9b810187b9002407656be72\",\"urls\":[\"bzz-raw://7d533a1c97cd43a57cd9c465f7ee8dd0e39ae93a8fb8ff8e5303a356b081cdcc\",\"dweb:/ipfs/QmVBEei6aTnvYNZp2CHYVNKyZS4q1KkjANfY39WVXZXVoT\"],\"license\":\"MIT\"},\"src/Banny721TokenUriResolver.sol\":{\"keccak256\":\"0x0cb44b67da86db93fa16a0972411beca46e7356771e9b78effc3f9888f996fa1\",\"urls\":[\"bzz-raw://d6a33003b967730262182e47e03aee436296892fa0767645f22201c8ad4aa825\",\"dweb:/ipfs/QmR4UxDrVfuQip1YpLbtUDypyLGmkFw2ibrpxVLNMoKTij\"],\"license\":\"MIT\"}},\"version\":1}",
			"args": [
				"0x817738DC393d682Ca5fBb268707b99F2aAe96baE",
				"0xB2b5841DBeF766d4b521221732F9B618fCf34A87"
			],
			"bytecode": "0x60a034620000e957601f62005dba38819003918201601f19168301916001600160401b03831184841017620000ee578084926040948552833981010312620000e9576200005a6020620000528362000104565b920162000104565b6080526001600160a01b039081168015620000d057600080546001600160a01b03198116831782556040519316907f8be0079c531659141344cd1fd0a4f28419497f9722a3daafe3b4186f6b6457e09080a3615ca090816200011a8239608051818181610595015281816107530152615c1b0152f35b604051631e4fbdf760e01b815260006004820152602490fd5b600080fd5b634e487b7160e01b600052604160045260246000fd5b51906001600160a01b0382168203620000e95756fe6080604052600436101561001257600080fd5b60003560e01c806257bfdd146101265780631e4578de14610121578063572b6c051461011c5780635e703e711461011757806366c6e390146101125780636aff31dd1461010d578063715018a6146101085780637da0a877146101035780638d4edce3146100fe5780638da5cb5b146100f9578063a34031ed146100f4578063aeac5e35146100ef578063c06e7bc7146100ea578063f2fde38b146100e5578063f5dac0b3146100e0578063f92df2e3146100db5763fff628c6146100d657600080fd5b610db3565b610d84565b610c13565b610b63565b610af6565b6109d6565b61093e565b610917565b6107a5565b610733565b6106c9565b61069d565b610625565b6105bc565b610566565b61048d565b610412565b90600182811c9216801561015b575b602083101461014557565b634e487b7160e01b600052602260045260246000fd5b91607f169161013a565b634e487b7160e01b600052604160045260246000fd5b6020810190811067ffffffffffffffff82111761019757604052565b610165565b6110c0810190811067ffffffffffffffff82111761019757604052565b6060810190811067ffffffffffffffff82111761019757604052565b6101c0810190811067ffffffffffffffff82111761019757604052565b610260810190811067ffffffffffffffff82111761019757604052565b6040810190811067ffffffffffffffff82111761019757604052565b90601f8019910116810190811067ffffffffffffffff82111761019757604052565b60405190600082600254916102618361012b565b808352926020906001908181169081156102ef575060011461028e575b505061028c9250038361022b565b565b91509260026000527f405787fa12a823e0f2b7631cc41b3ba8828b3321ca811111fa75cd3aa3bb5ace936000925b8284106102d7575061028c945050508101602001388061027e565b855488850183015294850194879450928101926102bc565b9150506020925061028c94915060ff191682840152151560051b820101388061027e565b906040519182600082546103268161012b565b908184526020946001916001811690816000146103945750600114610355575b50505061028c9250038361022b565b600090815285812095935091905b81831061037c57505061028c9350820101388080610346565b85548884018501529485019487945091830191610363565b9250505061028c94925060ff191682840152151560051b820101388080610346565b60005b8381106103c95750506000910152565b81810151838201526020016103b9565b906020916103f2815180928185528580860191016103b6565b601f01601f1916010190565b90602061040f9281815201906103d9565b90565b346104465760003660031901126104465761044261042e61024d565b6040519182916020835260208301906103d9565b0390f35b600080fd5b604081019181526060602091604060208201528151809452019160809160005b828110610479575050505090565b83518552938101939281019260010161046b565b346104465760208060031936011261044657600435906000918083526005602052604083209060405180938491602085549182815201948752602087209187905b82821061053b57505050506104e8906104f893038461022b565b6000526006602052604060002090565b5491815191815b8381106105145760405180610442878261044b565b8061052160019284610e33565b5161053461052e86610e5d565b95610e0e565b52016104ff565b8354875295860195879450600193840193909101906104ce565b6001600160a01b0381160361044657565b3461044657602036600319011261044657602060043561058581610555565b6001600160a01b039060405191807f0000000000000000000000000000000000000000000000000000000000000000169116148152f35b346104465760403660031901126104465761044261042e6004356105df81610555565b60243590611110565b604051906101a0820182811067ffffffffffffffff82111761019757604052565b67ffffffffffffffff811161019757601f01601f191660200190565b346104465760403660031901126104465760243567ffffffffffffffff8111610446573660238201121561044657806004013561066181610609565b9061066f604051928361022b565b808252366024828501011161044657602081600092602461069b96018386013783010152600435611528565b005b346104465760203660031901126104465760043560005260016020526020604060002054604051908152f35b3461044657600080600319360112610730576106e36146dd565b806001600160a01b03815473ffffffffffffffffffffffffffffffffffffffff1981168355167f8be0079c531659141344cd1fd0a4f28419497f9722a3daafe3b4186f6b6457e08280a380f35b80fd5b346104465760003660031901126104465760206040516001600160a01b037f0000000000000000000000000000000000000000000000000000000000000000168152f35b9181601f840112156104465782359167ffffffffffffffff8311610446576020838186019501011161044657565b34610446576020806003193601126104465767ffffffffffffffff600435818111610446576107d8903690600401610777565b90916107e26146dd565b8111610197576107fc816107f760025461012b565b611689565b600092601f8211600114610873575061084e81807f512c3c91736f50c57a0548c1d01ab02f24c420f002b8b20e2bfe63df9693cd3f95600091610868575b508160011b916000199060031b1c19161790565b6002555b61086360405192839233918461181a565b0390a1005b90508401353861083a565b6002600052601f198216937f405787fa12a823e0f2b7631cc41b3ba8828b3321ca811111fa75cd3aa3bb5ace9181905b8682106108ff575050827f512c3c91736f50c57a0548c1d01ab02f24c420f002b8b20e2bfe63df9693cd3f95106108e5575b5050600181811b01600255610852565b830135600019600384901b60f8161c1916905538806108d5565b806001849582949589013581550194019201906108a3565b346104465760003660031901126104465760206001600160a01b0360005416604051908152f35b346104465760403660031901126104465760043560243561095d6146dd565b600091808352600160205260408320546109ac5780835260016020528160408420557fb10eb6fc7557a7109693cb8f3fac48d44328de56c0368ee4cac539b424d2cad96020604051338152a380f35b60046040517fcf7b506c000000000000000000000000000000000000000000000000000000008152fd5b34610446576040366003190112610446576004356109f381610555565b602435906001600160a01b0360405163507f146560e01b81526020816004818587165afa8015610ac057610a669360009386938593610ac5575b5060405180968195829463c44a8e6d60e01b84526004840160409060009294936001600160a01b03606083019616825260208201520152565b0392165afa918215610ac05761044292610a9192600091610a9d575b5061010081519101519161252d565b604051918291826103fe565b610aba91503d806000833e610ab2818361022b565b810190610eea565b38610a82565b610e86565b610ae891935060203d602011610aef575b610ae0818361022b565b810190610e71565b9138610a2d565b503d610ad6565b3461044657608036600319011261044657600435610b1381610555565b6064359067ffffffffffffffff908183116104465736602384011215610446578260040135918211610446573660248360051b8501011161044657602461069b93019060443590602435906119dd565b3461044657602036600319011261044657600435610b8081610555565b610b886146dd565b6001600160a01b038091168015610be25760009182548273ffffffffffffffffffffffffffffffffffffffff198216178455167f8be0079c531659141344cd1fd0a4f28419497f9722a3daafe3b4186f6b6457e08380a380f35b60246040517f1e4fbdf700000000000000000000000000000000000000000000000000000000815260006004820152fd5b34610446576040806003193601126104465760043560243567ffffffffffffffff811161044657610c48903690600401610777565b9190610c66610c61836000526004602052604060002090565b611f95565b610d5b57610c7e826000526001602052604060002090565b54928315610d32578385516020810190610cab81610c9d848789611f9f565b03601f19810183528261022b565b51902003610d0957610d04839495610cf88385610cf37f09b26657b7b690741d37bfcbbed1e373aa8a253d6b1412759967f8eb5b4d43a1986000526004602052604060002090565b61174b565b5192839233918461181a565b0390a3005b600485517f75b5da0b000000000000000000000000000000000000000000000000000000008152fd5b600485517f7ef41a4f000000000000000000000000000000000000000000000000000000008152fd5b600484517f0e2019dc000000000000000000000000000000000000000000000000000000008152fd5b346104465760603660031901126104465761044261042e60443560243560043561252d565b8015150361044657565b346104465760803660031901126104465761044261042e600435610dd681610555565b604435610de281610da9565b60643591610def83610da9565b60243590612990565b634e487b7160e01b600052603260045260246000fd5b606051811015610e215760051b60800190565b610df8565b805115610e215760200190565b8051821015610e215760209160051b010190565b634e487b7160e01b600052601160045260246000fd5b6000198114610e6c5760010190565b610e47565b90816020910312610446575161040f81610555565b6040513d6000823e3d90fd5b519061028c82610555565b519061028c82610da9565b81601f82011215610446578051610ebe81610609565b92610ecc604051948561022b565b818452602082840101116104465761040f91602080850191016103b6565b60208183031261044657805167ffffffffffffffff9182821161044657016101a08184031261044657610f1b6105e8565b92815184526020820151602085015260408201516040850152606082015160608501526080820151608085015260a082015160a0850152610f5e60c08301610e92565b60c085015260e082015160e08501526101008083015190850152610120610f86818401610e9d565b90850152610140610f98818401610e9d565b90850152610160610faa818401610e9d565b90850152610180928383015190811161044657610fc79201610ea8565b9082015290565b60405190610fdb8261017b565b60008252565b90610ff4602092828151948592016103b6565b0190565b90604051918260605160005b818110611039575090602061028c9361102d8294840191838301600081528151948592016103b6565b0103808552018361022b565b6020919250806080015182828801015201908491611004565b602061028c91939293604051948161107387935180928680870191016103b6565b820161102d825180938680850191016103b6565b9060208282031261044657815167ffffffffffffffff81116104465761040f9201610ea8565b90816020910312610446575190565b9061028c603d60405180947f646174613a6170706c69636174696f6e2f6a736f6e3b6261736536342c000000602083015261110081518092602086860191016103b6565b810103601d81018552018361022b565b906001600160a01b03918281169260409283519163507f146560e01b8084526020968785600481845afa948515610ac057600095611509575b50865163c44a8e6d60e01b81526001600160a01b03871660048201526024810185905260006044820181905290958690606490829087165afa948515610ac0576000956114ee575b508451156114de5761010085018051909390156114d4576111b3865188612bf4565b96875161149d575b87511561134057505050509461132f61130661133b96611262611291611262986112626112688a61123161040f9f6112026112189d61122c9f92611209935190519161252d565b92516143e1565b9488519c8d918d830190610fe1565b039b61122c601f199d8e810183528261022b565b6145c8565b96519c8d9a8b016009907f7b226e616d65223a22000000000000000000000000000000000000000000000081520190565b90610fe1565b7f222c20226964223a2022000000000000000000000000000000000000000000008152600a0190565b7f222c226465736372697074696f6e223a2241207069656365206f66207468652081527f42616e6e797665727365222c22696d616765223a22646174613a696d6167652f60208201527f7376672b786d6c3b6261736536342c00000000000000000000000000000000006040820152604f0190565b7f227d000000000000000000000000000000000000000000000000000000000000815260020190565b0390810183528261022b565b6110bc565b92965092600d919550511160001461148e5785517f6c0360eb000000000000000000000000000000000000000000000000000000008152600081600481885afa8015610ac057889160009161146b575b50955b600488518097819382525afa918215610ac0576113fe96889560009461144c575b50518097819582947fc8df171000000000000000000000000000000000000000000000000000000000845260048401602090939291936001600160a01b0360408201951681520152565b0392165afa918215610ac05761040f9360009361141d575b5050614314565b61143d929350803d10611445575b611435818361022b565b8101906110ad565b903880611416565b503d61142b565b611464919450863d8811610aef57610ae0818361022b565b92386113b4565b61148891503d806000833e611480818361022b565b810190611087565b38611390565b8661149761024d565b95611393565b966114b09060018651036114b657614201565b966111bb565b6114cf906114ca6114c5612d07565b61413b565b611052565b614201565b6114b0858861279f565b505050505050505061040f610fce565b61150291953d8091833e610ab2818361022b565b9338611191565b611521919550883d8a11610aef57610ae0818361022b565b9338611149565b906115316146dd565b816000526020600360205260406000209082519067ffffffffffffffff82116101975761156882611562855461012b565b856116ea565b602090601f83116001146115df5750916115be827fa67f37d9972d5f886682fb18abfea16db5777cc4d12c43e59dfee7e48663cb3895936115cf956000916115d457508160011b916000199060031b1c19161790565b90555b604051918291339083611724565b0390a2565b90508401513861083a565b90601f1983166115f485600052602060002090565b926000905b82821061165a575050926115cf9492600192827fa67f37d9972d5f886682fb18abfea16db5777cc4d12c43e59dfee7e48663cb38989610611641575b5050811b0190556115c1565b85015160001960f88460031b161c191690553880611635565b80600185968294968b015181550195019301906115f9565b81811061167d575050565b60008155600101611672565b90601f8211611696575050565b61028c9160026000527f405787fa12a823e0f2b7631cc41b3ba8828b3321ca811111fa75cd3aa3bb5ace906020601f840160051c830193106116e0575b601f0160051c0190611672565b90915081906116d3565b9190601f81116116f957505050565b61028c926000526020600020906020601f840160051c830193106116e057601f0160051c0190611672565b906001600160a01b036117446020929594956040855260408501906103d9565b9416910152565b90929167ffffffffffffffff8111610197576117718161176b845461012b565b846116ea565b6000601f82116001146117b25781906117a39394956000926117a7575b50508160011b916000199060031b1c19161790565b9055565b01359050388061178e565b601f198216946117c784600052602060002090565b91805b8781106118025750836001959697106117e8575b505050811b019055565b0135600019600384901b60f8161c191690553880806117de565b909260206001819286860135815501940191016117ca565b916060816001600160a01b039260209497969760408752816040880152838701376000828287010152601f80199101168401019416910152565b604051906101a0820182811067ffffffffffffffff82111761019757604052606061018083600080825280602083015280604083015280848301528060808301528060a08301528060c08301528060e08301528061010083015280610120830152806101408301526101608201520152565b9190811015610e215760051b0190565b908160021b917f3fffffffffffffffffffffffffffffffffffffffffffffffffffffffffffffff811603610e6c57565b9067ffffffffffffffff831161019757680100000000000000008311610197578154838355808410611962575b50906000526020806000209060005b848110611950575050505050565b83358382015592810192600101611942565b61197a90836000528460206000209182019101611672565b38611933565b9291909493948352606060208401528160608401527f07ffffffffffffffffffffffffffffffffffffffffffffffffffffffffffffff82116104465760806001600160a01b039160409360051b8091838701378401019416910152565b929093916001600160a01b0385818616956040928351907f6352211e000000000000000000000000000000000000000000000000000000009081835260209283818c8180611a3460049b8c83019190602083019252565b03915afa908115610ac057600091611f78575b508133911603611f50578615611f3957855182815283818c8180611a728d8c83019190602083019252565b03915afa908115610ac057600091611f1c575b508133911603611ef457855163507f146560e01b8152838187818e5afa8015610ac05788600091611af1938391611ed7575b5087858a8c519687958694859363c44a8e6d60e01b8552840160409060009294936001600160a01b03606083019616825260208201520152565b0392165afa908115610ac057600091611ebc575b505115611e945786611b218c6000526006602052604060002090565b559190915b600091611b31611854565b506000938492835b8d8d8810611ba257505050505050505050508291611b9d91611b91867f6a68946ba06488db8585d7c7637fa954b574035fe15720ea760125ef860172589796611b8c8b6000526005602052604060002090565b611906565b51938493339285611980565b0390a3565b611bd2858f8f93611bb88f928f96908e916118c6565b35948592518095819482938c845283019190602083019252565b03915afa908115610ac057600091611e77575b508333911603611e4f57898f86908d519283809263507f146560e01b82525afa918215610ac057611c55928b868f8f906000968795611e30575b50519687958694859363c44a8e6d60e01b8552840160409060009294936001600160a01b03606083019616825260208201520152565b0392165afa908115610ac057600091611e17575b50805115611def576101000195865160028110908115611de4575b50611dbc578715159081611db0575b50611d8857855160058103611cb3575050600180955b5196019594611b39565b9095949060098103611cca57505060018094611ca9565b989f9d9b999e9c9a98600681969296148015611d7e575b80611d77575b15611d1557508f8f517f54f653b3000000000000000000000000000000000000000000000000000000008152fd5b9d9f989a9c9e999b9d600a8114908115611d6c575b5080611d65575b611d3d57600190611ca9565b888a517f5e701b2b000000000000000000000000000000000000000000000000000000008152fd5b5084611d31565b600b91501438611d2a565b5086611ce7565b5060078114611ce1565b888a517ffb81d04a000000000000000000000000000000000000000000000000000000008152fd5b90508651111538611c93565b898b517fc89badbd000000000000000000000000000000000000000000000000000000008152fd5b600d91501138611c84565b898b517fa981203a000000000000000000000000000000000000000000000000000000008152fd5b611e2a913d8091833e610ab2818361022b565b38611c69565b611e489195508c8d3d10610aef57610ae0818361022b565b9338611c1f565b898b517f812a6989000000000000000000000000000000000000000000000000000000008152fd5b611e8e9150863d8811610aef57610ae0818361022b565b38611be5565b8486517f265ba879000000000000000000000000000000000000000000000000000000008152fd5b611ed191503d806000833e610ab2818361022b565b38611b05565b611eee9150873d8911610aef57610ae0818361022b565b38611ab7565b8486517f9d17cec7000000000000000000000000000000000000000000000000000000008152fd5b611f339150843d8611610aef57610ae0818361022b565b38611a85565b60008b815260066020526040812055919091611b26565b8486517f1f567c4c000000000000000000000000000000000000000000000000000000008152fd5b611f8f9150843d8611610aef57610ae0818361022b565b38611a47565b61040f905461012b565b908092918237016000815290565b602161028c919392936040519481611fcf8793518092602080870191016103b6565b82017f2000000000000000000000000000000000000000000000000000000000000000602082015261200a82518093602087850191016103b6565b0103600181018552018361022b565b9061028c602960405180947f546f7070696e673a200000000000000000000000000000000000000000000000602083015261205d81518092602086860191016103b6565b810103600981018552018361022b565b9061028c602660405180947f466973743a20000000000000000000000000000000000000000000000000000060208301526120b181518092602086860191016103b6565b810103600681018552018361022b565b9061028c602d60405180947f5375697420626f74746f6d3a2000000000000000000000000000000000000000602083015261210581518092602086860191016103b6565b810103600d81018552018361022b565b9061028c602a60405180947f5375697420746f703a2000000000000000000000000000000000000000000000602083015261215981518092602086860191016103b6565b810103600a81018552018361022b565b9061028c602660405180947f537569743a20000000000000000000000000000000000000000000000000000060208301526120b181518092602086860191016103b6565b9061028c602a60405180947f48656164676561723a2000000000000000000000000000000000000000000000602083015261215981518092602086860191016103b6565b9061028c602760405180947f4d6f7574683a2000000000000000000000000000000000000000000000000000602083015261223581518092602086860191016103b6565b810103600781018552018361022b565b9061028c602660405180947f457965733a20000000000000000000000000000000000000000000000000000060208301526120b181518092602086860191016103b6565b9061028c602660405180947f466163653a20000000000000000000000000000000000000000000000000000060208301526120b181518092602086860191016103b6565b9061028c602a60405180947f4e65636b6c6163653a2000000000000000000000000000000000000000000000602083015261215981518092602086860191016103b6565b9061028c602660405180947f4c6567733a20000000000000000000000000000000000000000000000000000060208301526120b181518092602086860191016103b6565b9061028c602a60405180947f4261636b736964653a2000000000000000000000000000000000000000000000602083015261215981518092602086860191016103b6565b9061028c602760405180947f576f726c643a2000000000000000000000000000000000000000000000000000602083015261223581518092602086860191016103b6565b9061028c603560405180947f4f726967696e616c204e616b65642042616e6e79200000000000000000000000602083015261242181518092602086860191016103b6565b810103601581018552018361022b565b9061028c603360405180947f4f72616e6765204e616b65642042616e6e792000000000000000000000000000602083015261247581518092602086860191016103b6565b810103601381018552018361022b565b9061028c603160405180947f50696e6b204e616b65642042616e6e792000000000000000000000000000000060208301526124c981518092602086860191016103b6565b810103601181018552018361022b565b9061028c603260405180947f416c69656e204e616b65642042616e6e79200000000000000000000000000000602083015261251d81518092602086860191016103b6565b810103601281018552018361022b565b906001810361254a575061040f9150612545906143e1565b6124d9565b60028103612566575061040f9150612561906143e1565b612485565b60038103612582575061040f915061257d906143e1565b612431565b6004810361259e575061040f9150612599906143e1565b6123dd565b6125b56125ba916000526003602052604060002090565b610313565b80516126bd57506125ca906143e1565b905b600181036125de575061040f90612399565b600281036125f0575061040f90612355565b60038103612602575061040f90612311565b60048103612614575061040f906122cd565b60058103612626575061040f90612289565b60068103612638575061040f90612245565b6007810361264a575061040f906121f1565b6008810361265c575061040f906121ad565b6009810361266e575061040f90612169565b600a8103612680575061040f90612115565b600b8103612692575061040f906120c1565b600c81036126a4575061040f9061206d565b600d146126b4575061040f610fce565b61040f90612019565b6126c96126cf926143e1565b90611fad565b906125cc565b67ffffffffffffffff81116101975760051b60200190565b919060408382031261044657825192602090818101519067ffffffffffffffff821161044657019180601f8401121561044657825161272b816126d5565b93612739604051958661022b565b818552838086019260051b820101928311610446578301905b828210612760575050505090565b81518152908301908301612752565b3d1561279a573d9061278082610609565b9161278e604051938461022b565b82523d6000602084013e565b606090565b60405163507f146560e01b8152906001600160a01b036020836004818585165afa928315610ac05760009361296c575b506000906040519384809263c44a8e6d60e01b82528161280f89886004840160409060009294936001600160a01b03606083019616825260208201520152565b0392165afa918215610ac057600092612951575b5081511561294657606061010083015161291f57604051630f22bc6f60e11b8152600481019490945261040f936128ac929082906000908181602481305afa90816000916000936128f8575b506128ea575050906128a49161288361276f565b505b801515806128e2575b6128c8575b5061289e8651614736565b90611052565b935190615135565b80516128b9575b50614201565b6128c291611052565b386128b3565b6128dc91506128d79084612bf4565b610ff8565b38612893565b50600161288e565b9094506128a4929150612885565b90925061291891503d806000833e612910818361022b565b8101906126ed565b913861286f565b509061292d92505190612bf4565b80511561293d5761040f90614201565b5061040f610fce565b50505061040f610fce565b61296591923d8091833e610ab2818361022b565b9038612823565b60009193506129899060203d602011610aef57610ae0818361022b565b92906127cf565b926001600160a01b03916040519263507f146560e01b8452602084600481848a165afa938415610ac057600094612b55575b506000906040519485809263c44a8e6d60e01b825281612a02878c6004840160409060009294936001600160a01b03606083019616825260208201520152565b0392165afa928315610ac057600093612b3a575b50825115612b2d57606094610100840151612b1d5761040f956000612a576000839560405180938192630f22bc6f60e11b8352600483019190602083019252565b0381305afa9081600091600093612afe575b50612aee575050612a9b929394612a7e61276f565b505b8115159081612ae6575b50612ad1575b5061289e8551614736565b93612aa9575b505050614201565b612ab4925190615135565b8051612ac2575b8080612aa1565b612acb91611052565b38612abb565b612ae091506128d79084612bf4565b38612a90565b905038612a8a565b909150612a9b9394509094612a80565b909250612b1691503d806000833e612910818361022b565b9138612a69565b9350505061292d92505190612bf4565b505050505061040f610fce565b612b4e91933d8091833e610ab2818361022b565b9138612a16565b6000919450612b729060203d602011610aef57610ae0818361022b565b93906129c2565b9061028c605660405180947f3c673e3c696d61676520786c696e6b3a687265663d22000000000000000000006020830152612bbe8151809260206036860191016103b6565b81017f222077696474683d2234303022206865696768743d22343030222f3e3c2f673e603682015203603681018552018361022b565b612c0b6125b5836000526004602052604060002090565b8051612d01575060405163507f146560e01b81526001600160a01b039260209283836004818489165afa908115610ac057612c96958594600093612ce2575b506040518097819582947fbd51923c00000000000000000000000000000000000000000000000000000000845260048401602090939291936001600160a01b0360408201951681520152565b0392165afa8015610ac05761040f92612cc092600092612cc5575b5050612cbb61024d565b614314565b612b79565b612cdb9250803d1061144557611435818361022b565b3880612cb1565b612cfa919350853d8711610aef57610ae0818361022b565b9138612c4a565b91505090565b60405190612d148261019c565b6110818252601f60f91b6110a0837f3c6720636c6173733d226131223e3c7061746820643d224d313733203533683460208201527f763137682d347a222f3e3c2f673e3c6720636c6173733d226132223e3c70617460408201527f6820643d224d3136372035376833763130682d337a222f3e3c7061746820643d60608201527f224d3136392035336834763137682d347a222f3e3c2f673e3c6720636c61737360808201527f3d226133223e3c7061746820643d224d31363720353368337634682d337a222f60a08201527f3e3c7061746820643d224d3136332035376834763130682d347a222f3e3c706160c08201527f746820643d224d31363720363768337633682d337a222f3e3c2f673e3c67206360e08201527f6c6173733d226231223e3c7061746820643d224d32313320323533682d33762d6101008201527f332d33682d33762d372d33682d34762d3130682d33762d372d372d33682d33766101208201527f2d3733682d34762d3130682d33762d3130682d33762d37682d34762d37682d336101408201527f762d33682d33762d33682d3476313068347631306833763130683376336834766101608201527f37203320373020336833763768337632306834763768337633683376336834766101808201527f34683376336833762d332d347a222f3e3c7061746820643d224d3235332033306101a08201527f37762d34682d33762d33682d33762d33682d34762d34682d33762d33682d33766101c08201527f2d33682d34762d34682d33762d33682d33762d33682d34762d34682d33762d366101e08201527f682d33762d37682d3476313768347633683376336833203476346833763368336102008201527f76336834763468337633683376336834763468337633683376336834762d36686102208201527f2d347a222f3e3c2f673e3c6720636c6173733d226232223e3c7061746820643d6102408201527f224d32353020333130762d33682d33762d34682d34762d33682d33762d33682d6102608201527f33762d34682d34762d33682d33762d33682d33762d34682d37762d33682d33766102808201527f2d33682d34762d3137682d33762d33682d33762d34682d34762d33682d33762d6102a08201527f33682d33762d37682d34762d3230682d33762d37682d33762d37332d332d37686102c08201527f2d34762d33682d33762d3130682d33762d3130682d34563730682d33762d336c6102e08201527f2d332031303020332d313030763430682d33763130682d347636682d337631346103008201527f682d337633203133682d347634346834763136683376313468337631336834766103208201527f31306833763768337633683476336833763468337633683476336833763468336103408201527f76336834763368337637683776376836763368377633683776346831337633686103608201527f337633683130762d33682d337a6d2d3130332d3837762d31366833762d3130686103808201527f2d337636682d34763137682d337631306833762d3768347a222f3e3c706174686103a08201527f20643d224d3134332032333068347637682d347a6d3420313068337633682d336103c08201527f7a6d33203768337633682d337a6d33203668347634682d347a222f3e3c7061746103e08201527f6820643d224d31363320323537682d36763368337633683376346834762d342d6104008201527f33682d34762d337a222f3e3c2f673e3c6720636c6173733d226233223e3c70616104208201527f746820643d224d3134332031393776366834762d366836762d34346834762d316104408201527f366833762d31346833762d366834762d31306833563937682d377636682d33766104608201527f34682d337633682d347633682d3376342033682d3376332034682d34763130686104808201527f2d337631362034682d337634366833762d3668337a222f3e3c7061746820643d6104a08201527f224d313430203230336833763137682d337a222f3e3c7061746820643d224d316104c08201527f3337203232306833763130682d337a222f3e3c7061746820643d224d313533206104e08201527f323530682d33762d37682d33762d36682d34762d37682d3376313068337637686105008201527f347636683376346833762d377a6d2d3320313068337637682d337a222f3e3c706105208201527f61746820643d224d3134372032353768337633682d337a6d36203068347633686105408201527f2d347a222f3e3c7061746820643d224d31363020323633762d33682d337633206105608201527f376836762d37682d337a6d2d31302d3536763136682d337637683376313068336105808201527f763768347636683676346837762d342d33682d33762d3130682d34762d3133686105a08201527f2d33762d3134682d33762d3136682d34763130682d337a222f3e3c70617468206105c08201527f643d224d32343320333133762d33682d33762d33682d31302d33762d34682d376105e08201527f762d33682d37762d33682d36762d37682d37762d37682d33762d33682d34762d6106008201527f33682d33762d34682d33762d33682d34762d33682d33762d34682d33762d33686106208201527f2d34762d33682d33763130682d337633682d347633682d3376376833763768346106408201527f76366833763568347633683676336833763368342033763368332034763368336106608201527f20337634683130763368372037203376336831302033762d33683130762d33686106808201527f34762d34682d31347a222f3e3c2f673e3c6720636c6173733d226234223e3c706106a08201527f61746820643d224d3138332031333068347637682d347a222f3e3c70617468206106c08201527f643d224d3138302031323768337633682d337a6d2d32372d3468347637682d346106e08201527f7a222f3e3c7061746820643d224d3135372031313768337636682d337a222f3e6107008201527f3c7061746820643d224d3136302031313068337637682d337a222f3e3c7061746107208201527f6820643d224d3136332031303768347633682d347a6d2d3320383368337637686107408201527f2d337a222f3e3c7061746820643d224d3136332031383768347633682d347a6d6107608201527f3230203068377633682d377a222f3e3c7061746820643d224d313830203139306107808201527f68337633682d337a6d31302d3768337634682d337a222f3e3c7061746820643d6107a08201527f224d3139332031383768347636682d347a6d2d323020353368347637682d347a6107c08201527f222f3e3c7061746820643d224d3137372032343768337636682d337a222f3e3c6107e08201527f7061746820643d224d3138302032353368337637682d337a222f3e3c706174686108008201527f20643d224d3138332032363068377633682d377a222f3e3c7061746820643d226108208201527f4d3139302032363368337634682d337a6d302d323068337634682d337a222f3e6108408201527f3c7061746820643d224d3138372032343068337633682d337a222f3e3c7061746108608201527f6820643d224d3139302032333768337633682d337a6d313320323368347633686108808201527f2d347a222f3e3c7061746820643d224d3230372032363368337637682d337a226108a08201527f2f3e3c7061746820643d224d3231302032373068337633682d337a6d2d3130206108c08201527f3768337636682d337a222f3e3c7061746820643d224d323033203238336834766108e08201527f37682d347a222f3e3c7061746820643d224d3230372032393068367633682d366109008201527f7a222f3e3c2f673e3c6720636c6173733d226f223e3c7061746820643d224d316109208201527f3333203135376834763530682d347a6d302036336834763130682d347a6d32376109408201527f2d3136336833763130682d337a222f3e3c7061746820643d224d3136332035336109608201527f68347634682d347a222f3e3c7061746820643d224d31363720353068313076336109808201527f682d31307a222f3e3c7061746820643d224d3137372035336833763137682d336109a08201527f7a222f3e3c7061746820643d224d3137332037306834763237682d347a6d2d366109c08201527f20306833763237682d337a222f3e3c7061746820643d224d31363320363768346109e08201527f7633682d347a6d3020333068347633682d347a222f3e3c7061746820643d224d610a008201527f3136302031303068337633682d337a222f3e3c7061746820643d224d31353720610a208201527f31303368337634682d337a222f3e3c7061746820643d224d3135332031303768610a408201527f347633682d347a222f3e3c7061746820643d224d313530203131306833763368610a608201527f2d337a222f3e3c7061746820643d224d3134372031313368337637682d337a22610a808201527f2f3e3c7061746820643d224d3134332031323068347637682d347a222f3e3c70610aa08201527f61746820643d224d313430203132376833763130682d337a222f3e3c70617468610ac08201527f20643d224d313337203133376833763230682d337a6d35362d31306834763130610ae08201527f682d347a222f3e3c7061746820643d224d313930203131376833763130682d33610b008201527f7a222f3e3c7061746820643d224d3138372031313068337637682d337a222f3e610b208201527f3c7061746820643d224d3138332031303368347637682d347a222f3e3c706174610b408201527f6820643d224d3138302031303068337633682d337a222f3e3c7061746820643d610b608201527f224d31373720393768337633682d337a6d2d3430203130366833763137682d33610b808201527f7a6d302032376833763130682d337a6d313020333068337637682d337a222f3e610ba08201527f3c7061746820643d224d31353020323537762d34682d33762d36682d34762d37610bc08201527f682d3376313068337631306834762d3368337a222f3e3c7061746820643d224d610be08201527f3135302032353768337633682d337a222f3e3c7061746820643d224d31363320610c008201527f323733762d33682d36762d3130682d347637682d337633683376336834763768610c208201527f33762d3768337a222f3e3c7061746820643d224d313633203236376834763368610c408201527f2d347a222f3e3c7061746820643d224d31373020323537682d332d3476336834610c608201527f76376833762d31307a222f3e3c7061746820643d224d31353720323533683676610c808201527f34682d367a222f3e3c7061746820643d224d3135332032343768347636682d34610ca08201527f7a222f3e3c7061746820643d224d3135302032343068337637682d337a222f3e610cc08201527f3c7061746820643d224d313437203233306833763130682d337a6d3133203530610ce08201527f68337637682d337a222f3e3c7061746820643d224d3134332032323368347637610d008201527f682d347a222f3e3c7061746820643d224d313437203230376833763136682d33610d208201527f7a222f3e3c7061746820643d224d313530203139376833763130682d337a6d2d610d408201527f3130203068337636682d337a6d35302031313368377633682d377a6d32332031610d608201527f306831377633682d31377a222f3e3c7061746820643d224d3233302033323368610d808201527f31337634682d31337a222f3e3c7061746820643d224d32343320333230683130610da08201527f7633682d31307a222f3e3c7061746820643d224d323533203331376834763368610dc08201527f2d347a222f3e3c7061746820643d224d323537203330376833763130682d337a610de08201527f222f3e3c7061746820643d224d3235332033303368347634682d347a222f3e3c610e008201527f7061746820643d224d3235302033303068337633682d337a222f3e3c70617468610e208201527f20643d224d3234372032393768337633682d337a222f3e3c7061746820643d22610e408201527f4d3234332032393368347634682d347a222f3e3c7061746820643d224d323430610e608201527f2032393068337633682d337a222f3e3c7061746820643d224d32333720323837610e808201527f68337633682d337a222f3e3c7061746820643d224d3233332032383368347634610ea08201527f682d347a222f3e3c7061746820643d224d3233302032383068337633682d337a610ec08201527f222f3e3c7061746820643d224d3232372032373768337633682d337a222f3e3c610ee08201527f7061746820643d224d3232332032373368347634682d347a222f3e3c70617468610f008201527f20643d224d3232302032363768337636682d337a222f3e3c7061746820643d22610f208201527f4d3231372032363068337637682d337a222f3e3c7061746820643d224d323133610f408201527f2032353368347637682d347a222f3e3c7061746820643d224d32313020323437610f608201527f68337636682d337a222f3e3c7061746820643d224d3230372032333768337631610f808201527f30682d337a222f3e3c7061746820643d224d323033203232376834763130682d610fa08201527f347a6d2d343020363068347636682d347a6d323420323068337633682d337a22610fc08201527f2f3e3c7061746820643d224d3136372032393368337635682d337a6d31362031610fe08201527f3468347633682d347a222f3e3c7061746820643d224d313730203239386834766110008201527f33682d347a6d3130203668337633682d337a222f3e3c7061746820643d224d316110208201527f37342033303168367633682d367a6d323320313268367634682d367a222f3e3c6110408201527f7061746820643d224d323033203331376831307633682d31307a6d2d322d31306110608201527f37762d3733682d3476373368337631376833762d3137682d327a222f3e3c2f676110808201520152565b9061028c609a60405180947f3c7374796c653e2e6f7b66696c6c3a233830383038303b7d2e62327b66696c6c60208301527f3a6e6f6e653b7d2e62337b66696c6c3a6e6f6e653b7d2e62347b66696c6c3a6e60408301527f6f6e653b7d2e61317b66696c6c3a6e6f6e653b7d2e61327b66696c6c3a6e6f6e60608301527f653b7d2e61337b66696c6c3a6e6f6e653b7d3c2f7374796c653e00000000000060808301526141f181518092602086860191016103b6565b810103607a81018552018361022b565b9061028c60bb60405180947f3c7376672077696474683d2234303022206865696768743d223430302220766960208301527f6577426f783d223020302034303020343030222066696c6c3d226e6f6e65222060408301527f786d6c6e733d22687474703a2f2f7777772e77332e6f72672f323030302f737660608301527f67223e3c7374796c653e2e6f7b66696c6c3a233035303530353b7d2e777b666960808301527f6c6c3a236639663966393b7d3e3c2f7374796c653e000000000000000000000060a08301526142de81518092602060b5860191016103b6565b81017f3c2f7376673e000000000000000000000000000000000000000000000000000060b582015203609b81018552018361022b565b9061040f9061435e6040516020927f122000000000000000000000000000000000000000000000000000000000000084830152602282015260228152614359816101b9565b615476565b92604051938161437786935180928680870191016103b6565b820161438b825180938680850191016103b6565b0103808452018261022b565b6040516143a38161017b565b60008152906000368137565b906143b982610609565b6143c6604051918261022b565b82815280926143d7601f1991610609565b0190602036910137565b806000917a184f03e93ff9f4daa797ed6e38ed64bf6a1f01000000000000000080821015614524575b506d04ee2d6d415b85acef810000000080831015614515575b50662386f26fc1000080831015614506575b506305f5e100808310156144f7575b50612710808310156144e8575b5060648210156144d8575b600a809210156144ce575b600190816021614479600187016143af565b95860101905b61448b575b5050505090565b600019019083907f30313233343536373839616263646566000000000000000000000000000000008282061a8353049182156144c95791908261447f565b614484565b9160010191614467565b919060646002910491019161445c565b60049193920491019138614451565b60089193920491019138614444565b60109193920491019138614435565b60209193920491019138614423565b60409350810491503861440a565b6040519061453f826101b9565b604082527f6768696a6b6c6d6e6f707172737475767778797a303132333435363738392b2f6040837f4142434445464748494a4b4c4d4e4f505152535455565758595a61626364656660208201520152565b9060028201809211610e6c57565b9060208201809211610e6c57565b9060018201809211610e6c57565b91908201809211610e6c57565b80511561293d576145d7614532565b6145f36145ee6145e78451614591565b6003900490565b6118d6565b916146056146008461459f565b6143af565b92835280815182019060208501935b82821061468b5750505060039051068060011461466057600214614636575090565b7f3d0000000000000000000000000000000000000000000000000000000000000090600019015290565b507f3d3d00000000000000000000000000000000000000000000000000000000000090600119015290565b9091936004906003809401938451600190603f9082828260121c16880101518553828282600c1c16880101518386015382828260061c1688010151600286015316850101519082015301939190614614565b6001600160a01b038060005416816146f3615c11565b16036146fc5750565b602490614707615c11565b6040517f118cdaa700000000000000000000000000000000000000000000000000000000815291166004820152fd5b61473f9061594f565b9261474e969596929192612d07565b94604051978897602089017f3c7374796c653e2e62317b66696c6c3a2300000000000000000000000000000090528051908160318b019160200191614792926103b6565b8801603181017f3b7d2e62327b66696c6c3a230000000000000000000000000000000000000000905281519182603d830191602001916147d1926103b6565b01603d81017f3b7d2e62337b66696c6c3a23000000000000000000000000000000000000000090528151918260498301916020019161480f926103b6565b016049810161483d907f3b7d2e62347b66696c6c3a2300000000000000000000000000000000000000009052565b60550161484991610fe1565b7f3b7d2e61317b66696c6c3a2300000000000000000000000000000000000000008152600c0161487891610fe1565b7f3b7d2e61327b66696c6c3a2300000000000000000000000000000000000000008152600c016148a791610fe1565b7f3b7d2e61337b66696c6c3a2300000000000000000000000000000000000000008152600c016148d691610fe1565b7f3b7d3c2f7374796c653e000000000000000000000000000000000000000000008152600a0161490591610fe1565b03601f198101825261040f908261022b565b60405190610120820182811067ffffffffffffffff8211176101975760405260f982527f2d31306833762d376833762d33682d31307a222f3e3c2f673e00000000000000610100837f3c6720636c6173733d226f223e3c7061746820643d224d31383720333037762d60208201527f346833762d36682d33762d34682d34762d33682d33762d33682d37762d34682d60408201527f367634682d3476336834763237682d34763133682d33763130682d347637683460608201527f76336833203130203134762d33682d34762d34682d33762d33682d33762d336860808201527f2d34762d376834762d31306833762d376833762d336837762d33682d337a6d3160a08201527f36203130762d34682d36763137682d34763130682d337637683376336834203660c08201527f20342033203134762d33682d34762d34682d37762d33682d33762d33682d337660e08201520152565b60405190614a7a826101d5565b61019c82527f6820643d224d3139332031373068347633682d347a222f3e3c2f673e000000006101a0837f3c6720636c6173733d226f223e3c7061746820643d224d31393020313733682d60208201527f3337762d33682d3130762d34682d36763468337633682d33763468367633683160408201527f307634683337762d346833762d33682d33762d347a6d2d34302034682d33762d60608201527f34683376347a6d372033762d3368337633682d337a6d362030762d336834763360808201527f682d347a6d372030762d3368337633682d337a6d372030762d3368337633682d60a08201527f337a6d31302030682d34762d33683476337a222f3e3c7061746820643d224d3160c08201527f39302031373068337633682d337a222f3e3c7061746820643d224d313933203160e08201527f363668347634682d347a6d30203768347634682d347a222f3e3c2f673e3c67206101008201527f636c6173733d2277223e3c7061746820643d224d3133372031373068337633686101208201527f2d337a6d3130203368337634682d337a6d3130203468337633682d337a6d36206101408201527f3068347633682d347a6d37203068337633682d337a6d37203068337633682d336101608201527f7a6d36203068347633682d347a6d372d3468337634682d337a222f3e3c7061746101808201520152565b60405190610100820182811067ffffffffffffffff8211176101975760405260dd82527f746820643d224d3138302031343768337633682d337a222f3e3c2f673e00000060e0837f3c6720636c6173733d226f223e3c7061746820643d224d31373720313430763360208201527f6836763131683130762d31316834762d33682d32307a222f3e3c70617468206460408201527f3d224d31353320313430763368377638203368372033762d31316833762d336860608201527f2d32307a222f3e3c2f673e3c6720636c6173733d2277223e3c7061746820643d60808201527f224d3135332031343368377634682d377a222f3e3c7061746820643d224d313560a08201527f372031343768337633682d337a6d32302d3468367634682d367a222f3e3c706160c08201520152565b60405190614db1826101f2565b61023a82527f643d224d3139302031333768347633682d347a222f3e3c2f673e000000000000610240837f3c6720636c6173733d226f223e3c7061746820643d224d31393020313237683360208201527f7633682d337a6d3320313368347633682d347a6d2d3432203068367636682d3660408201527f7a222f3e3c7061746820643d224d3135312031333368337637682d337a6d313060608201527f203068367634682d367a222f3e3c7061746820643d224d31353720313337683160808201527f377636682d31377a6d332031336831347633682d31347a6d31372d313368377660a08201527f3136682d377a222f3e3c7061746820643d224d3138342031333768367636682d60c08201527f367a6d302031306831307636682d31307a222f3e3c7061746820643d224d313860e08201527f37203134336831307634682d31307a222f3e3c7061746820643d224d313930206101008201527f31343068337633682d337a6d2d362d313068337637682d337a222f3e3c7061746101208201527f6820643d224d3138372031333068367633682d367a6d2d3336203068313076336101408201527f682d31307a6d313620313368377637682d377a6d2d3130203068377637682d376101608201527f7a222f3e3c7061746820643d224d3136342031343768337633682d337a6d32396101808201527f2d323068347636682d347a222f3e3c7061746820643d224d31393420313333686101a08201527f337637682d337a222f3e3c2f673e3c6720636c6173733d2277223e3c706174686101c08201527f20643d224d3135342031333368377634682d377a222f3e3c7061746820643d226101e08201527f4d3135342031333768337633682d337a6d3130203668337634682d337a6d32306102008201527f203068337634682d337a6d332d313068377634682d377a222f3e3c70617468206102208201520152565b6040519060c0820182811067ffffffffffffffff8211176101975760405260818252601f60f91b60a0837f3c6720636c6173733d226f223e3c7061746820643d224d31383320313630762d60208201527f34682d32307634682d33763368337634683234762d37682d347a6d2d3133203360408201527f762d336831307633682d31307a222066696c6c3d2223616437316338222f3e3c60608201527f7061746820643d224d313730203136306831307633682d31307a222f3e3c2f6760808201520152565b82516060949391926000928392839260039284928392839290918681101561540557615160816145ad565b999897985b8a811061517a57505050505050505050505050565b818110156153f95761518c8184610e33565b51968c6001600160a01b0360409182519163507f146560e01b8352602091600491838584818486165afa928315610ac057615205968f959660009788966153da575b5050519687958694859363c44a8e6d60e01b8552840160409060009294936001600160a01b03606083019616825260208201520152565b0392165afa8015610ac057610100916000916153c1575b5001519a5b8b8a0361539257506001995b60048c810361536357505060019a5b6005818103615276575050506001965b8061525e575b50600101989798615165565b6001919e61289e61526f928f612bf4565b9d90615252565b81999299118061535b575b61528c575b5061524c565b90969095600680880361530f5750506001955b6007908082036152e0575050506001955b85806152d9575b806152d1575b6152c8575b38615286565b600197506152c2565b5087156152bd565b50866152b7565b9791971180615307575b156152b05795509c6152fe9061289e61506f565b9c6001956152b0565b5086156152ea565b8791971180615353575b1561529f57955060019e8f8614600014615341576153399061289e614da4565b9e5b9561529f565b61534d9061289e614c75565b9e61533b565b508615615319565b508815615281565b8c919c118061538a575b1561523c579a509d6153819061289e614a6d565b9d60019a61523c565b508b1561536d565b99898c11806153b9575b1561522d5799509d6153b09061289e614917565b9d60019961522d565b508a1561539c565b6153d4913d8091833e610ab2818361022b565b3861521c565b6153f1929650803d10610aef57610ae0818361022b565b9338806151ce565b60089996600097615221565b8099989798615165565b604051906105e0820182811067ffffffffffffffff82111761019757604052602e82526105c0366020840137565b90615447826126d5565b615454604051918261022b565b82815280926143d7601f19916126d5565b908151811015610e21570160200190565b908151156155b55761548661540f565b91600090600061549585610e26565b526001918151916000925b8084106154c657505050506154bc6154c19161040f9394615a93565b615ad6565b615b1d565b9091929461550f6155096155036154dd8987615465565b517fff000000000000000000000000000000000000000000000000000000000000001690565b60f81c90565b60ff1690565b9184925b60ff9089828916861015615574576001929161554861554261550961553b8a61554e96610e33565b5160ff1690565b60081b90565b906145bb565b61556b8b61556388603a958686061692610e33565b9060ff169052565b04930192615513565b50919594935050809691965b61558e5750600101926154a0565b9460ff6001603a926155ab83858b06166155638d86851690610e33565b0116950480615580565b905061040f614397565b604051906155cc8261020f565b600682527f66666539303000000000000000000000000000000000000000000000000000006020830152565b604051906156058261020f565b600682527f66666337303000000000000000000000000000000000000000000000000000006020830152565b6040519061563e8261020f565b600682527f66336136303300000000000000000000000000000000000000000000000000006020830152565b604051906156778261020f565b600682527f39363561316100000000000000000000000000000000000000000000000000006020830152565b604051906156b08261020f565b600682527f66663763303200000000000000000000000000000000000000000000000000006020830152565b604051906156e98261020f565b600682527f63333265306400000000000000000000000000000000000000000000000000006020830152565b604051906157228261020f565b600682527f66666438633500000000000000000000000000000000000000000000000000006020830152565b6040519061575b8261020f565b600682527f66663936613900000000000000000000000000000000000000000000000000006020830152565b604051906157948261020f565b600682527f66653538386200000000000000000000000000000000000000000000000000006020830152565b604051906157cd8261020f565b600682527f63393266343500000000000000000000000000000000000000000000000000006020830152565b604051906158068261020f565b600682527f36376437353700000000000000000000000000000000000000000000000000006020830152565b6040519061583f8261020f565b600682527f33306132323000000000000000000000000000000000000000000000000000006020830152565b604051906158788261020f565b600682527f32313761313500000000000000000000000000000000000000000000000000006020830152565b604051906158b18261020f565b600482527f6e6f6e65000000000000000000000000000000000000000000000000000000006020830152565b604051906158ea8261020f565b600682527f65343833656600000000000000000000000000000000000000000000000000006020830152565b604051906159238261020f565b600682527f64633266656600000000000000000000000000000000000000000000000000006020830152565b6001810361599657506159606157f9565b90615969615832565b9061597261586b565b9061597b6158a4565b906159846158dd565b9061598d615916565b9061040f615916565b600281036159dd57506159a7615715565b906159b061574e565b906159b9615787565b906159c26157c0565b906159cb615715565b906159d461574e565b9061040f615787565b60038103615a2457506159ee615631565b906159f76156a3565b90615a006156a3565b90615a096156dc565b90615a12615631565b90615a1b6156a3565b9061040f6156a3565b600414615a555760046040517f4c944ce8000000000000000000000000000000000000000000000000000000008152fd5b615a5d6155bf565b90615a666155f8565b90615a6f615631565b90615a7861566a565b90615a816155bf565b90615a8a6155f8565b9061040f615631565b9060ff80911690615aa38261543d565b9260005b838110615ab5575050505090565b8083615ac360019385610e33565b5116615acf8288610e33565b5201615aa7565b908151615ae28161543d565b9060005b818110615af4575090925050565b60019060ff615b0a600019838951030188610e33565b5116615b168286610e33565b5201615ae6565b8051615b2881610609565b91604090615b39604051948561022b565b828452615b4583610609565b60209190601f1901368684013760009260005b858110615b685750505050505090565b6001907fff00000000000000000000000000000000000000000000000000000000000000615bfc8451615b9a816101b9565b603a81527f31323334353637383941424344454647484a4b4c4d4e50515253545556575859888201527f5a6162636465666768696a6b6d6e6f707172737475767778797a0000000000008682015260ff615bf48589610e33565b511690615465565b5116861a615c0a828a615465565b5301615b58565b6001600160a01b037f000000000000000000000000000000000000000000000000000000000000000016331480615c5f575b15615c5b576013193601368111610e6c573560601c90565b3390565b506014361015615c4356fea26469706673582212202dc2803a53d9322e2f98a1565d0b49fa84d6d1e50d2e7790871fd78db48634b264736f6c63430008170033",
			"deployedBytecode": "0x6080604052600436101561001257600080fd5b60003560e01c806257bfdd146101265780631e4578de14610121578063572b6c051461011c5780635e703e711461011757806366c6e390146101125780636aff31dd1461010d578063715018a6146101085780637da0a877146101035780638d4edce3146100fe5780638da5cb5b146100f9578063a34031ed146100f4578063aeac5e35146100ef578063c06e7bc7146100ea578063f2fde38b146100e5578063f5dac0b3146100e0578063f92df2e3146100db5763fff628c6146100d657600080fd5b610db3565b610d84565b610c13565b610b63565b610af6565b6109d6565b61093e565b610917565b6107a5565b610733565b6106c9565b61069d565b610625565b6105bc565b610566565b61048d565b610412565b90600182811c9216801561015b575b602083101461014557565b634e487b7160e01b600052602260045260246000fd5b91607f169161013a565b634e487b7160e01b600052604160045260246000fd5b6020810190811067ffffffffffffffff82111761019757604052565b610165565b6110c0810190811067ffffffffffffffff82111761019757604052565b6060810190811067ffffffffffffffff82111761019757604052565b6101c0810190811067ffffffffffffffff82111761019757604052565b610260810190811067ffffffffffffffff82111761019757604052565b6040810190811067ffffffffffffffff82111761019757604052565b90601f8019910116810190811067ffffffffffffffff82111761019757604052565b60405190600082600254916102618361012b565b808352926020906001908181169081156102ef575060011461028e575b505061028c9250038361022b565b565b91509260026000527f405787fa12a823e0f2b7631cc41b3ba8828b3321ca811111fa75cd3aa3bb5ace936000925b8284106102d7575061028c945050508101602001388061027e565b855488850183015294850194879450928101926102bc565b9150506020925061028c94915060ff191682840152151560051b820101388061027e565b906040519182600082546103268161012b565b908184526020946001916001811690816000146103945750600114610355575b50505061028c9250038361022b565b600090815285812095935091905b81831061037c57505061028c9350820101388080610346565b85548884018501529485019487945091830191610363565b9250505061028c94925060ff191682840152151560051b820101388080610346565b60005b8381106103c95750506000910152565b81810151838201526020016103b9565b906020916103f2815180928185528580860191016103b6565b601f01601f1916010190565b90602061040f9281815201906103d9565b90565b346104465760003660031901126104465761044261042e61024d565b6040519182916020835260208301906103d9565b0390f35b600080fd5b604081019181526060602091604060208201528151809452019160809160005b828110610479575050505090565b83518552938101939281019260010161046b565b346104465760208060031936011261044657600435906000918083526005602052604083209060405180938491602085549182815201948752602087209187905b82821061053b57505050506104e8906104f893038461022b565b6000526006602052604060002090565b5491815191815b8381106105145760405180610442878261044b565b8061052160019284610e33565b5161053461052e86610e5d565b95610e0e565b52016104ff565b8354875295860195879450600193840193909101906104ce565b6001600160a01b0381160361044657565b3461044657602036600319011261044657602060043561058581610555565b6001600160a01b039060405191807f000000000000000000000000b2b5841dbef766d4b521221732f9b618fcf34a87169116148152f35b346104465760403660031901126104465761044261042e6004356105df81610555565b60243590611110565b604051906101a0820182811067ffffffffffffffff82111761019757604052565b67ffffffffffffffff811161019757601f01601f191660200190565b346104465760403660031901126104465760243567ffffffffffffffff8111610446573660238201121561044657806004013561066181610609565b9061066f604051928361022b565b808252366024828501011161044657602081600092602461069b96018386013783010152600435611528565b005b346104465760203660031901126104465760043560005260016020526020604060002054604051908152f35b3461044657600080600319360112610730576106e36146dd565b806001600160a01b03815473ffffffffffffffffffffffffffffffffffffffff1981168355167f8be0079c531659141344cd1fd0a4f28419497f9722a3daafe3b4186f6b6457e08280a380f35b80fd5b346104465760003660031901126104465760206040516001600160a01b037f000000000000000000000000b2b5841dbef766d4b521221732f9b618fcf34a87168152f35b9181601f840112156104465782359167ffffffffffffffff8311610446576020838186019501011161044657565b34610446576020806003193601126104465767ffffffffffffffff600435818111610446576107d8903690600401610777565b90916107e26146dd565b8111610197576107fc816107f760025461012b565b611689565b600092601f8211600114610873575061084e81807f512c3c91736f50c57a0548c1d01ab02f24c420f002b8b20e2bfe63df9693cd3f95600091610868575b508160011b916000199060031b1c19161790565b6002555b61086360405192839233918461181a565b0390a1005b90508401353861083a565b6002600052601f198216937f405787fa12a823e0f2b7631cc41b3ba8828b3321ca811111fa75cd3aa3bb5ace9181905b8682106108ff575050827f512c3c91736f50c57a0548c1d01ab02f24c420f002b8b20e2bfe63df9693cd3f95106108e5575b5050600181811b01600255610852565b830135600019600384901b60f8161c1916905538806108d5565b806001849582949589013581550194019201906108a3565b346104465760003660031901126104465760206001600160a01b0360005416604051908152f35b346104465760403660031901126104465760043560243561095d6146dd565b600091808352600160205260408320546109ac5780835260016020528160408420557fb10eb6fc7557a7109693cb8f3fac48d44328de56c0368ee4cac539b424d2cad96020604051338152a380f35b60046040517fcf7b506c000000000000000000000000000000000000000000000000000000008152fd5b34610446576040366003190112610446576004356109f381610555565b602435906001600160a01b0360405163507f146560e01b81526020816004818587165afa8015610ac057610a669360009386938593610ac5575b5060405180968195829463c44a8e6d60e01b84526004840160409060009294936001600160a01b03606083019616825260208201520152565b0392165afa918215610ac05761044292610a9192600091610a9d575b5061010081519101519161252d565b604051918291826103fe565b610aba91503d806000833e610ab2818361022b565b810190610eea565b38610a82565b610e86565b610ae891935060203d602011610aef575b610ae0818361022b565b810190610e71565b9138610a2d565b503d610ad6565b3461044657608036600319011261044657600435610b1381610555565b6064359067ffffffffffffffff908183116104465736602384011215610446578260040135918211610446573660248360051b8501011161044657602461069b93019060443590602435906119dd565b3461044657602036600319011261044657600435610b8081610555565b610b886146dd565b6001600160a01b038091168015610be25760009182548273ffffffffffffffffffffffffffffffffffffffff198216178455167f8be0079c531659141344cd1fd0a4f28419497f9722a3daafe3b4186f6b6457e08380a380f35b60246040517f1e4fbdf700000000000000000000000000000000000000000000000000000000815260006004820152fd5b34610446576040806003193601126104465760043560243567ffffffffffffffff811161044657610c48903690600401610777565b9190610c66610c61836000526004602052604060002090565b611f95565b610d5b57610c7e826000526001602052604060002090565b54928315610d32578385516020810190610cab81610c9d848789611f9f565b03601f19810183528261022b565b51902003610d0957610d04839495610cf88385610cf37f09b26657b7b690741d37bfcbbed1e373aa8a253d6b1412759967f8eb5b4d43a1986000526004602052604060002090565b61174b565b5192839233918461181a565b0390a3005b600485517f75b5da0b000000000000000000000000000000000000000000000000000000008152fd5b600485517f7ef41a4f000000000000000000000000000000000000000000000000000000008152fd5b600484517f0e2019dc000000000000000000000000000000000000000000000000000000008152fd5b346104465760603660031901126104465761044261042e60443560243560043561252d565b8015150361044657565b346104465760803660031901126104465761044261042e600435610dd681610555565b604435610de281610da9565b60643591610def83610da9565b60243590612990565b634e487b7160e01b600052603260045260246000fd5b606051811015610e215760051b60800190565b610df8565b805115610e215760200190565b8051821015610e215760209160051b010190565b634e487b7160e01b600052601160045260246000fd5b6000198114610e6c5760010190565b610e47565b90816020910312610446575161040f81610555565b6040513d6000823e3d90fd5b519061028c82610555565b519061028c82610da9565b81601f82011215610446578051610ebe81610609565b92610ecc604051948561022b565b818452602082840101116104465761040f91602080850191016103b6565b60208183031261044657805167ffffffffffffffff9182821161044657016101a08184031261044657610f1b6105e8565b92815184526020820151602085015260408201516040850152606082015160608501526080820151608085015260a082015160a0850152610f5e60c08301610e92565b60c085015260e082015160e08501526101008083015190850152610120610f86818401610e9d565b90850152610140610f98818401610e9d565b90850152610160610faa818401610e9d565b90850152610180928383015190811161044657610fc79201610ea8565b9082015290565b60405190610fdb8261017b565b60008252565b90610ff4602092828151948592016103b6565b0190565b90604051918260605160005b818110611039575090602061028c9361102d8294840191838301600081528151948592016103b6565b0103808552018361022b565b6020919250806080015182828801015201908491611004565b602061028c91939293604051948161107387935180928680870191016103b6565b820161102d825180938680850191016103b6565b9060208282031261044657815167ffffffffffffffff81116104465761040f9201610ea8565b90816020910312610446575190565b9061028c603d60405180947f646174613a6170706c69636174696f6e2f6a736f6e3b6261736536342c000000602083015261110081518092602086860191016103b6565b810103601d81018552018361022b565b906001600160a01b03918281169260409283519163507f146560e01b8084526020968785600481845afa948515610ac057600095611509575b50865163c44a8e6d60e01b81526001600160a01b03871660048201526024810185905260006044820181905290958690606490829087165afa948515610ac0576000956114ee575b508451156114de5761010085018051909390156114d4576111b3865188612bf4565b96875161149d575b87511561134057505050509461132f61130661133b96611262611291611262986112626112688a61123161040f9f6112026112189d61122c9f92611209935190519161252d565b92516143e1565b9488519c8d918d830190610fe1565b039b61122c601f199d8e810183528261022b565b6145c8565b96519c8d9a8b016009907f7b226e616d65223a22000000000000000000000000000000000000000000000081520190565b90610fe1565b7f222c20226964223a2022000000000000000000000000000000000000000000008152600a0190565b7f222c226465736372697074696f6e223a2241207069656365206f66207468652081527f42616e6e797665727365222c22696d616765223a22646174613a696d6167652f60208201527f7376672b786d6c3b6261736536342c00000000000000000000000000000000006040820152604f0190565b7f227d000000000000000000000000000000000000000000000000000000000000815260020190565b0390810183528261022b565b6110bc565b92965092600d919550511160001461148e5785517f6c0360eb000000000000000000000000000000000000000000000000000000008152600081600481885afa8015610ac057889160009161146b575b50955b600488518097819382525afa918215610ac0576113fe96889560009461144c575b50518097819582947fc8df171000000000000000000000000000000000000000000000000000000000845260048401602090939291936001600160a01b0360408201951681520152565b0392165afa918215610ac05761040f9360009361141d575b5050614314565b61143d929350803d10611445575b611435818361022b565b8101906110ad565b903880611416565b503d61142b565b611464919450863d8811610aef57610ae0818361022b565b92386113b4565b61148891503d806000833e611480818361022b565b810190611087565b38611390565b8661149761024d565b95611393565b966114b09060018651036114b657614201565b966111bb565b6114cf906114ca6114c5612d07565b61413b565b611052565b614201565b6114b0858861279f565b505050505050505061040f610fce565b61150291953d8091833e610ab2818361022b565b9338611191565b611521919550883d8a11610aef57610ae0818361022b565b9338611149565b906115316146dd565b816000526020600360205260406000209082519067ffffffffffffffff82116101975761156882611562855461012b565b856116ea565b602090601f83116001146115df5750916115be827fa67f37d9972d5f886682fb18abfea16db5777cc4d12c43e59dfee7e48663cb3895936115cf956000916115d457508160011b916000199060031b1c19161790565b90555b604051918291339083611724565b0390a2565b90508401513861083a565b90601f1983166115f485600052602060002090565b926000905b82821061165a575050926115cf9492600192827fa67f37d9972d5f886682fb18abfea16db5777cc4d12c43e59dfee7e48663cb38989610611641575b5050811b0190556115c1565b85015160001960f88460031b161c191690553880611635565b80600185968294968b015181550195019301906115f9565b81811061167d575050565b60008155600101611672565b90601f8211611696575050565b61028c9160026000527f405787fa12a823e0f2b7631cc41b3ba8828b3321ca811111fa75cd3aa3bb5ace906020601f840160051c830193106116e0575b601f0160051c0190611672565b90915081906116d3565b9190601f81116116f957505050565b61028c926000526020600020906020601f840160051c830193106116e057601f0160051c0190611672565b906001600160a01b036117446020929594956040855260408501906103d9565b9416910152565b90929167ffffffffffffffff8111610197576117718161176b845461012b565b846116ea565b6000601f82116001146117b25781906117a39394956000926117a7575b50508160011b916000199060031b1c19161790565b9055565b01359050388061178e565b601f198216946117c784600052602060002090565b91805b8781106118025750836001959697106117e8575b505050811b019055565b0135600019600384901b60f8161c191690553880806117de565b909260206001819286860135815501940191016117ca565b916060816001600160a01b039260209497969760408752816040880152838701376000828287010152601f80199101168401019416910152565b604051906101a0820182811067ffffffffffffffff82111761019757604052606061018083600080825280602083015280604083015280848301528060808301528060a08301528060c08301528060e08301528061010083015280610120830152806101408301526101608201520152565b9190811015610e215760051b0190565b908160021b917f3fffffffffffffffffffffffffffffffffffffffffffffffffffffffffffffff811603610e6c57565b9067ffffffffffffffff831161019757680100000000000000008311610197578154838355808410611962575b50906000526020806000209060005b848110611950575050505050565b83358382015592810192600101611942565b61197a90836000528460206000209182019101611672565b38611933565b9291909493948352606060208401528160608401527f07ffffffffffffffffffffffffffffffffffffffffffffffffffffffffffffff82116104465760806001600160a01b039160409360051b8091838701378401019416910152565b929093916001600160a01b0385818616956040928351907f6352211e000000000000000000000000000000000000000000000000000000009081835260209283818c8180611a3460049b8c83019190602083019252565b03915afa908115610ac057600091611f78575b508133911603611f50578615611f3957855182815283818c8180611a728d8c83019190602083019252565b03915afa908115610ac057600091611f1c575b508133911603611ef457855163507f146560e01b8152838187818e5afa8015610ac05788600091611af1938391611ed7575b5087858a8c519687958694859363c44a8e6d60e01b8552840160409060009294936001600160a01b03606083019616825260208201520152565b0392165afa908115610ac057600091611ebc575b505115611e945786611b218c6000526006602052604060002090565b559190915b600091611b31611854565b506000938492835b8d8d8810611ba257505050505050505050508291611b9d91611b91867f6a68946ba06488db8585d7c7637fa954b574035fe15720ea760125ef860172589796611b8c8b6000526005602052604060002090565b611906565b51938493339285611980565b0390a3565b611bd2858f8f93611bb88f928f96908e916118c6565b35948592518095819482938c845283019190602083019252565b03915afa908115610ac057600091611e77575b508333911603611e4f57898f86908d519283809263507f146560e01b82525afa918215610ac057611c55928b868f8f906000968795611e30575b50519687958694859363c44a8e6d60e01b8552840160409060009294936001600160a01b03606083019616825260208201520152565b0392165afa908115610ac057600091611e17575b50805115611def576101000195865160028110908115611de4575b50611dbc578715159081611db0575b50611d8857855160058103611cb3575050600180955b5196019594611b39565b9095949060098103611cca57505060018094611ca9565b989f9d9b999e9c9a98600681969296148015611d7e575b80611d77575b15611d1557508f8f517f54f653b3000000000000000000000000000000000000000000000000000000008152fd5b9d9f989a9c9e999b9d600a8114908115611d6c575b5080611d65575b611d3d57600190611ca9565b888a517f5e701b2b000000000000000000000000000000000000000000000000000000008152fd5b5084611d31565b600b91501438611d2a565b5086611ce7565b5060078114611ce1565b888a517ffb81d04a000000000000000000000000000000000000000000000000000000008152fd5b90508651111538611c93565b898b517fc89badbd000000000000000000000000000000000000000000000000000000008152fd5b600d91501138611c84565b898b517fa981203a000000000000000000000000000000000000000000000000000000008152fd5b611e2a913d8091833e610ab2818361022b565b38611c69565b611e489195508c8d3d10610aef57610ae0818361022b565b9338611c1f565b898b517f812a6989000000000000000000000000000000000000000000000000000000008152fd5b611e8e9150863d8811610aef57610ae0818361022b565b38611be5565b8486517f265ba879000000000000000000000000000000000000000000000000000000008152fd5b611ed191503d806000833e610ab2818361022b565b38611b05565b611eee9150873d8911610aef57610ae0818361022b565b38611ab7565b8486517f9d17cec7000000000000000000000000000000000000000000000000000000008152fd5b611f339150843d8611610aef57610ae0818361022b565b38611a85565b60008b815260066020526040812055919091611b26565b8486517f1f567c4c000000000000000000000000000000000000000000000000000000008152fd5b611f8f9150843d8611610aef57610ae0818361022b565b38611a47565b61040f905461012b565b908092918237016000815290565b602161028c919392936040519481611fcf8793518092602080870191016103b6565b82017f2000000000000000000000000000000000000000000000000000000000000000602082015261200a82518093602087850191016103b6565b0103600181018552018361022b565b9061028c602960405180947f546f7070696e673a200000000000000000000000000000000000000000000000602083015261205d81518092602086860191016103b6565b810103600981018552018361022b565b9061028c602660405180947f466973743a20000000000000000000000000000000000000000000000000000060208301526120b181518092602086860191016103b6565b810103600681018552018361022b565b9061028c602d60405180947f5375697420626f74746f6d3a2000000000000000000000000000000000000000602083015261210581518092602086860191016103b6565b810103600d81018552018361022b565b9061028c602a60405180947f5375697420746f703a2000000000000000000000000000000000000000000000602083015261215981518092602086860191016103b6565b810103600a81018552018361022b565b9061028c602660405180947f537569743a20000000000000000000000000000000000000000000000000000060208301526120b181518092602086860191016103b6565b9061028c602a60405180947f48656164676561723a2000000000000000000000000000000000000000000000602083015261215981518092602086860191016103b6565b9061028c602760405180947f4d6f7574683a2000000000000000000000000000000000000000000000000000602083015261223581518092602086860191016103b6565b810103600781018552018361022b565b9061028c602660405180947f457965733a20000000000000000000000000000000000000000000000000000060208301526120b181518092602086860191016103b6565b9061028c602660405180947f466163653a20000000000000000000000000000000000000000000000000000060208301526120b181518092602086860191016103b6565b9061028c602a60405180947f4e65636b6c6163653a2000000000000000000000000000000000000000000000602083015261215981518092602086860191016103b6565b9061028c602660405180947f4c6567733a20000000000000000000000000000000000000000000000000000060208301526120b181518092602086860191016103b6565b9061028c602a60405180947f4261636b736964653a2000000000000000000000000000000000000000000000602083015261215981518092602086860191016103b6565b9061028c602760405180947f576f726c643a2000000000000000000000000000000000000000000000000000602083015261223581518092602086860191016103b6565b9061028c603560405180947f4f726967696e616c204e616b65642042616e6e79200000000000000000000000602083015261242181518092602086860191016103b6565b810103601581018552018361022b565b9061028c603360405180947f4f72616e6765204e616b65642042616e6e792000000000000000000000000000602083015261247581518092602086860191016103b6565b810103601381018552018361022b565b9061028c603160405180947f50696e6b204e616b65642042616e6e792000000000000000000000000000000060208301526124c981518092602086860191016103b6565b810103601181018552018361022b565b9061028c603260405180947f416c69656e204e616b65642042616e6e79200000000000000000000000000000602083015261251d81518092602086860191016103b6565b810103601281018552018361022b565b906001810361254a575061040f9150612545906143e1565b6124d9565b60028103612566575061040f9150612561906143e1565b612485565b60038103612582575061040f915061257d906143e1565b612431565b6004810361259e575061040f9150612599906143e1565b6123dd565b6125b56125ba916000526003602052604060002090565b610313565b80516126bd57506125ca906143e1565b905b600181036125de575061040f90612399565b600281036125f0575061040f90612355565b60038103612602575061040f90612311565b60048103612614575061040f906122cd565b60058103612626575061040f90612289565b60068103612638575061040f90612245565b6007810361264a575061040f906121f1565b6008810361265c575061040f906121ad565b6009810361266e575061040f90612169565b600a8103612680575061040f90612115565b600b8103612692575061040f906120c1565b600c81036126a4575061040f9061206d565b600d146126b4575061040f610fce565b61040f90612019565b6126c96126cf926143e1565b90611fad565b906125cc565b67ffffffffffffffff81116101975760051b60200190565b919060408382031261044657825192602090818101519067ffffffffffffffff821161044657019180601f8401121561044657825161272b816126d5565b93612739604051958661022b565b818552838086019260051b820101928311610446578301905b828210612760575050505090565b81518152908301908301612752565b3d1561279a573d9061278082610609565b9161278e604051938461022b565b82523d6000602084013e565b606090565b60405163507f146560e01b8152906001600160a01b036020836004818585165afa928315610ac05760009361296c575b506000906040519384809263c44a8e6d60e01b82528161280f89886004840160409060009294936001600160a01b03606083019616825260208201520152565b0392165afa918215610ac057600092612951575b5081511561294657606061010083015161291f57604051630f22bc6f60e11b8152600481019490945261040f936128ac929082906000908181602481305afa90816000916000936128f8575b506128ea575050906128a49161288361276f565b505b801515806128e2575b6128c8575b5061289e8651614736565b90611052565b935190615135565b80516128b9575b50614201565b6128c291611052565b386128b3565b6128dc91506128d79084612bf4565b610ff8565b38612893565b50600161288e565b9094506128a4929150612885565b90925061291891503d806000833e612910818361022b565b8101906126ed565b913861286f565b509061292d92505190612bf4565b80511561293d5761040f90614201565b5061040f610fce565b50505061040f610fce565b61296591923d8091833e610ab2818361022b565b9038612823565b60009193506129899060203d602011610aef57610ae0818361022b565b92906127cf565b926001600160a01b03916040519263507f146560e01b8452602084600481848a165afa938415610ac057600094612b55575b506000906040519485809263c44a8e6d60e01b825281612a02878c6004840160409060009294936001600160a01b03606083019616825260208201520152565b0392165afa928315610ac057600093612b3a575b50825115612b2d57606094610100840151612b1d5761040f956000612a576000839560405180938192630f22bc6f60e11b8352600483019190602083019252565b0381305afa9081600091600093612afe575b50612aee575050612a9b929394612a7e61276f565b505b8115159081612ae6575b50612ad1575b5061289e8551614736565b93612aa9575b505050614201565b612ab4925190615135565b8051612ac2575b8080612aa1565b612acb91611052565b38612abb565b612ae091506128d79084612bf4565b38612a90565b905038612a8a565b909150612a9b9394509094612a80565b909250612b1691503d806000833e612910818361022b565b9138612a69565b9350505061292d92505190612bf4565b505050505061040f610fce565b612b4e91933d8091833e610ab2818361022b565b9138612a16565b6000919450612b729060203d602011610aef57610ae0818361022b565b93906129c2565b9061028c605660405180947f3c673e3c696d61676520786c696e6b3a687265663d22000000000000000000006020830152612bbe8151809260206036860191016103b6565b81017f222077696474683d2234303022206865696768743d22343030222f3e3c2f673e603682015203603681018552018361022b565b612c0b6125b5836000526004602052604060002090565b8051612d01575060405163507f146560e01b81526001600160a01b039260209283836004818489165afa908115610ac057612c96958594600093612ce2575b506040518097819582947fbd51923c00000000000000000000000000000000000000000000000000000000845260048401602090939291936001600160a01b0360408201951681520152565b0392165afa8015610ac05761040f92612cc092600092612cc5575b5050612cbb61024d565b614314565b612b79565b612cdb9250803d1061144557611435818361022b565b3880612cb1565b612cfa919350853d8711610aef57610ae0818361022b565b9138612c4a565b91505090565b60405190612d148261019c565b6110818252601f60f91b6110a0837f3c6720636c6173733d226131223e3c7061746820643d224d313733203533683460208201527f763137682d347a222f3e3c2f673e3c6720636c6173733d226132223e3c70617460408201527f6820643d224d3136372035376833763130682d337a222f3e3c7061746820643d60608201527f224d3136392035336834763137682d347a222f3e3c2f673e3c6720636c61737360808201527f3d226133223e3c7061746820643d224d31363720353368337634682d337a222f60a08201527f3e3c7061746820643d224d3136332035376834763130682d347a222f3e3c706160c08201527f746820643d224d31363720363768337633682d337a222f3e3c2f673e3c67206360e08201527f6c6173733d226231223e3c7061746820643d224d32313320323533682d33762d6101008201527f332d33682d33762d372d33682d34762d3130682d33762d372d372d33682d33766101208201527f2d3733682d34762d3130682d33762d3130682d33762d37682d34762d37682d336101408201527f762d33682d33762d33682d3476313068347631306833763130683376336834766101608201527f37203320373020336833763768337632306834763768337633683376336834766101808201527f34683376336833762d332d347a222f3e3c7061746820643d224d3235332033306101a08201527f37762d34682d33762d33682d33762d33682d34762d34682d33762d33682d33766101c08201527f2d33682d34762d34682d33762d33682d33762d33682d34762d34682d33762d366101e08201527f682d33762d37682d3476313768347633683376336833203476346833763368336102008201527f76336834763468337633683376336834763468337633683376336834762d36686102208201527f2d347a222f3e3c2f673e3c6720636c6173733d226232223e3c7061746820643d6102408201527f224d32353020333130762d33682d33762d34682d34762d33682d33762d33682d6102608201527f33762d34682d34762d33682d33762d33682d33762d34682d37762d33682d33766102808201527f2d33682d34762d3137682d33762d33682d33762d34682d34762d33682d33762d6102a08201527f33682d33762d37682d34762d3230682d33762d37682d33762d37332d332d37686102c08201527f2d34762d33682d33762d3130682d33762d3130682d34563730682d33762d336c6102e08201527f2d332031303020332d313030763430682d33763130682d347636682d337631346103008201527f682d337633203133682d347634346834763136683376313468337631336834766103208201527f31306833763768337633683476336833763468337633683476336833763468336103408201527f76336834763368337637683776376836763368377633683776346831337633686103608201527f337633683130762d33682d337a6d2d3130332d3837762d31366833762d3130686103808201527f2d337636682d34763137682d337631306833762d3768347a222f3e3c706174686103a08201527f20643d224d3134332032333068347637682d347a6d3420313068337633682d336103c08201527f7a6d33203768337633682d337a6d33203668347634682d347a222f3e3c7061746103e08201527f6820643d224d31363320323537682d36763368337633683376346834762d342d6104008201527f33682d34762d337a222f3e3c2f673e3c6720636c6173733d226233223e3c70616104208201527f746820643d224d3134332031393776366834762d366836762d34346834762d316104408201527f366833762d31346833762d366834762d31306833563937682d377636682d33766104608201527f34682d337633682d347633682d3376342033682d3376332034682d34763130686104808201527f2d337631362034682d337634366833762d3668337a222f3e3c7061746820643d6104a08201527f224d313430203230336833763137682d337a222f3e3c7061746820643d224d316104c08201527f3337203232306833763130682d337a222f3e3c7061746820643d224d313533206104e08201527f323530682d33762d37682d33762d36682d34762d37682d3376313068337637686105008201527f347636683376346833762d377a6d2d3320313068337637682d337a222f3e3c706105208201527f61746820643d224d3134372032353768337633682d337a6d36203068347633686105408201527f2d347a222f3e3c7061746820643d224d31363020323633762d33682d337633206105608201527f376836762d37682d337a6d2d31302d3536763136682d337637683376313068336105808201527f763768347636683676346837762d342d33682d33762d3130682d34762d3133686105a08201527f2d33762d3134682d33762d3136682d34763130682d337a222f3e3c70617468206105c08201527f643d224d32343320333133762d33682d33762d33682d31302d33762d34682d376105e08201527f762d33682d37762d33682d36762d37682d37762d37682d33762d33682d34762d6106008201527f33682d33762d34682d33762d33682d34762d33682d33762d34682d33762d33686106208201527f2d34762d33682d33763130682d337633682d347633682d3376376833763768346106408201527f76366833763568347633683676336833763368342033763368332034763368336106608201527f20337634683130763368372037203376336831302033762d33683130762d33686106808201527f34762d34682d31347a222f3e3c2f673e3c6720636c6173733d226234223e3c706106a08201527f61746820643d224d3138332031333068347637682d347a222f3e3c70617468206106c08201527f643d224d3138302031323768337633682d337a6d2d32372d3468347637682d346106e08201527f7a222f3e3c7061746820643d224d3135372031313768337636682d337a222f3e6107008201527f3c7061746820643d224d3136302031313068337637682d337a222f3e3c7061746107208201527f6820643d224d3136332031303768347633682d347a6d2d3320383368337637686107408201527f2d337a222f3e3c7061746820643d224d3136332031383768347633682d347a6d6107608201527f3230203068377633682d377a222f3e3c7061746820643d224d313830203139306107808201527f68337633682d337a6d31302d3768337634682d337a222f3e3c7061746820643d6107a08201527f224d3139332031383768347636682d347a6d2d323020353368347637682d347a6107c08201527f222f3e3c7061746820643d224d3137372032343768337636682d337a222f3e3c6107e08201527f7061746820643d224d3138302032353368337637682d337a222f3e3c706174686108008201527f20643d224d3138332032363068377633682d377a222f3e3c7061746820643d226108208201527f4d3139302032363368337634682d337a6d302d323068337634682d337a222f3e6108408201527f3c7061746820643d224d3138372032343068337633682d337a222f3e3c7061746108608201527f6820643d224d3139302032333768337633682d337a6d313320323368347633686108808201527f2d347a222f3e3c7061746820643d224d3230372032363368337637682d337a226108a08201527f2f3e3c7061746820643d224d3231302032373068337633682d337a6d2d3130206108c08201527f3768337636682d337a222f3e3c7061746820643d224d323033203238336834766108e08201527f37682d347a222f3e3c7061746820643d224d3230372032393068367633682d366109008201527f7a222f3e3c2f673e3c6720636c6173733d226f223e3c7061746820643d224d316109208201527f3333203135376834763530682d347a6d302036336834763130682d347a6d32376109408201527f2d3136336833763130682d337a222f3e3c7061746820643d224d3136332035336109608201527f68347634682d347a222f3e3c7061746820643d224d31363720353068313076336109808201527f682d31307a222f3e3c7061746820643d224d3137372035336833763137682d336109a08201527f7a222f3e3c7061746820643d224d3137332037306834763237682d347a6d2d366109c08201527f20306833763237682d337a222f3e3c7061746820643d224d31363320363768346109e08201527f7633682d347a6d3020333068347633682d347a222f3e3c7061746820643d224d610a008201527f3136302031303068337633682d337a222f3e3c7061746820643d224d31353720610a208201527f31303368337634682d337a222f3e3c7061746820643d224d3135332031303768610a408201527f347633682d347a222f3e3c7061746820643d224d313530203131306833763368610a608201527f2d337a222f3e3c7061746820643d224d3134372031313368337637682d337a22610a808201527f2f3e3c7061746820643d224d3134332031323068347637682d347a222f3e3c70610aa08201527f61746820643d224d313430203132376833763130682d337a222f3e3c70617468610ac08201527f20643d224d313337203133376833763230682d337a6d35362d31306834763130610ae08201527f682d347a222f3e3c7061746820643d224d313930203131376833763130682d33610b008201527f7a222f3e3c7061746820643d224d3138372031313068337637682d337a222f3e610b208201527f3c7061746820643d224d3138332031303368347637682d347a222f3e3c706174610b408201527f6820643d224d3138302031303068337633682d337a222f3e3c7061746820643d610b608201527f224d31373720393768337633682d337a6d2d3430203130366833763137682d33610b808201527f7a6d302032376833763130682d337a6d313020333068337637682d337a222f3e610ba08201527f3c7061746820643d224d31353020323537762d34682d33762d36682d34762d37610bc08201527f682d3376313068337631306834762d3368337a222f3e3c7061746820643d224d610be08201527f3135302032353768337633682d337a222f3e3c7061746820643d224d31363320610c008201527f323733762d33682d36762d3130682d347637682d337633683376336834763768610c208201527f33762d3768337a222f3e3c7061746820643d224d313633203236376834763368610c408201527f2d347a222f3e3c7061746820643d224d31373020323537682d332d3476336834610c608201527f76376833762d31307a222f3e3c7061746820643d224d31353720323533683676610c808201527f34682d367a222f3e3c7061746820643d224d3135332032343768347636682d34610ca08201527f7a222f3e3c7061746820643d224d3135302032343068337637682d337a222f3e610cc08201527f3c7061746820643d224d313437203233306833763130682d337a6d3133203530610ce08201527f68337637682d337a222f3e3c7061746820643d224d3134332032323368347637610d008201527f682d347a222f3e3c7061746820643d224d313437203230376833763136682d33610d208201527f7a222f3e3c7061746820643d224d313530203139376833763130682d337a6d2d610d408201527f3130203068337636682d337a6d35302031313368377633682d377a6d32332031610d608201527f306831377633682d31377a222f3e3c7061746820643d224d3233302033323368610d808201527f31337634682d31337a222f3e3c7061746820643d224d32343320333230683130610da08201527f7633682d31307a222f3e3c7061746820643d224d323533203331376834763368610dc08201527f2d347a222f3e3c7061746820643d224d323537203330376833763130682d337a610de08201527f222f3e3c7061746820643d224d3235332033303368347634682d347a222f3e3c610e008201527f7061746820643d224d3235302033303068337633682d337a222f3e3c70617468610e208201527f20643d224d3234372032393768337633682d337a222f3e3c7061746820643d22610e408201527f4d3234332032393368347634682d347a222f3e3c7061746820643d224d323430610e608201527f2032393068337633682d337a222f3e3c7061746820643d224d32333720323837610e808201527f68337633682d337a222f3e3c7061746820643d224d3233332032383368347634610ea08201527f682d347a222f3e3c7061746820643d224d3233302032383068337633682d337a610ec08201527f222f3e3c7061746820643d224d3232372032373768337633682d337a222f3e3c610ee08201527f7061746820643d224d3232332032373368347634682d347a222f3e3c70617468610f008201527f20643d224d3232302032363768337636682d337a222f3e3c7061746820643d22610f208201527f4d3231372032363068337637682d337a222f3e3c7061746820643d224d323133610f408201527f2032353368347637682d347a222f3e3c7061746820643d224d32313020323437610f608201527f68337636682d337a222f3e3c7061746820643d224d3230372032333768337631610f808201527f30682d337a222f3e3c7061746820643d224d323033203232376834763130682d610fa08201527f347a6d2d343020363068347636682d347a6d323420323068337633682d337a22610fc08201527f2f3e3c7061746820643d224d3136372032393368337635682d337a6d31362031610fe08201527f3468347633682d347a222f3e3c7061746820643d224d313730203239386834766110008201527f33682d347a6d3130203668337633682d337a222f3e3c7061746820643d224d316110208201527f37342033303168367633682d367a6d323320313268367634682d367a222f3e3c6110408201527f7061746820643d224d323033203331376831307633682d31307a6d2d322d31306110608201527f37762d3733682d3476373368337631376833762d3137682d327a222f3e3c2f676110808201520152565b9061028c609a60405180947f3c7374796c653e2e6f7b66696c6c3a233830383038303b7d2e62327b66696c6c60208301527f3a6e6f6e653b7d2e62337b66696c6c3a6e6f6e653b7d2e62347b66696c6c3a6e60408301527f6f6e653b7d2e61317b66696c6c3a6e6f6e653b7d2e61327b66696c6c3a6e6f6e60608301527f653b7d2e61337b66696c6c3a6e6f6e653b7d3c2f7374796c653e00000000000060808301526141f181518092602086860191016103b6565b810103607a81018552018361022b565b9061028c60bb60405180947f3c7376672077696474683d2234303022206865696768743d223430302220766960208301527f6577426f783d223020302034303020343030222066696c6c3d226e6f6e65222060408301527f786d6c6e733d22687474703a2f2f7777772e77332e6f72672f323030302f737660608301527f67223e3c7374796c653e2e6f7b66696c6c3a233035303530353b7d2e777b666960808301527f6c6c3a236639663966393b7d3e3c2f7374796c653e000000000000000000000060a08301526142de81518092602060b5860191016103b6565b81017f3c2f7376673e000000000000000000000000000000000000000000000000000060b582015203609b81018552018361022b565b9061040f9061435e6040516020927f122000000000000000000000000000000000000000000000000000000000000084830152602282015260228152614359816101b9565b615476565b92604051938161437786935180928680870191016103b6565b820161438b825180938680850191016103b6565b0103808452018261022b565b6040516143a38161017b565b60008152906000368137565b906143b982610609565b6143c6604051918261022b565b82815280926143d7601f1991610609565b0190602036910137565b806000917a184f03e93ff9f4daa797ed6e38ed64bf6a1f01000000000000000080821015614524575b506d04ee2d6d415b85acef810000000080831015614515575b50662386f26fc1000080831015614506575b506305f5e100808310156144f7575b50612710808310156144e8575b5060648210156144d8575b600a809210156144ce575b600190816021614479600187016143af565b95860101905b61448b575b5050505090565b600019019083907f30313233343536373839616263646566000000000000000000000000000000008282061a8353049182156144c95791908261447f565b614484565b9160010191614467565b919060646002910491019161445c565b60049193920491019138614451565b60089193920491019138614444565b60109193920491019138614435565b60209193920491019138614423565b60409350810491503861440a565b6040519061453f826101b9565b604082527f6768696a6b6c6d6e6f707172737475767778797a303132333435363738392b2f6040837f4142434445464748494a4b4c4d4e4f505152535455565758595a61626364656660208201520152565b9060028201809211610e6c57565b9060208201809211610e6c57565b9060018201809211610e6c57565b91908201809211610e6c57565b80511561293d576145d7614532565b6145f36145ee6145e78451614591565b6003900490565b6118d6565b916146056146008461459f565b6143af565b92835280815182019060208501935b82821061468b5750505060039051068060011461466057600214614636575090565b7f3d0000000000000000000000000000000000000000000000000000000000000090600019015290565b507f3d3d00000000000000000000000000000000000000000000000000000000000090600119015290565b9091936004906003809401938451600190603f9082828260121c16880101518553828282600c1c16880101518386015382828260061c1688010151600286015316850101519082015301939190614614565b6001600160a01b038060005416816146f3615c11565b16036146fc5750565b602490614707615c11565b6040517f118cdaa700000000000000000000000000000000000000000000000000000000815291166004820152fd5b61473f9061594f565b9261474e969596929192612d07565b94604051978897602089017f3c7374796c653e2e62317b66696c6c3a2300000000000000000000000000000090528051908160318b019160200191614792926103b6565b8801603181017f3b7d2e62327b66696c6c3a230000000000000000000000000000000000000000905281519182603d830191602001916147d1926103b6565b01603d81017f3b7d2e62337b66696c6c3a23000000000000000000000000000000000000000090528151918260498301916020019161480f926103b6565b016049810161483d907f3b7d2e62347b66696c6c3a2300000000000000000000000000000000000000009052565b60550161484991610fe1565b7f3b7d2e61317b66696c6c3a2300000000000000000000000000000000000000008152600c0161487891610fe1565b7f3b7d2e61327b66696c6c3a2300000000000000000000000000000000000000008152600c016148a791610fe1565b7f3b7d2e61337b66696c6c3a2300000000000000000000000000000000000000008152600c016148d691610fe1565b7f3b7d3c2f7374796c653e000000000000000000000000000000000000000000008152600a0161490591610fe1565b03601f198101825261040f908261022b565b60405190610120820182811067ffffffffffffffff8211176101975760405260f982527f2d31306833762d376833762d33682d31307a222f3e3c2f673e00000000000000610100837f3c6720636c6173733d226f223e3c7061746820643d224d31383720333037762d60208201527f346833762d36682d33762d34682d34762d33682d33762d33682d37762d34682d60408201527f367634682d3476336834763237682d34763133682d33763130682d347637683460608201527f76336833203130203134762d33682d34762d34682d33762d33682d33762d336860808201527f2d34762d376834762d31306833762d376833762d336837762d33682d337a6d3160a08201527f36203130762d34682d36763137682d34763130682d337637683376336834203660c08201527f20342033203134762d33682d34762d34682d37762d33682d33762d33682d337660e08201520152565b60405190614a7a826101d5565b61019c82527f6820643d224d3139332031373068347633682d347a222f3e3c2f673e000000006101a0837f3c6720636c6173733d226f223e3c7061746820643d224d31393020313733682d60208201527f3337762d33682d3130762d34682d36763468337633682d33763468367633683160408201527f307634683337762d346833762d33682d33762d347a6d2d34302034682d33762d60608201527f34683376347a6d372033762d3368337633682d337a6d362030762d336834763360808201527f682d347a6d372030762d3368337633682d337a6d372030762d3368337633682d60a08201527f337a6d31302030682d34762d33683476337a222f3e3c7061746820643d224d3160c08201527f39302031373068337633682d337a222f3e3c7061746820643d224d313933203160e08201527f363668347634682d347a6d30203768347634682d347a222f3e3c2f673e3c67206101008201527f636c6173733d2277223e3c7061746820643d224d3133372031373068337633686101208201527f2d337a6d3130203368337634682d337a6d3130203468337633682d337a6d36206101408201527f3068347633682d347a6d37203068337633682d337a6d37203068337633682d336101608201527f7a6d36203068347633682d347a6d372d3468337634682d337a222f3e3c7061746101808201520152565b60405190610100820182811067ffffffffffffffff8211176101975760405260dd82527f746820643d224d3138302031343768337633682d337a222f3e3c2f673e00000060e0837f3c6720636c6173733d226f223e3c7061746820643d224d31373720313430763360208201527f6836763131683130762d31316834762d33682d32307a222f3e3c70617468206460408201527f3d224d31353320313430763368377638203368372033762d31316833762d336860608201527f2d32307a222f3e3c2f673e3c6720636c6173733d2277223e3c7061746820643d60808201527f224d3135332031343368377634682d377a222f3e3c7061746820643d224d313560a08201527f372031343768337633682d337a6d32302d3468367634682d367a222f3e3c706160c08201520152565b60405190614db1826101f2565b61023a82527f643d224d3139302031333768347633682d347a222f3e3c2f673e000000000000610240837f3c6720636c6173733d226f223e3c7061746820643d224d31393020313237683360208201527f7633682d337a6d3320313368347633682d347a6d2d3432203068367636682d3660408201527f7a222f3e3c7061746820643d224d3135312031333368337637682d337a6d313060608201527f203068367634682d367a222f3e3c7061746820643d224d31353720313337683160808201527f377636682d31377a6d332031336831347633682d31347a6d31372d313368377660a08201527f3136682d377a222f3e3c7061746820643d224d3138342031333768367636682d60c08201527f367a6d302031306831307636682d31307a222f3e3c7061746820643d224d313860e08201527f37203134336831307634682d31307a222f3e3c7061746820643d224d313930206101008201527f31343068337633682d337a6d2d362d313068337637682d337a222f3e3c7061746101208201527f6820643d224d3138372031333068367633682d367a6d2d3336203068313076336101408201527f682d31307a6d313620313368377637682d377a6d2d3130203068377637682d376101608201527f7a222f3e3c7061746820643d224d3136342031343768337633682d337a6d32396101808201527f2d323068347636682d347a222f3e3c7061746820643d224d31393420313333686101a08201527f337637682d337a222f3e3c2f673e3c6720636c6173733d2277223e3c706174686101c08201527f20643d224d3135342031333368377634682d377a222f3e3c7061746820643d226101e08201527f4d3135342031333768337633682d337a6d3130203668337634682d337a6d32306102008201527f203068337634682d337a6d332d313068377634682d377a222f3e3c70617468206102208201520152565b6040519060c0820182811067ffffffffffffffff8211176101975760405260818252601f60f91b60a0837f3c6720636c6173733d226f223e3c7061746820643d224d31383320313630762d60208201527f34682d32307634682d33763368337634683234762d37682d347a6d2d3133203360408201527f762d336831307633682d31307a222066696c6c3d2223616437316338222f3e3c60608201527f7061746820643d224d313730203136306831307633682d31307a222f3e3c2f6760808201520152565b82516060949391926000928392839260039284928392839290918681101561540557615160816145ad565b999897985b8a811061517a57505050505050505050505050565b818110156153f95761518c8184610e33565b51968c6001600160a01b0360409182519163507f146560e01b8352602091600491838584818486165afa928315610ac057615205968f959660009788966153da575b5050519687958694859363c44a8e6d60e01b8552840160409060009294936001600160a01b03606083019616825260208201520152565b0392165afa8015610ac057610100916000916153c1575b5001519a5b8b8a0361539257506001995b60048c810361536357505060019a5b6005818103615276575050506001965b8061525e575b50600101989798615165565b6001919e61289e61526f928f612bf4565b9d90615252565b81999299118061535b575b61528c575b5061524c565b90969095600680880361530f5750506001955b6007908082036152e0575050506001955b85806152d9575b806152d1575b6152c8575b38615286565b600197506152c2565b5087156152bd565b50866152b7565b9791971180615307575b156152b05795509c6152fe9061289e61506f565b9c6001956152b0565b5086156152ea565b8791971180615353575b1561529f57955060019e8f8614600014615341576153399061289e614da4565b9e5b9561529f565b61534d9061289e614c75565b9e61533b565b508615615319565b508815615281565b8c919c118061538a575b1561523c579a509d6153819061289e614a6d565b9d60019a61523c565b508b1561536d565b99898c11806153b9575b1561522d5799509d6153b09061289e614917565b9d60019961522d565b508a1561539c565b6153d4913d8091833e610ab2818361022b565b3861521c565b6153f1929650803d10610aef57610ae0818361022b565b9338806151ce565b60089996600097615221565b8099989798615165565b604051906105e0820182811067ffffffffffffffff82111761019757604052602e82526105c0366020840137565b90615447826126d5565b615454604051918261022b565b82815280926143d7601f19916126d5565b908151811015610e21570160200190565b908151156155b55761548661540f565b91600090600061549585610e26565b526001918151916000925b8084106154c657505050506154bc6154c19161040f9394615a93565b615ad6565b615b1d565b9091929461550f6155096155036154dd8987615465565b517fff000000000000000000000000000000000000000000000000000000000000001690565b60f81c90565b60ff1690565b9184925b60ff9089828916861015615574576001929161554861554261550961553b8a61554e96610e33565b5160ff1690565b60081b90565b906145bb565b61556b8b61556388603a958686061692610e33565b9060ff169052565b04930192615513565b50919594935050809691965b61558e5750600101926154a0565b9460ff6001603a926155ab83858b06166155638d86851690610e33565b0116950480615580565b905061040f614397565b604051906155cc8261020f565b600682527f66666539303000000000000000000000000000000000000000000000000000006020830152565b604051906156058261020f565b600682527f66666337303000000000000000000000000000000000000000000000000000006020830152565b6040519061563e8261020f565b600682527f66336136303300000000000000000000000000000000000000000000000000006020830152565b604051906156778261020f565b600682527f39363561316100000000000000000000000000000000000000000000000000006020830152565b604051906156b08261020f565b600682527f66663763303200000000000000000000000000000000000000000000000000006020830152565b604051906156e98261020f565b600682527f63333265306400000000000000000000000000000000000000000000000000006020830152565b604051906157228261020f565b600682527f66666438633500000000000000000000000000000000000000000000000000006020830152565b6040519061575b8261020f565b600682527f66663936613900000000000000000000000000000000000000000000000000006020830152565b604051906157948261020f565b600682527f66653538386200000000000000000000000000000000000000000000000000006020830152565b604051906157cd8261020f565b600682527f63393266343500000000000000000000000000000000000000000000000000006020830152565b604051906158068261020f565b600682527f36376437353700000000000000000000000000000000000000000000000000006020830152565b6040519061583f8261020f565b600682527f33306132323000000000000000000000000000000000000000000000000000006020830152565b604051906158788261020f565b600682527f32313761313500000000000000000000000000000000000000000000000000006020830152565b604051906158b18261020f565b600482527f6e6f6e65000000000000000000000000000000000000000000000000000000006020830152565b604051906158ea8261020f565b600682527f65343833656600000000000000000000000000000000000000000000000000006020830152565b604051906159238261020f565b600682527f64633266656600000000000000000000000000000000000000000000000000006020830152565b6001810361599657506159606157f9565b90615969615832565b9061597261586b565b9061597b6158a4565b906159846158dd565b9061598d615916565b9061040f615916565b600281036159dd57506159a7615715565b906159b061574e565b906159b9615787565b906159c26157c0565b906159cb615715565b906159d461574e565b9061040f615787565b60038103615a2457506159ee615631565b906159f76156a3565b90615a006156a3565b90615a096156dc565b90615a12615631565b90615a1b6156a3565b9061040f6156a3565b600414615a555760046040517f4c944ce8000000000000000000000000000000000000000000000000000000008152fd5b615a5d6155bf565b90615a666155f8565b90615a6f615631565b90615a7861566a565b90615a816155bf565b90615a8a6155f8565b9061040f615631565b9060ff80911690615aa38261543d565b9260005b838110615ab5575050505090565b8083615ac360019385610e33565b5116615acf8288610e33565b5201615aa7565b908151615ae28161543d565b9060005b818110615af4575090925050565b60019060ff615b0a600019838951030188610e33565b5116615b168286610e33565b5201615ae6565b8051615b2881610609565b91604090615b39604051948561022b565b828452615b4583610609565b60209190601f1901368684013760009260005b858110615b685750505050505090565b6001907fff00000000000000000000000000000000000000000000000000000000000000615bfc8451615b9a816101b9565b603a81527f31323334353637383941424344454647484a4b4c4d4e50515253545556575859888201527f5a6162636465666768696a6b6d6e6f707172737475767778797a0000000000008682015260ff615bf48589610e33565b511690615465565b5116861a615c0a828a615465565b5301615b58565b6001600160a01b037f000000000000000000000000b2b5841dbef766d4b521221732f9b618fcf34a8716331480615c5f575b15615c5b576013193601368111610e6c573560601c90565b3390565b506014361015615c4356fea26469706673582212202dc2803a53d9322e2f98a1565d0b49fa84d6d1e50d2e7790871fd78db48634b264736f6c63430008170033",
			"devdoc": {
				"kind": "dev",
				"methods": {
					"assetIdsOf(uint256)": {
						"params": {
							"nakedBannyId": "The ID of the naked banny shows with the associated assets."
						},
						"returns": {
							"outfitIds": "The outfits attached to the Naked Banny.",
							"worldId": "The world attached to the Naked Banny."
						}
					},
					"bannySvgOf(address,uint256,bool,bool)": {
						"params": {
							"hook": "The hook storing the assets.",
							"tokenId": "The ID of the token to show. If the ID belongs to a Naked Banny, it will be shown with its current outfits in its current world."
						},
						"returns": {
							"_0": "bannySvg The SVG."
						}
					},
					"constructor": {
						"params": {
							"owner": "The owner allowed to add SVG files that correspond to tier IDs.",
							"trustedForwarder": "The trusted forwarder for the ERC2771Context."
						}
					},
					"decorateBannyWith(address,uint256,uint256,uint256[])": {
						"details": "The caller must own the naked banny being dressed and all outfits being worn.",
						"params": {
							"hook": "The hook storing the assets.",
							"nakedBannyId": "The ID of the Naked Banny being dressed.",
							"outfitIds": "The IDs of the outfits that'll be associated with the specified banny. Only one outfit per outfit category allowed at a time and they must be passed in order.",
							"worldId": "The ID of the world that'll be associated with the specified banny."
						}
					},
					"isTrustedForwarder(address)": {
						"details": "Indicates whether any particular address is the trusted forwarder."
					},
					"owner()": {
						"details": "Returns the address of the current owner."
					},
					"renounceOwnership()": {
						"details": "Leaves the contract without owner. It will not be possible to call `onlyOwner` functions. Can only be called by the current owner. NOTE: Renouncing ownership will leave the contract without an owner, thereby disabling any functionality that is only available to the owner."
					},
					"setSvgContentsOf(uint256,string)": {
						"params": {
							"svgContents": "The svg contents being stored, not including the parent <svg></svg> element.",
							"tierId": "The ID of the tier having an SVG stored."
						}
					},
					"setSvgHashOf(uint256,bytes32)": {
						"details": "This allows anyone to lazily upload the correct svg file.",
						"params": {
							"svgHash": "The svg hash being stored, not including the parent <svg></svg> element.",
							"tierId": "The ID of the tier having an SVG hash stored."
						}
					},
					"setTierName(uint256,string)": {
						"params": {
							"name": "The name of the tier.",
							"tierId": "The ID of the tier having its name stored."
						}
					},
					"tokenUriOf(address,uint256)": {
						"params": {
							"tokenId": "The ID of the token to show. If the ID belongs to a Naked Banny, it will be shown with its current outfits in its current world."
						},
						"returns": {
							"_0": "tokenUri The URI representing the SVG."
						}
					},
					"transferOwnership(address)": {
						"details": "Transfers ownership of the contract to a new account (`newOwner`). Can only be called by the current owner."
					},
					"trustedForwarder()": {
						"details": "Returns the address of the trusted forwarder."
					}
				},
				"version": 1
			},
			"userdoc": {
				"kind": "user",
				"methods": {
					"_nameOf(uint256,uint256,uint256)": {
						"notice": "The name of each tier."
					},
					"assetIdsOf(uint256)": {
						"notice": "The assets currently attached to each Naked Banny, owned by the naked Banny's owner."
					},
					"bannySvgOf(address,uint256,bool,bool)": {
						"notice": "Returns the SVG showing a dressed Naked Banny."
					},
					"decorateBannyWith(address,uint256,uint256,uint256[])": {
						"notice": "Dress your Naked Banny with outfits."
					},
					"setSvgBaseUriOf(string)": {
						"notice": "Allows the owner of this contract to specify the base of the domain hosting the SVG files."
					},
					"setSvgContentsOf(uint256,string)": {
						"notice": "The owner of this contract can store SVG files for tier IDs."
					},
					"setSvgHashOf(uint256,bytes32)": {
						"notice": "Allows the owner of this contract to upload the hash of an svg file for a tierId."
					},
					"setTierName(uint256,string)": {
						"notice": "Allows the owner to set the tier's name."
					},
					"svgBaseUri()": {
						"notice": "The base of the domain hosting the SVG files that can be lazily uploaded to the contract."
					},
					"svgHashOf(uint256)": {
						"notice": "The Naked Banny and outfit SVG hash files."
					},
					"tokenUriOf(address,uint256)": {
						"notice": "Returns the SVG showing a dressed Naked Banny in a world."
					}
				},
				"version": 1
			},
			"gitCommit": "d476cfd0d0dcf44379af14922ff764965fe14a2a",
			"sourceName": "src/Banny721TokenUriResolver.sol",
			"chainId": "11155111",
			"linkReferences": {},
			"deployedLinkReferences": {}
		},
		{
			"_format": "sphinx-sol-ct-artifact-1",
			"merkleRoot": "0x3c404a7da75c4d750e7915ae00f320ee464c63114de103f0fcf9e7ea9dff28a1",
			"contractName": "Banny721TokenUriResolver",
			"address": "0x2098D40ACD999A0E0723efFDEB78dCF16fc9b5A3",
			"abi": [
				{
					"type": "constructor",
					"inputs": [
						{
							"name": "owner",
							"type": "address",
							"internalType": "address"
						},
						{
							"name": "trustedForwarder",
							"type": "address",
							"internalType": "address"
						}
					],
					"stateMutability": "nonpayable"
				},
				{
					"type": "function",
					"name": "_nameOf",
					"inputs": [
						{
							"name": "tokenId",
							"type": "uint256",
							"internalType": "uint256"
						},
						{
							"name": "tierId",
							"type": "uint256",
							"internalType": "uint256"
						},
						{
							"name": "category",
							"type": "uint256",
							"internalType": "uint256"
						}
					],
					"outputs": [
						{
							"name": "",
							"type": "string",
							"internalType": "string"
						}
					],
					"stateMutability": "view"
				},
				{
					"type": "function",
					"name": "assetIdsOf",
					"inputs": [
						{
							"name": "nakedBannyId",
							"type": "uint256",
							"internalType": "uint256"
						}
					],
					"outputs": [
						{
							"name": "worldId",
							"type": "uint256",
							"internalType": "uint256"
						},
						{
							"name": "outfitIds",
							"type": "uint256[]",
							"internalType": "uint256[]"
						}
					],
					"stateMutability": "view"
				},
				{
					"type": "function",
					"name": "bannySvgOf",
					"inputs": [
						{
							"name": "hook",
							"type": "address",
							"internalType": "address"
						},
						{
							"name": "tokenId",
							"type": "uint256",
							"internalType": "uint256"
						},
						{
							"name": "shouldBeDressed",
							"type": "bool",
							"internalType": "bool"
						},
						{
							"name": "shouldIncludeWorld",
							"type": "bool",
							"internalType": "bool"
						}
					],
					"outputs": [
						{
							"name": "",
							"type": "string",
							"internalType": "string"
						}
					],
					"stateMutability": "view"
				},
				{
					"type": "function",
					"name": "decorateBannyWith",
					"inputs": [
						{
							"name": "hook",
							"type": "address",
							"internalType": "address"
						},
						{
							"name": "nakedBannyId",
							"type": "uint256",
							"internalType": "uint256"
						},
						{
							"name": "worldId",
							"type": "uint256",
							"internalType": "uint256"
						},
						{
							"name": "outfitIds",
							"type": "uint256[]",
							"internalType": "uint256[]"
						}
					],
					"outputs": [],
					"stateMutability": "nonpayable"
				},
				{
					"type": "function",
					"name": "isTrustedForwarder",
					"inputs": [
						{
							"name": "forwarder",
							"type": "address",
							"internalType": "address"
						}
					],
					"outputs": [
						{
							"name": "",
							"type": "bool",
							"internalType": "bool"
						}
					],
					"stateMutability": "view"
				},
				{
					"type": "function",
					"name": "nameOf",
					"inputs": [
						{
							"name": "hook",
							"type": "address",
							"internalType": "address"
						},
						{
							"name": "tokenId",
							"type": "uint256",
							"internalType": "uint256"
						}
					],
					"outputs": [
						{
							"name": "",
							"type": "string",
							"internalType": "string"
						}
					],
					"stateMutability": "view"
				},
				{
					"type": "function",
					"name": "owner",
					"inputs": [],
					"outputs": [
						{
							"name": "",
							"type": "address",
							"internalType": "address"
						}
					],
					"stateMutability": "view"
				},
				{
					"type": "function",
					"name": "renounceOwnership",
					"inputs": [],
					"outputs": [],
					"stateMutability": "nonpayable"
				},
				{
					"type": "function",
					"name": "setSvgBaseUri",
					"inputs": [
						{
							"name": "baseUri",
							"type": "string",
							"internalType": "string"
						}
					],
					"outputs": [],
					"stateMutability": "nonpayable"
				},
				{
					"type": "function",
					"name": "setSvgContentsOf",
					"inputs": [
						{
							"name": "tierIds",
							"type": "uint256[]",
							"internalType": "uint256[]"
						},
						{
							"name": "svgContents",
							"type": "string[]",
							"internalType": "string[]"
						}
					],
					"outputs": [],
					"stateMutability": "nonpayable"
				},
				{
					"type": "function",
					"name": "setSvgHashsOf",
					"inputs": [
						{
							"name": "tierIds",
							"type": "uint256[]",
							"internalType": "uint256[]"
						},
						{
							"name": "svgHashs",
							"type": "bytes32[]",
							"internalType": "bytes32[]"
						}
					],
					"outputs": [],
					"stateMutability": "nonpayable"
				},
				{
					"type": "function",
					"name": "setTierNames",
					"inputs": [
						{
							"name": "tierIds",
							"type": "uint256[]",
							"internalType": "uint256[]"
						},
						{
							"name": "names",
							"type": "string[]",
							"internalType": "string[]"
						}
					],
					"outputs": [],
					"stateMutability": "nonpayable"
				},
				{
					"type": "function",
					"name": "svgBaseUri",
					"inputs": [],
					"outputs": [
						{
							"name": "",
							"type": "string",
							"internalType": "string"
						}
					],
					"stateMutability": "view"
				},
				{
					"type": "function",
					"name": "svgHashOf",
					"inputs": [
						{
							"name": "tierId",
							"type": "uint256",
							"internalType": "uint256"
						}
					],
					"outputs": [
						{
							"name": "",
							"type": "bytes32",
							"internalType": "bytes32"
						}
					],
					"stateMutability": "view"
				},
				{
					"type": "function",
					"name": "tokenUriOf",
					"inputs": [
						{
							"name": "hook",
							"type": "address",
							"internalType": "address"
						},
						{
							"name": "tokenId",
							"type": "uint256",
							"internalType": "uint256"
						}
					],
					"outputs": [
						{
							"name": "",
							"type": "string",
							"internalType": "string"
						}
					],
					"stateMutability": "view"
				},
				{
					"type": "function",
					"name": "transferOwnership",
					"inputs": [
						{
							"name": "newOwner",
							"type": "address",
							"internalType": "address"
						}
					],
					"outputs": [],
					"stateMutability": "nonpayable"
				},
				{
					"type": "function",
					"name": "trustedForwarder",
					"inputs": [],
					"outputs": [
						{
							"name": "",
							"type": "address",
							"internalType": "address"
						}
					],
					"stateMutability": "view"
				},
				{
					"type": "event",
					"name": "DecorateBanny",
					"inputs": [
						{
							"name": "hook",
							"type": "address",
							"indexed": true,
							"internalType": "address"
						},
						{
							"name": "nakenBannyId",
							"type": "uint256",
							"indexed": true,
							"internalType": "uint256"
						},
						{
							"name": "worldId",
							"type": "uint256",
							"indexed": false,
							"internalType": "uint256"
						},
						{
							"name": "outfitIds",
							"type": "uint256[]",
							"indexed": false,
							"internalType": "uint256[]"
						},
						{
							"name": "caller",
							"type": "address",
							"indexed": false,
							"internalType": "address"
						}
					],
					"anonymous": false
				},
				{
					"type": "event",
					"name": "OwnershipTransferred",
					"inputs": [
						{
							"name": "previousOwner",
							"type": "address",
							"indexed": true,
							"internalType": "address"
						},
						{
							"name": "newOwner",
							"type": "address",
							"indexed": true,
							"internalType": "address"
						}
					],
					"anonymous": false
				},
				{
					"type": "event",
					"name": "SetSvgBaseUri",
					"inputs": [
						{
							"name": "baseUri",
							"type": "string",
							"indexed": false,
							"internalType": "string"
						},
						{
							"name": "caller",
							"type": "address",
							"indexed": false,
							"internalType": "address"
						}
					],
					"anonymous": false
				},
				{
					"type": "event",
					"name": "SetSvgContents",
					"inputs": [
						{
							"name": "tierId",
							"type": "uint256[]",
							"indexed": true,
							"internalType": "uint256[]"
						},
						{
							"name": "svgContents",
							"type": "string[]",
							"indexed": false,
							"internalType": "string[]"
						},
						{
							"name": "caller",
							"type": "address",
							"indexed": false,
							"internalType": "address"
						}
					],
					"anonymous": false
				},
				{
					"type": "event",
					"name": "SetSvgHashes",
					"inputs": [
						{
							"name": "tierIds",
							"type": "uint256[]",
							"indexed": true,
							"internalType": "uint256[]"
						},
						{
							"name": "svgHashs",
							"type": "bytes32[]",
							"indexed": true,
							"internalType": "bytes32[]"
						},
						{
							"name": "caller",
							"type": "address",
							"indexed": false,
							"internalType": "address"
						}
					],
					"anonymous": false
				},
				{
					"type": "event",
					"name": "SetTierNames",
					"inputs": [
						{
							"name": "tierIds",
							"type": "uint256[]",
							"indexed": true,
							"internalType": "uint256[]"
						},
						{
							"name": "names",
							"type": "string[]",
							"indexed": false,
							"internalType": "string[]"
						},
						{
							"name": "caller",
							"type": "address",
							"indexed": false,
							"internalType": "address"
						}
					],
					"anonymous": false
				},
				{
					"type": "error",
					"name": "CONTENTS_ALREADY_STORED",
					"inputs": []
				},
				{
					"type": "error",
					"name": "CONTENTS_MISMATCH",
					"inputs": []
				},
				{
					"type": "error",
					"name": "FACE_ALREADY_ADDED",
					"inputs": []
				},
				{
					"type": "error",
					"name": "HASH_ALREADY_STORED",
					"inputs": []
				},
				{
					"type": "error",
					"name": "HASH_NOT_FOUND",
					"inputs": []
				},
				{
					"type": "error",
					"name": "HEAD_ALREADY_ADDED",
					"inputs": []
				},
				{
					"type": "error",
					"name": "ONESIE_ALREADY_ADDED",
					"inputs": []
				},
				{
					"type": "error",
					"name": "OwnableInvalidOwner",
					"inputs": [
						{
							"name": "owner",
							"type": "address",
							"internalType": "address"
						}
					]
				},
				{
					"type": "error",
					"name": "OwnableUnauthorizedAccount",
					"inputs": [
						{
							"name": "account",
							"type": "address",
							"internalType": "address"
						}
					]
				},
				{
					"type": "error",
					"name": "SUIT_ALREADY_ADDED",
					"inputs": []
				},
				{
					"type": "error",
					"name": "UNAUTHORIZED_OUTFIT",
					"inputs": []
				},
				{
					"type": "error",
					"name": "UNAUTHORIZED_WORLD",
					"inputs": []
				},
				{
					"type": "error",
					"name": "UNAUTHORIZED__NAKED_BANNY",
					"inputs": []
				},
				{
					"type": "error",
					"name": "UNORDERED_CATEGORIES",
					"inputs": []
				},
				{
					"type": "error",
					"name": "UNRECOGNIZED_CATEGORY",
					"inputs": []
				},
				{
					"type": "error",
					"name": "UNRECOGNIZED_OUTFIT",
					"inputs": []
				},
				{
					"type": "error",
					"name": "UNRECOGNIZED_TIER",
					"inputs": []
				},
				{
					"type": "error",
					"name": "UNRECOGNIZED_WORLD",
					"inputs": []
				}
			],
			"solcInputHash": "5ef3c89845cbaf5e692ec59a6fea29ff",
			"receipt": {
				"blockHash": "0x122499e0097fda0f28d2c0e8e867f5756e7c32100364b83e408135b110881383",
				"blockNumber": 5623934,
				"contractAddress": null,
				"cumulativeGasUsed": "24935935",
				"from": "0xC034550B542b83BA1De312b21d1C94a9a52B1595",
				"gasPrice": "1000000097",
				"gasUsed": "11820455",
				"hash": "0x2d6d47573acf0b007b834186c3c82b5d71c5ff4f7ca564ab9d5cfa05dbe82a50",
				"index": 88,
				"logs": [
					{
						"address": "0xB5E96127D417b1B3ef8438496a38A143167209c7",
						"blockHash": "0x122499e0097fda0f28d2c0e8e867f5756e7c32100364b83e408135b110881383",
						"blockNumber": 5623934,
						"data": "0x0000000000000000000000000000000000000000000000000000000000000000",
						"index": 152,
						"topics": [
							"0x572f161235911da04685a68c06adf558fc7e4a36909dca394650e0adc19cc93d",
							"0x000000000000000000000000c034550b542b83ba1de312b21d1c94a9a52b1595",
							"0x000000000000000000000000183b35e76a7bc60298dcb637515f50e4def9b68b",
							"0xafb2d17e5ec82eec82a0e46bac8f89fd08474d2fbd34dbe9cb842c859b5acc10"
						],
						"transactionHash": "0x2d6d47573acf0b007b834186c3c82b5d71c5ff4f7ca564ab9d5cfa05dbe82a50",
						"transactionIndex": 88
					},
					{
						"address": "0x2098D40ACD999A0E0723efFDEB78dCF16fc9b5A3",
						"blockHash": "0x122499e0097fda0f28d2c0e8e867f5756e7c32100364b83e408135b110881383",
						"blockNumber": 5623934,
						"data": "0x",
						"index": 153,
						"topics": [
							"0x8be0079c531659141344cd1fd0a4f28419497f9722a3daafe3b4186f6b6457e0",
							"0x0000000000000000000000000000000000000000000000000000000000000000",
							"0x000000000000000000000000817738dc393d682ca5fbb268707b99f2aae96bae"
						],
						"transactionHash": "0x2d6d47573acf0b007b834186c3c82b5d71c5ff4f7ca564ab9d5cfa05dbe82a50",
						"transactionIndex": 88
					},
					{
						"address": "0x584F5Da53cb18789099466074e3B5c32Ed17243a",
						"blockHash": "0x122499e0097fda0f28d2c0e8e867f5756e7c32100364b83e408135b110881383",
						"blockNumber": 5623934,
						"data": "0x",
						"index": 154,
						"topics": [
							"0x6895c13664aa4f67288b25d7a21d7aaa34916e355fb9b6fae0a139a9085becb8",
							"0x000000000000000000000000183b35e76a7bc60298dcb637515f50e4def9b68b"
						],
						"transactionHash": "0x2d6d47573acf0b007b834186c3c82b5d71c5ff4f7ca564ab9d5cfa05dbe82a50",
						"transactionIndex": 88
					},
					{
						"address": "0x183b35E76A7BC60298DCb637515F50e4DeF9b68b",
						"blockHash": "0x122499e0097fda0f28d2c0e8e867f5756e7c32100364b83e408135b110881383",
						"blockNumber": 5623934,
						"data": "0x0000000000000000000000000000000000000000000000000000000000000001",
						"index": 155,
						"topics": [
							"0xa65fb05c5808f5f389d72edeaf719ce38f4cc55c1f69ca3cbfb31c21501caa07",
							"0x3c404a7da75c4d750e7915ae00f320ee464c63114de103f0fcf9e7ea9dff28a1"
						],
						"transactionHash": "0x2d6d47573acf0b007b834186c3c82b5d71c5ff4f7ca564ab9d5cfa05dbe82a50",
						"transactionIndex": 88
					},
					{
						"address": "0xE9a6F248F9f8854E9f161c84c34F2589Ec362BE9",
						"blockHash": "0x122499e0097fda0f28d2c0e8e867f5756e7c32100364b83e408135b110881383",
						"blockNumber": 5623934,
						"data": "0x",
						"index": 156,
						"topics": [
							"0xddf252ad1be2c89b69c2b068fc378daa952ba7f163c4a11628f55a4df523b3ef",
							"0x0000000000000000000000000000000000000000000000000000000000000000",
							"0x000000000000000000000000584f5da53cb18789099466074e3b5c32ed17243a",
							"0x0000000000000000000000000000000000000000000000000000000000000002"
						],
						"transactionHash": "0x2d6d47573acf0b007b834186c3c82b5d71c5ff4f7ca564ab9d5cfa05dbe82a50",
						"transactionIndex": 88
					},
					{
						"address": "0xE9a6F248F9f8854E9f161c84c34F2589Ec362BE9",
						"blockHash": "0x122499e0097fda0f28d2c0e8e867f5756e7c32100364b83e408135b110881383",
						"blockNumber": 5623934,
						"data": "0x000000000000000000000000584f5da53cb18789099466074e3b5c32ed17243a",
						"index": 157,
						"topics": [
							"0x365b3162cd780731fc55a794b59494d472bc2af701007f581843a70673814698",
							"0x0000000000000000000000000000000000000000000000000000000000000002",
							"0x000000000000000000000000584f5da53cb18789099466074e3b5c32ed17243a"
						],
						"transactionHash": "0x2d6d47573acf0b007b834186c3c82b5d71c5ff4f7ca564ab9d5cfa05dbe82a50",
						"transactionIndex": 88
					},
					{
						"address": "0x584F5Da53cb18789099466074e3B5c32Ed17243a",
						"blockHash": "0x122499e0097fda0f28d2c0e8e867f5756e7c32100364b83e408135b110881383",
						"blockNumber": 5623934,
						"data": "0x",
						"index": 158,
						"topics": [
							"0x6895c13664aa4f67288b25d7a21d7aaa34916e355fb9b6fae0a139a9085becb8",
							"0x000000000000000000000000183b35e76a7bc60298dcb637515f50e4def9b68b"
						],
						"transactionHash": "0x2d6d47573acf0b007b834186c3c82b5d71c5ff4f7ca564ab9d5cfa05dbe82a50",
						"transactionIndex": 88
					},
					{
						"address": "0x183b35E76A7BC60298DCb637515F50e4DeF9b68b",
						"blockHash": "0x122499e0097fda0f28d2c0e8e867f5756e7c32100364b83e408135b110881383",
						"blockNumber": 5623934,
						"data": "0x0000000000000000000000000000000000000000000000000000000000000002",
						"index": 159,
						"topics": [
							"0xa65fb05c5808f5f389d72edeaf719ce38f4cc55c1f69ca3cbfb31c21501caa07",
							"0x3c404a7da75c4d750e7915ae00f320ee464c63114de103f0fcf9e7ea9dff28a1"
						],
						"transactionHash": "0x2d6d47573acf0b007b834186c3c82b5d71c5ff4f7ca564ab9d5cfa05dbe82a50",
						"transactionIndex": 88
					},
					{
						"address": "0x953AB7f10EfE861B21CfB9630768818A04742587",
						"blockHash": "0x122499e0097fda0f28d2c0e8e867f5756e7c32100364b83e408135b110881383",
						"blockNumber": 5623934,
						"data": "0x00000000000000000000000000000000000000000000000000000000000000600000000000000000000000000000000000000000000000000000000032020084000000000000000000000000584f5da53cb18789099466074e3b5c32ed17243a00000000000000000000000000000000000000000000000000000000000000060000000000000000000000000000000000000000000000000000000000000002000000000000000000000000000000000000000000000000000000000000000700000000000000000000000000000000000000000000000000000000000000190000000000000000000000000000000000000000000000000000000000000011000000000000000000000000000000000000000000000000000000000000001c000000000000000000000000000000000000000000000000000000000000001d",
						"index": 160,
						"topics": [
							"0xf8cdf10a0ce6189c6d069e97320ef146e2bcbd32d6c0b86dcbfbf3bd8578fa70",
							"0x0000000000000000000000002a60814151521819d56d8a756f5c9625b16e9773",
							"0x000000000000000000000000584f5da53cb18789099466074e3b5c32ed17243a",
							"0x0000000000000000000000000000000000000000000000000000000000000002"
						],
						"transactionHash": "0x2d6d47573acf0b007b834186c3c82b5d71c5ff4f7ca564ab9d5cfa05dbe82a50",
						"transactionIndex": 88
					},
					{
						"address": "0x584F5Da53cb18789099466074e3B5c32Ed17243a",
						"blockHash": "0x122499e0097fda0f28d2c0e8e867f5756e7c32100364b83e408135b110881383",
						"blockNumber": 5623934,
						"data": "0x",
						"index": 161,
						"topics": [
							"0x6895c13664aa4f67288b25d7a21d7aaa34916e355fb9b6fae0a139a9085becb8",
							"0x000000000000000000000000183b35e76a7bc60298dcb637515f50e4def9b68b"
						],
						"transactionHash": "0x2d6d47573acf0b007b834186c3c82b5d71c5ff4f7ca564ab9d5cfa05dbe82a50",
						"transactionIndex": 88
					},
					{
						"address": "0x183b35E76A7BC60298DCb637515F50e4DeF9b68b",
						"blockHash": "0x122499e0097fda0f28d2c0e8e867f5756e7c32100364b83e408135b110881383",
						"blockNumber": 5623934,
						"data": "0x0000000000000000000000000000000000000000000000000000000000000003",
						"index": 162,
						"topics": [
							"0xa65fb05c5808f5f389d72edeaf719ce38f4cc55c1f69ca3cbfb31c21501caa07",
							"0x3c404a7da75c4d750e7915ae00f320ee464c63114de103f0fcf9e7ea9dff28a1"
						],
						"transactionHash": "0x2d6d47573acf0b007b834186c3c82b5d71c5ff4f7ca564ab9d5cfa05dbe82a50",
						"transactionIndex": 88
					},
					{
						"address": "0x953AB7f10EfE861B21CfB9630768818A04742587",
						"blockHash": "0x122499e0097fda0f28d2c0e8e867f5756e7c32100364b83e408135b110881383",
						"blockNumber": 5623934,
						"data": "0x00000000000000000000000000000000000000000000000000000000000000600000000000000000000000000000000000000000000000000000000010000000000000000000000000000000584f5da53cb18789099466074e3b5c32ed17243a0000000000000000000000000000000000000000000000000000000000000001000000000000000000000000000000000000000000000000000000000000001c",
						"index": 163,
						"topics": [
							"0xf8cdf10a0ce6189c6d069e97320ef146e2bcbd32d6c0b86dcbfbf3bd8578fa70",
							"0x0000000000000000000000000279b704b409a70e23d6ab27544badb568aa4930",
							"0x000000000000000000000000584f5da53cb18789099466074e3b5c32ed17243a",
							"0x0000000000000000000000000000000000000000000000000000000000000002"
						],
						"transactionHash": "0x2d6d47573acf0b007b834186c3c82b5d71c5ff4f7ca564ab9d5cfa05dbe82a50",
						"transactionIndex": 88
					},
					{
						"address": "0x584F5Da53cb18789099466074e3B5c32Ed17243a",
						"blockHash": "0x122499e0097fda0f28d2c0e8e867f5756e7c32100364b83e408135b110881383",
						"blockNumber": 5623934,
						"data": "0x",
						"index": 164,
						"topics": [
							"0x6895c13664aa4f67288b25d7a21d7aaa34916e355fb9b6fae0a139a9085becb8",
							"0x000000000000000000000000183b35e76a7bc60298dcb637515f50e4def9b68b"
						],
						"transactionHash": "0x2d6d47573acf0b007b834186c3c82b5d71c5ff4f7ca564ab9d5cfa05dbe82a50",
						"transactionIndex": 88
					},
					{
						"address": "0x183b35E76A7BC60298DCb637515F50e4DeF9b68b",
						"blockHash": "0x122499e0097fda0f28d2c0e8e867f5756e7c32100364b83e408135b110881383",
						"blockNumber": 5623934,
						"data": "0x0000000000000000000000000000000000000000000000000000000000000004",
						"index": 165,
						"topics": [
							"0xa65fb05c5808f5f389d72edeaf719ce38f4cc55c1f69ca3cbfb31c21501caa07",
							"0x3c404a7da75c4d750e7915ae00f320ee464c63114de103f0fcf9e7ea9dff28a1"
						],
						"transactionHash": "0x2d6d47573acf0b007b834186c3c82b5d71c5ff4f7ca564ab9d5cfa05dbe82a50",
						"transactionIndex": 88
					},
					{
						"address": "0xBFA440384e7d5f6Cf84D632581087cB0E6Eeee50",
						"blockHash": "0x122499e0097fda0f28d2c0e8e867f5756e7c32100364b83e408135b110881383",
						"blockNumber": 5623934,
						"data": "0x",
						"index": 166,
						"topics": [
							"0x8be0079c531659141344cd1fd0a4f28419497f9722a3daafe3b4186f6b6457e0",
							"0x0000000000000000000000000000000000000000000000000000000000000000",
							"0x0000000000000000000000005400f3a86278f0322f0e2ffb4570451bacd4ff34"
						],
						"transactionHash": "0x2d6d47573acf0b007b834186c3c82b5d71c5ff4f7ca564ab9d5cfa05dbe82a50",
						"transactionIndex": 88
					},
					{
						"address": "0xBFA440384e7d5f6Cf84D632581087cB0E6Eeee50",
						"blockHash": "0x122499e0097fda0f28d2c0e8e867f5756e7c32100364b83e408135b110881383",
						"blockNumber": 5623934,
						"data": "0x",
						"index": 167,
						"topics": [
							"0x8be0079c531659141344cd1fd0a4f28419497f9722a3daafe3b4186f6b6457e0",
							"0x0000000000000000000000005400f3a86278f0322f0e2ffb4570451bacd4ff34",
							"0x0000000000000000000000002a60814151521819d56d8a756f5c9625b16e9773"
						],
						"transactionHash": "0x2d6d47573acf0b007b834186c3c82b5d71c5ff4f7ca564ab9d5cfa05dbe82a50",
						"transactionIndex": 88
					},
					{
						"address": "0x2dfD60dc47c064ba90857446c96bF3b1412500Fe",
						"blockHash": "0x122499e0097fda0f28d2c0e8e867f5756e7c32100364b83e408135b110881383",
						"blockNumber": 5623934,
						"data": "0x",
						"index": 168,
						"topics": [
							"0x72b627b4904fa8a0160a923aa5b142eb19f6e56dc75017884162206f8886df09",
							"0x000000000000000000000000bfa440384e7d5f6cf84d632581087cb0e6eeee50",
							"0x0000000000000000000000005400f3a86278f0322f0e2ffb4570451bacd4ff34"
						],
						"transactionHash": "0x2d6d47573acf0b007b834186c3c82b5d71c5ff4f7ca564ab9d5cfa05dbe82a50",
						"transactionIndex": 88
					},
					{
						"address": "0x5400f3A86278F0322F0E2FfB4570451bACd4Ff34",
						"blockHash": "0x122499e0097fda0f28d2c0e8e867f5756e7c32100364b83e408135b110881383",
						"blockNumber": 5623934,
						"data": "0x000000000000000000000000bfa440384e7d5f6cf84d632581087cb0e6eeee50",
						"index": 169,
						"topics": [
							"0xa42f6bb68e81f4650a7966f109d861f6c3d2a477e608e30807f568bed1cebdb9",
							"0x0000000000000000000000000000000000000000000000000000000000000002"
						],
						"transactionHash": "0x2d6d47573acf0b007b834186c3c82b5d71c5ff4f7ca564ab9d5cfa05dbe82a50",
						"transactionIndex": 88
					},
					{
						"address": "0x71Ff91C8A27b436f7025C053c01A3F6AAE3Fc62E",
						"blockHash": "0x122499e0097fda0f28d2c0e8e867f5756e7c32100364b83e408135b110881383",
						"blockNumber": 5623934,
						"data": "0x000000000000000000000000beb17ba97066906106d72fca2f05f1e307e74b76",
						"index": 170,
						"topics": [
							"0x7f9a7dcb234c909a09de2f344661ad9e5b24067adb97c908647c2edcbb121c30",
							"0x0000000000000000000000000000000000000000000000000000000000000002",
							"0x000000000000000000000000beb17ba97066906106d72fca2f05f1e307e74b76"
						],
						"transactionHash": "0x2d6d47573acf0b007b834186c3c82b5d71c5ff4f7ca564ab9d5cfa05dbe82a50",
						"transactionIndex": 88
					},
					{
						"address": "0x76C87701D0aD2C5C3B40C36617CEba566436A69f",
						"blockHash": "0x122499e0097fda0f28d2c0e8e867f5756e7c32100364b83e408135b110881383",
						"blockNumber": 5623934,
						"data": "0x",
						"index": 171,
						"topics": [
							"0xfda207e5d149787155cf9596283f246f082d4744a57e37dda99146e5dcc542bb",
							"0x00000000000000000000000000000000000000000000000000000000660dee34",
							"0x0000000000000000000000000000000000000000000000000000000000000002",
							"0x0000000000000000000000000000000000000000000000000000000000000000"
						],
						"transactionHash": "0x2d6d47573acf0b007b834186c3c82b5d71c5ff4f7ca564ab9d5cfa05dbe82a50",
						"transactionIndex": 88
					},
					{
						"address": "0x76C87701D0aD2C5C3B40C36617CEba566436A69f",
						"blockHash": "0x122499e0097fda0f28d2c0e8e867f5756e7c32100364b83e408135b110881383",
						"blockNumber": 5623934,
						"data": "0x000000000000000000000000000000000000000000000000000000000001518000000000000000000000000000000000000000000000d3c21bcecceda10000000000000000000000000000000000000000000000000000000000000002faf08000000000000000000000000000000000000000000000000000000000000000000000153040a0a8a90c0ceab6c53ab7ae4b12d8b74bb9a040000eeee1f40138810000000000000000000000000000000000000000000000000000000065f9e319000000000000000000000000beb17ba97066906106d72fca2f05f1e307e74b76",
						"index": 172,
						"topics": [
							"0x11a490bebff1beffe4bdd210894aca6ea5049427ce4b3c48865717677199cb07",
							"0x00000000000000000000000000000000000000000000000000000000660dee34",
							"0x0000000000000000000000000000000000000000000000000000000000000002"
						],
						"transactionHash": "0x2d6d47573acf0b007b834186c3c82b5d71c5ff4f7ca564ab9d5cfa05dbe82a50",
						"transactionIndex": 88
					},
					{
						"address": "0x76C87701D0aD2C5C3B40C36617CEba566436A69f",
						"blockHash": "0x122499e0097fda0f28d2c0e8e867f5756e7c32100364b83e408135b110881383",
						"blockNumber": 5623934,
						"data": "0x",
						"index": 173,
						"topics": [
							"0xfda207e5d149787155cf9596283f246f082d4744a57e37dda99146e5dcc542bb",
							"0x00000000000000000000000000000000000000000000000000000000660dee35",
							"0x0000000000000000000000000000000000000000000000000000000000000002",
							"0x00000000000000000000000000000000000000000000000000000000660dee34"
						],
						"transactionHash": "0x2d6d47573acf0b007b834186c3c82b5d71c5ff4f7ca564ab9d5cfa05dbe82a50",
						"transactionIndex": 88
					},
					{
						"address": "0x76C87701D0aD2C5C3B40C36617CEba566436A69f",
						"blockHash": "0x122499e0097fda0f28d2c0e8e867f5756e7c32100364b83e408135b110881383",
						"blockNumber": 5623934,
						"data": "0x0000000000000000000000000000000000000000000000000000000000093a8000000000000000000000000000000000000000000000152d02c7e14af6800000000000000000000000000000000000000000000000000000000000000000968000000000000000000000000000000000000000000000000000000000000000000000153040a0a8a90c0ceab6c53ab7ae4b12d8b74bb9a040000eeee13881388100000000000000000000000000000000000000000000000000000000661ecd19000000000000000000000000beb17ba97066906106d72fca2f05f1e307e74b76",
						"index": 174,
						"topics": [
							"0x11a490bebff1beffe4bdd210894aca6ea5049427ce4b3c48865717677199cb07",
							"0x00000000000000000000000000000000000000000000000000000000660dee35",
							"0x0000000000000000000000000000000000000000000000000000000000000002"
						],
						"transactionHash": "0x2d6d47573acf0b007b834186c3c82b5d71c5ff4f7ca564ab9d5cfa05dbe82a50",
						"transactionIndex": 88
					},
					{
						"address": "0x7deD6685996ae04BeA60B75E827379d95B40685C",
						"blockHash": "0x122499e0097fda0f28d2c0e8e867f5756e7c32100364b83e408135b110881383",
						"blockNumber": 5623934,
						"data": "0x000000000000000000000000000000000000000000000000000000000000eeee0000000000000000000000000000000000000000000000000000000000000012000000000000000000000000000000000000000000000000000000000000eeee000000000000000000000000beb17ba97066906106d72fca2f05f1e307e74b76",
						"index": 175,
						"topics": [
							"0x9570de6fc0456f642bd0a001b24cd31676388c24596df64a17190c24310690a1",
							"0x0000000000000000000000000000000000000000000000000000000000000002",
							"0x000000000000000000000000000000000000000000000000000000000000eeee"
						],
						"transactionHash": "0x2d6d47573acf0b007b834186c3c82b5d71c5ff4f7ca564ab9d5cfa05dbe82a50",
						"transactionIndex": 88
					},
					{
						"address": "0x71Ff91C8A27b436f7025C053c01A3F6AAE3Fc62E",
						"blockHash": "0x122499e0097fda0f28d2c0e8e867f5756e7c32100364b83e408135b110881383",
						"blockNumber": 5623934,
						"data": "0x0000000000000000000000000000000000000000000000000000000000000040000000000000000000000000beb17ba97066906106d72fca2f05f1e307e74b7600000000000000000000000000000000000000000000000000000000000000010000000000000000000000007ded6685996ae04bea60b75e827379d95b40685c",
						"index": 176,
						"topics": [
							"0xb648241d83df6540fc10f2acc641e4bf80a1e84e7ae2f1f6b0ad204b8fee635b",
							"0x0000000000000000000000000000000000000000000000000000000000000002"
						],
						"transactionHash": "0x2d6d47573acf0b007b834186c3c82b5d71c5ff4f7ca564ab9d5cfa05dbe82a50",
						"transactionIndex": 88
					},
					{
						"address": "0xBeb17Ba97066906106d72fCA2F05F1E307E74B76",
						"blockHash": "0x122499e0097fda0f28d2c0e8e867f5756e7c32100364b83e408135b110881383",
						"blockNumber": 5623934,
						"data": "0x00000000000000000000000000000000000000000000000000000000660dee35000000000000000000000000000000000000000000000000000000000000000200000000000000000000000000000000000000000000000000000000000000800000000000000000000000002a60814151521819d56d8a756f5c9625b16e977300000000000000000000000000000000000000000000000000000000000000162442414e4e59207265766e6574206465706c6f79656400000000000000000000",
						"index": 177,
						"topics": [
							"0x23164adda696b19106c2eef50ba44461997682bf5aeb9fdb383117fa9952cc75"
						],
						"transactionHash": "0x2d6d47573acf0b007b834186c3c82b5d71c5ff4f7ca564ab9d5cfa05dbe82a50",
						"transactionIndex": 88
					},
					{
						"address": "0x2Fa489e60fe05587e3b2c449038720a5CF01DBa2",
						"blockHash": "0x122499e0097fda0f28d2c0e8e867f5756e7c32100364b83e408135b110881383",
						"blockNumber": 5623934,
						"data": "0x",
						"index": 178,
						"topics": [
							"0x8be0079c531659141344cd1fd0a4f28419497f9722a3daafe3b4186f6b6457e0",
							"0x0000000000000000000000000000000000000000000000000000000000000000",
							"0x000000000000000000000000f25dce432b7ed1ccd5f0a2481f980862e359a092"
						],
						"transactionHash": "0x2d6d47573acf0b007b834186c3c82b5d71c5ff4f7ca564ab9d5cfa05dbe82a50",
						"transactionIndex": 88
					},
					{
						"address": "0xF25dCe432B7ED1CCd5F0A2481f980862e359A092",
						"blockHash": "0x122499e0097fda0f28d2c0e8e867f5756e7c32100364b83e408135b110881383",
						"blockNumber": 5623934,
						"data": "0x000000000000000000000000000000000000000000000000000000000000008000000000000000000000000000000000000000000000000000000000000000c07fc922dfcd100033353e8a978668aeab65ef6e170e816781b495be3fe0e1d827000000000000000000000000beb17ba97066906106d72fca2f05f1e307e74b76000000000000000000000000000000000000000000000000000000000000000a42616e6e79766572736500000000000000000000000000000000000000000000000000000000000000000000000000000000000000000000000000000000000542414e4e59000000000000000000000000000000000000000000000000000000",
						"index": 179,
						"topics": [
							"0xb4510654a5884cae50948507300dc482833ed1446cef375e064bef00b6b4ba4e",
							"0x0000000000000000000000000000000000000000000000000000000000000002",
							"0x0000000000000000000000002fa489e60fe05587e3b2c449038720a5cf01dba2"
						],
						"transactionHash": "0x2d6d47573acf0b007b834186c3c82b5d71c5ff4f7ca564ab9d5cfa05dbe82a50",
						"transactionIndex": 88
					},
					{
						"address": "0xDdCA0060D6055765a6E8261D4C9e8ca99073C439",
						"blockHash": "0x122499e0097fda0f28d2c0e8e867f5756e7c32100364b83e408135b110881383",
						"blockNumber": 5623934,
						"data": "0x0000000000000000000000000000000000000000000000000000000000000000000000000000000000000000000000000000000000000000000000000002a3000000000000000000000000002a60814151521819d56d8a756f5c9625b16e9773",
						"index": 180,
						"topics": [
							"0xa8d6b20cd05f07d50e9855ce0fc6de3517f3df2e890a5ec6357892b3808a53ce",
							"0x0000000000000000000000000000000000000000000000000000000000000002"
						],
						"transactionHash": "0x2d6d47573acf0b007b834186c3c82b5d71c5ff4f7ca564ab9d5cfa05dbe82a50",
						"transactionIndex": 88
					},
					{
						"address": "0xDdCA0060D6055765a6E8261D4C9e8ca99073C439",
						"blockHash": "0x122499e0097fda0f28d2c0e8e867f5756e7c32100364b83e408135b110881383",
						"blockNumber": 5623934,
						"data": "0x000000000000000000000000000000000000000000000000000000000000000000000000000000000000000000000000000000000000000000000000000023280000000000000000000000002a60814151521819d56d8a756f5c9625b16e9773",
						"index": 181,
						"topics": [
							"0xaafe2470cbfb11a09f9b45d6a795226e93cc251e30fdcabddbabb157a1db5353",
							"0x0000000000000000000000000000000000000000000000000000000000000002"
						],
						"transactionHash": "0x2d6d47573acf0b007b834186c3c82b5d71c5ff4f7ca564ab9d5cfa05dbe82a50",
						"transactionIndex": 88
					},
					{
						"address": "0xDdCA0060D6055765a6E8261D4C9e8ca99073C439",
						"blockHash": "0x122499e0097fda0f28d2c0e8e867f5756e7c32100364b83e408135b110881383",
						"blockNumber": 5623934,
						"data": "0x000000000000000000000000376893e50a2f402c888aa9e023e266e0f43762ce0000000000000000000000002a60814151521819d56d8a756f5c9625b16e9773",
						"index": 182,
						"topics": [
							"0xe694de883385e30d535f625d68df4b2b5e866e8e86fe9d15554480c8d1812e60",
							"0x0000000000000000000000000000000000000000000000000000000000000002",
							"0x0000000000000000000000007b79995e5f793a07bc00c21412e50ecae098e7f9"
						],
						"transactionHash": "0x2d6d47573acf0b007b834186c3c82b5d71c5ff4f7ca564ab9d5cfa05dbe82a50",
						"transactionIndex": 88
					},
					{
						"address": "0xC91586B6FE425d75C6B0f53daf9831811725bD2c",
						"blockHash": "0x122499e0097fda0f28d2c0e8e867f5756e7c32100364b83e408135b110881383",
						"blockNumber": 5623934,
						"data": "0x0000000000000000000000000000000000000000000000000000000000000000000000000000000000000000000000000000000000000000000000003b9aca000000000000000000000000000000000000000000000000000000000000000000000000000000000000000000817738dc393d682ca5fbb268707b99f2aae96bae00000000000000000000000000000000000000000000000000000000000000000000000000000000000000000000000000000000000000000000000000000000000000000000000000000000beb17ba97066906106d72fca2f05f1e307e74b76",
						"index": 183,
						"topics": [
							"0x0d7ea8ac1cb69dfa18ce2b18e90d31b4d4a0370aacadf7db42d42930a09b3f01",
							"0x0000000000000000000000000000000000000000000000000000000000000002",
							"0x0000000000000000000000000000000000000000000000000000000000000000",
							"0x0000000000000000000000000000000000000000000000000000000000000001"
						],
						"transactionHash": "0x2d6d47573acf0b007b834186c3c82b5d71c5ff4f7ca564ab9d5cfa05dbe82a50",
						"transactionIndex": 88
					},
					{
						"address": "0x953AB7f10EfE861B21CfB9630768818A04742587",
						"blockHash": "0x122499e0097fda0f28d2c0e8e867f5756e7c32100364b83e408135b110881383",
						"blockNumber": 5623934,
						"data": "0x00000000000000000000000000000000000000000000000000000000000000600000000000000000000000000000000000000000000000000000000002e200400000000000000000000000002a60814151521819d56d8a756f5c9625b16e97730000000000000000000000000000000000000000000000000000000000000006000000000000000000000000000000000000000000000000000000000000001100000000000000000000000000000000000000000000000000000000000000190000000000000000000000000000000000000000000000000000000000000006000000000000000000000000000000000000000000000000000000000000001500000000000000000000000000000000000000000000000000000000000000160000000000000000000000000000000000000000000000000000000000000017",
						"index": 184,
						"topics": [
							"0xf8cdf10a0ce6189c6d069e97320ef146e2bcbd32d6c0b86dcbfbf3bd8578fa70",
							"0x000000000000000000000000817738dc393d682ca5fbb268707b99f2aae96bae",
							"0x0000000000000000000000002a60814151521819d56d8a756f5c9625b16e9773",
							"0x0000000000000000000000000000000000000000000000000000000000000002"
						],
						"transactionHash": "0x2d6d47573acf0b007b834186c3c82b5d71c5ff4f7ca564ab9d5cfa05dbe82a50",
						"transactionIndex": 88
					},
					{
						"address": "0x953AB7f10EfE861B21CfB9630768818A04742587",
						"blockHash": "0x122499e0097fda0f28d2c0e8e867f5756e7c32100364b83e408135b110881383",
						"blockNumber": 5623934,
						"data": "0x000000000000000000000000000000000000000000000000000000000000006000000000000000000000000000000000000000000000000000000000100000000000000000000000000000002a60814151521819d56d8a756f5c9625b16e97730000000000000000000000000000000000000000000000000000000000000001000000000000000000000000000000000000000000000000000000000000001c",
						"index": 185,
						"topics": [
							"0xf8cdf10a0ce6189c6d069e97320ef146e2bcbd32d6c0b86dcbfbf3bd8578fa70",
							"0x0000000000000000000000000279b704b409a70e23d6ab27544badb568aa4930",
							"0x0000000000000000000000002a60814151521819d56d8a756f5c9625b16e9773",
							"0x0000000000000000000000000000000000000000000000000000000000000002"
						],
						"transactionHash": "0x2d6d47573acf0b007b834186c3c82b5d71c5ff4f7ca564ab9d5cfa05dbe82a50",
						"transactionIndex": 88
					},
					{
						"address": "0x2A60814151521819D56d8A756F5c9625B16E9773",
						"blockHash": "0x122499e0097fda0f28d2c0e8e867f5756e7c32100364b83e408135b110881383",
						"blockNumber": 5623934,
						"data": "0x000000000000000000000000000000000000000000000000000000000000010000000000000000000000000000000000000000000000000000000000000004800000000000000000000000000000000000000000000000000000000000000540000000000000000000000000000000000000000000000000000000000000062000000000000000000000000000000000000000000000000000000000000007800000000000000000000000000000000000000000000000000000000000000e200000000000000000000000000000000000000000000000000000000000000001000000000000000000000000584f5da53cb18789099466074e3b5c32ed17243a00000000000000000000000000000000000000000000000000000000000000c0000000000000000000000000000000000000000000000000000000000000eeee000000000000000000000000000000000000000000422ca8b0a00a42500000000000000000000000000000000000000000000000000000000000000000000001000000000000000000000000817738dc393d682ca5fbb268707b99f2aae96bae00000000000000000000000000000000000000000000000000000000000001e0000000000000000000000000000000000000000000000000000000000000008000000000000000000000000000000000000000000000000000000000000000c0000000000000000000000000000000000000000000000000000000000000010042414e4e59564552534500000000000000000000000000000000000000000000000000000000000000000000000000000000000000000000000000000000000a42616e6e79766572736500000000000000000000000000000000000000000000000000000000000000000000000000000000000000000000000000000000000542414e4e59000000000000000000000000000000000000000000000000000000000000000000000000000000000000000000000000000000000000000000000000000000000000000000000000000000000000000000000000000000000000020000000000000000000000000000000000000000000000000000000065f9e319000000000000000000000000000000000000000000000000000000000000138800000000000000000000000000000000000000000000d3c21bcecceda100000000000000000000000000000000000000000000000000000000000000000151800000000000000000000000000000000000000000000000000000000002faf08000000000000000000000000000000000000000000000000000000000000007d000000000000000000000000000000000000000000000000000000000661ecd19000000000000000000000000000000000000000000000000000000000000138800000000000000000000000000000000000000000000152d02c7e14af68000000000000000000000000000000000000000000000000000000000000000093a8000000000000000000000000000000000000000000000000000000000000096800000000000000000000000000000000000000000000000000000000000001388000000000000000000000000000000000000000000000000000000000000000100000000000000000000000000000000000000000000000000000000000000200000000000000000000000007ded6685996ae04bea60b75e827379d95b40685c00000000000000000000000000000000000000000000000000000000000000400000000000000000000000000000000000000000000000000000000000000001000000000000000000000000000000000000000000000000000000000000eeee000000000000000000000000ddca0060d6055765a6e8261d4c9e8ca99073c43900000000000000000000000000000000000000000000000000000000000000400000000000000000000000000000000000000000000000000000000000000001000000000000000000000000000000000000000000000000000000000000eeee0000000000000000000000000000000000000000000000000000000000002710000000000000000000000000000000000000000000000000000000000002a3000000000000000000000000000000000000000000000000000000000000002328000000000000000000000000000000000000000000000000000000000000004042414e4e5956455253455f5355434b455200000000000000000000000000000000000000000000000000000000000000000000000000000000000000000000010000000000000000000000000000000000000000000000000000000000000020000000000000000000000000992bc3756d0e58f3a09002db8ea1b74061ab6b2100000000000000000000000000000000000000000000000000000000000000400000000000000000000000000000000000000000000000000000000000000001000000000000000000000000000000000000000000000000000000000000eeee0000000000000000000000000000000000000000000000000000000000030d40000000000000000000000000000000000000000000000000000000000000eeee000000000000000000000000000000000000000000000000002386f26fc100000000000000000000000000000000000000000000000000000000000000000002000000000000000000000000000000000000000000000000000000000000004000000000000000000000000000000000000000000000000000000000000003600000000000000000000000000000000000000000000000000000000065f9e319000000000000000000000000000000000000000000000000000000000001518000000000000000000000000000000000000000000000d3c21bcecceda10000000000000000000000000000000000000000000000000000000000000002faf080000000000000000000000000000000000000000000000000000000000000000000000000000000000000000000000000000000000000000000000000000013880000000000000000000000000000000000000000000000000000000000001f40000000000000000000000000000000000000000000000000000000000000eeee000000000000000000000000000000000000000000000000000000000000000000000000000000000000000000000000000000000000000000000000000000000000000000000000000000000000000000000000000000000000000000000001000000000000000000000000000000000000000000000000000000000000000000000000000000000000000000000000000000000000000000000000000000000000000000000000000000000000000000000000000000000000000000000000000000000000000000000000000000000000000000000000000000000000000000000000000000000000000000000000000000000000000000000000000000000000000000000000000000000000000000000000000000000000000000000000000000000000000000000000000000000000000000000000000000000000000100000000000000000000000000000000000000000000000000000000000000000000000000000000000000002a60814151521819d56d8a756f5c9625b16e9773000000000000000000000000000000000000000000000000000000000000000000000000000000000000000000000000000000000000000000000000000002e000000000000000000000000000000000000000000000000000000000000003000000000000000000000000000000000000000000000000000000000000000000000000000000000000000000000000000000000000000000000000000000000000000000000000000000000000000000000000000000000000000000661ecd190000000000000000000000000000000000000000000000000000000000093a8000000000000000000000000000000000000000000000152d02c7e14af68000000000000000000000000000000000000000000000000000000000000000009680000000000000000000000000000000000000000000000000000000000000000000000000000000000000000000000000000000000000000000000000000013880000000000000000000000000000000000000000000000000000000000001388000000000000000000000000000000000000000000000000000000000000eeee000000000000000000000000000000000000000000000000000000000000000000000000000000000000000000000000000000000000000000000000000000000000000000000000000000000000000000000000000000000000000000000001000000000000000000000000000000000000000000000000000000000000000000000000000000000000000000000000000000000000000000000000000000000000000000000000000000000000000000000000000000000000000000000000000000000000000000000000000000000000000000000000000000000000000000000000000000000000000000000000000000000000000000000000000000000000000000000000000000000000000000000000000000000000000000000000000000000000000000000000000000000000000000000000000000000000000100000000000000000000000000000000000000000000000000000000000000000000000000000000000000002a60814151521819d56d8a756f5c9625b16e9773000000000000000000000000000000000000000000000000000000000000000000000000000000000000000000000000000000000000000000000000000002e000000000000000000000000000000000000000000000000000000000000003000000000000000000000000000000000000000000000000000000000000000000000000000000000000000000000000000000000000000000000000000000000000000000000000000000000000000000000000000000000000000000000002a0000000000000000000000000000000000000000000000000000000000000eeee000000000000000000000000000000000000000000000000000000000000000100000000000000000000000000000000000000000000000000000000000000a000000000000000000000000000000000000000000000000000000000000000e042414e4e59564552534500000000000000000000000000000000000000000000000000000000000000000000000000000000000000000000000000000000000a42616e6e79766572736500000000000000000000000000000000000000000000000000000000000000000000000000000000000000000000000000000000000542414e4e590000000000000000000000000000000000000000000000000000000000000000000000000000000000000000000000000000000000000065f9e319000000000000000000000000000000000000000000000000000000000000138800000000000000000000000000000000000000000000d3c21bcecceda100000000000000000000000000000000000000000000000000000000000000000151800000000000000000000000000000000000000000000000000000000002faf08000000000000000000000000000000000000000000000000000000000000007d000000000000000000000000000000000000000000000000000000000661ecd19000000000000000000000000000000000000000000000000000000000000138800000000000000000000000000000000000000000000152d02c7e14af68000000000000000000000000000000000000000000000000000000000000000093a8000000000000000000000000000000000000000000000000000000000000096800000000000000000000000000000000000000000000000000000000000001388",
						"index": 186,
						"topics": [
							"0x4b827371715024f69a0bc98c8df6edafe6e471e78488ab1b3849de72f66b12e0",
							"0x0000000000000000000000000000000000000000000000000000000000000002"
						],
						"transactionHash": "0x2d6d47573acf0b007b834186c3c82b5d71c5ff4f7ca564ab9d5cfa05dbe82a50",
						"transactionIndex": 88
					},
					{
						"address": "0x2A60814151521819D56d8A756F5c9625B16E9773",
						"blockHash": "0x122499e0097fda0f28d2c0e8e867f5756e7c32100364b83e408135b110881383",
						"blockNumber": 5623934,
						"data": "0x0000000000000000000000000000000000000000000000000000000000000040000000000000000000000000584f5da53cb18789099466074e3b5c32ed17243a00000000000000000000000000000000000000000000000000000000000000010000000000000000000000000000000000000000000000000000000000000020000000000000000000000000bfa440384e7d5f6cf84d632581087cb0e6eeee50000000000000000000000000000000000000000000000000000000000000000000000000000000000000000000000000000000000000000000000000000000600000000000000000000000000000000000000000000000000000000000000000",
						"index": 187,
						"topics": [
							"0xdfaf2737f25eace49d372b472ec03f1df0f9814dfc69d2b95c5e92a041f42e29",
							"0x0000000000000000000000000000000000000000000000000000000000000002"
						],
						"transactionHash": "0x2d6d47573acf0b007b834186c3c82b5d71c5ff4f7ca564ab9d5cfa05dbe82a50",
						"transactionIndex": 88
					},
					{
						"address": "0x3BdDB0e8AB7CDBB0cAdcfCd04Bd162556C0451D2",
						"blockHash": "0x122499e0097fda0f28d2c0e8e867f5756e7c32100364b83e408135b110881383",
						"blockNumber": 5623934,
						"data": "0x00000000000000000000000000000000000000000000000000000000000000400000000000000000000000002a60814151521819d56d8a756f5c9625b16e977300000000000000000000000000000000000000000000000000000000000000040000000000000000000000000000000000000000000000000000000000000080000000000000000000000000000000000000000000000000000000000000016000000000000000000000000000000000000000000000000000000000000002400000000000000000000000000000000000000000000000000000000000000320000000000000000000000000bfa440384e7d5f6cf84d632581087cb0e6eeee50000000000000000000000000000000000000000000000000000000000000006400000000000000000000000000000000000000000000000000038d7ea4c680000000000000000000000000000000000000000000000000000000000000002710000000000000000000000000000000000000000000000000000000003b9ac9ff00000000000000000000000000000000000000000000000000000000000000c00000000000000000000000000000000000000000000000000000000000000000000000000000000000000000bfa440384e7d5f6cf84d632581087cb0e6eeee500000000000000000000000000000000000000000000000000000000000000065000000000000000000000000000000000000000000000000016345785d8a00000000000000000000000000000000000000000000000000000000000000000064000000000000000000000000000000000000000000000000000000003b9ac9ff00000000000000000000000000000000000000000000000000000000000000c00000000000000000000000000000000000000000000000000000000000000000000000000000000000000000bfa440384e7d5f6cf84d632581087cb0e6eeee5000000000000000000000000000000000000000000000000000000000000000660000000000000000000000000000000000000000000000000de0b6b3a7640000000000000000000000000000000000000000000000000000000000000000000a000000000000000000000000000000000000000000000000000000003b9ac9ff00000000000000000000000000000000000000000000000000000000000000c00000000000000000000000000000000000000000000000000000000000000000000000000000000000000000bfa440384e7d5f6cf84d632581087cb0e6eeee5000000000000000000000000000000000000000000000000000000000000000670000000000000000000000000000000000000000000000056bc75e2d63100000000000000000000000000000000000000000000000000000000000000000000a000000000000000000000000000000000000000000000000000000003b9ac9ff00000000000000000000000000000000000000000000000000000000000000c00000000000000000000000000000000000000000000000000000000000000000",
						"index": 188,
						"topics": [
							"0x721f1fc2dbea25cab88bdd50f9b47aff50f4b8c43ea6ea02b3587c82b940ad41",
							"0x0000000000000000000000000000000000000000000000000000000000000002"
						],
						"transactionHash": "0x2d6d47573acf0b007b834186c3c82b5d71c5ff4f7ca564ab9d5cfa05dbe82a50",
						"transactionIndex": 88
					},
					{
						"address": "0x953AB7f10EfE861B21CfB9630768818A04742587",
						"blockHash": "0x122499e0097fda0f28d2c0e8e867f5756e7c32100364b83e408135b110881383",
						"blockNumber": 5623934,
						"data": "0x000000000000000000000000000000000000000000000000000000000000006000000000000000000000000000000000000000000000000000000000002000000000000000000000000000002a60814151521819d56d8a756f5c9625b16e977300000000000000000000000000000000000000000000000000000000000000010000000000000000000000000000000000000000000000000000000000000015",
						"index": 189,
						"topics": [
							"0xf8cdf10a0ce6189c6d069e97320ef146e2bcbd32d6c0b86dcbfbf3bd8578fa70",
							"0x0000000000000000000000003bddb0e8ab7cdbb0cadcfcd04bd162556c0451d2",
							"0x0000000000000000000000002a60814151521819d56d8a756f5c9625b16e9773",
							"0x0000000000000000000000000000000000000000000000000000000000000002"
						],
						"transactionHash": "0x2d6d47573acf0b007b834186c3c82b5d71c5ff4f7ca564ab9d5cfa05dbe82a50",
						"transactionIndex": 88
					},
					{
						"address": "0x584F5Da53cb18789099466074e3B5c32Ed17243a",
						"blockHash": "0x122499e0097fda0f28d2c0e8e867f5756e7c32100364b83e408135b110881383",
						"blockNumber": 5623934,
						"data": "0x",
						"index": 190,
						"topics": [
							"0x6895c13664aa4f67288b25d7a21d7aaa34916e355fb9b6fae0a139a9085becb8",
							"0x000000000000000000000000183b35e76a7bc60298dcb637515f50e4def9b68b"
						],
						"transactionHash": "0x2d6d47573acf0b007b834186c3c82b5d71c5ff4f7ca564ab9d5cfa05dbe82a50",
						"transactionIndex": 88
					},
					{
						"address": "0x183b35E76A7BC60298DCb637515F50e4DeF9b68b",
						"blockHash": "0x122499e0097fda0f28d2c0e8e867f5756e7c32100364b83e408135b110881383",
						"blockNumber": 5623934,
						"data": "0x0000000000000000000000000000000000000000000000000000000000000005",
						"index": 191,
						"topics": [
							"0xa65fb05c5808f5f389d72edeaf719ce38f4cc55c1f69ca3cbfb31c21501caa07",
							"0x3c404a7da75c4d750e7915ae00f320ee464c63114de103f0fcf9e7ea9dff28a1"
						],
						"transactionHash": "0x2d6d47573acf0b007b834186c3c82b5d71c5ff4f7ca564ab9d5cfa05dbe82a50",
						"transactionIndex": 88
					},
					{
						"address": "0xE9a6F248F9f8854E9f161c84c34F2589Ec362BE9",
						"blockHash": "0x122499e0097fda0f28d2c0e8e867f5756e7c32100364b83e408135b110881383",
						"blockNumber": 5623934,
						"data": "0x",
						"index": 192,
						"topics": [
							"0xddf252ad1be2c89b69c2b068fc378daa952ba7f163c4a11628f55a4df523b3ef",
							"0x000000000000000000000000584f5da53cb18789099466074e3b5c32ed17243a",
							"0x0000000000000000000000002a60814151521819d56d8a756f5c9625b16e9773",
							"0x0000000000000000000000000000000000000000000000000000000000000002"
						],
						"transactionHash": "0x2d6d47573acf0b007b834186c3c82b5d71c5ff4f7ca564ab9d5cfa05dbe82a50",
						"transactionIndex": 88
					},
					{
						"address": "0x584F5Da53cb18789099466074e3B5c32Ed17243a",
						"blockHash": "0x122499e0097fda0f28d2c0e8e867f5756e7c32100364b83e408135b110881383",
						"blockNumber": 5623934,
						"data": "0x",
						"index": 193,
						"topics": [
							"0x6895c13664aa4f67288b25d7a21d7aaa34916e355fb9b6fae0a139a9085becb8",
							"0x000000000000000000000000183b35e76a7bc60298dcb637515f50e4def9b68b"
						],
						"transactionHash": "0x2d6d47573acf0b007b834186c3c82b5d71c5ff4f7ca564ab9d5cfa05dbe82a50",
						"transactionIndex": 88
					},
					{
						"address": "0x183b35E76A7BC60298DCb637515F50e4DeF9b68b",
						"blockHash": "0x122499e0097fda0f28d2c0e8e867f5756e7c32100364b83e408135b110881383",
						"blockNumber": 5623934,
						"data": "0x0000000000000000000000000000000000000000000000000000000000000006",
						"index": 194,
						"topics": [
							"0xa65fb05c5808f5f389d72edeaf719ce38f4cc55c1f69ca3cbfb31c21501caa07",
							"0x3c404a7da75c4d750e7915ae00f320ee464c63114de103f0fcf9e7ea9dff28a1"
						],
						"transactionHash": "0x2d6d47573acf0b007b834186c3c82b5d71c5ff4f7ca564ab9d5cfa05dbe82a50",
						"transactionIndex": 88
					},
					{
						"address": "0x183b35E76A7BC60298DCb637515F50e4DeF9b68b",
						"blockHash": "0x122499e0097fda0f28d2c0e8e867f5756e7c32100364b83e408135b110881383",
						"blockNumber": 5623934,
						"data": "0x",
						"index": 195,
						"topics": [
							"0x4383d976757d67ca920616be0b6430a681ea9d3dcce8d6d61d4603ca4a9bff63",
							"0x3c404a7da75c4d750e7915ae00f320ee464c63114de103f0fcf9e7ea9dff28a1"
						],
						"transactionHash": "0x2d6d47573acf0b007b834186c3c82b5d71c5ff4f7ca564ab9d5cfa05dbe82a50",
						"transactionIndex": 88
					}
				],
				"logsBloom": "0x84c00000080010000220000204080a020400800000080040009d1000004000000020000110400042004000200448000000404000005800000000080040040104000002100122202000000048000000080001084000040800401080000080001000008000220000008080002200040840000800100000001040020116004240510000000880400105002100000010420400022008100000000184004120000000005010828014000000002100000000124200100004010860004320014004200000000002000204490084020048800801010002000000008000000000000360000004000020800008000000000240084380001a0080c200200000000018000000",
				"status": 1,
				"to": "0xB5E96127D417b1B3ef8438496a38A143167209c7"
			},
			"metadata": "{\"compiler\":{\"version\":\"0.8.23+commit.f704f362\"},\"language\":\"Solidity\",\"output\":{\"abi\":[{\"inputs\":[{\"internalType\":\"address\",\"name\":\"owner\",\"type\":\"address\"},{\"internalType\":\"address\",\"name\":\"trustedForwarder\",\"type\":\"address\"}],\"stateMutability\":\"nonpayable\",\"type\":\"constructor\"},{\"inputs\":[],\"type\":\"error\",\"name\":\"CONTENTS_ALREADY_STORED\"},{\"inputs\":[],\"type\":\"error\",\"name\":\"CONTENTS_MISMATCH\"},{\"inputs\":[],\"type\":\"error\",\"name\":\"FACE_ALREADY_ADDED\"},{\"inputs\":[],\"type\":\"error\",\"name\":\"HASH_ALREADY_STORED\"},{\"inputs\":[],\"type\":\"error\",\"name\":\"HASH_NOT_FOUND\"},{\"inputs\":[],\"type\":\"error\",\"name\":\"HEAD_ALREADY_ADDED\"},{\"inputs\":[],\"type\":\"error\",\"name\":\"ONESIE_ALREADY_ADDED\"},{\"inputs\":[{\"internalType\":\"address\",\"name\":\"owner\",\"type\":\"address\"}],\"type\":\"error\",\"name\":\"OwnableInvalidOwner\"},{\"inputs\":[{\"internalType\":\"address\",\"name\":\"account\",\"type\":\"address\"}],\"type\":\"error\",\"name\":\"OwnableUnauthorizedAccount\"},{\"inputs\":[],\"type\":\"error\",\"name\":\"SUIT_ALREADY_ADDED\"},{\"inputs\":[],\"type\":\"error\",\"name\":\"UNAUTHORIZED_OUTFIT\"},{\"inputs\":[],\"type\":\"error\",\"name\":\"UNAUTHORIZED_WORLD\"},{\"inputs\":[],\"type\":\"error\",\"name\":\"UNAUTHORIZED__NAKED_BANNY\"},{\"inputs\":[],\"type\":\"error\",\"name\":\"UNORDERED_CATEGORIES\"},{\"inputs\":[],\"type\":\"error\",\"name\":\"UNRECOGNIZED_CATEGORY\"},{\"inputs\":[],\"type\":\"error\",\"name\":\"UNRECOGNIZED_OUTFIT\"},{\"inputs\":[],\"type\":\"error\",\"name\":\"UNRECOGNIZED_TIER\"},{\"inputs\":[],\"type\":\"error\",\"name\":\"UNRECOGNIZED_WORLD\"},{\"inputs\":[{\"internalType\":\"address\",\"name\":\"hook\",\"type\":\"address\",\"indexed\":true},{\"internalType\":\"uint256\",\"name\":\"nakenBannyId\",\"type\":\"uint256\",\"indexed\":true},{\"internalType\":\"uint256\",\"name\":\"worldId\",\"type\":\"uint256\",\"indexed\":false},{\"internalType\":\"uint256[]\",\"name\":\"outfitIds\",\"type\":\"uint256[]\",\"indexed\":false},{\"internalType\":\"address\",\"name\":\"caller\",\"type\":\"address\",\"indexed\":false}],\"type\":\"event\",\"name\":\"DecorateBanny\",\"anonymous\":false},{\"inputs\":[{\"internalType\":\"address\",\"name\":\"previousOwner\",\"type\":\"address\",\"indexed\":true},{\"internalType\":\"address\",\"name\":\"newOwner\",\"type\":\"address\",\"indexed\":true}],\"type\":\"event\",\"name\":\"OwnershipTransferred\",\"anonymous\":false},{\"inputs\":[{\"internalType\":\"string\",\"name\":\"baseUri\",\"type\":\"string\",\"indexed\":false},{\"internalType\":\"address\",\"name\":\"caller\",\"type\":\"address\",\"indexed\":false}],\"type\":\"event\",\"name\":\"SetSvgBaseUri\",\"anonymous\":false},{\"inputs\":[{\"internalType\":\"uint256[]\",\"name\":\"tierId\",\"type\":\"uint256[]\",\"indexed\":true},{\"internalType\":\"string[]\",\"name\":\"svgContents\",\"type\":\"string[]\",\"indexed\":false},{\"internalType\":\"address\",\"name\":\"caller\",\"type\":\"address\",\"indexed\":false}],\"type\":\"event\",\"name\":\"SetSvgContents\",\"anonymous\":false},{\"inputs\":[{\"internalType\":\"uint256[]\",\"name\":\"tierIds\",\"type\":\"uint256[]\",\"indexed\":true},{\"internalType\":\"bytes32[]\",\"name\":\"svgHashs\",\"type\":\"bytes32[]\",\"indexed\":true},{\"internalType\":\"address\",\"name\":\"caller\",\"type\":\"address\",\"indexed\":false}],\"type\":\"event\",\"name\":\"SetSvgHashes\",\"anonymous\":false},{\"inputs\":[{\"internalType\":\"uint256[]\",\"name\":\"tierIds\",\"type\":\"uint256[]\",\"indexed\":true},{\"internalType\":\"string[]\",\"name\":\"names\",\"type\":\"string[]\",\"indexed\":false},{\"internalType\":\"address\",\"name\":\"caller\",\"type\":\"address\",\"indexed\":false}],\"type\":\"event\",\"name\":\"SetTierNames\",\"anonymous\":false},{\"inputs\":[{\"internalType\":\"uint256\",\"name\":\"tokenId\",\"type\":\"uint256\"},{\"internalType\":\"uint256\",\"name\":\"tierId\",\"type\":\"uint256\"},{\"internalType\":\"uint256\",\"name\":\"category\",\"type\":\"uint256\"}],\"stateMutability\":\"view\",\"type\":\"function\",\"name\":\"_nameOf\",\"outputs\":[{\"internalType\":\"string\",\"name\":\"\",\"type\":\"string\"}]},{\"inputs\":[{\"internalType\":\"uint256\",\"name\":\"nakedBannyId\",\"type\":\"uint256\"}],\"stateMutability\":\"view\",\"type\":\"function\",\"name\":\"assetIdsOf\",\"outputs\":[{\"internalType\":\"uint256\",\"name\":\"worldId\",\"type\":\"uint256\"},{\"internalType\":\"uint256[]\",\"name\":\"outfitIds\",\"type\":\"uint256[]\"}]},{\"inputs\":[{\"internalType\":\"address\",\"name\":\"hook\",\"type\":\"address\"},{\"internalType\":\"uint256\",\"name\":\"tokenId\",\"type\":\"uint256\"},{\"internalType\":\"bool\",\"name\":\"shouldBeDressed\",\"type\":\"bool\"},{\"internalType\":\"bool\",\"name\":\"shouldIncludeWorld\",\"type\":\"bool\"}],\"stateMutability\":\"view\",\"type\":\"function\",\"name\":\"bannySvgOf\",\"outputs\":[{\"internalType\":\"string\",\"name\":\"\",\"type\":\"string\"}]},{\"inputs\":[{\"internalType\":\"address\",\"name\":\"hook\",\"type\":\"address\"},{\"internalType\":\"uint256\",\"name\":\"nakedBannyId\",\"type\":\"uint256\"},{\"internalType\":\"uint256\",\"name\":\"worldId\",\"type\":\"uint256\"},{\"internalType\":\"uint256[]\",\"name\":\"outfitIds\",\"type\":\"uint256[]\"}],\"stateMutability\":\"nonpayable\",\"type\":\"function\",\"name\":\"decorateBannyWith\"},{\"inputs\":[{\"internalType\":\"address\",\"name\":\"forwarder\",\"type\":\"address\"}],\"stateMutability\":\"view\",\"type\":\"function\",\"name\":\"isTrustedForwarder\",\"outputs\":[{\"internalType\":\"bool\",\"name\":\"\",\"type\":\"bool\"}]},{\"inputs\":[{\"internalType\":\"address\",\"name\":\"hook\",\"type\":\"address\"},{\"internalType\":\"uint256\",\"name\":\"tokenId\",\"type\":\"uint256\"}],\"stateMutability\":\"view\",\"type\":\"function\",\"name\":\"nameOf\",\"outputs\":[{\"internalType\":\"string\",\"name\":\"\",\"type\":\"string\"}]},{\"inputs\":[],\"stateMutability\":\"view\",\"type\":\"function\",\"name\":\"owner\",\"outputs\":[{\"internalType\":\"address\",\"name\":\"\",\"type\":\"address\"}]},{\"inputs\":[],\"stateMutability\":\"nonpayable\",\"type\":\"function\",\"name\":\"renounceOwnership\"},{\"inputs\":[{\"internalType\":\"string\",\"name\":\"baseUri\",\"type\":\"string\"}],\"stateMutability\":\"nonpayable\",\"type\":\"function\",\"name\":\"setSvgBaseUri\"},{\"inputs\":[{\"internalType\":\"uint256[]\",\"name\":\"tierIds\",\"type\":\"uint256[]\"},{\"internalType\":\"string[]\",\"name\":\"svgContents\",\"type\":\"string[]\"}],\"stateMutability\":\"nonpayable\",\"type\":\"function\",\"name\":\"setSvgContentsOf\"},{\"inputs\":[{\"internalType\":\"uint256[]\",\"name\":\"tierIds\",\"type\":\"uint256[]\"},{\"internalType\":\"bytes32[]\",\"name\":\"svgHashs\",\"type\":\"bytes32[]\"}],\"stateMutability\":\"nonpayable\",\"type\":\"function\",\"name\":\"setSvgHashsOf\"},{\"inputs\":[{\"internalType\":\"uint256[]\",\"name\":\"tierIds\",\"type\":\"uint256[]\"},{\"internalType\":\"string[]\",\"name\":\"names\",\"type\":\"string[]\"}],\"stateMutability\":\"nonpayable\",\"type\":\"function\",\"name\":\"setTierNames\"},{\"inputs\":[],\"stateMutability\":\"view\",\"type\":\"function\",\"name\":\"svgBaseUri\",\"outputs\":[{\"internalType\":\"string\",\"name\":\"\",\"type\":\"string\"}]},{\"inputs\":[{\"internalType\":\"uint256\",\"name\":\"tierId\",\"type\":\"uint256\"}],\"stateMutability\":\"view\",\"type\":\"function\",\"name\":\"svgHashOf\",\"outputs\":[{\"internalType\":\"bytes32\",\"name\":\"\",\"type\":\"bytes32\"}]},{\"inputs\":[{\"internalType\":\"address\",\"name\":\"hook\",\"type\":\"address\"},{\"internalType\":\"uint256\",\"name\":\"tokenId\",\"type\":\"uint256\"}],\"stateMutability\":\"view\",\"type\":\"function\",\"name\":\"tokenUriOf\",\"outputs\":[{\"internalType\":\"string\",\"name\":\"\",\"type\":\"string\"}]},{\"inputs\":[{\"internalType\":\"address\",\"name\":\"newOwner\",\"type\":\"address\"}],\"stateMutability\":\"nonpayable\",\"type\":\"function\",\"name\":\"transferOwnership\"},{\"inputs\":[],\"stateMutability\":\"view\",\"type\":\"function\",\"name\":\"trustedForwarder\",\"outputs\":[{\"internalType\":\"address\",\"name\":\"\",\"type\":\"address\"}]}],\"devdoc\":{\"kind\":\"dev\",\"methods\":{\"assetIdsOf(uint256)\":{\"params\":{\"nakedBannyId\":\"The ID of the naked banny shows with the associated assets.\"},\"returns\":{\"outfitIds\":\"The outfits attached to the Naked Banny.\",\"worldId\":\"The world attached to the Naked Banny.\"}},\"bannySvgOf(address,uint256,bool,bool)\":{\"params\":{\"hook\":\"The hook storing the assets.\",\"tokenId\":\"The ID of the token to show. If the ID belongs to a Naked Banny, it will be shown with its current outfits in its current world.\"},\"returns\":{\"_0\":\"bannySvg The SVG.\"}},\"constructor\":{\"params\":{\"owner\":\"The owner allowed to add SVG files that correspond to tier IDs.\",\"trustedForwarder\":\"The trusted forwarder for the ERC2771Context.\"}},\"decorateBannyWith(address,uint256,uint256,uint256[])\":{\"details\":\"The caller must own the naked banny being dressed and all outfits being worn.\",\"params\":{\"hook\":\"The hook storing the assets.\",\"nakedBannyId\":\"The ID of the Naked Banny being dressed.\",\"outfitIds\":\"The IDs of the outfits that'll be associated with the specified banny. Only one outfit per outfit category allowed at a time and they must be passed in order.\",\"worldId\":\"The ID of the world that'll be associated with the specified banny.\"}},\"isTrustedForwarder(address)\":{\"details\":\"Indicates whether any particular address is the trusted forwarder.\"},\"owner()\":{\"details\":\"Returns the address of the current owner.\"},\"renounceOwnership()\":{\"details\":\"Leaves the contract without owner. It will not be possible to call `onlyOwner` functions. Can only be called by the current owner. NOTE: Renouncing ownership will leave the contract without an owner, thereby disabling any functionality that is only available to the owner.\"},\"setSvgContentsOf(uint256[],string[])\":{\"params\":{\"svgContents\":\"The svg contents being stored, not including the parent <svg></svg> element.\",\"tierIds\":\"The IDs of the tiers having SVGs stored.\"}},\"setSvgHashsOf(uint256[],bytes32[])\":{\"details\":\"This allows anyone to lazily upload the correct svg file.\",\"params\":{\"svgHashs\":\"The svg hashes being stored, not including the parent <svg></svg> element.\",\"tierIds\":\"The IDs of the tiers having SVG hashes stored.\"}},\"setTierNames(uint256[],string[])\":{\"params\":{\"names\":\"The names of the tiers.\",\"tierIds\":\"The IDs of the tiers having their name stored.\"}},\"tokenUriOf(address,uint256)\":{\"params\":{\"tokenId\":\"The ID of the token to show. If the ID belongs to a Naked Banny, it will be shown with its current outfits in its current world.\"},\"returns\":{\"_0\":\"tokenUri The URI representing the SVG.\"}},\"transferOwnership(address)\":{\"details\":\"Transfers ownership of the contract to a new account (`newOwner`). Can only be called by the current owner.\"},\"trustedForwarder()\":{\"details\":\"Returns the address of the trusted forwarder.\"}},\"version\":1},\"userdoc\":{\"kind\":\"user\",\"methods\":{\"_nameOf(uint256,uint256,uint256)\":{\"notice\":\"The name of each tier.\"},\"assetIdsOf(uint256)\":{\"notice\":\"The assets currently attached to each Naked Banny, owned by the naked Banny's owner.\"},\"bannySvgOf(address,uint256,bool,bool)\":{\"notice\":\"Returns the SVG showing a dressed Naked Banny.\"},\"decorateBannyWith(address,uint256,uint256,uint256[])\":{\"notice\":\"Dress your Naked Banny with outfits.\"},\"setSvgBaseUri(string)\":{\"notice\":\"Allows the owner of this contract to specify the base of the domain hosting the SVG files.\"},\"setSvgContentsOf(uint256[],string[])\":{\"notice\":\"The owner of this contract can store SVG files for tier IDs.\"},\"setSvgHashsOf(uint256[],bytes32[])\":{\"notice\":\"Allows the owner of this contract to upload the hash of an svg file for a tierId.\"},\"setTierNames(uint256[],string[])\":{\"notice\":\"Allows the owner to set the tier's name.\"},\"svgBaseUri()\":{\"notice\":\"The base of the domain hosting the SVG files that can be lazily uploaded to the contract.\"},\"svgHashOf(uint256)\":{\"notice\":\"The Naked Banny and outfit SVG hash files.\"},\"tokenUriOf(address,uint256)\":{\"notice\":\"Returns the SVG showing a dressed Naked Banny in a world.\"}},\"version\":1}},\"settings\":{\"remappings\":[\"@arbitrum/=node_modules/@arbitrum/\",\"@bananapus/=node_modules/@bananapus/\",\"@chainlink/=node_modules/@chainlink/\",\"@croptop/=node_modules/@croptop/\",\"@eth-optimism/=node_modules/@eth-optimism/\",\"@exhausted-pigeon/=node_modules/@exhausted-pigeon/\",\"@gnosis.pm/=node_modules/@gnosis.pm/\",\"@offchainlabs/=node_modules/@offchainlabs/\",\"@openzeppelin/=node_modules/@openzeppelin/\",\"@prb/=node_modules/@prb/\",\"@rev-net/=node_modules/@rev-net/\",\"@sphinx-labs/contracts/=node_modules/@sphinx-labs/contracts/contracts/foundry/\",\"@uniswap/=node_modules/@uniswap/\",\"base64-sol/=node_modules/base64-sol/\",\"base64/=lib/base64/\",\"ds-test/=lib/forge-std/lib/ds-test/src/\",\"forge-std/=lib/forge-std/src/\",\"hardhat/=node_modules/hardhat/\",\"solmate/=node_modules/solmate/\",\"sphinx-forge-std/=node_modules/sphinx-forge-std/\",\"sphinx-solmate/=node_modules/sphinx-solmate/\",\"sphinx/=lib/sphinx/packages/contracts/contracts/forge-std/src/\"],\"optimizer\":{\"enabled\":true,\"runs\":200},\"metadata\":{\"bytecodeHash\":\"ipfs\"},\"compilationTarget\":{\"src/Banny721TokenUriResolver.sol\":\"Banny721TokenUriResolver\"},\"evmVersion\":\"paris\",\"libraries\":{},\"viaIR\":true},\"sources\":{\"lib/base64/base64.sol\":{\"keccak256\":\"0xa73959e6ef0b693e4423a562e612370160b934a75e618361ddd8c9c4b8ddbaaf\",\"urls\":[\"bzz-raw://17c12e16d8d66f3af15d8787920bd41ca6c1e7517a212a6b9cebd4b6d38f36fe\",\"dweb:/ipfs/QmcXMnZUXEz6LRKsm3CSvqdPboAzmezavi8bTg2dRxM2yE\"],\"license\":\"MIT\"},\"node_modules/@bananapus/721-hook/src/abstract/ERC721.sol\":{\"keccak256\":\"0xc25c7c60c88684adc3f7a49621d27866866a44a3f3796e63c9fcaba75fbb2e84\",\"urls\":[\"bzz-raw://713103b7a05402264493430cfcd7d85f1a241a2eb4756af53a370fa529ea07bf\",\"dweb:/ipfs/QmSXZfxCG1N9XheS1kLCNJZ9k6ZRq4GnAMY7MKFfbKLXmz\"],\"license\":\"MIT\"},\"node_modules/@bananapus/721-hook/src/interfaces/IJB721Hook.sol\":{\"keccak256\":\"0x6cc09b57796ce71a103adb88ee851a9e2f4b5dc42cf7e153371e5c2157c4444d\",\"urls\":[\"bzz-raw://a2d0518c1f6803ab197049839de78debdd97908aa0fc7e44c6742ee209587b46\",\"dweb:/ipfs/QmXzoxr3DNH3NpwvTmRJcwKXFwUZQzCbAeTVh4NZzJedb7\"],\"license\":\"MIT\"},\"node_modules/@bananapus/721-hook/src/interfaces/IJB721TiersHook.sol\":{\"keccak256\":\"0xae662e642cb039931f0cac1a73e3c6b6833cf5edb6c5e3d4864f37cb07791684\",\"urls\":[\"bzz-raw://0942d829b0ba82ececd6de9148c6f3e85c0ecf398d23358086434e31e792b68b\",\"dweb:/ipfs/QmPdtTtoawqq2yTHBhqfs72DVHAQ3dbrjDGnQ3NmkHzLer\"],\"license\":\"MIT\"},\"node_modules/@bananapus/721-hook/src/interfaces/IJB721TiersHookStore.sol\":{\"keccak256\":\"0x8550e216c12c9cda865c1b1b0eb3f244aeaa8d465b197d4bd0dd8d4df265682e\",\"urls\":[\"bzz-raw://674a312f1eaffd7c6b21f58f8d4a628104e71220daf48a22237fa3bd035ddf21\",\"dweb:/ipfs/QmSRSW6cSwdpoGjVxDqiwJmJyCxfHWhCxZ2iaqeJcN2Ccy\"],\"license\":\"MIT\"},\"node_modules/@bananapus/721-hook/src/interfaces/IJB721TokenUriResolver.sol\":{\"keccak256\":\"0xfa599167098f4459320ec4141a98a17b2dfffbce422baa27d8b4e4530f61ece1\",\"urls\":[\"bzz-raw://8b758b161f4c7b520b2c34b4d91e585e961b8f4ca278eebb91d791f7f2f45140\",\"dweb:/ipfs/QmcD9DF7NJ9QykQpT4KPzm4bs3fkjzukdAUWwdU6Atfw85\"],\"license\":\"MIT\"},\"node_modules/@bananapus/721-hook/src/libraries/JBIpfsDecoder.sol\":{\"keccak256\":\"0xb93ba562ac1fc9d3829be00e61f3a90f51df5661cf0f2c819a7f1d8ba19ec171\",\"urls\":[\"bzz-raw://fc9bc948fac8897d9720ef25b13d63c60b40a18aa1897dd1c657fc278c416b4f\",\"dweb:/ipfs/QmNtiJTALZW5zfyKVy7XG5GkqGgMrfkVvU4Auu4bb9cGQc\"],\"license\":\"MIT\"},\"node_modules/@bananapus/721-hook/src/structs/JB721InitTiersConfig.sol\":{\"keccak256\":\"0xfb78486cec94189d0ecf2050dc9cfc11245b426c73a0711a85bff1359d774307\",\"urls\":[\"bzz-raw://a8fa01f6e64dd204dbde07a60851e9a5a74e439e1411139ae16b7cf67d2a2692\",\"dweb:/ipfs/QmZAnHyfpKr3xr7NWHj5sGaCEEtG8RtmHhkRUJJvNauym5\"],\"license\":\"MIT\"},\"node_modules/@bananapus/721-hook/src/structs/JB721Tier.sol\":{\"keccak256\":\"0x2e267a8af02f125465cdda9308477346ae4a94b024c3b2c2a6af0c00027944dd\",\"urls\":[\"bzz-raw://367ccea2c8fa815d498d771d4367ef1ded718a76e89644102034bfe4a3636b82\",\"dweb:/ipfs/QmYiFFa6ei9wZBSSVUHfY2Cb35zCDVXvbmLcgLj2BTiC1u\"],\"license\":\"MIT\"},\"node_modules/@bananapus/721-hook/src/structs/JB721TierConfig.sol\":{\"keccak256\":\"0x2fa9c5c8cec182b854a656d3b284e9d5306be35ad3dc4da79d65dca12b804af0\",\"urls\":[\"bzz-raw://b443a5f70195a66145ea1dade04454ce9a3ff1209e1aaecf53c8a9909b294d79\",\"dweb:/ipfs/QmUDPFZ4L6XpV3zLQUNVchUvecD4XfddKz2S46BKek5XL1\"],\"license\":\"MIT\"},\"node_modules/@bananapus/721-hook/src/structs/JB721TiersHookFlags.sol\":{\"keccak256\":\"0x283d8429f31bd58875c056515aa42abd09c95362bd929e85cfc44a0d92585766\",\"urls\":[\"bzz-raw://9a580b89fe99d9f8e930c58a4d0d63a5ff7c01c79d210af01373d066c9e72ed6\",\"dweb:/ipfs/QmdY1eSGSoTjv4KSdsG4Tm5CzJN6iqk3qTRga5ZWNbejRz\"],\"license\":\"MIT\"},\"node_modules/@bananapus/721-hook/src/structs/JB721TiersMintReservesConfig.sol\":{\"keccak256\":\"0xab3b319dc4e736586ae595de194d93dcdfeba365bc7a54cf6c37e697f6074ad9\",\"urls\":[\"bzz-raw://a84ae2cf2e8c3e39e831dbb39a67a8eb43c78a6de6bb78b1be2e1f1e80c69efe\",\"dweb:/ipfs/QmboGXEMqsYTxc4a7oft9rggNU7ShWSa9yB4HFMVmzXCHz\"],\"license\":\"MIT\"},\"node_modules/@bananapus/core/src/enums/JBApprovalStatus.sol\":{\"keccak256\":\"0x61c69b6bac7d24b566d87cda23a77e4ca9cdb87200b106aba8534cb9a0973e33\",\"urls\":[\"bzz-raw://6a9ca7249de76f77a8252eefe6bd1b63d47952f25a2acfa2c8db967cdff4470c\",\"dweb:/ipfs/QmaxSxptRQNj8bNy96EreENmrnRWdKmhyihBcxyWzBX5BN\"],\"license\":\"MIT\"},\"node_modules/@bananapus/core/src/interfaces/IJBControlled.sol\":{\"keccak256\":\"0x79fb8de7b3f809f1c3c7189f578b7331ec4dfe3350151d5b50240ecb3a2a907b\",\"urls\":[\"bzz-raw://45c82240dd4f0e9aec00d0d86f6b44bdda231db098ebdac17e922771b3e6f342\",\"dweb:/ipfs/QmPUvT8HZeVenrZDpP14HsZofaXPJjih8UAd35rTg3tU7E\"],\"license\":\"MIT\"},\"node_modules/@bananapus/core/src/interfaces/IJBDirectory.sol\":{\"keccak256\":\"0x9cc380844aef60078ee47a61861e55a29c4a8c947efd556ebd36e6909f7b9d62\",\"urls\":[\"bzz-raw://9f5190ec8b6683d9781ee6e9eedcc91294753242748875d4a06349077e4cbaaf\",\"dweb:/ipfs/QmTQrPuXT9TCA4txwrperMeXSGvGxP8iokUK47f62F388i\"],\"license\":\"MIT\"},\"node_modules/@bananapus/core/src/interfaces/IJBPayHook.sol\":{\"keccak256\":\"0x9438866782c652c2942f4d114e35f393cd3c8b0334abce8387eed90bca35e8b2\",\"urls\":[\"bzz-raw://cfd99daf57213f92325aad7d7d16e98476d38e870470e95ba01e3ae3cdecc95d\",\"dweb:/ipfs/QmUKKAVGf7ki8BHksr99tFcRW8APveeB5tNH63ctTbbCW8\"],\"license\":\"MIT\"},\"node_modules/@bananapus/core/src/interfaces/IJBPriceFeed.sol\":{\"keccak256\":\"0x4bd84c0f1a5d4729ed709bcddd43f4c50ec4a165ece79780af8dce482ed07d4a\",\"urls\":[\"bzz-raw://62bac4bfb6982fb002f620c77e5c445e62d50241a5aa64a07e51d929f5a42180\",\"dweb:/ipfs/QmWgJUDreVY2BuMX38a1iUUR5kNbMwGnKG3VvurB7oZtuM\"],\"license\":\"MIT\"},\"node_modules/@bananapus/core/src/interfaces/IJBPrices.sol\":{\"keccak256\":\"0x99525f31440b955742dce84ba57de9fc1221139b5367c1f834723bef9e13e6e1\",\"urls\":[\"bzz-raw://6fa03f0cd4ad87dd7cbae7bf7f54463450874291773c8f70f2c31ef2cae62bb0\",\"dweb:/ipfs/QmSPajPV5ismteJuB6Spzm9VmhTj2iS3eVrfpJC1Zuzg8n\"],\"license\":\"MIT\"},\"node_modules/@bananapus/core/src/interfaces/IJBProjects.sol\":{\"keccak256\":\"0x735c2fb8f1fa827f054ee77f7a0ae4b312656217acb75b624d2c8fd9dc40151b\",\"urls\":[\"bzz-raw://ee7fc92299a8633a80693ae63ab494dcd125f1789487a54a39dc0e5696e5996f\",\"dweb:/ipfs/QmX7YJD4pS2XhgQb7p3JbBAXynT7YGPXcZe92BiWWRrsCL\"],\"license\":\"MIT\"},\"node_modules/@bananapus/core/src/interfaces/IJBRulesetApprovalHook.sol\":{\"keccak256\":\"0x592e95d159494421c6b1bcb362d0cee1df0132921697351304e9cd7af4fbd386\",\"urls\":[\"bzz-raw://5bebfd5fa67c1b6ea16fa2e76e9520e9dfe52a579f48dd94d0c2ec45f78ad178\",\"dweb:/ipfs/QmRUawEGtfYoYSHmHELGhvJoWuMsxLPKtqAXgsrb7fJboP\"],\"license\":\"MIT\"},\"node_modules/@bananapus/core/src/interfaces/IJBRulesets.sol\":{\"keccak256\":\"0xda1a9aef337cf9fede3f638ffa58aea2815b87fde0f79628834aa03af9f582d7\",\"urls\":[\"bzz-raw://7941690ba6d94500474978ff0f02ecc56335eae5937759878e25cc1ac30a8ecc\",\"dweb:/ipfs/QmZFc7wof6PzfBTkVyNkjaQrQbjc36CK4uC3Ee2vgihqyK\"],\"license\":\"MIT\"},\"node_modules/@bananapus/core/src/interfaces/IJBTerminal.sol\":{\"keccak256\":\"0x19dc9bf8cbdc8f13ee5da9dc3a87047eacb94a3fc19740a286c1f0bad2cc39ca\",\"urls\":[\"bzz-raw://0b05ae6fda9a85672508232fd992b8a5f5ffd8096622eeb12c8a7b3317eb3867\",\"dweb:/ipfs/QmNh9Quj37BXYGdTdcCD1Q58PchRsE5TLbEZep56qS3MpV\"],\"license\":\"MIT\"},\"node_modules/@bananapus/core/src/interfaces/IJBTokenUriResolver.sol\":{\"keccak256\":\"0xfa5cb00dcd6085d1ef912d071fe73c63f9478a2cd0f9d8bddaf659b6af2d0967\",\"urls\":[\"bzz-raw://282e4e7c342d65f77cde0e9a08fcaf20ef5cf379c7a48b639842c0ffd0b2afb8\",\"dweb:/ipfs/QmbnN3PEQeZaXdPLT75V1J79kMg7KqSMru37RHrL3z8Yf2\"],\"license\":\"MIT\"},\"node_modules/@bananapus/core/src/structs/JBAccountingContext.sol\":{\"keccak256\":\"0x2907ff54d1e903cc7e0390dd88c3975884702dc2673642aacbe22b66560b56de\",\"urls\":[\"bzz-raw://a66a5381ce877b32f0e0058ceeaf843e9b6b2bc8af666c0c9f4a9d01091da004\",\"dweb:/ipfs/QmQynCetUr37dBkS1YwDS8evxuXGiqanW6THmeUxXtim8w\"],\"license\":\"MIT\"},\"node_modules/@bananapus/core/src/structs/JBAfterPayRecordedContext.sol\":{\"keccak256\":\"0xd26c3a774ff38be79064085970454fe2603a23a638c76270d5b1b3829206c3e8\",\"urls\":[\"bzz-raw://3b55dbe3bf1ef625b7ca04efab3de35406e6041d5b3d82c7265469c500e2b702\",\"dweb:/ipfs/QmUdBDo4Lt3mcsFcsXT2mqq3czFwZjQJFPLM89YA2VtD7k\"],\"license\":\"MIT\"},\"node_modules/@bananapus/core/src/structs/JBRuleset.sol\":{\"keccak256\":\"0x15b2bf3174d84846a91ccbf5a344dfb125b55ed9cf50102db8d6868844225189\",\"urls\":[\"bzz-raw://647416b025dbd941094db89cbc69f755c155bd6c87be3f322394ccc4a8e0442d\",\"dweb:/ipfs/QmTCL9xcHnxQ4t5AmCPoZvXDUPW5xhzhyyXYbkMdyg44au\"],\"license\":\"MIT\"},\"node_modules/@bananapus/core/src/structs/JBTokenAmount.sol\":{\"keccak256\":\"0x5cf0626b73a596c1e2da17c89ae039a7c0374310b060d48568d3b6c11fbe6180\",\"urls\":[\"bzz-raw://63348b50be95e2995409394a17caffc563a646f0972650a1230bf864fbd3219b\",\"dweb:/ipfs/QmZXZpS3SbFD5nWaCauf6AqbEhLURv5qsKHpThBvQgDU6u\"],\"license\":\"MIT\"},\"node_modules/@openzeppelin/contracts/access/Ownable.sol\":{\"keccak256\":\"0xff6d0bb2e285473e5311d9d3caacb525ae3538a80758c10649a4d61029b017bb\",\"urls\":[\"bzz-raw://8ed324d3920bb545059d66ab97d43e43ee85fd3bd52e03e401f020afb0b120f6\",\"dweb:/ipfs/QmfEckWLmZkDDcoWrkEvMWhms66xwTLff9DDhegYpvHo1a\"],\"license\":\"MIT\"},\"node_modules/@openzeppelin/contracts/interfaces/draft-IERC6093.sol\":{\"keccak256\":\"0x60c65f701957fdd6faea1acb0bb45825791d473693ed9ecb34726fdfaa849dd7\",\"urls\":[\"bzz-raw://ea290300e0efc4d901244949dc4d877fd46e6c5e43dc2b26620e8efab3ab803f\",\"dweb:/ipfs/QmcLLJppxKeJWqHxE2CUkcfhuRTgHSn8J4kijcLa5MYhSt\"],\"license\":\"MIT\"},\"node_modules/@openzeppelin/contracts/metatx/ERC2771Context.sol\":{\"keccak256\":\"0x98256cf37b71a69b2f5a8a6fe975ea03590dff703102bd141a830f94e8adebf6\",\"urls\":[\"bzz-raw://6251fe1f6a1e45e6d619d150c123afc88b8646b38ee26a136efa9a6988a31d3f\",\"dweb:/ipfs/QmeXDT85wSZdP31wkz3ah3KhponCiksJLP5o2LR5e1JxcK\"],\"license\":\"MIT\"},\"node_modules/@openzeppelin/contracts/token/ERC721/IERC721.sol\":{\"keccak256\":\"0x5ef46daa3b58ef2702279d514780316efaa952915ee1aa3396f041ee2982b0b4\",\"urls\":[\"bzz-raw://2f8f2a76e23b02fc69e8cd24c3cb47da6c7af3a2d6c3a382f8ac25c6e094ade7\",\"dweb:/ipfs/QmPV4ZS4tPVv4mTCf9ejyZ1ai57EEibDRj7mN2ARDCLV5n\"],\"license\":\"MIT\"},\"node_modules/@openzeppelin/contracts/token/ERC721/IERC721Receiver.sol\":{\"keccak256\":\"0x7f7a26306c79a65fb8b3b6c757cd74660c532cd8a02e165488e30027dd34ca49\",\"urls\":[\"bzz-raw://d01e0b2b837ee2f628545e54d8715b49c7ef2befd08356c2e7f6c50dde8a1c22\",\"dweb:/ipfs/QmWBAn6y2D1xgftci97Z3qR9tQnkvwQpYwFwkTvDMvqU4i\"],\"license\":\"MIT\"},\"node_modules/@openzeppelin/contracts/token/ERC721/extensions/IERC721Metadata.sol\":{\"keccak256\":\"0x37d1aaaa5a2908a09e9dcf56a26ddf762ecf295afb5964695937344fc6802ce1\",\"urls\":[\"bzz-raw://ed0bfc1b92153c5000e50f4021367b931bbe96372ac6facec3c4961b72053d02\",\"dweb:/ipfs/Qmbwp8VDerjS5SV1quwHH1oMXxPQ93fzfLVqJ2RCqbowGE\"],\"license\":\"MIT\"},\"node_modules/@openzeppelin/contracts/utils/Context.sol\":{\"keccak256\":\"0x493033a8d1b176a037b2cc6a04dad01a5c157722049bbecf632ca876224dd4b2\",\"urls\":[\"bzz-raw://6a708e8a5bdb1011c2c381c9a5cfd8a9a956d7d0a9dc1bd8bcdaf52f76ef2f12\",\"dweb:/ipfs/Qmax9WHBnVsZP46ZxEMNRQpLQnrdE4dK8LehML1Py8FowF\"],\"license\":\"MIT\"},\"node_modules/@openzeppelin/contracts/utils/Strings.sol\":{\"keccak256\":\"0x55f102ea785d8399c0e58d1108e2d289506dde18abc6db1b7f68c1f9f9bc5792\",\"urls\":[\"bzz-raw://6e52e0a7765c943ef14e5bcf11e46e6139fa044be564881378349236bf2e3453\",\"dweb:/ipfs/QmZEeeXoFPW47amyP35gfzomF9DixqqTEPwzBakv6cZw6i\"],\"license\":\"MIT\"},\"node_modules/@openzeppelin/contracts/utils/introspection/ERC165.sol\":{\"keccak256\":\"0x9e8778b14317ba9e256c30a76fd6c32b960af621987f56069e1e819c77c6a133\",\"urls\":[\"bzz-raw://1777404f1dcd0fac188e55a288724ec3c67b45288e49cc64723e95e702b49ab8\",\"dweb:/ipfs/QmZFdC626GButBApwDUvvTnUzdinevC3B24d7yyh57XkiA\"],\"license\":\"MIT\"},\"node_modules/@openzeppelin/contracts/utils/introspection/IERC165.sol\":{\"keccak256\":\"0x4296879f55019b23e135000eb36896057e7101fb7fb859c5ef690cf14643757b\",\"urls\":[\"bzz-raw://87b3541437c8c443ccd36795e56a338ed12855eec17f8da624511b8d1a7e14df\",\"dweb:/ipfs/QmeJQCtZrQjtJLr6u7ZHWeH3pBnjtLWzvRrKViAi7UZqxL\"],\"license\":\"MIT\"},\"node_modules/@openzeppelin/contracts/utils/math/Math.sol\":{\"keccak256\":\"0x005ec64c6313f0555d59e278f9a7a5ab2db5bdc72a027f255a37c327af1ec02d\",\"urls\":[\"bzz-raw://4ece9f0b9c8daca08c76b6b5405a6446b6f73b3a15fab7ff56e296cbd4a2c875\",\"dweb:/ipfs/QmQyRpyPRL5SQuAgj6SHmbir3foX65FJjbVTTQrA2EFg6L\"],\"license\":\"MIT\"},\"node_modules/@openzeppelin/contracts/utils/math/SignedMath.sol\":{\"keccak256\":\"0x5f7e4076e175393767754387c962926577f1660dd9b810187b9002407656be72\",\"urls\":[\"bzz-raw://7d533a1c97cd43a57cd9c465f7ee8dd0e39ae93a8fb8ff8e5303a356b081cdcc\",\"dweb:/ipfs/QmVBEei6aTnvYNZp2CHYVNKyZS4q1KkjANfY39WVXZXVoT\"],\"license\":\"MIT\"},\"src/Banny721TokenUriResolver.sol\":{\"keccak256\":\"0x592db1024026c3991aa901154b822d5926ea89d5975fa3a2c9ba228b82eec65a\",\"urls\":[\"bzz-raw://20d49d0e76a042898354aa082a656542329835ece0a9b30373b52fe9ad3c913a\",\"dweb:/ipfs/QmTZLRmBpgvYVR68KREEpPGYdQ442R6r8bQURysW9NuFRb\"],\"license\":\"MIT\"}},\"version\":1}",
			"args": [
				"0x817738DC393d682Ca5fBb268707b99F2aAe96baE",
				"0xB2b5841DBeF766d4b521221732F9B618fCf34A87"
			],
			"bytecode": "0x60a034620000e957601f62005c3b38819003918201601f19168301916001600160401b03831184841017620000ee578084926040948552833981010312620000e9576200005a6020620000528362000104565b920162000104565b6080526001600160a01b039081168015620000d057600080546001600160a01b03198116831782556040519316907f8be0079c531659141344cd1fd0a4f28419497f9722a3daafe3b4186f6b6457e09080a3615b2190816200011a82396080518181816108e5015281816109e501526155c20152f35b604051631e4fbdf760e01b815260006004820152602490fd5b600080fd5b634e487b7160e01b600052604160045260246000fd5b51906001600160a01b0382168203620000e95756fe6080604052600436101561001257600080fd5b60003560e01c806257bfdd146101265780631e4578de1461012157806331a290ac1461011c5780634d03376e14610117578063572b6c05146101125780635e703e711461010d5780636aff31dd14610108578063715018a6146101035780637da0a877146100fe578063875e4bea146100f95780638da5cb5b146100f4578063aeac5e35146100ef578063b03a3eab146100ea578063c06e7bc7146100e5578063f2fde38b146100e0578063f92df2e3146100db5763fff628c6146100d657600080fd5b6114a9565b61147a565b6113ee565b610d95565b610cf2565b610bce565b610ba5565b610a14565b6109cf565b610971565b610945565b610919565b6108c1565b6107df565b610615565b610486565b61040b565b90600182811c9216801561015b575b602083101461014557565b634e487b7160e01b600052602260045260246000fd5b91607f169161013a565b634e487b7160e01b600052604160045260246000fd5b602081019081106001600160401b0382111761019657604052565b610165565b6111a081019081106001600160401b0382111761019657604052565b606081019081106001600160401b0382111761019657604052565b6101c081019081106001600160401b0382111761019657604052565b61026081019081106001600160401b0382111761019657604052565b604081019081106001600160401b0382111761019657604052565b90601f801991011681019081106001600160401b0382111761019657604052565b604051906000826002549161025a8361012b565b808352926020906001908181169081156102e85750600114610287575b505061028592500383610225565b565b91509260026000527f405787fa12a823e0f2b7631cc41b3ba8828b3321ca811111fa75cd3aa3bb5ace936000925b8284106102d057506102859450505081016020013880610277565b855488850183015294850194879450928101926102b5565b9150506020925061028594915060ff191682840152151560051b8201013880610277565b9060405191826000825461031f8161012b565b9081845260209460019160018116908160001461038d575060011461034e575b50505061028592500383610225565b600090815285812095935091905b818310610375575050610285935082010138808061033f565b8554888401850152948501948794509183019161035c565b9250505061028594925060ff191682840152151560051b82010138808061033f565b60005b8381106103c25750506000910152565b81810151838201526020016103b2565b906020916103eb815180928185528580860191016103af565b601f01601f1916010190565b9060206104089281815201906103d2565b90565b3461043f57600036600319011261043f5761043b610427610246565b6040519182916020835260208301906103d2565b0390f35b600080fd5b604081019181526060602091604060208201528151809452019160809160005b828110610472575050505090565b835185529381019392810192600101610464565b3461043f5760208060031936011261043f57600435906000918083526005602052604083209060405180938491602085549182815201948752602087209187905b82821061053457505050506104e1906104f1930384610225565b6000526006602052604060002090565b5491815191815b83811061050d576040518061043b8782610444565b8061051a60019284611529565b5161052d61052786611553565b95611504565b52016104f8565b8354875295860195879450600193840193909101906104c7565b604051906101a082018281106001600160401b0382111761019657604052565b6001600160401b0381116101965760051b60200190565b9080601f8301121561043f57602090823561059f8161056e565b936105ad6040519586610225565b81855260208086019260051b82010192831161043f57602001905b8282106105d6575050505090565b813581529083019083016105c8565b9181601f8401121561043f578235916001600160401b03831161043f576020808501948460051b01011161043f57565b3461043f5760408060031936011261043f576001600160401b036004803582811161043f576106479036908301610585565b9160243590811161043f5761065f90369083016105e5565b909183519060005b8281106106b0575050506106ab61069e7f7b414cb0ad21f3dfa349dbd1d4ca10eeb276661a7af9df6e18086aed7c31c8d694611750565b94519283923391846117ab565b0390a2005b6106ba8187611529565b516106d06106c9838789611567565b36916107a8565b906106ed6106e8826000526004602052604060002090565b6115a8565b61077d57610705816000526001602052604060002090565b54801561076d578951602081019061072f8161072184886115b2565b03601f198101835282610225565b5190200361075d5760019291610752610757926000526004602052604060002090565b61167b565b01610667565b88516375b5da0b60e01b81528490fd5b8951637ef41a4f60e01b81528590fd5b8851630388067760e21b81528490fd5b6001600160401b03811161019657601f01601f191660200190565b9291926107b48261078d565b916107c26040519384610225565b82948184528183011161043f578281602093846000960137010152565b3461043f57604036600319011261043f576001600160401b0360043581811161043f57610810903690600401610585565b60249060243583811161043f573660238201121561043f578060040135926108378461056e565b936108456040519586610225565b8085526020956024602087019260051b8501019336851161043f5760248101925b858410610879576108778888611848565b005b833583811161043f5782013660438201121561043f5789916108a58392369060448a82013591016107a8565b815201930192610866565b6001600160a01b0381160361043f57565b3461043f57602036600319011261043f5760206004356108e0816108b0565b6040517f00000000000000000000000000000000000000000000000000000000000000006001600160a01b039081169216919091148152f35b3461043f57604036600319011261043f5761043b61042760043561093c816108b0565b60243590611ca6565b3461043f57602036600319011261043f5760043560005260016020526020604060002054604051908152f35b3461043f576000806003193601126109cc5761098b612d3d565b80546001600160a01b03198116825581906001600160a01b03167f8be0079c531659141344cd1fd0a4f28419497f9722a3daafe3b4186f6b6457e08280a380f35b80fd5b3461043f57600036600319011261043f576040517f00000000000000000000000000000000000000000000000000000000000000006001600160a01b03168152602090f35b3461043f5760208060031936011261043f576004356001600160401b0380821161043f573660238301121561043f57816004013590811161043f57602492366024838501011161043f57610a66612d3d565b610a7a82610a7560025461012b565b6115e0565b600093601f8311600114610af8575050610acd81807f512c3c91736f50c57a0548c1d01ab02f24c420f002b8b20e2bfe63df9693cd3f95600091610aea575b508160011b916000199060031b1c19161790565b6002555b610ae560405192839260243392018461203e565b0390a1005b602491508501013538610ab9565b6002600052601f19831694907f405787fa12a823e0f2b7631cc41b3ba8828b3321ca811111fa75cd3aa3bb5ace9282915b878310610b8957505050827f512c3c91736f50c57a0548c1d01ab02f24c420f002b8b20e2bfe63df9693cd3f9510610b6c575b5050600181811b01600255610ad1565b830160240135600019600384901b60f8161c191690553880610b5c565b908060018596848396978b010135815501950193019190610b29565b3461043f57600036600319011261043f576000546040516001600160a01b039091168152602090f35b3461043f57604036600319011261043f57600435610beb816108b0565b60405163507f146560e01b815260243591906001600160a01b03906020816004818587165afa8015610cbc57610c629360009386938593610cc1575b5060405163c44a8e6d60e01b81526001600160a01b039092166004830152602482019390935260006044820152938492839182906064820190565b0392165afa918215610cbc5761043b92610c8d92600091610c99575b506101008151910151916126f5565b604051918291826103f7565b610cb691503d806000833e610cae8183610225565b810190611a99565b38610c7e565b611a35565b610ce491935060203d602011610ceb575b610cdc8183610225565b810190611a20565b9138610c27565b503d610cd2565b3461043f57604036600319011261043f576001600160401b0360043581811161043f57610d23903690600401610585565b9060243590811161043f573660238201121561043f578060040135610d478161056e565b91610d556040519384610225565b8183526020916024602085019160051b8301019136831161043f57602401905b828210610d86576108778587612067565b81358152908301908301610d75565b3461043f57608036600319011261043f57610db16004356108b0565b6064356001600160401b03811161043f57610dd09036906004016105e5565b906040516331a9108f60e11b815260208180610df6602435600483019190602083019252565b03816004356001600160a01b03165afa908115610cbc576000916113cf575b50610e2d610e216155bf565b6001600160a01b031690565b6001600160a01b03909116036113bd576044351561139f576040516331a9108f60e11b81526044356004820152602081806024810103816004356001600160a01b03165afa908115610cbc57600091611380575b50610e8d610e216155bf565b6001600160a01b039091160361136e5760405163507f146560e01b815260208160048181356001600160a01b03165afa908115610cbc5760009161134f575b5060405163c44a8e6d60e01b81526001600160a01b03600480358216908301526044803560248401526000908301819052919283916064918391165afa908115610cbc57600091611334575b50511561132257604435610f386024356000526006602052604060002090565b555b6000610f4461214a565b5080808080805b878610610fc4578787610f748282610f6f6024356000526005602052604060002090565b6121e3565b7f6a68946ba06488db8585d7c7637fa954b574035fe15720ea760125ef86017258610fbf610fa06155bf565b6040519182916024359660018060a01b0360043516966044358561225c565b0390a3005b610fcf8689896121bb565b6040516331a9108f60e11b81529035600482018190529290602081806024810103816004356001600160a01b03165afa908115610cbc57600091611303575b5061101a610e216155bf565b6001600160a01b03909116036112f15760405163507f146560e01b815260208160048181356001600160a01b03165afa938415610cbc576110999460009283916112d2575b50604051808097819463c44a8e6d60e01b8352600435600484016040906000929493606082019560018060a01b0316825260208201520152565b03916001600160a01b03165afa928315610cbc576000936112b7575b508251156112a5576101008301516002811090811561129a575b50611288578615159081611278575b506112665761010082015160048103611106575050600161010081925b015195019490610f4b565b9194909160058103611120575050600161010081956110fb565b90949290600b810361113a575050600161010081936110fb565b9293909260098103611154575050600161010081946110fb565b600d819592951490818215928361125c575b8015611252575b8061124b575b1561118a5760405163167e5dcd60e31b8152600490fd5b600682148081159182611241575b8015611237575b80611230575b156111bc57604051631e550b6f60e11b8152600490fd5b90611226575b8061121f575b156111df576040516354f653b360e01b8152600490fd5b91611214575b508061120d575b6111fb576101006001916110fb565b604051635e701b2b60e01b8152600490fd5b50826111ec565b600c915014386111e5565b50876111c8565b50600782146111c2565b50866111a5565b506008841461119f565b5060078414611198565b5086611173565b50600a821461116d565b50600c8214611166565b604051637dc0e82560e11b8152600490fd5b90506101008301511115386110de565b60405163c89badbd60e01b8152600490fd5b600f915011386110cf565b6040516354c0901d60e11b8152600490fd5b6112cb91933d8091833e610cae8183610225565b91386110b5565b6112eb915060203d602011610ceb57610cdc8183610225565b3861105f565b60405163812a698960e01b8152600490fd5b61131c915060203d602011610ceb57610cdc8183610225565b3861100e565b60405163265ba87960e01b8152600490fd5b61134991503d806000833e610cae8183610225565b38610f18565b611368915060203d602011610ceb57610cdc8183610225565b38610ecc565b604051639d17cec760e01b8152600490fd5b611399915060203d602011610ceb57610cdc8183610225565b38610e81565b60006113b76024356000526006602052604060002090565b55610f3a565b6040516307d59f1360e21b8152600490fd5b6113e8915060203d602011610ceb57610cdc8183610225565b38610e15565b3461043f57602036600319011261043f5760043561140b816108b0565b611413612d3d565b6001600160a01b03908116801561146157600080546001600160a01b03198116831782559092167f8be0079c531659141344cd1fd0a4f28419497f9722a3daafe3b4186f6b6457e08380a380f35b604051631e4fbdf760e01b815260006004820152602490fd5b3461043f57606036600319011261043f5761043b6104276044356024356004356126f5565b8015150361043f57565b3461043f57608036600319011261043f5761043b6104276004356114cc816108b0565b6044356114d88161149f565b606435916114e58361149f565b60243590612b67565b634e487b7160e01b600052603260045260246000fd5b6060518110156115175760051b60800190565b6114ee565b8051156115175760200190565b80518210156115175760209160051b010190565b634e487b7160e01b600052601160045260246000fd5b60001981146115625760010190565b61153d565b91908110156115175760051b81013590601e198136030182121561043f5701908135916001600160401b03831161043f57602001823603811361043f579190565b610408905461012b565b906115c5602092828151948592016103af565b0190565b8181106115d4575050565b600081556001016115c9565b90601f82116115ed575050565b6102859160026000527f405787fa12a823e0f2b7631cc41b3ba8828b3321ca811111fa75cd3aa3bb5ace906020601f840160051c83019310611637575b601f0160051c01906115c9565b909150819061162a565b9190601f811161165057505050565b610285926000526020600020906020601f840160051c8301931061163757601f0160051c01906115c9565b91909182516001600160401b038111610196576116a28161169c845461012b565b84611641565b602080601f83116001146116e5575081906116d69394956000926116da575b50508160011b916000199060031b1c19161790565b9055565b0151905038806116c1565b90601f198316956116fb85600052602060002090565b926000905b8882106117385750508360019596971061171f575b505050811b019055565b015160001960f88460031b161c19169055388080611715565b80600185968294968601518155019501930190611700565b60405190818183925160208092019160005b828110611773575050505003902090565b835185528695509381019392810192600101611762565b908060209392818452848401376000828201840152601f01601f1916010190565b9392919081604086016040875252606085019160608160051b87010192826000905b8382106117ef5750505050509060206102859294019060018060a01b03169052565b9091929394605f198982030184528535601e198336030181121561043f578201803560208092016001600160401b03821161043f57813603811361043f57600193839261183b9261178a565b97019594019201906117cd565b9190611852612d3d565b8251926000935b8085106118a657507f31ddb2f0a32be79206d6bf3e670f8cc38863c4984b95cdbe8ed6eba58207a3a5919293506118926118a191611750565b926040519182913390836119ac565b0390a2565b6118b08583611529565b51946118bc8185611529565b5195600052600360208181526040600020918851916001600160401b038311610196576118f3836118ed865461012b565b86611641565b8091601f8411600114611938575050908061192b926001969798999a6000926116da5750508160011b916000199060031b1c19161790565b90555b0193929190611859565b9091601f1984169a61194f86600052602060002090565b936000905b8d821061199457505084600198999a9b9c1061197a575b50505050831b8301905561192e565b01519060f884600019921b161c191690553880808061196b565b80600185978294968601518155019601930190611954565b909291926040820190604083528051809252606083019160608160051b850101916020809101936000905b8382106119f45750505050602091509360018060a01b0316910152565b909192938380611a10600193605f198b820301865289516103d2565b97019201920190949392916119d7565b9081602091031261043f5751610408816108b0565b6040513d6000823e3d90fd5b5190610285826108b0565b51906102858261149f565b81601f8201121561043f578051611a6d8161078d565b92611a7b6040519485610225565b8184526020828401011161043f5761040891602080850191016103af565b60208183031261043f5780516001600160401b039182821161043f57016101a08184031261043f57611ac961054e565b92815184526020820151602085015260408201516040850152606082015160608501526080820151608085015260a082015160a0850152611b0c60c08301611a41565b60c085015260e082015160e08501526101008083015190850152610120611b34818401611a4c565b90850152610140611b46818401611a4c565b90850152610160611b58818401611a4c565b90850152610180928383015190811161043f57611b759201611a57565b9082015290565b60405190611b898261017b565b60008252565b90604051918260605160005b818110611bd0575090602061028593611bc48294840191838301600081528151948592016103af565b01038085520183610225565b6020919250806080015182828801015201908491611b9b565b6020610285919392936040519481611c0a87935180928680870191016103af565b8201611bc4825180938680850191016103af565b9060208282031261043f5781516001600160401b03811161043f576104089201611a57565b9081602091031261043f575190565b90610285603d60405180947f646174613a6170706c69636174696f6e2f6a736f6e3b6261736536342c0000006020830152611c9681518092602086860191016103af565b810103601d810185520183610225565b6040805163507f146560e01b808252602094929392906001600160a01b03908185168785600481845afa948515610cbc5760009561201f575b50865163c44a8e6d60e01b81526001600160a01b03871660048201526024810185905260006044820181905290958690606490829087165afa948515610cbc57600095612004575b50845115611ff4576101008501805190939015611fea57611d49865188612df2565b968751611fb3575b875115611e87575050505094611e76611e68611e8296611de5611e01611de598611de5611deb8a611dc76104089f611d98611dae9d611dc29f92611d9f93519051916126f5565b92516146b9565b9488519c8d918d8301906115b2565b039b611dc2601f199d8e8101835282610225565b614893565b9651683d913730b6b2911d1160b91b9a81019a8b529c8d9a60090190565b906115b2565b691116101134b2111d101160b11b8152600a0190565b7f222c226465736372697074696f6e223a2241207069656365206f66207468652081527f42616e6e797665727365222c22696d616765223a22646174613a696d6167652f60208201526e1cdd99cade1b5b0ed8985cd94d8d0b608a1b6040820152604f0190565b61227d60f01b815260020190565b03908101835282610225565b611c52565b92965092600f9195505111600014611fa4578551636c0360eb60e01b8152600081600481885afa8015610cbc578891600091611f81575b50955b600488518097819382525afa918215610cbc57611f14968895600094611f62575b5051630c8df17160e41b81526001600160a01b0390921660048301526024820193909352948592839182906044820190565b0392165afa918215610cbc5761040893600093611f33575b5050614608565b611f53929350803d10611f5b575b611f4b8183610225565b810190611c43565b903880611f2c565b503d611f41565b611f7a919450863d8811610ceb57610cdc8183610225565b9238611ee2565b611f9e91503d806000833e611f968183610225565b810190611c1e565b38611ebe565b86611fad610246565b95611ec1565b96611fc6906001865103611fcc57614514565b96611d51565b611fe590611fe0611fdb612eed565b61444e565b611be9565b614514565b611fc68588612980565b5050505050505050610408611b7c565b61201891953d8091833e610cae8183610225565b9338611d27565b612037919550883d8a11610ceb57610cdc8183610225565b9338611cdf565b916020916120579195949560408552604085019161178a565b6001600160a01b03909416910152565b61206f612d3d565b805160005b8181106120ef57505061208690611750565b9060405190818183925160208092019160005b8281106120d857505050500390206040513381529091907fb0c948934b683b0d319be35a6898bce339f877d721976592196eef848acc69c390602090a3565b835185528695509381019392810192600101612099565b6120f98184611529565b516121048286611529565b51908060005260016020526040806000205461213a575090612133600193926000526001602052604060002090565b5501612074565b516333ded41b60e21b8152600490fd5b604051906101a082018281106001600160401b0382111761019657604052606061018083600080825280602083015280604083015280848301528060808301528060a08301528060c08301528060e08301528061010083015280610120830152806101408301526101608201520152565b91908110156115175760051b0190565b600281901b91906001600160fe1b0381160361156257565b906001600160401b0383116101965768010000000000000000831161019657815483835580841061223e575b50906000526020806000209060005b84811061222c575050505050565b8335838201559281019260010161221e565b612256908360005284602060002091820191016115c9565b3861220f565b9081526060602082018190528101839052929392916001600160fb1b03811161043f5760409160809160051b8091838601378301019360018060a01b0316910152565b60226102859193929360405194816122c18793518092602080870191016103af565b820161202360f01b60208201526122e182518093602087850191016103af565b01036002810185520183610225565b90610285602960405180946802a37b83834b7339d160bd1b602083015261232081518092602086860191016103af565b8101036009810185520183610225565b90610285602660405180946502334b9ba1d160d51b602083015261235d81518092602086860191016103af565b8101036006810185520183610225565b90610285602d60405180946c029bab4ba103137ba3a37b69d1609d1b60208301526123a181518092602086860191016103af565b810103600d810185520183610225565b90610285602a604051809469029bab4ba103a37b81d160b51b60208301526123e281518092602086860191016103af565b810103600a810185520183610225565b906102856026604051809465029bab4ba1d160d51b602083015261235d81518092602086860191016103af565b90610285602660405180946502432b0b21d160d51b602083015261235d81518092602086860191016103af565b90610285602660405180946502430b4b91d160d51b602083015261235d81518092602086860191016103af565b906102856027604051809466026b7baba341d160cd1b60208301526124a781518092602086860191016103af565b8101036007810185520183610225565b906102856026604051809465022bcb2b99d160d51b602083015261235d81518092602086860191016103af565b90610285602660405180946502330b1b29d160d51b602083015261235d81518092602086860191016103af565b90610285602a60405180946902732b1b5b630b1b29d160b51b60208301526123e281518092602086860191016103af565b906102856026604051809465029b437b29d160d51b602083015261235d81518092602086860191016103af565b90610285602a60405180946902130b1b5b9b4b2329d160b51b60208301526123e281518092602086860191016103af565b90610285602760405180946602bb7b936321d160cd1b60208301526124a781518092602086860191016103af565b906102856035604051809474027b934b3b4b730b6102730b5b2b2102130b7373c9605d1b602083015261260a81518092602086860191016103af565b8101036015810185520183610225565b906102856033604051809472027b930b733b2902730b5b2b2102130b7373c9606d1b602083015261265481518092602086860191016103af565b8101036013810185520183610225565b90610285603160405180947002834b735902730b5b2b2102130b7373c9607d1b602083015261269c81518092602086860191016103af565b8101036011810185520183610225565b906102856032604051809471020b634b2b7102730b5b2b2102130b7373c960751b60208301526126e581518092602086860191016103af565b8101036012810185520183610225565b91633b9aca008306916001810361271a57505050612715610408916146b9565b6126ac565b6002810361273657505050612731610408916146b9565b612664565b600381036127525750505061274d610408916146b9565b61261a565b6004810361276e57505050612769610408916146b9565b6125ce565b61278e91929350612789906000526003602052604060002090565b61030c565b9180612899575b50600181036127a85750610408906125a0565b600281036127ba57506104089061256f565b600a81036127cc575061040890612542565b600381036127de575061040890612511565b600581036127f05750610408906124e4565b600681036128025750610408906124b7565b60078103612814575061040890612479565b6008810361282657506104089061244c565b6004810361283857506104089061241f565b600b810361284a5750610408906123f2565b600d810361285c5750610408906123b1565b600c810361286e57506104089061236d565b600e8103612880575061040890612330565b600f146128905750610408611b7c565b610408906122f0565b90918051156000146128b757506128af906146b9565b905b38612795565b6128c36128c9926146b9565b9061229f565b906128b1565b919060408382031261043f5782519260209081810151906001600160401b03821161043f57019180601f8401121561043f57825161290c8161056e565b9361291a6040519586610225565b818552838086019260051b82010192831161043f578301905b828210612941575050505090565b81518152908301908301612933565b3d1561297b573d906129618261078d565b9161296f6040519384610225565b82523d6000602084013e565b606090565b60405163507f146560e01b8152906001600160a01b036020836004818585165afa928315610cbc57600093612b43575b5060405163c44a8e6d60e01b81526001600160a01b0383166004820152602481018590526000604482018190529093909184916064918391165afa918215610cbc57600092612b28575b50815115612b1d576060610100830151612af657604051630f22bc6f60e11b8152600481019490945261040893612a83929082906000908181602481305afa9081600091600093612acf575b50612ac157505090612a7b91612a5a612950565b505b80151580612ab9575b612a9f575b50612a758651614973565b90611be9565b935190615195565b8051612a90575b50614514565b612a9991611be9565b38612a8a565b612ab39150612aae9084612df2565b611b8f565b38612a6a565b506001612a65565b909450612a7b929150612a5c565b909250612aef91503d806000833e612ae78183610225565b8101906128cf565b9138612a46565b5090612b0492505190612df2565b805115612b145761040890614514565b50610408611b7c565b505050610408611b7c565b612b3c91923d8091833e610cae8183610225565b90386129fa565b6000919350612b609060203d602011610ceb57610cdc8183610225565b92906129b0565b60405163507f146560e01b8152909390916001600160a01b03602084600481848a165afa938415610cbc57600094612d19575b5060405163c44a8e6d60e01b81526001600160a01b0387166004820152602481018390526000604482018190529094909185916064918391165afa928315610cbc57600093612cfe575b50825115612cf157606094610100840151612ce157604051630f22bc6f60e11b81526004810192909252610408959182906000908181602481305afa9081600091600093612cc2575b50612cb2575050612c5f929394612c42612950565b505b8115159081612caa575b50612c95575b50612a758551614973565b93612c6d575b505050614514565b612c78925190615195565b8051612c86575b8080612c65565b612c8f91611be9565b38612c7f565b612ca49150612aae9084612df2565b38612c54565b905038612c4e565b909150612c5f9394509094612c44565b909250612cda91503d806000833e612ae78183610225565b9138612c2d565b93505050612b0492505190612df2565b5050505050610408611b7c565b612d1291933d8091833e610cae8183610225565b9138612be4565b6000919450612d369060203d602011610ceb57610cdc8183610225565b9390612b9a565b6000546001600160a01b0390811681612d546155bf565b1603612d5d5750565b602490612d686155bf565b60405163118cdaa760e01b815291166004820152fd5b9061028560566040518094751e339f1e34b6b0b3b2903c3634b7359d343932b31e9160511b6020830152612dbc8151809260206036860191016103af565b81017f222077696474683d2234303022206865696768743d22343030222f3e3c2f673e6036820152036036810185520183610225565b612e09612789836000526004602052604060002090565b8051612ee7575060405163507f146560e01b81526001600160a01b039260209283836004818489165afa908115610cbc57612e7c958594600093612ec8575b50604051632f54648f60e21b81526001600160a01b0390921660048301526024820193909352948592839182906044820190565b0392165afa8015610cbc5761040892612ea692600092612eab575b5050612ea1610246565b614608565b612d7e565b612ec19250803d10611f5b57611f4b8183610225565b3880612e97565b612ee0919350853d8711610ceb57610cdc8183610225565b9138612e48565b91505090565b60405190612efa8261019b565b61117a82527f762d31306833762d376833762d33682d31307a222f3e3c2f673e000000000000611180837f3c6720636c6173733d226131223e3c7061746820643d224d313733203533683460208201527f763137682d347a222f3e3c2f673e3c6720636c6173733d226132223e3c70617460408201527f6820643d224d3136372035376833763130682d337a222f3e3c7061746820643d60608201527f224d3136392035336834763137682d347a222f3e3c2f673e3c6720636c61737360808201527f3d226133223e3c7061746820643d224d31363720353368337634682d337a222f60a08201527f3e3c7061746820643d224d3136332035376834763130682d347a222f3e3c706160c08201527f746820643d224d31363720363768337633682d337a222f3e3c2f673e3c67206360e08201527f6c6173733d226231223e3c7061746820643d224d32313320323533682d33762d6101008201527f332d33682d33762d372d33682d34762d3130682d33762d372d372d33682d33766101208201527f2d3733682d34762d3130682d33762d3130682d33762d37682d34762d37682d336101408201527f762d33682d33762d33682d3476313068347631306833763130683376336834766101608201527f37203320373020336833763768337632306834763768337633683376336834766101808201527f34683376336833762d332d347a222f3e3c7061746820643d224d3235332033306101a08201527f37762d34682d33762d33682d33762d33682d34762d34682d33762d33682d33766101c08201527f2d33682d34762d34682d33762d33682d33762d33682d34762d34682d33762d366101e08201527f682d33762d37682d3476313768347633683376336833203476346833763368336102008201527f76336834763468337633683376336834763468337633683376336834762d36686102208201527f2d347a222f3e3c2f673e3c6720636c6173733d226232223e3c7061746820643d6102408201527f224d32353020333130762d33682d33762d34682d34762d33682d33762d33682d6102608201527f33762d34682d34762d33682d33762d33682d33762d34682d37762d33682d33766102808201527f2d33682d34762d3137682d33762d33682d33762d34682d34762d33682d33762d6102a08201527f33682d33762d37682d34762d3230682d33762d37682d33762d37332d332d37686102c08201527f2d34762d33682d33762d3130682d33762d3130682d34563730682d33762d336c6102e08201527f2d332031303020332d313030763430682d33763130682d347636682d337631346103008201527f682d337633203133682d347634346834763136683376313468337631336834766103208201527f31306833763768337633683476336833763468337633683476336833763468336103408201527f76336834763368337637683776376836763368377633683776346831337633686103608201527f337633683130762d33682d337a6d2d3130332d3837762d31366833762d3130686103808201527f2d337636682d34763137682d337631306833762d3768347a222f3e3c706174686103a08201527f20643d224d3134332032333068347637682d347a6d3420313068337633682d336103c08201527f7a6d33203768337633682d337a6d33203668347634682d347a222f3e3c7061746103e08201527f6820643d224d31363320323537682d36763368337633683376346834762d342d6104008201527f33682d34762d337a222f3e3c2f673e3c6720636c6173733d226233223e3c70616104208201527f746820643d224d3134332031393776366834762d366836762d34346834762d316104408201527f366833762d31346833762d366834762d31306833563937682d377636682d33766104608201527f34682d337633682d347633682d3376342033682d3376332034682d34763130686104808201527f2d337631362034682d337634366833762d3668337a222f3e3c7061746820643d6104a08201527f224d313430203230336833763137682d337a222f3e3c7061746820643d224d316104c08201527f3337203232306833763130682d337a222f3e3c7061746820643d224d313533206104e08201527f323530682d33762d37682d33762d36682d34762d37682d3376313068337637686105008201527f347636683376346833762d377a6d2d3320313068337637682d337a222f3e3c706105208201527f61746820643d224d3134372032353768337633682d337a6d36203068347633686105408201527f2d347a222f3e3c7061746820643d224d31363020323633762d33682d337633206105608201527f376836762d37682d337a6d2d31302d3536763136682d337637683376313068336105808201527f763768347636683676346837762d342d33682d33762d3130682d34762d3133686105a08201527f2d33762d3134682d33762d3136682d34763130682d337a222f3e3c70617468206105c08201527f643d224d32343320333133762d33682d33762d33682d31302d33762d34682d376105e08201527f762d33682d37762d33682d36762d37682d37762d37682d33762d33682d34762d6106008201527f33682d33762d34682d33762d33682d34762d33682d33762d34682d33762d33686106208201527f2d34762d33682d33763130682d337633682d347633682d3376376833763768346106408201527f76366833763568347633683676336833763368342033763368332034763368336106608201527f20337634683130763368372037203376336831302033762d33683130762d33686106808201527f34762d34682d31347a222f3e3c2f673e3c6720636c6173733d226234223e3c706106a08201527f61746820643d224d3138332031333068347637682d347a222f3e3c70617468206106c08201527f643d224d3138302031323768337633682d337a6d2d32372d3468347637682d346106e08201527f7a222f3e3c7061746820643d224d3135372031313768337636682d337a222f3e6107008201527f3c7061746820643d224d3136302031313068337637682d337a222f3e3c7061746107208201527f6820643d224d3136332031303768347633682d347a6d2d3320383368337637686107408201527f2d337a222f3e3c7061746820643d224d3136332031383768347633682d347a6d6107608201527f3230203068377633682d377a222f3e3c7061746820643d224d313830203139306107808201527f68337633682d337a6d31302d3768337634682d337a222f3e3c7061746820643d6107a08201527f224d3139332031383768347636682d347a6d2d323020353368347637682d347a6107c08201527f222f3e3c7061746820643d224d3137372032343768337636682d337a222f3e3c6107e08201527f7061746820643d224d3138302032353368337637682d337a222f3e3c706174686108008201527f20643d224d3138332032363068377633682d377a222f3e3c7061746820643d226108208201527f4d3139302032363368337634682d337a6d302d323068337634682d337a222f3e6108408201527f3c7061746820643d224d3138372032343068337633682d337a222f3e3c7061746108608201527f6820643d224d3139302032333768337633682d337a6d313320323368347633686108808201527f2d347a222f3e3c7061746820643d224d3230372032363368337637682d337a226108a08201527f2f3e3c7061746820643d224d3231302032373068337633682d337a6d2d3130206108c08201527f3768337636682d337a222f3e3c7061746820643d224d323033203238336834766108e08201527f37682d347a222f3e3c7061746820643d224d3230372032393068367633682d366109008201527f7a222f3e3c2f673e3c6720636c6173733d226f223e3c7061746820643d224d316109208201527f3333203135376834763530682d347a6d302036336834763130682d347a6d32376109408201527f2d3136336833763130682d337a222f3e3c7061746820643d224d3136332035336109608201527f68347634682d347a222f3e3c7061746820643d224d31363720353068313076336109808201527f682d31307a222f3e3c7061746820643d224d3137372035336833763137682d336109a08201527f7a222f3e3c7061746820643d224d3137332037306834763237682d347a6d2d366109c08201527f20306833763237682d337a222f3e3c7061746820643d224d31363320363768346109e08201527f7633682d347a6d3020333068347633682d347a222f3e3c7061746820643d224d610a008201527f3136302031303068337633682d337a222f3e3c7061746820643d224d31353720610a208201527f31303368337634682d337a222f3e3c7061746820643d224d3135332031303768610a408201527f347633682d347a222f3e3c7061746820643d224d313530203131306833763368610a608201527f2d337a222f3e3c7061746820643d224d3134372031313368337637682d337a22610a808201527f2f3e3c7061746820643d224d3134332031323068347637682d347a222f3e3c70610aa08201527f61746820643d224d313430203132376833763130682d337a222f3e3c70617468610ac08201527f20643d224d313337203133376833763230682d337a6d35362d31306834763130610ae08201527f682d347a222f3e3c7061746820643d224d313930203131376833763130682d33610b008201527f7a222f3e3c7061746820643d224d3138372031313068337637682d337a222f3e610b208201527f3c7061746820643d224d3138332031303368347637682d347a222f3e3c706174610b408201527f6820643d224d3138302031303068337633682d337a222f3e3c7061746820643d610b608201527f224d31373720393768337633682d337a6d2d3430203130366833763137682d33610b808201527f7a6d302032376833763130682d337a6d313020333068337637682d337a222f3e610ba08201527f3c7061746820643d224d31353020323537762d34682d33762d36682d34762d37610bc08201527f682d3376313068337631306834762d3368337a222f3e3c7061746820643d224d610be08201527f3135302032353768337633682d337a222f3e3c7061746820643d224d31363320610c008201527f323733762d33682d36762d3130682d347637682d337633683376336834763768610c208201527f33762d3768337a222f3e3c7061746820643d224d313633203236376834763368610c408201527f2d347a222f3e3c7061746820643d224d31373020323537682d332d3476336834610c608201527f76376833762d31307a222f3e3c7061746820643d224d31353720323533683676610c808201527f34682d367a222f3e3c7061746820643d224d3135332032343768347636682d34610ca08201527f7a222f3e3c7061746820643d224d3135302032343068337637682d337a222f3e610cc08201527f3c7061746820643d224d313437203233306833763130682d337a6d3133203530610ce08201527f68337637682d337a222f3e3c7061746820643d224d3134332032323368347637610d008201527f682d347a222f3e3c7061746820643d224d313437203230376833763136682d33610d208201527f7a222f3e3c7061746820643d224d313530203139376833763130682d337a6d2d610d408201527f3130203068337636682d337a6d35302031313368377633682d377a6d32332031610d608201527f306831377633682d31377a222f3e3c7061746820643d224d3233302033323368610d808201527f31337634682d31337a222f3e3c7061746820643d224d32343320333230683130610da08201527f7633682d31307a222f3e3c7061746820643d224d323533203331376834763368610dc08201527f2d347a222f3e3c7061746820643d224d323537203330376833763130682d337a610de08201527f222f3e3c7061746820643d224d3235332033303368347634682d347a222f3e3c610e008201527f7061746820643d224d3235302033303068337633682d337a222f3e3c70617468610e208201527f20643d224d3234372032393768337633682d337a222f3e3c7061746820643d22610e408201527f4d3234332032393368347634682d347a222f3e3c7061746820643d224d323430610e608201527f2032393068337633682d337a222f3e3c7061746820643d224d32333720323837610e808201527f68337633682d337a222f3e3c7061746820643d224d3233332032383368347634610ea08201527f682d347a222f3e3c7061746820643d224d3233302032383068337633682d337a610ec08201527f222f3e3c7061746820643d224d3232372032373768337633682d337a222f3e3c610ee08201527f7061746820643d224d3232332032373368347634682d347a222f3e3c70617468610f008201527f20643d224d3232302032363768337636682d337a222f3e3c7061746820643d22610f208201527f4d3231372032363068337637682d337a222f3e3c7061746820643d224d323133610f408201527f2032353368347637682d347a222f3e3c7061746820643d224d32313020323437610f608201527f68337636682d337a222f3e3c7061746820643d224d3230372032333768337631610f808201527f30682d337a222f3e3c7061746820643d224d323033203232376834763130682d610fa08201527f347a6d2d343020363068347636682d347a6d323420323068337633682d337a22610fc08201527f2f3e3c7061746820643d224d3136372032393368337635682d337a6d31362031610fe08201527f3468347633682d347a222f3e3c7061746820643d224d313730203239386834766110008201527f33682d347a6d3130203668337633682d337a222f3e3c7061746820643d224d316110208201527f37342033303168367633682d367a6d323320313268367634682d367a222f3e3c6110408201527f7061746820643d224d323033203331376831307633682d31307a6d2d322d31306110608201527f37762d3733682d3476373368337631376833762d3137682d327a222f3e3c2f676110808201527f3e3c6720636c6173733d226f223e3c7061746820643d224d31383720333037766110a08201527f2d346833762d36682d33762d34682d34762d33682d33762d33682d37762d34686110c08201527f2d367634682d3476336834763237682d34763133682d33763130682d347637686110e08201527f3476336833203130203134762d33682d34762d34682d33762d33682d33762d336111008201527f682d34762d376834762d31306833762d376833762d336837762d33682d337a6d6111208201527f3136203130762d34682d36763137682d34763130682d337637683376336834206111408201527f3620342033203134762d33682d34762d34682d37762d33682d33762d33682d336111608201520152565b90610285609a60405180947f3c7374796c653e2e6f7b66696c6c3a233830383038303b7d2e62327b66696c6c60208301527f3a6e6f6e653b7d2e62337b66696c6c3a6e6f6e653b7d2e62347b66696c6c3a6e60408301527f6f6e653b7d2e61317b66696c6c3a6e6f6e653b7d2e61327b66696c6c3a6e6f6e60608301527f653b7d2e61337b66696c6c3a6e6f6e653b7d3c2f7374796c653e000000000000608083015261450481518092602086860191016103af565b810103607a810185520183610225565b9061028560bb60405180947f3c7376672077696474683d2234303022206865696768743d223430302220766960208301527f6577426f783d223020302034303020343030222066696c6c3d226e6f6e65222060408301527f786d6c6e733d22687474703a2f2f7777772e77332e6f72672f323030302f737660608301527f67223e3c7374796c653e2e6f7b66696c6c3a233035303530353b7d2e777b666960808301527436361d11b31cb31cb31c9dbe9f1e17b9ba3cb6329f60591b60a08301526145e981518092602060b5860191016103af565b8101651e17b9bb339f60d11b60b582015203609b810185520183610225565b9061040890614636604051602092609160f51b84830152602282015260228152614631816101b7565b61548e565b92604051938161464f86935180928680870191016103af565b8201614663825180938680850191016103af565b01038084520182610225565b60405161467b8161017b565b60008152906000368137565b906146918261078d565b61469e6040519182610225565b82815280926146af601f199161078d565b0190602036910137565b806000917a184f03e93ff9f4daa797ed6e38ed64bf6a1f010000000000000000808210156147ef575b506d04ee2d6d415b85acef8100000000808310156147e0575b50662386f26fc10000808310156147d1575b506305f5e100808310156147c2575b50612710808310156147b3575b5060648210156147a3575b600a80921015614799575b60019081602161475160018701614687565b95860101905b614763575b5050505090565b600019019083906f181899199a1a9b1b9c1cb0b131b232b360811b8282061a83530491821561479457919082614757565b61475c565b916001019161473f565b9190606460029104910191614734565b60049193920491019138614729565b6008919392049101913861471c565b6010919392049101913861470d565b602091939204910191386146fb565b6040935081049150386146e2565b6040519061480a826101b7565b604082527f6768696a6b6c6d6e6f707172737475767778797a303132333435363738392b2f6040837f4142434445464748494a4b4c4d4e4f505152535455565758595a61626364656660208201520152565b906002820180921161156257565b906020820180921161156257565b906001820180921161156257565b9190820180921161156257565b805115612b14576148a26147fd565b6148be6148b96148b2845161485c565b6003900490565b6121cb565b916148d06148cb8461486a565b614687565b92835280815182019060208501935b8282106149215750505060039051068060011461491057600214614901575090565b603d60f81b6000199091015290565b50613d3d60f01b6001199091015290565b9091936004906003809401938451600190603f9082828260121c16880101518553828282600c1c16880101518386015382828260061c16880101516002860153168501015190820153019391906148df565b61497c90615858565b9261498b969596929192612eed565b9460405197889760208901703c7374796c653e2e62317b66696c6c3a2360781b90528051908160318b0191602001916149c3926103af565b8801603181016b3b7d2e62327b66696c6c3a2360a01b905281519182603d830191602001916149f1926103af565b01603d81016b3b7d2e62337b66696c6c3a2360a01b905281519182604983019160200191614a1e926103af565b0160498101614a3b906b3b7d2e62347b66696c6c3a2360a01b9052565b605501614a47916115b2565b6b3b7d2e61317b66696c6c3a2360a01b8152600c01614a65916115b2565b6b3b7d2e61327b66696c6c3a2360a01b8152600c01614a83916115b2565b6b3b7d2e61337b66696c6c3a2360a01b8152600c01614aa1916115b2565b691dbe9e17b9ba3cb6329f60b11b8152600a01614abd916115b2565b03601f19810182526104089082610225565b60405190614adc826101d2565b61019c82527f6820643d224d3139332031373068347633682d347a222f3e3c2f673e000000006101a0837f3c6720636c6173733d226f223e3c7061746820643d224d31393020313733682d60208201527f3337762d33682d3130762d34682d36763468337633682d33763468367633683160408201527f307634683337762d346833762d33682d33762d347a6d2d34302034682d33762d60608201527f34683376347a6d372033762d3368337633682d337a6d362030762d336834763360808201527f682d347a6d372030762d3368337633682d337a6d372030762d3368337633682d60a08201527f337a6d31302030682d34762d33683476337a222f3e3c7061746820643d224d3160c08201527f39302031373068337633682d337a222f3e3c7061746820643d224d313933203160e08201527f363668347634682d347a6d30203768347634682d347a222f3e3c2f673e3c67206101008201527f636c6173733d2277223e3c7061746820643d224d3133372031373068337633686101208201527f2d337a6d3130203368337634682d337a6d3130203468337633682d337a6d36206101408201527f3068347633682d347a6d37203068337633682d337a6d37203068337633682d336101608201527f7a6d36203068347633682d347a6d372d3468337634682d337a222f3e3c7061746101808201520152565b6040519061010082018281106001600160401b038211176101965760405260dd82527f746820643d224d3138302031343768337633682d337a222f3e3c2f673e00000060e0837f3c6720636c6173733d226f223e3c7061746820643d224d31373720313430763360208201527f6836763131683130762d31316834762d33682d32307a222f3e3c70617468206460408201527f3d224d31353320313430763368377638203368372033762d31316833762d336860608201527f2d32307a222f3e3c2f673e3c6720636c6173733d2277223e3c7061746820643d60808201527f224d3135332031343368377634682d377a222f3e3c7061746820643d224d313560a08201527f372031343768337633682d337a6d32302d3468367634682d367a222f3e3c706160c08201520152565b60405190614e12826101ee565b61023a82527f643d224d3139302031333768347633682d347a222f3e3c2f673e000000000000610240837f3c6720636c6173733d226f223e3c7061746820643d224d31393020313237683360208201527f7633682d337a6d3320313368347633682d347a6d2d3432203068367636682d3660408201527f7a222f3e3c7061746820643d224d3135312031333368337637682d337a6d313060608201527f203068367634682d367a222f3e3c7061746820643d224d31353720313337683160808201527f377636682d31377a6d332031336831347633682d31347a6d31372d313368377660a08201527f3136682d377a222f3e3c7061746820643d224d3138342031333768367636682d60c08201527f367a6d302031306831307636682d31307a222f3e3c7061746820643d224d313860e08201527f37203134336831307634682d31307a222f3e3c7061746820643d224d313930206101008201527f31343068337633682d337a6d2d362d313068337637682d337a222f3e3c7061746101208201527f6820643d224d3138372031333068367633682d367a6d2d3336203068313076336101408201527f682d31307a6d313620313368377637682d377a6d2d3130203068377637682d376101608201527f7a222f3e3c7061746820643d224d3136342031343768337633682d337a6d32396101808201527f2d323068347636682d347a222f3e3c7061746820643d224d31393420313333686101a08201527f337637682d337a222f3e3c2f673e3c6720636c6173733d2277223e3c706174686101c08201527f20643d224d3135342031333368377634682d377a222f3e3c7061746820643d226101e08201527f4d3135342031333768337633682d337a6d3130203668337634682d337a6d32306102008201527f203068337634682d337a6d332d313068377634682d377a222f3e3c70617468206102208201520152565b6040519060c082018281106001600160401b038211176101965760405260818252601f60f91b60a0837f3c6720636c6173733d226f223e3c7061746820643d224d31383320313630762d60208201527f34682d32307634682d33763368337634683234762d37682d347a6d2d3133203360408201527f762d336831307633682d31307a222066696c6c3d2223616437316338222f3e3c60608201527f7061746820643d224d313730203136306831307633682d31307a222f3e3c2f6760808201520152565b9092916060938151916000928391849085869160039460038110600014615421576151bf81614878565b985b8981106151d5575050505050505050505050565b81811015615415576151e78184611529565b516040805163507f146560e01b8152919791602060048f6001600160a01b03838584818585165afa928315610cbc57615262966000968f9688966153f6575b50505163c44a8e6d60e01b81526001600160a01b0390931690830190815260208101949094526000604085015290948593849291839160600190565b0392165afa8015610cbc57610100916000916153dd575b500151985b8989036153ae57506001985b60058181036152c1575050506001955b806152a9575b506001016151c1565b6001919d612a756152ba928e612df2565b9c906152a0565b8198929811806153a6575b6152d7575b5061529a565b90959094600680870361535a5750506001945b60079080820361532b575050506001945b8480615324575b8061531c575b615313575b386152d1565b6001965061530d565b508615615308565b5085615302565b9691961180615352575b156152fb5794509b61534990612a756150d0565b9b6001946152fb565b508515615335565b869196118061539e575b156152ea57945060019d8e8b1460001461538c5761538490612a75614e05565b9d5b946152ea565b61539890612a75614cd7565b9d615386565b508515615364565b5087156152cc565b98888111806153d5575b1561528a5798509c6153cc90612a75614acf565b9c60019861528a565b5089156153b8565b6153f0913d8091833e610cae8183610225565b38615279565b61540d929650803d10610ceb57610cdc8183610225565b933880615226565b6008979560009661527e565b80986151c1565b604051906105e082018281106001600160401b0382111761019657604052602e82526105c0366020840137565b9061545f8261056e565b61546c6040519182610225565b82815280926146af601f199161056e565b908151811015611517570160200190565b908151156155b55761549e615428565b9160009060006154ad8561151c565b526001918151916000925b8084106154de57505050506154d46154d9916104089394615984565b6159c7565b615a0e565b9091929461550f6155096155036154f5898761547d565b516001600160f81b03191690565b60f81c90565b60ff1690565b9184925b60ff9089828916861015615574576001929161554861554261550961553b8a61554e96611529565b5160ff1690565b60081b90565b90614886565b61556b8b61556388603a958686061692611529565b9060ff169052565b04930192615513565b50919594935050809691965b61558e5750600101926154b8565b9460ff6001603a926155ab83858b06166155638d86851690611529565b0116950480615580565b905061040861466f565b337f00000000000000000000000000000000000000000000000000000000000000006001600160a01b0316148061560d575b15615609576013193601368111611562573560601c90565b3390565b5060143610156155f1565b604051906156258261020a565b600682526506666653930360d41b6020830152565b604051906156478261020a565b600682526506666633730360d41b6020830152565b604051906156698261020a565b600682526566336136303360d01b6020830152565b6040519061568b8261020a565b600682526539363561316160d01b6020830152565b604051906156ad8261020a565b600682526533331bb1981960d11b6020830152565b604051906156cf8261020a565b600682526506664333630360d41b6020830152565b604051906156f18261020a565b600682526518cccc994c1960d21b6020830152565b604051906157138261020a565b600682526566666438633560d01b6020830152565b604051906157358261020a565b600682526566663936613960d01b6020830152565b604051906157578261020a565b600682526533329a9c1c3160d11b6020830152565b604051906157798261020a565b600682526563393266343560d01b6020830152565b6040519061579b8261020a565b600682526536376437353760d01b6020830152565b604051906157bd8261020a565b600682526503330613232360d41b6020830152565b604051906157df8261020a565b600682526532313761313560d01b6020830152565b604051906158018261020a565b60048252636e6f6e6560e01b6020830152565b604051906158218261020a565b6006825265329a1c19b2b360d11b6020830152565b604051906158438261020a565b60068252653231993332b360d11b6020830152565b6001810361589f575061586961578e565b906158726157b0565b9061587b6157d2565b906158846157f4565b9061588d615814565b90615896615836565b90610408615836565b600281036158e657506158b0615706565b906158b9615728565b906158c261574a565b906158cb61576c565b906158d4615706565b906158dd615728565b9061040861574a565b6003810361592d57506158f761565c565b906159006156a0565b906159096156c2565b906159126156e4565b9061591b61565c565b906159246156a0565b906104086156c2565b60041461594657604051630992899d60e31b8152600490fd5b61594e615618565b9061595761563a565b9061596061565c565b9061596961567e565b90615972615618565b9061597b61563a565b9061040861565c565b9060ff8091169061599482615455565b9260005b8381106159a6575050505090565b80836159b460019385611529565b51166159c08288611529565b5201615998565b9081516159d381615455565b9060005b8181106159e5575090925050565b60019060ff6159fb600019838951030188611529565b5116615a078286611529565b52016159d7565b8051615a198161078d565b91604090615a2a6040519485610225565b828452615a368361078d565b602090601f1901368683013760009260005b858110615a585750505050505090565b6001908251615a66816101b7565b603a81527f31323334353637383941424344454647484a4b4c4d4e50515253545556575859858201527f5a6162636465666768696a6b6d6e6f707172737475767778797a000000000000848201526001600160f81b031990615ad69060ff615ace858a611529565b51169061547d565b5116861a615ae4828a61547d565b5301615a4856fea2646970667358221220a3d4ab8eee4f1e99eb9704b2acfd438a0c4965d701e40c2c02ad50623c4a90a864736f6c63430008170033",
			"deployedBytecode": "0x6080604052600436101561001257600080fd5b60003560e01c806257bfdd146101265780631e4578de1461012157806331a290ac1461011c5780634d03376e14610117578063572b6c05146101125780635e703e711461010d5780636aff31dd14610108578063715018a6146101035780637da0a877146100fe578063875e4bea146100f95780638da5cb5b146100f4578063aeac5e35146100ef578063b03a3eab146100ea578063c06e7bc7146100e5578063f2fde38b146100e0578063f92df2e3146100db5763fff628c6146100d657600080fd5b6114a9565b61147a565b6113ee565b610d95565b610cf2565b610bce565b610ba5565b610a14565b6109cf565b610971565b610945565b610919565b6108c1565b6107df565b610615565b610486565b61040b565b90600182811c9216801561015b575b602083101461014557565b634e487b7160e01b600052602260045260246000fd5b91607f169161013a565b634e487b7160e01b600052604160045260246000fd5b602081019081106001600160401b0382111761019657604052565b610165565b6111a081019081106001600160401b0382111761019657604052565b606081019081106001600160401b0382111761019657604052565b6101c081019081106001600160401b0382111761019657604052565b61026081019081106001600160401b0382111761019657604052565b604081019081106001600160401b0382111761019657604052565b90601f801991011681019081106001600160401b0382111761019657604052565b604051906000826002549161025a8361012b565b808352926020906001908181169081156102e85750600114610287575b505061028592500383610225565b565b91509260026000527f405787fa12a823e0f2b7631cc41b3ba8828b3321ca811111fa75cd3aa3bb5ace936000925b8284106102d057506102859450505081016020013880610277565b855488850183015294850194879450928101926102b5565b9150506020925061028594915060ff191682840152151560051b8201013880610277565b9060405191826000825461031f8161012b565b9081845260209460019160018116908160001461038d575060011461034e575b50505061028592500383610225565b600090815285812095935091905b818310610375575050610285935082010138808061033f565b8554888401850152948501948794509183019161035c565b9250505061028594925060ff191682840152151560051b82010138808061033f565b60005b8381106103c25750506000910152565b81810151838201526020016103b2565b906020916103eb815180928185528580860191016103af565b601f01601f1916010190565b9060206104089281815201906103d2565b90565b3461043f57600036600319011261043f5761043b610427610246565b6040519182916020835260208301906103d2565b0390f35b600080fd5b604081019181526060602091604060208201528151809452019160809160005b828110610472575050505090565b835185529381019392810192600101610464565b3461043f5760208060031936011261043f57600435906000918083526005602052604083209060405180938491602085549182815201948752602087209187905b82821061053457505050506104e1906104f1930384610225565b6000526006602052604060002090565b5491815191815b83811061050d576040518061043b8782610444565b8061051a60019284611529565b5161052d61052786611553565b95611504565b52016104f8565b8354875295860195879450600193840193909101906104c7565b604051906101a082018281106001600160401b0382111761019657604052565b6001600160401b0381116101965760051b60200190565b9080601f8301121561043f57602090823561059f8161056e565b936105ad6040519586610225565b81855260208086019260051b82010192831161043f57602001905b8282106105d6575050505090565b813581529083019083016105c8565b9181601f8401121561043f578235916001600160401b03831161043f576020808501948460051b01011161043f57565b3461043f5760408060031936011261043f576001600160401b036004803582811161043f576106479036908301610585565b9160243590811161043f5761065f90369083016105e5565b909183519060005b8281106106b0575050506106ab61069e7f7b414cb0ad21f3dfa349dbd1d4ca10eeb276661a7af9df6e18086aed7c31c8d694611750565b94519283923391846117ab565b0390a2005b6106ba8187611529565b516106d06106c9838789611567565b36916107a8565b906106ed6106e8826000526004602052604060002090565b6115a8565b61077d57610705816000526001602052604060002090565b54801561076d578951602081019061072f8161072184886115b2565b03601f198101835282610225565b5190200361075d5760019291610752610757926000526004602052604060002090565b61167b565b01610667565b88516375b5da0b60e01b81528490fd5b8951637ef41a4f60e01b81528590fd5b8851630388067760e21b81528490fd5b6001600160401b03811161019657601f01601f191660200190565b9291926107b48261078d565b916107c26040519384610225565b82948184528183011161043f578281602093846000960137010152565b3461043f57604036600319011261043f576001600160401b0360043581811161043f57610810903690600401610585565b60249060243583811161043f573660238201121561043f578060040135926108378461056e565b936108456040519586610225565b8085526020956024602087019260051b8501019336851161043f5760248101925b858410610879576108778888611848565b005b833583811161043f5782013660438201121561043f5789916108a58392369060448a82013591016107a8565b815201930192610866565b6001600160a01b0381160361043f57565b3461043f57602036600319011261043f5760206004356108e0816108b0565b6040517f000000000000000000000000b2b5841dbef766d4b521221732f9b618fcf34a876001600160a01b039081169216919091148152f35b3461043f57604036600319011261043f5761043b61042760043561093c816108b0565b60243590611ca6565b3461043f57602036600319011261043f5760043560005260016020526020604060002054604051908152f35b3461043f576000806003193601126109cc5761098b612d3d565b80546001600160a01b03198116825581906001600160a01b03167f8be0079c531659141344cd1fd0a4f28419497f9722a3daafe3b4186f6b6457e08280a380f35b80fd5b3461043f57600036600319011261043f576040517f000000000000000000000000b2b5841dbef766d4b521221732f9b618fcf34a876001600160a01b03168152602090f35b3461043f5760208060031936011261043f576004356001600160401b0380821161043f573660238301121561043f57816004013590811161043f57602492366024838501011161043f57610a66612d3d565b610a7a82610a7560025461012b565b6115e0565b600093601f8311600114610af8575050610acd81807f512c3c91736f50c57a0548c1d01ab02f24c420f002b8b20e2bfe63df9693cd3f95600091610aea575b508160011b916000199060031b1c19161790565b6002555b610ae560405192839260243392018461203e565b0390a1005b602491508501013538610ab9565b6002600052601f19831694907f405787fa12a823e0f2b7631cc41b3ba8828b3321ca811111fa75cd3aa3bb5ace9282915b878310610b8957505050827f512c3c91736f50c57a0548c1d01ab02f24c420f002b8b20e2bfe63df9693cd3f9510610b6c575b5050600181811b01600255610ad1565b830160240135600019600384901b60f8161c191690553880610b5c565b908060018596848396978b010135815501950193019190610b29565b3461043f57600036600319011261043f576000546040516001600160a01b039091168152602090f35b3461043f57604036600319011261043f57600435610beb816108b0565b60405163507f146560e01b815260243591906001600160a01b03906020816004818587165afa8015610cbc57610c629360009386938593610cc1575b5060405163c44a8e6d60e01b81526001600160a01b039092166004830152602482019390935260006044820152938492839182906064820190565b0392165afa918215610cbc5761043b92610c8d92600091610c99575b506101008151910151916126f5565b604051918291826103f7565b610cb691503d806000833e610cae8183610225565b810190611a99565b38610c7e565b611a35565b610ce491935060203d602011610ceb575b610cdc8183610225565b810190611a20565b9138610c27565b503d610cd2565b3461043f57604036600319011261043f576001600160401b0360043581811161043f57610d23903690600401610585565b9060243590811161043f573660238201121561043f578060040135610d478161056e565b91610d556040519384610225565b8183526020916024602085019160051b8301019136831161043f57602401905b828210610d86576108778587612067565b81358152908301908301610d75565b3461043f57608036600319011261043f57610db16004356108b0565b6064356001600160401b03811161043f57610dd09036906004016105e5565b906040516331a9108f60e11b815260208180610df6602435600483019190602083019252565b03816004356001600160a01b03165afa908115610cbc576000916113cf575b50610e2d610e216155bf565b6001600160a01b031690565b6001600160a01b03909116036113bd576044351561139f576040516331a9108f60e11b81526044356004820152602081806024810103816004356001600160a01b03165afa908115610cbc57600091611380575b50610e8d610e216155bf565b6001600160a01b039091160361136e5760405163507f146560e01b815260208160048181356001600160a01b03165afa908115610cbc5760009161134f575b5060405163c44a8e6d60e01b81526001600160a01b03600480358216908301526044803560248401526000908301819052919283916064918391165afa908115610cbc57600091611334575b50511561132257604435610f386024356000526006602052604060002090565b555b6000610f4461214a565b5080808080805b878610610fc4578787610f748282610f6f6024356000526005602052604060002090565b6121e3565b7f6a68946ba06488db8585d7c7637fa954b574035fe15720ea760125ef86017258610fbf610fa06155bf565b6040519182916024359660018060a01b0360043516966044358561225c565b0390a3005b610fcf8689896121bb565b6040516331a9108f60e11b81529035600482018190529290602081806024810103816004356001600160a01b03165afa908115610cbc57600091611303575b5061101a610e216155bf565b6001600160a01b03909116036112f15760405163507f146560e01b815260208160048181356001600160a01b03165afa938415610cbc576110999460009283916112d2575b50604051808097819463c44a8e6d60e01b8352600435600484016040906000929493606082019560018060a01b0316825260208201520152565b03916001600160a01b03165afa928315610cbc576000936112b7575b508251156112a5576101008301516002811090811561129a575b50611288578615159081611278575b506112665761010082015160048103611106575050600161010081925b015195019490610f4b565b9194909160058103611120575050600161010081956110fb565b90949290600b810361113a575050600161010081936110fb565b9293909260098103611154575050600161010081946110fb565b600d819592951490818215928361125c575b8015611252575b8061124b575b1561118a5760405163167e5dcd60e31b8152600490fd5b600682148081159182611241575b8015611237575b80611230575b156111bc57604051631e550b6f60e11b8152600490fd5b90611226575b8061121f575b156111df576040516354f653b360e01b8152600490fd5b91611214575b508061120d575b6111fb576101006001916110fb565b604051635e701b2b60e01b8152600490fd5b50826111ec565b600c915014386111e5565b50876111c8565b50600782146111c2565b50866111a5565b506008841461119f565b5060078414611198565b5086611173565b50600a821461116d565b50600c8214611166565b604051637dc0e82560e11b8152600490fd5b90506101008301511115386110de565b60405163c89badbd60e01b8152600490fd5b600f915011386110cf565b6040516354c0901d60e11b8152600490fd5b6112cb91933d8091833e610cae8183610225565b91386110b5565b6112eb915060203d602011610ceb57610cdc8183610225565b3861105f565b60405163812a698960e01b8152600490fd5b61131c915060203d602011610ceb57610cdc8183610225565b3861100e565b60405163265ba87960e01b8152600490fd5b61134991503d806000833e610cae8183610225565b38610f18565b611368915060203d602011610ceb57610cdc8183610225565b38610ecc565b604051639d17cec760e01b8152600490fd5b611399915060203d602011610ceb57610cdc8183610225565b38610e81565b60006113b76024356000526006602052604060002090565b55610f3a565b6040516307d59f1360e21b8152600490fd5b6113e8915060203d602011610ceb57610cdc8183610225565b38610e15565b3461043f57602036600319011261043f5760043561140b816108b0565b611413612d3d565b6001600160a01b03908116801561146157600080546001600160a01b03198116831782559092167f8be0079c531659141344cd1fd0a4f28419497f9722a3daafe3b4186f6b6457e08380a380f35b604051631e4fbdf760e01b815260006004820152602490fd5b3461043f57606036600319011261043f5761043b6104276044356024356004356126f5565b8015150361043f57565b3461043f57608036600319011261043f5761043b6104276004356114cc816108b0565b6044356114d88161149f565b606435916114e58361149f565b60243590612b67565b634e487b7160e01b600052603260045260246000fd5b6060518110156115175760051b60800190565b6114ee565b8051156115175760200190565b80518210156115175760209160051b010190565b634e487b7160e01b600052601160045260246000fd5b60001981146115625760010190565b61153d565b91908110156115175760051b81013590601e198136030182121561043f5701908135916001600160401b03831161043f57602001823603811361043f579190565b610408905461012b565b906115c5602092828151948592016103af565b0190565b8181106115d4575050565b600081556001016115c9565b90601f82116115ed575050565b6102859160026000527f405787fa12a823e0f2b7631cc41b3ba8828b3321ca811111fa75cd3aa3bb5ace906020601f840160051c83019310611637575b601f0160051c01906115c9565b909150819061162a565b9190601f811161165057505050565b610285926000526020600020906020601f840160051c8301931061163757601f0160051c01906115c9565b91909182516001600160401b038111610196576116a28161169c845461012b565b84611641565b602080601f83116001146116e5575081906116d69394956000926116da575b50508160011b916000199060031b1c19161790565b9055565b0151905038806116c1565b90601f198316956116fb85600052602060002090565b926000905b8882106117385750508360019596971061171f575b505050811b019055565b015160001960f88460031b161c19169055388080611715565b80600185968294968601518155019501930190611700565b60405190818183925160208092019160005b828110611773575050505003902090565b835185528695509381019392810192600101611762565b908060209392818452848401376000828201840152601f01601f1916010190565b9392919081604086016040875252606085019160608160051b87010192826000905b8382106117ef5750505050509060206102859294019060018060a01b03169052565b9091929394605f198982030184528535601e198336030181121561043f578201803560208092016001600160401b03821161043f57813603811361043f57600193839261183b9261178a565b97019594019201906117cd565b9190611852612d3d565b8251926000935b8085106118a657507f31ddb2f0a32be79206d6bf3e670f8cc38863c4984b95cdbe8ed6eba58207a3a5919293506118926118a191611750565b926040519182913390836119ac565b0390a2565b6118b08583611529565b51946118bc8185611529565b5195600052600360208181526040600020918851916001600160401b038311610196576118f3836118ed865461012b565b86611641565b8091601f8411600114611938575050908061192b926001969798999a6000926116da5750508160011b916000199060031b1c19161790565b90555b0193929190611859565b9091601f1984169a61194f86600052602060002090565b936000905b8d821061199457505084600198999a9b9c1061197a575b50505050831b8301905561192e565b01519060f884600019921b161c191690553880808061196b565b80600185978294968601518155019601930190611954565b909291926040820190604083528051809252606083019160608160051b850101916020809101936000905b8382106119f45750505050602091509360018060a01b0316910152565b909192938380611a10600193605f198b820301865289516103d2565b97019201920190949392916119d7565b9081602091031261043f5751610408816108b0565b6040513d6000823e3d90fd5b5190610285826108b0565b51906102858261149f565b81601f8201121561043f578051611a6d8161078d565b92611a7b6040519485610225565b8184526020828401011161043f5761040891602080850191016103af565b60208183031261043f5780516001600160401b039182821161043f57016101a08184031261043f57611ac961054e565b92815184526020820151602085015260408201516040850152606082015160608501526080820151608085015260a082015160a0850152611b0c60c08301611a41565b60c085015260e082015160e08501526101008083015190850152610120611b34818401611a4c565b90850152610140611b46818401611a4c565b90850152610160611b58818401611a4c565b90850152610180928383015190811161043f57611b759201611a57565b9082015290565b60405190611b898261017b565b60008252565b90604051918260605160005b818110611bd0575090602061028593611bc48294840191838301600081528151948592016103af565b01038085520183610225565b6020919250806080015182828801015201908491611b9b565b6020610285919392936040519481611c0a87935180928680870191016103af565b8201611bc4825180938680850191016103af565b9060208282031261043f5781516001600160401b03811161043f576104089201611a57565b9081602091031261043f575190565b90610285603d60405180947f646174613a6170706c69636174696f6e2f6a736f6e3b6261736536342c0000006020830152611c9681518092602086860191016103af565b810103601d810185520183610225565b6040805163507f146560e01b808252602094929392906001600160a01b03908185168785600481845afa948515610cbc5760009561201f575b50865163c44a8e6d60e01b81526001600160a01b03871660048201526024810185905260006044820181905290958690606490829087165afa948515610cbc57600095612004575b50845115611ff4576101008501805190939015611fea57611d49865188612df2565b968751611fb3575b875115611e87575050505094611e76611e68611e8296611de5611e01611de598611de5611deb8a611dc76104089f611d98611dae9d611dc29f92611d9f93519051916126f5565b92516146b9565b9488519c8d918d8301906115b2565b039b611dc2601f199d8e8101835282610225565b614893565b9651683d913730b6b2911d1160b91b9a81019a8b529c8d9a60090190565b906115b2565b691116101134b2111d101160b11b8152600a0190565b7f222c226465736372697074696f6e223a2241207069656365206f66207468652081527f42616e6e797665727365222c22696d616765223a22646174613a696d6167652f60208201526e1cdd99cade1b5b0ed8985cd94d8d0b608a1b6040820152604f0190565b61227d60f01b815260020190565b03908101835282610225565b611c52565b92965092600f9195505111600014611fa4578551636c0360eb60e01b8152600081600481885afa8015610cbc578891600091611f81575b50955b600488518097819382525afa918215610cbc57611f14968895600094611f62575b5051630c8df17160e41b81526001600160a01b0390921660048301526024820193909352948592839182906044820190565b0392165afa918215610cbc5761040893600093611f33575b5050614608565b611f53929350803d10611f5b575b611f4b8183610225565b810190611c43565b903880611f2c565b503d611f41565b611f7a919450863d8811610ceb57610cdc8183610225565b9238611ee2565b611f9e91503d806000833e611f968183610225565b810190611c1e565b38611ebe565b86611fad610246565b95611ec1565b96611fc6906001865103611fcc57614514565b96611d51565b611fe590611fe0611fdb612eed565b61444e565b611be9565b614514565b611fc68588612980565b5050505050505050610408611b7c565b61201891953d8091833e610cae8183610225565b9338611d27565b612037919550883d8a11610ceb57610cdc8183610225565b9338611cdf565b916020916120579195949560408552604085019161178a565b6001600160a01b03909416910152565b61206f612d3d565b805160005b8181106120ef57505061208690611750565b9060405190818183925160208092019160005b8281106120d857505050500390206040513381529091907fb0c948934b683b0d319be35a6898bce339f877d721976592196eef848acc69c390602090a3565b835185528695509381019392810192600101612099565b6120f98184611529565b516121048286611529565b51908060005260016020526040806000205461213a575090612133600193926000526001602052604060002090565b5501612074565b516333ded41b60e21b8152600490fd5b604051906101a082018281106001600160401b0382111761019657604052606061018083600080825280602083015280604083015280848301528060808301528060a08301528060c08301528060e08301528061010083015280610120830152806101408301526101608201520152565b91908110156115175760051b0190565b600281901b91906001600160fe1b0381160361156257565b906001600160401b0383116101965768010000000000000000831161019657815483835580841061223e575b50906000526020806000209060005b84811061222c575050505050565b8335838201559281019260010161221e565b612256908360005284602060002091820191016115c9565b3861220f565b9081526060602082018190528101839052929392916001600160fb1b03811161043f5760409160809160051b8091838601378301019360018060a01b0316910152565b60226102859193929360405194816122c18793518092602080870191016103af565b820161202360f01b60208201526122e182518093602087850191016103af565b01036002810185520183610225565b90610285602960405180946802a37b83834b7339d160bd1b602083015261232081518092602086860191016103af565b8101036009810185520183610225565b90610285602660405180946502334b9ba1d160d51b602083015261235d81518092602086860191016103af565b8101036006810185520183610225565b90610285602d60405180946c029bab4ba103137ba3a37b69d1609d1b60208301526123a181518092602086860191016103af565b810103600d810185520183610225565b90610285602a604051809469029bab4ba103a37b81d160b51b60208301526123e281518092602086860191016103af565b810103600a810185520183610225565b906102856026604051809465029bab4ba1d160d51b602083015261235d81518092602086860191016103af565b90610285602660405180946502432b0b21d160d51b602083015261235d81518092602086860191016103af565b90610285602660405180946502430b4b91d160d51b602083015261235d81518092602086860191016103af565b906102856027604051809466026b7baba341d160cd1b60208301526124a781518092602086860191016103af565b8101036007810185520183610225565b906102856026604051809465022bcb2b99d160d51b602083015261235d81518092602086860191016103af565b90610285602660405180946502330b1b29d160d51b602083015261235d81518092602086860191016103af565b90610285602a60405180946902732b1b5b630b1b29d160b51b60208301526123e281518092602086860191016103af565b906102856026604051809465029b437b29d160d51b602083015261235d81518092602086860191016103af565b90610285602a60405180946902130b1b5b9b4b2329d160b51b60208301526123e281518092602086860191016103af565b90610285602760405180946602bb7b936321d160cd1b60208301526124a781518092602086860191016103af565b906102856035604051809474027b934b3b4b730b6102730b5b2b2102130b7373c9605d1b602083015261260a81518092602086860191016103af565b8101036015810185520183610225565b906102856033604051809472027b930b733b2902730b5b2b2102130b7373c9606d1b602083015261265481518092602086860191016103af565b8101036013810185520183610225565b90610285603160405180947002834b735902730b5b2b2102130b7373c9607d1b602083015261269c81518092602086860191016103af565b8101036011810185520183610225565b906102856032604051809471020b634b2b7102730b5b2b2102130b7373c960751b60208301526126e581518092602086860191016103af565b8101036012810185520183610225565b91633b9aca008306916001810361271a57505050612715610408916146b9565b6126ac565b6002810361273657505050612731610408916146b9565b612664565b600381036127525750505061274d610408916146b9565b61261a565b6004810361276e57505050612769610408916146b9565b6125ce565b61278e91929350612789906000526003602052604060002090565b61030c565b9180612899575b50600181036127a85750610408906125a0565b600281036127ba57506104089061256f565b600a81036127cc575061040890612542565b600381036127de575061040890612511565b600581036127f05750610408906124e4565b600681036128025750610408906124b7565b60078103612814575061040890612479565b6008810361282657506104089061244c565b6004810361283857506104089061241f565b600b810361284a5750610408906123f2565b600d810361285c5750610408906123b1565b600c810361286e57506104089061236d565b600e8103612880575061040890612330565b600f146128905750610408611b7c565b610408906122f0565b90918051156000146128b757506128af906146b9565b905b38612795565b6128c36128c9926146b9565b9061229f565b906128b1565b919060408382031261043f5782519260209081810151906001600160401b03821161043f57019180601f8401121561043f57825161290c8161056e565b9361291a6040519586610225565b818552838086019260051b82010192831161043f578301905b828210612941575050505090565b81518152908301908301612933565b3d1561297b573d906129618261078d565b9161296f6040519384610225565b82523d6000602084013e565b606090565b60405163507f146560e01b8152906001600160a01b036020836004818585165afa928315610cbc57600093612b43575b5060405163c44a8e6d60e01b81526001600160a01b0383166004820152602481018590526000604482018190529093909184916064918391165afa918215610cbc57600092612b28575b50815115612b1d576060610100830151612af657604051630f22bc6f60e11b8152600481019490945261040893612a83929082906000908181602481305afa9081600091600093612acf575b50612ac157505090612a7b91612a5a612950565b505b80151580612ab9575b612a9f575b50612a758651614973565b90611be9565b935190615195565b8051612a90575b50614514565b612a9991611be9565b38612a8a565b612ab39150612aae9084612df2565b611b8f565b38612a6a565b506001612a65565b909450612a7b929150612a5c565b909250612aef91503d806000833e612ae78183610225565b8101906128cf565b9138612a46565b5090612b0492505190612df2565b805115612b145761040890614514565b50610408611b7c565b505050610408611b7c565b612b3c91923d8091833e610cae8183610225565b90386129fa565b6000919350612b609060203d602011610ceb57610cdc8183610225565b92906129b0565b60405163507f146560e01b8152909390916001600160a01b03602084600481848a165afa938415610cbc57600094612d19575b5060405163c44a8e6d60e01b81526001600160a01b0387166004820152602481018390526000604482018190529094909185916064918391165afa928315610cbc57600093612cfe575b50825115612cf157606094610100840151612ce157604051630f22bc6f60e11b81526004810192909252610408959182906000908181602481305afa9081600091600093612cc2575b50612cb2575050612c5f929394612c42612950565b505b8115159081612caa575b50612c95575b50612a758551614973565b93612c6d575b505050614514565b612c78925190615195565b8051612c86575b8080612c65565b612c8f91611be9565b38612c7f565b612ca49150612aae9084612df2565b38612c54565b905038612c4e565b909150612c5f9394509094612c44565b909250612cda91503d806000833e612ae78183610225565b9138612c2d565b93505050612b0492505190612df2565b5050505050610408611b7c565b612d1291933d8091833e610cae8183610225565b9138612be4565b6000919450612d369060203d602011610ceb57610cdc8183610225565b9390612b9a565b6000546001600160a01b0390811681612d546155bf565b1603612d5d5750565b602490612d686155bf565b60405163118cdaa760e01b815291166004820152fd5b9061028560566040518094751e339f1e34b6b0b3b2903c3634b7359d343932b31e9160511b6020830152612dbc8151809260206036860191016103af565b81017f222077696474683d2234303022206865696768743d22343030222f3e3c2f673e6036820152036036810185520183610225565b612e09612789836000526004602052604060002090565b8051612ee7575060405163507f146560e01b81526001600160a01b039260209283836004818489165afa908115610cbc57612e7c958594600093612ec8575b50604051632f54648f60e21b81526001600160a01b0390921660048301526024820193909352948592839182906044820190565b0392165afa8015610cbc5761040892612ea692600092612eab575b5050612ea1610246565b614608565b612d7e565b612ec19250803d10611f5b57611f4b8183610225565b3880612e97565b612ee0919350853d8711610ceb57610cdc8183610225565b9138612e48565b91505090565b60405190612efa8261019b565b61117a82527f762d31306833762d376833762d33682d31307a222f3e3c2f673e000000000000611180837f3c6720636c6173733d226131223e3c7061746820643d224d313733203533683460208201527f763137682d347a222f3e3c2f673e3c6720636c6173733d226132223e3c70617460408201527f6820643d224d3136372035376833763130682d337a222f3e3c7061746820643d60608201527f224d3136392035336834763137682d347a222f3e3c2f673e3c6720636c61737360808201527f3d226133223e3c7061746820643d224d31363720353368337634682d337a222f60a08201527f3e3c7061746820643d224d3136332035376834763130682d347a222f3e3c706160c08201527f746820643d224d31363720363768337633682d337a222f3e3c2f673e3c67206360e08201527f6c6173733d226231223e3c7061746820643d224d32313320323533682d33762d6101008201527f332d33682d33762d372d33682d34762d3130682d33762d372d372d33682d33766101208201527f2d3733682d34762d3130682d33762d3130682d33762d37682d34762d37682d336101408201527f762d33682d33762d33682d3476313068347631306833763130683376336834766101608201527f37203320373020336833763768337632306834763768337633683376336834766101808201527f34683376336833762d332d347a222f3e3c7061746820643d224d3235332033306101a08201527f37762d34682d33762d33682d33762d33682d34762d34682d33762d33682d33766101c08201527f2d33682d34762d34682d33762d33682d33762d33682d34762d34682d33762d366101e08201527f682d33762d37682d3476313768347633683376336833203476346833763368336102008201527f76336834763468337633683376336834763468337633683376336834762d36686102208201527f2d347a222f3e3c2f673e3c6720636c6173733d226232223e3c7061746820643d6102408201527f224d32353020333130762d33682d33762d34682d34762d33682d33762d33682d6102608201527f33762d34682d34762d33682d33762d33682d33762d34682d37762d33682d33766102808201527f2d33682d34762d3137682d33762d33682d33762d34682d34762d33682d33762d6102a08201527f33682d33762d37682d34762d3230682d33762d37682d33762d37332d332d37686102c08201527f2d34762d33682d33762d3130682d33762d3130682d34563730682d33762d336c6102e08201527f2d332031303020332d313030763430682d33763130682d347636682d337631346103008201527f682d337633203133682d347634346834763136683376313468337631336834766103208201527f31306833763768337633683476336833763468337633683476336833763468336103408201527f76336834763368337637683776376836763368377633683776346831337633686103608201527f337633683130762d33682d337a6d2d3130332d3837762d31366833762d3130686103808201527f2d337636682d34763137682d337631306833762d3768347a222f3e3c706174686103a08201527f20643d224d3134332032333068347637682d347a6d3420313068337633682d336103c08201527f7a6d33203768337633682d337a6d33203668347634682d347a222f3e3c7061746103e08201527f6820643d224d31363320323537682d36763368337633683376346834762d342d6104008201527f33682d34762d337a222f3e3c2f673e3c6720636c6173733d226233223e3c70616104208201527f746820643d224d3134332031393776366834762d366836762d34346834762d316104408201527f366833762d31346833762d366834762d31306833563937682d377636682d33766104608201527f34682d337633682d347633682d3376342033682d3376332034682d34763130686104808201527f2d337631362034682d337634366833762d3668337a222f3e3c7061746820643d6104a08201527f224d313430203230336833763137682d337a222f3e3c7061746820643d224d316104c08201527f3337203232306833763130682d337a222f3e3c7061746820643d224d313533206104e08201527f323530682d33762d37682d33762d36682d34762d37682d3376313068337637686105008201527f347636683376346833762d377a6d2d3320313068337637682d337a222f3e3c706105208201527f61746820643d224d3134372032353768337633682d337a6d36203068347633686105408201527f2d347a222f3e3c7061746820643d224d31363020323633762d33682d337633206105608201527f376836762d37682d337a6d2d31302d3536763136682d337637683376313068336105808201527f763768347636683676346837762d342d33682d33762d3130682d34762d3133686105a08201527f2d33762d3134682d33762d3136682d34763130682d337a222f3e3c70617468206105c08201527f643d224d32343320333133762d33682d33762d33682d31302d33762d34682d376105e08201527f762d33682d37762d33682d36762d37682d37762d37682d33762d33682d34762d6106008201527f33682d33762d34682d33762d33682d34762d33682d33762d34682d33762d33686106208201527f2d34762d33682d33763130682d337633682d347633682d3376376833763768346106408201527f76366833763568347633683676336833763368342033763368332034763368336106608201527f20337634683130763368372037203376336831302033762d33683130762d33686106808201527f34762d34682d31347a222f3e3c2f673e3c6720636c6173733d226234223e3c706106a08201527f61746820643d224d3138332031333068347637682d347a222f3e3c70617468206106c08201527f643d224d3138302031323768337633682d337a6d2d32372d3468347637682d346106e08201527f7a222f3e3c7061746820643d224d3135372031313768337636682d337a222f3e6107008201527f3c7061746820643d224d3136302031313068337637682d337a222f3e3c7061746107208201527f6820643d224d3136332031303768347633682d347a6d2d3320383368337637686107408201527f2d337a222f3e3c7061746820643d224d3136332031383768347633682d347a6d6107608201527f3230203068377633682d377a222f3e3c7061746820643d224d313830203139306107808201527f68337633682d337a6d31302d3768337634682d337a222f3e3c7061746820643d6107a08201527f224d3139332031383768347636682d347a6d2d323020353368347637682d347a6107c08201527f222f3e3c7061746820643d224d3137372032343768337636682d337a222f3e3c6107e08201527f7061746820643d224d3138302032353368337637682d337a222f3e3c706174686108008201527f20643d224d3138332032363068377633682d377a222f3e3c7061746820643d226108208201527f4d3139302032363368337634682d337a6d302d323068337634682d337a222f3e6108408201527f3c7061746820643d224d3138372032343068337633682d337a222f3e3c7061746108608201527f6820643d224d3139302032333768337633682d337a6d313320323368347633686108808201527f2d347a222f3e3c7061746820643d224d3230372032363368337637682d337a226108a08201527f2f3e3c7061746820643d224d3231302032373068337633682d337a6d2d3130206108c08201527f3768337636682d337a222f3e3c7061746820643d224d323033203238336834766108e08201527f37682d347a222f3e3c7061746820643d224d3230372032393068367633682d366109008201527f7a222f3e3c2f673e3c6720636c6173733d226f223e3c7061746820643d224d316109208201527f3333203135376834763530682d347a6d302036336834763130682d347a6d32376109408201527f2d3136336833763130682d337a222f3e3c7061746820643d224d3136332035336109608201527f68347634682d347a222f3e3c7061746820643d224d31363720353068313076336109808201527f682d31307a222f3e3c7061746820643d224d3137372035336833763137682d336109a08201527f7a222f3e3c7061746820643d224d3137332037306834763237682d347a6d2d366109c08201527f20306833763237682d337a222f3e3c7061746820643d224d31363320363768346109e08201527f7633682d347a6d3020333068347633682d347a222f3e3c7061746820643d224d610a008201527f3136302031303068337633682d337a222f3e3c7061746820643d224d31353720610a208201527f31303368337634682d337a222f3e3c7061746820643d224d3135332031303768610a408201527f347633682d347a222f3e3c7061746820643d224d313530203131306833763368610a608201527f2d337a222f3e3c7061746820643d224d3134372031313368337637682d337a22610a808201527f2f3e3c7061746820643d224d3134332031323068347637682d347a222f3e3c70610aa08201527f61746820643d224d313430203132376833763130682d337a222f3e3c70617468610ac08201527f20643d224d313337203133376833763230682d337a6d35362d31306834763130610ae08201527f682d347a222f3e3c7061746820643d224d313930203131376833763130682d33610b008201527f7a222f3e3c7061746820643d224d3138372031313068337637682d337a222f3e610b208201527f3c7061746820643d224d3138332031303368347637682d347a222f3e3c706174610b408201527f6820643d224d3138302031303068337633682d337a222f3e3c7061746820643d610b608201527f224d31373720393768337633682d337a6d2d3430203130366833763137682d33610b808201527f7a6d302032376833763130682d337a6d313020333068337637682d337a222f3e610ba08201527f3c7061746820643d224d31353020323537762d34682d33762d36682d34762d37610bc08201527f682d3376313068337631306834762d3368337a222f3e3c7061746820643d224d610be08201527f3135302032353768337633682d337a222f3e3c7061746820643d224d31363320610c008201527f323733762d33682d36762d3130682d347637682d337633683376336834763768610c208201527f33762d3768337a222f3e3c7061746820643d224d313633203236376834763368610c408201527f2d347a222f3e3c7061746820643d224d31373020323537682d332d3476336834610c608201527f76376833762d31307a222f3e3c7061746820643d224d31353720323533683676610c808201527f34682d367a222f3e3c7061746820643d224d3135332032343768347636682d34610ca08201527f7a222f3e3c7061746820643d224d3135302032343068337637682d337a222f3e610cc08201527f3c7061746820643d224d313437203233306833763130682d337a6d3133203530610ce08201527f68337637682d337a222f3e3c7061746820643d224d3134332032323368347637610d008201527f682d347a222f3e3c7061746820643d224d313437203230376833763136682d33610d208201527f7a222f3e3c7061746820643d224d313530203139376833763130682d337a6d2d610d408201527f3130203068337636682d337a6d35302031313368377633682d377a6d32332031610d608201527f306831377633682d31377a222f3e3c7061746820643d224d3233302033323368610d808201527f31337634682d31337a222f3e3c7061746820643d224d32343320333230683130610da08201527f7633682d31307a222f3e3c7061746820643d224d323533203331376834763368610dc08201527f2d347a222f3e3c7061746820643d224d323537203330376833763130682d337a610de08201527f222f3e3c7061746820643d224d3235332033303368347634682d347a222f3e3c610e008201527f7061746820643d224d3235302033303068337633682d337a222f3e3c70617468610e208201527f20643d224d3234372032393768337633682d337a222f3e3c7061746820643d22610e408201527f4d3234332032393368347634682d347a222f3e3c7061746820643d224d323430610e608201527f2032393068337633682d337a222f3e3c7061746820643d224d32333720323837610e808201527f68337633682d337a222f3e3c7061746820643d224d3233332032383368347634610ea08201527f682d347a222f3e3c7061746820643d224d3233302032383068337633682d337a610ec08201527f222f3e3c7061746820643d224d3232372032373768337633682d337a222f3e3c610ee08201527f7061746820643d224d3232332032373368347634682d347a222f3e3c70617468610f008201527f20643d224d3232302032363768337636682d337a222f3e3c7061746820643d22610f208201527f4d3231372032363068337637682d337a222f3e3c7061746820643d224d323133610f408201527f2032353368347637682d347a222f3e3c7061746820643d224d32313020323437610f608201527f68337636682d337a222f3e3c7061746820643d224d3230372032333768337631610f808201527f30682d337a222f3e3c7061746820643d224d323033203232376834763130682d610fa08201527f347a6d2d343020363068347636682d347a6d323420323068337633682d337a22610fc08201527f2f3e3c7061746820643d224d3136372032393368337635682d337a6d31362031610fe08201527f3468347633682d347a222f3e3c7061746820643d224d313730203239386834766110008201527f33682d347a6d3130203668337633682d337a222f3e3c7061746820643d224d316110208201527f37342033303168367633682d367a6d323320313268367634682d367a222f3e3c6110408201527f7061746820643d224d323033203331376831307633682d31307a6d2d322d31306110608201527f37762d3733682d3476373368337631376833762d3137682d327a222f3e3c2f676110808201527f3e3c6720636c6173733d226f223e3c7061746820643d224d31383720333037766110a08201527f2d346833762d36682d33762d34682d34762d33682d33762d33682d37762d34686110c08201527f2d367634682d3476336834763237682d34763133682d33763130682d347637686110e08201527f3476336833203130203134762d33682d34762d34682d33762d33682d33762d336111008201527f682d34762d376834762d31306833762d376833762d336837762d33682d337a6d6111208201527f3136203130762d34682d36763137682d34763130682d337637683376336834206111408201527f3620342033203134762d33682d34762d34682d37762d33682d33762d33682d336111608201520152565b90610285609a60405180947f3c7374796c653e2e6f7b66696c6c3a233830383038303b7d2e62327b66696c6c60208301527f3a6e6f6e653b7d2e62337b66696c6c3a6e6f6e653b7d2e62347b66696c6c3a6e60408301527f6f6e653b7d2e61317b66696c6c3a6e6f6e653b7d2e61327b66696c6c3a6e6f6e60608301527f653b7d2e61337b66696c6c3a6e6f6e653b7d3c2f7374796c653e000000000000608083015261450481518092602086860191016103af565b810103607a810185520183610225565b9061028560bb60405180947f3c7376672077696474683d2234303022206865696768743d223430302220766960208301527f6577426f783d223020302034303020343030222066696c6c3d226e6f6e65222060408301527f786d6c6e733d22687474703a2f2f7777772e77332e6f72672f323030302f737660608301527f67223e3c7374796c653e2e6f7b66696c6c3a233035303530353b7d2e777b666960808301527436361d11b31cb31cb31c9dbe9f1e17b9ba3cb6329f60591b60a08301526145e981518092602060b5860191016103af565b8101651e17b9bb339f60d11b60b582015203609b810185520183610225565b9061040890614636604051602092609160f51b84830152602282015260228152614631816101b7565b61548e565b92604051938161464f86935180928680870191016103af565b8201614663825180938680850191016103af565b01038084520182610225565b60405161467b8161017b565b60008152906000368137565b906146918261078d565b61469e6040519182610225565b82815280926146af601f199161078d565b0190602036910137565b806000917a184f03e93ff9f4daa797ed6e38ed64bf6a1f010000000000000000808210156147ef575b506d04ee2d6d415b85acef8100000000808310156147e0575b50662386f26fc10000808310156147d1575b506305f5e100808310156147c2575b50612710808310156147b3575b5060648210156147a3575b600a80921015614799575b60019081602161475160018701614687565b95860101905b614763575b5050505090565b600019019083906f181899199a1a9b1b9c1cb0b131b232b360811b8282061a83530491821561479457919082614757565b61475c565b916001019161473f565b9190606460029104910191614734565b60049193920491019138614729565b6008919392049101913861471c565b6010919392049101913861470d565b602091939204910191386146fb565b6040935081049150386146e2565b6040519061480a826101b7565b604082527f6768696a6b6c6d6e6f707172737475767778797a303132333435363738392b2f6040837f4142434445464748494a4b4c4d4e4f505152535455565758595a61626364656660208201520152565b906002820180921161156257565b906020820180921161156257565b906001820180921161156257565b9190820180921161156257565b805115612b14576148a26147fd565b6148be6148b96148b2845161485c565b6003900490565b6121cb565b916148d06148cb8461486a565b614687565b92835280815182019060208501935b8282106149215750505060039051068060011461491057600214614901575090565b603d60f81b6000199091015290565b50613d3d60f01b6001199091015290565b9091936004906003809401938451600190603f9082828260121c16880101518553828282600c1c16880101518386015382828260061c16880101516002860153168501015190820153019391906148df565b61497c90615858565b9261498b969596929192612eed565b9460405197889760208901703c7374796c653e2e62317b66696c6c3a2360781b90528051908160318b0191602001916149c3926103af565b8801603181016b3b7d2e62327b66696c6c3a2360a01b905281519182603d830191602001916149f1926103af565b01603d81016b3b7d2e62337b66696c6c3a2360a01b905281519182604983019160200191614a1e926103af565b0160498101614a3b906b3b7d2e62347b66696c6c3a2360a01b9052565b605501614a47916115b2565b6b3b7d2e61317b66696c6c3a2360a01b8152600c01614a65916115b2565b6b3b7d2e61327b66696c6c3a2360a01b8152600c01614a83916115b2565b6b3b7d2e61337b66696c6c3a2360a01b8152600c01614aa1916115b2565b691dbe9e17b9ba3cb6329f60b11b8152600a01614abd916115b2565b03601f19810182526104089082610225565b60405190614adc826101d2565b61019c82527f6820643d224d3139332031373068347633682d347a222f3e3c2f673e000000006101a0837f3c6720636c6173733d226f223e3c7061746820643d224d31393020313733682d60208201527f3337762d33682d3130762d34682d36763468337633682d33763468367633683160408201527f307634683337762d346833762d33682d33762d347a6d2d34302034682d33762d60608201527f34683376347a6d372033762d3368337633682d337a6d362030762d336834763360808201527f682d347a6d372030762d3368337633682d337a6d372030762d3368337633682d60a08201527f337a6d31302030682d34762d33683476337a222f3e3c7061746820643d224d3160c08201527f39302031373068337633682d337a222f3e3c7061746820643d224d313933203160e08201527f363668347634682d347a6d30203768347634682d347a222f3e3c2f673e3c67206101008201527f636c6173733d2277223e3c7061746820643d224d3133372031373068337633686101208201527f2d337a6d3130203368337634682d337a6d3130203468337633682d337a6d36206101408201527f3068347633682d347a6d37203068337633682d337a6d37203068337633682d336101608201527f7a6d36203068347633682d347a6d372d3468337634682d337a222f3e3c7061746101808201520152565b6040519061010082018281106001600160401b038211176101965760405260dd82527f746820643d224d3138302031343768337633682d337a222f3e3c2f673e00000060e0837f3c6720636c6173733d226f223e3c7061746820643d224d31373720313430763360208201527f6836763131683130762d31316834762d33682d32307a222f3e3c70617468206460408201527f3d224d31353320313430763368377638203368372033762d31316833762d336860608201527f2d32307a222f3e3c2f673e3c6720636c6173733d2277223e3c7061746820643d60808201527f224d3135332031343368377634682d377a222f3e3c7061746820643d224d313560a08201527f372031343768337633682d337a6d32302d3468367634682d367a222f3e3c706160c08201520152565b60405190614e12826101ee565b61023a82527f643d224d3139302031333768347633682d347a222f3e3c2f673e000000000000610240837f3c6720636c6173733d226f223e3c7061746820643d224d31393020313237683360208201527f7633682d337a6d3320313368347633682d347a6d2d3432203068367636682d3660408201527f7a222f3e3c7061746820643d224d3135312031333368337637682d337a6d313060608201527f203068367634682d367a222f3e3c7061746820643d224d31353720313337683160808201527f377636682d31377a6d332031336831347633682d31347a6d31372d313368377660a08201527f3136682d377a222f3e3c7061746820643d224d3138342031333768367636682d60c08201527f367a6d302031306831307636682d31307a222f3e3c7061746820643d224d313860e08201527f37203134336831307634682d31307a222f3e3c7061746820643d224d313930206101008201527f31343068337633682d337a6d2d362d313068337637682d337a222f3e3c7061746101208201527f6820643d224d3138372031333068367633682d367a6d2d3336203068313076336101408201527f682d31307a6d313620313368377637682d377a6d2d3130203068377637682d376101608201527f7a222f3e3c7061746820643d224d3136342031343768337633682d337a6d32396101808201527f2d323068347636682d347a222f3e3c7061746820643d224d31393420313333686101a08201527f337637682d337a222f3e3c2f673e3c6720636c6173733d2277223e3c706174686101c08201527f20643d224d3135342031333368377634682d377a222f3e3c7061746820643d226101e08201527f4d3135342031333768337633682d337a6d3130203668337634682d337a6d32306102008201527f203068337634682d337a6d332d313068377634682d377a222f3e3c70617468206102208201520152565b6040519060c082018281106001600160401b038211176101965760405260818252601f60f91b60a0837f3c6720636c6173733d226f223e3c7061746820643d224d31383320313630762d60208201527f34682d32307634682d33763368337634683234762d37682d347a6d2d3133203360408201527f762d336831307633682d31307a222066696c6c3d2223616437316338222f3e3c60608201527f7061746820643d224d313730203136306831307633682d31307a222f3e3c2f6760808201520152565b9092916060938151916000928391849085869160039460038110600014615421576151bf81614878565b985b8981106151d5575050505050505050505050565b81811015615415576151e78184611529565b516040805163507f146560e01b8152919791602060048f6001600160a01b03838584818585165afa928315610cbc57615262966000968f9688966153f6575b50505163c44a8e6d60e01b81526001600160a01b0390931690830190815260208101949094526000604085015290948593849291839160600190565b0392165afa8015610cbc57610100916000916153dd575b500151985b8989036153ae57506001985b60058181036152c1575050506001955b806152a9575b506001016151c1565b6001919d612a756152ba928e612df2565b9c906152a0565b8198929811806153a6575b6152d7575b5061529a565b90959094600680870361535a5750506001945b60079080820361532b575050506001945b8480615324575b8061531c575b615313575b386152d1565b6001965061530d565b508615615308565b5085615302565b9691961180615352575b156152fb5794509b61534990612a756150d0565b9b6001946152fb565b508515615335565b869196118061539e575b156152ea57945060019d8e8b1460001461538c5761538490612a75614e05565b9d5b946152ea565b61539890612a75614cd7565b9d615386565b508515615364565b5087156152cc565b98888111806153d5575b1561528a5798509c6153cc90612a75614acf565b9c60019861528a565b5089156153b8565b6153f0913d8091833e610cae8183610225565b38615279565b61540d929650803d10610ceb57610cdc8183610225565b933880615226565b6008979560009661527e565b80986151c1565b604051906105e082018281106001600160401b0382111761019657604052602e82526105c0366020840137565b9061545f8261056e565b61546c6040519182610225565b82815280926146af601f199161056e565b908151811015611517570160200190565b908151156155b55761549e615428565b9160009060006154ad8561151c565b526001918151916000925b8084106154de57505050506154d46154d9916104089394615984565b6159c7565b615a0e565b9091929461550f6155096155036154f5898761547d565b516001600160f81b03191690565b60f81c90565b60ff1690565b9184925b60ff9089828916861015615574576001929161554861554261550961553b8a61554e96611529565b5160ff1690565b60081b90565b90614886565b61556b8b61556388603a958686061692611529565b9060ff169052565b04930192615513565b50919594935050809691965b61558e5750600101926154b8565b9460ff6001603a926155ab83858b06166155638d86851690611529565b0116950480615580565b905061040861466f565b337f000000000000000000000000b2b5841dbef766d4b521221732f9b618fcf34a876001600160a01b0316148061560d575b15615609576013193601368111611562573560601c90565b3390565b5060143610156155f1565b604051906156258261020a565b600682526506666653930360d41b6020830152565b604051906156478261020a565b600682526506666633730360d41b6020830152565b604051906156698261020a565b600682526566336136303360d01b6020830152565b6040519061568b8261020a565b600682526539363561316160d01b6020830152565b604051906156ad8261020a565b600682526533331bb1981960d11b6020830152565b604051906156cf8261020a565b600682526506664333630360d41b6020830152565b604051906156f18261020a565b600682526518cccc994c1960d21b6020830152565b604051906157138261020a565b600682526566666438633560d01b6020830152565b604051906157358261020a565b600682526566663936613960d01b6020830152565b604051906157578261020a565b600682526533329a9c1c3160d11b6020830152565b604051906157798261020a565b600682526563393266343560d01b6020830152565b6040519061579b8261020a565b600682526536376437353760d01b6020830152565b604051906157bd8261020a565b600682526503330613232360d41b6020830152565b604051906157df8261020a565b600682526532313761313560d01b6020830152565b604051906158018261020a565b60048252636e6f6e6560e01b6020830152565b604051906158218261020a565b6006825265329a1c19b2b360d11b6020830152565b604051906158438261020a565b60068252653231993332b360d11b6020830152565b6001810361589f575061586961578e565b906158726157b0565b9061587b6157d2565b906158846157f4565b9061588d615814565b90615896615836565b90610408615836565b600281036158e657506158b0615706565b906158b9615728565b906158c261574a565b906158cb61576c565b906158d4615706565b906158dd615728565b9061040861574a565b6003810361592d57506158f761565c565b906159006156a0565b906159096156c2565b906159126156e4565b9061591b61565c565b906159246156a0565b906104086156c2565b60041461594657604051630992899d60e31b8152600490fd5b61594e615618565b9061595761563a565b9061596061565c565b9061596961567e565b90615972615618565b9061597b61563a565b9061040861565c565b9060ff8091169061599482615455565b9260005b8381106159a6575050505090565b80836159b460019385611529565b51166159c08288611529565b5201615998565b9081516159d381615455565b9060005b8181106159e5575090925050565b60019060ff6159fb600019838951030188611529565b5116615a078286611529565b52016159d7565b8051615a198161078d565b91604090615a2a6040519485610225565b828452615a368361078d565b602090601f1901368683013760009260005b858110615a585750505050505090565b6001908251615a66816101b7565b603a81527f31323334353637383941424344454647484a4b4c4d4e50515253545556575859858201527f5a6162636465666768696a6b6d6e6f707172737475767778797a000000000000848201526001600160f81b031990615ad69060ff615ace858a611529565b51169061547d565b5116861a615ae4828a61547d565b5301615a4856fea2646970667358221220a3d4ab8eee4f1e99eb9704b2acfd438a0c4965d701e40c2c02ad50623c4a90a864736f6c63430008170033",
			"devdoc": {
				"kind": "dev",
				"methods": {
					"assetIdsOf(uint256)": {
						"params": {
							"nakedBannyId": "The ID of the naked banny shows with the associated assets."
						},
						"returns": {
							"outfitIds": "The outfits attached to the Naked Banny.",
							"worldId": "The world attached to the Naked Banny."
						}
					},
					"bannySvgOf(address,uint256,bool,bool)": {
						"params": {
							"hook": "The hook storing the assets.",
							"tokenId": "The ID of the token to show. If the ID belongs to a Naked Banny, it will be shown with its current outfits in its current world."
						},
						"returns": {
							"_0": "bannySvg The SVG."
						}
					},
					"constructor": {
						"params": {
							"owner": "The owner allowed to add SVG files that correspond to tier IDs.",
							"trustedForwarder": "The trusted forwarder for the ERC2771Context."
						}
					},
					"decorateBannyWith(address,uint256,uint256,uint256[])": {
						"details": "The caller must own the naked banny being dressed and all outfits being worn.",
						"params": {
							"hook": "The hook storing the assets.",
							"nakedBannyId": "The ID of the Naked Banny being dressed.",
							"outfitIds": "The IDs of the outfits that'll be associated with the specified banny. Only one outfit per outfit category allowed at a time and they must be passed in order.",
							"worldId": "The ID of the world that'll be associated with the specified banny."
						}
					},
					"isTrustedForwarder(address)": {
						"details": "Indicates whether any particular address is the trusted forwarder."
					},
					"owner()": {
						"details": "Returns the address of the current owner."
					},
					"renounceOwnership()": {
						"details": "Leaves the contract without owner. It will not be possible to call `onlyOwner` functions. Can only be called by the current owner. NOTE: Renouncing ownership will leave the contract without an owner, thereby disabling any functionality that is only available to the owner."
					},
					"setSvgContentsOf(uint256[],string[])": {
						"params": {
							"svgContents": "The svg contents being stored, not including the parent <svg></svg> element.",
							"tierIds": "The IDs of the tiers having SVGs stored."
						}
					},
					"setSvgHashsOf(uint256[],bytes32[])": {
						"details": "This allows anyone to lazily upload the correct svg file.",
						"params": {
							"svgHashs": "The svg hashes being stored, not including the parent <svg></svg> element.",
							"tierIds": "The IDs of the tiers having SVG hashes stored."
						}
					},
					"setTierNames(uint256[],string[])": {
						"params": {
							"names": "The names of the tiers.",
							"tierIds": "The IDs of the tiers having their name stored."
						}
					},
					"tokenUriOf(address,uint256)": {
						"params": {
							"tokenId": "The ID of the token to show. If the ID belongs to a Naked Banny, it will be shown with its current outfits in its current world."
						},
						"returns": {
							"_0": "tokenUri The URI representing the SVG."
						}
					},
					"transferOwnership(address)": {
						"details": "Transfers ownership of the contract to a new account (`newOwner`). Can only be called by the current owner."
					},
					"trustedForwarder()": {
						"details": "Returns the address of the trusted forwarder."
					}
				},
				"version": 1
			},
			"userdoc": {
				"kind": "user",
				"methods": {
					"_nameOf(uint256,uint256,uint256)": {
						"notice": "The name of each tier."
					},
					"assetIdsOf(uint256)": {
						"notice": "The assets currently attached to each Naked Banny, owned by the naked Banny's owner."
					},
					"bannySvgOf(address,uint256,bool,bool)": {
						"notice": "Returns the SVG showing a dressed Naked Banny."
					},
					"decorateBannyWith(address,uint256,uint256,uint256[])": {
						"notice": "Dress your Naked Banny with outfits."
					},
					"setSvgBaseUri(string)": {
						"notice": "Allows the owner of this contract to specify the base of the domain hosting the SVG files."
					},
					"setSvgContentsOf(uint256[],string[])": {
						"notice": "The owner of this contract can store SVG files for tier IDs."
					},
					"setSvgHashsOf(uint256[],bytes32[])": {
						"notice": "Allows the owner of this contract to upload the hash of an svg file for a tierId."
					},
					"setTierNames(uint256[],string[])": {
						"notice": "Allows the owner to set the tier's name."
					},
					"svgBaseUri()": {
						"notice": "The base of the domain hosting the SVG files that can be lazily uploaded to the contract."
					},
					"svgHashOf(uint256)": {
						"notice": "The Naked Banny and outfit SVG hash files."
					},
					"tokenUriOf(address,uint256)": {
						"notice": "Returns the SVG showing a dressed Naked Banny in a world."
					}
				},
				"version": 1
			},
			"gitCommit": "b885ab4bf500ac176e5abdc72457a684d30841ce",
			"sourceName": "src/Banny721TokenUriResolver.sol",
			"chainId": "11155111",
			"linkReferences": {},
			"deployedLinkReferences": {}
		},
		{
			"_format": "sphinx-sol-ct-artifact-1",
			"merkleRoot": "0x0aaf738686898dbbe3a4503e2e154ed13623f17825170f5fcf6e166bdd76326d",
			"contractName": "Banny721TokenUriResolver",
			"address": "0x81D9B8F2598Fa8d0Bb0C708150433BfdF05bb89a",
			"abi": [
				{
					"type": "constructor",
					"inputs": [
						{
							"name": "owner",
							"type": "address",
							"internalType": "address"
						},
						{
							"name": "trustedForwarder",
							"type": "address",
							"internalType": "address"
						}
					],
					"stateMutability": "nonpayable"
				},
				{
					"type": "function",
					"name": "_nameOf",
					"inputs": [
						{
							"name": "tokenId",
							"type": "uint256",
							"internalType": "uint256"
						},
						{
							"name": "tierId",
							"type": "uint256",
							"internalType": "uint256"
						},
						{
							"name": "category",
							"type": "uint256",
							"internalType": "uint256"
						}
					],
					"outputs": [
						{
							"name": "",
							"type": "string",
							"internalType": "string"
						}
					],
					"stateMutability": "view"
				},
				{
					"type": "function",
					"name": "assetIdsOf",
					"inputs": [
						{
							"name": "nakedBannyId",
							"type": "uint256",
							"internalType": "uint256"
						}
					],
					"outputs": [
						{
							"name": "worldId",
							"type": "uint256",
							"internalType": "uint256"
						},
						{
							"name": "outfitIds",
							"type": "uint256[]",
							"internalType": "uint256[]"
						}
					],
					"stateMutability": "view"
				},
				{
					"type": "function",
					"name": "bannySvgOf",
					"inputs": [
						{
							"name": "hook",
							"type": "address",
							"internalType": "address"
						},
						{
							"name": "tokenId",
							"type": "uint256",
							"internalType": "uint256"
						},
						{
							"name": "shouldBeDressed",
							"type": "bool",
							"internalType": "bool"
						},
						{
							"name": "shouldIncludeWorld",
							"type": "bool",
							"internalType": "bool"
						}
					],
					"outputs": [
						{
							"name": "",
							"type": "string",
							"internalType": "string"
						}
					],
					"stateMutability": "view"
				},
				{
					"type": "function",
					"name": "decorateBannyWith",
					"inputs": [
						{
							"name": "hook",
							"type": "address",
							"internalType": "address"
						},
						{
							"name": "nakedBannyId",
							"type": "uint256",
							"internalType": "uint256"
						},
						{
							"name": "worldId",
							"type": "uint256",
							"internalType": "uint256"
						},
						{
							"name": "outfitIds",
							"type": "uint256[]",
							"internalType": "uint256[]"
						}
					],
					"outputs": [],
					"stateMutability": "nonpayable"
				},
				{
					"type": "function",
					"name": "isTrustedForwarder",
					"inputs": [
						{
							"name": "forwarder",
							"type": "address",
							"internalType": "address"
						}
					],
					"outputs": [
						{
							"name": "",
							"type": "bool",
							"internalType": "bool"
						}
					],
					"stateMutability": "view"
				},
				{
					"type": "function",
					"name": "nameOf",
					"inputs": [
						{
							"name": "hook",
							"type": "address",
							"internalType": "address"
						},
						{
							"name": "tokenId",
							"type": "uint256",
							"internalType": "uint256"
						}
					],
					"outputs": [
						{
							"name": "",
							"type": "string",
							"internalType": "string"
						}
					],
					"stateMutability": "view"
				},
				{
					"type": "function",
					"name": "owner",
					"inputs": [],
					"outputs": [
						{
							"name": "",
							"type": "address",
							"internalType": "address"
						}
					],
					"stateMutability": "view"
				},
				{
					"type": "function",
					"name": "renounceOwnership",
					"inputs": [],
					"outputs": [],
					"stateMutability": "nonpayable"
				},
				{
					"type": "function",
					"name": "setSvgBaseUri",
					"inputs": [
						{
							"name": "baseUri",
							"type": "string",
							"internalType": "string"
						}
					],
					"outputs": [],
					"stateMutability": "nonpayable"
				},
				{
					"type": "function",
					"name": "setSvgContentsOf",
					"inputs": [
						{
							"name": "tierIds",
							"type": "uint256[]",
							"internalType": "uint256[]"
						},
						{
							"name": "svgContents",
							"type": "string[]",
							"internalType": "string[]"
						}
					],
					"outputs": [],
					"stateMutability": "nonpayable"
				},
				{
					"type": "function",
					"name": "setSvgHashsOf",
					"inputs": [
						{
							"name": "tierIds",
							"type": "uint256[]",
							"internalType": "uint256[]"
						},
						{
							"name": "svgHashs",
							"type": "bytes32[]",
							"internalType": "bytes32[]"
						}
					],
					"outputs": [],
					"stateMutability": "nonpayable"
				},
				{
					"type": "function",
					"name": "setTierNames",
					"inputs": [
						{
							"name": "tierIds",
							"type": "uint256[]",
							"internalType": "uint256[]"
						},
						{
							"name": "names",
							"type": "string[]",
							"internalType": "string[]"
						}
					],
					"outputs": [],
					"stateMutability": "nonpayable"
				},
				{
					"type": "function",
					"name": "svgBaseUri",
					"inputs": [],
					"outputs": [
						{
							"name": "",
							"type": "string",
							"internalType": "string"
						}
					],
					"stateMutability": "view"
				},
				{
					"type": "function",
					"name": "svgHashOf",
					"inputs": [
						{
							"name": "tierId",
							"type": "uint256",
							"internalType": "uint256"
						}
					],
					"outputs": [
						{
							"name": "",
							"type": "bytes32",
							"internalType": "bytes32"
						}
					],
					"stateMutability": "view"
				},
				{
					"type": "function",
					"name": "tokenUriOf",
					"inputs": [
						{
							"name": "hook",
							"type": "address",
							"internalType": "address"
						},
						{
							"name": "tokenId",
							"type": "uint256",
							"internalType": "uint256"
						}
					],
					"outputs": [
						{
							"name": "",
							"type": "string",
							"internalType": "string"
						}
					],
					"stateMutability": "view"
				},
				{
					"type": "function",
					"name": "transferOwnership",
					"inputs": [
						{
							"name": "newOwner",
							"type": "address",
							"internalType": "address"
						}
					],
					"outputs": [],
					"stateMutability": "nonpayable"
				},
				{
					"type": "function",
					"name": "trustedForwarder",
					"inputs": [],
					"outputs": [
						{
							"name": "",
							"type": "address",
							"internalType": "address"
						}
					],
					"stateMutability": "view"
				},
				{
					"type": "event",
					"name": "DecorateBanny",
					"inputs": [
						{
							"name": "hook",
							"type": "address",
							"indexed": true,
							"internalType": "address"
						},
						{
							"name": "nakenBannyId",
							"type": "uint256",
							"indexed": true,
							"internalType": "uint256"
						},
						{
							"name": "worldId",
							"type": "uint256",
							"indexed": false,
							"internalType": "uint256"
						},
						{
							"name": "outfitIds",
							"type": "uint256[]",
							"indexed": false,
							"internalType": "uint256[]"
						},
						{
							"name": "caller",
							"type": "address",
							"indexed": false,
							"internalType": "address"
						}
					],
					"anonymous": false
				},
				{
					"type": "event",
					"name": "OwnershipTransferred",
					"inputs": [
						{
							"name": "previousOwner",
							"type": "address",
							"indexed": true,
							"internalType": "address"
						},
						{
							"name": "newOwner",
							"type": "address",
							"indexed": true,
							"internalType": "address"
						}
					],
					"anonymous": false
				},
				{
					"type": "event",
					"name": "SetSvgBaseUri",
					"inputs": [
						{
							"name": "baseUri",
							"type": "string",
							"indexed": false,
							"internalType": "string"
						},
						{
							"name": "caller",
							"type": "address",
							"indexed": false,
							"internalType": "address"
						}
					],
					"anonymous": false
				},
				{
					"type": "event",
					"name": "SetSvgContents",
					"inputs": [
						{
							"name": "tierId",
							"type": "uint256[]",
							"indexed": true,
							"internalType": "uint256[]"
						},
						{
							"name": "svgContents",
							"type": "string[]",
							"indexed": false,
							"internalType": "string[]"
						},
						{
							"name": "caller",
							"type": "address",
							"indexed": false,
							"internalType": "address"
						}
					],
					"anonymous": false
				},
				{
					"type": "event",
					"name": "SetSvgHashes",
					"inputs": [
						{
							"name": "tierIds",
							"type": "uint256[]",
							"indexed": true,
							"internalType": "uint256[]"
						},
						{
							"name": "svgHashs",
							"type": "bytes32[]",
							"indexed": true,
							"internalType": "bytes32[]"
						},
						{
							"name": "caller",
							"type": "address",
							"indexed": false,
							"internalType": "address"
						}
					],
					"anonymous": false
				},
				{
					"type": "event",
					"name": "SetTierNames",
					"inputs": [
						{
							"name": "tierIds",
							"type": "uint256[]",
							"indexed": true,
							"internalType": "uint256[]"
						},
						{
							"name": "names",
							"type": "string[]",
							"indexed": false,
							"internalType": "string[]"
						},
						{
							"name": "caller",
							"type": "address",
							"indexed": false,
							"internalType": "address"
						}
					],
					"anonymous": false
				},
				{
					"type": "error",
					"name": "CONTENTS_ALREADY_STORED",
					"inputs": []
				},
				{
					"type": "error",
					"name": "CONTENTS_MISMATCH",
					"inputs": []
				},
				{
					"type": "error",
					"name": "FACE_ALREADY_ADDED",
					"inputs": []
				},
				{
					"type": "error",
					"name": "HASH_ALREADY_STORED",
					"inputs": []
				},
				{
					"type": "error",
					"name": "HASH_NOT_FOUND",
					"inputs": []
				},
				{
					"type": "error",
					"name": "HEAD_ALREADY_ADDED",
					"inputs": []
				},
				{
					"type": "error",
					"name": "ONESIE_ALREADY_ADDED",
					"inputs": []
				},
				{
					"type": "error",
					"name": "OwnableInvalidOwner",
					"inputs": [
						{
							"name": "owner",
							"type": "address",
							"internalType": "address"
						}
					]
				},
				{
					"type": "error",
					"name": "OwnableUnauthorizedAccount",
					"inputs": [
						{
							"name": "account",
							"type": "address",
							"internalType": "address"
						}
					]
				},
				{
					"type": "error",
					"name": "SUIT_ALREADY_ADDED",
					"inputs": []
				},
				{
					"type": "error",
					"name": "UNAUTHORIZED_OUTFIT",
					"inputs": []
				},
				{
					"type": "error",
					"name": "UNAUTHORIZED_WORLD",
					"inputs": []
				},
				{
					"type": "error",
					"name": "UNAUTHORIZED__NAKED_BANNY",
					"inputs": []
				},
				{
					"type": "error",
					"name": "UNORDERED_CATEGORIES",
					"inputs": []
				},
				{
					"type": "error",
					"name": "UNRECOGNIZED_CATEGORY",
					"inputs": []
				},
				{
					"type": "error",
					"name": "UNRECOGNIZED_OUTFIT",
					"inputs": []
				},
				{
					"type": "error",
					"name": "UNRECOGNIZED_TIER",
					"inputs": []
				},
				{
					"type": "error",
					"name": "UNRECOGNIZED_WORLD",
					"inputs": []
				}
			],
			"solcInputHash": "34cc6a561a78e5263382cb878d41a1e4",
			"receipt": {
				"blockHash": "0x77ad0cb5a2c273a8944e563f61ea2b80ac791f565d5009320934bb17be6a35d1",
				"blockNumber": 5630085,
				"contractAddress": null,
				"cumulativeGasUsed": "19941123",
				"from": "0xC034550B542b83BA1De312b21d1C94a9a52B1595",
				"gasPrice": "1000000014",
				"gasUsed": "11820868",
				"hash": "0xf28d7fc512d39b8f284e7998d8c21aaae52ced6641234dae7a4b6da2fa515e7b",
				"index": 53,
				"logs": [
					{
						"address": "0xB5E96127D417b1B3ef8438496a38A143167209c7",
						"blockHash": "0x77ad0cb5a2c273a8944e563f61ea2b80ac791f565d5009320934bb17be6a35d1",
						"blockNumber": 5630085,
						"data": "0x0000000000000000000000000000000000000000000000000000000000000000",
						"index": 66,
						"topics": [
							"0x572f161235911da04685a68c06adf558fc7e4a36909dca394650e0adc19cc93d",
							"0x000000000000000000000000c034550b542b83ba1de312b21d1c94a9a52b1595",
							"0x000000000000000000000000183b35e76a7bc60298dcb637515f50e4def9b68b",
							"0xd29ba4e47cd15c8d45dcdacb5555ecdb0fc42720ddad62567a867af6bc96c42a"
						],
						"transactionHash": "0xf28d7fc512d39b8f284e7998d8c21aaae52ced6641234dae7a4b6da2fa515e7b",
						"transactionIndex": 53
					},
					{
						"address": "0x81D9B8F2598Fa8d0Bb0C708150433BfdF05bb89a",
						"blockHash": "0x77ad0cb5a2c273a8944e563f61ea2b80ac791f565d5009320934bb17be6a35d1",
						"blockNumber": 5630085,
						"data": "0x",
						"index": 67,
						"topics": [
							"0x8be0079c531659141344cd1fd0a4f28419497f9722a3daafe3b4186f6b6457e0",
							"0x0000000000000000000000000000000000000000000000000000000000000000",
							"0x000000000000000000000000584f5da53cb18789099466074e3b5c32ed17243a"
						],
						"transactionHash": "0xf28d7fc512d39b8f284e7998d8c21aaae52ced6641234dae7a4b6da2fa515e7b",
						"transactionIndex": 53
					},
					{
						"address": "0x584F5Da53cb18789099466074e3B5c32Ed17243a",
						"blockHash": "0x77ad0cb5a2c273a8944e563f61ea2b80ac791f565d5009320934bb17be6a35d1",
						"blockNumber": 5630085,
						"data": "0x",
						"index": 68,
						"topics": [
							"0x6895c13664aa4f67288b25d7a21d7aaa34916e355fb9b6fae0a139a9085becb8",
							"0x000000000000000000000000183b35e76a7bc60298dcb637515f50e4def9b68b"
						],
						"transactionHash": "0xf28d7fc512d39b8f284e7998d8c21aaae52ced6641234dae7a4b6da2fa515e7b",
						"transactionIndex": 53
					},
					{
						"address": "0x183b35E76A7BC60298DCb637515F50e4DeF9b68b",
						"blockHash": "0x77ad0cb5a2c273a8944e563f61ea2b80ac791f565d5009320934bb17be6a35d1",
						"blockNumber": 5630085,
						"data": "0x0000000000000000000000000000000000000000000000000000000000000001",
						"index": 69,
						"topics": [
							"0xa65fb05c5808f5f389d72edeaf719ce38f4cc55c1f69ca3cbfb31c21501caa07",
							"0x0aaf738686898dbbe3a4503e2e154ed13623f17825170f5fcf6e166bdd76326d"
						],
						"transactionHash": "0xf28d7fc512d39b8f284e7998d8c21aaae52ced6641234dae7a4b6da2fa515e7b",
						"transactionIndex": 53
					},
					{
						"address": "0xE9a6F248F9f8854E9f161c84c34F2589Ec362BE9",
						"blockHash": "0x77ad0cb5a2c273a8944e563f61ea2b80ac791f565d5009320934bb17be6a35d1",
						"blockNumber": 5630085,
						"data": "0x",
						"index": 70,
						"topics": [
							"0xddf252ad1be2c89b69c2b068fc378daa952ba7f163c4a11628f55a4df523b3ef",
							"0x0000000000000000000000000000000000000000000000000000000000000000",
							"0x000000000000000000000000584f5da53cb18789099466074e3b5c32ed17243a",
							"0x0000000000000000000000000000000000000000000000000000000000000003"
						],
						"transactionHash": "0xf28d7fc512d39b8f284e7998d8c21aaae52ced6641234dae7a4b6da2fa515e7b",
						"transactionIndex": 53
					},
					{
						"address": "0xE9a6F248F9f8854E9f161c84c34F2589Ec362BE9",
						"blockHash": "0x77ad0cb5a2c273a8944e563f61ea2b80ac791f565d5009320934bb17be6a35d1",
						"blockNumber": 5630085,
						"data": "0x000000000000000000000000584f5da53cb18789099466074e3b5c32ed17243a",
						"index": 71,
						"topics": [
							"0x365b3162cd780731fc55a794b59494d472bc2af701007f581843a70673814698",
							"0x0000000000000000000000000000000000000000000000000000000000000003",
							"0x000000000000000000000000584f5da53cb18789099466074e3b5c32ed17243a"
						],
						"transactionHash": "0xf28d7fc512d39b8f284e7998d8c21aaae52ced6641234dae7a4b6da2fa515e7b",
						"transactionIndex": 53
					},
					{
						"address": "0x584F5Da53cb18789099466074e3B5c32Ed17243a",
						"blockHash": "0x77ad0cb5a2c273a8944e563f61ea2b80ac791f565d5009320934bb17be6a35d1",
						"blockNumber": 5630085,
						"data": "0x",
						"index": 72,
						"topics": [
							"0x6895c13664aa4f67288b25d7a21d7aaa34916e355fb9b6fae0a139a9085becb8",
							"0x000000000000000000000000183b35e76a7bc60298dcb637515f50e4def9b68b"
						],
						"transactionHash": "0xf28d7fc512d39b8f284e7998d8c21aaae52ced6641234dae7a4b6da2fa515e7b",
						"transactionIndex": 53
					},
					{
						"address": "0x183b35E76A7BC60298DCb637515F50e4DeF9b68b",
						"blockHash": "0x77ad0cb5a2c273a8944e563f61ea2b80ac791f565d5009320934bb17be6a35d1",
						"blockNumber": 5630085,
						"data": "0x0000000000000000000000000000000000000000000000000000000000000002",
						"index": 73,
						"topics": [
							"0xa65fb05c5808f5f389d72edeaf719ce38f4cc55c1f69ca3cbfb31c21501caa07",
							"0x0aaf738686898dbbe3a4503e2e154ed13623f17825170f5fcf6e166bdd76326d"
						],
						"transactionHash": "0xf28d7fc512d39b8f284e7998d8c21aaae52ced6641234dae7a4b6da2fa515e7b",
						"transactionIndex": 53
					},
					{
						"address": "0x953AB7f10EfE861B21CfB9630768818A04742587",
						"blockHash": "0x77ad0cb5a2c273a8944e563f61ea2b80ac791f565d5009320934bb17be6a35d1",
						"blockNumber": 5630085,
						"data": "0x00000000000000000000000000000000000000000000000000000000000000600000000000000000000000000000000000000000000000000000000032020084000000000000000000000000584f5da53cb18789099466074e3b5c32ed17243a00000000000000000000000000000000000000000000000000000000000000060000000000000000000000000000000000000000000000000000000000000002000000000000000000000000000000000000000000000000000000000000000700000000000000000000000000000000000000000000000000000000000000190000000000000000000000000000000000000000000000000000000000000011000000000000000000000000000000000000000000000000000000000000001c000000000000000000000000000000000000000000000000000000000000001d",
						"index": 74,
						"topics": [
							"0xf8cdf10a0ce6189c6d069e97320ef146e2bcbd32d6c0b86dcbfbf3bd8578fa70",
							"0x0000000000000000000000002a60814151521819d56d8a756f5c9625b16e9773",
							"0x000000000000000000000000584f5da53cb18789099466074e3b5c32ed17243a",
							"0x0000000000000000000000000000000000000000000000000000000000000003"
						],
						"transactionHash": "0xf28d7fc512d39b8f284e7998d8c21aaae52ced6641234dae7a4b6da2fa515e7b",
						"transactionIndex": 53
					},
					{
						"address": "0x584F5Da53cb18789099466074e3B5c32Ed17243a",
						"blockHash": "0x77ad0cb5a2c273a8944e563f61ea2b80ac791f565d5009320934bb17be6a35d1",
						"blockNumber": 5630085,
						"data": "0x",
						"index": 75,
						"topics": [
							"0x6895c13664aa4f67288b25d7a21d7aaa34916e355fb9b6fae0a139a9085becb8",
							"0x000000000000000000000000183b35e76a7bc60298dcb637515f50e4def9b68b"
						],
						"transactionHash": "0xf28d7fc512d39b8f284e7998d8c21aaae52ced6641234dae7a4b6da2fa515e7b",
						"transactionIndex": 53
					},
					{
						"address": "0x183b35E76A7BC60298DCb637515F50e4DeF9b68b",
						"blockHash": "0x77ad0cb5a2c273a8944e563f61ea2b80ac791f565d5009320934bb17be6a35d1",
						"blockNumber": 5630085,
						"data": "0x0000000000000000000000000000000000000000000000000000000000000003",
						"index": 76,
						"topics": [
							"0xa65fb05c5808f5f389d72edeaf719ce38f4cc55c1f69ca3cbfb31c21501caa07",
							"0x0aaf738686898dbbe3a4503e2e154ed13623f17825170f5fcf6e166bdd76326d"
						],
						"transactionHash": "0xf28d7fc512d39b8f284e7998d8c21aaae52ced6641234dae7a4b6da2fa515e7b",
						"transactionIndex": 53
					},
					{
						"address": "0x953AB7f10EfE861B21CfB9630768818A04742587",
						"blockHash": "0x77ad0cb5a2c273a8944e563f61ea2b80ac791f565d5009320934bb17be6a35d1",
						"blockNumber": 5630085,
						"data": "0x00000000000000000000000000000000000000000000000000000000000000600000000000000000000000000000000000000000000000000000000010000000000000000000000000000000584f5da53cb18789099466074e3b5c32ed17243a0000000000000000000000000000000000000000000000000000000000000001000000000000000000000000000000000000000000000000000000000000001c",
						"index": 77,
						"topics": [
							"0xf8cdf10a0ce6189c6d069e97320ef146e2bcbd32d6c0b86dcbfbf3bd8578fa70",
							"0x0000000000000000000000000279b704b409a70e23d6ab27544badb568aa4930",
							"0x000000000000000000000000584f5da53cb18789099466074e3b5c32ed17243a",
							"0x0000000000000000000000000000000000000000000000000000000000000003"
						],
						"transactionHash": "0xf28d7fc512d39b8f284e7998d8c21aaae52ced6641234dae7a4b6da2fa515e7b",
						"transactionIndex": 53
					},
					{
						"address": "0x584F5Da53cb18789099466074e3B5c32Ed17243a",
						"blockHash": "0x77ad0cb5a2c273a8944e563f61ea2b80ac791f565d5009320934bb17be6a35d1",
						"blockNumber": 5630085,
						"data": "0x",
						"index": 78,
						"topics": [
							"0x6895c13664aa4f67288b25d7a21d7aaa34916e355fb9b6fae0a139a9085becb8",
							"0x000000000000000000000000183b35e76a7bc60298dcb637515f50e4def9b68b"
						],
						"transactionHash": "0xf28d7fc512d39b8f284e7998d8c21aaae52ced6641234dae7a4b6da2fa515e7b",
						"transactionIndex": 53
					},
					{
						"address": "0x183b35E76A7BC60298DCb637515F50e4DeF9b68b",
						"blockHash": "0x77ad0cb5a2c273a8944e563f61ea2b80ac791f565d5009320934bb17be6a35d1",
						"blockNumber": 5630085,
						"data": "0x0000000000000000000000000000000000000000000000000000000000000004",
						"index": 79,
						"topics": [
							"0xa65fb05c5808f5f389d72edeaf719ce38f4cc55c1f69ca3cbfb31c21501caa07",
							"0x0aaf738686898dbbe3a4503e2e154ed13623f17825170f5fcf6e166bdd76326d"
						],
						"transactionHash": "0xf28d7fc512d39b8f284e7998d8c21aaae52ced6641234dae7a4b6da2fa515e7b",
						"transactionIndex": 53
					},
					{
						"address": "0x6bb5bD60e90EbD809ebeCc451630B3F7B422c47b",
						"blockHash": "0x77ad0cb5a2c273a8944e563f61ea2b80ac791f565d5009320934bb17be6a35d1",
						"blockNumber": 5630085,
						"data": "0x",
						"index": 80,
						"topics": [
							"0x8be0079c531659141344cd1fd0a4f28419497f9722a3daafe3b4186f6b6457e0",
							"0x0000000000000000000000000000000000000000000000000000000000000000",
							"0x0000000000000000000000005400f3a86278f0322f0e2ffb4570451bacd4ff34"
						],
						"transactionHash": "0xf28d7fc512d39b8f284e7998d8c21aaae52ced6641234dae7a4b6da2fa515e7b",
						"transactionIndex": 53
					},
					{
						"address": "0x6bb5bD60e90EbD809ebeCc451630B3F7B422c47b",
						"blockHash": "0x77ad0cb5a2c273a8944e563f61ea2b80ac791f565d5009320934bb17be6a35d1",
						"blockNumber": 5630085,
						"data": "0x",
						"index": 81,
						"topics": [
							"0x8be0079c531659141344cd1fd0a4f28419497f9722a3daafe3b4186f6b6457e0",
							"0x0000000000000000000000005400f3a86278f0322f0e2ffb4570451bacd4ff34",
							"0x0000000000000000000000002a60814151521819d56d8a756f5c9625b16e9773"
						],
						"transactionHash": "0xf28d7fc512d39b8f284e7998d8c21aaae52ced6641234dae7a4b6da2fa515e7b",
						"transactionIndex": 53
					},
					{
						"address": "0x2dfD60dc47c064ba90857446c96bF3b1412500Fe",
						"blockHash": "0x77ad0cb5a2c273a8944e563f61ea2b80ac791f565d5009320934bb17be6a35d1",
						"blockNumber": 5630085,
						"data": "0x",
						"index": 82,
						"topics": [
							"0x72b627b4904fa8a0160a923aa5b142eb19f6e56dc75017884162206f8886df09",
							"0x0000000000000000000000006bb5bd60e90ebd809ebecc451630b3f7b422c47b",
							"0x0000000000000000000000005400f3a86278f0322f0e2ffb4570451bacd4ff34"
						],
						"transactionHash": "0xf28d7fc512d39b8f284e7998d8c21aaae52ced6641234dae7a4b6da2fa515e7b",
						"transactionIndex": 53
					},
					{
						"address": "0x5400f3A86278F0322F0E2FfB4570451bACd4Ff34",
						"blockHash": "0x77ad0cb5a2c273a8944e563f61ea2b80ac791f565d5009320934bb17be6a35d1",
						"blockNumber": 5630085,
						"data": "0x0000000000000000000000006bb5bd60e90ebd809ebecc451630b3f7b422c47b",
						"index": 83,
						"topics": [
							"0xa42f6bb68e81f4650a7966f109d861f6c3d2a477e608e30807f568bed1cebdb9",
							"0x0000000000000000000000000000000000000000000000000000000000000003"
						],
						"transactionHash": "0xf28d7fc512d39b8f284e7998d8c21aaae52ced6641234dae7a4b6da2fa515e7b",
						"transactionIndex": 53
					},
					{
						"address": "0x71Ff91C8A27b436f7025C053c01A3F6AAE3Fc62E",
						"blockHash": "0x77ad0cb5a2c273a8944e563f61ea2b80ac791f565d5009320934bb17be6a35d1",
						"blockNumber": 5630085,
						"data": "0x000000000000000000000000beb17ba97066906106d72fca2f05f1e307e74b76",
						"index": 84,
						"topics": [
							"0x7f9a7dcb234c909a09de2f344661ad9e5b24067adb97c908647c2edcbb121c30",
							"0x0000000000000000000000000000000000000000000000000000000000000003",
							"0x000000000000000000000000beb17ba97066906106d72fca2f05f1e307e74b76"
						],
						"transactionHash": "0xf28d7fc512d39b8f284e7998d8c21aaae52ced6641234dae7a4b6da2fa515e7b",
						"transactionIndex": 53
					},
					{
						"address": "0x76C87701D0aD2C5C3B40C36617CEba566436A69f",
						"blockHash": "0x77ad0cb5a2c273a8944e563f61ea2b80ac791f565d5009320934bb17be6a35d1",
						"blockNumber": 5630085,
						"data": "0x",
						"index": 85,
						"topics": [
							"0xfda207e5d149787155cf9596283f246f082d4744a57e37dda99146e5dcc542bb",
							"0x00000000000000000000000000000000000000000000000000000000660f1f74",
							"0x0000000000000000000000000000000000000000000000000000000000000003",
							"0x0000000000000000000000000000000000000000000000000000000000000000"
						],
						"transactionHash": "0xf28d7fc512d39b8f284e7998d8c21aaae52ced6641234dae7a4b6da2fa515e7b",
						"transactionIndex": 53
					},
					{
						"address": "0x76C87701D0aD2C5C3B40C36617CEba566436A69f",
						"blockHash": "0x77ad0cb5a2c273a8944e563f61ea2b80ac791f565d5009320934bb17be6a35d1",
						"blockNumber": 5630085,
						"data": "0x000000000000000000000000000000000000000000000000000000000001518000000000000000000000000000000000000000000000d3c21bcecceda10000000000000000000000000000000000000000000000000000000000000002faf08000000000000000000000000000000000000000000000000000000000000000000000153040a0a8a90c0ceab6c53ab7ae4b12d8b74bb9a040000eeee1f40138810000000000000000000000000000000000000000000000000000000065f9e319000000000000000000000000beb17ba97066906106d72fca2f05f1e307e74b76",
						"index": 86,
						"topics": [
							"0x11a490bebff1beffe4bdd210894aca6ea5049427ce4b3c48865717677199cb07",
							"0x00000000000000000000000000000000000000000000000000000000660f1f74",
							"0x0000000000000000000000000000000000000000000000000000000000000003"
						],
						"transactionHash": "0xf28d7fc512d39b8f284e7998d8c21aaae52ced6641234dae7a4b6da2fa515e7b",
						"transactionIndex": 53
					},
					{
						"address": "0x76C87701D0aD2C5C3B40C36617CEba566436A69f",
						"blockHash": "0x77ad0cb5a2c273a8944e563f61ea2b80ac791f565d5009320934bb17be6a35d1",
						"blockNumber": 5630085,
						"data": "0x",
						"index": 87,
						"topics": [
							"0xfda207e5d149787155cf9596283f246f082d4744a57e37dda99146e5dcc542bb",
							"0x00000000000000000000000000000000000000000000000000000000660f1f75",
							"0x0000000000000000000000000000000000000000000000000000000000000003",
							"0x00000000000000000000000000000000000000000000000000000000660f1f74"
						],
						"transactionHash": "0xf28d7fc512d39b8f284e7998d8c21aaae52ced6641234dae7a4b6da2fa515e7b",
						"transactionIndex": 53
					},
					{
						"address": "0x76C87701D0aD2C5C3B40C36617CEba566436A69f",
						"blockHash": "0x77ad0cb5a2c273a8944e563f61ea2b80ac791f565d5009320934bb17be6a35d1",
						"blockNumber": 5630085,
						"data": "0x0000000000000000000000000000000000000000000000000000000000093a8000000000000000000000000000000000000000000000152d02c7e14af6800000000000000000000000000000000000000000000000000000000000000000968000000000000000000000000000000000000000000000000000000000000000000000153040a0a8a90c0ceab6c53ab7ae4b12d8b74bb9a040000eeee13881388100000000000000000000000000000000000000000000000000000000661ecd19000000000000000000000000beb17ba97066906106d72fca2f05f1e307e74b76",
						"index": 88,
						"topics": [
							"0x11a490bebff1beffe4bdd210894aca6ea5049427ce4b3c48865717677199cb07",
							"0x00000000000000000000000000000000000000000000000000000000660f1f75",
							"0x0000000000000000000000000000000000000000000000000000000000000003"
						],
						"transactionHash": "0xf28d7fc512d39b8f284e7998d8c21aaae52ced6641234dae7a4b6da2fa515e7b",
						"transactionIndex": 53
					},
					{
						"address": "0x7deD6685996ae04BeA60B75E827379d95B40685C",
						"blockHash": "0x77ad0cb5a2c273a8944e563f61ea2b80ac791f565d5009320934bb17be6a35d1",
						"blockNumber": 5630085,
						"data": "0x000000000000000000000000000000000000000000000000000000000000eeee0000000000000000000000000000000000000000000000000000000000000012000000000000000000000000000000000000000000000000000000000000eeee000000000000000000000000beb17ba97066906106d72fca2f05f1e307e74b76",
						"index": 89,
						"topics": [
							"0x9570de6fc0456f642bd0a001b24cd31676388c24596df64a17190c24310690a1",
							"0x0000000000000000000000000000000000000000000000000000000000000003",
							"0x000000000000000000000000000000000000000000000000000000000000eeee"
						],
						"transactionHash": "0xf28d7fc512d39b8f284e7998d8c21aaae52ced6641234dae7a4b6da2fa515e7b",
						"transactionIndex": 53
					},
					{
						"address": "0x71Ff91C8A27b436f7025C053c01A3F6AAE3Fc62E",
						"blockHash": "0x77ad0cb5a2c273a8944e563f61ea2b80ac791f565d5009320934bb17be6a35d1",
						"blockNumber": 5630085,
						"data": "0x0000000000000000000000000000000000000000000000000000000000000040000000000000000000000000beb17ba97066906106d72fca2f05f1e307e74b7600000000000000000000000000000000000000000000000000000000000000010000000000000000000000007ded6685996ae04bea60b75e827379d95b40685c",
						"index": 90,
						"topics": [
							"0xb648241d83df6540fc10f2acc641e4bf80a1e84e7ae2f1f6b0ad204b8fee635b",
							"0x0000000000000000000000000000000000000000000000000000000000000003"
						],
						"transactionHash": "0xf28d7fc512d39b8f284e7998d8c21aaae52ced6641234dae7a4b6da2fa515e7b",
						"transactionIndex": 53
					},
					{
						"address": "0xBeb17Ba97066906106d72fCA2F05F1E307E74B76",
						"blockHash": "0x77ad0cb5a2c273a8944e563f61ea2b80ac791f565d5009320934bb17be6a35d1",
						"blockNumber": 5630085,
						"data": "0x00000000000000000000000000000000000000000000000000000000660f1f75000000000000000000000000000000000000000000000000000000000000000300000000000000000000000000000000000000000000000000000000000000800000000000000000000000002a60814151521819d56d8a756f5c9625b16e977300000000000000000000000000000000000000000000000000000000000000162442414e4e59207265766e6574206465706c6f79656400000000000000000000",
						"index": 91,
						"topics": [
							"0x23164adda696b19106c2eef50ba44461997682bf5aeb9fdb383117fa9952cc75"
						],
						"transactionHash": "0xf28d7fc512d39b8f284e7998d8c21aaae52ced6641234dae7a4b6da2fa515e7b",
						"transactionIndex": 53
					},
					{
						"address": "0x6AD8d769bD816750bDB041f10a969812Af01f7f4",
						"blockHash": "0x77ad0cb5a2c273a8944e563f61ea2b80ac791f565d5009320934bb17be6a35d1",
						"blockNumber": 5630085,
						"data": "0x",
						"index": 92,
						"topics": [
							"0x8be0079c531659141344cd1fd0a4f28419497f9722a3daafe3b4186f6b6457e0",
							"0x0000000000000000000000000000000000000000000000000000000000000000",
							"0x000000000000000000000000f25dce432b7ed1ccd5f0a2481f980862e359a092"
						],
						"transactionHash": "0xf28d7fc512d39b8f284e7998d8c21aaae52ced6641234dae7a4b6da2fa515e7b",
						"transactionIndex": 53
					},
					{
						"address": "0xF25dCe432B7ED1CCd5F0A2481f980862e359A092",
						"blockHash": "0x77ad0cb5a2c273a8944e563f61ea2b80ac791f565d5009320934bb17be6a35d1",
						"blockNumber": 5630085,
						"data": "0x000000000000000000000000000000000000000000000000000000000000008000000000000000000000000000000000000000000000000000000000000000c0076b105da213ee4beff4fb61282922734069b523b631b62690df8766893e55ea000000000000000000000000beb17ba97066906106d72fca2f05f1e307e74b76000000000000000000000000000000000000000000000000000000000000000a42616e6e79766572736500000000000000000000000000000000000000000000000000000000000000000000000000000000000000000000000000000000000542414e4e59000000000000000000000000000000000000000000000000000000",
						"index": 93,
						"topics": [
							"0xb4510654a5884cae50948507300dc482833ed1446cef375e064bef00b6b4ba4e",
							"0x0000000000000000000000000000000000000000000000000000000000000003",
							"0x0000000000000000000000006ad8d769bd816750bdb041f10a969812af01f7f4"
						],
						"transactionHash": "0xf28d7fc512d39b8f284e7998d8c21aaae52ced6641234dae7a4b6da2fa515e7b",
						"transactionIndex": 53
					},
					{
						"address": "0xDdCA0060D6055765a6E8261D4C9e8ca99073C439",
						"blockHash": "0x77ad0cb5a2c273a8944e563f61ea2b80ac791f565d5009320934bb17be6a35d1",
						"blockNumber": 5630085,
						"data": "0x0000000000000000000000000000000000000000000000000000000000000000000000000000000000000000000000000000000000000000000000000002a3000000000000000000000000002a60814151521819d56d8a756f5c9625b16e9773",
						"index": 94,
						"topics": [
							"0xa8d6b20cd05f07d50e9855ce0fc6de3517f3df2e890a5ec6357892b3808a53ce",
							"0x0000000000000000000000000000000000000000000000000000000000000003"
						],
						"transactionHash": "0xf28d7fc512d39b8f284e7998d8c21aaae52ced6641234dae7a4b6da2fa515e7b",
						"transactionIndex": 53
					},
					{
						"address": "0xDdCA0060D6055765a6E8261D4C9e8ca99073C439",
						"blockHash": "0x77ad0cb5a2c273a8944e563f61ea2b80ac791f565d5009320934bb17be6a35d1",
						"blockNumber": 5630085,
						"data": "0x000000000000000000000000000000000000000000000000000000000000000000000000000000000000000000000000000000000000000000000000000023280000000000000000000000002a60814151521819d56d8a756f5c9625b16e9773",
						"index": 95,
						"topics": [
							"0xaafe2470cbfb11a09f9b45d6a795226e93cc251e30fdcabddbabb157a1db5353",
							"0x0000000000000000000000000000000000000000000000000000000000000003"
						],
						"transactionHash": "0xf28d7fc512d39b8f284e7998d8c21aaae52ced6641234dae7a4b6da2fa515e7b",
						"transactionIndex": 53
					},
					{
						"address": "0xDdCA0060D6055765a6E8261D4C9e8ca99073C439",
						"blockHash": "0x77ad0cb5a2c273a8944e563f61ea2b80ac791f565d5009320934bb17be6a35d1",
						"blockNumber": 5630085,
						"data": "0x000000000000000000000000f95d80eb6d3b42e273a96df5c98ac736f9e6abaa0000000000000000000000002a60814151521819d56d8a756f5c9625b16e9773",
						"index": 96,
						"topics": [
							"0xe694de883385e30d535f625d68df4b2b5e866e8e86fe9d15554480c8d1812e60",
							"0x0000000000000000000000000000000000000000000000000000000000000003",
							"0x0000000000000000000000007b79995e5f793a07bc00c21412e50ecae098e7f9"
						],
						"transactionHash": "0xf28d7fc512d39b8f284e7998d8c21aaae52ced6641234dae7a4b6da2fa515e7b",
						"transactionIndex": 53
					},
					{
						"address": "0xC91586B6FE425d75C6B0f53daf9831811725bD2c",
						"blockHash": "0x77ad0cb5a2c273a8944e563f61ea2b80ac791f565d5009320934bb17be6a35d1",
						"blockNumber": 5630085,
						"data": "0x0000000000000000000000000000000000000000000000000000000000000000000000000000000000000000000000000000000000000000000000003b9aca000000000000000000000000000000000000000000000000000000000000000000000000000000000000000000584f5da53cb18789099466074e3b5c32ed17243a00000000000000000000000000000000000000000000000000000000000000000000000000000000000000000000000000000000000000000000000000000000000000000000000000000000beb17ba97066906106d72fca2f05f1e307e74b76",
						"index": 97,
						"topics": [
							"0x0d7ea8ac1cb69dfa18ce2b18e90d31b4d4a0370aacadf7db42d42930a09b3f01",
							"0x0000000000000000000000000000000000000000000000000000000000000003",
							"0x0000000000000000000000000000000000000000000000000000000000000000",
							"0x0000000000000000000000000000000000000000000000000000000000000001"
						],
						"transactionHash": "0xf28d7fc512d39b8f284e7998d8c21aaae52ced6641234dae7a4b6da2fa515e7b",
						"transactionIndex": 53
					},
					{
						"address": "0x953AB7f10EfE861B21CfB9630768818A04742587",
						"blockHash": "0x77ad0cb5a2c273a8944e563f61ea2b80ac791f565d5009320934bb17be6a35d1",
						"blockNumber": 5630085,
						"data": "0x00000000000000000000000000000000000000000000000000000000000000600000000000000000000000000000000000000000000000000000000002e200400000000000000000000000002a60814151521819d56d8a756f5c9625b16e97730000000000000000000000000000000000000000000000000000000000000006000000000000000000000000000000000000000000000000000000000000001100000000000000000000000000000000000000000000000000000000000000190000000000000000000000000000000000000000000000000000000000000006000000000000000000000000000000000000000000000000000000000000001500000000000000000000000000000000000000000000000000000000000000160000000000000000000000000000000000000000000000000000000000000017",
						"index": 98,
						"topics": [
							"0xf8cdf10a0ce6189c6d069e97320ef146e2bcbd32d6c0b86dcbfbf3bd8578fa70",
							"0x000000000000000000000000584f5da53cb18789099466074e3b5c32ed17243a",
							"0x0000000000000000000000002a60814151521819d56d8a756f5c9625b16e9773",
							"0x0000000000000000000000000000000000000000000000000000000000000003"
						],
						"transactionHash": "0xf28d7fc512d39b8f284e7998d8c21aaae52ced6641234dae7a4b6da2fa515e7b",
						"transactionIndex": 53
					},
					{
						"address": "0x953AB7f10EfE861B21CfB9630768818A04742587",
						"blockHash": "0x77ad0cb5a2c273a8944e563f61ea2b80ac791f565d5009320934bb17be6a35d1",
						"blockNumber": 5630085,
						"data": "0x000000000000000000000000000000000000000000000000000000000000006000000000000000000000000000000000000000000000000000000000100000000000000000000000000000002a60814151521819d56d8a756f5c9625b16e97730000000000000000000000000000000000000000000000000000000000000001000000000000000000000000000000000000000000000000000000000000001c",
						"index": 99,
						"topics": [
							"0xf8cdf10a0ce6189c6d069e97320ef146e2bcbd32d6c0b86dcbfbf3bd8578fa70",
							"0x0000000000000000000000000279b704b409a70e23d6ab27544badb568aa4930",
							"0x0000000000000000000000002a60814151521819d56d8a756f5c9625b16e9773",
							"0x0000000000000000000000000000000000000000000000000000000000000003"
						],
						"transactionHash": "0xf28d7fc512d39b8f284e7998d8c21aaae52ced6641234dae7a4b6da2fa515e7b",
						"transactionIndex": 53
					},
					{
						"address": "0x2A60814151521819D56d8A756F5c9625B16E9773",
						"blockHash": "0x77ad0cb5a2c273a8944e563f61ea2b80ac791f565d5009320934bb17be6a35d1",
						"blockNumber": 5630085,
						"data": "0x000000000000000000000000000000000000000000000000000000000000010000000000000000000000000000000000000000000000000000000000000004800000000000000000000000000000000000000000000000000000000000000540000000000000000000000000000000000000000000000000000000000000062000000000000000000000000000000000000000000000000000000000000007800000000000000000000000000000000000000000000000000000000000000e200000000000000000000000000000000000000000000000000000000000000001000000000000000000000000584f5da53cb18789099466074e3b5c32ed17243a00000000000000000000000000000000000000000000000000000000000000c0000000000000000000000000000000000000000000000000000000000000eeee000000000000000000000000000000000000000000422ca8b0a00a42500000000000000000000000000000000000000000000000000000000000000000000001000000000000000000000000584f5da53cb18789099466074e3b5c32ed17243a00000000000000000000000000000000000000000000000000000000000001e0000000000000000000000000000000000000000000000000000000000000008000000000000000000000000000000000000000000000000000000000000000c0000000000000000000000000000000000000000000000000000000000000010042414e4e595f5645525345000000000000000000000000000000000000000000000000000000000000000000000000000000000000000000000000000000000a42616e6e79766572736500000000000000000000000000000000000000000000000000000000000000000000000000000000000000000000000000000000000542414e4e59000000000000000000000000000000000000000000000000000000000000000000000000000000000000000000000000000000000000000000000000000000000000000000000000000000000000000000000000000000000000020000000000000000000000000000000000000000000000000000000065f9e319000000000000000000000000000000000000000000000000000000000000138800000000000000000000000000000000000000000000d3c21bcecceda100000000000000000000000000000000000000000000000000000000000000000151800000000000000000000000000000000000000000000000000000000002faf08000000000000000000000000000000000000000000000000000000000000007d000000000000000000000000000000000000000000000000000000000661ecd19000000000000000000000000000000000000000000000000000000000000138800000000000000000000000000000000000000000000152d02c7e14af68000000000000000000000000000000000000000000000000000000000000000093a8000000000000000000000000000000000000000000000000000000000000096800000000000000000000000000000000000000000000000000000000000001388000000000000000000000000000000000000000000000000000000000000000100000000000000000000000000000000000000000000000000000000000000200000000000000000000000007ded6685996ae04bea60b75e827379d95b40685c00000000000000000000000000000000000000000000000000000000000000400000000000000000000000000000000000000000000000000000000000000001000000000000000000000000000000000000000000000000000000000000eeee000000000000000000000000ddca0060d6055765a6e8261d4c9e8ca99073c43900000000000000000000000000000000000000000000000000000000000000400000000000000000000000000000000000000000000000000000000000000001000000000000000000000000000000000000000000000000000000000000eeee0000000000000000000000000000000000000000000000000000000000002710000000000000000000000000000000000000000000000000000000000002a3000000000000000000000000000000000000000000000000000000000000002328000000000000000000000000000000000000000000000000000000000000004042414e4e5956455253455f5355434b455200000000000000000000000000000000000000000000000000000000000000000000000000000000000000000000010000000000000000000000000000000000000000000000000000000000000020000000000000000000000000992bc3756d0e58f3a09002db8ea1b74061ab6b2100000000000000000000000000000000000000000000000000000000000000400000000000000000000000000000000000000000000000000000000000000001000000000000000000000000000000000000000000000000000000000000eeee0000000000000000000000000000000000000000000000000000000000030d40000000000000000000000000000000000000000000000000000000000000eeee000000000000000000000000000000000000000000000000002386f26fc100000000000000000000000000000000000000000000000000000000000000000002000000000000000000000000000000000000000000000000000000000000004000000000000000000000000000000000000000000000000000000000000003600000000000000000000000000000000000000000000000000000000065f9e319000000000000000000000000000000000000000000000000000000000001518000000000000000000000000000000000000000000000d3c21bcecceda10000000000000000000000000000000000000000000000000000000000000002faf080000000000000000000000000000000000000000000000000000000000000000000000000000000000000000000000000000000000000000000000000000013880000000000000000000000000000000000000000000000000000000000001f40000000000000000000000000000000000000000000000000000000000000eeee000000000000000000000000000000000000000000000000000000000000000000000000000000000000000000000000000000000000000000000000000000000000000000000000000000000000000000000000000000000000000000000001000000000000000000000000000000000000000000000000000000000000000000000000000000000000000000000000000000000000000000000000000000000000000000000000000000000000000000000000000000000000000000000000000000000000000000000000000000000000000000000000000000000000000000000000000000000000000000000000000000000000000000000000000000000000000000000000000000000000000000000000000000000000000000000000000000000000000000000000000000000000000000000000000000000000000100000000000000000000000000000000000000000000000000000000000000000000000000000000000000002a60814151521819d56d8a756f5c9625b16e9773000000000000000000000000000000000000000000000000000000000000000000000000000000000000000000000000000000000000000000000000000002e000000000000000000000000000000000000000000000000000000000000003000000000000000000000000000000000000000000000000000000000000000000000000000000000000000000000000000000000000000000000000000000000000000000000000000000000000000000000000000000000000000000661ecd190000000000000000000000000000000000000000000000000000000000093a8000000000000000000000000000000000000000000000152d02c7e14af68000000000000000000000000000000000000000000000000000000000000000009680000000000000000000000000000000000000000000000000000000000000000000000000000000000000000000000000000000000000000000000000000013880000000000000000000000000000000000000000000000000000000000001388000000000000000000000000000000000000000000000000000000000000eeee000000000000000000000000000000000000000000000000000000000000000000000000000000000000000000000000000000000000000000000000000000000000000000000000000000000000000000000000000000000000000000000001000000000000000000000000000000000000000000000000000000000000000000000000000000000000000000000000000000000000000000000000000000000000000000000000000000000000000000000000000000000000000000000000000000000000000000000000000000000000000000000000000000000000000000000000000000000000000000000000000000000000000000000000000000000000000000000000000000000000000000000000000000000000000000000000000000000000000000000000000000000000000000000000000000000000000100000000000000000000000000000000000000000000000000000000000000000000000000000000000000002a60814151521819d56d8a756f5c9625b16e9773000000000000000000000000000000000000000000000000000000000000000000000000000000000000000000000000000000000000000000000000000002e000000000000000000000000000000000000000000000000000000000000003000000000000000000000000000000000000000000000000000000000000000000000000000000000000000000000000000000000000000000000000000000000000000000000000000000000000000000000000000000000000000000000002a0000000000000000000000000000000000000000000000000000000000000eeee000000000000000000000000000000000000000000000000000000000000000100000000000000000000000000000000000000000000000000000000000000a000000000000000000000000000000000000000000000000000000000000000e042414e4e595f5645525345000000000000000000000000000000000000000000000000000000000000000000000000000000000000000000000000000000000a42616e6e79766572736500000000000000000000000000000000000000000000000000000000000000000000000000000000000000000000000000000000000542414e4e590000000000000000000000000000000000000000000000000000000000000000000000000000000000000000000000000000000000000065f9e319000000000000000000000000000000000000000000000000000000000000138800000000000000000000000000000000000000000000d3c21bcecceda100000000000000000000000000000000000000000000000000000000000000000151800000000000000000000000000000000000000000000000000000000002faf08000000000000000000000000000000000000000000000000000000000000007d000000000000000000000000000000000000000000000000000000000661ecd19000000000000000000000000000000000000000000000000000000000000138800000000000000000000000000000000000000000000152d02c7e14af68000000000000000000000000000000000000000000000000000000000000000093a8000000000000000000000000000000000000000000000000000000000000096800000000000000000000000000000000000000000000000000000000000001388",
						"index": 100,
						"topics": [
							"0x4b827371715024f69a0bc98c8df6edafe6e471e78488ab1b3849de72f66b12e0",
							"0x0000000000000000000000000000000000000000000000000000000000000003"
						],
						"transactionHash": "0xf28d7fc512d39b8f284e7998d8c21aaae52ced6641234dae7a4b6da2fa515e7b",
						"transactionIndex": 53
					},
					{
						"address": "0x2A60814151521819D56d8A756F5c9625B16E9773",
						"blockHash": "0x77ad0cb5a2c273a8944e563f61ea2b80ac791f565d5009320934bb17be6a35d1",
						"blockNumber": 5630085,
						"data": "0x0000000000000000000000000000000000000000000000000000000000000040000000000000000000000000584f5da53cb18789099466074e3b5c32ed17243a000000000000000000000000000000000000000000000000000000000000000100000000000000000000000000000000000000000000000000000000000000200000000000000000000000006bb5bd60e90ebd809ebecc451630b3f7b422c47b000000000000000000000000000000000000000000000000000000000000000000000000000000000000000000000000000000000000000000000000000000600000000000000000000000000000000000000000000000000000000000000000",
						"index": 101,
						"topics": [
							"0xdfaf2737f25eace49d372b472ec03f1df0f9814dfc69d2b95c5e92a041f42e29",
							"0x0000000000000000000000000000000000000000000000000000000000000003"
						],
						"transactionHash": "0xf28d7fc512d39b8f284e7998d8c21aaae52ced6641234dae7a4b6da2fa515e7b",
						"transactionIndex": 53
					},
					{
						"address": "0x3BdDB0e8AB7CDBB0cAdcfCd04Bd162556C0451D2",
						"blockHash": "0x77ad0cb5a2c273a8944e563f61ea2b80ac791f565d5009320934bb17be6a35d1",
						"blockNumber": 5630085,
						"data": "0x00000000000000000000000000000000000000000000000000000000000000400000000000000000000000002a60814151521819d56d8a756f5c9625b16e9773000000000000000000000000000000000000000000000000000000000000000400000000000000000000000000000000000000000000000000000000000000800000000000000000000000000000000000000000000000000000000000000160000000000000000000000000000000000000000000000000000000000000024000000000000000000000000000000000000000000000000000000000000003200000000000000000000000006bb5bd60e90ebd809ebecc451630b3f7b422c47b000000000000000000000000000000000000000000000000000000000000006400000000000000000000000000000000000000000000000000038d7ea4c680000000000000000000000000000000000000000000000000000000000000002710000000000000000000000000000000000000000000000000000000003b9ac9ff00000000000000000000000000000000000000000000000000000000000000c000000000000000000000000000000000000000000000000000000000000000000000000000000000000000006bb5bd60e90ebd809ebecc451630b3f7b422c47b0000000000000000000000000000000000000000000000000000000000000065000000000000000000000000000000000000000000000000016345785d8a00000000000000000000000000000000000000000000000000000000000000000064000000000000000000000000000000000000000000000000000000003b9ac9ff00000000000000000000000000000000000000000000000000000000000000c000000000000000000000000000000000000000000000000000000000000000000000000000000000000000006bb5bd60e90ebd809ebecc451630b3f7b422c47b00000000000000000000000000000000000000000000000000000000000000660000000000000000000000000000000000000000000000000de0b6b3a7640000000000000000000000000000000000000000000000000000000000000000000a000000000000000000000000000000000000000000000000000000003b9ac9ff00000000000000000000000000000000000000000000000000000000000000c000000000000000000000000000000000000000000000000000000000000000000000000000000000000000006bb5bd60e90ebd809ebecc451630b3f7b422c47b00000000000000000000000000000000000000000000000000000000000000670000000000000000000000000000000000000000000000056bc75e2d63100000000000000000000000000000000000000000000000000000000000000000000a000000000000000000000000000000000000000000000000000000003b9ac9ff00000000000000000000000000000000000000000000000000000000000000c00000000000000000000000000000000000000000000000000000000000000000",
						"index": 102,
						"topics": [
							"0x721f1fc2dbea25cab88bdd50f9b47aff50f4b8c43ea6ea02b3587c82b940ad41",
							"0x0000000000000000000000000000000000000000000000000000000000000003"
						],
						"transactionHash": "0xf28d7fc512d39b8f284e7998d8c21aaae52ced6641234dae7a4b6da2fa515e7b",
						"transactionIndex": 53
					},
					{
						"address": "0x953AB7f10EfE861B21CfB9630768818A04742587",
						"blockHash": "0x77ad0cb5a2c273a8944e563f61ea2b80ac791f565d5009320934bb17be6a35d1",
						"blockNumber": 5630085,
						"data": "0x000000000000000000000000000000000000000000000000000000000000006000000000000000000000000000000000000000000000000000000000002000000000000000000000000000002a60814151521819d56d8a756f5c9625b16e977300000000000000000000000000000000000000000000000000000000000000010000000000000000000000000000000000000000000000000000000000000015",
						"index": 103,
						"topics": [
							"0xf8cdf10a0ce6189c6d069e97320ef146e2bcbd32d6c0b86dcbfbf3bd8578fa70",
							"0x0000000000000000000000003bddb0e8ab7cdbb0cadcfcd04bd162556c0451d2",
							"0x0000000000000000000000002a60814151521819d56d8a756f5c9625b16e9773",
							"0x0000000000000000000000000000000000000000000000000000000000000003"
						],
						"transactionHash": "0xf28d7fc512d39b8f284e7998d8c21aaae52ced6641234dae7a4b6da2fa515e7b",
						"transactionIndex": 53
					},
					{
						"address": "0x584F5Da53cb18789099466074e3B5c32Ed17243a",
						"blockHash": "0x77ad0cb5a2c273a8944e563f61ea2b80ac791f565d5009320934bb17be6a35d1",
						"blockNumber": 5630085,
						"data": "0x",
						"index": 104,
						"topics": [
							"0x6895c13664aa4f67288b25d7a21d7aaa34916e355fb9b6fae0a139a9085becb8",
							"0x000000000000000000000000183b35e76a7bc60298dcb637515f50e4def9b68b"
						],
						"transactionHash": "0xf28d7fc512d39b8f284e7998d8c21aaae52ced6641234dae7a4b6da2fa515e7b",
						"transactionIndex": 53
					},
					{
						"address": "0x183b35E76A7BC60298DCb637515F50e4DeF9b68b",
						"blockHash": "0x77ad0cb5a2c273a8944e563f61ea2b80ac791f565d5009320934bb17be6a35d1",
						"blockNumber": 5630085,
						"data": "0x0000000000000000000000000000000000000000000000000000000000000005",
						"index": 105,
						"topics": [
							"0xa65fb05c5808f5f389d72edeaf719ce38f4cc55c1f69ca3cbfb31c21501caa07",
							"0x0aaf738686898dbbe3a4503e2e154ed13623f17825170f5fcf6e166bdd76326d"
						],
						"transactionHash": "0xf28d7fc512d39b8f284e7998d8c21aaae52ced6641234dae7a4b6da2fa515e7b",
						"transactionIndex": 53
					},
					{
						"address": "0xE9a6F248F9f8854E9f161c84c34F2589Ec362BE9",
						"blockHash": "0x77ad0cb5a2c273a8944e563f61ea2b80ac791f565d5009320934bb17be6a35d1",
						"blockNumber": 5630085,
						"data": "0x",
						"index": 106,
						"topics": [
							"0xddf252ad1be2c89b69c2b068fc378daa952ba7f163c4a11628f55a4df523b3ef",
							"0x000000000000000000000000584f5da53cb18789099466074e3b5c32ed17243a",
							"0x0000000000000000000000002a60814151521819d56d8a756f5c9625b16e9773",
							"0x0000000000000000000000000000000000000000000000000000000000000003"
						],
						"transactionHash": "0xf28d7fc512d39b8f284e7998d8c21aaae52ced6641234dae7a4b6da2fa515e7b",
						"transactionIndex": 53
					},
					{
						"address": "0x584F5Da53cb18789099466074e3B5c32Ed17243a",
						"blockHash": "0x77ad0cb5a2c273a8944e563f61ea2b80ac791f565d5009320934bb17be6a35d1",
						"blockNumber": 5630085,
						"data": "0x",
						"index": 107,
						"topics": [
							"0x6895c13664aa4f67288b25d7a21d7aaa34916e355fb9b6fae0a139a9085becb8",
							"0x000000000000000000000000183b35e76a7bc60298dcb637515f50e4def9b68b"
						],
						"transactionHash": "0xf28d7fc512d39b8f284e7998d8c21aaae52ced6641234dae7a4b6da2fa515e7b",
						"transactionIndex": 53
					},
					{
						"address": "0x183b35E76A7BC60298DCb637515F50e4DeF9b68b",
						"blockHash": "0x77ad0cb5a2c273a8944e563f61ea2b80ac791f565d5009320934bb17be6a35d1",
						"blockNumber": 5630085,
						"data": "0x0000000000000000000000000000000000000000000000000000000000000006",
						"index": 108,
						"topics": [
							"0xa65fb05c5808f5f389d72edeaf719ce38f4cc55c1f69ca3cbfb31c21501caa07",
							"0x0aaf738686898dbbe3a4503e2e154ed13623f17825170f5fcf6e166bdd76326d"
						],
						"transactionHash": "0xf28d7fc512d39b8f284e7998d8c21aaae52ced6641234dae7a4b6da2fa515e7b",
						"transactionIndex": 53
					},
					{
						"address": "0x183b35E76A7BC60298DCb637515F50e4DeF9b68b",
						"blockHash": "0x77ad0cb5a2c273a8944e563f61ea2b80ac791f565d5009320934bb17be6a35d1",
						"blockNumber": 5630085,
						"data": "0x",
						"index": 109,
						"topics": [
							"0x4383d976757d67ca920616be0b6430a681ea9d3dcce8d6d61d4603ca4a9bff63",
							"0x0aaf738686898dbbe3a4503e2e154ed13623f17825170f5fcf6e166bdd76326d"
						],
						"transactionHash": "0xf28d7fc512d39b8f284e7998d8c21aaae52ced6641234dae7a4b6da2fa515e7b",
						"transactionIndex": 53
					}
				],
				"logsBloom": "0x80c00000080010000220000204080a22040080000008004000991000004000000020000100400042005010200448000000404000425800000000080000040004000002100020222000000048000080080001084000040800401080000080001000000000020208808080002200000800000800100000001140020016000240411100000800400101002100000010420402022008004000000180004120000000004010820014040000002000000008120200100104810060000320014204e00000000002040204410084100058800801010002000000008000004000000360000024000020800008000000000240000b80001900804200000800000008000000",
				"status": 1,
				"to": "0xB5E96127D417b1B3ef8438496a38A143167209c7"
			},
			"metadata": "{\"compiler\":{\"version\":\"0.8.23+commit.f704f362\"},\"language\":\"Solidity\",\"output\":{\"abi\":[{\"inputs\":[{\"internalType\":\"address\",\"name\":\"owner\",\"type\":\"address\"},{\"internalType\":\"address\",\"name\":\"trustedForwarder\",\"type\":\"address\"}],\"stateMutability\":\"nonpayable\",\"type\":\"constructor\"},{\"inputs\":[],\"type\":\"error\",\"name\":\"CONTENTS_ALREADY_STORED\"},{\"inputs\":[],\"type\":\"error\",\"name\":\"CONTENTS_MISMATCH\"},{\"inputs\":[],\"type\":\"error\",\"name\":\"FACE_ALREADY_ADDED\"},{\"inputs\":[],\"type\":\"error\",\"name\":\"HASH_ALREADY_STORED\"},{\"inputs\":[],\"type\":\"error\",\"name\":\"HASH_NOT_FOUND\"},{\"inputs\":[],\"type\":\"error\",\"name\":\"HEAD_ALREADY_ADDED\"},{\"inputs\":[],\"type\":\"error\",\"name\":\"ONESIE_ALREADY_ADDED\"},{\"inputs\":[{\"internalType\":\"address\",\"name\":\"owner\",\"type\":\"address\"}],\"type\":\"error\",\"name\":\"OwnableInvalidOwner\"},{\"inputs\":[{\"internalType\":\"address\",\"name\":\"account\",\"type\":\"address\"}],\"type\":\"error\",\"name\":\"OwnableUnauthorizedAccount\"},{\"inputs\":[],\"type\":\"error\",\"name\":\"SUIT_ALREADY_ADDED\"},{\"inputs\":[],\"type\":\"error\",\"name\":\"UNAUTHORIZED_OUTFIT\"},{\"inputs\":[],\"type\":\"error\",\"name\":\"UNAUTHORIZED_WORLD\"},{\"inputs\":[],\"type\":\"error\",\"name\":\"UNAUTHORIZED__NAKED_BANNY\"},{\"inputs\":[],\"type\":\"error\",\"name\":\"UNORDERED_CATEGORIES\"},{\"inputs\":[],\"type\":\"error\",\"name\":\"UNRECOGNIZED_CATEGORY\"},{\"inputs\":[],\"type\":\"error\",\"name\":\"UNRECOGNIZED_OUTFIT\"},{\"inputs\":[],\"type\":\"error\",\"name\":\"UNRECOGNIZED_TIER\"},{\"inputs\":[],\"type\":\"error\",\"name\":\"UNRECOGNIZED_WORLD\"},{\"inputs\":[{\"internalType\":\"address\",\"name\":\"hook\",\"type\":\"address\",\"indexed\":true},{\"internalType\":\"uint256\",\"name\":\"nakenBannyId\",\"type\":\"uint256\",\"indexed\":true},{\"internalType\":\"uint256\",\"name\":\"worldId\",\"type\":\"uint256\",\"indexed\":false},{\"internalType\":\"uint256[]\",\"name\":\"outfitIds\",\"type\":\"uint256[]\",\"indexed\":false},{\"internalType\":\"address\",\"name\":\"caller\",\"type\":\"address\",\"indexed\":false}],\"type\":\"event\",\"name\":\"DecorateBanny\",\"anonymous\":false},{\"inputs\":[{\"internalType\":\"address\",\"name\":\"previousOwner\",\"type\":\"address\",\"indexed\":true},{\"internalType\":\"address\",\"name\":\"newOwner\",\"type\":\"address\",\"indexed\":true}],\"type\":\"event\",\"name\":\"OwnershipTransferred\",\"anonymous\":false},{\"inputs\":[{\"internalType\":\"string\",\"name\":\"baseUri\",\"type\":\"string\",\"indexed\":false},{\"internalType\":\"address\",\"name\":\"caller\",\"type\":\"address\",\"indexed\":false}],\"type\":\"event\",\"name\":\"SetSvgBaseUri\",\"anonymous\":false},{\"inputs\":[{\"internalType\":\"uint256[]\",\"name\":\"tierId\",\"type\":\"uint256[]\",\"indexed\":true},{\"internalType\":\"string[]\",\"name\":\"svgContents\",\"type\":\"string[]\",\"indexed\":false},{\"internalType\":\"address\",\"name\":\"caller\",\"type\":\"address\",\"indexed\":false}],\"type\":\"event\",\"name\":\"SetSvgContents\",\"anonymous\":false},{\"inputs\":[{\"internalType\":\"uint256[]\",\"name\":\"tierIds\",\"type\":\"uint256[]\",\"indexed\":true},{\"internalType\":\"bytes32[]\",\"name\":\"svgHashs\",\"type\":\"bytes32[]\",\"indexed\":true},{\"internalType\":\"address\",\"name\":\"caller\",\"type\":\"address\",\"indexed\":false}],\"type\":\"event\",\"name\":\"SetSvgHashes\",\"anonymous\":false},{\"inputs\":[{\"internalType\":\"uint256[]\",\"name\":\"tierIds\",\"type\":\"uint256[]\",\"indexed\":true},{\"internalType\":\"string[]\",\"name\":\"names\",\"type\":\"string[]\",\"indexed\":false},{\"internalType\":\"address\",\"name\":\"caller\",\"type\":\"address\",\"indexed\":false}],\"type\":\"event\",\"name\":\"SetTierNames\",\"anonymous\":false},{\"inputs\":[{\"internalType\":\"uint256\",\"name\":\"tokenId\",\"type\":\"uint256\"},{\"internalType\":\"uint256\",\"name\":\"tierId\",\"type\":\"uint256\"},{\"internalType\":\"uint256\",\"name\":\"category\",\"type\":\"uint256\"}],\"stateMutability\":\"view\",\"type\":\"function\",\"name\":\"_nameOf\",\"outputs\":[{\"internalType\":\"string\",\"name\":\"\",\"type\":\"string\"}]},{\"inputs\":[{\"internalType\":\"uint256\",\"name\":\"nakedBannyId\",\"type\":\"uint256\"}],\"stateMutability\":\"view\",\"type\":\"function\",\"name\":\"assetIdsOf\",\"outputs\":[{\"internalType\":\"uint256\",\"name\":\"worldId\",\"type\":\"uint256\"},{\"internalType\":\"uint256[]\",\"name\":\"outfitIds\",\"type\":\"uint256[]\"}]},{\"inputs\":[{\"internalType\":\"address\",\"name\":\"hook\",\"type\":\"address\"},{\"internalType\":\"uint256\",\"name\":\"tokenId\",\"type\":\"uint256\"},{\"internalType\":\"bool\",\"name\":\"shouldBeDressed\",\"type\":\"bool\"},{\"internalType\":\"bool\",\"name\":\"shouldIncludeWorld\",\"type\":\"bool\"}],\"stateMutability\":\"view\",\"type\":\"function\",\"name\":\"bannySvgOf\",\"outputs\":[{\"internalType\":\"string\",\"name\":\"\",\"type\":\"string\"}]},{\"inputs\":[{\"internalType\":\"address\",\"name\":\"hook\",\"type\":\"address\"},{\"internalType\":\"uint256\",\"name\":\"nakedBannyId\",\"type\":\"uint256\"},{\"internalType\":\"uint256\",\"name\":\"worldId\",\"type\":\"uint256\"},{\"internalType\":\"uint256[]\",\"name\":\"outfitIds\",\"type\":\"uint256[]\"}],\"stateMutability\":\"nonpayable\",\"type\":\"function\",\"name\":\"decorateBannyWith\"},{\"inputs\":[{\"internalType\":\"address\",\"name\":\"forwarder\",\"type\":\"address\"}],\"stateMutability\":\"view\",\"type\":\"function\",\"name\":\"isTrustedForwarder\",\"outputs\":[{\"internalType\":\"bool\",\"name\":\"\",\"type\":\"bool\"}]},{\"inputs\":[{\"internalType\":\"address\",\"name\":\"hook\",\"type\":\"address\"},{\"internalType\":\"uint256\",\"name\":\"tokenId\",\"type\":\"uint256\"}],\"stateMutability\":\"view\",\"type\":\"function\",\"name\":\"nameOf\",\"outputs\":[{\"internalType\":\"string\",\"name\":\"\",\"type\":\"string\"}]},{\"inputs\":[],\"stateMutability\":\"view\",\"type\":\"function\",\"name\":\"owner\",\"outputs\":[{\"internalType\":\"address\",\"name\":\"\",\"type\":\"address\"}]},{\"inputs\":[],\"stateMutability\":\"nonpayable\",\"type\":\"function\",\"name\":\"renounceOwnership\"},{\"inputs\":[{\"internalType\":\"string\",\"name\":\"baseUri\",\"type\":\"string\"}],\"stateMutability\":\"nonpayable\",\"type\":\"function\",\"name\":\"setSvgBaseUri\"},{\"inputs\":[{\"internalType\":\"uint256[]\",\"name\":\"tierIds\",\"type\":\"uint256[]\"},{\"internalType\":\"string[]\",\"name\":\"svgContents\",\"type\":\"string[]\"}],\"stateMutability\":\"nonpayable\",\"type\":\"function\",\"name\":\"setSvgContentsOf\"},{\"inputs\":[{\"internalType\":\"uint256[]\",\"name\":\"tierIds\",\"type\":\"uint256[]\"},{\"internalType\":\"bytes32[]\",\"name\":\"svgHashs\",\"type\":\"bytes32[]\"}],\"stateMutability\":\"nonpayable\",\"type\":\"function\",\"name\":\"setSvgHashsOf\"},{\"inputs\":[{\"internalType\":\"uint256[]\",\"name\":\"tierIds\",\"type\":\"uint256[]\"},{\"internalType\":\"string[]\",\"name\":\"names\",\"type\":\"string[]\"}],\"stateMutability\":\"nonpayable\",\"type\":\"function\",\"name\":\"setTierNames\"},{\"inputs\":[],\"stateMutability\":\"view\",\"type\":\"function\",\"name\":\"svgBaseUri\",\"outputs\":[{\"internalType\":\"string\",\"name\":\"\",\"type\":\"string\"}]},{\"inputs\":[{\"internalType\":\"uint256\",\"name\":\"tierId\",\"type\":\"uint256\"}],\"stateMutability\":\"view\",\"type\":\"function\",\"name\":\"svgHashOf\",\"outputs\":[{\"internalType\":\"bytes32\",\"name\":\"\",\"type\":\"bytes32\"}]},{\"inputs\":[{\"internalType\":\"address\",\"name\":\"hook\",\"type\":\"address\"},{\"internalType\":\"uint256\",\"name\":\"tokenId\",\"type\":\"uint256\"}],\"stateMutability\":\"view\",\"type\":\"function\",\"name\":\"tokenUriOf\",\"outputs\":[{\"internalType\":\"string\",\"name\":\"\",\"type\":\"string\"}]},{\"inputs\":[{\"internalType\":\"address\",\"name\":\"newOwner\",\"type\":\"address\"}],\"stateMutability\":\"nonpayable\",\"type\":\"function\",\"name\":\"transferOwnership\"},{\"inputs\":[],\"stateMutability\":\"view\",\"type\":\"function\",\"name\":\"trustedForwarder\",\"outputs\":[{\"internalType\":\"address\",\"name\":\"\",\"type\":\"address\"}]}],\"devdoc\":{\"kind\":\"dev\",\"methods\":{\"assetIdsOf(uint256)\":{\"params\":{\"nakedBannyId\":\"The ID of the naked banny shows with the associated assets.\"},\"returns\":{\"outfitIds\":\"The outfits attached to the Naked Banny.\",\"worldId\":\"The world attached to the Naked Banny.\"}},\"bannySvgOf(address,uint256,bool,bool)\":{\"params\":{\"hook\":\"The hook storing the assets.\",\"tokenId\":\"The ID of the token to show. If the ID belongs to a Naked Banny, it will be shown with its current outfits in its current world.\"},\"returns\":{\"_0\":\"bannySvg The SVG.\"}},\"constructor\":{\"params\":{\"owner\":\"The owner allowed to add SVG files that correspond to tier IDs.\",\"trustedForwarder\":\"The trusted forwarder for the ERC2771Context.\"}},\"decorateBannyWith(address,uint256,uint256,uint256[])\":{\"details\":\"The caller must own the naked banny being dressed and all outfits being worn.\",\"params\":{\"hook\":\"The hook storing the assets.\",\"nakedBannyId\":\"The ID of the Naked Banny being dressed.\",\"outfitIds\":\"The IDs of the outfits that'll be associated with the specified banny. Only one outfit per outfit category allowed at a time and they must be passed in order.\",\"worldId\":\"The ID of the world that'll be associated with the specified banny.\"}},\"isTrustedForwarder(address)\":{\"details\":\"Indicates whether any particular address is the trusted forwarder.\"},\"owner()\":{\"details\":\"Returns the address of the current owner.\"},\"renounceOwnership()\":{\"details\":\"Leaves the contract without owner. It will not be possible to call `onlyOwner` functions. Can only be called by the current owner. NOTE: Renouncing ownership will leave the contract without an owner, thereby disabling any functionality that is only available to the owner.\"},\"setSvgContentsOf(uint256[],string[])\":{\"params\":{\"svgContents\":\"The svg contents being stored, not including the parent <svg></svg> element.\",\"tierIds\":\"The IDs of the tiers having SVGs stored.\"}},\"setSvgHashsOf(uint256[],bytes32[])\":{\"details\":\"This allows anyone to lazily upload the correct svg file.\",\"params\":{\"svgHashs\":\"The svg hashes being stored, not including the parent <svg></svg> element.\",\"tierIds\":\"The IDs of the tiers having SVG hashes stored.\"}},\"setTierNames(uint256[],string[])\":{\"params\":{\"names\":\"The names of the tiers.\",\"tierIds\":\"The IDs of the tiers having their name stored.\"}},\"tokenUriOf(address,uint256)\":{\"params\":{\"tokenId\":\"The ID of the token to show. If the ID belongs to a Naked Banny, it will be shown with its current outfits in its current world.\"},\"returns\":{\"_0\":\"tokenUri The URI representing the SVG.\"}},\"transferOwnership(address)\":{\"details\":\"Transfers ownership of the contract to a new account (`newOwner`). Can only be called by the current owner.\"},\"trustedForwarder()\":{\"details\":\"Returns the address of the trusted forwarder.\"}},\"version\":1},\"userdoc\":{\"kind\":\"user\",\"methods\":{\"_nameOf(uint256,uint256,uint256)\":{\"notice\":\"The name of each tier.\"},\"assetIdsOf(uint256)\":{\"notice\":\"The assets currently attached to each Naked Banny, owned by the naked Banny's owner.\"},\"bannySvgOf(address,uint256,bool,bool)\":{\"notice\":\"Returns the SVG showing a dressed Naked Banny.\"},\"decorateBannyWith(address,uint256,uint256,uint256[])\":{\"notice\":\"Dress your Naked Banny with outfits.\"},\"setSvgBaseUri(string)\":{\"notice\":\"Allows the owner of this contract to specify the base of the domain hosting the SVG files.\"},\"setSvgContentsOf(uint256[],string[])\":{\"notice\":\"The owner of this contract can store SVG files for tier IDs.\"},\"setSvgHashsOf(uint256[],bytes32[])\":{\"notice\":\"Allows the owner of this contract to upload the hash of an svg file for a tierId.\"},\"setTierNames(uint256[],string[])\":{\"notice\":\"Allows the owner to set the tier's name.\"},\"svgBaseUri()\":{\"notice\":\"The base of the domain hosting the SVG files that can be lazily uploaded to the contract.\"},\"svgHashOf(uint256)\":{\"notice\":\"The Naked Banny and outfit SVG hash files.\"},\"tokenUriOf(address,uint256)\":{\"notice\":\"Returns the SVG showing a dressed Naked Banny in a world.\"}},\"version\":1}},\"settings\":{\"remappings\":[\"@arbitrum/=node_modules/@arbitrum/\",\"@bananapus/=node_modules/@bananapus/\",\"@chainlink/=node_modules/@chainlink/\",\"@croptop/=node_modules/@croptop/\",\"@eth-optimism/=node_modules/@eth-optimism/\",\"@exhausted-pigeon/=node_modules/@exhausted-pigeon/\",\"@gnosis.pm/=node_modules/@gnosis.pm/\",\"@offchainlabs/=node_modules/@offchainlabs/\",\"@openzeppelin/=node_modules/@openzeppelin/\",\"@prb/=node_modules/@prb/\",\"@rev-net/=node_modules/@rev-net/\",\"@sphinx-labs/contracts/=node_modules/@sphinx-labs/contracts/contracts/foundry/\",\"@uniswap/=node_modules/@uniswap/\",\"base64-sol/=node_modules/base64-sol/\",\"base64/=lib/base64/\",\"ds-test/=lib/forge-std/lib/ds-test/src/\",\"forge-std/=lib/forge-std/src/\",\"hardhat/=node_modules/hardhat/\",\"solmate/=node_modules/solmate/\",\"sphinx-forge-std/=node_modules/sphinx-forge-std/\",\"sphinx-solmate/=node_modules/sphinx-solmate/\",\"sphinx/=lib/sphinx/packages/contracts/contracts/forge-std/src/\"],\"optimizer\":{\"enabled\":true,\"runs\":200},\"metadata\":{\"bytecodeHash\":\"ipfs\"},\"compilationTarget\":{\"src/Banny721TokenUriResolver.sol\":\"Banny721TokenUriResolver\"},\"evmVersion\":\"paris\",\"libraries\":{},\"viaIR\":true},\"sources\":{\"lib/base64/base64.sol\":{\"keccak256\":\"0xa73959e6ef0b693e4423a562e612370160b934a75e618361ddd8c9c4b8ddbaaf\",\"urls\":[\"bzz-raw://17c12e16d8d66f3af15d8787920bd41ca6c1e7517a212a6b9cebd4b6d38f36fe\",\"dweb:/ipfs/QmcXMnZUXEz6LRKsm3CSvqdPboAzmezavi8bTg2dRxM2yE\"],\"license\":\"MIT\"},\"node_modules/@bananapus/721-hook/src/abstract/ERC721.sol\":{\"keccak256\":\"0xc25c7c60c88684adc3f7a49621d27866866a44a3f3796e63c9fcaba75fbb2e84\",\"urls\":[\"bzz-raw://713103b7a05402264493430cfcd7d85f1a241a2eb4756af53a370fa529ea07bf\",\"dweb:/ipfs/QmSXZfxCG1N9XheS1kLCNJZ9k6ZRq4GnAMY7MKFfbKLXmz\"],\"license\":\"MIT\"},\"node_modules/@bananapus/721-hook/src/interfaces/IJB721Hook.sol\":{\"keccak256\":\"0x6cc09b57796ce71a103adb88ee851a9e2f4b5dc42cf7e153371e5c2157c4444d\",\"urls\":[\"bzz-raw://a2d0518c1f6803ab197049839de78debdd97908aa0fc7e44c6742ee209587b46\",\"dweb:/ipfs/QmXzoxr3DNH3NpwvTmRJcwKXFwUZQzCbAeTVh4NZzJedb7\"],\"license\":\"MIT\"},\"node_modules/@bananapus/721-hook/src/interfaces/IJB721TiersHook.sol\":{\"keccak256\":\"0xae662e642cb039931f0cac1a73e3c6b6833cf5edb6c5e3d4864f37cb07791684\",\"urls\":[\"bzz-raw://0942d829b0ba82ececd6de9148c6f3e85c0ecf398d23358086434e31e792b68b\",\"dweb:/ipfs/QmPdtTtoawqq2yTHBhqfs72DVHAQ3dbrjDGnQ3NmkHzLer\"],\"license\":\"MIT\"},\"node_modules/@bananapus/721-hook/src/interfaces/IJB721TiersHookStore.sol\":{\"keccak256\":\"0x8550e216c12c9cda865c1b1b0eb3f244aeaa8d465b197d4bd0dd8d4df265682e\",\"urls\":[\"bzz-raw://674a312f1eaffd7c6b21f58f8d4a628104e71220daf48a22237fa3bd035ddf21\",\"dweb:/ipfs/QmSRSW6cSwdpoGjVxDqiwJmJyCxfHWhCxZ2iaqeJcN2Ccy\"],\"license\":\"MIT\"},\"node_modules/@bananapus/721-hook/src/interfaces/IJB721TokenUriResolver.sol\":{\"keccak256\":\"0xfa599167098f4459320ec4141a98a17b2dfffbce422baa27d8b4e4530f61ece1\",\"urls\":[\"bzz-raw://8b758b161f4c7b520b2c34b4d91e585e961b8f4ca278eebb91d791f7f2f45140\",\"dweb:/ipfs/QmcD9DF7NJ9QykQpT4KPzm4bs3fkjzukdAUWwdU6Atfw85\"],\"license\":\"MIT\"},\"node_modules/@bananapus/721-hook/src/libraries/JBIpfsDecoder.sol\":{\"keccak256\":\"0xb93ba562ac1fc9d3829be00e61f3a90f51df5661cf0f2c819a7f1d8ba19ec171\",\"urls\":[\"bzz-raw://fc9bc948fac8897d9720ef25b13d63c60b40a18aa1897dd1c657fc278c416b4f\",\"dweb:/ipfs/QmNtiJTALZW5zfyKVy7XG5GkqGgMrfkVvU4Auu4bb9cGQc\"],\"license\":\"MIT\"},\"node_modules/@bananapus/721-hook/src/structs/JB721InitTiersConfig.sol\":{\"keccak256\":\"0xfb78486cec94189d0ecf2050dc9cfc11245b426c73a0711a85bff1359d774307\",\"urls\":[\"bzz-raw://a8fa01f6e64dd204dbde07a60851e9a5a74e439e1411139ae16b7cf67d2a2692\",\"dweb:/ipfs/QmZAnHyfpKr3xr7NWHj5sGaCEEtG8RtmHhkRUJJvNauym5\"],\"license\":\"MIT\"},\"node_modules/@bananapus/721-hook/src/structs/JB721Tier.sol\":{\"keccak256\":\"0x2e267a8af02f125465cdda9308477346ae4a94b024c3b2c2a6af0c00027944dd\",\"urls\":[\"bzz-raw://367ccea2c8fa815d498d771d4367ef1ded718a76e89644102034bfe4a3636b82\",\"dweb:/ipfs/QmYiFFa6ei9wZBSSVUHfY2Cb35zCDVXvbmLcgLj2BTiC1u\"],\"license\":\"MIT\"},\"node_modules/@bananapus/721-hook/src/structs/JB721TierConfig.sol\":{\"keccak256\":\"0x2fa9c5c8cec182b854a656d3b284e9d5306be35ad3dc4da79d65dca12b804af0\",\"urls\":[\"bzz-raw://b443a5f70195a66145ea1dade04454ce9a3ff1209e1aaecf53c8a9909b294d79\",\"dweb:/ipfs/QmUDPFZ4L6XpV3zLQUNVchUvecD4XfddKz2S46BKek5XL1\"],\"license\":\"MIT\"},\"node_modules/@bananapus/721-hook/src/structs/JB721TiersHookFlags.sol\":{\"keccak256\":\"0x283d8429f31bd58875c056515aa42abd09c95362bd929e85cfc44a0d92585766\",\"urls\":[\"bzz-raw://9a580b89fe99d9f8e930c58a4d0d63a5ff7c01c79d210af01373d066c9e72ed6\",\"dweb:/ipfs/QmdY1eSGSoTjv4KSdsG4Tm5CzJN6iqk3qTRga5ZWNbejRz\"],\"license\":\"MIT\"},\"node_modules/@bananapus/721-hook/src/structs/JB721TiersMintReservesConfig.sol\":{\"keccak256\":\"0xab3b319dc4e736586ae595de194d93dcdfeba365bc7a54cf6c37e697f6074ad9\",\"urls\":[\"bzz-raw://a84ae2cf2e8c3e39e831dbb39a67a8eb43c78a6de6bb78b1be2e1f1e80c69efe\",\"dweb:/ipfs/QmboGXEMqsYTxc4a7oft9rggNU7ShWSa9yB4HFMVmzXCHz\"],\"license\":\"MIT\"},\"node_modules/@bananapus/core/src/enums/JBApprovalStatus.sol\":{\"keccak256\":\"0x61c69b6bac7d24b566d87cda23a77e4ca9cdb87200b106aba8534cb9a0973e33\",\"urls\":[\"bzz-raw://6a9ca7249de76f77a8252eefe6bd1b63d47952f25a2acfa2c8db967cdff4470c\",\"dweb:/ipfs/QmaxSxptRQNj8bNy96EreENmrnRWdKmhyihBcxyWzBX5BN\"],\"license\":\"MIT\"},\"node_modules/@bananapus/core/src/interfaces/IJBControlled.sol\":{\"keccak256\":\"0x79fb8de7b3f809f1c3c7189f578b7331ec4dfe3350151d5b50240ecb3a2a907b\",\"urls\":[\"bzz-raw://45c82240dd4f0e9aec00d0d86f6b44bdda231db098ebdac17e922771b3e6f342\",\"dweb:/ipfs/QmPUvT8HZeVenrZDpP14HsZofaXPJjih8UAd35rTg3tU7E\"],\"license\":\"MIT\"},\"node_modules/@bananapus/core/src/interfaces/IJBDirectory.sol\":{\"keccak256\":\"0x9cc380844aef60078ee47a61861e55a29c4a8c947efd556ebd36e6909f7b9d62\",\"urls\":[\"bzz-raw://9f5190ec8b6683d9781ee6e9eedcc91294753242748875d4a06349077e4cbaaf\",\"dweb:/ipfs/QmTQrPuXT9TCA4txwrperMeXSGvGxP8iokUK47f62F388i\"],\"license\":\"MIT\"},\"node_modules/@bananapus/core/src/interfaces/IJBPayHook.sol\":{\"keccak256\":\"0x9438866782c652c2942f4d114e35f393cd3c8b0334abce8387eed90bca35e8b2\",\"urls\":[\"bzz-raw://cfd99daf57213f92325aad7d7d16e98476d38e870470e95ba01e3ae3cdecc95d\",\"dweb:/ipfs/QmUKKAVGf7ki8BHksr99tFcRW8APveeB5tNH63ctTbbCW8\"],\"license\":\"MIT\"},\"node_modules/@bananapus/core/src/interfaces/IJBPriceFeed.sol\":{\"keccak256\":\"0x4bd84c0f1a5d4729ed709bcddd43f4c50ec4a165ece79780af8dce482ed07d4a\",\"urls\":[\"bzz-raw://62bac4bfb6982fb002f620c77e5c445e62d50241a5aa64a07e51d929f5a42180\",\"dweb:/ipfs/QmWgJUDreVY2BuMX38a1iUUR5kNbMwGnKG3VvurB7oZtuM\"],\"license\":\"MIT\"},\"node_modules/@bananapus/core/src/interfaces/IJBPrices.sol\":{\"keccak256\":\"0x99525f31440b955742dce84ba57de9fc1221139b5367c1f834723bef9e13e6e1\",\"urls\":[\"bzz-raw://6fa03f0cd4ad87dd7cbae7bf7f54463450874291773c8f70f2c31ef2cae62bb0\",\"dweb:/ipfs/QmSPajPV5ismteJuB6Spzm9VmhTj2iS3eVrfpJC1Zuzg8n\"],\"license\":\"MIT\"},\"node_modules/@bananapus/core/src/interfaces/IJBProjects.sol\":{\"keccak256\":\"0x735c2fb8f1fa827f054ee77f7a0ae4b312656217acb75b624d2c8fd9dc40151b\",\"urls\":[\"bzz-raw://ee7fc92299a8633a80693ae63ab494dcd125f1789487a54a39dc0e5696e5996f\",\"dweb:/ipfs/QmX7YJD4pS2XhgQb7p3JbBAXynT7YGPXcZe92BiWWRrsCL\"],\"license\":\"MIT\"},\"node_modules/@bananapus/core/src/interfaces/IJBRulesetApprovalHook.sol\":{\"keccak256\":\"0x592e95d159494421c6b1bcb362d0cee1df0132921697351304e9cd7af4fbd386\",\"urls\":[\"bzz-raw://5bebfd5fa67c1b6ea16fa2e76e9520e9dfe52a579f48dd94d0c2ec45f78ad178\",\"dweb:/ipfs/QmRUawEGtfYoYSHmHELGhvJoWuMsxLPKtqAXgsrb7fJboP\"],\"license\":\"MIT\"},\"node_modules/@bananapus/core/src/interfaces/IJBRulesets.sol\":{\"keccak256\":\"0xda1a9aef337cf9fede3f638ffa58aea2815b87fde0f79628834aa03af9f582d7\",\"urls\":[\"bzz-raw://7941690ba6d94500474978ff0f02ecc56335eae5937759878e25cc1ac30a8ecc\",\"dweb:/ipfs/QmZFc7wof6PzfBTkVyNkjaQrQbjc36CK4uC3Ee2vgihqyK\"],\"license\":\"MIT\"},\"node_modules/@bananapus/core/src/interfaces/IJBTerminal.sol\":{\"keccak256\":\"0x19dc9bf8cbdc8f13ee5da9dc3a87047eacb94a3fc19740a286c1f0bad2cc39ca\",\"urls\":[\"bzz-raw://0b05ae6fda9a85672508232fd992b8a5f5ffd8096622eeb12c8a7b3317eb3867\",\"dweb:/ipfs/QmNh9Quj37BXYGdTdcCD1Q58PchRsE5TLbEZep56qS3MpV\"],\"license\":\"MIT\"},\"node_modules/@bananapus/core/src/interfaces/IJBTokenUriResolver.sol\":{\"keccak256\":\"0xfa5cb00dcd6085d1ef912d071fe73c63f9478a2cd0f9d8bddaf659b6af2d0967\",\"urls\":[\"bzz-raw://282e4e7c342d65f77cde0e9a08fcaf20ef5cf379c7a48b639842c0ffd0b2afb8\",\"dweb:/ipfs/QmbnN3PEQeZaXdPLT75V1J79kMg7KqSMru37RHrL3z8Yf2\"],\"license\":\"MIT\"},\"node_modules/@bananapus/core/src/structs/JBAccountingContext.sol\":{\"keccak256\":\"0x2907ff54d1e903cc7e0390dd88c3975884702dc2673642aacbe22b66560b56de\",\"urls\":[\"bzz-raw://a66a5381ce877b32f0e0058ceeaf843e9b6b2bc8af666c0c9f4a9d01091da004\",\"dweb:/ipfs/QmQynCetUr37dBkS1YwDS8evxuXGiqanW6THmeUxXtim8w\"],\"license\":\"MIT\"},\"node_modules/@bananapus/core/src/structs/JBAfterPayRecordedContext.sol\":{\"keccak256\":\"0xd26c3a774ff38be79064085970454fe2603a23a638c76270d5b1b3829206c3e8\",\"urls\":[\"bzz-raw://3b55dbe3bf1ef625b7ca04efab3de35406e6041d5b3d82c7265469c500e2b702\",\"dweb:/ipfs/QmUdBDo4Lt3mcsFcsXT2mqq3czFwZjQJFPLM89YA2VtD7k\"],\"license\":\"MIT\"},\"node_modules/@bananapus/core/src/structs/JBRuleset.sol\":{\"keccak256\":\"0x15b2bf3174d84846a91ccbf5a344dfb125b55ed9cf50102db8d6868844225189\",\"urls\":[\"bzz-raw://647416b025dbd941094db89cbc69f755c155bd6c87be3f322394ccc4a8e0442d\",\"dweb:/ipfs/QmTCL9xcHnxQ4t5AmCPoZvXDUPW5xhzhyyXYbkMdyg44au\"],\"license\":\"MIT\"},\"node_modules/@bananapus/core/src/structs/JBTokenAmount.sol\":{\"keccak256\":\"0x5cf0626b73a596c1e2da17c89ae039a7c0374310b060d48568d3b6c11fbe6180\",\"urls\":[\"bzz-raw://63348b50be95e2995409394a17caffc563a646f0972650a1230bf864fbd3219b\",\"dweb:/ipfs/QmZXZpS3SbFD5nWaCauf6AqbEhLURv5qsKHpThBvQgDU6u\"],\"license\":\"MIT\"},\"node_modules/@openzeppelin/contracts/access/Ownable.sol\":{\"keccak256\":\"0xff6d0bb2e285473e5311d9d3caacb525ae3538a80758c10649a4d61029b017bb\",\"urls\":[\"bzz-raw://8ed324d3920bb545059d66ab97d43e43ee85fd3bd52e03e401f020afb0b120f6\",\"dweb:/ipfs/QmfEckWLmZkDDcoWrkEvMWhms66xwTLff9DDhegYpvHo1a\"],\"license\":\"MIT\"},\"node_modules/@openzeppelin/contracts/interfaces/draft-IERC6093.sol\":{\"keccak256\":\"0x60c65f701957fdd6faea1acb0bb45825791d473693ed9ecb34726fdfaa849dd7\",\"urls\":[\"bzz-raw://ea290300e0efc4d901244949dc4d877fd46e6c5e43dc2b26620e8efab3ab803f\",\"dweb:/ipfs/QmcLLJppxKeJWqHxE2CUkcfhuRTgHSn8J4kijcLa5MYhSt\"],\"license\":\"MIT\"},\"node_modules/@openzeppelin/contracts/metatx/ERC2771Context.sol\":{\"keccak256\":\"0x98256cf37b71a69b2f5a8a6fe975ea03590dff703102bd141a830f94e8adebf6\",\"urls\":[\"bzz-raw://6251fe1f6a1e45e6d619d150c123afc88b8646b38ee26a136efa9a6988a31d3f\",\"dweb:/ipfs/QmeXDT85wSZdP31wkz3ah3KhponCiksJLP5o2LR5e1JxcK\"],\"license\":\"MIT\"},\"node_modules/@openzeppelin/contracts/token/ERC721/IERC721.sol\":{\"keccak256\":\"0x5ef46daa3b58ef2702279d514780316efaa952915ee1aa3396f041ee2982b0b4\",\"urls\":[\"bzz-raw://2f8f2a76e23b02fc69e8cd24c3cb47da6c7af3a2d6c3a382f8ac25c6e094ade7\",\"dweb:/ipfs/QmPV4ZS4tPVv4mTCf9ejyZ1ai57EEibDRj7mN2ARDCLV5n\"],\"license\":\"MIT\"},\"node_modules/@openzeppelin/contracts/token/ERC721/IERC721Receiver.sol\":{\"keccak256\":\"0x7f7a26306c79a65fb8b3b6c757cd74660c532cd8a02e165488e30027dd34ca49\",\"urls\":[\"bzz-raw://d01e0b2b837ee2f628545e54d8715b49c7ef2befd08356c2e7f6c50dde8a1c22\",\"dweb:/ipfs/QmWBAn6y2D1xgftci97Z3qR9tQnkvwQpYwFwkTvDMvqU4i\"],\"license\":\"MIT\"},\"node_modules/@openzeppelin/contracts/token/ERC721/extensions/IERC721Metadata.sol\":{\"keccak256\":\"0x37d1aaaa5a2908a09e9dcf56a26ddf762ecf295afb5964695937344fc6802ce1\",\"urls\":[\"bzz-raw://ed0bfc1b92153c5000e50f4021367b931bbe96372ac6facec3c4961b72053d02\",\"dweb:/ipfs/Qmbwp8VDerjS5SV1quwHH1oMXxPQ93fzfLVqJ2RCqbowGE\"],\"license\":\"MIT\"},\"node_modules/@openzeppelin/contracts/utils/Context.sol\":{\"keccak256\":\"0x493033a8d1b176a037b2cc6a04dad01a5c157722049bbecf632ca876224dd4b2\",\"urls\":[\"bzz-raw://6a708e8a5bdb1011c2c381c9a5cfd8a9a956d7d0a9dc1bd8bcdaf52f76ef2f12\",\"dweb:/ipfs/Qmax9WHBnVsZP46ZxEMNRQpLQnrdE4dK8LehML1Py8FowF\"],\"license\":\"MIT\"},\"node_modules/@openzeppelin/contracts/utils/Strings.sol\":{\"keccak256\":\"0x55f102ea785d8399c0e58d1108e2d289506dde18abc6db1b7f68c1f9f9bc5792\",\"urls\":[\"bzz-raw://6e52e0a7765c943ef14e5bcf11e46e6139fa044be564881378349236bf2e3453\",\"dweb:/ipfs/QmZEeeXoFPW47amyP35gfzomF9DixqqTEPwzBakv6cZw6i\"],\"license\":\"MIT\"},\"node_modules/@openzeppelin/contracts/utils/introspection/ERC165.sol\":{\"keccak256\":\"0x9e8778b14317ba9e256c30a76fd6c32b960af621987f56069e1e819c77c6a133\",\"urls\":[\"bzz-raw://1777404f1dcd0fac188e55a288724ec3c67b45288e49cc64723e95e702b49ab8\",\"dweb:/ipfs/QmZFdC626GButBApwDUvvTnUzdinevC3B24d7yyh57XkiA\"],\"license\":\"MIT\"},\"node_modules/@openzeppelin/contracts/utils/introspection/IERC165.sol\":{\"keccak256\":\"0x4296879f55019b23e135000eb36896057e7101fb7fb859c5ef690cf14643757b\",\"urls\":[\"bzz-raw://87b3541437c8c443ccd36795e56a338ed12855eec17f8da624511b8d1a7e14df\",\"dweb:/ipfs/QmeJQCtZrQjtJLr6u7ZHWeH3pBnjtLWzvRrKViAi7UZqxL\"],\"license\":\"MIT\"},\"node_modules/@openzeppelin/contracts/utils/math/Math.sol\":{\"keccak256\":\"0x005ec64c6313f0555d59e278f9a7a5ab2db5bdc72a027f255a37c327af1ec02d\",\"urls\":[\"bzz-raw://4ece9f0b9c8daca08c76b6b5405a6446b6f73b3a15fab7ff56e296cbd4a2c875\",\"dweb:/ipfs/QmQyRpyPRL5SQuAgj6SHmbir3foX65FJjbVTTQrA2EFg6L\"],\"license\":\"MIT\"},\"node_modules/@openzeppelin/contracts/utils/math/SignedMath.sol\":{\"keccak256\":\"0x5f7e4076e175393767754387c962926577f1660dd9b810187b9002407656be72\",\"urls\":[\"bzz-raw://7d533a1c97cd43a57cd9c465f7ee8dd0e39ae93a8fb8ff8e5303a356b081cdcc\",\"dweb:/ipfs/QmVBEei6aTnvYNZp2CHYVNKyZS4q1KkjANfY39WVXZXVoT\"],\"license\":\"MIT\"},\"src/Banny721TokenUriResolver.sol\":{\"keccak256\":\"0x592db1024026c3991aa901154b822d5926ea89d5975fa3a2c9ba228b82eec65a\",\"urls\":[\"bzz-raw://20d49d0e76a042898354aa082a656542329835ece0a9b30373b52fe9ad3c913a\",\"dweb:/ipfs/QmTZLRmBpgvYVR68KREEpPGYdQ442R6r8bQURysW9NuFRb\"],\"license\":\"MIT\"}},\"version\":1}",
			"args": [
				"0x584F5Da53cb18789099466074e3B5c32Ed17243a",
				"0xB2b5841DBeF766d4b521221732F9B618fCf34A87"
			],
			"bytecode": "0x60a034620000e957601f62005c3b38819003918201601f19168301916001600160401b03831184841017620000ee578084926040948552833981010312620000e9576200005a6020620000528362000104565b920162000104565b6080526001600160a01b039081168015620000d057600080546001600160a01b03198116831782556040519316907f8be0079c531659141344cd1fd0a4f28419497f9722a3daafe3b4186f6b6457e09080a3615b2190816200011a82396080518181816108e5015281816109e501526155c20152f35b604051631e4fbdf760e01b815260006004820152602490fd5b600080fd5b634e487b7160e01b600052604160045260246000fd5b51906001600160a01b0382168203620000e95756fe6080604052600436101561001257600080fd5b60003560e01c806257bfdd146101265780631e4578de1461012157806331a290ac1461011c5780634d03376e14610117578063572b6c05146101125780635e703e711461010d5780636aff31dd14610108578063715018a6146101035780637da0a877146100fe578063875e4bea146100f95780638da5cb5b146100f4578063aeac5e35146100ef578063b03a3eab146100ea578063c06e7bc7146100e5578063f2fde38b146100e0578063f92df2e3146100db5763fff628c6146100d657600080fd5b6114a9565b61147a565b6113ee565b610d95565b610cf2565b610bce565b610ba5565b610a14565b6109cf565b610971565b610945565b610919565b6108c1565b6107df565b610615565b610486565b61040b565b90600182811c9216801561015b575b602083101461014557565b634e487b7160e01b600052602260045260246000fd5b91607f169161013a565b634e487b7160e01b600052604160045260246000fd5b602081019081106001600160401b0382111761019657604052565b610165565b6111a081019081106001600160401b0382111761019657604052565b606081019081106001600160401b0382111761019657604052565b6101c081019081106001600160401b0382111761019657604052565b61026081019081106001600160401b0382111761019657604052565b604081019081106001600160401b0382111761019657604052565b90601f801991011681019081106001600160401b0382111761019657604052565b604051906000826002549161025a8361012b565b808352926020906001908181169081156102e85750600114610287575b505061028592500383610225565b565b91509260026000527f405787fa12a823e0f2b7631cc41b3ba8828b3321ca811111fa75cd3aa3bb5ace936000925b8284106102d057506102859450505081016020013880610277565b855488850183015294850194879450928101926102b5565b9150506020925061028594915060ff191682840152151560051b8201013880610277565b9060405191826000825461031f8161012b565b9081845260209460019160018116908160001461038d575060011461034e575b50505061028592500383610225565b600090815285812095935091905b818310610375575050610285935082010138808061033f565b8554888401850152948501948794509183019161035c565b9250505061028594925060ff191682840152151560051b82010138808061033f565b60005b8381106103c25750506000910152565b81810151838201526020016103b2565b906020916103eb815180928185528580860191016103af565b601f01601f1916010190565b9060206104089281815201906103d2565b90565b3461043f57600036600319011261043f5761043b610427610246565b6040519182916020835260208301906103d2565b0390f35b600080fd5b604081019181526060602091604060208201528151809452019160809160005b828110610472575050505090565b835185529381019392810192600101610464565b3461043f5760208060031936011261043f57600435906000918083526005602052604083209060405180938491602085549182815201948752602087209187905b82821061053457505050506104e1906104f1930384610225565b6000526006602052604060002090565b5491815191815b83811061050d576040518061043b8782610444565b8061051a60019284611529565b5161052d61052786611553565b95611504565b52016104f8565b8354875295860195879450600193840193909101906104c7565b604051906101a082018281106001600160401b0382111761019657604052565b6001600160401b0381116101965760051b60200190565b9080601f8301121561043f57602090823561059f8161056e565b936105ad6040519586610225565b81855260208086019260051b82010192831161043f57602001905b8282106105d6575050505090565b813581529083019083016105c8565b9181601f8401121561043f578235916001600160401b03831161043f576020808501948460051b01011161043f57565b3461043f5760408060031936011261043f576001600160401b036004803582811161043f576106479036908301610585565b9160243590811161043f5761065f90369083016105e5565b909183519060005b8281106106b0575050506106ab61069e7f7b414cb0ad21f3dfa349dbd1d4ca10eeb276661a7af9df6e18086aed7c31c8d694611750565b94519283923391846117ab565b0390a2005b6106ba8187611529565b516106d06106c9838789611567565b36916107a8565b906106ed6106e8826000526004602052604060002090565b6115a8565b61077d57610705816000526001602052604060002090565b54801561076d578951602081019061072f8161072184886115b2565b03601f198101835282610225565b5190200361075d5760019291610752610757926000526004602052604060002090565b61167b565b01610667565b88516375b5da0b60e01b81528490fd5b8951637ef41a4f60e01b81528590fd5b8851630388067760e21b81528490fd5b6001600160401b03811161019657601f01601f191660200190565b9291926107b48261078d565b916107c26040519384610225565b82948184528183011161043f578281602093846000960137010152565b3461043f57604036600319011261043f576001600160401b0360043581811161043f57610810903690600401610585565b60249060243583811161043f573660238201121561043f578060040135926108378461056e565b936108456040519586610225565b8085526020956024602087019260051b8501019336851161043f5760248101925b858410610879576108778888611848565b005b833583811161043f5782013660438201121561043f5789916108a58392369060448a82013591016107a8565b815201930192610866565b6001600160a01b0381160361043f57565b3461043f57602036600319011261043f5760206004356108e0816108b0565b6040517f00000000000000000000000000000000000000000000000000000000000000006001600160a01b039081169216919091148152f35b3461043f57604036600319011261043f5761043b61042760043561093c816108b0565b60243590611ca6565b3461043f57602036600319011261043f5760043560005260016020526020604060002054604051908152f35b3461043f576000806003193601126109cc5761098b612d3d565b80546001600160a01b03198116825581906001600160a01b03167f8be0079c531659141344cd1fd0a4f28419497f9722a3daafe3b4186f6b6457e08280a380f35b80fd5b3461043f57600036600319011261043f576040517f00000000000000000000000000000000000000000000000000000000000000006001600160a01b03168152602090f35b3461043f5760208060031936011261043f576004356001600160401b0380821161043f573660238301121561043f57816004013590811161043f57602492366024838501011161043f57610a66612d3d565b610a7a82610a7560025461012b565b6115e0565b600093601f8311600114610af8575050610acd81807f512c3c91736f50c57a0548c1d01ab02f24c420f002b8b20e2bfe63df9693cd3f95600091610aea575b508160011b916000199060031b1c19161790565b6002555b610ae560405192839260243392018461203e565b0390a1005b602491508501013538610ab9565b6002600052601f19831694907f405787fa12a823e0f2b7631cc41b3ba8828b3321ca811111fa75cd3aa3bb5ace9282915b878310610b8957505050827f512c3c91736f50c57a0548c1d01ab02f24c420f002b8b20e2bfe63df9693cd3f9510610b6c575b5050600181811b01600255610ad1565b830160240135600019600384901b60f8161c191690553880610b5c565b908060018596848396978b010135815501950193019190610b29565b3461043f57600036600319011261043f576000546040516001600160a01b039091168152602090f35b3461043f57604036600319011261043f57600435610beb816108b0565b60405163507f146560e01b815260243591906001600160a01b03906020816004818587165afa8015610cbc57610c629360009386938593610cc1575b5060405163c44a8e6d60e01b81526001600160a01b039092166004830152602482019390935260006044820152938492839182906064820190565b0392165afa918215610cbc5761043b92610c8d92600091610c99575b506101008151910151916126f5565b604051918291826103f7565b610cb691503d806000833e610cae8183610225565b810190611a99565b38610c7e565b611a35565b610ce491935060203d602011610ceb575b610cdc8183610225565b810190611a20565b9138610c27565b503d610cd2565b3461043f57604036600319011261043f576001600160401b0360043581811161043f57610d23903690600401610585565b9060243590811161043f573660238201121561043f578060040135610d478161056e565b91610d556040519384610225565b8183526020916024602085019160051b8301019136831161043f57602401905b828210610d86576108778587612067565b81358152908301908301610d75565b3461043f57608036600319011261043f57610db16004356108b0565b6064356001600160401b03811161043f57610dd09036906004016105e5565b906040516331a9108f60e11b815260208180610df6602435600483019190602083019252565b03816004356001600160a01b03165afa908115610cbc576000916113cf575b50610e2d610e216155bf565b6001600160a01b031690565b6001600160a01b03909116036113bd576044351561139f576040516331a9108f60e11b81526044356004820152602081806024810103816004356001600160a01b03165afa908115610cbc57600091611380575b50610e8d610e216155bf565b6001600160a01b039091160361136e5760405163507f146560e01b815260208160048181356001600160a01b03165afa908115610cbc5760009161134f575b5060405163c44a8e6d60e01b81526001600160a01b03600480358216908301526044803560248401526000908301819052919283916064918391165afa908115610cbc57600091611334575b50511561132257604435610f386024356000526006602052604060002090565b555b6000610f4461214a565b5080808080805b878610610fc4578787610f748282610f6f6024356000526005602052604060002090565b6121e3565b7f6a68946ba06488db8585d7c7637fa954b574035fe15720ea760125ef86017258610fbf610fa06155bf565b6040519182916024359660018060a01b0360043516966044358561225c565b0390a3005b610fcf8689896121bb565b6040516331a9108f60e11b81529035600482018190529290602081806024810103816004356001600160a01b03165afa908115610cbc57600091611303575b5061101a610e216155bf565b6001600160a01b03909116036112f15760405163507f146560e01b815260208160048181356001600160a01b03165afa938415610cbc576110999460009283916112d2575b50604051808097819463c44a8e6d60e01b8352600435600484016040906000929493606082019560018060a01b0316825260208201520152565b03916001600160a01b03165afa928315610cbc576000936112b7575b508251156112a5576101008301516002811090811561129a575b50611288578615159081611278575b506112665761010082015160048103611106575050600161010081925b015195019490610f4b565b9194909160058103611120575050600161010081956110fb565b90949290600b810361113a575050600161010081936110fb565b9293909260098103611154575050600161010081946110fb565b600d819592951490818215928361125c575b8015611252575b8061124b575b1561118a5760405163167e5dcd60e31b8152600490fd5b600682148081159182611241575b8015611237575b80611230575b156111bc57604051631e550b6f60e11b8152600490fd5b90611226575b8061121f575b156111df576040516354f653b360e01b8152600490fd5b91611214575b508061120d575b6111fb576101006001916110fb565b604051635e701b2b60e01b8152600490fd5b50826111ec565b600c915014386111e5565b50876111c8565b50600782146111c2565b50866111a5565b506008841461119f565b5060078414611198565b5086611173565b50600a821461116d565b50600c8214611166565b604051637dc0e82560e11b8152600490fd5b90506101008301511115386110de565b60405163c89badbd60e01b8152600490fd5b600f915011386110cf565b6040516354c0901d60e11b8152600490fd5b6112cb91933d8091833e610cae8183610225565b91386110b5565b6112eb915060203d602011610ceb57610cdc8183610225565b3861105f565b60405163812a698960e01b8152600490fd5b61131c915060203d602011610ceb57610cdc8183610225565b3861100e565b60405163265ba87960e01b8152600490fd5b61134991503d806000833e610cae8183610225565b38610f18565b611368915060203d602011610ceb57610cdc8183610225565b38610ecc565b604051639d17cec760e01b8152600490fd5b611399915060203d602011610ceb57610cdc8183610225565b38610e81565b60006113b76024356000526006602052604060002090565b55610f3a565b6040516307d59f1360e21b8152600490fd5b6113e8915060203d602011610ceb57610cdc8183610225565b38610e15565b3461043f57602036600319011261043f5760043561140b816108b0565b611413612d3d565b6001600160a01b03908116801561146157600080546001600160a01b03198116831782559092167f8be0079c531659141344cd1fd0a4f28419497f9722a3daafe3b4186f6b6457e08380a380f35b604051631e4fbdf760e01b815260006004820152602490fd5b3461043f57606036600319011261043f5761043b6104276044356024356004356126f5565b8015150361043f57565b3461043f57608036600319011261043f5761043b6104276004356114cc816108b0565b6044356114d88161149f565b606435916114e58361149f565b60243590612b67565b634e487b7160e01b600052603260045260246000fd5b6060518110156115175760051b60800190565b6114ee565b8051156115175760200190565b80518210156115175760209160051b010190565b634e487b7160e01b600052601160045260246000fd5b60001981146115625760010190565b61153d565b91908110156115175760051b81013590601e198136030182121561043f5701908135916001600160401b03831161043f57602001823603811361043f579190565b610408905461012b565b906115c5602092828151948592016103af565b0190565b8181106115d4575050565b600081556001016115c9565b90601f82116115ed575050565b6102859160026000527f405787fa12a823e0f2b7631cc41b3ba8828b3321ca811111fa75cd3aa3bb5ace906020601f840160051c83019310611637575b601f0160051c01906115c9565b909150819061162a565b9190601f811161165057505050565b610285926000526020600020906020601f840160051c8301931061163757601f0160051c01906115c9565b91909182516001600160401b038111610196576116a28161169c845461012b565b84611641565b602080601f83116001146116e5575081906116d69394956000926116da575b50508160011b916000199060031b1c19161790565b9055565b0151905038806116c1565b90601f198316956116fb85600052602060002090565b926000905b8882106117385750508360019596971061171f575b505050811b019055565b015160001960f88460031b161c19169055388080611715565b80600185968294968601518155019501930190611700565b60405190818183925160208092019160005b828110611773575050505003902090565b835185528695509381019392810192600101611762565b908060209392818452848401376000828201840152601f01601f1916010190565b9392919081604086016040875252606085019160608160051b87010192826000905b8382106117ef5750505050509060206102859294019060018060a01b03169052565b9091929394605f198982030184528535601e198336030181121561043f578201803560208092016001600160401b03821161043f57813603811361043f57600193839261183b9261178a565b97019594019201906117cd565b9190611852612d3d565b8251926000935b8085106118a657507f31ddb2f0a32be79206d6bf3e670f8cc38863c4984b95cdbe8ed6eba58207a3a5919293506118926118a191611750565b926040519182913390836119ac565b0390a2565b6118b08583611529565b51946118bc8185611529565b5195600052600360208181526040600020918851916001600160401b038311610196576118f3836118ed865461012b565b86611641565b8091601f8411600114611938575050908061192b926001969798999a6000926116da5750508160011b916000199060031b1c19161790565b90555b0193929190611859565b9091601f1984169a61194f86600052602060002090565b936000905b8d821061199457505084600198999a9b9c1061197a575b50505050831b8301905561192e565b01519060f884600019921b161c191690553880808061196b565b80600185978294968601518155019601930190611954565b909291926040820190604083528051809252606083019160608160051b850101916020809101936000905b8382106119f45750505050602091509360018060a01b0316910152565b909192938380611a10600193605f198b820301865289516103d2565b97019201920190949392916119d7565b9081602091031261043f5751610408816108b0565b6040513d6000823e3d90fd5b5190610285826108b0565b51906102858261149f565b81601f8201121561043f578051611a6d8161078d565b92611a7b6040519485610225565b8184526020828401011161043f5761040891602080850191016103af565b60208183031261043f5780516001600160401b039182821161043f57016101a08184031261043f57611ac961054e565b92815184526020820151602085015260408201516040850152606082015160608501526080820151608085015260a082015160a0850152611b0c60c08301611a41565b60c085015260e082015160e08501526101008083015190850152610120611b34818401611a4c565b90850152610140611b46818401611a4c565b90850152610160611b58818401611a4c565b90850152610180928383015190811161043f57611b759201611a57565b9082015290565b60405190611b898261017b565b60008252565b90604051918260605160005b818110611bd0575090602061028593611bc48294840191838301600081528151948592016103af565b01038085520183610225565b6020919250806080015182828801015201908491611b9b565b6020610285919392936040519481611c0a87935180928680870191016103af565b8201611bc4825180938680850191016103af565b9060208282031261043f5781516001600160401b03811161043f576104089201611a57565b9081602091031261043f575190565b90610285603d60405180947f646174613a6170706c69636174696f6e2f6a736f6e3b6261736536342c0000006020830152611c9681518092602086860191016103af565b810103601d810185520183610225565b6040805163507f146560e01b808252602094929392906001600160a01b03908185168785600481845afa948515610cbc5760009561201f575b50865163c44a8e6d60e01b81526001600160a01b03871660048201526024810185905260006044820181905290958690606490829087165afa948515610cbc57600095612004575b50845115611ff4576101008501805190939015611fea57611d49865188612df2565b968751611fb3575b875115611e87575050505094611e76611e68611e8296611de5611e01611de598611de5611deb8a611dc76104089f611d98611dae9d611dc29f92611d9f93519051916126f5565b92516146b9565b9488519c8d918d8301906115b2565b039b611dc2601f199d8e8101835282610225565b614893565b9651683d913730b6b2911d1160b91b9a81019a8b529c8d9a60090190565b906115b2565b691116101134b2111d101160b11b8152600a0190565b7f222c226465736372697074696f6e223a2241207069656365206f66207468652081527f42616e6e797665727365222c22696d616765223a22646174613a696d6167652f60208201526e1cdd99cade1b5b0ed8985cd94d8d0b608a1b6040820152604f0190565b61227d60f01b815260020190565b03908101835282610225565b611c52565b92965092600f9195505111600014611fa4578551636c0360eb60e01b8152600081600481885afa8015610cbc578891600091611f81575b50955b600488518097819382525afa918215610cbc57611f14968895600094611f62575b5051630c8df17160e41b81526001600160a01b0390921660048301526024820193909352948592839182906044820190565b0392165afa918215610cbc5761040893600093611f33575b5050614608565b611f53929350803d10611f5b575b611f4b8183610225565b810190611c43565b903880611f2c565b503d611f41565b611f7a919450863d8811610ceb57610cdc8183610225565b9238611ee2565b611f9e91503d806000833e611f968183610225565b810190611c1e565b38611ebe565b86611fad610246565b95611ec1565b96611fc6906001865103611fcc57614514565b96611d51565b611fe590611fe0611fdb612eed565b61444e565b611be9565b614514565b611fc68588612980565b5050505050505050610408611b7c565b61201891953d8091833e610cae8183610225565b9338611d27565b612037919550883d8a11610ceb57610cdc8183610225565b9338611cdf565b916020916120579195949560408552604085019161178a565b6001600160a01b03909416910152565b61206f612d3d565b805160005b8181106120ef57505061208690611750565b9060405190818183925160208092019160005b8281106120d857505050500390206040513381529091907fb0c948934b683b0d319be35a6898bce339f877d721976592196eef848acc69c390602090a3565b835185528695509381019392810192600101612099565b6120f98184611529565b516121048286611529565b51908060005260016020526040806000205461213a575090612133600193926000526001602052604060002090565b5501612074565b516333ded41b60e21b8152600490fd5b604051906101a082018281106001600160401b0382111761019657604052606061018083600080825280602083015280604083015280848301528060808301528060a08301528060c08301528060e08301528061010083015280610120830152806101408301526101608201520152565b91908110156115175760051b0190565b600281901b91906001600160fe1b0381160361156257565b906001600160401b0383116101965768010000000000000000831161019657815483835580841061223e575b50906000526020806000209060005b84811061222c575050505050565b8335838201559281019260010161221e565b612256908360005284602060002091820191016115c9565b3861220f565b9081526060602082018190528101839052929392916001600160fb1b03811161043f5760409160809160051b8091838601378301019360018060a01b0316910152565b60226102859193929360405194816122c18793518092602080870191016103af565b820161202360f01b60208201526122e182518093602087850191016103af565b01036002810185520183610225565b90610285602960405180946802a37b83834b7339d160bd1b602083015261232081518092602086860191016103af565b8101036009810185520183610225565b90610285602660405180946502334b9ba1d160d51b602083015261235d81518092602086860191016103af565b8101036006810185520183610225565b90610285602d60405180946c029bab4ba103137ba3a37b69d1609d1b60208301526123a181518092602086860191016103af565b810103600d810185520183610225565b90610285602a604051809469029bab4ba103a37b81d160b51b60208301526123e281518092602086860191016103af565b810103600a810185520183610225565b906102856026604051809465029bab4ba1d160d51b602083015261235d81518092602086860191016103af565b90610285602660405180946502432b0b21d160d51b602083015261235d81518092602086860191016103af565b90610285602660405180946502430b4b91d160d51b602083015261235d81518092602086860191016103af565b906102856027604051809466026b7baba341d160cd1b60208301526124a781518092602086860191016103af565b8101036007810185520183610225565b906102856026604051809465022bcb2b99d160d51b602083015261235d81518092602086860191016103af565b90610285602660405180946502330b1b29d160d51b602083015261235d81518092602086860191016103af565b90610285602a60405180946902732b1b5b630b1b29d160b51b60208301526123e281518092602086860191016103af565b906102856026604051809465029b437b29d160d51b602083015261235d81518092602086860191016103af565b90610285602a60405180946902130b1b5b9b4b2329d160b51b60208301526123e281518092602086860191016103af565b90610285602760405180946602bb7b936321d160cd1b60208301526124a781518092602086860191016103af565b906102856035604051809474027b934b3b4b730b6102730b5b2b2102130b7373c9605d1b602083015261260a81518092602086860191016103af565b8101036015810185520183610225565b906102856033604051809472027b930b733b2902730b5b2b2102130b7373c9606d1b602083015261265481518092602086860191016103af565b8101036013810185520183610225565b90610285603160405180947002834b735902730b5b2b2102130b7373c9607d1b602083015261269c81518092602086860191016103af565b8101036011810185520183610225565b906102856032604051809471020b634b2b7102730b5b2b2102130b7373c960751b60208301526126e581518092602086860191016103af565b8101036012810185520183610225565b91633b9aca008306916001810361271a57505050612715610408916146b9565b6126ac565b6002810361273657505050612731610408916146b9565b612664565b600381036127525750505061274d610408916146b9565b61261a565b6004810361276e57505050612769610408916146b9565b6125ce565b61278e91929350612789906000526003602052604060002090565b61030c565b9180612899575b50600181036127a85750610408906125a0565b600281036127ba57506104089061256f565b600a81036127cc575061040890612542565b600381036127de575061040890612511565b600581036127f05750610408906124e4565b600681036128025750610408906124b7565b60078103612814575061040890612479565b6008810361282657506104089061244c565b6004810361283857506104089061241f565b600b810361284a5750610408906123f2565b600d810361285c5750610408906123b1565b600c810361286e57506104089061236d565b600e8103612880575061040890612330565b600f146128905750610408611b7c565b610408906122f0565b90918051156000146128b757506128af906146b9565b905b38612795565b6128c36128c9926146b9565b9061229f565b906128b1565b919060408382031261043f5782519260209081810151906001600160401b03821161043f57019180601f8401121561043f57825161290c8161056e565b9361291a6040519586610225565b818552838086019260051b82010192831161043f578301905b828210612941575050505090565b81518152908301908301612933565b3d1561297b573d906129618261078d565b9161296f6040519384610225565b82523d6000602084013e565b606090565b60405163507f146560e01b8152906001600160a01b036020836004818585165afa928315610cbc57600093612b43575b5060405163c44a8e6d60e01b81526001600160a01b0383166004820152602481018590526000604482018190529093909184916064918391165afa918215610cbc57600092612b28575b50815115612b1d576060610100830151612af657604051630f22bc6f60e11b8152600481019490945261040893612a83929082906000908181602481305afa9081600091600093612acf575b50612ac157505090612a7b91612a5a612950565b505b80151580612ab9575b612a9f575b50612a758651614973565b90611be9565b935190615195565b8051612a90575b50614514565b612a9991611be9565b38612a8a565b612ab39150612aae9084612df2565b611b8f565b38612a6a565b506001612a65565b909450612a7b929150612a5c565b909250612aef91503d806000833e612ae78183610225565b8101906128cf565b9138612a46565b5090612b0492505190612df2565b805115612b145761040890614514565b50610408611b7c565b505050610408611b7c565b612b3c91923d8091833e610cae8183610225565b90386129fa565b6000919350612b609060203d602011610ceb57610cdc8183610225565b92906129b0565b60405163507f146560e01b8152909390916001600160a01b03602084600481848a165afa938415610cbc57600094612d19575b5060405163c44a8e6d60e01b81526001600160a01b0387166004820152602481018390526000604482018190529094909185916064918391165afa928315610cbc57600093612cfe575b50825115612cf157606094610100840151612ce157604051630f22bc6f60e11b81526004810192909252610408959182906000908181602481305afa9081600091600093612cc2575b50612cb2575050612c5f929394612c42612950565b505b8115159081612caa575b50612c95575b50612a758551614973565b93612c6d575b505050614514565b612c78925190615195565b8051612c86575b8080612c65565b612c8f91611be9565b38612c7f565b612ca49150612aae9084612df2565b38612c54565b905038612c4e565b909150612c5f9394509094612c44565b909250612cda91503d806000833e612ae78183610225565b9138612c2d565b93505050612b0492505190612df2565b5050505050610408611b7c565b612d1291933d8091833e610cae8183610225565b9138612be4565b6000919450612d369060203d602011610ceb57610cdc8183610225565b9390612b9a565b6000546001600160a01b0390811681612d546155bf565b1603612d5d5750565b602490612d686155bf565b60405163118cdaa760e01b815291166004820152fd5b9061028560566040518094751e339f1e34b6b0b3b2903c3634b7359d343932b31e9160511b6020830152612dbc8151809260206036860191016103af565b81017f222077696474683d2234303022206865696768743d22343030222f3e3c2f673e6036820152036036810185520183610225565b612e09612789836000526004602052604060002090565b8051612ee7575060405163507f146560e01b81526001600160a01b039260209283836004818489165afa908115610cbc57612e7c958594600093612ec8575b50604051632f54648f60e21b81526001600160a01b0390921660048301526024820193909352948592839182906044820190565b0392165afa8015610cbc5761040892612ea692600092612eab575b5050612ea1610246565b614608565b612d7e565b612ec19250803d10611f5b57611f4b8183610225565b3880612e97565b612ee0919350853d8711610ceb57610cdc8183610225565b9138612e48565b91505090565b60405190612efa8261019b565b61117a82527f762d31306833762d376833762d33682d31307a222f3e3c2f673e000000000000611180837f3c6720636c6173733d226131223e3c7061746820643d224d313733203533683460208201527f763137682d347a222f3e3c2f673e3c6720636c6173733d226132223e3c70617460408201527f6820643d224d3136372035376833763130682d337a222f3e3c7061746820643d60608201527f224d3136392035336834763137682d347a222f3e3c2f673e3c6720636c61737360808201527f3d226133223e3c7061746820643d224d31363720353368337634682d337a222f60a08201527f3e3c7061746820643d224d3136332035376834763130682d347a222f3e3c706160c08201527f746820643d224d31363720363768337633682d337a222f3e3c2f673e3c67206360e08201527f6c6173733d226231223e3c7061746820643d224d32313320323533682d33762d6101008201527f332d33682d33762d372d33682d34762d3130682d33762d372d372d33682d33766101208201527f2d3733682d34762d3130682d33762d3130682d33762d37682d34762d37682d336101408201527f762d33682d33762d33682d3476313068347631306833763130683376336834766101608201527f37203320373020336833763768337632306834763768337633683376336834766101808201527f34683376336833762d332d347a222f3e3c7061746820643d224d3235332033306101a08201527f37762d34682d33762d33682d33762d33682d34762d34682d33762d33682d33766101c08201527f2d33682d34762d34682d33762d33682d33762d33682d34762d34682d33762d366101e08201527f682d33762d37682d3476313768347633683376336833203476346833763368336102008201527f76336834763468337633683376336834763468337633683376336834762d36686102208201527f2d347a222f3e3c2f673e3c6720636c6173733d226232223e3c7061746820643d6102408201527f224d32353020333130762d33682d33762d34682d34762d33682d33762d33682d6102608201527f33762d34682d34762d33682d33762d33682d33762d34682d37762d33682d33766102808201527f2d33682d34762d3137682d33762d33682d33762d34682d34762d33682d33762d6102a08201527f33682d33762d37682d34762d3230682d33762d37682d33762d37332d332d37686102c08201527f2d34762d33682d33762d3130682d33762d3130682d34563730682d33762d336c6102e08201527f2d332031303020332d313030763430682d33763130682d347636682d337631346103008201527f682d337633203133682d347634346834763136683376313468337631336834766103208201527f31306833763768337633683476336833763468337633683476336833763468336103408201527f76336834763368337637683776376836763368377633683776346831337633686103608201527f337633683130762d33682d337a6d2d3130332d3837762d31366833762d3130686103808201527f2d337636682d34763137682d337631306833762d3768347a222f3e3c706174686103a08201527f20643d224d3134332032333068347637682d347a6d3420313068337633682d336103c08201527f7a6d33203768337633682d337a6d33203668347634682d347a222f3e3c7061746103e08201527f6820643d224d31363320323537682d36763368337633683376346834762d342d6104008201527f33682d34762d337a222f3e3c2f673e3c6720636c6173733d226233223e3c70616104208201527f746820643d224d3134332031393776366834762d366836762d34346834762d316104408201527f366833762d31346833762d366834762d31306833563937682d377636682d33766104608201527f34682d337633682d347633682d3376342033682d3376332034682d34763130686104808201527f2d337631362034682d337634366833762d3668337a222f3e3c7061746820643d6104a08201527f224d313430203230336833763137682d337a222f3e3c7061746820643d224d316104c08201527f3337203232306833763130682d337a222f3e3c7061746820643d224d313533206104e08201527f323530682d33762d37682d33762d36682d34762d37682d3376313068337637686105008201527f347636683376346833762d377a6d2d3320313068337637682d337a222f3e3c706105208201527f61746820643d224d3134372032353768337633682d337a6d36203068347633686105408201527f2d347a222f3e3c7061746820643d224d31363020323633762d33682d337633206105608201527f376836762d37682d337a6d2d31302d3536763136682d337637683376313068336105808201527f763768347636683676346837762d342d33682d33762d3130682d34762d3133686105a08201527f2d33762d3134682d33762d3136682d34763130682d337a222f3e3c70617468206105c08201527f643d224d32343320333133762d33682d33762d33682d31302d33762d34682d376105e08201527f762d33682d37762d33682d36762d37682d37762d37682d33762d33682d34762d6106008201527f33682d33762d34682d33762d33682d34762d33682d33762d34682d33762d33686106208201527f2d34762d33682d33763130682d337633682d347633682d3376376833763768346106408201527f76366833763568347633683676336833763368342033763368332034763368336106608201527f20337634683130763368372037203376336831302033762d33683130762d33686106808201527f34762d34682d31347a222f3e3c2f673e3c6720636c6173733d226234223e3c706106a08201527f61746820643d224d3138332031333068347637682d347a222f3e3c70617468206106c08201527f643d224d3138302031323768337633682d337a6d2d32372d3468347637682d346106e08201527f7a222f3e3c7061746820643d224d3135372031313768337636682d337a222f3e6107008201527f3c7061746820643d224d3136302031313068337637682d337a222f3e3c7061746107208201527f6820643d224d3136332031303768347633682d347a6d2d3320383368337637686107408201527f2d337a222f3e3c7061746820643d224d3136332031383768347633682d347a6d6107608201527f3230203068377633682d377a222f3e3c7061746820643d224d313830203139306107808201527f68337633682d337a6d31302d3768337634682d337a222f3e3c7061746820643d6107a08201527f224d3139332031383768347636682d347a6d2d323020353368347637682d347a6107c08201527f222f3e3c7061746820643d224d3137372032343768337636682d337a222f3e3c6107e08201527f7061746820643d224d3138302032353368337637682d337a222f3e3c706174686108008201527f20643d224d3138332032363068377633682d377a222f3e3c7061746820643d226108208201527f4d3139302032363368337634682d337a6d302d323068337634682d337a222f3e6108408201527f3c7061746820643d224d3138372032343068337633682d337a222f3e3c7061746108608201527f6820643d224d3139302032333768337633682d337a6d313320323368347633686108808201527f2d347a222f3e3c7061746820643d224d3230372032363368337637682d337a226108a08201527f2f3e3c7061746820643d224d3231302032373068337633682d337a6d2d3130206108c08201527f3768337636682d337a222f3e3c7061746820643d224d323033203238336834766108e08201527f37682d347a222f3e3c7061746820643d224d3230372032393068367633682d366109008201527f7a222f3e3c2f673e3c6720636c6173733d226f223e3c7061746820643d224d316109208201527f3333203135376834763530682d347a6d302036336834763130682d347a6d32376109408201527f2d3136336833763130682d337a222f3e3c7061746820643d224d3136332035336109608201527f68347634682d347a222f3e3c7061746820643d224d31363720353068313076336109808201527f682d31307a222f3e3c7061746820643d224d3137372035336833763137682d336109a08201527f7a222f3e3c7061746820643d224d3137332037306834763237682d347a6d2d366109c08201527f20306833763237682d337a222f3e3c7061746820643d224d31363320363768346109e08201527f7633682d347a6d3020333068347633682d347a222f3e3c7061746820643d224d610a008201527f3136302031303068337633682d337a222f3e3c7061746820643d224d31353720610a208201527f31303368337634682d337a222f3e3c7061746820643d224d3135332031303768610a408201527f347633682d347a222f3e3c7061746820643d224d313530203131306833763368610a608201527f2d337a222f3e3c7061746820643d224d3134372031313368337637682d337a22610a808201527f2f3e3c7061746820643d224d3134332031323068347637682d347a222f3e3c70610aa08201527f61746820643d224d313430203132376833763130682d337a222f3e3c70617468610ac08201527f20643d224d313337203133376833763230682d337a6d35362d31306834763130610ae08201527f682d347a222f3e3c7061746820643d224d313930203131376833763130682d33610b008201527f7a222f3e3c7061746820643d224d3138372031313068337637682d337a222f3e610b208201527f3c7061746820643d224d3138332031303368347637682d347a222f3e3c706174610b408201527f6820643d224d3138302031303068337633682d337a222f3e3c7061746820643d610b608201527f224d31373720393768337633682d337a6d2d3430203130366833763137682d33610b808201527f7a6d302032376833763130682d337a6d313020333068337637682d337a222f3e610ba08201527f3c7061746820643d224d31353020323537762d34682d33762d36682d34762d37610bc08201527f682d3376313068337631306834762d3368337a222f3e3c7061746820643d224d610be08201527f3135302032353768337633682d337a222f3e3c7061746820643d224d31363320610c008201527f323733762d33682d36762d3130682d347637682d337633683376336834763768610c208201527f33762d3768337a222f3e3c7061746820643d224d313633203236376834763368610c408201527f2d347a222f3e3c7061746820643d224d31373020323537682d332d3476336834610c608201527f76376833762d31307a222f3e3c7061746820643d224d31353720323533683676610c808201527f34682d367a222f3e3c7061746820643d224d3135332032343768347636682d34610ca08201527f7a222f3e3c7061746820643d224d3135302032343068337637682d337a222f3e610cc08201527f3c7061746820643d224d313437203233306833763130682d337a6d3133203530610ce08201527f68337637682d337a222f3e3c7061746820643d224d3134332032323368347637610d008201527f682d347a222f3e3c7061746820643d224d313437203230376833763136682d33610d208201527f7a222f3e3c7061746820643d224d313530203139376833763130682d337a6d2d610d408201527f3130203068337636682d337a6d35302031313368377633682d377a6d32332031610d608201527f306831377633682d31377a222f3e3c7061746820643d224d3233302033323368610d808201527f31337634682d31337a222f3e3c7061746820643d224d32343320333230683130610da08201527f7633682d31307a222f3e3c7061746820643d224d323533203331376834763368610dc08201527f2d347a222f3e3c7061746820643d224d323537203330376833763130682d337a610de08201527f222f3e3c7061746820643d224d3235332033303368347634682d347a222f3e3c610e008201527f7061746820643d224d3235302033303068337633682d337a222f3e3c70617468610e208201527f20643d224d3234372032393768337633682d337a222f3e3c7061746820643d22610e408201527f4d3234332032393368347634682d347a222f3e3c7061746820643d224d323430610e608201527f2032393068337633682d337a222f3e3c7061746820643d224d32333720323837610e808201527f68337633682d337a222f3e3c7061746820643d224d3233332032383368347634610ea08201527f682d347a222f3e3c7061746820643d224d3233302032383068337633682d337a610ec08201527f222f3e3c7061746820643d224d3232372032373768337633682d337a222f3e3c610ee08201527f7061746820643d224d3232332032373368347634682d347a222f3e3c70617468610f008201527f20643d224d3232302032363768337636682d337a222f3e3c7061746820643d22610f208201527f4d3231372032363068337637682d337a222f3e3c7061746820643d224d323133610f408201527f2032353368347637682d347a222f3e3c7061746820643d224d32313020323437610f608201527f68337636682d337a222f3e3c7061746820643d224d3230372032333768337631610f808201527f30682d337a222f3e3c7061746820643d224d323033203232376834763130682d610fa08201527f347a6d2d343020363068347636682d347a6d323420323068337633682d337a22610fc08201527f2f3e3c7061746820643d224d3136372032393368337635682d337a6d31362031610fe08201527f3468347633682d347a222f3e3c7061746820643d224d313730203239386834766110008201527f33682d347a6d3130203668337633682d337a222f3e3c7061746820643d224d316110208201527f37342033303168367633682d367a6d323320313268367634682d367a222f3e3c6110408201527f7061746820643d224d323033203331376831307633682d31307a6d2d322d31306110608201527f37762d3733682d3476373368337631376833762d3137682d327a222f3e3c2f676110808201527f3e3c6720636c6173733d226f223e3c7061746820643d224d31383720333037766110a08201527f2d346833762d36682d33762d34682d34762d33682d33762d33682d37762d34686110c08201527f2d367634682d3476336834763237682d34763133682d33763130682d347637686110e08201527f3476336833203130203134762d33682d34762d34682d33762d33682d33762d336111008201527f682d34762d376834762d31306833762d376833762d336837762d33682d337a6d6111208201527f3136203130762d34682d36763137682d34763130682d337637683376336834206111408201527f3620342033203134762d33682d34762d34682d37762d33682d33762d33682d336111608201520152565b90610285609a60405180947f3c7374796c653e2e6f7b66696c6c3a233830383038303b7d2e62327b66696c6c60208301527f3a6e6f6e653b7d2e62337b66696c6c3a6e6f6e653b7d2e62347b66696c6c3a6e60408301527f6f6e653b7d2e61317b66696c6c3a6e6f6e653b7d2e61327b66696c6c3a6e6f6e60608301527f653b7d2e61337b66696c6c3a6e6f6e653b7d3c2f7374796c653e000000000000608083015261450481518092602086860191016103af565b810103607a810185520183610225565b9061028560bb60405180947f3c7376672077696474683d2234303022206865696768743d223430302220766960208301527f6577426f783d223020302034303020343030222066696c6c3d226e6f6e65222060408301527f786d6c6e733d22687474703a2f2f7777772e77332e6f72672f323030302f737660608301527f67223e3c7374796c653e2e6f7b66696c6c3a233035303530353b7d2e777b666960808301527436361d11b31cb31cb31c9dbe9f1e17b9ba3cb6329f60591b60a08301526145e981518092602060b5860191016103af565b8101651e17b9bb339f60d11b60b582015203609b810185520183610225565b9061040890614636604051602092609160f51b84830152602282015260228152614631816101b7565b61548e565b92604051938161464f86935180928680870191016103af565b8201614663825180938680850191016103af565b01038084520182610225565b60405161467b8161017b565b60008152906000368137565b906146918261078d565b61469e6040519182610225565b82815280926146af601f199161078d565b0190602036910137565b806000917a184f03e93ff9f4daa797ed6e38ed64bf6a1f010000000000000000808210156147ef575b506d04ee2d6d415b85acef8100000000808310156147e0575b50662386f26fc10000808310156147d1575b506305f5e100808310156147c2575b50612710808310156147b3575b5060648210156147a3575b600a80921015614799575b60019081602161475160018701614687565b95860101905b614763575b5050505090565b600019019083906f181899199a1a9b1b9c1cb0b131b232b360811b8282061a83530491821561479457919082614757565b61475c565b916001019161473f565b9190606460029104910191614734565b60049193920491019138614729565b6008919392049101913861471c565b6010919392049101913861470d565b602091939204910191386146fb565b6040935081049150386146e2565b6040519061480a826101b7565b604082527f6768696a6b6c6d6e6f707172737475767778797a303132333435363738392b2f6040837f4142434445464748494a4b4c4d4e4f505152535455565758595a61626364656660208201520152565b906002820180921161156257565b906020820180921161156257565b906001820180921161156257565b9190820180921161156257565b805115612b14576148a26147fd565b6148be6148b96148b2845161485c565b6003900490565b6121cb565b916148d06148cb8461486a565b614687565b92835280815182019060208501935b8282106149215750505060039051068060011461491057600214614901575090565b603d60f81b6000199091015290565b50613d3d60f01b6001199091015290565b9091936004906003809401938451600190603f9082828260121c16880101518553828282600c1c16880101518386015382828260061c16880101516002860153168501015190820153019391906148df565b61497c90615858565b9261498b969596929192612eed565b9460405197889760208901703c7374796c653e2e62317b66696c6c3a2360781b90528051908160318b0191602001916149c3926103af565b8801603181016b3b7d2e62327b66696c6c3a2360a01b905281519182603d830191602001916149f1926103af565b01603d81016b3b7d2e62337b66696c6c3a2360a01b905281519182604983019160200191614a1e926103af565b0160498101614a3b906b3b7d2e62347b66696c6c3a2360a01b9052565b605501614a47916115b2565b6b3b7d2e61317b66696c6c3a2360a01b8152600c01614a65916115b2565b6b3b7d2e61327b66696c6c3a2360a01b8152600c01614a83916115b2565b6b3b7d2e61337b66696c6c3a2360a01b8152600c01614aa1916115b2565b691dbe9e17b9ba3cb6329f60b11b8152600a01614abd916115b2565b03601f19810182526104089082610225565b60405190614adc826101d2565b61019c82527f6820643d224d3139332031373068347633682d347a222f3e3c2f673e000000006101a0837f3c6720636c6173733d226f223e3c7061746820643d224d31393020313733682d60208201527f3337762d33682d3130762d34682d36763468337633682d33763468367633683160408201527f307634683337762d346833762d33682d33762d347a6d2d34302034682d33762d60608201527f34683376347a6d372033762d3368337633682d337a6d362030762d336834763360808201527f682d347a6d372030762d3368337633682d337a6d372030762d3368337633682d60a08201527f337a6d31302030682d34762d33683476337a222f3e3c7061746820643d224d3160c08201527f39302031373068337633682d337a222f3e3c7061746820643d224d313933203160e08201527f363668347634682d347a6d30203768347634682d347a222f3e3c2f673e3c67206101008201527f636c6173733d2277223e3c7061746820643d224d3133372031373068337633686101208201527f2d337a6d3130203368337634682d337a6d3130203468337633682d337a6d36206101408201527f3068347633682d347a6d37203068337633682d337a6d37203068337633682d336101608201527f7a6d36203068347633682d347a6d372d3468337634682d337a222f3e3c7061746101808201520152565b6040519061010082018281106001600160401b038211176101965760405260dd82527f746820643d224d3138302031343768337633682d337a222f3e3c2f673e00000060e0837f3c6720636c6173733d226f223e3c7061746820643d224d31373720313430763360208201527f6836763131683130762d31316834762d33682d32307a222f3e3c70617468206460408201527f3d224d31353320313430763368377638203368372033762d31316833762d336860608201527f2d32307a222f3e3c2f673e3c6720636c6173733d2277223e3c7061746820643d60808201527f224d3135332031343368377634682d377a222f3e3c7061746820643d224d313560a08201527f372031343768337633682d337a6d32302d3468367634682d367a222f3e3c706160c08201520152565b60405190614e12826101ee565b61023a82527f643d224d3139302031333768347633682d347a222f3e3c2f673e000000000000610240837f3c6720636c6173733d226f223e3c7061746820643d224d31393020313237683360208201527f7633682d337a6d3320313368347633682d347a6d2d3432203068367636682d3660408201527f7a222f3e3c7061746820643d224d3135312031333368337637682d337a6d313060608201527f203068367634682d367a222f3e3c7061746820643d224d31353720313337683160808201527f377636682d31377a6d332031336831347633682d31347a6d31372d313368377660a08201527f3136682d377a222f3e3c7061746820643d224d3138342031333768367636682d60c08201527f367a6d302031306831307636682d31307a222f3e3c7061746820643d224d313860e08201527f37203134336831307634682d31307a222f3e3c7061746820643d224d313930206101008201527f31343068337633682d337a6d2d362d313068337637682d337a222f3e3c7061746101208201527f6820643d224d3138372031333068367633682d367a6d2d3336203068313076336101408201527f682d31307a6d313620313368377637682d377a6d2d3130203068377637682d376101608201527f7a222f3e3c7061746820643d224d3136342031343768337633682d337a6d32396101808201527f2d323068347636682d347a222f3e3c7061746820643d224d31393420313333686101a08201527f337637682d337a222f3e3c2f673e3c6720636c6173733d2277223e3c706174686101c08201527f20643d224d3135342031333368377634682d377a222f3e3c7061746820643d226101e08201527f4d3135342031333768337633682d337a6d3130203668337634682d337a6d32306102008201527f203068337634682d337a6d332d313068377634682d377a222f3e3c70617468206102208201520152565b6040519060c082018281106001600160401b038211176101965760405260818252601f60f91b60a0837f3c6720636c6173733d226f223e3c7061746820643d224d31383320313630762d60208201527f34682d32307634682d33763368337634683234762d37682d347a6d2d3133203360408201527f762d336831307633682d31307a222066696c6c3d2223616437316338222f3e3c60608201527f7061746820643d224d313730203136306831307633682d31307a222f3e3c2f6760808201520152565b9092916060938151916000928391849085869160039460038110600014615421576151bf81614878565b985b8981106151d5575050505050505050505050565b81811015615415576151e78184611529565b516040805163507f146560e01b8152919791602060048f6001600160a01b03838584818585165afa928315610cbc57615262966000968f9688966153f6575b50505163c44a8e6d60e01b81526001600160a01b0390931690830190815260208101949094526000604085015290948593849291839160600190565b0392165afa8015610cbc57610100916000916153dd575b500151985b8989036153ae57506001985b60058181036152c1575050506001955b806152a9575b506001016151c1565b6001919d612a756152ba928e612df2565b9c906152a0565b8198929811806153a6575b6152d7575b5061529a565b90959094600680870361535a5750506001945b60079080820361532b575050506001945b8480615324575b8061531c575b615313575b386152d1565b6001965061530d565b508615615308565b5085615302565b9691961180615352575b156152fb5794509b61534990612a756150d0565b9b6001946152fb565b508515615335565b869196118061539e575b156152ea57945060019d8e8b1460001461538c5761538490612a75614e05565b9d5b946152ea565b61539890612a75614cd7565b9d615386565b508515615364565b5087156152cc565b98888111806153d5575b1561528a5798509c6153cc90612a75614acf565b9c60019861528a565b5089156153b8565b6153f0913d8091833e610cae8183610225565b38615279565b61540d929650803d10610ceb57610cdc8183610225565b933880615226565b6008979560009661527e565b80986151c1565b604051906105e082018281106001600160401b0382111761019657604052602e82526105c0366020840137565b9061545f8261056e565b61546c6040519182610225565b82815280926146af601f199161056e565b908151811015611517570160200190565b908151156155b55761549e615428565b9160009060006154ad8561151c565b526001918151916000925b8084106154de57505050506154d46154d9916104089394615984565b6159c7565b615a0e565b9091929461550f6155096155036154f5898761547d565b516001600160f81b03191690565b60f81c90565b60ff1690565b9184925b60ff9089828916861015615574576001929161554861554261550961553b8a61554e96611529565b5160ff1690565b60081b90565b90614886565b61556b8b61556388603a958686061692611529565b9060ff169052565b04930192615513565b50919594935050809691965b61558e5750600101926154b8565b9460ff6001603a926155ab83858b06166155638d86851690611529565b0116950480615580565b905061040861466f565b337f00000000000000000000000000000000000000000000000000000000000000006001600160a01b0316148061560d575b15615609576013193601368111611562573560601c90565b3390565b5060143610156155f1565b604051906156258261020a565b600682526506666653930360d41b6020830152565b604051906156478261020a565b600682526506666633730360d41b6020830152565b604051906156698261020a565b600682526566336136303360d01b6020830152565b6040519061568b8261020a565b600682526539363561316160d01b6020830152565b604051906156ad8261020a565b600682526533331bb1981960d11b6020830152565b604051906156cf8261020a565b600682526506664333630360d41b6020830152565b604051906156f18261020a565b600682526518cccc994c1960d21b6020830152565b604051906157138261020a565b600682526566666438633560d01b6020830152565b604051906157358261020a565b600682526566663936613960d01b6020830152565b604051906157578261020a565b600682526533329a9c1c3160d11b6020830152565b604051906157798261020a565b600682526563393266343560d01b6020830152565b6040519061579b8261020a565b600682526536376437353760d01b6020830152565b604051906157bd8261020a565b600682526503330613232360d41b6020830152565b604051906157df8261020a565b600682526532313761313560d01b6020830152565b604051906158018261020a565b60048252636e6f6e6560e01b6020830152565b604051906158218261020a565b6006825265329a1c19b2b360d11b6020830152565b604051906158438261020a565b60068252653231993332b360d11b6020830152565b6001810361589f575061586961578e565b906158726157b0565b9061587b6157d2565b906158846157f4565b9061588d615814565b90615896615836565b90610408615836565b600281036158e657506158b0615706565b906158b9615728565b906158c261574a565b906158cb61576c565b906158d4615706565b906158dd615728565b9061040861574a565b6003810361592d57506158f761565c565b906159006156a0565b906159096156c2565b906159126156e4565b9061591b61565c565b906159246156a0565b906104086156c2565b60041461594657604051630992899d60e31b8152600490fd5b61594e615618565b9061595761563a565b9061596061565c565b9061596961567e565b90615972615618565b9061597b61563a565b9061040861565c565b9060ff8091169061599482615455565b9260005b8381106159a6575050505090565b80836159b460019385611529565b51166159c08288611529565b5201615998565b9081516159d381615455565b9060005b8181106159e5575090925050565b60019060ff6159fb600019838951030188611529565b5116615a078286611529565b52016159d7565b8051615a198161078d565b91604090615a2a6040519485610225565b828452615a368361078d565b602090601f1901368683013760009260005b858110615a585750505050505090565b6001908251615a66816101b7565b603a81527f31323334353637383941424344454647484a4b4c4d4e50515253545556575859858201527f5a6162636465666768696a6b6d6e6f707172737475767778797a000000000000848201526001600160f81b031990615ad69060ff615ace858a611529565b51169061547d565b5116861a615ae4828a61547d565b5301615a4856fea2646970667358221220a3d4ab8eee4f1e99eb9704b2acfd438a0c4965d701e40c2c02ad50623c4a90a864736f6c63430008170033",
			"deployedBytecode": "0x6080604052600436101561001257600080fd5b60003560e01c806257bfdd146101265780631e4578de1461012157806331a290ac1461011c5780634d03376e14610117578063572b6c05146101125780635e703e711461010d5780636aff31dd14610108578063715018a6146101035780637da0a877146100fe578063875e4bea146100f95780638da5cb5b146100f4578063aeac5e35146100ef578063b03a3eab146100ea578063c06e7bc7146100e5578063f2fde38b146100e0578063f92df2e3146100db5763fff628c6146100d657600080fd5b6114a9565b61147a565b6113ee565b610d95565b610cf2565b610bce565b610ba5565b610a14565b6109cf565b610971565b610945565b610919565b6108c1565b6107df565b610615565b610486565b61040b565b90600182811c9216801561015b575b602083101461014557565b634e487b7160e01b600052602260045260246000fd5b91607f169161013a565b634e487b7160e01b600052604160045260246000fd5b602081019081106001600160401b0382111761019657604052565b610165565b6111a081019081106001600160401b0382111761019657604052565b606081019081106001600160401b0382111761019657604052565b6101c081019081106001600160401b0382111761019657604052565b61026081019081106001600160401b0382111761019657604052565b604081019081106001600160401b0382111761019657604052565b90601f801991011681019081106001600160401b0382111761019657604052565b604051906000826002549161025a8361012b565b808352926020906001908181169081156102e85750600114610287575b505061028592500383610225565b565b91509260026000527f405787fa12a823e0f2b7631cc41b3ba8828b3321ca811111fa75cd3aa3bb5ace936000925b8284106102d057506102859450505081016020013880610277565b855488850183015294850194879450928101926102b5565b9150506020925061028594915060ff191682840152151560051b8201013880610277565b9060405191826000825461031f8161012b565b9081845260209460019160018116908160001461038d575060011461034e575b50505061028592500383610225565b600090815285812095935091905b818310610375575050610285935082010138808061033f565b8554888401850152948501948794509183019161035c565b9250505061028594925060ff191682840152151560051b82010138808061033f565b60005b8381106103c25750506000910152565b81810151838201526020016103b2565b906020916103eb815180928185528580860191016103af565b601f01601f1916010190565b9060206104089281815201906103d2565b90565b3461043f57600036600319011261043f5761043b610427610246565b6040519182916020835260208301906103d2565b0390f35b600080fd5b604081019181526060602091604060208201528151809452019160809160005b828110610472575050505090565b835185529381019392810192600101610464565b3461043f5760208060031936011261043f57600435906000918083526005602052604083209060405180938491602085549182815201948752602087209187905b82821061053457505050506104e1906104f1930384610225565b6000526006602052604060002090565b5491815191815b83811061050d576040518061043b8782610444565b8061051a60019284611529565b5161052d61052786611553565b95611504565b52016104f8565b8354875295860195879450600193840193909101906104c7565b604051906101a082018281106001600160401b0382111761019657604052565b6001600160401b0381116101965760051b60200190565b9080601f8301121561043f57602090823561059f8161056e565b936105ad6040519586610225565b81855260208086019260051b82010192831161043f57602001905b8282106105d6575050505090565b813581529083019083016105c8565b9181601f8401121561043f578235916001600160401b03831161043f576020808501948460051b01011161043f57565b3461043f5760408060031936011261043f576001600160401b036004803582811161043f576106479036908301610585565b9160243590811161043f5761065f90369083016105e5565b909183519060005b8281106106b0575050506106ab61069e7f7b414cb0ad21f3dfa349dbd1d4ca10eeb276661a7af9df6e18086aed7c31c8d694611750565b94519283923391846117ab565b0390a2005b6106ba8187611529565b516106d06106c9838789611567565b36916107a8565b906106ed6106e8826000526004602052604060002090565b6115a8565b61077d57610705816000526001602052604060002090565b54801561076d578951602081019061072f8161072184886115b2565b03601f198101835282610225565b5190200361075d5760019291610752610757926000526004602052604060002090565b61167b565b01610667565b88516375b5da0b60e01b81528490fd5b8951637ef41a4f60e01b81528590fd5b8851630388067760e21b81528490fd5b6001600160401b03811161019657601f01601f191660200190565b9291926107b48261078d565b916107c26040519384610225565b82948184528183011161043f578281602093846000960137010152565b3461043f57604036600319011261043f576001600160401b0360043581811161043f57610810903690600401610585565b60249060243583811161043f573660238201121561043f578060040135926108378461056e565b936108456040519586610225565b8085526020956024602087019260051b8501019336851161043f5760248101925b858410610879576108778888611848565b005b833583811161043f5782013660438201121561043f5789916108a58392369060448a82013591016107a8565b815201930192610866565b6001600160a01b0381160361043f57565b3461043f57602036600319011261043f5760206004356108e0816108b0565b6040517f000000000000000000000000b2b5841dbef766d4b521221732f9b618fcf34a876001600160a01b039081169216919091148152f35b3461043f57604036600319011261043f5761043b61042760043561093c816108b0565b60243590611ca6565b3461043f57602036600319011261043f5760043560005260016020526020604060002054604051908152f35b3461043f576000806003193601126109cc5761098b612d3d565b80546001600160a01b03198116825581906001600160a01b03167f8be0079c531659141344cd1fd0a4f28419497f9722a3daafe3b4186f6b6457e08280a380f35b80fd5b3461043f57600036600319011261043f576040517f000000000000000000000000b2b5841dbef766d4b521221732f9b618fcf34a876001600160a01b03168152602090f35b3461043f5760208060031936011261043f576004356001600160401b0380821161043f573660238301121561043f57816004013590811161043f57602492366024838501011161043f57610a66612d3d565b610a7a82610a7560025461012b565b6115e0565b600093601f8311600114610af8575050610acd81807f512c3c91736f50c57a0548c1d01ab02f24c420f002b8b20e2bfe63df9693cd3f95600091610aea575b508160011b916000199060031b1c19161790565b6002555b610ae560405192839260243392018461203e565b0390a1005b602491508501013538610ab9565b6002600052601f19831694907f405787fa12a823e0f2b7631cc41b3ba8828b3321ca811111fa75cd3aa3bb5ace9282915b878310610b8957505050827f512c3c91736f50c57a0548c1d01ab02f24c420f002b8b20e2bfe63df9693cd3f9510610b6c575b5050600181811b01600255610ad1565b830160240135600019600384901b60f8161c191690553880610b5c565b908060018596848396978b010135815501950193019190610b29565b3461043f57600036600319011261043f576000546040516001600160a01b039091168152602090f35b3461043f57604036600319011261043f57600435610beb816108b0565b60405163507f146560e01b815260243591906001600160a01b03906020816004818587165afa8015610cbc57610c629360009386938593610cc1575b5060405163c44a8e6d60e01b81526001600160a01b039092166004830152602482019390935260006044820152938492839182906064820190565b0392165afa918215610cbc5761043b92610c8d92600091610c99575b506101008151910151916126f5565b604051918291826103f7565b610cb691503d806000833e610cae8183610225565b810190611a99565b38610c7e565b611a35565b610ce491935060203d602011610ceb575b610cdc8183610225565b810190611a20565b9138610c27565b503d610cd2565b3461043f57604036600319011261043f576001600160401b0360043581811161043f57610d23903690600401610585565b9060243590811161043f573660238201121561043f578060040135610d478161056e565b91610d556040519384610225565b8183526020916024602085019160051b8301019136831161043f57602401905b828210610d86576108778587612067565b81358152908301908301610d75565b3461043f57608036600319011261043f57610db16004356108b0565b6064356001600160401b03811161043f57610dd09036906004016105e5565b906040516331a9108f60e11b815260208180610df6602435600483019190602083019252565b03816004356001600160a01b03165afa908115610cbc576000916113cf575b50610e2d610e216155bf565b6001600160a01b031690565b6001600160a01b03909116036113bd576044351561139f576040516331a9108f60e11b81526044356004820152602081806024810103816004356001600160a01b03165afa908115610cbc57600091611380575b50610e8d610e216155bf565b6001600160a01b039091160361136e5760405163507f146560e01b815260208160048181356001600160a01b03165afa908115610cbc5760009161134f575b5060405163c44a8e6d60e01b81526001600160a01b03600480358216908301526044803560248401526000908301819052919283916064918391165afa908115610cbc57600091611334575b50511561132257604435610f386024356000526006602052604060002090565b555b6000610f4461214a565b5080808080805b878610610fc4578787610f748282610f6f6024356000526005602052604060002090565b6121e3565b7f6a68946ba06488db8585d7c7637fa954b574035fe15720ea760125ef86017258610fbf610fa06155bf565b6040519182916024359660018060a01b0360043516966044358561225c565b0390a3005b610fcf8689896121bb565b6040516331a9108f60e11b81529035600482018190529290602081806024810103816004356001600160a01b03165afa908115610cbc57600091611303575b5061101a610e216155bf565b6001600160a01b03909116036112f15760405163507f146560e01b815260208160048181356001600160a01b03165afa938415610cbc576110999460009283916112d2575b50604051808097819463c44a8e6d60e01b8352600435600484016040906000929493606082019560018060a01b0316825260208201520152565b03916001600160a01b03165afa928315610cbc576000936112b7575b508251156112a5576101008301516002811090811561129a575b50611288578615159081611278575b506112665761010082015160048103611106575050600161010081925b015195019490610f4b565b9194909160058103611120575050600161010081956110fb565b90949290600b810361113a575050600161010081936110fb565b9293909260098103611154575050600161010081946110fb565b600d819592951490818215928361125c575b8015611252575b8061124b575b1561118a5760405163167e5dcd60e31b8152600490fd5b600682148081159182611241575b8015611237575b80611230575b156111bc57604051631e550b6f60e11b8152600490fd5b90611226575b8061121f575b156111df576040516354f653b360e01b8152600490fd5b91611214575b508061120d575b6111fb576101006001916110fb565b604051635e701b2b60e01b8152600490fd5b50826111ec565b600c915014386111e5565b50876111c8565b50600782146111c2565b50866111a5565b506008841461119f565b5060078414611198565b5086611173565b50600a821461116d565b50600c8214611166565b604051637dc0e82560e11b8152600490fd5b90506101008301511115386110de565b60405163c89badbd60e01b8152600490fd5b600f915011386110cf565b6040516354c0901d60e11b8152600490fd5b6112cb91933d8091833e610cae8183610225565b91386110b5565b6112eb915060203d602011610ceb57610cdc8183610225565b3861105f565b60405163812a698960e01b8152600490fd5b61131c915060203d602011610ceb57610cdc8183610225565b3861100e565b60405163265ba87960e01b8152600490fd5b61134991503d806000833e610cae8183610225565b38610f18565b611368915060203d602011610ceb57610cdc8183610225565b38610ecc565b604051639d17cec760e01b8152600490fd5b611399915060203d602011610ceb57610cdc8183610225565b38610e81565b60006113b76024356000526006602052604060002090565b55610f3a565b6040516307d59f1360e21b8152600490fd5b6113e8915060203d602011610ceb57610cdc8183610225565b38610e15565b3461043f57602036600319011261043f5760043561140b816108b0565b611413612d3d565b6001600160a01b03908116801561146157600080546001600160a01b03198116831782559092167f8be0079c531659141344cd1fd0a4f28419497f9722a3daafe3b4186f6b6457e08380a380f35b604051631e4fbdf760e01b815260006004820152602490fd5b3461043f57606036600319011261043f5761043b6104276044356024356004356126f5565b8015150361043f57565b3461043f57608036600319011261043f5761043b6104276004356114cc816108b0565b6044356114d88161149f565b606435916114e58361149f565b60243590612b67565b634e487b7160e01b600052603260045260246000fd5b6060518110156115175760051b60800190565b6114ee565b8051156115175760200190565b80518210156115175760209160051b010190565b634e487b7160e01b600052601160045260246000fd5b60001981146115625760010190565b61153d565b91908110156115175760051b81013590601e198136030182121561043f5701908135916001600160401b03831161043f57602001823603811361043f579190565b610408905461012b565b906115c5602092828151948592016103af565b0190565b8181106115d4575050565b600081556001016115c9565b90601f82116115ed575050565b6102859160026000527f405787fa12a823e0f2b7631cc41b3ba8828b3321ca811111fa75cd3aa3bb5ace906020601f840160051c83019310611637575b601f0160051c01906115c9565b909150819061162a565b9190601f811161165057505050565b610285926000526020600020906020601f840160051c8301931061163757601f0160051c01906115c9565b91909182516001600160401b038111610196576116a28161169c845461012b565b84611641565b602080601f83116001146116e5575081906116d69394956000926116da575b50508160011b916000199060031b1c19161790565b9055565b0151905038806116c1565b90601f198316956116fb85600052602060002090565b926000905b8882106117385750508360019596971061171f575b505050811b019055565b015160001960f88460031b161c19169055388080611715565b80600185968294968601518155019501930190611700565b60405190818183925160208092019160005b828110611773575050505003902090565b835185528695509381019392810192600101611762565b908060209392818452848401376000828201840152601f01601f1916010190565b9392919081604086016040875252606085019160608160051b87010192826000905b8382106117ef5750505050509060206102859294019060018060a01b03169052565b9091929394605f198982030184528535601e198336030181121561043f578201803560208092016001600160401b03821161043f57813603811361043f57600193839261183b9261178a565b97019594019201906117cd565b9190611852612d3d565b8251926000935b8085106118a657507f31ddb2f0a32be79206d6bf3e670f8cc38863c4984b95cdbe8ed6eba58207a3a5919293506118926118a191611750565b926040519182913390836119ac565b0390a2565b6118b08583611529565b51946118bc8185611529565b5195600052600360208181526040600020918851916001600160401b038311610196576118f3836118ed865461012b565b86611641565b8091601f8411600114611938575050908061192b926001969798999a6000926116da5750508160011b916000199060031b1c19161790565b90555b0193929190611859565b9091601f1984169a61194f86600052602060002090565b936000905b8d821061199457505084600198999a9b9c1061197a575b50505050831b8301905561192e565b01519060f884600019921b161c191690553880808061196b565b80600185978294968601518155019601930190611954565b909291926040820190604083528051809252606083019160608160051b850101916020809101936000905b8382106119f45750505050602091509360018060a01b0316910152565b909192938380611a10600193605f198b820301865289516103d2565b97019201920190949392916119d7565b9081602091031261043f5751610408816108b0565b6040513d6000823e3d90fd5b5190610285826108b0565b51906102858261149f565b81601f8201121561043f578051611a6d8161078d565b92611a7b6040519485610225565b8184526020828401011161043f5761040891602080850191016103af565b60208183031261043f5780516001600160401b039182821161043f57016101a08184031261043f57611ac961054e565b92815184526020820151602085015260408201516040850152606082015160608501526080820151608085015260a082015160a0850152611b0c60c08301611a41565b60c085015260e082015160e08501526101008083015190850152610120611b34818401611a4c565b90850152610140611b46818401611a4c565b90850152610160611b58818401611a4c565b90850152610180928383015190811161043f57611b759201611a57565b9082015290565b60405190611b898261017b565b60008252565b90604051918260605160005b818110611bd0575090602061028593611bc48294840191838301600081528151948592016103af565b01038085520183610225565b6020919250806080015182828801015201908491611b9b565b6020610285919392936040519481611c0a87935180928680870191016103af565b8201611bc4825180938680850191016103af565b9060208282031261043f5781516001600160401b03811161043f576104089201611a57565b9081602091031261043f575190565b90610285603d60405180947f646174613a6170706c69636174696f6e2f6a736f6e3b6261736536342c0000006020830152611c9681518092602086860191016103af565b810103601d810185520183610225565b6040805163507f146560e01b808252602094929392906001600160a01b03908185168785600481845afa948515610cbc5760009561201f575b50865163c44a8e6d60e01b81526001600160a01b03871660048201526024810185905260006044820181905290958690606490829087165afa948515610cbc57600095612004575b50845115611ff4576101008501805190939015611fea57611d49865188612df2565b968751611fb3575b875115611e87575050505094611e76611e68611e8296611de5611e01611de598611de5611deb8a611dc76104089f611d98611dae9d611dc29f92611d9f93519051916126f5565b92516146b9565b9488519c8d918d8301906115b2565b039b611dc2601f199d8e8101835282610225565b614893565b9651683d913730b6b2911d1160b91b9a81019a8b529c8d9a60090190565b906115b2565b691116101134b2111d101160b11b8152600a0190565b7f222c226465736372697074696f6e223a2241207069656365206f66207468652081527f42616e6e797665727365222c22696d616765223a22646174613a696d6167652f60208201526e1cdd99cade1b5b0ed8985cd94d8d0b608a1b6040820152604f0190565b61227d60f01b815260020190565b03908101835282610225565b611c52565b92965092600f9195505111600014611fa4578551636c0360eb60e01b8152600081600481885afa8015610cbc578891600091611f81575b50955b600488518097819382525afa918215610cbc57611f14968895600094611f62575b5051630c8df17160e41b81526001600160a01b0390921660048301526024820193909352948592839182906044820190565b0392165afa918215610cbc5761040893600093611f33575b5050614608565b611f53929350803d10611f5b575b611f4b8183610225565b810190611c43565b903880611f2c565b503d611f41565b611f7a919450863d8811610ceb57610cdc8183610225565b9238611ee2565b611f9e91503d806000833e611f968183610225565b810190611c1e565b38611ebe565b86611fad610246565b95611ec1565b96611fc6906001865103611fcc57614514565b96611d51565b611fe590611fe0611fdb612eed565b61444e565b611be9565b614514565b611fc68588612980565b5050505050505050610408611b7c565b61201891953d8091833e610cae8183610225565b9338611d27565b612037919550883d8a11610ceb57610cdc8183610225565b9338611cdf565b916020916120579195949560408552604085019161178a565b6001600160a01b03909416910152565b61206f612d3d565b805160005b8181106120ef57505061208690611750565b9060405190818183925160208092019160005b8281106120d857505050500390206040513381529091907fb0c948934b683b0d319be35a6898bce339f877d721976592196eef848acc69c390602090a3565b835185528695509381019392810192600101612099565b6120f98184611529565b516121048286611529565b51908060005260016020526040806000205461213a575090612133600193926000526001602052604060002090565b5501612074565b516333ded41b60e21b8152600490fd5b604051906101a082018281106001600160401b0382111761019657604052606061018083600080825280602083015280604083015280848301528060808301528060a08301528060c08301528060e08301528061010083015280610120830152806101408301526101608201520152565b91908110156115175760051b0190565b600281901b91906001600160fe1b0381160361156257565b906001600160401b0383116101965768010000000000000000831161019657815483835580841061223e575b50906000526020806000209060005b84811061222c575050505050565b8335838201559281019260010161221e565b612256908360005284602060002091820191016115c9565b3861220f565b9081526060602082018190528101839052929392916001600160fb1b03811161043f5760409160809160051b8091838601378301019360018060a01b0316910152565b60226102859193929360405194816122c18793518092602080870191016103af565b820161202360f01b60208201526122e182518093602087850191016103af565b01036002810185520183610225565b90610285602960405180946802a37b83834b7339d160bd1b602083015261232081518092602086860191016103af565b8101036009810185520183610225565b90610285602660405180946502334b9ba1d160d51b602083015261235d81518092602086860191016103af565b8101036006810185520183610225565b90610285602d60405180946c029bab4ba103137ba3a37b69d1609d1b60208301526123a181518092602086860191016103af565b810103600d810185520183610225565b90610285602a604051809469029bab4ba103a37b81d160b51b60208301526123e281518092602086860191016103af565b810103600a810185520183610225565b906102856026604051809465029bab4ba1d160d51b602083015261235d81518092602086860191016103af565b90610285602660405180946502432b0b21d160d51b602083015261235d81518092602086860191016103af565b90610285602660405180946502430b4b91d160d51b602083015261235d81518092602086860191016103af565b906102856027604051809466026b7baba341d160cd1b60208301526124a781518092602086860191016103af565b8101036007810185520183610225565b906102856026604051809465022bcb2b99d160d51b602083015261235d81518092602086860191016103af565b90610285602660405180946502330b1b29d160d51b602083015261235d81518092602086860191016103af565b90610285602a60405180946902732b1b5b630b1b29d160b51b60208301526123e281518092602086860191016103af565b906102856026604051809465029b437b29d160d51b602083015261235d81518092602086860191016103af565b90610285602a60405180946902130b1b5b9b4b2329d160b51b60208301526123e281518092602086860191016103af565b90610285602760405180946602bb7b936321d160cd1b60208301526124a781518092602086860191016103af565b906102856035604051809474027b934b3b4b730b6102730b5b2b2102130b7373c9605d1b602083015261260a81518092602086860191016103af565b8101036015810185520183610225565b906102856033604051809472027b930b733b2902730b5b2b2102130b7373c9606d1b602083015261265481518092602086860191016103af565b8101036013810185520183610225565b90610285603160405180947002834b735902730b5b2b2102130b7373c9607d1b602083015261269c81518092602086860191016103af565b8101036011810185520183610225565b906102856032604051809471020b634b2b7102730b5b2b2102130b7373c960751b60208301526126e581518092602086860191016103af565b8101036012810185520183610225565b91633b9aca008306916001810361271a57505050612715610408916146b9565b6126ac565b6002810361273657505050612731610408916146b9565b612664565b600381036127525750505061274d610408916146b9565b61261a565b6004810361276e57505050612769610408916146b9565b6125ce565b61278e91929350612789906000526003602052604060002090565b61030c565b9180612899575b50600181036127a85750610408906125a0565b600281036127ba57506104089061256f565b600a81036127cc575061040890612542565b600381036127de575061040890612511565b600581036127f05750610408906124e4565b600681036128025750610408906124b7565b60078103612814575061040890612479565b6008810361282657506104089061244c565b6004810361283857506104089061241f565b600b810361284a5750610408906123f2565b600d810361285c5750610408906123b1565b600c810361286e57506104089061236d565b600e8103612880575061040890612330565b600f146128905750610408611b7c565b610408906122f0565b90918051156000146128b757506128af906146b9565b905b38612795565b6128c36128c9926146b9565b9061229f565b906128b1565b919060408382031261043f5782519260209081810151906001600160401b03821161043f57019180601f8401121561043f57825161290c8161056e565b9361291a6040519586610225565b818552838086019260051b82010192831161043f578301905b828210612941575050505090565b81518152908301908301612933565b3d1561297b573d906129618261078d565b9161296f6040519384610225565b82523d6000602084013e565b606090565b60405163507f146560e01b8152906001600160a01b036020836004818585165afa928315610cbc57600093612b43575b5060405163c44a8e6d60e01b81526001600160a01b0383166004820152602481018590526000604482018190529093909184916064918391165afa918215610cbc57600092612b28575b50815115612b1d576060610100830151612af657604051630f22bc6f60e11b8152600481019490945261040893612a83929082906000908181602481305afa9081600091600093612acf575b50612ac157505090612a7b91612a5a612950565b505b80151580612ab9575b612a9f575b50612a758651614973565b90611be9565b935190615195565b8051612a90575b50614514565b612a9991611be9565b38612a8a565b612ab39150612aae9084612df2565b611b8f565b38612a6a565b506001612a65565b909450612a7b929150612a5c565b909250612aef91503d806000833e612ae78183610225565b8101906128cf565b9138612a46565b5090612b0492505190612df2565b805115612b145761040890614514565b50610408611b7c565b505050610408611b7c565b612b3c91923d8091833e610cae8183610225565b90386129fa565b6000919350612b609060203d602011610ceb57610cdc8183610225565b92906129b0565b60405163507f146560e01b8152909390916001600160a01b03602084600481848a165afa938415610cbc57600094612d19575b5060405163c44a8e6d60e01b81526001600160a01b0387166004820152602481018390526000604482018190529094909185916064918391165afa928315610cbc57600093612cfe575b50825115612cf157606094610100840151612ce157604051630f22bc6f60e11b81526004810192909252610408959182906000908181602481305afa9081600091600093612cc2575b50612cb2575050612c5f929394612c42612950565b505b8115159081612caa575b50612c95575b50612a758551614973565b93612c6d575b505050614514565b612c78925190615195565b8051612c86575b8080612c65565b612c8f91611be9565b38612c7f565b612ca49150612aae9084612df2565b38612c54565b905038612c4e565b909150612c5f9394509094612c44565b909250612cda91503d806000833e612ae78183610225565b9138612c2d565b93505050612b0492505190612df2565b5050505050610408611b7c565b612d1291933d8091833e610cae8183610225565b9138612be4565b6000919450612d369060203d602011610ceb57610cdc8183610225565b9390612b9a565b6000546001600160a01b0390811681612d546155bf565b1603612d5d5750565b602490612d686155bf565b60405163118cdaa760e01b815291166004820152fd5b9061028560566040518094751e339f1e34b6b0b3b2903c3634b7359d343932b31e9160511b6020830152612dbc8151809260206036860191016103af565b81017f222077696474683d2234303022206865696768743d22343030222f3e3c2f673e6036820152036036810185520183610225565b612e09612789836000526004602052604060002090565b8051612ee7575060405163507f146560e01b81526001600160a01b039260209283836004818489165afa908115610cbc57612e7c958594600093612ec8575b50604051632f54648f60e21b81526001600160a01b0390921660048301526024820193909352948592839182906044820190565b0392165afa8015610cbc5761040892612ea692600092612eab575b5050612ea1610246565b614608565b612d7e565b612ec19250803d10611f5b57611f4b8183610225565b3880612e97565b612ee0919350853d8711610ceb57610cdc8183610225565b9138612e48565b91505090565b60405190612efa8261019b565b61117a82527f762d31306833762d376833762d33682d31307a222f3e3c2f673e000000000000611180837f3c6720636c6173733d226131223e3c7061746820643d224d313733203533683460208201527f763137682d347a222f3e3c2f673e3c6720636c6173733d226132223e3c70617460408201527f6820643d224d3136372035376833763130682d337a222f3e3c7061746820643d60608201527f224d3136392035336834763137682d347a222f3e3c2f673e3c6720636c61737360808201527f3d226133223e3c7061746820643d224d31363720353368337634682d337a222f60a08201527f3e3c7061746820643d224d3136332035376834763130682d347a222f3e3c706160c08201527f746820643d224d31363720363768337633682d337a222f3e3c2f673e3c67206360e08201527f6c6173733d226231223e3c7061746820643d224d32313320323533682d33762d6101008201527f332d33682d33762d372d33682d34762d3130682d33762d372d372d33682d33766101208201527f2d3733682d34762d3130682d33762d3130682d33762d37682d34762d37682d336101408201527f762d33682d33762d33682d3476313068347631306833763130683376336834766101608201527f37203320373020336833763768337632306834763768337633683376336834766101808201527f34683376336833762d332d347a222f3e3c7061746820643d224d3235332033306101a08201527f37762d34682d33762d33682d33762d33682d34762d34682d33762d33682d33766101c08201527f2d33682d34762d34682d33762d33682d33762d33682d34762d34682d33762d366101e08201527f682d33762d37682d3476313768347633683376336833203476346833763368336102008201527f76336834763468337633683376336834763468337633683376336834762d36686102208201527f2d347a222f3e3c2f673e3c6720636c6173733d226232223e3c7061746820643d6102408201527f224d32353020333130762d33682d33762d34682d34762d33682d33762d33682d6102608201527f33762d34682d34762d33682d33762d33682d33762d34682d37762d33682d33766102808201527f2d33682d34762d3137682d33762d33682d33762d34682d34762d33682d33762d6102a08201527f33682d33762d37682d34762d3230682d33762d37682d33762d37332d332d37686102c08201527f2d34762d33682d33762d3130682d33762d3130682d34563730682d33762d336c6102e08201527f2d332031303020332d313030763430682d33763130682d347636682d337631346103008201527f682d337633203133682d347634346834763136683376313468337631336834766103208201527f31306833763768337633683476336833763468337633683476336833763468336103408201527f76336834763368337637683776376836763368377633683776346831337633686103608201527f337633683130762d33682d337a6d2d3130332d3837762d31366833762d3130686103808201527f2d337636682d34763137682d337631306833762d3768347a222f3e3c706174686103a08201527f20643d224d3134332032333068347637682d347a6d3420313068337633682d336103c08201527f7a6d33203768337633682d337a6d33203668347634682d347a222f3e3c7061746103e08201527f6820643d224d31363320323537682d36763368337633683376346834762d342d6104008201527f33682d34762d337a222f3e3c2f673e3c6720636c6173733d226233223e3c70616104208201527f746820643d224d3134332031393776366834762d366836762d34346834762d316104408201527f366833762d31346833762d366834762d31306833563937682d377636682d33766104608201527f34682d337633682d347633682d3376342033682d3376332034682d34763130686104808201527f2d337631362034682d337634366833762d3668337a222f3e3c7061746820643d6104a08201527f224d313430203230336833763137682d337a222f3e3c7061746820643d224d316104c08201527f3337203232306833763130682d337a222f3e3c7061746820643d224d313533206104e08201527f323530682d33762d37682d33762d36682d34762d37682d3376313068337637686105008201527f347636683376346833762d377a6d2d3320313068337637682d337a222f3e3c706105208201527f61746820643d224d3134372032353768337633682d337a6d36203068347633686105408201527f2d347a222f3e3c7061746820643d224d31363020323633762d33682d337633206105608201527f376836762d37682d337a6d2d31302d3536763136682d337637683376313068336105808201527f763768347636683676346837762d342d33682d33762d3130682d34762d3133686105a08201527f2d33762d3134682d33762d3136682d34763130682d337a222f3e3c70617468206105c08201527f643d224d32343320333133762d33682d33762d33682d31302d33762d34682d376105e08201527f762d33682d37762d33682d36762d37682d37762d37682d33762d33682d34762d6106008201527f33682d33762d34682d33762d33682d34762d33682d33762d34682d33762d33686106208201527f2d34762d33682d33763130682d337633682d347633682d3376376833763768346106408201527f76366833763568347633683676336833763368342033763368332034763368336106608201527f20337634683130763368372037203376336831302033762d33683130762d33686106808201527f34762d34682d31347a222f3e3c2f673e3c6720636c6173733d226234223e3c706106a08201527f61746820643d224d3138332031333068347637682d347a222f3e3c70617468206106c08201527f643d224d3138302031323768337633682d337a6d2d32372d3468347637682d346106e08201527f7a222f3e3c7061746820643d224d3135372031313768337636682d337a222f3e6107008201527f3c7061746820643d224d3136302031313068337637682d337a222f3e3c7061746107208201527f6820643d224d3136332031303768347633682d347a6d2d3320383368337637686107408201527f2d337a222f3e3c7061746820643d224d3136332031383768347633682d347a6d6107608201527f3230203068377633682d377a222f3e3c7061746820643d224d313830203139306107808201527f68337633682d337a6d31302d3768337634682d337a222f3e3c7061746820643d6107a08201527f224d3139332031383768347636682d347a6d2d323020353368347637682d347a6107c08201527f222f3e3c7061746820643d224d3137372032343768337636682d337a222f3e3c6107e08201527f7061746820643d224d3138302032353368337637682d337a222f3e3c706174686108008201527f20643d224d3138332032363068377633682d377a222f3e3c7061746820643d226108208201527f4d3139302032363368337634682d337a6d302d323068337634682d337a222f3e6108408201527f3c7061746820643d224d3138372032343068337633682d337a222f3e3c7061746108608201527f6820643d224d3139302032333768337633682d337a6d313320323368347633686108808201527f2d347a222f3e3c7061746820643d224d3230372032363368337637682d337a226108a08201527f2f3e3c7061746820643d224d3231302032373068337633682d337a6d2d3130206108c08201527f3768337636682d337a222f3e3c7061746820643d224d323033203238336834766108e08201527f37682d347a222f3e3c7061746820643d224d3230372032393068367633682d366109008201527f7a222f3e3c2f673e3c6720636c6173733d226f223e3c7061746820643d224d316109208201527f3333203135376834763530682d347a6d302036336834763130682d347a6d32376109408201527f2d3136336833763130682d337a222f3e3c7061746820643d224d3136332035336109608201527f68347634682d347a222f3e3c7061746820643d224d31363720353068313076336109808201527f682d31307a222f3e3c7061746820643d224d3137372035336833763137682d336109a08201527f7a222f3e3c7061746820643d224d3137332037306834763237682d347a6d2d366109c08201527f20306833763237682d337a222f3e3c7061746820643d224d31363320363768346109e08201527f7633682d347a6d3020333068347633682d347a222f3e3c7061746820643d224d610a008201527f3136302031303068337633682d337a222f3e3c7061746820643d224d31353720610a208201527f31303368337634682d337a222f3e3c7061746820643d224d3135332031303768610a408201527f347633682d347a222f3e3c7061746820643d224d313530203131306833763368610a608201527f2d337a222f3e3c7061746820643d224d3134372031313368337637682d337a22610a808201527f2f3e3c7061746820643d224d3134332031323068347637682d347a222f3e3c70610aa08201527f61746820643d224d313430203132376833763130682d337a222f3e3c70617468610ac08201527f20643d224d313337203133376833763230682d337a6d35362d31306834763130610ae08201527f682d347a222f3e3c7061746820643d224d313930203131376833763130682d33610b008201527f7a222f3e3c7061746820643d224d3138372031313068337637682d337a222f3e610b208201527f3c7061746820643d224d3138332031303368347637682d347a222f3e3c706174610b408201527f6820643d224d3138302031303068337633682d337a222f3e3c7061746820643d610b608201527f224d31373720393768337633682d337a6d2d3430203130366833763137682d33610b808201527f7a6d302032376833763130682d337a6d313020333068337637682d337a222f3e610ba08201527f3c7061746820643d224d31353020323537762d34682d33762d36682d34762d37610bc08201527f682d3376313068337631306834762d3368337a222f3e3c7061746820643d224d610be08201527f3135302032353768337633682d337a222f3e3c7061746820643d224d31363320610c008201527f323733762d33682d36762d3130682d347637682d337633683376336834763768610c208201527f33762d3768337a222f3e3c7061746820643d224d313633203236376834763368610c408201527f2d347a222f3e3c7061746820643d224d31373020323537682d332d3476336834610c608201527f76376833762d31307a222f3e3c7061746820643d224d31353720323533683676610c808201527f34682d367a222f3e3c7061746820643d224d3135332032343768347636682d34610ca08201527f7a222f3e3c7061746820643d224d3135302032343068337637682d337a222f3e610cc08201527f3c7061746820643d224d313437203233306833763130682d337a6d3133203530610ce08201527f68337637682d337a222f3e3c7061746820643d224d3134332032323368347637610d008201527f682d347a222f3e3c7061746820643d224d313437203230376833763136682d33610d208201527f7a222f3e3c7061746820643d224d313530203139376833763130682d337a6d2d610d408201527f3130203068337636682d337a6d35302031313368377633682d377a6d32332031610d608201527f306831377633682d31377a222f3e3c7061746820643d224d3233302033323368610d808201527f31337634682d31337a222f3e3c7061746820643d224d32343320333230683130610da08201527f7633682d31307a222f3e3c7061746820643d224d323533203331376834763368610dc08201527f2d347a222f3e3c7061746820643d224d323537203330376833763130682d337a610de08201527f222f3e3c7061746820643d224d3235332033303368347634682d347a222f3e3c610e008201527f7061746820643d224d3235302033303068337633682d337a222f3e3c70617468610e208201527f20643d224d3234372032393768337633682d337a222f3e3c7061746820643d22610e408201527f4d3234332032393368347634682d347a222f3e3c7061746820643d224d323430610e608201527f2032393068337633682d337a222f3e3c7061746820643d224d32333720323837610e808201527f68337633682d337a222f3e3c7061746820643d224d3233332032383368347634610ea08201527f682d347a222f3e3c7061746820643d224d3233302032383068337633682d337a610ec08201527f222f3e3c7061746820643d224d3232372032373768337633682d337a222f3e3c610ee08201527f7061746820643d224d3232332032373368347634682d347a222f3e3c70617468610f008201527f20643d224d3232302032363768337636682d337a222f3e3c7061746820643d22610f208201527f4d3231372032363068337637682d337a222f3e3c7061746820643d224d323133610f408201527f2032353368347637682d347a222f3e3c7061746820643d224d32313020323437610f608201527f68337636682d337a222f3e3c7061746820643d224d3230372032333768337631610f808201527f30682d337a222f3e3c7061746820643d224d323033203232376834763130682d610fa08201527f347a6d2d343020363068347636682d347a6d323420323068337633682d337a22610fc08201527f2f3e3c7061746820643d224d3136372032393368337635682d337a6d31362031610fe08201527f3468347633682d347a222f3e3c7061746820643d224d313730203239386834766110008201527f33682d347a6d3130203668337633682d337a222f3e3c7061746820643d224d316110208201527f37342033303168367633682d367a6d323320313268367634682d367a222f3e3c6110408201527f7061746820643d224d323033203331376831307633682d31307a6d2d322d31306110608201527f37762d3733682d3476373368337631376833762d3137682d327a222f3e3c2f676110808201527f3e3c6720636c6173733d226f223e3c7061746820643d224d31383720333037766110a08201527f2d346833762d36682d33762d34682d34762d33682d33762d33682d37762d34686110c08201527f2d367634682d3476336834763237682d34763133682d33763130682d347637686110e08201527f3476336833203130203134762d33682d34762d34682d33762d33682d33762d336111008201527f682d34762d376834762d31306833762d376833762d336837762d33682d337a6d6111208201527f3136203130762d34682d36763137682d34763130682d337637683376336834206111408201527f3620342033203134762d33682d34762d34682d37762d33682d33762d33682d336111608201520152565b90610285609a60405180947f3c7374796c653e2e6f7b66696c6c3a233830383038303b7d2e62327b66696c6c60208301527f3a6e6f6e653b7d2e62337b66696c6c3a6e6f6e653b7d2e62347b66696c6c3a6e60408301527f6f6e653b7d2e61317b66696c6c3a6e6f6e653b7d2e61327b66696c6c3a6e6f6e60608301527f653b7d2e61337b66696c6c3a6e6f6e653b7d3c2f7374796c653e000000000000608083015261450481518092602086860191016103af565b810103607a810185520183610225565b9061028560bb60405180947f3c7376672077696474683d2234303022206865696768743d223430302220766960208301527f6577426f783d223020302034303020343030222066696c6c3d226e6f6e65222060408301527f786d6c6e733d22687474703a2f2f7777772e77332e6f72672f323030302f737660608301527f67223e3c7374796c653e2e6f7b66696c6c3a233035303530353b7d2e777b666960808301527436361d11b31cb31cb31c9dbe9f1e17b9ba3cb6329f60591b60a08301526145e981518092602060b5860191016103af565b8101651e17b9bb339f60d11b60b582015203609b810185520183610225565b9061040890614636604051602092609160f51b84830152602282015260228152614631816101b7565b61548e565b92604051938161464f86935180928680870191016103af565b8201614663825180938680850191016103af565b01038084520182610225565b60405161467b8161017b565b60008152906000368137565b906146918261078d565b61469e6040519182610225565b82815280926146af601f199161078d565b0190602036910137565b806000917a184f03e93ff9f4daa797ed6e38ed64bf6a1f010000000000000000808210156147ef575b506d04ee2d6d415b85acef8100000000808310156147e0575b50662386f26fc10000808310156147d1575b506305f5e100808310156147c2575b50612710808310156147b3575b5060648210156147a3575b600a80921015614799575b60019081602161475160018701614687565b95860101905b614763575b5050505090565b600019019083906f181899199a1a9b1b9c1cb0b131b232b360811b8282061a83530491821561479457919082614757565b61475c565b916001019161473f565b9190606460029104910191614734565b60049193920491019138614729565b6008919392049101913861471c565b6010919392049101913861470d565b602091939204910191386146fb565b6040935081049150386146e2565b6040519061480a826101b7565b604082527f6768696a6b6c6d6e6f707172737475767778797a303132333435363738392b2f6040837f4142434445464748494a4b4c4d4e4f505152535455565758595a61626364656660208201520152565b906002820180921161156257565b906020820180921161156257565b906001820180921161156257565b9190820180921161156257565b805115612b14576148a26147fd565b6148be6148b96148b2845161485c565b6003900490565b6121cb565b916148d06148cb8461486a565b614687565b92835280815182019060208501935b8282106149215750505060039051068060011461491057600214614901575090565b603d60f81b6000199091015290565b50613d3d60f01b6001199091015290565b9091936004906003809401938451600190603f9082828260121c16880101518553828282600c1c16880101518386015382828260061c16880101516002860153168501015190820153019391906148df565b61497c90615858565b9261498b969596929192612eed565b9460405197889760208901703c7374796c653e2e62317b66696c6c3a2360781b90528051908160318b0191602001916149c3926103af565b8801603181016b3b7d2e62327b66696c6c3a2360a01b905281519182603d830191602001916149f1926103af565b01603d81016b3b7d2e62337b66696c6c3a2360a01b905281519182604983019160200191614a1e926103af565b0160498101614a3b906b3b7d2e62347b66696c6c3a2360a01b9052565b605501614a47916115b2565b6b3b7d2e61317b66696c6c3a2360a01b8152600c01614a65916115b2565b6b3b7d2e61327b66696c6c3a2360a01b8152600c01614a83916115b2565b6b3b7d2e61337b66696c6c3a2360a01b8152600c01614aa1916115b2565b691dbe9e17b9ba3cb6329f60b11b8152600a01614abd916115b2565b03601f19810182526104089082610225565b60405190614adc826101d2565b61019c82527f6820643d224d3139332031373068347633682d347a222f3e3c2f673e000000006101a0837f3c6720636c6173733d226f223e3c7061746820643d224d31393020313733682d60208201527f3337762d33682d3130762d34682d36763468337633682d33763468367633683160408201527f307634683337762d346833762d33682d33762d347a6d2d34302034682d33762d60608201527f34683376347a6d372033762d3368337633682d337a6d362030762d336834763360808201527f682d347a6d372030762d3368337633682d337a6d372030762d3368337633682d60a08201527f337a6d31302030682d34762d33683476337a222f3e3c7061746820643d224d3160c08201527f39302031373068337633682d337a222f3e3c7061746820643d224d313933203160e08201527f363668347634682d347a6d30203768347634682d347a222f3e3c2f673e3c67206101008201527f636c6173733d2277223e3c7061746820643d224d3133372031373068337633686101208201527f2d337a6d3130203368337634682d337a6d3130203468337633682d337a6d36206101408201527f3068347633682d347a6d37203068337633682d337a6d37203068337633682d336101608201527f7a6d36203068347633682d347a6d372d3468337634682d337a222f3e3c7061746101808201520152565b6040519061010082018281106001600160401b038211176101965760405260dd82527f746820643d224d3138302031343768337633682d337a222f3e3c2f673e00000060e0837f3c6720636c6173733d226f223e3c7061746820643d224d31373720313430763360208201527f6836763131683130762d31316834762d33682d32307a222f3e3c70617468206460408201527f3d224d31353320313430763368377638203368372033762d31316833762d336860608201527f2d32307a222f3e3c2f673e3c6720636c6173733d2277223e3c7061746820643d60808201527f224d3135332031343368377634682d377a222f3e3c7061746820643d224d313560a08201527f372031343768337633682d337a6d32302d3468367634682d367a222f3e3c706160c08201520152565b60405190614e12826101ee565b61023a82527f643d224d3139302031333768347633682d347a222f3e3c2f673e000000000000610240837f3c6720636c6173733d226f223e3c7061746820643d224d31393020313237683360208201527f7633682d337a6d3320313368347633682d347a6d2d3432203068367636682d3660408201527f7a222f3e3c7061746820643d224d3135312031333368337637682d337a6d313060608201527f203068367634682d367a222f3e3c7061746820643d224d31353720313337683160808201527f377636682d31377a6d332031336831347633682d31347a6d31372d313368377660a08201527f3136682d377a222f3e3c7061746820643d224d3138342031333768367636682d60c08201527f367a6d302031306831307636682d31307a222f3e3c7061746820643d224d313860e08201527f37203134336831307634682d31307a222f3e3c7061746820643d224d313930206101008201527f31343068337633682d337a6d2d362d313068337637682d337a222f3e3c7061746101208201527f6820643d224d3138372031333068367633682d367a6d2d3336203068313076336101408201527f682d31307a6d313620313368377637682d377a6d2d3130203068377637682d376101608201527f7a222f3e3c7061746820643d224d3136342031343768337633682d337a6d32396101808201527f2d323068347636682d347a222f3e3c7061746820643d224d31393420313333686101a08201527f337637682d337a222f3e3c2f673e3c6720636c6173733d2277223e3c706174686101c08201527f20643d224d3135342031333368377634682d377a222f3e3c7061746820643d226101e08201527f4d3135342031333768337633682d337a6d3130203668337634682d337a6d32306102008201527f203068337634682d337a6d332d313068377634682d377a222f3e3c70617468206102208201520152565b6040519060c082018281106001600160401b038211176101965760405260818252601f60f91b60a0837f3c6720636c6173733d226f223e3c7061746820643d224d31383320313630762d60208201527f34682d32307634682d33763368337634683234762d37682d347a6d2d3133203360408201527f762d336831307633682d31307a222066696c6c3d2223616437316338222f3e3c60608201527f7061746820643d224d313730203136306831307633682d31307a222f3e3c2f6760808201520152565b9092916060938151916000928391849085869160039460038110600014615421576151bf81614878565b985b8981106151d5575050505050505050505050565b81811015615415576151e78184611529565b516040805163507f146560e01b8152919791602060048f6001600160a01b03838584818585165afa928315610cbc57615262966000968f9688966153f6575b50505163c44a8e6d60e01b81526001600160a01b0390931690830190815260208101949094526000604085015290948593849291839160600190565b0392165afa8015610cbc57610100916000916153dd575b500151985b8989036153ae57506001985b60058181036152c1575050506001955b806152a9575b506001016151c1565b6001919d612a756152ba928e612df2565b9c906152a0565b8198929811806153a6575b6152d7575b5061529a565b90959094600680870361535a5750506001945b60079080820361532b575050506001945b8480615324575b8061531c575b615313575b386152d1565b6001965061530d565b508615615308565b5085615302565b9691961180615352575b156152fb5794509b61534990612a756150d0565b9b6001946152fb565b508515615335565b869196118061539e575b156152ea57945060019d8e8b1460001461538c5761538490612a75614e05565b9d5b946152ea565b61539890612a75614cd7565b9d615386565b508515615364565b5087156152cc565b98888111806153d5575b1561528a5798509c6153cc90612a75614acf565b9c60019861528a565b5089156153b8565b6153f0913d8091833e610cae8183610225565b38615279565b61540d929650803d10610ceb57610cdc8183610225565b933880615226565b6008979560009661527e565b80986151c1565b604051906105e082018281106001600160401b0382111761019657604052602e82526105c0366020840137565b9061545f8261056e565b61546c6040519182610225565b82815280926146af601f199161056e565b908151811015611517570160200190565b908151156155b55761549e615428565b9160009060006154ad8561151c565b526001918151916000925b8084106154de57505050506154d46154d9916104089394615984565b6159c7565b615a0e565b9091929461550f6155096155036154f5898761547d565b516001600160f81b03191690565b60f81c90565b60ff1690565b9184925b60ff9089828916861015615574576001929161554861554261550961553b8a61554e96611529565b5160ff1690565b60081b90565b90614886565b61556b8b61556388603a958686061692611529565b9060ff169052565b04930192615513565b50919594935050809691965b61558e5750600101926154b8565b9460ff6001603a926155ab83858b06166155638d86851690611529565b0116950480615580565b905061040861466f565b337f000000000000000000000000b2b5841dbef766d4b521221732f9b618fcf34a876001600160a01b0316148061560d575b15615609576013193601368111611562573560601c90565b3390565b5060143610156155f1565b604051906156258261020a565b600682526506666653930360d41b6020830152565b604051906156478261020a565b600682526506666633730360d41b6020830152565b604051906156698261020a565b600682526566336136303360d01b6020830152565b6040519061568b8261020a565b600682526539363561316160d01b6020830152565b604051906156ad8261020a565b600682526533331bb1981960d11b6020830152565b604051906156cf8261020a565b600682526506664333630360d41b6020830152565b604051906156f18261020a565b600682526518cccc994c1960d21b6020830152565b604051906157138261020a565b600682526566666438633560d01b6020830152565b604051906157358261020a565b600682526566663936613960d01b6020830152565b604051906157578261020a565b600682526533329a9c1c3160d11b6020830152565b604051906157798261020a565b600682526563393266343560d01b6020830152565b6040519061579b8261020a565b600682526536376437353760d01b6020830152565b604051906157bd8261020a565b600682526503330613232360d41b6020830152565b604051906157df8261020a565b600682526532313761313560d01b6020830152565b604051906158018261020a565b60048252636e6f6e6560e01b6020830152565b604051906158218261020a565b6006825265329a1c19b2b360d11b6020830152565b604051906158438261020a565b60068252653231993332b360d11b6020830152565b6001810361589f575061586961578e565b906158726157b0565b9061587b6157d2565b906158846157f4565b9061588d615814565b90615896615836565b90610408615836565b600281036158e657506158b0615706565b906158b9615728565b906158c261574a565b906158cb61576c565b906158d4615706565b906158dd615728565b9061040861574a565b6003810361592d57506158f761565c565b906159006156a0565b906159096156c2565b906159126156e4565b9061591b61565c565b906159246156a0565b906104086156c2565b60041461594657604051630992899d60e31b8152600490fd5b61594e615618565b9061595761563a565b9061596061565c565b9061596961567e565b90615972615618565b9061597b61563a565b9061040861565c565b9060ff8091169061599482615455565b9260005b8381106159a6575050505090565b80836159b460019385611529565b51166159c08288611529565b5201615998565b9081516159d381615455565b9060005b8181106159e5575090925050565b60019060ff6159fb600019838951030188611529565b5116615a078286611529565b52016159d7565b8051615a198161078d565b91604090615a2a6040519485610225565b828452615a368361078d565b602090601f1901368683013760009260005b858110615a585750505050505090565b6001908251615a66816101b7565b603a81527f31323334353637383941424344454647484a4b4c4d4e50515253545556575859858201527f5a6162636465666768696a6b6d6e6f707172737475767778797a000000000000848201526001600160f81b031990615ad69060ff615ace858a611529565b51169061547d565b5116861a615ae4828a61547d565b5301615a4856fea2646970667358221220a3d4ab8eee4f1e99eb9704b2acfd438a0c4965d701e40c2c02ad50623c4a90a864736f6c63430008170033",
			"devdoc": {
				"kind": "dev",
				"methods": {
					"assetIdsOf(uint256)": {
						"params": {
							"nakedBannyId": "The ID of the naked banny shows with the associated assets."
						},
						"returns": {
							"outfitIds": "The outfits attached to the Naked Banny.",
							"worldId": "The world attached to the Naked Banny."
						}
					},
					"bannySvgOf(address,uint256,bool,bool)": {
						"params": {
							"hook": "The hook storing the assets.",
							"tokenId": "The ID of the token to show. If the ID belongs to a Naked Banny, it will be shown with its current outfits in its current world."
						},
						"returns": {
							"_0": "bannySvg The SVG."
						}
					},
					"constructor": {
						"params": {
							"owner": "The owner allowed to add SVG files that correspond to tier IDs.",
							"trustedForwarder": "The trusted forwarder for the ERC2771Context."
						}
					},
					"decorateBannyWith(address,uint256,uint256,uint256[])": {
						"details": "The caller must own the naked banny being dressed and all outfits being worn.",
						"params": {
							"hook": "The hook storing the assets.",
							"nakedBannyId": "The ID of the Naked Banny being dressed.",
							"outfitIds": "The IDs of the outfits that'll be associated with the specified banny. Only one outfit per outfit category allowed at a time and they must be passed in order.",
							"worldId": "The ID of the world that'll be associated with the specified banny."
						}
					},
					"isTrustedForwarder(address)": {
						"details": "Indicates whether any particular address is the trusted forwarder."
					},
					"owner()": {
						"details": "Returns the address of the current owner."
					},
					"renounceOwnership()": {
						"details": "Leaves the contract without owner. It will not be possible to call `onlyOwner` functions. Can only be called by the current owner. NOTE: Renouncing ownership will leave the contract without an owner, thereby disabling any functionality that is only available to the owner."
					},
					"setSvgContentsOf(uint256[],string[])": {
						"params": {
							"svgContents": "The svg contents being stored, not including the parent <svg></svg> element.",
							"tierIds": "The IDs of the tiers having SVGs stored."
						}
					},
					"setSvgHashsOf(uint256[],bytes32[])": {
						"details": "This allows anyone to lazily upload the correct svg file.",
						"params": {
							"svgHashs": "The svg hashes being stored, not including the parent <svg></svg> element.",
							"tierIds": "The IDs of the tiers having SVG hashes stored."
						}
					},
					"setTierNames(uint256[],string[])": {
						"params": {
							"names": "The names of the tiers.",
							"tierIds": "The IDs of the tiers having their name stored."
						}
					},
					"tokenUriOf(address,uint256)": {
						"params": {
							"tokenId": "The ID of the token to show. If the ID belongs to a Naked Banny, it will be shown with its current outfits in its current world."
						},
						"returns": {
							"_0": "tokenUri The URI representing the SVG."
						}
					},
					"transferOwnership(address)": {
						"details": "Transfers ownership of the contract to a new account (`newOwner`). Can only be called by the current owner."
					},
					"trustedForwarder()": {
						"details": "Returns the address of the trusted forwarder."
					}
				},
				"version": 1
			},
			"userdoc": {
				"kind": "user",
				"methods": {
					"_nameOf(uint256,uint256,uint256)": {
						"notice": "The name of each tier."
					},
					"assetIdsOf(uint256)": {
						"notice": "The assets currently attached to each Naked Banny, owned by the naked Banny's owner."
					},
					"bannySvgOf(address,uint256,bool,bool)": {
						"notice": "Returns the SVG showing a dressed Naked Banny."
					},
					"decorateBannyWith(address,uint256,uint256,uint256[])": {
						"notice": "Dress your Naked Banny with outfits."
					},
					"setSvgBaseUri(string)": {
						"notice": "Allows the owner of this contract to specify the base of the domain hosting the SVG files."
					},
					"setSvgContentsOf(uint256[],string[])": {
						"notice": "The owner of this contract can store SVG files for tier IDs."
					},
					"setSvgHashsOf(uint256[],bytes32[])": {
						"notice": "Allows the owner of this contract to upload the hash of an svg file for a tierId."
					},
					"setTierNames(uint256[],string[])": {
						"notice": "Allows the owner to set the tier's name."
					},
					"svgBaseUri()": {
						"notice": "The base of the domain hosting the SVG files that can be lazily uploaded to the contract."
					},
					"svgHashOf(uint256)": {
						"notice": "The Naked Banny and outfit SVG hash files."
					},
					"tokenUriOf(address,uint256)": {
						"notice": "Returns the SVG showing a dressed Naked Banny in a world."
					}
				},
				"version": 1
			},
			"gitCommit": "b23409db048a5b5ecde93e0ad0d2626aa0b60242",
			"sourceName": "src/Banny721TokenUriResolver.sol",
			"chainId": "11155111",
			"linkReferences": {},
			"deployedLinkReferences": {}
		},
		{
			"_format": "sphinx-sol-ct-artifact-1",
			"merkleRoot": "0x123e0fc5cd2aa01c9d6a52fff3d4feccd82ddc10ba8c97eb8e3b9c5ad02d7f9a",
			"contractName": "Banny721TokenUriResolver",
			"address": "0x8d950cBcdB072C68FBa18bA1D0eB4e94E28781dC",
			"abi": [
				{
					"type": "constructor",
					"inputs": [
						{
							"name": "owner",
							"type": "address",
							"internalType": "address"
						},
						{
							"name": "trustedForwarder",
							"type": "address",
							"internalType": "address"
						}
					],
					"stateMutability": "nonpayable"
				},
				{
					"type": "function",
					"name": "_nameOf",
					"inputs": [
						{
							"name": "tokenId",
							"type": "uint256",
							"internalType": "uint256"
						},
						{
							"name": "tierId",
							"type": "uint256",
							"internalType": "uint256"
						},
						{
							"name": "category",
							"type": "uint256",
							"internalType": "uint256"
						}
					],
					"outputs": [
						{
							"name": "",
							"type": "string",
							"internalType": "string"
						}
					],
					"stateMutability": "view"
				},
				{
					"type": "function",
					"name": "assetIdsOf",
					"inputs": [
						{
							"name": "nakedBannyId",
							"type": "uint256",
							"internalType": "uint256"
						}
					],
					"outputs": [
						{
							"name": "worldId",
							"type": "uint256",
							"internalType": "uint256"
						},
						{
							"name": "outfitIds",
							"type": "uint256[]",
							"internalType": "uint256[]"
						}
					],
					"stateMutability": "view"
				},
				{
					"type": "function",
					"name": "bannySvgOf",
					"inputs": [
						{
							"name": "hook",
							"type": "address",
							"internalType": "address"
						},
						{
							"name": "tokenId",
							"type": "uint256",
							"internalType": "uint256"
						},
						{
							"name": "shouldBeDressed",
							"type": "bool",
							"internalType": "bool"
						},
						{
							"name": "shouldIncludeWorld",
							"type": "bool",
							"internalType": "bool"
						}
					],
					"outputs": [
						{
							"name": "",
							"type": "string",
							"internalType": "string"
						}
					],
					"stateMutability": "view"
				},
				{
					"type": "function",
					"name": "decorateBannyWith",
					"inputs": [
						{
							"name": "hook",
							"type": "address",
							"internalType": "address"
						},
						{
							"name": "nakedBannyId",
							"type": "uint256",
							"internalType": "uint256"
						},
						{
							"name": "worldId",
							"type": "uint256",
							"internalType": "uint256"
						},
						{
							"name": "outfitIds",
							"type": "uint256[]",
							"internalType": "uint256[]"
						}
					],
					"outputs": [],
					"stateMutability": "nonpayable"
				},
				{
					"type": "function",
					"name": "isTrustedForwarder",
					"inputs": [
						{
							"name": "forwarder",
							"type": "address",
							"internalType": "address"
						}
					],
					"outputs": [
						{
							"name": "",
							"type": "bool",
							"internalType": "bool"
						}
					],
					"stateMutability": "view"
				},
				{
					"type": "function",
					"name": "nameOf",
					"inputs": [
						{
							"name": "hook",
							"type": "address",
							"internalType": "address"
						},
						{
							"name": "tokenId",
							"type": "uint256",
							"internalType": "uint256"
						}
					],
					"outputs": [
						{
							"name": "",
							"type": "string",
							"internalType": "string"
						}
					],
					"stateMutability": "view"
				},
				{
					"type": "function",
					"name": "outfitIsBeingWornBy",
					"inputs": [
						{
							"name": "outfitId",
							"type": "uint256",
							"internalType": "uint256"
						}
					],
					"outputs": [
						{
							"name": "",
							"type": "uint256",
							"internalType": "uint256"
						}
					],
					"stateMutability": "view"
				},
				{
					"type": "function",
					"name": "owner",
					"inputs": [],
					"outputs": [
						{
							"name": "",
							"type": "address",
							"internalType": "address"
						}
					],
					"stateMutability": "view"
				},
				{
					"type": "function",
					"name": "renounceOwnership",
					"inputs": [],
					"outputs": [],
					"stateMutability": "nonpayable"
				},
				{
					"type": "function",
					"name": "setSvgBaseUri",
					"inputs": [
						{
							"name": "baseUri",
							"type": "string",
							"internalType": "string"
						}
					],
					"outputs": [],
					"stateMutability": "nonpayable"
				},
				{
					"type": "function",
					"name": "setSvgContentsOf",
					"inputs": [
						{
							"name": "tierIds",
							"type": "uint256[]",
							"internalType": "uint256[]"
						},
						{
							"name": "svgContents",
							"type": "string[]",
							"internalType": "string[]"
						}
					],
					"outputs": [],
					"stateMutability": "nonpayable"
				},
				{
					"type": "function",
					"name": "setSvgHashsOf",
					"inputs": [
						{
							"name": "tierIds",
							"type": "uint256[]",
							"internalType": "uint256[]"
						},
						{
							"name": "svgHashs",
							"type": "bytes32[]",
							"internalType": "bytes32[]"
						}
					],
					"outputs": [],
					"stateMutability": "nonpayable"
				},
				{
					"type": "function",
					"name": "setTierNames",
					"inputs": [
						{
							"name": "tierIds",
							"type": "uint256[]",
							"internalType": "uint256[]"
						},
						{
							"name": "names",
							"type": "string[]",
							"internalType": "string[]"
						}
					],
					"outputs": [],
					"stateMutability": "nonpayable"
				},
				{
					"type": "function",
					"name": "svgBaseUri",
					"inputs": [],
					"outputs": [
						{
							"name": "",
							"type": "string",
							"internalType": "string"
						}
					],
					"stateMutability": "view"
				},
				{
					"type": "function",
					"name": "svgHashOf",
					"inputs": [
						{
							"name": "tierId",
							"type": "uint256",
							"internalType": "uint256"
						}
					],
					"outputs": [
						{
							"name": "",
							"type": "bytes32",
							"internalType": "bytes32"
						}
					],
					"stateMutability": "view"
				},
				{
					"type": "function",
					"name": "tokenUriOf",
					"inputs": [
						{
							"name": "hook",
							"type": "address",
							"internalType": "address"
						},
						{
							"name": "tokenId",
							"type": "uint256",
							"internalType": "uint256"
						}
					],
					"outputs": [
						{
							"name": "",
							"type": "string",
							"internalType": "string"
						}
					],
					"stateMutability": "view"
				},
				{
					"type": "function",
					"name": "transferOwnership",
					"inputs": [
						{
							"name": "newOwner",
							"type": "address",
							"internalType": "address"
						}
					],
					"outputs": [],
					"stateMutability": "nonpayable"
				},
				{
					"type": "function",
					"name": "trustedForwarder",
					"inputs": [],
					"outputs": [
						{
							"name": "",
							"type": "address",
							"internalType": "address"
						}
					],
					"stateMutability": "view"
				},
				{
					"type": "function",
					"name": "worldIsBeingUsedBy",
					"inputs": [
						{
							"name": "worldId",
							"type": "uint256",
							"internalType": "uint256"
						}
					],
					"outputs": [
						{
							"name": "",
							"type": "uint256",
							"internalType": "uint256"
						}
					],
					"stateMutability": "view"
				},
				{
					"type": "event",
					"name": "DecorateBanny",
					"inputs": [
						{
							"name": "hook",
							"type": "address",
							"indexed": true,
							"internalType": "address"
						},
						{
							"name": "nakenBannyId",
							"type": "uint256",
							"indexed": true,
							"internalType": "uint256"
						},
						{
							"name": "worldId",
							"type": "uint256",
							"indexed": false,
							"internalType": "uint256"
						},
						{
							"name": "outfitIds",
							"type": "uint256[]",
							"indexed": false,
							"internalType": "uint256[]"
						},
						{
							"name": "caller",
							"type": "address",
							"indexed": false,
							"internalType": "address"
						}
					],
					"anonymous": false
				},
				{
					"type": "event",
					"name": "OwnershipTransferred",
					"inputs": [
						{
							"name": "previousOwner",
							"type": "address",
							"indexed": true,
							"internalType": "address"
						},
						{
							"name": "newOwner",
							"type": "address",
							"indexed": true,
							"internalType": "address"
						}
					],
					"anonymous": false
				},
				{
					"type": "event",
					"name": "SetSvgBaseUri",
					"inputs": [
						{
							"name": "baseUri",
							"type": "string",
							"indexed": false,
							"internalType": "string"
						},
						{
							"name": "caller",
							"type": "address",
							"indexed": false,
							"internalType": "address"
						}
					],
					"anonymous": false
				},
				{
					"type": "event",
					"name": "SetSvgContents",
					"inputs": [
						{
							"name": "tierId",
							"type": "uint256[]",
							"indexed": true,
							"internalType": "uint256[]"
						},
						{
							"name": "svgContents",
							"type": "string[]",
							"indexed": false,
							"internalType": "string[]"
						},
						{
							"name": "caller",
							"type": "address",
							"indexed": false,
							"internalType": "address"
						}
					],
					"anonymous": false
				},
				{
					"type": "event",
					"name": "SetSvgHashes",
					"inputs": [
						{
							"name": "tierIds",
							"type": "uint256[]",
							"indexed": true,
							"internalType": "uint256[]"
						},
						{
							"name": "svgHashs",
							"type": "bytes32[]",
							"indexed": true,
							"internalType": "bytes32[]"
						},
						{
							"name": "caller",
							"type": "address",
							"indexed": false,
							"internalType": "address"
						}
					],
					"anonymous": false
				},
				{
					"type": "event",
					"name": "SetTierNames",
					"inputs": [
						{
							"name": "tierIds",
							"type": "uint256[]",
							"indexed": true,
							"internalType": "uint256[]"
						},
						{
							"name": "names",
							"type": "string[]",
							"indexed": false,
							"internalType": "string[]"
						},
						{
							"name": "caller",
							"type": "address",
							"indexed": false,
							"internalType": "address"
						}
					],
					"anonymous": false
				},
				{
					"type": "error",
					"name": "ASSET_IS_ALREADY_BEING_WORN",
					"inputs": []
				},
				{
					"type": "error",
					"name": "CONTENTS_ALREADY_STORED",
					"inputs": []
				},
				{
					"type": "error",
					"name": "CONTENTS_MISMATCH",
					"inputs": []
				},
				{
					"type": "error",
					"name": "FACE_ALREADY_ADDED",
					"inputs": []
				},
				{
					"type": "error",
					"name": "HASH_ALREADY_STORED",
					"inputs": []
				},
				{
					"type": "error",
					"name": "HASH_NOT_FOUND",
					"inputs": []
				},
				{
					"type": "error",
					"name": "HEAD_ALREADY_ADDED",
					"inputs": []
				},
				{
					"type": "error",
					"name": "ONESIE_ALREADY_ADDED",
					"inputs": []
				},
				{
					"type": "error",
					"name": "OwnableInvalidOwner",
					"inputs": [
						{
							"name": "owner",
							"type": "address",
							"internalType": "address"
						}
					]
				},
				{
					"type": "error",
					"name": "OwnableUnauthorizedAccount",
					"inputs": [
						{
							"name": "account",
							"type": "address",
							"internalType": "address"
						}
					]
				},
				{
					"type": "error",
					"name": "SUIT_ALREADY_ADDED",
					"inputs": []
				},
				{
					"type": "error",
					"name": "UNAUTHORIZED_OUTFIT",
					"inputs": []
				},
				{
					"type": "error",
					"name": "UNAUTHORIZED_WORLD",
					"inputs": []
				},
				{
					"type": "error",
					"name": "UNAUTHORIZED__NAKED_BANNY",
					"inputs": []
				},
				{
					"type": "error",
					"name": "UNORDERED_CATEGORIES",
					"inputs": []
				},
				{
					"type": "error",
					"name": "UNRECOGNIZED_CATEGORY",
					"inputs": []
				},
				{
					"type": "error",
					"name": "UNRECOGNIZED_OUTFIT",
					"inputs": []
				},
				{
					"type": "error",
					"name": "UNRECOGNIZED_TIER",
					"inputs": []
				},
				{
					"type": "error",
					"name": "UNRECOGNIZED_WORLD",
					"inputs": []
				}
			],
			"solcInputHash": "beab3a622a1d51699269e841c21fcad5",
			"receipt": {
				"blockHash": "0xe73db15cc4f7b2dca4336b40d2f88ded93bae4e00099f3a0232382c286c12006",
				"blockNumber": 5677697,
				"contractAddress": null,
				"cumulativeGasUsed": "23925437",
				"from": "0xC034550B542b83BA1De312b21d1C94a9a52B1595",
				"gasPrice": "1000559612",
				"gasUsed": "11214963",
				"hash": "0xcd0f3b719ae27a6d0d13b50b899a060bd1958816b2c21be6cd95047ae8e64086",
				"index": 67,
				"logs": [
					{
						"address": "0xB5E96127D417b1B3ef8438496a38A143167209c7",
						"blockHash": "0xe73db15cc4f7b2dca4336b40d2f88ded93bae4e00099f3a0232382c286c12006",
						"blockNumber": 5677697,
						"data": "0x0000000000000000000000000000000000000000000000000000000000000000",
						"index": 81,
						"topics": [
							"0x572f161235911da04685a68c06adf558fc7e4a36909dca394650e0adc19cc93d",
							"0x000000000000000000000000c034550b542b83ba1de312b21d1c94a9a52b1595",
							"0x000000000000000000000000183b35e76a7bc60298dcb637515f50e4def9b68b",
							"0xb84fabece26c29e42bd95ed5aa54788d72f096cef2f4dc68a1fc419f205e1c71"
						],
						"transactionHash": "0xcd0f3b719ae27a6d0d13b50b899a060bd1958816b2c21be6cd95047ae8e64086",
						"transactionIndex": 67
					},
					{
						"address": "0x8d950cBcdB072C68FBa18bA1D0eB4e94E28781dC",
						"blockHash": "0xe73db15cc4f7b2dca4336b40d2f88ded93bae4e00099f3a0232382c286c12006",
						"blockNumber": 5677697,
						"data": "0x",
						"index": 82,
						"topics": [
							"0x8be0079c531659141344cd1fd0a4f28419497f9722a3daafe3b4186f6b6457e0",
							"0x0000000000000000000000000000000000000000000000000000000000000000",
							"0x000000000000000000000000584f5da53cb18789099466074e3b5c32ed17243a"
						],
						"transactionHash": "0xcd0f3b719ae27a6d0d13b50b899a060bd1958816b2c21be6cd95047ae8e64086",
						"transactionIndex": 67
					},
					{
						"address": "0x584F5Da53cb18789099466074e3B5c32Ed17243a",
						"blockHash": "0xe73db15cc4f7b2dca4336b40d2f88ded93bae4e00099f3a0232382c286c12006",
						"blockNumber": 5677697,
						"data": "0x",
						"index": 83,
						"topics": [
							"0x6895c13664aa4f67288b25d7a21d7aaa34916e355fb9b6fae0a139a9085becb8",
							"0x000000000000000000000000183b35e76a7bc60298dcb637515f50e4def9b68b"
						],
						"transactionHash": "0xcd0f3b719ae27a6d0d13b50b899a060bd1958816b2c21be6cd95047ae8e64086",
						"transactionIndex": 67
					},
					{
						"address": "0x183b35E76A7BC60298DCb637515F50e4DeF9b68b",
						"blockHash": "0xe73db15cc4f7b2dca4336b40d2f88ded93bae4e00099f3a0232382c286c12006",
						"blockNumber": 5677697,
						"data": "0x0000000000000000000000000000000000000000000000000000000000000001",
						"index": 84,
						"topics": [
							"0xa65fb05c5808f5f389d72edeaf719ce38f4cc55c1f69ca3cbfb31c21501caa07",
							"0x123e0fc5cd2aa01c9d6a52fff3d4feccd82ddc10ba8c97eb8e3b9c5ad02d7f9a"
						],
						"transactionHash": "0xcd0f3b719ae27a6d0d13b50b899a060bd1958816b2c21be6cd95047ae8e64086",
						"transactionIndex": 67
					},
					{
						"address": "0xfa679f5ecdd8bE404c1FbAa7f29aEB2b12F5B662",
						"blockHash": "0xe73db15cc4f7b2dca4336b40d2f88ded93bae4e00099f3a0232382c286c12006",
						"blockNumber": 5677697,
						"data": "0x",
						"index": 85,
						"topics": [
							"0xddf252ad1be2c89b69c2b068fc378daa952ba7f163c4a11628f55a4df523b3ef",
							"0x0000000000000000000000000000000000000000000000000000000000000000",
							"0x000000000000000000000000584f5da53cb18789099466074e3b5c32ed17243a",
							"0x0000000000000000000000000000000000000000000000000000000000000002"
						],
						"transactionHash": "0xcd0f3b719ae27a6d0d13b50b899a060bd1958816b2c21be6cd95047ae8e64086",
						"transactionIndex": 67
					},
					{
						"address": "0xfa679f5ecdd8bE404c1FbAa7f29aEB2b12F5B662",
						"blockHash": "0xe73db15cc4f7b2dca4336b40d2f88ded93bae4e00099f3a0232382c286c12006",
						"blockNumber": 5677697,
						"data": "0x000000000000000000000000584f5da53cb18789099466074e3b5c32ed17243a",
						"index": 86,
						"topics": [
							"0x365b3162cd780731fc55a794b59494d472bc2af701007f581843a70673814698",
							"0x0000000000000000000000000000000000000000000000000000000000000002",
							"0x000000000000000000000000584f5da53cb18789099466074e3b5c32ed17243a"
						],
						"transactionHash": "0xcd0f3b719ae27a6d0d13b50b899a060bd1958816b2c21be6cd95047ae8e64086",
						"transactionIndex": 67
					},
					{
						"address": "0x584F5Da53cb18789099466074e3B5c32Ed17243a",
						"blockHash": "0xe73db15cc4f7b2dca4336b40d2f88ded93bae4e00099f3a0232382c286c12006",
						"blockNumber": 5677697,
						"data": "0x",
						"index": 87,
						"topics": [
							"0x6895c13664aa4f67288b25d7a21d7aaa34916e355fb9b6fae0a139a9085becb8",
							"0x000000000000000000000000183b35e76a7bc60298dcb637515f50e4def9b68b"
						],
						"transactionHash": "0xcd0f3b719ae27a6d0d13b50b899a060bd1958816b2c21be6cd95047ae8e64086",
						"transactionIndex": 67
					},
					{
						"address": "0x183b35E76A7BC60298DCb637515F50e4DeF9b68b",
						"blockHash": "0xe73db15cc4f7b2dca4336b40d2f88ded93bae4e00099f3a0232382c286c12006",
						"blockNumber": 5677697,
						"data": "0x0000000000000000000000000000000000000000000000000000000000000002",
						"index": 88,
						"topics": [
							"0xa65fb05c5808f5f389d72edeaf719ce38f4cc55c1f69ca3cbfb31c21501caa07",
							"0x123e0fc5cd2aa01c9d6a52fff3d4feccd82ddc10ba8c97eb8e3b9c5ad02d7f9a"
						],
						"transactionHash": "0xcd0f3b719ae27a6d0d13b50b899a060bd1958816b2c21be6cd95047ae8e64086",
						"transactionIndex": 67
					},
					{
						"address": "0x711eda44F3D42F3d255846b5EE36Cf70Fd912E50",
						"blockHash": "0xe73db15cc4f7b2dca4336b40d2f88ded93bae4e00099f3a0232382c286c12006",
						"blockNumber": 5677697,
						"data": "0x00000000000000000000000000000000000000000000000000000000000000600000000000000000000000000000000000000000000000000000000032020084000000000000000000000000584f5da53cb18789099466074e3b5c32ed17243a00000000000000000000000000000000000000000000000000000000000000060000000000000000000000000000000000000000000000000000000000000002000000000000000000000000000000000000000000000000000000000000000700000000000000000000000000000000000000000000000000000000000000190000000000000000000000000000000000000000000000000000000000000011000000000000000000000000000000000000000000000000000000000000001c000000000000000000000000000000000000000000000000000000000000001d",
						"index": 89,
						"topics": [
							"0xf8cdf10a0ce6189c6d069e97320ef146e2bcbd32d6c0b86dcbfbf3bd8578fa70",
							"0x00000000000000000000000022300cf0cc5f03c7c3db71b64529d2c8a9b93389",
							"0x000000000000000000000000584f5da53cb18789099466074e3b5c32ed17243a",
							"0x0000000000000000000000000000000000000000000000000000000000000002"
						],
						"transactionHash": "0xcd0f3b719ae27a6d0d13b50b899a060bd1958816b2c21be6cd95047ae8e64086",
						"transactionIndex": 67
					},
					{
						"address": "0x584F5Da53cb18789099466074e3B5c32Ed17243a",
						"blockHash": "0xe73db15cc4f7b2dca4336b40d2f88ded93bae4e00099f3a0232382c286c12006",
						"blockNumber": 5677697,
						"data": "0x",
						"index": 90,
						"topics": [
							"0x6895c13664aa4f67288b25d7a21d7aaa34916e355fb9b6fae0a139a9085becb8",
							"0x000000000000000000000000183b35e76a7bc60298dcb637515f50e4def9b68b"
						],
						"transactionHash": "0xcd0f3b719ae27a6d0d13b50b899a060bd1958816b2c21be6cd95047ae8e64086",
						"transactionIndex": 67
					},
					{
						"address": "0x183b35E76A7BC60298DCb637515F50e4DeF9b68b",
						"blockHash": "0xe73db15cc4f7b2dca4336b40d2f88ded93bae4e00099f3a0232382c286c12006",
						"blockNumber": 5677697,
						"data": "0x0000000000000000000000000000000000000000000000000000000000000003",
						"index": 91,
						"topics": [
							"0xa65fb05c5808f5f389d72edeaf719ce38f4cc55c1f69ca3cbfb31c21501caa07",
							"0x123e0fc5cd2aa01c9d6a52fff3d4feccd82ddc10ba8c97eb8e3b9c5ad02d7f9a"
						],
						"transactionHash": "0xcd0f3b719ae27a6d0d13b50b899a060bd1958816b2c21be6cd95047ae8e64086",
						"transactionIndex": 67
					},
					{
						"address": "0x711eda44F3D42F3d255846b5EE36Cf70Fd912E50",
						"blockHash": "0xe73db15cc4f7b2dca4336b40d2f88ded93bae4e00099f3a0232382c286c12006",
						"blockNumber": 5677697,
						"data": "0x00000000000000000000000000000000000000000000000000000000000000600000000000000000000000000000000000000000000000000000000010000000000000000000000000000000584f5da53cb18789099466074e3b5c32ed17243a0000000000000000000000000000000000000000000000000000000000000001000000000000000000000000000000000000000000000000000000000000001c",
						"index": 92,
						"topics": [
							"0xf8cdf10a0ce6189c6d069e97320ef146e2bcbd32d6c0b86dcbfbf3bd8578fa70",
							"0x000000000000000000000000f4c9957e2e1fab09a8b48658f68b46e47b134724",
							"0x000000000000000000000000584f5da53cb18789099466074e3b5c32ed17243a",
							"0x0000000000000000000000000000000000000000000000000000000000000002"
						],
						"transactionHash": "0xcd0f3b719ae27a6d0d13b50b899a060bd1958816b2c21be6cd95047ae8e64086",
						"transactionIndex": 67
					},
					{
						"address": "0x584F5Da53cb18789099466074e3B5c32Ed17243a",
						"blockHash": "0xe73db15cc4f7b2dca4336b40d2f88ded93bae4e00099f3a0232382c286c12006",
						"blockNumber": 5677697,
						"data": "0x",
						"index": 93,
						"topics": [
							"0x6895c13664aa4f67288b25d7a21d7aaa34916e355fb9b6fae0a139a9085becb8",
							"0x000000000000000000000000183b35e76a7bc60298dcb637515f50e4def9b68b"
						],
						"transactionHash": "0xcd0f3b719ae27a6d0d13b50b899a060bd1958816b2c21be6cd95047ae8e64086",
						"transactionIndex": 67
					},
					{
						"address": "0x183b35E76A7BC60298DCb637515F50e4DeF9b68b",
						"blockHash": "0xe73db15cc4f7b2dca4336b40d2f88ded93bae4e00099f3a0232382c286c12006",
						"blockNumber": 5677697,
						"data": "0x0000000000000000000000000000000000000000000000000000000000000004",
						"index": 94,
						"topics": [
							"0xa65fb05c5808f5f389d72edeaf719ce38f4cc55c1f69ca3cbfb31c21501caa07",
							"0x123e0fc5cd2aa01c9d6a52fff3d4feccd82ddc10ba8c97eb8e3b9c5ad02d7f9a"
						],
						"transactionHash": "0xcd0f3b719ae27a6d0d13b50b899a060bd1958816b2c21be6cd95047ae8e64086",
						"transactionIndex": 67
					},
					{
						"address": "0xeCf30Ba8dFfb7BDfDE5EA8A7f209B8696152A778",
						"blockHash": "0xe73db15cc4f7b2dca4336b40d2f88ded93bae4e00099f3a0232382c286c12006",
						"blockNumber": 5677697,
						"data": "0x",
						"index": 95,
						"topics": [
							"0x8be0079c531659141344cd1fd0a4f28419497f9722a3daafe3b4186f6b6457e0",
							"0x0000000000000000000000000000000000000000000000000000000000000000",
							"0x0000000000000000000000000f9a3e14f7fb9ac89ce32d50a2eade21ffeb97f3"
						],
						"transactionHash": "0xcd0f3b719ae27a6d0d13b50b899a060bd1958816b2c21be6cd95047ae8e64086",
						"transactionIndex": 67
					},
					{
						"address": "0xeCf30Ba8dFfb7BDfDE5EA8A7f209B8696152A778",
						"blockHash": "0xe73db15cc4f7b2dca4336b40d2f88ded93bae4e00099f3a0232382c286c12006",
						"blockNumber": 5677697,
						"data": "0x",
						"index": 96,
						"topics": [
							"0x8be0079c531659141344cd1fd0a4f28419497f9722a3daafe3b4186f6b6457e0",
							"0x0000000000000000000000000f9a3e14f7fb9ac89ce32d50a2eade21ffeb97f3",
							"0x00000000000000000000000022300cf0cc5f03c7c3db71b64529d2c8a9b93389"
						],
						"transactionHash": "0xcd0f3b719ae27a6d0d13b50b899a060bd1958816b2c21be6cd95047ae8e64086",
						"transactionIndex": 67
					},
					{
						"address": "0x989566Bf9fF4CffA55a98ADa7dc3E58b2a0a19c6",
						"blockHash": "0xe73db15cc4f7b2dca4336b40d2f88ded93bae4e00099f3a0232382c286c12006",
						"blockNumber": 5677697,
						"data": "0x",
						"index": 97,
						"topics": [
							"0x72b627b4904fa8a0160a923aa5b142eb19f6e56dc75017884162206f8886df09",
							"0x000000000000000000000000ecf30ba8dffb7bdfde5ea8a7f209b8696152a778",
							"0x0000000000000000000000000f9a3e14f7fb9ac89ce32d50a2eade21ffeb97f3"
						],
						"transactionHash": "0xcd0f3b719ae27a6d0d13b50b899a060bd1958816b2c21be6cd95047ae8e64086",
						"transactionIndex": 67
					},
					{
						"address": "0x0f9A3E14f7fB9aC89Ce32D50a2eAdE21ffeb97F3",
						"blockHash": "0xe73db15cc4f7b2dca4336b40d2f88ded93bae4e00099f3a0232382c286c12006",
						"blockNumber": 5677697,
						"data": "0x000000000000000000000000ecf30ba8dffb7bdfde5ea8a7f209b8696152a778",
						"index": 98,
						"topics": [
							"0xa42f6bb68e81f4650a7966f109d861f6c3d2a477e608e30807f568bed1cebdb9",
							"0x0000000000000000000000000000000000000000000000000000000000000002"
						],
						"transactionHash": "0xcd0f3b719ae27a6d0d13b50b899a060bd1958816b2c21be6cd95047ae8e64086",
						"transactionIndex": 67
					},
					{
						"address": "0x44d360C8c4105f180e07668bd3374c7A6F812FAF",
						"blockHash": "0xe73db15cc4f7b2dca4336b40d2f88ded93bae4e00099f3a0232382c286c12006",
						"blockNumber": 5677697,
						"data": "0x00000000000000000000000075295c69178f42cfe9cf710f307891d6ce471920",
						"index": 99,
						"topics": [
							"0x7f9a7dcb234c909a09de2f344661ad9e5b24067adb97c908647c2edcbb121c30",
							"0x0000000000000000000000000000000000000000000000000000000000000002",
							"0x00000000000000000000000075295c69178f42cfe9cf710f307891d6ce471920"
						],
						"transactionHash": "0xcd0f3b719ae27a6d0d13b50b899a060bd1958816b2c21be6cd95047ae8e64086",
						"transactionIndex": 67
					},
					{
						"address": "0x9C10f158D2ceCDFB5AADD5da40ABbF2c574e4323",
						"blockHash": "0xe73db15cc4f7b2dca4336b40d2f88ded93bae4e00099f3a0232382c286c12006",
						"blockNumber": 5677697,
						"data": "0x",
						"index": 100,
						"topics": [
							"0xfda207e5d149787155cf9596283f246f082d4744a57e37dda99146e5dcc542bb",
							"0x0000000000000000000000000000000000000000000000000000000066186150",
							"0x0000000000000000000000000000000000000000000000000000000000000002",
							"0x0000000000000000000000000000000000000000000000000000000000000000"
						],
						"transactionHash": "0xcd0f3b719ae27a6d0d13b50b899a060bd1958816b2c21be6cd95047ae8e64086",
						"transactionIndex": 67
					},
					{
						"address": "0x9C10f158D2ceCDFB5AADD5da40ABbF2c574e4323",
						"blockHash": "0xe73db15cc4f7b2dca4336b40d2f88ded93bae4e00099f3a0232382c286c12006",
						"blockNumber": 5677697,
						"data": "0x000000000000000000000000000000000000000000000000000000000001518000000000000000000000000000000000000000000000d3c21bcecceda10000000000000000000000000000000000000000000000000000000000000002faf0800000000000000000000000000000000000000000000000000000000000000000000011180678662f81e3e1edb8db2294e96454dc99c4a040000eeee1f40138810000000000000000000000000000000000000000000000000000000065f9e31900000000000000000000000075295c69178f42cfe9cf710f307891d6ce471920",
						"index": 101,
						"topics": [
							"0x11a490bebff1beffe4bdd210894aca6ea5049427ce4b3c48865717677199cb07",
							"0x0000000000000000000000000000000000000000000000000000000066186150",
							"0x0000000000000000000000000000000000000000000000000000000000000002"
						],
						"transactionHash": "0xcd0f3b719ae27a6d0d13b50b899a060bd1958816b2c21be6cd95047ae8e64086",
						"transactionIndex": 67
					},
					{
						"address": "0x9C10f158D2ceCDFB5AADD5da40ABbF2c574e4323",
						"blockHash": "0xe73db15cc4f7b2dca4336b40d2f88ded93bae4e00099f3a0232382c286c12006",
						"blockNumber": 5677697,
						"data": "0x",
						"index": 102,
						"topics": [
							"0xfda207e5d149787155cf9596283f246f082d4744a57e37dda99146e5dcc542bb",
							"0x0000000000000000000000000000000000000000000000000000000066186151",
							"0x0000000000000000000000000000000000000000000000000000000000000002",
							"0x0000000000000000000000000000000000000000000000000000000066186150"
						],
						"transactionHash": "0xcd0f3b719ae27a6d0d13b50b899a060bd1958816b2c21be6cd95047ae8e64086",
						"transactionIndex": 67
					},
					{
						"address": "0x9C10f158D2ceCDFB5AADD5da40ABbF2c574e4323",
						"blockHash": "0xe73db15cc4f7b2dca4336b40d2f88ded93bae4e00099f3a0232382c286c12006",
						"blockNumber": 5677697,
						"data": "0x0000000000000000000000000000000000000000000000000000000000093a8000000000000000000000000000000000000000000000152d02c7e14af680000000000000000000000000000000000000000000000000000000000000000096800000000000000000000000000000000000000000000000000000000000000000000011180678662f81e3e1edb8db2294e96454dc99c4a040000eeee13881388100000000000000000000000000000000000000000000000000000000661ecd1900000000000000000000000075295c69178f42cfe9cf710f307891d6ce471920",
						"index": 103,
						"topics": [
							"0x11a490bebff1beffe4bdd210894aca6ea5049427ce4b3c48865717677199cb07",
							"0x0000000000000000000000000000000000000000000000000000000066186151",
							"0x0000000000000000000000000000000000000000000000000000000000000002"
						],
						"transactionHash": "0xcd0f3b719ae27a6d0d13b50b899a060bd1958816b2c21be6cd95047ae8e64086",
						"transactionIndex": 67
					},
					{
						"address": "0xAA62Cfe29251Db6774ECc77860b3c25dA3bcDc79",
						"blockHash": "0xe73db15cc4f7b2dca4336b40d2f88ded93bae4e00099f3a0232382c286c12006",
						"blockNumber": 5677697,
						"data": "0x000000000000000000000000000000000000000000000000000000000000eeee0000000000000000000000000000000000000000000000000000000000000012000000000000000000000000000000000000000000000000000000000000eeee00000000000000000000000075295c69178f42cfe9cf710f307891d6ce471920",
						"index": 104,
						"topics": [
							"0x9570de6fc0456f642bd0a001b24cd31676388c24596df64a17190c24310690a1",
							"0x0000000000000000000000000000000000000000000000000000000000000002",
							"0x000000000000000000000000000000000000000000000000000000000000eeee"
						],
						"transactionHash": "0xcd0f3b719ae27a6d0d13b50b899a060bd1958816b2c21be6cd95047ae8e64086",
						"transactionIndex": 67
					},
					{
						"address": "0x44d360C8c4105f180e07668bd3374c7A6F812FAF",
						"blockHash": "0xe73db15cc4f7b2dca4336b40d2f88ded93bae4e00099f3a0232382c286c12006",
						"blockNumber": 5677697,
						"data": "0x000000000000000000000000000000000000000000000000000000000000004000000000000000000000000075295c69178f42cfe9cf710f307891d6ce4719200000000000000000000000000000000000000000000000000000000000000001000000000000000000000000aa62cfe29251db6774ecc77860b3c25da3bcdc79",
						"index": 105,
						"topics": [
							"0xb648241d83df6540fc10f2acc641e4bf80a1e84e7ae2f1f6b0ad204b8fee635b",
							"0x0000000000000000000000000000000000000000000000000000000000000002"
						],
						"transactionHash": "0xcd0f3b719ae27a6d0d13b50b899a060bd1958816b2c21be6cd95047ae8e64086",
						"transactionIndex": 67
					},
					{
						"address": "0x75295C69178F42cfe9Cf710f307891D6cE471920",
						"blockHash": "0xe73db15cc4f7b2dca4336b40d2f88ded93bae4e00099f3a0232382c286c12006",
						"blockNumber": 5677697,
						"data": "0x00000000000000000000000000000000000000000000000000000000661861510000000000000000000000000000000000000000000000000000000000000002000000000000000000000000000000000000000000000000000000000000008000000000000000000000000022300cf0cc5f03c7c3db71b64529d2c8a9b9338900000000000000000000000000000000000000000000000000000000000000162442414e4e59207265766e6574206465706c6f79656400000000000000000000",
						"index": 106,
						"topics": [
							"0x23164adda696b19106c2eef50ba44461997682bf5aeb9fdb383117fa9952cc75"
						],
						"transactionHash": "0xcd0f3b719ae27a6d0d13b50b899a060bd1958816b2c21be6cd95047ae8e64086",
						"transactionIndex": 67
					},
					{
						"address": "0x82843700ec9267c92E5bB4955c2c16221B7c41c0",
						"blockHash": "0xe73db15cc4f7b2dca4336b40d2f88ded93bae4e00099f3a0232382c286c12006",
						"blockNumber": 5677697,
						"data": "0x",
						"index": 107,
						"topics": [
							"0x8be0079c531659141344cd1fd0a4f28419497f9722a3daafe3b4186f6b6457e0",
							"0x0000000000000000000000000000000000000000000000000000000000000000",
							"0x000000000000000000000000ee922d1cb6551d45e2d9b197ec423fb8c3c85d50"
						],
						"transactionHash": "0xcd0f3b719ae27a6d0d13b50b899a060bd1958816b2c21be6cd95047ae8e64086",
						"transactionIndex": 67
					},
					{
						"address": "0xee922D1cb6551D45E2d9B197EC423Fb8C3C85d50",
						"blockHash": "0xe73db15cc4f7b2dca4336b40d2f88ded93bae4e00099f3a0232382c286c12006",
						"blockNumber": 5677697,
						"data": "0x000000000000000000000000000000000000000000000000000000000000008000000000000000000000000000000000000000000000000000000000000000c010a846975db4733273248b233136f4cde84faccd2ae8628f994bd6a28996042600000000000000000000000075295c69178f42cfe9cf710f307891d6ce471920000000000000000000000000000000000000000000000000000000000000000a42616e6e79766572736500000000000000000000000000000000000000000000000000000000000000000000000000000000000000000000000000000000000542414e4e59000000000000000000000000000000000000000000000000000000",
						"index": 108,
						"topics": [
							"0xb4510654a5884cae50948507300dc482833ed1446cef375e064bef00b6b4ba4e",
							"0x0000000000000000000000000000000000000000000000000000000000000002",
							"0x00000000000000000000000082843700ec9267c92e5bb4955c2c16221b7c41c0"
						],
						"transactionHash": "0xcd0f3b719ae27a6d0d13b50b899a060bd1958816b2c21be6cd95047ae8e64086",
						"transactionIndex": 67
					},
					{
						"address": "0x1D6cE46C730B46930f17cc09FbCEdfC08d7454cc",
						"blockHash": "0xe73db15cc4f7b2dca4336b40d2f88ded93bae4e00099f3a0232382c286c12006",
						"blockNumber": 5677697,
						"data": "0x0000000000000000000000000000000000000000000000000000000000000000000000000000000000000000000000000000000000000000000000000002a30000000000000000000000000022300cf0cc5f03c7c3db71b64529d2c8a9b93389",
						"index": 109,
						"topics": [
							"0xa8d6b20cd05f07d50e9855ce0fc6de3517f3df2e890a5ec6357892b3808a53ce",
							"0x0000000000000000000000000000000000000000000000000000000000000002"
						],
						"transactionHash": "0xcd0f3b719ae27a6d0d13b50b899a060bd1958816b2c21be6cd95047ae8e64086",
						"transactionIndex": 67
					},
					{
						"address": "0x1D6cE46C730B46930f17cc09FbCEdfC08d7454cc",
						"blockHash": "0xe73db15cc4f7b2dca4336b40d2f88ded93bae4e00099f3a0232382c286c12006",
						"blockNumber": 5677697,
						"data": "0x0000000000000000000000000000000000000000000000000000000000000000000000000000000000000000000000000000000000000000000000000000232800000000000000000000000022300cf0cc5f03c7c3db71b64529d2c8a9b93389",
						"index": 110,
						"topics": [
							"0xaafe2470cbfb11a09f9b45d6a795226e93cc251e30fdcabddbabb157a1db5353",
							"0x0000000000000000000000000000000000000000000000000000000000000002"
						],
						"transactionHash": "0xcd0f3b719ae27a6d0d13b50b899a060bd1958816b2c21be6cd95047ae8e64086",
						"transactionIndex": 67
					},
					{
						"address": "0x1D6cE46C730B46930f17cc09FbCEdfC08d7454cc",
						"blockHash": "0xe73db15cc4f7b2dca4336b40d2f88ded93bae4e00099f3a0232382c286c12006",
						"blockNumber": 5677697,
						"data": "0x0000000000000000000000002df26ce5b6e9168192ad217f5d05478ed2104d0000000000000000000000000022300cf0cc5f03c7c3db71b64529d2c8a9b93389",
						"index": 111,
						"topics": [
							"0xe694de883385e30d535f625d68df4b2b5e866e8e86fe9d15554480c8d1812e60",
							"0x0000000000000000000000000000000000000000000000000000000000000002",
							"0x0000000000000000000000007b79995e5f793a07bc00c21412e50ecae098e7f9"
						],
						"transactionHash": "0xcd0f3b719ae27a6d0d13b50b899a060bd1958816b2c21be6cd95047ae8e64086",
						"transactionIndex": 67
					},
					{
						"address": "0x26cB60fC2323d1A4309F35497e5A881fE1F3D2AC",
						"blockHash": "0xe73db15cc4f7b2dca4336b40d2f88ded93bae4e00099f3a0232382c286c12006",
						"blockNumber": 5677697,
						"data": "0x0000000000000000000000000000000000000000000000000000000000000000000000000000000000000000000000000000000000000000000000003b9aca000000000000000000000000000000000000000000000000000000000000000000000000000000000000000000584f5da53cb18789099466074e3b5c32ed17243a0000000000000000000000000000000000000000000000000000000000000000000000000000000000000000000000000000000000000000000000000000000000000000000000000000000075295c69178f42cfe9cf710f307891d6ce471920",
						"index": 112,
						"topics": [
							"0x0d7ea8ac1cb69dfa18ce2b18e90d31b4d4a0370aacadf7db42d42930a09b3f01",
							"0x0000000000000000000000000000000000000000000000000000000000000002",
							"0x0000000000000000000000000000000000000000000000000000000000000000",
							"0x0000000000000000000000000000000000000000000000000000000000000001"
						],
						"transactionHash": "0xcd0f3b719ae27a6d0d13b50b899a060bd1958816b2c21be6cd95047ae8e64086",
						"transactionIndex": 67
					},
					{
						"address": "0x711eda44F3D42F3d255846b5EE36Cf70Fd912E50",
						"blockHash": "0xe73db15cc4f7b2dca4336b40d2f88ded93bae4e00099f3a0232382c286c12006",
						"blockNumber": 5677697,
						"data": "0x00000000000000000000000000000000000000000000000000000000000000600000000000000000000000000000000000000000000000000000000002e2004000000000000000000000000022300cf0cc5f03c7c3db71b64529d2c8a9b933890000000000000000000000000000000000000000000000000000000000000006000000000000000000000000000000000000000000000000000000000000001100000000000000000000000000000000000000000000000000000000000000190000000000000000000000000000000000000000000000000000000000000006000000000000000000000000000000000000000000000000000000000000001500000000000000000000000000000000000000000000000000000000000000160000000000000000000000000000000000000000000000000000000000000017",
						"index": 113,
						"topics": [
							"0xf8cdf10a0ce6189c6d069e97320ef146e2bcbd32d6c0b86dcbfbf3bd8578fa70",
							"0x000000000000000000000000584f5da53cb18789099466074e3b5c32ed17243a",
							"0x00000000000000000000000022300cf0cc5f03c7c3db71b64529d2c8a9b93389",
							"0x0000000000000000000000000000000000000000000000000000000000000002"
						],
						"transactionHash": "0xcd0f3b719ae27a6d0d13b50b899a060bd1958816b2c21be6cd95047ae8e64086",
						"transactionIndex": 67
					},
					{
						"address": "0x711eda44F3D42F3d255846b5EE36Cf70Fd912E50",
						"blockHash": "0xe73db15cc4f7b2dca4336b40d2f88ded93bae4e00099f3a0232382c286c12006",
						"blockNumber": 5677697,
						"data": "0x0000000000000000000000000000000000000000000000000000000000000060000000000000000000000000000000000000000000000000000000001000000000000000000000000000000022300cf0cc5f03c7c3db71b64529d2c8a9b933890000000000000000000000000000000000000000000000000000000000000001000000000000000000000000000000000000000000000000000000000000001c",
						"index": 114,
						"topics": [
							"0xf8cdf10a0ce6189c6d069e97320ef146e2bcbd32d6c0b86dcbfbf3bd8578fa70",
							"0x000000000000000000000000f4c9957e2e1fab09a8b48658f68b46e47b134724",
							"0x00000000000000000000000022300cf0cc5f03c7c3db71b64529d2c8a9b93389",
							"0x0000000000000000000000000000000000000000000000000000000000000002"
						],
						"transactionHash": "0xcd0f3b719ae27a6d0d13b50b899a060bd1958816b2c21be6cd95047ae8e64086",
						"transactionIndex": 67
					},
					{
						"address": "0x22300Cf0Cc5F03C7c3Db71b64529D2C8A9b93389",
						"blockHash": "0xe73db15cc4f7b2dca4336b40d2f88ded93bae4e00099f3a0232382c286c12006",
						"blockNumber": 5677697,
						"data": "0x000000000000000000000000000000000000000000000000000000000000010000000000000000000000000000000000000000000000000000000000000004800000000000000000000000000000000000000000000000000000000000000540000000000000000000000000000000000000000000000000000000000000062000000000000000000000000000000000000000000000000000000000000007800000000000000000000000000000000000000000000000000000000000000e200000000000000000000000000000000000000000000000000000000000000001000000000000000000000000584f5da53cb18789099466074e3b5c32ed17243a00000000000000000000000000000000000000000000000000000000000000c0000000000000000000000000000000000000000000000000000000000000eeee000000000000000000000000000000000000000000422ca8b0a00a42500000000000000000000000000000000000000000000000000000000000000000000001000000000000000000000000584f5da53cb18789099466074e3b5c32ed17243a00000000000000000000000000000000000000000000000000000000000001e0000000000000000000000000000000000000000000000000000000000000008000000000000000000000000000000000000000000000000000000000000000c0000000000000000000000000000000000000000000000000000000000000010042414e4e595f5645525345000000000000000000000000000000000000000000000000000000000000000000000000000000000000000000000000000000000a42616e6e79766572736500000000000000000000000000000000000000000000000000000000000000000000000000000000000000000000000000000000000542414e4e59000000000000000000000000000000000000000000000000000000000000000000000000000000000000000000000000000000000000000000000000000000000000000000000000000000000000000000000000000000000000020000000000000000000000000000000000000000000000000000000065f9e319000000000000000000000000000000000000000000000000000000000000138800000000000000000000000000000000000000000000d3c21bcecceda100000000000000000000000000000000000000000000000000000000000000000151800000000000000000000000000000000000000000000000000000000002faf08000000000000000000000000000000000000000000000000000000000000007d000000000000000000000000000000000000000000000000000000000661ecd19000000000000000000000000000000000000000000000000000000000000138800000000000000000000000000000000000000000000152d02c7e14af68000000000000000000000000000000000000000000000000000000000000000093a800000000000000000000000000000000000000000000000000000000000009680000000000000000000000000000000000000000000000000000000000000138800000000000000000000000000000000000000000000000000000000000000010000000000000000000000000000000000000000000000000000000000000020000000000000000000000000aa62cfe29251db6774ecc77860b3c25da3bcdc7900000000000000000000000000000000000000000000000000000000000000400000000000000000000000000000000000000000000000000000000000000001000000000000000000000000000000000000000000000000000000000000eeee0000000000000000000000001d6ce46c730b46930f17cc09fbcedfc08d7454cc00000000000000000000000000000000000000000000000000000000000000400000000000000000000000000000000000000000000000000000000000000001000000000000000000000000000000000000000000000000000000000000eeee0000000000000000000000000000000000000000000000000000000000002710000000000000000000000000000000000000000000000000000000000002a3000000000000000000000000000000000000000000000000000000000000002328000000000000000000000000000000000000000000000000000000000000004042414e4e5956455253455f5355434b455200000000000000000000000000000000000000000000000000000000000000000000000000000000000000000000010000000000000000000000000000000000000000000000000000000000000020000000000000000000000000024d04722a8fd6b98668c64e56b3f47357fa86a400000000000000000000000000000000000000000000000000000000000000400000000000000000000000000000000000000000000000000000000000000001000000000000000000000000000000000000000000000000000000000000eeee0000000000000000000000000000000000000000000000000000000000030d40000000000000000000000000000000000000000000000000000000000000eeee000000000000000000000000000000000000000000000000002386f26fc100000000000000000000000000000000000000000000000000000000000000000002000000000000000000000000000000000000000000000000000000000000004000000000000000000000000000000000000000000000000000000000000003600000000000000000000000000000000000000000000000000000000065f9e319000000000000000000000000000000000000000000000000000000000001518000000000000000000000000000000000000000000000d3c21bcecceda10000000000000000000000000000000000000000000000000000000000000002faf080000000000000000000000000000000000000000000000000000000000000000000000000000000000000000000000000000000000000000000000000000013880000000000000000000000000000000000000000000000000000000000001f40000000000000000000000000000000000000000000000000000000000000eeee0000000000000000000000000000000000000000000000000000000000000000000000000000000000000000000000000000000000000000000000000000000000000000000000000000000000000000000000000000000000000000000000010000000000000000000000000000000000000000000000000000000000000000000000000000000000000000000000000000000000000000000000000000000000000000000000000000000000000000000000000000000000000000000000000000000000000000000000000000000000000000000000000000000000000000000000000000000000000000000000000000000000000000000000000000000000000000000000000000000000000000000000000000000000000000000000000000000000000000000000000000000000000000000000000000000000000001000000000000000000000000000000000000000000000000000000000000000000000000000000000000000022300cf0cc5f03c7c3db71b64529d2c8a9b93389000000000000000000000000000000000000000000000000000000000000000000000000000000000000000000000000000000000000000000000000000002e000000000000000000000000000000000000000000000000000000000000003000000000000000000000000000000000000000000000000000000000000000000000000000000000000000000000000000000000000000000000000000000000000000000000000000000000000000000000000000000000000000000661ecd190000000000000000000000000000000000000000000000000000000000093a8000000000000000000000000000000000000000000000152d02c7e14af68000000000000000000000000000000000000000000000000000000000000000009680000000000000000000000000000000000000000000000000000000000000000000000000000000000000000000000000000000000000000000000000000013880000000000000000000000000000000000000000000000000000000000001388000000000000000000000000000000000000000000000000000000000000eeee0000000000000000000000000000000000000000000000000000000000000000000000000000000000000000000000000000000000000000000000000000000000000000000000000000000000000000000000000000000000000000000000010000000000000000000000000000000000000000000000000000000000000000000000000000000000000000000000000000000000000000000000000000000000000000000000000000000000000000000000000000000000000000000000000000000000000000000000000000000000000000000000000000000000000000000000000000000000000000000000000000000000000000000000000000000000000000000000000000000000000000000000000000000000000000000000000000000000000000000000000000000000000000000000000000000000000001000000000000000000000000000000000000000000000000000000000000000000000000000000000000000022300cf0cc5f03c7c3db71b64529d2c8a9b93389000000000000000000000000000000000000000000000000000000000000000000000000000000000000000000000000000000000000000000000000000002e000000000000000000000000000000000000000000000000000000000000003000000000000000000000000000000000000000000000000000000000000000000000000000000000000000000000000000000000000000000000000000000000000000000000000000000000000000000000000000000000000000000000002a0000000000000000000000000000000000000000000000000000000000000eeee000000000000000000000000000000000000000000000000000000000000000100000000000000000000000000000000000000000000000000000000000000a000000000000000000000000000000000000000000000000000000000000000e042414e4e595f5645525345000000000000000000000000000000000000000000000000000000000000000000000000000000000000000000000000000000000a42616e6e79766572736500000000000000000000000000000000000000000000000000000000000000000000000000000000000000000000000000000000000542414e4e590000000000000000000000000000000000000000000000000000000000000000000000000000000000000000000000000000000000000065f9e319000000000000000000000000000000000000000000000000000000000000138800000000000000000000000000000000000000000000d3c21bcecceda100000000000000000000000000000000000000000000000000000000000000000151800000000000000000000000000000000000000000000000000000000002faf08000000000000000000000000000000000000000000000000000000000000007d000000000000000000000000000000000000000000000000000000000661ecd19000000000000000000000000000000000000000000000000000000000000138800000000000000000000000000000000000000000000152d02c7e14af68000000000000000000000000000000000000000000000000000000000000000093a8000000000000000000000000000000000000000000000000000000000000096800000000000000000000000000000000000000000000000000000000000001388",
						"index": 115,
						"topics": [
							"0x4b827371715024f69a0bc98c8df6edafe6e471e78488ab1b3849de72f66b12e0",
							"0x0000000000000000000000000000000000000000000000000000000000000002"
						],
						"transactionHash": "0xcd0f3b719ae27a6d0d13b50b899a060bd1958816b2c21be6cd95047ae8e64086",
						"transactionIndex": 67
					},
					{
						"address": "0x22300Cf0Cc5F03C7c3Db71b64529D2C8A9b93389",
						"blockHash": "0xe73db15cc4f7b2dca4336b40d2f88ded93bae4e00099f3a0232382c286c12006",
						"blockNumber": 5677697,
						"data": "0x0000000000000000000000000000000000000000000000000000000000000040000000000000000000000000584f5da53cb18789099466074e3b5c32ed17243a00000000000000000000000000000000000000000000000000000000000000010000000000000000000000000000000000000000000000000000000000000020000000000000000000000000ecf30ba8dffb7bdfde5ea8a7f209b8696152a778000000000000000000000000000000000000000000000000000000000000000000000000000000000000000000000000000000000000000000000000000000600000000000000000000000000000000000000000000000000000000000000000",
						"index": 116,
						"topics": [
							"0xdfaf2737f25eace49d372b472ec03f1df0f9814dfc69d2b95c5e92a041f42e29",
							"0x0000000000000000000000000000000000000000000000000000000000000002"
						],
						"transactionHash": "0xcd0f3b719ae27a6d0d13b50b899a060bd1958816b2c21be6cd95047ae8e64086",
						"transactionIndex": 67
					},
					{
						"address": "0xC3644756f243Ad1BDE2b4a65061Fc929803f72CA",
						"blockHash": "0xe73db15cc4f7b2dca4336b40d2f88ded93bae4e00099f3a0232382c286c12006",
						"blockNumber": 5677697,
						"data": "0x000000000000000000000000000000000000000000000000000000000000004000000000000000000000000022300cf0cc5f03c7c3db71b64529d2c8a9b9338900000000000000000000000000000000000000000000000000000000000000040000000000000000000000000000000000000000000000000000000000000080000000000000000000000000000000000000000000000000000000000000016000000000000000000000000000000000000000000000000000000000000002400000000000000000000000000000000000000000000000000000000000000320000000000000000000000000ecf30ba8dffb7bdfde5ea8a7f209b8696152a778000000000000000000000000000000000000000000000000000000000000006400000000000000000000000000000000000000000000000000038d7ea4c680000000000000000000000000000000000000000000000000000000000000002710000000000000000000000000000000000000000000000000000000003b9ac9ff00000000000000000000000000000000000000000000000000000000000000c00000000000000000000000000000000000000000000000000000000000000000000000000000000000000000ecf30ba8dffb7bdfde5ea8a7f209b8696152a7780000000000000000000000000000000000000000000000000000000000000065000000000000000000000000000000000000000000000000016345785d8a00000000000000000000000000000000000000000000000000000000000000000064000000000000000000000000000000000000000000000000000000003b9ac9ff00000000000000000000000000000000000000000000000000000000000000c00000000000000000000000000000000000000000000000000000000000000000000000000000000000000000ecf30ba8dffb7bdfde5ea8a7f209b8696152a77800000000000000000000000000000000000000000000000000000000000000660000000000000000000000000000000000000000000000000de0b6b3a7640000000000000000000000000000000000000000000000000000000000000000000a000000000000000000000000000000000000000000000000000000003b9ac9ff00000000000000000000000000000000000000000000000000000000000000c00000000000000000000000000000000000000000000000000000000000000000000000000000000000000000ecf30ba8dffb7bdfde5ea8a7f209b8696152a77800000000000000000000000000000000000000000000000000000000000000670000000000000000000000000000000000000000000000056bc75e2d63100000000000000000000000000000000000000000000000000000000000000000000a000000000000000000000000000000000000000000000000000000003b9ac9ff00000000000000000000000000000000000000000000000000000000000000c00000000000000000000000000000000000000000000000000000000000000000",
						"index": 117,
						"topics": [
							"0x721f1fc2dbea25cab88bdd50f9b47aff50f4b8c43ea6ea02b3587c82b940ad41",
							"0x0000000000000000000000000000000000000000000000000000000000000002"
						],
						"transactionHash": "0xcd0f3b719ae27a6d0d13b50b899a060bd1958816b2c21be6cd95047ae8e64086",
						"transactionIndex": 67
					},
					{
						"address": "0x711eda44F3D42F3d255846b5EE36Cf70Fd912E50",
						"blockHash": "0xe73db15cc4f7b2dca4336b40d2f88ded93bae4e00099f3a0232382c286c12006",
						"blockNumber": 5677697,
						"data": "0x0000000000000000000000000000000000000000000000000000000000000060000000000000000000000000000000000000000000000000000000000020000000000000000000000000000022300cf0cc5f03c7c3db71b64529d2c8a9b9338900000000000000000000000000000000000000000000000000000000000000010000000000000000000000000000000000000000000000000000000000000015",
						"index": 118,
						"topics": [
							"0xf8cdf10a0ce6189c6d069e97320ef146e2bcbd32d6c0b86dcbfbf3bd8578fa70",
							"0x000000000000000000000000c3644756f243ad1bde2b4a65061fc929803f72ca",
							"0x00000000000000000000000022300cf0cc5f03c7c3db71b64529d2c8a9b93389",
							"0x0000000000000000000000000000000000000000000000000000000000000002"
						],
						"transactionHash": "0xcd0f3b719ae27a6d0d13b50b899a060bd1958816b2c21be6cd95047ae8e64086",
						"transactionIndex": 67
					},
					{
						"address": "0x584F5Da53cb18789099466074e3B5c32Ed17243a",
						"blockHash": "0xe73db15cc4f7b2dca4336b40d2f88ded93bae4e00099f3a0232382c286c12006",
						"blockNumber": 5677697,
						"data": "0x",
						"index": 119,
						"topics": [
							"0x6895c13664aa4f67288b25d7a21d7aaa34916e355fb9b6fae0a139a9085becb8",
							"0x000000000000000000000000183b35e76a7bc60298dcb637515f50e4def9b68b"
						],
						"transactionHash": "0xcd0f3b719ae27a6d0d13b50b899a060bd1958816b2c21be6cd95047ae8e64086",
						"transactionIndex": 67
					},
					{
						"address": "0x183b35E76A7BC60298DCb637515F50e4DeF9b68b",
						"blockHash": "0xe73db15cc4f7b2dca4336b40d2f88ded93bae4e00099f3a0232382c286c12006",
						"blockNumber": 5677697,
						"data": "0x0000000000000000000000000000000000000000000000000000000000000005",
						"index": 120,
						"topics": [
							"0xa65fb05c5808f5f389d72edeaf719ce38f4cc55c1f69ca3cbfb31c21501caa07",
							"0x123e0fc5cd2aa01c9d6a52fff3d4feccd82ddc10ba8c97eb8e3b9c5ad02d7f9a"
						],
						"transactionHash": "0xcd0f3b719ae27a6d0d13b50b899a060bd1958816b2c21be6cd95047ae8e64086",
						"transactionIndex": 67
					},
					{
						"address": "0xfa679f5ecdd8bE404c1FbAa7f29aEB2b12F5B662",
						"blockHash": "0xe73db15cc4f7b2dca4336b40d2f88ded93bae4e00099f3a0232382c286c12006",
						"blockNumber": 5677697,
						"data": "0x",
						"index": 121,
						"topics": [
							"0xddf252ad1be2c89b69c2b068fc378daa952ba7f163c4a11628f55a4df523b3ef",
							"0x000000000000000000000000584f5da53cb18789099466074e3b5c32ed17243a",
							"0x00000000000000000000000022300cf0cc5f03c7c3db71b64529d2c8a9b93389",
							"0x0000000000000000000000000000000000000000000000000000000000000002"
						],
						"transactionHash": "0xcd0f3b719ae27a6d0d13b50b899a060bd1958816b2c21be6cd95047ae8e64086",
						"transactionIndex": 67
					},
					{
						"address": "0x584F5Da53cb18789099466074e3B5c32Ed17243a",
						"blockHash": "0xe73db15cc4f7b2dca4336b40d2f88ded93bae4e00099f3a0232382c286c12006",
						"blockNumber": 5677697,
						"data": "0x",
						"index": 122,
						"topics": [
							"0x6895c13664aa4f67288b25d7a21d7aaa34916e355fb9b6fae0a139a9085becb8",
							"0x000000000000000000000000183b35e76a7bc60298dcb637515f50e4def9b68b"
						],
						"transactionHash": "0xcd0f3b719ae27a6d0d13b50b899a060bd1958816b2c21be6cd95047ae8e64086",
						"transactionIndex": 67
					},
					{
						"address": "0x183b35E76A7BC60298DCb637515F50e4DeF9b68b",
						"blockHash": "0xe73db15cc4f7b2dca4336b40d2f88ded93bae4e00099f3a0232382c286c12006",
						"blockNumber": 5677697,
						"data": "0x0000000000000000000000000000000000000000000000000000000000000006",
						"index": 123,
						"topics": [
							"0xa65fb05c5808f5f389d72edeaf719ce38f4cc55c1f69ca3cbfb31c21501caa07",
							"0x123e0fc5cd2aa01c9d6a52fff3d4feccd82ddc10ba8c97eb8e3b9c5ad02d7f9a"
						],
						"transactionHash": "0xcd0f3b719ae27a6d0d13b50b899a060bd1958816b2c21be6cd95047ae8e64086",
						"transactionIndex": 67
					},
					{
						"address": "0x183b35E76A7BC60298DCb637515F50e4DeF9b68b",
						"blockHash": "0xe73db15cc4f7b2dca4336b40d2f88ded93bae4e00099f3a0232382c286c12006",
						"blockNumber": 5677697,
						"data": "0x",
						"index": 124,
						"topics": [
							"0x4383d976757d67ca920616be0b6430a681ea9d3dcce8d6d61d4603ca4a9bff63",
							"0x123e0fc5cd2aa01c9d6a52fff3d4feccd82ddc10ba8c97eb8e3b9c5ad02d7f9a"
						],
						"transactionHash": "0xcd0f3b719ae27a6d0d13b50b899a060bd1958816b2c21be6cd95047ae8e64086",
						"transactionIndex": 67
					}
				],
				"logsBloom": "0x04c0000008001001422000020448020a00080000000800450091100000408280000001010040000a0000002004480200000040000050200008000800000400000000001000022200004000484002000800010840800408002010800410808010000000000240000280010220000148004008000401000100400a0012002040c18000000a1062010000210000004100001082250a002000020000004122000000004018820214000000400900000002020208000000000060000220014804204000000002000804000080000068010a20011000000000008000000000080660000000000220800028040000000000010380005000048300000000000008000000",
				"status": 1,
				"to": "0xB5E96127D417b1B3ef8438496a38A143167209c7"
			},
			"metadata": "{\"compiler\":{\"version\":\"0.8.23+commit.f704f362\"},\"language\":\"Solidity\",\"output\":{\"abi\":[{\"inputs\":[{\"internalType\":\"address\",\"name\":\"owner\",\"type\":\"address\"},{\"internalType\":\"address\",\"name\":\"trustedForwarder\",\"type\":\"address\"}],\"stateMutability\":\"nonpayable\",\"type\":\"constructor\"},{\"inputs\":[],\"type\":\"error\",\"name\":\"ASSET_IS_ALREADY_BEING_WORN\"},{\"inputs\":[],\"type\":\"error\",\"name\":\"CONTENTS_ALREADY_STORED\"},{\"inputs\":[],\"type\":\"error\",\"name\":\"CONTENTS_MISMATCH\"},{\"inputs\":[],\"type\":\"error\",\"name\":\"FACE_ALREADY_ADDED\"},{\"inputs\":[],\"type\":\"error\",\"name\":\"HASH_ALREADY_STORED\"},{\"inputs\":[],\"type\":\"error\",\"name\":\"HASH_NOT_FOUND\"},{\"inputs\":[],\"type\":\"error\",\"name\":\"HEAD_ALREADY_ADDED\"},{\"inputs\":[],\"type\":\"error\",\"name\":\"ONESIE_ALREADY_ADDED\"},{\"inputs\":[{\"internalType\":\"address\",\"name\":\"owner\",\"type\":\"address\"}],\"type\":\"error\",\"name\":\"OwnableInvalidOwner\"},{\"inputs\":[{\"internalType\":\"address\",\"name\":\"account\",\"type\":\"address\"}],\"type\":\"error\",\"name\":\"OwnableUnauthorizedAccount\"},{\"inputs\":[],\"type\":\"error\",\"name\":\"SUIT_ALREADY_ADDED\"},{\"inputs\":[],\"type\":\"error\",\"name\":\"UNAUTHORIZED_OUTFIT\"},{\"inputs\":[],\"type\":\"error\",\"name\":\"UNAUTHORIZED_WORLD\"},{\"inputs\":[],\"type\":\"error\",\"name\":\"UNAUTHORIZED__NAKED_BANNY\"},{\"inputs\":[],\"type\":\"error\",\"name\":\"UNORDERED_CATEGORIES\"},{\"inputs\":[],\"type\":\"error\",\"name\":\"UNRECOGNIZED_CATEGORY\"},{\"inputs\":[],\"type\":\"error\",\"name\":\"UNRECOGNIZED_OUTFIT\"},{\"inputs\":[],\"type\":\"error\",\"name\":\"UNRECOGNIZED_TIER\"},{\"inputs\":[],\"type\":\"error\",\"name\":\"UNRECOGNIZED_WORLD\"},{\"inputs\":[{\"internalType\":\"address\",\"name\":\"hook\",\"type\":\"address\",\"indexed\":true},{\"internalType\":\"uint256\",\"name\":\"nakenBannyId\",\"type\":\"uint256\",\"indexed\":true},{\"internalType\":\"uint256\",\"name\":\"worldId\",\"type\":\"uint256\",\"indexed\":false},{\"internalType\":\"uint256[]\",\"name\":\"outfitIds\",\"type\":\"uint256[]\",\"indexed\":false},{\"internalType\":\"address\",\"name\":\"caller\",\"type\":\"address\",\"indexed\":false}],\"type\":\"event\",\"name\":\"DecorateBanny\",\"anonymous\":false},{\"inputs\":[{\"internalType\":\"address\",\"name\":\"previousOwner\",\"type\":\"address\",\"indexed\":true},{\"internalType\":\"address\",\"name\":\"newOwner\",\"type\":\"address\",\"indexed\":true}],\"type\":\"event\",\"name\":\"OwnershipTransferred\",\"anonymous\":false},{\"inputs\":[{\"internalType\":\"string\",\"name\":\"baseUri\",\"type\":\"string\",\"indexed\":false},{\"internalType\":\"address\",\"name\":\"caller\",\"type\":\"address\",\"indexed\":false}],\"type\":\"event\",\"name\":\"SetSvgBaseUri\",\"anonymous\":false},{\"inputs\":[{\"internalType\":\"uint256[]\",\"name\":\"tierId\",\"type\":\"uint256[]\",\"indexed\":true},{\"internalType\":\"string[]\",\"name\":\"svgContents\",\"type\":\"string[]\",\"indexed\":false},{\"internalType\":\"address\",\"name\":\"caller\",\"type\":\"address\",\"indexed\":false}],\"type\":\"event\",\"name\":\"SetSvgContents\",\"anonymous\":false},{\"inputs\":[{\"internalType\":\"uint256[]\",\"name\":\"tierIds\",\"type\":\"uint256[]\",\"indexed\":true},{\"internalType\":\"bytes32[]\",\"name\":\"svgHashs\",\"type\":\"bytes32[]\",\"indexed\":true},{\"internalType\":\"address\",\"name\":\"caller\",\"type\":\"address\",\"indexed\":false}],\"type\":\"event\",\"name\":\"SetSvgHashes\",\"anonymous\":false},{\"inputs\":[{\"internalType\":\"uint256[]\",\"name\":\"tierIds\",\"type\":\"uint256[]\",\"indexed\":true},{\"internalType\":\"string[]\",\"name\":\"names\",\"type\":\"string[]\",\"indexed\":false},{\"internalType\":\"address\",\"name\":\"caller\",\"type\":\"address\",\"indexed\":false}],\"type\":\"event\",\"name\":\"SetTierNames\",\"anonymous\":false},{\"inputs\":[{\"internalType\":\"uint256\",\"name\":\"tokenId\",\"type\":\"uint256\"},{\"internalType\":\"uint256\",\"name\":\"tierId\",\"type\":\"uint256\"},{\"internalType\":\"uint256\",\"name\":\"category\",\"type\":\"uint256\"}],\"stateMutability\":\"view\",\"type\":\"function\",\"name\":\"_nameOf\",\"outputs\":[{\"internalType\":\"string\",\"name\":\"\",\"type\":\"string\"}]},{\"inputs\":[{\"internalType\":\"uint256\",\"name\":\"nakedBannyId\",\"type\":\"uint256\"}],\"stateMutability\":\"view\",\"type\":\"function\",\"name\":\"assetIdsOf\",\"outputs\":[{\"internalType\":\"uint256\",\"name\":\"worldId\",\"type\":\"uint256\"},{\"internalType\":\"uint256[]\",\"name\":\"outfitIds\",\"type\":\"uint256[]\"}]},{\"inputs\":[{\"internalType\":\"address\",\"name\":\"hook\",\"type\":\"address\"},{\"internalType\":\"uint256\",\"name\":\"tokenId\",\"type\":\"uint256\"},{\"internalType\":\"bool\",\"name\":\"shouldBeDressed\",\"type\":\"bool\"},{\"internalType\":\"bool\",\"name\":\"shouldIncludeWorld\",\"type\":\"bool\"}],\"stateMutability\":\"view\",\"type\":\"function\",\"name\":\"bannySvgOf\",\"outputs\":[{\"internalType\":\"string\",\"name\":\"\",\"type\":\"string\"}]},{\"inputs\":[{\"internalType\":\"address\",\"name\":\"hook\",\"type\":\"address\"},{\"internalType\":\"uint256\",\"name\":\"nakedBannyId\",\"type\":\"uint256\"},{\"internalType\":\"uint256\",\"name\":\"worldId\",\"type\":\"uint256\"},{\"internalType\":\"uint256[]\",\"name\":\"outfitIds\",\"type\":\"uint256[]\"}],\"stateMutability\":\"nonpayable\",\"type\":\"function\",\"name\":\"decorateBannyWith\"},{\"inputs\":[{\"internalType\":\"address\",\"name\":\"forwarder\",\"type\":\"address\"}],\"stateMutability\":\"view\",\"type\":\"function\",\"name\":\"isTrustedForwarder\",\"outputs\":[{\"internalType\":\"bool\",\"name\":\"\",\"type\":\"bool\"}]},{\"inputs\":[{\"internalType\":\"address\",\"name\":\"hook\",\"type\":\"address\"},{\"internalType\":\"uint256\",\"name\":\"tokenId\",\"type\":\"uint256\"}],\"stateMutability\":\"view\",\"type\":\"function\",\"name\":\"nameOf\",\"outputs\":[{\"internalType\":\"string\",\"name\":\"\",\"type\":\"string\"}]},{\"inputs\":[{\"internalType\":\"uint256\",\"name\":\"outfitId\",\"type\":\"uint256\"}],\"stateMutability\":\"view\",\"type\":\"function\",\"name\":\"outfitIsBeingWornBy\",\"outputs\":[{\"internalType\":\"uint256\",\"name\":\"\",\"type\":\"uint256\"}]},{\"inputs\":[],\"stateMutability\":\"view\",\"type\":\"function\",\"name\":\"owner\",\"outputs\":[{\"internalType\":\"address\",\"name\":\"\",\"type\":\"address\"}]},{\"inputs\":[],\"stateMutability\":\"nonpayable\",\"type\":\"function\",\"name\":\"renounceOwnership\"},{\"inputs\":[{\"internalType\":\"string\",\"name\":\"baseUri\",\"type\":\"string\"}],\"stateMutability\":\"nonpayable\",\"type\":\"function\",\"name\":\"setSvgBaseUri\"},{\"inputs\":[{\"internalType\":\"uint256[]\",\"name\":\"tierIds\",\"type\":\"uint256[]\"},{\"internalType\":\"string[]\",\"name\":\"svgContents\",\"type\":\"string[]\"}],\"stateMutability\":\"nonpayable\",\"type\":\"function\",\"name\":\"setSvgContentsOf\"},{\"inputs\":[{\"internalType\":\"uint256[]\",\"name\":\"tierIds\",\"type\":\"uint256[]\"},{\"internalType\":\"bytes32[]\",\"name\":\"svgHashs\",\"type\":\"bytes32[]\"}],\"stateMutability\":\"nonpayable\",\"type\":\"function\",\"name\":\"setSvgHashsOf\"},{\"inputs\":[{\"internalType\":\"uint256[]\",\"name\":\"tierIds\",\"type\":\"uint256[]\"},{\"internalType\":\"string[]\",\"name\":\"names\",\"type\":\"string[]\"}],\"stateMutability\":\"nonpayable\",\"type\":\"function\",\"name\":\"setTierNames\"},{\"inputs\":[],\"stateMutability\":\"view\",\"type\":\"function\",\"name\":\"svgBaseUri\",\"outputs\":[{\"internalType\":\"string\",\"name\":\"\",\"type\":\"string\"}]},{\"inputs\":[{\"internalType\":\"uint256\",\"name\":\"tierId\",\"type\":\"uint256\"}],\"stateMutability\":\"view\",\"type\":\"function\",\"name\":\"svgHashOf\",\"outputs\":[{\"internalType\":\"bytes32\",\"name\":\"\",\"type\":\"bytes32\"}]},{\"inputs\":[{\"internalType\":\"address\",\"name\":\"hook\",\"type\":\"address\"},{\"internalType\":\"uint256\",\"name\":\"tokenId\",\"type\":\"uint256\"}],\"stateMutability\":\"view\",\"type\":\"function\",\"name\":\"tokenUriOf\",\"outputs\":[{\"internalType\":\"string\",\"name\":\"\",\"type\":\"string\"}]},{\"inputs\":[{\"internalType\":\"address\",\"name\":\"newOwner\",\"type\":\"address\"}],\"stateMutability\":\"nonpayable\",\"type\":\"function\",\"name\":\"transferOwnership\"},{\"inputs\":[],\"stateMutability\":\"view\",\"type\":\"function\",\"name\":\"trustedForwarder\",\"outputs\":[{\"internalType\":\"address\",\"name\":\"\",\"type\":\"address\"}]},{\"inputs\":[{\"internalType\":\"uint256\",\"name\":\"worldId\",\"type\":\"uint256\"}],\"stateMutability\":\"view\",\"type\":\"function\",\"name\":\"worldIsBeingUsedBy\",\"outputs\":[{\"internalType\":\"uint256\",\"name\":\"\",\"type\":\"uint256\"}]}],\"devdoc\":{\"kind\":\"dev\",\"methods\":{\"assetIdsOf(uint256)\":{\"params\":{\"nakedBannyId\":\"The ID of the naked banny shows with the associated assets.\"},\"returns\":{\"outfitIds\":\"The outfits attached to the Naked Banny.\",\"worldId\":\"The world attached to the Naked Banny.\"}},\"bannySvgOf(address,uint256,bool,bool)\":{\"params\":{\"hook\":\"The hook storing the assets.\",\"tokenId\":\"The ID of the token to show. If the ID belongs to a Naked Banny, it will be shown with its current outfits in its current world.\"},\"returns\":{\"_0\":\"bannySvg The SVG.\"}},\"constructor\":{\"params\":{\"owner\":\"The owner allowed to add SVG files that correspond to tier IDs.\",\"trustedForwarder\":\"The trusted forwarder for the ERC2771Context.\"}},\"decorateBannyWith(address,uint256,uint256,uint256[])\":{\"details\":\"The caller must own the naked banny being dressed and all outfits being worn.\",\"params\":{\"hook\":\"The hook storing the assets.\",\"nakedBannyId\":\"The ID of the Naked Banny being dressed.\",\"outfitIds\":\"The IDs of the outfits that'll be associated with the specified banny. Only one outfit per outfit category allowed at a time and they must be passed in order.\",\"worldId\":\"The ID of the world that'll be associated with the specified banny.\"}},\"isTrustedForwarder(address)\":{\"details\":\"Indicates whether any particular address is the trusted forwarder.\"},\"nameOf(address,uint256)\":{\"params\":{\"hook\":\"The hook storing the assets.\",\"tokenId\":\"The ID of the token to show.\"},\"returns\":{\"_0\":\"The name of the token.\"}},\"outfitIsBeingWornBy(uint256)\":{\"params\":{\"outfitId\":\"The ID of the outfit being worn.\"},\"returns\":{\"_0\":\"The ID of the naked banny wearing the outfit.\"}},\"owner()\":{\"details\":\"Returns the address of the current owner.\"},\"renounceOwnership()\":{\"details\":\"Leaves the contract without owner. It will not be possible to call `onlyOwner` functions. Can only be called by the current owner. NOTE: Renouncing ownership will leave the contract without an owner, thereby disabling any functionality that is only available to the owner.\"},\"setSvgContentsOf(uint256[],string[])\":{\"params\":{\"svgContents\":\"The svg contents being stored, not including the parent <svg></svg> element.\",\"tierIds\":\"The IDs of the tiers having SVGs stored.\"}},\"setSvgHashsOf(uint256[],bytes32[])\":{\"details\":\"This allows anyone to lazily upload the correct svg file.\",\"params\":{\"svgHashs\":\"The svg hashes being stored, not including the parent <svg></svg> element.\",\"tierIds\":\"The IDs of the tiers having SVG hashes stored.\"}},\"setTierNames(uint256[],string[])\":{\"params\":{\"names\":\"The names of the tiers.\",\"tierIds\":\"The IDs of the tiers having their name stored.\"}},\"tokenUriOf(address,uint256)\":{\"params\":{\"tokenId\":\"The ID of the token to show. If the ID belongs to a Naked Banny, it will be shown with its current outfits in its current world.\"},\"returns\":{\"_0\":\"tokenUri The URI representing the SVG.\"}},\"transferOwnership(address)\":{\"details\":\"Transfers ownership of the contract to a new account (`newOwner`). Can only be called by the current owner.\"},\"trustedForwarder()\":{\"details\":\"Returns the address of the trusted forwarder.\"},\"worldIsBeingUsedBy(uint256)\":{\"params\":{\"worldId\":\"The ID of the world being used.\"},\"returns\":{\"_0\":\"The ID of the naked banny using the world.\"}}},\"version\":1},\"userdoc\":{\"kind\":\"user\",\"methods\":{\"_nameOf(uint256,uint256,uint256)\":{\"notice\":\"The name of each tier.\"},\"assetIdsOf(uint256)\":{\"notice\":\"The assets currently attached to each Naked Banny, owned by the naked Banny's owner.\"},\"bannySvgOf(address,uint256,bool,bool)\":{\"notice\":\"Returns the SVG showing a dressed Naked Banny.\"},\"decorateBannyWith(address,uint256,uint256,uint256[])\":{\"notice\":\"Dress your Naked Banny with outfits.\"},\"nameOf(address,uint256)\":{\"notice\":\"Returns the name of the token.\"},\"outfitIsBeingWornBy(uint256)\":{\"notice\":\"Checks to see which naked banny is currently wearing a particular outfit.\"},\"setSvgBaseUri(string)\":{\"notice\":\"Allows the owner of this contract to specify the base of the domain hosting the SVG files.\"},\"setSvgContentsOf(uint256[],string[])\":{\"notice\":\"The owner of this contract can store SVG files for tier IDs.\"},\"setSvgHashsOf(uint256[],bytes32[])\":{\"notice\":\"Allows the owner of this contract to upload the hash of an svg file for a tierId.\"},\"setTierNames(uint256[],string[])\":{\"notice\":\"Allows the owner to set the tier's name.\"},\"svgBaseUri()\":{\"notice\":\"The base of the domain hosting the SVG files that can be lazily uploaded to the contract.\"},\"svgHashOf(uint256)\":{\"notice\":\"The Naked Banny and outfit SVG hash files.\"},\"tokenUriOf(address,uint256)\":{\"notice\":\"Returns the SVG showing a dressed Naked Banny in a world.\"},\"worldIsBeingUsedBy(uint256)\":{\"notice\":\"Checks to see which naked banny is currently using a particular world.\"}},\"version\":1}},\"settings\":{\"remappings\":[\"@arbitrum/=node_modules/@arbitrum/\",\"@bananapus/=node_modules/@bananapus/\",\"@chainlink/=node_modules/@chainlink/\",\"@croptop/=node_modules/@croptop/\",\"@eth-optimism/=node_modules/@eth-optimism/\",\"@exhausted-pigeon/=node_modules/@exhausted-pigeon/\",\"@gnosis.pm/=node_modules/@bananapus/suckers/node_modules/@sphinx-labs/contracts/node_modules/@gnosis.pm/\",\"@offchainlabs/=node_modules/@offchainlabs/\",\"@openzeppelin/=node_modules/@openzeppelin/\",\"@prb/=node_modules/@prb/\",\"@rev-net/=node_modules/@rev-net/\",\"@scroll-tech/=node_modules/@scroll-tech/\",\"@sphinx-labs/contracts/=node_modules/@sphinx-labs/contracts/contracts/foundry/\",\"@uniswap/=node_modules/@uniswap/\",\"base64-sol/=node_modules/base64-sol/\",\"base64/=lib/base64/\",\"ds-test/=lib/forge-std/lib/ds-test/src/\",\"forge-std/=lib/forge-std/src/\",\"hardhat/=node_modules/hardhat/\",\"solmate/=node_modules/solmate/\",\"sphinx-forge-std/=node_modules/sphinx-forge-std/\",\"sphinx-solmate/=node_modules/sphinx-solmate/\",\"sphinx/=lib/sphinx/packages/contracts/contracts/forge-std/src/\"],\"optimizer\":{\"enabled\":true,\"runs\":200},\"metadata\":{\"bytecodeHash\":\"ipfs\"},\"compilationTarget\":{\"src/Banny721TokenUriResolver.sol\":\"Banny721TokenUriResolver\"},\"evmVersion\":\"paris\",\"libraries\":{},\"viaIR\":true},\"sources\":{\"lib/base64/base64.sol\":{\"keccak256\":\"0xa73959e6ef0b693e4423a562e612370160b934a75e618361ddd8c9c4b8ddbaaf\",\"urls\":[\"bzz-raw://17c12e16d8d66f3af15d8787920bd41ca6c1e7517a212a6b9cebd4b6d38f36fe\",\"dweb:/ipfs/QmcXMnZUXEz6LRKsm3CSvqdPboAzmezavi8bTg2dRxM2yE\"],\"license\":\"MIT\"},\"node_modules/@bananapus/721-hook/src/abstract/ERC721.sol\":{\"keccak256\":\"0xc25c7c60c88684adc3f7a49621d27866866a44a3f3796e63c9fcaba75fbb2e84\",\"urls\":[\"bzz-raw://713103b7a05402264493430cfcd7d85f1a241a2eb4756af53a370fa529ea07bf\",\"dweb:/ipfs/QmSXZfxCG1N9XheS1kLCNJZ9k6ZRq4GnAMY7MKFfbKLXmz\"],\"license\":\"MIT\"},\"node_modules/@bananapus/721-hook/src/interfaces/IJB721Hook.sol\":{\"keccak256\":\"0x24935445bc4c5b0fe2a10aabe549122588940842a68e79a8c39b1df9458dd7fd\",\"urls\":[\"bzz-raw://1dee273fa76d9abae116de911fdda5e3113db2a58939e62e24fba98c63fd037a\",\"dweb:/ipfs/QmT6Lih7DeRAfrLc8uC7ecaw2EAKwhaP2BZHeY5DxeeVLM\"],\"license\":\"MIT\"},\"node_modules/@bananapus/721-hook/src/interfaces/IJB721TiersHook.sol\":{\"keccak256\":\"0xbd9a8dae00a4b1a02c628bd172fe4ae496e49f7651426cef08774ffdb6125c23\",\"urls\":[\"bzz-raw://9ce4fd77d5af1f570dad6b70758f09f9599768e1ab32f6b473f6181197daa0c8\",\"dweb:/ipfs/QmWj6sCTvZ2CbfSyRuhaXADxYbwwPcR42pZokcgfjpsabg\"],\"license\":\"MIT\"},\"node_modules/@bananapus/721-hook/src/interfaces/IJB721TiersHookStore.sol\":{\"keccak256\":\"0x8550e216c12c9cda865c1b1b0eb3f244aeaa8d465b197d4bd0dd8d4df265682e\",\"urls\":[\"bzz-raw://674a312f1eaffd7c6b21f58f8d4a628104e71220daf48a22237fa3bd035ddf21\",\"dweb:/ipfs/QmSRSW6cSwdpoGjVxDqiwJmJyCxfHWhCxZ2iaqeJcN2Ccy\"],\"license\":\"MIT\"},\"node_modules/@bananapus/721-hook/src/interfaces/IJB721TokenUriResolver.sol\":{\"keccak256\":\"0xfa599167098f4459320ec4141a98a17b2dfffbce422baa27d8b4e4530f61ece1\",\"urls\":[\"bzz-raw://8b758b161f4c7b520b2c34b4d91e585e961b8f4ca278eebb91d791f7f2f45140\",\"dweb:/ipfs/QmcD9DF7NJ9QykQpT4KPzm4bs3fkjzukdAUWwdU6Atfw85\"],\"license\":\"MIT\"},\"node_modules/@bananapus/721-hook/src/libraries/JBIpfsDecoder.sol\":{\"keccak256\":\"0xb93ba562ac1fc9d3829be00e61f3a90f51df5661cf0f2c819a7f1d8ba19ec171\",\"urls\":[\"bzz-raw://fc9bc948fac8897d9720ef25b13d63c60b40a18aa1897dd1c657fc278c416b4f\",\"dweb:/ipfs/QmNtiJTALZW5zfyKVy7XG5GkqGgMrfkVvU4Auu4bb9cGQc\"],\"license\":\"MIT\"},\"node_modules/@bananapus/721-hook/src/structs/JB721InitTiersConfig.sol\":{\"keccak256\":\"0xfb78486cec94189d0ecf2050dc9cfc11245b426c73a0711a85bff1359d774307\",\"urls\":[\"bzz-raw://a8fa01f6e64dd204dbde07a60851e9a5a74e439e1411139ae16b7cf67d2a2692\",\"dweb:/ipfs/QmZAnHyfpKr3xr7NWHj5sGaCEEtG8RtmHhkRUJJvNauym5\"],\"license\":\"MIT\"},\"node_modules/@bananapus/721-hook/src/structs/JB721Tier.sol\":{\"keccak256\":\"0x2e267a8af02f125465cdda9308477346ae4a94b024c3b2c2a6af0c00027944dd\",\"urls\":[\"bzz-raw://367ccea2c8fa815d498d771d4367ef1ded718a76e89644102034bfe4a3636b82\",\"dweb:/ipfs/QmYiFFa6ei9wZBSSVUHfY2Cb35zCDVXvbmLcgLj2BTiC1u\"],\"license\":\"MIT\"},\"node_modules/@bananapus/721-hook/src/structs/JB721TierConfig.sol\":{\"keccak256\":\"0x2fa9c5c8cec182b854a656d3b284e9d5306be35ad3dc4da79d65dca12b804af0\",\"urls\":[\"bzz-raw://b443a5f70195a66145ea1dade04454ce9a3ff1209e1aaecf53c8a9909b294d79\",\"dweb:/ipfs/QmUDPFZ4L6XpV3zLQUNVchUvecD4XfddKz2S46BKek5XL1\"],\"license\":\"MIT\"},\"node_modules/@bananapus/721-hook/src/structs/JB721TiersHookFlags.sol\":{\"keccak256\":\"0x283d8429f31bd58875c056515aa42abd09c95362bd929e85cfc44a0d92585766\",\"urls\":[\"bzz-raw://9a580b89fe99d9f8e930c58a4d0d63a5ff7c01c79d210af01373d066c9e72ed6\",\"dweb:/ipfs/QmdY1eSGSoTjv4KSdsG4Tm5CzJN6iqk3qTRga5ZWNbejRz\"],\"license\":\"MIT\"},\"node_modules/@bananapus/721-hook/src/structs/JB721TiersMintReservesConfig.sol\":{\"keccak256\":\"0xab3b319dc4e736586ae595de194d93dcdfeba365bc7a54cf6c37e697f6074ad9\",\"urls\":[\"bzz-raw://a84ae2cf2e8c3e39e831dbb39a67a8eb43c78a6de6bb78b1be2e1f1e80c69efe\",\"dweb:/ipfs/QmboGXEMqsYTxc4a7oft9rggNU7ShWSa9yB4HFMVmzXCHz\"],\"license\":\"MIT\"},\"node_modules/@bananapus/core/src/enums/JBApprovalStatus.sol\":{\"keccak256\":\"0x61c69b6bac7d24b566d87cda23a77e4ca9cdb87200b106aba8534cb9a0973e33\",\"urls\":[\"bzz-raw://6a9ca7249de76f77a8252eefe6bd1b63d47952f25a2acfa2c8db967cdff4470c\",\"dweb:/ipfs/QmaxSxptRQNj8bNy96EreENmrnRWdKmhyihBcxyWzBX5BN\"],\"license\":\"MIT\"},\"node_modules/@bananapus/core/src/interfaces/IJBDirectory.sol\":{\"keccak256\":\"0x9cc380844aef60078ee47a61861e55a29c4a8c947efd556ebd36e6909f7b9d62\",\"urls\":[\"bzz-raw://9f5190ec8b6683d9781ee6e9eedcc91294753242748875d4a06349077e4cbaaf\",\"dweb:/ipfs/QmTQrPuXT9TCA4txwrperMeXSGvGxP8iokUK47f62F388i\"],\"license\":\"MIT\"},\"node_modules/@bananapus/core/src/interfaces/IJBPayHook.sol\":{\"keccak256\":\"0x9438866782c652c2942f4d114e35f393cd3c8b0334abce8387eed90bca35e8b2\",\"urls\":[\"bzz-raw://cfd99daf57213f92325aad7d7d16e98476d38e870470e95ba01e3ae3cdecc95d\",\"dweb:/ipfs/QmUKKAVGf7ki8BHksr99tFcRW8APveeB5tNH63ctTbbCW8\"],\"license\":\"MIT\"},\"node_modules/@bananapus/core/src/interfaces/IJBPriceFeed.sol\":{\"keccak256\":\"0x4bd84c0f1a5d4729ed709bcddd43f4c50ec4a165ece79780af8dce482ed07d4a\",\"urls\":[\"bzz-raw://62bac4bfb6982fb002f620c77e5c445e62d50241a5aa64a07e51d929f5a42180\",\"dweb:/ipfs/QmWgJUDreVY2BuMX38a1iUUR5kNbMwGnKG3VvurB7oZtuM\"],\"license\":\"MIT\"},\"node_modules/@bananapus/core/src/interfaces/IJBPrices.sol\":{\"keccak256\":\"0x99525f31440b955742dce84ba57de9fc1221139b5367c1f834723bef9e13e6e1\",\"urls\":[\"bzz-raw://6fa03f0cd4ad87dd7cbae7bf7f54463450874291773c8f70f2c31ef2cae62bb0\",\"dweb:/ipfs/QmSPajPV5ismteJuB6Spzm9VmhTj2iS3eVrfpJC1Zuzg8n\"],\"license\":\"MIT\"},\"node_modules/@bananapus/core/src/interfaces/IJBProjects.sol\":{\"keccak256\":\"0x735c2fb8f1fa827f054ee77f7a0ae4b312656217acb75b624d2c8fd9dc40151b\",\"urls\":[\"bzz-raw://ee7fc92299a8633a80693ae63ab494dcd125f1789487a54a39dc0e5696e5996f\",\"dweb:/ipfs/QmX7YJD4pS2XhgQb7p3JbBAXynT7YGPXcZe92BiWWRrsCL\"],\"license\":\"MIT\"},\"node_modules/@bananapus/core/src/interfaces/IJBRulesetApprovalHook.sol\":{\"keccak256\":\"0x592e95d159494421c6b1bcb362d0cee1df0132921697351304e9cd7af4fbd386\",\"urls\":[\"bzz-raw://5bebfd5fa67c1b6ea16fa2e76e9520e9dfe52a579f48dd94d0c2ec45f78ad178\",\"dweb:/ipfs/QmRUawEGtfYoYSHmHELGhvJoWuMsxLPKtqAXgsrb7fJboP\"],\"license\":\"MIT\"},\"node_modules/@bananapus/core/src/interfaces/IJBRulesets.sol\":{\"keccak256\":\"0xd3f817d22ecbe24da63c552c069bf0c4fbbf3bcd5c3b5633002afd24aacf6882\",\"urls\":[\"bzz-raw://c1185aec0f6b6f0f4d93ffeeed0972ccf38420b00fe570b5e1838ed2b1f5db49\",\"dweb:/ipfs/QmWz36azGTFnjFXpFSh6BHt4nactgjtF64L3PeTqs4ZqSR\"],\"license\":\"MIT\"},\"node_modules/@bananapus/core/src/interfaces/IJBTerminal.sol\":{\"keccak256\":\"0x19dc9bf8cbdc8f13ee5da9dc3a87047eacb94a3fc19740a286c1f0bad2cc39ca\",\"urls\":[\"bzz-raw://0b05ae6fda9a85672508232fd992b8a5f5ffd8096622eeb12c8a7b3317eb3867\",\"dweb:/ipfs/QmNh9Quj37BXYGdTdcCD1Q58PchRsE5TLbEZep56qS3MpV\"],\"license\":\"MIT\"},\"node_modules/@bananapus/core/src/interfaces/IJBTokenUriResolver.sol\":{\"keccak256\":\"0xfa5cb00dcd6085d1ef912d071fe73c63f9478a2cd0f9d8bddaf659b6af2d0967\",\"urls\":[\"bzz-raw://282e4e7c342d65f77cde0e9a08fcaf20ef5cf379c7a48b639842c0ffd0b2afb8\",\"dweb:/ipfs/QmbnN3PEQeZaXdPLT75V1J79kMg7KqSMru37RHrL3z8Yf2\"],\"license\":\"MIT\"},\"node_modules/@bananapus/core/src/structs/JBAccountingContext.sol\":{\"keccak256\":\"0x2907ff54d1e903cc7e0390dd88c3975884702dc2673642aacbe22b66560b56de\",\"urls\":[\"bzz-raw://a66a5381ce877b32f0e0058ceeaf843e9b6b2bc8af666c0c9f4a9d01091da004\",\"dweb:/ipfs/QmQynCetUr37dBkS1YwDS8evxuXGiqanW6THmeUxXtim8w\"],\"license\":\"MIT\"},\"node_modules/@bananapus/core/src/structs/JBAfterPayRecordedContext.sol\":{\"keccak256\":\"0xd26c3a774ff38be79064085970454fe2603a23a638c76270d5b1b3829206c3e8\",\"urls\":[\"bzz-raw://3b55dbe3bf1ef625b7ca04efab3de35406e6041d5b3d82c7265469c500e2b702\",\"dweb:/ipfs/QmUdBDo4Lt3mcsFcsXT2mqq3czFwZjQJFPLM89YA2VtD7k\"],\"license\":\"MIT\"},\"node_modules/@bananapus/core/src/structs/JBRuleset.sol\":{\"keccak256\":\"0x15b2bf3174d84846a91ccbf5a344dfb125b55ed9cf50102db8d6868844225189\",\"urls\":[\"bzz-raw://647416b025dbd941094db89cbc69f755c155bd6c87be3f322394ccc4a8e0442d\",\"dweb:/ipfs/QmTCL9xcHnxQ4t5AmCPoZvXDUPW5xhzhyyXYbkMdyg44au\"],\"license\":\"MIT\"},\"node_modules/@bananapus/core/src/structs/JBTokenAmount.sol\":{\"keccak256\":\"0x5cf0626b73a596c1e2da17c89ae039a7c0374310b060d48568d3b6c11fbe6180\",\"urls\":[\"bzz-raw://63348b50be95e2995409394a17caffc563a646f0972650a1230bf864fbd3219b\",\"dweb:/ipfs/QmZXZpS3SbFD5nWaCauf6AqbEhLURv5qsKHpThBvQgDU6u\"],\"license\":\"MIT\"},\"node_modules/@openzeppelin/contracts/access/Ownable.sol\":{\"keccak256\":\"0xff6d0bb2e285473e5311d9d3caacb525ae3538a80758c10649a4d61029b017bb\",\"urls\":[\"bzz-raw://8ed324d3920bb545059d66ab97d43e43ee85fd3bd52e03e401f020afb0b120f6\",\"dweb:/ipfs/QmfEckWLmZkDDcoWrkEvMWhms66xwTLff9DDhegYpvHo1a\"],\"license\":\"MIT\"},\"node_modules/@openzeppelin/contracts/interfaces/draft-IERC6093.sol\":{\"keccak256\":\"0x60c65f701957fdd6faea1acb0bb45825791d473693ed9ecb34726fdfaa849dd7\",\"urls\":[\"bzz-raw://ea290300e0efc4d901244949dc4d877fd46e6c5e43dc2b26620e8efab3ab803f\",\"dweb:/ipfs/QmcLLJppxKeJWqHxE2CUkcfhuRTgHSn8J4kijcLa5MYhSt\"],\"license\":\"MIT\"},\"node_modules/@openzeppelin/contracts/metatx/ERC2771Context.sol\":{\"keccak256\":\"0x98256cf37b71a69b2f5a8a6fe975ea03590dff703102bd141a830f94e8adebf6\",\"urls\":[\"bzz-raw://6251fe1f6a1e45e6d619d150c123afc88b8646b38ee26a136efa9a6988a31d3f\",\"dweb:/ipfs/QmeXDT85wSZdP31wkz3ah3KhponCiksJLP5o2LR5e1JxcK\"],\"license\":\"MIT\"},\"node_modules/@openzeppelin/contracts/token/ERC721/IERC721.sol\":{\"keccak256\":\"0x5ef46daa3b58ef2702279d514780316efaa952915ee1aa3396f041ee2982b0b4\",\"urls\":[\"bzz-raw://2f8f2a76e23b02fc69e8cd24c3cb47da6c7af3a2d6c3a382f8ac25c6e094ade7\",\"dweb:/ipfs/QmPV4ZS4tPVv4mTCf9ejyZ1ai57EEibDRj7mN2ARDCLV5n\"],\"license\":\"MIT\"},\"node_modules/@openzeppelin/contracts/token/ERC721/IERC721Receiver.sol\":{\"keccak256\":\"0x7f7a26306c79a65fb8b3b6c757cd74660c532cd8a02e165488e30027dd34ca49\",\"urls\":[\"bzz-raw://d01e0b2b837ee2f628545e54d8715b49c7ef2befd08356c2e7f6c50dde8a1c22\",\"dweb:/ipfs/QmWBAn6y2D1xgftci97Z3qR9tQnkvwQpYwFwkTvDMvqU4i\"],\"license\":\"MIT\"},\"node_modules/@openzeppelin/contracts/token/ERC721/extensions/IERC721Metadata.sol\":{\"keccak256\":\"0x37d1aaaa5a2908a09e9dcf56a26ddf762ecf295afb5964695937344fc6802ce1\",\"urls\":[\"bzz-raw://ed0bfc1b92153c5000e50f4021367b931bbe96372ac6facec3c4961b72053d02\",\"dweb:/ipfs/Qmbwp8VDerjS5SV1quwHH1oMXxPQ93fzfLVqJ2RCqbowGE\"],\"license\":\"MIT\"},\"node_modules/@openzeppelin/contracts/utils/Context.sol\":{\"keccak256\":\"0x493033a8d1b176a037b2cc6a04dad01a5c157722049bbecf632ca876224dd4b2\",\"urls\":[\"bzz-raw://6a708e8a5bdb1011c2c381c9a5cfd8a9a956d7d0a9dc1bd8bcdaf52f76ef2f12\",\"dweb:/ipfs/Qmax9WHBnVsZP46ZxEMNRQpLQnrdE4dK8LehML1Py8FowF\"],\"license\":\"MIT\"},\"node_modules/@openzeppelin/contracts/utils/Strings.sol\":{\"keccak256\":\"0x55f102ea785d8399c0e58d1108e2d289506dde18abc6db1b7f68c1f9f9bc5792\",\"urls\":[\"bzz-raw://6e52e0a7765c943ef14e5bcf11e46e6139fa044be564881378349236bf2e3453\",\"dweb:/ipfs/QmZEeeXoFPW47amyP35gfzomF9DixqqTEPwzBakv6cZw6i\"],\"license\":\"MIT\"},\"node_modules/@openzeppelin/contracts/utils/introspection/ERC165.sol\":{\"keccak256\":\"0x9e8778b14317ba9e256c30a76fd6c32b960af621987f56069e1e819c77c6a133\",\"urls\":[\"bzz-raw://1777404f1dcd0fac188e55a288724ec3c67b45288e49cc64723e95e702b49ab8\",\"dweb:/ipfs/QmZFdC626GButBApwDUvvTnUzdinevC3B24d7yyh57XkiA\"],\"license\":\"MIT\"},\"node_modules/@openzeppelin/contracts/utils/introspection/IERC165.sol\":{\"keccak256\":\"0x4296879f55019b23e135000eb36896057e7101fb7fb859c5ef690cf14643757b\",\"urls\":[\"bzz-raw://87b3541437c8c443ccd36795e56a338ed12855eec17f8da624511b8d1a7e14df\",\"dweb:/ipfs/QmeJQCtZrQjtJLr6u7ZHWeH3pBnjtLWzvRrKViAi7UZqxL\"],\"license\":\"MIT\"},\"node_modules/@openzeppelin/contracts/utils/math/Math.sol\":{\"keccak256\":\"0x005ec64c6313f0555d59e278f9a7a5ab2db5bdc72a027f255a37c327af1ec02d\",\"urls\":[\"bzz-raw://4ece9f0b9c8daca08c76b6b5405a6446b6f73b3a15fab7ff56e296cbd4a2c875\",\"dweb:/ipfs/QmQyRpyPRL5SQuAgj6SHmbir3foX65FJjbVTTQrA2EFg6L\"],\"license\":\"MIT\"},\"node_modules/@openzeppelin/contracts/utils/math/SignedMath.sol\":{\"keccak256\":\"0x5f7e4076e175393767754387c962926577f1660dd9b810187b9002407656be72\",\"urls\":[\"bzz-raw://7d533a1c97cd43a57cd9c465f7ee8dd0e39ae93a8fb8ff8e5303a356b081cdcc\",\"dweb:/ipfs/QmVBEei6aTnvYNZp2CHYVNKyZS4q1KkjANfY39WVXZXVoT\"],\"license\":\"MIT\"},\"src/Banny721TokenUriResolver.sol\":{\"keccak256\":\"0x35e69086065667b2aed83201ec3894c44f7ee7f3f605879e009386ceaee167b6\",\"urls\":[\"bzz-raw://f0c74a5b1aa4c00e6b4c8358cc372dfe7370e3709ae9d585b018d85280ed3fc8\",\"dweb:/ipfs/QmNxqnKLMKGoYfCDP1tcLnMv84ShADsXakTAhRQNJqU7SN\"],\"license\":\"MIT\"}},\"version\":1}",
			"args": [
				"0x584F5Da53cb18789099466074e3B5c32Ed17243a",
				"0xB2b5841DBeF766d4b521221732F9B618fCf34A87"
			],
			"bytecode": "0x60a034620000e957601f62005ddf38819003918201601f19168301916001600160401b03831184841017620000ee578084926040948552833981010312620000e9576200005a6020620000528362000104565b920162000104565b6080526001600160a01b039081168015620000d057600080546001600160a01b03198116831782556040519316907f8be0079c531659141344cd1fd0a4f28419497f9722a3daafe3b4186f6b6457e09080a3615cc590816200011a823960805181818161090501528181610a2b01526157660152f35b604051631e4fbdf760e01b815260006004820152602490fd5b600080fd5b634e487b7160e01b600052604160045260246000fd5b51906001600160a01b0382168203620000e95756fe6080604052600436101561001257600080fd5b60003560e01c806257bfdd146101465780631e4578de1461014157806331a290ac1461013c5780634d03376e14610137578063572b6c05146101325780635e703e711461012d5780636aff31dd14610128578063715018a6146101235780637508ac831461011e5780637da0a87714610119578063875e4bea146101145780638da5cb5b1461010f578063aeac5e351461010a578063b03a3eab14610105578063c06e7bc714610100578063f2fde38b146100fb578063f92df2e3146100f6578063f9fed041146100f15763fff628c6146100ec57600080fd5b611565565b61153d565b611518565b61148c565b610ddb565b610d38565b610c14565b610beb565b610a5a565b610a15565b6109ef565b610991565b610965565b610939565b6108e1565b6107ff565b610635565b6104a6565b61042b565b90600182811c9216801561017b575b602083101461016557565b634e487b7160e01b600052602260045260246000fd5b91607f169161015a565b634e487b7160e01b600052604160045260246000fd5b602081019081106001600160401b038211176101b657604052565b610185565b6111a081019081106001600160401b038211176101b657604052565b606081019081106001600160401b038211176101b657604052565b6101c081019081106001600160401b038211176101b657604052565b61026081019081106001600160401b038211176101b657604052565b604081019081106001600160401b038211176101b657604052565b90601f801991011681019081106001600160401b038211176101b657604052565b604051906000826002549161027a8361014b565b8083529260209060019081811690811561030857506001146102a7575b50506102a592500383610245565b565b91509260026000527f405787fa12a823e0f2b7631cc41b3ba8828b3321ca811111fa75cd3aa3bb5ace936000925b8284106102f057506102a59450505081016020013880610297565b855488850183015294850194879450928101926102d5565b915050602092506102a594915060ff191682840152151560051b8201013880610297565b9060405191826000825461033f8161014b565b908184526020946001916001811690816000146103ad575060011461036e575b5050506102a592500383610245565b600090815285812095935091905b8183106103955750506102a5935082010138808061035f565b8554888401850152948501948794509183019161037c565b925050506102a594925060ff191682840152151560051b82010138808061035f565b60005b8381106103e25750506000910152565b81810151838201526020016103d2565b9060209161040b815180928185528580860191016103cf565b601f01601f1916010190565b9060206104289281815201906103f2565b90565b3461045f57600036600319011261045f5761045b610447610266565b6040519182916020835260208301906103f2565b0390f35b600080fd5b604081019181526060602091604060208201528151809452019160809160005b828110610492575050505090565b835185529381019392810192600101610484565b3461045f5760208060031936011261045f57600435906000918083526005602052604083209060405180938491602085549182815201948752602087209187905b828210610554575050505061050190610511930384610245565b6000526006602052604060002090565b5491815191815b83811061052d576040518061045b8782610464565b8061053a600192846115e5565b5161054d6105478661160f565b956115c0565b5201610518565b8354875295860195879450600193840193909101906104e7565b604051906101a082018281106001600160401b038211176101b657604052565b6001600160401b0381116101b65760051b60200190565b9080601f8301121561045f5760209082356105bf8161058e565b936105cd6040519586610245565b81855260208086019260051b82010192831161045f57602001905b8282106105f6575050505090565b813581529083019083016105e8565b9181601f8401121561045f578235916001600160401b03831161045f576020808501948460051b01011161045f57565b3461045f5760408060031936011261045f576001600160401b036004803582811161045f5761066790369083016105a5565b9160243590811161045f5761067f9036908301610605565b909183519060005b8281106106d0575050506106cb6106be7f7b414cb0ad21f3dfa349dbd1d4ca10eeb276661a7af9df6e18086aed7c31c8d69461180c565b9451928392339184611867565b0390a2005b6106da81876115e5565b516106f06106e9838789611623565b36916107c8565b9061070d610708826000526004602052604060002090565b611664565b61079d57610725816000526001602052604060002090565b54801561078d578951602081019061074f81610741848861166e565b03601f198101835282610245565b5190200361077d5760019291610772610777926000526004602052604060002090565b611737565b01610687565b88516375b5da0b60e01b81528490fd5b8951637ef41a4f60e01b81528590fd5b8851630388067760e21b81528490fd5b6001600160401b0381116101b657601f01601f191660200190565b9291926107d4826107ad565b916107e26040519384610245565b82948184528183011161045f578281602093846000960137010152565b3461045f57604036600319011261045f576001600160401b0360043581811161045f576108309036906004016105a5565b60249060243583811161045f573660238201121561045f578060040135926108578461058e565b936108656040519586610245565b8085526020956024602087019260051b8501019336851161045f5760248101925b858410610899576108978888611904565b005b833583811161045f5782013660438201121561045f5789916108c58392369060448a82013591016107c8565b815201930192610886565b6001600160a01b0381160361045f57565b3461045f57602036600319011261045f576020600435610900816108d0565b6040517f00000000000000000000000000000000000000000000000000000000000000006001600160a01b039081169216919091148152f35b3461045f57604036600319011261045f5761045b61044760043561095c816108d0565b60243590611d62565b3461045f57602036600319011261045f5760043560005260016020526020604060002054604051908152f35b3461045f576000806003193601126109ec576109ab612ee8565b80546001600160a01b03198116825581906001600160a01b03167f8be0079c531659141344cd1fd0a4f28419497f9722a3daafe3b4186f6b6457e08280a380f35b80fd5b3461045f57602036600319011261045f576020610a0d6004356120fa565b604051908152f35b3461045f57600036600319011261045f576040517f00000000000000000000000000000000000000000000000000000000000000006001600160a01b03168152602090f35b3461045f5760208060031936011261045f576004356001600160401b0380821161045f573660238301121561045f57816004013590811161045f57602492366024838501011161045f57610aac612ee8565b610ac082610abb60025461014b565b61169c565b600093601f8311600114610b3e575050610b1381807f512c3c91736f50c57a0548c1d01ab02f24c420f002b8b20e2bfe63df9693cd3f95600091610b30575b508160011b916000199060031b1c19161790565b6002555b610b2b6040519283926024339201846121a8565b0390a1005b602491508501013538610aff565b6002600052601f19831694907f405787fa12a823e0f2b7631cc41b3ba8828b3321ca811111fa75cd3aa3bb5ace9282915b878310610bcf57505050827f512c3c91736f50c57a0548c1d01ab02f24c420f002b8b20e2bfe63df9693cd3f9510610bb2575b5050600181811b01600255610b17565b830160240135600019600384901b60f8161c191690553880610ba2565b908060018596848396978b010135815501950193019190610b6f565b3461045f57600036600319011261045f576000546040516001600160a01b039091168152602090f35b3461045f57604036600319011261045f57600435610c31816108d0565b60405163507f146560e01b815260243591906001600160a01b03906020816004818587165afa8015610d0257610ca89360009386938593610d07575b5060405163c44a8e6d60e01b81526001600160a01b039092166004830152602482019390935260006044820152938492839182906064820190565b0392165afa918215610d025761045b92610cd392600091610cdf575b5061010081519101519161285f565b60405191829182610417565b610cfc91503d806000833e610cf48183610245565b810190611b55565b38610cc4565b611af1565b610d2a91935060203d602011610d31575b610d228183610245565b810190611adc565b9138610c6d565b503d610d18565b3461045f57604036600319011261045f576001600160401b0360043581811161045f57610d699036906004016105a5565b9060243590811161045f573660238201121561045f578060040135610d8d8161058e565b91610d9b6040519384610245565b8183526020916024602085019160051b8301019136831161045f57602401905b828210610dcc5761089785876121d1565b81358152908301908301610dbb565b3461045f57608036600319011261045f57610df76004356108d0565b6064356001600160401b03811161045f57610e16903690600401610605565b906040516331a9108f60e11b815260208180610e3c602435600483019190602083019252565b03816004356001600160a01b03165afa908115610d025760009161146d575b50610e73610e67615763565b6001600160a01b031690565b6001600160a01b039091160361145b576044351561143d576040516331a9108f60e11b81526044356004820152602081806024810103816004356001600160a01b03165afa908115610d025760009161141e575b50610ed3610e67615763565b6001600160a01b039091160361140c57610eee604435612a39565b61137d5760405163507f146560e01b815260208160048181356001600160a01b03165afa908115610d02576000916113ed575b5060405163c44a8e6d60e01b81526001600160a01b03600480358216908301526044803560248401526000908301819052919283916064918391165afa908115610d02576000916113d2575b5051156113c057604435610f8d6024356000526006602052604060002090565b55602435610fa76044356000526007602052604060002090565b555b6000610fb36122b4565b5080808182835b878110611033578787610fe38282610fde6024356000526005602052604060002090565b61234d565b7f6a68946ba06488db8585d7c7637fa954b574035fe15720ea760125ef8601725861102e61100f615763565b6040519182916024359660018060a01b036004351696604435856123c6565b0390a3005b61103e818989612325565b6040516331a9108f60e11b81529035600482018190529690602081806024810103816004356001600160a01b03165afa908115610d02576000916113a1575b50611089610e67615763565b6001600160a01b039091160361138f576110a2876120fa565b61137d5760405163507f146560e01b81529560208760048181356001600160a01b03165afa968715610d025760009761135c575b5060405163c44a8e6d60e01b81526001600160a01b0360048035821690830152602482018a9052600060448301819052919889916064918391165afa968715610d0257600097611341575b5086511561132f5761010087015160028110908115611324575b50611312578215159081611302575b506112f0576101008601516004810361118c57505060019061010082965b015196611182602435916000526008602052604060002090565b5501949394610fba565b90959490600581036111a75750506001906101008295611168565b90949290600b81036111c25750506001906101008293611168565b92939092600981036111dd5750506001906101008294611168565b600d8195939295149081821592836112e6575b80156112dc575b806112d5575b156112145760405163167e5dcd60e31b8152600490fd5b6006821480811591826112cb575b80156112c1575b806112ba575b1561124657604051631e550b6f60e11b8152600490fd5b906112b0575b806112a9575b15611269576040516354f653b360e01b8152600490fd5b9161129e575b5080611297575b61128557610100600192611168565b604051635e701b2b60e01b8152600490fd5b5082611276565b600c9150143861126f565b5087611252565b506007821461124c565b508a61122f565b5060088414611229565b5060078414611222565b50866111fd565b50600a82146111f7565b50600c82146111f0565b604051637dc0e82560e11b8152600490fd5b905061010087015111153861114a565b60405163c89badbd60e01b8152600490fd5b600f9150113861113b565b6040516354c0901d60e11b8152600490fd5b61135591973d8091833e610cf48183610245565b9538611121565b61137691975060203d602011610d3157610d228183610245565b95386110d6565b60405163670bdddd60e11b8152600490fd5b60405163812a698960e01b8152600490fd5b6113ba915060203d602011610d3157610d228183610245565b3861107d565b60405163265ba87960e01b8152600490fd5b6113e791503d806000833e610cf48183610245565b38610f6d565b611406915060203d602011610d3157610d228183610245565b38610f21565b604051639d17cec760e01b8152600490fd5b611437915060203d602011610d3157610d228183610245565b38610ec7565b60006114556024356000526006602052604060002090565b55610fa9565b6040516307d59f1360e21b8152600490fd5b611486915060203d602011610d3157610d228183610245565b38610e5b565b3461045f57602036600319011261045f576004356114a9816108d0565b6114b1612ee8565b6001600160a01b0390811680156114ff57600080546001600160a01b03198116831782559092167f8be0079c531659141344cd1fd0a4f28419497f9722a3daafe3b4186f6b6457e08380a380f35b604051631e4fbdf760e01b815260006004820152602490fd5b3461045f57606036600319011261045f5761045b61044760443560243560043561285f565b3461045f57602036600319011261045f576020610a0d600435612a39565b8015150361045f57565b3461045f57608036600319011261045f5761045b610447600435611588816108d0565b6044356115948161155b565b606435916115a18361155b565b60243590612d12565b634e487b7160e01b600052603260045260246000fd5b6060518110156115d35760051b60800190565b6115aa565b8051156115d35760200190565b80518210156115d35760209160051b010190565b634e487b7160e01b600052601160045260246000fd5b600019811461161e5760010190565b6115f9565b91908110156115d35760051b81013590601e198136030182121561045f5701908135916001600160401b03831161045f57602001823603811361045f579190565b610428905461014b565b90611681602092828151948592016103cf565b0190565b818110611690575050565b60008155600101611685565b90601f82116116a9575050565b6102a59160026000527f405787fa12a823e0f2b7631cc41b3ba8828b3321ca811111fa75cd3aa3bb5ace906020601f840160051c830193106116f3575b601f0160051c0190611685565b90915081906116e6565b9190601f811161170c57505050565b6102a5926000526020600020906020601f840160051c830193106116f357601f0160051c0190611685565b91909182516001600160401b0381116101b65761175e81611758845461014b565b846116fd565b602080601f83116001146117a157508190611792939495600092611796575b50508160011b916000199060031b1c19161790565b9055565b01519050388061177d565b90601f198316956117b785600052602060002090565b926000905b8882106117f4575050836001959697106117db575b505050811b019055565b015160001960f88460031b161c191690553880806117d1565b806001859682949686015181550195019301906117bc565b60405190818183925160208092019160005b82811061182f575050505003902090565b83518552869550938101939281019260010161181e565b908060209392818452848401376000828201840152601f01601f1916010190565b9392919081604086016040875252606085019160608160051b87010192826000905b8382106118ab5750505050509060206102a59294019060018060a01b03169052565b9091929394605f198982030184528535601e198336030181121561045f578201803560208092016001600160401b03821161045f57813603811361045f5760019383926118f792611846565b9701959401920190611889565b919061190e612ee8565b8251926000935b80851061196257507f31ddb2f0a32be79206d6bf3e670f8cc38863c4984b95cdbe8ed6eba58207a3a59192935061194e61195d9161180c565b92604051918291339083611a68565b0390a2565b61196c85836115e5565b519461197881856115e5565b5195600052600360208181526040600020918851916001600160401b0383116101b6576119af836119a9865461014b565b866116fd565b8091601f84116001146119f457505090806119e7926001969798999a6000926117965750508160011b916000199060031b1c19161790565b90555b0193929190611915565b9091601f1984169a611a0b86600052602060002090565b936000905b8d8210611a5057505084600198999a9b9c10611a36575b50505050831b830190556119ea565b01519060f884600019921b161c1916905538808080611a27565b80600185978294968601518155019601930190611a10565b909291926040820190604083528051809252606083019160608160051b850101916020809101936000905b838210611ab05750505050602091509360018060a01b0316910152565b909192938380611acc600193605f198b820301865289516103f2565b9701920192019094939291611a93565b9081602091031261045f5751610428816108d0565b6040513d6000823e3d90fd5b51906102a5826108d0565b51906102a58261155b565b81601f8201121561045f578051611b29816107ad565b92611b376040519485610245565b8184526020828401011161045f5761042891602080850191016103cf565b60208183031261045f5780516001600160401b039182821161045f57016101a08184031261045f57611b8561056e565b92815184526020820151602085015260408201516040850152606082015160608501526080820151608085015260a082015160a0850152611bc860c08301611afd565b60c085015260e082015160e08501526101008083015190850152610120611bf0818401611b08565b90850152610140611c02818401611b08565b90850152610160611c14818401611b08565b90850152610180928383015190811161045f57611c319201611b13565b9082015290565b60405190611c458261019b565b60008252565b90604051918260605160005b818110611c8c57509060206102a593611c808294840191838301600081528151948592016103cf565b01038085520183610245565b6020919250806080015182828801015201908491611c57565b60206102a5919392936040519481611cc687935180928680870191016103cf565b8201611c80825180938680850191016103cf565b9060208282031261045f5781516001600160401b03811161045f576104289201611b13565b9081602091031261045f575190565b906102a5603d60405180947f646174613a6170706c69636174696f6e2f6a736f6e3b6261736536342c0000006020830152611d5281518092602086860191016103cf565b810103601d810185520183610245565b6040805163507f146560e01b808252602094929392906001600160a01b03908185168785600481845afa948515610d02576000956120db575b50865163c44a8e6d60e01b81526001600160a01b03871660048201526024810185905260006044820181905290958690606490829087165afa948515610d02576000956120c0575b508451156120b05761010085018051909390156120a657611e05865188612f97565b96875161206f575b875115611f43575050505094611f32611f24611f3e96611ea1611ebd611ea198611ea1611ea78a611e836104289f611e54611e6a9d611e7e9f92611e5b935190519161285f565b925161485d565b9488519c8d918d83019061166e565b039b611e7e601f199d8e8101835282610245565b614a37565b9651683d913730b6b2911d1160b91b9a81019a8b529c8d9a60090190565b9061166e565b691116101134b2111d101160b11b8152600a0190565b7f222c226465736372697074696f6e223a2241207069656365206f66207468652081527f42616e6e797665727365222c22696d616765223a22646174613a696d6167652f60208201526e1cdd99cade1b5b0ed8985cd94d8d0b608a1b6040820152604f0190565b61227d60f01b815260020190565b03908101835282610245565b611d0e565b92965092600f9195505111600014612060578551636c0360eb60e01b8152600081600481885afa8015610d0257889160009161203d575b50955b600488518097819382525afa918215610d0257611fd096889560009461201e575b5051630c8df17160e41b81526001600160a01b0390921660048301526024820193909352948592839182906044820190565b0392165afa918215610d025761042893600093611fef575b50506147ac565b61200f929350803d10612017575b6120078183610245565b810190611cff565b903880611fe8565b503d611ffd565b612036919450863d8811610d3157610d228183610245565b9238611f9e565b61205a91503d806000833e6120528183610245565b810190611cda565b38611f7a565b86612069610266565b95611f7d565b96612082906001865103612088576146b9565b96611e0d565b6120a19061209c612097613092565b6145f3565b611ca5565b6146b9565b6120828588612b2b565b5050505050505050610428611c38565b6120d491953d8091833e610cf48183610245565b9338611de3565b6120f3919550883d8a11610d3157610d228183610245565b9338611d9b565b600090808252602090600860205260408320549081156121a2578184526005602052604084209260405180948591602082549182815201918852602088209388905b8282106121885750505061215292500384610245565b825192845b84811061216657505050505090565b8261217182846115e5565b511461217f57600101612157565b50505091505090565b85548452600195860195899550938101939091019061213c565b50505090565b916020916121c191959495604085526040850191611846565b6001600160a01b03909416910152565b6121d9612ee8565b805160005b8181106122595750506121f09061180c565b9060405190818183925160208092019160005b82811061224257505050500390206040513381529091907fb0c948934b683b0d319be35a6898bce339f877d721976592196eef848acc69c390602090a3565b835185528695509381019392810192600101612203565b61226381846115e5565b5161226e82866115e5565b5190806000526001602052604080600020546122a457509061229d600193926000526001602052604060002090565b55016121de565b516333ded41b60e21b8152600490fd5b604051906101a082018281106001600160401b038211176101b657604052606061018083600080825280602083015280604083015280848301528060808301528060a08301528060c08301528060e08301528061010083015280610120830152806101408301526101608201520152565b91908110156115d35760051b0190565b600281901b91906001600160fe1b0381160361161e57565b906001600160401b0383116101b6576801000000000000000083116101b65781548383558084106123a8575b50906000526020806000209060005b848110612396575050505050565b83358382015592810192600101612388565b6123c090836000528460206000209182019101611685565b38612379565b9081526060602082018190528101839052929392916001600160fb1b03811161045f5760409160809160051b8091838601378301019360018060a01b0316910152565b60226102a591939293604051948161242b8793518092602080870191016103cf565b820161202360f01b602082015261244b82518093602087850191016103cf565b01036002810185520183610245565b906102a5602960405180946802a37b83834b7339d160bd1b602083015261248a81518092602086860191016103cf565b8101036009810185520183610245565b906102a5602660405180946502334b9ba1d160d51b60208301526124c781518092602086860191016103cf565b8101036006810185520183610245565b906102a5602d60405180946c029bab4ba103137ba3a37b69d1609d1b602083015261250b81518092602086860191016103cf565b810103600d810185520183610245565b906102a5602a604051809469029bab4ba103a37b81d160b51b602083015261254c81518092602086860191016103cf565b810103600a810185520183610245565b906102a56026604051809465029bab4ba1d160d51b60208301526124c781518092602086860191016103cf565b906102a5602660405180946502432b0b21d160d51b60208301526124c781518092602086860191016103cf565b906102a5602660405180946502430b4b91d160d51b60208301526124c781518092602086860191016103cf565b906102a56027604051809466026b7baba341d160cd1b602083015261261181518092602086860191016103cf565b8101036007810185520183610245565b906102a56026604051809465022bcb2b99d160d51b60208301526124c781518092602086860191016103cf565b906102a5602660405180946502330b1b29d160d51b60208301526124c781518092602086860191016103cf565b906102a5602a60405180946902732b1b5b630b1b29d160b51b602083015261254c81518092602086860191016103cf565b906102a56026604051809465029b437b29d160d51b60208301526124c781518092602086860191016103cf565b906102a5602a60405180946902130b1b5b9b4b2329d160b51b602083015261254c81518092602086860191016103cf565b906102a5602760405180946602bb7b936321d160cd1b602083015261261181518092602086860191016103cf565b906102a56035604051809474027b934b3b4b730b6102730b5b2b2102130b7373c9605d1b602083015261277481518092602086860191016103cf565b8101036015810185520183610245565b906102a56033604051809472027b930b733b2902730b5b2b2102130b7373c9606d1b60208301526127be81518092602086860191016103cf565b8101036013810185520183610245565b906102a5603160405180947002834b735902730b5b2b2102130b7373c9607d1b602083015261280681518092602086860191016103cf565b8101036011810185520183610245565b906102a56032604051809471020b634b2b7102730b5b2b2102130b7373c960751b602083015261284f81518092602086860191016103cf565b8101036012810185520183610245565b91633b9aca00830691600181036128845750505061287f6104289161485d565b612816565b600281036128a05750505061289b6104289161485d565b6127ce565b600381036128bc575050506128b76104289161485d565b612784565b600481036128d8575050506128d36104289161485d565b612738565b6128f8919293506128f3906000526003602052604060002090565b61032c565b9180612a03575b506001810361291257506104289061270a565b600281036129245750610428906126d9565b600a81036129365750610428906126ac565b6003810361294857506104289061267b565b6005810361295a57506104289061264e565b6006810361296c575061042890612621565b6007810361297e5750610428906125e3565b600881036129905750610428906125b6565b600481036129a2575061042890612589565b600b81036129b457506104289061255c565b600d81036129c657506104289061251b565b600c81036129d85750610428906124d7565b600e81036129ea57506104289061249a565b600f146129fa5750610428611c38565b6104289061245a565b9091805115600014612a215750612a199061485d565b905b386128ff565b612a2d612a339261485d565b90612409565b90612a1b565b806000526007602052604060002054908115908115612a61575b50612a5b5790565b50600090565b9050816000526006602052604060002054141538612a53565b919060408382031261045f5782519260209081810151906001600160401b03821161045f57019180601f8401121561045f578251612ab78161058e565b93612ac56040519586610245565b818552838086019260051b82010192831161045f578301905b828210612aec575050505090565b81518152908301908301612ade565b3d15612b26573d90612b0c826107ad565b91612b1a6040519384610245565b82523d6000602084013e565b606090565b60405163507f146560e01b8152906001600160a01b036020836004818585165afa928315610d0257600093612cee575b5060405163c44a8e6d60e01b81526001600160a01b0383166004820152602481018590526000604482018190529093909184916064918391165afa918215610d0257600092612cd3575b50815115612cc8576060610100830151612ca157604051630f22bc6f60e11b8152600481019490945261042893612c2e929082906000908181602481305afa9081600091600093612c7a575b50612c6c57505090612c2691612c05612afb565b505b80151580612c64575b612c4a575b50612c208651614b17565b90611ca5565b935190615339565b8051612c3b575b506146b9565b612c4491611ca5565b38612c35565b612c5e9150612c599084612f97565b611c4b565b38612c15565b506001612c10565b909450612c26929150612c07565b909250612c9a91503d806000833e612c928183610245565b810190612a7a565b9138612bf1565b5090612caf92505190612f97565b805115612cbf57610428906146b9565b50610428611c38565b505050610428611c38565b612ce791923d8091833e610cf48183610245565b9038612ba5565b6000919350612d0b9060203d602011610d3157610d228183610245565b9290612b5b565b60405163507f146560e01b8152909390916001600160a01b03602084600481848a165afa938415610d0257600094612ec4575b5060405163c44a8e6d60e01b81526001600160a01b0387166004820152602481018390526000604482018190529094909185916064918391165afa928315610d0257600093612ea9575b50825115612e9c57606094610100840151612e8c57604051630f22bc6f60e11b81526004810192909252610428959182906000908181602481305afa9081600091600093612e6d575b50612e5d575050612e0a929394612ded612afb565b505b8115159081612e55575b50612e40575b50612c208551614b17565b93612e18575b5050506146b9565b612e23925190615339565b8051612e31575b8080612e10565b612e3a91611ca5565b38612e2a565b612e4f9150612c599084612f97565b38612dff565b905038612df9565b909150612e0a9394509094612def565b909250612e8591503d806000833e612c928183610245565b9138612dd8565b93505050612caf92505190612f97565b5050505050610428611c38565b612ebd91933d8091833e610cf48183610245565b9138612d8f565b6000919450612ee19060203d602011610d3157610d228183610245565b9390612d45565b6000546001600160a01b0390811681612eff615763565b1603612f085750565b602490612f13615763565b60405163118cdaa760e01b815291166004820152fd5b906102a5605060405180946f1e339f1e34b6b0b3b290343932b31e9160811b6020830152612f618151809260206030860191016103cf565b81017f222077696474683d2234303022206865696768743d22343030222f3e3c2f673e6030820152036030810185520183610245565b612fae6128f3836000526004602052604060002090565b805161308c575060405163507f146560e01b81526001600160a01b039260209283836004818489165afa908115610d025761302195859460009361306d575b50604051632f54648f60e21b81526001600160a01b0390921660048301526024820193909352948592839182906044820190565b0392165afa8015610d02576104289261304b92600092613050575b5050613046610266565b6147ac565b612f29565b6130669250803d10612017576120078183610245565b388061303c565b613085919350853d8711610d3157610d228183610245565b9138612fed565b91505090565b6040519061309f826101bb565b61117a82527f762d31306833762d376833762d33682d31307a222f3e3c2f673e000000000000611180837f3c6720636c6173733d226131223e3c7061746820643d224d313733203533683460208201527f763137682d347a222f3e3c2f673e3c6720636c6173733d226132223e3c70617460408201527f6820643d224d3136372035376833763130682d337a222f3e3c7061746820643d60608201527f224d3136392035336834763137682d347a222f3e3c2f673e3c6720636c61737360808201527f3d226133223e3c7061746820643d224d31363720353368337634682d337a222f60a08201527f3e3c7061746820643d224d3136332035376834763130682d347a222f3e3c706160c08201527f746820643d224d31363720363768337633682d337a222f3e3c2f673e3c67206360e08201527f6c6173733d226231223e3c7061746820643d224d32313320323533682d33762d6101008201527f332d33682d33762d372d33682d34762d3130682d33762d372d372d33682d33766101208201527f2d3733682d34762d3130682d33762d3130682d33762d37682d34762d37682d336101408201527f762d33682d33762d33682d3476313068347631306833763130683376336834766101608201527f37203320373020336833763768337632306834763768337633683376336834766101808201527f34683376336833762d332d347a222f3e3c7061746820643d224d3235332033306101a08201527f37762d34682d33762d33682d33762d33682d34762d34682d33762d33682d33766101c08201527f2d33682d34762d34682d33762d33682d33762d33682d34762d34682d33762d366101e08201527f682d33762d37682d3476313768347633683376336833203476346833763368336102008201527f76336834763468337633683376336834763468337633683376336834762d36686102208201527f2d347a222f3e3c2f673e3c6720636c6173733d226232223e3c7061746820643d6102408201527f224d32353020333130762d33682d33762d34682d34762d33682d33762d33682d6102608201527f33762d34682d34762d33682d33762d33682d33762d34682d37762d33682d33766102808201527f2d33682d34762d3137682d33762d33682d33762d34682d34762d33682d33762d6102a08201527f33682d33762d37682d34762d3230682d33762d37682d33762d37332d332d37686102c08201527f2d34762d33682d33762d3130682d33762d3130682d34563730682d33762d336c6102e08201527f2d332031303020332d313030763430682d33763130682d347636682d337631346103008201527f682d337633203133682d347634346834763136683376313468337631336834766103208201527f31306833763768337633683476336833763468337633683476336833763468336103408201527f76336834763368337637683776376836763368377633683776346831337633686103608201527f337633683130762d33682d337a6d2d3130332d3837762d31366833762d3130686103808201527f2d337636682d34763137682d337631306833762d3768347a222f3e3c706174686103a08201527f20643d224d3134332032333068347637682d347a6d3420313068337633682d336103c08201527f7a6d33203768337633682d337a6d33203668347634682d347a222f3e3c7061746103e08201527f6820643d224d31363320323537682d36763368337633683376346834762d342d6104008201527f33682d34762d337a222f3e3c2f673e3c6720636c6173733d226233223e3c70616104208201527f746820643d224d3134332031393776366834762d366836762d34346834762d316104408201527f366833762d31346833762d366834762d31306833563937682d377636682d33766104608201527f34682d337633682d347633682d3376342033682d3376332034682d34763130686104808201527f2d337631362034682d337634366833762d3668337a222f3e3c7061746820643d6104a08201527f224d313430203230336833763137682d337a222f3e3c7061746820643d224d316104c08201527f3337203232306833763130682d337a222f3e3c7061746820643d224d313533206104e08201527f323530682d33762d37682d33762d36682d34762d37682d3376313068337637686105008201527f347636683376346833762d377a6d2d3320313068337637682d337a222f3e3c706105208201527f61746820643d224d3134372032353768337633682d337a6d36203068347633686105408201527f2d347a222f3e3c7061746820643d224d31363020323633762d33682d337633206105608201527f376836762d37682d337a6d2d31302d3536763136682d337637683376313068336105808201527f763768347636683676346837762d342d33682d33762d3130682d34762d3133686105a08201527f2d33762d3134682d33762d3136682d34763130682d337a222f3e3c70617468206105c08201527f643d224d32343320333133762d33682d33762d33682d31302d33762d34682d376105e08201527f762d33682d37762d33682d36762d37682d37762d37682d33762d33682d34762d6106008201527f33682d33762d34682d33762d33682d34762d33682d33762d34682d33762d33686106208201527f2d34762d33682d33763130682d337633682d347633682d3376376833763768346106408201527f76366833763568347633683676336833763368342033763368332034763368336106608201527f20337634683130763368372037203376336831302033762d33683130762d33686106808201527f34762d34682d31347a222f3e3c2f673e3c6720636c6173733d226234223e3c706106a08201527f61746820643d224d3138332031333068347637682d347a222f3e3c70617468206106c08201527f643d224d3138302031323768337633682d337a6d2d32372d3468347637682d346106e08201527f7a222f3e3c7061746820643d224d3135372031313768337636682d337a222f3e6107008201527f3c7061746820643d224d3136302031313068337637682d337a222f3e3c7061746107208201527f6820643d224d3136332031303768347633682d347a6d2d3320383368337637686107408201527f2d337a222f3e3c7061746820643d224d3136332031383768347633682d347a6d6107608201527f3230203068377633682d377a222f3e3c7061746820643d224d313830203139306107808201527f68337633682d337a6d31302d3768337634682d337a222f3e3c7061746820643d6107a08201527f224d3139332031383768347636682d347a6d2d323020353368347637682d347a6107c08201527f222f3e3c7061746820643d224d3137372032343768337636682d337a222f3e3c6107e08201527f7061746820643d224d3138302032353368337637682d337a222f3e3c706174686108008201527f20643d224d3138332032363068377633682d377a222f3e3c7061746820643d226108208201527f4d3139302032363368337634682d337a6d302d323068337634682d337a222f3e6108408201527f3c7061746820643d224d3138372032343068337633682d337a222f3e3c7061746108608201527f6820643d224d3139302032333768337633682d337a6d313320323368347633686108808201527f2d347a222f3e3c7061746820643d224d3230372032363368337637682d337a226108a08201527f2f3e3c7061746820643d224d3231302032373068337633682d337a6d2d3130206108c08201527f3768337636682d337a222f3e3c7061746820643d224d323033203238336834766108e08201527f37682d347a222f3e3c7061746820643d224d3230372032393068367633682d366109008201527f7a222f3e3c2f673e3c6720636c6173733d226f223e3c7061746820643d224d316109208201527f3333203135376834763530682d347a6d302036336834763130682d347a6d32376109408201527f2d3136336833763130682d337a222f3e3c7061746820643d224d3136332035336109608201527f68347634682d347a222f3e3c7061746820643d224d31363720353068313076336109808201527f682d31307a222f3e3c7061746820643d224d3137372035336833763137682d336109a08201527f7a222f3e3c7061746820643d224d3137332037306834763237682d347a6d2d366109c08201527f20306833763237682d337a222f3e3c7061746820643d224d31363320363768346109e08201527f7633682d347a6d3020333068347633682d347a222f3e3c7061746820643d224d610a008201527f3136302031303068337633682d337a222f3e3c7061746820643d224d31353720610a208201527f31303368337634682d337a222f3e3c7061746820643d224d3135332031303768610a408201527f347633682d347a222f3e3c7061746820643d224d313530203131306833763368610a608201527f2d337a222f3e3c7061746820643d224d3134372031313368337637682d337a22610a808201527f2f3e3c7061746820643d224d3134332031323068347637682d347a222f3e3c70610aa08201527f61746820643d224d313430203132376833763130682d337a222f3e3c70617468610ac08201527f20643d224d313337203133376833763230682d337a6d35362d31306834763130610ae08201527f682d347a222f3e3c7061746820643d224d313930203131376833763130682d33610b008201527f7a222f3e3c7061746820643d224d3138372031313068337637682d337a222f3e610b208201527f3c7061746820643d224d3138332031303368347637682d347a222f3e3c706174610b408201527f6820643d224d3138302031303068337633682d337a222f3e3c7061746820643d610b608201527f224d31373720393768337633682d337a6d2d3430203130366833763137682d33610b808201527f7a6d302032376833763130682d337a6d313020333068337637682d337a222f3e610ba08201527f3c7061746820643d224d31353020323537762d34682d33762d36682d34762d37610bc08201527f682d3376313068337631306834762d3368337a222f3e3c7061746820643d224d610be08201527f3135302032353768337633682d337a222f3e3c7061746820643d224d31363320610c008201527f323733762d33682d36762d3130682d347637682d337633683376336834763768610c208201527f33762d3768337a222f3e3c7061746820643d224d313633203236376834763368610c408201527f2d347a222f3e3c7061746820643d224d31373020323537682d332d3476336834610c608201527f76376833762d31307a222f3e3c7061746820643d224d31353720323533683676610c808201527f34682d367a222f3e3c7061746820643d224d3135332032343768347636682d34610ca08201527f7a222f3e3c7061746820643d224d3135302032343068337637682d337a222f3e610cc08201527f3c7061746820643d224d313437203233306833763130682d337a6d3133203530610ce08201527f68337637682d337a222f3e3c7061746820643d224d3134332032323368347637610d008201527f682d347a222f3e3c7061746820643d224d313437203230376833763136682d33610d208201527f7a222f3e3c7061746820643d224d313530203139376833763130682d337a6d2d610d408201527f3130203068337636682d337a6d35302031313368377633682d377a6d32332031610d608201527f306831377633682d31377a222f3e3c7061746820643d224d3233302033323368610d808201527f31337634682d31337a222f3e3c7061746820643d224d32343320333230683130610da08201527f7633682d31307a222f3e3c7061746820643d224d323533203331376834763368610dc08201527f2d347a222f3e3c7061746820643d224d323537203330376833763130682d337a610de08201527f222f3e3c7061746820643d224d3235332033303368347634682d347a222f3e3c610e008201527f7061746820643d224d3235302033303068337633682d337a222f3e3c70617468610e208201527f20643d224d3234372032393768337633682d337a222f3e3c7061746820643d22610e408201527f4d3234332032393368347634682d347a222f3e3c7061746820643d224d323430610e608201527f2032393068337633682d337a222f3e3c7061746820643d224d32333720323837610e808201527f68337633682d337a222f3e3c7061746820643d224d3233332032383368347634610ea08201527f682d347a222f3e3c7061746820643d224d3233302032383068337633682d337a610ec08201527f222f3e3c7061746820643d224d3232372032373768337633682d337a222f3e3c610ee08201527f7061746820643d224d3232332032373368347634682d347a222f3e3c70617468610f008201527f20643d224d3232302032363768337636682d337a222f3e3c7061746820643d22610f208201527f4d3231372032363068337637682d337a222f3e3c7061746820643d224d323133610f408201527f2032353368347637682d347a222f3e3c7061746820643d224d32313020323437610f608201527f68337636682d337a222f3e3c7061746820643d224d3230372032333768337631610f808201527f30682d337a222f3e3c7061746820643d224d323033203232376834763130682d610fa08201527f347a6d2d343020363068347636682d347a6d323420323068337633682d337a22610fc08201527f2f3e3c7061746820643d224d3136372032393368337635682d337a6d31362031610fe08201527f3468347633682d347a222f3e3c7061746820643d224d313730203239386834766110008201527f33682d347a6d3130203668337633682d337a222f3e3c7061746820643d224d316110208201527f37342033303168367633682d367a6d323320313268367634682d367a222f3e3c6110408201527f7061746820643d224d323033203331376831307633682d31307a6d2d322d31306110608201527f37762d3733682d3476373368337631376833762d3137682d327a222f3e3c2f676110808201527f3e3c6720636c6173733d226f223e3c7061746820643d224d31383720333037766110a08201527f2d346833762d36682d33762d34682d34762d33682d33762d33682d37762d34686110c08201527f2d367634682d3476336834763237682d34763133682d33763130682d347637686110e08201527f3476336833203130203134762d33682d34762d34682d33762d33682d33762d336111008201527f682d34762d376834762d31306833762d376833762d336837762d33682d337a6d6111208201527f3136203130762d34682d36763137682d34763130682d337637683376336834206111408201527f3620342033203134762d33682d34762d34682d37762d33682d33762d33682d336111608201520152565b906102a5609a60405180947f3c7374796c653e2e6f7b66696c6c3a233830383038303b7d2e62327b66696c6c60208301527f3a6e6f6e653b7d2e62337b66696c6c3a6e6f6e653b7d2e62347b66696c6c3a6e60408301527f6f6e653b7d2e61317b66696c6c3a6e6f6e653b7d2e61327b66696c6c3a6e6f6e60608301527f653b7d2e61337b66696c6c3a6e6f6e653b7d3c2f7374796c653e00000000000060808301526146a981518092602086860191016103cf565b810103607a810185520183610245565b906102a560ba60405180947f3c7376672077696474683d2234303022206865696768743d223430302220766960208301527f6577426f783d223020302034303020343030222066696c6c3d226e6f6e65222060408301527f786d6c6e733d22687474703a2f2f7777772e77332e6f72672f323030302f737660608301527f67223e3c7374796c653e2e6f7b66696c6c3a233035303530353b7d2e777b666960808301527336361d11b31cb31cb31c9dbe9e17b9ba3cb6329f60611b60a083015261478d81518092602060b4860191016103cf565b8101651e17b9bb339f60d11b60b482015203609a810185520183610245565b90610428906147da604051602092609160f51b848301526022820152602281526147d5816101d7565b615632565b9260405193816147f386935180928680870191016103cf565b8201614807825180938680850191016103cf565b01038084520182610245565b60405161481f8161019b565b60008152906000368137565b90614835826107ad565b6148426040519182610245565b8281528092614853601f19916107ad565b0190602036910137565b806000917a184f03e93ff9f4daa797ed6e38ed64bf6a1f01000000000000000080821015614993575b506d04ee2d6d415b85acef810000000080831015614984575b50662386f26fc1000080831015614975575b506305f5e10080831015614966575b5061271080831015614957575b506064821015614947575b600a8092101561493d575b6001908160216148f56001870161482b565b95860101905b614907575b5050505090565b600019019083906f181899199a1a9b1b9c1cb0b131b232b360811b8282061a835304918215614938579190826148fb565b614900565b91600101916148e3565b91906064600291049101916148d8565b600491939204910191386148cd565b600891939204910191386148c0565b601091939204910191386148b1565b6020919392049101913861489f565b604093508104915038614886565b604051906149ae826101d7565b604082527f6768696a6b6c6d6e6f707172737475767778797a303132333435363738392b2f6040837f4142434445464748494a4b4c4d4e4f505152535455565758595a61626364656660208201520152565b906002820180921161161e57565b906020820180921161161e57565b906001820180921161161e57565b9190820180921161161e57565b805115612cbf57614a466149a1565b614a62614a5d614a568451614a00565b6003900490565b612335565b91614a74614a6f84614a0e565b61482b565b92835280815182019060208501935b828210614ac557505050600390510680600114614ab457600214614aa5575090565b603d60f81b6000199091015290565b50613d3d60f01b6001199091015290565b9091936004906003809401938451600190603f9082828260121c16880101518553828282600c1c16880101518386015382828260061c1688010151600286015316850101519082015301939190614a83565b614b20906159fc565b92614b2f969596929192613092565b9460405197889760208901703c7374796c653e2e62317b66696c6c3a2360781b90528051908160318b019160200191614b67926103cf565b8801603181016b3b7d2e62327b66696c6c3a2360a01b905281519182603d83019160200191614b95926103cf565b01603d81016b3b7d2e62337b66696c6c3a2360a01b905281519182604983019160200191614bc2926103cf565b0160498101614bdf906b3b7d2e62347b66696c6c3a2360a01b9052565b605501614beb9161166e565b6b3b7d2e61317b66696c6c3a2360a01b8152600c01614c099161166e565b6b3b7d2e61327b66696c6c3a2360a01b8152600c01614c279161166e565b6b3b7d2e61337b66696c6c3a2360a01b8152600c01614c459161166e565b691dbe9e17b9ba3cb6329f60b11b8152600a01614c619161166e565b03601f19810182526104289082610245565b60405190614c80826101f2565b61019c82527f6820643d224d3139332031373068347633682d347a222f3e3c2f673e000000006101a0837f3c6720636c6173733d226f223e3c7061746820643d224d31393020313733682d60208201527f3337762d33682d3130762d34682d36763468337633682d33763468367633683160408201527f307634683337762d346833762d33682d33762d347a6d2d34302034682d33762d60608201527f34683376347a6d372033762d3368337633682d337a6d362030762d336834763360808201527f682d347a6d372030762d3368337633682d337a6d372030762d3368337633682d60a08201527f337a6d31302030682d34762d33683476337a222f3e3c7061746820643d224d3160c08201527f39302031373068337633682d337a222f3e3c7061746820643d224d313933203160e08201527f363668347634682d347a6d30203768347634682d347a222f3e3c2f673e3c67206101008201527f636c6173733d2277223e3c7061746820643d224d3133372031373068337633686101208201527f2d337a6d3130203368337634682d337a6d3130203468337633682d337a6d36206101408201527f3068347633682d347a6d37203068337633682d337a6d37203068337633682d336101608201527f7a6d36203068347633682d347a6d372d3468337634682d337a222f3e3c7061746101808201520152565b6040519061010082018281106001600160401b038211176101b65760405260dd82527f746820643d224d3138302031343768337633682d337a222f3e3c2f673e00000060e0837f3c6720636c6173733d226f223e3c7061746820643d224d31373720313430763360208201527f6836763131683130762d31316834762d33682d32307a222f3e3c70617468206460408201527f3d224d31353320313430763368377638203368372033762d31316833762d336860608201527f2d32307a222f3e3c2f673e3c6720636c6173733d2277223e3c7061746820643d60808201527f224d3135332031343368377634682d377a222f3e3c7061746820643d224d313560a08201527f372031343768337633682d337a6d32302d3468367634682d367a222f3e3c706160c08201520152565b60405190614fb68261020e565b61023a82527f643d224d3139302031333768347633682d347a222f3e3c2f673e000000000000610240837f3c6720636c6173733d226f223e3c7061746820643d224d31393020313237683360208201527f7633682d337a6d3320313368347633682d347a6d2d3432203068367636682d3660408201527f7a222f3e3c7061746820643d224d3135312031333368337637682d337a6d313060608201527f203068367634682d367a222f3e3c7061746820643d224d31353720313337683160808201527f377636682d31377a6d332031336831347633682d31347a6d31372d313368377660a08201527f3136682d377a222f3e3c7061746820643d224d3138342031333768367636682d60c08201527f367a6d302031306831307636682d31307a222f3e3c7061746820643d224d313860e08201527f37203134336831307634682d31307a222f3e3c7061746820643d224d313930206101008201527f31343068337633682d337a6d2d362d313068337637682d337a222f3e3c7061746101208201527f6820643d224d3138372031333068367633682d367a6d2d3336203068313076336101408201527f682d31307a6d313620313368377637682d377a6d2d3130203068377637682d376101608201527f7a222f3e3c7061746820643d224d3136342031343768337633682d337a6d32396101808201527f2d323068347636682d347a222f3e3c7061746820643d224d31393420313333686101a08201527f337637682d337a222f3e3c2f673e3c6720636c6173733d2277223e3c706174686101c08201527f20643d224d3135342031333368377634682d377a222f3e3c7061746820643d226101e08201527f4d3135342031333768337633682d337a6d3130203668337634682d337a6d32306102008201527f203068337634682d337a6d332d313068377634682d377a222f3e3c70617468206102208201520152565b6040519060c082018281106001600160401b038211176101b65760405260818252601f60f91b60a0837f3c6720636c6173733d226f223e3c7061746820643d224d31383320313630762d60208201527f34682d32307634682d33763368337634683234762d37682d347a6d2d3133203360408201527f762d336831307633682d31307a222066696c6c3d2223616437316338222f3e3c60608201527f7061746820643d224d313730203136306831307633682d31307a222f3e3c2f6760808201520152565b90929160609381519160009283918490858691600394600381106000146155c55761536381614a1c565b985b898110615379575050505050505050505050565b818110156155b95761538b81846115e5565b516040805163507f146560e01b8152919791602060048f6001600160a01b03838584818585165afa928315610d0257615406966000968f96889661559a575b50505163c44a8e6d60e01b81526001600160a01b0390931690830190815260208101949094526000604085015290948593849291839160600190565b0392165afa8015610d025761010091600091615581575b500151985b89890361555257506001985b6005818103615465575050506001955b8061544d575b50600101615365565b6001919d612c2061545e928e612f97565b9c90615444565b81989298118061554a575b61547b575b5061543e565b9095909460068087036154fe5750506001945b6007908082036154cf575050506001945b84806154c8575b806154c0575b6154b7575b38615475565b600196506154b1565b5086156154ac565b50856154a6565b96919611806154f6575b1561549f5794509b6154ed90612c20615274565b9b60019461549f565b5085156154d9565b8691961180615542575b1561548e57945060019d8e8b146000146155305761552890612c20614fa9565b9d5b9461548e565b61553c90612c20614e7b565b9d61552a565b508515615508565b508715615470565b9888811180615579575b1561542e5798509c61557090612c20614c73565b9c60019861542e565b50891561555c565b615594913d8091833e610cf48183610245565b3861541d565b6155b1929650803d10610d3157610d228183610245565b9338806153ca565b60089795600096615422565b8098615365565b604051906105e082018281106001600160401b038211176101b657604052602e82526105c0366020840137565b906156038261058e565b6156106040519182610245565b8281528092614853601f199161058e565b9081518110156115d3570160200190565b90815115615759576156426155cc565b916000906000615651856115d8565b526001918151916000925b808410615682575050505061567861567d916104289394615b28565b615b6b565b615bb2565b909192946156b36156ad6156a76156998987615621565b516001600160f81b03191690565b60f81c90565b60ff1690565b9184925b60ff908982891686101561571857600192916156ec6156e66156ad6156df8a6156f2966115e5565b5160ff1690565b60081b90565b90614a2a565b61570f8b61570788603a9586860616926115e5565b9060ff169052565b049301926156b7565b50919594935050809691965b61573257506001019261565c565b9460ff6001603a9261574f83858b06166157078d868516906115e5565b0116950480615724565b9050610428614813565b337f00000000000000000000000000000000000000000000000000000000000000006001600160a01b031614806157b1575b156157ad57601319360136811161161e573560601c90565b3390565b506014361015615795565b604051906157c98261022a565b600682526506666653930360d41b6020830152565b604051906157eb8261022a565b600682526506666633730360d41b6020830152565b6040519061580d8261022a565b600682526566336136303360d01b6020830152565b6040519061582f8261022a565b600682526539363561316160d01b6020830152565b604051906158518261022a565b600682526533331bb1981960d11b6020830152565b604051906158738261022a565b600682526506664333630360d41b6020830152565b604051906158958261022a565b600682526518cccc994c1960d21b6020830152565b604051906158b78261022a565b600682526566666438633560d01b6020830152565b604051906158d98261022a565b600682526566663936613960d01b6020830152565b604051906158fb8261022a565b600682526533329a9c1c3160d11b6020830152565b6040519061591d8261022a565b600682526563393266343560d01b6020830152565b6040519061593f8261022a565b600682526536376437353760d01b6020830152565b604051906159618261022a565b600682526503330613232360d41b6020830152565b604051906159838261022a565b600682526532313761313560d01b6020830152565b604051906159a58261022a565b60048252636e6f6e6560e01b6020830152565b604051906159c58261022a565b6006825265329a1c19b2b360d11b6020830152565b604051906159e78261022a565b60068252653231993332b360d11b6020830152565b60018103615a435750615a0d615932565b90615a16615954565b90615a1f615976565b90615a28615998565b90615a316159b8565b90615a3a6159da565b906104286159da565b60028103615a8a5750615a546158aa565b90615a5d6158cc565b90615a666158ee565b90615a6f615910565b90615a786158aa565b90615a816158cc565b906104286158ee565b60038103615ad15750615a9b615800565b90615aa4615844565b90615aad615866565b90615ab6615888565b90615abf615800565b90615ac8615844565b90610428615866565b600414615aea57604051630992899d60e31b8152600490fd5b615af26157bc565b90615afb6157de565b90615b04615800565b90615b0d615822565b90615b166157bc565b90615b1f6157de565b90610428615800565b9060ff80911690615b38826155f9565b9260005b838110615b4a575050505090565b8083615b58600193856115e5565b5116615b6482886115e5565b5201615b3c565b908151615b77816155f9565b9060005b818110615b89575090925050565b60019060ff615b9f6000198389510301886115e5565b5116615bab82866115e5565b5201615b7b565b8051615bbd816107ad565b91604090615bce6040519485610245565b828452615bda836107ad565b602090601f1901368683013760009260005b858110615bfc5750505050505090565b6001908251615c0a816101d7565b603a81527f31323334353637383941424344454647484a4b4c4d4e50515253545556575859858201527f5a6162636465666768696a6b6d6e6f707172737475767778797a000000000000848201526001600160f81b031990615c7a9060ff615c72858a6115e5565b511690615621565b5116861a615c88828a615621565b5301615bec56fea2646970667358221220e9d4e815bbfd5b045e128e04a2761c906c3a8242d2fe57031bffc1e886b16d2164736f6c63430008170033",
			"deployedBytecode": "0x6080604052600436101561001257600080fd5b60003560e01c806257bfdd146101465780631e4578de1461014157806331a290ac1461013c5780634d03376e14610137578063572b6c05146101325780635e703e711461012d5780636aff31dd14610128578063715018a6146101235780637508ac831461011e5780637da0a87714610119578063875e4bea146101145780638da5cb5b1461010f578063aeac5e351461010a578063b03a3eab14610105578063c06e7bc714610100578063f2fde38b146100fb578063f92df2e3146100f6578063f9fed041146100f15763fff628c6146100ec57600080fd5b611565565b61153d565b611518565b61148c565b610ddb565b610d38565b610c14565b610beb565b610a5a565b610a15565b6109ef565b610991565b610965565b610939565b6108e1565b6107ff565b610635565b6104a6565b61042b565b90600182811c9216801561017b575b602083101461016557565b634e487b7160e01b600052602260045260246000fd5b91607f169161015a565b634e487b7160e01b600052604160045260246000fd5b602081019081106001600160401b038211176101b657604052565b610185565b6111a081019081106001600160401b038211176101b657604052565b606081019081106001600160401b038211176101b657604052565b6101c081019081106001600160401b038211176101b657604052565b61026081019081106001600160401b038211176101b657604052565b604081019081106001600160401b038211176101b657604052565b90601f801991011681019081106001600160401b038211176101b657604052565b604051906000826002549161027a8361014b565b8083529260209060019081811690811561030857506001146102a7575b50506102a592500383610245565b565b91509260026000527f405787fa12a823e0f2b7631cc41b3ba8828b3321ca811111fa75cd3aa3bb5ace936000925b8284106102f057506102a59450505081016020013880610297565b855488850183015294850194879450928101926102d5565b915050602092506102a594915060ff191682840152151560051b8201013880610297565b9060405191826000825461033f8161014b565b908184526020946001916001811690816000146103ad575060011461036e575b5050506102a592500383610245565b600090815285812095935091905b8183106103955750506102a5935082010138808061035f565b8554888401850152948501948794509183019161037c565b925050506102a594925060ff191682840152151560051b82010138808061035f565b60005b8381106103e25750506000910152565b81810151838201526020016103d2565b9060209161040b815180928185528580860191016103cf565b601f01601f1916010190565b9060206104289281815201906103f2565b90565b3461045f57600036600319011261045f5761045b610447610266565b6040519182916020835260208301906103f2565b0390f35b600080fd5b604081019181526060602091604060208201528151809452019160809160005b828110610492575050505090565b835185529381019392810192600101610484565b3461045f5760208060031936011261045f57600435906000918083526005602052604083209060405180938491602085549182815201948752602087209187905b828210610554575050505061050190610511930384610245565b6000526006602052604060002090565b5491815191815b83811061052d576040518061045b8782610464565b8061053a600192846115e5565b5161054d6105478661160f565b956115c0565b5201610518565b8354875295860195879450600193840193909101906104e7565b604051906101a082018281106001600160401b038211176101b657604052565b6001600160401b0381116101b65760051b60200190565b9080601f8301121561045f5760209082356105bf8161058e565b936105cd6040519586610245565b81855260208086019260051b82010192831161045f57602001905b8282106105f6575050505090565b813581529083019083016105e8565b9181601f8401121561045f578235916001600160401b03831161045f576020808501948460051b01011161045f57565b3461045f5760408060031936011261045f576001600160401b036004803582811161045f5761066790369083016105a5565b9160243590811161045f5761067f9036908301610605565b909183519060005b8281106106d0575050506106cb6106be7f7b414cb0ad21f3dfa349dbd1d4ca10eeb276661a7af9df6e18086aed7c31c8d69461180c565b9451928392339184611867565b0390a2005b6106da81876115e5565b516106f06106e9838789611623565b36916107c8565b9061070d610708826000526004602052604060002090565b611664565b61079d57610725816000526001602052604060002090565b54801561078d578951602081019061074f81610741848861166e565b03601f198101835282610245565b5190200361077d5760019291610772610777926000526004602052604060002090565b611737565b01610687565b88516375b5da0b60e01b81528490fd5b8951637ef41a4f60e01b81528590fd5b8851630388067760e21b81528490fd5b6001600160401b0381116101b657601f01601f191660200190565b9291926107d4826107ad565b916107e26040519384610245565b82948184528183011161045f578281602093846000960137010152565b3461045f57604036600319011261045f576001600160401b0360043581811161045f576108309036906004016105a5565b60249060243583811161045f573660238201121561045f578060040135926108578461058e565b936108656040519586610245565b8085526020956024602087019260051b8501019336851161045f5760248101925b858410610899576108978888611904565b005b833583811161045f5782013660438201121561045f5789916108c58392369060448a82013591016107c8565b815201930192610886565b6001600160a01b0381160361045f57565b3461045f57602036600319011261045f576020600435610900816108d0565b6040517f000000000000000000000000b2b5841dbef766d4b521221732f9b618fcf34a876001600160a01b039081169216919091148152f35b3461045f57604036600319011261045f5761045b61044760043561095c816108d0565b60243590611d62565b3461045f57602036600319011261045f5760043560005260016020526020604060002054604051908152f35b3461045f576000806003193601126109ec576109ab612ee8565b80546001600160a01b03198116825581906001600160a01b03167f8be0079c531659141344cd1fd0a4f28419497f9722a3daafe3b4186f6b6457e08280a380f35b80fd5b3461045f57602036600319011261045f576020610a0d6004356120fa565b604051908152f35b3461045f57600036600319011261045f576040517f000000000000000000000000b2b5841dbef766d4b521221732f9b618fcf34a876001600160a01b03168152602090f35b3461045f5760208060031936011261045f576004356001600160401b0380821161045f573660238301121561045f57816004013590811161045f57602492366024838501011161045f57610aac612ee8565b610ac082610abb60025461014b565b61169c565b600093601f8311600114610b3e575050610b1381807f512c3c91736f50c57a0548c1d01ab02f24c420f002b8b20e2bfe63df9693cd3f95600091610b30575b508160011b916000199060031b1c19161790565b6002555b610b2b6040519283926024339201846121a8565b0390a1005b602491508501013538610aff565b6002600052601f19831694907f405787fa12a823e0f2b7631cc41b3ba8828b3321ca811111fa75cd3aa3bb5ace9282915b878310610bcf57505050827f512c3c91736f50c57a0548c1d01ab02f24c420f002b8b20e2bfe63df9693cd3f9510610bb2575b5050600181811b01600255610b17565b830160240135600019600384901b60f8161c191690553880610ba2565b908060018596848396978b010135815501950193019190610b6f565b3461045f57600036600319011261045f576000546040516001600160a01b039091168152602090f35b3461045f57604036600319011261045f57600435610c31816108d0565b60405163507f146560e01b815260243591906001600160a01b03906020816004818587165afa8015610d0257610ca89360009386938593610d07575b5060405163c44a8e6d60e01b81526001600160a01b039092166004830152602482019390935260006044820152938492839182906064820190565b0392165afa918215610d025761045b92610cd392600091610cdf575b5061010081519101519161285f565b60405191829182610417565b610cfc91503d806000833e610cf48183610245565b810190611b55565b38610cc4565b611af1565b610d2a91935060203d602011610d31575b610d228183610245565b810190611adc565b9138610c6d565b503d610d18565b3461045f57604036600319011261045f576001600160401b0360043581811161045f57610d699036906004016105a5565b9060243590811161045f573660238201121561045f578060040135610d8d8161058e565b91610d9b6040519384610245565b8183526020916024602085019160051b8301019136831161045f57602401905b828210610dcc5761089785876121d1565b81358152908301908301610dbb565b3461045f57608036600319011261045f57610df76004356108d0565b6064356001600160401b03811161045f57610e16903690600401610605565b906040516331a9108f60e11b815260208180610e3c602435600483019190602083019252565b03816004356001600160a01b03165afa908115610d025760009161146d575b50610e73610e67615763565b6001600160a01b031690565b6001600160a01b039091160361145b576044351561143d576040516331a9108f60e11b81526044356004820152602081806024810103816004356001600160a01b03165afa908115610d025760009161141e575b50610ed3610e67615763565b6001600160a01b039091160361140c57610eee604435612a39565b61137d5760405163507f146560e01b815260208160048181356001600160a01b03165afa908115610d02576000916113ed575b5060405163c44a8e6d60e01b81526001600160a01b03600480358216908301526044803560248401526000908301819052919283916064918391165afa908115610d02576000916113d2575b5051156113c057604435610f8d6024356000526006602052604060002090565b55602435610fa76044356000526007602052604060002090565b555b6000610fb36122b4565b5080808182835b878110611033578787610fe38282610fde6024356000526005602052604060002090565b61234d565b7f6a68946ba06488db8585d7c7637fa954b574035fe15720ea760125ef8601725861102e61100f615763565b6040519182916024359660018060a01b036004351696604435856123c6565b0390a3005b61103e818989612325565b6040516331a9108f60e11b81529035600482018190529690602081806024810103816004356001600160a01b03165afa908115610d02576000916113a1575b50611089610e67615763565b6001600160a01b039091160361138f576110a2876120fa565b61137d5760405163507f146560e01b81529560208760048181356001600160a01b03165afa968715610d025760009761135c575b5060405163c44a8e6d60e01b81526001600160a01b0360048035821690830152602482018a9052600060448301819052919889916064918391165afa968715610d0257600097611341575b5086511561132f5761010087015160028110908115611324575b50611312578215159081611302575b506112f0576101008601516004810361118c57505060019061010082965b015196611182602435916000526008602052604060002090565b5501949394610fba565b90959490600581036111a75750506001906101008295611168565b90949290600b81036111c25750506001906101008293611168565b92939092600981036111dd5750506001906101008294611168565b600d8195939295149081821592836112e6575b80156112dc575b806112d5575b156112145760405163167e5dcd60e31b8152600490fd5b6006821480811591826112cb575b80156112c1575b806112ba575b1561124657604051631e550b6f60e11b8152600490fd5b906112b0575b806112a9575b15611269576040516354f653b360e01b8152600490fd5b9161129e575b5080611297575b61128557610100600192611168565b604051635e701b2b60e01b8152600490fd5b5082611276565b600c9150143861126f565b5087611252565b506007821461124c565b508a61122f565b5060088414611229565b5060078414611222565b50866111fd565b50600a82146111f7565b50600c82146111f0565b604051637dc0e82560e11b8152600490fd5b905061010087015111153861114a565b60405163c89badbd60e01b8152600490fd5b600f9150113861113b565b6040516354c0901d60e11b8152600490fd5b61135591973d8091833e610cf48183610245565b9538611121565b61137691975060203d602011610d3157610d228183610245565b95386110d6565b60405163670bdddd60e11b8152600490fd5b60405163812a698960e01b8152600490fd5b6113ba915060203d602011610d3157610d228183610245565b3861107d565b60405163265ba87960e01b8152600490fd5b6113e791503d806000833e610cf48183610245565b38610f6d565b611406915060203d602011610d3157610d228183610245565b38610f21565b604051639d17cec760e01b8152600490fd5b611437915060203d602011610d3157610d228183610245565b38610ec7565b60006114556024356000526006602052604060002090565b55610fa9565b6040516307d59f1360e21b8152600490fd5b611486915060203d602011610d3157610d228183610245565b38610e5b565b3461045f57602036600319011261045f576004356114a9816108d0565b6114b1612ee8565b6001600160a01b0390811680156114ff57600080546001600160a01b03198116831782559092167f8be0079c531659141344cd1fd0a4f28419497f9722a3daafe3b4186f6b6457e08380a380f35b604051631e4fbdf760e01b815260006004820152602490fd5b3461045f57606036600319011261045f5761045b61044760443560243560043561285f565b3461045f57602036600319011261045f576020610a0d600435612a39565b8015150361045f57565b3461045f57608036600319011261045f5761045b610447600435611588816108d0565b6044356115948161155b565b606435916115a18361155b565b60243590612d12565b634e487b7160e01b600052603260045260246000fd5b6060518110156115d35760051b60800190565b6115aa565b8051156115d35760200190565b80518210156115d35760209160051b010190565b634e487b7160e01b600052601160045260246000fd5b600019811461161e5760010190565b6115f9565b91908110156115d35760051b81013590601e198136030182121561045f5701908135916001600160401b03831161045f57602001823603811361045f579190565b610428905461014b565b90611681602092828151948592016103cf565b0190565b818110611690575050565b60008155600101611685565b90601f82116116a9575050565b6102a59160026000527f405787fa12a823e0f2b7631cc41b3ba8828b3321ca811111fa75cd3aa3bb5ace906020601f840160051c830193106116f3575b601f0160051c0190611685565b90915081906116e6565b9190601f811161170c57505050565b6102a5926000526020600020906020601f840160051c830193106116f357601f0160051c0190611685565b91909182516001600160401b0381116101b65761175e81611758845461014b565b846116fd565b602080601f83116001146117a157508190611792939495600092611796575b50508160011b916000199060031b1c19161790565b9055565b01519050388061177d565b90601f198316956117b785600052602060002090565b926000905b8882106117f4575050836001959697106117db575b505050811b019055565b015160001960f88460031b161c191690553880806117d1565b806001859682949686015181550195019301906117bc565b60405190818183925160208092019160005b82811061182f575050505003902090565b83518552869550938101939281019260010161181e565b908060209392818452848401376000828201840152601f01601f1916010190565b9392919081604086016040875252606085019160608160051b87010192826000905b8382106118ab5750505050509060206102a59294019060018060a01b03169052565b9091929394605f198982030184528535601e198336030181121561045f578201803560208092016001600160401b03821161045f57813603811361045f5760019383926118f792611846565b9701959401920190611889565b919061190e612ee8565b8251926000935b80851061196257507f31ddb2f0a32be79206d6bf3e670f8cc38863c4984b95cdbe8ed6eba58207a3a59192935061194e61195d9161180c565b92604051918291339083611a68565b0390a2565b61196c85836115e5565b519461197881856115e5565b5195600052600360208181526040600020918851916001600160401b0383116101b6576119af836119a9865461014b565b866116fd565b8091601f84116001146119f457505090806119e7926001969798999a6000926117965750508160011b916000199060031b1c19161790565b90555b0193929190611915565b9091601f1984169a611a0b86600052602060002090565b936000905b8d8210611a5057505084600198999a9b9c10611a36575b50505050831b830190556119ea565b01519060f884600019921b161c1916905538808080611a27565b80600185978294968601518155019601930190611a10565b909291926040820190604083528051809252606083019160608160051b850101916020809101936000905b838210611ab05750505050602091509360018060a01b0316910152565b909192938380611acc600193605f198b820301865289516103f2565b9701920192019094939291611a93565b9081602091031261045f5751610428816108d0565b6040513d6000823e3d90fd5b51906102a5826108d0565b51906102a58261155b565b81601f8201121561045f578051611b29816107ad565b92611b376040519485610245565b8184526020828401011161045f5761042891602080850191016103cf565b60208183031261045f5780516001600160401b039182821161045f57016101a08184031261045f57611b8561056e565b92815184526020820151602085015260408201516040850152606082015160608501526080820151608085015260a082015160a0850152611bc860c08301611afd565b60c085015260e082015160e08501526101008083015190850152610120611bf0818401611b08565b90850152610140611c02818401611b08565b90850152610160611c14818401611b08565b90850152610180928383015190811161045f57611c319201611b13565b9082015290565b60405190611c458261019b565b60008252565b90604051918260605160005b818110611c8c57509060206102a593611c808294840191838301600081528151948592016103cf565b01038085520183610245565b6020919250806080015182828801015201908491611c57565b60206102a5919392936040519481611cc687935180928680870191016103cf565b8201611c80825180938680850191016103cf565b9060208282031261045f5781516001600160401b03811161045f576104289201611b13565b9081602091031261045f575190565b906102a5603d60405180947f646174613a6170706c69636174696f6e2f6a736f6e3b6261736536342c0000006020830152611d5281518092602086860191016103cf565b810103601d810185520183610245565b6040805163507f146560e01b808252602094929392906001600160a01b03908185168785600481845afa948515610d02576000956120db575b50865163c44a8e6d60e01b81526001600160a01b03871660048201526024810185905260006044820181905290958690606490829087165afa948515610d02576000956120c0575b508451156120b05761010085018051909390156120a657611e05865188612f97565b96875161206f575b875115611f43575050505094611f32611f24611f3e96611ea1611ebd611ea198611ea1611ea78a611e836104289f611e54611e6a9d611e7e9f92611e5b935190519161285f565b925161485d565b9488519c8d918d83019061166e565b039b611e7e601f199d8e8101835282610245565b614a37565b9651683d913730b6b2911d1160b91b9a81019a8b529c8d9a60090190565b9061166e565b691116101134b2111d101160b11b8152600a0190565b7f222c226465736372697074696f6e223a2241207069656365206f66207468652081527f42616e6e797665727365222c22696d616765223a22646174613a696d6167652f60208201526e1cdd99cade1b5b0ed8985cd94d8d0b608a1b6040820152604f0190565b61227d60f01b815260020190565b03908101835282610245565b611d0e565b92965092600f9195505111600014612060578551636c0360eb60e01b8152600081600481885afa8015610d0257889160009161203d575b50955b600488518097819382525afa918215610d0257611fd096889560009461201e575b5051630c8df17160e41b81526001600160a01b0390921660048301526024820193909352948592839182906044820190565b0392165afa918215610d025761042893600093611fef575b50506147ac565b61200f929350803d10612017575b6120078183610245565b810190611cff565b903880611fe8565b503d611ffd565b612036919450863d8811610d3157610d228183610245565b9238611f9e565b61205a91503d806000833e6120528183610245565b810190611cda565b38611f7a565b86612069610266565b95611f7d565b96612082906001865103612088576146b9565b96611e0d565b6120a19061209c612097613092565b6145f3565b611ca5565b6146b9565b6120828588612b2b565b5050505050505050610428611c38565b6120d491953d8091833e610cf48183610245565b9338611de3565b6120f3919550883d8a11610d3157610d228183610245565b9338611d9b565b600090808252602090600860205260408320549081156121a2578184526005602052604084209260405180948591602082549182815201918852602088209388905b8282106121885750505061215292500384610245565b825192845b84811061216657505050505090565b8261217182846115e5565b511461217f57600101612157565b50505091505090565b85548452600195860195899550938101939091019061213c565b50505090565b916020916121c191959495604085526040850191611846565b6001600160a01b03909416910152565b6121d9612ee8565b805160005b8181106122595750506121f09061180c565b9060405190818183925160208092019160005b82811061224257505050500390206040513381529091907fb0c948934b683b0d319be35a6898bce339f877d721976592196eef848acc69c390602090a3565b835185528695509381019392810192600101612203565b61226381846115e5565b5161226e82866115e5565b5190806000526001602052604080600020546122a457509061229d600193926000526001602052604060002090565b55016121de565b516333ded41b60e21b8152600490fd5b604051906101a082018281106001600160401b038211176101b657604052606061018083600080825280602083015280604083015280848301528060808301528060a08301528060c08301528060e08301528061010083015280610120830152806101408301526101608201520152565b91908110156115d35760051b0190565b600281901b91906001600160fe1b0381160361161e57565b906001600160401b0383116101b6576801000000000000000083116101b65781548383558084106123a8575b50906000526020806000209060005b848110612396575050505050565b83358382015592810192600101612388565b6123c090836000528460206000209182019101611685565b38612379565b9081526060602082018190528101839052929392916001600160fb1b03811161045f5760409160809160051b8091838601378301019360018060a01b0316910152565b60226102a591939293604051948161242b8793518092602080870191016103cf565b820161202360f01b602082015261244b82518093602087850191016103cf565b01036002810185520183610245565b906102a5602960405180946802a37b83834b7339d160bd1b602083015261248a81518092602086860191016103cf565b8101036009810185520183610245565b906102a5602660405180946502334b9ba1d160d51b60208301526124c781518092602086860191016103cf565b8101036006810185520183610245565b906102a5602d60405180946c029bab4ba103137ba3a37b69d1609d1b602083015261250b81518092602086860191016103cf565b810103600d810185520183610245565b906102a5602a604051809469029bab4ba103a37b81d160b51b602083015261254c81518092602086860191016103cf565b810103600a810185520183610245565b906102a56026604051809465029bab4ba1d160d51b60208301526124c781518092602086860191016103cf565b906102a5602660405180946502432b0b21d160d51b60208301526124c781518092602086860191016103cf565b906102a5602660405180946502430b4b91d160d51b60208301526124c781518092602086860191016103cf565b906102a56027604051809466026b7baba341d160cd1b602083015261261181518092602086860191016103cf565b8101036007810185520183610245565b906102a56026604051809465022bcb2b99d160d51b60208301526124c781518092602086860191016103cf565b906102a5602660405180946502330b1b29d160d51b60208301526124c781518092602086860191016103cf565b906102a5602a60405180946902732b1b5b630b1b29d160b51b602083015261254c81518092602086860191016103cf565b906102a56026604051809465029b437b29d160d51b60208301526124c781518092602086860191016103cf565b906102a5602a60405180946902130b1b5b9b4b2329d160b51b602083015261254c81518092602086860191016103cf565b906102a5602760405180946602bb7b936321d160cd1b602083015261261181518092602086860191016103cf565b906102a56035604051809474027b934b3b4b730b6102730b5b2b2102130b7373c9605d1b602083015261277481518092602086860191016103cf565b8101036015810185520183610245565b906102a56033604051809472027b930b733b2902730b5b2b2102130b7373c9606d1b60208301526127be81518092602086860191016103cf565b8101036013810185520183610245565b906102a5603160405180947002834b735902730b5b2b2102130b7373c9607d1b602083015261280681518092602086860191016103cf565b8101036011810185520183610245565b906102a56032604051809471020b634b2b7102730b5b2b2102130b7373c960751b602083015261284f81518092602086860191016103cf565b8101036012810185520183610245565b91633b9aca00830691600181036128845750505061287f6104289161485d565b612816565b600281036128a05750505061289b6104289161485d565b6127ce565b600381036128bc575050506128b76104289161485d565b612784565b600481036128d8575050506128d36104289161485d565b612738565b6128f8919293506128f3906000526003602052604060002090565b61032c565b9180612a03575b506001810361291257506104289061270a565b600281036129245750610428906126d9565b600a81036129365750610428906126ac565b6003810361294857506104289061267b565b6005810361295a57506104289061264e565b6006810361296c575061042890612621565b6007810361297e5750610428906125e3565b600881036129905750610428906125b6565b600481036129a2575061042890612589565b600b81036129b457506104289061255c565b600d81036129c657506104289061251b565b600c81036129d85750610428906124d7565b600e81036129ea57506104289061249a565b600f146129fa5750610428611c38565b6104289061245a565b9091805115600014612a215750612a199061485d565b905b386128ff565b612a2d612a339261485d565b90612409565b90612a1b565b806000526007602052604060002054908115908115612a61575b50612a5b5790565b50600090565b9050816000526006602052604060002054141538612a53565b919060408382031261045f5782519260209081810151906001600160401b03821161045f57019180601f8401121561045f578251612ab78161058e565b93612ac56040519586610245565b818552838086019260051b82010192831161045f578301905b828210612aec575050505090565b81518152908301908301612ade565b3d15612b26573d90612b0c826107ad565b91612b1a6040519384610245565b82523d6000602084013e565b606090565b60405163507f146560e01b8152906001600160a01b036020836004818585165afa928315610d0257600093612cee575b5060405163c44a8e6d60e01b81526001600160a01b0383166004820152602481018590526000604482018190529093909184916064918391165afa918215610d0257600092612cd3575b50815115612cc8576060610100830151612ca157604051630f22bc6f60e11b8152600481019490945261042893612c2e929082906000908181602481305afa9081600091600093612c7a575b50612c6c57505090612c2691612c05612afb565b505b80151580612c64575b612c4a575b50612c208651614b17565b90611ca5565b935190615339565b8051612c3b575b506146b9565b612c4491611ca5565b38612c35565b612c5e9150612c599084612f97565b611c4b565b38612c15565b506001612c10565b909450612c26929150612c07565b909250612c9a91503d806000833e612c928183610245565b810190612a7a565b9138612bf1565b5090612caf92505190612f97565b805115612cbf57610428906146b9565b50610428611c38565b505050610428611c38565b612ce791923d8091833e610cf48183610245565b9038612ba5565b6000919350612d0b9060203d602011610d3157610d228183610245565b9290612b5b565b60405163507f146560e01b8152909390916001600160a01b03602084600481848a165afa938415610d0257600094612ec4575b5060405163c44a8e6d60e01b81526001600160a01b0387166004820152602481018390526000604482018190529094909185916064918391165afa928315610d0257600093612ea9575b50825115612e9c57606094610100840151612e8c57604051630f22bc6f60e11b81526004810192909252610428959182906000908181602481305afa9081600091600093612e6d575b50612e5d575050612e0a929394612ded612afb565b505b8115159081612e55575b50612e40575b50612c208551614b17565b93612e18575b5050506146b9565b612e23925190615339565b8051612e31575b8080612e10565b612e3a91611ca5565b38612e2a565b612e4f9150612c599084612f97565b38612dff565b905038612df9565b909150612e0a9394509094612def565b909250612e8591503d806000833e612c928183610245565b9138612dd8565b93505050612caf92505190612f97565b5050505050610428611c38565b612ebd91933d8091833e610cf48183610245565b9138612d8f565b6000919450612ee19060203d602011610d3157610d228183610245565b9390612d45565b6000546001600160a01b0390811681612eff615763565b1603612f085750565b602490612f13615763565b60405163118cdaa760e01b815291166004820152fd5b906102a5605060405180946f1e339f1e34b6b0b3b290343932b31e9160811b6020830152612f618151809260206030860191016103cf565b81017f222077696474683d2234303022206865696768743d22343030222f3e3c2f673e6030820152036030810185520183610245565b612fae6128f3836000526004602052604060002090565b805161308c575060405163507f146560e01b81526001600160a01b039260209283836004818489165afa908115610d025761302195859460009361306d575b50604051632f54648f60e21b81526001600160a01b0390921660048301526024820193909352948592839182906044820190565b0392165afa8015610d02576104289261304b92600092613050575b5050613046610266565b6147ac565b612f29565b6130669250803d10612017576120078183610245565b388061303c565b613085919350853d8711610d3157610d228183610245565b9138612fed565b91505090565b6040519061309f826101bb565b61117a82527f762d31306833762d376833762d33682d31307a222f3e3c2f673e000000000000611180837f3c6720636c6173733d226131223e3c7061746820643d224d313733203533683460208201527f763137682d347a222f3e3c2f673e3c6720636c6173733d226132223e3c70617460408201527f6820643d224d3136372035376833763130682d337a222f3e3c7061746820643d60608201527f224d3136392035336834763137682d347a222f3e3c2f673e3c6720636c61737360808201527f3d226133223e3c7061746820643d224d31363720353368337634682d337a222f60a08201527f3e3c7061746820643d224d3136332035376834763130682d347a222f3e3c706160c08201527f746820643d224d31363720363768337633682d337a222f3e3c2f673e3c67206360e08201527f6c6173733d226231223e3c7061746820643d224d32313320323533682d33762d6101008201527f332d33682d33762d372d33682d34762d3130682d33762d372d372d33682d33766101208201527f2d3733682d34762d3130682d33762d3130682d33762d37682d34762d37682d336101408201527f762d33682d33762d33682d3476313068347631306833763130683376336834766101608201527f37203320373020336833763768337632306834763768337633683376336834766101808201527f34683376336833762d332d347a222f3e3c7061746820643d224d3235332033306101a08201527f37762d34682d33762d33682d33762d33682d34762d34682d33762d33682d33766101c08201527f2d33682d34762d34682d33762d33682d33762d33682d34762d34682d33762d366101e08201527f682d33762d37682d3476313768347633683376336833203476346833763368336102008201527f76336834763468337633683376336834763468337633683376336834762d36686102208201527f2d347a222f3e3c2f673e3c6720636c6173733d226232223e3c7061746820643d6102408201527f224d32353020333130762d33682d33762d34682d34762d33682d33762d33682d6102608201527f33762d34682d34762d33682d33762d33682d33762d34682d37762d33682d33766102808201527f2d33682d34762d3137682d33762d33682d33762d34682d34762d33682d33762d6102a08201527f33682d33762d37682d34762d3230682d33762d37682d33762d37332d332d37686102c08201527f2d34762d33682d33762d3130682d33762d3130682d34563730682d33762d336c6102e08201527f2d332031303020332d313030763430682d33763130682d347636682d337631346103008201527f682d337633203133682d347634346834763136683376313468337631336834766103208201527f31306833763768337633683476336833763468337633683476336833763468336103408201527f76336834763368337637683776376836763368377633683776346831337633686103608201527f337633683130762d33682d337a6d2d3130332d3837762d31366833762d3130686103808201527f2d337636682d34763137682d337631306833762d3768347a222f3e3c706174686103a08201527f20643d224d3134332032333068347637682d347a6d3420313068337633682d336103c08201527f7a6d33203768337633682d337a6d33203668347634682d347a222f3e3c7061746103e08201527f6820643d224d31363320323537682d36763368337633683376346834762d342d6104008201527f33682d34762d337a222f3e3c2f673e3c6720636c6173733d226233223e3c70616104208201527f746820643d224d3134332031393776366834762d366836762d34346834762d316104408201527f366833762d31346833762d366834762d31306833563937682d377636682d33766104608201527f34682d337633682d347633682d3376342033682d3376332034682d34763130686104808201527f2d337631362034682d337634366833762d3668337a222f3e3c7061746820643d6104a08201527f224d313430203230336833763137682d337a222f3e3c7061746820643d224d316104c08201527f3337203232306833763130682d337a222f3e3c7061746820643d224d313533206104e08201527f323530682d33762d37682d33762d36682d34762d37682d3376313068337637686105008201527f347636683376346833762d377a6d2d3320313068337637682d337a222f3e3c706105208201527f61746820643d224d3134372032353768337633682d337a6d36203068347633686105408201527f2d347a222f3e3c7061746820643d224d31363020323633762d33682d337633206105608201527f376836762d37682d337a6d2d31302d3536763136682d337637683376313068336105808201527f763768347636683676346837762d342d33682d33762d3130682d34762d3133686105a08201527f2d33762d3134682d33762d3136682d34763130682d337a222f3e3c70617468206105c08201527f643d224d32343320333133762d33682d33762d33682d31302d33762d34682d376105e08201527f762d33682d37762d33682d36762d37682d37762d37682d33762d33682d34762d6106008201527f33682d33762d34682d33762d33682d34762d33682d33762d34682d33762d33686106208201527f2d34762d33682d33763130682d337633682d347633682d3376376833763768346106408201527f76366833763568347633683676336833763368342033763368332034763368336106608201527f20337634683130763368372037203376336831302033762d33683130762d33686106808201527f34762d34682d31347a222f3e3c2f673e3c6720636c6173733d226234223e3c706106a08201527f61746820643d224d3138332031333068347637682d347a222f3e3c70617468206106c08201527f643d224d3138302031323768337633682d337a6d2d32372d3468347637682d346106e08201527f7a222f3e3c7061746820643d224d3135372031313768337636682d337a222f3e6107008201527f3c7061746820643d224d3136302031313068337637682d337a222f3e3c7061746107208201527f6820643d224d3136332031303768347633682d347a6d2d3320383368337637686107408201527f2d337a222f3e3c7061746820643d224d3136332031383768347633682d347a6d6107608201527f3230203068377633682d377a222f3e3c7061746820643d224d313830203139306107808201527f68337633682d337a6d31302d3768337634682d337a222f3e3c7061746820643d6107a08201527f224d3139332031383768347636682d347a6d2d323020353368347637682d347a6107c08201527f222f3e3c7061746820643d224d3137372032343768337636682d337a222f3e3c6107e08201527f7061746820643d224d3138302032353368337637682d337a222f3e3c706174686108008201527f20643d224d3138332032363068377633682d377a222f3e3c7061746820643d226108208201527f4d3139302032363368337634682d337a6d302d323068337634682d337a222f3e6108408201527f3c7061746820643d224d3138372032343068337633682d337a222f3e3c7061746108608201527f6820643d224d3139302032333768337633682d337a6d313320323368347633686108808201527f2d347a222f3e3c7061746820643d224d3230372032363368337637682d337a226108a08201527f2f3e3c7061746820643d224d3231302032373068337633682d337a6d2d3130206108c08201527f3768337636682d337a222f3e3c7061746820643d224d323033203238336834766108e08201527f37682d347a222f3e3c7061746820643d224d3230372032393068367633682d366109008201527f7a222f3e3c2f673e3c6720636c6173733d226f223e3c7061746820643d224d316109208201527f3333203135376834763530682d347a6d302036336834763130682d347a6d32376109408201527f2d3136336833763130682d337a222f3e3c7061746820643d224d3136332035336109608201527f68347634682d347a222f3e3c7061746820643d224d31363720353068313076336109808201527f682d31307a222f3e3c7061746820643d224d3137372035336833763137682d336109a08201527f7a222f3e3c7061746820643d224d3137332037306834763237682d347a6d2d366109c08201527f20306833763237682d337a222f3e3c7061746820643d224d31363320363768346109e08201527f7633682d347a6d3020333068347633682d347a222f3e3c7061746820643d224d610a008201527f3136302031303068337633682d337a222f3e3c7061746820643d224d31353720610a208201527f31303368337634682d337a222f3e3c7061746820643d224d3135332031303768610a408201527f347633682d347a222f3e3c7061746820643d224d313530203131306833763368610a608201527f2d337a222f3e3c7061746820643d224d3134372031313368337637682d337a22610a808201527f2f3e3c7061746820643d224d3134332031323068347637682d347a222f3e3c70610aa08201527f61746820643d224d313430203132376833763130682d337a222f3e3c70617468610ac08201527f20643d224d313337203133376833763230682d337a6d35362d31306834763130610ae08201527f682d347a222f3e3c7061746820643d224d313930203131376833763130682d33610b008201527f7a222f3e3c7061746820643d224d3138372031313068337637682d337a222f3e610b208201527f3c7061746820643d224d3138332031303368347637682d347a222f3e3c706174610b408201527f6820643d224d3138302031303068337633682d337a222f3e3c7061746820643d610b608201527f224d31373720393768337633682d337a6d2d3430203130366833763137682d33610b808201527f7a6d302032376833763130682d337a6d313020333068337637682d337a222f3e610ba08201527f3c7061746820643d224d31353020323537762d34682d33762d36682d34762d37610bc08201527f682d3376313068337631306834762d3368337a222f3e3c7061746820643d224d610be08201527f3135302032353768337633682d337a222f3e3c7061746820643d224d31363320610c008201527f323733762d33682d36762d3130682d347637682d337633683376336834763768610c208201527f33762d3768337a222f3e3c7061746820643d224d313633203236376834763368610c408201527f2d347a222f3e3c7061746820643d224d31373020323537682d332d3476336834610c608201527f76376833762d31307a222f3e3c7061746820643d224d31353720323533683676610c808201527f34682d367a222f3e3c7061746820643d224d3135332032343768347636682d34610ca08201527f7a222f3e3c7061746820643d224d3135302032343068337637682d337a222f3e610cc08201527f3c7061746820643d224d313437203233306833763130682d337a6d3133203530610ce08201527f68337637682d337a222f3e3c7061746820643d224d3134332032323368347637610d008201527f682d347a222f3e3c7061746820643d224d313437203230376833763136682d33610d208201527f7a222f3e3c7061746820643d224d313530203139376833763130682d337a6d2d610d408201527f3130203068337636682d337a6d35302031313368377633682d377a6d32332031610d608201527f306831377633682d31377a222f3e3c7061746820643d224d3233302033323368610d808201527f31337634682d31337a222f3e3c7061746820643d224d32343320333230683130610da08201527f7633682d31307a222f3e3c7061746820643d224d323533203331376834763368610dc08201527f2d347a222f3e3c7061746820643d224d323537203330376833763130682d337a610de08201527f222f3e3c7061746820643d224d3235332033303368347634682d347a222f3e3c610e008201527f7061746820643d224d3235302033303068337633682d337a222f3e3c70617468610e208201527f20643d224d3234372032393768337633682d337a222f3e3c7061746820643d22610e408201527f4d3234332032393368347634682d347a222f3e3c7061746820643d224d323430610e608201527f2032393068337633682d337a222f3e3c7061746820643d224d32333720323837610e808201527f68337633682d337a222f3e3c7061746820643d224d3233332032383368347634610ea08201527f682d347a222f3e3c7061746820643d224d3233302032383068337633682d337a610ec08201527f222f3e3c7061746820643d224d3232372032373768337633682d337a222f3e3c610ee08201527f7061746820643d224d3232332032373368347634682d347a222f3e3c70617468610f008201527f20643d224d3232302032363768337636682d337a222f3e3c7061746820643d22610f208201527f4d3231372032363068337637682d337a222f3e3c7061746820643d224d323133610f408201527f2032353368347637682d347a222f3e3c7061746820643d224d32313020323437610f608201527f68337636682d337a222f3e3c7061746820643d224d3230372032333768337631610f808201527f30682d337a222f3e3c7061746820643d224d323033203232376834763130682d610fa08201527f347a6d2d343020363068347636682d347a6d323420323068337633682d337a22610fc08201527f2f3e3c7061746820643d224d3136372032393368337635682d337a6d31362031610fe08201527f3468347633682d347a222f3e3c7061746820643d224d313730203239386834766110008201527f33682d347a6d3130203668337633682d337a222f3e3c7061746820643d224d316110208201527f37342033303168367633682d367a6d323320313268367634682d367a222f3e3c6110408201527f7061746820643d224d323033203331376831307633682d31307a6d2d322d31306110608201527f37762d3733682d3476373368337631376833762d3137682d327a222f3e3c2f676110808201527f3e3c6720636c6173733d226f223e3c7061746820643d224d31383720333037766110a08201527f2d346833762d36682d33762d34682d34762d33682d33762d33682d37762d34686110c08201527f2d367634682d3476336834763237682d34763133682d33763130682d347637686110e08201527f3476336833203130203134762d33682d34762d34682d33762d33682d33762d336111008201527f682d34762d376834762d31306833762d376833762d336837762d33682d337a6d6111208201527f3136203130762d34682d36763137682d34763130682d337637683376336834206111408201527f3620342033203134762d33682d34762d34682d37762d33682d33762d33682d336111608201520152565b906102a5609a60405180947f3c7374796c653e2e6f7b66696c6c3a233830383038303b7d2e62327b66696c6c60208301527f3a6e6f6e653b7d2e62337b66696c6c3a6e6f6e653b7d2e62347b66696c6c3a6e60408301527f6f6e653b7d2e61317b66696c6c3a6e6f6e653b7d2e61327b66696c6c3a6e6f6e60608301527f653b7d2e61337b66696c6c3a6e6f6e653b7d3c2f7374796c653e00000000000060808301526146a981518092602086860191016103cf565b810103607a810185520183610245565b906102a560ba60405180947f3c7376672077696474683d2234303022206865696768743d223430302220766960208301527f6577426f783d223020302034303020343030222066696c6c3d226e6f6e65222060408301527f786d6c6e733d22687474703a2f2f7777772e77332e6f72672f323030302f737660608301527f67223e3c7374796c653e2e6f7b66696c6c3a233035303530353b7d2e777b666960808301527336361d11b31cb31cb31c9dbe9e17b9ba3cb6329f60611b60a083015261478d81518092602060b4860191016103cf565b8101651e17b9bb339f60d11b60b482015203609a810185520183610245565b90610428906147da604051602092609160f51b848301526022820152602281526147d5816101d7565b615632565b9260405193816147f386935180928680870191016103cf565b8201614807825180938680850191016103cf565b01038084520182610245565b60405161481f8161019b565b60008152906000368137565b90614835826107ad565b6148426040519182610245565b8281528092614853601f19916107ad565b0190602036910137565b806000917a184f03e93ff9f4daa797ed6e38ed64bf6a1f01000000000000000080821015614993575b506d04ee2d6d415b85acef810000000080831015614984575b50662386f26fc1000080831015614975575b506305f5e10080831015614966575b5061271080831015614957575b506064821015614947575b600a8092101561493d575b6001908160216148f56001870161482b565b95860101905b614907575b5050505090565b600019019083906f181899199a1a9b1b9c1cb0b131b232b360811b8282061a835304918215614938579190826148fb565b614900565b91600101916148e3565b91906064600291049101916148d8565b600491939204910191386148cd565b600891939204910191386148c0565b601091939204910191386148b1565b6020919392049101913861489f565b604093508104915038614886565b604051906149ae826101d7565b604082527f6768696a6b6c6d6e6f707172737475767778797a303132333435363738392b2f6040837f4142434445464748494a4b4c4d4e4f505152535455565758595a61626364656660208201520152565b906002820180921161161e57565b906020820180921161161e57565b906001820180921161161e57565b9190820180921161161e57565b805115612cbf57614a466149a1565b614a62614a5d614a568451614a00565b6003900490565b612335565b91614a74614a6f84614a0e565b61482b565b92835280815182019060208501935b828210614ac557505050600390510680600114614ab457600214614aa5575090565b603d60f81b6000199091015290565b50613d3d60f01b6001199091015290565b9091936004906003809401938451600190603f9082828260121c16880101518553828282600c1c16880101518386015382828260061c1688010151600286015316850101519082015301939190614a83565b614b20906159fc565b92614b2f969596929192613092565b9460405197889760208901703c7374796c653e2e62317b66696c6c3a2360781b90528051908160318b019160200191614b67926103cf565b8801603181016b3b7d2e62327b66696c6c3a2360a01b905281519182603d83019160200191614b95926103cf565b01603d81016b3b7d2e62337b66696c6c3a2360a01b905281519182604983019160200191614bc2926103cf565b0160498101614bdf906b3b7d2e62347b66696c6c3a2360a01b9052565b605501614beb9161166e565b6b3b7d2e61317b66696c6c3a2360a01b8152600c01614c099161166e565b6b3b7d2e61327b66696c6c3a2360a01b8152600c01614c279161166e565b6b3b7d2e61337b66696c6c3a2360a01b8152600c01614c459161166e565b691dbe9e17b9ba3cb6329f60b11b8152600a01614c619161166e565b03601f19810182526104289082610245565b60405190614c80826101f2565b61019c82527f6820643d224d3139332031373068347633682d347a222f3e3c2f673e000000006101a0837f3c6720636c6173733d226f223e3c7061746820643d224d31393020313733682d60208201527f3337762d33682d3130762d34682d36763468337633682d33763468367633683160408201527f307634683337762d346833762d33682d33762d347a6d2d34302034682d33762d60608201527f34683376347a6d372033762d3368337633682d337a6d362030762d336834763360808201527f682d347a6d372030762d3368337633682d337a6d372030762d3368337633682d60a08201527f337a6d31302030682d34762d33683476337a222f3e3c7061746820643d224d3160c08201527f39302031373068337633682d337a222f3e3c7061746820643d224d313933203160e08201527f363668347634682d347a6d30203768347634682d347a222f3e3c2f673e3c67206101008201527f636c6173733d2277223e3c7061746820643d224d3133372031373068337633686101208201527f2d337a6d3130203368337634682d337a6d3130203468337633682d337a6d36206101408201527f3068347633682d347a6d37203068337633682d337a6d37203068337633682d336101608201527f7a6d36203068347633682d347a6d372d3468337634682d337a222f3e3c7061746101808201520152565b6040519061010082018281106001600160401b038211176101b65760405260dd82527f746820643d224d3138302031343768337633682d337a222f3e3c2f673e00000060e0837f3c6720636c6173733d226f223e3c7061746820643d224d31373720313430763360208201527f6836763131683130762d31316834762d33682d32307a222f3e3c70617468206460408201527f3d224d31353320313430763368377638203368372033762d31316833762d336860608201527f2d32307a222f3e3c2f673e3c6720636c6173733d2277223e3c7061746820643d60808201527f224d3135332031343368377634682d377a222f3e3c7061746820643d224d313560a08201527f372031343768337633682d337a6d32302d3468367634682d367a222f3e3c706160c08201520152565b60405190614fb68261020e565b61023a82527f643d224d3139302031333768347633682d347a222f3e3c2f673e000000000000610240837f3c6720636c6173733d226f223e3c7061746820643d224d31393020313237683360208201527f7633682d337a6d3320313368347633682d347a6d2d3432203068367636682d3660408201527f7a222f3e3c7061746820643d224d3135312031333368337637682d337a6d313060608201527f203068367634682d367a222f3e3c7061746820643d224d31353720313337683160808201527f377636682d31377a6d332031336831347633682d31347a6d31372d313368377660a08201527f3136682d377a222f3e3c7061746820643d224d3138342031333768367636682d60c08201527f367a6d302031306831307636682d31307a222f3e3c7061746820643d224d313860e08201527f37203134336831307634682d31307a222f3e3c7061746820643d224d313930206101008201527f31343068337633682d337a6d2d362d313068337637682d337a222f3e3c7061746101208201527f6820643d224d3138372031333068367633682d367a6d2d3336203068313076336101408201527f682d31307a6d313620313368377637682d377a6d2d3130203068377637682d376101608201527f7a222f3e3c7061746820643d224d3136342031343768337633682d337a6d32396101808201527f2d323068347636682d347a222f3e3c7061746820643d224d31393420313333686101a08201527f337637682d337a222f3e3c2f673e3c6720636c6173733d2277223e3c706174686101c08201527f20643d224d3135342031333368377634682d377a222f3e3c7061746820643d226101e08201527f4d3135342031333768337633682d337a6d3130203668337634682d337a6d32306102008201527f203068337634682d337a6d332d313068377634682d377a222f3e3c70617468206102208201520152565b6040519060c082018281106001600160401b038211176101b65760405260818252601f60f91b60a0837f3c6720636c6173733d226f223e3c7061746820643d224d31383320313630762d60208201527f34682d32307634682d33763368337634683234762d37682d347a6d2d3133203360408201527f762d336831307633682d31307a222066696c6c3d2223616437316338222f3e3c60608201527f7061746820643d224d313730203136306831307633682d31307a222f3e3c2f6760808201520152565b90929160609381519160009283918490858691600394600381106000146155c55761536381614a1c565b985b898110615379575050505050505050505050565b818110156155b95761538b81846115e5565b516040805163507f146560e01b8152919791602060048f6001600160a01b03838584818585165afa928315610d0257615406966000968f96889661559a575b50505163c44a8e6d60e01b81526001600160a01b0390931690830190815260208101949094526000604085015290948593849291839160600190565b0392165afa8015610d025761010091600091615581575b500151985b89890361555257506001985b6005818103615465575050506001955b8061544d575b50600101615365565b6001919d612c2061545e928e612f97565b9c90615444565b81989298118061554a575b61547b575b5061543e565b9095909460068087036154fe5750506001945b6007908082036154cf575050506001945b84806154c8575b806154c0575b6154b7575b38615475565b600196506154b1565b5086156154ac565b50856154a6565b96919611806154f6575b1561549f5794509b6154ed90612c20615274565b9b60019461549f565b5085156154d9565b8691961180615542575b1561548e57945060019d8e8b146000146155305761552890612c20614fa9565b9d5b9461548e565b61553c90612c20614e7b565b9d61552a565b508515615508565b508715615470565b9888811180615579575b1561542e5798509c61557090612c20614c73565b9c60019861542e565b50891561555c565b615594913d8091833e610cf48183610245565b3861541d565b6155b1929650803d10610d3157610d228183610245565b9338806153ca565b60089795600096615422565b8098615365565b604051906105e082018281106001600160401b038211176101b657604052602e82526105c0366020840137565b906156038261058e565b6156106040519182610245565b8281528092614853601f199161058e565b9081518110156115d3570160200190565b90815115615759576156426155cc565b916000906000615651856115d8565b526001918151916000925b808410615682575050505061567861567d916104289394615b28565b615b6b565b615bb2565b909192946156b36156ad6156a76156998987615621565b516001600160f81b03191690565b60f81c90565b60ff1690565b9184925b60ff908982891686101561571857600192916156ec6156e66156ad6156df8a6156f2966115e5565b5160ff1690565b60081b90565b90614a2a565b61570f8b61570788603a9586860616926115e5565b9060ff169052565b049301926156b7565b50919594935050809691965b61573257506001019261565c565b9460ff6001603a9261574f83858b06166157078d868516906115e5565b0116950480615724565b9050610428614813565b337f000000000000000000000000b2b5841dbef766d4b521221732f9b618fcf34a876001600160a01b031614806157b1575b156157ad57601319360136811161161e573560601c90565b3390565b506014361015615795565b604051906157c98261022a565b600682526506666653930360d41b6020830152565b604051906157eb8261022a565b600682526506666633730360d41b6020830152565b6040519061580d8261022a565b600682526566336136303360d01b6020830152565b6040519061582f8261022a565b600682526539363561316160d01b6020830152565b604051906158518261022a565b600682526533331bb1981960d11b6020830152565b604051906158738261022a565b600682526506664333630360d41b6020830152565b604051906158958261022a565b600682526518cccc994c1960d21b6020830152565b604051906158b78261022a565b600682526566666438633560d01b6020830152565b604051906158d98261022a565b600682526566663936613960d01b6020830152565b604051906158fb8261022a565b600682526533329a9c1c3160d11b6020830152565b6040519061591d8261022a565b600682526563393266343560d01b6020830152565b6040519061593f8261022a565b600682526536376437353760d01b6020830152565b604051906159618261022a565b600682526503330613232360d41b6020830152565b604051906159838261022a565b600682526532313761313560d01b6020830152565b604051906159a58261022a565b60048252636e6f6e6560e01b6020830152565b604051906159c58261022a565b6006825265329a1c19b2b360d11b6020830152565b604051906159e78261022a565b60068252653231993332b360d11b6020830152565b60018103615a435750615a0d615932565b90615a16615954565b90615a1f615976565b90615a28615998565b90615a316159b8565b90615a3a6159da565b906104286159da565b60028103615a8a5750615a546158aa565b90615a5d6158cc565b90615a666158ee565b90615a6f615910565b90615a786158aa565b90615a816158cc565b906104286158ee565b60038103615ad15750615a9b615800565b90615aa4615844565b90615aad615866565b90615ab6615888565b90615abf615800565b90615ac8615844565b90610428615866565b600414615aea57604051630992899d60e31b8152600490fd5b615af26157bc565b90615afb6157de565b90615b04615800565b90615b0d615822565b90615b166157bc565b90615b1f6157de565b90610428615800565b9060ff80911690615b38826155f9565b9260005b838110615b4a575050505090565b8083615b58600193856115e5565b5116615b6482886115e5565b5201615b3c565b908151615b77816155f9565b9060005b818110615b89575090925050565b60019060ff615b9f6000198389510301886115e5565b5116615bab82866115e5565b5201615b7b565b8051615bbd816107ad565b91604090615bce6040519485610245565b828452615bda836107ad565b602090601f1901368683013760009260005b858110615bfc5750505050505090565b6001908251615c0a816101d7565b603a81527f31323334353637383941424344454647484a4b4c4d4e50515253545556575859858201527f5a6162636465666768696a6b6d6e6f707172737475767778797a000000000000848201526001600160f81b031990615c7a9060ff615c72858a6115e5565b511690615621565b5116861a615c88828a615621565b5301615bec56fea2646970667358221220e9d4e815bbfd5b045e128e04a2761c906c3a8242d2fe57031bffc1e886b16d2164736f6c63430008170033",
			"devdoc": {
				"kind": "dev",
				"methods": {
					"assetIdsOf(uint256)": {
						"params": {
							"nakedBannyId": "The ID of the naked banny shows with the associated assets."
						},
						"returns": {
							"outfitIds": "The outfits attached to the Naked Banny.",
							"worldId": "The world attached to the Naked Banny."
						}
					},
					"bannySvgOf(address,uint256,bool,bool)": {
						"params": {
							"hook": "The hook storing the assets.",
							"tokenId": "The ID of the token to show. If the ID belongs to a Naked Banny, it will be shown with its current outfits in its current world."
						},
						"returns": {
							"_0": "bannySvg The SVG."
						}
					},
					"constructor": {
						"params": {
							"owner": "The owner allowed to add SVG files that correspond to tier IDs.",
							"trustedForwarder": "The trusted forwarder for the ERC2771Context."
						}
					},
					"decorateBannyWith(address,uint256,uint256,uint256[])": {
						"details": "The caller must own the naked banny being dressed and all outfits being worn.",
						"params": {
							"hook": "The hook storing the assets.",
							"nakedBannyId": "The ID of the Naked Banny being dressed.",
							"outfitIds": "The IDs of the outfits that'll be associated with the specified banny. Only one outfit per outfit category allowed at a time and they must be passed in order.",
							"worldId": "The ID of the world that'll be associated with the specified banny."
						}
					},
					"isTrustedForwarder(address)": {
						"details": "Indicates whether any particular address is the trusted forwarder."
					},
					"nameOf(address,uint256)": {
						"params": {
							"hook": "The hook storing the assets.",
							"tokenId": "The ID of the token to show."
						},
						"returns": {
							"_0": "The name of the token."
						}
					},
					"outfitIsBeingWornBy(uint256)": {
						"params": {
							"outfitId": "The ID of the outfit being worn."
						},
						"returns": {
							"_0": "The ID of the naked banny wearing the outfit."
						}
					},
					"owner()": {
						"details": "Returns the address of the current owner."
					},
					"renounceOwnership()": {
						"details": "Leaves the contract without owner. It will not be possible to call `onlyOwner` functions. Can only be called by the current owner. NOTE: Renouncing ownership will leave the contract without an owner, thereby disabling any functionality that is only available to the owner."
					},
					"setSvgContentsOf(uint256[],string[])": {
						"params": {
							"svgContents": "The svg contents being stored, not including the parent <svg></svg> element.",
							"tierIds": "The IDs of the tiers having SVGs stored."
						}
					},
					"setSvgHashsOf(uint256[],bytes32[])": {
						"details": "This allows anyone to lazily upload the correct svg file.",
						"params": {
							"svgHashs": "The svg hashes being stored, not including the parent <svg></svg> element.",
							"tierIds": "The IDs of the tiers having SVG hashes stored."
						}
					},
					"setTierNames(uint256[],string[])": {
						"params": {
							"names": "The names of the tiers.",
							"tierIds": "The IDs of the tiers having their name stored."
						}
					},
					"tokenUriOf(address,uint256)": {
						"params": {
							"tokenId": "The ID of the token to show. If the ID belongs to a Naked Banny, it will be shown with its current outfits in its current world."
						},
						"returns": {
							"_0": "tokenUri The URI representing the SVG."
						}
					},
					"transferOwnership(address)": {
						"details": "Transfers ownership of the contract to a new account (`newOwner`). Can only be called by the current owner."
					},
					"trustedForwarder()": {
						"details": "Returns the address of the trusted forwarder."
					},
					"worldIsBeingUsedBy(uint256)": {
						"params": {
							"worldId": "The ID of the world being used."
						},
						"returns": {
							"_0": "The ID of the naked banny using the world."
						}
					}
				},
				"version": 1
			},
			"userdoc": {
				"kind": "user",
				"methods": {
					"_nameOf(uint256,uint256,uint256)": {
						"notice": "The name of each tier."
					},
					"assetIdsOf(uint256)": {
						"notice": "The assets currently attached to each Naked Banny, owned by the naked Banny's owner."
					},
					"bannySvgOf(address,uint256,bool,bool)": {
						"notice": "Returns the SVG showing a dressed Naked Banny."
					},
					"decorateBannyWith(address,uint256,uint256,uint256[])": {
						"notice": "Dress your Naked Banny with outfits."
					},
					"nameOf(address,uint256)": {
						"notice": "Returns the name of the token."
					},
					"outfitIsBeingWornBy(uint256)": {
						"notice": "Checks to see which naked banny is currently wearing a particular outfit."
					},
					"setSvgBaseUri(string)": {
						"notice": "Allows the owner of this contract to specify the base of the domain hosting the SVG files."
					},
					"setSvgContentsOf(uint256[],string[])": {
						"notice": "The owner of this contract can store SVG files for tier IDs."
					},
					"setSvgHashsOf(uint256[],bytes32[])": {
						"notice": "Allows the owner of this contract to upload the hash of an svg file for a tierId."
					},
					"setTierNames(uint256[],string[])": {
						"notice": "Allows the owner to set the tier's name."
					},
					"svgBaseUri()": {
						"notice": "The base of the domain hosting the SVG files that can be lazily uploaded to the contract."
					},
					"svgHashOf(uint256)": {
						"notice": "The Naked Banny and outfit SVG hash files."
					},
					"tokenUriOf(address,uint256)": {
						"notice": "Returns the SVG showing a dressed Naked Banny in a world."
					},
					"worldIsBeingUsedBy(uint256)": {
						"notice": "Checks to see which naked banny is currently using a particular world."
					}
				},
				"version": 1
			},
			"gitCommit": "738013ee6a6a9933834f8215e622716ca63bdf1c",
			"sourceName": "src/Banny721TokenUriResolver.sol",
			"chainId": "11155111",
			"linkReferences": {},
			"deployedLinkReferences": {}
		},
		{
			"_format": "sphinx-sol-ct-artifact-1",
			"merkleRoot": "0xfe8ffb555449f1da6f33cda2fe57d7293671c56aece8cf1bf36d43b4e4949484",
			"contractName": "Banny721TokenUriResolver",
			"address": "0xB31748bC3824f46aE71478c2d95d0BAeFcf6D29E",
			"abi": [
				{
					"type": "constructor",
					"inputs": [
						{
							"name": "owner",
							"type": "address",
							"internalType": "address"
						},
						{
							"name": "trustedForwarder",
							"type": "address",
							"internalType": "address"
						}
					],
					"stateMutability": "nonpayable"
				},
				{
					"type": "function",
					"name": "_nameOf",
					"inputs": [
						{
							"name": "tokenId",
							"type": "uint256",
							"internalType": "uint256"
						},
						{
							"name": "tierId",
							"type": "uint256",
							"internalType": "uint256"
						},
						{
							"name": "category",
							"type": "uint256",
							"internalType": "uint256"
						}
					],
					"outputs": [
						{
							"name": "",
							"type": "string",
							"internalType": "string"
						}
					],
					"stateMutability": "view"
				},
				{
					"type": "function",
					"name": "assetIdsOf",
					"inputs": [
						{
							"name": "nakedBannyId",
							"type": "uint256",
							"internalType": "uint256"
						}
					],
					"outputs": [
						{
							"name": "worldId",
							"type": "uint256",
							"internalType": "uint256"
						},
						{
							"name": "outfitIds",
							"type": "uint256[]",
							"internalType": "uint256[]"
						}
					],
					"stateMutability": "view"
				},
				{
					"type": "function",
					"name": "decorateBannyWith",
					"inputs": [
						{
							"name": "hook",
							"type": "address",
							"internalType": "address"
						},
						{
							"name": "nakedBannyId",
							"type": "uint256",
							"internalType": "uint256"
						},
						{
							"name": "worldId",
							"type": "uint256",
							"internalType": "uint256"
						},
						{
							"name": "outfitIds",
							"type": "uint256[]",
							"internalType": "uint256[]"
						}
					],
					"outputs": [],
					"stateMutability": "nonpayable"
				},
				{
					"type": "function",
					"name": "isTrustedForwarder",
					"inputs": [
						{
							"name": "forwarder",
							"type": "address",
							"internalType": "address"
						}
					],
					"outputs": [
						{
							"name": "",
							"type": "bool",
							"internalType": "bool"
						}
					],
					"stateMutability": "view"
				},
				{
					"type": "function",
					"name": "nameOf",
					"inputs": [
						{
							"name": "hook",
							"type": "address",
							"internalType": "address"
						},
						{
							"name": "tokenId",
							"type": "uint256",
							"internalType": "uint256"
						}
					],
					"outputs": [
						{
							"name": "",
							"type": "string",
							"internalType": "string"
						}
					],
					"stateMutability": "view"
				},
				{
					"type": "function",
					"name": "outfitIsBeingWornBy",
					"inputs": [
						{
							"name": "outfitId",
							"type": "uint256",
							"internalType": "uint256"
						}
					],
					"outputs": [
						{
							"name": "",
							"type": "uint256",
							"internalType": "uint256"
						}
					],
					"stateMutability": "view"
				},
				{
					"type": "function",
					"name": "owner",
					"inputs": [],
					"outputs": [
						{
							"name": "",
							"type": "address",
							"internalType": "address"
						}
					],
					"stateMutability": "view"
				},
				{
					"type": "function",
					"name": "renounceOwnership",
					"inputs": [],
					"outputs": [],
					"stateMutability": "nonpayable"
				},
				{
					"type": "function",
					"name": "setSvgBaseUri",
					"inputs": [
						{
							"name": "baseUri",
							"type": "string",
							"internalType": "string"
						}
					],
					"outputs": [],
					"stateMutability": "nonpayable"
				},
				{
					"type": "function",
					"name": "setSvgContentsOf",
					"inputs": [
						{
							"name": "tierIds",
							"type": "uint256[]",
							"internalType": "uint256[]"
						},
						{
							"name": "svgContents",
							"type": "string[]",
							"internalType": "string[]"
						}
					],
					"outputs": [],
					"stateMutability": "nonpayable"
				},
				{
					"type": "function",
					"name": "setSvgHashsOf",
					"inputs": [
						{
							"name": "tierIds",
							"type": "uint256[]",
							"internalType": "uint256[]"
						},
						{
							"name": "svgHashs",
							"type": "bytes32[]",
							"internalType": "bytes32[]"
						}
					],
					"outputs": [],
					"stateMutability": "nonpayable"
				},
				{
					"type": "function",
					"name": "setTierNames",
					"inputs": [
						{
							"name": "tierIds",
							"type": "uint256[]",
							"internalType": "uint256[]"
						},
						{
							"name": "names",
							"type": "string[]",
							"internalType": "string[]"
						}
					],
					"outputs": [],
					"stateMutability": "nonpayable"
				},
				{
					"type": "function",
					"name": "svgBaseUri",
					"inputs": [],
					"outputs": [
						{
							"name": "",
							"type": "string",
							"internalType": "string"
						}
					],
					"stateMutability": "view"
				},
				{
					"type": "function",
					"name": "svgHashOf",
					"inputs": [
						{
							"name": "tierId",
							"type": "uint256",
							"internalType": "uint256"
						}
					],
					"outputs": [
						{
							"name": "",
							"type": "bytes32",
							"internalType": "bytes32"
						}
					],
					"stateMutability": "view"
				},
				{
					"type": "function",
					"name": "svgOf",
					"inputs": [
						{
							"name": "hook",
							"type": "address",
							"internalType": "address"
						},
						{
							"name": "tokenId",
							"type": "uint256",
							"internalType": "uint256"
						},
						{
							"name": "shouldDressNakedBanny",
							"type": "bool",
							"internalType": "bool"
						},
						{
							"name": "shouldIncludeWorldOnNakedBanny",
							"type": "bool",
							"internalType": "bool"
						}
					],
					"outputs": [
						{
							"name": "",
							"type": "string",
							"internalType": "string"
						}
					],
					"stateMutability": "view"
				},
				{
					"type": "function",
					"name": "tokenUriOf",
					"inputs": [
						{
							"name": "hook",
							"type": "address",
							"internalType": "address"
						},
						{
							"name": "tokenId",
							"type": "uint256",
							"internalType": "uint256"
						}
					],
					"outputs": [
						{
							"name": "",
							"type": "string",
							"internalType": "string"
						}
					],
					"stateMutability": "view"
				},
				{
					"type": "function",
					"name": "transferOwnership",
					"inputs": [
						{
							"name": "newOwner",
							"type": "address",
							"internalType": "address"
						}
					],
					"outputs": [],
					"stateMutability": "nonpayable"
				},
				{
					"type": "function",
					"name": "trustedForwarder",
					"inputs": [],
					"outputs": [
						{
							"name": "",
							"type": "address",
							"internalType": "address"
						}
					],
					"stateMutability": "view"
				},
				{
					"type": "function",
					"name": "worldIsBeingUsedBy",
					"inputs": [
						{
							"name": "worldId",
							"type": "uint256",
							"internalType": "uint256"
						}
					],
					"outputs": [
						{
							"name": "",
							"type": "uint256",
							"internalType": "uint256"
						}
					],
					"stateMutability": "view"
				},
				{
					"type": "event",
					"name": "DecorateBanny",
					"inputs": [
						{
							"name": "hook",
							"type": "address",
							"indexed": true,
							"internalType": "address"
						},
						{
							"name": "nakenBannyId",
							"type": "uint256",
							"indexed": true,
							"internalType": "uint256"
						},
						{
							"name": "worldId",
							"type": "uint256",
							"indexed": false,
							"internalType": "uint256"
						},
						{
							"name": "outfitIds",
							"type": "uint256[]",
							"indexed": false,
							"internalType": "uint256[]"
						},
						{
							"name": "caller",
							"type": "address",
							"indexed": false,
							"internalType": "address"
						}
					],
					"anonymous": false
				},
				{
					"type": "event",
					"name": "OwnershipTransferred",
					"inputs": [
						{
							"name": "previousOwner",
							"type": "address",
							"indexed": true,
							"internalType": "address"
						},
						{
							"name": "newOwner",
							"type": "address",
							"indexed": true,
							"internalType": "address"
						}
					],
					"anonymous": false
				},
				{
					"type": "event",
					"name": "SetSvgBaseUri",
					"inputs": [
						{
							"name": "baseUri",
							"type": "string",
							"indexed": false,
							"internalType": "string"
						},
						{
							"name": "caller",
							"type": "address",
							"indexed": false,
							"internalType": "address"
						}
					],
					"anonymous": false
				},
				{
					"type": "event",
					"name": "SetSvgContents",
					"inputs": [
						{
							"name": "tierId",
							"type": "uint256[]",
							"indexed": true,
							"internalType": "uint256[]"
						},
						{
							"name": "svgContents",
							"type": "string[]",
							"indexed": false,
							"internalType": "string[]"
						},
						{
							"name": "caller",
							"type": "address",
							"indexed": false,
							"internalType": "address"
						}
					],
					"anonymous": false
				},
				{
					"type": "event",
					"name": "SetSvgHashes",
					"inputs": [
						{
							"name": "tierIds",
							"type": "uint256[]",
							"indexed": true,
							"internalType": "uint256[]"
						},
						{
							"name": "svgHashs",
							"type": "bytes32[]",
							"indexed": true,
							"internalType": "bytes32[]"
						},
						{
							"name": "caller",
							"type": "address",
							"indexed": false,
							"internalType": "address"
						}
					],
					"anonymous": false
				},
				{
					"type": "event",
					"name": "SetTierNames",
					"inputs": [
						{
							"name": "tierIds",
							"type": "uint256[]",
							"indexed": true,
							"internalType": "uint256[]"
						},
						{
							"name": "names",
							"type": "string[]",
							"indexed": false,
							"internalType": "string[]"
						},
						{
							"name": "caller",
							"type": "address",
							"indexed": false,
							"internalType": "address"
						}
					],
					"anonymous": false
				},
				{
					"type": "error",
					"name": "ASSET_IS_ALREADY_BEING_WORN",
					"inputs": []
				},
				{
					"type": "error",
					"name": "CONTENTS_ALREADY_STORED",
					"inputs": []
				},
				{
					"type": "error",
					"name": "CONTENTS_MISMATCH",
					"inputs": []
				},
				{
					"type": "error",
					"name": "FACE_ALREADY_ADDED",
					"inputs": []
				},
				{
					"type": "error",
					"name": "HASH_ALREADY_STORED",
					"inputs": []
				},
				{
					"type": "error",
					"name": "HASH_NOT_FOUND",
					"inputs": []
				},
				{
					"type": "error",
					"name": "HEAD_ALREADY_ADDED",
					"inputs": []
				},
				{
					"type": "error",
					"name": "OwnableInvalidOwner",
					"inputs": [
						{
							"name": "owner",
							"type": "address",
							"internalType": "address"
						}
					]
				},
				{
					"type": "error",
					"name": "OwnableUnauthorizedAccount",
					"inputs": [
						{
							"name": "account",
							"type": "address",
							"internalType": "address"
						}
					]
				},
				{
					"type": "error",
					"name": "SUIT_ALREADY_ADDED",
					"inputs": []
				},
				{
					"type": "error",
					"name": "UNAUTHORIZED_NAKED_BANNY",
					"inputs": []
				},
				{
					"type": "error",
					"name": "UNAUTHORIZED_OUTFIT",
					"inputs": []
				},
				{
					"type": "error",
					"name": "UNAUTHORIZED_WORLD",
					"inputs": []
				},
				{
					"type": "error",
					"name": "UNORDERED_CATEGORIES",
					"inputs": []
				},
				{
					"type": "error",
					"name": "UNRECOGNIZED_CATEGORY",
					"inputs": []
				},
				{
					"type": "error",
					"name": "UNRECOGNIZED_OUTFIT",
					"inputs": []
				},
				{
					"type": "error",
					"name": "UNRECOGNIZED_TIER",
					"inputs": []
				},
				{
					"type": "error",
					"name": "UNRECOGNIZED_WORLD",
					"inputs": []
				}
			],
			"solcInputHash": "3f92798ff407eed363a208a037c8365b",
			"receipt": {
				"blockHash": "0x42390e52629b493a8ec0c747fbb0ce28d5d5840b74dc9b928758d0babe6dc948",
				"blockNumber": 5705878,
				"contractAddress": null,
				"cumulativeGasUsed": "20711724",
				"from": "0xC034550B542b83BA1De312b21d1C94a9a52B1595",
				"gasPrice": "500625822",
				"gasUsed": "11145857",
				"hash": "0xb0513247761e830b1992a385b06aee3d3d75ff55a69c10dd82b32b2a042c89ae",
				"index": 59,
				"logs": [
					{
						"address": "0xB5E96127D417b1B3ef8438496a38A143167209c7",
						"blockHash": "0x42390e52629b493a8ec0c747fbb0ce28d5d5840b74dc9b928758d0babe6dc948",
						"blockNumber": 5705878,
						"data": "0x0000000000000000000000000000000000000000000000000000000000000000",
						"index": 117,
						"topics": [
							"0x572f161235911da04685a68c06adf558fc7e4a36909dca394650e0adc19cc93d",
							"0x000000000000000000000000c034550b542b83ba1de312b21d1c94a9a52b1595",
							"0x000000000000000000000000183b35e76a7bc60298dcb637515f50e4def9b68b",
							"0x7ea1a248e5faeb6db5019e5a1ea602de09ad8d3b168ba325530237789d990eb2"
						],
						"transactionHash": "0xb0513247761e830b1992a385b06aee3d3d75ff55a69c10dd82b32b2a042c89ae",
						"transactionIndex": 59
					},
					{
						"address": "0xB31748bC3824f46aE71478c2d95d0BAeFcf6D29E",
						"blockHash": "0x42390e52629b493a8ec0c747fbb0ce28d5d5840b74dc9b928758d0babe6dc948",
						"blockNumber": 5705878,
						"data": "0x",
						"index": 118,
						"topics": [
							"0x8be0079c531659141344cd1fd0a4f28419497f9722a3daafe3b4186f6b6457e0",
							"0x0000000000000000000000000000000000000000000000000000000000000000",
							"0x000000000000000000000000584f5da53cb18789099466074e3b5c32ed17243a"
						],
						"transactionHash": "0xb0513247761e830b1992a385b06aee3d3d75ff55a69c10dd82b32b2a042c89ae",
						"transactionIndex": 59
					},
					{
						"address": "0x584F5Da53cb18789099466074e3B5c32Ed17243a",
						"blockHash": "0x42390e52629b493a8ec0c747fbb0ce28d5d5840b74dc9b928758d0babe6dc948",
						"blockNumber": 5705878,
						"data": "0x",
						"index": 119,
						"topics": [
							"0x6895c13664aa4f67288b25d7a21d7aaa34916e355fb9b6fae0a139a9085becb8",
							"0x000000000000000000000000183b35e76a7bc60298dcb637515f50e4def9b68b"
						],
						"transactionHash": "0xb0513247761e830b1992a385b06aee3d3d75ff55a69c10dd82b32b2a042c89ae",
						"transactionIndex": 59
					},
					{
						"address": "0x183b35E76A7BC60298DCb637515F50e4DeF9b68b",
						"blockHash": "0x42390e52629b493a8ec0c747fbb0ce28d5d5840b74dc9b928758d0babe6dc948",
						"blockNumber": 5705878,
						"data": "0x0000000000000000000000000000000000000000000000000000000000000001",
						"index": 120,
						"topics": [
							"0xa65fb05c5808f5f389d72edeaf719ce38f4cc55c1f69ca3cbfb31c21501caa07",
							"0xfe8ffb555449f1da6f33cda2fe57d7293671c56aece8cf1bf36d43b4e4949484"
						],
						"transactionHash": "0xb0513247761e830b1992a385b06aee3d3d75ff55a69c10dd82b32b2a042c89ae",
						"transactionIndex": 59
					},
					{
						"address": "0xfa679f5ecdd8bE404c1FbAa7f29aEB2b12F5B662",
						"blockHash": "0x42390e52629b493a8ec0c747fbb0ce28d5d5840b74dc9b928758d0babe6dc948",
						"blockNumber": 5705878,
						"data": "0x",
						"index": 121,
						"topics": [
							"0xddf252ad1be2c89b69c2b068fc378daa952ba7f163c4a11628f55a4df523b3ef",
							"0x0000000000000000000000000000000000000000000000000000000000000000",
							"0x000000000000000000000000584f5da53cb18789099466074e3b5c32ed17243a",
							"0x0000000000000000000000000000000000000000000000000000000000000003"
						],
						"transactionHash": "0xb0513247761e830b1992a385b06aee3d3d75ff55a69c10dd82b32b2a042c89ae",
						"transactionIndex": 59
					},
					{
						"address": "0xfa679f5ecdd8bE404c1FbAa7f29aEB2b12F5B662",
						"blockHash": "0x42390e52629b493a8ec0c747fbb0ce28d5d5840b74dc9b928758d0babe6dc948",
						"blockNumber": 5705878,
						"data": "0x000000000000000000000000584f5da53cb18789099466074e3b5c32ed17243a",
						"index": 122,
						"topics": [
							"0x365b3162cd780731fc55a794b59494d472bc2af701007f581843a70673814698",
							"0x0000000000000000000000000000000000000000000000000000000000000003",
							"0x000000000000000000000000584f5da53cb18789099466074e3b5c32ed17243a"
						],
						"transactionHash": "0xb0513247761e830b1992a385b06aee3d3d75ff55a69c10dd82b32b2a042c89ae",
						"transactionIndex": 59
					},
					{
						"address": "0x584F5Da53cb18789099466074e3B5c32Ed17243a",
						"blockHash": "0x42390e52629b493a8ec0c747fbb0ce28d5d5840b74dc9b928758d0babe6dc948",
						"blockNumber": 5705878,
						"data": "0x",
						"index": 123,
						"topics": [
							"0x6895c13664aa4f67288b25d7a21d7aaa34916e355fb9b6fae0a139a9085becb8",
							"0x000000000000000000000000183b35e76a7bc60298dcb637515f50e4def9b68b"
						],
						"transactionHash": "0xb0513247761e830b1992a385b06aee3d3d75ff55a69c10dd82b32b2a042c89ae",
						"transactionIndex": 59
					},
					{
						"address": "0x183b35E76A7BC60298DCb637515F50e4DeF9b68b",
						"blockHash": "0x42390e52629b493a8ec0c747fbb0ce28d5d5840b74dc9b928758d0babe6dc948",
						"blockNumber": 5705878,
						"data": "0x0000000000000000000000000000000000000000000000000000000000000002",
						"index": 124,
						"topics": [
							"0xa65fb05c5808f5f389d72edeaf719ce38f4cc55c1f69ca3cbfb31c21501caa07",
							"0xfe8ffb555449f1da6f33cda2fe57d7293671c56aece8cf1bf36d43b4e4949484"
						],
						"transactionHash": "0xb0513247761e830b1992a385b06aee3d3d75ff55a69c10dd82b32b2a042c89ae",
						"transactionIndex": 59
					},
					{
						"address": "0x711eda44F3D42F3d255846b5EE36Cf70Fd912E50",
						"blockHash": "0x42390e52629b493a8ec0c747fbb0ce28d5d5840b74dc9b928758d0babe6dc948",
						"blockNumber": 5705878,
						"data": "0x00000000000000000000000000000000000000000000000000000000000000600000000000000000000000000000000000000000000000000000000032020084000000000000000000000000584f5da53cb18789099466074e3b5c32ed17243a00000000000000000000000000000000000000000000000000000000000000060000000000000000000000000000000000000000000000000000000000000002000000000000000000000000000000000000000000000000000000000000000700000000000000000000000000000000000000000000000000000000000000190000000000000000000000000000000000000000000000000000000000000011000000000000000000000000000000000000000000000000000000000000001c000000000000000000000000000000000000000000000000000000000000001d",
						"index": 125,
						"topics": [
							"0xf8cdf10a0ce6189c6d069e97320ef146e2bcbd32d6c0b86dcbfbf3bd8578fa70",
							"0x00000000000000000000000022300cf0cc5f03c7c3db71b64529d2c8a9b93389",
							"0x000000000000000000000000584f5da53cb18789099466074e3b5c32ed17243a",
							"0x0000000000000000000000000000000000000000000000000000000000000003"
						],
						"transactionHash": "0xb0513247761e830b1992a385b06aee3d3d75ff55a69c10dd82b32b2a042c89ae",
						"transactionIndex": 59
					},
					{
						"address": "0x584F5Da53cb18789099466074e3B5c32Ed17243a",
						"blockHash": "0x42390e52629b493a8ec0c747fbb0ce28d5d5840b74dc9b928758d0babe6dc948",
						"blockNumber": 5705878,
						"data": "0x",
						"index": 126,
						"topics": [
							"0x6895c13664aa4f67288b25d7a21d7aaa34916e355fb9b6fae0a139a9085becb8",
							"0x000000000000000000000000183b35e76a7bc60298dcb637515f50e4def9b68b"
						],
						"transactionHash": "0xb0513247761e830b1992a385b06aee3d3d75ff55a69c10dd82b32b2a042c89ae",
						"transactionIndex": 59
					},
					{
						"address": "0x183b35E76A7BC60298DCb637515F50e4DeF9b68b",
						"blockHash": "0x42390e52629b493a8ec0c747fbb0ce28d5d5840b74dc9b928758d0babe6dc948",
						"blockNumber": 5705878,
						"data": "0x0000000000000000000000000000000000000000000000000000000000000003",
						"index": 127,
						"topics": [
							"0xa65fb05c5808f5f389d72edeaf719ce38f4cc55c1f69ca3cbfb31c21501caa07",
							"0xfe8ffb555449f1da6f33cda2fe57d7293671c56aece8cf1bf36d43b4e4949484"
						],
						"transactionHash": "0xb0513247761e830b1992a385b06aee3d3d75ff55a69c10dd82b32b2a042c89ae",
						"transactionIndex": 59
					},
					{
						"address": "0x711eda44F3D42F3d255846b5EE36Cf70Fd912E50",
						"blockHash": "0x42390e52629b493a8ec0c747fbb0ce28d5d5840b74dc9b928758d0babe6dc948",
						"blockNumber": 5705878,
						"data": "0x00000000000000000000000000000000000000000000000000000000000000600000000000000000000000000000000000000000000000000000000010000000000000000000000000000000584f5da53cb18789099466074e3b5c32ed17243a0000000000000000000000000000000000000000000000000000000000000001000000000000000000000000000000000000000000000000000000000000001c",
						"index": 128,
						"topics": [
							"0xf8cdf10a0ce6189c6d069e97320ef146e2bcbd32d6c0b86dcbfbf3bd8578fa70",
							"0x000000000000000000000000f4c9957e2e1fab09a8b48658f68b46e47b134724",
							"0x000000000000000000000000584f5da53cb18789099466074e3b5c32ed17243a",
							"0x0000000000000000000000000000000000000000000000000000000000000003"
						],
						"transactionHash": "0xb0513247761e830b1992a385b06aee3d3d75ff55a69c10dd82b32b2a042c89ae",
						"transactionIndex": 59
					},
					{
						"address": "0x584F5Da53cb18789099466074e3B5c32Ed17243a",
						"blockHash": "0x42390e52629b493a8ec0c747fbb0ce28d5d5840b74dc9b928758d0babe6dc948",
						"blockNumber": 5705878,
						"data": "0x",
						"index": 129,
						"topics": [
							"0x6895c13664aa4f67288b25d7a21d7aaa34916e355fb9b6fae0a139a9085becb8",
							"0x000000000000000000000000183b35e76a7bc60298dcb637515f50e4def9b68b"
						],
						"transactionHash": "0xb0513247761e830b1992a385b06aee3d3d75ff55a69c10dd82b32b2a042c89ae",
						"transactionIndex": 59
					},
					{
						"address": "0x183b35E76A7BC60298DCb637515F50e4DeF9b68b",
						"blockHash": "0x42390e52629b493a8ec0c747fbb0ce28d5d5840b74dc9b928758d0babe6dc948",
						"blockNumber": 5705878,
						"data": "0x0000000000000000000000000000000000000000000000000000000000000004",
						"index": 130,
						"topics": [
							"0xa65fb05c5808f5f389d72edeaf719ce38f4cc55c1f69ca3cbfb31c21501caa07",
							"0xfe8ffb555449f1da6f33cda2fe57d7293671c56aece8cf1bf36d43b4e4949484"
						],
						"transactionHash": "0xb0513247761e830b1992a385b06aee3d3d75ff55a69c10dd82b32b2a042c89ae",
						"transactionIndex": 59
					},
					{
						"address": "0x718195f0134B7490b09A0B8CE4377255a98B9928",
						"blockHash": "0x42390e52629b493a8ec0c747fbb0ce28d5d5840b74dc9b928758d0babe6dc948",
						"blockNumber": 5705878,
						"data": "0x",
						"index": 131,
						"topics": [
							"0x8be0079c531659141344cd1fd0a4f28419497f9722a3daafe3b4186f6b6457e0",
							"0x0000000000000000000000000000000000000000000000000000000000000000",
							"0x0000000000000000000000000f9a3e14f7fb9ac89ce32d50a2eade21ffeb97f3"
						],
						"transactionHash": "0xb0513247761e830b1992a385b06aee3d3d75ff55a69c10dd82b32b2a042c89ae",
						"transactionIndex": 59
					},
					{
						"address": "0x718195f0134B7490b09A0B8CE4377255a98B9928",
						"blockHash": "0x42390e52629b493a8ec0c747fbb0ce28d5d5840b74dc9b928758d0babe6dc948",
						"blockNumber": 5705878,
						"data": "0x",
						"index": 132,
						"topics": [
							"0x8be0079c531659141344cd1fd0a4f28419497f9722a3daafe3b4186f6b6457e0",
							"0x0000000000000000000000000f9a3e14f7fb9ac89ce32d50a2eade21ffeb97f3",
							"0x00000000000000000000000022300cf0cc5f03c7c3db71b64529d2c8a9b93389"
						],
						"transactionHash": "0xb0513247761e830b1992a385b06aee3d3d75ff55a69c10dd82b32b2a042c89ae",
						"transactionIndex": 59
					},
					{
						"address": "0x989566Bf9fF4CffA55a98ADa7dc3E58b2a0a19c6",
						"blockHash": "0x42390e52629b493a8ec0c747fbb0ce28d5d5840b74dc9b928758d0babe6dc948",
						"blockNumber": 5705878,
						"data": "0x",
						"index": 133,
						"topics": [
							"0x72b627b4904fa8a0160a923aa5b142eb19f6e56dc75017884162206f8886df09",
							"0x000000000000000000000000718195f0134b7490b09a0b8ce4377255a98b9928",
							"0x0000000000000000000000000f9a3e14f7fb9ac89ce32d50a2eade21ffeb97f3"
						],
						"transactionHash": "0xb0513247761e830b1992a385b06aee3d3d75ff55a69c10dd82b32b2a042c89ae",
						"transactionIndex": 59
					},
					{
						"address": "0x0f9A3E14f7fB9aC89Ce32D50a2eAdE21ffeb97F3",
						"blockHash": "0x42390e52629b493a8ec0c747fbb0ce28d5d5840b74dc9b928758d0babe6dc948",
						"blockNumber": 5705878,
						"data": "0x000000000000000000000000718195f0134b7490b09a0b8ce4377255a98b9928",
						"index": 134,
						"topics": [
							"0xa42f6bb68e81f4650a7966f109d861f6c3d2a477e608e30807f568bed1cebdb9",
							"0x0000000000000000000000000000000000000000000000000000000000000003"
						],
						"transactionHash": "0xb0513247761e830b1992a385b06aee3d3d75ff55a69c10dd82b32b2a042c89ae",
						"transactionIndex": 59
					},
					{
						"address": "0x44d360C8c4105f180e07668bd3374c7A6F812FAF",
						"blockHash": "0x42390e52629b493a8ec0c747fbb0ce28d5d5840b74dc9b928758d0babe6dc948",
						"blockNumber": 5705878,
						"data": "0x00000000000000000000000075295c69178f42cfe9cf710f307891d6ce471920",
						"index": 135,
						"topics": [
							"0x7f9a7dcb234c909a09de2f344661ad9e5b24067adb97c908647c2edcbb121c30",
							"0x0000000000000000000000000000000000000000000000000000000000000003",
							"0x00000000000000000000000075295c69178f42cfe9cf710f307891d6ce471920"
						],
						"transactionHash": "0xb0513247761e830b1992a385b06aee3d3d75ff55a69c10dd82b32b2a042c89ae",
						"transactionIndex": 59
					},
					{
						"address": "0x9C10f158D2ceCDFB5AADD5da40ABbF2c574e4323",
						"blockHash": "0x42390e52629b493a8ec0c747fbb0ce28d5d5840b74dc9b928758d0babe6dc948",
						"blockNumber": 5705878,
						"data": "0x",
						"index": 136,
						"topics": [
							"0xfda207e5d149787155cf9596283f246f082d4744a57e37dda99146e5dcc542bb",
							"0x00000000000000000000000000000000000000000000000000000000661d8e18",
							"0x0000000000000000000000000000000000000000000000000000000000000003",
							"0x0000000000000000000000000000000000000000000000000000000000000000"
						],
						"transactionHash": "0xb0513247761e830b1992a385b06aee3d3d75ff55a69c10dd82b32b2a042c89ae",
						"transactionIndex": 59
					},
					{
						"address": "0x9C10f158D2ceCDFB5AADD5da40ABbF2c574e4323",
						"blockHash": "0x42390e52629b493a8ec0c747fbb0ce28d5d5840b74dc9b928758d0babe6dc948",
						"blockNumber": 5705878,
						"data": "0x000000000000000000000000000000000000000000000000000000000001518000000000000000000000000000000000000000000000d3c21bcecceda10000000000000000000000000000000000000000000000000000000000000002faf0800000000000000000000000000000000000000000000000000000000000000000000011180678662f81e3e1edb8db2294e96454dc99c4a040000eeee1f40138810000000000000000000000000000000000000000000000000000000065f9e31900000000000000000000000075295c69178f42cfe9cf710f307891d6ce471920",
						"index": 137,
						"topics": [
							"0x11a490bebff1beffe4bdd210894aca6ea5049427ce4b3c48865717677199cb07",
							"0x00000000000000000000000000000000000000000000000000000000661d8e18",
							"0x0000000000000000000000000000000000000000000000000000000000000003"
						],
						"transactionHash": "0xb0513247761e830b1992a385b06aee3d3d75ff55a69c10dd82b32b2a042c89ae",
						"transactionIndex": 59
					},
					{
						"address": "0x9C10f158D2ceCDFB5AADD5da40ABbF2c574e4323",
						"blockHash": "0x42390e52629b493a8ec0c747fbb0ce28d5d5840b74dc9b928758d0babe6dc948",
						"blockNumber": 5705878,
						"data": "0x",
						"index": 138,
						"topics": [
							"0xfda207e5d149787155cf9596283f246f082d4744a57e37dda99146e5dcc542bb",
							"0x00000000000000000000000000000000000000000000000000000000661d8e19",
							"0x0000000000000000000000000000000000000000000000000000000000000003",
							"0x00000000000000000000000000000000000000000000000000000000661d8e18"
						],
						"transactionHash": "0xb0513247761e830b1992a385b06aee3d3d75ff55a69c10dd82b32b2a042c89ae",
						"transactionIndex": 59
					},
					{
						"address": "0x9C10f158D2ceCDFB5AADD5da40ABbF2c574e4323",
						"blockHash": "0x42390e52629b493a8ec0c747fbb0ce28d5d5840b74dc9b928758d0babe6dc948",
						"blockNumber": 5705878,
						"data": "0x0000000000000000000000000000000000000000000000000000000000093a8000000000000000000000000000000000000000000000152d02c7e14af680000000000000000000000000000000000000000000000000000000000000000096800000000000000000000000000000000000000000000000000000000000000000000011180678662f81e3e1edb8db2294e96454dc99c4a040000eeee13881388100000000000000000000000000000000000000000000000000000000661ecd1900000000000000000000000075295c69178f42cfe9cf710f307891d6ce471920",
						"index": 139,
						"topics": [
							"0x11a490bebff1beffe4bdd210894aca6ea5049427ce4b3c48865717677199cb07",
							"0x00000000000000000000000000000000000000000000000000000000661d8e19",
							"0x0000000000000000000000000000000000000000000000000000000000000003"
						],
						"transactionHash": "0xb0513247761e830b1992a385b06aee3d3d75ff55a69c10dd82b32b2a042c89ae",
						"transactionIndex": 59
					},
					{
						"address": "0xAA62Cfe29251Db6774ECc77860b3c25dA3bcDc79",
						"blockHash": "0x42390e52629b493a8ec0c747fbb0ce28d5d5840b74dc9b928758d0babe6dc948",
						"blockNumber": 5705878,
						"data": "0x000000000000000000000000000000000000000000000000000000000000eeee0000000000000000000000000000000000000000000000000000000000000012000000000000000000000000000000000000000000000000000000000000eeee00000000000000000000000075295c69178f42cfe9cf710f307891d6ce471920",
						"index": 140,
						"topics": [
							"0x9570de6fc0456f642bd0a001b24cd31676388c24596df64a17190c24310690a1",
							"0x0000000000000000000000000000000000000000000000000000000000000003",
							"0x000000000000000000000000000000000000000000000000000000000000eeee"
						],
						"transactionHash": "0xb0513247761e830b1992a385b06aee3d3d75ff55a69c10dd82b32b2a042c89ae",
						"transactionIndex": 59
					},
					{
						"address": "0x44d360C8c4105f180e07668bd3374c7A6F812FAF",
						"blockHash": "0x42390e52629b493a8ec0c747fbb0ce28d5d5840b74dc9b928758d0babe6dc948",
						"blockNumber": 5705878,
						"data": "0x000000000000000000000000000000000000000000000000000000000000004000000000000000000000000075295c69178f42cfe9cf710f307891d6ce4719200000000000000000000000000000000000000000000000000000000000000001000000000000000000000000aa62cfe29251db6774ecc77860b3c25da3bcdc79",
						"index": 141,
						"topics": [
							"0xb648241d83df6540fc10f2acc641e4bf80a1e84e7ae2f1f6b0ad204b8fee635b",
							"0x0000000000000000000000000000000000000000000000000000000000000003"
						],
						"transactionHash": "0xb0513247761e830b1992a385b06aee3d3d75ff55a69c10dd82b32b2a042c89ae",
						"transactionIndex": 59
					},
					{
						"address": "0x75295C69178F42cfe9Cf710f307891D6cE471920",
						"blockHash": "0x42390e52629b493a8ec0c747fbb0ce28d5d5840b74dc9b928758d0babe6dc948",
						"blockNumber": 5705878,
						"data": "0x00000000000000000000000000000000000000000000000000000000661d8e190000000000000000000000000000000000000000000000000000000000000003000000000000000000000000000000000000000000000000000000000000008000000000000000000000000022300cf0cc5f03c7c3db71b64529d2c8a9b9338900000000000000000000000000000000000000000000000000000000000000162442414e4e59207265766e6574206465706c6f79656400000000000000000000",
						"index": 142,
						"topics": [
							"0x23164adda696b19106c2eef50ba44461997682bf5aeb9fdb383117fa9952cc75"
						],
						"transactionHash": "0xb0513247761e830b1992a385b06aee3d3d75ff55a69c10dd82b32b2a042c89ae",
						"transactionIndex": 59
					},
					{
						"address": "0x4Cc945D4Ec9178F4140935C81F5999F780dB9702",
						"blockHash": "0x42390e52629b493a8ec0c747fbb0ce28d5d5840b74dc9b928758d0babe6dc948",
						"blockNumber": 5705878,
						"data": "0x",
						"index": 143,
						"topics": [
							"0x8be0079c531659141344cd1fd0a4f28419497f9722a3daafe3b4186f6b6457e0",
							"0x0000000000000000000000000000000000000000000000000000000000000000",
							"0x000000000000000000000000ee922d1cb6551d45e2d9b197ec423fb8c3c85d50"
						],
						"transactionHash": "0xb0513247761e830b1992a385b06aee3d3d75ff55a69c10dd82b32b2a042c89ae",
						"transactionIndex": 59
					},
					{
						"address": "0xee922D1cb6551D45E2d9B197EC423Fb8C3C85d50",
						"blockHash": "0x42390e52629b493a8ec0c747fbb0ce28d5d5840b74dc9b928758d0babe6dc948",
						"blockNumber": 5705878,
						"data": "0x000000000000000000000000000000000000000000000000000000000000008000000000000000000000000000000000000000000000000000000000000000c04674e87ee942c8535817d1839b7f1360a1280d6159ff398f5f380758517510a300000000000000000000000075295c69178f42cfe9cf710f307891d6ce471920000000000000000000000000000000000000000000000000000000000000000a42616e6e79766572736500000000000000000000000000000000000000000000000000000000000000000000000000000000000000000000000000000000000542414e4e59000000000000000000000000000000000000000000000000000000",
						"index": 144,
						"topics": [
							"0xb4510654a5884cae50948507300dc482833ed1446cef375e064bef00b6b4ba4e",
							"0x0000000000000000000000000000000000000000000000000000000000000003",
							"0x0000000000000000000000004cc945d4ec9178f4140935c81f5999f780db9702"
						],
						"transactionHash": "0xb0513247761e830b1992a385b06aee3d3d75ff55a69c10dd82b32b2a042c89ae",
						"transactionIndex": 59
					},
					{
						"address": "0x1D6cE46C730B46930f17cc09FbCEdfC08d7454cc",
						"blockHash": "0x42390e52629b493a8ec0c747fbb0ce28d5d5840b74dc9b928758d0babe6dc948",
						"blockNumber": 5705878,
						"data": "0x0000000000000000000000000000000000000000000000000000000000000000000000000000000000000000000000000000000000000000000000000002a30000000000000000000000000022300cf0cc5f03c7c3db71b64529d2c8a9b93389",
						"index": 145,
						"topics": [
							"0xa8d6b20cd05f07d50e9855ce0fc6de3517f3df2e890a5ec6357892b3808a53ce",
							"0x0000000000000000000000000000000000000000000000000000000000000003"
						],
						"transactionHash": "0xb0513247761e830b1992a385b06aee3d3d75ff55a69c10dd82b32b2a042c89ae",
						"transactionIndex": 59
					},
					{
						"address": "0x1D6cE46C730B46930f17cc09FbCEdfC08d7454cc",
						"blockHash": "0x42390e52629b493a8ec0c747fbb0ce28d5d5840b74dc9b928758d0babe6dc948",
						"blockNumber": 5705878,
						"data": "0x0000000000000000000000000000000000000000000000000000000000000000000000000000000000000000000000000000000000000000000000000000232800000000000000000000000022300cf0cc5f03c7c3db71b64529d2c8a9b93389",
						"index": 146,
						"topics": [
							"0xaafe2470cbfb11a09f9b45d6a795226e93cc251e30fdcabddbabb157a1db5353",
							"0x0000000000000000000000000000000000000000000000000000000000000003"
						],
						"transactionHash": "0xb0513247761e830b1992a385b06aee3d3d75ff55a69c10dd82b32b2a042c89ae",
						"transactionIndex": 59
					},
					{
						"address": "0x1D6cE46C730B46930f17cc09FbCEdfC08d7454cc",
						"blockHash": "0x42390e52629b493a8ec0c747fbb0ce28d5d5840b74dc9b928758d0babe6dc948",
						"blockNumber": 5705878,
						"data": "0x000000000000000000000000813ca340f847c4ff28b5353964dc64ae912cdf8000000000000000000000000022300cf0cc5f03c7c3db71b64529d2c8a9b93389",
						"index": 147,
						"topics": [
							"0xe694de883385e30d535f625d68df4b2b5e866e8e86fe9d15554480c8d1812e60",
							"0x0000000000000000000000000000000000000000000000000000000000000003",
							"0x0000000000000000000000007b79995e5f793a07bc00c21412e50ecae098e7f9"
						],
						"transactionHash": "0xb0513247761e830b1992a385b06aee3d3d75ff55a69c10dd82b32b2a042c89ae",
						"transactionIndex": 59
					},
					{
						"address": "0x26cB60fC2323d1A4309F35497e5A881fE1F3D2AC",
						"blockHash": "0x42390e52629b493a8ec0c747fbb0ce28d5d5840b74dc9b928758d0babe6dc948",
						"blockNumber": 5705878,
						"data": "0x0000000000000000000000000000000000000000000000000000000000000000000000000000000000000000000000000000000000000000000000003b9aca000000000000000000000000000000000000000000000000000000000000000000000000000000000000000000584f5da53cb18789099466074e3b5c32ed17243a0000000000000000000000000000000000000000000000000000000000000000000000000000000000000000000000000000000000000000000000000000000000000000000000000000000075295c69178f42cfe9cf710f307891d6ce471920",
						"index": 148,
						"topics": [
							"0x0d7ea8ac1cb69dfa18ce2b18e90d31b4d4a0370aacadf7db42d42930a09b3f01",
							"0x0000000000000000000000000000000000000000000000000000000000000003",
							"0x0000000000000000000000000000000000000000000000000000000000000000",
							"0x0000000000000000000000000000000000000000000000000000000000000001"
						],
						"transactionHash": "0xb0513247761e830b1992a385b06aee3d3d75ff55a69c10dd82b32b2a042c89ae",
						"transactionIndex": 59
					},
					{
						"address": "0x711eda44F3D42F3d255846b5EE36Cf70Fd912E50",
						"blockHash": "0x42390e52629b493a8ec0c747fbb0ce28d5d5840b74dc9b928758d0babe6dc948",
						"blockNumber": 5705878,
						"data": "0x00000000000000000000000000000000000000000000000000000000000000600000000000000000000000000000000000000000000000000000000002e2004000000000000000000000000022300cf0cc5f03c7c3db71b64529d2c8a9b933890000000000000000000000000000000000000000000000000000000000000006000000000000000000000000000000000000000000000000000000000000001100000000000000000000000000000000000000000000000000000000000000190000000000000000000000000000000000000000000000000000000000000006000000000000000000000000000000000000000000000000000000000000001500000000000000000000000000000000000000000000000000000000000000160000000000000000000000000000000000000000000000000000000000000017",
						"index": 149,
						"topics": [
							"0xf8cdf10a0ce6189c6d069e97320ef146e2bcbd32d6c0b86dcbfbf3bd8578fa70",
							"0x000000000000000000000000584f5da53cb18789099466074e3b5c32ed17243a",
							"0x00000000000000000000000022300cf0cc5f03c7c3db71b64529d2c8a9b93389",
							"0x0000000000000000000000000000000000000000000000000000000000000003"
						],
						"transactionHash": "0xb0513247761e830b1992a385b06aee3d3d75ff55a69c10dd82b32b2a042c89ae",
						"transactionIndex": 59
					},
					{
						"address": "0x711eda44F3D42F3d255846b5EE36Cf70Fd912E50",
						"blockHash": "0x42390e52629b493a8ec0c747fbb0ce28d5d5840b74dc9b928758d0babe6dc948",
						"blockNumber": 5705878,
						"data": "0x0000000000000000000000000000000000000000000000000000000000000060000000000000000000000000000000000000000000000000000000001000000000000000000000000000000022300cf0cc5f03c7c3db71b64529d2c8a9b933890000000000000000000000000000000000000000000000000000000000000001000000000000000000000000000000000000000000000000000000000000001c",
						"index": 150,
						"topics": [
							"0xf8cdf10a0ce6189c6d069e97320ef146e2bcbd32d6c0b86dcbfbf3bd8578fa70",
							"0x000000000000000000000000f4c9957e2e1fab09a8b48658f68b46e47b134724",
							"0x00000000000000000000000022300cf0cc5f03c7c3db71b64529d2c8a9b93389",
							"0x0000000000000000000000000000000000000000000000000000000000000003"
						],
						"transactionHash": "0xb0513247761e830b1992a385b06aee3d3d75ff55a69c10dd82b32b2a042c89ae",
						"transactionIndex": 59
					},
					{
						"address": "0x22300Cf0Cc5F03C7c3Db71b64529D2C8A9b93389",
						"blockHash": "0x42390e52629b493a8ec0c747fbb0ce28d5d5840b74dc9b928758d0babe6dc948",
						"blockNumber": 5705878,
						"data": "0x000000000000000000000000000000000000000000000000000000000000010000000000000000000000000000000000000000000000000000000000000004800000000000000000000000000000000000000000000000000000000000000540000000000000000000000000000000000000000000000000000000000000062000000000000000000000000000000000000000000000000000000000000007800000000000000000000000000000000000000000000000000000000000000e200000000000000000000000000000000000000000000000000000000000000001000000000000000000000000584f5da53cb18789099466074e3b5c32ed17243a00000000000000000000000000000000000000000000000000000000000000c0000000000000000000000000000000000000000000000000000000000000eeee000000000000000000000000000000000000000000422ca8b0a00a42500000000000000000000000000000000000000000000000000000000000000000000001000000000000000000000000584f5da53cb18789099466074e3b5c32ed17243a00000000000000000000000000000000000000000000000000000000000001e0000000000000000000000000000000000000000000000000000000000000008000000000000000000000000000000000000000000000000000000000000000c0000000000000000000000000000000000000000000000000000000000000010042414e4e59564552534500000000000000000000000000000000000000000000000000000000000000000000000000000000000000000000000000000000000a42616e6e79766572736500000000000000000000000000000000000000000000000000000000000000000000000000000000000000000000000000000000000542414e4e59000000000000000000000000000000000000000000000000000000000000000000000000000000000000000000000000000000000000000000000000000000000000000000000000000000000000000000000000000000000000020000000000000000000000000000000000000000000000000000000065f9e319000000000000000000000000000000000000000000000000000000000000138800000000000000000000000000000000000000000000d3c21bcecceda100000000000000000000000000000000000000000000000000000000000000000151800000000000000000000000000000000000000000000000000000000002faf08000000000000000000000000000000000000000000000000000000000000007d000000000000000000000000000000000000000000000000000000000661ecd19000000000000000000000000000000000000000000000000000000000000138800000000000000000000000000000000000000000000152d02c7e14af68000000000000000000000000000000000000000000000000000000000000000093a800000000000000000000000000000000000000000000000000000000000009680000000000000000000000000000000000000000000000000000000000000138800000000000000000000000000000000000000000000000000000000000000010000000000000000000000000000000000000000000000000000000000000020000000000000000000000000aa62cfe29251db6774ecc77860b3c25da3bcdc7900000000000000000000000000000000000000000000000000000000000000400000000000000000000000000000000000000000000000000000000000000001000000000000000000000000000000000000000000000000000000000000eeee0000000000000000000000001d6ce46c730b46930f17cc09fbcedfc08d7454cc00000000000000000000000000000000000000000000000000000000000000400000000000000000000000000000000000000000000000000000000000000001000000000000000000000000000000000000000000000000000000000000eeee0000000000000000000000000000000000000000000000000000000000002710000000000000000000000000000000000000000000000000000000000002a3000000000000000000000000000000000000000000000000000000000000002328000000000000000000000000000000000000000000000000000000000000004042414e4e5956455253450000000000000000000000000000000000000000000000000000000000000000000000000000000000000000000000000000000000010000000000000000000000000000000000000000000000000000000000000020000000000000000000000000024d04722a8fd6b98668c64e56b3f47357fa86a400000000000000000000000000000000000000000000000000000000000000400000000000000000000000000000000000000000000000000000000000000001000000000000000000000000000000000000000000000000000000000000eeee0000000000000000000000000000000000000000000000000000000000030d40000000000000000000000000000000000000000000000000000000000000eeee000000000000000000000000000000000000000000000000002386f26fc100000000000000000000000000000000000000000000000000000000000000000002000000000000000000000000000000000000000000000000000000000000004000000000000000000000000000000000000000000000000000000000000003600000000000000000000000000000000000000000000000000000000065f9e319000000000000000000000000000000000000000000000000000000000001518000000000000000000000000000000000000000000000d3c21bcecceda10000000000000000000000000000000000000000000000000000000000000002faf080000000000000000000000000000000000000000000000000000000000000000000000000000000000000000000000000000000000000000000000000000013880000000000000000000000000000000000000000000000000000000000001f40000000000000000000000000000000000000000000000000000000000000eeee0000000000000000000000000000000000000000000000000000000000000000000000000000000000000000000000000000000000000000000000000000000000000000000000000000000000000000000000000000000000000000000000010000000000000000000000000000000000000000000000000000000000000000000000000000000000000000000000000000000000000000000000000000000000000000000000000000000000000000000000000000000000000000000000000000000000000000000000000000000000000000000000000000000000000000000000000000000000000000000000000000000000000000000000000000000000000000000000000000000000000000000000000000000000000000000000000000000000000000000000000000000000000000000000000000000000000001000000000000000000000000000000000000000000000000000000000000000000000000000000000000000022300cf0cc5f03c7c3db71b64529d2c8a9b93389000000000000000000000000000000000000000000000000000000000000000000000000000000000000000000000000000000000000000000000000000002e000000000000000000000000000000000000000000000000000000000000003000000000000000000000000000000000000000000000000000000000000000000000000000000000000000000000000000000000000000000000000000000000000000000000000000000000000000000000000000000000000000000661ecd190000000000000000000000000000000000000000000000000000000000093a8000000000000000000000000000000000000000000000152d02c7e14af68000000000000000000000000000000000000000000000000000000000000000009680000000000000000000000000000000000000000000000000000000000000000000000000000000000000000000000000000000000000000000000000000013880000000000000000000000000000000000000000000000000000000000001388000000000000000000000000000000000000000000000000000000000000eeee0000000000000000000000000000000000000000000000000000000000000000000000000000000000000000000000000000000000000000000000000000000000000000000000000000000000000000000000000000000000000000000000010000000000000000000000000000000000000000000000000000000000000000000000000000000000000000000000000000000000000000000000000000000000000000000000000000000000000000000000000000000000000000000000000000000000000000000000000000000000000000000000000000000000000000000000000000000000000000000000000000000000000000000000000000000000000000000000000000000000000000000000000000000000000000000000000000000000000000000000000000000000000000000000000000000000000001000000000000000000000000000000000000000000000000000000000000000000000000000000000000000022300cf0cc5f03c7c3db71b64529d2c8a9b93389000000000000000000000000000000000000000000000000000000000000000000000000000000000000000000000000000000000000000000000000000002e000000000000000000000000000000000000000000000000000000000000003000000000000000000000000000000000000000000000000000000000000000000000000000000000000000000000000000000000000000000000000000000000000000000000000000000000000000000000000000000000000000000000002a0000000000000000000000000000000000000000000000000000000000000eeee000000000000000000000000000000000000000000000000000000000000000100000000000000000000000000000000000000000000000000000000000000a000000000000000000000000000000000000000000000000000000000000000e042414e4e59564552534500000000000000000000000000000000000000000000000000000000000000000000000000000000000000000000000000000000000a42616e6e79766572736500000000000000000000000000000000000000000000000000000000000000000000000000000000000000000000000000000000000542414e4e590000000000000000000000000000000000000000000000000000000000000000000000000000000000000000000000000000000000000065f9e319000000000000000000000000000000000000000000000000000000000000138800000000000000000000000000000000000000000000d3c21bcecceda100000000000000000000000000000000000000000000000000000000000000000151800000000000000000000000000000000000000000000000000000000002faf08000000000000000000000000000000000000000000000000000000000000007d000000000000000000000000000000000000000000000000000000000661ecd19000000000000000000000000000000000000000000000000000000000000138800000000000000000000000000000000000000000000152d02c7e14af68000000000000000000000000000000000000000000000000000000000000000093a8000000000000000000000000000000000000000000000000000000000000096800000000000000000000000000000000000000000000000000000000000001388",
						"index": 151,
						"topics": [
							"0x4b827371715024f69a0bc98c8df6edafe6e471e78488ab1b3849de72f66b12e0",
							"0x0000000000000000000000000000000000000000000000000000000000000003"
						],
						"transactionHash": "0xb0513247761e830b1992a385b06aee3d3d75ff55a69c10dd82b32b2a042c89ae",
						"transactionIndex": 59
					},
					{
						"address": "0x22300Cf0Cc5F03C7c3Db71b64529D2C8A9b93389",
						"blockHash": "0x42390e52629b493a8ec0c747fbb0ce28d5d5840b74dc9b928758d0babe6dc948",
						"blockNumber": 5705878,
						"data": "0x0000000000000000000000000000000000000000000000000000000000000040000000000000000000000000584f5da53cb18789099466074e3b5c32ed17243a00000000000000000000000000000000000000000000000000000000000000010000000000000000000000000000000000000000000000000000000000000020000000000000000000000000718195f0134b7490b09a0b8ce4377255a98b9928000000000000000000000000000000000000000000000000000000000000000000000000000000000000000000000000000000000000000000000000000000600000000000000000000000000000000000000000000000000000000000000000",
						"index": 152,
						"topics": [
							"0xdfaf2737f25eace49d372b472ec03f1df0f9814dfc69d2b95c5e92a041f42e29",
							"0x0000000000000000000000000000000000000000000000000000000000000003"
						],
						"transactionHash": "0xb0513247761e830b1992a385b06aee3d3d75ff55a69c10dd82b32b2a042c89ae",
						"transactionIndex": 59
					},
					{
						"address": "0xC3644756f243Ad1BDE2b4a65061Fc929803f72CA",
						"blockHash": "0x42390e52629b493a8ec0c747fbb0ce28d5d5840b74dc9b928758d0babe6dc948",
						"blockNumber": 5705878,
						"data": "0x000000000000000000000000000000000000000000000000000000000000004000000000000000000000000022300cf0cc5f03c7c3db71b64529d2c8a9b9338900000000000000000000000000000000000000000000000000000000000000040000000000000000000000000000000000000000000000000000000000000080000000000000000000000000000000000000000000000000000000000000016000000000000000000000000000000000000000000000000000000000000002400000000000000000000000000000000000000000000000000000000000000320000000000000000000000000718195f0134b7490b09a0b8ce4377255a98b9928000000000000000000000000000000000000000000000000000000000000006400000000000000000000000000000000000000000000000000038d7ea4c680000000000000000000000000000000000000000000000000000000000000002710000000000000000000000000000000000000000000000000000000003b9ac9ff00000000000000000000000000000000000000000000000000000000000000c00000000000000000000000000000000000000000000000000000000000000000000000000000000000000000718195f0134b7490b09a0b8ce4377255a98b99280000000000000000000000000000000000000000000000000000000000000065000000000000000000000000000000000000000000000000016345785d8a00000000000000000000000000000000000000000000000000000000000000000064000000000000000000000000000000000000000000000000000000003b9ac9ff00000000000000000000000000000000000000000000000000000000000000c00000000000000000000000000000000000000000000000000000000000000000000000000000000000000000718195f0134b7490b09a0b8ce4377255a98b992800000000000000000000000000000000000000000000000000000000000000660000000000000000000000000000000000000000000000000de0b6b3a7640000000000000000000000000000000000000000000000000000000000000000000a000000000000000000000000000000000000000000000000000000003b9ac9ff00000000000000000000000000000000000000000000000000000000000000c00000000000000000000000000000000000000000000000000000000000000000000000000000000000000000718195f0134b7490b09a0b8ce4377255a98b992800000000000000000000000000000000000000000000000000000000000000670000000000000000000000000000000000000000000000056bc75e2d63100000000000000000000000000000000000000000000000000000000000000000000a000000000000000000000000000000000000000000000000000000003b9ac9ff00000000000000000000000000000000000000000000000000000000000000c00000000000000000000000000000000000000000000000000000000000000000",
						"index": 153,
						"topics": [
							"0x721f1fc2dbea25cab88bdd50f9b47aff50f4b8c43ea6ea02b3587c82b940ad41",
							"0x0000000000000000000000000000000000000000000000000000000000000003"
						],
						"transactionHash": "0xb0513247761e830b1992a385b06aee3d3d75ff55a69c10dd82b32b2a042c89ae",
						"transactionIndex": 59
					},
					{
						"address": "0x711eda44F3D42F3d255846b5EE36Cf70Fd912E50",
						"blockHash": "0x42390e52629b493a8ec0c747fbb0ce28d5d5840b74dc9b928758d0babe6dc948",
						"blockNumber": 5705878,
						"data": "0x0000000000000000000000000000000000000000000000000000000000000060000000000000000000000000000000000000000000000000000000000020000000000000000000000000000022300cf0cc5f03c7c3db71b64529d2c8a9b9338900000000000000000000000000000000000000000000000000000000000000010000000000000000000000000000000000000000000000000000000000000015",
						"index": 154,
						"topics": [
							"0xf8cdf10a0ce6189c6d069e97320ef146e2bcbd32d6c0b86dcbfbf3bd8578fa70",
							"0x000000000000000000000000c3644756f243ad1bde2b4a65061fc929803f72ca",
							"0x00000000000000000000000022300cf0cc5f03c7c3db71b64529d2c8a9b93389",
							"0x0000000000000000000000000000000000000000000000000000000000000003"
						],
						"transactionHash": "0xb0513247761e830b1992a385b06aee3d3d75ff55a69c10dd82b32b2a042c89ae",
						"transactionIndex": 59
					},
					{
						"address": "0x584F5Da53cb18789099466074e3B5c32Ed17243a",
						"blockHash": "0x42390e52629b493a8ec0c747fbb0ce28d5d5840b74dc9b928758d0babe6dc948",
						"blockNumber": 5705878,
						"data": "0x",
						"index": 155,
						"topics": [
							"0x6895c13664aa4f67288b25d7a21d7aaa34916e355fb9b6fae0a139a9085becb8",
							"0x000000000000000000000000183b35e76a7bc60298dcb637515f50e4def9b68b"
						],
						"transactionHash": "0xb0513247761e830b1992a385b06aee3d3d75ff55a69c10dd82b32b2a042c89ae",
						"transactionIndex": 59
					},
					{
						"address": "0x183b35E76A7BC60298DCb637515F50e4DeF9b68b",
						"blockHash": "0x42390e52629b493a8ec0c747fbb0ce28d5d5840b74dc9b928758d0babe6dc948",
						"blockNumber": 5705878,
						"data": "0x0000000000000000000000000000000000000000000000000000000000000005",
						"index": 156,
						"topics": [
							"0xa65fb05c5808f5f389d72edeaf719ce38f4cc55c1f69ca3cbfb31c21501caa07",
							"0xfe8ffb555449f1da6f33cda2fe57d7293671c56aece8cf1bf36d43b4e4949484"
						],
						"transactionHash": "0xb0513247761e830b1992a385b06aee3d3d75ff55a69c10dd82b32b2a042c89ae",
						"transactionIndex": 59
					},
					{
						"address": "0xfa679f5ecdd8bE404c1FbAa7f29aEB2b12F5B662",
						"blockHash": "0x42390e52629b493a8ec0c747fbb0ce28d5d5840b74dc9b928758d0babe6dc948",
						"blockNumber": 5705878,
						"data": "0x",
						"index": 157,
						"topics": [
							"0xddf252ad1be2c89b69c2b068fc378daa952ba7f163c4a11628f55a4df523b3ef",
							"0x000000000000000000000000584f5da53cb18789099466074e3b5c32ed17243a",
							"0x00000000000000000000000022300cf0cc5f03c7c3db71b64529d2c8a9b93389",
							"0x0000000000000000000000000000000000000000000000000000000000000003"
						],
						"transactionHash": "0xb0513247761e830b1992a385b06aee3d3d75ff55a69c10dd82b32b2a042c89ae",
						"transactionIndex": 59
					},
					{
						"address": "0x584F5Da53cb18789099466074e3B5c32Ed17243a",
						"blockHash": "0x42390e52629b493a8ec0c747fbb0ce28d5d5840b74dc9b928758d0babe6dc948",
						"blockNumber": 5705878,
						"data": "0x",
						"index": 158,
						"topics": [
							"0x6895c13664aa4f67288b25d7a21d7aaa34916e355fb9b6fae0a139a9085becb8",
							"0x000000000000000000000000183b35e76a7bc60298dcb637515f50e4def9b68b"
						],
						"transactionHash": "0xb0513247761e830b1992a385b06aee3d3d75ff55a69c10dd82b32b2a042c89ae",
						"transactionIndex": 59
					},
					{
						"address": "0x183b35E76A7BC60298DCb637515F50e4DeF9b68b",
						"blockHash": "0x42390e52629b493a8ec0c747fbb0ce28d5d5840b74dc9b928758d0babe6dc948",
						"blockNumber": 5705878,
						"data": "0x0000000000000000000000000000000000000000000000000000000000000006",
						"index": 159,
						"topics": [
							"0xa65fb05c5808f5f389d72edeaf719ce38f4cc55c1f69ca3cbfb31c21501caa07",
							"0xfe8ffb555449f1da6f33cda2fe57d7293671c56aece8cf1bf36d43b4e4949484"
						],
						"transactionHash": "0xb0513247761e830b1992a385b06aee3d3d75ff55a69c10dd82b32b2a042c89ae",
						"transactionIndex": 59
					},
					{
						"address": "0x183b35E76A7BC60298DCb637515F50e4DeF9b68b",
						"blockHash": "0x42390e52629b493a8ec0c747fbb0ce28d5d5840b74dc9b928758d0babe6dc948",
						"blockNumber": 5705878,
						"data": "0x",
						"index": 160,
						"topics": [
							"0x4383d976757d67ca920616be0b6430a681ea9d3dcce8d6d61d4603ca4a9bff63",
							"0xfe8ffb555449f1da6f33cda2fe57d7293671c56aece8cf1bf36d43b4e4949484"
						],
						"transactionHash": "0xb0513247761e830b1992a385b06aee3d3d75ff55a69c10dd82b32b2a042c89ae",
						"transactionIndex": 59
					}
				],
				"logsBloom": "0x00c00000080010204220000204080242000808000008104500911000004080000000850100400002000000200448020001004000025020000800c800000400000000181000022200004000484002084800010840800408002010800c0080001000004000020000008001062000014800400800040000010040020012002040418000000a1042010000210000004100001082250a042000020001004122000000004018820214000000000000000001060208000000800060000220014004604000000002010804000080000068000a00011000000000008000100000080660000000020020810028000000000000000380005000000300001000000008100040",
				"status": 1,
				"to": "0xB5E96127D417b1B3ef8438496a38A143167209c7"
			},
			"metadata": "{\"compiler\":{\"version\":\"0.8.23+commit.f704f362\"},\"language\":\"Solidity\",\"output\":{\"abi\":[{\"inputs\":[{\"internalType\":\"address\",\"name\":\"owner\",\"type\":\"address\"},{\"internalType\":\"address\",\"name\":\"trustedForwarder\",\"type\":\"address\"}],\"stateMutability\":\"nonpayable\",\"type\":\"constructor\"},{\"inputs\":[],\"type\":\"error\",\"name\":\"ASSET_IS_ALREADY_BEING_WORN\"},{\"inputs\":[],\"type\":\"error\",\"name\":\"CONTENTS_ALREADY_STORED\"},{\"inputs\":[],\"type\":\"error\",\"name\":\"CONTENTS_MISMATCH\"},{\"inputs\":[],\"type\":\"error\",\"name\":\"FACE_ALREADY_ADDED\"},{\"inputs\":[],\"type\":\"error\",\"name\":\"HASH_ALREADY_STORED\"},{\"inputs\":[],\"type\":\"error\",\"name\":\"HASH_NOT_FOUND\"},{\"inputs\":[],\"type\":\"error\",\"name\":\"HEAD_ALREADY_ADDED\"},{\"inputs\":[{\"internalType\":\"address\",\"name\":\"owner\",\"type\":\"address\"}],\"type\":\"error\",\"name\":\"OwnableInvalidOwner\"},{\"inputs\":[{\"internalType\":\"address\",\"name\":\"account\",\"type\":\"address\"}],\"type\":\"error\",\"name\":\"OwnableUnauthorizedAccount\"},{\"inputs\":[],\"type\":\"error\",\"name\":\"SUIT_ALREADY_ADDED\"},{\"inputs\":[],\"type\":\"error\",\"name\":\"UNAUTHORIZED_NAKED_BANNY\"},{\"inputs\":[],\"type\":\"error\",\"name\":\"UNAUTHORIZED_OUTFIT\"},{\"inputs\":[],\"type\":\"error\",\"name\":\"UNAUTHORIZED_WORLD\"},{\"inputs\":[],\"type\":\"error\",\"name\":\"UNORDERED_CATEGORIES\"},{\"inputs\":[],\"type\":\"error\",\"name\":\"UNRECOGNIZED_CATEGORY\"},{\"inputs\":[],\"type\":\"error\",\"name\":\"UNRECOGNIZED_OUTFIT\"},{\"inputs\":[],\"type\":\"error\",\"name\":\"UNRECOGNIZED_TIER\"},{\"inputs\":[],\"type\":\"error\",\"name\":\"UNRECOGNIZED_WORLD\"},{\"inputs\":[{\"internalType\":\"address\",\"name\":\"hook\",\"type\":\"address\",\"indexed\":true},{\"internalType\":\"uint256\",\"name\":\"nakenBannyId\",\"type\":\"uint256\",\"indexed\":true},{\"internalType\":\"uint256\",\"name\":\"worldId\",\"type\":\"uint256\",\"indexed\":false},{\"internalType\":\"uint256[]\",\"name\":\"outfitIds\",\"type\":\"uint256[]\",\"indexed\":false},{\"internalType\":\"address\",\"name\":\"caller\",\"type\":\"address\",\"indexed\":false}],\"type\":\"event\",\"name\":\"DecorateBanny\",\"anonymous\":false},{\"inputs\":[{\"internalType\":\"address\",\"name\":\"previousOwner\",\"type\":\"address\",\"indexed\":true},{\"internalType\":\"address\",\"name\":\"newOwner\",\"type\":\"address\",\"indexed\":true}],\"type\":\"event\",\"name\":\"OwnershipTransferred\",\"anonymous\":false},{\"inputs\":[{\"internalType\":\"string\",\"name\":\"baseUri\",\"type\":\"string\",\"indexed\":false},{\"internalType\":\"address\",\"name\":\"caller\",\"type\":\"address\",\"indexed\":false}],\"type\":\"event\",\"name\":\"SetSvgBaseUri\",\"anonymous\":false},{\"inputs\":[{\"internalType\":\"uint256[]\",\"name\":\"tierId\",\"type\":\"uint256[]\",\"indexed\":true},{\"internalType\":\"string[]\",\"name\":\"svgContents\",\"type\":\"string[]\",\"indexed\":false},{\"internalType\":\"address\",\"name\":\"caller\",\"type\":\"address\",\"indexed\":false}],\"type\":\"event\",\"name\":\"SetSvgContents\",\"anonymous\":false},{\"inputs\":[{\"internalType\":\"uint256[]\",\"name\":\"tierIds\",\"type\":\"uint256[]\",\"indexed\":true},{\"internalType\":\"bytes32[]\",\"name\":\"svgHashs\",\"type\":\"bytes32[]\",\"indexed\":true},{\"internalType\":\"address\",\"name\":\"caller\",\"type\":\"address\",\"indexed\":false}],\"type\":\"event\",\"name\":\"SetSvgHashes\",\"anonymous\":false},{\"inputs\":[{\"internalType\":\"uint256[]\",\"name\":\"tierIds\",\"type\":\"uint256[]\",\"indexed\":true},{\"internalType\":\"string[]\",\"name\":\"names\",\"type\":\"string[]\",\"indexed\":false},{\"internalType\":\"address\",\"name\":\"caller\",\"type\":\"address\",\"indexed\":false}],\"type\":\"event\",\"name\":\"SetTierNames\",\"anonymous\":false},{\"inputs\":[{\"internalType\":\"uint256\",\"name\":\"tokenId\",\"type\":\"uint256\"},{\"internalType\":\"uint256\",\"name\":\"tierId\",\"type\":\"uint256\"},{\"internalType\":\"uint256\",\"name\":\"category\",\"type\":\"uint256\"}],\"stateMutability\":\"view\",\"type\":\"function\",\"name\":\"_nameOf\",\"outputs\":[{\"internalType\":\"string\",\"name\":\"\",\"type\":\"string\"}]},{\"inputs\":[{\"internalType\":\"uint256\",\"name\":\"nakedBannyId\",\"type\":\"uint256\"}],\"stateMutability\":\"view\",\"type\":\"function\",\"name\":\"assetIdsOf\",\"outputs\":[{\"internalType\":\"uint256\",\"name\":\"worldId\",\"type\":\"uint256\"},{\"internalType\":\"uint256[]\",\"name\":\"outfitIds\",\"type\":\"uint256[]\"}]},{\"inputs\":[{\"internalType\":\"address\",\"name\":\"hook\",\"type\":\"address\"},{\"internalType\":\"uint256\",\"name\":\"nakedBannyId\",\"type\":\"uint256\"},{\"internalType\":\"uint256\",\"name\":\"worldId\",\"type\":\"uint256\"},{\"internalType\":\"uint256[]\",\"name\":\"outfitIds\",\"type\":\"uint256[]\"}],\"stateMutability\":\"nonpayable\",\"type\":\"function\",\"name\":\"decorateBannyWith\"},{\"inputs\":[{\"internalType\":\"address\",\"name\":\"forwarder\",\"type\":\"address\"}],\"stateMutability\":\"view\",\"type\":\"function\",\"name\":\"isTrustedForwarder\",\"outputs\":[{\"internalType\":\"bool\",\"name\":\"\",\"type\":\"bool\"}]},{\"inputs\":[{\"internalType\":\"address\",\"name\":\"hook\",\"type\":\"address\"},{\"internalType\":\"uint256\",\"name\":\"tokenId\",\"type\":\"uint256\"}],\"stateMutability\":\"view\",\"type\":\"function\",\"name\":\"nameOf\",\"outputs\":[{\"internalType\":\"string\",\"name\":\"\",\"type\":\"string\"}]},{\"inputs\":[{\"internalType\":\"uint256\",\"name\":\"outfitId\",\"type\":\"uint256\"}],\"stateMutability\":\"view\",\"type\":\"function\",\"name\":\"outfitIsBeingWornBy\",\"outputs\":[{\"internalType\":\"uint256\",\"name\":\"\",\"type\":\"uint256\"}]},{\"inputs\":[],\"stateMutability\":\"view\",\"type\":\"function\",\"name\":\"owner\",\"outputs\":[{\"internalType\":\"address\",\"name\":\"\",\"type\":\"address\"}]},{\"inputs\":[],\"stateMutability\":\"nonpayable\",\"type\":\"function\",\"name\":\"renounceOwnership\"},{\"inputs\":[{\"internalType\":\"string\",\"name\":\"baseUri\",\"type\":\"string\"}],\"stateMutability\":\"nonpayable\",\"type\":\"function\",\"name\":\"setSvgBaseUri\"},{\"inputs\":[{\"internalType\":\"uint256[]\",\"name\":\"tierIds\",\"type\":\"uint256[]\"},{\"internalType\":\"string[]\",\"name\":\"svgContents\",\"type\":\"string[]\"}],\"stateMutability\":\"nonpayable\",\"type\":\"function\",\"name\":\"setSvgContentsOf\"},{\"inputs\":[{\"internalType\":\"uint256[]\",\"name\":\"tierIds\",\"type\":\"uint256[]\"},{\"internalType\":\"bytes32[]\",\"name\":\"svgHashs\",\"type\":\"bytes32[]\"}],\"stateMutability\":\"nonpayable\",\"type\":\"function\",\"name\":\"setSvgHashsOf\"},{\"inputs\":[{\"internalType\":\"uint256[]\",\"name\":\"tierIds\",\"type\":\"uint256[]\"},{\"internalType\":\"string[]\",\"name\":\"names\",\"type\":\"string[]\"}],\"stateMutability\":\"nonpayable\",\"type\":\"function\",\"name\":\"setTierNames\"},{\"inputs\":[],\"stateMutability\":\"view\",\"type\":\"function\",\"name\":\"svgBaseUri\",\"outputs\":[{\"internalType\":\"string\",\"name\":\"\",\"type\":\"string\"}]},{\"inputs\":[{\"internalType\":\"uint256\",\"name\":\"tierId\",\"type\":\"uint256\"}],\"stateMutability\":\"view\",\"type\":\"function\",\"name\":\"svgHashOf\",\"outputs\":[{\"internalType\":\"bytes32\",\"name\":\"\",\"type\":\"bytes32\"}]},{\"inputs\":[{\"internalType\":\"address\",\"name\":\"hook\",\"type\":\"address\"},{\"internalType\":\"uint256\",\"name\":\"tokenId\",\"type\":\"uint256\"},{\"internalType\":\"bool\",\"name\":\"shouldDressNakedBanny\",\"type\":\"bool\"},{\"internalType\":\"bool\",\"name\":\"shouldIncludeWorldOnNakedBanny\",\"type\":\"bool\"}],\"stateMutability\":\"view\",\"type\":\"function\",\"name\":\"svgOf\",\"outputs\":[{\"internalType\":\"string\",\"name\":\"\",\"type\":\"string\"}]},{\"inputs\":[{\"internalType\":\"address\",\"name\":\"hook\",\"type\":\"address\"},{\"internalType\":\"uint256\",\"name\":\"tokenId\",\"type\":\"uint256\"}],\"stateMutability\":\"view\",\"type\":\"function\",\"name\":\"tokenUriOf\",\"outputs\":[{\"internalType\":\"string\",\"name\":\"\",\"type\":\"string\"}]},{\"inputs\":[{\"internalType\":\"address\",\"name\":\"newOwner\",\"type\":\"address\"}],\"stateMutability\":\"nonpayable\",\"type\":\"function\",\"name\":\"transferOwnership\"},{\"inputs\":[],\"stateMutability\":\"view\",\"type\":\"function\",\"name\":\"trustedForwarder\",\"outputs\":[{\"internalType\":\"address\",\"name\":\"\",\"type\":\"address\"}]},{\"inputs\":[{\"internalType\":\"uint256\",\"name\":\"worldId\",\"type\":\"uint256\"}],\"stateMutability\":\"view\",\"type\":\"function\",\"name\":\"worldIsBeingUsedBy\",\"outputs\":[{\"internalType\":\"uint256\",\"name\":\"\",\"type\":\"uint256\"}]}],\"devdoc\":{\"kind\":\"dev\",\"methods\":{\"assetIdsOf(uint256)\":{\"params\":{\"nakedBannyId\":\"The ID of the naked banny shows with the associated assets.\"},\"returns\":{\"outfitIds\":\"The outfits attached to the Naked Banny.\",\"worldId\":\"The world attached to the Naked Banny.\"}},\"constructor\":{\"params\":{\"owner\":\"The owner allowed to add SVG files that correspond to tier IDs.\",\"trustedForwarder\":\"The trusted forwarder for the ERC2771Context.\"}},\"decorateBannyWith(address,uint256,uint256,uint256[])\":{\"details\":\"The caller must own the naked banny being dressed and all outfits being worn.\",\"params\":{\"hook\":\"The hook storing the assets.\",\"nakedBannyId\":\"The ID of the Naked Banny being dressed.\",\"outfitIds\":\"The IDs of the outfits that'll be associated with the specified banny. Only one outfit per outfit category allowed at a time and they must be passed in order.\",\"worldId\":\"The ID of the world that'll be associated with the specified banny.\"}},\"isTrustedForwarder(address)\":{\"details\":\"Indicates whether any particular address is the trusted forwarder.\"},\"nameOf(address,uint256)\":{\"params\":{\"hook\":\"The hook storing the assets.\",\"tokenId\":\"The ID of the token to show.\"},\"returns\":{\"_0\":\"The name of the token.\"}},\"outfitIsBeingWornBy(uint256)\":{\"params\":{\"outfitId\":\"The ID of the outfit being worn.\"},\"returns\":{\"_0\":\"The ID of the naked banny wearing the outfit.\"}},\"owner()\":{\"details\":\"Returns the address of the current owner.\"},\"renounceOwnership()\":{\"details\":\"Leaves the contract without owner. It will not be possible to call `onlyOwner` functions. Can only be called by the current owner. NOTE: Renouncing ownership will leave the contract without an owner, thereby disabling any functionality that is only available to the owner.\"},\"setSvgContentsOf(uint256[],string[])\":{\"params\":{\"svgContents\":\"The svg contents being stored, not including the parent <svg></svg> element.\",\"tierIds\":\"The IDs of the tiers having SVGs stored.\"}},\"setSvgHashsOf(uint256[],bytes32[])\":{\"details\":\"This allows anyone to lazily upload the correct svg file.\",\"params\":{\"svgHashs\":\"The svg hashes being stored, not including the parent <svg></svg> element.\",\"tierIds\":\"The IDs of the tiers having SVG hashes stored.\"}},\"setTierNames(uint256[],string[])\":{\"params\":{\"names\":\"The names of the tiers.\",\"tierIds\":\"The IDs of the tiers having their name stored.\"}},\"svgOf(address,uint256,bool,bool)\":{\"params\":{\"hook\":\"The hook storing the assets.\",\"shouldDressNakedBanny\":\"Whether the naked banny should be dressed.\",\"shouldIncludeWorldOnNakedBanny\":\"Whether the world should be included on the naked banny.\",\"tokenId\":\"The ID of the token to show. If the ID belongs to a Naked Banny, it will be shown with its current outfits in its current world if specified.\"},\"returns\":{\"_0\":\"svg The SVG.\"}},\"tokenUriOf(address,uint256)\":{\"params\":{\"tokenId\":\"The ID of the token to show. If the ID belongs to a Naked Banny, it will be shown with its current outfits in its current world.\"},\"returns\":{\"_0\":\"tokenUri The URI representing the SVG.\"}},\"transferOwnership(address)\":{\"details\":\"Transfers ownership of the contract to a new account (`newOwner`). Can only be called by the current owner.\"},\"trustedForwarder()\":{\"details\":\"Returns the address of the trusted forwarder.\"},\"worldIsBeingUsedBy(uint256)\":{\"params\":{\"worldId\":\"The ID of the world being used.\"},\"returns\":{\"_0\":\"The ID of the naked banny using the world.\"}}},\"version\":1},\"userdoc\":{\"kind\":\"user\",\"methods\":{\"_nameOf(uint256,uint256,uint256)\":{\"notice\":\"The name of each tier.\"},\"assetIdsOf(uint256)\":{\"notice\":\"The assets currently attached to each Naked Banny, owned by the naked Banny's owner.\"},\"decorateBannyWith(address,uint256,uint256,uint256[])\":{\"notice\":\"Dress your Naked Banny with outfits.\"},\"nameOf(address,uint256)\":{\"notice\":\"Returns the name of the token.\"},\"outfitIsBeingWornBy(uint256)\":{\"notice\":\"Checks to see which naked banny is currently wearing a particular outfit.\"},\"setSvgBaseUri(string)\":{\"notice\":\"Allows the owner of this contract to specify the base of the domain hosting the SVG files.\"},\"setSvgContentsOf(uint256[],string[])\":{\"notice\":\"The owner of this contract can store SVG files for tier IDs.\"},\"setSvgHashsOf(uint256[],bytes32[])\":{\"notice\":\"Allows the owner of this contract to upload the hash of an svg file for a tierId.\"},\"setTierNames(uint256[],string[])\":{\"notice\":\"Allows the owner to set the tier's name.\"},\"svgBaseUri()\":{\"notice\":\"The base of the domain hosting the SVG files that can be lazily uploaded to the contract.\"},\"svgHashOf(uint256)\":{\"notice\":\"The Naked Banny and outfit SVG hash files.\"},\"svgOf(address,uint256,bool,bool)\":{\"notice\":\"Returns the SVG showing either a naked banny with/without outfits and a world, or the stand alone outfit or world.\"},\"tokenUriOf(address,uint256)\":{\"notice\":\"Returns the SVG showing a dressed Naked Banny in a world.\"},\"worldIsBeingUsedBy(uint256)\":{\"notice\":\"Checks to see which naked banny is currently using a particular world.\"}},\"version\":1}},\"settings\":{\"remappings\":[\"@arbitrum/=node_modules/@arbitrum/\",\"@bananapus/=node_modules/@bananapus/\",\"@chainlink/=node_modules/@chainlink/\",\"@croptop/=node_modules/@croptop/\",\"@eth-optimism/=node_modules/@eth-optimism/\",\"@exhausted-pigeon/=node_modules/@exhausted-pigeon/\",\"@gnosis.pm/=node_modules/@bananapus/suckers/node_modules/@sphinx-labs/contracts/node_modules/@gnosis.pm/\",\"@offchainlabs/=node_modules/@offchainlabs/\",\"@openzeppelin/=node_modules/@openzeppelin/\",\"@prb/=node_modules/@prb/\",\"@rev-net/=node_modules/@rev-net/\",\"@scroll-tech/=node_modules/@scroll-tech/\",\"@sphinx-labs/contracts/=node_modules/@sphinx-labs/contracts/contracts/foundry/\",\"@uniswap/=node_modules/@uniswap/\",\"base64-sol/=node_modules/base64-sol/\",\"base64/=lib/base64/\",\"ds-test/=lib/forge-std/lib/ds-test/src/\",\"forge-std/=lib/forge-std/src/\",\"hardhat/=node_modules/hardhat/\",\"solmate/=node_modules/solmate/\",\"sphinx-forge-std/=node_modules/sphinx-forge-std/\",\"sphinx-solmate/=node_modules/sphinx-solmate/\",\"sphinx/=lib/sphinx/packages/contracts/contracts/forge-std/src/\"],\"optimizer\":{\"enabled\":true,\"runs\":200},\"metadata\":{\"bytecodeHash\":\"ipfs\"},\"compilationTarget\":{\"src/Banny721TokenUriResolver.sol\":\"Banny721TokenUriResolver\"},\"evmVersion\":\"paris\",\"libraries\":{},\"viaIR\":true},\"sources\":{\"lib/base64/base64.sol\":{\"keccak256\":\"0xa73959e6ef0b693e4423a562e612370160b934a75e618361ddd8c9c4b8ddbaaf\",\"urls\":[\"bzz-raw://17c12e16d8d66f3af15d8787920bd41ca6c1e7517a212a6b9cebd4b6d38f36fe\",\"dweb:/ipfs/QmcXMnZUXEz6LRKsm3CSvqdPboAzmezavi8bTg2dRxM2yE\"],\"license\":\"MIT\"},\"node_modules/@bananapus/721-hook/src/abstract/ERC721.sol\":{\"keccak256\":\"0xc25c7c60c88684adc3f7a49621d27866866a44a3f3796e63c9fcaba75fbb2e84\",\"urls\":[\"bzz-raw://713103b7a05402264493430cfcd7d85f1a241a2eb4756af53a370fa529ea07bf\",\"dweb:/ipfs/QmSXZfxCG1N9XheS1kLCNJZ9k6ZRq4GnAMY7MKFfbKLXmz\"],\"license\":\"MIT\"},\"node_modules/@bananapus/721-hook/src/interfaces/IJB721Hook.sol\":{\"keccak256\":\"0x24935445bc4c5b0fe2a10aabe549122588940842a68e79a8c39b1df9458dd7fd\",\"urls\":[\"bzz-raw://1dee273fa76d9abae116de911fdda5e3113db2a58939e62e24fba98c63fd037a\",\"dweb:/ipfs/QmT6Lih7DeRAfrLc8uC7ecaw2EAKwhaP2BZHeY5DxeeVLM\"],\"license\":\"MIT\"},\"node_modules/@bananapus/721-hook/src/interfaces/IJB721TiersHook.sol\":{\"keccak256\":\"0xbd9a8dae00a4b1a02c628bd172fe4ae496e49f7651426cef08774ffdb6125c23\",\"urls\":[\"bzz-raw://9ce4fd77d5af1f570dad6b70758f09f9599768e1ab32f6b473f6181197daa0c8\",\"dweb:/ipfs/QmWj6sCTvZ2CbfSyRuhaXADxYbwwPcR42pZokcgfjpsabg\"],\"license\":\"MIT\"},\"node_modules/@bananapus/721-hook/src/interfaces/IJB721TiersHookStore.sol\":{\"keccak256\":\"0x8550e216c12c9cda865c1b1b0eb3f244aeaa8d465b197d4bd0dd8d4df265682e\",\"urls\":[\"bzz-raw://674a312f1eaffd7c6b21f58f8d4a628104e71220daf48a22237fa3bd035ddf21\",\"dweb:/ipfs/QmSRSW6cSwdpoGjVxDqiwJmJyCxfHWhCxZ2iaqeJcN2Ccy\"],\"license\":\"MIT\"},\"node_modules/@bananapus/721-hook/src/interfaces/IJB721TokenUriResolver.sol\":{\"keccak256\":\"0xfa599167098f4459320ec4141a98a17b2dfffbce422baa27d8b4e4530f61ece1\",\"urls\":[\"bzz-raw://8b758b161f4c7b520b2c34b4d91e585e961b8f4ca278eebb91d791f7f2f45140\",\"dweb:/ipfs/QmcD9DF7NJ9QykQpT4KPzm4bs3fkjzukdAUWwdU6Atfw85\"],\"license\":\"MIT\"},\"node_modules/@bananapus/721-hook/src/libraries/JBIpfsDecoder.sol\":{\"keccak256\":\"0xb93ba562ac1fc9d3829be00e61f3a90f51df5661cf0f2c819a7f1d8ba19ec171\",\"urls\":[\"bzz-raw://fc9bc948fac8897d9720ef25b13d63c60b40a18aa1897dd1c657fc278c416b4f\",\"dweb:/ipfs/QmNtiJTALZW5zfyKVy7XG5GkqGgMrfkVvU4Auu4bb9cGQc\"],\"license\":\"MIT\"},\"node_modules/@bananapus/721-hook/src/structs/JB721InitTiersConfig.sol\":{\"keccak256\":\"0xfb78486cec94189d0ecf2050dc9cfc11245b426c73a0711a85bff1359d774307\",\"urls\":[\"bzz-raw://a8fa01f6e64dd204dbde07a60851e9a5a74e439e1411139ae16b7cf67d2a2692\",\"dweb:/ipfs/QmZAnHyfpKr3xr7NWHj5sGaCEEtG8RtmHhkRUJJvNauym5\"],\"license\":\"MIT\"},\"node_modules/@bananapus/721-hook/src/structs/JB721Tier.sol\":{\"keccak256\":\"0x2e267a8af02f125465cdda9308477346ae4a94b024c3b2c2a6af0c00027944dd\",\"urls\":[\"bzz-raw://367ccea2c8fa815d498d771d4367ef1ded718a76e89644102034bfe4a3636b82\",\"dweb:/ipfs/QmYiFFa6ei9wZBSSVUHfY2Cb35zCDVXvbmLcgLj2BTiC1u\"],\"license\":\"MIT\"},\"node_modules/@bananapus/721-hook/src/structs/JB721TierConfig.sol\":{\"keccak256\":\"0x2fa9c5c8cec182b854a656d3b284e9d5306be35ad3dc4da79d65dca12b804af0\",\"urls\":[\"bzz-raw://b443a5f70195a66145ea1dade04454ce9a3ff1209e1aaecf53c8a9909b294d79\",\"dweb:/ipfs/QmUDPFZ4L6XpV3zLQUNVchUvecD4XfddKz2S46BKek5XL1\"],\"license\":\"MIT\"},\"node_modules/@bananapus/721-hook/src/structs/JB721TiersHookFlags.sol\":{\"keccak256\":\"0x283d8429f31bd58875c056515aa42abd09c95362bd929e85cfc44a0d92585766\",\"urls\":[\"bzz-raw://9a580b89fe99d9f8e930c58a4d0d63a5ff7c01c79d210af01373d066c9e72ed6\",\"dweb:/ipfs/QmdY1eSGSoTjv4KSdsG4Tm5CzJN6iqk3qTRga5ZWNbejRz\"],\"license\":\"MIT\"},\"node_modules/@bananapus/721-hook/src/structs/JB721TiersMintReservesConfig.sol\":{\"keccak256\":\"0xab3b319dc4e736586ae595de194d93dcdfeba365bc7a54cf6c37e697f6074ad9\",\"urls\":[\"bzz-raw://a84ae2cf2e8c3e39e831dbb39a67a8eb43c78a6de6bb78b1be2e1f1e80c69efe\",\"dweb:/ipfs/QmboGXEMqsYTxc4a7oft9rggNU7ShWSa9yB4HFMVmzXCHz\"],\"license\":\"MIT\"},\"node_modules/@bananapus/core/src/enums/JBApprovalStatus.sol\":{\"keccak256\":\"0x61c69b6bac7d24b566d87cda23a77e4ca9cdb87200b106aba8534cb9a0973e33\",\"urls\":[\"bzz-raw://6a9ca7249de76f77a8252eefe6bd1b63d47952f25a2acfa2c8db967cdff4470c\",\"dweb:/ipfs/QmaxSxptRQNj8bNy96EreENmrnRWdKmhyihBcxyWzBX5BN\"],\"license\":\"MIT\"},\"node_modules/@bananapus/core/src/interfaces/IJBDirectory.sol\":{\"keccak256\":\"0x9cc380844aef60078ee47a61861e55a29c4a8c947efd556ebd36e6909f7b9d62\",\"urls\":[\"bzz-raw://9f5190ec8b6683d9781ee6e9eedcc91294753242748875d4a06349077e4cbaaf\",\"dweb:/ipfs/QmTQrPuXT9TCA4txwrperMeXSGvGxP8iokUK47f62F388i\"],\"license\":\"MIT\"},\"node_modules/@bananapus/core/src/interfaces/IJBPayHook.sol\":{\"keccak256\":\"0x9438866782c652c2942f4d114e35f393cd3c8b0334abce8387eed90bca35e8b2\",\"urls\":[\"bzz-raw://cfd99daf57213f92325aad7d7d16e98476d38e870470e95ba01e3ae3cdecc95d\",\"dweb:/ipfs/QmUKKAVGf7ki8BHksr99tFcRW8APveeB5tNH63ctTbbCW8\"],\"license\":\"MIT\"},\"node_modules/@bananapus/core/src/interfaces/IJBPriceFeed.sol\":{\"keccak256\":\"0x4bd84c0f1a5d4729ed709bcddd43f4c50ec4a165ece79780af8dce482ed07d4a\",\"urls\":[\"bzz-raw://62bac4bfb6982fb002f620c77e5c445e62d50241a5aa64a07e51d929f5a42180\",\"dweb:/ipfs/QmWgJUDreVY2BuMX38a1iUUR5kNbMwGnKG3VvurB7oZtuM\"],\"license\":\"MIT\"},\"node_modules/@bananapus/core/src/interfaces/IJBPrices.sol\":{\"keccak256\":\"0x99525f31440b955742dce84ba57de9fc1221139b5367c1f834723bef9e13e6e1\",\"urls\":[\"bzz-raw://6fa03f0cd4ad87dd7cbae7bf7f54463450874291773c8f70f2c31ef2cae62bb0\",\"dweb:/ipfs/QmSPajPV5ismteJuB6Spzm9VmhTj2iS3eVrfpJC1Zuzg8n\"],\"license\":\"MIT\"},\"node_modules/@bananapus/core/src/interfaces/IJBProjects.sol\":{\"keccak256\":\"0x735c2fb8f1fa827f054ee77f7a0ae4b312656217acb75b624d2c8fd9dc40151b\",\"urls\":[\"bzz-raw://ee7fc92299a8633a80693ae63ab494dcd125f1789487a54a39dc0e5696e5996f\",\"dweb:/ipfs/QmX7YJD4pS2XhgQb7p3JbBAXynT7YGPXcZe92BiWWRrsCL\"],\"license\":\"MIT\"},\"node_modules/@bananapus/core/src/interfaces/IJBRulesetApprovalHook.sol\":{\"keccak256\":\"0x592e95d159494421c6b1bcb362d0cee1df0132921697351304e9cd7af4fbd386\",\"urls\":[\"bzz-raw://5bebfd5fa67c1b6ea16fa2e76e9520e9dfe52a579f48dd94d0c2ec45f78ad178\",\"dweb:/ipfs/QmRUawEGtfYoYSHmHELGhvJoWuMsxLPKtqAXgsrb7fJboP\"],\"license\":\"MIT\"},\"node_modules/@bananapus/core/src/interfaces/IJBRulesets.sol\":{\"keccak256\":\"0xd3f817d22ecbe24da63c552c069bf0c4fbbf3bcd5c3b5633002afd24aacf6882\",\"urls\":[\"bzz-raw://c1185aec0f6b6f0f4d93ffeeed0972ccf38420b00fe570b5e1838ed2b1f5db49\",\"dweb:/ipfs/QmWz36azGTFnjFXpFSh6BHt4nactgjtF64L3PeTqs4ZqSR\"],\"license\":\"MIT\"},\"node_modules/@bananapus/core/src/interfaces/IJBTerminal.sol\":{\"keccak256\":\"0x19dc9bf8cbdc8f13ee5da9dc3a87047eacb94a3fc19740a286c1f0bad2cc39ca\",\"urls\":[\"bzz-raw://0b05ae6fda9a85672508232fd992b8a5f5ffd8096622eeb12c8a7b3317eb3867\",\"dweb:/ipfs/QmNh9Quj37BXYGdTdcCD1Q58PchRsE5TLbEZep56qS3MpV\"],\"license\":\"MIT\"},\"node_modules/@bananapus/core/src/interfaces/IJBTokenUriResolver.sol\":{\"keccak256\":\"0xfa5cb00dcd6085d1ef912d071fe73c63f9478a2cd0f9d8bddaf659b6af2d0967\",\"urls\":[\"bzz-raw://282e4e7c342d65f77cde0e9a08fcaf20ef5cf379c7a48b639842c0ffd0b2afb8\",\"dweb:/ipfs/QmbnN3PEQeZaXdPLT75V1J79kMg7KqSMru37RHrL3z8Yf2\"],\"license\":\"MIT\"},\"node_modules/@bananapus/core/src/structs/JBAccountingContext.sol\":{\"keccak256\":\"0x2907ff54d1e903cc7e0390dd88c3975884702dc2673642aacbe22b66560b56de\",\"urls\":[\"bzz-raw://a66a5381ce877b32f0e0058ceeaf843e9b6b2bc8af666c0c9f4a9d01091da004\",\"dweb:/ipfs/QmQynCetUr37dBkS1YwDS8evxuXGiqanW6THmeUxXtim8w\"],\"license\":\"MIT\"},\"node_modules/@bananapus/core/src/structs/JBAfterPayRecordedContext.sol\":{\"keccak256\":\"0xd26c3a774ff38be79064085970454fe2603a23a638c76270d5b1b3829206c3e8\",\"urls\":[\"bzz-raw://3b55dbe3bf1ef625b7ca04efab3de35406e6041d5b3d82c7265469c500e2b702\",\"dweb:/ipfs/QmUdBDo4Lt3mcsFcsXT2mqq3czFwZjQJFPLM89YA2VtD7k\"],\"license\":\"MIT\"},\"node_modules/@bananapus/core/src/structs/JBRuleset.sol\":{\"keccak256\":\"0x15b2bf3174d84846a91ccbf5a344dfb125b55ed9cf50102db8d6868844225189\",\"urls\":[\"bzz-raw://647416b025dbd941094db89cbc69f755c155bd6c87be3f322394ccc4a8e0442d\",\"dweb:/ipfs/QmTCL9xcHnxQ4t5AmCPoZvXDUPW5xhzhyyXYbkMdyg44au\"],\"license\":\"MIT\"},\"node_modules/@bananapus/core/src/structs/JBTokenAmount.sol\":{\"keccak256\":\"0x5cf0626b73a596c1e2da17c89ae039a7c0374310b060d48568d3b6c11fbe6180\",\"urls\":[\"bzz-raw://63348b50be95e2995409394a17caffc563a646f0972650a1230bf864fbd3219b\",\"dweb:/ipfs/QmZXZpS3SbFD5nWaCauf6AqbEhLURv5qsKHpThBvQgDU6u\"],\"license\":\"MIT\"},\"node_modules/@openzeppelin/contracts/access/Ownable.sol\":{\"keccak256\":\"0xff6d0bb2e285473e5311d9d3caacb525ae3538a80758c10649a4d61029b017bb\",\"urls\":[\"bzz-raw://8ed324d3920bb545059d66ab97d43e43ee85fd3bd52e03e401f020afb0b120f6\",\"dweb:/ipfs/QmfEckWLmZkDDcoWrkEvMWhms66xwTLff9DDhegYpvHo1a\"],\"license\":\"MIT\"},\"node_modules/@openzeppelin/contracts/interfaces/draft-IERC6093.sol\":{\"keccak256\":\"0x60c65f701957fdd6faea1acb0bb45825791d473693ed9ecb34726fdfaa849dd7\",\"urls\":[\"bzz-raw://ea290300e0efc4d901244949dc4d877fd46e6c5e43dc2b26620e8efab3ab803f\",\"dweb:/ipfs/QmcLLJppxKeJWqHxE2CUkcfhuRTgHSn8J4kijcLa5MYhSt\"],\"license\":\"MIT\"},\"node_modules/@openzeppelin/contracts/metatx/ERC2771Context.sol\":{\"keccak256\":\"0x98256cf37b71a69b2f5a8a6fe975ea03590dff703102bd141a830f94e8adebf6\",\"urls\":[\"bzz-raw://6251fe1f6a1e45e6d619d150c123afc88b8646b38ee26a136efa9a6988a31d3f\",\"dweb:/ipfs/QmeXDT85wSZdP31wkz3ah3KhponCiksJLP5o2LR5e1JxcK\"],\"license\":\"MIT\"},\"node_modules/@openzeppelin/contracts/token/ERC721/IERC721.sol\":{\"keccak256\":\"0x5ef46daa3b58ef2702279d514780316efaa952915ee1aa3396f041ee2982b0b4\",\"urls\":[\"bzz-raw://2f8f2a76e23b02fc69e8cd24c3cb47da6c7af3a2d6c3a382f8ac25c6e094ade7\",\"dweb:/ipfs/QmPV4ZS4tPVv4mTCf9ejyZ1ai57EEibDRj7mN2ARDCLV5n\"],\"license\":\"MIT\"},\"node_modules/@openzeppelin/contracts/token/ERC721/IERC721Receiver.sol\":{\"keccak256\":\"0x7f7a26306c79a65fb8b3b6c757cd74660c532cd8a02e165488e30027dd34ca49\",\"urls\":[\"bzz-raw://d01e0b2b837ee2f628545e54d8715b49c7ef2befd08356c2e7f6c50dde8a1c22\",\"dweb:/ipfs/QmWBAn6y2D1xgftci97Z3qR9tQnkvwQpYwFwkTvDMvqU4i\"],\"license\":\"MIT\"},\"node_modules/@openzeppelin/contracts/token/ERC721/extensions/IERC721Metadata.sol\":{\"keccak256\":\"0x37d1aaaa5a2908a09e9dcf56a26ddf762ecf295afb5964695937344fc6802ce1\",\"urls\":[\"bzz-raw://ed0bfc1b92153c5000e50f4021367b931bbe96372ac6facec3c4961b72053d02\",\"dweb:/ipfs/Qmbwp8VDerjS5SV1quwHH1oMXxPQ93fzfLVqJ2RCqbowGE\"],\"license\":\"MIT\"},\"node_modules/@openzeppelin/contracts/utils/Context.sol\":{\"keccak256\":\"0x493033a8d1b176a037b2cc6a04dad01a5c157722049bbecf632ca876224dd4b2\",\"urls\":[\"bzz-raw://6a708e8a5bdb1011c2c381c9a5cfd8a9a956d7d0a9dc1bd8bcdaf52f76ef2f12\",\"dweb:/ipfs/Qmax9WHBnVsZP46ZxEMNRQpLQnrdE4dK8LehML1Py8FowF\"],\"license\":\"MIT\"},\"node_modules/@openzeppelin/contracts/utils/Strings.sol\":{\"keccak256\":\"0x55f102ea785d8399c0e58d1108e2d289506dde18abc6db1b7f68c1f9f9bc5792\",\"urls\":[\"bzz-raw://6e52e0a7765c943ef14e5bcf11e46e6139fa044be564881378349236bf2e3453\",\"dweb:/ipfs/QmZEeeXoFPW47amyP35gfzomF9DixqqTEPwzBakv6cZw6i\"],\"license\":\"MIT\"},\"node_modules/@openzeppelin/contracts/utils/introspection/ERC165.sol\":{\"keccak256\":\"0x9e8778b14317ba9e256c30a76fd6c32b960af621987f56069e1e819c77c6a133\",\"urls\":[\"bzz-raw://1777404f1dcd0fac188e55a288724ec3c67b45288e49cc64723e95e702b49ab8\",\"dweb:/ipfs/QmZFdC626GButBApwDUvvTnUzdinevC3B24d7yyh57XkiA\"],\"license\":\"MIT\"},\"node_modules/@openzeppelin/contracts/utils/introspection/IERC165.sol\":{\"keccak256\":\"0x4296879f55019b23e135000eb36896057e7101fb7fb859c5ef690cf14643757b\",\"urls\":[\"bzz-raw://87b3541437c8c443ccd36795e56a338ed12855eec17f8da624511b8d1a7e14df\",\"dweb:/ipfs/QmeJQCtZrQjtJLr6u7ZHWeH3pBnjtLWzvRrKViAi7UZqxL\"],\"license\":\"MIT\"},\"node_modules/@openzeppelin/contracts/utils/math/Math.sol\":{\"keccak256\":\"0x005ec64c6313f0555d59e278f9a7a5ab2db5bdc72a027f255a37c327af1ec02d\",\"urls\":[\"bzz-raw://4ece9f0b9c8daca08c76b6b5405a6446b6f73b3a15fab7ff56e296cbd4a2c875\",\"dweb:/ipfs/QmQyRpyPRL5SQuAgj6SHmbir3foX65FJjbVTTQrA2EFg6L\"],\"license\":\"MIT\"},\"node_modules/@openzeppelin/contracts/utils/math/SignedMath.sol\":{\"keccak256\":\"0x5f7e4076e175393767754387c962926577f1660dd9b810187b9002407656be72\",\"urls\":[\"bzz-raw://7d533a1c97cd43a57cd9c465f7ee8dd0e39ae93a8fb8ff8e5303a356b081cdcc\",\"dweb:/ipfs/QmVBEei6aTnvYNZp2CHYVNKyZS4q1KkjANfY39WVXZXVoT\"],\"license\":\"MIT\"},\"src/Banny721TokenUriResolver.sol\":{\"keccak256\":\"0xb74d97bf5411ec13ad70c70f4008ed64e718d67d4285938a040da3d11db2fb86\",\"urls\":[\"bzz-raw://c509ef638acbe72b5cf6d07bc32b15b137dcdef900bdf5541be26c4f673666b6\",\"dweb:/ipfs/QmQVZZ7QeJoSMVjSju2Ry7gNfm635ngAQz35SE9wprLmDF\"],\"license\":\"MIT\"}},\"version\":1}",
			"args": [
				"0x584F5Da53cb18789099466074e3B5c32Ed17243a",
				"0xB2b5841DBeF766d4b521221732F9B618fCf34A87"
			],
			"bytecode": "0x60a034620000e957601f62005d4038819003918201601f19168301916001600160401b03831184841017620000ee578084926040948552833981010312620000e9576200005a6020620000528362000104565b920162000104565b6080526001600160a01b039081168015620000d057600080546001600160a01b03198116831782556040519316907f8be0079c531659141344cd1fd0a4f28419497f9722a3daafe3b4186f6b6457e09080a3615c2690816200011a823960805181818161090501528181610a2b0152615a330152f35b604051631e4fbdf760e01b815260006004820152602490fd5b600080fd5b634e487b7160e01b600052604160045260246000fd5b51906001600160a01b0382168203620000e95756fe6080604052600436101561001257600080fd5b60003560e01c806257bfdd146101465780631e4578de1461014157806331a290ac1461013c5780634d03376e14610137578063572b6c05146101325780635e703e711461012d5780636aff31dd14610128578063715018a6146101235780637508ac831461011e5780637da0a87714610119578063875e4bea146101145780638da5cb5b1461010f578063a22d0dd51461010a578063aeac5e3514610105578063b03a3eab14610100578063c06e7bc7146100fb578063f2fde38b146100f6578063f92df2e3146100f15763f9fed041146100ec57600080fd5b6114e8565b6114c3565b611437565b610e2a565b610d87565b610c63565b610c1e565b610beb565b610a5a565b610a15565b6109ef565b610991565b610965565b610939565b6108e1565b6107ff565b610635565b6104a6565b61042b565b90600182811c9216801561017b575b602083101461016557565b634e487b7160e01b600052602260045260246000fd5b91607f169161015a565b634e487b7160e01b600052604160045260246000fd5b602081019081106001600160401b038211176101b657604052565b610185565b6111a081019081106001600160401b038211176101b657604052565b606081019081106001600160401b038211176101b657604052565b6101c081019081106001600160401b038211176101b657604052565b61026081019081106001600160401b038211176101b657604052565b604081019081106001600160401b038211176101b657604052565b90601f801991011681019081106001600160401b038211176101b657604052565b604051906000826002549161027a8361014b565b8083529260209060019081811690811561030857506001146102a7575b50506102a592500383610245565b565b91509260026000527f405787fa12a823e0f2b7631cc41b3ba8828b3321ca811111fa75cd3aa3bb5ace936000925b8284106102f057506102a59450505081016020013880610297565b855488850183015294850194879450928101926102d5565b915050602092506102a594915060ff191682840152151560051b8201013880610297565b9060405191826000825461033f8161014b565b908184526020946001916001811690816000146103ad575060011461036e575b5050506102a592500383610245565b600090815285812095935091905b8183106103955750506102a5935082010138808061035f565b8554888401850152948501948794509183019161037c565b925050506102a594925060ff191682840152151560051b82010138808061035f565b60005b8381106103e25750506000910152565b81810151838201526020016103d2565b9060209161040b815180928185528580860191016103cf565b601f01601f1916010190565b9060206104289281815201906103f2565b90565b3461045f57600036600319011261045f5761045b610447610266565b6040519182916020835260208301906103f2565b0390f35b600080fd5b604081019181526060602091604060208201528151809452019160809160005b828110610492575050505090565b835185529381019392810192600101610484565b3461045f5760208060031936011261045f57600435906000918083526005602052604083209060405180938491602085549182815201948752602087209187905b828210610554575050505061050190610511930384610245565b6000526006602052604060002090565b5491815191815b83811061052d576040518061045b8782610464565b8061053a60019284611541565b5161054d6105478661156b565b9561151c565b5201610518565b8354875295860195879450600193840193909101906104e7565b604051906101a082018281106001600160401b038211176101b657604052565b6001600160401b0381116101b65760051b60200190565b9080601f8301121561045f5760209082356105bf8161058e565b936105cd6040519586610245565b81855260208086019260051b82010192831161045f57602001905b8282106105f6575050505090565b813581529083019083016105e8565b9181601f8401121561045f578235916001600160401b03831161045f576020808501948460051b01011161045f57565b3461045f5760408060031936011261045f576001600160401b036004803582811161045f5761066790369083016105a5565b9160243590811161045f5761067f9036908301610605565b909183519060005b8281106106d0575050506106cb6106be7f7b414cb0ad21f3dfa349dbd1d4ca10eeb276661a7af9df6e18086aed7c31c8d694611768565b94519283923391846117c3565b0390a2005b6106da8187611541565b516106f06106e983878961157f565b36916107c8565b9061070d610708826000526004602052604060002090565b6115c0565b61079d57610725816000526001602052604060002090565b54801561078d578951602081019061074f8161074184886115ca565b03601f198101835282610245565b5190200361077d5760019291610772610777926000526004602052604060002090565b611693565b01610687565b88516375b5da0b60e01b81528490fd5b8951637ef41a4f60e01b81528590fd5b8851630388067760e21b81528490fd5b6001600160401b0381116101b657601f01601f191660200190565b9291926107d4826107ad565b916107e26040519384610245565b82948184528183011161045f578281602093846000960137010152565b3461045f57604036600319011261045f576001600160401b0360043581811161045f576108309036906004016105a5565b60249060243583811161045f573660238201121561045f578060040135926108578461058e565b936108656040519586610245565b8085526020956024602087019260051b8501019336851161045f5760248101925b858410610899576108978888611860565b005b833583811161045f5782013660438201121561045f5789916108c58392369060448a82013591016107c8565b815201930192610886565b6001600160a01b0381160361045f57565b3461045f57602036600319011261045f576020600435610900816108d0565b6040517f00000000000000000000000000000000000000000000000000000000000000006001600160a01b039081169216919091148152f35b3461045f57604036600319011261045f5761045b61044760043561095c816108d0565b60243590611cbe565b3461045f57602036600319011261045f5760043560005260016020526020604060002054604051908152f35b3461045f576000806003193601126109ec576109ab612e43565b80546001600160a01b03198116825581906001600160a01b03167f8be0079c531659141344cd1fd0a4f28419497f9722a3daafe3b4186f6b6457e08280a380f35b80fd5b3461045f57602036600319011261045f576020610a0d600435612056565b604051908152f35b3461045f57600036600319011261045f576040517f00000000000000000000000000000000000000000000000000000000000000006001600160a01b03168152602090f35b3461045f5760208060031936011261045f576004356001600160401b0380821161045f573660238301121561045f57816004013590811161045f57602492366024838501011161045f57610aac612e43565b610ac082610abb60025461014b565b6115f8565b600093601f8311600114610b3e575050610b1381807f512c3c91736f50c57a0548c1d01ab02f24c420f002b8b20e2bfe63df9693cd3f95600091610b30575b508160011b916000199060031b1c19161790565b6002555b610b2b604051928392602433920184612104565b0390a1005b602491508501013538610aff565b6002600052601f19831694907f405787fa12a823e0f2b7631cc41b3ba8828b3321ca811111fa75cd3aa3bb5ace9282915b878310610bcf57505050827f512c3c91736f50c57a0548c1d01ab02f24c420f002b8b20e2bfe63df9693cd3f9510610bb2575b5050600181811b01600255610b17565b830160240135600019600384901b60f8161c191690553880610ba2565b908060018596848396978b010135815501950193019190610b6f565b3461045f57600036600319011261045f576000546040516001600160a01b039091168152602090f35b8015150361045f57565b3461045f57608036600319011261045f5761045b610447600435610c41816108d0565b604435610c4d81610c14565b60643591610c5a83610c14565b602435906123c4565b3461045f57604036600319011261045f57600435610c80816108d0565b60405163507f146560e01b815260243591906001600160a01b03906020816004818587165afa8015610d5157610cf79360009386938593610d56575b5060405163c44a8e6d60e01b81526001600160a01b039092166004830152602482019390935260006044820152938492839182906064820190565b0392165afa918215610d515761045b92610d2292600091610d2e575b50610100815191015191612c28565b60405191829182610417565b610d4b91503d806000833e610d438183610245565b810190611ab1565b38610d13565b611a4d565b610d7991935060203d602011610d80575b610d718183610245565b810190611a38565b9138610cbc565b503d610d67565b3461045f57604036600319011261045f576001600160401b0360043581811161045f57610db89036906004016105a5565b9060243590811161045f573660238201121561045f578060040135610ddc8161058e565b91610dea6040519384610245565b8183526020916024602085019160051b8301019136831161045f57602401905b828210610e1b57610897858761259a565b81358152908301908301610e0a565b3461045f57608036600319011261045f5760048035610e48816108d0565b60243590604435926064356001600160401b03811161045f57610e6e9036908301610605565b604080516331a9108f60e11b80825281860188815290986001600160a01b0388811698969791969495946020949093859082908190830103818d5afa908115610d515760009161141a575b5081610ed2610ec6615a30565b6001600160a01b031690565b91160361140b5786156113f45785518b8152848180610ef88b8783019190602083019252565b03818d5afa908115610d51576000916113d7575b5081610f19610ec6615a30565b9116036113c857610f2987612e02565b6113b957855163507f146560e01b8152848184818d5afa8015610d5157610f906000918493839161139c575b50895163c44a8e6d60e01b81526001600160a01b038816878201908152602081018d9052600060408201529094859384928391606090910190565b0392165afa908115610d5157600091611381575b5051156113725786610fc08b6000526006602052604060002090565b5589610fd6886000526007602052604060002090565b559992995b60009a610fe661267d565b508b80928192825b89811061105657508d8d7f6a68946ba06488db8585d7c7637fa954b574035fe15720ea760125ef860172588e8e6110518f8f61103e81866110398b6000526005602052604060002090565b612716565b611046615a30565b91519485948561278f565b0390a3005b889f6110888f8f85918f918f8761106e918f936126ee565b359e8f935195869485938493845283019190602083019252565b03915afa908115610d5157600091611355575b50846110a8610ec6615a30565b911603611345576110b88a612056565b61133557878f84908e519283809263507f146560e01b82525afa8015610d51578b6000918f888d8f92611127978795611316575b505163c44a8e6d60e01b81526001600160a01b0390931690830190815260208101949094526000604085015290948593849291839160600190565b0392165afa908115610d51576000916112fd575b508051156112ed5761010001948551600281109081156112e2575b506112d25782151590816112c6575b506112b6578f9085518981146000146111a15750509060019161119683965b519b6000526008602052604060002090565b55019e97929e610fee565b95979095600581036111bd575050906001916111968398611184565b9097969150600a81036111da5750506001908f6111968397611184565b979f9d9b9e9c9a9998976006819792971480811591826112ac575b80156112a2575b8061129b575b15611219575050508f8f51631e550b6f60e11b8152fd5b90611291575b8061128a575b1561123a57508f8f516354f653b360e01b8152fd5b9d9f9798999a9c9e9b9d600c811490811561127f575b5080611278575b61126857908f611196600193611184565b8b51635e701b2b60e01b81528890fd5b5085611257565b600b91501438611250565b5087611225565b506007811461121f565b5087611202565b50600883146111fc565b50600783146111f5565b8b51637dc0e82560e11b81528890fd5b90508551111538611165565b8c5163c89badbd60e01b81528990fd5b600e91501138611156565b8c516354c0901d60e11b81528990fd5b611310913d8091833e610d438183610245565b3861113b565b61132e9195508b3d8d11610d8057610d718183610245565b93386110ec565b8b5163670bdddd60e11b81528890fd5b8b5163812a698960e01b81528890fd5b61136c9150843d8611610d8057610d718183610245565b3861109b565b50845163265ba87960e01b8152fd5b61139691503d806000833e610d438183610245565b38610fa4565b6113b39150883d8a11610d8057610d718183610245565b38610f55565b50845163670bdddd60e11b8152fd5b508451639d17cec760e01b8152fd5b6113ee9150853d8711610d8057610d718183610245565b38610f0c565b60008a815260066020526040812055999299610fdb565b508451632add3f4b60e01b8152fd5b6114319150853d8711610d8057610d718183610245565b38610eb9565b3461045f57602036600319011261045f57600435611454816108d0565b61145c612e43565b6001600160a01b0390811680156114aa57600080546001600160a01b03198116831782559092167f8be0079c531659141344cd1fd0a4f28419497f9722a3daafe3b4186f6b6457e08380a380f35b604051631e4fbdf760e01b815260006004820152602490fd5b3461045f57606036600319011261045f5761045b610447604435602435600435612c28565b3461045f57602036600319011261045f576020610a0d600435612e02565b634e487b7160e01b600052603260045260246000fd5b60605181101561152f5760051b60800190565b611506565b80511561152f5760200190565b805182101561152f5760209160051b010190565b634e487b7160e01b600052601160045260246000fd5b600019811461157a5760010190565b611555565b919081101561152f5760051b81013590601e198136030182121561045f5701908135916001600160401b03831161045f57602001823603811361045f579190565b610428905461014b565b906115dd602092828151948592016103cf565b0190565b8181106115ec575050565b600081556001016115e1565b90601f8211611605575050565b6102a59160026000527f405787fa12a823e0f2b7631cc41b3ba8828b3321ca811111fa75cd3aa3bb5ace906020601f840160051c8301931061164f575b601f0160051c01906115e1565b9091508190611642565b9190601f811161166857505050565b6102a5926000526020600020906020601f840160051c8301931061164f57601f0160051c01906115e1565b91909182516001600160401b0381116101b6576116ba816116b4845461014b565b84611659565b602080601f83116001146116fd575081906116ee9394956000926116f2575b50508160011b916000199060031b1c19161790565b9055565b0151905038806116d9565b90601f1983169561171385600052602060002090565b926000905b88821061175057505083600195969710611737575b505050811b019055565b015160001960f88460031b161c1916905538808061172d565b80600185968294968601518155019501930190611718565b60405190818183925160208092019160005b82811061178b575050505003902090565b83518552869550938101939281019260010161177a565b908060209392818452848401376000828201840152601f01601f1916010190565b9392919081604086016040875252606085019160608160051b87010192826000905b8382106118075750505050509060206102a59294019060018060a01b03169052565b9091929394605f198982030184528535601e198336030181121561045f578201803560208092016001600160401b03821161045f57813603811361045f576001938392611853926117a2565b97019594019201906117e5565b919061186a612e43565b8251926000935b8085106118be57507f31ddb2f0a32be79206d6bf3e670f8cc38863c4984b95cdbe8ed6eba58207a3a5919293506118aa6118b991611768565b926040519182913390836119c4565b0390a2565b6118c88583611541565b51946118d48185611541565b5195600052600360208181526040600020918851916001600160401b0383116101b65761190b83611905865461014b565b86611659565b8091601f84116001146119505750509080611943926001969798999a6000926116f25750508160011b916000199060031b1c19161790565b90555b0193929190611871565b9091601f1984169a61196786600052602060002090565b936000905b8d82106119ac57505084600198999a9b9c10611992575b50505050831b83019055611946565b01519060f884600019921b161c1916905538808080611983565b8060018597829496860151815501960193019061196c565b909291926040820190604083528051809252606083019160608160051b850101916020809101936000905b838210611a0c5750505050602091509360018060a01b0316910152565b909192938380611a28600193605f198b820301865289516103f2565b97019201920190949392916119ef565b9081602091031261045f5751610428816108d0565b6040513d6000823e3d90fd5b51906102a5826108d0565b51906102a582610c14565b81601f8201121561045f578051611a85816107ad565b92611a936040519485610245565b8184526020828401011161045f5761042891602080850191016103cf565b60208183031261045f5780516001600160401b039182821161045f57016101a08184031261045f57611ae161056e565b92815184526020820151602085015260408201516040850152606082015160608501526080820151608085015260a082015160a0850152611b2460c08301611a59565b60c085015260e082015160e08501526101008083015190850152610120611b4c818401611a64565b90850152610140611b5e818401611a64565b90850152610160611b70818401611a64565b90850152610180928383015190811161045f57611b8d9201611a6f565b9082015290565b60405190611ba18261019b565b60008252565b90604051918260605160005b818110611be857509060206102a593611bdc8294840191838301600081528151948592016103cf565b01038085520183610245565b6020919250806080015182828801015201908491611bb3565b60206102a5919392936040519481611c2287935180928680870191016103cf565b8201611bdc825180938680850191016103cf565b9060208282031261045f5781516001600160401b03811161045f576104289201611a6f565b9081602091031261045f575190565b906102a5603d60405180947f646174613a6170706c69636174696f6e2f6a736f6e3b6261736536342c0000006020830152611cae81518092602086860191016103cf565b810103601d810185520183610245565b6040805163507f146560e01b808252602094929392906001600160a01b03908185168785600481845afa948515610d5157600095612037575b50865163c44a8e6d60e01b81526001600160a01b03871660048201526024810185905260006044820181905290958690606490829087165afa948515610d515760009561201c575b5084511561200c57610100850180519093901561200257611d61865188612eef565b968751611fcb575b875115611e9f575050505094611e8e611e80611e9a96611dfd611e19611dfd98611dfd611e038a611ddf6104289f611db0611dc69d611dda9f92611db79351905191612c28565b92516147b5565b9488519c8d918d8301906115ca565b039b611dda601f199d8e8101835282610245565b61498f565b9651683d913730b6b2911d1160b91b9a81019a8b529c8d9a60090190565b906115ca565b691116101134b2111d101160b11b8152600a0190565b7f222c226465736372697074696f6e223a2241207069656365206f66207468652081527f42616e6e797665727365222c22696d616765223a22646174613a696d6167652f60208201526e1cdd99cade1b5b0ed8985cd94d8d0b608a1b6040820152604f0190565b61227d60f01b815260020190565b03908101835282610245565b611c6a565b92965092600e9195505111600014611fbc578551636c0360eb60e01b8152600081600481885afa8015610d51578891600091611f99575b50955b600488518097819382525afa918215610d5157611f2c968895600094611f7a575b5051630c8df17160e41b81526001600160a01b0390921660048301526024820193909352948592839182906044820190565b0392165afa918215610d515761042893600093611f4b575b5050614704565b611f6b929350803d10611f73575b611f638183610245565b810190611c5b565b903880611f44565b503d611f59565b611f92919450863d8811610d8057610d718183610245565b9238611efa565b611fb691503d806000833e611fae8183610245565b810190611c36565b38611ed6565b86611fc5610266565b95611ed9565b96611fde906001865103611fe457614611565b96611d69565b611ffd90611ff8611ff3612fea565b61454b565b611c01565b614611565b611fde85886121de565b5050505050505050610428611b94565b61203091953d8091833e610d438183610245565b9338611d3f565b61204f919550883d8a11610d8057610d718183610245565b9338611cf7565b600090808252602090600860205260408320549081156120fe578184526005602052604084209260405180948591602082549182815201918852602088209388905b8282106120e4575050506120ae92500384610245565b825192845b8481106120c257505050505090565b826120cd8284611541565b51146120db576001016120b3565b50505091505090565b855484526001958601958995509381019390910190612098565b50505090565b9160209161211d919594956040855260408501916117a2565b6001600160a01b03909416910152565b919060408382031261045f5782519260209081810151906001600160401b03821161045f57019180601f8401121561045f57825161216a8161058e565b936121786040519586610245565b818552838086019260051b82010192831161045f578301905b82821061219f575050505090565b81518152908301908301612191565b3d156121d9573d906121bf826107ad565b916121cd6040519384610245565b82523d6000602084013e565b606090565b60405163507f146560e01b8152906001600160a01b036020836004818585165afa928315610d51576000936123a0575b5060405163c44a8e6d60e01b81526001600160a01b0383166004820152602481018590526000604482018190529093909184916064918391165afa918215610d5157600092612385575b5081511561237a57606061010083015161235457604051630f22bc6f60e11b81526004810194909452610428936122e1929082906000908181602481305afa908160009160009361232d575b5061231f575050906122d9916122b86121ae565b505b80151580612317575b6122fd575b506122d38651614a78565b90611c01565b93519061529a565b80516122ee575b50614611565b6122f791611c01565b386122e8565b612311915061230c9084612eef565b611ba7565b386122c8565b5060016122c3565b9094506122d99291506122ba565b90925061234d91503d806000833e6123458183610245565b81019061212d565b91386122a4565b509061236292505190612eef565b80516123715750610428611b94565b61042890614611565b505050610428611b94565b61239991923d8091833e610d438183610245565b9038612258565b60009193506123bd9060203d602011610d8057610d718183610245565b929061220e565b60405163507f146560e01b8152909390916001600160a01b03602084600481848a165afa938415610d5157600094612576575b5060405163c44a8e6d60e01b81526001600160a01b0387166004820152602481018390526000604482018190529094909185916064918391165afa928315610d515760009361255b575b5082511561254e5760609461010084015161253e57604051630f22bc6f60e11b81526004810192909252610428959182906000908181602481305afa908160009160009361251f575b5061250f5750506124bc92939461249f6121ae565b505b8115159081612507575b506124f2575b506122d38551614a78565b936124ca575b505050614611565b6124d592519061529a565b80516124e3575b80806124c2565b6124ec91611c01565b386124dc565b612501915061230c9084612eef565b386124b1565b9050386124ab565b9091506124bc93945090946124a1565b90925061253791503d806000833e6123458183610245565b913861248a565b9350505061236292505190612eef565b5050505050610428611b94565b61256f91933d8091833e610d438183610245565b9138612441565b60009194506125939060203d602011610d8057610d718183610245565b93906123f7565b6125a2612e43565b805160005b8181106126225750506125b990611768565b9060405190818183925160208092019160005b82811061260b57505050500390206040513381529091907fb0c948934b683b0d319be35a6898bce339f877d721976592196eef848acc69c390602090a3565b8351855286955093810193928101926001016125cc565b61262c8184611541565b516126378286611541565b51908060005260016020526040806000205461266d575090612666600193926000526001602052604060002090565b55016125a7565b516333ded41b60e21b8152600490fd5b604051906101a082018281106001600160401b038211176101b657604052606061018083600080825280602083015280604083015280848301528060808301528060a08301528060c08301528060e08301528061010083015280610120830152806101408301526101608201520152565b919081101561152f5760051b0190565b600281901b91906001600160fe1b0381160361157a57565b906001600160401b0383116101b6576801000000000000000083116101b6578154838355808410612771575b50906000526020806000209060005b84811061275f575050505050565b83358382015592810192600101612751565b612789908360005284602060002091820191016115e1565b38612742565b9081526060602082018190528101839052929392916001600160fb1b03811161045f5760409160809160051b8091838601378301019360018060a01b0316910152565b60226102a59193929360405194816127f48793518092602080870191016103cf565b820161202360f01b602082015261281482518093602087850191016103cf565b01036002810185520183610245565b906102a5602960405180946802a37b83834b7339d160bd1b602083015261285381518092602086860191016103cf565b8101036009810185520183610245565b906102a5602660405180946502334b9ba1d160d51b602083015261289081518092602086860191016103cf565b8101036006810185520183610245565b906102a5602d60405180946c029bab4ba103137ba3a37b69d1609d1b60208301526128d481518092602086860191016103cf565b810103600d810185520183610245565b906102a5602a604051809469029bab4ba103a37b81d160b51b602083015261291581518092602086860191016103cf565b810103600a810185520183610245565b906102a56026604051809465029bab4ba1d160d51b602083015261289081518092602086860191016103cf565b906102a5602660405180946502432b0b21d160d51b602083015261289081518092602086860191016103cf565b906102a5602660405180946502430b4b91d160d51b602083015261289081518092602086860191016103cf565b906102a56027604051809466026b7baba341d160cd1b60208301526129da81518092602086860191016103cf565b8101036007810185520183610245565b906102a56026604051809465022bcb2b99d160d51b602083015261289081518092602086860191016103cf565b906102a5602660405180946502330b1b29d160d51b602083015261289081518092602086860191016103cf565b906102a5602a60405180946902732b1b5b630b1b29d160b51b602083015261291581518092602086860191016103cf565b906102a5602660405180946502632b3b99d160d51b602083015261289081518092602086860191016103cf565b906102a5602a60405180946902130b1b5b9b4b2329d160b51b602083015261291581518092602086860191016103cf565b906102a5602760405180946602bb7b936321d160cd1b60208301526129da81518092602086860191016103cf565b906102a56035604051809474027b934b3b4b730b6102730b5b2b2102130b7373c9605d1b6020830152612b3d81518092602086860191016103cf565b8101036015810185520183610245565b906102a56033604051809472027b930b733b2902730b5b2b2102130b7373c9606d1b6020830152612b8781518092602086860191016103cf565b8101036013810185520183610245565b906102a5603160405180947002834b735902730b5b2b2102130b7373c9607d1b6020830152612bcf81518092602086860191016103cf565b8101036011810185520183610245565b906102a56032604051809471020b634b2b7102730b5b2b2102130b7373c960751b6020830152612c1881518092602086860191016103cf565b8101036012810185520183610245565b91633b9aca0083069160018103612c4d57505050612c48610428916147b5565b612bdf565b60028103612c6957505050612c64610428916147b5565b612b97565b60038103612c8557505050612c80610428916147b5565b612b4d565b60048103612ca157505050612c9c610428916147b5565b612b01565b612cc191929350612cbc906000526003602052604060002090565b61032c565b9180612dcc575b5060018103612cdb575061042890612ad3565b60028103612ced575061042890612aa2565b60098103612cff575061042890612a75565b60038103612d11575061042890612a44565b60058103612d23575061042890612a17565b60068103612d355750610428906129ea565b60078103612d475750610428906129ac565b60088103612d5957506104289061297f565b60048103612d6b575061042890612952565b600a8103612d7d575061042890612925565b600c8103612d8f5750610428906128e4565b600b8103612da15750610428906128a0565b600d8103612db3575061042890612863565b600e14612dc35750610428611b94565b61042890612823565b9091805115600014612dea5750612de2906147b5565b905b38612cc8565b612df6612dfc926147b5565b906127d2565b90612de4565b806000526007602052604060002054908115908115612e2a575b50612e245790565b50600090565b9050816000526006602052604060002054141538612e1c565b6000546001600160a01b0390811681612e5a615a30565b1603612e635750565b602490612e6e615a30565b60405163118cdaa760e01b815291166004820152fd5b906102a5604960405180946c1e34b6b0b3b290343932b31e9160991b6020830152612eb9815180926020602d860191016103cf565b81017f222077696474683d2234303022206865696768743d22343030222f3e00000000602d820152036029810185520183610245565b612f06612cbc836000526004602052604060002090565b8051612fe4575060405163507f146560e01b81526001600160a01b039260209283836004818489165afa908115610d5157612f79958594600093612fc5575b50604051632f54648f60e21b81526001600160a01b0390921660048301526024820193909352948592839182906044820190565b0392165afa8015610d515761042892612fa392600092612fa8575b5050612f9e610266565b614704565b612e84565b612fbe9250803d10611f7357611f638183610245565b3880612f94565b612fdd919350853d8711610d8057610d718183610245565b9138612f45565b91505090565b60405190612ff7826101bb565b61117a82527f762d31306833762d376833762d33682d31307a222f3e3c2f673e000000000000611180837f3c6720636c6173733d226131223e3c7061746820643d224d313733203533683460208201527f763137682d347a222f3e3c2f673e3c6720636c6173733d226132223e3c70617460408201527f6820643d224d3136372035376833763130682d337a222f3e3c7061746820643d60608201527f224d3136392035336834763137682d347a222f3e3c2f673e3c6720636c61737360808201527f3d226133223e3c7061746820643d224d31363720353368337634682d337a222f60a08201527f3e3c7061746820643d224d3136332035376834763130682d347a222f3e3c706160c08201527f746820643d224d31363720363768337633682d337a222f3e3c2f673e3c67206360e08201527f6c6173733d226231223e3c7061746820643d224d32313320323533682d33762d6101008201527f332d33682d33762d372d33682d34762d3130682d33762d372d372d33682d33766101208201527f2d3733682d34762d3130682d33762d3130682d33762d37682d34762d37682d336101408201527f762d33682d33762d33682d3476313068347631306833763130683376336834766101608201527f37203320373020336833763768337632306834763768337633683376336834766101808201527f34683376336833762d332d347a222f3e3c7061746820643d224d3235332033306101a08201527f37762d34682d33762d33682d33762d33682d34762d34682d33762d33682d33766101c08201527f2d33682d34762d34682d33762d33682d33762d33682d34762d34682d33762d366101e08201527f682d33762d37682d3476313768347633683376336833203476346833763368336102008201527f76336834763468337633683376336834763468337633683376336834762d36686102208201527f2d347a222f3e3c2f673e3c6720636c6173733d226232223e3c7061746820643d6102408201527f224d32353020333130762d33682d33762d34682d34762d33682d33762d33682d6102608201527f33762d34682d34762d33682d33762d33682d33762d34682d37762d33682d33766102808201527f2d33682d34762d3137682d33762d33682d33762d34682d34762d33682d33762d6102a08201527f33682d33762d37682d34762d3230682d33762d37682d33762d37332d332d37686102c08201527f2d34762d33682d33762d3130682d33762d3130682d34563730682d33762d336c6102e08201527f2d332031303020332d313030763430682d33763130682d347636682d337631346103008201527f682d337633203133682d347634346834763136683376313468337631336834766103208201527f31306833763768337633683476336833763468337633683476336833763468336103408201527f76336834763368337637683776376836763368377633683776346831337633686103608201527f337633683130762d33682d337a6d2d3130332d3837762d31366833762d3130686103808201527f2d337636682d34763137682d337631306833762d3768347a222f3e3c706174686103a08201527f20643d224d3134332032333068347637682d347a6d3420313068337633682d336103c08201527f7a6d33203768337633682d337a6d33203668347634682d347a222f3e3c7061746103e08201527f6820643d224d31363320323537682d36763368337633683376346834762d342d6104008201527f33682d34762d337a222f3e3c2f673e3c6720636c6173733d226233223e3c70616104208201527f746820643d224d3134332031393776366834762d366836762d34346834762d316104408201527f366833762d31346833762d366834762d31306833563937682d377636682d33766104608201527f34682d337633682d347633682d3376342033682d3376332034682d34763130686104808201527f2d337631362034682d337634366833762d3668337a222f3e3c7061746820643d6104a08201527f224d313430203230336833763137682d337a222f3e3c7061746820643d224d316104c08201527f3337203232306833763130682d337a222f3e3c7061746820643d224d313533206104e08201527f323530682d33762d37682d33762d36682d34762d37682d3376313068337637686105008201527f347636683376346833762d377a6d2d3320313068337637682d337a222f3e3c706105208201527f61746820643d224d3134372032353768337633682d337a6d36203068347633686105408201527f2d347a222f3e3c7061746820643d224d31363020323633762d33682d337633206105608201527f376836762d37682d337a6d2d31302d3536763136682d337637683376313068336105808201527f763768347636683676346837762d342d33682d33762d3130682d34762d3133686105a08201527f2d33762d3134682d33762d3136682d34763130682d337a222f3e3c70617468206105c08201527f643d224d32343320333133762d33682d33762d33682d31302d33762d34682d376105e08201527f762d33682d37762d33682d36762d37682d37762d37682d33762d33682d34762d6106008201527f33682d33762d34682d33762d33682d34762d33682d33762d34682d33762d33686106208201527f2d34762d33682d33763130682d337633682d347633682d3376376833763768346106408201527f76366833763568347633683676336833763368342033763368332034763368336106608201527f20337634683130763368372037203376336831302033762d33683130762d33686106808201527f34762d34682d31347a222f3e3c2f673e3c6720636c6173733d226234223e3c706106a08201527f61746820643d224d3138332031333068347637682d347a222f3e3c70617468206106c08201527f643d224d3138302031323768337633682d337a6d2d32372d3468347637682d346106e08201527f7a222f3e3c7061746820643d224d3135372031313768337636682d337a222f3e6107008201527f3c7061746820643d224d3136302031313068337637682d337a222f3e3c7061746107208201527f6820643d224d3136332031303768347633682d347a6d2d3320383368337637686107408201527f2d337a222f3e3c7061746820643d224d3136332031383768347633682d347a6d6107608201527f3230203068377633682d377a222f3e3c7061746820643d224d313830203139306107808201527f68337633682d337a6d31302d3768337634682d337a222f3e3c7061746820643d6107a08201527f224d3139332031383768347636682d347a6d2d323020353368347637682d347a6107c08201527f222f3e3c7061746820643d224d3137372032343768337636682d337a222f3e3c6107e08201527f7061746820643d224d3138302032353368337637682d337a222f3e3c706174686108008201527f20643d224d3138332032363068377633682d377a222f3e3c7061746820643d226108208201527f4d3139302032363368337634682d337a6d302d323068337634682d337a222f3e6108408201527f3c7061746820643d224d3138372032343068337633682d337a222f3e3c7061746108608201527f6820643d224d3139302032333768337633682d337a6d313320323368347633686108808201527f2d347a222f3e3c7061746820643d224d3230372032363368337637682d337a226108a08201527f2f3e3c7061746820643d224d3231302032373068337633682d337a6d2d3130206108c08201527f3768337636682d337a222f3e3c7061746820643d224d323033203238336834766108e08201527f37682d347a222f3e3c7061746820643d224d3230372032393068367633682d366109008201527f7a222f3e3c2f673e3c6720636c6173733d226f223e3c7061746820643d224d316109208201527f3333203135376834763530682d347a6d302036336834763130682d347a6d32376109408201527f2d3136336833763130682d337a222f3e3c7061746820643d224d3136332035336109608201527f68347634682d347a222f3e3c7061746820643d224d31363720353068313076336109808201527f682d31307a222f3e3c7061746820643d224d3137372035336833763137682d336109a08201527f7a222f3e3c7061746820643d224d3137332037306834763237682d347a6d2d366109c08201527f20306833763237682d337a222f3e3c7061746820643d224d31363320363768346109e08201527f7633682d347a6d3020333068347633682d347a222f3e3c7061746820643d224d610a008201527f3136302031303068337633682d337a222f3e3c7061746820643d224d31353720610a208201527f31303368337634682d337a222f3e3c7061746820643d224d3135332031303768610a408201527f347633682d347a222f3e3c7061746820643d224d313530203131306833763368610a608201527f2d337a222f3e3c7061746820643d224d3134372031313368337637682d337a22610a808201527f2f3e3c7061746820643d224d3134332031323068347637682d347a222f3e3c70610aa08201527f61746820643d224d313430203132376833763130682d337a222f3e3c70617468610ac08201527f20643d224d313337203133376833763230682d337a6d35362d31306834763130610ae08201527f682d347a222f3e3c7061746820643d224d313930203131376833763130682d33610b008201527f7a222f3e3c7061746820643d224d3138372031313068337637682d337a222f3e610b208201527f3c7061746820643d224d3138332031303368347637682d347a222f3e3c706174610b408201527f6820643d224d3138302031303068337633682d337a222f3e3c7061746820643d610b608201527f224d31373720393768337633682d337a6d2d3430203130366833763137682d33610b808201527f7a6d302032376833763130682d337a6d313020333068337637682d337a222f3e610ba08201527f3c7061746820643d224d31353020323537762d34682d33762d36682d34762d37610bc08201527f682d3376313068337631306834762d3368337a222f3e3c7061746820643d224d610be08201527f3135302032353768337633682d337a222f3e3c7061746820643d224d31363320610c008201527f323733762d33682d36762d3130682d347637682d337633683376336834763768610c208201527f33762d3768337a222f3e3c7061746820643d224d313633203236376834763368610c408201527f2d347a222f3e3c7061746820643d224d31373020323537682d332d3476336834610c608201527f76376833762d31307a222f3e3c7061746820643d224d31353720323533683676610c808201527f34682d367a222f3e3c7061746820643d224d3135332032343768347636682d34610ca08201527f7a222f3e3c7061746820643d224d3135302032343068337637682d337a222f3e610cc08201527f3c7061746820643d224d313437203233306833763130682d337a6d3133203530610ce08201527f68337637682d337a222f3e3c7061746820643d224d3134332032323368347637610d008201527f682d347a222f3e3c7061746820643d224d313437203230376833763136682d33610d208201527f7a222f3e3c7061746820643d224d313530203139376833763130682d337a6d2d610d408201527f3130203068337636682d337a6d35302031313368377633682d377a6d32332031610d608201527f306831377633682d31377a222f3e3c7061746820643d224d3233302033323368610d808201527f31337634682d31337a222f3e3c7061746820643d224d32343320333230683130610da08201527f7633682d31307a222f3e3c7061746820643d224d323533203331376834763368610dc08201527f2d347a222f3e3c7061746820643d224d323537203330376833763130682d337a610de08201527f222f3e3c7061746820643d224d3235332033303368347634682d347a222f3e3c610e008201527f7061746820643d224d3235302033303068337633682d337a222f3e3c70617468610e208201527f20643d224d3234372032393768337633682d337a222f3e3c7061746820643d22610e408201527f4d3234332032393368347634682d347a222f3e3c7061746820643d224d323430610e608201527f2032393068337633682d337a222f3e3c7061746820643d224d32333720323837610e808201527f68337633682d337a222f3e3c7061746820643d224d3233332032383368347634610ea08201527f682d347a222f3e3c7061746820643d224d3233302032383068337633682d337a610ec08201527f222f3e3c7061746820643d224d3232372032373768337633682d337a222f3e3c610ee08201527f7061746820643d224d3232332032373368347634682d347a222f3e3c70617468610f008201527f20643d224d3232302032363768337636682d337a222f3e3c7061746820643d22610f208201527f4d3231372032363068337637682d337a222f3e3c7061746820643d224d323133610f408201527f2032353368347637682d347a222f3e3c7061746820643d224d32313020323437610f608201527f68337636682d337a222f3e3c7061746820643d224d3230372032333768337631610f808201527f30682d337a222f3e3c7061746820643d224d323033203232376834763130682d610fa08201527f347a6d2d343020363068347636682d347a6d323420323068337633682d337a22610fc08201527f2f3e3c7061746820643d224d3136372032393368337635682d337a6d31362031610fe08201527f3468347633682d347a222f3e3c7061746820643d224d313730203239386834766110008201527f33682d347a6d3130203668337633682d337a222f3e3c7061746820643d224d316110208201527f37342033303168367633682d367a6d323320313268367634682d367a222f3e3c6110408201527f7061746820643d224d323033203331376831307633682d31307a6d2d322d31306110608201527f37762d3733682d3476373368337631376833762d3137682d327a222f3e3c2f676110808201527f3e3c6720636c6173733d226f223e3c7061746820643d224d31383720333037766110a08201527f2d346833762d36682d33762d34682d34762d33682d33762d33682d37762d34686110c08201527f2d367634682d3476336834763237682d34763133682d33763130682d347637686110e08201527f3476336833203130203134762d33682d34762d34682d33762d33682d33762d336111008201527f682d34762d376834762d31306833762d376833762d336837762d33682d337a6d6111208201527f3136203130762d34682d36763137682d34763130682d337637683376336834206111408201527f3620342033203134762d33682d34762d34682d37762d33682d33762d33682d336111608201520152565b906102a5609a60405180947f3c7374796c653e2e6f7b66696c6c3a233830383038303b7d2e62327b66696c6c60208301527f3a6e6f6e653b7d2e62337b66696c6c3a6e6f6e653b7d2e62347b66696c6c3a6e60408301527f6f6e653b7d2e61317b66696c6c3a6e6f6e653b7d2e61327b66696c6c3a6e6f6e60608301527f653b7d2e61337b66696c6c3a6e6f6e653b7d3c2f7374796c653e000000000000608083015261460181518092602086860191016103cf565b810103607a810185520183610245565b906102a560ba60405180947f3c7376672077696474683d2234303022206865696768743d223430302220766960208301527f6577426f783d223020302034303020343030222066696c6c3d226e6f6e65222060408301527f786d6c6e733d22687474703a2f2f7777772e77332e6f72672f323030302f737660608301527f67223e3c7374796c653e2e6f7b66696c6c3a233035303530353b7d2e777b666960808301527336361d11b31cb31cb31c9dbe9e17b9ba3cb6329f60611b60a08301526146e581518092602060b4860191016103cf565b8101651e17b9bb339f60d11b60b482015203609a810185520183610245565b9061042890614732604051602092609160f51b8483015260228201526022815261472d816101d7565b615593565b92604051938161474b86935180928680870191016103cf565b820161475f825180938680850191016103cf565b01038084520182610245565b6040516147778161019b565b60008152906000368137565b9061478d826107ad565b61479a6040519182610245565b82815280926147ab601f19916107ad565b0190602036910137565b806000917a184f03e93ff9f4daa797ed6e38ed64bf6a1f010000000000000000808210156148eb575b506d04ee2d6d415b85acef8100000000808310156148dc575b50662386f26fc10000808310156148cd575b506305f5e100808310156148be575b50612710808310156148af575b50606482101561489f575b600a80921015614895575b60019081602161484d60018701614783565b95860101905b61485f575b5050505090565b600019019083906f181899199a1a9b1b9c1cb0b131b232b360811b8282061a83530491821561489057919082614853565b614858565b916001019161483b565b9190606460029104910191614830565b60049193920491019138614825565b60089193920491019138614818565b60109193920491019138614809565b602091939204910191386147f7565b6040935081049150386147de565b60405190614906826101d7565b604082527f6768696a6b6c6d6e6f707172737475767778797a303132333435363738392b2f6040837f4142434445464748494a4b4c4d4e4f505152535455565758595a61626364656660208201520152565b906002820180921161157a57565b906020820180921161157a57565b906001820180921161157a57565b9190820180921161157a57565b805115614a6f5761499e6148f9565b6149ba6149b56149ae8451614958565b6003900490565b6126fe565b916149cc6149c784614966565b614783565b92835280815182019060208501935b828210614a1d57505050600390510680600114614a0c576002146149fd575090565b603d60f81b6000199091015290565b50613d3d60f01b6001199091015290565b9091936004906003809401938451600190603f9082828260121c16880101518553828282600c1c16880101518386015382828260061c16880101516002860153168501015190820153019391906149db565b50610428611b94565b614a8190615904565b92614a90969596929192612fea565b9460405197889760208901703c7374796c653e2e62317b66696c6c3a2360781b90528051908160318b019160200191614ac8926103cf565b8801603181016b3b7d2e62327b66696c6c3a2360a01b905281519182603d83019160200191614af6926103cf565b01603d81016b3b7d2e62337b66696c6c3a2360a01b905281519182604983019160200191614b23926103cf565b0160498101614b40906b3b7d2e62347b66696c6c3a2360a01b9052565b605501614b4c916115ca565b6b3b7d2e61317b66696c6c3a2360a01b8152600c01614b6a916115ca565b6b3b7d2e61327b66696c6c3a2360a01b8152600c01614b88916115ca565b6b3b7d2e61337b66696c6c3a2360a01b8152600c01614ba6916115ca565b691dbe9e17b9ba3cb6329f60b11b8152600a01614bc2916115ca565b03601f19810182526104289082610245565b60405190614be1826101f2565b61019c82527f6820643d224d3139332031373068347633682d347a222f3e3c2f673e000000006101a0837f3c6720636c6173733d226f223e3c7061746820643d224d31393020313733682d60208201527f3337762d33682d3130762d34682d36763468337633682d33763468367633683160408201527f307634683337762d346833762d33682d33762d347a6d2d34302034682d33762d60608201527f34683376347a6d372033762d3368337633682d337a6d362030762d336834763360808201527f682d347a6d372030762d3368337633682d337a6d372030762d3368337633682d60a08201527f337a6d31302030682d34762d33683476337a222f3e3c7061746820643d224d3160c08201527f39302031373068337633682d337a222f3e3c7061746820643d224d313933203160e08201527f363668347634682d347a6d30203768347634682d347a222f3e3c2f673e3c67206101008201527f636c6173733d2277223e3c7061746820643d224d3133372031373068337633686101208201527f2d337a6d3130203368337634682d337a6d3130203468337633682d337a6d36206101408201527f3068347633682d347a6d37203068337633682d337a6d37203068337633682d336101608201527f7a6d36203068347633682d347a6d372d3468337634682d337a222f3e3c7061746101808201520152565b6040519061010082018281106001600160401b038211176101b65760405260dd82527f746820643d224d3138302031343768337633682d337a222f3e3c2f673e00000060e0837f3c6720636c6173733d226f223e3c7061746820643d224d31373720313430763360208201527f6836763131683130762d31316834762d33682d32307a222f3e3c70617468206460408201527f3d224d31353320313430763368377638203368372033762d31316833762d336860608201527f2d32307a222f3e3c2f673e3c6720636c6173733d2277223e3c7061746820643d60808201527f224d3135332031343368377634682d377a222f3e3c7061746820643d224d313560a08201527f372031343768337633682d337a6d32302d3468367634682d367a222f3e3c706160c08201520152565b60405190614f178261020e565b61023a82527f643d224d3139302031333768347633682d347a222f3e3c2f673e000000000000610240837f3c6720636c6173733d226f223e3c7061746820643d224d31393020313237683360208201527f7633682d337a6d3320313368347633682d347a6d2d3432203068367636682d3660408201527f7a222f3e3c7061746820643d224d3135312031333368337637682d337a6d313060608201527f203068367634682d367a222f3e3c7061746820643d224d31353720313337683160808201527f377636682d31377a6d332031336831347633682d31347a6d31372d313368377660a08201527f3136682d377a222f3e3c7061746820643d224d3138342031333768367636682d60c08201527f367a6d302031306831307636682d31307a222f3e3c7061746820643d224d313860e08201527f37203134336831307634682d31307a222f3e3c7061746820643d224d313930206101008201527f31343068337633682d337a6d2d362d313068337637682d337a222f3e3c7061746101208201527f6820643d224d3138372031333068367633682d367a6d2d3336203068313076336101408201527f682d31307a6d313620313368377637682d377a6d2d3130203068377637682d376101608201527f7a222f3e3c7061746820643d224d3136342031343768337633682d337a6d32396101808201527f2d323068347636682d347a222f3e3c7061746820643d224d31393420313333686101a08201527f337637682d337a222f3e3c2f673e3c6720636c6173733d2277223e3c706174686101c08201527f20643d224d3135342031333368377634682d377a222f3e3c7061746820643d226101e08201527f4d3135342031333768337633682d337a6d3130203668337634682d337a6d32306102008201527f203068337634682d337a6d332d313068377634682d377a222f3e3c70617468206102208201520152565b6040519060c082018281106001600160401b038211176101b65760405260818252601f60f91b60a0837f3c6720636c6173733d226f223e3c7061746820643d224d31383320313630762d60208201527f34682d32307634682d33763368337634683234762d37682d347a6d2d3133203360408201527f762d336831307633682d31307a222066696c6c3d2223616437316338222f3e3c60608201527f7061746820643d224d313730203136306831307633682d31307a222f3e3c2f6760808201520152565b9092916060938151916000928391849085869160039460038110600014615526576152c481614974565b985b8981106152da575050505050505050505050565b8181101561551a576152ec8184611541565b516040805163507f146560e01b8152919791602060048f6001600160a01b03838584818585165afa928315610d5157615367966000968f9688966154fb575b50505163c44a8e6d60e01b81526001600160a01b0390931690830190815260208101949094526000604085015290948593849291839160600190565b0392165afa8015610d5157610100916000916154e2575b500151985b8989036154b357506001985b60058181036153c6575050506001955b806153ae575b506001016152c6565b6001919d6122d36153bf928e612eef565b9c906153a5565b8198929811806154ab575b6153dc575b5061539f565b90959094600680870361545f5750506001945b600790808203615430575050506001945b8480615429575b80615421575b615418575b386153d6565b60019650615412565b50861561540d565b5085615407565b9691961180615457575b156154005794509b61544e906122d36151d5565b9b600194615400565b50851561543a565b86919611806154a3575b156153ef57945060019d8e8b1460001461549157615489906122d3614f0a565b9d5b946153ef565b61549d906122d3614ddc565b9d61548b565b508515615469565b5087156153d1565b98888111806154da575b1561538f5798509c6154d1906122d3614bd4565b9c60019861538f565b5089156154bd565b6154f5913d8091833e610d438183610245565b3861537e565b615512929650803d10610d8057610d718183610245565b93388061532b565b60089795600096615383565b80986152c6565b604051906105e082018281106001600160401b038211176101b657604052602e82526105c0366020840137565b906155648261058e565b6155716040519182610245565b82815280926147ab601f199161058e565b90815181101561152f570160200190565b908151156156ba576155a361552d565b9160009060006155b285611534565b526001918151916000925b8084106155e357505050506155d96155de916104289394615a89565b615acc565b615b13565b9091929461561461560e6156086155fa8987615582565b516001600160f81b03191690565b60f81c90565b60ff1690565b9184925b60ff9089828916861015615679576001929161564d61564761560e6156408a61565396611541565b5160ff1690565b60081b90565b90614982565b6156708b61566888603a958686061692611541565b9060ff169052565b04930192615618565b50919594935050809691965b6156935750600101926155bd565b9460ff6001603a926156b083858b06166156688d86851690611541565b0116950480615685565b905061042861476b565b604051906156d18261022a565b600682526506666653930360d41b6020830152565b604051906156f38261022a565b600682526506666633730360d41b6020830152565b604051906157158261022a565b600682526566336136303360d01b6020830152565b604051906157378261022a565b600682526539363561316160d01b6020830152565b604051906157598261022a565b600682526533331bb1981960d11b6020830152565b6040519061577b8261022a565b600682526506664333630360d41b6020830152565b6040519061579d8261022a565b600682526518cccc994c1960d21b6020830152565b604051906157bf8261022a565b600682526566666438633560d01b6020830152565b604051906157e18261022a565b600682526566663936613960d01b6020830152565b604051906158038261022a565b600682526533329a9c1c3160d11b6020830152565b604051906158258261022a565b600682526563393266343560d01b6020830152565b604051906158478261022a565b600682526536376437353760d01b6020830152565b604051906158698261022a565b600682526503330613232360d41b6020830152565b6040519061588b8261022a565b600682526532313761313560d01b6020830152565b604051906158ad8261022a565b60048252636e6f6e6560e01b6020830152565b604051906158cd8261022a565b6006825265329a1c19b2b360d11b6020830152565b604051906158ef8261022a565b60068252653231993332b360d11b6020830152565b6001810361594b575061591561583a565b9061591e61585c565b9061592761587e565b906159306158a0565b906159396158c0565b906159426158e2565b906104286158e2565b60028103615992575061595c6157b2565b906159656157d4565b9061596e6157f6565b90615977615818565b906159806157b2565b906159896157d4565b906104286157f6565b600381036159d957506159a3615708565b906159ac61574c565b906159b561576e565b906159be615790565b906159c7615708565b906159d061574c565b9061042861576e565b6004146159f257604051630992899d60e31b8152600490fd5b6159fa6156c4565b90615a036156e6565b90615a0c615708565b90615a1561572a565b90615a1e6156c4565b90615a276156e6565b90610428615708565b337f00000000000000000000000000000000000000000000000000000000000000006001600160a01b03161480615a7e575b15615a7a57601319360136811161157a573560601c90565b3390565b506014361015615a62565b9060ff80911690615a998261555a565b9260005b838110615aab575050505090565b8083615ab960019385611541565b5116615ac58288611541565b5201615a9d565b908151615ad88161555a565b9060005b818110615aea575090925050565b60019060ff615b00600019838951030188611541565b5116615b0c8286611541565b5201615adc565b8051615b1e816107ad565b91604090615b2f6040519485610245565b828452615b3b836107ad565b602090601f1901368683013760009260005b858110615b5d5750505050505090565b6001908251615b6b816101d7565b603a81527f31323334353637383941424344454647484a4b4c4d4e50515253545556575859858201527f5a6162636465666768696a6b6d6e6f707172737475767778797a000000000000848201526001600160f81b031990615bdb9060ff615bd3858a611541565b511690615582565b5116861a615be9828a615582565b5301615b4d56fea2646970667358221220d2d089007e84f868f8fa49522cc6ecd6c572213d221345ee93ea5e39d1a002bd64736f6c63430008170033",
			"deployedBytecode": "0x6080604052600436101561001257600080fd5b60003560e01c806257bfdd146101465780631e4578de1461014157806331a290ac1461013c5780634d03376e14610137578063572b6c05146101325780635e703e711461012d5780636aff31dd14610128578063715018a6146101235780637508ac831461011e5780637da0a87714610119578063875e4bea146101145780638da5cb5b1461010f578063a22d0dd51461010a578063aeac5e3514610105578063b03a3eab14610100578063c06e7bc7146100fb578063f2fde38b146100f6578063f92df2e3146100f15763f9fed041146100ec57600080fd5b6114e8565b6114c3565b611437565b610e2a565b610d87565b610c63565b610c1e565b610beb565b610a5a565b610a15565b6109ef565b610991565b610965565b610939565b6108e1565b6107ff565b610635565b6104a6565b61042b565b90600182811c9216801561017b575b602083101461016557565b634e487b7160e01b600052602260045260246000fd5b91607f169161015a565b634e487b7160e01b600052604160045260246000fd5b602081019081106001600160401b038211176101b657604052565b610185565b6111a081019081106001600160401b038211176101b657604052565b606081019081106001600160401b038211176101b657604052565b6101c081019081106001600160401b038211176101b657604052565b61026081019081106001600160401b038211176101b657604052565b604081019081106001600160401b038211176101b657604052565b90601f801991011681019081106001600160401b038211176101b657604052565b604051906000826002549161027a8361014b565b8083529260209060019081811690811561030857506001146102a7575b50506102a592500383610245565b565b91509260026000527f405787fa12a823e0f2b7631cc41b3ba8828b3321ca811111fa75cd3aa3bb5ace936000925b8284106102f057506102a59450505081016020013880610297565b855488850183015294850194879450928101926102d5565b915050602092506102a594915060ff191682840152151560051b8201013880610297565b9060405191826000825461033f8161014b565b908184526020946001916001811690816000146103ad575060011461036e575b5050506102a592500383610245565b600090815285812095935091905b8183106103955750506102a5935082010138808061035f565b8554888401850152948501948794509183019161037c565b925050506102a594925060ff191682840152151560051b82010138808061035f565b60005b8381106103e25750506000910152565b81810151838201526020016103d2565b9060209161040b815180928185528580860191016103cf565b601f01601f1916010190565b9060206104289281815201906103f2565b90565b3461045f57600036600319011261045f5761045b610447610266565b6040519182916020835260208301906103f2565b0390f35b600080fd5b604081019181526060602091604060208201528151809452019160809160005b828110610492575050505090565b835185529381019392810192600101610484565b3461045f5760208060031936011261045f57600435906000918083526005602052604083209060405180938491602085549182815201948752602087209187905b828210610554575050505061050190610511930384610245565b6000526006602052604060002090565b5491815191815b83811061052d576040518061045b8782610464565b8061053a60019284611541565b5161054d6105478661156b565b9561151c565b5201610518565b8354875295860195879450600193840193909101906104e7565b604051906101a082018281106001600160401b038211176101b657604052565b6001600160401b0381116101b65760051b60200190565b9080601f8301121561045f5760209082356105bf8161058e565b936105cd6040519586610245565b81855260208086019260051b82010192831161045f57602001905b8282106105f6575050505090565b813581529083019083016105e8565b9181601f8401121561045f578235916001600160401b03831161045f576020808501948460051b01011161045f57565b3461045f5760408060031936011261045f576001600160401b036004803582811161045f5761066790369083016105a5565b9160243590811161045f5761067f9036908301610605565b909183519060005b8281106106d0575050506106cb6106be7f7b414cb0ad21f3dfa349dbd1d4ca10eeb276661a7af9df6e18086aed7c31c8d694611768565b94519283923391846117c3565b0390a2005b6106da8187611541565b516106f06106e983878961157f565b36916107c8565b9061070d610708826000526004602052604060002090565b6115c0565b61079d57610725816000526001602052604060002090565b54801561078d578951602081019061074f8161074184886115ca565b03601f198101835282610245565b5190200361077d5760019291610772610777926000526004602052604060002090565b611693565b01610687565b88516375b5da0b60e01b81528490fd5b8951637ef41a4f60e01b81528590fd5b8851630388067760e21b81528490fd5b6001600160401b0381116101b657601f01601f191660200190565b9291926107d4826107ad565b916107e26040519384610245565b82948184528183011161045f578281602093846000960137010152565b3461045f57604036600319011261045f576001600160401b0360043581811161045f576108309036906004016105a5565b60249060243583811161045f573660238201121561045f578060040135926108578461058e565b936108656040519586610245565b8085526020956024602087019260051b8501019336851161045f5760248101925b858410610899576108978888611860565b005b833583811161045f5782013660438201121561045f5789916108c58392369060448a82013591016107c8565b815201930192610886565b6001600160a01b0381160361045f57565b3461045f57602036600319011261045f576020600435610900816108d0565b6040517f000000000000000000000000b2b5841dbef766d4b521221732f9b618fcf34a876001600160a01b039081169216919091148152f35b3461045f57604036600319011261045f5761045b61044760043561095c816108d0565b60243590611cbe565b3461045f57602036600319011261045f5760043560005260016020526020604060002054604051908152f35b3461045f576000806003193601126109ec576109ab612e43565b80546001600160a01b03198116825581906001600160a01b03167f8be0079c531659141344cd1fd0a4f28419497f9722a3daafe3b4186f6b6457e08280a380f35b80fd5b3461045f57602036600319011261045f576020610a0d600435612056565b604051908152f35b3461045f57600036600319011261045f576040517f000000000000000000000000b2b5841dbef766d4b521221732f9b618fcf34a876001600160a01b03168152602090f35b3461045f5760208060031936011261045f576004356001600160401b0380821161045f573660238301121561045f57816004013590811161045f57602492366024838501011161045f57610aac612e43565b610ac082610abb60025461014b565b6115f8565b600093601f8311600114610b3e575050610b1381807f512c3c91736f50c57a0548c1d01ab02f24c420f002b8b20e2bfe63df9693cd3f95600091610b30575b508160011b916000199060031b1c19161790565b6002555b610b2b604051928392602433920184612104565b0390a1005b602491508501013538610aff565b6002600052601f19831694907f405787fa12a823e0f2b7631cc41b3ba8828b3321ca811111fa75cd3aa3bb5ace9282915b878310610bcf57505050827f512c3c91736f50c57a0548c1d01ab02f24c420f002b8b20e2bfe63df9693cd3f9510610bb2575b5050600181811b01600255610b17565b830160240135600019600384901b60f8161c191690553880610ba2565b908060018596848396978b010135815501950193019190610b6f565b3461045f57600036600319011261045f576000546040516001600160a01b039091168152602090f35b8015150361045f57565b3461045f57608036600319011261045f5761045b610447600435610c41816108d0565b604435610c4d81610c14565b60643591610c5a83610c14565b602435906123c4565b3461045f57604036600319011261045f57600435610c80816108d0565b60405163507f146560e01b815260243591906001600160a01b03906020816004818587165afa8015610d5157610cf79360009386938593610d56575b5060405163c44a8e6d60e01b81526001600160a01b039092166004830152602482019390935260006044820152938492839182906064820190565b0392165afa918215610d515761045b92610d2292600091610d2e575b50610100815191015191612c28565b60405191829182610417565b610d4b91503d806000833e610d438183610245565b810190611ab1565b38610d13565b611a4d565b610d7991935060203d602011610d80575b610d718183610245565b810190611a38565b9138610cbc565b503d610d67565b3461045f57604036600319011261045f576001600160401b0360043581811161045f57610db89036906004016105a5565b9060243590811161045f573660238201121561045f578060040135610ddc8161058e565b91610dea6040519384610245565b8183526020916024602085019160051b8301019136831161045f57602401905b828210610e1b57610897858761259a565b81358152908301908301610e0a565b3461045f57608036600319011261045f5760048035610e48816108d0565b60243590604435926064356001600160401b03811161045f57610e6e9036908301610605565b604080516331a9108f60e11b80825281860188815290986001600160a01b0388811698969791969495946020949093859082908190830103818d5afa908115610d515760009161141a575b5081610ed2610ec6615a30565b6001600160a01b031690565b91160361140b5786156113f45785518b8152848180610ef88b8783019190602083019252565b03818d5afa908115610d51576000916113d7575b5081610f19610ec6615a30565b9116036113c857610f2987612e02565b6113b957855163507f146560e01b8152848184818d5afa8015610d5157610f906000918493839161139c575b50895163c44a8e6d60e01b81526001600160a01b038816878201908152602081018d9052600060408201529094859384928391606090910190565b0392165afa908115610d5157600091611381575b5051156113725786610fc08b6000526006602052604060002090565b5589610fd6886000526007602052604060002090565b559992995b60009a610fe661267d565b508b80928192825b89811061105657508d8d7f6a68946ba06488db8585d7c7637fa954b574035fe15720ea760125ef860172588e8e6110518f8f61103e81866110398b6000526005602052604060002090565b612716565b611046615a30565b91519485948561278f565b0390a3005b889f6110888f8f85918f918f8761106e918f936126ee565b359e8f935195869485938493845283019190602083019252565b03915afa908115610d5157600091611355575b50846110a8610ec6615a30565b911603611345576110b88a612056565b61133557878f84908e519283809263507f146560e01b82525afa8015610d51578b6000918f888d8f92611127978795611316575b505163c44a8e6d60e01b81526001600160a01b0390931690830190815260208101949094526000604085015290948593849291839160600190565b0392165afa908115610d51576000916112fd575b508051156112ed5761010001948551600281109081156112e2575b506112d25782151590816112c6575b506112b6578f9085518981146000146111a15750509060019161119683965b519b6000526008602052604060002090565b55019e97929e610fee565b95979095600581036111bd575050906001916111968398611184565b9097969150600a81036111da5750506001908f6111968397611184565b979f9d9b9e9c9a9998976006819792971480811591826112ac575b80156112a2575b8061129b575b15611219575050508f8f51631e550b6f60e11b8152fd5b90611291575b8061128a575b1561123a57508f8f516354f653b360e01b8152fd5b9d9f9798999a9c9e9b9d600c811490811561127f575b5080611278575b61126857908f611196600193611184565b8b51635e701b2b60e01b81528890fd5b5085611257565b600b91501438611250565b5087611225565b506007811461121f565b5087611202565b50600883146111fc565b50600783146111f5565b8b51637dc0e82560e11b81528890fd5b90508551111538611165565b8c5163c89badbd60e01b81528990fd5b600e91501138611156565b8c516354c0901d60e11b81528990fd5b611310913d8091833e610d438183610245565b3861113b565b61132e9195508b3d8d11610d8057610d718183610245565b93386110ec565b8b5163670bdddd60e11b81528890fd5b8b5163812a698960e01b81528890fd5b61136c9150843d8611610d8057610d718183610245565b3861109b565b50845163265ba87960e01b8152fd5b61139691503d806000833e610d438183610245565b38610fa4565b6113b39150883d8a11610d8057610d718183610245565b38610f55565b50845163670bdddd60e11b8152fd5b508451639d17cec760e01b8152fd5b6113ee9150853d8711610d8057610d718183610245565b38610f0c565b60008a815260066020526040812055999299610fdb565b508451632add3f4b60e01b8152fd5b6114319150853d8711610d8057610d718183610245565b38610eb9565b3461045f57602036600319011261045f57600435611454816108d0565b61145c612e43565b6001600160a01b0390811680156114aa57600080546001600160a01b03198116831782559092167f8be0079c531659141344cd1fd0a4f28419497f9722a3daafe3b4186f6b6457e08380a380f35b604051631e4fbdf760e01b815260006004820152602490fd5b3461045f57606036600319011261045f5761045b610447604435602435600435612c28565b3461045f57602036600319011261045f576020610a0d600435612e02565b634e487b7160e01b600052603260045260246000fd5b60605181101561152f5760051b60800190565b611506565b80511561152f5760200190565b805182101561152f5760209160051b010190565b634e487b7160e01b600052601160045260246000fd5b600019811461157a5760010190565b611555565b919081101561152f5760051b81013590601e198136030182121561045f5701908135916001600160401b03831161045f57602001823603811361045f579190565b610428905461014b565b906115dd602092828151948592016103cf565b0190565b8181106115ec575050565b600081556001016115e1565b90601f8211611605575050565b6102a59160026000527f405787fa12a823e0f2b7631cc41b3ba8828b3321ca811111fa75cd3aa3bb5ace906020601f840160051c8301931061164f575b601f0160051c01906115e1565b9091508190611642565b9190601f811161166857505050565b6102a5926000526020600020906020601f840160051c8301931061164f57601f0160051c01906115e1565b91909182516001600160401b0381116101b6576116ba816116b4845461014b565b84611659565b602080601f83116001146116fd575081906116ee9394956000926116f2575b50508160011b916000199060031b1c19161790565b9055565b0151905038806116d9565b90601f1983169561171385600052602060002090565b926000905b88821061175057505083600195969710611737575b505050811b019055565b015160001960f88460031b161c1916905538808061172d565b80600185968294968601518155019501930190611718565b60405190818183925160208092019160005b82811061178b575050505003902090565b83518552869550938101939281019260010161177a565b908060209392818452848401376000828201840152601f01601f1916010190565b9392919081604086016040875252606085019160608160051b87010192826000905b8382106118075750505050509060206102a59294019060018060a01b03169052565b9091929394605f198982030184528535601e198336030181121561045f578201803560208092016001600160401b03821161045f57813603811361045f576001938392611853926117a2565b97019594019201906117e5565b919061186a612e43565b8251926000935b8085106118be57507f31ddb2f0a32be79206d6bf3e670f8cc38863c4984b95cdbe8ed6eba58207a3a5919293506118aa6118b991611768565b926040519182913390836119c4565b0390a2565b6118c88583611541565b51946118d48185611541565b5195600052600360208181526040600020918851916001600160401b0383116101b65761190b83611905865461014b565b86611659565b8091601f84116001146119505750509080611943926001969798999a6000926116f25750508160011b916000199060031b1c19161790565b90555b0193929190611871565b9091601f1984169a61196786600052602060002090565b936000905b8d82106119ac57505084600198999a9b9c10611992575b50505050831b83019055611946565b01519060f884600019921b161c1916905538808080611983565b8060018597829496860151815501960193019061196c565b909291926040820190604083528051809252606083019160608160051b850101916020809101936000905b838210611a0c5750505050602091509360018060a01b0316910152565b909192938380611a28600193605f198b820301865289516103f2565b97019201920190949392916119ef565b9081602091031261045f5751610428816108d0565b6040513d6000823e3d90fd5b51906102a5826108d0565b51906102a582610c14565b81601f8201121561045f578051611a85816107ad565b92611a936040519485610245565b8184526020828401011161045f5761042891602080850191016103cf565b60208183031261045f5780516001600160401b039182821161045f57016101a08184031261045f57611ae161056e565b92815184526020820151602085015260408201516040850152606082015160608501526080820151608085015260a082015160a0850152611b2460c08301611a59565b60c085015260e082015160e08501526101008083015190850152610120611b4c818401611a64565b90850152610140611b5e818401611a64565b90850152610160611b70818401611a64565b90850152610180928383015190811161045f57611b8d9201611a6f565b9082015290565b60405190611ba18261019b565b60008252565b90604051918260605160005b818110611be857509060206102a593611bdc8294840191838301600081528151948592016103cf565b01038085520183610245565b6020919250806080015182828801015201908491611bb3565b60206102a5919392936040519481611c2287935180928680870191016103cf565b8201611bdc825180938680850191016103cf565b9060208282031261045f5781516001600160401b03811161045f576104289201611a6f565b9081602091031261045f575190565b906102a5603d60405180947f646174613a6170706c69636174696f6e2f6a736f6e3b6261736536342c0000006020830152611cae81518092602086860191016103cf565b810103601d810185520183610245565b6040805163507f146560e01b808252602094929392906001600160a01b03908185168785600481845afa948515610d5157600095612037575b50865163c44a8e6d60e01b81526001600160a01b03871660048201526024810185905260006044820181905290958690606490829087165afa948515610d515760009561201c575b5084511561200c57610100850180519093901561200257611d61865188612eef565b968751611fcb575b875115611e9f575050505094611e8e611e80611e9a96611dfd611e19611dfd98611dfd611e038a611ddf6104289f611db0611dc69d611dda9f92611db79351905191612c28565b92516147b5565b9488519c8d918d8301906115ca565b039b611dda601f199d8e8101835282610245565b61498f565b9651683d913730b6b2911d1160b91b9a81019a8b529c8d9a60090190565b906115ca565b691116101134b2111d101160b11b8152600a0190565b7f222c226465736372697074696f6e223a2241207069656365206f66207468652081527f42616e6e797665727365222c22696d616765223a22646174613a696d6167652f60208201526e1cdd99cade1b5b0ed8985cd94d8d0b608a1b6040820152604f0190565b61227d60f01b815260020190565b03908101835282610245565b611c6a565b92965092600e9195505111600014611fbc578551636c0360eb60e01b8152600081600481885afa8015610d51578891600091611f99575b50955b600488518097819382525afa918215610d5157611f2c968895600094611f7a575b5051630c8df17160e41b81526001600160a01b0390921660048301526024820193909352948592839182906044820190565b0392165afa918215610d515761042893600093611f4b575b5050614704565b611f6b929350803d10611f73575b611f638183610245565b810190611c5b565b903880611f44565b503d611f59565b611f92919450863d8811610d8057610d718183610245565b9238611efa565b611fb691503d806000833e611fae8183610245565b810190611c36565b38611ed6565b86611fc5610266565b95611ed9565b96611fde906001865103611fe457614611565b96611d69565b611ffd90611ff8611ff3612fea565b61454b565b611c01565b614611565b611fde85886121de565b5050505050505050610428611b94565b61203091953d8091833e610d438183610245565b9338611d3f565b61204f919550883d8a11610d8057610d718183610245565b9338611cf7565b600090808252602090600860205260408320549081156120fe578184526005602052604084209260405180948591602082549182815201918852602088209388905b8282106120e4575050506120ae92500384610245565b825192845b8481106120c257505050505090565b826120cd8284611541565b51146120db576001016120b3565b50505091505090565b855484526001958601958995509381019390910190612098565b50505090565b9160209161211d919594956040855260408501916117a2565b6001600160a01b03909416910152565b919060408382031261045f5782519260209081810151906001600160401b03821161045f57019180601f8401121561045f57825161216a8161058e565b936121786040519586610245565b818552838086019260051b82010192831161045f578301905b82821061219f575050505090565b81518152908301908301612191565b3d156121d9573d906121bf826107ad565b916121cd6040519384610245565b82523d6000602084013e565b606090565b60405163507f146560e01b8152906001600160a01b036020836004818585165afa928315610d51576000936123a0575b5060405163c44a8e6d60e01b81526001600160a01b0383166004820152602481018590526000604482018190529093909184916064918391165afa918215610d5157600092612385575b5081511561237a57606061010083015161235457604051630f22bc6f60e11b81526004810194909452610428936122e1929082906000908181602481305afa908160009160009361232d575b5061231f575050906122d9916122b86121ae565b505b80151580612317575b6122fd575b506122d38651614a78565b90611c01565b93519061529a565b80516122ee575b50614611565b6122f791611c01565b386122e8565b612311915061230c9084612eef565b611ba7565b386122c8565b5060016122c3565b9094506122d99291506122ba565b90925061234d91503d806000833e6123458183610245565b81019061212d565b91386122a4565b509061236292505190612eef565b80516123715750610428611b94565b61042890614611565b505050610428611b94565b61239991923d8091833e610d438183610245565b9038612258565b60009193506123bd9060203d602011610d8057610d718183610245565b929061220e565b60405163507f146560e01b8152909390916001600160a01b03602084600481848a165afa938415610d5157600094612576575b5060405163c44a8e6d60e01b81526001600160a01b0387166004820152602481018390526000604482018190529094909185916064918391165afa928315610d515760009361255b575b5082511561254e5760609461010084015161253e57604051630f22bc6f60e11b81526004810192909252610428959182906000908181602481305afa908160009160009361251f575b5061250f5750506124bc92939461249f6121ae565b505b8115159081612507575b506124f2575b506122d38551614a78565b936124ca575b505050614611565b6124d592519061529a565b80516124e3575b80806124c2565b6124ec91611c01565b386124dc565b612501915061230c9084612eef565b386124b1565b9050386124ab565b9091506124bc93945090946124a1565b90925061253791503d806000833e6123458183610245565b913861248a565b9350505061236292505190612eef565b5050505050610428611b94565b61256f91933d8091833e610d438183610245565b9138612441565b60009194506125939060203d602011610d8057610d718183610245565b93906123f7565b6125a2612e43565b805160005b8181106126225750506125b990611768565b9060405190818183925160208092019160005b82811061260b57505050500390206040513381529091907fb0c948934b683b0d319be35a6898bce339f877d721976592196eef848acc69c390602090a3565b8351855286955093810193928101926001016125cc565b61262c8184611541565b516126378286611541565b51908060005260016020526040806000205461266d575090612666600193926000526001602052604060002090565b55016125a7565b516333ded41b60e21b8152600490fd5b604051906101a082018281106001600160401b038211176101b657604052606061018083600080825280602083015280604083015280848301528060808301528060a08301528060c08301528060e08301528061010083015280610120830152806101408301526101608201520152565b919081101561152f5760051b0190565b600281901b91906001600160fe1b0381160361157a57565b906001600160401b0383116101b6576801000000000000000083116101b6578154838355808410612771575b50906000526020806000209060005b84811061275f575050505050565b83358382015592810192600101612751565b612789908360005284602060002091820191016115e1565b38612742565b9081526060602082018190528101839052929392916001600160fb1b03811161045f5760409160809160051b8091838601378301019360018060a01b0316910152565b60226102a59193929360405194816127f48793518092602080870191016103cf565b820161202360f01b602082015261281482518093602087850191016103cf565b01036002810185520183610245565b906102a5602960405180946802a37b83834b7339d160bd1b602083015261285381518092602086860191016103cf565b8101036009810185520183610245565b906102a5602660405180946502334b9ba1d160d51b602083015261289081518092602086860191016103cf565b8101036006810185520183610245565b906102a5602d60405180946c029bab4ba103137ba3a37b69d1609d1b60208301526128d481518092602086860191016103cf565b810103600d810185520183610245565b906102a5602a604051809469029bab4ba103a37b81d160b51b602083015261291581518092602086860191016103cf565b810103600a810185520183610245565b906102a56026604051809465029bab4ba1d160d51b602083015261289081518092602086860191016103cf565b906102a5602660405180946502432b0b21d160d51b602083015261289081518092602086860191016103cf565b906102a5602660405180946502430b4b91d160d51b602083015261289081518092602086860191016103cf565b906102a56027604051809466026b7baba341d160cd1b60208301526129da81518092602086860191016103cf565b8101036007810185520183610245565b906102a56026604051809465022bcb2b99d160d51b602083015261289081518092602086860191016103cf565b906102a5602660405180946502330b1b29d160d51b602083015261289081518092602086860191016103cf565b906102a5602a60405180946902732b1b5b630b1b29d160b51b602083015261291581518092602086860191016103cf565b906102a5602660405180946502632b3b99d160d51b602083015261289081518092602086860191016103cf565b906102a5602a60405180946902130b1b5b9b4b2329d160b51b602083015261291581518092602086860191016103cf565b906102a5602760405180946602bb7b936321d160cd1b60208301526129da81518092602086860191016103cf565b906102a56035604051809474027b934b3b4b730b6102730b5b2b2102130b7373c9605d1b6020830152612b3d81518092602086860191016103cf565b8101036015810185520183610245565b906102a56033604051809472027b930b733b2902730b5b2b2102130b7373c9606d1b6020830152612b8781518092602086860191016103cf565b8101036013810185520183610245565b906102a5603160405180947002834b735902730b5b2b2102130b7373c9607d1b6020830152612bcf81518092602086860191016103cf565b8101036011810185520183610245565b906102a56032604051809471020b634b2b7102730b5b2b2102130b7373c960751b6020830152612c1881518092602086860191016103cf565b8101036012810185520183610245565b91633b9aca0083069160018103612c4d57505050612c48610428916147b5565b612bdf565b60028103612c6957505050612c64610428916147b5565b612b97565b60038103612c8557505050612c80610428916147b5565b612b4d565b60048103612ca157505050612c9c610428916147b5565b612b01565b612cc191929350612cbc906000526003602052604060002090565b61032c565b9180612dcc575b5060018103612cdb575061042890612ad3565b60028103612ced575061042890612aa2565b60098103612cff575061042890612a75565b60038103612d11575061042890612a44565b60058103612d23575061042890612a17565b60068103612d355750610428906129ea565b60078103612d475750610428906129ac565b60088103612d5957506104289061297f565b60048103612d6b575061042890612952565b600a8103612d7d575061042890612925565b600c8103612d8f5750610428906128e4565b600b8103612da15750610428906128a0565b600d8103612db3575061042890612863565b600e14612dc35750610428611b94565b61042890612823565b9091805115600014612dea5750612de2906147b5565b905b38612cc8565b612df6612dfc926147b5565b906127d2565b90612de4565b806000526007602052604060002054908115908115612e2a575b50612e245790565b50600090565b9050816000526006602052604060002054141538612e1c565b6000546001600160a01b0390811681612e5a615a30565b1603612e635750565b602490612e6e615a30565b60405163118cdaa760e01b815291166004820152fd5b906102a5604960405180946c1e34b6b0b3b290343932b31e9160991b6020830152612eb9815180926020602d860191016103cf565b81017f222077696474683d2234303022206865696768743d22343030222f3e00000000602d820152036029810185520183610245565b612f06612cbc836000526004602052604060002090565b8051612fe4575060405163507f146560e01b81526001600160a01b039260209283836004818489165afa908115610d5157612f79958594600093612fc5575b50604051632f54648f60e21b81526001600160a01b0390921660048301526024820193909352948592839182906044820190565b0392165afa8015610d515761042892612fa392600092612fa8575b5050612f9e610266565b614704565b612e84565b612fbe9250803d10611f7357611f638183610245565b3880612f94565b612fdd919350853d8711610d8057610d718183610245565b9138612f45565b91505090565b60405190612ff7826101bb565b61117a82527f762d31306833762d376833762d33682d31307a222f3e3c2f673e000000000000611180837f3c6720636c6173733d226131223e3c7061746820643d224d313733203533683460208201527f763137682d347a222f3e3c2f673e3c6720636c6173733d226132223e3c70617460408201527f6820643d224d3136372035376833763130682d337a222f3e3c7061746820643d60608201527f224d3136392035336834763137682d347a222f3e3c2f673e3c6720636c61737360808201527f3d226133223e3c7061746820643d224d31363720353368337634682d337a222f60a08201527f3e3c7061746820643d224d3136332035376834763130682d347a222f3e3c706160c08201527f746820643d224d31363720363768337633682d337a222f3e3c2f673e3c67206360e08201527f6c6173733d226231223e3c7061746820643d224d32313320323533682d33762d6101008201527f332d33682d33762d372d33682d34762d3130682d33762d372d372d33682d33766101208201527f2d3733682d34762d3130682d33762d3130682d33762d37682d34762d37682d336101408201527f762d33682d33762d33682d3476313068347631306833763130683376336834766101608201527f37203320373020336833763768337632306834763768337633683376336834766101808201527f34683376336833762d332d347a222f3e3c7061746820643d224d3235332033306101a08201527f37762d34682d33762d33682d33762d33682d34762d34682d33762d33682d33766101c08201527f2d33682d34762d34682d33762d33682d33762d33682d34762d34682d33762d366101e08201527f682d33762d37682d3476313768347633683376336833203476346833763368336102008201527f76336834763468337633683376336834763468337633683376336834762d36686102208201527f2d347a222f3e3c2f673e3c6720636c6173733d226232223e3c7061746820643d6102408201527f224d32353020333130762d33682d33762d34682d34762d33682d33762d33682d6102608201527f33762d34682d34762d33682d33762d33682d33762d34682d37762d33682d33766102808201527f2d33682d34762d3137682d33762d33682d33762d34682d34762d33682d33762d6102a08201527f33682d33762d37682d34762d3230682d33762d37682d33762d37332d332d37686102c08201527f2d34762d33682d33762d3130682d33762d3130682d34563730682d33762d336c6102e08201527f2d332031303020332d313030763430682d33763130682d347636682d337631346103008201527f682d337633203133682d347634346834763136683376313468337631336834766103208201527f31306833763768337633683476336833763468337633683476336833763468336103408201527f76336834763368337637683776376836763368377633683776346831337633686103608201527f337633683130762d33682d337a6d2d3130332d3837762d31366833762d3130686103808201527f2d337636682d34763137682d337631306833762d3768347a222f3e3c706174686103a08201527f20643d224d3134332032333068347637682d347a6d3420313068337633682d336103c08201527f7a6d33203768337633682d337a6d33203668347634682d347a222f3e3c7061746103e08201527f6820643d224d31363320323537682d36763368337633683376346834762d342d6104008201527f33682d34762d337a222f3e3c2f673e3c6720636c6173733d226233223e3c70616104208201527f746820643d224d3134332031393776366834762d366836762d34346834762d316104408201527f366833762d31346833762d366834762d31306833563937682d377636682d33766104608201527f34682d337633682d347633682d3376342033682d3376332034682d34763130686104808201527f2d337631362034682d337634366833762d3668337a222f3e3c7061746820643d6104a08201527f224d313430203230336833763137682d337a222f3e3c7061746820643d224d316104c08201527f3337203232306833763130682d337a222f3e3c7061746820643d224d313533206104e08201527f323530682d33762d37682d33762d36682d34762d37682d3376313068337637686105008201527f347636683376346833762d377a6d2d3320313068337637682d337a222f3e3c706105208201527f61746820643d224d3134372032353768337633682d337a6d36203068347633686105408201527f2d347a222f3e3c7061746820643d224d31363020323633762d33682d337633206105608201527f376836762d37682d337a6d2d31302d3536763136682d337637683376313068336105808201527f763768347636683676346837762d342d33682d33762d3130682d34762d3133686105a08201527f2d33762d3134682d33762d3136682d34763130682d337a222f3e3c70617468206105c08201527f643d224d32343320333133762d33682d33762d33682d31302d33762d34682d376105e08201527f762d33682d37762d33682d36762d37682d37762d37682d33762d33682d34762d6106008201527f33682d33762d34682d33762d33682d34762d33682d33762d34682d33762d33686106208201527f2d34762d33682d33763130682d337633682d347633682d3376376833763768346106408201527f76366833763568347633683676336833763368342033763368332034763368336106608201527f20337634683130763368372037203376336831302033762d33683130762d33686106808201527f34762d34682d31347a222f3e3c2f673e3c6720636c6173733d226234223e3c706106a08201527f61746820643d224d3138332031333068347637682d347a222f3e3c70617468206106c08201527f643d224d3138302031323768337633682d337a6d2d32372d3468347637682d346106e08201527f7a222f3e3c7061746820643d224d3135372031313768337636682d337a222f3e6107008201527f3c7061746820643d224d3136302031313068337637682d337a222f3e3c7061746107208201527f6820643d224d3136332031303768347633682d347a6d2d3320383368337637686107408201527f2d337a222f3e3c7061746820643d224d3136332031383768347633682d347a6d6107608201527f3230203068377633682d377a222f3e3c7061746820643d224d313830203139306107808201527f68337633682d337a6d31302d3768337634682d337a222f3e3c7061746820643d6107a08201527f224d3139332031383768347636682d347a6d2d323020353368347637682d347a6107c08201527f222f3e3c7061746820643d224d3137372032343768337636682d337a222f3e3c6107e08201527f7061746820643d224d3138302032353368337637682d337a222f3e3c706174686108008201527f20643d224d3138332032363068377633682d377a222f3e3c7061746820643d226108208201527f4d3139302032363368337634682d337a6d302d323068337634682d337a222f3e6108408201527f3c7061746820643d224d3138372032343068337633682d337a222f3e3c7061746108608201527f6820643d224d3139302032333768337633682d337a6d313320323368347633686108808201527f2d347a222f3e3c7061746820643d224d3230372032363368337637682d337a226108a08201527f2f3e3c7061746820643d224d3231302032373068337633682d337a6d2d3130206108c08201527f3768337636682d337a222f3e3c7061746820643d224d323033203238336834766108e08201527f37682d347a222f3e3c7061746820643d224d3230372032393068367633682d366109008201527f7a222f3e3c2f673e3c6720636c6173733d226f223e3c7061746820643d224d316109208201527f3333203135376834763530682d347a6d302036336834763130682d347a6d32376109408201527f2d3136336833763130682d337a222f3e3c7061746820643d224d3136332035336109608201527f68347634682d347a222f3e3c7061746820643d224d31363720353068313076336109808201527f682d31307a222f3e3c7061746820643d224d3137372035336833763137682d336109a08201527f7a222f3e3c7061746820643d224d3137332037306834763237682d347a6d2d366109c08201527f20306833763237682d337a222f3e3c7061746820643d224d31363320363768346109e08201527f7633682d347a6d3020333068347633682d347a222f3e3c7061746820643d224d610a008201527f3136302031303068337633682d337a222f3e3c7061746820643d224d31353720610a208201527f31303368337634682d337a222f3e3c7061746820643d224d3135332031303768610a408201527f347633682d347a222f3e3c7061746820643d224d313530203131306833763368610a608201527f2d337a222f3e3c7061746820643d224d3134372031313368337637682d337a22610a808201527f2f3e3c7061746820643d224d3134332031323068347637682d347a222f3e3c70610aa08201527f61746820643d224d313430203132376833763130682d337a222f3e3c70617468610ac08201527f20643d224d313337203133376833763230682d337a6d35362d31306834763130610ae08201527f682d347a222f3e3c7061746820643d224d313930203131376833763130682d33610b008201527f7a222f3e3c7061746820643d224d3138372031313068337637682d337a222f3e610b208201527f3c7061746820643d224d3138332031303368347637682d347a222f3e3c706174610b408201527f6820643d224d3138302031303068337633682d337a222f3e3c7061746820643d610b608201527f224d31373720393768337633682d337a6d2d3430203130366833763137682d33610b808201527f7a6d302032376833763130682d337a6d313020333068337637682d337a222f3e610ba08201527f3c7061746820643d224d31353020323537762d34682d33762d36682d34762d37610bc08201527f682d3376313068337631306834762d3368337a222f3e3c7061746820643d224d610be08201527f3135302032353768337633682d337a222f3e3c7061746820643d224d31363320610c008201527f323733762d33682d36762d3130682d347637682d337633683376336834763768610c208201527f33762d3768337a222f3e3c7061746820643d224d313633203236376834763368610c408201527f2d347a222f3e3c7061746820643d224d31373020323537682d332d3476336834610c608201527f76376833762d31307a222f3e3c7061746820643d224d31353720323533683676610c808201527f34682d367a222f3e3c7061746820643d224d3135332032343768347636682d34610ca08201527f7a222f3e3c7061746820643d224d3135302032343068337637682d337a222f3e610cc08201527f3c7061746820643d224d313437203233306833763130682d337a6d3133203530610ce08201527f68337637682d337a222f3e3c7061746820643d224d3134332032323368347637610d008201527f682d347a222f3e3c7061746820643d224d313437203230376833763136682d33610d208201527f7a222f3e3c7061746820643d224d313530203139376833763130682d337a6d2d610d408201527f3130203068337636682d337a6d35302031313368377633682d377a6d32332031610d608201527f306831377633682d31377a222f3e3c7061746820643d224d3233302033323368610d808201527f31337634682d31337a222f3e3c7061746820643d224d32343320333230683130610da08201527f7633682d31307a222f3e3c7061746820643d224d323533203331376834763368610dc08201527f2d347a222f3e3c7061746820643d224d323537203330376833763130682d337a610de08201527f222f3e3c7061746820643d224d3235332033303368347634682d347a222f3e3c610e008201527f7061746820643d224d3235302033303068337633682d337a222f3e3c70617468610e208201527f20643d224d3234372032393768337633682d337a222f3e3c7061746820643d22610e408201527f4d3234332032393368347634682d347a222f3e3c7061746820643d224d323430610e608201527f2032393068337633682d337a222f3e3c7061746820643d224d32333720323837610e808201527f68337633682d337a222f3e3c7061746820643d224d3233332032383368347634610ea08201527f682d347a222f3e3c7061746820643d224d3233302032383068337633682d337a610ec08201527f222f3e3c7061746820643d224d3232372032373768337633682d337a222f3e3c610ee08201527f7061746820643d224d3232332032373368347634682d347a222f3e3c70617468610f008201527f20643d224d3232302032363768337636682d337a222f3e3c7061746820643d22610f208201527f4d3231372032363068337637682d337a222f3e3c7061746820643d224d323133610f408201527f2032353368347637682d347a222f3e3c7061746820643d224d32313020323437610f608201527f68337636682d337a222f3e3c7061746820643d224d3230372032333768337631610f808201527f30682d337a222f3e3c7061746820643d224d323033203232376834763130682d610fa08201527f347a6d2d343020363068347636682d347a6d323420323068337633682d337a22610fc08201527f2f3e3c7061746820643d224d3136372032393368337635682d337a6d31362031610fe08201527f3468347633682d347a222f3e3c7061746820643d224d313730203239386834766110008201527f33682d347a6d3130203668337633682d337a222f3e3c7061746820643d224d316110208201527f37342033303168367633682d367a6d323320313268367634682d367a222f3e3c6110408201527f7061746820643d224d323033203331376831307633682d31307a6d2d322d31306110608201527f37762d3733682d3476373368337631376833762d3137682d327a222f3e3c2f676110808201527f3e3c6720636c6173733d226f223e3c7061746820643d224d31383720333037766110a08201527f2d346833762d36682d33762d34682d34762d33682d33762d33682d37762d34686110c08201527f2d367634682d3476336834763237682d34763133682d33763130682d347637686110e08201527f3476336833203130203134762d33682d34762d34682d33762d33682d33762d336111008201527f682d34762d376834762d31306833762d376833762d336837762d33682d337a6d6111208201527f3136203130762d34682d36763137682d34763130682d337637683376336834206111408201527f3620342033203134762d33682d34762d34682d37762d33682d33762d33682d336111608201520152565b906102a5609a60405180947f3c7374796c653e2e6f7b66696c6c3a233830383038303b7d2e62327b66696c6c60208301527f3a6e6f6e653b7d2e62337b66696c6c3a6e6f6e653b7d2e62347b66696c6c3a6e60408301527f6f6e653b7d2e61317b66696c6c3a6e6f6e653b7d2e61327b66696c6c3a6e6f6e60608301527f653b7d2e61337b66696c6c3a6e6f6e653b7d3c2f7374796c653e000000000000608083015261460181518092602086860191016103cf565b810103607a810185520183610245565b906102a560ba60405180947f3c7376672077696474683d2234303022206865696768743d223430302220766960208301527f6577426f783d223020302034303020343030222066696c6c3d226e6f6e65222060408301527f786d6c6e733d22687474703a2f2f7777772e77332e6f72672f323030302f737660608301527f67223e3c7374796c653e2e6f7b66696c6c3a233035303530353b7d2e777b666960808301527336361d11b31cb31cb31c9dbe9e17b9ba3cb6329f60611b60a08301526146e581518092602060b4860191016103cf565b8101651e17b9bb339f60d11b60b482015203609a810185520183610245565b9061042890614732604051602092609160f51b8483015260228201526022815261472d816101d7565b615593565b92604051938161474b86935180928680870191016103cf565b820161475f825180938680850191016103cf565b01038084520182610245565b6040516147778161019b565b60008152906000368137565b9061478d826107ad565b61479a6040519182610245565b82815280926147ab601f19916107ad565b0190602036910137565b806000917a184f03e93ff9f4daa797ed6e38ed64bf6a1f010000000000000000808210156148eb575b506d04ee2d6d415b85acef8100000000808310156148dc575b50662386f26fc10000808310156148cd575b506305f5e100808310156148be575b50612710808310156148af575b50606482101561489f575b600a80921015614895575b60019081602161484d60018701614783565b95860101905b61485f575b5050505090565b600019019083906f181899199a1a9b1b9c1cb0b131b232b360811b8282061a83530491821561489057919082614853565b614858565b916001019161483b565b9190606460029104910191614830565b60049193920491019138614825565b60089193920491019138614818565b60109193920491019138614809565b602091939204910191386147f7565b6040935081049150386147de565b60405190614906826101d7565b604082527f6768696a6b6c6d6e6f707172737475767778797a303132333435363738392b2f6040837f4142434445464748494a4b4c4d4e4f505152535455565758595a61626364656660208201520152565b906002820180921161157a57565b906020820180921161157a57565b906001820180921161157a57565b9190820180921161157a57565b805115614a6f5761499e6148f9565b6149ba6149b56149ae8451614958565b6003900490565b6126fe565b916149cc6149c784614966565b614783565b92835280815182019060208501935b828210614a1d57505050600390510680600114614a0c576002146149fd575090565b603d60f81b6000199091015290565b50613d3d60f01b6001199091015290565b9091936004906003809401938451600190603f9082828260121c16880101518553828282600c1c16880101518386015382828260061c16880101516002860153168501015190820153019391906149db565b50610428611b94565b614a8190615904565b92614a90969596929192612fea565b9460405197889760208901703c7374796c653e2e62317b66696c6c3a2360781b90528051908160318b019160200191614ac8926103cf565b8801603181016b3b7d2e62327b66696c6c3a2360a01b905281519182603d83019160200191614af6926103cf565b01603d81016b3b7d2e62337b66696c6c3a2360a01b905281519182604983019160200191614b23926103cf565b0160498101614b40906b3b7d2e62347b66696c6c3a2360a01b9052565b605501614b4c916115ca565b6b3b7d2e61317b66696c6c3a2360a01b8152600c01614b6a916115ca565b6b3b7d2e61327b66696c6c3a2360a01b8152600c01614b88916115ca565b6b3b7d2e61337b66696c6c3a2360a01b8152600c01614ba6916115ca565b691dbe9e17b9ba3cb6329f60b11b8152600a01614bc2916115ca565b03601f19810182526104289082610245565b60405190614be1826101f2565b61019c82527f6820643d224d3139332031373068347633682d347a222f3e3c2f673e000000006101a0837f3c6720636c6173733d226f223e3c7061746820643d224d31393020313733682d60208201527f3337762d33682d3130762d34682d36763468337633682d33763468367633683160408201527f307634683337762d346833762d33682d33762d347a6d2d34302034682d33762d60608201527f34683376347a6d372033762d3368337633682d337a6d362030762d336834763360808201527f682d347a6d372030762d3368337633682d337a6d372030762d3368337633682d60a08201527f337a6d31302030682d34762d33683476337a222f3e3c7061746820643d224d3160c08201527f39302031373068337633682d337a222f3e3c7061746820643d224d313933203160e08201527f363668347634682d347a6d30203768347634682d347a222f3e3c2f673e3c67206101008201527f636c6173733d2277223e3c7061746820643d224d3133372031373068337633686101208201527f2d337a6d3130203368337634682d337a6d3130203468337633682d337a6d36206101408201527f3068347633682d347a6d37203068337633682d337a6d37203068337633682d336101608201527f7a6d36203068347633682d347a6d372d3468337634682d337a222f3e3c7061746101808201520152565b6040519061010082018281106001600160401b038211176101b65760405260dd82527f746820643d224d3138302031343768337633682d337a222f3e3c2f673e00000060e0837f3c6720636c6173733d226f223e3c7061746820643d224d31373720313430763360208201527f6836763131683130762d31316834762d33682d32307a222f3e3c70617468206460408201527f3d224d31353320313430763368377638203368372033762d31316833762d336860608201527f2d32307a222f3e3c2f673e3c6720636c6173733d2277223e3c7061746820643d60808201527f224d3135332031343368377634682d377a222f3e3c7061746820643d224d313560a08201527f372031343768337633682d337a6d32302d3468367634682d367a222f3e3c706160c08201520152565b60405190614f178261020e565b61023a82527f643d224d3139302031333768347633682d347a222f3e3c2f673e000000000000610240837f3c6720636c6173733d226f223e3c7061746820643d224d31393020313237683360208201527f7633682d337a6d3320313368347633682d347a6d2d3432203068367636682d3660408201527f7a222f3e3c7061746820643d224d3135312031333368337637682d337a6d313060608201527f203068367634682d367a222f3e3c7061746820643d224d31353720313337683160808201527f377636682d31377a6d332031336831347633682d31347a6d31372d313368377660a08201527f3136682d377a222f3e3c7061746820643d224d3138342031333768367636682d60c08201527f367a6d302031306831307636682d31307a222f3e3c7061746820643d224d313860e08201527f37203134336831307634682d31307a222f3e3c7061746820643d224d313930206101008201527f31343068337633682d337a6d2d362d313068337637682d337a222f3e3c7061746101208201527f6820643d224d3138372031333068367633682d367a6d2d3336203068313076336101408201527f682d31307a6d313620313368377637682d377a6d2d3130203068377637682d376101608201527f7a222f3e3c7061746820643d224d3136342031343768337633682d337a6d32396101808201527f2d323068347636682d347a222f3e3c7061746820643d224d31393420313333686101a08201527f337637682d337a222f3e3c2f673e3c6720636c6173733d2277223e3c706174686101c08201527f20643d224d3135342031333368377634682d377a222f3e3c7061746820643d226101e08201527f4d3135342031333768337633682d337a6d3130203668337634682d337a6d32306102008201527f203068337634682d337a6d332d313068377634682d377a222f3e3c70617468206102208201520152565b6040519060c082018281106001600160401b038211176101b65760405260818252601f60f91b60a0837f3c6720636c6173733d226f223e3c7061746820643d224d31383320313630762d60208201527f34682d32307634682d33763368337634683234762d37682d347a6d2d3133203360408201527f762d336831307633682d31307a222066696c6c3d2223616437316338222f3e3c60608201527f7061746820643d224d313730203136306831307633682d31307a222f3e3c2f6760808201520152565b9092916060938151916000928391849085869160039460038110600014615526576152c481614974565b985b8981106152da575050505050505050505050565b8181101561551a576152ec8184611541565b516040805163507f146560e01b8152919791602060048f6001600160a01b03838584818585165afa928315610d5157615367966000968f9688966154fb575b50505163c44a8e6d60e01b81526001600160a01b0390931690830190815260208101949094526000604085015290948593849291839160600190565b0392165afa8015610d5157610100916000916154e2575b500151985b8989036154b357506001985b60058181036153c6575050506001955b806153ae575b506001016152c6565b6001919d6122d36153bf928e612eef565b9c906153a5565b8198929811806154ab575b6153dc575b5061539f565b90959094600680870361545f5750506001945b600790808203615430575050506001945b8480615429575b80615421575b615418575b386153d6565b60019650615412565b50861561540d565b5085615407565b9691961180615457575b156154005794509b61544e906122d36151d5565b9b600194615400565b50851561543a565b86919611806154a3575b156153ef57945060019d8e8b1460001461549157615489906122d3614f0a565b9d5b946153ef565b61549d906122d3614ddc565b9d61548b565b508515615469565b5087156153d1565b98888111806154da575b1561538f5798509c6154d1906122d3614bd4565b9c60019861538f565b5089156154bd565b6154f5913d8091833e610d438183610245565b3861537e565b615512929650803d10610d8057610d718183610245565b93388061532b565b60089795600096615383565b80986152c6565b604051906105e082018281106001600160401b038211176101b657604052602e82526105c0366020840137565b906155648261058e565b6155716040519182610245565b82815280926147ab601f199161058e565b90815181101561152f570160200190565b908151156156ba576155a361552d565b9160009060006155b285611534565b526001918151916000925b8084106155e357505050506155d96155de916104289394615a89565b615acc565b615b13565b9091929461561461560e6156086155fa8987615582565b516001600160f81b03191690565b60f81c90565b60ff1690565b9184925b60ff9089828916861015615679576001929161564d61564761560e6156408a61565396611541565b5160ff1690565b60081b90565b90614982565b6156708b61566888603a958686061692611541565b9060ff169052565b04930192615618565b50919594935050809691965b6156935750600101926155bd565b9460ff6001603a926156b083858b06166156688d86851690611541565b0116950480615685565b905061042861476b565b604051906156d18261022a565b600682526506666653930360d41b6020830152565b604051906156f38261022a565b600682526506666633730360d41b6020830152565b604051906157158261022a565b600682526566336136303360d01b6020830152565b604051906157378261022a565b600682526539363561316160d01b6020830152565b604051906157598261022a565b600682526533331bb1981960d11b6020830152565b6040519061577b8261022a565b600682526506664333630360d41b6020830152565b6040519061579d8261022a565b600682526518cccc994c1960d21b6020830152565b604051906157bf8261022a565b600682526566666438633560d01b6020830152565b604051906157e18261022a565b600682526566663936613960d01b6020830152565b604051906158038261022a565b600682526533329a9c1c3160d11b6020830152565b604051906158258261022a565b600682526563393266343560d01b6020830152565b604051906158478261022a565b600682526536376437353760d01b6020830152565b604051906158698261022a565b600682526503330613232360d41b6020830152565b6040519061588b8261022a565b600682526532313761313560d01b6020830152565b604051906158ad8261022a565b60048252636e6f6e6560e01b6020830152565b604051906158cd8261022a565b6006825265329a1c19b2b360d11b6020830152565b604051906158ef8261022a565b60068252653231993332b360d11b6020830152565b6001810361594b575061591561583a565b9061591e61585c565b9061592761587e565b906159306158a0565b906159396158c0565b906159426158e2565b906104286158e2565b60028103615992575061595c6157b2565b906159656157d4565b9061596e6157f6565b90615977615818565b906159806157b2565b906159896157d4565b906104286157f6565b600381036159d957506159a3615708565b906159ac61574c565b906159b561576e565b906159be615790565b906159c7615708565b906159d061574c565b9061042861576e565b6004146159f257604051630992899d60e31b8152600490fd5b6159fa6156c4565b90615a036156e6565b90615a0c615708565b90615a1561572a565b90615a1e6156c4565b90615a276156e6565b90610428615708565b337f000000000000000000000000b2b5841dbef766d4b521221732f9b618fcf34a876001600160a01b03161480615a7e575b15615a7a57601319360136811161157a573560601c90565b3390565b506014361015615a62565b9060ff80911690615a998261555a565b9260005b838110615aab575050505090565b8083615ab960019385611541565b5116615ac58288611541565b5201615a9d565b908151615ad88161555a565b9060005b818110615aea575090925050565b60019060ff615b00600019838951030188611541565b5116615b0c8286611541565b5201615adc565b8051615b1e816107ad565b91604090615b2f6040519485610245565b828452615b3b836107ad565b602090601f1901368683013760009260005b858110615b5d5750505050505090565b6001908251615b6b816101d7565b603a81527f31323334353637383941424344454647484a4b4c4d4e50515253545556575859858201527f5a6162636465666768696a6b6d6e6f707172737475767778797a000000000000848201526001600160f81b031990615bdb9060ff615bd3858a611541565b511690615582565b5116861a615be9828a615582565b5301615b4d56fea2646970667358221220d2d089007e84f868f8fa49522cc6ecd6c572213d221345ee93ea5e39d1a002bd64736f6c63430008170033",
			"devdoc": {
				"kind": "dev",
				"methods": {
					"assetIdsOf(uint256)": {
						"params": {
							"nakedBannyId": "The ID of the naked banny shows with the associated assets."
						},
						"returns": {
							"outfitIds": "The outfits attached to the Naked Banny.",
							"worldId": "The world attached to the Naked Banny."
						}
					},
					"constructor": {
						"params": {
							"owner": "The owner allowed to add SVG files that correspond to tier IDs.",
							"trustedForwarder": "The trusted forwarder for the ERC2771Context."
						}
					},
					"decorateBannyWith(address,uint256,uint256,uint256[])": {
						"details": "The caller must own the naked banny being dressed and all outfits being worn.",
						"params": {
							"hook": "The hook storing the assets.",
							"nakedBannyId": "The ID of the Naked Banny being dressed.",
							"outfitIds": "The IDs of the outfits that'll be associated with the specified banny. Only one outfit per outfit category allowed at a time and they must be passed in order.",
							"worldId": "The ID of the world that'll be associated with the specified banny."
						}
					},
					"isTrustedForwarder(address)": {
						"details": "Indicates whether any particular address is the trusted forwarder."
					},
					"nameOf(address,uint256)": {
						"params": {
							"hook": "The hook storing the assets.",
							"tokenId": "The ID of the token to show."
						},
						"returns": {
							"_0": "The name of the token."
						}
					},
					"outfitIsBeingWornBy(uint256)": {
						"params": {
							"outfitId": "The ID of the outfit being worn."
						},
						"returns": {
							"_0": "The ID of the naked banny wearing the outfit."
						}
					},
					"owner()": {
						"details": "Returns the address of the current owner."
					},
					"renounceOwnership()": {
						"details": "Leaves the contract without owner. It will not be possible to call `onlyOwner` functions. Can only be called by the current owner. NOTE: Renouncing ownership will leave the contract without an owner, thereby disabling any functionality that is only available to the owner."
					},
					"setSvgContentsOf(uint256[],string[])": {
						"params": {
							"svgContents": "The svg contents being stored, not including the parent <svg></svg> element.",
							"tierIds": "The IDs of the tiers having SVGs stored."
						}
					},
					"setSvgHashsOf(uint256[],bytes32[])": {
						"details": "This allows anyone to lazily upload the correct svg file.",
						"params": {
							"svgHashs": "The svg hashes being stored, not including the parent <svg></svg> element.",
							"tierIds": "The IDs of the tiers having SVG hashes stored."
						}
					},
					"setTierNames(uint256[],string[])": {
						"params": {
							"names": "The names of the tiers.",
							"tierIds": "The IDs of the tiers having their name stored."
						}
					},
					"svgOf(address,uint256,bool,bool)": {
						"params": {
							"hook": "The hook storing the assets.",
							"shouldDressNakedBanny": "Whether the naked banny should be dressed.",
							"shouldIncludeWorldOnNakedBanny": "Whether the world should be included on the naked banny.",
							"tokenId": "The ID of the token to show. If the ID belongs to a Naked Banny, it will be shown with its current outfits in its current world if specified."
						},
						"returns": {
							"_0": "svg The SVG."
						}
					},
					"tokenUriOf(address,uint256)": {
						"params": {
							"tokenId": "The ID of the token to show. If the ID belongs to a Naked Banny, it will be shown with its current outfits in its current world."
						},
						"returns": {
							"_0": "tokenUri The URI representing the SVG."
						}
					},
					"transferOwnership(address)": {
						"details": "Transfers ownership of the contract to a new account (`newOwner`). Can only be called by the current owner."
					},
					"trustedForwarder()": {
						"details": "Returns the address of the trusted forwarder."
					},
					"worldIsBeingUsedBy(uint256)": {
						"params": {
							"worldId": "The ID of the world being used."
						},
						"returns": {
							"_0": "The ID of the naked banny using the world."
						}
					}
				},
				"version": 1
			},
			"userdoc": {
				"kind": "user",
				"methods": {
					"_nameOf(uint256,uint256,uint256)": {
						"notice": "The name of each tier."
					},
					"assetIdsOf(uint256)": {
						"notice": "The assets currently attached to each Naked Banny, owned by the naked Banny's owner."
					},
					"decorateBannyWith(address,uint256,uint256,uint256[])": {
						"notice": "Dress your Naked Banny with outfits."
					},
					"nameOf(address,uint256)": {
						"notice": "Returns the name of the token."
					},
					"outfitIsBeingWornBy(uint256)": {
						"notice": "Checks to see which naked banny is currently wearing a particular outfit."
					},
					"setSvgBaseUri(string)": {
						"notice": "Allows the owner of this contract to specify the base of the domain hosting the SVG files."
					},
					"setSvgContentsOf(uint256[],string[])": {
						"notice": "The owner of this contract can store SVG files for tier IDs."
					},
					"setSvgHashsOf(uint256[],bytes32[])": {
						"notice": "Allows the owner of this contract to upload the hash of an svg file for a tierId."
					},
					"setTierNames(uint256[],string[])": {
						"notice": "Allows the owner to set the tier's name."
					},
					"svgBaseUri()": {
						"notice": "The base of the domain hosting the SVG files that can be lazily uploaded to the contract."
					},
					"svgHashOf(uint256)": {
						"notice": "The Naked Banny and outfit SVG hash files."
					},
					"svgOf(address,uint256,bool,bool)": {
						"notice": "Returns the SVG showing either a naked banny with/without outfits and a world, or the stand alone outfit or world."
					},
					"tokenUriOf(address,uint256)": {
						"notice": "Returns the SVG showing a dressed Naked Banny in a world."
					},
					"worldIsBeingUsedBy(uint256)": {
						"notice": "Checks to see which naked banny is currently using a particular world."
					}
				},
				"version": 1
			},
			"gitCommit": "118bb5841f0f5e2a5c1fefd3f315f4ab63aaa04f",
			"sourceName": "src/Banny721TokenUriResolver.sol",
			"chainId": "11155111",
			"linkReferences": {},
			"deployedLinkReferences": {}
		},
		{
			"_format": "sphinx-sol-ct-artifact-1",
			"merkleRoot": "0x1b979134db888ac97f3cccaca7dbd2e6823596b3b33de6c8604fda511af490a2",
			"contractName": "Banny721TokenUriResolver",
			"address": "0x4b34a0f58c1246d88B28218dABd572e5320d225C",
			"abi": [
				{
					"type": "constructor",
					"inputs": [
						{
							"name": "owner",
							"type": "address",
							"internalType": "address"
						},
						{
							"name": "trustedForwarder",
							"type": "address",
							"internalType": "address"
						}
					],
					"stateMutability": "nonpayable"
				},
				{
					"type": "function",
					"name": "_nameOf",
					"inputs": [
						{
							"name": "tokenId",
							"type": "uint256",
							"internalType": "uint256"
						},
						{
							"name": "tierId",
							"type": "uint256",
							"internalType": "uint256"
						},
						{
							"name": "category",
							"type": "uint256",
							"internalType": "uint256"
						}
					],
					"outputs": [
						{
							"name": "",
							"type": "string",
							"internalType": "string"
						}
					],
					"stateMutability": "view"
				},
				{
					"type": "function",
					"name": "assetIdsOf",
					"inputs": [
						{
							"name": "nakedBannyId",
							"type": "uint256",
							"internalType": "uint256"
						}
					],
					"outputs": [
						{
							"name": "worldId",
							"type": "uint256",
							"internalType": "uint256"
						},
						{
							"name": "outfitIds",
							"type": "uint256[]",
							"internalType": "uint256[]"
						}
					],
					"stateMutability": "view"
				},
				{
					"type": "function",
					"name": "decorateBannyWith",
					"inputs": [
						{
							"name": "hook",
							"type": "address",
							"internalType": "address"
						},
						{
							"name": "nakedBannyId",
							"type": "uint256",
							"internalType": "uint256"
						},
						{
							"name": "worldId",
							"type": "uint256",
							"internalType": "uint256"
						},
						{
							"name": "outfitIds",
							"type": "uint256[]",
							"internalType": "uint256[]"
						}
					],
					"outputs": [],
					"stateMutability": "nonpayable"
				},
				{
					"type": "function",
					"name": "isTrustedForwarder",
					"inputs": [
						{
							"name": "forwarder",
							"type": "address",
							"internalType": "address"
						}
					],
					"outputs": [
						{
							"name": "",
							"type": "bool",
							"internalType": "bool"
						}
					],
					"stateMutability": "view"
				},
				{
					"type": "function",
					"name": "nameOf",
					"inputs": [
						{
							"name": "hook",
							"type": "address",
							"internalType": "address"
						},
						{
							"name": "tokenId",
							"type": "uint256",
							"internalType": "uint256"
						}
					],
					"outputs": [
						{
							"name": "",
							"type": "string",
							"internalType": "string"
						}
					],
					"stateMutability": "view"
				},
				{
					"type": "function",
					"name": "outfitIsBeingWornBy",
					"inputs": [
						{
							"name": "outfitId",
							"type": "uint256",
							"internalType": "uint256"
						}
					],
					"outputs": [
						{
							"name": "",
							"type": "uint256",
							"internalType": "uint256"
						}
					],
					"stateMutability": "view"
				},
				{
					"type": "function",
					"name": "owner",
					"inputs": [],
					"outputs": [
						{
							"name": "",
							"type": "address",
							"internalType": "address"
						}
					],
					"stateMutability": "view"
				},
				{
					"type": "function",
					"name": "renounceOwnership",
					"inputs": [],
					"outputs": [],
					"stateMutability": "nonpayable"
				},
				{
					"type": "function",
					"name": "setSvgBaseUri",
					"inputs": [
						{
							"name": "baseUri",
							"type": "string",
							"internalType": "string"
						}
					],
					"outputs": [],
					"stateMutability": "nonpayable"
				},
				{
					"type": "function",
					"name": "setSvgContentsOf",
					"inputs": [
						{
							"name": "tierIds",
							"type": "uint256[]",
							"internalType": "uint256[]"
						},
						{
							"name": "svgContents",
							"type": "string[]",
							"internalType": "string[]"
						}
					],
					"outputs": [],
					"stateMutability": "nonpayable"
				},
				{
					"type": "function",
					"name": "setSvgHashsOf",
					"inputs": [
						{
							"name": "tierIds",
							"type": "uint256[]",
							"internalType": "uint256[]"
						},
						{
							"name": "svgHashs",
							"type": "bytes32[]",
							"internalType": "bytes32[]"
						}
					],
					"outputs": [],
					"stateMutability": "nonpayable"
				},
				{
					"type": "function",
					"name": "setTierNames",
					"inputs": [
						{
							"name": "tierIds",
							"type": "uint256[]",
							"internalType": "uint256[]"
						},
						{
							"name": "names",
							"type": "string[]",
							"internalType": "string[]"
						}
					],
					"outputs": [],
					"stateMutability": "nonpayable"
				},
				{
					"type": "function",
					"name": "svgBaseUri",
					"inputs": [],
					"outputs": [
						{
							"name": "",
							"type": "string",
							"internalType": "string"
						}
					],
					"stateMutability": "view"
				},
				{
					"type": "function",
					"name": "svgHashOf",
					"inputs": [
						{
							"name": "tierId",
							"type": "uint256",
							"internalType": "uint256"
						}
					],
					"outputs": [
						{
							"name": "",
							"type": "bytes32",
							"internalType": "bytes32"
						}
					],
					"stateMutability": "view"
				},
				{
					"type": "function",
					"name": "svgOf",
					"inputs": [
						{
							"name": "hook",
							"type": "address",
							"internalType": "address"
						},
						{
							"name": "tokenId",
							"type": "uint256",
							"internalType": "uint256"
						},
						{
							"name": "shouldDressNakedBanny",
							"type": "bool",
							"internalType": "bool"
						},
						{
							"name": "shouldIncludeWorldOnNakedBanny",
							"type": "bool",
							"internalType": "bool"
						}
					],
					"outputs": [
						{
							"name": "",
							"type": "string",
							"internalType": "string"
						}
					],
					"stateMutability": "view"
				},
				{
					"type": "function",
					"name": "tokenUriOf",
					"inputs": [
						{
							"name": "hook",
							"type": "address",
							"internalType": "address"
						},
						{
							"name": "tokenId",
							"type": "uint256",
							"internalType": "uint256"
						}
					],
					"outputs": [
						{
							"name": "",
							"type": "string",
							"internalType": "string"
						}
					],
					"stateMutability": "view"
				},
				{
					"type": "function",
					"name": "transferOwnership",
					"inputs": [
						{
							"name": "newOwner",
							"type": "address",
							"internalType": "address"
						}
					],
					"outputs": [],
					"stateMutability": "nonpayable"
				},
				{
					"type": "function",
					"name": "trustedForwarder",
					"inputs": [],
					"outputs": [
						{
							"name": "",
							"type": "address",
							"internalType": "address"
						}
					],
					"stateMutability": "view"
				},
				{
					"type": "function",
					"name": "worldIsBeingUsedBy",
					"inputs": [
						{
							"name": "worldId",
							"type": "uint256",
							"internalType": "uint256"
						}
					],
					"outputs": [
						{
							"name": "",
							"type": "uint256",
							"internalType": "uint256"
						}
					],
					"stateMutability": "view"
				},
				{
					"type": "event",
					"name": "DecorateBanny",
					"inputs": [
						{
							"name": "hook",
							"type": "address",
							"indexed": true,
							"internalType": "address"
						},
						{
							"name": "nakenBannyId",
							"type": "uint256",
							"indexed": true,
							"internalType": "uint256"
						},
						{
							"name": "worldId",
							"type": "uint256",
							"indexed": false,
							"internalType": "uint256"
						},
						{
							"name": "outfitIds",
							"type": "uint256[]",
							"indexed": false,
							"internalType": "uint256[]"
						},
						{
							"name": "caller",
							"type": "address",
							"indexed": false,
							"internalType": "address"
						}
					],
					"anonymous": false
				},
				{
					"type": "event",
					"name": "OwnershipTransferred",
					"inputs": [
						{
							"name": "previousOwner",
							"type": "address",
							"indexed": true,
							"internalType": "address"
						},
						{
							"name": "newOwner",
							"type": "address",
							"indexed": true,
							"internalType": "address"
						}
					],
					"anonymous": false
				},
				{
					"type": "event",
					"name": "SetSvgBaseUri",
					"inputs": [
						{
							"name": "baseUri",
							"type": "string",
							"indexed": false,
							"internalType": "string"
						},
						{
							"name": "caller",
							"type": "address",
							"indexed": false,
							"internalType": "address"
						}
					],
					"anonymous": false
				},
				{
					"type": "event",
					"name": "SetSvgContents",
					"inputs": [
						{
							"name": "tierId",
							"type": "uint256[]",
							"indexed": true,
							"internalType": "uint256[]"
						},
						{
							"name": "svgContents",
							"type": "string[]",
							"indexed": false,
							"internalType": "string[]"
						},
						{
							"name": "caller",
							"type": "address",
							"indexed": false,
							"internalType": "address"
						}
					],
					"anonymous": false
				},
				{
					"type": "event",
					"name": "SetSvgHashes",
					"inputs": [
						{
							"name": "tierIds",
							"type": "uint256[]",
							"indexed": true,
							"internalType": "uint256[]"
						},
						{
							"name": "svgHashs",
							"type": "bytes32[]",
							"indexed": true,
							"internalType": "bytes32[]"
						},
						{
							"name": "caller",
							"type": "address",
							"indexed": false,
							"internalType": "address"
						}
					],
					"anonymous": false
				},
				{
					"type": "event",
					"name": "SetTierNames",
					"inputs": [
						{
							"name": "tierIds",
							"type": "uint256[]",
							"indexed": true,
							"internalType": "uint256[]"
						},
						{
							"name": "names",
							"type": "string[]",
							"indexed": false,
							"internalType": "string[]"
						},
						{
							"name": "caller",
							"type": "address",
							"indexed": false,
							"internalType": "address"
						}
					],
					"anonymous": false
				},
				{
					"type": "error",
					"name": "ASSET_IS_ALREADY_BEING_WORN",
					"inputs": []
				},
				{
					"type": "error",
					"name": "CONTENTS_ALREADY_STORED",
					"inputs": []
				},
				{
					"type": "error",
					"name": "CONTENTS_MISMATCH",
					"inputs": []
				},
				{
					"type": "error",
					"name": "HASH_ALREADY_STORED",
					"inputs": []
				},
				{
					"type": "error",
					"name": "HASH_NOT_FOUND",
					"inputs": []
				},
				{
					"type": "error",
					"name": "HEAD_ALREADY_ADDED",
					"inputs": []
				},
				{
					"type": "error",
					"name": "OwnableInvalidOwner",
					"inputs": [
						{
							"name": "owner",
							"type": "address",
							"internalType": "address"
						}
					]
				},
				{
					"type": "error",
					"name": "OwnableUnauthorizedAccount",
					"inputs": [
						{
							"name": "account",
							"type": "address",
							"internalType": "address"
						}
					]
				},
				{
					"type": "error",
					"name": "SUIT_ALREADY_ADDED",
					"inputs": []
				},
				{
					"type": "error",
					"name": "UNAUTHORIZED_NAKED_BANNY",
					"inputs": []
				},
				{
					"type": "error",
					"name": "UNAUTHORIZED_OUTFIT",
					"inputs": []
				},
				{
					"type": "error",
					"name": "UNAUTHORIZED_WORLD",
					"inputs": []
				},
				{
					"type": "error",
					"name": "UNORDERED_CATEGORIES",
					"inputs": []
				},
				{
					"type": "error",
					"name": "UNRECOGNIZED_CATEGORY",
					"inputs": []
				},
				{
					"type": "error",
					"name": "UNRECOGNIZED_OUTFIT",
					"inputs": []
				},
				{
					"type": "error",
					"name": "UNRECOGNIZED_TIER",
					"inputs": []
				},
				{
					"type": "error",
					"name": "UNRECOGNIZED_WORLD",
					"inputs": []
				}
			],
			"solcInputHash": "1e6d7085c0df0d1ee3a91ccbc925a236",
			"receipt": {
				"blockHash": "0x365627de5e56c345c1799725ff332c87308b7bbc4c5429cc1ce09b17ef9179a4",
				"blockNumber": 5713216,
				"contractAddress": null,
				"cumulativeGasUsed": "27005804",
				"from": "0xC034550B542b83BA1De312b21d1C94a9a52B1595",
				"gasPrice": "512342979",
				"gasUsed": "11071216",
				"hash": "0xa64346b40321a518b6b0e2f90e6825ff3a472e990442a0b747956bb64db9bbd4",
				"index": 79,
				"logs": [
					{
						"address": "0xB5E96127D417b1B3ef8438496a38A143167209c7",
						"blockHash": "0x365627de5e56c345c1799725ff332c87308b7bbc4c5429cc1ce09b17ef9179a4",
						"blockNumber": 5713216,
						"data": "0x0000000000000000000000000000000000000000000000000000000000000000",
						"index": 603,
						"topics": [
							"0x572f161235911da04685a68c06adf558fc7e4a36909dca394650e0adc19cc93d",
							"0x000000000000000000000000c034550b542b83ba1de312b21d1c94a9a52b1595",
							"0x000000000000000000000000183b35e76a7bc60298dcb637515f50e4def9b68b",
							"0x47cc09ea80c9ce404feceb56172230c6459f92b9dee1646d297f167ed42fb9ba"
						],
						"transactionHash": "0xa64346b40321a518b6b0e2f90e6825ff3a472e990442a0b747956bb64db9bbd4",
						"transactionIndex": 79
					},
					{
						"address": "0x4b34a0f58c1246d88B28218dABd572e5320d225C",
						"blockHash": "0x365627de5e56c345c1799725ff332c87308b7bbc4c5429cc1ce09b17ef9179a4",
						"blockNumber": 5713216,
						"data": "0x",
						"index": 604,
						"topics": [
							"0x8be0079c531659141344cd1fd0a4f28419497f9722a3daafe3b4186f6b6457e0",
							"0x0000000000000000000000000000000000000000000000000000000000000000",
							"0x000000000000000000000000584f5da53cb18789099466074e3b5c32ed17243a"
						],
						"transactionHash": "0xa64346b40321a518b6b0e2f90e6825ff3a472e990442a0b747956bb64db9bbd4",
						"transactionIndex": 79
					},
					{
						"address": "0x584F5Da53cb18789099466074e3B5c32Ed17243a",
						"blockHash": "0x365627de5e56c345c1799725ff332c87308b7bbc4c5429cc1ce09b17ef9179a4",
						"blockNumber": 5713216,
						"data": "0x",
						"index": 605,
						"topics": [
							"0x6895c13664aa4f67288b25d7a21d7aaa34916e355fb9b6fae0a139a9085becb8",
							"0x000000000000000000000000183b35e76a7bc60298dcb637515f50e4def9b68b"
						],
						"transactionHash": "0xa64346b40321a518b6b0e2f90e6825ff3a472e990442a0b747956bb64db9bbd4",
						"transactionIndex": 79
					},
					{
						"address": "0x183b35E76A7BC60298DCb637515F50e4DeF9b68b",
						"blockHash": "0x365627de5e56c345c1799725ff332c87308b7bbc4c5429cc1ce09b17ef9179a4",
						"blockNumber": 5713216,
						"data": "0x0000000000000000000000000000000000000000000000000000000000000001",
						"index": 606,
						"topics": [
							"0xa65fb05c5808f5f389d72edeaf719ce38f4cc55c1f69ca3cbfb31c21501caa07",
							"0x1b979134db888ac97f3cccaca7dbd2e6823596b3b33de6c8604fda511af490a2"
						],
						"transactionHash": "0xa64346b40321a518b6b0e2f90e6825ff3a472e990442a0b747956bb64db9bbd4",
						"transactionIndex": 79
					},
					{
						"address": "0xfa679f5ecdd8bE404c1FbAa7f29aEB2b12F5B662",
						"blockHash": "0x365627de5e56c345c1799725ff332c87308b7bbc4c5429cc1ce09b17ef9179a4",
						"blockNumber": 5713216,
						"data": "0x",
						"index": 607,
						"topics": [
							"0xddf252ad1be2c89b69c2b068fc378daa952ba7f163c4a11628f55a4df523b3ef",
							"0x0000000000000000000000000000000000000000000000000000000000000000",
							"0x000000000000000000000000584f5da53cb18789099466074e3b5c32ed17243a",
							"0x0000000000000000000000000000000000000000000000000000000000000004"
						],
						"transactionHash": "0xa64346b40321a518b6b0e2f90e6825ff3a472e990442a0b747956bb64db9bbd4",
						"transactionIndex": 79
					},
					{
						"address": "0xfa679f5ecdd8bE404c1FbAa7f29aEB2b12F5B662",
						"blockHash": "0x365627de5e56c345c1799725ff332c87308b7bbc4c5429cc1ce09b17ef9179a4",
						"blockNumber": 5713216,
						"data": "0x000000000000000000000000584f5da53cb18789099466074e3b5c32ed17243a",
						"index": 608,
						"topics": [
							"0x365b3162cd780731fc55a794b59494d472bc2af701007f581843a70673814698",
							"0x0000000000000000000000000000000000000000000000000000000000000004",
							"0x000000000000000000000000584f5da53cb18789099466074e3b5c32ed17243a"
						],
						"transactionHash": "0xa64346b40321a518b6b0e2f90e6825ff3a472e990442a0b747956bb64db9bbd4",
						"transactionIndex": 79
					},
					{
						"address": "0x584F5Da53cb18789099466074e3B5c32Ed17243a",
						"blockHash": "0x365627de5e56c345c1799725ff332c87308b7bbc4c5429cc1ce09b17ef9179a4",
						"blockNumber": 5713216,
						"data": "0x",
						"index": 609,
						"topics": [
							"0x6895c13664aa4f67288b25d7a21d7aaa34916e355fb9b6fae0a139a9085becb8",
							"0x000000000000000000000000183b35e76a7bc60298dcb637515f50e4def9b68b"
						],
						"transactionHash": "0xa64346b40321a518b6b0e2f90e6825ff3a472e990442a0b747956bb64db9bbd4",
						"transactionIndex": 79
					},
					{
						"address": "0x183b35E76A7BC60298DCb637515F50e4DeF9b68b",
						"blockHash": "0x365627de5e56c345c1799725ff332c87308b7bbc4c5429cc1ce09b17ef9179a4",
						"blockNumber": 5713216,
						"data": "0x0000000000000000000000000000000000000000000000000000000000000002",
						"index": 610,
						"topics": [
							"0xa65fb05c5808f5f389d72edeaf719ce38f4cc55c1f69ca3cbfb31c21501caa07",
							"0x1b979134db888ac97f3cccaca7dbd2e6823596b3b33de6c8604fda511af490a2"
						],
						"transactionHash": "0xa64346b40321a518b6b0e2f90e6825ff3a472e990442a0b747956bb64db9bbd4",
						"transactionIndex": 79
					},
					{
						"address": "0x711eda44F3D42F3d255846b5EE36Cf70Fd912E50",
						"blockHash": "0x365627de5e56c345c1799725ff332c87308b7bbc4c5429cc1ce09b17ef9179a4",
						"blockNumber": 5713216,
						"data": "0x00000000000000000000000000000000000000000000000000000000000000600000000000000000000000000000000000000000000000000000000032020084000000000000000000000000584f5da53cb18789099466074e3b5c32ed17243a00000000000000000000000000000000000000000000000000000000000000060000000000000000000000000000000000000000000000000000000000000002000000000000000000000000000000000000000000000000000000000000000700000000000000000000000000000000000000000000000000000000000000190000000000000000000000000000000000000000000000000000000000000011000000000000000000000000000000000000000000000000000000000000001c000000000000000000000000000000000000000000000000000000000000001d",
						"index": 611,
						"topics": [
							"0xf8cdf10a0ce6189c6d069e97320ef146e2bcbd32d6c0b86dcbfbf3bd8578fa70",
							"0x00000000000000000000000022300cf0cc5f03c7c3db71b64529d2c8a9b93389",
							"0x000000000000000000000000584f5da53cb18789099466074e3b5c32ed17243a",
							"0x0000000000000000000000000000000000000000000000000000000000000004"
						],
						"transactionHash": "0xa64346b40321a518b6b0e2f90e6825ff3a472e990442a0b747956bb64db9bbd4",
						"transactionIndex": 79
					},
					{
						"address": "0x584F5Da53cb18789099466074e3B5c32Ed17243a",
						"blockHash": "0x365627de5e56c345c1799725ff332c87308b7bbc4c5429cc1ce09b17ef9179a4",
						"blockNumber": 5713216,
						"data": "0x",
						"index": 612,
						"topics": [
							"0x6895c13664aa4f67288b25d7a21d7aaa34916e355fb9b6fae0a139a9085becb8",
							"0x000000000000000000000000183b35e76a7bc60298dcb637515f50e4def9b68b"
						],
						"transactionHash": "0xa64346b40321a518b6b0e2f90e6825ff3a472e990442a0b747956bb64db9bbd4",
						"transactionIndex": 79
					},
					{
						"address": "0x183b35E76A7BC60298DCb637515F50e4DeF9b68b",
						"blockHash": "0x365627de5e56c345c1799725ff332c87308b7bbc4c5429cc1ce09b17ef9179a4",
						"blockNumber": 5713216,
						"data": "0x0000000000000000000000000000000000000000000000000000000000000003",
						"index": 613,
						"topics": [
							"0xa65fb05c5808f5f389d72edeaf719ce38f4cc55c1f69ca3cbfb31c21501caa07",
							"0x1b979134db888ac97f3cccaca7dbd2e6823596b3b33de6c8604fda511af490a2"
						],
						"transactionHash": "0xa64346b40321a518b6b0e2f90e6825ff3a472e990442a0b747956bb64db9bbd4",
						"transactionIndex": 79
					},
					{
						"address": "0x711eda44F3D42F3d255846b5EE36Cf70Fd912E50",
						"blockHash": "0x365627de5e56c345c1799725ff332c87308b7bbc4c5429cc1ce09b17ef9179a4",
						"blockNumber": 5713216,
						"data": "0x00000000000000000000000000000000000000000000000000000000000000600000000000000000000000000000000000000000000000000000000010000000000000000000000000000000584f5da53cb18789099466074e3b5c32ed17243a0000000000000000000000000000000000000000000000000000000000000001000000000000000000000000000000000000000000000000000000000000001c",
						"index": 614,
						"topics": [
							"0xf8cdf10a0ce6189c6d069e97320ef146e2bcbd32d6c0b86dcbfbf3bd8578fa70",
							"0x000000000000000000000000f4c9957e2e1fab09a8b48658f68b46e47b134724",
							"0x000000000000000000000000584f5da53cb18789099466074e3b5c32ed17243a",
							"0x0000000000000000000000000000000000000000000000000000000000000004"
						],
						"transactionHash": "0xa64346b40321a518b6b0e2f90e6825ff3a472e990442a0b747956bb64db9bbd4",
						"transactionIndex": 79
					},
					{
						"address": "0x584F5Da53cb18789099466074e3B5c32Ed17243a",
						"blockHash": "0x365627de5e56c345c1799725ff332c87308b7bbc4c5429cc1ce09b17ef9179a4",
						"blockNumber": 5713216,
						"data": "0x",
						"index": 615,
						"topics": [
							"0x6895c13664aa4f67288b25d7a21d7aaa34916e355fb9b6fae0a139a9085becb8",
							"0x000000000000000000000000183b35e76a7bc60298dcb637515f50e4def9b68b"
						],
						"transactionHash": "0xa64346b40321a518b6b0e2f90e6825ff3a472e990442a0b747956bb64db9bbd4",
						"transactionIndex": 79
					},
					{
						"address": "0x183b35E76A7BC60298DCb637515F50e4DeF9b68b",
						"blockHash": "0x365627de5e56c345c1799725ff332c87308b7bbc4c5429cc1ce09b17ef9179a4",
						"blockNumber": 5713216,
						"data": "0x0000000000000000000000000000000000000000000000000000000000000004",
						"index": 616,
						"topics": [
							"0xa65fb05c5808f5f389d72edeaf719ce38f4cc55c1f69ca3cbfb31c21501caa07",
							"0x1b979134db888ac97f3cccaca7dbd2e6823596b3b33de6c8604fda511af490a2"
						],
						"transactionHash": "0xa64346b40321a518b6b0e2f90e6825ff3a472e990442a0b747956bb64db9bbd4",
						"transactionIndex": 79
					},
					{
						"address": "0x08Af7B0C24C2c0f9965280eDA62ACC161A7A6538",
						"blockHash": "0x365627de5e56c345c1799725ff332c87308b7bbc4c5429cc1ce09b17ef9179a4",
						"blockNumber": 5713216,
						"data": "0x",
						"index": 617,
						"topics": [
							"0x8be0079c531659141344cd1fd0a4f28419497f9722a3daafe3b4186f6b6457e0",
							"0x0000000000000000000000000000000000000000000000000000000000000000",
							"0x0000000000000000000000000f9a3e14f7fb9ac89ce32d50a2eade21ffeb97f3"
						],
						"transactionHash": "0xa64346b40321a518b6b0e2f90e6825ff3a472e990442a0b747956bb64db9bbd4",
						"transactionIndex": 79
					},
					{
						"address": "0x08Af7B0C24C2c0f9965280eDA62ACC161A7A6538",
						"blockHash": "0x365627de5e56c345c1799725ff332c87308b7bbc4c5429cc1ce09b17ef9179a4",
						"blockNumber": 5713216,
						"data": "0x",
						"index": 618,
						"topics": [
							"0x8be0079c531659141344cd1fd0a4f28419497f9722a3daafe3b4186f6b6457e0",
							"0x0000000000000000000000000f9a3e14f7fb9ac89ce32d50a2eade21ffeb97f3",
							"0x00000000000000000000000022300cf0cc5f03c7c3db71b64529d2c8a9b93389"
						],
						"transactionHash": "0xa64346b40321a518b6b0e2f90e6825ff3a472e990442a0b747956bb64db9bbd4",
						"transactionIndex": 79
					},
					{
						"address": "0x989566Bf9fF4CffA55a98ADa7dc3E58b2a0a19c6",
						"blockHash": "0x365627de5e56c345c1799725ff332c87308b7bbc4c5429cc1ce09b17ef9179a4",
						"blockNumber": 5713216,
						"data": "0x",
						"index": 619,
						"topics": [
							"0x72b627b4904fa8a0160a923aa5b142eb19f6e56dc75017884162206f8886df09",
							"0x00000000000000000000000008af7b0c24c2c0f9965280eda62acc161a7a6538",
							"0x0000000000000000000000000f9a3e14f7fb9ac89ce32d50a2eade21ffeb97f3"
						],
						"transactionHash": "0xa64346b40321a518b6b0e2f90e6825ff3a472e990442a0b747956bb64db9bbd4",
						"transactionIndex": 79
					},
					{
						"address": "0x0f9A3E14f7fB9aC89Ce32D50a2eAdE21ffeb97F3",
						"blockHash": "0x365627de5e56c345c1799725ff332c87308b7bbc4c5429cc1ce09b17ef9179a4",
						"blockNumber": 5713216,
						"data": "0x00000000000000000000000008af7b0c24c2c0f9965280eda62acc161a7a6538",
						"index": 620,
						"topics": [
							"0xa42f6bb68e81f4650a7966f109d861f6c3d2a477e608e30807f568bed1cebdb9",
							"0x0000000000000000000000000000000000000000000000000000000000000004"
						],
						"transactionHash": "0xa64346b40321a518b6b0e2f90e6825ff3a472e990442a0b747956bb64db9bbd4",
						"transactionIndex": 79
					},
					{
						"address": "0x44d360C8c4105f180e07668bd3374c7A6F812FAF",
						"blockHash": "0x365627de5e56c345c1799725ff332c87308b7bbc4c5429cc1ce09b17ef9179a4",
						"blockNumber": 5713216,
						"data": "0x00000000000000000000000075295c69178f42cfe9cf710f307891d6ce471920",
						"index": 621,
						"topics": [
							"0x7f9a7dcb234c909a09de2f344661ad9e5b24067adb97c908647c2edcbb121c30",
							"0x0000000000000000000000000000000000000000000000000000000000000004",
							"0x00000000000000000000000075295c69178f42cfe9cf710f307891d6ce471920"
						],
						"transactionHash": "0xa64346b40321a518b6b0e2f90e6825ff3a472e990442a0b747956bb64db9bbd4",
						"transactionIndex": 79
					},
					{
						"address": "0x9C10f158D2ceCDFB5AADD5da40ABbF2c574e4323",
						"blockHash": "0x365627de5e56c345c1799725ff332c87308b7bbc4c5429cc1ce09b17ef9179a4",
						"blockNumber": 5713216,
						"data": "0x",
						"index": 622,
						"topics": [
							"0xfda207e5d149787155cf9596283f246f082d4744a57e37dda99146e5dcc542bb",
							"0x00000000000000000000000000000000000000000000000000000000661ee688",
							"0x0000000000000000000000000000000000000000000000000000000000000004",
							"0x0000000000000000000000000000000000000000000000000000000000000000"
						],
						"transactionHash": "0xa64346b40321a518b6b0e2f90e6825ff3a472e990442a0b747956bb64db9bbd4",
						"transactionIndex": 79
					},
					{
						"address": "0x9C10f158D2ceCDFB5AADD5da40ABbF2c574e4323",
						"blockHash": "0x365627de5e56c345c1799725ff332c87308b7bbc4c5429cc1ce09b17ef9179a4",
						"blockNumber": 5713216,
						"data": "0x000000000000000000000000000000000000000000000000000000000001518000000000000000000000000000000000000000000000d3c21bcecceda10000000000000000000000000000000000000000000000000000000000000002faf0800000000000000000000000000000000000000000000000000000000000000000000011180678662f81e3e1edb8db2294e96454dc99c4a040000eeee1f40138810000000000000000000000000000000000000000000000000000000065f9e31900000000000000000000000075295c69178f42cfe9cf710f307891d6ce471920",
						"index": 623,
						"topics": [
							"0x11a490bebff1beffe4bdd210894aca6ea5049427ce4b3c48865717677199cb07",
							"0x00000000000000000000000000000000000000000000000000000000661ee688",
							"0x0000000000000000000000000000000000000000000000000000000000000004"
						],
						"transactionHash": "0xa64346b40321a518b6b0e2f90e6825ff3a472e990442a0b747956bb64db9bbd4",
						"transactionIndex": 79
					},
					{
						"address": "0x9C10f158D2ceCDFB5AADD5da40ABbF2c574e4323",
						"blockHash": "0x365627de5e56c345c1799725ff332c87308b7bbc4c5429cc1ce09b17ef9179a4",
						"blockNumber": 5713216,
						"data": "0x",
						"index": 624,
						"topics": [
							"0xfda207e5d149787155cf9596283f246f082d4744a57e37dda99146e5dcc542bb",
							"0x00000000000000000000000000000000000000000000000000000000661ee689",
							"0x0000000000000000000000000000000000000000000000000000000000000004",
							"0x00000000000000000000000000000000000000000000000000000000661ee688"
						],
						"transactionHash": "0xa64346b40321a518b6b0e2f90e6825ff3a472e990442a0b747956bb64db9bbd4",
						"transactionIndex": 79
					},
					{
						"address": "0x9C10f158D2ceCDFB5AADD5da40ABbF2c574e4323",
						"blockHash": "0x365627de5e56c345c1799725ff332c87308b7bbc4c5429cc1ce09b17ef9179a4",
						"blockNumber": 5713216,
						"data": "0x0000000000000000000000000000000000000000000000000000000000093a8000000000000000000000000000000000000000000000152d02c7e14af680000000000000000000000000000000000000000000000000000000000000000096800000000000000000000000000000000000000000000000000000000000000000000011180678662f81e3e1edb8db2294e96454dc99c4a040000eeee13881388100000000000000000000000000000000000000000000000000000000661ecd1900000000000000000000000075295c69178f42cfe9cf710f307891d6ce471920",
						"index": 625,
						"topics": [
							"0x11a490bebff1beffe4bdd210894aca6ea5049427ce4b3c48865717677199cb07",
							"0x00000000000000000000000000000000000000000000000000000000661ee689",
							"0x0000000000000000000000000000000000000000000000000000000000000004"
						],
						"transactionHash": "0xa64346b40321a518b6b0e2f90e6825ff3a472e990442a0b747956bb64db9bbd4",
						"transactionIndex": 79
					},
					{
						"address": "0xAA62Cfe29251Db6774ECc77860b3c25dA3bcDc79",
						"blockHash": "0x365627de5e56c345c1799725ff332c87308b7bbc4c5429cc1ce09b17ef9179a4",
						"blockNumber": 5713216,
						"data": "0x000000000000000000000000000000000000000000000000000000000000eeee0000000000000000000000000000000000000000000000000000000000000012000000000000000000000000000000000000000000000000000000000000eeee00000000000000000000000075295c69178f42cfe9cf710f307891d6ce471920",
						"index": 626,
						"topics": [
							"0x9570de6fc0456f642bd0a001b24cd31676388c24596df64a17190c24310690a1",
							"0x0000000000000000000000000000000000000000000000000000000000000004",
							"0x000000000000000000000000000000000000000000000000000000000000eeee"
						],
						"transactionHash": "0xa64346b40321a518b6b0e2f90e6825ff3a472e990442a0b747956bb64db9bbd4",
						"transactionIndex": 79
					},
					{
						"address": "0x44d360C8c4105f180e07668bd3374c7A6F812FAF",
						"blockHash": "0x365627de5e56c345c1799725ff332c87308b7bbc4c5429cc1ce09b17ef9179a4",
						"blockNumber": 5713216,
						"data": "0x000000000000000000000000000000000000000000000000000000000000004000000000000000000000000075295c69178f42cfe9cf710f307891d6ce4719200000000000000000000000000000000000000000000000000000000000000001000000000000000000000000aa62cfe29251db6774ecc77860b3c25da3bcdc79",
						"index": 627,
						"topics": [
							"0xb648241d83df6540fc10f2acc641e4bf80a1e84e7ae2f1f6b0ad204b8fee635b",
							"0x0000000000000000000000000000000000000000000000000000000000000004"
						],
						"transactionHash": "0xa64346b40321a518b6b0e2f90e6825ff3a472e990442a0b747956bb64db9bbd4",
						"transactionIndex": 79
					},
					{
						"address": "0x75295C69178F42cfe9Cf710f307891D6cE471920",
						"blockHash": "0x365627de5e56c345c1799725ff332c87308b7bbc4c5429cc1ce09b17ef9179a4",
						"blockNumber": 5713216,
						"data": "0x00000000000000000000000000000000000000000000000000000000661ee6890000000000000000000000000000000000000000000000000000000000000004000000000000000000000000000000000000000000000000000000000000008000000000000000000000000022300cf0cc5f03c7c3db71b64529d2c8a9b9338900000000000000000000000000000000000000000000000000000000000000162442414e4e59207265766e6574206465706c6f79656400000000000000000000",
						"index": 628,
						"topics": [
							"0x23164adda696b19106c2eef50ba44461997682bf5aeb9fdb383117fa9952cc75"
						],
						"transactionHash": "0xa64346b40321a518b6b0e2f90e6825ff3a472e990442a0b747956bb64db9bbd4",
						"transactionIndex": 79
					},
					{
						"address": "0x20cEaD60c70B6bF42A57c6a1aFf30e3CfafC7248",
						"blockHash": "0x365627de5e56c345c1799725ff332c87308b7bbc4c5429cc1ce09b17ef9179a4",
						"blockNumber": 5713216,
						"data": "0x",
						"index": 629,
						"topics": [
							"0x8be0079c531659141344cd1fd0a4f28419497f9722a3daafe3b4186f6b6457e0",
							"0x0000000000000000000000000000000000000000000000000000000000000000",
							"0x000000000000000000000000ee922d1cb6551d45e2d9b197ec423fb8c3c85d50"
						],
						"transactionHash": "0xa64346b40321a518b6b0e2f90e6825ff3a472e990442a0b747956bb64db9bbd4",
						"transactionIndex": 79
					},
					{
						"address": "0xee922D1cb6551D45E2d9B197EC423Fb8C3C85d50",
						"blockHash": "0x365627de5e56c345c1799725ff332c87308b7bbc4c5429cc1ce09b17ef9179a4",
						"blockNumber": 5713216,
						"data": "0x000000000000000000000000000000000000000000000000000000000000008000000000000000000000000000000000000000000000000000000000000000c0b14dc07bcba17acb6a6b192114c0b98432d2929e1b1c30a22301054deaa2c3be00000000000000000000000075295c69178f42cfe9cf710f307891d6ce471920000000000000000000000000000000000000000000000000000000000000000a42616e6e79766572736500000000000000000000000000000000000000000000000000000000000000000000000000000000000000000000000000000000000542414e4e59000000000000000000000000000000000000000000000000000000",
						"index": 630,
						"topics": [
							"0xb4510654a5884cae50948507300dc482833ed1446cef375e064bef00b6b4ba4e",
							"0x0000000000000000000000000000000000000000000000000000000000000004",
							"0x00000000000000000000000020cead60c70b6bf42a57c6a1aff30e3cfafc7248"
						],
						"transactionHash": "0xa64346b40321a518b6b0e2f90e6825ff3a472e990442a0b747956bb64db9bbd4",
						"transactionIndex": 79
					},
					{
						"address": "0x1D6cE46C730B46930f17cc09FbCEdfC08d7454cc",
						"blockHash": "0x365627de5e56c345c1799725ff332c87308b7bbc4c5429cc1ce09b17ef9179a4",
						"blockNumber": 5713216,
						"data": "0x0000000000000000000000000000000000000000000000000000000000000000000000000000000000000000000000000000000000000000000000000002a30000000000000000000000000022300cf0cc5f03c7c3db71b64529d2c8a9b93389",
						"index": 631,
						"topics": [
							"0xa8d6b20cd05f07d50e9855ce0fc6de3517f3df2e890a5ec6357892b3808a53ce",
							"0x0000000000000000000000000000000000000000000000000000000000000004"
						],
						"transactionHash": "0xa64346b40321a518b6b0e2f90e6825ff3a472e990442a0b747956bb64db9bbd4",
						"transactionIndex": 79
					},
					{
						"address": "0x1D6cE46C730B46930f17cc09FbCEdfC08d7454cc",
						"blockHash": "0x365627de5e56c345c1799725ff332c87308b7bbc4c5429cc1ce09b17ef9179a4",
						"blockNumber": 5713216,
						"data": "0x0000000000000000000000000000000000000000000000000000000000000000000000000000000000000000000000000000000000000000000000000000232800000000000000000000000022300cf0cc5f03c7c3db71b64529d2c8a9b93389",
						"index": 632,
						"topics": [
							"0xaafe2470cbfb11a09f9b45d6a795226e93cc251e30fdcabddbabb157a1db5353",
							"0x0000000000000000000000000000000000000000000000000000000000000004"
						],
						"transactionHash": "0xa64346b40321a518b6b0e2f90e6825ff3a472e990442a0b747956bb64db9bbd4",
						"transactionIndex": 79
					},
					{
						"address": "0x1D6cE46C730B46930f17cc09FbCEdfC08d7454cc",
						"blockHash": "0x365627de5e56c345c1799725ff332c87308b7bbc4c5429cc1ce09b17ef9179a4",
						"blockNumber": 5713216,
						"data": "0x000000000000000000000000fc8f90dbef7c4ef666c36f6ab558dd5f2a8edb1200000000000000000000000022300cf0cc5f03c7c3db71b64529d2c8a9b93389",
						"index": 633,
						"topics": [
							"0xe694de883385e30d535f625d68df4b2b5e866e8e86fe9d15554480c8d1812e60",
							"0x0000000000000000000000000000000000000000000000000000000000000004",
							"0x0000000000000000000000007b79995e5f793a07bc00c21412e50ecae098e7f9"
						],
						"transactionHash": "0xa64346b40321a518b6b0e2f90e6825ff3a472e990442a0b747956bb64db9bbd4",
						"transactionIndex": 79
					},
					{
						"address": "0x26cB60fC2323d1A4309F35497e5A881fE1F3D2AC",
						"blockHash": "0x365627de5e56c345c1799725ff332c87308b7bbc4c5429cc1ce09b17ef9179a4",
						"blockNumber": 5713216,
						"data": "0x0000000000000000000000000000000000000000000000000000000000000000000000000000000000000000000000000000000000000000000000003b9aca000000000000000000000000000000000000000000000000000000000000000000000000000000000000000000584f5da53cb18789099466074e3b5c32ed17243a0000000000000000000000000000000000000000000000000000000000000000000000000000000000000000000000000000000000000000000000000000000000000000000000000000000075295c69178f42cfe9cf710f307891d6ce471920",
						"index": 634,
						"topics": [
							"0x0d7ea8ac1cb69dfa18ce2b18e90d31b4d4a0370aacadf7db42d42930a09b3f01",
							"0x0000000000000000000000000000000000000000000000000000000000000004",
							"0x0000000000000000000000000000000000000000000000000000000000000000",
							"0x0000000000000000000000000000000000000000000000000000000000000001"
						],
						"transactionHash": "0xa64346b40321a518b6b0e2f90e6825ff3a472e990442a0b747956bb64db9bbd4",
						"transactionIndex": 79
					},
					{
						"address": "0x711eda44F3D42F3d255846b5EE36Cf70Fd912E50",
						"blockHash": "0x365627de5e56c345c1799725ff332c87308b7bbc4c5429cc1ce09b17ef9179a4",
						"blockNumber": 5713216,
						"data": "0x00000000000000000000000000000000000000000000000000000000000000600000000000000000000000000000000000000000000000000000000002e2004000000000000000000000000022300cf0cc5f03c7c3db71b64529d2c8a9b933890000000000000000000000000000000000000000000000000000000000000006000000000000000000000000000000000000000000000000000000000000001100000000000000000000000000000000000000000000000000000000000000190000000000000000000000000000000000000000000000000000000000000006000000000000000000000000000000000000000000000000000000000000001500000000000000000000000000000000000000000000000000000000000000160000000000000000000000000000000000000000000000000000000000000017",
						"index": 635,
						"topics": [
							"0xf8cdf10a0ce6189c6d069e97320ef146e2bcbd32d6c0b86dcbfbf3bd8578fa70",
							"0x000000000000000000000000584f5da53cb18789099466074e3b5c32ed17243a",
							"0x00000000000000000000000022300cf0cc5f03c7c3db71b64529d2c8a9b93389",
							"0x0000000000000000000000000000000000000000000000000000000000000004"
						],
						"transactionHash": "0xa64346b40321a518b6b0e2f90e6825ff3a472e990442a0b747956bb64db9bbd4",
						"transactionIndex": 79
					},
					{
						"address": "0x711eda44F3D42F3d255846b5EE36Cf70Fd912E50",
						"blockHash": "0x365627de5e56c345c1799725ff332c87308b7bbc4c5429cc1ce09b17ef9179a4",
						"blockNumber": 5713216,
						"data": "0x0000000000000000000000000000000000000000000000000000000000000060000000000000000000000000000000000000000000000000000000001000000000000000000000000000000022300cf0cc5f03c7c3db71b64529d2c8a9b933890000000000000000000000000000000000000000000000000000000000000001000000000000000000000000000000000000000000000000000000000000001c",
						"index": 636,
						"topics": [
							"0xf8cdf10a0ce6189c6d069e97320ef146e2bcbd32d6c0b86dcbfbf3bd8578fa70",
							"0x000000000000000000000000f4c9957e2e1fab09a8b48658f68b46e47b134724",
							"0x00000000000000000000000022300cf0cc5f03c7c3db71b64529d2c8a9b93389",
							"0x0000000000000000000000000000000000000000000000000000000000000004"
						],
						"transactionHash": "0xa64346b40321a518b6b0e2f90e6825ff3a472e990442a0b747956bb64db9bbd4",
						"transactionIndex": 79
					},
					{
						"address": "0x22300Cf0Cc5F03C7c3Db71b64529D2C8A9b93389",
						"blockHash": "0x365627de5e56c345c1799725ff332c87308b7bbc4c5429cc1ce09b17ef9179a4",
						"blockNumber": 5713216,
						"data": "0x000000000000000000000000000000000000000000000000000000000000010000000000000000000000000000000000000000000000000000000000000004800000000000000000000000000000000000000000000000000000000000000540000000000000000000000000000000000000000000000000000000000000062000000000000000000000000000000000000000000000000000000000000007800000000000000000000000000000000000000000000000000000000000000e200000000000000000000000000000000000000000000000000000000000000001000000000000000000000000584f5da53cb18789099466074e3b5c32ed17243a00000000000000000000000000000000000000000000000000000000000000c0000000000000000000000000000000000000000000000000000000000000eeee000000000000000000000000000000000000000000422ca8b0a00a42500000000000000000000000000000000000000000000000000000000000000000000001000000000000000000000000584f5da53cb18789099466074e3b5c32ed17243a00000000000000000000000000000000000000000000000000000000000001e0000000000000000000000000000000000000000000000000000000000000008000000000000000000000000000000000000000000000000000000000000000c0000000000000000000000000000000000000000000000000000000000000010042414e4e59000000000000000000000000000000000000000000000000000000000000000000000000000000000000000000000000000000000000000000000a42616e6e79766572736500000000000000000000000000000000000000000000000000000000000000000000000000000000000000000000000000000000000542414e4e59000000000000000000000000000000000000000000000000000000000000000000000000000000000000000000000000000000000000000000000000000000000000000000000000000000000000000000000000000000000000020000000000000000000000000000000000000000000000000000000065f9e319000000000000000000000000000000000000000000000000000000000000138800000000000000000000000000000000000000000000d3c21bcecceda100000000000000000000000000000000000000000000000000000000000000000151800000000000000000000000000000000000000000000000000000000002faf08000000000000000000000000000000000000000000000000000000000000007d000000000000000000000000000000000000000000000000000000000661ecd19000000000000000000000000000000000000000000000000000000000000138800000000000000000000000000000000000000000000152d02c7e14af68000000000000000000000000000000000000000000000000000000000000000093a800000000000000000000000000000000000000000000000000000000000009680000000000000000000000000000000000000000000000000000000000000138800000000000000000000000000000000000000000000000000000000000000010000000000000000000000000000000000000000000000000000000000000020000000000000000000000000aa62cfe29251db6774ecc77860b3c25da3bcdc7900000000000000000000000000000000000000000000000000000000000000400000000000000000000000000000000000000000000000000000000000000001000000000000000000000000000000000000000000000000000000000000eeee0000000000000000000000001d6ce46c730b46930f17cc09fbcedfc08d7454cc00000000000000000000000000000000000000000000000000000000000000400000000000000000000000000000000000000000000000000000000000000001000000000000000000000000000000000000000000000000000000000000eeee0000000000000000000000000000000000000000000000000000000000002710000000000000000000000000000000000000000000000000000000000002a3000000000000000000000000000000000000000000000000000000000000002328000000000000000000000000000000000000000000000000000000000000004042414e4e5900000000000000000000000000000000000000000000000000000000000000000000000000000000000000000000000000000000000000000000010000000000000000000000000000000000000000000000000000000000000020000000000000000000000000024d04722a8fd6b98668c64e56b3f47357fa86a400000000000000000000000000000000000000000000000000000000000000400000000000000000000000000000000000000000000000000000000000000001000000000000000000000000000000000000000000000000000000000000eeee0000000000000000000000000000000000000000000000000000000000030d40000000000000000000000000000000000000000000000000000000000000eeee000000000000000000000000000000000000000000000000002386f26fc100000000000000000000000000000000000000000000000000000000000000000002000000000000000000000000000000000000000000000000000000000000004000000000000000000000000000000000000000000000000000000000000003600000000000000000000000000000000000000000000000000000000065f9e319000000000000000000000000000000000000000000000000000000000001518000000000000000000000000000000000000000000000d3c21bcecceda10000000000000000000000000000000000000000000000000000000000000002faf080000000000000000000000000000000000000000000000000000000000000000000000000000000000000000000000000000000000000000000000000000013880000000000000000000000000000000000000000000000000000000000001f40000000000000000000000000000000000000000000000000000000000000eeee0000000000000000000000000000000000000000000000000000000000000000000000000000000000000000000000000000000000000000000000000000000000000000000000000000000000000000000000000000000000000000000000010000000000000000000000000000000000000000000000000000000000000000000000000000000000000000000000000000000000000000000000000000000000000000000000000000000000000000000000000000000000000000000000000000000000000000000000000000000000000000000000000000000000000000000000000000000000000000000000000000000000000000000000000000000000000000000000000000000000000000000000000000000000000000000000000000000000000000000000000000000000000000000000000000000000000001000000000000000000000000000000000000000000000000000000000000000000000000000000000000000022300cf0cc5f03c7c3db71b64529d2c8a9b93389000000000000000000000000000000000000000000000000000000000000000000000000000000000000000000000000000000000000000000000000000002e000000000000000000000000000000000000000000000000000000000000003000000000000000000000000000000000000000000000000000000000000000000000000000000000000000000000000000000000000000000000000000000000000000000000000000000000000000000000000000000000000000000661ecd190000000000000000000000000000000000000000000000000000000000093a8000000000000000000000000000000000000000000000152d02c7e14af68000000000000000000000000000000000000000000000000000000000000000009680000000000000000000000000000000000000000000000000000000000000000000000000000000000000000000000000000000000000000000000000000013880000000000000000000000000000000000000000000000000000000000001388000000000000000000000000000000000000000000000000000000000000eeee0000000000000000000000000000000000000000000000000000000000000000000000000000000000000000000000000000000000000000000000000000000000000000000000000000000000000000000000000000000000000000000000010000000000000000000000000000000000000000000000000000000000000000000000000000000000000000000000000000000000000000000000000000000000000000000000000000000000000000000000000000000000000000000000000000000000000000000000000000000000000000000000000000000000000000000000000000000000000000000000000000000000000000000000000000000000000000000000000000000000000000000000000000000000000000000000000000000000000000000000000000000000000000000000000000000000000001000000000000000000000000000000000000000000000000000000000000000000000000000000000000000022300cf0cc5f03c7c3db71b64529d2c8a9b93389000000000000000000000000000000000000000000000000000000000000000000000000000000000000000000000000000000000000000000000000000002e000000000000000000000000000000000000000000000000000000000000003000000000000000000000000000000000000000000000000000000000000000000000000000000000000000000000000000000000000000000000000000000000000000000000000000000000000000000000000000000000000000000000002a0000000000000000000000000000000000000000000000000000000000000eeee000000000000000000000000000000000000000000000000000000000000000100000000000000000000000000000000000000000000000000000000000000a000000000000000000000000000000000000000000000000000000000000000e042414e4e59000000000000000000000000000000000000000000000000000000000000000000000000000000000000000000000000000000000000000000000a42616e6e79766572736500000000000000000000000000000000000000000000000000000000000000000000000000000000000000000000000000000000000542414e4e590000000000000000000000000000000000000000000000000000000000000000000000000000000000000000000000000000000000000065f9e319000000000000000000000000000000000000000000000000000000000000138800000000000000000000000000000000000000000000d3c21bcecceda100000000000000000000000000000000000000000000000000000000000000000151800000000000000000000000000000000000000000000000000000000002faf08000000000000000000000000000000000000000000000000000000000000007d000000000000000000000000000000000000000000000000000000000661ecd19000000000000000000000000000000000000000000000000000000000000138800000000000000000000000000000000000000000000152d02c7e14af68000000000000000000000000000000000000000000000000000000000000000093a8000000000000000000000000000000000000000000000000000000000000096800000000000000000000000000000000000000000000000000000000000001388",
						"index": 637,
						"topics": [
							"0x4b827371715024f69a0bc98c8df6edafe6e471e78488ab1b3849de72f66b12e0",
							"0x0000000000000000000000000000000000000000000000000000000000000004"
						],
						"transactionHash": "0xa64346b40321a518b6b0e2f90e6825ff3a472e990442a0b747956bb64db9bbd4",
						"transactionIndex": 79
					},
					{
						"address": "0x22300Cf0Cc5F03C7c3Db71b64529D2C8A9b93389",
						"blockHash": "0x365627de5e56c345c1799725ff332c87308b7bbc4c5429cc1ce09b17ef9179a4",
						"blockNumber": 5713216,
						"data": "0x0000000000000000000000000000000000000000000000000000000000000040000000000000000000000000584f5da53cb18789099466074e3b5c32ed17243a0000000000000000000000000000000000000000000000000000000000000001000000000000000000000000000000000000000000000000000000000000002000000000000000000000000008af7b0c24c2c0f9965280eda62acc161a7a6538000000000000000000000000000000000000000000000000000000000000000000000000000000000000000000000000000000000000000000000000000000600000000000000000000000000000000000000000000000000000000000000000",
						"index": 638,
						"topics": [
							"0xdfaf2737f25eace49d372b472ec03f1df0f9814dfc69d2b95c5e92a041f42e29",
							"0x0000000000000000000000000000000000000000000000000000000000000004"
						],
						"transactionHash": "0xa64346b40321a518b6b0e2f90e6825ff3a472e990442a0b747956bb64db9bbd4",
						"transactionIndex": 79
					},
					{
						"address": "0xC3644756f243Ad1BDE2b4a65061Fc929803f72CA",
						"blockHash": "0x365627de5e56c345c1799725ff332c87308b7bbc4c5429cc1ce09b17ef9179a4",
						"blockNumber": 5713216,
						"data": "0x000000000000000000000000000000000000000000000000000000000000004000000000000000000000000022300cf0cc5f03c7c3db71b64529d2c8a9b933890000000000000000000000000000000000000000000000000000000000000004000000000000000000000000000000000000000000000000000000000000008000000000000000000000000000000000000000000000000000000000000001600000000000000000000000000000000000000000000000000000000000000240000000000000000000000000000000000000000000000000000000000000032000000000000000000000000008af7b0c24c2c0f9965280eda62acc161a7a6538000000000000000000000000000000000000000000000000000000000000006400000000000000000000000000000000000000000000000000038d7ea4c680000000000000000000000000000000000000000000000000000000000000002710000000000000000000000000000000000000000000000000000000003b9ac9ff00000000000000000000000000000000000000000000000000000000000000c0000000000000000000000000000000000000000000000000000000000000000000000000000000000000000008af7b0c24c2c0f9965280eda62acc161a7a65380000000000000000000000000000000000000000000000000000000000000065000000000000000000000000000000000000000000000000016345785d8a00000000000000000000000000000000000000000000000000000000000000000064000000000000000000000000000000000000000000000000000000003b9ac9ff00000000000000000000000000000000000000000000000000000000000000c0000000000000000000000000000000000000000000000000000000000000000000000000000000000000000008af7b0c24c2c0f9965280eda62acc161a7a653800000000000000000000000000000000000000000000000000000000000000660000000000000000000000000000000000000000000000000de0b6b3a7640000000000000000000000000000000000000000000000000000000000000000000a000000000000000000000000000000000000000000000000000000003b9ac9ff00000000000000000000000000000000000000000000000000000000000000c0000000000000000000000000000000000000000000000000000000000000000000000000000000000000000008af7b0c24c2c0f9965280eda62acc161a7a653800000000000000000000000000000000000000000000000000000000000000670000000000000000000000000000000000000000000000056bc75e2d63100000000000000000000000000000000000000000000000000000000000000000000a000000000000000000000000000000000000000000000000000000003b9ac9ff00000000000000000000000000000000000000000000000000000000000000c00000000000000000000000000000000000000000000000000000000000000000",
						"index": 639,
						"topics": [
							"0x721f1fc2dbea25cab88bdd50f9b47aff50f4b8c43ea6ea02b3587c82b940ad41",
							"0x0000000000000000000000000000000000000000000000000000000000000004"
						],
						"transactionHash": "0xa64346b40321a518b6b0e2f90e6825ff3a472e990442a0b747956bb64db9bbd4",
						"transactionIndex": 79
					},
					{
						"address": "0x711eda44F3D42F3d255846b5EE36Cf70Fd912E50",
						"blockHash": "0x365627de5e56c345c1799725ff332c87308b7bbc4c5429cc1ce09b17ef9179a4",
						"blockNumber": 5713216,
						"data": "0x0000000000000000000000000000000000000000000000000000000000000060000000000000000000000000000000000000000000000000000000000020000000000000000000000000000022300cf0cc5f03c7c3db71b64529d2c8a9b9338900000000000000000000000000000000000000000000000000000000000000010000000000000000000000000000000000000000000000000000000000000015",
						"index": 640,
						"topics": [
							"0xf8cdf10a0ce6189c6d069e97320ef146e2bcbd32d6c0b86dcbfbf3bd8578fa70",
							"0x000000000000000000000000c3644756f243ad1bde2b4a65061fc929803f72ca",
							"0x00000000000000000000000022300cf0cc5f03c7c3db71b64529d2c8a9b93389",
							"0x0000000000000000000000000000000000000000000000000000000000000004"
						],
						"transactionHash": "0xa64346b40321a518b6b0e2f90e6825ff3a472e990442a0b747956bb64db9bbd4",
						"transactionIndex": 79
					},
					{
						"address": "0x584F5Da53cb18789099466074e3B5c32Ed17243a",
						"blockHash": "0x365627de5e56c345c1799725ff332c87308b7bbc4c5429cc1ce09b17ef9179a4",
						"blockNumber": 5713216,
						"data": "0x",
						"index": 641,
						"topics": [
							"0x6895c13664aa4f67288b25d7a21d7aaa34916e355fb9b6fae0a139a9085becb8",
							"0x000000000000000000000000183b35e76a7bc60298dcb637515f50e4def9b68b"
						],
						"transactionHash": "0xa64346b40321a518b6b0e2f90e6825ff3a472e990442a0b747956bb64db9bbd4",
						"transactionIndex": 79
					},
					{
						"address": "0x183b35E76A7BC60298DCb637515F50e4DeF9b68b",
						"blockHash": "0x365627de5e56c345c1799725ff332c87308b7bbc4c5429cc1ce09b17ef9179a4",
						"blockNumber": 5713216,
						"data": "0x0000000000000000000000000000000000000000000000000000000000000005",
						"index": 642,
						"topics": [
							"0xa65fb05c5808f5f389d72edeaf719ce38f4cc55c1f69ca3cbfb31c21501caa07",
							"0x1b979134db888ac97f3cccaca7dbd2e6823596b3b33de6c8604fda511af490a2"
						],
						"transactionHash": "0xa64346b40321a518b6b0e2f90e6825ff3a472e990442a0b747956bb64db9bbd4",
						"transactionIndex": 79
					},
					{
						"address": "0xfa679f5ecdd8bE404c1FbAa7f29aEB2b12F5B662",
						"blockHash": "0x365627de5e56c345c1799725ff332c87308b7bbc4c5429cc1ce09b17ef9179a4",
						"blockNumber": 5713216,
						"data": "0x",
						"index": 643,
						"topics": [
							"0xddf252ad1be2c89b69c2b068fc378daa952ba7f163c4a11628f55a4df523b3ef",
							"0x000000000000000000000000584f5da53cb18789099466074e3b5c32ed17243a",
							"0x00000000000000000000000022300cf0cc5f03c7c3db71b64529d2c8a9b93389",
							"0x0000000000000000000000000000000000000000000000000000000000000004"
						],
						"transactionHash": "0xa64346b40321a518b6b0e2f90e6825ff3a472e990442a0b747956bb64db9bbd4",
						"transactionIndex": 79
					},
					{
						"address": "0x584F5Da53cb18789099466074e3B5c32Ed17243a",
						"blockHash": "0x365627de5e56c345c1799725ff332c87308b7bbc4c5429cc1ce09b17ef9179a4",
						"blockNumber": 5713216,
						"data": "0x",
						"index": 644,
						"topics": [
							"0x6895c13664aa4f67288b25d7a21d7aaa34916e355fb9b6fae0a139a9085becb8",
							"0x000000000000000000000000183b35e76a7bc60298dcb637515f50e4def9b68b"
						],
						"transactionHash": "0xa64346b40321a518b6b0e2f90e6825ff3a472e990442a0b747956bb64db9bbd4",
						"transactionIndex": 79
					},
					{
						"address": "0x183b35E76A7BC60298DCb637515F50e4DeF9b68b",
						"blockHash": "0x365627de5e56c345c1799725ff332c87308b7bbc4c5429cc1ce09b17ef9179a4",
						"blockNumber": 5713216,
						"data": "0x0000000000000000000000000000000000000000000000000000000000000006",
						"index": 645,
						"topics": [
							"0xa65fb05c5808f5f389d72edeaf719ce38f4cc55c1f69ca3cbfb31c21501caa07",
							"0x1b979134db888ac97f3cccaca7dbd2e6823596b3b33de6c8604fda511af490a2"
						],
						"transactionHash": "0xa64346b40321a518b6b0e2f90e6825ff3a472e990442a0b747956bb64db9bbd4",
						"transactionIndex": 79
					},
					{
						"address": "0x183b35E76A7BC60298DCb637515F50e4DeF9b68b",
						"blockHash": "0x365627de5e56c345c1799725ff332c87308b7bbc4c5429cc1ce09b17ef9179a4",
						"blockNumber": 5713216,
						"data": "0x",
						"index": 646,
						"topics": [
							"0x4383d976757d67ca920616be0b6430a681ea9d3dcce8d6d61d4603ca4a9bff63",
							"0x1b979134db888ac97f3cccaca7dbd2e6823596b3b33de6c8604fda511af490a2"
						],
						"transactionHash": "0xa64346b40321a518b6b0e2f90e6825ff3a472e990442a0b747956bb64db9bbd4",
						"transactionIndex": 79
					}
				],
				"logsBloom": "0x00c00000080010484220000204080202000800000008006500911000004080000000010100408002010000200448020000004000005020000800080000040000100000140082220000400048400200080001484080041800201080040080001008000000020000008801022000034800400800040000010040020012002040618000000a1042010000210000004100001082250a002000020000004122000000004018820214008000000000000000020218000000000060002222014004204000000002000804000080000068000a00011000809000008800400000080660000000000220800028000000000000010380005000000320000100000008000800",
				"status": 1,
				"to": "0xB5E96127D417b1B3ef8438496a38A143167209c7"
			},
			"metadata": "{\"compiler\":{\"version\":\"0.8.23+commit.f704f362\"},\"language\":\"Solidity\",\"output\":{\"abi\":[{\"inputs\":[{\"internalType\":\"address\",\"name\":\"owner\",\"type\":\"address\"},{\"internalType\":\"address\",\"name\":\"trustedForwarder\",\"type\":\"address\"}],\"stateMutability\":\"nonpayable\",\"type\":\"constructor\"},{\"inputs\":[],\"type\":\"error\",\"name\":\"ASSET_IS_ALREADY_BEING_WORN\"},{\"inputs\":[],\"type\":\"error\",\"name\":\"CONTENTS_ALREADY_STORED\"},{\"inputs\":[],\"type\":\"error\",\"name\":\"CONTENTS_MISMATCH\"},{\"inputs\":[],\"type\":\"error\",\"name\":\"HASH_ALREADY_STORED\"},{\"inputs\":[],\"type\":\"error\",\"name\":\"HASH_NOT_FOUND\"},{\"inputs\":[],\"type\":\"error\",\"name\":\"HEAD_ALREADY_ADDED\"},{\"inputs\":[{\"internalType\":\"address\",\"name\":\"owner\",\"type\":\"address\"}],\"type\":\"error\",\"name\":\"OwnableInvalidOwner\"},{\"inputs\":[{\"internalType\":\"address\",\"name\":\"account\",\"type\":\"address\"}],\"type\":\"error\",\"name\":\"OwnableUnauthorizedAccount\"},{\"inputs\":[],\"type\":\"error\",\"name\":\"SUIT_ALREADY_ADDED\"},{\"inputs\":[],\"type\":\"error\",\"name\":\"UNAUTHORIZED_NAKED_BANNY\"},{\"inputs\":[],\"type\":\"error\",\"name\":\"UNAUTHORIZED_OUTFIT\"},{\"inputs\":[],\"type\":\"error\",\"name\":\"UNAUTHORIZED_WORLD\"},{\"inputs\":[],\"type\":\"error\",\"name\":\"UNORDERED_CATEGORIES\"},{\"inputs\":[],\"type\":\"error\",\"name\":\"UNRECOGNIZED_CATEGORY\"},{\"inputs\":[],\"type\":\"error\",\"name\":\"UNRECOGNIZED_OUTFIT\"},{\"inputs\":[],\"type\":\"error\",\"name\":\"UNRECOGNIZED_TIER\"},{\"inputs\":[],\"type\":\"error\",\"name\":\"UNRECOGNIZED_WORLD\"},{\"inputs\":[{\"internalType\":\"address\",\"name\":\"hook\",\"type\":\"address\",\"indexed\":true},{\"internalType\":\"uint256\",\"name\":\"nakenBannyId\",\"type\":\"uint256\",\"indexed\":true},{\"internalType\":\"uint256\",\"name\":\"worldId\",\"type\":\"uint256\",\"indexed\":false},{\"internalType\":\"uint256[]\",\"name\":\"outfitIds\",\"type\":\"uint256[]\",\"indexed\":false},{\"internalType\":\"address\",\"name\":\"caller\",\"type\":\"address\",\"indexed\":false}],\"type\":\"event\",\"name\":\"DecorateBanny\",\"anonymous\":false},{\"inputs\":[{\"internalType\":\"address\",\"name\":\"previousOwner\",\"type\":\"address\",\"indexed\":true},{\"internalType\":\"address\",\"name\":\"newOwner\",\"type\":\"address\",\"indexed\":true}],\"type\":\"event\",\"name\":\"OwnershipTransferred\",\"anonymous\":false},{\"inputs\":[{\"internalType\":\"string\",\"name\":\"baseUri\",\"type\":\"string\",\"indexed\":false},{\"internalType\":\"address\",\"name\":\"caller\",\"type\":\"address\",\"indexed\":false}],\"type\":\"event\",\"name\":\"SetSvgBaseUri\",\"anonymous\":false},{\"inputs\":[{\"internalType\":\"uint256[]\",\"name\":\"tierId\",\"type\":\"uint256[]\",\"indexed\":true},{\"internalType\":\"string[]\",\"name\":\"svgContents\",\"type\":\"string[]\",\"indexed\":false},{\"internalType\":\"address\",\"name\":\"caller\",\"type\":\"address\",\"indexed\":false}],\"type\":\"event\",\"name\":\"SetSvgContents\",\"anonymous\":false},{\"inputs\":[{\"internalType\":\"uint256[]\",\"name\":\"tierIds\",\"type\":\"uint256[]\",\"indexed\":true},{\"internalType\":\"bytes32[]\",\"name\":\"svgHashs\",\"type\":\"bytes32[]\",\"indexed\":true},{\"internalType\":\"address\",\"name\":\"caller\",\"type\":\"address\",\"indexed\":false}],\"type\":\"event\",\"name\":\"SetSvgHashes\",\"anonymous\":false},{\"inputs\":[{\"internalType\":\"uint256[]\",\"name\":\"tierIds\",\"type\":\"uint256[]\",\"indexed\":true},{\"internalType\":\"string[]\",\"name\":\"names\",\"type\":\"string[]\",\"indexed\":false},{\"internalType\":\"address\",\"name\":\"caller\",\"type\":\"address\",\"indexed\":false}],\"type\":\"event\",\"name\":\"SetTierNames\",\"anonymous\":false},{\"inputs\":[{\"internalType\":\"uint256\",\"name\":\"tokenId\",\"type\":\"uint256\"},{\"internalType\":\"uint256\",\"name\":\"tierId\",\"type\":\"uint256\"},{\"internalType\":\"uint256\",\"name\":\"category\",\"type\":\"uint256\"}],\"stateMutability\":\"view\",\"type\":\"function\",\"name\":\"_nameOf\",\"outputs\":[{\"internalType\":\"string\",\"name\":\"\",\"type\":\"string\"}]},{\"inputs\":[{\"internalType\":\"uint256\",\"name\":\"nakedBannyId\",\"type\":\"uint256\"}],\"stateMutability\":\"view\",\"type\":\"function\",\"name\":\"assetIdsOf\",\"outputs\":[{\"internalType\":\"uint256\",\"name\":\"worldId\",\"type\":\"uint256\"},{\"internalType\":\"uint256[]\",\"name\":\"outfitIds\",\"type\":\"uint256[]\"}]},{\"inputs\":[{\"internalType\":\"address\",\"name\":\"hook\",\"type\":\"address\"},{\"internalType\":\"uint256\",\"name\":\"nakedBannyId\",\"type\":\"uint256\"},{\"internalType\":\"uint256\",\"name\":\"worldId\",\"type\":\"uint256\"},{\"internalType\":\"uint256[]\",\"name\":\"outfitIds\",\"type\":\"uint256[]\"}],\"stateMutability\":\"nonpayable\",\"type\":\"function\",\"name\":\"decorateBannyWith\"},{\"inputs\":[{\"internalType\":\"address\",\"name\":\"forwarder\",\"type\":\"address\"}],\"stateMutability\":\"view\",\"type\":\"function\",\"name\":\"isTrustedForwarder\",\"outputs\":[{\"internalType\":\"bool\",\"name\":\"\",\"type\":\"bool\"}]},{\"inputs\":[{\"internalType\":\"address\",\"name\":\"hook\",\"type\":\"address\"},{\"internalType\":\"uint256\",\"name\":\"tokenId\",\"type\":\"uint256\"}],\"stateMutability\":\"view\",\"type\":\"function\",\"name\":\"nameOf\",\"outputs\":[{\"internalType\":\"string\",\"name\":\"\",\"type\":\"string\"}]},{\"inputs\":[{\"internalType\":\"uint256\",\"name\":\"outfitId\",\"type\":\"uint256\"}],\"stateMutability\":\"view\",\"type\":\"function\",\"name\":\"outfitIsBeingWornBy\",\"outputs\":[{\"internalType\":\"uint256\",\"name\":\"\",\"type\":\"uint256\"}]},{\"inputs\":[],\"stateMutability\":\"view\",\"type\":\"function\",\"name\":\"owner\",\"outputs\":[{\"internalType\":\"address\",\"name\":\"\",\"type\":\"address\"}]},{\"inputs\":[],\"stateMutability\":\"nonpayable\",\"type\":\"function\",\"name\":\"renounceOwnership\"},{\"inputs\":[{\"internalType\":\"string\",\"name\":\"baseUri\",\"type\":\"string\"}],\"stateMutability\":\"nonpayable\",\"type\":\"function\",\"name\":\"setSvgBaseUri\"},{\"inputs\":[{\"internalType\":\"uint256[]\",\"name\":\"tierIds\",\"type\":\"uint256[]\"},{\"internalType\":\"string[]\",\"name\":\"svgContents\",\"type\":\"string[]\"}],\"stateMutability\":\"nonpayable\",\"type\":\"function\",\"name\":\"setSvgContentsOf\"},{\"inputs\":[{\"internalType\":\"uint256[]\",\"name\":\"tierIds\",\"type\":\"uint256[]\"},{\"internalType\":\"bytes32[]\",\"name\":\"svgHashs\",\"type\":\"bytes32[]\"}],\"stateMutability\":\"nonpayable\",\"type\":\"function\",\"name\":\"setSvgHashsOf\"},{\"inputs\":[{\"internalType\":\"uint256[]\",\"name\":\"tierIds\",\"type\":\"uint256[]\"},{\"internalType\":\"string[]\",\"name\":\"names\",\"type\":\"string[]\"}],\"stateMutability\":\"nonpayable\",\"type\":\"function\",\"name\":\"setTierNames\"},{\"inputs\":[],\"stateMutability\":\"view\",\"type\":\"function\",\"name\":\"svgBaseUri\",\"outputs\":[{\"internalType\":\"string\",\"name\":\"\",\"type\":\"string\"}]},{\"inputs\":[{\"internalType\":\"uint256\",\"name\":\"tierId\",\"type\":\"uint256\"}],\"stateMutability\":\"view\",\"type\":\"function\",\"name\":\"svgHashOf\",\"outputs\":[{\"internalType\":\"bytes32\",\"name\":\"\",\"type\":\"bytes32\"}]},{\"inputs\":[{\"internalType\":\"address\",\"name\":\"hook\",\"type\":\"address\"},{\"internalType\":\"uint256\",\"name\":\"tokenId\",\"type\":\"uint256\"},{\"internalType\":\"bool\",\"name\":\"shouldDressNakedBanny\",\"type\":\"bool\"},{\"internalType\":\"bool\",\"name\":\"shouldIncludeWorldOnNakedBanny\",\"type\":\"bool\"}],\"stateMutability\":\"view\",\"type\":\"function\",\"name\":\"svgOf\",\"outputs\":[{\"internalType\":\"string\",\"name\":\"\",\"type\":\"string\"}]},{\"inputs\":[{\"internalType\":\"address\",\"name\":\"hook\",\"type\":\"address\"},{\"internalType\":\"uint256\",\"name\":\"tokenId\",\"type\":\"uint256\"}],\"stateMutability\":\"view\",\"type\":\"function\",\"name\":\"tokenUriOf\",\"outputs\":[{\"internalType\":\"string\",\"name\":\"\",\"type\":\"string\"}]},{\"inputs\":[{\"internalType\":\"address\",\"name\":\"newOwner\",\"type\":\"address\"}],\"stateMutability\":\"nonpayable\",\"type\":\"function\",\"name\":\"transferOwnership\"},{\"inputs\":[],\"stateMutability\":\"view\",\"type\":\"function\",\"name\":\"trustedForwarder\",\"outputs\":[{\"internalType\":\"address\",\"name\":\"\",\"type\":\"address\"}]},{\"inputs\":[{\"internalType\":\"uint256\",\"name\":\"worldId\",\"type\":\"uint256\"}],\"stateMutability\":\"view\",\"type\":\"function\",\"name\":\"worldIsBeingUsedBy\",\"outputs\":[{\"internalType\":\"uint256\",\"name\":\"\",\"type\":\"uint256\"}]}],\"devdoc\":{\"kind\":\"dev\",\"methods\":{\"assetIdsOf(uint256)\":{\"params\":{\"nakedBannyId\":\"The ID of the naked banny shows with the associated assets.\"},\"returns\":{\"outfitIds\":\"The outfits attached to the Naked Banny.\",\"worldId\":\"The world attached to the Naked Banny.\"}},\"constructor\":{\"params\":{\"owner\":\"The owner allowed to add SVG files that correspond to tier IDs.\",\"trustedForwarder\":\"The trusted forwarder for the ERC2771Context.\"}},\"decorateBannyWith(address,uint256,uint256,uint256[])\":{\"details\":\"The caller must own the naked banny being dressed and all outfits being worn.\",\"params\":{\"hook\":\"The hook storing the assets.\",\"nakedBannyId\":\"The ID of the Naked Banny being dressed.\",\"outfitIds\":\"The IDs of the outfits that'll be associated with the specified banny. Only one outfit per outfit category allowed at a time and they must be passed in order.\",\"worldId\":\"The ID of the world that'll be associated with the specified banny.\"}},\"isTrustedForwarder(address)\":{\"details\":\"Indicates whether any particular address is the trusted forwarder.\"},\"nameOf(address,uint256)\":{\"params\":{\"hook\":\"The hook storing the assets.\",\"tokenId\":\"The ID of the token to show.\"},\"returns\":{\"_0\":\"The name of the token.\"}},\"outfitIsBeingWornBy(uint256)\":{\"params\":{\"outfitId\":\"The ID of the outfit being worn.\"},\"returns\":{\"_0\":\"The ID of the naked banny wearing the outfit.\"}},\"owner()\":{\"details\":\"Returns the address of the current owner.\"},\"renounceOwnership()\":{\"details\":\"Leaves the contract without owner. It will not be possible to call `onlyOwner` functions. Can only be called by the current owner. NOTE: Renouncing ownership will leave the contract without an owner, thereby disabling any functionality that is only available to the owner.\"},\"setSvgContentsOf(uint256[],string[])\":{\"params\":{\"svgContents\":\"The svg contents being stored, not including the parent <svg></svg> element.\",\"tierIds\":\"The IDs of the tiers having SVGs stored.\"}},\"setSvgHashsOf(uint256[],bytes32[])\":{\"details\":\"This allows anyone to lazily upload the correct svg file.\",\"params\":{\"svgHashs\":\"The svg hashes being stored, not including the parent <svg></svg> element.\",\"tierIds\":\"The IDs of the tiers having SVG hashes stored.\"}},\"setTierNames(uint256[],string[])\":{\"params\":{\"names\":\"The names of the tiers.\",\"tierIds\":\"The IDs of the tiers having their name stored.\"}},\"svgOf(address,uint256,bool,bool)\":{\"params\":{\"hook\":\"The hook storing the assets.\",\"shouldDressNakedBanny\":\"Whether the naked banny should be dressed.\",\"shouldIncludeWorldOnNakedBanny\":\"Whether the world should be included on the naked banny.\",\"tokenId\":\"The ID of the token to show. If the ID belongs to a Naked Banny, it will be shown with its current outfits in its current world if specified.\"},\"returns\":{\"_0\":\"svg The SVG.\"}},\"tokenUriOf(address,uint256)\":{\"params\":{\"tokenId\":\"The ID of the token to show. If the ID belongs to a Naked Banny, it will be shown with its current outfits in its current world.\"},\"returns\":{\"_0\":\"tokenUri The URI representing the SVG.\"}},\"transferOwnership(address)\":{\"details\":\"Transfers ownership of the contract to a new account (`newOwner`). Can only be called by the current owner.\"},\"trustedForwarder()\":{\"details\":\"Returns the address of the trusted forwarder.\"},\"worldIsBeingUsedBy(uint256)\":{\"params\":{\"worldId\":\"The ID of the world being used.\"},\"returns\":{\"_0\":\"The ID of the naked banny using the world.\"}}},\"version\":1},\"userdoc\":{\"kind\":\"user\",\"methods\":{\"_nameOf(uint256,uint256,uint256)\":{\"notice\":\"The name of each tier.\"},\"assetIdsOf(uint256)\":{\"notice\":\"The assets currently attached to each Naked Banny, owned by the naked Banny's owner.\"},\"decorateBannyWith(address,uint256,uint256,uint256[])\":{\"notice\":\"Dress your Naked Banny with outfits.\"},\"nameOf(address,uint256)\":{\"notice\":\"Returns the name of the token.\"},\"outfitIsBeingWornBy(uint256)\":{\"notice\":\"Checks to see which naked banny is currently wearing a particular outfit.\"},\"setSvgBaseUri(string)\":{\"notice\":\"Allows the owner of this contract to specify the base of the domain hosting the SVG files.\"},\"setSvgContentsOf(uint256[],string[])\":{\"notice\":\"The owner of this contract can store SVG files for tier IDs.\"},\"setSvgHashsOf(uint256[],bytes32[])\":{\"notice\":\"Allows the owner of this contract to upload the hash of an svg file for a tierId.\"},\"setTierNames(uint256[],string[])\":{\"notice\":\"Allows the owner to set the tier's name.\"},\"svgBaseUri()\":{\"notice\":\"The base of the domain hosting the SVG files that can be lazily uploaded to the contract.\"},\"svgHashOf(uint256)\":{\"notice\":\"The Naked Banny and outfit SVG hash files.\"},\"svgOf(address,uint256,bool,bool)\":{\"notice\":\"Returns the SVG showing either a naked banny with/without outfits and a world, or the stand alone outfit or world.\"},\"tokenUriOf(address,uint256)\":{\"notice\":\"Returns the SVG showing a dressed Naked Banny in a world.\"},\"worldIsBeingUsedBy(uint256)\":{\"notice\":\"Checks to see which naked banny is currently using a particular world.\"}},\"version\":1}},\"settings\":{\"remappings\":[\"@arbitrum/=node_modules/@arbitrum/\",\"@bananapus/=node_modules/@bananapus/\",\"@chainlink/=node_modules/@chainlink/\",\"@croptop/=node_modules/@croptop/\",\"@eth-optimism/=node_modules/@eth-optimism/\",\"@exhausted-pigeon/=node_modules/@exhausted-pigeon/\",\"@gnosis.pm/=node_modules/@bananapus/suckers/node_modules/@sphinx-labs/contracts/node_modules/@gnosis.pm/\",\"@offchainlabs/=node_modules/@offchainlabs/\",\"@openzeppelin/=node_modules/@openzeppelin/\",\"@prb/=node_modules/@prb/\",\"@rev-net/=node_modules/@rev-net/\",\"@scroll-tech/=node_modules/@scroll-tech/\",\"@sphinx-labs/contracts/=node_modules/@sphinx-labs/contracts/contracts/foundry/\",\"@uniswap/=node_modules/@uniswap/\",\"base64-sol/=node_modules/base64-sol/\",\"base64/=lib/base64/\",\"ds-test/=lib/forge-std/lib/ds-test/src/\",\"forge-std/=lib/forge-std/src/\",\"hardhat/=node_modules/hardhat/\",\"solmate/=node_modules/solmate/\",\"sphinx-forge-std/=node_modules/sphinx-forge-std/\",\"sphinx-solmate/=node_modules/sphinx-solmate/\",\"sphinx/=lib/sphinx/packages/contracts/contracts/forge-std/src/\"],\"optimizer\":{\"enabled\":true,\"runs\":200},\"metadata\":{\"bytecodeHash\":\"ipfs\"},\"compilationTarget\":{\"src/Banny721TokenUriResolver.sol\":\"Banny721TokenUriResolver\"},\"evmVersion\":\"paris\",\"libraries\":{},\"viaIR\":true},\"sources\":{\"lib/base64/base64.sol\":{\"keccak256\":\"0xa73959e6ef0b693e4423a562e612370160b934a75e618361ddd8c9c4b8ddbaaf\",\"urls\":[\"bzz-raw://17c12e16d8d66f3af15d8787920bd41ca6c1e7517a212a6b9cebd4b6d38f36fe\",\"dweb:/ipfs/QmcXMnZUXEz6LRKsm3CSvqdPboAzmezavi8bTg2dRxM2yE\"],\"license\":\"MIT\"},\"node_modules/@bananapus/721-hook/src/abstract/ERC721.sol\":{\"keccak256\":\"0xc25c7c60c88684adc3f7a49621d27866866a44a3f3796e63c9fcaba75fbb2e84\",\"urls\":[\"bzz-raw://713103b7a05402264493430cfcd7d85f1a241a2eb4756af53a370fa529ea07bf\",\"dweb:/ipfs/QmSXZfxCG1N9XheS1kLCNJZ9k6ZRq4GnAMY7MKFfbKLXmz\"],\"license\":\"MIT\"},\"node_modules/@bananapus/721-hook/src/interfaces/IJB721Hook.sol\":{\"keccak256\":\"0x24935445bc4c5b0fe2a10aabe549122588940842a68e79a8c39b1df9458dd7fd\",\"urls\":[\"bzz-raw://1dee273fa76d9abae116de911fdda5e3113db2a58939e62e24fba98c63fd037a\",\"dweb:/ipfs/QmT6Lih7DeRAfrLc8uC7ecaw2EAKwhaP2BZHeY5DxeeVLM\"],\"license\":\"MIT\"},\"node_modules/@bananapus/721-hook/src/interfaces/IJB721TiersHook.sol\":{\"keccak256\":\"0xbd9a8dae00a4b1a02c628bd172fe4ae496e49f7651426cef08774ffdb6125c23\",\"urls\":[\"bzz-raw://9ce4fd77d5af1f570dad6b70758f09f9599768e1ab32f6b473f6181197daa0c8\",\"dweb:/ipfs/QmWj6sCTvZ2CbfSyRuhaXADxYbwwPcR42pZokcgfjpsabg\"],\"license\":\"MIT\"},\"node_modules/@bananapus/721-hook/src/interfaces/IJB721TiersHookStore.sol\":{\"keccak256\":\"0x8550e216c12c9cda865c1b1b0eb3f244aeaa8d465b197d4bd0dd8d4df265682e\",\"urls\":[\"bzz-raw://674a312f1eaffd7c6b21f58f8d4a628104e71220daf48a22237fa3bd035ddf21\",\"dweb:/ipfs/QmSRSW6cSwdpoGjVxDqiwJmJyCxfHWhCxZ2iaqeJcN2Ccy\"],\"license\":\"MIT\"},\"node_modules/@bananapus/721-hook/src/interfaces/IJB721TokenUriResolver.sol\":{\"keccak256\":\"0xfa599167098f4459320ec4141a98a17b2dfffbce422baa27d8b4e4530f61ece1\",\"urls\":[\"bzz-raw://8b758b161f4c7b520b2c34b4d91e585e961b8f4ca278eebb91d791f7f2f45140\",\"dweb:/ipfs/QmcD9DF7NJ9QykQpT4KPzm4bs3fkjzukdAUWwdU6Atfw85\"],\"license\":\"MIT\"},\"node_modules/@bananapus/721-hook/src/libraries/JBIpfsDecoder.sol\":{\"keccak256\":\"0xb93ba562ac1fc9d3829be00e61f3a90f51df5661cf0f2c819a7f1d8ba19ec171\",\"urls\":[\"bzz-raw://fc9bc948fac8897d9720ef25b13d63c60b40a18aa1897dd1c657fc278c416b4f\",\"dweb:/ipfs/QmNtiJTALZW5zfyKVy7XG5GkqGgMrfkVvU4Auu4bb9cGQc\"],\"license\":\"MIT\"},\"node_modules/@bananapus/721-hook/src/structs/JB721InitTiersConfig.sol\":{\"keccak256\":\"0xfb78486cec94189d0ecf2050dc9cfc11245b426c73a0711a85bff1359d774307\",\"urls\":[\"bzz-raw://a8fa01f6e64dd204dbde07a60851e9a5a74e439e1411139ae16b7cf67d2a2692\",\"dweb:/ipfs/QmZAnHyfpKr3xr7NWHj5sGaCEEtG8RtmHhkRUJJvNauym5\"],\"license\":\"MIT\"},\"node_modules/@bananapus/721-hook/src/structs/JB721Tier.sol\":{\"keccak256\":\"0x2e267a8af02f125465cdda9308477346ae4a94b024c3b2c2a6af0c00027944dd\",\"urls\":[\"bzz-raw://367ccea2c8fa815d498d771d4367ef1ded718a76e89644102034bfe4a3636b82\",\"dweb:/ipfs/QmYiFFa6ei9wZBSSVUHfY2Cb35zCDVXvbmLcgLj2BTiC1u\"],\"license\":\"MIT\"},\"node_modules/@bananapus/721-hook/src/structs/JB721TierConfig.sol\":{\"keccak256\":\"0x2fa9c5c8cec182b854a656d3b284e9d5306be35ad3dc4da79d65dca12b804af0\",\"urls\":[\"bzz-raw://b443a5f70195a66145ea1dade04454ce9a3ff1209e1aaecf53c8a9909b294d79\",\"dweb:/ipfs/QmUDPFZ4L6XpV3zLQUNVchUvecD4XfddKz2S46BKek5XL1\"],\"license\":\"MIT\"},\"node_modules/@bananapus/721-hook/src/structs/JB721TiersHookFlags.sol\":{\"keccak256\":\"0x283d8429f31bd58875c056515aa42abd09c95362bd929e85cfc44a0d92585766\",\"urls\":[\"bzz-raw://9a580b89fe99d9f8e930c58a4d0d63a5ff7c01c79d210af01373d066c9e72ed6\",\"dweb:/ipfs/QmdY1eSGSoTjv4KSdsG4Tm5CzJN6iqk3qTRga5ZWNbejRz\"],\"license\":\"MIT\"},\"node_modules/@bananapus/721-hook/src/structs/JB721TiersMintReservesConfig.sol\":{\"keccak256\":\"0xab3b319dc4e736586ae595de194d93dcdfeba365bc7a54cf6c37e697f6074ad9\",\"urls\":[\"bzz-raw://a84ae2cf2e8c3e39e831dbb39a67a8eb43c78a6de6bb78b1be2e1f1e80c69efe\",\"dweb:/ipfs/QmboGXEMqsYTxc4a7oft9rggNU7ShWSa9yB4HFMVmzXCHz\"],\"license\":\"MIT\"},\"node_modules/@bananapus/core/src/enums/JBApprovalStatus.sol\":{\"keccak256\":\"0x61c69b6bac7d24b566d87cda23a77e4ca9cdb87200b106aba8534cb9a0973e33\",\"urls\":[\"bzz-raw://6a9ca7249de76f77a8252eefe6bd1b63d47952f25a2acfa2c8db967cdff4470c\",\"dweb:/ipfs/QmaxSxptRQNj8bNy96EreENmrnRWdKmhyihBcxyWzBX5BN\"],\"license\":\"MIT\"},\"node_modules/@bananapus/core/src/interfaces/IJBDirectory.sol\":{\"keccak256\":\"0x9cc380844aef60078ee47a61861e55a29c4a8c947efd556ebd36e6909f7b9d62\",\"urls\":[\"bzz-raw://9f5190ec8b6683d9781ee6e9eedcc91294753242748875d4a06349077e4cbaaf\",\"dweb:/ipfs/QmTQrPuXT9TCA4txwrperMeXSGvGxP8iokUK47f62F388i\"],\"license\":\"MIT\"},\"node_modules/@bananapus/core/src/interfaces/IJBPayHook.sol\":{\"keccak256\":\"0x9438866782c652c2942f4d114e35f393cd3c8b0334abce8387eed90bca35e8b2\",\"urls\":[\"bzz-raw://cfd99daf57213f92325aad7d7d16e98476d38e870470e95ba01e3ae3cdecc95d\",\"dweb:/ipfs/QmUKKAVGf7ki8BHksr99tFcRW8APveeB5tNH63ctTbbCW8\"],\"license\":\"MIT\"},\"node_modules/@bananapus/core/src/interfaces/IJBPriceFeed.sol\":{\"keccak256\":\"0x4bd84c0f1a5d4729ed709bcddd43f4c50ec4a165ece79780af8dce482ed07d4a\",\"urls\":[\"bzz-raw://62bac4bfb6982fb002f620c77e5c445e62d50241a5aa64a07e51d929f5a42180\",\"dweb:/ipfs/QmWgJUDreVY2BuMX38a1iUUR5kNbMwGnKG3VvurB7oZtuM\"],\"license\":\"MIT\"},\"node_modules/@bananapus/core/src/interfaces/IJBPrices.sol\":{\"keccak256\":\"0x99525f31440b955742dce84ba57de9fc1221139b5367c1f834723bef9e13e6e1\",\"urls\":[\"bzz-raw://6fa03f0cd4ad87dd7cbae7bf7f54463450874291773c8f70f2c31ef2cae62bb0\",\"dweb:/ipfs/QmSPajPV5ismteJuB6Spzm9VmhTj2iS3eVrfpJC1Zuzg8n\"],\"license\":\"MIT\"},\"node_modules/@bananapus/core/src/interfaces/IJBProjects.sol\":{\"keccak256\":\"0x735c2fb8f1fa827f054ee77f7a0ae4b312656217acb75b624d2c8fd9dc40151b\",\"urls\":[\"bzz-raw://ee7fc92299a8633a80693ae63ab494dcd125f1789487a54a39dc0e5696e5996f\",\"dweb:/ipfs/QmX7YJD4pS2XhgQb7p3JbBAXynT7YGPXcZe92BiWWRrsCL\"],\"license\":\"MIT\"},\"node_modules/@bananapus/core/src/interfaces/IJBRulesetApprovalHook.sol\":{\"keccak256\":\"0x592e95d159494421c6b1bcb362d0cee1df0132921697351304e9cd7af4fbd386\",\"urls\":[\"bzz-raw://5bebfd5fa67c1b6ea16fa2e76e9520e9dfe52a579f48dd94d0c2ec45f78ad178\",\"dweb:/ipfs/QmRUawEGtfYoYSHmHELGhvJoWuMsxLPKtqAXgsrb7fJboP\"],\"license\":\"MIT\"},\"node_modules/@bananapus/core/src/interfaces/IJBRulesets.sol\":{\"keccak256\":\"0xd3f817d22ecbe24da63c552c069bf0c4fbbf3bcd5c3b5633002afd24aacf6882\",\"urls\":[\"bzz-raw://c1185aec0f6b6f0f4d93ffeeed0972ccf38420b00fe570b5e1838ed2b1f5db49\",\"dweb:/ipfs/QmWz36azGTFnjFXpFSh6BHt4nactgjtF64L3PeTqs4ZqSR\"],\"license\":\"MIT\"},\"node_modules/@bananapus/core/src/interfaces/IJBTerminal.sol\":{\"keccak256\":\"0x19dc9bf8cbdc8f13ee5da9dc3a87047eacb94a3fc19740a286c1f0bad2cc39ca\",\"urls\":[\"bzz-raw://0b05ae6fda9a85672508232fd992b8a5f5ffd8096622eeb12c8a7b3317eb3867\",\"dweb:/ipfs/QmNh9Quj37BXYGdTdcCD1Q58PchRsE5TLbEZep56qS3MpV\"],\"license\":\"MIT\"},\"node_modules/@bananapus/core/src/interfaces/IJBTokenUriResolver.sol\":{\"keccak256\":\"0xfa5cb00dcd6085d1ef912d071fe73c63f9478a2cd0f9d8bddaf659b6af2d0967\",\"urls\":[\"bzz-raw://282e4e7c342d65f77cde0e9a08fcaf20ef5cf379c7a48b639842c0ffd0b2afb8\",\"dweb:/ipfs/QmbnN3PEQeZaXdPLT75V1J79kMg7KqSMru37RHrL3z8Yf2\"],\"license\":\"MIT\"},\"node_modules/@bananapus/core/src/structs/JBAccountingContext.sol\":{\"keccak256\":\"0x2907ff54d1e903cc7e0390dd88c3975884702dc2673642aacbe22b66560b56de\",\"urls\":[\"bzz-raw://a66a5381ce877b32f0e0058ceeaf843e9b6b2bc8af666c0c9f4a9d01091da004\",\"dweb:/ipfs/QmQynCetUr37dBkS1YwDS8evxuXGiqanW6THmeUxXtim8w\"],\"license\":\"MIT\"},\"node_modules/@bananapus/core/src/structs/JBAfterPayRecordedContext.sol\":{\"keccak256\":\"0xd26c3a774ff38be79064085970454fe2603a23a638c76270d5b1b3829206c3e8\",\"urls\":[\"bzz-raw://3b55dbe3bf1ef625b7ca04efab3de35406e6041d5b3d82c7265469c500e2b702\",\"dweb:/ipfs/QmUdBDo4Lt3mcsFcsXT2mqq3czFwZjQJFPLM89YA2VtD7k\"],\"license\":\"MIT\"},\"node_modules/@bananapus/core/src/structs/JBRuleset.sol\":{\"keccak256\":\"0x15b2bf3174d84846a91ccbf5a344dfb125b55ed9cf50102db8d6868844225189\",\"urls\":[\"bzz-raw://647416b025dbd941094db89cbc69f755c155bd6c87be3f322394ccc4a8e0442d\",\"dweb:/ipfs/QmTCL9xcHnxQ4t5AmCPoZvXDUPW5xhzhyyXYbkMdyg44au\"],\"license\":\"MIT\"},\"node_modules/@bananapus/core/src/structs/JBTokenAmount.sol\":{\"keccak256\":\"0x5cf0626b73a596c1e2da17c89ae039a7c0374310b060d48568d3b6c11fbe6180\",\"urls\":[\"bzz-raw://63348b50be95e2995409394a17caffc563a646f0972650a1230bf864fbd3219b\",\"dweb:/ipfs/QmZXZpS3SbFD5nWaCauf6AqbEhLURv5qsKHpThBvQgDU6u\"],\"license\":\"MIT\"},\"node_modules/@openzeppelin/contracts/access/Ownable.sol\":{\"keccak256\":\"0xff6d0bb2e285473e5311d9d3caacb525ae3538a80758c10649a4d61029b017bb\",\"urls\":[\"bzz-raw://8ed324d3920bb545059d66ab97d43e43ee85fd3bd52e03e401f020afb0b120f6\",\"dweb:/ipfs/QmfEckWLmZkDDcoWrkEvMWhms66xwTLff9DDhegYpvHo1a\"],\"license\":\"MIT\"},\"node_modules/@openzeppelin/contracts/interfaces/draft-IERC6093.sol\":{\"keccak256\":\"0x60c65f701957fdd6faea1acb0bb45825791d473693ed9ecb34726fdfaa849dd7\",\"urls\":[\"bzz-raw://ea290300e0efc4d901244949dc4d877fd46e6c5e43dc2b26620e8efab3ab803f\",\"dweb:/ipfs/QmcLLJppxKeJWqHxE2CUkcfhuRTgHSn8J4kijcLa5MYhSt\"],\"license\":\"MIT\"},\"node_modules/@openzeppelin/contracts/metatx/ERC2771Context.sol\":{\"keccak256\":\"0x98256cf37b71a69b2f5a8a6fe975ea03590dff703102bd141a830f94e8adebf6\",\"urls\":[\"bzz-raw://6251fe1f6a1e45e6d619d150c123afc88b8646b38ee26a136efa9a6988a31d3f\",\"dweb:/ipfs/QmeXDT85wSZdP31wkz3ah3KhponCiksJLP5o2LR5e1JxcK\"],\"license\":\"MIT\"},\"node_modules/@openzeppelin/contracts/token/ERC721/IERC721.sol\":{\"keccak256\":\"0x5ef46daa3b58ef2702279d514780316efaa952915ee1aa3396f041ee2982b0b4\",\"urls\":[\"bzz-raw://2f8f2a76e23b02fc69e8cd24c3cb47da6c7af3a2d6c3a382f8ac25c6e094ade7\",\"dweb:/ipfs/QmPV4ZS4tPVv4mTCf9ejyZ1ai57EEibDRj7mN2ARDCLV5n\"],\"license\":\"MIT\"},\"node_modules/@openzeppelin/contracts/token/ERC721/IERC721Receiver.sol\":{\"keccak256\":\"0x7f7a26306c79a65fb8b3b6c757cd74660c532cd8a02e165488e30027dd34ca49\",\"urls\":[\"bzz-raw://d01e0b2b837ee2f628545e54d8715b49c7ef2befd08356c2e7f6c50dde8a1c22\",\"dweb:/ipfs/QmWBAn6y2D1xgftci97Z3qR9tQnkvwQpYwFwkTvDMvqU4i\"],\"license\":\"MIT\"},\"node_modules/@openzeppelin/contracts/token/ERC721/extensions/IERC721Metadata.sol\":{\"keccak256\":\"0x37d1aaaa5a2908a09e9dcf56a26ddf762ecf295afb5964695937344fc6802ce1\",\"urls\":[\"bzz-raw://ed0bfc1b92153c5000e50f4021367b931bbe96372ac6facec3c4961b72053d02\",\"dweb:/ipfs/Qmbwp8VDerjS5SV1quwHH1oMXxPQ93fzfLVqJ2RCqbowGE\"],\"license\":\"MIT\"},\"node_modules/@openzeppelin/contracts/utils/Context.sol\":{\"keccak256\":\"0x493033a8d1b176a037b2cc6a04dad01a5c157722049bbecf632ca876224dd4b2\",\"urls\":[\"bzz-raw://6a708e8a5bdb1011c2c381c9a5cfd8a9a956d7d0a9dc1bd8bcdaf52f76ef2f12\",\"dweb:/ipfs/Qmax9WHBnVsZP46ZxEMNRQpLQnrdE4dK8LehML1Py8FowF\"],\"license\":\"MIT\"},\"node_modules/@openzeppelin/contracts/utils/Strings.sol\":{\"keccak256\":\"0x55f102ea785d8399c0e58d1108e2d289506dde18abc6db1b7f68c1f9f9bc5792\",\"urls\":[\"bzz-raw://6e52e0a7765c943ef14e5bcf11e46e6139fa044be564881378349236bf2e3453\",\"dweb:/ipfs/QmZEeeXoFPW47amyP35gfzomF9DixqqTEPwzBakv6cZw6i\"],\"license\":\"MIT\"},\"node_modules/@openzeppelin/contracts/utils/introspection/ERC165.sol\":{\"keccak256\":\"0x9e8778b14317ba9e256c30a76fd6c32b960af621987f56069e1e819c77c6a133\",\"urls\":[\"bzz-raw://1777404f1dcd0fac188e55a288724ec3c67b45288e49cc64723e95e702b49ab8\",\"dweb:/ipfs/QmZFdC626GButBApwDUvvTnUzdinevC3B24d7yyh57XkiA\"],\"license\":\"MIT\"},\"node_modules/@openzeppelin/contracts/utils/introspection/IERC165.sol\":{\"keccak256\":\"0x4296879f55019b23e135000eb36896057e7101fb7fb859c5ef690cf14643757b\",\"urls\":[\"bzz-raw://87b3541437c8c443ccd36795e56a338ed12855eec17f8da624511b8d1a7e14df\",\"dweb:/ipfs/QmeJQCtZrQjtJLr6u7ZHWeH3pBnjtLWzvRrKViAi7UZqxL\"],\"license\":\"MIT\"},\"node_modules/@openzeppelin/contracts/utils/math/Math.sol\":{\"keccak256\":\"0x005ec64c6313f0555d59e278f9a7a5ab2db5bdc72a027f255a37c327af1ec02d\",\"urls\":[\"bzz-raw://4ece9f0b9c8daca08c76b6b5405a6446b6f73b3a15fab7ff56e296cbd4a2c875\",\"dweb:/ipfs/QmQyRpyPRL5SQuAgj6SHmbir3foX65FJjbVTTQrA2EFg6L\"],\"license\":\"MIT\"},\"node_modules/@openzeppelin/contracts/utils/math/SignedMath.sol\":{\"keccak256\":\"0x5f7e4076e175393767754387c962926577f1660dd9b810187b9002407656be72\",\"urls\":[\"bzz-raw://7d533a1c97cd43a57cd9c465f7ee8dd0e39ae93a8fb8ff8e5303a356b081cdcc\",\"dweb:/ipfs/QmVBEei6aTnvYNZp2CHYVNKyZS4q1KkjANfY39WVXZXVoT\"],\"license\":\"MIT\"},\"src/Banny721TokenUriResolver.sol\":{\"keccak256\":\"0xc885897d68281ec592cd913cc2dfac091d67c5004c3a91ac429da72618db3f1f\",\"urls\":[\"bzz-raw://6b0ae6ddd114a3a8c67e1c0ad32456ef4c0f57ae78ef96d691a09abaee970f68\",\"dweb:/ipfs/QmfGTJdxtggmritDXdxNB728iURR9TXtWvecGJzA1nsmXf\"],\"license\":\"MIT\"}},\"version\":1}",
			"args": [
				"0x584F5Da53cb18789099466074e3B5c32Ed17243a",
				"0xB2b5841DBeF766d4b521221732F9B618fCf34A87"
			],
			"bytecode": "0x60a034620000e957601f62005c3838819003918201601f19168301916001600160401b03831184841017620000ee578084926040948552833981010312620000e9576200005a6020620000528362000104565b920162000104565b6080526001600160a01b039081168015620000d057600080546001600160a01b03198116831782556040519316907f8be0079c531659141344cd1fd0a4f28419497f9722a3daafe3b4186f6b6457e09080a3615b1e90816200011a823960805181818161090501528181610a2b015261592b0152f35b604051631e4fbdf760e01b815260006004820152602490fd5b600080fd5b634e487b7160e01b600052604160045260246000fd5b51906001600160a01b0382168203620000e95756fe6080604052600436101561001257600080fd5b60003560e01c806257bfdd146101465780631e4578de1461014157806331a290ac1461013c5780634d03376e14610137578063572b6c05146101325780635e703e711461012d5780636aff31dd14610128578063715018a6146101235780637508ac831461011e5780637da0a87714610119578063875e4bea146101145780638da5cb5b1461010f578063a22d0dd51461010a578063aeac5e3514610105578063b03a3eab14610100578063c06e7bc7146100fb578063f2fde38b146100f6578063f92df2e3146100f15763f9fed041146100ec57600080fd5b6114e7565b6114c2565b611436565b610e2a565b610d87565b610c63565b610c1e565b610beb565b610a5a565b610a15565b6109ef565b610991565b610965565b610939565b6108e1565b6107ff565b610635565b6104a6565b61042b565b90600182811c9216801561017b575b602083101461016557565b634e487b7160e01b600052602260045260246000fd5b91607f169161015a565b634e487b7160e01b600052604160045260246000fd5b602081019081106001600160401b038211176101b657604052565b610185565b61026081019081106001600160401b038211176101b657604052565b6111a081019081106001600160401b038211176101b657604052565b606081019081106001600160401b038211176101b657604052565b6101c081019081106001600160401b038211176101b657604052565b604081019081106001600160401b038211176101b657604052565b90601f801991011681019081106001600160401b038211176101b657604052565b604051906000826002549161027a8361014b565b8083529260209060019081811690811561030857506001146102a7575b50506102a592500383610245565b565b91509260026000527f405787fa12a823e0f2b7631cc41b3ba8828b3321ca811111fa75cd3aa3bb5ace936000925b8284106102f057506102a59450505081016020013880610297565b855488850183015294850194879450928101926102d5565b915050602092506102a594915060ff191682840152151560051b8201013880610297565b9060405191826000825461033f8161014b565b908184526020946001916001811690816000146103ad575060011461036e575b5050506102a592500383610245565b600090815285812095935091905b8183106103955750506102a5935082010138808061035f565b8554888401850152948501948794509183019161037c565b925050506102a594925060ff191682840152151560051b82010138808061035f565b60005b8381106103e25750506000910152565b81810151838201526020016103d2565b9060209161040b815180928185528580860191016103cf565b601f01601f1916010190565b9060206104289281815201906103f2565b90565b3461045f57600036600319011261045f5761045b610447610266565b6040519182916020835260208301906103f2565b0390f35b600080fd5b604081019181526060602091604060208201528151809452019160809160005b828110610492575050505090565b835185529381019392810192600101610484565b3461045f5760208060031936011261045f57600435906000918083526005602052604083209060405180938491602085549182815201948752602087209187905b828210610554575050505061050190610511930384610245565b6000526006602052604060002090565b5491815191815b83811061052d576040518061045b8782610464565b8061053a60019284611540565b5161054d6105478661156a565b9561151b565b5201610518565b8354875295860195879450600193840193909101906104e7565b604051906101a082018281106001600160401b038211176101b657604052565b6001600160401b0381116101b65760051b60200190565b9080601f8301121561045f5760209082356105bf8161058e565b936105cd6040519586610245565b81855260208086019260051b82010192831161045f57602001905b8282106105f6575050505090565b813581529083019083016105e8565b9181601f8401121561045f578235916001600160401b03831161045f576020808501948460051b01011161045f57565b3461045f5760408060031936011261045f576001600160401b036004803582811161045f5761066790369083016105a5565b9160243590811161045f5761067f9036908301610605565b909183519060005b8281106106d0575050506106cb6106be7f7b414cb0ad21f3dfa349dbd1d4ca10eeb276661a7af9df6e18086aed7c31c8d694611767565b94519283923391846117c2565b0390a2005b6106da8187611540565b516106f06106e983878961157e565b36916107c8565b9061070d610708826000526004602052604060002090565b6115bf565b61079d57610725816000526001602052604060002090565b54801561078d578951602081019061074f8161074184886115c9565b03601f198101835282610245565b5190200361077d5760019291610772610777926000526004602052604060002090565b611692565b01610687565b88516375b5da0b60e01b81528490fd5b8951637ef41a4f60e01b81528590fd5b8851630388067760e21b81528490fd5b6001600160401b0381116101b657601f01601f191660200190565b9291926107d4826107ad565b916107e26040519384610245565b82948184528183011161045f578281602093846000960137010152565b3461045f57604036600319011261045f576001600160401b0360043581811161045f576108309036906004016105a5565b60249060243583811161045f573660238201121561045f578060040135926108578461058e565b936108656040519586610245565b8085526020956024602087019260051b8501019336851161045f5760248101925b85841061089957610897888861185f565b005b833583811161045f5782013660438201121561045f5789916108c58392369060448a82013591016107c8565b815201930192610886565b6001600160a01b0381160361045f57565b3461045f57602036600319011261045f576020600435610900816108d0565b6040517f00000000000000000000000000000000000000000000000000000000000000006001600160a01b039081169216919091148152f35b3461045f57604036600319011261045f5761045b61044760043561095c816108d0565b60243590611cbd565b3461045f57602036600319011261045f5760043560005260016020526020604060002054604051908152f35b3461045f576000806003193601126109ec576109ab6131fa565b80546001600160a01b03198116825581906001600160a01b03167f8be0079c531659141344cd1fd0a4f28419497f9722a3daafe3b4186f6b6457e08280a380f35b80fd5b3461045f57602036600319011261045f576020610a0d600435612055565b604051908152f35b3461045f57600036600319011261045f576040517f00000000000000000000000000000000000000000000000000000000000000006001600160a01b03168152602090f35b3461045f5760208060031936011261045f576004356001600160401b0380821161045f573660238301121561045f57816004013590811161045f57602492366024838501011161045f57610aac6131fa565b610ac082610abb60025461014b565b6115f7565b600093601f8311600114610b3e575050610b1381807f512c3c91736f50c57a0548c1d01ab02f24c420f002b8b20e2bfe63df9693cd3f95600091610b30575b508160011b916000199060031b1c19161790565b6002555b610b2b604051928392602433920184612103565b0390a1005b602491508501013538610aff565b6002600052601f19831694907f405787fa12a823e0f2b7631cc41b3ba8828b3321ca811111fa75cd3aa3bb5ace9282915b878310610bcf57505050827f512c3c91736f50c57a0548c1d01ab02f24c420f002b8b20e2bfe63df9693cd3f9510610bb2575b5050600181811b01600255610b17565b830160240135600019600384901b60f8161c191690553880610ba2565b908060018596848396978b010135815501950193019190610b6f565b3461045f57600036600319011261045f576000546040516001600160a01b039091168152602090f35b8015150361045f57565b3461045f57608036600319011261045f5761045b610447600435610c41816108d0565b604435610c4d81610c14565b60643591610c5a83610c14565b602435906127d8565b3461045f57604036600319011261045f57600435610c80816108d0565b60405163507f146560e01b815260243591906001600160a01b03906020816004818587165afa8015610d5157610cf79360009386938593610d56575b5060405163c44a8e6d60e01b81526001600160a01b039092166004830152602482019390935260006044820152938492839182906064820190565b0392165afa918215610d515761045b92610d2292600091610d2e575b50610100815191015191612ff1565b60405191829182610417565b610d4b91503d806000833e610d438183610245565b810190611ab0565b38610d13565b611a4c565b610d7991935060203d602011610d80575b610d718183610245565b810190611a37565b9138610cbc565b503d610d67565b3461045f57604036600319011261045f576001600160401b0360043581811161045f57610db89036906004016105a5565b9060243590811161045f573660238201121561045f578060040135610ddc8161058e565b91610dea6040519384610245565b8183526020916024602085019160051b8301019136831161045f57602401905b828210610e1b5761089785876129bc565b81358152908301908301610e0a565b3461045f57608036600319011261045f5760048035610e48816108d0565b60243590604435926064356001600160401b03811161045f57610e6e9036908301610605565b94909160018060a01b0380851694604092610ea68451926331a9108f60e11b938481528a818060209586938883019190602083019252565b03818d5afa908115610d5157600091611419575b5085610ed3610ec7615928565b6001600160a01b031690565b911603611409578a87156113e157508551848152828180610efb8b8883019190602083019252565b03818d5afa908115610d51576000916113c4575b5085610f1c610ec7615928565b9116036113b457610f2c876131b9565b6113a457855163507f146560e01b8152828185818d5afa8015610d5157610f9360009188938391611387575b50895163c44a8e6d60e01b81526001600160a01b038616888201908152602081018d9052600060408201529094859384928391606090910190565b0392165afa908115610d515760009161136c575b50511561135c57908a93929187610fc88c6000526006602052604060002090565b558a610fde896000526007602052604060002090565b55909a5093909192935b600091610ff3612a6c565b5060009b60009260005b888110611064578d8d7f6a68946ba06488db8585d7c7637fa954b574035fe15720ea760125ef860172588e8e61105f8f8f61104c81866110478b6000526005602052604060002090565b612b05565b611054615928565b915194859485612b7e565b0390a3005b889e611097848f8f908b8f928e9f889061107d92612add565b359e8f935195869485938493845283019190602083019252565b03915afa908115610d515760009161133f575b50856110b7610ec7615928565b91160361132f576110c78a612055565b61131f5787848f8d519283809263507f146560e01b82525afa8015610d51578b600091868f8d8b91611135978795611300575b505163c44a8e6d60e01b81526001600160a01b0390931690830190815260208101949094526000604085015290948593849291839160600190565b0392165afa908115610d51576000916112e7575b508051156112d75761010001968751600281109081156112cc575b506112bc5782151590816112b0575b506112a057908f98979695949392918f9087518981146000146111c1575050906001916111ae83985b519c6000526008602052604060002090565b550190919293949e509794959697610ffd565b600891999a9b50809250969293949596146000146111f15750509060018f989796959493928f6111ae839761119c565b979f9d9b9998979a9e9c9a600581979297148015611296575b801561128c575b80611285575b1561122c57508f8f51631e550b6f60e11b8152fd5b9d9f9798999b9d9c9e9a9c600a811490811561127a575b5080611273575b611263578f98979695949392918f6111ae60019361119c565b8a51635e701b2b60e01b81528890fd5b508561124a565b600991501438611243565b5087611217565b50600b8114611211565b506006811461120a565b8a51637dc0e82560e11b81528890fd5b90508751111538611173565b8b5163c89badbd60e01b81528990fd5b600d91501138611164565b8b516354c0901d60e11b81528990fd5b6112fa913d8091833e610d438183610245565b38611149565b6113189195508c8d3d10610d8057610d718183610245565b93386110fa565b8a5163670bdddd60e11b81528890fd5b8a5163812a698960e01b81528890fd5b6113569150853d8711610d8057610d718183610245565b386110aa565b855163265ba87960e01b81528390fd5b61138191503d806000833e610d438183610245565b38610fa7565b61139e9150863d8811610d8057610d718183610245565b38610f58565b855163670bdddd60e11b81528390fd5b8551639d17cec760e01b81528390fd5b6113db9150833d8511610d8057610d718183610245565b38610f0f565b9392919060006113fb8c6000526006602052604060002090565b55909a509390919293610fe8565b8551632add3f4b60e01b81528390fd5b6114309150833d8511610d8057610d718183610245565b38610eba565b3461045f57602036600319011261045f57600435611453816108d0565b61145b6131fa565b6001600160a01b0390811680156114a957600080546001600160a01b03198116831782559092167f8be0079c531659141344cd1fd0a4f28419497f9722a3daafe3b4186f6b6457e08380a380f35b604051631e4fbdf760e01b815260006004820152602490fd5b3461045f57606036600319011261045f5761045b610447604435602435600435612ff1565b3461045f57602036600319011261045f576020610a0d6004356131b9565b634e487b7160e01b600052603260045260246000fd5b60605181101561152e5760051b60800190565b611505565b80511561152e5760200190565b805182101561152e5760209160051b010190565b634e487b7160e01b600052601160045260246000fd5b60001981146115795760010190565b611554565b919081101561152e5760051b81013590601e198136030182121561045f5701908135916001600160401b03831161045f57602001823603811361045f579190565b610428905461014b565b906115dc602092828151948592016103cf565b0190565b8181106115eb575050565b600081556001016115e0565b90601f8211611604575050565b6102a59160026000527f405787fa12a823e0f2b7631cc41b3ba8828b3321ca811111fa75cd3aa3bb5ace906020601f840160051c8301931061164e575b601f0160051c01906115e0565b9091508190611641565b9190601f811161166757505050565b6102a5926000526020600020906020601f840160051c8301931061164e57601f0160051c01906115e0565b91909182516001600160401b0381116101b6576116b9816116b3845461014b565b84611658565b602080601f83116001146116fc575081906116ed9394956000926116f1575b50508160011b916000199060031b1c19161790565b9055565b0151905038806116d8565b90601f1983169561171285600052602060002090565b926000905b88821061174f57505083600195969710611736575b505050811b019055565b015160001960f88460031b161c1916905538808061172c565b80600185968294968601518155019501930190611717565b60405190818183925160208092019160005b82811061178a575050505003902090565b835185528695509381019392810192600101611779565b908060209392818452848401376000828201840152601f01601f1916010190565b9392919081604086016040875252606085019160608160051b87010192826000905b8382106118065750505050509060206102a59294019060018060a01b03169052565b9091929394605f198982030184528535601e198336030181121561045f578201803560208092016001600160401b03821161045f57813603811361045f576001938392611852926117a1565b97019594019201906117e4565b91906118696131fa565b8251926000935b8085106118bd57507f31ddb2f0a32be79206d6bf3e670f8cc38863c4984b95cdbe8ed6eba58207a3a5919293506118a96118b891611767565b926040519182913390836119c3565b0390a2565b6118c78583611540565b51946118d38185611540565b5195600052600360208181526040600020918851916001600160401b0383116101b65761190a83611904865461014b565b86611658565b8091601f841160011461194f5750509080611942926001969798999a6000926116f15750508160011b916000199060031b1c19161790565b90555b0193929190611870565b9091601f1984169a61196686600052602060002090565b936000905b8d82106119ab57505084600198999a9b9c10611991575b50505050831b83019055611945565b01519060f884600019921b161c1916905538808080611982565b8060018597829496860151815501960193019061196b565b909291926040820190604083528051809252606083019160608160051b850101916020809101936000905b838210611a0b5750505050602091509360018060a01b0316910152565b909192938380611a27600193605f198b820301865289516103f2565b97019201920190949392916119ee565b9081602091031261045f5751610428816108d0565b6040513d6000823e3d90fd5b51906102a5826108d0565b51906102a582610c14565b81601f8201121561045f578051611a84816107ad565b92611a926040519485610245565b8184526020828401011161045f5761042891602080850191016103cf565b60208183031261045f5780516001600160401b039182821161045f57016101a08184031261045f57611ae061056e565b92815184526020820151602085015260408201516040850152606082015160608501526080820151608085015260a082015160a0850152611b2360c08301611a58565b60c085015260e082015160e08501526101008083015190850152610120611b4b818401611a63565b90850152610140611b5d818401611a63565b90850152610160611b6f818401611a63565b90850152610180928383015190811161045f57611b8c9201611a6e565b9082015290565b60405190611ba08261019b565b60008252565b90604051918260605160005b818110611be757509060206102a593611bdb8294840191838301600081528151948592016103cf565b01038085520183610245565b6020919250806080015182828801015201908491611bb2565b60206102a5919392936040519481611c2187935180928680870191016103cf565b8201611bdb825180938680850191016103cf565b9060208282031261045f5781516001600160401b03811161045f576104289201611a6e565b9081602091031261045f575190565b906102a5603d60405180947f646174613a6170706c69636174696f6e2f6a736f6e3b6261736536342c0000006020830152611cad81518092602086860191016103cf565b810103601d810185520183610245565b6040805163507f146560e01b808252602094929392906001600160a01b03908185168785600481845afa948515610d5157600095612036575b50865163c44a8e6d60e01b81526001600160a01b03871660048201526024810185905260006044820181905290958690606490829087165afa948515610d515760009561201b575b5084511561200b57610100850180519093901561200157611d608651886132a6565b968751611fca575b875115611e9e575050505094611e8d611e7f611e9996611dfc611e18611dfc98611dfc611e028a611dde6104289f611daf611dc59d611dd99f92611db69351905191612ff1565b9251614b6c565b9488519c8d918d8301906115c9565b039b611dd9601f199d8e8101835282610245565b614d46565b9651683d913730b6b2911d1160b91b9a81019a8b529c8d9a60090190565b906115c9565b691116101134b2111d101160b11b8152600a0190565b7f222c226465736372697074696f6e223a2241207069656365206f66207468652081527f42616e6e797665727365222c22696d616765223a22646174613a696d6167652f60208201526e1cdd99cade1b5b0ed8985cd94d8d0b608a1b6040820152604f0190565b61227d60f01b815260020190565b03908101835282610245565b611c69565b92965092600d9195505111600014611fbb578551636c0360eb60e01b8152600081600481885afa8015610d51578891600091611f98575b50955b600488518097819382525afa918215610d5157611f2b968895600094611f79575b5051630c8df17160e41b81526001600160a01b0390921660048301526024820193909352948592839182906044820190565b0392165afa918215610d515761042893600093611f4a575b5050614abb565b611f6a929350803d10611f72575b611f628183610245565b810190611c5a565b903880611f43565b503d611f58565b611f91919450863d8811610d8057610d718183610245565b9238611ef9565b611fb591503d806000833e611fad8183610245565b810190611c35565b38611ed5565b86611fc4610266565b95611ed8565b96611fdd906001865103611fe3576149c8565b96611d68565b611ffc90611ff7611ff26133a1565b614902565b611c00565b6149c8565b611fdd85886125d6565b5050505050505050610428611b93565b61202f91953d8091833e610d438183610245565b9338611d3e565b61204e919550883d8a11610d8057610d718183610245565b9338611cf6565b600090808252602090600860205260408320549081156120fd578184526005602052604084209260405180948591602082549182815201918852602088209388905b8282106120e3575050506120ad92500384610245565b825192845b8481106120c157505050505090565b826120cc8284611540565b51146120da576001016120b2565b50505091505090565b855484526001958601958995509381019390910190612097565b50505090565b9160209161211c919594956040855260408501916117a1565b6001600160a01b03909416910152565b919060408382031261045f5782519260209081810151906001600160401b03821161045f57019180601f8401121561045f5782516121698161058e565b936121776040519586610245565b818552838086019260051b82010192831161045f578301905b82821061219e575050505090565b81518152908301908301612190565b3d156121d8573d906121be826107ad565b916121cc6040519384610245565b82523d6000602084013e565b606090565b6040519061010082018281106001600160401b038211176101b65760405260dd82527f746820643d224d3138302031343768337633682d337a222f3e3c2f673e00000060e0837f3c6720636c6173733d226f223e3c7061746820643d224d31373720313430763360208201527f6836763131683130762d31316834762d33682d32307a222f3e3c70617468206460408201527f3d224d31353320313430763368377638203368372033762d31316833762d336860608201527f2d32307a222f3e3c2f673e3c6720636c6173733d2277223e3c7061746820643d60808201527f224d3135332031343368377634682d377a222f3e3c7061746820643d224d313560a08201527f372031343768337633682d337a6d32302d3468367634682d367a222f3e3c706160c08201520152565b60405190612318826101bb565b61023a82527f643d224d3139302031333768347633682d347a222f3e3c2f673e000000000000610240837f3c6720636c6173733d226f223e3c7061746820643d224d31393020313237683360208201527f7633682d337a6d3320313368347633682d347a6d2d3432203068367636682d3660408201527f7a222f3e3c7061746820643d224d3135312031333368337637682d337a6d313060608201527f203068367634682d367a222f3e3c7061746820643d224d31353720313337683160808201527f377636682d31377a6d332031336831347633682d31347a6d31372d313368377660a08201527f3136682d377a222f3e3c7061746820643d224d3138342031333768367636682d60c08201527f367a6d302031306831307636682d31307a222f3e3c7061746820643d224d313860e08201527f37203134336831307634682d31307a222f3e3c7061746820643d224d313930206101008201527f31343068337633682d337a6d2d362d313068337637682d337a222f3e3c7061746101208201527f6820643d224d3138372031333068367633682d367a6d2d3336203068313076336101408201527f682d31307a6d313620313368377637682d377a6d2d3130203068377637682d376101608201527f7a222f3e3c7061746820643d224d3136342031343768337633682d337a6d32396101808201527f2d323068347636682d347a222f3e3c7061746820643d224d31393420313333686101a08201527f337637682d337a222f3e3c2f673e3c6720636c6173733d2277223e3c706174686101c08201527f20643d224d3135342031333368377634682d377a222f3e3c7061746820643d226101e08201527f4d3135342031333768337633682d337a6d3130203668337634682d337a6d32306102008201527f203068337634682d337a6d332d313068377634682d377a222f3e3c70617468206102208201520152565b60405163507f146560e01b81526001600160a01b036020826004818685165afa918215610d51576000926127b4575b5060405163c44a8e6d60e01b81526001600160a01b0384166004820152602481018590526000604482018190529092909183916064918391165afa908115610d515760009161279b575b5080511561279057606061010082015161276b57604051630f22bc6f60e11b81526004810194909452610428936126eb929082906000908181602481305afa9081600091600093612744575b506127345750506001916126d2916126b16121ad565b505b8015158061272d575b612713575b506126cc8451614e2f565b90611c00565b915103612707576126e5906126cc61230b565b92615258565b80516126f8575b506149c8565b61270191611c00565b386126f2565b6126e5906126cc6121dd565b612727915061272290886132a6565b611ba6565b386126c1565b50836126bc565b6001939195506126d292506126b3565b90925061276491503d806000833e61275c8183610245565b81019061212c565b913861269b565b50612778925051906132a6565b80516127875750610428611b93565b610428906149c8565b505050610428611b93565b6127ae913d8091833e610d438183610245565b3861264f565b60009192506127d19060203d602011610d8057610d718183610245565b9190612605565b60405163507f146560e01b81529390916001600160a01b036020866004818488165afa958615610d5157600096612998575b5060405163c44a8e6d60e01b81526001600160a01b0385166004820152602481018390526000604482018190529096909187916064918391165afa948515610d515760009561297d575b5084511561297057606061010086015161296057604051630f22bc6f60e11b8152600481019290925261042895909182906000908181602481305afa9081600091600093612941575b506129315750506128cf9293946128b26121ad565b505b8115159081612929575b50612914575b506126cc8351614e2f565b936128dd575b5050506149c8565b5191926128f792600103612707576126e5906126cc61230b565b8051612905575b80806128d5565b61290e91611c00565b386128fe565b612923915061272290866132a6565b386128c4565b9050386128be565b9091506128cf93945090946128b4565b90925061295991503d806000833e61275c8183610245565b913861289d565b50505090506127789151906132a6565b5050505050610428611b93565b61299191953d8091833e610d438183610245565b9338612854565b60009196506129b59060203d602011610d8057610d718183610245565b959061280a565b6129c46131fa565b80516000805b828110612a13575050506129e06129e691611767565b91611767565b907fb0c948934b683b0d319be35a6898bce339f877d721976592196eef848acc69c36020604051338152a3565b612a1d8185611540565b51612a288287611540565b51908084526001602052604080852054612a5c575090612a55600193926000526001602052604060002090565b55016129ca565b516333ded41b60e21b8152600490fd5b604051906101a082018281106001600160401b038211176101b657604052606061018083600080825280602083015280604083015280848301528060808301528060a08301528060c08301528060e08301528061010083015280610120830152806101408301526101608201520152565b919081101561152e5760051b0190565b600281901b91906001600160fe1b0381160361157957565b906001600160401b0383116101b6576801000000000000000083116101b6578154838355808410612b60575b50906000526020806000209060005b848110612b4e575050505050565b83358382015592810192600101612b40565b612b78908360005284602060002091820191016115e0565b38612b31565b9081526060602082018190528101839052929392916001600160fb1b03811161045f5760409160809160051b8091838601378301019360018060a01b0316910152565b60226102a5919392936040519481612be38793518092602080870191016103cf565b820161202360f01b6020820152612c0382518093602087850191016103cf565b01036002810185520183610245565b906102a5602960405180946802a37b83834b7339d160bd1b6020830152612c4281518092602086860191016103cf565b8101036009810185520183610245565b906102a5602660405180946502334b9ba1d160d51b6020830152612c7f81518092602086860191016103cf565b8101036006810185520183610245565b906102a5602d60405180946c029bab4ba103137ba3a37b69d1609d1b6020830152612cc381518092602086860191016103cf565b810103600d810185520183610245565b906102a5602a604051809469029bab4ba103a37b81d160b51b6020830152612d0481518092602086860191016103cf565b810103600a810185520183610245565b906102a56026604051809465029bab4ba1d160d51b6020830152612c7f81518092602086860191016103cf565b906102a5602660405180946502432b0b21d160d51b6020830152612c7f81518092602086860191016103cf565b906102a5602a60405180946902432b0b2103a37b81d160b51b6020830152612d0481518092602086860191016103cf565b906102a56027604051809466026b7baba341d160cd1b6020830152612dcd81518092602086860191016103cf565b8101036007810185520183610245565b906102a56029604051809468023b630b9b9b2b99d160bd1b6020830152612c4281518092602086860191016103cf565b906102a5602a60405180946902732b1b5b630b1b29d160b51b6020830152612d0481518092602086860191016103cf565b906102a5602660405180946502632b3b99d160d51b6020830152612c7f81518092602086860191016103cf565b906102a5602a60405180946902130b1b5b9b4b2329d160b51b6020830152612d0481518092602086860191016103cf565b906102a5602760405180946602bb7b936321d160cd1b6020830152612dcd81518092602086860191016103cf565b906102a56035604051809474027b934b3b4b730b6102730b5b2b2102130b7373c9605d1b6020830152612f0681518092602086860191016103cf565b8101036015810185520183610245565b906102a56033604051809472027b930b733b2902730b5b2b2102130b7373c9606d1b6020830152612f5081518092602086860191016103cf565b8101036013810185520183610245565b906102a5603160405180947002834b735902730b5b2b2102130b7373c9607d1b6020830152612f9881518092602086860191016103cf565b8101036011810185520183610245565b906102a56032604051809471020b634b2b7102730b5b2b2102130b7373c960751b6020830152612fe181518092602086860191016103cf565b8101036012810185520183610245565b91633b9aca00830691600181036130165750505061301161042891614b6c565b612fa8565b600281036130325750505061302d61042891614b6c565b612f60565b6003810361304e5750505061304961042891614b6c565b612f16565b6004810361306a5750505061306561042891614b6c565b612eca565b61308a91929350613085906000526003602052604060002090565b61032c565b9180613183575b50600181036130a4575061042890612e9c565b600281036130b6575061042890612e6b565b600781036130c8575061042890612e3e565b600381036130da575061042890612e0d565b600581036130ec575061042890612ddd565b600681036130fe575061042890612d9f565b600b8103613110575061042890612d6e565b60048103613122575061042890612d41565b60088103613134575061042890612d14565b600a8103613146575061042890612cd3565b60098103613158575061042890612c8f565b600c810361316a575061042890612c52565b600d1461317a5750610428611b93565b61042890612c12565b90918051156000146131a1575061319990614b6c565b905b38613091565b6131ad6131b392614b6c565b90612bc1565b9061319b565b8060005260076020526040600020549081159081156131e1575b506131db5790565b50600090565b90508160005260066020526040600020541415386131d3565b6000546001600160a01b0390811681613211615928565b160361321a5750565b602490613225615928565b60405163118cdaa760e01b815291166004820152fd5b906102a5604960405180946c1e34b6b0b3b290343932b31e9160991b6020830152613270815180926020602d860191016103cf565b81017f222077696474683d2234303022206865696768743d22343030222f3e00000000602d820152036029810185520183610245565b6132bd613085836000526004602052604060002090565b805161339b575060405163507f146560e01b81526001600160a01b039260209283836004818489165afa908115610d515761333095859460009361337c575b50604051632f54648f60e21b81526001600160a01b0390921660048301526024820193909352948592839182906044820190565b0392165afa8015610d51576104289261335a9260009261335f575b5050613355610266565b614abb565b61323b565b6133759250803d10611f7257611f628183610245565b388061334b565b613394919350853d8711610d8057610d718183610245565b91386132fc565b91505090565b604051906133ae826101d7565b61117a82527f762d31306833762d376833762d33682d31307a222f3e3c2f673e000000000000611180837f3c6720636c6173733d226131223e3c7061746820643d224d313733203533683460208201527f763137682d347a222f3e3c2f673e3c6720636c6173733d226132223e3c70617460408201527f6820643d224d3136372035376833763130682d337a222f3e3c7061746820643d60608201527f224d3136392035336834763137682d347a222f3e3c2f673e3c6720636c61737360808201527f3d226133223e3c7061746820643d224d31363720353368337634682d337a222f60a08201527f3e3c7061746820643d224d3136332035376834763130682d347a222f3e3c706160c08201527f746820643d224d31363720363768337633682d337a222f3e3c2f673e3c67206360e08201527f6c6173733d226231223e3c7061746820643d224d32313320323533682d33762d6101008201527f332d33682d33762d372d33682d34762d3130682d33762d372d372d33682d33766101208201527f2d3733682d34762d3130682d33762d3130682d33762d37682d34762d37682d336101408201527f762d33682d33762d33682d3476313068347631306833763130683376336834766101608201527f37203320373020336833763768337632306834763768337633683376336834766101808201527f34683376336833762d332d347a222f3e3c7061746820643d224d3235332033306101a08201527f37762d34682d33762d33682d33762d33682d34762d34682d33762d33682d33766101c08201527f2d33682d34762d34682d33762d33682d33762d33682d34762d34682d33762d366101e08201527f682d33762d37682d3476313768347633683376336833203476346833763368336102008201527f76336834763468337633683376336834763468337633683376336834762d36686102208201527f2d347a222f3e3c2f673e3c6720636c6173733d226232223e3c7061746820643d6102408201527f224d32353020333130762d33682d33762d34682d34762d33682d33762d33682d6102608201527f33762d34682d34762d33682d33762d33682d33762d34682d37762d33682d33766102808201527f2d33682d34762d3137682d33762d33682d33762d34682d34762d33682d33762d6102a08201527f33682d33762d37682d34762d3230682d33762d37682d33762d37332d332d37686102c08201527f2d34762d33682d33762d3130682d33762d3130682d34563730682d33762d336c6102e08201527f2d332031303020332d313030763430682d33763130682d347636682d337631346103008201527f682d337633203133682d347634346834763136683376313468337631336834766103208201527f31306833763768337633683476336833763468337633683476336833763468336103408201527f76336834763368337637683776376836763368377633683776346831337633686103608201527f337633683130762d33682d337a6d2d3130332d3837762d31366833762d3130686103808201527f2d337636682d34763137682d337631306833762d3768347a222f3e3c706174686103a08201527f20643d224d3134332032333068347637682d347a6d3420313068337633682d336103c08201527f7a6d33203768337633682d337a6d33203668347634682d347a222f3e3c7061746103e08201527f6820643d224d31363320323537682d36763368337633683376346834762d342d6104008201527f33682d34762d337a222f3e3c2f673e3c6720636c6173733d226233223e3c70616104208201527f746820643d224d3134332031393776366834762d366836762d34346834762d316104408201527f366833762d31346833762d366834762d31306833563937682d377636682d33766104608201527f34682d337633682d347633682d3376342033682d3376332034682d34763130686104808201527f2d337631362034682d337634366833762d3668337a222f3e3c7061746820643d6104a08201527f224d313430203230336833763137682d337a222f3e3c7061746820643d224d316104c08201527f3337203232306833763130682d337a222f3e3c7061746820643d224d313533206104e08201527f323530682d33762d37682d33762d36682d34762d37682d3376313068337637686105008201527f347636683376346833762d377a6d2d3320313068337637682d337a222f3e3c706105208201527f61746820643d224d3134372032353768337633682d337a6d36203068347633686105408201527f2d347a222f3e3c7061746820643d224d31363020323633762d33682d337633206105608201527f376836762d37682d337a6d2d31302d3536763136682d337637683376313068336105808201527f763768347636683676346837762d342d33682d33762d3130682d34762d3133686105a08201527f2d33762d3134682d33762d3136682d34763130682d337a222f3e3c70617468206105c08201527f643d224d32343320333133762d33682d33762d33682d31302d33762d34682d376105e08201527f762d33682d37762d33682d36762d37682d37762d37682d33762d33682d34762d6106008201527f33682d33762d34682d33762d33682d34762d33682d33762d34682d33762d33686106208201527f2d34762d33682d33763130682d337633682d347633682d3376376833763768346106408201527f76366833763568347633683676336833763368342033763368332034763368336106608201527f20337634683130763368372037203376336831302033762d33683130762d33686106808201527f34762d34682d31347a222f3e3c2f673e3c6720636c6173733d226234223e3c706106a08201527f61746820643d224d3138332031333068347637682d347a222f3e3c70617468206106c08201527f643d224d3138302031323768337633682d337a6d2d32372d3468347637682d346106e08201527f7a222f3e3c7061746820643d224d3135372031313768337636682d337a222f3e6107008201527f3c7061746820643d224d3136302031313068337637682d337a222f3e3c7061746107208201527f6820643d224d3136332031303768347633682d347a6d2d3320383368337637686107408201527f2d337a222f3e3c7061746820643d224d3136332031383768347633682d347a6d6107608201527f3230203068377633682d377a222f3e3c7061746820643d224d313830203139306107808201527f68337633682d337a6d31302d3768337634682d337a222f3e3c7061746820643d6107a08201527f224d3139332031383768347636682d347a6d2d323020353368347637682d347a6107c08201527f222f3e3c7061746820643d224d3137372032343768337636682d337a222f3e3c6107e08201527f7061746820643d224d3138302032353368337637682d337a222f3e3c706174686108008201527f20643d224d3138332032363068377633682d377a222f3e3c7061746820643d226108208201527f4d3139302032363368337634682d337a6d302d323068337634682d337a222f3e6108408201527f3c7061746820643d224d3138372032343068337633682d337a222f3e3c7061746108608201527f6820643d224d3139302032333768337633682d337a6d313320323368347633686108808201527f2d347a222f3e3c7061746820643d224d3230372032363368337637682d337a226108a08201527f2f3e3c7061746820643d224d3231302032373068337633682d337a6d2d3130206108c08201527f3768337636682d337a222f3e3c7061746820643d224d323033203238336834766108e08201527f37682d347a222f3e3c7061746820643d224d3230372032393068367633682d366109008201527f7a222f3e3c2f673e3c6720636c6173733d226f223e3c7061746820643d224d316109208201527f3333203135376834763530682d347a6d302036336834763130682d347a6d32376109408201527f2d3136336833763130682d337a222f3e3c7061746820643d224d3136332035336109608201527f68347634682d347a222f3e3c7061746820643d224d31363720353068313076336109808201527f682d31307a222f3e3c7061746820643d224d3137372035336833763137682d336109a08201527f7a222f3e3c7061746820643d224d3137332037306834763237682d347a6d2d366109c08201527f20306833763237682d337a222f3e3c7061746820643d224d31363320363768346109e08201527f7633682d347a6d3020333068347633682d347a222f3e3c7061746820643d224d610a008201527f3136302031303068337633682d337a222f3e3c7061746820643d224d31353720610a208201527f31303368337634682d337a222f3e3c7061746820643d224d3135332031303768610a408201527f347633682d347a222f3e3c7061746820643d224d313530203131306833763368610a608201527f2d337a222f3e3c7061746820643d224d3134372031313368337637682d337a22610a808201527f2f3e3c7061746820643d224d3134332031323068347637682d347a222f3e3c70610aa08201527f61746820643d224d313430203132376833763130682d337a222f3e3c70617468610ac08201527f20643d224d313337203133376833763230682d337a6d35362d31306834763130610ae08201527f682d347a222f3e3c7061746820643d224d313930203131376833763130682d33610b008201527f7a222f3e3c7061746820643d224d3138372031313068337637682d337a222f3e610b208201527f3c7061746820643d224d3138332031303368347637682d347a222f3e3c706174610b408201527f6820643d224d3138302031303068337633682d337a222f3e3c7061746820643d610b608201527f224d31373720393768337633682d337a6d2d3430203130366833763137682d33610b808201527f7a6d302032376833763130682d337a6d313020333068337637682d337a222f3e610ba08201527f3c7061746820643d224d31353020323537762d34682d33762d36682d34762d37610bc08201527f682d3376313068337631306834762d3368337a222f3e3c7061746820643d224d610be08201527f3135302032353768337633682d337a222f3e3c7061746820643d224d31363320610c008201527f323733762d33682d36762d3130682d347637682d337633683376336834763768610c208201527f33762d3768337a222f3e3c7061746820643d224d313633203236376834763368610c408201527f2d347a222f3e3c7061746820643d224d31373020323537682d332d3476336834610c608201527f76376833762d31307a222f3e3c7061746820643d224d31353720323533683676610c808201527f34682d367a222f3e3c7061746820643d224d3135332032343768347636682d34610ca08201527f7a222f3e3c7061746820643d224d3135302032343068337637682d337a222f3e610cc08201527f3c7061746820643d224d313437203233306833763130682d337a6d3133203530610ce08201527f68337637682d337a222f3e3c7061746820643d224d3134332032323368347637610d008201527f682d347a222f3e3c7061746820643d224d313437203230376833763136682d33610d208201527f7a222f3e3c7061746820643d224d313530203139376833763130682d337a6d2d610d408201527f3130203068337636682d337a6d35302031313368377633682d377a6d32332031610d608201527f306831377633682d31377a222f3e3c7061746820643d224d3233302033323368610d808201527f31337634682d31337a222f3e3c7061746820643d224d32343320333230683130610da08201527f7633682d31307a222f3e3c7061746820643d224d323533203331376834763368610dc08201527f2d347a222f3e3c7061746820643d224d323537203330376833763130682d337a610de08201527f222f3e3c7061746820643d224d3235332033303368347634682d347a222f3e3c610e008201527f7061746820643d224d3235302033303068337633682d337a222f3e3c70617468610e208201527f20643d224d3234372032393768337633682d337a222f3e3c7061746820643d22610e408201527f4d3234332032393368347634682d347a222f3e3c7061746820643d224d323430610e608201527f2032393068337633682d337a222f3e3c7061746820643d224d32333720323837610e808201527f68337633682d337a222f3e3c7061746820643d224d3233332032383368347634610ea08201527f682d347a222f3e3c7061746820643d224d3233302032383068337633682d337a610ec08201527f222f3e3c7061746820643d224d3232372032373768337633682d337a222f3e3c610ee08201527f7061746820643d224d3232332032373368347634682d347a222f3e3c70617468610f008201527f20643d224d3232302032363768337636682d337a222f3e3c7061746820643d22610f208201527f4d3231372032363068337637682d337a222f3e3c7061746820643d224d323133610f408201527f2032353368347637682d347a222f3e3c7061746820643d224d32313020323437610f608201527f68337636682d337a222f3e3c7061746820643d224d3230372032333768337631610f808201527f30682d337a222f3e3c7061746820643d224d323033203232376834763130682d610fa08201527f347a6d2d343020363068347636682d347a6d323420323068337633682d337a22610fc08201527f2f3e3c7061746820643d224d3136372032393368337635682d337a6d31362031610fe08201527f3468347633682d347a222f3e3c7061746820643d224d313730203239386834766110008201527f33682d347a6d3130203668337633682d337a222f3e3c7061746820643d224d316110208201527f37342033303168367633682d367a6d323320313268367634682d367a222f3e3c6110408201527f7061746820643d224d323033203331376831307633682d31307a6d2d322d31306110608201527f37762d3733682d3476373368337631376833762d3137682d327a222f3e3c2f676110808201527f3e3c6720636c6173733d226f223e3c7061746820643d224d31383720333037766110a08201527f2d346833762d36682d33762d34682d34762d33682d33762d33682d37762d34686110c08201527f2d367634682d3476336834763237682d34763133682d33763130682d347637686110e08201527f3476336833203130203134762d33682d34762d34682d33762d33682d33762d336111008201527f682d34762d376834762d31306833762d376833762d336837762d33682d337a6d6111208201527f3136203130762d34682d36763137682d34763130682d337637683376336834206111408201527f3620342033203134762d33682d34762d34682d37762d33682d33762d33682d336111608201520152565b906102a5609a60405180947f3c7374796c653e2e6f7b66696c6c3a233830383038303b7d2e62327b66696c6c60208301527f3a6e6f6e653b7d2e62337b66696c6c3a6e6f6e653b7d2e62347b66696c6c3a6e60408301527f6f6e653b7d2e61317b66696c6c3a6e6f6e653b7d2e61327b66696c6c3a6e6f6e60608301527f653b7d2e61337b66696c6c3a6e6f6e653b7d3c2f7374796c653e00000000000060808301526149b881518092602086860191016103cf565b810103607a810185520183610245565b906102a560ba60405180947f3c7376672077696474683d2234303022206865696768743d223430302220766960208301527f6577426f783d223020302034303020343030222066696c6c3d226e6f6e65222060408301527f786d6c6e733d22687474703a2f2f7777772e77332e6f72672f323030302f737660608301527f67223e3c7374796c653e2e6f7b66696c6c3a233035303530353b7d2e777b666960808301527336361d11b31cb31cb31c9dbe9e17b9ba3cb6329f60611b60a0830152614a9c81518092602060b4860191016103cf565b8101651e17b9bb339f60d11b60b482015203609a810185520183610245565b9061042890614ae9604051602092609160f51b84830152602282015260228152614ae4816101f3565b61548b565b926040519381614b0286935180928680870191016103cf565b8201614b16825180938680850191016103cf565b01038084520182610245565b604051614b2e8161019b565b60008152906000368137565b90614b44826107ad565b614b516040519182610245565b8281528092614b62601f19916107ad565b0190602036910137565b806000917a184f03e93ff9f4daa797ed6e38ed64bf6a1f01000000000000000080821015614ca2575b506d04ee2d6d415b85acef810000000080831015614c93575b50662386f26fc1000080831015614c84575b506305f5e10080831015614c75575b5061271080831015614c66575b506064821015614c56575b600a80921015614c4c575b600190816021614c0460018701614b3a565b95860101905b614c16575b5050505090565b600019019083906f181899199a1a9b1b9c1cb0b131b232b360811b8282061a835304918215614c4757919082614c0a565b614c0f565b9160010191614bf2565b9190606460029104910191614be7565b60049193920491019138614bdc565b60089193920491019138614bcf565b60109193920491019138614bc0565b60209193920491019138614bae565b604093508104915038614b95565b60405190614cbd826101f3565b604082527f6768696a6b6c6d6e6f707172737475767778797a303132333435363738392b2f6040837f4142434445464748494a4b4c4d4e4f505152535455565758595a61626364656660208201520152565b906002820180921161157957565b906020820180921161157957565b906001820180921161157957565b9190820180921161157957565b805115614e2657614d55614cb0565b614d71614d6c614d658451614d0f565b6003900490565b612aed565b91614d83614d7e84614d1d565b614b3a565b92835280815182019060208501935b828210614dd457505050600390510680600114614dc357600214614db4575090565b603d60f81b6000199091015290565b50613d3d60f01b6001199091015290565b9091936004906003809401938451600190603f9082828260121c16880101518553828282600c1c16880101518386015382828260061c1688010151600286015316850101519082015301939190614d92565b50610428611b93565b614e38906157fc565b92614e479695969291926133a1565b9460405197889760208901703c7374796c653e2e62317b66696c6c3a2360781b90528051908160318b019160200191614e7f926103cf565b8801603181016b3b7d2e62327b66696c6c3a2360a01b905281519182603d83019160200191614ead926103cf565b01603d81016b3b7d2e62337b66696c6c3a2360a01b905281519182604983019160200191614eda926103cf565b0160498101614ef7906b3b7d2e62347b66696c6c3a2360a01b9052565b605501614f03916115c9565b6b3b7d2e61317b66696c6c3a2360a01b8152600c01614f21916115c9565b6b3b7d2e61327b66696c6c3a2360a01b8152600c01614f3f916115c9565b6b3b7d2e61337b66696c6c3a2360a01b8152600c01614f5d916115c9565b691dbe9e17b9ba3cb6329f60b11b8152600a01614f79916115c9565b03601f19810182526104289082610245565b60405190614f988261020e565b61019c82527f6820643d224d3139332031373068347633682d347a222f3e3c2f673e000000006101a0837f3c6720636c6173733d226f223e3c7061746820643d224d31393020313733682d60208201527f3337762d33682d3130762d34682d36763468337633682d33763468367633683160408201527f307634683337762d346833762d33682d33762d347a6d2d34302034682d33762d60608201527f34683376347a6d372033762d3368337633682d337a6d362030762d336834763360808201527f682d347a6d372030762d3368337633682d337a6d372030762d3368337633682d60a08201527f337a6d31302030682d34762d33683476337a222f3e3c7061746820643d224d3160c08201527f39302031373068337633682d337a222f3e3c7061746820643d224d313933203160e08201527f363668347634682d347a6d30203768347634682d347a222f3e3c2f673e3c67206101008201527f636c6173733d2277223e3c7061746820643d224d3133372031373068337633686101208201527f2d337a6d3130203368337634682d337a6d3130203468337633682d337a6d36206101408201527f3068347633682d347a6d37203068337633682d337a6d37203068337633682d336101608201527f7a6d36203068347633682d347a6d372d3468337634682d337a222f3e3c7061746101808201520152565b6040519060c082018281106001600160401b038211176101b65760405260818252601f60f91b60a0837f3c6720636c6173733d226f223e3c7061746820643d224d31383320313630762d60208201527f34682d32307634682d33763368337634683234762d37682d347a6d2d3133203360408201527f762d336831307633682d31307a222066696c6c3d2223616437316338222f3e3c60608201527f7061746820643d224d313730203136306831307633682d31307a222f3e3c2f6760808201520152565b815160609392600092839260039284918481101561541e5761527981614d2b565b955b86811061528c575050505050505050565b818110156154125761529e8184611540565b516040805163507f146560e01b8152919591600491906001600160a01b036020808386818e86165afa918215610d515761531c956000958c958e9488966153f3575b50505163c44a8e6d60e01b81526001600160a01b0390931690830190815260208101949094526000604085015290948593849291839160600190565b0392165afa8015610d5157610100916000916153da575b500151985b8988036153ab57506001985b60069080820361537c575050506001935b80615364575b5060010161527b565b6001919a6126cc61537592886132a6565b999061535b565b95919511806153a3575b156153555793509861539a906126cc615193565b98600193615355565b508415615386565b98878111806153d2575b15615344579850996153c9906126cc614f8b565b99600198615344565b5089156153b5565b6153ed913d8091833e610d438183610245565b38615333565b61540a929650803d10610d8057610d718183610245565b9338806152e0565b60079793600094615338565b809561527b565b604051906105e082018281106001600160401b038211176101b657604052602e82526105c0366020840137565b9061545c8261058e565b6154696040519182610245565b8281528092614b62601f199161058e565b90815181101561152e570160200190565b908151156155b25761549b615425565b9160009060006154aa85611533565b526001918151916000925b8084106154db57505050506154d16154d6916104289394615981565b6159c4565b615a0b565b9091929461550c6155066155006154f2898761547a565b516001600160f81b03191690565b60f81c90565b60ff1690565b9184925b60ff9089828916861015615571576001929161554561553f6155066155388a61554b96611540565b5160ff1690565b60081b90565b90614d39565b6155688b61556088603a958686061692611540565b9060ff169052565b04930192615510565b50919594935050809691965b61558b5750600101926154b5565b9460ff6001603a926155a883858b06166155608d86851690611540565b011695048061557d565b9050610428614b22565b604051906155c98261022a565b600682526506666653930360d41b6020830152565b604051906155eb8261022a565b600682526506666633730360d41b6020830152565b6040519061560d8261022a565b600682526566336136303360d01b6020830152565b6040519061562f8261022a565b600682526539363561316160d01b6020830152565b604051906156518261022a565b600682526533331bb1981960d11b6020830152565b604051906156738261022a565b600682526506664333630360d41b6020830152565b604051906156958261022a565b600682526518cccc994c1960d21b6020830152565b604051906156b78261022a565b600682526566666438633560d01b6020830152565b604051906156d98261022a565b600682526566663936613960d01b6020830152565b604051906156fb8261022a565b600682526533329a9c1c3160d11b6020830152565b6040519061571d8261022a565b600682526563393266343560d01b6020830152565b6040519061573f8261022a565b600682526536376437353760d01b6020830152565b604051906157618261022a565b600682526503330613232360d41b6020830152565b604051906157838261022a565b600682526532313761313560d01b6020830152565b604051906157a58261022a565b60048252636e6f6e6560e01b6020830152565b604051906157c58261022a565b6006825265329a1c19b2b360d11b6020830152565b604051906157e78261022a565b60068252653231993332b360d11b6020830152565b60018103615843575061580d615732565b90615816615754565b9061581f615776565b90615828615798565b906158316157b8565b9061583a6157da565b906104286157da565b6002810361588a57506158546156aa565b9061585d6156cc565b906158666156ee565b9061586f615710565b906158786156aa565b906158816156cc565b906104286156ee565b600381036158d1575061589b615600565b906158a4615644565b906158ad615666565b906158b6615688565b906158bf615600565b906158c8615644565b90610428615666565b6004146158ea57604051630992899d60e31b8152600490fd5b6158f26155bc565b906158fb6155de565b90615904615600565b9061590d615622565b906159166155bc565b9061591f6155de565b90610428615600565b337f00000000000000000000000000000000000000000000000000000000000000006001600160a01b03161480615976575b15615972576013193601368111611579573560601c90565b3390565b50601436101561595a565b9060ff8091169061599182615452565b9260005b8381106159a3575050505090565b80836159b160019385611540565b51166159bd8288611540565b5201615995565b9081516159d081615452565b9060005b8181106159e2575090925050565b60019060ff6159f8600019838951030188611540565b5116615a048286611540565b52016159d4565b8051615a16816107ad565b91604090615a276040519485610245565b828452615a33836107ad565b602090601f1901368683013760009260005b858110615a555750505050505090565b6001908251615a63816101f3565b603a81527f31323334353637383941424344454647484a4b4c4d4e50515253545556575859858201527f5a6162636465666768696a6b6d6e6f707172737475767778797a000000000000848201526001600160f81b031990615ad39060ff615acb858a611540565b51169061547a565b5116861a615ae1828a61547a565b5301615a4556fea264697066735822122062990050a11b143434273bdba798d4b9aead6e4a6e0c57d1c4ed7386ddbd6afe64736f6c63430008170033",
			"deployedBytecode": "0x6080604052600436101561001257600080fd5b60003560e01c806257bfdd146101465780631e4578de1461014157806331a290ac1461013c5780634d03376e14610137578063572b6c05146101325780635e703e711461012d5780636aff31dd14610128578063715018a6146101235780637508ac831461011e5780637da0a87714610119578063875e4bea146101145780638da5cb5b1461010f578063a22d0dd51461010a578063aeac5e3514610105578063b03a3eab14610100578063c06e7bc7146100fb578063f2fde38b146100f6578063f92df2e3146100f15763f9fed041146100ec57600080fd5b6114e7565b6114c2565b611436565b610e2a565b610d87565b610c63565b610c1e565b610beb565b610a5a565b610a15565b6109ef565b610991565b610965565b610939565b6108e1565b6107ff565b610635565b6104a6565b61042b565b90600182811c9216801561017b575b602083101461016557565b634e487b7160e01b600052602260045260246000fd5b91607f169161015a565b634e487b7160e01b600052604160045260246000fd5b602081019081106001600160401b038211176101b657604052565b610185565b61026081019081106001600160401b038211176101b657604052565b6111a081019081106001600160401b038211176101b657604052565b606081019081106001600160401b038211176101b657604052565b6101c081019081106001600160401b038211176101b657604052565b604081019081106001600160401b038211176101b657604052565b90601f801991011681019081106001600160401b038211176101b657604052565b604051906000826002549161027a8361014b565b8083529260209060019081811690811561030857506001146102a7575b50506102a592500383610245565b565b91509260026000527f405787fa12a823e0f2b7631cc41b3ba8828b3321ca811111fa75cd3aa3bb5ace936000925b8284106102f057506102a59450505081016020013880610297565b855488850183015294850194879450928101926102d5565b915050602092506102a594915060ff191682840152151560051b8201013880610297565b9060405191826000825461033f8161014b565b908184526020946001916001811690816000146103ad575060011461036e575b5050506102a592500383610245565b600090815285812095935091905b8183106103955750506102a5935082010138808061035f565b8554888401850152948501948794509183019161037c565b925050506102a594925060ff191682840152151560051b82010138808061035f565b60005b8381106103e25750506000910152565b81810151838201526020016103d2565b9060209161040b815180928185528580860191016103cf565b601f01601f1916010190565b9060206104289281815201906103f2565b90565b3461045f57600036600319011261045f5761045b610447610266565b6040519182916020835260208301906103f2565b0390f35b600080fd5b604081019181526060602091604060208201528151809452019160809160005b828110610492575050505090565b835185529381019392810192600101610484565b3461045f5760208060031936011261045f57600435906000918083526005602052604083209060405180938491602085549182815201948752602087209187905b828210610554575050505061050190610511930384610245565b6000526006602052604060002090565b5491815191815b83811061052d576040518061045b8782610464565b8061053a60019284611540565b5161054d6105478661156a565b9561151b565b5201610518565b8354875295860195879450600193840193909101906104e7565b604051906101a082018281106001600160401b038211176101b657604052565b6001600160401b0381116101b65760051b60200190565b9080601f8301121561045f5760209082356105bf8161058e565b936105cd6040519586610245565b81855260208086019260051b82010192831161045f57602001905b8282106105f6575050505090565b813581529083019083016105e8565b9181601f8401121561045f578235916001600160401b03831161045f576020808501948460051b01011161045f57565b3461045f5760408060031936011261045f576001600160401b036004803582811161045f5761066790369083016105a5565b9160243590811161045f5761067f9036908301610605565b909183519060005b8281106106d0575050506106cb6106be7f7b414cb0ad21f3dfa349dbd1d4ca10eeb276661a7af9df6e18086aed7c31c8d694611767565b94519283923391846117c2565b0390a2005b6106da8187611540565b516106f06106e983878961157e565b36916107c8565b9061070d610708826000526004602052604060002090565b6115bf565b61079d57610725816000526001602052604060002090565b54801561078d578951602081019061074f8161074184886115c9565b03601f198101835282610245565b5190200361077d5760019291610772610777926000526004602052604060002090565b611692565b01610687565b88516375b5da0b60e01b81528490fd5b8951637ef41a4f60e01b81528590fd5b8851630388067760e21b81528490fd5b6001600160401b0381116101b657601f01601f191660200190565b9291926107d4826107ad565b916107e26040519384610245565b82948184528183011161045f578281602093846000960137010152565b3461045f57604036600319011261045f576001600160401b0360043581811161045f576108309036906004016105a5565b60249060243583811161045f573660238201121561045f578060040135926108578461058e565b936108656040519586610245565b8085526020956024602087019260051b8501019336851161045f5760248101925b85841061089957610897888861185f565b005b833583811161045f5782013660438201121561045f5789916108c58392369060448a82013591016107c8565b815201930192610886565b6001600160a01b0381160361045f57565b3461045f57602036600319011261045f576020600435610900816108d0565b6040517f000000000000000000000000b2b5841dbef766d4b521221732f9b618fcf34a876001600160a01b039081169216919091148152f35b3461045f57604036600319011261045f5761045b61044760043561095c816108d0565b60243590611cbd565b3461045f57602036600319011261045f5760043560005260016020526020604060002054604051908152f35b3461045f576000806003193601126109ec576109ab6131fa565b80546001600160a01b03198116825581906001600160a01b03167f8be0079c531659141344cd1fd0a4f28419497f9722a3daafe3b4186f6b6457e08280a380f35b80fd5b3461045f57602036600319011261045f576020610a0d600435612055565b604051908152f35b3461045f57600036600319011261045f576040517f000000000000000000000000b2b5841dbef766d4b521221732f9b618fcf34a876001600160a01b03168152602090f35b3461045f5760208060031936011261045f576004356001600160401b0380821161045f573660238301121561045f57816004013590811161045f57602492366024838501011161045f57610aac6131fa565b610ac082610abb60025461014b565b6115f7565b600093601f8311600114610b3e575050610b1381807f512c3c91736f50c57a0548c1d01ab02f24c420f002b8b20e2bfe63df9693cd3f95600091610b30575b508160011b916000199060031b1c19161790565b6002555b610b2b604051928392602433920184612103565b0390a1005b602491508501013538610aff565b6002600052601f19831694907f405787fa12a823e0f2b7631cc41b3ba8828b3321ca811111fa75cd3aa3bb5ace9282915b878310610bcf57505050827f512c3c91736f50c57a0548c1d01ab02f24c420f002b8b20e2bfe63df9693cd3f9510610bb2575b5050600181811b01600255610b17565b830160240135600019600384901b60f8161c191690553880610ba2565b908060018596848396978b010135815501950193019190610b6f565b3461045f57600036600319011261045f576000546040516001600160a01b039091168152602090f35b8015150361045f57565b3461045f57608036600319011261045f5761045b610447600435610c41816108d0565b604435610c4d81610c14565b60643591610c5a83610c14565b602435906127d8565b3461045f57604036600319011261045f57600435610c80816108d0565b60405163507f146560e01b815260243591906001600160a01b03906020816004818587165afa8015610d5157610cf79360009386938593610d56575b5060405163c44a8e6d60e01b81526001600160a01b039092166004830152602482019390935260006044820152938492839182906064820190565b0392165afa918215610d515761045b92610d2292600091610d2e575b50610100815191015191612ff1565b60405191829182610417565b610d4b91503d806000833e610d438183610245565b810190611ab0565b38610d13565b611a4c565b610d7991935060203d602011610d80575b610d718183610245565b810190611a37565b9138610cbc565b503d610d67565b3461045f57604036600319011261045f576001600160401b0360043581811161045f57610db89036906004016105a5565b9060243590811161045f573660238201121561045f578060040135610ddc8161058e565b91610dea6040519384610245565b8183526020916024602085019160051b8301019136831161045f57602401905b828210610e1b5761089785876129bc565b81358152908301908301610e0a565b3461045f57608036600319011261045f5760048035610e48816108d0565b60243590604435926064356001600160401b03811161045f57610e6e9036908301610605565b94909160018060a01b0380851694604092610ea68451926331a9108f60e11b938481528a818060209586938883019190602083019252565b03818d5afa908115610d5157600091611419575b5085610ed3610ec7615928565b6001600160a01b031690565b911603611409578a87156113e157508551848152828180610efb8b8883019190602083019252565b03818d5afa908115610d51576000916113c4575b5085610f1c610ec7615928565b9116036113b457610f2c876131b9565b6113a457855163507f146560e01b8152828185818d5afa8015610d5157610f9360009188938391611387575b50895163c44a8e6d60e01b81526001600160a01b038616888201908152602081018d9052600060408201529094859384928391606090910190565b0392165afa908115610d515760009161136c575b50511561135c57908a93929187610fc88c6000526006602052604060002090565b558a610fde896000526007602052604060002090565b55909a5093909192935b600091610ff3612a6c565b5060009b60009260005b888110611064578d8d7f6a68946ba06488db8585d7c7637fa954b574035fe15720ea760125ef860172588e8e61105f8f8f61104c81866110478b6000526005602052604060002090565b612b05565b611054615928565b915194859485612b7e565b0390a3005b889e611097848f8f908b8f928e9f889061107d92612add565b359e8f935195869485938493845283019190602083019252565b03915afa908115610d515760009161133f575b50856110b7610ec7615928565b91160361132f576110c78a612055565b61131f5787848f8d519283809263507f146560e01b82525afa8015610d51578b600091868f8d8b91611135978795611300575b505163c44a8e6d60e01b81526001600160a01b0390931690830190815260208101949094526000604085015290948593849291839160600190565b0392165afa908115610d51576000916112e7575b508051156112d75761010001968751600281109081156112cc575b506112bc5782151590816112b0575b506112a057908f98979695949392918f9087518981146000146111c1575050906001916111ae83985b519c6000526008602052604060002090565b550190919293949e509794959697610ffd565b600891999a9b50809250969293949596146000146111f15750509060018f989796959493928f6111ae839761119c565b979f9d9b9998979a9e9c9a600581979297148015611296575b801561128c575b80611285575b1561122c57508f8f51631e550b6f60e11b8152fd5b9d9f9798999b9d9c9e9a9c600a811490811561127a575b5080611273575b611263578f98979695949392918f6111ae60019361119c565b8a51635e701b2b60e01b81528890fd5b508561124a565b600991501438611243565b5087611217565b50600b8114611211565b506006811461120a565b8a51637dc0e82560e11b81528890fd5b90508751111538611173565b8b5163c89badbd60e01b81528990fd5b600d91501138611164565b8b516354c0901d60e11b81528990fd5b6112fa913d8091833e610d438183610245565b38611149565b6113189195508c8d3d10610d8057610d718183610245565b93386110fa565b8a5163670bdddd60e11b81528890fd5b8a5163812a698960e01b81528890fd5b6113569150853d8711610d8057610d718183610245565b386110aa565b855163265ba87960e01b81528390fd5b61138191503d806000833e610d438183610245565b38610fa7565b61139e9150863d8811610d8057610d718183610245565b38610f58565b855163670bdddd60e11b81528390fd5b8551639d17cec760e01b81528390fd5b6113db9150833d8511610d8057610d718183610245565b38610f0f565b9392919060006113fb8c6000526006602052604060002090565b55909a509390919293610fe8565b8551632add3f4b60e01b81528390fd5b6114309150833d8511610d8057610d718183610245565b38610eba565b3461045f57602036600319011261045f57600435611453816108d0565b61145b6131fa565b6001600160a01b0390811680156114a957600080546001600160a01b03198116831782559092167f8be0079c531659141344cd1fd0a4f28419497f9722a3daafe3b4186f6b6457e08380a380f35b604051631e4fbdf760e01b815260006004820152602490fd5b3461045f57606036600319011261045f5761045b610447604435602435600435612ff1565b3461045f57602036600319011261045f576020610a0d6004356131b9565b634e487b7160e01b600052603260045260246000fd5b60605181101561152e5760051b60800190565b611505565b80511561152e5760200190565b805182101561152e5760209160051b010190565b634e487b7160e01b600052601160045260246000fd5b60001981146115795760010190565b611554565b919081101561152e5760051b81013590601e198136030182121561045f5701908135916001600160401b03831161045f57602001823603811361045f579190565b610428905461014b565b906115dc602092828151948592016103cf565b0190565b8181106115eb575050565b600081556001016115e0565b90601f8211611604575050565b6102a59160026000527f405787fa12a823e0f2b7631cc41b3ba8828b3321ca811111fa75cd3aa3bb5ace906020601f840160051c8301931061164e575b601f0160051c01906115e0565b9091508190611641565b9190601f811161166757505050565b6102a5926000526020600020906020601f840160051c8301931061164e57601f0160051c01906115e0565b91909182516001600160401b0381116101b6576116b9816116b3845461014b565b84611658565b602080601f83116001146116fc575081906116ed9394956000926116f1575b50508160011b916000199060031b1c19161790565b9055565b0151905038806116d8565b90601f1983169561171285600052602060002090565b926000905b88821061174f57505083600195969710611736575b505050811b019055565b015160001960f88460031b161c1916905538808061172c565b80600185968294968601518155019501930190611717565b60405190818183925160208092019160005b82811061178a575050505003902090565b835185528695509381019392810192600101611779565b908060209392818452848401376000828201840152601f01601f1916010190565b9392919081604086016040875252606085019160608160051b87010192826000905b8382106118065750505050509060206102a59294019060018060a01b03169052565b9091929394605f198982030184528535601e198336030181121561045f578201803560208092016001600160401b03821161045f57813603811361045f576001938392611852926117a1565b97019594019201906117e4565b91906118696131fa565b8251926000935b8085106118bd57507f31ddb2f0a32be79206d6bf3e670f8cc38863c4984b95cdbe8ed6eba58207a3a5919293506118a96118b891611767565b926040519182913390836119c3565b0390a2565b6118c78583611540565b51946118d38185611540565b5195600052600360208181526040600020918851916001600160401b0383116101b65761190a83611904865461014b565b86611658565b8091601f841160011461194f5750509080611942926001969798999a6000926116f15750508160011b916000199060031b1c19161790565b90555b0193929190611870565b9091601f1984169a61196686600052602060002090565b936000905b8d82106119ab57505084600198999a9b9c10611991575b50505050831b83019055611945565b01519060f884600019921b161c1916905538808080611982565b8060018597829496860151815501960193019061196b565b909291926040820190604083528051809252606083019160608160051b850101916020809101936000905b838210611a0b5750505050602091509360018060a01b0316910152565b909192938380611a27600193605f198b820301865289516103f2565b97019201920190949392916119ee565b9081602091031261045f5751610428816108d0565b6040513d6000823e3d90fd5b51906102a5826108d0565b51906102a582610c14565b81601f8201121561045f578051611a84816107ad565b92611a926040519485610245565b8184526020828401011161045f5761042891602080850191016103cf565b60208183031261045f5780516001600160401b039182821161045f57016101a08184031261045f57611ae061056e565b92815184526020820151602085015260408201516040850152606082015160608501526080820151608085015260a082015160a0850152611b2360c08301611a58565b60c085015260e082015160e08501526101008083015190850152610120611b4b818401611a63565b90850152610140611b5d818401611a63565b90850152610160611b6f818401611a63565b90850152610180928383015190811161045f57611b8c9201611a6e565b9082015290565b60405190611ba08261019b565b60008252565b90604051918260605160005b818110611be757509060206102a593611bdb8294840191838301600081528151948592016103cf565b01038085520183610245565b6020919250806080015182828801015201908491611bb2565b60206102a5919392936040519481611c2187935180928680870191016103cf565b8201611bdb825180938680850191016103cf565b9060208282031261045f5781516001600160401b03811161045f576104289201611a6e565b9081602091031261045f575190565b906102a5603d60405180947f646174613a6170706c69636174696f6e2f6a736f6e3b6261736536342c0000006020830152611cad81518092602086860191016103cf565b810103601d810185520183610245565b6040805163507f146560e01b808252602094929392906001600160a01b03908185168785600481845afa948515610d5157600095612036575b50865163c44a8e6d60e01b81526001600160a01b03871660048201526024810185905260006044820181905290958690606490829087165afa948515610d515760009561201b575b5084511561200b57610100850180519093901561200157611d608651886132a6565b968751611fca575b875115611e9e575050505094611e8d611e7f611e9996611dfc611e18611dfc98611dfc611e028a611dde6104289f611daf611dc59d611dd99f92611db69351905191612ff1565b9251614b6c565b9488519c8d918d8301906115c9565b039b611dd9601f199d8e8101835282610245565b614d46565b9651683d913730b6b2911d1160b91b9a81019a8b529c8d9a60090190565b906115c9565b691116101134b2111d101160b11b8152600a0190565b7f222c226465736372697074696f6e223a2241207069656365206f66207468652081527f42616e6e797665727365222c22696d616765223a22646174613a696d6167652f60208201526e1cdd99cade1b5b0ed8985cd94d8d0b608a1b6040820152604f0190565b61227d60f01b815260020190565b03908101835282610245565b611c69565b92965092600d9195505111600014611fbb578551636c0360eb60e01b8152600081600481885afa8015610d51578891600091611f98575b50955b600488518097819382525afa918215610d5157611f2b968895600094611f79575b5051630c8df17160e41b81526001600160a01b0390921660048301526024820193909352948592839182906044820190565b0392165afa918215610d515761042893600093611f4a575b5050614abb565b611f6a929350803d10611f72575b611f628183610245565b810190611c5a565b903880611f43565b503d611f58565b611f91919450863d8811610d8057610d718183610245565b9238611ef9565b611fb591503d806000833e611fad8183610245565b810190611c35565b38611ed5565b86611fc4610266565b95611ed8565b96611fdd906001865103611fe3576149c8565b96611d68565b611ffc90611ff7611ff26133a1565b614902565b611c00565b6149c8565b611fdd85886125d6565b5050505050505050610428611b93565b61202f91953d8091833e610d438183610245565b9338611d3e565b61204e919550883d8a11610d8057610d718183610245565b9338611cf6565b600090808252602090600860205260408320549081156120fd578184526005602052604084209260405180948591602082549182815201918852602088209388905b8282106120e3575050506120ad92500384610245565b825192845b8481106120c157505050505090565b826120cc8284611540565b51146120da576001016120b2565b50505091505090565b855484526001958601958995509381019390910190612097565b50505090565b9160209161211c919594956040855260408501916117a1565b6001600160a01b03909416910152565b919060408382031261045f5782519260209081810151906001600160401b03821161045f57019180601f8401121561045f5782516121698161058e565b936121776040519586610245565b818552838086019260051b82010192831161045f578301905b82821061219e575050505090565b81518152908301908301612190565b3d156121d8573d906121be826107ad565b916121cc6040519384610245565b82523d6000602084013e565b606090565b6040519061010082018281106001600160401b038211176101b65760405260dd82527f746820643d224d3138302031343768337633682d337a222f3e3c2f673e00000060e0837f3c6720636c6173733d226f223e3c7061746820643d224d31373720313430763360208201527f6836763131683130762d31316834762d33682d32307a222f3e3c70617468206460408201527f3d224d31353320313430763368377638203368372033762d31316833762d336860608201527f2d32307a222f3e3c2f673e3c6720636c6173733d2277223e3c7061746820643d60808201527f224d3135332031343368377634682d377a222f3e3c7061746820643d224d313560a08201527f372031343768337633682d337a6d32302d3468367634682d367a222f3e3c706160c08201520152565b60405190612318826101bb565b61023a82527f643d224d3139302031333768347633682d347a222f3e3c2f673e000000000000610240837f3c6720636c6173733d226f223e3c7061746820643d224d31393020313237683360208201527f7633682d337a6d3320313368347633682d347a6d2d3432203068367636682d3660408201527f7a222f3e3c7061746820643d224d3135312031333368337637682d337a6d313060608201527f203068367634682d367a222f3e3c7061746820643d224d31353720313337683160808201527f377636682d31377a6d332031336831347633682d31347a6d31372d313368377660a08201527f3136682d377a222f3e3c7061746820643d224d3138342031333768367636682d60c08201527f367a6d302031306831307636682d31307a222f3e3c7061746820643d224d313860e08201527f37203134336831307634682d31307a222f3e3c7061746820643d224d313930206101008201527f31343068337633682d337a6d2d362d313068337637682d337a222f3e3c7061746101208201527f6820643d224d3138372031333068367633682d367a6d2d3336203068313076336101408201527f682d31307a6d313620313368377637682d377a6d2d3130203068377637682d376101608201527f7a222f3e3c7061746820643d224d3136342031343768337633682d337a6d32396101808201527f2d323068347636682d347a222f3e3c7061746820643d224d31393420313333686101a08201527f337637682d337a222f3e3c2f673e3c6720636c6173733d2277223e3c706174686101c08201527f20643d224d3135342031333368377634682d377a222f3e3c7061746820643d226101e08201527f4d3135342031333768337633682d337a6d3130203668337634682d337a6d32306102008201527f203068337634682d337a6d332d313068377634682d377a222f3e3c70617468206102208201520152565b60405163507f146560e01b81526001600160a01b036020826004818685165afa918215610d51576000926127b4575b5060405163c44a8e6d60e01b81526001600160a01b0384166004820152602481018590526000604482018190529092909183916064918391165afa908115610d515760009161279b575b5080511561279057606061010082015161276b57604051630f22bc6f60e11b81526004810194909452610428936126eb929082906000908181602481305afa9081600091600093612744575b506127345750506001916126d2916126b16121ad565b505b8015158061272d575b612713575b506126cc8451614e2f565b90611c00565b915103612707576126e5906126cc61230b565b92615258565b80516126f8575b506149c8565b61270191611c00565b386126f2565b6126e5906126cc6121dd565b612727915061272290886132a6565b611ba6565b386126c1565b50836126bc565b6001939195506126d292506126b3565b90925061276491503d806000833e61275c8183610245565b81019061212c565b913861269b565b50612778925051906132a6565b80516127875750610428611b93565b610428906149c8565b505050610428611b93565b6127ae913d8091833e610d438183610245565b3861264f565b60009192506127d19060203d602011610d8057610d718183610245565b9190612605565b60405163507f146560e01b81529390916001600160a01b036020866004818488165afa958615610d5157600096612998575b5060405163c44a8e6d60e01b81526001600160a01b0385166004820152602481018390526000604482018190529096909187916064918391165afa948515610d515760009561297d575b5084511561297057606061010086015161296057604051630f22bc6f60e11b8152600481019290925261042895909182906000908181602481305afa9081600091600093612941575b506129315750506128cf9293946128b26121ad565b505b8115159081612929575b50612914575b506126cc8351614e2f565b936128dd575b5050506149c8565b5191926128f792600103612707576126e5906126cc61230b565b8051612905575b80806128d5565b61290e91611c00565b386128fe565b612923915061272290866132a6565b386128c4565b9050386128be565b9091506128cf93945090946128b4565b90925061295991503d806000833e61275c8183610245565b913861289d565b50505090506127789151906132a6565b5050505050610428611b93565b61299191953d8091833e610d438183610245565b9338612854565b60009196506129b59060203d602011610d8057610d718183610245565b959061280a565b6129c46131fa565b80516000805b828110612a13575050506129e06129e691611767565b91611767565b907fb0c948934b683b0d319be35a6898bce339f877d721976592196eef848acc69c36020604051338152a3565b612a1d8185611540565b51612a288287611540565b51908084526001602052604080852054612a5c575090612a55600193926000526001602052604060002090565b55016129ca565b516333ded41b60e21b8152600490fd5b604051906101a082018281106001600160401b038211176101b657604052606061018083600080825280602083015280604083015280848301528060808301528060a08301528060c08301528060e08301528061010083015280610120830152806101408301526101608201520152565b919081101561152e5760051b0190565b600281901b91906001600160fe1b0381160361157957565b906001600160401b0383116101b6576801000000000000000083116101b6578154838355808410612b60575b50906000526020806000209060005b848110612b4e575050505050565b83358382015592810192600101612b40565b612b78908360005284602060002091820191016115e0565b38612b31565b9081526060602082018190528101839052929392916001600160fb1b03811161045f5760409160809160051b8091838601378301019360018060a01b0316910152565b60226102a5919392936040519481612be38793518092602080870191016103cf565b820161202360f01b6020820152612c0382518093602087850191016103cf565b01036002810185520183610245565b906102a5602960405180946802a37b83834b7339d160bd1b6020830152612c4281518092602086860191016103cf565b8101036009810185520183610245565b906102a5602660405180946502334b9ba1d160d51b6020830152612c7f81518092602086860191016103cf565b8101036006810185520183610245565b906102a5602d60405180946c029bab4ba103137ba3a37b69d1609d1b6020830152612cc381518092602086860191016103cf565b810103600d810185520183610245565b906102a5602a604051809469029bab4ba103a37b81d160b51b6020830152612d0481518092602086860191016103cf565b810103600a810185520183610245565b906102a56026604051809465029bab4ba1d160d51b6020830152612c7f81518092602086860191016103cf565b906102a5602660405180946502432b0b21d160d51b6020830152612c7f81518092602086860191016103cf565b906102a5602a60405180946902432b0b2103a37b81d160b51b6020830152612d0481518092602086860191016103cf565b906102a56027604051809466026b7baba341d160cd1b6020830152612dcd81518092602086860191016103cf565b8101036007810185520183610245565b906102a56029604051809468023b630b9b9b2b99d160bd1b6020830152612c4281518092602086860191016103cf565b906102a5602a60405180946902732b1b5b630b1b29d160b51b6020830152612d0481518092602086860191016103cf565b906102a5602660405180946502632b3b99d160d51b6020830152612c7f81518092602086860191016103cf565b906102a5602a60405180946902130b1b5b9b4b2329d160b51b6020830152612d0481518092602086860191016103cf565b906102a5602760405180946602bb7b936321d160cd1b6020830152612dcd81518092602086860191016103cf565b906102a56035604051809474027b934b3b4b730b6102730b5b2b2102130b7373c9605d1b6020830152612f0681518092602086860191016103cf565b8101036015810185520183610245565b906102a56033604051809472027b930b733b2902730b5b2b2102130b7373c9606d1b6020830152612f5081518092602086860191016103cf565b8101036013810185520183610245565b906102a5603160405180947002834b735902730b5b2b2102130b7373c9607d1b6020830152612f9881518092602086860191016103cf565b8101036011810185520183610245565b906102a56032604051809471020b634b2b7102730b5b2b2102130b7373c960751b6020830152612fe181518092602086860191016103cf565b8101036012810185520183610245565b91633b9aca00830691600181036130165750505061301161042891614b6c565b612fa8565b600281036130325750505061302d61042891614b6c565b612f60565b6003810361304e5750505061304961042891614b6c565b612f16565b6004810361306a5750505061306561042891614b6c565b612eca565b61308a91929350613085906000526003602052604060002090565b61032c565b9180613183575b50600181036130a4575061042890612e9c565b600281036130b6575061042890612e6b565b600781036130c8575061042890612e3e565b600381036130da575061042890612e0d565b600581036130ec575061042890612ddd565b600681036130fe575061042890612d9f565b600b8103613110575061042890612d6e565b60048103613122575061042890612d41565b60088103613134575061042890612d14565b600a8103613146575061042890612cd3565b60098103613158575061042890612c8f565b600c810361316a575061042890612c52565b600d1461317a5750610428611b93565b61042890612c12565b90918051156000146131a1575061319990614b6c565b905b38613091565b6131ad6131b392614b6c565b90612bc1565b9061319b565b8060005260076020526040600020549081159081156131e1575b506131db5790565b50600090565b90508160005260066020526040600020541415386131d3565b6000546001600160a01b0390811681613211615928565b160361321a5750565b602490613225615928565b60405163118cdaa760e01b815291166004820152fd5b906102a5604960405180946c1e34b6b0b3b290343932b31e9160991b6020830152613270815180926020602d860191016103cf565b81017f222077696474683d2234303022206865696768743d22343030222f3e00000000602d820152036029810185520183610245565b6132bd613085836000526004602052604060002090565b805161339b575060405163507f146560e01b81526001600160a01b039260209283836004818489165afa908115610d515761333095859460009361337c575b50604051632f54648f60e21b81526001600160a01b0390921660048301526024820193909352948592839182906044820190565b0392165afa8015610d51576104289261335a9260009261335f575b5050613355610266565b614abb565b61323b565b6133759250803d10611f7257611f628183610245565b388061334b565b613394919350853d8711610d8057610d718183610245565b91386132fc565b91505090565b604051906133ae826101d7565b61117a82527f762d31306833762d376833762d33682d31307a222f3e3c2f673e000000000000611180837f3c6720636c6173733d226131223e3c7061746820643d224d313733203533683460208201527f763137682d347a222f3e3c2f673e3c6720636c6173733d226132223e3c70617460408201527f6820643d224d3136372035376833763130682d337a222f3e3c7061746820643d60608201527f224d3136392035336834763137682d347a222f3e3c2f673e3c6720636c61737360808201527f3d226133223e3c7061746820643d224d31363720353368337634682d337a222f60a08201527f3e3c7061746820643d224d3136332035376834763130682d347a222f3e3c706160c08201527f746820643d224d31363720363768337633682d337a222f3e3c2f673e3c67206360e08201527f6c6173733d226231223e3c7061746820643d224d32313320323533682d33762d6101008201527f332d33682d33762d372d33682d34762d3130682d33762d372d372d33682d33766101208201527f2d3733682d34762d3130682d33762d3130682d33762d37682d34762d37682d336101408201527f762d33682d33762d33682d3476313068347631306833763130683376336834766101608201527f37203320373020336833763768337632306834763768337633683376336834766101808201527f34683376336833762d332d347a222f3e3c7061746820643d224d3235332033306101a08201527f37762d34682d33762d33682d33762d33682d34762d34682d33762d33682d33766101c08201527f2d33682d34762d34682d33762d33682d33762d33682d34762d34682d33762d366101e08201527f682d33762d37682d3476313768347633683376336833203476346833763368336102008201527f76336834763468337633683376336834763468337633683376336834762d36686102208201527f2d347a222f3e3c2f673e3c6720636c6173733d226232223e3c7061746820643d6102408201527f224d32353020333130762d33682d33762d34682d34762d33682d33762d33682d6102608201527f33762d34682d34762d33682d33762d33682d33762d34682d37762d33682d33766102808201527f2d33682d34762d3137682d33762d33682d33762d34682d34762d33682d33762d6102a08201527f33682d33762d37682d34762d3230682d33762d37682d33762d37332d332d37686102c08201527f2d34762d33682d33762d3130682d33762d3130682d34563730682d33762d336c6102e08201527f2d332031303020332d313030763430682d33763130682d347636682d337631346103008201527f682d337633203133682d347634346834763136683376313468337631336834766103208201527f31306833763768337633683476336833763468337633683476336833763468336103408201527f76336834763368337637683776376836763368377633683776346831337633686103608201527f337633683130762d33682d337a6d2d3130332d3837762d31366833762d3130686103808201527f2d337636682d34763137682d337631306833762d3768347a222f3e3c706174686103a08201527f20643d224d3134332032333068347637682d347a6d3420313068337633682d336103c08201527f7a6d33203768337633682d337a6d33203668347634682d347a222f3e3c7061746103e08201527f6820643d224d31363320323537682d36763368337633683376346834762d342d6104008201527f33682d34762d337a222f3e3c2f673e3c6720636c6173733d226233223e3c70616104208201527f746820643d224d3134332031393776366834762d366836762d34346834762d316104408201527f366833762d31346833762d366834762d31306833563937682d377636682d33766104608201527f34682d337633682d347633682d3376342033682d3376332034682d34763130686104808201527f2d337631362034682d337634366833762d3668337a222f3e3c7061746820643d6104a08201527f224d313430203230336833763137682d337a222f3e3c7061746820643d224d316104c08201527f3337203232306833763130682d337a222f3e3c7061746820643d224d313533206104e08201527f323530682d33762d37682d33762d36682d34762d37682d3376313068337637686105008201527f347636683376346833762d377a6d2d3320313068337637682d337a222f3e3c706105208201527f61746820643d224d3134372032353768337633682d337a6d36203068347633686105408201527f2d347a222f3e3c7061746820643d224d31363020323633762d33682d337633206105608201527f376836762d37682d337a6d2d31302d3536763136682d337637683376313068336105808201527f763768347636683676346837762d342d33682d33762d3130682d34762d3133686105a08201527f2d33762d3134682d33762d3136682d34763130682d337a222f3e3c70617468206105c08201527f643d224d32343320333133762d33682d33762d33682d31302d33762d34682d376105e08201527f762d33682d37762d33682d36762d37682d37762d37682d33762d33682d34762d6106008201527f33682d33762d34682d33762d33682d34762d33682d33762d34682d33762d33686106208201527f2d34762d33682d33763130682d337633682d347633682d3376376833763768346106408201527f76366833763568347633683676336833763368342033763368332034763368336106608201527f20337634683130763368372037203376336831302033762d33683130762d33686106808201527f34762d34682d31347a222f3e3c2f673e3c6720636c6173733d226234223e3c706106a08201527f61746820643d224d3138332031333068347637682d347a222f3e3c70617468206106c08201527f643d224d3138302031323768337633682d337a6d2d32372d3468347637682d346106e08201527f7a222f3e3c7061746820643d224d3135372031313768337636682d337a222f3e6107008201527f3c7061746820643d224d3136302031313068337637682d337a222f3e3c7061746107208201527f6820643d224d3136332031303768347633682d347a6d2d3320383368337637686107408201527f2d337a222f3e3c7061746820643d224d3136332031383768347633682d347a6d6107608201527f3230203068377633682d377a222f3e3c7061746820643d224d313830203139306107808201527f68337633682d337a6d31302d3768337634682d337a222f3e3c7061746820643d6107a08201527f224d3139332031383768347636682d347a6d2d323020353368347637682d347a6107c08201527f222f3e3c7061746820643d224d3137372032343768337636682d337a222f3e3c6107e08201527f7061746820643d224d3138302032353368337637682d337a222f3e3c706174686108008201527f20643d224d3138332032363068377633682d377a222f3e3c7061746820643d226108208201527f4d3139302032363368337634682d337a6d302d323068337634682d337a222f3e6108408201527f3c7061746820643d224d3138372032343068337633682d337a222f3e3c7061746108608201527f6820643d224d3139302032333768337633682d337a6d313320323368347633686108808201527f2d347a222f3e3c7061746820643d224d3230372032363368337637682d337a226108a08201527f2f3e3c7061746820643d224d3231302032373068337633682d337a6d2d3130206108c08201527f3768337636682d337a222f3e3c7061746820643d224d323033203238336834766108e08201527f37682d347a222f3e3c7061746820643d224d3230372032393068367633682d366109008201527f7a222f3e3c2f673e3c6720636c6173733d226f223e3c7061746820643d224d316109208201527f3333203135376834763530682d347a6d302036336834763130682d347a6d32376109408201527f2d3136336833763130682d337a222f3e3c7061746820643d224d3136332035336109608201527f68347634682d347a222f3e3c7061746820643d224d31363720353068313076336109808201527f682d31307a222f3e3c7061746820643d224d3137372035336833763137682d336109a08201527f7a222f3e3c7061746820643d224d3137332037306834763237682d347a6d2d366109c08201527f20306833763237682d337a222f3e3c7061746820643d224d31363320363768346109e08201527f7633682d347a6d3020333068347633682d347a222f3e3c7061746820643d224d610a008201527f3136302031303068337633682d337a222f3e3c7061746820643d224d31353720610a208201527f31303368337634682d337a222f3e3c7061746820643d224d3135332031303768610a408201527f347633682d347a222f3e3c7061746820643d224d313530203131306833763368610a608201527f2d337a222f3e3c7061746820643d224d3134372031313368337637682d337a22610a808201527f2f3e3c7061746820643d224d3134332031323068347637682d347a222f3e3c70610aa08201527f61746820643d224d313430203132376833763130682d337a222f3e3c70617468610ac08201527f20643d224d313337203133376833763230682d337a6d35362d31306834763130610ae08201527f682d347a222f3e3c7061746820643d224d313930203131376833763130682d33610b008201527f7a222f3e3c7061746820643d224d3138372031313068337637682d337a222f3e610b208201527f3c7061746820643d224d3138332031303368347637682d347a222f3e3c706174610b408201527f6820643d224d3138302031303068337633682d337a222f3e3c7061746820643d610b608201527f224d31373720393768337633682d337a6d2d3430203130366833763137682d33610b808201527f7a6d302032376833763130682d337a6d313020333068337637682d337a222f3e610ba08201527f3c7061746820643d224d31353020323537762d34682d33762d36682d34762d37610bc08201527f682d3376313068337631306834762d3368337a222f3e3c7061746820643d224d610be08201527f3135302032353768337633682d337a222f3e3c7061746820643d224d31363320610c008201527f323733762d33682d36762d3130682d347637682d337633683376336834763768610c208201527f33762d3768337a222f3e3c7061746820643d224d313633203236376834763368610c408201527f2d347a222f3e3c7061746820643d224d31373020323537682d332d3476336834610c608201527f76376833762d31307a222f3e3c7061746820643d224d31353720323533683676610c808201527f34682d367a222f3e3c7061746820643d224d3135332032343768347636682d34610ca08201527f7a222f3e3c7061746820643d224d3135302032343068337637682d337a222f3e610cc08201527f3c7061746820643d224d313437203233306833763130682d337a6d3133203530610ce08201527f68337637682d337a222f3e3c7061746820643d224d3134332032323368347637610d008201527f682d347a222f3e3c7061746820643d224d313437203230376833763136682d33610d208201527f7a222f3e3c7061746820643d224d313530203139376833763130682d337a6d2d610d408201527f3130203068337636682d337a6d35302031313368377633682d377a6d32332031610d608201527f306831377633682d31377a222f3e3c7061746820643d224d3233302033323368610d808201527f31337634682d31337a222f3e3c7061746820643d224d32343320333230683130610da08201527f7633682d31307a222f3e3c7061746820643d224d323533203331376834763368610dc08201527f2d347a222f3e3c7061746820643d224d323537203330376833763130682d337a610de08201527f222f3e3c7061746820643d224d3235332033303368347634682d347a222f3e3c610e008201527f7061746820643d224d3235302033303068337633682d337a222f3e3c70617468610e208201527f20643d224d3234372032393768337633682d337a222f3e3c7061746820643d22610e408201527f4d3234332032393368347634682d347a222f3e3c7061746820643d224d323430610e608201527f2032393068337633682d337a222f3e3c7061746820643d224d32333720323837610e808201527f68337633682d337a222f3e3c7061746820643d224d3233332032383368347634610ea08201527f682d347a222f3e3c7061746820643d224d3233302032383068337633682d337a610ec08201527f222f3e3c7061746820643d224d3232372032373768337633682d337a222f3e3c610ee08201527f7061746820643d224d3232332032373368347634682d347a222f3e3c70617468610f008201527f20643d224d3232302032363768337636682d337a222f3e3c7061746820643d22610f208201527f4d3231372032363068337637682d337a222f3e3c7061746820643d224d323133610f408201527f2032353368347637682d347a222f3e3c7061746820643d224d32313020323437610f608201527f68337636682d337a222f3e3c7061746820643d224d3230372032333768337631610f808201527f30682d337a222f3e3c7061746820643d224d323033203232376834763130682d610fa08201527f347a6d2d343020363068347636682d347a6d323420323068337633682d337a22610fc08201527f2f3e3c7061746820643d224d3136372032393368337635682d337a6d31362031610fe08201527f3468347633682d347a222f3e3c7061746820643d224d313730203239386834766110008201527f33682d347a6d3130203668337633682d337a222f3e3c7061746820643d224d316110208201527f37342033303168367633682d367a6d323320313268367634682d367a222f3e3c6110408201527f7061746820643d224d323033203331376831307633682d31307a6d2d322d31306110608201527f37762d3733682d3476373368337631376833762d3137682d327a222f3e3c2f676110808201527f3e3c6720636c6173733d226f223e3c7061746820643d224d31383720333037766110a08201527f2d346833762d36682d33762d34682d34762d33682d33762d33682d37762d34686110c08201527f2d367634682d3476336834763237682d34763133682d33763130682d347637686110e08201527f3476336833203130203134762d33682d34762d34682d33762d33682d33762d336111008201527f682d34762d376834762d31306833762d376833762d336837762d33682d337a6d6111208201527f3136203130762d34682d36763137682d34763130682d337637683376336834206111408201527f3620342033203134762d33682d34762d34682d37762d33682d33762d33682d336111608201520152565b906102a5609a60405180947f3c7374796c653e2e6f7b66696c6c3a233830383038303b7d2e62327b66696c6c60208301527f3a6e6f6e653b7d2e62337b66696c6c3a6e6f6e653b7d2e62347b66696c6c3a6e60408301527f6f6e653b7d2e61317b66696c6c3a6e6f6e653b7d2e61327b66696c6c3a6e6f6e60608301527f653b7d2e61337b66696c6c3a6e6f6e653b7d3c2f7374796c653e00000000000060808301526149b881518092602086860191016103cf565b810103607a810185520183610245565b906102a560ba60405180947f3c7376672077696474683d2234303022206865696768743d223430302220766960208301527f6577426f783d223020302034303020343030222066696c6c3d226e6f6e65222060408301527f786d6c6e733d22687474703a2f2f7777772e77332e6f72672f323030302f737660608301527f67223e3c7374796c653e2e6f7b66696c6c3a233035303530353b7d2e777b666960808301527336361d11b31cb31cb31c9dbe9e17b9ba3cb6329f60611b60a0830152614a9c81518092602060b4860191016103cf565b8101651e17b9bb339f60d11b60b482015203609a810185520183610245565b9061042890614ae9604051602092609160f51b84830152602282015260228152614ae4816101f3565b61548b565b926040519381614b0286935180928680870191016103cf565b8201614b16825180938680850191016103cf565b01038084520182610245565b604051614b2e8161019b565b60008152906000368137565b90614b44826107ad565b614b516040519182610245565b8281528092614b62601f19916107ad565b0190602036910137565b806000917a184f03e93ff9f4daa797ed6e38ed64bf6a1f01000000000000000080821015614ca2575b506d04ee2d6d415b85acef810000000080831015614c93575b50662386f26fc1000080831015614c84575b506305f5e10080831015614c75575b5061271080831015614c66575b506064821015614c56575b600a80921015614c4c575b600190816021614c0460018701614b3a565b95860101905b614c16575b5050505090565b600019019083906f181899199a1a9b1b9c1cb0b131b232b360811b8282061a835304918215614c4757919082614c0a565b614c0f565b9160010191614bf2565b9190606460029104910191614be7565b60049193920491019138614bdc565b60089193920491019138614bcf565b60109193920491019138614bc0565b60209193920491019138614bae565b604093508104915038614b95565b60405190614cbd826101f3565b604082527f6768696a6b6c6d6e6f707172737475767778797a303132333435363738392b2f6040837f4142434445464748494a4b4c4d4e4f505152535455565758595a61626364656660208201520152565b906002820180921161157957565b906020820180921161157957565b906001820180921161157957565b9190820180921161157957565b805115614e2657614d55614cb0565b614d71614d6c614d658451614d0f565b6003900490565b612aed565b91614d83614d7e84614d1d565b614b3a565b92835280815182019060208501935b828210614dd457505050600390510680600114614dc357600214614db4575090565b603d60f81b6000199091015290565b50613d3d60f01b6001199091015290565b9091936004906003809401938451600190603f9082828260121c16880101518553828282600c1c16880101518386015382828260061c1688010151600286015316850101519082015301939190614d92565b50610428611b93565b614e38906157fc565b92614e479695969291926133a1565b9460405197889760208901703c7374796c653e2e62317b66696c6c3a2360781b90528051908160318b019160200191614e7f926103cf565b8801603181016b3b7d2e62327b66696c6c3a2360a01b905281519182603d83019160200191614ead926103cf565b01603d81016b3b7d2e62337b66696c6c3a2360a01b905281519182604983019160200191614eda926103cf565b0160498101614ef7906b3b7d2e62347b66696c6c3a2360a01b9052565b605501614f03916115c9565b6b3b7d2e61317b66696c6c3a2360a01b8152600c01614f21916115c9565b6b3b7d2e61327b66696c6c3a2360a01b8152600c01614f3f916115c9565b6b3b7d2e61337b66696c6c3a2360a01b8152600c01614f5d916115c9565b691dbe9e17b9ba3cb6329f60b11b8152600a01614f79916115c9565b03601f19810182526104289082610245565b60405190614f988261020e565b61019c82527f6820643d224d3139332031373068347633682d347a222f3e3c2f673e000000006101a0837f3c6720636c6173733d226f223e3c7061746820643d224d31393020313733682d60208201527f3337762d33682d3130762d34682d36763468337633682d33763468367633683160408201527f307634683337762d346833762d33682d33762d347a6d2d34302034682d33762d60608201527f34683376347a6d372033762d3368337633682d337a6d362030762d336834763360808201527f682d347a6d372030762d3368337633682d337a6d372030762d3368337633682d60a08201527f337a6d31302030682d34762d33683476337a222f3e3c7061746820643d224d3160c08201527f39302031373068337633682d337a222f3e3c7061746820643d224d313933203160e08201527f363668347634682d347a6d30203768347634682d347a222f3e3c2f673e3c67206101008201527f636c6173733d2277223e3c7061746820643d224d3133372031373068337633686101208201527f2d337a6d3130203368337634682d337a6d3130203468337633682d337a6d36206101408201527f3068347633682d347a6d37203068337633682d337a6d37203068337633682d336101608201527f7a6d36203068347633682d347a6d372d3468337634682d337a222f3e3c7061746101808201520152565b6040519060c082018281106001600160401b038211176101b65760405260818252601f60f91b60a0837f3c6720636c6173733d226f223e3c7061746820643d224d31383320313630762d60208201527f34682d32307634682d33763368337634683234762d37682d347a6d2d3133203360408201527f762d336831307633682d31307a222066696c6c3d2223616437316338222f3e3c60608201527f7061746820643d224d313730203136306831307633682d31307a222f3e3c2f6760808201520152565b815160609392600092839260039284918481101561541e5761527981614d2b565b955b86811061528c575050505050505050565b818110156154125761529e8184611540565b516040805163507f146560e01b8152919591600491906001600160a01b036020808386818e86165afa918215610d515761531c956000958c958e9488966153f3575b50505163c44a8e6d60e01b81526001600160a01b0390931690830190815260208101949094526000604085015290948593849291839160600190565b0392165afa8015610d5157610100916000916153da575b500151985b8988036153ab57506001985b60069080820361537c575050506001935b80615364575b5060010161527b565b6001919a6126cc61537592886132a6565b999061535b565b95919511806153a3575b156153555793509861539a906126cc615193565b98600193615355565b508415615386565b98878111806153d2575b15615344579850996153c9906126cc614f8b565b99600198615344565b5089156153b5565b6153ed913d8091833e610d438183610245565b38615333565b61540a929650803d10610d8057610d718183610245565b9338806152e0565b60079793600094615338565b809561527b565b604051906105e082018281106001600160401b038211176101b657604052602e82526105c0366020840137565b9061545c8261058e565b6154696040519182610245565b8281528092614b62601f199161058e565b90815181101561152e570160200190565b908151156155b25761549b615425565b9160009060006154aa85611533565b526001918151916000925b8084106154db57505050506154d16154d6916104289394615981565b6159c4565b615a0b565b9091929461550c6155066155006154f2898761547a565b516001600160f81b03191690565b60f81c90565b60ff1690565b9184925b60ff9089828916861015615571576001929161554561553f6155066155388a61554b96611540565b5160ff1690565b60081b90565b90614d39565b6155688b61556088603a958686061692611540565b9060ff169052565b04930192615510565b50919594935050809691965b61558b5750600101926154b5565b9460ff6001603a926155a883858b06166155608d86851690611540565b011695048061557d565b9050610428614b22565b604051906155c98261022a565b600682526506666653930360d41b6020830152565b604051906155eb8261022a565b600682526506666633730360d41b6020830152565b6040519061560d8261022a565b600682526566336136303360d01b6020830152565b6040519061562f8261022a565b600682526539363561316160d01b6020830152565b604051906156518261022a565b600682526533331bb1981960d11b6020830152565b604051906156738261022a565b600682526506664333630360d41b6020830152565b604051906156958261022a565b600682526518cccc994c1960d21b6020830152565b604051906156b78261022a565b600682526566666438633560d01b6020830152565b604051906156d98261022a565b600682526566663936613960d01b6020830152565b604051906156fb8261022a565b600682526533329a9c1c3160d11b6020830152565b6040519061571d8261022a565b600682526563393266343560d01b6020830152565b6040519061573f8261022a565b600682526536376437353760d01b6020830152565b604051906157618261022a565b600682526503330613232360d41b6020830152565b604051906157838261022a565b600682526532313761313560d01b6020830152565b604051906157a58261022a565b60048252636e6f6e6560e01b6020830152565b604051906157c58261022a565b6006825265329a1c19b2b360d11b6020830152565b604051906157e78261022a565b60068252653231993332b360d11b6020830152565b60018103615843575061580d615732565b90615816615754565b9061581f615776565b90615828615798565b906158316157b8565b9061583a6157da565b906104286157da565b6002810361588a57506158546156aa565b9061585d6156cc565b906158666156ee565b9061586f615710565b906158786156aa565b906158816156cc565b906104286156ee565b600381036158d1575061589b615600565b906158a4615644565b906158ad615666565b906158b6615688565b906158bf615600565b906158c8615644565b90610428615666565b6004146158ea57604051630992899d60e31b8152600490fd5b6158f26155bc565b906158fb6155de565b90615904615600565b9061590d615622565b906159166155bc565b9061591f6155de565b90610428615600565b337f000000000000000000000000b2b5841dbef766d4b521221732f9b618fcf34a876001600160a01b03161480615976575b15615972576013193601368111611579573560601c90565b3390565b50601436101561595a565b9060ff8091169061599182615452565b9260005b8381106159a3575050505090565b80836159b160019385611540565b51166159bd8288611540565b5201615995565b9081516159d081615452565b9060005b8181106159e2575090925050565b60019060ff6159f8600019838951030188611540565b5116615a048286611540565b52016159d4565b8051615a16816107ad565b91604090615a276040519485610245565b828452615a33836107ad565b602090601f1901368683013760009260005b858110615a555750505050505090565b6001908251615a63816101f3565b603a81527f31323334353637383941424344454647484a4b4c4d4e50515253545556575859858201527f5a6162636465666768696a6b6d6e6f707172737475767778797a000000000000848201526001600160f81b031990615ad39060ff615acb858a611540565b51169061547a565b5116861a615ae1828a61547a565b5301615a4556fea264697066735822122062990050a11b143434273bdba798d4b9aead6e4a6e0c57d1c4ed7386ddbd6afe64736f6c63430008170033",
			"devdoc": {
				"kind": "dev",
				"methods": {
					"assetIdsOf(uint256)": {
						"params": {
							"nakedBannyId": "The ID of the naked banny shows with the associated assets."
						},
						"returns": {
							"outfitIds": "The outfits attached to the Naked Banny.",
							"worldId": "The world attached to the Naked Banny."
						}
					},
					"constructor": {
						"params": {
							"owner": "The owner allowed to add SVG files that correspond to tier IDs.",
							"trustedForwarder": "The trusted forwarder for the ERC2771Context."
						}
					},
					"decorateBannyWith(address,uint256,uint256,uint256[])": {
						"details": "The caller must own the naked banny being dressed and all outfits being worn.",
						"params": {
							"hook": "The hook storing the assets.",
							"nakedBannyId": "The ID of the Naked Banny being dressed.",
							"outfitIds": "The IDs of the outfits that'll be associated with the specified banny. Only one outfit per outfit category allowed at a time and they must be passed in order.",
							"worldId": "The ID of the world that'll be associated with the specified banny."
						}
					},
					"isTrustedForwarder(address)": {
						"details": "Indicates whether any particular address is the trusted forwarder."
					},
					"nameOf(address,uint256)": {
						"params": {
							"hook": "The hook storing the assets.",
							"tokenId": "The ID of the token to show."
						},
						"returns": {
							"_0": "The name of the token."
						}
					},
					"outfitIsBeingWornBy(uint256)": {
						"params": {
							"outfitId": "The ID of the outfit being worn."
						},
						"returns": {
							"_0": "The ID of the naked banny wearing the outfit."
						}
					},
					"owner()": {
						"details": "Returns the address of the current owner."
					},
					"renounceOwnership()": {
						"details": "Leaves the contract without owner. It will not be possible to call `onlyOwner` functions. Can only be called by the current owner. NOTE: Renouncing ownership will leave the contract without an owner, thereby disabling any functionality that is only available to the owner."
					},
					"setSvgContentsOf(uint256[],string[])": {
						"params": {
							"svgContents": "The svg contents being stored, not including the parent <svg></svg> element.",
							"tierIds": "The IDs of the tiers having SVGs stored."
						}
					},
					"setSvgHashsOf(uint256[],bytes32[])": {
						"details": "This allows anyone to lazily upload the correct svg file.",
						"params": {
							"svgHashs": "The svg hashes being stored, not including the parent <svg></svg> element.",
							"tierIds": "The IDs of the tiers having SVG hashes stored."
						}
					},
					"setTierNames(uint256[],string[])": {
						"params": {
							"names": "The names of the tiers.",
							"tierIds": "The IDs of the tiers having their name stored."
						}
					},
					"svgOf(address,uint256,bool,bool)": {
						"params": {
							"hook": "The hook storing the assets.",
							"shouldDressNakedBanny": "Whether the naked banny should be dressed.",
							"shouldIncludeWorldOnNakedBanny": "Whether the world should be included on the naked banny.",
							"tokenId": "The ID of the token to show. If the ID belongs to a Naked Banny, it will be shown with its current outfits in its current world if specified."
						},
						"returns": {
							"_0": "svg The SVG."
						}
					},
					"tokenUriOf(address,uint256)": {
						"params": {
							"tokenId": "The ID of the token to show. If the ID belongs to a Naked Banny, it will be shown with its current outfits in its current world."
						},
						"returns": {
							"_0": "tokenUri The URI representing the SVG."
						}
					},
					"transferOwnership(address)": {
						"details": "Transfers ownership of the contract to a new account (`newOwner`). Can only be called by the current owner."
					},
					"trustedForwarder()": {
						"details": "Returns the address of the trusted forwarder."
					},
					"worldIsBeingUsedBy(uint256)": {
						"params": {
							"worldId": "The ID of the world being used."
						},
						"returns": {
							"_0": "The ID of the naked banny using the world."
						}
					}
				},
				"version": 1
			},
			"userdoc": {
				"kind": "user",
				"methods": {
					"_nameOf(uint256,uint256,uint256)": {
						"notice": "The name of each tier."
					},
					"assetIdsOf(uint256)": {
						"notice": "The assets currently attached to each Naked Banny, owned by the naked Banny's owner."
					},
					"decorateBannyWith(address,uint256,uint256,uint256[])": {
						"notice": "Dress your Naked Banny with outfits."
					},
					"nameOf(address,uint256)": {
						"notice": "Returns the name of the token."
					},
					"outfitIsBeingWornBy(uint256)": {
						"notice": "Checks to see which naked banny is currently wearing a particular outfit."
					},
					"setSvgBaseUri(string)": {
						"notice": "Allows the owner of this contract to specify the base of the domain hosting the SVG files."
					},
					"setSvgContentsOf(uint256[],string[])": {
						"notice": "The owner of this contract can store SVG files for tier IDs."
					},
					"setSvgHashsOf(uint256[],bytes32[])": {
						"notice": "Allows the owner of this contract to upload the hash of an svg file for a tierId."
					},
					"setTierNames(uint256[],string[])": {
						"notice": "Allows the owner to set the tier's name."
					},
					"svgBaseUri()": {
						"notice": "The base of the domain hosting the SVG files that can be lazily uploaded to the contract."
					},
					"svgHashOf(uint256)": {
						"notice": "The Naked Banny and outfit SVG hash files."
					},
					"svgOf(address,uint256,bool,bool)": {
						"notice": "Returns the SVG showing either a naked banny with/without outfits and a world, or the stand alone outfit or world."
					},
					"tokenUriOf(address,uint256)": {
						"notice": "Returns the SVG showing a dressed Naked Banny in a world."
					},
					"worldIsBeingUsedBy(uint256)": {
						"notice": "Checks to see which naked banny is currently using a particular world."
					}
				},
				"version": 1
			},
			"gitCommit": "82d687763eecac5e0704c3da7ca9ae4d8bd2582d",
			"sourceName": "src/Banny721TokenUriResolver.sol",
			"chainId": "11155111",
			"linkReferences": {},
			"deployedLinkReferences": {}
		}
	]
}