{
	"_format": "sphinx-sol-ct-artifact-1",
	"merkleRoot": "0xbbfed4024e4f7cd9bfdaaf35439399f5cf88631e7a77ee1d8176fe9d470a8d0f",
	"contractName": "Banny721TokenUriResolver",
	"address": "0xA0005f07266A54Ad344b1670AA512A929134BF34",
	"abi": [
		{
			"type": "constructor",
			"inputs": [
				{
					"name": "owner",
					"type": "address",
					"internalType": "address"
				},
				{
					"name": "trustedForwarder",
					"type": "address",
					"internalType": "address"
				}
			],
			"stateMutability": "nonpayable"
		},
		{
			"type": "function",
			"name": "_nameOf",
			"inputs": [
				{
					"name": "tokenId",
					"type": "uint256",
					"internalType": "uint256"
				},
				{
					"name": "tierId",
					"type": "uint256",
					"internalType": "uint256"
				},
				{
					"name": "category",
					"type": "uint256",
					"internalType": "uint256"
				}
			],
			"outputs": [
				{
					"name": "",
					"type": "string",
					"internalType": "string"
				}
			],
			"stateMutability": "view"
		},
		{
			"type": "function",
			"name": "assetIdsOf",
			"inputs": [
				{
					"name": "nakedBannyId",
					"type": "uint256",
					"internalType": "uint256"
				}
			],
			"outputs": [
				{
					"name": "worldId",
					"type": "uint256",
					"internalType": "uint256"
				},
				{
					"name": "outfitIds",
					"type": "uint256[]",
					"internalType": "uint256[]"
				}
			],
			"stateMutability": "view"
		},
		{
			"type": "function",
			"name": "bannySvgOf",
			"inputs": [
				{
					"name": "hook",
					"type": "address",
					"internalType": "address"
				},
				{
					"name": "tokenId",
					"type": "uint256",
					"internalType": "uint256"
				},
				{
					"name": "shouldBeDressed",
					"type": "bool",
					"internalType": "bool"
				},
				{
					"name": "shouldIncludeWorld",
					"type": "bool",
					"internalType": "bool"
				}
			],
			"outputs": [
				{
					"name": "",
					"type": "string",
					"internalType": "string"
				}
			],
			"stateMutability": "view"
		},
		{
			"type": "function",
			"name": "decorateBannyWith",
			"inputs": [
				{
					"name": "hook",
					"type": "address",
					"internalType": "address"
				},
				{
					"name": "nakedBannyId",
					"type": "uint256",
					"internalType": "uint256"
				},
				{
					"name": "worldId",
					"type": "uint256",
					"internalType": "uint256"
				},
				{
					"name": "outfitIds",
					"type": "uint256[]",
					"internalType": "uint256[]"
				}
			],
			"outputs": [],
			"stateMutability": "nonpayable"
		},
		{
			"type": "function",
			"name": "isTrustedForwarder",
			"inputs": [
				{
					"name": "forwarder",
					"type": "address",
					"internalType": "address"
				}
			],
			"outputs": [
				{
					"name": "",
					"type": "bool",
					"internalType": "bool"
				}
			],
			"stateMutability": "view"
		},
		{
			"type": "function",
			"name": "nameOf",
			"inputs": [
				{
					"name": "hook",
					"type": "address",
					"internalType": "address"
				},
				{
					"name": "tokenId",
					"type": "uint256",
					"internalType": "uint256"
				}
			],
			"outputs": [
				{
					"name": "",
					"type": "string",
					"internalType": "string"
				}
			],
			"stateMutability": "view"
		},
		{
			"type": "function",
			"name": "owner",
			"inputs": [],
			"outputs": [
				{
					"name": "",
					"type": "address",
					"internalType": "address"
				}
			],
			"stateMutability": "view"
		},
		{
			"type": "function",
			"name": "renounceOwnership",
			"inputs": [],
			"outputs": [],
			"stateMutability": "nonpayable"
		},
		{
			"type": "function",
			"name": "setSvgBaseUriOf",
			"inputs": [
				{
					"name": "baseUri",
					"type": "string",
					"internalType": "string"
				}
			],
			"outputs": [],
			"stateMutability": "nonpayable"
		},
		{
			"type": "function",
			"name": "setSvgContentsOf",
			"inputs": [
				{
					"name": "tierId",
					"type": "uint256",
					"internalType": "uint256"
				},
				{
					"name": "svgContents",
					"type": "string",
					"internalType": "string"
				}
			],
			"outputs": [],
			"stateMutability": "nonpayable"
		},
		{
			"type": "function",
			"name": "setSvgHashOf",
			"inputs": [
				{
					"name": "tierId",
					"type": "uint256",
					"internalType": "uint256"
				},
				{
					"name": "svgHash",
					"type": "bytes32",
					"internalType": "bytes32"
				}
			],
			"outputs": [],
			"stateMutability": "nonpayable"
		},
		{
			"type": "function",
			"name": "setTierName",
			"inputs": [
				{
					"name": "tierId",
					"type": "uint256",
					"internalType": "uint256"
				},
				{
					"name": "name",
					"type": "string",
					"internalType": "string"
				}
			],
			"outputs": [],
			"stateMutability": "nonpayable"
		},
		{
			"type": "function",
			"name": "svgBaseUri",
			"inputs": [],
			"outputs": [
				{
					"name": "",
					"type": "string",
					"internalType": "string"
				}
			],
			"stateMutability": "view"
		},
		{
			"type": "function",
			"name": "svgHashOf",
			"inputs": [
				{
					"name": "tierId",
					"type": "uint256",
					"internalType": "uint256"
				}
			],
			"outputs": [
				{
					"name": "",
					"type": "bytes32",
					"internalType": "bytes32"
				}
			],
			"stateMutability": "view"
		},
		{
			"type": "function",
			"name": "tokenUriOf",
			"inputs": [
				{
					"name": "hook",
					"type": "address",
					"internalType": "address"
				},
				{
					"name": "tokenId",
					"type": "uint256",
					"internalType": "uint256"
				}
			],
			"outputs": [
				{
					"name": "",
					"type": "string",
					"internalType": "string"
				}
			],
			"stateMutability": "view"
		},
		{
			"type": "function",
			"name": "transferOwnership",
			"inputs": [
				{
					"name": "newOwner",
					"type": "address",
					"internalType": "address"
				}
			],
			"outputs": [],
			"stateMutability": "nonpayable"
		},
		{
			"type": "function",
			"name": "trustedForwarder",
			"inputs": [],
			"outputs": [
				{
					"name": "",
					"type": "address",
					"internalType": "address"
				}
			],
			"stateMutability": "view"
		},
		{
			"type": "event",
			"name": "DecorateBanny",
			"inputs": [
				{
					"name": "hook",
					"type": "address",
					"indexed": true,
					"internalType": "address"
				},
				{
					"name": "nakenBannyId",
					"type": "uint256",
					"indexed": true,
					"internalType": "uint256"
				},
				{
					"name": "worldId",
					"type": "uint256",
					"indexed": false,
					"internalType": "uint256"
				},
				{
					"name": "outfitIds",
					"type": "uint256[]",
					"indexed": false,
					"internalType": "uint256[]"
				},
				{
					"name": "caller",
					"type": "address",
					"indexed": false,
					"internalType": "address"
				}
			],
			"anonymous": false
		},
		{
			"type": "event",
			"name": "OwnershipTransferred",
			"inputs": [
				{
					"name": "previousOwner",
					"type": "address",
					"indexed": true,
					"internalType": "address"
				},
				{
					"name": "newOwner",
					"type": "address",
					"indexed": true,
					"internalType": "address"
				}
			],
			"anonymous": false
		},
		{
			"type": "event",
			"name": "SetSvgBaseUri",
			"inputs": [
				{
					"name": "baseUri",
					"type": "string",
					"indexed": false,
					"internalType": "string"
				},
				{
					"name": "caller",
					"type": "address",
					"indexed": false,
					"internalType": "address"
				}
			],
			"anonymous": false
		},
		{
			"type": "event",
			"name": "SetSvgContents",
			"inputs": [
				{
					"name": "tierId",
					"type": "uint256",
					"indexed": true,
					"internalType": "uint256"
				},
				{
					"name": "svgHash",
					"type": "bytes32",
					"indexed": true,
					"internalType": "bytes32"
				},
				{
					"name": "svgContents",
					"type": "string",
					"indexed": false,
					"internalType": "string"
				},
				{
					"name": "caller",
					"type": "address",
					"indexed": false,
					"internalType": "address"
				}
			],
			"anonymous": false
		},
		{
			"type": "event",
			"name": "SetSvgHash",
			"inputs": [
				{
					"name": "tierId",
					"type": "uint256",
					"indexed": true,
					"internalType": "uint256"
				},
				{
					"name": "svgHash",
					"type": "bytes32",
					"indexed": true,
					"internalType": "bytes32"
				},
				{
					"name": "caller",
					"type": "address",
					"indexed": false,
					"internalType": "address"
				}
			],
			"anonymous": false
		},
		{
			"type": "event",
			"name": "SetTierName",
			"inputs": [
				{
					"name": "tierId",
					"type": "uint256",
					"indexed": true,
					"internalType": "uint256"
				},
				{
					"name": "name",
					"type": "string",
					"indexed": false,
					"internalType": "string"
				},
				{
					"name": "caller",
					"type": "address",
					"indexed": false,
					"internalType": "address"
				}
			],
			"anonymous": false
		},
		{
			"type": "error",
			"name": "CONTENTS_ALREADY_STORED",
			"inputs": []
		},
		{
			"type": "error",
			"name": "CONTENTS_MISMATCH",
			"inputs": []
		},
		{
			"type": "error",
			"name": "FACE_ALREADY_ADDED",
			"inputs": []
		},
		{
			"type": "error",
			"name": "HASH_ALREADY_STORED",
			"inputs": []
		},
		{
			"type": "error",
			"name": "HASH_NOT_FOUND",
			"inputs": []
		},
		{
			"type": "error",
			"name": "OwnableInvalidOwner",
			"inputs": [
				{
					"name": "owner",
					"type": "address",
					"internalType": "address"
				}
			]
		},
		{
			"type": "error",
			"name": "OwnableUnauthorizedAccount",
			"inputs": [
				{
					"name": "account",
					"type": "address",
					"internalType": "address"
				}
			]
		},
		{
			"type": "error",
			"name": "SUIT_ALREADY_ADDED",
			"inputs": []
		},
		{
			"type": "error",
			"name": "UNAUTHORIZED_OUTFIT",
			"inputs": []
		},
		{
			"type": "error",
			"name": "UNAUTHORIZED_WORLD",
			"inputs": []
		},
		{
			"type": "error",
			"name": "UNAUTHORIZED__NAKED_BANNY",
			"inputs": []
		},
		{
			"type": "error",
			"name": "UNORDERED_CATEGORIES",
			"inputs": []
		},
		{
			"type": "error",
			"name": "UNRECOGNIZED_CATEGORY",
			"inputs": []
		},
		{
			"type": "error",
			"name": "UNRECOGNIZED_OUTFIT",
			"inputs": []
		},
		{
			"type": "error",
			"name": "UNRECOGNIZED_TIER",
			"inputs": []
		},
		{
			"type": "error",
			"name": "UNRECOGNIZED_WORLD",
			"inputs": []
		}
	],
	"solcInputHash": "6029981c4e1146a2a3afaee3b8f60809",
	"args": [
		"0x817738DC393d682Ca5fBb268707b99F2aAe96baE",
		"0xB2b5841DBeF766d4b521221732F9B618fCf34A87"
	],
	"bytecode": "0x60a034620000e957601f62005dba38819003918201601f19168301916001600160401b03831184841017620000ee578084926040948552833981010312620000e9576200005a6020620000528362000104565b920162000104565b6080526001600160a01b039081168015620000d057600080546001600160a01b03198116831782556040519316907f8be0079c531659141344cd1fd0a4f28419497f9722a3daafe3b4186f6b6457e09080a3615ca090816200011a8239608051818181610595015281816107530152615c1b0152f35b604051631e4fbdf760e01b815260006004820152602490fd5b600080fd5b634e487b7160e01b600052604160045260246000fd5b51906001600160a01b0382168203620000e95756fe6080604052600436101561001257600080fd5b60003560e01c806257bfdd146101265780631e4578de14610121578063572b6c051461011c5780635e703e711461011757806366c6e390146101125780636aff31dd1461010d578063715018a6146101085780637da0a877146101035780638d4edce3146100fe5780638da5cb5b146100f9578063a34031ed146100f4578063aeac5e35146100ef578063c06e7bc7146100ea578063f2fde38b146100e5578063f5dac0b3146100e0578063f92df2e3146100db5763fff628c6146100d657600080fd5b610db3565b610d84565b610c13565b610b63565b610af6565b6109d6565b61093e565b610917565b6107a5565b610733565b6106c9565b61069d565b610625565b6105bc565b610566565b61048d565b610412565b90600182811c9216801561015b575b602083101461014557565b634e487b7160e01b600052602260045260246000fd5b91607f169161013a565b634e487b7160e01b600052604160045260246000fd5b6020810190811067ffffffffffffffff82111761019757604052565b610165565b6110c0810190811067ffffffffffffffff82111761019757604052565b6060810190811067ffffffffffffffff82111761019757604052565b6101c0810190811067ffffffffffffffff82111761019757604052565b610260810190811067ffffffffffffffff82111761019757604052565b6040810190811067ffffffffffffffff82111761019757604052565b90601f8019910116810190811067ffffffffffffffff82111761019757604052565b60405190600082600254916102618361012b565b808352926020906001908181169081156102ef575060011461028e575b505061028c9250038361022b565b565b91509260026000527f405787fa12a823e0f2b7631cc41b3ba8828b3321ca811111fa75cd3aa3bb5ace936000925b8284106102d7575061028c945050508101602001388061027e565b855488850183015294850194879450928101926102bc565b9150506020925061028c94915060ff191682840152151560051b820101388061027e565b906040519182600082546103268161012b565b908184526020946001916001811690816000146103945750600114610355575b50505061028c9250038361022b565b600090815285812095935091905b81831061037c57505061028c9350820101388080610346565b85548884018501529485019487945091830191610363565b9250505061028c94925060ff191682840152151560051b820101388080610346565b60005b8381106103c95750506000910152565b81810151838201526020016103b9565b906020916103f2815180928185528580860191016103b6565b601f01601f1916010190565b90602061040f9281815201906103d9565b90565b346104465760003660031901126104465761044261042e61024d565b6040519182916020835260208301906103d9565b0390f35b600080fd5b604081019181526060602091604060208201528151809452019160809160005b828110610479575050505090565b83518552938101939281019260010161046b565b346104465760208060031936011261044657600435906000918083526005602052604083209060405180938491602085549182815201948752602087209187905b82821061053b57505050506104e8906104f893038461022b565b6000526006602052604060002090565b5491815191815b8381106105145760405180610442878261044b565b8061052160019284610e33565b5161053461052e86610e5d565b95610e0e565b52016104ff565b8354875295860195879450600193840193909101906104ce565b6001600160a01b0381160361044657565b3461044657602036600319011261044657602060043561058581610555565b6001600160a01b039060405191807f0000000000000000000000000000000000000000000000000000000000000000169116148152f35b346104465760403660031901126104465761044261042e6004356105df81610555565b60243590611110565b604051906101a0820182811067ffffffffffffffff82111761019757604052565b67ffffffffffffffff811161019757601f01601f191660200190565b346104465760403660031901126104465760243567ffffffffffffffff8111610446573660238201121561044657806004013561066181610609565b9061066f604051928361022b565b808252366024828501011161044657602081600092602461069b96018386013783010152600435611528565b005b346104465760203660031901126104465760043560005260016020526020604060002054604051908152f35b3461044657600080600319360112610730576106e36146dd565b806001600160a01b03815473ffffffffffffffffffffffffffffffffffffffff1981168355167f8be0079c531659141344cd1fd0a4f28419497f9722a3daafe3b4186f6b6457e08280a380f35b80fd5b346104465760003660031901126104465760206040516001600160a01b037f0000000000000000000000000000000000000000000000000000000000000000168152f35b9181601f840112156104465782359167ffffffffffffffff8311610446576020838186019501011161044657565b34610446576020806003193601126104465767ffffffffffffffff600435818111610446576107d8903690600401610777565b90916107e26146dd565b8111610197576107fc816107f760025461012b565b611689565b600092601f8211600114610873575061084e81807f512c3c91736f50c57a0548c1d01ab02f24c420f002b8b20e2bfe63df9693cd3f95600091610868575b508160011b916000199060031b1c19161790565b6002555b61086360405192839233918461181a565b0390a1005b90508401353861083a565b6002600052601f198216937f405787fa12a823e0f2b7631cc41b3ba8828b3321ca811111fa75cd3aa3bb5ace9181905b8682106108ff575050827f512c3c91736f50c57a0548c1d01ab02f24c420f002b8b20e2bfe63df9693cd3f95106108e5575b5050600181811b01600255610852565b830135600019600384901b60f8161c1916905538806108d5565b806001849582949589013581550194019201906108a3565b346104465760003660031901126104465760206001600160a01b0360005416604051908152f35b346104465760403660031901126104465760043560243561095d6146dd565b600091808352600160205260408320546109ac5780835260016020528160408420557fb10eb6fc7557a7109693cb8f3fac48d44328de56c0368ee4cac539b424d2cad96020604051338152a380f35b60046040517fcf7b506c000000000000000000000000000000000000000000000000000000008152fd5b34610446576040366003190112610446576004356109f381610555565b602435906001600160a01b0360405163507f146560e01b81526020816004818587165afa8015610ac057610a669360009386938593610ac5575b5060405180968195829463c44a8e6d60e01b84526004840160409060009294936001600160a01b03606083019616825260208201520152565b0392165afa918215610ac05761044292610a9192600091610a9d575b5061010081519101519161252d565b604051918291826103fe565b610aba91503d806000833e610ab2818361022b565b810190610eea565b38610a82565b610e86565b610ae891935060203d602011610aef575b610ae0818361022b565b810190610e71565b9138610a2d565b503d610ad6565b3461044657608036600319011261044657600435610b1381610555565b6064359067ffffffffffffffff908183116104465736602384011215610446578260040135918211610446573660248360051b8501011161044657602461069b93019060443590602435906119dd565b3461044657602036600319011261044657600435610b8081610555565b610b886146dd565b6001600160a01b038091168015610be25760009182548273ffffffffffffffffffffffffffffffffffffffff198216178455167f8be0079c531659141344cd1fd0a4f28419497f9722a3daafe3b4186f6b6457e08380a380f35b60246040517f1e4fbdf700000000000000000000000000000000000000000000000000000000815260006004820152fd5b34610446576040806003193601126104465760043560243567ffffffffffffffff811161044657610c48903690600401610777565b9190610c66610c61836000526004602052604060002090565b611f95565b610d5b57610c7e826000526001602052604060002090565b54928315610d32578385516020810190610cab81610c9d848789611f9f565b03601f19810183528261022b565b51902003610d0957610d04839495610cf88385610cf37f09b26657b7b690741d37bfcbbed1e373aa8a253d6b1412759967f8eb5b4d43a1986000526004602052604060002090565b61174b565b5192839233918461181a565b0390a3005b600485517f75b5da0b000000000000000000000000000000000000000000000000000000008152fd5b600485517f7ef41a4f000000000000000000000000000000000000000000000000000000008152fd5b600484517f0e2019dc000000000000000000000000000000000000000000000000000000008152fd5b346104465760603660031901126104465761044261042e60443560243560043561252d565b8015150361044657565b346104465760803660031901126104465761044261042e600435610dd681610555565b604435610de281610da9565b60643591610def83610da9565b60243590612990565b634e487b7160e01b600052603260045260246000fd5b606051811015610e215760051b60800190565b610df8565b805115610e215760200190565b8051821015610e215760209160051b010190565b634e487b7160e01b600052601160045260246000fd5b6000198114610e6c5760010190565b610e47565b90816020910312610446575161040f81610555565b6040513d6000823e3d90fd5b519061028c82610555565b519061028c82610da9565b81601f82011215610446578051610ebe81610609565b92610ecc604051948561022b565b818452602082840101116104465761040f91602080850191016103b6565b60208183031261044657805167ffffffffffffffff9182821161044657016101a08184031261044657610f1b6105e8565b92815184526020820151602085015260408201516040850152606082015160608501526080820151608085015260a082015160a0850152610f5e60c08301610e92565b60c085015260e082015160e08501526101008083015190850152610120610f86818401610e9d565b90850152610140610f98818401610e9d565b90850152610160610faa818401610e9d565b90850152610180928383015190811161044657610fc79201610ea8565b9082015290565b60405190610fdb8261017b565b60008252565b90610ff4602092828151948592016103b6565b0190565b90604051918260605160005b818110611039575090602061028c9361102d8294840191838301600081528151948592016103b6565b0103808552018361022b565b6020919250806080015182828801015201908491611004565b602061028c91939293604051948161107387935180928680870191016103b6565b820161102d825180938680850191016103b6565b9060208282031261044657815167ffffffffffffffff81116104465761040f9201610ea8565b90816020910312610446575190565b9061028c603d60405180947f646174613a6170706c69636174696f6e2f6a736f6e3b6261736536342c000000602083015261110081518092602086860191016103b6565b810103601d81018552018361022b565b906001600160a01b03918281169260409283519163507f146560e01b8084526020968785600481845afa948515610ac057600095611509575b50865163c44a8e6d60e01b81526001600160a01b03871660048201526024810185905260006044820181905290958690606490829087165afa948515610ac0576000956114ee575b508451156114de5761010085018051909390156114d4576111b3865188612bf4565b96875161149d575b87511561134057505050509461132f61130661133b96611262611291611262986112626112688a61123161040f9f6112026112189d61122c9f92611209935190519161252d565b92516143e1565b9488519c8d918d830190610fe1565b039b61122c601f199d8e810183528261022b565b6145c8565b96519c8d9a8b016009907f7b226e616d65223a22000000000000000000000000000000000000000000000081520190565b90610fe1565b7f222c20226964223a2022000000000000000000000000000000000000000000008152600a0190565b7f222c226465736372697074696f6e223a2241207069656365206f66207468652081527f42616e6e797665727365222c22696d616765223a22646174613a696d6167652f60208201527f7376672b786d6c3b6261736536342c00000000000000000000000000000000006040820152604f0190565b7f227d000000000000000000000000000000000000000000000000000000000000815260020190565b0390810183528261022b565b6110bc565b92965092600d919550511160001461148e5785517f6c0360eb000000000000000000000000000000000000000000000000000000008152600081600481885afa8015610ac057889160009161146b575b50955b600488518097819382525afa918215610ac0576113fe96889560009461144c575b50518097819582947fc8df171000000000000000000000000000000000000000000000000000000000845260048401602090939291936001600160a01b0360408201951681520152565b0392165afa918215610ac05761040f9360009361141d575b5050614314565b61143d929350803d10611445575b611435818361022b565b8101906110ad565b903880611416565b503d61142b565b611464919450863d8811610aef57610ae0818361022b565b92386113b4565b61148891503d806000833e611480818361022b565b810190611087565b38611390565b8661149761024d565b95611393565b966114b09060018651036114b657614201565b966111bb565b6114cf906114ca6114c5612d07565b61413b565b611052565b614201565b6114b0858861279f565b505050505050505061040f610fce565b61150291953d8091833e610ab2818361022b565b9338611191565b611521919550883d8a11610aef57610ae0818361022b565b9338611149565b906115316146dd565b816000526020600360205260406000209082519067ffffffffffffffff82116101975761156882611562855461012b565b856116ea565b602090601f83116001146115df5750916115be827fa67f37d9972d5f886682fb18abfea16db5777cc4d12c43e59dfee7e48663cb3895936115cf956000916115d457508160011b916000199060031b1c19161790565b90555b604051918291339083611724565b0390a2565b90508401513861083a565b90601f1983166115f485600052602060002090565b926000905b82821061165a575050926115cf9492600192827fa67f37d9972d5f886682fb18abfea16db5777cc4d12c43e59dfee7e48663cb38989610611641575b5050811b0190556115c1565b85015160001960f88460031b161c191690553880611635565b80600185968294968b015181550195019301906115f9565b81811061167d575050565b60008155600101611672565b90601f8211611696575050565b61028c9160026000527f405787fa12a823e0f2b7631cc41b3ba8828b3321ca811111fa75cd3aa3bb5ace906020601f840160051c830193106116e0575b601f0160051c0190611672565b90915081906116d3565b9190601f81116116f957505050565b61028c926000526020600020906020601f840160051c830193106116e057601f0160051c0190611672565b906001600160a01b036117446020929594956040855260408501906103d9565b9416910152565b90929167ffffffffffffffff8111610197576117718161176b845461012b565b846116ea565b6000601f82116001146117b25781906117a39394956000926117a7575b50508160011b916000199060031b1c19161790565b9055565b01359050388061178e565b601f198216946117c784600052602060002090565b91805b8781106118025750836001959697106117e8575b505050811b019055565b0135600019600384901b60f8161c191690553880806117de565b909260206001819286860135815501940191016117ca565b916060816001600160a01b039260209497969760408752816040880152838701376000828287010152601f80199101168401019416910152565b604051906101a0820182811067ffffffffffffffff82111761019757604052606061018083600080825280602083015280604083015280848301528060808301528060a08301528060c08301528060e08301528061010083015280610120830152806101408301526101608201520152565b9190811015610e215760051b0190565b908160021b917f3fffffffffffffffffffffffffffffffffffffffffffffffffffffffffffffff811603610e6c57565b9067ffffffffffffffff831161019757680100000000000000008311610197578154838355808410611962575b50906000526020806000209060005b848110611950575050505050565b83358382015592810192600101611942565b61197a90836000528460206000209182019101611672565b38611933565b9291909493948352606060208401528160608401527f07ffffffffffffffffffffffffffffffffffffffffffffffffffffffffffffff82116104465760806001600160a01b039160409360051b8091838701378401019416910152565b929093916001600160a01b0385818616956040928351907f6352211e000000000000000000000000000000000000000000000000000000009081835260209283818c8180611a3460049b8c83019190602083019252565b03915afa908115610ac057600091611f78575b508133911603611f50578615611f3957855182815283818c8180611a728d8c83019190602083019252565b03915afa908115610ac057600091611f1c575b508133911603611ef457855163507f146560e01b8152838187818e5afa8015610ac05788600091611af1938391611ed7575b5087858a8c519687958694859363c44a8e6d60e01b8552840160409060009294936001600160a01b03606083019616825260208201520152565b0392165afa908115610ac057600091611ebc575b505115611e945786611b218c6000526006602052604060002090565b559190915b600091611b31611854565b506000938492835b8d8d8810611ba257505050505050505050508291611b9d91611b91867f6a68946ba06488db8585d7c7637fa954b574035fe15720ea760125ef860172589796611b8c8b6000526005602052604060002090565b611906565b51938493339285611980565b0390a3565b611bd2858f8f93611bb88f928f96908e916118c6565b35948592518095819482938c845283019190602083019252565b03915afa908115610ac057600091611e77575b508333911603611e4f57898f86908d519283809263507f146560e01b82525afa918215610ac057611c55928b868f8f906000968795611e30575b50519687958694859363c44a8e6d60e01b8552840160409060009294936001600160a01b03606083019616825260208201520152565b0392165afa908115610ac057600091611e17575b50805115611def576101000195865160028110908115611de4575b50611dbc578715159081611db0575b50611d8857855160058103611cb3575050600180955b5196019594611b39565b9095949060098103611cca57505060018094611ca9565b989f9d9b999e9c9a98600681969296148015611d7e575b80611d77575b15611d1557508f8f517f54f653b3000000000000000000000000000000000000000000000000000000008152fd5b9d9f989a9c9e999b9d600a8114908115611d6c575b5080611d65575b611d3d57600190611ca9565b888a517f5e701b2b000000000000000000000000000000000000000000000000000000008152fd5b5084611d31565b600b91501438611d2a565b5086611ce7565b5060078114611ce1565b888a517ffb81d04a000000000000000000000000000000000000000000000000000000008152fd5b90508651111538611c93565b898b517fc89badbd000000000000000000000000000000000000000000000000000000008152fd5b600d91501138611c84565b898b517fa981203a000000000000000000000000000000000000000000000000000000008152fd5b611e2a913d8091833e610ab2818361022b565b38611c69565b611e489195508c8d3d10610aef57610ae0818361022b565b9338611c1f565b898b517f812a6989000000000000000000000000000000000000000000000000000000008152fd5b611e8e9150863d8811610aef57610ae0818361022b565b38611be5565b8486517f265ba879000000000000000000000000000000000000000000000000000000008152fd5b611ed191503d806000833e610ab2818361022b565b38611b05565b611eee9150873d8911610aef57610ae0818361022b565b38611ab7565b8486517f9d17cec7000000000000000000000000000000000000000000000000000000008152fd5b611f339150843d8611610aef57610ae0818361022b565b38611a85565b60008b815260066020526040812055919091611b26565b8486517f1f567c4c000000000000000000000000000000000000000000000000000000008152fd5b611f8f9150843d8611610aef57610ae0818361022b565b38611a47565b61040f905461012b565b908092918237016000815290565b602161028c919392936040519481611fcf8793518092602080870191016103b6565b82017f2000000000000000000000000000000000000000000000000000000000000000602082015261200a82518093602087850191016103b6565b0103600181018552018361022b565b9061028c602960405180947f546f7070696e673a200000000000000000000000000000000000000000000000602083015261205d81518092602086860191016103b6565b810103600981018552018361022b565b9061028c602660405180947f466973743a20000000000000000000000000000000000000000000000000000060208301526120b181518092602086860191016103b6565b810103600681018552018361022b565b9061028c602d60405180947f5375697420626f74746f6d3a2000000000000000000000000000000000000000602083015261210581518092602086860191016103b6565b810103600d81018552018361022b565b9061028c602a60405180947f5375697420746f703a2000000000000000000000000000000000000000000000602083015261215981518092602086860191016103b6565b810103600a81018552018361022b565b9061028c602660405180947f537569743a20000000000000000000000000000000000000000000000000000060208301526120b181518092602086860191016103b6565b9061028c602a60405180947f48656164676561723a2000000000000000000000000000000000000000000000602083015261215981518092602086860191016103b6565b9061028c602760405180947f4d6f7574683a2000000000000000000000000000000000000000000000000000602083015261223581518092602086860191016103b6565b810103600781018552018361022b565b9061028c602660405180947f457965733a20000000000000000000000000000000000000000000000000000060208301526120b181518092602086860191016103b6565b9061028c602660405180947f466163653a20000000000000000000000000000000000000000000000000000060208301526120b181518092602086860191016103b6565b9061028c602a60405180947f4e65636b6c6163653a2000000000000000000000000000000000000000000000602083015261215981518092602086860191016103b6565b9061028c602660405180947f4c6567733a20000000000000000000000000000000000000000000000000000060208301526120b181518092602086860191016103b6565b9061028c602a60405180947f4261636b736964653a2000000000000000000000000000000000000000000000602083015261215981518092602086860191016103b6565b9061028c602760405180947f576f726c643a2000000000000000000000000000000000000000000000000000602083015261223581518092602086860191016103b6565b9061028c603560405180947f4f726967696e616c204e616b65642042616e6e79200000000000000000000000602083015261242181518092602086860191016103b6565b810103601581018552018361022b565b9061028c603360405180947f4f72616e6765204e616b65642042616e6e792000000000000000000000000000602083015261247581518092602086860191016103b6565b810103601381018552018361022b565b9061028c603160405180947f50696e6b204e616b65642042616e6e792000000000000000000000000000000060208301526124c981518092602086860191016103b6565b810103601181018552018361022b565b9061028c603260405180947f416c69656e204e616b65642042616e6e79200000000000000000000000000000602083015261251d81518092602086860191016103b6565b810103601281018552018361022b565b906001810361254a575061040f9150612545906143e1565b6124d9565b60028103612566575061040f9150612561906143e1565b612485565b60038103612582575061040f915061257d906143e1565b612431565b6004810361259e575061040f9150612599906143e1565b6123dd565b6125b56125ba916000526003602052604060002090565b610313565b80516126bd57506125ca906143e1565b905b600181036125de575061040f90612399565b600281036125f0575061040f90612355565b60038103612602575061040f90612311565b60048103612614575061040f906122cd565b60058103612626575061040f90612289565b60068103612638575061040f90612245565b6007810361264a575061040f906121f1565b6008810361265c575061040f906121ad565b6009810361266e575061040f90612169565b600a8103612680575061040f90612115565b600b8103612692575061040f906120c1565b600c81036126a4575061040f9061206d565b600d146126b4575061040f610fce565b61040f90612019565b6126c96126cf926143e1565b90611fad565b906125cc565b67ffffffffffffffff81116101975760051b60200190565b919060408382031261044657825192602090818101519067ffffffffffffffff821161044657019180601f8401121561044657825161272b816126d5565b93612739604051958661022b565b818552838086019260051b820101928311610446578301905b828210612760575050505090565b81518152908301908301612752565b3d1561279a573d9061278082610609565b9161278e604051938461022b565b82523d6000602084013e565b606090565b60405163507f146560e01b8152906001600160a01b036020836004818585165afa928315610ac05760009361296c575b506000906040519384809263c44a8e6d60e01b82528161280f89886004840160409060009294936001600160a01b03606083019616825260208201520152565b0392165afa918215610ac057600092612951575b5081511561294657606061010083015161291f57604051630f22bc6f60e11b8152600481019490945261040f936128ac929082906000908181602481305afa90816000916000936128f8575b506128ea575050906128a49161288361276f565b505b801515806128e2575b6128c8575b5061289e8651614736565b90611052565b935190615135565b80516128b9575b50614201565b6128c291611052565b386128b3565b6128dc91506128d79084612bf4565b610ff8565b38612893565b50600161288e565b9094506128a4929150612885565b90925061291891503d806000833e612910818361022b565b8101906126ed565b913861286f565b509061292d92505190612bf4565b80511561293d5761040f90614201565b5061040f610fce565b50505061040f610fce565b61296591923d8091833e610ab2818361022b565b9038612823565b60009193506129899060203d602011610aef57610ae0818361022b565b92906127cf565b926001600160a01b03916040519263507f146560e01b8452602084600481848a165afa938415610ac057600094612b55575b506000906040519485809263c44a8e6d60e01b825281612a02878c6004840160409060009294936001600160a01b03606083019616825260208201520152565b0392165afa928315610ac057600093612b3a575b50825115612b2d57606094610100840151612b1d5761040f956000612a576000839560405180938192630f22bc6f60e11b8352600483019190602083019252565b0381305afa9081600091600093612afe575b50612aee575050612a9b929394612a7e61276f565b505b8115159081612ae6575b50612ad1575b5061289e8551614736565b93612aa9575b505050614201565b612ab4925190615135565b8051612ac2575b8080612aa1565b612acb91611052565b38612abb565b612ae091506128d79084612bf4565b38612a90565b905038612a8a565b909150612a9b9394509094612a80565b909250612b1691503d806000833e612910818361022b565b9138612a69565b9350505061292d92505190612bf4565b505050505061040f610fce565b612b4e91933d8091833e610ab2818361022b565b9138612a16565b6000919450612b729060203d602011610aef57610ae0818361022b565b93906129c2565b9061028c605660405180947f3c673e3c696d61676520786c696e6b3a687265663d22000000000000000000006020830152612bbe8151809260206036860191016103b6565b81017f222077696474683d2234303022206865696768743d22343030222f3e3c2f673e603682015203603681018552018361022b565b612c0b6125b5836000526004602052604060002090565b8051612d01575060405163507f146560e01b81526001600160a01b039260209283836004818489165afa908115610ac057612c96958594600093612ce2575b506040518097819582947fbd51923c00000000000000000000000000000000000000000000000000000000845260048401602090939291936001600160a01b0360408201951681520152565b0392165afa8015610ac05761040f92612cc092600092612cc5575b5050612cbb61024d565b614314565b612b79565b612cdb9250803d1061144557611435818361022b565b3880612cb1565b612cfa919350853d8711610aef57610ae0818361022b565b9138612c4a565b91505090565b60405190612d148261019c565b6110818252601f60f91b6110a0837f3c6720636c6173733d226131223e3c7061746820643d224d313733203533683460208201527f763137682d347a222f3e3c2f673e3c6720636c6173733d226132223e3c70617460408201527f6820643d224d3136372035376833763130682d337a222f3e3c7061746820643d60608201527f224d3136392035336834763137682d347a222f3e3c2f673e3c6720636c61737360808201527f3d226133223e3c7061746820643d224d31363720353368337634682d337a222f60a08201527f3e3c7061746820643d224d3136332035376834763130682d347a222f3e3c706160c08201527f746820643d224d31363720363768337633682d337a222f3e3c2f673e3c67206360e08201527f6c6173733d226231223e3c7061746820643d224d32313320323533682d33762d6101008201527f332d33682d33762d372d33682d34762d3130682d33762d372d372d33682d33766101208201527f2d3733682d34762d3130682d33762d3130682d33762d37682d34762d37682d336101408201527f762d33682d33762d33682d3476313068347631306833763130683376336834766101608201527f37203320373020336833763768337632306834763768337633683376336834766101808201527f34683376336833762d332d347a222f3e3c7061746820643d224d3235332033306101a08201527f37762d34682d33762d33682d33762d33682d34762d34682d33762d33682d33766101c08201527f2d33682d34762d34682d33762d33682d33762d33682d34762d34682d33762d366101e08201527f682d33762d37682d3476313768347633683376336833203476346833763368336102008201527f76336834763468337633683376336834763468337633683376336834762d36686102208201527f2d347a222f3e3c2f673e3c6720636c6173733d226232223e3c7061746820643d6102408201527f224d32353020333130762d33682d33762d34682d34762d33682d33762d33682d6102608201527f33762d34682d34762d33682d33762d33682d33762d34682d37762d33682d33766102808201527f2d33682d34762d3137682d33762d33682d33762d34682d34762d33682d33762d6102a08201527f33682d33762d37682d34762d3230682d33762d37682d33762d37332d332d37686102c08201527f2d34762d33682d33762d3130682d33762d3130682d34563730682d33762d336c6102e08201527f2d332031303020332d313030763430682d33763130682d347636682d337631346103008201527f682d337633203133682d347634346834763136683376313468337631336834766103208201527f31306833763768337633683476336833763468337633683476336833763468336103408201527f76336834763368337637683776376836763368377633683776346831337633686103608201527f337633683130762d33682d337a6d2d3130332d3837762d31366833762d3130686103808201527f2d337636682d34763137682d337631306833762d3768347a222f3e3c706174686103a08201527f20643d224d3134332032333068347637682d347a6d3420313068337633682d336103c08201527f7a6d33203768337633682d337a6d33203668347634682d347a222f3e3c7061746103e08201527f6820643d224d31363320323537682d36763368337633683376346834762d342d6104008201527f33682d34762d337a222f3e3c2f673e3c6720636c6173733d226233223e3c70616104208201527f746820643d224d3134332031393776366834762d366836762d34346834762d316104408201527f366833762d31346833762d366834762d31306833563937682d377636682d33766104608201527f34682d337633682d347633682d3376342033682d3376332034682d34763130686104808201527f2d337631362034682d337634366833762d3668337a222f3e3c7061746820643d6104a08201527f224d313430203230336833763137682d337a222f3e3c7061746820643d224d316104c08201527f3337203232306833763130682d337a222f3e3c7061746820643d224d313533206104e08201527f323530682d33762d37682d33762d36682d34762d37682d3376313068337637686105008201527f347636683376346833762d377a6d2d3320313068337637682d337a222f3e3c706105208201527f61746820643d224d3134372032353768337633682d337a6d36203068347633686105408201527f2d347a222f3e3c7061746820643d224d31363020323633762d33682d337633206105608201527f376836762d37682d337a6d2d31302d3536763136682d337637683376313068336105808201527f763768347636683676346837762d342d33682d33762d3130682d34762d3133686105a08201527f2d33762d3134682d33762d3136682d34763130682d337a222f3e3c70617468206105c08201527f643d224d32343320333133762d33682d33762d33682d31302d33762d34682d376105e08201527f762d33682d37762d33682d36762d37682d37762d37682d33762d33682d34762d6106008201527f33682d33762d34682d33762d33682d34762d33682d33762d34682d33762d33686106208201527f2d34762d33682d33763130682d337633682d347633682d3376376833763768346106408201527f76366833763568347633683676336833763368342033763368332034763368336106608201527f20337634683130763368372037203376336831302033762d33683130762d33686106808201527f34762d34682d31347a222f3e3c2f673e3c6720636c6173733d226234223e3c706106a08201527f61746820643d224d3138332031333068347637682d347a222f3e3c70617468206106c08201527f643d224d3138302031323768337633682d337a6d2d32372d3468347637682d346106e08201527f7a222f3e3c7061746820643d224d3135372031313768337636682d337a222f3e6107008201527f3c7061746820643d224d3136302031313068337637682d337a222f3e3c7061746107208201527f6820643d224d3136332031303768347633682d347a6d2d3320383368337637686107408201527f2d337a222f3e3c7061746820643d224d3136332031383768347633682d347a6d6107608201527f3230203068377633682d377a222f3e3c7061746820643d224d313830203139306107808201527f68337633682d337a6d31302d3768337634682d337a222f3e3c7061746820643d6107a08201527f224d3139332031383768347636682d347a6d2d323020353368347637682d347a6107c08201527f222f3e3c7061746820643d224d3137372032343768337636682d337a222f3e3c6107e08201527f7061746820643d224d3138302032353368337637682d337a222f3e3c706174686108008201527f20643d224d3138332032363068377633682d377a222f3e3c7061746820643d226108208201527f4d3139302032363368337634682d337a6d302d323068337634682d337a222f3e6108408201527f3c7061746820643d224d3138372032343068337633682d337a222f3e3c7061746108608201527f6820643d224d3139302032333768337633682d337a6d313320323368347633686108808201527f2d347a222f3e3c7061746820643d224d3230372032363368337637682d337a226108a08201527f2f3e3c7061746820643d224d3231302032373068337633682d337a6d2d3130206108c08201527f3768337636682d337a222f3e3c7061746820643d224d323033203238336834766108e08201527f37682d347a222f3e3c7061746820643d224d3230372032393068367633682d366109008201527f7a222f3e3c2f673e3c6720636c6173733d226f223e3c7061746820643d224d316109208201527f3333203135376834763530682d347a6d302036336834763130682d347a6d32376109408201527f2d3136336833763130682d337a222f3e3c7061746820643d224d3136332035336109608201527f68347634682d347a222f3e3c7061746820643d224d31363720353068313076336109808201527f682d31307a222f3e3c7061746820643d224d3137372035336833763137682d336109a08201527f7a222f3e3c7061746820643d224d3137332037306834763237682d347a6d2d366109c08201527f20306833763237682d337a222f3e3c7061746820643d224d31363320363768346109e08201527f7633682d347a6d3020333068347633682d347a222f3e3c7061746820643d224d610a008201527f3136302031303068337633682d337a222f3e3c7061746820643d224d31353720610a208201527f31303368337634682d337a222f3e3c7061746820643d224d3135332031303768610a408201527f347633682d347a222f3e3c7061746820643d224d313530203131306833763368610a608201527f2d337a222f3e3c7061746820643d224d3134372031313368337637682d337a22610a808201527f2f3e3c7061746820643d224d3134332031323068347637682d347a222f3e3c70610aa08201527f61746820643d224d313430203132376833763130682d337a222f3e3c70617468610ac08201527f20643d224d313337203133376833763230682d337a6d35362d31306834763130610ae08201527f682d347a222f3e3c7061746820643d224d313930203131376833763130682d33610b008201527f7a222f3e3c7061746820643d224d3138372031313068337637682d337a222f3e610b208201527f3c7061746820643d224d3138332031303368347637682d347a222f3e3c706174610b408201527f6820643d224d3138302031303068337633682d337a222f3e3c7061746820643d610b608201527f224d31373720393768337633682d337a6d2d3430203130366833763137682d33610b808201527f7a6d302032376833763130682d337a6d313020333068337637682d337a222f3e610ba08201527f3c7061746820643d224d31353020323537762d34682d33762d36682d34762d37610bc08201527f682d3376313068337631306834762d3368337a222f3e3c7061746820643d224d610be08201527f3135302032353768337633682d337a222f3e3c7061746820643d224d31363320610c008201527f323733762d33682d36762d3130682d347637682d337633683376336834763768610c208201527f33762d3768337a222f3e3c7061746820643d224d313633203236376834763368610c408201527f2d347a222f3e3c7061746820643d224d31373020323537682d332d3476336834610c608201527f76376833762d31307a222f3e3c7061746820643d224d31353720323533683676610c808201527f34682d367a222f3e3c7061746820643d224d3135332032343768347636682d34610ca08201527f7a222f3e3c7061746820643d224d3135302032343068337637682d337a222f3e610cc08201527f3c7061746820643d224d313437203233306833763130682d337a6d3133203530610ce08201527f68337637682d337a222f3e3c7061746820643d224d3134332032323368347637610d008201527f682d347a222f3e3c7061746820643d224d313437203230376833763136682d33610d208201527f7a222f3e3c7061746820643d224d313530203139376833763130682d337a6d2d610d408201527f3130203068337636682d337a6d35302031313368377633682d377a6d32332031610d608201527f306831377633682d31377a222f3e3c7061746820643d224d3233302033323368610d808201527f31337634682d31337a222f3e3c7061746820643d224d32343320333230683130610da08201527f7633682d31307a222f3e3c7061746820643d224d323533203331376834763368610dc08201527f2d347a222f3e3c7061746820643d224d323537203330376833763130682d337a610de08201527f222f3e3c7061746820643d224d3235332033303368347634682d347a222f3e3c610e008201527f7061746820643d224d3235302033303068337633682d337a222f3e3c70617468610e208201527f20643d224d3234372032393768337633682d337a222f3e3c7061746820643d22610e408201527f4d3234332032393368347634682d347a222f3e3c7061746820643d224d323430610e608201527f2032393068337633682d337a222f3e3c7061746820643d224d32333720323837610e808201527f68337633682d337a222f3e3c7061746820643d224d3233332032383368347634610ea08201527f682d347a222f3e3c7061746820643d224d3233302032383068337633682d337a610ec08201527f222f3e3c7061746820643d224d3232372032373768337633682d337a222f3e3c610ee08201527f7061746820643d224d3232332032373368347634682d347a222f3e3c70617468610f008201527f20643d224d3232302032363768337636682d337a222f3e3c7061746820643d22610f208201527f4d3231372032363068337637682d337a222f3e3c7061746820643d224d323133610f408201527f2032353368347637682d347a222f3e3c7061746820643d224d32313020323437610f608201527f68337636682d337a222f3e3c7061746820643d224d3230372032333768337631610f808201527f30682d337a222f3e3c7061746820643d224d323033203232376834763130682d610fa08201527f347a6d2d343020363068347636682d347a6d323420323068337633682d337a22610fc08201527f2f3e3c7061746820643d224d3136372032393368337635682d337a6d31362031610fe08201527f3468347633682d347a222f3e3c7061746820643d224d313730203239386834766110008201527f33682d347a6d3130203668337633682d337a222f3e3c7061746820643d224d316110208201527f37342033303168367633682d367a6d323320313268367634682d367a222f3e3c6110408201527f7061746820643d224d323033203331376831307633682d31307a6d2d322d31306110608201527f37762d3733682d3476373368337631376833762d3137682d327a222f3e3c2f676110808201520152565b9061028c609a60405180947f3c7374796c653e2e6f7b66696c6c3a233830383038303b7d2e62327b66696c6c60208301527f3a6e6f6e653b7d2e62337b66696c6c3a6e6f6e653b7d2e62347b66696c6c3a6e60408301527f6f6e653b7d2e61317b66696c6c3a6e6f6e653b7d2e61327b66696c6c3a6e6f6e60608301527f653b7d2e61337b66696c6c3a6e6f6e653b7d3c2f7374796c653e00000000000060808301526141f181518092602086860191016103b6565b810103607a81018552018361022b565b9061028c60bb60405180947f3c7376672077696474683d2234303022206865696768743d223430302220766960208301527f6577426f783d223020302034303020343030222066696c6c3d226e6f6e65222060408301527f786d6c6e733d22687474703a2f2f7777772e77332e6f72672f323030302f737660608301527f67223e3c7374796c653e2e6f7b66696c6c3a233035303530353b7d2e777b666960808301527f6c6c3a236639663966393b7d3e3c2f7374796c653e000000000000000000000060a08301526142de81518092602060b5860191016103b6565b81017f3c2f7376673e000000000000000000000000000000000000000000000000000060b582015203609b81018552018361022b565b9061040f9061435e6040516020927f122000000000000000000000000000000000000000000000000000000000000084830152602282015260228152614359816101b9565b615476565b92604051938161437786935180928680870191016103b6565b820161438b825180938680850191016103b6565b0103808452018261022b565b6040516143a38161017b565b60008152906000368137565b906143b982610609565b6143c6604051918261022b565b82815280926143d7601f1991610609565b0190602036910137565b806000917a184f03e93ff9f4daa797ed6e38ed64bf6a1f01000000000000000080821015614524575b506d04ee2d6d415b85acef810000000080831015614515575b50662386f26fc1000080831015614506575b506305f5e100808310156144f7575b50612710808310156144e8575b5060648210156144d8575b600a809210156144ce575b600190816021614479600187016143af565b95860101905b61448b575b5050505090565b600019019083907f30313233343536373839616263646566000000000000000000000000000000008282061a8353049182156144c95791908261447f565b614484565b9160010191614467565b919060646002910491019161445c565b60049193920491019138614451565b60089193920491019138614444565b60109193920491019138614435565b60209193920491019138614423565b60409350810491503861440a565b6040519061453f826101b9565b604082527f6768696a6b6c6d6e6f707172737475767778797a303132333435363738392b2f6040837f4142434445464748494a4b4c4d4e4f505152535455565758595a61626364656660208201520152565b9060028201809211610e6c57565b9060208201809211610e6c57565b9060018201809211610e6c57565b91908201809211610e6c57565b80511561293d576145d7614532565b6145f36145ee6145e78451614591565b6003900490565b6118d6565b916146056146008461459f565b6143af565b92835280815182019060208501935b82821061468b5750505060039051068060011461466057600214614636575090565b7f3d0000000000000000000000000000000000000000000000000000000000000090600019015290565b507f3d3d00000000000000000000000000000000000000000000000000000000000090600119015290565b9091936004906003809401938451600190603f9082828260121c16880101518553828282600c1c16880101518386015382828260061c1688010151600286015316850101519082015301939190614614565b6001600160a01b038060005416816146f3615c11565b16036146fc5750565b602490614707615c11565b6040517f118cdaa700000000000000000000000000000000000000000000000000000000815291166004820152fd5b61473f9061594f565b9261474e969596929192612d07565b94604051978897602089017f3c7374796c653e2e62317b66696c6c3a2300000000000000000000000000000090528051908160318b019160200191614792926103b6565b8801603181017f3b7d2e62327b66696c6c3a230000000000000000000000000000000000000000905281519182603d830191602001916147d1926103b6565b01603d81017f3b7d2e62337b66696c6c3a23000000000000000000000000000000000000000090528151918260498301916020019161480f926103b6565b016049810161483d907f3b7d2e62347b66696c6c3a2300000000000000000000000000000000000000009052565b60550161484991610fe1565b7f3b7d2e61317b66696c6c3a2300000000000000000000000000000000000000008152600c0161487891610fe1565b7f3b7d2e61327b66696c6c3a2300000000000000000000000000000000000000008152600c016148a791610fe1565b7f3b7d2e61337b66696c6c3a2300000000000000000000000000000000000000008152600c016148d691610fe1565b7f3b7d3c2f7374796c653e000000000000000000000000000000000000000000008152600a0161490591610fe1565b03601f198101825261040f908261022b565b60405190610120820182811067ffffffffffffffff8211176101975760405260f982527f2d31306833762d376833762d33682d31307a222f3e3c2f673e00000000000000610100837f3c6720636c6173733d226f223e3c7061746820643d224d31383720333037762d60208201527f346833762d36682d33762d34682d34762d33682d33762d33682d37762d34682d60408201527f367634682d3476336834763237682d34763133682d33763130682d347637683460608201527f76336833203130203134762d33682d34762d34682d33762d33682d33762d336860808201527f2d34762d376834762d31306833762d376833762d336837762d33682d337a6d3160a08201527f36203130762d34682d36763137682d34763130682d337637683376336834203660c08201527f20342033203134762d33682d34762d34682d37762d33682d33762d33682d337660e08201520152565b60405190614a7a826101d5565b61019c82527f6820643d224d3139332031373068347633682d347a222f3e3c2f673e000000006101a0837f3c6720636c6173733d226f223e3c7061746820643d224d31393020313733682d60208201527f3337762d33682d3130762d34682d36763468337633682d33763468367633683160408201527f307634683337762d346833762d33682d33762d347a6d2d34302034682d33762d60608201527f34683376347a6d372033762d3368337633682d337a6d362030762d336834763360808201527f682d347a6d372030762d3368337633682d337a6d372030762d3368337633682d60a08201527f337a6d31302030682d34762d33683476337a222f3e3c7061746820643d224d3160c08201527f39302031373068337633682d337a222f3e3c7061746820643d224d313933203160e08201527f363668347634682d347a6d30203768347634682d347a222f3e3c2f673e3c67206101008201527f636c6173733d2277223e3c7061746820643d224d3133372031373068337633686101208201527f2d337a6d3130203368337634682d337a6d3130203468337633682d337a6d36206101408201527f3068347633682d347a6d37203068337633682d337a6d37203068337633682d336101608201527f7a6d36203068347633682d347a6d372d3468337634682d337a222f3e3c7061746101808201520152565b60405190610100820182811067ffffffffffffffff8211176101975760405260dd82527f746820643d224d3138302031343768337633682d337a222f3e3c2f673e00000060e0837f3c6720636c6173733d226f223e3c7061746820643d224d31373720313430763360208201527f6836763131683130762d31316834762d33682d32307a222f3e3c70617468206460408201527f3d224d31353320313430763368377638203368372033762d31316833762d336860608201527f2d32307a222f3e3c2f673e3c6720636c6173733d2277223e3c7061746820643d60808201527f224d3135332031343368377634682d377a222f3e3c7061746820643d224d313560a08201527f372031343768337633682d337a6d32302d3468367634682d367a222f3e3c706160c08201520152565b60405190614db1826101f2565b61023a82527f643d224d3139302031333768347633682d347a222f3e3c2f673e000000000000610240837f3c6720636c6173733d226f223e3c7061746820643d224d31393020313237683360208201527f7633682d337a6d3320313368347633682d347a6d2d3432203068367636682d3660408201527f7a222f3e3c7061746820643d224d3135312031333368337637682d337a6d313060608201527f203068367634682d367a222f3e3c7061746820643d224d31353720313337683160808201527f377636682d31377a6d332031336831347633682d31347a6d31372d313368377660a08201527f3136682d377a222f3e3c7061746820643d224d3138342031333768367636682d60c08201527f367a6d302031306831307636682d31307a222f3e3c7061746820643d224d313860e08201527f37203134336831307634682d31307a222f3e3c7061746820643d224d313930206101008201527f31343068337633682d337a6d2d362d313068337637682d337a222f3e3c7061746101208201527f6820643d224d3138372031333068367633682d367a6d2d3336203068313076336101408201527f682d31307a6d313620313368377637682d377a6d2d3130203068377637682d376101608201527f7a222f3e3c7061746820643d224d3136342031343768337633682d337a6d32396101808201527f2d323068347636682d347a222f3e3c7061746820643d224d31393420313333686101a08201527f337637682d337a222f3e3c2f673e3c6720636c6173733d2277223e3c706174686101c08201527f20643d224d3135342031333368377634682d377a222f3e3c7061746820643d226101e08201527f4d3135342031333768337633682d337a6d3130203668337634682d337a6d32306102008201527f203068337634682d337a6d332d313068377634682d377a222f3e3c70617468206102208201520152565b6040519060c0820182811067ffffffffffffffff8211176101975760405260818252601f60f91b60a0837f3c6720636c6173733d226f223e3c7061746820643d224d31383320313630762d60208201527f34682d32307634682d33763368337634683234762d37682d347a6d2d3133203360408201527f762d336831307633682d31307a222066696c6c3d2223616437316338222f3e3c60608201527f7061746820643d224d313730203136306831307633682d31307a222f3e3c2f6760808201520152565b82516060949391926000928392839260039284928392839290918681101561540557615160816145ad565b999897985b8a811061517a57505050505050505050505050565b818110156153f95761518c8184610e33565b51968c6001600160a01b0360409182519163507f146560e01b8352602091600491838584818486165afa928315610ac057615205968f959660009788966153da575b5050519687958694859363c44a8e6d60e01b8552840160409060009294936001600160a01b03606083019616825260208201520152565b0392165afa8015610ac057610100916000916153c1575b5001519a5b8b8a0361539257506001995b60048c810361536357505060019a5b6005818103615276575050506001965b8061525e575b50600101989798615165565b6001919e61289e61526f928f612bf4565b9d90615252565b81999299118061535b575b61528c575b5061524c565b90969095600680880361530f5750506001955b6007908082036152e0575050506001955b85806152d9575b806152d1575b6152c8575b38615286565b600197506152c2565b5087156152bd565b50866152b7565b9791971180615307575b156152b05795509c6152fe9061289e61506f565b9c6001956152b0565b5086156152ea565b8791971180615353575b1561529f57955060019e8f8614600014615341576153399061289e614da4565b9e5b9561529f565b61534d9061289e614c75565b9e61533b565b508615615319565b508815615281565b8c919c118061538a575b1561523c579a509d6153819061289e614a6d565b9d60019a61523c565b508b1561536d565b99898c11806153b9575b1561522d5799509d6153b09061289e614917565b9d60019961522d565b508a1561539c565b6153d4913d8091833e610ab2818361022b565b3861521c565b6153f1929650803d10610aef57610ae0818361022b565b9338806151ce565b60089996600097615221565b8099989798615165565b604051906105e0820182811067ffffffffffffffff82111761019757604052602e82526105c0366020840137565b90615447826126d5565b615454604051918261022b565b82815280926143d7601f19916126d5565b908151811015610e21570160200190565b908151156155b55761548661540f565b91600090600061549585610e26565b526001918151916000925b8084106154c657505050506154bc6154c19161040f9394615a93565b615ad6565b615b1d565b9091929461550f6155096155036154dd8987615465565b517fff000000000000000000000000000000000000000000000000000000000000001690565b60f81c90565b60ff1690565b9184925b60ff9089828916861015615574576001929161554861554261550961553b8a61554e96610e33565b5160ff1690565b60081b90565b906145bb565b61556b8b61556388603a958686061692610e33565b9060ff169052565b04930192615513565b50919594935050809691965b61558e5750600101926154a0565b9460ff6001603a926155ab83858b06166155638d86851690610e33565b0116950480615580565b905061040f614397565b604051906155cc8261020f565b600682527f66666539303000000000000000000000000000000000000000000000000000006020830152565b604051906156058261020f565b600682527f66666337303000000000000000000000000000000000000000000000000000006020830152565b6040519061563e8261020f565b600682527f66336136303300000000000000000000000000000000000000000000000000006020830152565b604051906156778261020f565b600682527f39363561316100000000000000000000000000000000000000000000000000006020830152565b604051906156b08261020f565b600682527f66663763303200000000000000000000000000000000000000000000000000006020830152565b604051906156e98261020f565b600682527f63333265306400000000000000000000000000000000000000000000000000006020830152565b604051906157228261020f565b600682527f66666438633500000000000000000000000000000000000000000000000000006020830152565b6040519061575b8261020f565b600682527f66663936613900000000000000000000000000000000000000000000000000006020830152565b604051906157948261020f565b600682527f66653538386200000000000000000000000000000000000000000000000000006020830152565b604051906157cd8261020f565b600682527f63393266343500000000000000000000000000000000000000000000000000006020830152565b604051906158068261020f565b600682527f36376437353700000000000000000000000000000000000000000000000000006020830152565b6040519061583f8261020f565b600682527f33306132323000000000000000000000000000000000000000000000000000006020830152565b604051906158788261020f565b600682527f32313761313500000000000000000000000000000000000000000000000000006020830152565b604051906158b18261020f565b600482527f6e6f6e65000000000000000000000000000000000000000000000000000000006020830152565b604051906158ea8261020f565b600682527f65343833656600000000000000000000000000000000000000000000000000006020830152565b604051906159238261020f565b600682527f64633266656600000000000000000000000000000000000000000000000000006020830152565b6001810361599657506159606157f9565b90615969615832565b9061597261586b565b9061597b6158a4565b906159846158dd565b9061598d615916565b9061040f615916565b600281036159dd57506159a7615715565b906159b061574e565b906159b9615787565b906159c26157c0565b906159cb615715565b906159d461574e565b9061040f615787565b60038103615a2457506159ee615631565b906159f76156a3565b90615a006156a3565b90615a096156dc565b90615a12615631565b90615a1b6156a3565b9061040f6156a3565b600414615a555760046040517f4c944ce8000000000000000000000000000000000000000000000000000000008152fd5b615a5d6155bf565b90615a666155f8565b90615a6f615631565b90615a7861566a565b90615a816155bf565b90615a8a6155f8565b9061040f615631565b9060ff80911690615aa38261543d565b9260005b838110615ab5575050505090565b8083615ac360019385610e33565b5116615acf8288610e33565b5201615aa7565b908151615ae28161543d565b9060005b818110615af4575090925050565b60019060ff615b0a600019838951030188610e33565b5116615b168286610e33565b5201615ae6565b8051615b2881610609565b91604090615b39604051948561022b565b828452615b4583610609565b60209190601f1901368684013760009260005b858110615b685750505050505090565b6001907fff00000000000000000000000000000000000000000000000000000000000000615bfc8451615b9a816101b9565b603a81527f31323334353637383941424344454647484a4b4c4d4e50515253545556575859888201527f5a6162636465666768696a6b6d6e6f707172737475767778797a0000000000008682015260ff615bf48589610e33565b511690615465565b5116861a615c0a828a615465565b5301615b58565b6001600160a01b037f000000000000000000000000000000000000000000000000000000000000000016331480615c5f575b15615c5b576013193601368111610e6c573560601c90565b3390565b506014361015615c4356fea26469706673582212202dc2803a53d9322e2f98a1565d0b49fa84d6d1e50d2e7790871fd78db48634b264736f6c63430008170033",
	"deployedBytecode": "0x6080604052600436101561001257600080fd5b60003560e01c806257bfdd146101265780631e4578de14610121578063572b6c051461011c5780635e703e711461011757806366c6e390146101125780636aff31dd1461010d578063715018a6146101085780637da0a877146101035780638d4edce3146100fe5780638da5cb5b146100f9578063a34031ed146100f4578063aeac5e35146100ef578063c06e7bc7146100ea578063f2fde38b146100e5578063f5dac0b3146100e0578063f92df2e3146100db5763fff628c6146100d657600080fd5b610db3565b610d84565b610c13565b610b63565b610af6565b6109d6565b61093e565b610917565b6107a5565b610733565b6106c9565b61069d565b610625565b6105bc565b610566565b61048d565b610412565b90600182811c9216801561015b575b602083101461014557565b634e487b7160e01b600052602260045260246000fd5b91607f169161013a565b634e487b7160e01b600052604160045260246000fd5b6020810190811067ffffffffffffffff82111761019757604052565b610165565b6110c0810190811067ffffffffffffffff82111761019757604052565b6060810190811067ffffffffffffffff82111761019757604052565b6101c0810190811067ffffffffffffffff82111761019757604052565b610260810190811067ffffffffffffffff82111761019757604052565b6040810190811067ffffffffffffffff82111761019757604052565b90601f8019910116810190811067ffffffffffffffff82111761019757604052565b60405190600082600254916102618361012b565b808352926020906001908181169081156102ef575060011461028e575b505061028c9250038361022b565b565b91509260026000527f405787fa12a823e0f2b7631cc41b3ba8828b3321ca811111fa75cd3aa3bb5ace936000925b8284106102d7575061028c945050508101602001388061027e565b855488850183015294850194879450928101926102bc565b9150506020925061028c94915060ff191682840152151560051b820101388061027e565b906040519182600082546103268161012b565b908184526020946001916001811690816000146103945750600114610355575b50505061028c9250038361022b565b600090815285812095935091905b81831061037c57505061028c9350820101388080610346565b85548884018501529485019487945091830191610363565b9250505061028c94925060ff191682840152151560051b820101388080610346565b60005b8381106103c95750506000910152565b81810151838201526020016103b9565b906020916103f2815180928185528580860191016103b6565b601f01601f1916010190565b90602061040f9281815201906103d9565b90565b346104465760003660031901126104465761044261042e61024d565b6040519182916020835260208301906103d9565b0390f35b600080fd5b604081019181526060602091604060208201528151809452019160809160005b828110610479575050505090565b83518552938101939281019260010161046b565b346104465760208060031936011261044657600435906000918083526005602052604083209060405180938491602085549182815201948752602087209187905b82821061053b57505050506104e8906104f893038461022b565b6000526006602052604060002090565b5491815191815b8381106105145760405180610442878261044b565b8061052160019284610e33565b5161053461052e86610e5d565b95610e0e565b52016104ff565b8354875295860195879450600193840193909101906104ce565b6001600160a01b0381160361044657565b3461044657602036600319011261044657602060043561058581610555565b6001600160a01b039060405191807f000000000000000000000000b2b5841dbef766d4b521221732f9b618fcf34a87169116148152f35b346104465760403660031901126104465761044261042e6004356105df81610555565b60243590611110565b604051906101a0820182811067ffffffffffffffff82111761019757604052565b67ffffffffffffffff811161019757601f01601f191660200190565b346104465760403660031901126104465760243567ffffffffffffffff8111610446573660238201121561044657806004013561066181610609565b9061066f604051928361022b565b808252366024828501011161044657602081600092602461069b96018386013783010152600435611528565b005b346104465760203660031901126104465760043560005260016020526020604060002054604051908152f35b3461044657600080600319360112610730576106e36146dd565b806001600160a01b03815473ffffffffffffffffffffffffffffffffffffffff1981168355167f8be0079c531659141344cd1fd0a4f28419497f9722a3daafe3b4186f6b6457e08280a380f35b80fd5b346104465760003660031901126104465760206040516001600160a01b037f000000000000000000000000b2b5841dbef766d4b521221732f9b618fcf34a87168152f35b9181601f840112156104465782359167ffffffffffffffff8311610446576020838186019501011161044657565b34610446576020806003193601126104465767ffffffffffffffff600435818111610446576107d8903690600401610777565b90916107e26146dd565b8111610197576107fc816107f760025461012b565b611689565b600092601f8211600114610873575061084e81807f512c3c91736f50c57a0548c1d01ab02f24c420f002b8b20e2bfe63df9693cd3f95600091610868575b508160011b916000199060031b1c19161790565b6002555b61086360405192839233918461181a565b0390a1005b90508401353861083a565b6002600052601f198216937f405787fa12a823e0f2b7631cc41b3ba8828b3321ca811111fa75cd3aa3bb5ace9181905b8682106108ff575050827f512c3c91736f50c57a0548c1d01ab02f24c420f002b8b20e2bfe63df9693cd3f95106108e5575b5050600181811b01600255610852565b830135600019600384901b60f8161c1916905538806108d5565b806001849582949589013581550194019201906108a3565b346104465760003660031901126104465760206001600160a01b0360005416604051908152f35b346104465760403660031901126104465760043560243561095d6146dd565b600091808352600160205260408320546109ac5780835260016020528160408420557fb10eb6fc7557a7109693cb8f3fac48d44328de56c0368ee4cac539b424d2cad96020604051338152a380f35b60046040517fcf7b506c000000000000000000000000000000000000000000000000000000008152fd5b34610446576040366003190112610446576004356109f381610555565b602435906001600160a01b0360405163507f146560e01b81526020816004818587165afa8015610ac057610a669360009386938593610ac5575b5060405180968195829463c44a8e6d60e01b84526004840160409060009294936001600160a01b03606083019616825260208201520152565b0392165afa918215610ac05761044292610a9192600091610a9d575b5061010081519101519161252d565b604051918291826103fe565b610aba91503d806000833e610ab2818361022b565b810190610eea565b38610a82565b610e86565b610ae891935060203d602011610aef575b610ae0818361022b565b810190610e71565b9138610a2d565b503d610ad6565b3461044657608036600319011261044657600435610b1381610555565b6064359067ffffffffffffffff908183116104465736602384011215610446578260040135918211610446573660248360051b8501011161044657602461069b93019060443590602435906119dd565b3461044657602036600319011261044657600435610b8081610555565b610b886146dd565b6001600160a01b038091168015610be25760009182548273ffffffffffffffffffffffffffffffffffffffff198216178455167f8be0079c531659141344cd1fd0a4f28419497f9722a3daafe3b4186f6b6457e08380a380f35b60246040517f1e4fbdf700000000000000000000000000000000000000000000000000000000815260006004820152fd5b34610446576040806003193601126104465760043560243567ffffffffffffffff811161044657610c48903690600401610777565b9190610c66610c61836000526004602052604060002090565b611f95565b610d5b57610c7e826000526001602052604060002090565b54928315610d32578385516020810190610cab81610c9d848789611f9f565b03601f19810183528261022b565b51902003610d0957610d04839495610cf88385610cf37f09b26657b7b690741d37bfcbbed1e373aa8a253d6b1412759967f8eb5b4d43a1986000526004602052604060002090565b61174b565b5192839233918461181a565b0390a3005b600485517f75b5da0b000000000000000000000000000000000000000000000000000000008152fd5b600485517f7ef41a4f000000000000000000000000000000000000000000000000000000008152fd5b600484517f0e2019dc000000000000000000000000000000000000000000000000000000008152fd5b346104465760603660031901126104465761044261042e60443560243560043561252d565b8015150361044657565b346104465760803660031901126104465761044261042e600435610dd681610555565b604435610de281610da9565b60643591610def83610da9565b60243590612990565b634e487b7160e01b600052603260045260246000fd5b606051811015610e215760051b60800190565b610df8565b805115610e215760200190565b8051821015610e215760209160051b010190565b634e487b7160e01b600052601160045260246000fd5b6000198114610e6c5760010190565b610e47565b90816020910312610446575161040f81610555565b6040513d6000823e3d90fd5b519061028c82610555565b519061028c82610da9565b81601f82011215610446578051610ebe81610609565b92610ecc604051948561022b565b818452602082840101116104465761040f91602080850191016103b6565b60208183031261044657805167ffffffffffffffff9182821161044657016101a08184031261044657610f1b6105e8565b92815184526020820151602085015260408201516040850152606082015160608501526080820151608085015260a082015160a0850152610f5e60c08301610e92565b60c085015260e082015160e08501526101008083015190850152610120610f86818401610e9d565b90850152610140610f98818401610e9d565b90850152610160610faa818401610e9d565b90850152610180928383015190811161044657610fc79201610ea8565b9082015290565b60405190610fdb8261017b565b60008252565b90610ff4602092828151948592016103b6565b0190565b90604051918260605160005b818110611039575090602061028c9361102d8294840191838301600081528151948592016103b6565b0103808552018361022b565b6020919250806080015182828801015201908491611004565b602061028c91939293604051948161107387935180928680870191016103b6565b820161102d825180938680850191016103b6565b9060208282031261044657815167ffffffffffffffff81116104465761040f9201610ea8565b90816020910312610446575190565b9061028c603d60405180947f646174613a6170706c69636174696f6e2f6a736f6e3b6261736536342c000000602083015261110081518092602086860191016103b6565b810103601d81018552018361022b565b906001600160a01b03918281169260409283519163507f146560e01b8084526020968785600481845afa948515610ac057600095611509575b50865163c44a8e6d60e01b81526001600160a01b03871660048201526024810185905260006044820181905290958690606490829087165afa948515610ac0576000956114ee575b508451156114de5761010085018051909390156114d4576111b3865188612bf4565b96875161149d575b87511561134057505050509461132f61130661133b96611262611291611262986112626112688a61123161040f9f6112026112189d61122c9f92611209935190519161252d565b92516143e1565b9488519c8d918d830190610fe1565b039b61122c601f199d8e810183528261022b565b6145c8565b96519c8d9a8b016009907f7b226e616d65223a22000000000000000000000000000000000000000000000081520190565b90610fe1565b7f222c20226964223a2022000000000000000000000000000000000000000000008152600a0190565b7f222c226465736372697074696f6e223a2241207069656365206f66207468652081527f42616e6e797665727365222c22696d616765223a22646174613a696d6167652f60208201527f7376672b786d6c3b6261736536342c00000000000000000000000000000000006040820152604f0190565b7f227d000000000000000000000000000000000000000000000000000000000000815260020190565b0390810183528261022b565b6110bc565b92965092600d919550511160001461148e5785517f6c0360eb000000000000000000000000000000000000000000000000000000008152600081600481885afa8015610ac057889160009161146b575b50955b600488518097819382525afa918215610ac0576113fe96889560009461144c575b50518097819582947fc8df171000000000000000000000000000000000000000000000000000000000845260048401602090939291936001600160a01b0360408201951681520152565b0392165afa918215610ac05761040f9360009361141d575b5050614314565b61143d929350803d10611445575b611435818361022b565b8101906110ad565b903880611416565b503d61142b565b611464919450863d8811610aef57610ae0818361022b565b92386113b4565b61148891503d806000833e611480818361022b565b810190611087565b38611390565b8661149761024d565b95611393565b966114b09060018651036114b657614201565b966111bb565b6114cf906114ca6114c5612d07565b61413b565b611052565b614201565b6114b0858861279f565b505050505050505061040f610fce565b61150291953d8091833e610ab2818361022b565b9338611191565b611521919550883d8a11610aef57610ae0818361022b565b9338611149565b906115316146dd565b816000526020600360205260406000209082519067ffffffffffffffff82116101975761156882611562855461012b565b856116ea565b602090601f83116001146115df5750916115be827fa67f37d9972d5f886682fb18abfea16db5777cc4d12c43e59dfee7e48663cb3895936115cf956000916115d457508160011b916000199060031b1c19161790565b90555b604051918291339083611724565b0390a2565b90508401513861083a565b90601f1983166115f485600052602060002090565b926000905b82821061165a575050926115cf9492600192827fa67f37d9972d5f886682fb18abfea16db5777cc4d12c43e59dfee7e48663cb38989610611641575b5050811b0190556115c1565b85015160001960f88460031b161c191690553880611635565b80600185968294968b015181550195019301906115f9565b81811061167d575050565b60008155600101611672565b90601f8211611696575050565b61028c9160026000527f405787fa12a823e0f2b7631cc41b3ba8828b3321ca811111fa75cd3aa3bb5ace906020601f840160051c830193106116e0575b601f0160051c0190611672565b90915081906116d3565b9190601f81116116f957505050565b61028c926000526020600020906020601f840160051c830193106116e057601f0160051c0190611672565b906001600160a01b036117446020929594956040855260408501906103d9565b9416910152565b90929167ffffffffffffffff8111610197576117718161176b845461012b565b846116ea565b6000601f82116001146117b25781906117a39394956000926117a7575b50508160011b916000199060031b1c19161790565b9055565b01359050388061178e565b601f198216946117c784600052602060002090565b91805b8781106118025750836001959697106117e8575b505050811b019055565b0135600019600384901b60f8161c191690553880806117de565b909260206001819286860135815501940191016117ca565b916060816001600160a01b039260209497969760408752816040880152838701376000828287010152601f80199101168401019416910152565b604051906101a0820182811067ffffffffffffffff82111761019757604052606061018083600080825280602083015280604083015280848301528060808301528060a08301528060c08301528060e08301528061010083015280610120830152806101408301526101608201520152565b9190811015610e215760051b0190565b908160021b917f3fffffffffffffffffffffffffffffffffffffffffffffffffffffffffffffff811603610e6c57565b9067ffffffffffffffff831161019757680100000000000000008311610197578154838355808410611962575b50906000526020806000209060005b848110611950575050505050565b83358382015592810192600101611942565b61197a90836000528460206000209182019101611672565b38611933565b9291909493948352606060208401528160608401527f07ffffffffffffffffffffffffffffffffffffffffffffffffffffffffffffff82116104465760806001600160a01b039160409360051b8091838701378401019416910152565b929093916001600160a01b0385818616956040928351907f6352211e000000000000000000000000000000000000000000000000000000009081835260209283818c8180611a3460049b8c83019190602083019252565b03915afa908115610ac057600091611f78575b508133911603611f50578615611f3957855182815283818c8180611a728d8c83019190602083019252565b03915afa908115610ac057600091611f1c575b508133911603611ef457855163507f146560e01b8152838187818e5afa8015610ac05788600091611af1938391611ed7575b5087858a8c519687958694859363c44a8e6d60e01b8552840160409060009294936001600160a01b03606083019616825260208201520152565b0392165afa908115610ac057600091611ebc575b505115611e945786611b218c6000526006602052604060002090565b559190915b600091611b31611854565b506000938492835b8d8d8810611ba257505050505050505050508291611b9d91611b91867f6a68946ba06488db8585d7c7637fa954b574035fe15720ea760125ef860172589796611b8c8b6000526005602052604060002090565b611906565b51938493339285611980565b0390a3565b611bd2858f8f93611bb88f928f96908e916118c6565b35948592518095819482938c845283019190602083019252565b03915afa908115610ac057600091611e77575b508333911603611e4f57898f86908d519283809263507f146560e01b82525afa918215610ac057611c55928b868f8f906000968795611e30575b50519687958694859363c44a8e6d60e01b8552840160409060009294936001600160a01b03606083019616825260208201520152565b0392165afa908115610ac057600091611e17575b50805115611def576101000195865160028110908115611de4575b50611dbc578715159081611db0575b50611d8857855160058103611cb3575050600180955b5196019594611b39565b9095949060098103611cca57505060018094611ca9565b989f9d9b999e9c9a98600681969296148015611d7e575b80611d77575b15611d1557508f8f517f54f653b3000000000000000000000000000000000000000000000000000000008152fd5b9d9f989a9c9e999b9d600a8114908115611d6c575b5080611d65575b611d3d57600190611ca9565b888a517f5e701b2b000000000000000000000000000000000000000000000000000000008152fd5b5084611d31565b600b91501438611d2a565b5086611ce7565b5060078114611ce1565b888a517ffb81d04a000000000000000000000000000000000000000000000000000000008152fd5b90508651111538611c93565b898b517fc89badbd000000000000000000000000000000000000000000000000000000008152fd5b600d91501138611c84565b898b517fa981203a000000000000000000000000000000000000000000000000000000008152fd5b611e2a913d8091833e610ab2818361022b565b38611c69565b611e489195508c8d3d10610aef57610ae0818361022b565b9338611c1f565b898b517f812a6989000000000000000000000000000000000000000000000000000000008152fd5b611e8e9150863d8811610aef57610ae0818361022b565b38611be5565b8486517f265ba879000000000000000000000000000000000000000000000000000000008152fd5b611ed191503d806000833e610ab2818361022b565b38611b05565b611eee9150873d8911610aef57610ae0818361022b565b38611ab7565b8486517f9d17cec7000000000000000000000000000000000000000000000000000000008152fd5b611f339150843d8611610aef57610ae0818361022b565b38611a85565b60008b815260066020526040812055919091611b26565b8486517f1f567c4c000000000000000000000000000000000000000000000000000000008152fd5b611f8f9150843d8611610aef57610ae0818361022b565b38611a47565b61040f905461012b565b908092918237016000815290565b602161028c919392936040519481611fcf8793518092602080870191016103b6565b82017f2000000000000000000000000000000000000000000000000000000000000000602082015261200a82518093602087850191016103b6565b0103600181018552018361022b565b9061028c602960405180947f546f7070696e673a200000000000000000000000000000000000000000000000602083015261205d81518092602086860191016103b6565b810103600981018552018361022b565b9061028c602660405180947f466973743a20000000000000000000000000000000000000000000000000000060208301526120b181518092602086860191016103b6565b810103600681018552018361022b565b9061028c602d60405180947f5375697420626f74746f6d3a2000000000000000000000000000000000000000602083015261210581518092602086860191016103b6565b810103600d81018552018361022b565b9061028c602a60405180947f5375697420746f703a2000000000000000000000000000000000000000000000602083015261215981518092602086860191016103b6565b810103600a81018552018361022b565b9061028c602660405180947f537569743a20000000000000000000000000000000000000000000000000000060208301526120b181518092602086860191016103b6565b9061028c602a60405180947f48656164676561723a2000000000000000000000000000000000000000000000602083015261215981518092602086860191016103b6565b9061028c602760405180947f4d6f7574683a2000000000000000000000000000000000000000000000000000602083015261223581518092602086860191016103b6565b810103600781018552018361022b565b9061028c602660405180947f457965733a20000000000000000000000000000000000000000000000000000060208301526120b181518092602086860191016103b6565b9061028c602660405180947f466163653a20000000000000000000000000000000000000000000000000000060208301526120b181518092602086860191016103b6565b9061028c602a60405180947f4e65636b6c6163653a2000000000000000000000000000000000000000000000602083015261215981518092602086860191016103b6565b9061028c602660405180947f4c6567733a20000000000000000000000000000000000000000000000000000060208301526120b181518092602086860191016103b6565b9061028c602a60405180947f4261636b736964653a2000000000000000000000000000000000000000000000602083015261215981518092602086860191016103b6565b9061028c602760405180947f576f726c643a2000000000000000000000000000000000000000000000000000602083015261223581518092602086860191016103b6565b9061028c603560405180947f4f726967696e616c204e616b65642042616e6e79200000000000000000000000602083015261242181518092602086860191016103b6565b810103601581018552018361022b565b9061028c603360405180947f4f72616e6765204e616b65642042616e6e792000000000000000000000000000602083015261247581518092602086860191016103b6565b810103601381018552018361022b565b9061028c603160405180947f50696e6b204e616b65642042616e6e792000000000000000000000000000000060208301526124c981518092602086860191016103b6565b810103601181018552018361022b565b9061028c603260405180947f416c69656e204e616b65642042616e6e79200000000000000000000000000000602083015261251d81518092602086860191016103b6565b810103601281018552018361022b565b906001810361254a575061040f9150612545906143e1565b6124d9565b60028103612566575061040f9150612561906143e1565b612485565b60038103612582575061040f915061257d906143e1565b612431565b6004810361259e575061040f9150612599906143e1565b6123dd565b6125b56125ba916000526003602052604060002090565b610313565b80516126bd57506125ca906143e1565b905b600181036125de575061040f90612399565b600281036125f0575061040f90612355565b60038103612602575061040f90612311565b60048103612614575061040f906122cd565b60058103612626575061040f90612289565b60068103612638575061040f90612245565b6007810361264a575061040f906121f1565b6008810361265c575061040f906121ad565b6009810361266e575061040f90612169565b600a8103612680575061040f90612115565b600b8103612692575061040f906120c1565b600c81036126a4575061040f9061206d565b600d146126b4575061040f610fce565b61040f90612019565b6126c96126cf926143e1565b90611fad565b906125cc565b67ffffffffffffffff81116101975760051b60200190565b919060408382031261044657825192602090818101519067ffffffffffffffff821161044657019180601f8401121561044657825161272b816126d5565b93612739604051958661022b565b818552838086019260051b820101928311610446578301905b828210612760575050505090565b81518152908301908301612752565b3d1561279a573d9061278082610609565b9161278e604051938461022b565b82523d6000602084013e565b606090565b60405163507f146560e01b8152906001600160a01b036020836004818585165afa928315610ac05760009361296c575b506000906040519384809263c44a8e6d60e01b82528161280f89886004840160409060009294936001600160a01b03606083019616825260208201520152565b0392165afa918215610ac057600092612951575b5081511561294657606061010083015161291f57604051630f22bc6f60e11b8152600481019490945261040f936128ac929082906000908181602481305afa90816000916000936128f8575b506128ea575050906128a49161288361276f565b505b801515806128e2575b6128c8575b5061289e8651614736565b90611052565b935190615135565b80516128b9575b50614201565b6128c291611052565b386128b3565b6128dc91506128d79084612bf4565b610ff8565b38612893565b50600161288e565b9094506128a4929150612885565b90925061291891503d806000833e612910818361022b565b8101906126ed565b913861286f565b509061292d92505190612bf4565b80511561293d5761040f90614201565b5061040f610fce565b50505061040f610fce565b61296591923d8091833e610ab2818361022b565b9038612823565b60009193506129899060203d602011610aef57610ae0818361022b565b92906127cf565b926001600160a01b03916040519263507f146560e01b8452602084600481848a165afa938415610ac057600094612b55575b506000906040519485809263c44a8e6d60e01b825281612a02878c6004840160409060009294936001600160a01b03606083019616825260208201520152565b0392165afa928315610ac057600093612b3a575b50825115612b2d57606094610100840151612b1d5761040f956000612a576000839560405180938192630f22bc6f60e11b8352600483019190602083019252565b0381305afa9081600091600093612afe575b50612aee575050612a9b929394612a7e61276f565b505b8115159081612ae6575b50612ad1575b5061289e8551614736565b93612aa9575b505050614201565b612ab4925190615135565b8051612ac2575b8080612aa1565b612acb91611052565b38612abb565b612ae091506128d79084612bf4565b38612a90565b905038612a8a565b909150612a9b9394509094612a80565b909250612b1691503d806000833e612910818361022b565b9138612a69565b9350505061292d92505190612bf4565b505050505061040f610fce565b612b4e91933d8091833e610ab2818361022b565b9138612a16565b6000919450612b729060203d602011610aef57610ae0818361022b565b93906129c2565b9061028c605660405180947f3c673e3c696d61676520786c696e6b3a687265663d22000000000000000000006020830152612bbe8151809260206036860191016103b6565b81017f222077696474683d2234303022206865696768743d22343030222f3e3c2f673e603682015203603681018552018361022b565b612c0b6125b5836000526004602052604060002090565b8051612d01575060405163507f146560e01b81526001600160a01b039260209283836004818489165afa908115610ac057612c96958594600093612ce2575b506040518097819582947fbd51923c00000000000000000000000000000000000000000000000000000000845260048401602090939291936001600160a01b0360408201951681520152565b0392165afa8015610ac05761040f92612cc092600092612cc5575b5050612cbb61024d565b614314565b612b79565b612cdb9250803d1061144557611435818361022b565b3880612cb1565b612cfa919350853d8711610aef57610ae0818361022b565b9138612c4a565b91505090565b60405190612d148261019c565b6110818252601f60f91b6110a0837f3c6720636c6173733d226131223e3c7061746820643d224d313733203533683460208201527f763137682d347a222f3e3c2f673e3c6720636c6173733d226132223e3c70617460408201527f6820643d224d3136372035376833763130682d337a222f3e3c7061746820643d60608201527f224d3136392035336834763137682d347a222f3e3c2f673e3c6720636c61737360808201527f3d226133223e3c7061746820643d224d31363720353368337634682d337a222f60a08201527f3e3c7061746820643d224d3136332035376834763130682d347a222f3e3c706160c08201527f746820643d224d31363720363768337633682d337a222f3e3c2f673e3c67206360e08201527f6c6173733d226231223e3c7061746820643d224d32313320323533682d33762d6101008201527f332d33682d33762d372d33682d34762d3130682d33762d372d372d33682d33766101208201527f2d3733682d34762d3130682d33762d3130682d33762d37682d34762d37682d336101408201527f762d33682d33762d33682d3476313068347631306833763130683376336834766101608201527f37203320373020336833763768337632306834763768337633683376336834766101808201527f34683376336833762d332d347a222f3e3c7061746820643d224d3235332033306101a08201527f37762d34682d33762d33682d33762d33682d34762d34682d33762d33682d33766101c08201527f2d33682d34762d34682d33762d33682d33762d33682d34762d34682d33762d366101e08201527f682d33762d37682d3476313768347633683376336833203476346833763368336102008201527f76336834763468337633683376336834763468337633683376336834762d36686102208201527f2d347a222f3e3c2f673e3c6720636c6173733d226232223e3c7061746820643d6102408201527f224d32353020333130762d33682d33762d34682d34762d33682d33762d33682d6102608201527f33762d34682d34762d33682d33762d33682d33762d34682d37762d33682d33766102808201527f2d33682d34762d3137682d33762d33682d33762d34682d34762d33682d33762d6102a08201527f33682d33762d37682d34762d3230682d33762d37682d33762d37332d332d37686102c08201527f2d34762d33682d33762d3130682d33762d3130682d34563730682d33762d336c6102e08201527f2d332031303020332d313030763430682d33763130682d347636682d337631346103008201527f682d337633203133682d347634346834763136683376313468337631336834766103208201527f31306833763768337633683476336833763468337633683476336833763468336103408201527f76336834763368337637683776376836763368377633683776346831337633686103608201527f337633683130762d33682d337a6d2d3130332d3837762d31366833762d3130686103808201527f2d337636682d34763137682d337631306833762d3768347a222f3e3c706174686103a08201527f20643d224d3134332032333068347637682d347a6d3420313068337633682d336103c08201527f7a6d33203768337633682d337a6d33203668347634682d347a222f3e3c7061746103e08201527f6820643d224d31363320323537682d36763368337633683376346834762d342d6104008201527f33682d34762d337a222f3e3c2f673e3c6720636c6173733d226233223e3c70616104208201527f746820643d224d3134332031393776366834762d366836762d34346834762d316104408201527f366833762d31346833762d366834762d31306833563937682d377636682d33766104608201527f34682d337633682d347633682d3376342033682d3376332034682d34763130686104808201527f2d337631362034682d337634366833762d3668337a222f3e3c7061746820643d6104a08201527f224d313430203230336833763137682d337a222f3e3c7061746820643d224d316104c08201527f3337203232306833763130682d337a222f3e3c7061746820643d224d313533206104e08201527f323530682d33762d37682d33762d36682d34762d37682d3376313068337637686105008201527f347636683376346833762d377a6d2d3320313068337637682d337a222f3e3c706105208201527f61746820643d224d3134372032353768337633682d337a6d36203068347633686105408201527f2d347a222f3e3c7061746820643d224d31363020323633762d33682d337633206105608201527f376836762d37682d337a6d2d31302d3536763136682d337637683376313068336105808201527f763768347636683676346837762d342d33682d33762d3130682d34762d3133686105a08201527f2d33762d3134682d33762d3136682d34763130682d337a222f3e3c70617468206105c08201527f643d224d32343320333133762d33682d33762d33682d31302d33762d34682d376105e08201527f762d33682d37762d33682d36762d37682d37762d37682d33762d33682d34762d6106008201527f33682d33762d34682d33762d33682d34762d33682d33762d34682d33762d33686106208201527f2d34762d33682d33763130682d337633682d347633682d3376376833763768346106408201527f76366833763568347633683676336833763368342033763368332034763368336106608201527f20337634683130763368372037203376336831302033762d33683130762d33686106808201527f34762d34682d31347a222f3e3c2f673e3c6720636c6173733d226234223e3c706106a08201527f61746820643d224d3138332031333068347637682d347a222f3e3c70617468206106c08201527f643d224d3138302031323768337633682d337a6d2d32372d3468347637682d346106e08201527f7a222f3e3c7061746820643d224d3135372031313768337636682d337a222f3e6107008201527f3c7061746820643d224d3136302031313068337637682d337a222f3e3c7061746107208201527f6820643d224d3136332031303768347633682d347a6d2d3320383368337637686107408201527f2d337a222f3e3c7061746820643d224d3136332031383768347633682d347a6d6107608201527f3230203068377633682d377a222f3e3c7061746820643d224d313830203139306107808201527f68337633682d337a6d31302d3768337634682d337a222f3e3c7061746820643d6107a08201527f224d3139332031383768347636682d347a6d2d323020353368347637682d347a6107c08201527f222f3e3c7061746820643d224d3137372032343768337636682d337a222f3e3c6107e08201527f7061746820643d224d3138302032353368337637682d337a222f3e3c706174686108008201527f20643d224d3138332032363068377633682d377a222f3e3c7061746820643d226108208201527f4d3139302032363368337634682d337a6d302d323068337634682d337a222f3e6108408201527f3c7061746820643d224d3138372032343068337633682d337a222f3e3c7061746108608201527f6820643d224d3139302032333768337633682d337a6d313320323368347633686108808201527f2d347a222f3e3c7061746820643d224d3230372032363368337637682d337a226108a08201527f2f3e3c7061746820643d224d3231302032373068337633682d337a6d2d3130206108c08201527f3768337636682d337a222f3e3c7061746820643d224d323033203238336834766108e08201527f37682d347a222f3e3c7061746820643d224d3230372032393068367633682d366109008201527f7a222f3e3c2f673e3c6720636c6173733d226f223e3c7061746820643d224d316109208201527f3333203135376834763530682d347a6d302036336834763130682d347a6d32376109408201527f2d3136336833763130682d337a222f3e3c7061746820643d224d3136332035336109608201527f68347634682d347a222f3e3c7061746820643d224d31363720353068313076336109808201527f682d31307a222f3e3c7061746820643d224d3137372035336833763137682d336109a08201527f7a222f3e3c7061746820643d224d3137332037306834763237682d347a6d2d366109c08201527f20306833763237682d337a222f3e3c7061746820643d224d31363320363768346109e08201527f7633682d347a6d3020333068347633682d347a222f3e3c7061746820643d224d610a008201527f3136302031303068337633682d337a222f3e3c7061746820643d224d31353720610a208201527f31303368337634682d337a222f3e3c7061746820643d224d3135332031303768610a408201527f347633682d347a222f3e3c7061746820643d224d313530203131306833763368610a608201527f2d337a222f3e3c7061746820643d224d3134372031313368337637682d337a22610a808201527f2f3e3c7061746820643d224d3134332031323068347637682d347a222f3e3c70610aa08201527f61746820643d224d313430203132376833763130682d337a222f3e3c70617468610ac08201527f20643d224d313337203133376833763230682d337a6d35362d31306834763130610ae08201527f682d347a222f3e3c7061746820643d224d313930203131376833763130682d33610b008201527f7a222f3e3c7061746820643d224d3138372031313068337637682d337a222f3e610b208201527f3c7061746820643d224d3138332031303368347637682d347a222f3e3c706174610b408201527f6820643d224d3138302031303068337633682d337a222f3e3c7061746820643d610b608201527f224d31373720393768337633682d337a6d2d3430203130366833763137682d33610b808201527f7a6d302032376833763130682d337a6d313020333068337637682d337a222f3e610ba08201527f3c7061746820643d224d31353020323537762d34682d33762d36682d34762d37610bc08201527f682d3376313068337631306834762d3368337a222f3e3c7061746820643d224d610be08201527f3135302032353768337633682d337a222f3e3c7061746820643d224d31363320610c008201527f323733762d33682d36762d3130682d347637682d337633683376336834763768610c208201527f33762d3768337a222f3e3c7061746820643d224d313633203236376834763368610c408201527f2d347a222f3e3c7061746820643d224d31373020323537682d332d3476336834610c608201527f76376833762d31307a222f3e3c7061746820643d224d31353720323533683676610c808201527f34682d367a222f3e3c7061746820643d224d3135332032343768347636682d34610ca08201527f7a222f3e3c7061746820643d224d3135302032343068337637682d337a222f3e610cc08201527f3c7061746820643d224d313437203233306833763130682d337a6d3133203530610ce08201527f68337637682d337a222f3e3c7061746820643d224d3134332032323368347637610d008201527f682d347a222f3e3c7061746820643d224d313437203230376833763136682d33610d208201527f7a222f3e3c7061746820643d224d313530203139376833763130682d337a6d2d610d408201527f3130203068337636682d337a6d35302031313368377633682d377a6d32332031610d608201527f306831377633682d31377a222f3e3c7061746820643d224d3233302033323368610d808201527f31337634682d31337a222f3e3c7061746820643d224d32343320333230683130610da08201527f7633682d31307a222f3e3c7061746820643d224d323533203331376834763368610dc08201527f2d347a222f3e3c7061746820643d224d323537203330376833763130682d337a610de08201527f222f3e3c7061746820643d224d3235332033303368347634682d347a222f3e3c610e008201527f7061746820643d224d3235302033303068337633682d337a222f3e3c70617468610e208201527f20643d224d3234372032393768337633682d337a222f3e3c7061746820643d22610e408201527f4d3234332032393368347634682d347a222f3e3c7061746820643d224d323430610e608201527f2032393068337633682d337a222f3e3c7061746820643d224d32333720323837610e808201527f68337633682d337a222f3e3c7061746820643d224d3233332032383368347634610ea08201527f682d347a222f3e3c7061746820643d224d3233302032383068337633682d337a610ec08201527f222f3e3c7061746820643d224d3232372032373768337633682d337a222f3e3c610ee08201527f7061746820643d224d3232332032373368347634682d347a222f3e3c70617468610f008201527f20643d224d3232302032363768337636682d337a222f3e3c7061746820643d22610f208201527f4d3231372032363068337637682d337a222f3e3c7061746820643d224d323133610f408201527f2032353368347637682d347a222f3e3c7061746820643d224d32313020323437610f608201527f68337636682d337a222f3e3c7061746820643d224d3230372032333768337631610f808201527f30682d337a222f3e3c7061746820643d224d323033203232376834763130682d610fa08201527f347a6d2d343020363068347636682d347a6d323420323068337633682d337a22610fc08201527f2f3e3c7061746820643d224d3136372032393368337635682d337a6d31362031610fe08201527f3468347633682d347a222f3e3c7061746820643d224d313730203239386834766110008201527f33682d347a6d3130203668337633682d337a222f3e3c7061746820643d224d316110208201527f37342033303168367633682d367a6d323320313268367634682d367a222f3e3c6110408201527f7061746820643d224d323033203331376831307633682d31307a6d2d322d31306110608201527f37762d3733682d3476373368337631376833762d3137682d327a222f3e3c2f676110808201520152565b9061028c609a60405180947f3c7374796c653e2e6f7b66696c6c3a233830383038303b7d2e62327b66696c6c60208301527f3a6e6f6e653b7d2e62337b66696c6c3a6e6f6e653b7d2e62347b66696c6c3a6e60408301527f6f6e653b7d2e61317b66696c6c3a6e6f6e653b7d2e61327b66696c6c3a6e6f6e60608301527f653b7d2e61337b66696c6c3a6e6f6e653b7d3c2f7374796c653e00000000000060808301526141f181518092602086860191016103b6565b810103607a81018552018361022b565b9061028c60bb60405180947f3c7376672077696474683d2234303022206865696768743d223430302220766960208301527f6577426f783d223020302034303020343030222066696c6c3d226e6f6e65222060408301527f786d6c6e733d22687474703a2f2f7777772e77332e6f72672f323030302f737660608301527f67223e3c7374796c653e2e6f7b66696c6c3a233035303530353b7d2e777b666960808301527f6c6c3a236639663966393b7d3e3c2f7374796c653e000000000000000000000060a08301526142de81518092602060b5860191016103b6565b81017f3c2f7376673e000000000000000000000000000000000000000000000000000060b582015203609b81018552018361022b565b9061040f9061435e6040516020927f122000000000000000000000000000000000000000000000000000000000000084830152602282015260228152614359816101b9565b615476565b92604051938161437786935180928680870191016103b6565b820161438b825180938680850191016103b6565b0103808452018261022b565b6040516143a38161017b565b60008152906000368137565b906143b982610609565b6143c6604051918261022b565b82815280926143d7601f1991610609565b0190602036910137565b806000917a184f03e93ff9f4daa797ed6e38ed64bf6a1f01000000000000000080821015614524575b506d04ee2d6d415b85acef810000000080831015614515575b50662386f26fc1000080831015614506575b506305f5e100808310156144f7575b50612710808310156144e8575b5060648210156144d8575b600a809210156144ce575b600190816021614479600187016143af565b95860101905b61448b575b5050505090565b600019019083907f30313233343536373839616263646566000000000000000000000000000000008282061a8353049182156144c95791908261447f565b614484565b9160010191614467565b919060646002910491019161445c565b60049193920491019138614451565b60089193920491019138614444565b60109193920491019138614435565b60209193920491019138614423565b60409350810491503861440a565b6040519061453f826101b9565b604082527f6768696a6b6c6d6e6f707172737475767778797a303132333435363738392b2f6040837f4142434445464748494a4b4c4d4e4f505152535455565758595a61626364656660208201520152565b9060028201809211610e6c57565b9060208201809211610e6c57565b9060018201809211610e6c57565b91908201809211610e6c57565b80511561293d576145d7614532565b6145f36145ee6145e78451614591565b6003900490565b6118d6565b916146056146008461459f565b6143af565b92835280815182019060208501935b82821061468b5750505060039051068060011461466057600214614636575090565b7f3d0000000000000000000000000000000000000000000000000000000000000090600019015290565b507f3d3d00000000000000000000000000000000000000000000000000000000000090600119015290565b9091936004906003809401938451600190603f9082828260121c16880101518553828282600c1c16880101518386015382828260061c1688010151600286015316850101519082015301939190614614565b6001600160a01b038060005416816146f3615c11565b16036146fc5750565b602490614707615c11565b6040517f118cdaa700000000000000000000000000000000000000000000000000000000815291166004820152fd5b61473f9061594f565b9261474e969596929192612d07565b94604051978897602089017f3c7374796c653e2e62317b66696c6c3a2300000000000000000000000000000090528051908160318b019160200191614792926103b6565b8801603181017f3b7d2e62327b66696c6c3a230000000000000000000000000000000000000000905281519182603d830191602001916147d1926103b6565b01603d81017f3b7d2e62337b66696c6c3a23000000000000000000000000000000000000000090528151918260498301916020019161480f926103b6565b016049810161483d907f3b7d2e62347b66696c6c3a2300000000000000000000000000000000000000009052565b60550161484991610fe1565b7f3b7d2e61317b66696c6c3a2300000000000000000000000000000000000000008152600c0161487891610fe1565b7f3b7d2e61327b66696c6c3a2300000000000000000000000000000000000000008152600c016148a791610fe1565b7f3b7d2e61337b66696c6c3a2300000000000000000000000000000000000000008152600c016148d691610fe1565b7f3b7d3c2f7374796c653e000000000000000000000000000000000000000000008152600a0161490591610fe1565b03601f198101825261040f908261022b565b60405190610120820182811067ffffffffffffffff8211176101975760405260f982527f2d31306833762d376833762d33682d31307a222f3e3c2f673e00000000000000610100837f3c6720636c6173733d226f223e3c7061746820643d224d31383720333037762d60208201527f346833762d36682d33762d34682d34762d33682d33762d33682d37762d34682d60408201527f367634682d3476336834763237682d34763133682d33763130682d347637683460608201527f76336833203130203134762d33682d34762d34682d33762d33682d33762d336860808201527f2d34762d376834762d31306833762d376833762d336837762d33682d337a6d3160a08201527f36203130762d34682d36763137682d34763130682d337637683376336834203660c08201527f20342033203134762d33682d34762d34682d37762d33682d33762d33682d337660e08201520152565b60405190614a7a826101d5565b61019c82527f6820643d224d3139332031373068347633682d347a222f3e3c2f673e000000006101a0837f3c6720636c6173733d226f223e3c7061746820643d224d31393020313733682d60208201527f3337762d33682d3130762d34682d36763468337633682d33763468367633683160408201527f307634683337762d346833762d33682d33762d347a6d2d34302034682d33762d60608201527f34683376347a6d372033762d3368337633682d337a6d362030762d336834763360808201527f682d347a6d372030762d3368337633682d337a6d372030762d3368337633682d60a08201527f337a6d31302030682d34762d33683476337a222f3e3c7061746820643d224d3160c08201527f39302031373068337633682d337a222f3e3c7061746820643d224d313933203160e08201527f363668347634682d347a6d30203768347634682d347a222f3e3c2f673e3c67206101008201527f636c6173733d2277223e3c7061746820643d224d3133372031373068337633686101208201527f2d337a6d3130203368337634682d337a6d3130203468337633682d337a6d36206101408201527f3068347633682d347a6d37203068337633682d337a6d37203068337633682d336101608201527f7a6d36203068347633682d347a6d372d3468337634682d337a222f3e3c7061746101808201520152565b60405190610100820182811067ffffffffffffffff8211176101975760405260dd82527f746820643d224d3138302031343768337633682d337a222f3e3c2f673e00000060e0837f3c6720636c6173733d226f223e3c7061746820643d224d31373720313430763360208201527f6836763131683130762d31316834762d33682d32307a222f3e3c70617468206460408201527f3d224d31353320313430763368377638203368372033762d31316833762d336860608201527f2d32307a222f3e3c2f673e3c6720636c6173733d2277223e3c7061746820643d60808201527f224d3135332031343368377634682d377a222f3e3c7061746820643d224d313560a08201527f372031343768337633682d337a6d32302d3468367634682d367a222f3e3c706160c08201520152565b60405190614db1826101f2565b61023a82527f643d224d3139302031333768347633682d347a222f3e3c2f673e000000000000610240837f3c6720636c6173733d226f223e3c7061746820643d224d31393020313237683360208201527f7633682d337a6d3320313368347633682d347a6d2d3432203068367636682d3660408201527f7a222f3e3c7061746820643d224d3135312031333368337637682d337a6d313060608201527f203068367634682d367a222f3e3c7061746820643d224d31353720313337683160808201527f377636682d31377a6d332031336831347633682d31347a6d31372d313368377660a08201527f3136682d377a222f3e3c7061746820643d224d3138342031333768367636682d60c08201527f367a6d302031306831307636682d31307a222f3e3c7061746820643d224d313860e08201527f37203134336831307634682d31307a222f3e3c7061746820643d224d313930206101008201527f31343068337633682d337a6d2d362d313068337637682d337a222f3e3c7061746101208201527f6820643d224d3138372031333068367633682d367a6d2d3336203068313076336101408201527f682d31307a6d313620313368377637682d377a6d2d3130203068377637682d376101608201527f7a222f3e3c7061746820643d224d3136342031343768337633682d337a6d32396101808201527f2d323068347636682d347a222f3e3c7061746820643d224d31393420313333686101a08201527f337637682d337a222f3e3c2f673e3c6720636c6173733d2277223e3c706174686101c08201527f20643d224d3135342031333368377634682d377a222f3e3c7061746820643d226101e08201527f4d3135342031333768337633682d337a6d3130203668337634682d337a6d32306102008201527f203068337634682d337a6d332d313068377634682d377a222f3e3c70617468206102208201520152565b6040519060c0820182811067ffffffffffffffff8211176101975760405260818252601f60f91b60a0837f3c6720636c6173733d226f223e3c7061746820643d224d31383320313630762d60208201527f34682d32307634682d33763368337634683234762d37682d347a6d2d3133203360408201527f762d336831307633682d31307a222066696c6c3d2223616437316338222f3e3c60608201527f7061746820643d224d313730203136306831307633682d31307a222f3e3c2f6760808201520152565b82516060949391926000928392839260039284928392839290918681101561540557615160816145ad565b999897985b8a811061517a57505050505050505050505050565b818110156153f95761518c8184610e33565b51968c6001600160a01b0360409182519163507f146560e01b8352602091600491838584818486165afa928315610ac057615205968f959660009788966153da575b5050519687958694859363c44a8e6d60e01b8552840160409060009294936001600160a01b03606083019616825260208201520152565b0392165afa8015610ac057610100916000916153c1575b5001519a5b8b8a0361539257506001995b60048c810361536357505060019a5b6005818103615276575050506001965b8061525e575b50600101989798615165565b6001919e61289e61526f928f612bf4565b9d90615252565b81999299118061535b575b61528c575b5061524c565b90969095600680880361530f5750506001955b6007908082036152e0575050506001955b85806152d9575b806152d1575b6152c8575b38615286565b600197506152c2565b5087156152bd565b50866152b7565b9791971180615307575b156152b05795509c6152fe9061289e61506f565b9c6001956152b0565b5086156152ea565b8791971180615353575b1561529f57955060019e8f8614600014615341576153399061289e614da4565b9e5b9561529f565b61534d9061289e614c75565b9e61533b565b508615615319565b508815615281565b8c919c118061538a575b1561523c579a509d6153819061289e614a6d565b9d60019a61523c565b508b1561536d565b99898c11806153b9575b1561522d5799509d6153b09061289e614917565b9d60019961522d565b508a1561539c565b6153d4913d8091833e610ab2818361022b565b3861521c565b6153f1929650803d10610aef57610ae0818361022b565b9338806151ce565b60089996600097615221565b8099989798615165565b604051906105e0820182811067ffffffffffffffff82111761019757604052602e82526105c0366020840137565b90615447826126d5565b615454604051918261022b565b82815280926143d7601f19916126d5565b908151811015610e21570160200190565b908151156155b55761548661540f565b91600090600061549585610e26565b526001918151916000925b8084106154c657505050506154bc6154c19161040f9394615a93565b615ad6565b615b1d565b9091929461550f6155096155036154dd8987615465565b517fff000000000000000000000000000000000000000000000000000000000000001690565b60f81c90565b60ff1690565b9184925b60ff9089828916861015615574576001929161554861554261550961553b8a61554e96610e33565b5160ff1690565b60081b90565b906145bb565b61556b8b61556388603a958686061692610e33565b9060ff169052565b04930192615513565b50919594935050809691965b61558e5750600101926154a0565b9460ff6001603a926155ab83858b06166155638d86851690610e33565b0116950480615580565b905061040f614397565b604051906155cc8261020f565b600682527f66666539303000000000000000000000000000000000000000000000000000006020830152565b604051906156058261020f565b600682527f66666337303000000000000000000000000000000000000000000000000000006020830152565b6040519061563e8261020f565b600682527f66336136303300000000000000000000000000000000000000000000000000006020830152565b604051906156778261020f565b600682527f39363561316100000000000000000000000000000000000000000000000000006020830152565b604051906156b08261020f565b600682527f66663763303200000000000000000000000000000000000000000000000000006020830152565b604051906156e98261020f565b600682527f63333265306400000000000000000000000000000000000000000000000000006020830152565b604051906157228261020f565b600682527f66666438633500000000000000000000000000000000000000000000000000006020830152565b6040519061575b8261020f565b600682527f66663936613900000000000000000000000000000000000000000000000000006020830152565b604051906157948261020f565b600682527f66653538386200000000000000000000000000000000000000000000000000006020830152565b604051906157cd8261020f565b600682527f63393266343500000000000000000000000000000000000000000000000000006020830152565b604051906158068261020f565b600682527f36376437353700000000000000000000000000000000000000000000000000006020830152565b6040519061583f8261020f565b600682527f33306132323000000000000000000000000000000000000000000000000000006020830152565b604051906158788261020f565b600682527f32313761313500000000000000000000000000000000000000000000000000006020830152565b604051906158b18261020f565b600482527f6e6f6e65000000000000000000000000000000000000000000000000000000006020830152565b604051906158ea8261020f565b600682527f65343833656600000000000000000000000000000000000000000000000000006020830152565b604051906159238261020f565b600682527f64633266656600000000000000000000000000000000000000000000000000006020830152565b6001810361599657506159606157f9565b90615969615832565b9061597261586b565b9061597b6158a4565b906159846158dd565b9061598d615916565b9061040f615916565b600281036159dd57506159a7615715565b906159b061574e565b906159b9615787565b906159c26157c0565b906159cb615715565b906159d461574e565b9061040f615787565b60038103615a2457506159ee615631565b906159f76156a3565b90615a006156a3565b90615a096156dc565b90615a12615631565b90615a1b6156a3565b9061040f6156a3565b600414615a555760046040517f4c944ce8000000000000000000000000000000000000000000000000000000008152fd5b615a5d6155bf565b90615a666155f8565b90615a6f615631565b90615a7861566a565b90615a816155bf565b90615a8a6155f8565b9061040f615631565b9060ff80911690615aa38261543d565b9260005b838110615ab5575050505090565b8083615ac360019385610e33565b5116615acf8288610e33565b5201615aa7565b908151615ae28161543d565b9060005b818110615af4575090925050565b60019060ff615b0a600019838951030188610e33565b5116615b168286610e33565b5201615ae6565b8051615b2881610609565b91604090615b39604051948561022b565b828452615b4583610609565b60209190601f1901368684013760009260005b858110615b685750505050505090565b6001907fff00000000000000000000000000000000000000000000000000000000000000615bfc8451615b9a816101b9565b603a81527f31323334353637383941424344454647484a4b4c4d4e50515253545556575859888201527f5a6162636465666768696a6b6d6e6f707172737475767778797a0000000000008682015260ff615bf48589610e33565b511690615465565b5116861a615c0a828a615465565b5301615b58565b6001600160a01b037f000000000000000000000000b2b5841dbef766d4b521221732f9b618fcf34a8716331480615c5f575b15615c5b576013193601368111610e6c573560601c90565b3390565b506014361015615c4356fea26469706673582212202dc2803a53d9322e2f98a1565d0b49fa84d6d1e50d2e7790871fd78db48634b264736f6c63430008170033",
	"devdoc": {
		"kind": "dev",
		"methods": {
			"assetIdsOf(uint256)": {
				"params": {
					"nakedBannyId": "The ID of the naked banny shows with the associated assets."
				},
				"returns": {
					"outfitIds": "The outfits attached to the Naked Banny.",
					"worldId": "The world attached to the Naked Banny."
				}
			},
			"bannySvgOf(address,uint256,bool,bool)": {
				"params": {
					"hook": "The hook storing the assets.",
					"tokenId": "The ID of the token to show. If the ID belongs to a Naked Banny, it will be shown with its current outfits in its current world."
				},
				"returns": {
					"_0": "bannySvg The SVG."
				}
			},
			"constructor": {
				"params": {
					"owner": "The owner allowed to add SVG files that correspond to tier IDs.",
					"trustedForwarder": "The trusted forwarder for the ERC2771Context."
				}
			},
			"decorateBannyWith(address,uint256,uint256,uint256[])": {
				"details": "The caller must own the naked banny being dressed and all outfits being worn.",
				"params": {
					"hook": "The hook storing the assets.",
					"nakedBannyId": "The ID of the Naked Banny being dressed.",
					"outfitIds": "The IDs of the outfits that'll be associated with the specified banny. Only one outfit per outfit category allowed at a time and they must be passed in order.",
					"worldId": "The ID of the world that'll be associated with the specified banny."
				}
			},
			"isTrustedForwarder(address)": {
				"details": "Indicates whether any particular address is the trusted forwarder."
			},
			"owner()": {
				"details": "Returns the address of the current owner."
			},
			"renounceOwnership()": {
				"details": "Leaves the contract without owner. It will not be possible to call `onlyOwner` functions. Can only be called by the current owner. NOTE: Renouncing ownership will leave the contract without an owner, thereby disabling any functionality that is only available to the owner."
			},
			"setSvgContentsOf(uint256,string)": {
				"params": {
					"svgContents": "The svg contents being stored, not including the parent <svg></svg> element.",
					"tierId": "The ID of the tier having an SVG stored."
				}
			},
			"setSvgHashOf(uint256,bytes32)": {
				"details": "This allows anyone to lazily upload the correct svg file.",
				"params": {
					"svgHash": "The svg hash being stored, not including the parent <svg></svg> element.",
					"tierId": "The ID of the tier having an SVG hash stored."
				}
			},
			"setTierName(uint256,string)": {
				"params": {
					"name": "The name of the tier.",
					"tierId": "The ID of the tier having its name stored."
				}
			},
			"tokenUriOf(address,uint256)": {
				"params": {
					"tokenId": "The ID of the token to show. If the ID belongs to a Naked Banny, it will be shown with its current outfits in its current world."
				},
				"returns": {
					"_0": "tokenUri The URI representing the SVG."
				}
			},
			"transferOwnership(address)": {
				"details": "Transfers ownership of the contract to a new account (`newOwner`). Can only be called by the current owner."
			},
			"trustedForwarder()": {
				"details": "Returns the address of the trusted forwarder."
			}
		},
		"version": 1
	},
	"userdoc": {
		"kind": "user",
		"methods": {
			"_nameOf(uint256,uint256,uint256)": {
				"notice": "The name of each tier."
			},
			"assetIdsOf(uint256)": {
				"notice": "The assets currently attached to each Naked Banny, owned by the naked Banny's owner."
			},
			"bannySvgOf(address,uint256,bool,bool)": {
				"notice": "Returns the SVG showing a dressed Naked Banny."
			},
			"decorateBannyWith(address,uint256,uint256,uint256[])": {
				"notice": "Dress your Naked Banny with outfits."
			},
			"setSvgBaseUriOf(string)": {
				"notice": "Allows the owner of this contract to specify the base of the domain hosting the SVG files."
			},
			"setSvgContentsOf(uint256,string)": {
				"notice": "The owner of this contract can store SVG files for tier IDs."
			},
			"setSvgHashOf(uint256,bytes32)": {
				"notice": "Allows the owner of this contract to upload the hash of an svg file for a tierId."
			},
			"setTierName(uint256,string)": {
				"notice": "Allows the owner to set the tier's name."
			},
			"svgBaseUri()": {
				"notice": "The base of the domain hosting the SVG files that can be lazily uploaded to the contract."
			},
			"svgHashOf(uint256)": {
				"notice": "The Naked Banny and outfit SVG hash files."
			},
			"tokenUriOf(address,uint256)": {
				"notice": "Returns the SVG showing a dressed Naked Banny in a world."
			}
		},
		"version": 1
	},
	"gitCommit": "d476cfd0d0dcf44379af14922ff764965fe14a2a",
	"sourceName": "src/Banny721TokenUriResolver.sol",
	"chainId": "11155111",
	"linkReferences": {},
	"deployedLinkReferences": {},
	"history": []
}