{
	"_format": "sphinx-sol-ct-artifact-1",
	"merkleRoot": "0xadf7a4489a53fe35038290b5e07d9a178325e115d7c7fabde08c325f3cd0c558",
	"contractName": "Banny721TokenUriResolver",
	"address": "0x9499f78B1d237615Ce5DbE0E7d7B79200F740e8C",
	"abi": [
		{
			"type": "constructor",
			"inputs": [
				{
					"name": "nakedBanny",
					"type": "string",
					"internalType": "string"
				},
				{
					"name": "defaultNecklace",
					"type": "string",
					"internalType": "string"
				},
				{
					"name": "defaultMouth",
					"type": "string",
					"internalType": "string"
				},
				{
					"name": "defaultStandardEyes",
					"type": "string",
					"internalType": "string"
				},
				{
					"name": "defaultAlienEyes",
					"type": "string",
					"internalType": "string"
				},
				{
					"name": "owner",
					"type": "address",
					"internalType": "address"
				},
				{
					"name": "trustedForwarder",
					"type": "address",
					"internalType": "address"
				}
			],
			"stateMutability": "nonpayable"
		},
		{
			"type": "function",
			"name": "DEFAULT_ALIEN_EYES",
			"inputs": [],
			"outputs": [
				{
					"name": "",
					"type": "string",
					"internalType": "string"
				}
			],
			"stateMutability": "view"
		},
		{
			"type": "function",
			"name": "DEFAULT_MOUTH",
			"inputs": [],
			"outputs": [
				{
					"name": "",
					"type": "string",
					"internalType": "string"
				}
			],
			"stateMutability": "view"
		},
		{
			"type": "function",
			"name": "DEFAULT_NECKLACE",
			"inputs": [],
			"outputs": [
				{
					"name": "",
					"type": "string",
					"internalType": "string"
				}
			],
			"stateMutability": "view"
		},
		{
			"type": "function",
			"name": "DEFAULT_STANDARD_EYES",
			"inputs": [],
			"outputs": [
				{
					"name": "",
					"type": "string",
					"internalType": "string"
				}
			],
			"stateMutability": "view"
		},
		{
			"type": "function",
			"name": "NAKED_BANNY",
			"inputs": [],
			"outputs": [
				{
					"name": "",
					"type": "string",
					"internalType": "string"
				}
			],
			"stateMutability": "view"
		},
		{
			"type": "function",
			"name": "assetIdsOf",
			"inputs": [
				{
					"name": "hook",
					"type": "address",
					"internalType": "address"
				},
				{
					"name": "nakedBannyId",
					"type": "uint256",
					"internalType": "uint256"
				}
			],
			"outputs": [
				{
					"name": "worldId",
					"type": "uint256",
					"internalType": "uint256"
				},
				{
					"name": "outfitIds",
					"type": "uint256[]",
					"internalType": "uint256[]"
				}
			],
			"stateMutability": "view"
		},
		{
			"type": "function",
			"name": "decorateBannyWith",
			"inputs": [
				{
					"name": "hook",
					"type": "address",
					"internalType": "address"
				},
				{
					"name": "nakedBannyId",
					"type": "uint256",
					"internalType": "uint256"
				},
				{
					"name": "worldId",
					"type": "uint256",
					"internalType": "uint256"
				},
				{
					"name": "outfitIds",
					"type": "uint256[]",
					"internalType": "uint256[]"
				}
			],
			"outputs": [],
			"stateMutability": "nonpayable"
		},
		{
			"type": "function",
			"name": "isTrustedForwarder",
			"inputs": [
				{
					"name": "forwarder",
					"type": "address",
					"internalType": "address"
				}
			],
			"outputs": [
				{
					"name": "",
					"type": "bool",
					"internalType": "bool"
				}
			],
			"stateMutability": "view"
		},
		{
			"type": "function",
			"name": "lockOutfitChangesFor",
			"inputs": [
				{
					"name": "hook",
					"type": "address",
					"internalType": "address"
				},
				{
					"name": "nakedBannyId",
					"type": "uint256",
					"internalType": "uint256"
				},
				{
					"name": "duration",
					"type": "uint256",
					"internalType": "uint256"
				}
			],
			"outputs": [],
			"stateMutability": "nonpayable"
		},
		{
			"type": "function",
			"name": "namesOf",
			"inputs": [
				{
					"name": "hook",
					"type": "address",
					"internalType": "address"
				},
				{
					"name": "tokenId",
					"type": "uint256",
					"internalType": "uint256"
				}
			],
			"outputs": [
				{
					"name": "",
					"type": "string",
					"internalType": "string"
				},
				{
					"name": "",
					"type": "string",
					"internalType": "string"
				},
				{
					"name": "",
					"type": "string",
					"internalType": "string"
				}
			],
			"stateMutability": "view"
		},
		{
			"type": "function",
			"name": "onERC721Received",
			"inputs": [
				{
					"name": "operator",
					"type": "address",
					"internalType": "address"
				},
				{
					"name": "from",
					"type": "address",
					"internalType": "address"
				},
				{
					"name": "tokenId",
					"type": "uint256",
					"internalType": "uint256"
				},
				{
					"name": "data",
					"type": "bytes",
					"internalType": "bytes"
				}
			],
			"outputs": [
				{
					"name": "",
					"type": "bytes4",
					"internalType": "bytes4"
				}
			],
			"stateMutability": "view"
		},
		{
			"type": "function",
			"name": "outfitLockedUntil",
			"inputs": [
				{
					"name": "hook",
					"type": "address",
					"internalType": "address"
				},
				{
					"name": "owner",
					"type": "address",
					"internalType": "address"
				},
				{
					"name": "upc",
					"type": "uint256",
					"internalType": "uint256"
				}
			],
			"outputs": [
				{
					"name": "",
					"type": "uint256",
					"internalType": "uint256"
				}
			],
			"stateMutability": "view"
		},
		{
			"type": "function",
			"name": "owner",
			"inputs": [],
			"outputs": [
				{
					"name": "",
					"type": "address",
					"internalType": "address"
				}
			],
			"stateMutability": "view"
		},
		{
			"type": "function",
			"name": "renounceOwnership",
			"inputs": [],
			"outputs": [],
			"stateMutability": "nonpayable"
		},
		{
			"type": "function",
			"name": "setProductNames",
			"inputs": [
				{
					"name": "upcs",
					"type": "uint256[]",
					"internalType": "uint256[]"
				},
				{
					"name": "names",
					"type": "string[]",
					"internalType": "string[]"
				}
			],
			"outputs": [],
			"stateMutability": "nonpayable"
		},
		{
			"type": "function",
			"name": "setSvgBaseUri",
			"inputs": [
				{
					"name": "baseUri",
					"type": "string",
					"internalType": "string"
				}
			],
			"outputs": [],
			"stateMutability": "nonpayable"
		},
		{
			"type": "function",
			"name": "setSvgContentsOf",
			"inputs": [
				{
					"name": "upcs",
					"type": "uint256[]",
					"internalType": "uint256[]"
				},
				{
					"name": "svgContents",
					"type": "string[]",
					"internalType": "string[]"
				}
			],
			"outputs": [],
			"stateMutability": "nonpayable"
		},
		{
			"type": "function",
			"name": "setSvgHashsOf",
			"inputs": [
				{
					"name": "upcs",
					"type": "uint256[]",
					"internalType": "uint256[]"
				},
				{
					"name": "svgHashs",
					"type": "bytes32[]",
					"internalType": "bytes32[]"
				}
			],
			"outputs": [],
			"stateMutability": "nonpayable"
		},
		{
			"type": "function",
			"name": "svgBaseUri",
			"inputs": [],
			"outputs": [
				{
					"name": "",
					"type": "string",
					"internalType": "string"
				}
			],
			"stateMutability": "view"
		},
		{
			"type": "function",
			"name": "svgHashOf",
			"inputs": [
				{
					"name": "upc",
					"type": "uint256",
					"internalType": "uint256"
				}
			],
			"outputs": [
				{
					"name": "",
					"type": "bytes32",
					"internalType": "bytes32"
				}
			],
			"stateMutability": "view"
		},
		{
			"type": "function",
			"name": "svgOf",
			"inputs": [
				{
					"name": "hook",
					"type": "address",
					"internalType": "address"
				},
				{
					"name": "tokenId",
					"type": "uint256",
					"internalType": "uint256"
				},
				{
					"name": "shouldDressNakedBanny",
					"type": "bool",
					"internalType": "bool"
				},
				{
					"name": "shouldIncludeWorldOnNakedBanny",
					"type": "bool",
					"internalType": "bool"
				}
			],
			"outputs": [
				{
					"name": "",
					"type": "string",
					"internalType": "string"
				}
			],
			"stateMutability": "view"
		},
		{
			"type": "function",
			"name": "tokenUriOf",
			"inputs": [
				{
					"name": "hook",
					"type": "address",
					"internalType": "address"
				},
				{
					"name": "tokenId",
					"type": "uint256",
					"internalType": "uint256"
				}
			],
			"outputs": [
				{
					"name": "",
					"type": "string",
					"internalType": "string"
				}
			],
			"stateMutability": "view"
		},
		{
			"type": "function",
			"name": "transferOwnership",
			"inputs": [
				{
					"name": "newOwner",
					"type": "address",
					"internalType": "address"
				}
			],
			"outputs": [],
			"stateMutability": "nonpayable"
		},
		{
			"type": "function",
			"name": "trustedForwarder",
			"inputs": [],
			"outputs": [
				{
					"name": "",
					"type": "address",
					"internalType": "address"
				}
			],
			"stateMutability": "view"
		},
		{
			"type": "function",
			"name": "userOf",
			"inputs": [
				{
					"name": "hook",
					"type": "address",
					"internalType": "address"
				},
				{
					"name": "worldId",
					"type": "uint256",
					"internalType": "uint256"
				}
			],
			"outputs": [
				{
					"name": "",
					"type": "uint256",
					"internalType": "uint256"
				}
			],
			"stateMutability": "view"
		},
		{
			"type": "function",
			"name": "wearerOf",
			"inputs": [
				{
					"name": "hook",
					"type": "address",
					"internalType": "address"
				},
				{
					"name": "outfitId",
					"type": "uint256",
					"internalType": "uint256"
				}
			],
			"outputs": [
				{
					"name": "",
					"type": "uint256",
					"internalType": "uint256"
				}
			],
			"stateMutability": "view"
		},
		{
			"type": "event",
			"name": "DecorateBanny",
			"inputs": [
				{
					"name": "hook",
					"type": "address",
					"indexed": true,
					"internalType": "address"
				},
				{
					"name": "nakedBannyId",
					"type": "uint256",
					"indexed": true,
					"internalType": "uint256"
				},
				{
					"name": "worldId",
					"type": "uint256",
					"indexed": false,
					"internalType": "uint256"
				},
				{
					"name": "outfitIds",
					"type": "uint256[]",
					"indexed": false,
					"internalType": "uint256[]"
				},
				{
					"name": "caller",
					"type": "address",
					"indexed": false,
					"internalType": "address"
				}
			],
			"anonymous": false
		},
		{
			"type": "event",
			"name": "OwnershipTransferred",
			"inputs": [
				{
					"name": "previousOwner",
					"type": "address",
					"indexed": true,
					"internalType": "address"
				},
				{
					"name": "newOwner",
					"type": "address",
					"indexed": true,
					"internalType": "address"
				}
			],
			"anonymous": false
		},
		{
			"type": "event",
			"name": "SetProductName",
			"inputs": [
				{
					"name": "upc",
					"type": "uint256",
					"indexed": true,
					"internalType": "uint256"
				},
				{
					"name": "name",
					"type": "string",
					"indexed": false,
					"internalType": "string"
				},
				{
					"name": "caller",
					"type": "address",
					"indexed": false,
					"internalType": "address"
				}
			],
			"anonymous": false
		},
		{
			"type": "event",
			"name": "SetSvgBaseUri",
			"inputs": [
				{
					"name": "baseUri",
					"type": "string",
					"indexed": false,
					"internalType": "string"
				},
				{
					"name": "caller",
					"type": "address",
					"indexed": false,
					"internalType": "address"
				}
			],
			"anonymous": false
		},
		{
			"type": "event",
			"name": "SetSvgContent",
			"inputs": [
				{
					"name": "upc",
					"type": "uint256",
					"indexed": true,
					"internalType": "uint256"
				},
				{
					"name": "svgContent",
					"type": "string",
					"indexed": false,
					"internalType": "string"
				},
				{
					"name": "caller",
					"type": "address",
					"indexed": false,
					"internalType": "address"
				}
			],
			"anonymous": false
		},
		{
			"type": "event",
			"name": "SetSvgHash",
			"inputs": [
				{
					"name": "upc",
					"type": "uint256",
					"indexed": true,
					"internalType": "uint256"
				},
				{
					"name": "svgHash",
					"type": "bytes32",
					"indexed": true,
					"internalType": "bytes32"
				},
				{
					"name": "caller",
					"type": "address",
					"indexed": false,
					"internalType": "address"
				}
			],
			"anonymous": false
		},
		{
			"type": "error",
			"name": "Banny721TokenUriResolver_CantAccelerateTheLock",
			"inputs": []
		},
		{
			"type": "error",
			"name": "Banny721TokenUriResolver_ContentsAlreadyStored",
			"inputs": []
		},
		{
			"type": "error",
			"name": "Banny721TokenUriResolver_ContentsMismatch",
			"inputs": []
		},
		{
			"type": "error",
			"name": "Banny721TokenUriResolver_HashAlreadyStored",
			"inputs": []
		},
		{
			"type": "error",
			"name": "Banny721TokenUriResolver_HashNotFound",
			"inputs": []
		},
		{
			"type": "error",
			"name": "Banny721TokenUriResolver_HeadAlreadyAdded",
			"inputs": []
		},
		{
			"type": "error",
			"name": "Banny721TokenUriResolver_LockedNakedBanny",
			"inputs": []
		},
		{
			"type": "error",
			"name": "Banny721TokenUriResolver_OutfitChangesLocked",
			"inputs": []
		},
		{
			"type": "error",
			"name": "Banny721TokenUriResolver_SuitAlreadyAdded",
			"inputs": []
		},
		{
			"type": "error",
			"name": "Banny721TokenUriResolver_UnauthorizedNakedBanny",
			"inputs": []
		},
		{
			"type": "error",
			"name": "Banny721TokenUriResolver_UnauthorizedOutfit",
			"inputs": []
		},
		{
			"type": "error",
			"name": "Banny721TokenUriResolver_UnauthorizedTransfer",
			"inputs": []
		},
		{
			"type": "error",
			"name": "Banny721TokenUriResolver_UnauthorizedWorld",
			"inputs": []
		},
		{
			"type": "error",
			"name": "Banny721TokenUriResolver_UnorderedCategories",
			"inputs": []
		},
		{
			"type": "error",
			"name": "Banny721TokenUriResolver_UnrecognizedCategory",
			"inputs": []
		},
		{
			"type": "error",
			"name": "Banny721TokenUriResolver_UnrecognizedProduct",
			"inputs": []
		},
		{
			"type": "error",
			"name": "Banny721TokenUriResolver_UnrecognizedWorld",
			"inputs": []
		},
		{
			"type": "error",
			"name": "OwnableInvalidOwner",
			"inputs": [
				{
					"name": "owner",
					"type": "address",
					"internalType": "address"
				}
			]
		},
		{
			"type": "error",
			"name": "OwnableUnauthorizedAccount",
			"inputs": [
				{
					"name": "account",
					"type": "address",
					"internalType": "address"
				}
			]
		}
	],
	"solcInputHash": "466ce87c075a31217a2859d172dde3a3",
	"args": [
		"<g class=\"a1\"><path d=\"M173 53h4v17h-4z\"/></g><g class=\"a2\"><path d=\"M167 57h3v10h-3z\"/><path d=\"M169 53h4v17h-4z\"/></g><g class=\"a3\"><path d=\"M167 53h3v4h-3z\"/><path d=\"M163 57h4v10h-4z\"/><path d=\"M167 67h3v3h-3z\"/></g><g class=\"b1\"><path d=\"M213 253h-3v-3-3h-3v-7-3h-4v-10h-3v-7-7-3h-3v-73h-4v-10h-3v-10h-3v-7h-4v-7h-3v-3h-3v-3h-4v10h4v10h3v10h3v3h4v7 3 70 3h3v7h3v20h4v7h3v3h3v3h4v4h3v3h3v-3-4z\"/><path d=\"M253 307v-4h-3v-3h-3v-3h-4v-4h-3v-3h-3v-3h-4v-4h-3v-3h-3v-3h-4v-4h-3v-6h-3v-7h-4v17h4v3h3v3h3 4v4h3v3h3v3h4v4h3v3h3v3h4v4h3v3h3v3h4v-6h-4z\"/></g><g class=\"b2\"><path d=\"M250 310v-3h-3v-4h-4v-3h-3v-3h-3v-4h-4v-3h-3v-3h-3v-4h-7v-3h-3v-3h-4v-17h-3v-3h-3v-4h-4v-3h-3v-3h-3v-7h-4v-20h-3v-7h-3v-73-3-7h-4v-3h-3v-10h-3v-10h-4V70h-3v-3l-3 100 3-100v40h-3v10h-4v6h-3v14h-3v3 13h-4v44h4v16h3v14h3v13h4v10h3v7h3v3h4v3h3v4h3v3h4v3h3v4h3v3h4v3h3v7h7v7h6v3h7v3h7v4h13v3h3v3h10v-3h-3zm-103-87v-16h3v-10h-3v6h-4v17h-3v10h3v-7h4z\"/><path d=\"M143 230h4v7h-4zm4 10h3v3h-3zm3 7h3v3h-3zm3 6h4v4h-4z\"/><path d=\"M163 257h-6v3h3v3h3v4h4v-4-3h-4v-3z\"/></g><g class=\"b3\"><path d=\"M143 197v6h4v-6h6v-44h4v-16h3v-14h3v-6h4v-10h3V97h-7v6h-3v4h-3v3h-4v3h-3v4 3h-3v3 4h-4v10h-3v16 4h-3v46h3v-6h3z\"/><path d=\"M140 203h3v17h-3z\"/><path d=\"M137 220h3v10h-3z\"/><path d=\"M153 250h-3v-7h-3v-6h-4v-7h-3v10h3v7h4v6h3v4h3v-7zm-3 10h3v7h-3z\"/><path d=\"M147 257h3v3h-3zm6 0h4v3h-4z\"/><path d=\"M160 263v-3h-3v3 7h6v-7h-3zm-10-56v16h-3v7h3v10h3v7h4v6h6v4h7v-4-3h-3v-10h-4v-13h-3v-14h-3v-16h-4v10h-3z\"/><path d=\"M243 313v-3h-3v-3h-10-3v-4h-7v-3h-7v-3h-6v-7h-7v-7h-3v-3h-4v-3h-3v-4h-3v-3h-4v-3h-3v-4h-3v-3h-4v-3h-3v10h-3v3h-4v3h-3v7h3v7h4v6h3v5h4v3h6v3h3v3h4 3v3h3 4v3h3 3v4h10v3h7 7 3v3h10 3v-3h10v-3h4v-4h-14z\"/></g><g class=\"b4\"><path d=\"M183 130h4v7h-4z\"/><path d=\"M180 127h3v3h-3zm-27-4h4v7h-4z\"/><path d=\"M157 117h3v6h-3z\"/><path d=\"M160 110h3v7h-3z\"/><path d=\"M163 107h4v3h-4zm-3 83h3v7h-3z\"/><path d=\"M163 187h4v3h-4zm20 0h7v3h-7z\"/><path d=\"M180 190h3v3h-3zm10-7h3v4h-3z\"/><path d=\"M193 187h4v6h-4zm-20 53h4v7h-4z\"/><path d=\"M177 247h3v6h-3z\"/><path d=\"M180 253h3v7h-3z\"/><path d=\"M183 260h7v3h-7z\"/><path d=\"M190 263h3v4h-3zm0-20h3v4h-3z\"/><path d=\"M187 240h3v3h-3z\"/><path d=\"M190 237h3v3h-3zm13 23h4v3h-4z\"/><path d=\"M207 263h3v7h-3z\"/><path d=\"M210 270h3v3h-3zm-10 7h3v6h-3z\"/><path d=\"M203 283h4v7h-4z\"/><path d=\"M207 290h6v3h-6z\"/></g><g class=\"o\"><path d=\"M133 157h4v50h-4zm0 63h4v10h-4zm27-163h3v10h-3z\"/><path d=\"M163 53h4v4h-4z\"/><path d=\"M167 50h10v3h-10z\"/><path d=\"M177 53h3v17h-3z\"/><path d=\"M173 70h4v27h-4zm-6 0h3v27h-3z\"/><path d=\"M163 67h4v3h-4zm0 30h4v3h-4z\"/><path d=\"M160 100h3v3h-3z\"/><path d=\"M157 103h3v4h-3z\"/><path d=\"M153 107h4v3h-4z\"/><path d=\"M150 110h3v3h-3z\"/><path d=\"M147 113h3v7h-3z\"/><path d=\"M143 120h4v7h-4z\"/><path d=\"M140 127h3v10h-3z\"/><path d=\"M137 137h3v20h-3zm56-10h4v10h-4z\"/><path d=\"M190 117h3v10h-3z\"/><path d=\"M187 110h3v7h-3z\"/><path d=\"M183 103h4v7h-4z\"/><path d=\"M180 100h3v3h-3z\"/><path d=\"M177 97h3v3h-3zm-40 106h3v17h-3zm0 27h3v10h-3zm10 30h3v7h-3z\"/><path d=\"M150 257v-4h-3v-6h-4v-7h-3v10h3v10h4v-3h3z\"/><path d=\"M150 257h3v3h-3z\"/><path d=\"M163 273v-3h-6v-10h-4v7h-3v3h3v3h4v7h3v-7h3z\"/><path d=\"M163 267h4v3h-4z\"/><path d=\"M170 257h-3-4v3h4v7h3v-10z\"/><path d=\"M157 253h6v4h-6z\"/><path d=\"M153 247h4v6h-4z\"/><path d=\"M150 240h3v7h-3z\"/><path d=\"M147 230h3v10h-3zm13 50h3v7h-3z\"/><path d=\"M143 223h4v7h-4z\"/><path d=\"M147 207h3v16h-3z\"/><path d=\"M150 197h3v10h-3zm-10 0h3v6h-3zm50 113h7v3h-7zm23 10h17v3h-17z\"/><path d=\"M230 323h13v4h-13z\"/><path d=\"M243 320h10v3h-10z\"/><path d=\"M253 317h4v3h-4z\"/><path d=\"M257 307h3v10h-3z\"/><path d=\"M253 303h4v4h-4z\"/><path d=\"M250 300h3v3h-3z\"/><path d=\"M247 297h3v3h-3z\"/><path d=\"M243 293h4v4h-4z\"/><path d=\"M240 290h3v3h-3z\"/><path d=\"M237 287h3v3h-3z\"/><path d=\"M233 283h4v4h-4z\"/><path d=\"M230 280h3v3h-3z\"/><path d=\"M227 277h3v3h-3z\"/><path d=\"M223 273h4v4h-4z\"/><path d=\"M220 267h3v6h-3z\"/><path d=\"M217 260h3v7h-3z\"/><path d=\"M213 253h4v7h-4z\"/><path d=\"M210 247h3v6h-3z\"/><path d=\"M207 237h3v10h-3z\"/><path d=\"M203 227h4v10h-4zm-40 60h4v6h-4zm24 20h3v3h-3z\"/><path d=\"M167 293h3v5h-3zm16 14h4v3h-4z\"/><path d=\"M170 298h4v3h-4zm10 6h3v3h-3z\"/><path d=\"M174 301h6v3h-6zm23 12h6v4h-6z\"/><path d=\"M203 317h10v3h-10zm-2-107v-73h-4v73h3v17h3v-17h-2z\"/></g><g class=\"o\"><path d=\"M187 307v-4h3v-6h-3v-4h-4v-3h-3v-3h-7v-4h-6v4h-4v3h4v27h-4v13h-3v10h-4v7h4v3h3 10 14v-3h-4v-4h-3v-3h-3v-3h-4v-7h4v-10h3v-7h3v-3h7v-3h-3zm16 10v-4h-6v17h-4v10h-3v7h3v3h4 6 4 3 14v-3h-4v-4h-7v-3h-3v-3h-3v-10h3v-7h3v-3h-10z\"/></g>",
		"<g class=\"o\"><path d=\"M190 173h-37v-3h-10v-4h-6v4h3v3h-3v4h6v3h10v4h37v-4h3v-3h-3v-4zm-40 4h-3v-4h3v4zm7 3v-3h3v3h-3zm6 0v-3h4v3h-4zm7 0v-3h3v3h-3zm7 0v-3h3v3h-3zm10 0h-4v-3h4v3z\"/><path d=\"M190 170h3v3h-3z\"/><path d=\"M193 166h4v4h-4zm0 7h4v4h-4z\"/></g><g class=\"w\"><path d=\"M137 170h3v3h-3zm10 3h3v4h-3zm10 4h3v3h-3zm6 0h4v3h-4zm7 0h3v3h-3zm7 0h3v3h-3zm6 0h4v3h-4zm7-4h3v4h-3z\"/><path d=\"M193 170h4v3h-4z\"/></g>",
		"<g class=\"o\"><path d=\"M183 160v-4h-20v4h-3v3h3v4h24v-7h-4zm-13 3v-3h10v3h-10z\" fill=\"#ad71c8\"/><path d=\"M170 160h10v3h-10z\"/></g>",
		"<g class=\"o\"><path d=\"M177 140v3h6v11h10v-11h4v-3h-20z\"/><path d=\"M153 140v3h7v8 3h7 3v-11h3v-3h-20z\"/></g><g class=\"w\"><path d=\"M153 143h7v4h-7z\"/><path d=\"M157 147h3v3h-3zm20-4h6v4h-6z\"/><path d=\"M180 147h3v3h-3z\"/></g>",
		"<g class=\"o\"><path d=\"M190 127h3v3h-3zm3 13h4v3h-4zm-42 0h6v6h-6z\"/><path d=\"M151 133h3v7h-3zm10 0h6v4h-6z\"/><path d=\"M157 137h17v6h-17zm3 13h14v3h-14zm17-13h7v16h-7z\"/><path d=\"M184 137h6v6h-6zm0 10h10v6h-10z\"/><path d=\"M187 143h10v4h-10z\"/><path d=\"M190 140h3v3h-3zm-6-10h3v7h-3z\"/><path d=\"M187 130h6v3h-6zm-36 0h10v3h-10zm16 13h7v7h-7zm-10 0h7v7h-7z\"/><path d=\"M164 147h3v3h-3zm29-20h4v6h-4z\"/><path d=\"M194 133h3v7h-3z\"/></g><g class=\"w\"><path d=\"M154 133h7v4h-7z\"/><path d=\"M154 137h3v3h-3zm10 6h3v4h-3zm20 0h3v4h-3zm3-10h7v4h-7z\"/><path d=\"M190 137h4v3h-4z\"/></g>",
		"0x140CA7b7f3DE72278FedE4F0d3226F257b0eaf6a",
		"0xB2b5841DBeF766d4b521221732F9B618fCf34A87"
	],
	"bytecode": "0x60a060405234620007b957620063e4803803806200001d81620007be565b928339810160e082820312620007b95781516001600160401b0390818111620007b957826200004e918501620007fa565b60209283850151838111620007b957816200006b918701620007fa565b906040860151848111620007b9578162000087918801620007fa565b956060810151858111620007b95782620000a3918301620007fa565b91608082015190868211620007b957620000bf918301620007fa565b91620000dc60c0620000d460a085016200086c565b93016200086c565b6001600160a01b039283168015620007a057600080546001600160a01b03198116831782559094167f8be0079c531659141344cd1fd0a4f28419497f9722a3daafe3b4186f6b6457e08580a3608052845193868511620004f457600854946001968787811c9716801562000795575b8a881014620005ca578190601f9788811162000741575b508a90888311600114620006da578692620006ce575b5050600019600383901b1c191690871b176008555b805190878211620006ba576006548781811c91168015620006af575b8a821014620005ca579081878493116200065b575b508990878311600114620005f5578592620005e9575b5050600019600383901b1c191690861b176006555b8751868111620004f45760059889548781811c91168015620005de575b8a821014620005ca5790818784931162000578575b5089908783116001146200051457859262000508575b5050600019600383901b1c191690861b1788555b805190868211620004f4576007548681811c91168015620004e9575b89821014620004d55790818684931162000483575b5088908683116001146200041d57849262000411575b5050600019600383901b1c191690851b176007555b8151948511620003fd576004968754908582811c92168015620003f2575b88831014620003df5784821162000399575b5050859285116001146200033257939450849291908362000326575b50501b916000199060031b1c19161790555b604051615b629081620008828239608051818181610be401528181610d2801526158c20152f35b015192503880620002ed565b86815285812093958591601f198316915b888383106200037e575050501062000364575b505050811b019055620002ff565b015160001960f88460031b161c1916905538808062000356565b85870151885590960195948501948793509081019062000343565b8883528783209085808901821c8301938a8a10620003d5575b01901c019085905b828110620003c95750620002d1565b838155018590620003ba565b93508293620003b2565b634e487b7160e01b835260228952602483fd5b91607f1691620002bf565b634e487b7160e01b81526041600452602490fd5b0151905038806200028c565b600785528985208894509190601f198416865b8c8282106200046c575050841162000452575b505050811b01600755620002a1565b015160001960f88460031b161c1916905538808062000443565b8385015186558b9790950194938401930162000430565b90915060078452888420868085018c1c8201928b8610620004cb575b91899186959493018d1c01915b828110620004bc57505062000276565b868155859450899101620004ac565b925081926200049f565b634e487b7160e01b84526022600452602484fd5b90607f169062000261565b634e487b7160e01b83526041600452602483fd5b01519050388062000231565b8b86528a86208994509190601f198416875b8d82821062000561575050841162000547575b505050811b01885562000245565b015160001960f88460031b161c1916905538808062000539565b8385015186558c9790950194938401930162000526565b9091508a8552898520878085018d1c8201928c8610620005c0575b918d8b928796959401901c01915b828110620005b15750506200021b565b8781558594508a9101620005a1565b9250819262000593565b634e487b7160e01b85526022600452602485fd5b90607f169062000206565b015190503880620001d4565b600686528a86208994509190601f198416875b8d8282106200064457505084116200062a575b505050811b01600655620001e9565b015160001960f88460031b161c191690553880806200061b565b8385015186558c9790950194938401930162000608565b909150600685528985208780850160051c8201928c8610620006a5575b918a91869594930160051c01915b82811062000696575050620001be565b8781558594508a910162000686565b9250819262000678565b90607f1690620001a9565b634e487b7160e01b84526041600452602484fd5b01519050388062000178565b600887528b87208a94509190601f198416888e5b8282106200072957505084116200070f575b505050811b016008556200018d565b015160001960f88460031b161c1916905538808062000700565b8385015186558d979095019493840193018e620006ee565b909150600886528a86208880850160051c8201928d86106200078b575b918b91869594930160051c01915b8281106200077c57505062000162565b8881558594508b91016200076c565b925081926200075e565b96607f16966200014b565b604051631e4fbdf760e01b815260006004820152602490fd5b600080fd5b6040519190601f01601f191682016001600160401b03811183821017620007e457604052565b634e487b7160e01b600052604160045260246000fd5b919080601f84011215620007b95782516001600160401b038111620007e45760209062000830601f8201601f19168301620007be565b92818452828287010111620007b95760005b8181106200085857508260009394955001015290565b858101830151848201840152820162000842565b51906001600160a01b0382168203620007b95756fe6080604052600436101561001257600080fd5b60003560e01c806257bfdd146101b657806305b2ae1b146101b1578063150b7a02146101ac57806318ab522d146101a75780632150a138146101a25780632580833d1461019d57806331a290ac146101985780634650d87314610193578063572b6c051461018e5780635e703e71146101895780636aff31dd14610184578063715018a61461017f57806379a2696e1461017a5780637da0a87714610175578063875e4bea146101705780638da5cb5b1461016b578063a0122c0914610166578063a22d0dd514610161578063b03a3eab1461015c578063b1fa9e7b14610157578063b3fa278314610152578063c06e7bc71461014d578063d756227e14610148578063da4fb43414610143578063e9379bad1461013e5763f2fde38b1461013957600080fd5b611530565b611488565b61138a565b6112ba565b611137565b61108f565b611064565b610fbe565b610f79565b610ee4565b610ebd565b610d4c565b610d08565b610cd5565b610c63565b610c37565b610c0b565b610bb5565b610b41565b610989565b610822565b61077a565b610702565b610654565b610512565b6104d9565b90600182811c92168015610204575b60208310146101d557565b7f4e487b7100000000000000000000000000000000000000000000000000000000600052602260045260246000fd5b91607f16916101ca565b7f4e487b7100000000000000000000000000000000000000000000000000000000600052604160045260246000fd5b6101a0810190811067ffffffffffffffff82111761025a57604052565b61020e565b6020810190811067ffffffffffffffff82111761025a57604052565b6040810190811067ffffffffffffffff82111761025a57604052565b6060810190811067ffffffffffffffff82111761025a57604052565b90601f601f19910116810190811067ffffffffffffffff82111761025a57604052565b60405190600082600254916102ea836101bb565b808352926020906001908181169081156103785750600114610317575b5050610315925003836102b3565b565b91509260026000527f405787fa12a823e0f2b7631cc41b3ba8828b3321ca811111fa75cd3aa3bb5ace936000925b82841061036057506103159450505081016020013880610307565b85548885018301529485019487945092810192610345565b9050602093506103159592507fffffffffffffffffffffffffffffffffffffffffffffffffffffffffffffff0091501682840152151560051b8201013880610307565b906040519182600082546103ce816101bb565b9081845260209460019160018116908160001461043c57506001146103fd575b505050610315925003836102b3565b600090815285812095935091905b81831061042457505061031593508201013880806103ee565b8554888401850152948501948794509183019161040b565b9150506103159593507fffffffffffffffffffffffffffffffffffffffffffffffffffffffffffffff0091501682840152151560051b8201013880806103ee565b60005b8381106104905750506000910152565b8181015183820152602001610480565b90601f19601f6020936104be8151809281875287808801910161047d565b0116010190565b9060206104d69281815201906104a0565b90565b3461050d57600060031936011261050d576105096104f56102d6565b6040519182916020835260208301906104a0565b0390f35b600080fd5b3461050d5760008060031936011261061257604051908060075490610536826101bb565b808552916020916001918281169081156105c7575060011461056f575b61050986610563818803826102b3565b604051918291826104c5565b9350600784527fa66cc928b5edb82af9bd49922954155ab7b0942694bea4ce44661d9a8736c6885b8385106105b4575050505081016020016105638261050938610553565b8054868601840152938201938101610597565b879650610509979450602093506105639592507fffffffffffffffffffffffffffffffffffffffffffffffffffffffffffffff0091501682840152151560051b820101929338610553565b80fd5b6001600160a01b0381160361050d57565b9181601f8401121561050d5782359167ffffffffffffffff831161050d576020838186019501011161050d57565b3461050d57608060031936011261050d5760043561067181610615565b61067c602435610615565b60643567ffffffffffffffff811161050d5761069c903690600401610626565b50506001600160a01b03309116036106d85760206040517f150b7a02000000000000000000000000000000000000000000000000000000008152f35b60046040517fecb1aa84000000000000000000000000000000000000000000000000000000008152fd5b3461050d57604060031936011261050d5761072b60043561072281610615565b60243590611700565b906040519182916040830190835260209060406020850152825180915260206060850193019160005b82811061076357505050500390f35b835185528695509381019392810192600101610754565b3461050d576000806003193601126106125760405190806004549061079e826101bb565b808552916020916001918281169081156105c757506001146107ca5761050986610563818803826102b3565b9350600484527f8a35acfbc15ff81a39ae7d344fd709f28e8600b4aa8c65c6b64bfe7fe36bd19b5b83851061080f575050505081016020016105638261050938610553565b80548686018401529382019381016107f2565b3461050d5760008060031936011261061257604051908060055490610846826101bb565b808552916020916001918281169081156105c757506001146108725761050986610563818803826102b3565b9350600584527f036b6384b5eca791c62761152d0c79bb0604c104a5fb6f4eb0703f3154bb3db05b8385106108b7575050505081016020016105638261050938610553565b805486860184015293820193810161089a565b604051906103158261023d565b67ffffffffffffffff811161025a5760051b60200190565b92916108fa826108d7565b9161090860405193846102b3565b829481845260208094019160051b810192831161050d57905b82821061092e5750505050565b81358152908301908301610921565b9080601f8301121561050d578160206104d6933591016108ef565b9181601f8401121561050d5782359167ffffffffffffffff831161050d576020808501948460051b01011161050d57565b3461050d5760408060031936011261050d5760049067ffffffffffffffff823581811161050d576109bd903690850161093d565b9060243590811161050d576109d59036908501610958565b92909180519360005b8581106109e757005b6109f181846116ae565b51610a07610a008385896117c8565b3691611283565b610a23610a1e83600052600c602052604060002090565b611828565b610b1957610a3b826000526003602052604060002090565b548015610af15786516020810190610a6581610a578487611832565b03601f1981018352826102b3565b51902003610ac957907faeb631726b45aa3f6b09da79f7af03a9784614901f61a967ed84d63c37b7edc7610ac083610ab360019695610aae86600052600c602052604060002090565b6118fb565b88519182913390836119d0565b0390a2016109de565b8886517fd8e55daf000000000000000000000000000000000000000000000000000000008152fd5b8987517f38d87d39000000000000000000000000000000000000000000000000000000008152fd5b8886517f444244f5000000000000000000000000000000000000000000000000000000008152fd5b3461050d57606060031936011261050d57610b9c600435610b6181610615565b6001600160a01b0360243591610b7683610615565b1660005260016020526040600020906001600160a01b0316600052602052604060002090565b6044356000526020526020604060002054604051908152f35b3461050d57602060031936011261050d576020600435610bd481610615565b6001600160a01b039060405191807f0000000000000000000000000000000000000000000000000000000000000000169116148152f35b3461050d57604060031936011261050d576105096104f5600435610c2e81610615565b60243590611e90565b3461050d57602060031936011261050d5760043560005260036020526020604060002054604051908152f35b3461050d5760008060031936011261061257610c7d6145f2565b806001600160a01b0381547fffffffffffffffffffffffff000000000000000000000000000000000000000081168355167f8be0079c531659141344cd1fd0a4f28419497f9722a3daafe3b4186f6b6457e08280a380f35b3461050d57604060031936011261050d576020610d00600435610cf781610615565b60243590612724565b604051908152f35b3461050d57600060031936011261050d5760206040516001600160a01b037f0000000000000000000000000000000000000000000000000000000000000000168152f35b3461050d5760208060031936011261050d5767ffffffffffffffff60043581811161050d57610d7f903690600401610626565b9091610d896145f2565b811161025a57610da381610d9e6002546101bb565b611860565b600092601f8211600114610e195750610df481807f512c3c91736f50c57a0548c1d01ab02f24c420f002b8b20e2bfe63df9693cd3f95600091610e0e575b506000198260011b9260031b1c19161790565b6002555b610e09604051928392339184612783565b0390a1005b905084013538610de1565b6002600052601f198216937f405787fa12a823e0f2b7631cc41b3ba8828b3321ca811111fa75cd3aa3bb5ace9181905b868210610ea5575050827f512c3c91736f50c57a0548c1d01ab02f24c420f002b8b20e2bfe63df9693cd3f9510610e8b575b5050600181811b01600255610df8565b60001960f88460031b161c19908401351690553880610e7b565b80600184958294958901358155019401920190610e49565b3461050d57600060031936011261050d5760206001600160a01b0360005416604051908152f35b3461050d57604060031936011261050d57610f53600435610f0481610615565b610509610f146024358093613296565b91610f61610f3e610f3862ffffff610100610f2f8887613d89565b97015116614336565b92613fbf565b916040519586956060875260608701906104a0565b9085820360208701526104a0565b9083820360408501526104a0565b8015150361050d57565b3461050d57608060031936011261050d576105096104f5600435610f9c81610615565b604435610fa881610f6f565b60643591610fb583610f6f565b60243590612cb8565b3461050d57604060031936011261050d5767ffffffffffffffff60043581811161050d57610ff090369060040161093d565b9060243590811161050d573660238201121561050d578060040135611014816108d7565b9161102260405193846102b3565b8183526020916024602085019160051b8301019136831161050d57602401905b828210611055576110538587612dca565b005b81358152908301908301611042565b3461050d57604060031936011261050d576020610d0060043561108681610615565b60243590612e86565b3461050d57600080600319360112610612576040519080600654906110b3826101bb565b808552916020916001918281169081156105c757506001146110df5761050986610563818803826102b3565b9350600684527ff652222313e28459528d920b65115c16c04f3efc82aaedc97be59f3f377c0d3f5b838510611124575050505081016020016105638261050938610553565b8054868601840152938201938101611107565b3461050d57608060031936011261050d5760043561115481610615565b602435906044359060643567ffffffffffffffff811161050d5761117c903690600401610958565b939092611189828461498b565b6001600160a01b03938461119b6158b8565b1695600096875260016020526111c78560408920906001600160a01b0316600052602052604060002090565b8488526020526040872054421061123d5761122d611234938561123a987f6a68946ba06488db8585d7c7637fa954b574035fe15720ea760125ef860172586112236112106158b8565b926040519182918d1694898b8985612f1d565b0390a38587614a3d565b36916108ef565b91614d2e565b80f35b60046040517f5a5ecb46000000000000000000000000000000000000000000000000000000008152fd5b67ffffffffffffffff811161025a57601f01601f191660200190565b92919261128f82611267565b9161129d60405193846102b3565b82948184528183011161050d578281602093846000960137010152565b3461050d57604060031936011261050d5767ffffffffffffffff60043581811161050d576112ec90369060040161093d565b60249060243583811161050d573660238201121561050d57806004013592611313846108d7565b9361132160405195866102b3565b8085526020956024602087019260051b8501019336851161050d5760248101925b858410611353576110538888612f7a565b833583811161050d5782013660438201121561050d57899161137f8392369060448a8201359101611283565b815201930192611342565b3461050d57606060031936011261050d576004356113a781610615565b602435906113b5828261498b565b6001600160a01b0390816113c76158b8565b1692600093845260016020526113f38260408620906001600160a01b0316600052602052604060002090565b8185526020526040842054926044354201938442116114835784106114595761145592611446916114226158b8565b168652600160205260408620906001600160a01b0316600052602052604060002090565b90600052602052604060002090565b5580f35b60046040517f415f2254000000000000000000000000000000000000000000000000000000008152fd5b6116c2565b3461050d57600080600319360112610612576040519080600854906114ac826101bb565b808552916020916001918281169081156105c757506001146114d85761050986610563818803826102b3565b9350600884527ff3f7a9fe364faab93b216da50a3214154f22a0a2b415b23a84c8169e8b636ee35b83851061151d575050505081016020016105638261050938610553565b8054868601840152938201938101611500565b3461050d57602060031936011261050d5760043561154d81610615565b6115556145f2565b6001600160a01b0380911680156115ba576000918254827fffffffffffffffffffffffff00000000000000000000000000000000000000008216178455167f8be0079c531659141344cd1fd0a4f28419497f9722a3daafe3b4186f6b6457e08380a380f35b60246040517f1e4fbdf700000000000000000000000000000000000000000000000000000000815260006004820152fd5b90604051918281549182825260209260208301916000526020600020936000905b82821061162257505050610315925003836102b3565b85548452600195860195889550938101939091019061160c565b90611646826108d7565b61165360405191826102b3565b828152601f1961166382946108d7565b0190602036910137565b7f4e487b7100000000000000000000000000000000000000000000000000000000600052603260045260246000fd5b8051156116a95760200190565b61166d565b80518210156116a95760209160051b010190565b7f4e487b7100000000000000000000000000000000000000000000000000000000600052601160045260246000fd5b60001981146114835760010190565b916000926000926001600160a01b038216845260096020526040842081855260205261172e604085206115eb565b93845161173a8161163c565b958290835b8381106117885750505050604061177c9161176d856001600160a01b0316600052600a602052604060002090565b84825260205220548093612724565b146117845750565b9250565b80611795600192846116ae565b51876117a1828b612e86565b146117ae575b500161173f565b6117c16117ba866116f1565b958c6116ae565b52386117a7565b91908110156116a95760051b810135907fffffffffffffffffffffffffffffffffffffffffffffffffffffffffffffffe18136030182121561050d57019081359167ffffffffffffffff831161050d57602001823603811361050d579190565b6104d690546101bb565b906118456020928281519485920161047d565b0190565b818110611854575050565b60008155600101611849565b90601f821161186d575050565b6103159160026000527f405787fa12a823e0f2b7631cc41b3ba8828b3321ca811111fa75cd3aa3bb5ace906020601f840160051c830193106118b7575b601f0160051c0190611849565b90915081906118aa565b9190601f81116118d057505050565b610315926000526020600020906020601f840160051c830193106118b757601f0160051c0190611849565b919091825167ffffffffffffffff811161025a576119238161191d84546101bb565b846118c1565b602080601f83116001146119655750819061195693949560009261195a575b50506000198260011b9260031b1c19161790565b9055565b015190503880611942565b90601f1983169561197b85600052602060002090565b926000905b8882106119b85750508360019596971061199f575b505050811b019055565b015160001960f88460031b161c19169055388080611995565b80600185968294968601518155019501930190611980565b906001600160a01b036119f06020929594956040855260408501906104a0565b9416910152565b60405190611a048261025f565b60008252565b60405190611a178261027b565b600e82527f226f7574666974496473223a205b0000000000000000000000000000000000006020830152565b6021610315919392936040519481611a6587935180926020808701910161047d565b8201611a7a825180936020808501910161047d565b017f2c0000000000000000000000000000000000000000000000000000000000000060208201520360018101855201836102b3565b90610315602260405184611acd82965180926020808601910161047d565b81017f5d2c00000000000000000000000000000000000000000000000000000000000060208201520360028101855201836102b3565b602c610315919392936040519481611b2587935180926020808701910161047d565b82017f22776f726c644964223a200000000000000000000000000000000000000000006020820152611b61825180936020602b8501910161047d565b017f2c00000000000000000000000000000000000000000000000000000000000000602b82015203600c8101855201836102b3565b519061031582610615565b9081602091031261050d57516104d681610615565b6040513d6000823e3d90fd5b603b610315919392936040519481611be487935180926020808701910161047d565b82017f226465636f726174696f6e734c6f636b6564556e74696c223a200000000000006020820152611c20825180936020603a8501910161047d565b017f2c00000000000000000000000000000000000000000000000000000000000000603a82015203601b8101855201836102b3565b90604051918260605160005b818110611c96575090602061031593611c8a82948401918383016000815281519485920161047d565b010380855201836102b3565b6020919250806080015182828801015201908491611c61565b6020610315919392936040519481611cd0879351809286808701910161047d565b8201611c8a8251809386808501910161047d565b90610315603760405180947f22776f726e42794e616b656442616e6e794964223a20000000000000000000006020830152611d2981518092602060368601910161047d565b81017f2c0000000000000000000000000000000000000000000000000000000000000060368201520360178101855201836102b3565b90610315603760405180947f227573656442794e616b656442616e6e794964223a20000000000000000000006020830152611d2981518092602060368601910161047d565b81601f8201121561050d578051611dba81611267565b92611dc860405194856102b3565b8184526020828401011161050d576104d6916020808501910161047d565b9060208282031261050d57815167ffffffffffffffff811161050d576104d69201611da4565b9081602091031261050d575190565b9081606091031261050d57805191604060208301519201516104d681610615565b90610315603d60405180947f646174613a6170706c69636174696f6e2f6a736f6e3b6261736536342c0000006020830152611e80815180926020868601910161047d565b810103601d8101855201836102b3565b90611e9b8183613296565b9063ffffffff611eaf835163ffffffff1690565b161561271957611ebd6119f7565b5061010082019062ffffff80611ed6845162ffffff1690565b161561259557611eff611ef9611ef0865163ffffffff1690565b63ffffffff1690565b8661351b565b928351612559575b600182611f17835162ffffff1690565b160361253e57611f37611f32611f2d8589612724565b6133ca565b611d5f565b915b8451156123e7575060606001600160a01b039495966004604051809781937f08786b1a000000000000000000000000000000000000000000000000000000008352165afa9384156123e2576000906000956123ad575b50611f9a8785613d89565b948751611faa9063ffffffff1690565b63ffffffff16611fb990613fbf565b978351611fc89062ffffff1690565b62ffffff16611fd690614336565b95611fe0906133ca565b938151611ff09063ffffffff1690565b63ffffffff16611fff906133ca565b905161200f9062ffffff166133ca565b60608301516120239063ffffffff166133ca565b9160408401516120369063ffffffff1690565b63ffffffff16612045906133ca565b60209490940151612064906cffffffffffffffffffffffffff166133ca565b9461206e906133ca565b95612078906133ca565b96604051809c6020820161208b91611832565b039b601f199c8d810182526120a090826102b3565b6120a9906144b6565b6040517f7b226e616d65223a22000000000000000000000000000000000000000000000060208201529d8e9c919b9160298e016120e591611832565b7f222c202270726f647563744e616d65223a202200000000000000000000000000815260130161211491611832565b7f222c202263617465676f72794e616d65223a2022000000000000000000000000815260140161214391611832565b7f222c2022746f6b656e4964223a200000000000000000000000000000000000008152600e0161217291611832565b7f2c2022757063223a20000000000000000000000000000000000000000000000081526009016121a191611832565b7f2c202263617465676f7279223a200000000000000000000000000000000000008152600e016121d091611832565b7f2c2022737570706c79223a2000000000000000000000000000000000000000008152600c016121ff91611832565b7f2c202272656d61696e696e67223a2000000000000000000000000000000000008152600f0161222e91611832565b7f2c20227072696365223a200000000000000000000000000000000000000000008152600b0161225d91611832565b7f2c2022646563696d616c73223a200000000000000000000000000000000000008152600e0161228c91611832565b7f2c202263757272656e6379223a200000000000000000000000000000000000008152600e016122bb91611832565b7f2c2000000000000000000000000000000000000000000000000000000000000081526002016122ea91611832565b7f226465736372697074696f6e223a2241207069656365206f662074686520426181527f6e6e797665727365222c22696d616765223a22646174613a696d6167652f737660208201527f672b786d6c3b6261736536342c000000000000000000000000000000000000006040820152604d0161236591611832565b7f227d000000000000000000000000000000000000000000000000000000000000815260020103908101825261239b90826102b3565b6123a4906144b6565b6104d690611e3c565b90506123d291945060603d6060116123db575b6123ca81836102b3565b810190611e1b565b50939038611f8f565b503d6123c0565b611bb6565b92959450600d93506123fd91505162ffffff1690565b16111561252a576040517f6c0360eb0000000000000000000000000000000000000000000000000000000081526000816004816001600160a01b0386165afa9283156123e2576124b993602092600091612507575b50925b61246d6124618261391d565b6001600160a01b031690565b906040518096819482937fc8df171000000000000000000000000000000000000000000000000000000000845260048401602090939291936001600160a01b0360408201951681520152565b03915afa9081156123e2576104d6926000926124d6575b5061399e565b6124f991925060203d602011612500575b6124f181836102b3565b810190611e0c565b90386124d0565b503d6124e7565b61252491503d806000833e61251c81836102b3565b810190611de6565b38612452565b60206124b9926125386102d6565b92612455565b61255361254e611f2d8589612e86565b611ce4565b91611f39565b926125799060018361256e875162ffffff1690565b160361257f5761380a565b92611f07565b6125909061258b613662565b611caf565b61380a565b61259f8286612b84565b926125aa8387611700565b80939193516125b7611a0a565b906000925b8184106126ee5750506125cf9150611aaf565b92806126d3575b5086846040517f6352211e0000000000000000000000000000000000000000000000000000000081526020818061261585600483019190602083019252565b03816001600160a01b0387165afa600091816126a2575b5061263a575b505050611f39565b6126769261265e611446926001600160a01b03166000526001602052604060002090565b906001600160a01b0316600052602052604060002090565b54428111612687575b848891612632565b9261269561269b92946133ca565b90611bc2565b913861267f565b6126c591925060203d6020116126cc575b6126bd81836102b3565b810190611ba1565b903861262c565b503d6126b3565b926126e16126e792946133ca565b90611b03565b91386125d6565b909161270f60019161270961270387866116ae565b516133ca565b90611a43565b93019291906125bc565b5050506104d66119f7565b6001600160a01b0316600090808252600d602052604082208383526020526040822054928315918215612761575b505061275c575090565b905090565b9091508252600a60205260408220838352602052604082205414153880612752565b916060601f19601f836001600160a01b0394602096999899604089528160408a015285890137600084828901015201168401019416910152565b600854600092916127cd826101bb565b9160019081811690811561283957506001146127e857505050565b909192935060086000527ff3f7a9fe364faab93b216da50a3214154f22a0a2b415b23a84c8169e8b636ee3906000915b848310612826575050500190565b8181602092548587015201920191612818565b7fffffffffffffffffffffffffffffffffffffffffffffffffffffffffffffff001683525050811515909102019150565b9060405191826020916128858151809285808601910161047d565b6007546000918301612896826101bb565b9160019081811690811561292157506001146128c3575b505050610315925003601f1981018452836102b3565b94925060076000527fa66cc928b5edb82af9bd49922954155ab7b0942694bea4ce44661d9a8736c688946000905b838210612909575050610315945001013880806128ad565b865482840186015295860195889550908401906128f1565b90506103159694507fffffffffffffffffffffffffffffffffffffffffffffffffffffffffffffff00915092919216838301528015150201013880806128ad565b90604051918260209161297d8151809285808601910161047d565b600454600091830161298e826101bb565b9160019081811690811561292157506001146129ba57505050610315925003601f1981018452836102b3565b94925060046000527f8a35acfbc15ff81a39ae7d344fd709f28e8600b4aa8c65c6b64bfe7fe36bd19b946000905b838210612a00575050610315945001013880806128ad565b865482840186015295860195889550908401906129e8565b906040519182602091612a338151809285808601910161047d565b6006546000918301612a44826101bb565b916001908181169081156129215750600114612a7057505050610315925003601f1981018452836102b3565b94925060066000527ff652222313e28459528d920b65115c16c04f3efc82aaedc97be59f3f377c0d3f946000905b838210612ab6575050610315945001013880806128ad565b86548284018601529586019588955090840190612a9e565b906040519182602091612ae98151809285808601910161047d565b6005546000918301612afa826101bb565b916001908181169081156129215750600114612b2657505050610315925003601f1981018452836102b3565b94925060056000527f036b6384b5eca791c62761152d0c79bb0604c104a5fb6f4eb0703f3154bb3db0946000905b838210612b6c575050610315945001013880806128ad565b86548284018601529586019588955090840190612b54565b612b8e8282613296565b9163ffffffff80612ba3855163ffffffff1690565b1615612cac5760609162ffffff612bc161010087015162ffffff1690565b16612c7757936001612c319392612c1c612c11612be16104d69989611700565b969080151580612c70575b612c56575b50612c0b612c06611ef0885163ffffffff1690565b61464b565b90611caf565b935163ffffffff1690565b1603612c4d57612c2b90612962565b92614823565b8051612c3e575b5061380a565b612c4791611caf565b38612c38565b612c2b9061286a565b612c6a9150612c65908a61351b565b611c55565b38612bf1565b5085612bec565b505050612c8e611ef0612c94935163ffffffff1690565b9061351b565b8051612ca357506104d66119f7565b6104d69061380a565b505050506104d66119f7565b9092612cc48483613296565b9363ffffffff9081612cda875163ffffffff1690565b1615612dbc5760609062ffffff612cf861010089015162ffffff1690565b16612da25791612d3a612c11600193612d156104d69a9689611700565b978115159081612d9a575b50612d8b5750612c0b612c06611ef0885163ffffffff1690565b1603612d7c57612d4990612962565b925b612d57575b505061380a565b612d6091614823565b8051612d6d575b80612d50565b612d7691611caf565b38612d67565b612d859061286a565b92612d4b565b612c6a9150612c65908961351b565b905038612d20565b505050509050612c8e611ef0612c94935163ffffffff1690565b5050505050506104d66119f7565b90612dd36145f2565b81519060009260005b838110612dea575050505050565b612df481836116ae565b51612dff82856116ae565b5190808752602060038152604080892054612e5d5782917fb10eb6fc7557a7109693cb8f3fac48d44328de56c0368ee4cac539b424d2cad99185612e5160019897966000526003602052604060002090565b5551338152a301612ddc565b600490517f2165e0ab000000000000000000000000000000000000000000000000000000008152fd5b906000916001600160a01b0381168352600e602052604083208284526020526040832054908115612f1757612ece906001600160a01b03166000526009602052604060002090565b818452602052612ee0604084206115eb565b91825192845b848110612ef557505050505090565b82612f0082846116ae565b5114612f0e57600101612ee6565b50505091505090565b50505090565b9291909493948352606060208401528160608401527f07ffffffffffffffffffffffffffffffffffffffffffffffffffffffffffffff821161050d5760806001600160a01b039160409360051b8091838701378401019416910152565b612f826145f2565b80519060005b828110612f955750505050565b612f9f81836116ae565b51612faa82866116ae565b51816000526020600b8152604090816000209083519067ffffffffffffffff821161025a57612fe382612fdd85546101bb565b856118c1565b80601f831160011461305e57509261304a9261303b836001999897947f9dedd219289ed514faff576c477c66bd097aef59a236e3b8ebcf0d0070cb4e969760009161305357506000198260011b9260031b1c19161790565b90555b519182913390836119d0565b0390a201612f88565b905085015138610de1565b90601f19831661307385600052602060002090565b926000905b8282106130dd575050927f9dedd219289ed514faff576c477c66bd097aef59a236e3b8ebcf0d0070cb4e96959261304a95928260019b9a9996106130c4575b5050881b8801905561303e565b85015160001960f88460031b161c1916905538806130b7565b80600185968294968c01518155019501930190613078565b906002820180921161148357565b906020820180921161148357565b906001820180921161148357565b9190820180921161148357565b519063ffffffff8216820361050d57565b51906cffffffffffffffffffffffffff8216820361050d57565b519061ffff8216820361050d57565b519062ffffff8216820361050d57565b519061031582610f6f565b60208183031261050d57805167ffffffffffffffff9182821161050d57016101a08184031261050d576131b26108ca565b926131bc8261312c565b84526131ca6020830161313d565b60208501526131db6040830161312c565b60408501526131ec6060830161312c565b60608501526131fd6080830161313d565b608085015261320e60a08301613157565b60a085015261321f60c08301611b96565b60c085015260e082015160e085015261010061323c818401613166565b9085015261012061324e818401613176565b90850152610140613260818401613176565b90850152610160613272818401613176565b90850152610180928383015190811161050d5761328f9201611da4565b9082015290565b60405161018092613359926132aa8361023d565b6060600095848780965285602082015285604082015285838201528560808201528560a08201528560c08201528560e08201528561010082015285610120820152856101408201528561016082015201526133076124618261391d565b906040518095819482937fc44a8e6d0000000000000000000000000000000000000000000000000000000084526004840160409060009294936001600160a01b03606083019616825260208201520152565b03915afa9182156123e257809261336f57505090565b6104d692503d8091833e61338381836102b3565b810190613181565b6040516133978161025f565b60008152906000368137565b906133ad82611267565b6133ba60405191826102b3565b828152601f196116638294611267565b806000917a184f03e93ff9f4daa797ed6e38ed64bf6a1f0100000000000000008082101561350d575b506d04ee2d6d415b85acef8100000000808310156134fe575b50662386f26fc10000808310156134ef575b506305f5e100808310156134e0575b50612710808310156134d1575b5060648210156134c1575b600a809210156134b7575b600190816021613462600187016133a3565b95860101905b613474575b5050505090565b600019849101917f30313233343536373839616263646566000000000000000000000000000000008282061a8353049182156134b257919082613468565b61346d565b9160010191613450565b9190606460029104910191613445565b6004919392049101913861343a565b6008919392049101913861342d565b6010919392049101913861341e565b6020919392049101913861340c565b6040935081049150386133f3565b9080600052602091600c835261353460406000206103bb565b805161365b575061359f91816001600160a01b03613552869461391d565b16906040518095819482937fbd51923c00000000000000000000000000000000000000000000000000000000845260048401602090939291936001600160a01b0360408201951681520152565b03915afa80156123e257613608926135cd6049926104d69460009161363e575b506135c86102d6565b61399e565b60405194827f3c696d61676520687265663d220000000000000000000000000000000000000087948501528251928391602d8601910161047d565b81017f222077696474683d2234303022206865696768743d22343030222f3e00000000602d8201520360298101845201826102b3565b6136559150833d8511612500576124f181836102b3565b386135bf565b9250505090565b60446104d6604051610a5760086137e160208401937f7b66696c6c3a6e6f6e653b7d00000000000000000000000000000000000000008552600c81526136a78161027b565b60036137b78161378d6040519a8b997f3c7374796c653e2e6f7b66696c6c3a233830383038303b7d2e6232000000000060208c0152603b6136ee8c8951928391018461047d565b8b017f2e62330000000000000000000000000000000000000000000000000000000000603b82015287519061372782603e83018561047d565b017f2e62340000000000000000000000000000000000000000000000000000000000603e82015261375f88518093604184019061047d565b017f2e6131000000000000000000000000000000000000000000000000000000000060418201520185611832565b7f2e6132000000000000000000000000000000000000000000000000000000000081520183611832565b7f2e6133000000000000000000000000000000000000000000000000000000000081520190611832565b7f3c2f7374796c653e0000000000000000000000000000000000000000000000008152016127bd565b9061031560ba60405180947f3c7376672077696474683d2234303022206865696768743d223430302220766960208301527f6577426f783d223020302034303020343030222066696c6c3d226e6f6e65222060408301527f786d6c6e733d22687474703a2f2f7777772e77332e6f72672f323030302f737660608301527f67223e3c7374796c653e2e6f7b66696c6c3a233035303530353b7d2e777b666960808301527f6c6c3a236639663966393b7d3c2f7374796c653e00000000000000000000000060a08301526138e781518092602060b48601910161047d565b81017f3c2f7376673e000000000000000000000000000000000000000000000000000060b482015203609a8101855201836102b3565b60206001600160a01b03916004604051809481937f507f1465000000000000000000000000000000000000000000000000000000008352165afa9081156123e257600091613969575090565b90506020813d602011613996575b81613984602093836102b3565b8101031261050d57516104d681610615565b3d9150613977565b906104d6906139e86040516020927f1220000000000000000000000000000000000000000000000000000000000000848301526022820152602281526139e381610297565b615262565b926040519381613a01869351809286808701910161047d565b8201613a158251809386808501910161047d565b010380845201826102b3565b90610315602160405184613a3f82965180926020808601910161047d565b81017f200000000000000000000000000000000000000000000000000000000000000060208201520360018101855201836102b3565b60405190613a828261027b565b600a82527f2072656d61696e696e67000000000000000000000000000000000000000000006020830152565b90610315929493602192613b33604051978894602093613ad68151809287808b01910161047d565b8601613aea8251809387808501910161047d565b017f2f0000000000000000000000000000000000000000000000000000000000000084820152613b2282518093868a8501910161047d565b01918351938491878501910161047d565b010360018101855201836102b3565b90610315929493602d92613bdd604051978894602093613b6a8151809287808b01910161047d565b86017f2028534f4c44204f55542920000000000000000000000000000000000000000085820152613ba48251809387602c8501910161047d565b017f2f00000000000000000000000000000000000000000000000000000000000000602c820152613b2282518093868a8501910161047d565b0103600d8101855201836102b3565b61031591613b339493602192604051968793602092613c138151809286808a01910161047d565b8501613c278251809386808501910161047d565b01917f2f00000000000000000000000000000000000000000000000000000000000000818401528351938491878501910161047d565b90610315602360405184613c7b82965180926020808601910161047d565b81017f203a20000000000000000000000000000000000000000000000000000000000060208201520360038101855201836102b3565b6021610315919392936040519481613cd387935180926020808701910161047d565b8201613ce8825180936020808501910161047d565b017f200000000000000000000000000000000000000000000000000000000000000060208201520360018101855201836102b3565b6025610315919392936040519481613d3f87935180926020808701910161047d565b82017f55504320230000000000000000000000000000000000000000000000000000006020820152613d7a825180936020878501910161047d565b010360058101855201836102b3565b90613df76104d692633b9aca00613db7613db2613dad611ef0875163ffffffff1690565b613fbf565b613a21565b9106613dc1613a75565b8115613e5b575090613dd5613df2926133ca565b613dec611f2d611ef0606088015163ffffffff1690565b91613bec565b613c5d565b90613e1c613e17613e0f61010084015162ffffff1690565b62ffffff1690565b614336565b8051613e3e575b50611f2d611ef0613e38925163ffffffff1690565b90613d1d565b611ef0613e52611f2d92613e389495613cb1565b93925050613e23565b9050604084019163ffffffff613e75845163ffffffff1690565b1680613eb05750613e93611f2d611ef0613df2955163ffffffff1690565b613eaa611f2d611ef0606089015163ffffffff1690565b91613b42565b613df29350613ebe906133ca565b613ed5611f2d611ef0606089015163ffffffff1690565b91613aae565b60405190613ee88261027b565b600882527f4f726967696e616c0000000000000000000000000000000000000000000000006020830152565b60405190613f218261027b565b600682527f4f72616e676500000000000000000000000000000000000000000000000000006020830152565b60405190613f5a8261027b565b600482527f50696e6b000000000000000000000000000000000000000000000000000000006020830152565b60405190613f938261027b565b600582527f416c69656e0000000000000000000000000000000000000000000000000000006020830152565b60018103613fd057506104d6613f86565b60028103613fe157506104d6613f4d565b60038103613ff257506104d6613f14565b6004810361400357506104d6613edb565b600052600b6020526104d660406000206103bb565b604051906140258261027b565b600782527f546f7070696e67000000000000000000000000000000000000000000000000006020830152565b6040519061405e8261027b565b600482527f46697374000000000000000000000000000000000000000000000000000000006020830152565b604051906140978261027b565b600b82527f5375697420626f74746f6d0000000000000000000000000000000000000000006020830152565b604051906140d08261027b565b600882527f5375697420746f700000000000000000000000000000000000000000000000006020830152565b604051906141098261027b565b600482527f53756974000000000000000000000000000000000000000000000000000000006020830152565b604051906141428261027b565b600482527f48656164000000000000000000000000000000000000000000000000000000006020830152565b6040519061417b8261027b565b600882527f4865616420746f700000000000000000000000000000000000000000000000006020830152565b604051906141b48261027b565b600582527f4d6f7574680000000000000000000000000000000000000000000000000000006020830152565b604051906141ed8261027b565b600782527f476c6173736573000000000000000000000000000000000000000000000000006020830152565b604051906142268261027b565b600882527f4e65636b6c6163650000000000000000000000000000000000000000000000006020830152565b6040519061425f8261027b565b600482527f4c656773000000000000000000000000000000000000000000000000000000006020830152565b604051906142988261027b565b600882527f4261636b736964650000000000000000000000000000000000000000000000006020830152565b604051906142d18261027b565b600582527f576f726c640000000000000000000000000000000000000000000000000000006020830152565b6040519061430a8261027b565b600b82527f4e616b65642042616e6e790000000000000000000000000000000000000000006020830152565b8061434457506104d66142fd565b6001810361435557506104d66142c4565b6002810361436657506104d661428b565b6007810361437757506104d6614252565b6003810361438857506104d6614219565b6005810361439957506104d66141e0565b600681036143aa57506104d66141a7565b600b81036143bb57506104d661416e565b600481036143cc57506104d6614135565b600881036143dd57506104d66140fc565b600a81036143ee57506104d66140c3565b600981036143ff57506104d661408a565b600c810361441057506104d6614051565b600d1461441f576104d66119f7565b6104d6614018565b6040519061443482610297565b604082527f6768696a6b6c6d6e6f707172737475767778797a303132333435363738392b2f6040837f4142434445464748494a4b4c4d4e4f505152535455565758595a61626364656660208201520152565b908160021b917f3fffffffffffffffffffffffffffffffffffffffffffffffffffffffffffffff81160361148357565b8051156145e9576144c5614427565b6144e16144dc6144d584516130f5565b6003900490565b614486565b916144f36144ee84613103565b6133a3565b92835280815182019060208501935b8282106145975750505060039051068060011461454e57600214614524575090565b6000197f3d0000000000000000000000000000000000000000000000000000000000000091015290565b507ffffffffffffffffffffffffffffffffffffffffffffffffffffffffffffffffe7f3d3d00000000000000000000000000000000000000000000000000000000000091015290565b9091936004906003809401938451600190603f9082828260121c16880101518553828282600c1c16880101518386015382828260061c1688010151600286015316850101519082015301939190614502565b506104d66119f7565b6001600160a01b038060005416816146086158b8565b16036146115750565b60249061461c6158b8565b6040517f118cdaa700000000000000000000000000000000000000000000000000000000815291166004820152fd5b61465490615774565b93604096959693919351968796602088017f3c7374796c653e2e62317b66696c6c3a2300000000000000000000000000000090528051908160318a01916020019161469e9261047d565b8701603181017f3b7d2e62327b66696c6c3a230000000000000000000000000000000000000000905281519182603d830191602001916146dd9261047d565b01603d81017f3b7d2e62337b66696c6c3a23000000000000000000000000000000000000000090528151918260498301916020019161471b9261047d565b0160498101614749907f3b7d2e62347b66696c6c3a2300000000000000000000000000000000000000009052565b60550161475591611832565b7f3b7d2e61317b66696c6c3a2300000000000000000000000000000000000000008152600c0161478491611832565b7f3b7d2e61327b66696c6c3a2300000000000000000000000000000000000000008152600c016147b391611832565b7f3b7d2e61337b66696c6c3a2300000000000000000000000000000000000000008152600c016147e291611832565b7f3b7d3c2f7374796c653e000000000000000000000000000000000000000000008152600a01614811906127bd565b03601f19810182526104d690826102b3565b919060609281519060008092869061483a81613111565b95835b87811061484e575050505050505050565b600083821015614983575061486381836116ae565b51614881613e0f610100614877848b613296565b015162ffffff1690565b945b600386811497908815614954575050506001956148a0828961351b565b985b6006878103614920575050600a6001965b1180614916575b6148fc575b81151590816148f3575b506148db575b5060010195929561483d565b6001919a612c0b6148ec928961351b565b99906148cf565b905015386148c9565b97614907919b611caf565b996149106119f7565b976148bf565b50885115156148ba565b879197118061494c575b614937575b600a906148b3565b95509a61494390612ace565b9a60019561492f565b50861561492a565b879a9198929a118061497b575b156148a25796509a61497290612a18565b9a6001966148a2565b508715614961565b600e94614883565b9060206024926001600160a01b0393849360405195869384927f6352211e0000000000000000000000000000000000000000000000000000000084526004840152165afa9182156123e257600092614a1c575b50806149e86158b8565b169116036149f257565b60046040517f115472e4000000000000000000000000000000000000000000000000000000008152fd5b614a3691925060203d6020116126cc576126bd81836102b3565b90386149de565b9190614a6081611446856001600160a01b0316600052600a602052604060002090565b5491828103614a70575b50505050565b8015614c8457614a7e6158b8565b6001600160a01b03808616906040517f6352211e0000000000000000000000000000000000000000000000000000000093848252602091828180614aca8a600483019190602083019252565b0381885afa9081156123e25784918291600091614c67575b5016911614159384614bee575b50505050614bc45763ffffffff614b13614b098387613296565b5163ffffffff1690565b1615614b9a578181614b3f614b7294611446886001600160a01b0316600052600a602052604060002090565b55614b6182611446876001600160a01b0316600052600d602052604060002090565b55614b6a6158b8565b30908561592f565b80614b7f575b8080614a6a565b614b9391614b8b6158b8565b90309061592f565b3880614b78565b60046040517fe06a750d000000000000000000000000000000000000000000000000000000008152fd5b60046040517f8c7c7aa2000000000000000000000000000000000000000000000000000000008152fd5b819293945090614c2591614c006158b8565b95614c0b888c612724565b916040518095819482938352600483019190602083019252565b03915afa9081156123e2578392600092614c4a575b5050169116141538808080614aef565b614c609250803d106126cc576126bd81836102b3565b3880614c3a565b614c7e9150853d87116126cc576126bd81836102b3565b38614ae2565b50614ca8600091611446856001600160a01b0316600052600a602052604060002090565b55614b72565b81519167ffffffffffffffff831161025a5768010000000000000000831161025a578154838355808410614d10575b5060208091019160005260206000209060005b848110614cfe575050505050565b83518382015592810192600101614cf0565b614d2890836000528460206000209182019101611849565b38614cdd565b60008081614d5b614d5686611446876001600160a01b03166000526009602052604060002090565b6115eb565b92809281928286516151fd575b89939291935190835b828510614def57505050505050805b614db1575050506103159291611446614dac926001600160a01b03166000526009602052604060002090565b614cae565b90614dc8614dcd92614dc16158b8565b308761592f565b6116f1565b8151811015614de757614de081836116ae565b5180614d80565b600080614d80565b908b9392918a6001600160a01b03614e5c9b9f979a99989d9c9e614e158c6020926116ae565b519c8d93614e216158b8565b946040519485809481937f6352211e000000000000000000000000000000000000000000000000000000008352600483019190602083019252565b0392165afa9182156123e2578f926001600160a01b0380918f946000916151de575b5016911614159182615136575b505061510c57614ea5613e0f6101008f8d61487791613296565b9b60028d108015615102575b6150d85789151590816150cd575b506150a35760048c03614fd85750600193949590969192965b8b81111580614fcf575b15614f6157508b9594939291818a614f009303614f48575b506116f1565b95868d80518210600014614f3a57610100614877614f24614f2c94613e0f946116ae565b51809a613296565b905b96919293949590614ed8565b505094506000948590614f2e565b614f5b90614f546158b8565b308a61592f565b38614efa565b92949b999a8a60019298939995979e9a8d80614f7d8385612e86565b03614f92575b50505093019391909294614d71565b614fb682611446614fc7956001600160a01b0316600052600e602052604060002090565b558c614fc06158b8565b309161592f565b8a388d614f83565b50801515614ee2565b9260088c03614ff05750600196919293949590614ed8565b60058c148015615099575b801561508f575b80615088575b156150375760046040517f9b8fdcd1000000000000000000000000000000000000000000000000000000008152fd5b600a8c14801561507e575b80615077575b15614f2e5760046040517f06f75887000000000000000000000000000000000000000000000000000000008152fd5b5080615048565b5060098c14615042565b5083615008565b50600b8c14615002565b5060068c14614ffb565b60046040517fe1a6af64000000000000000000000000000000000000000000000000000000008152fd5b90508c111538614ebf565b60046040517fb0ee46ab000000000000000000000000000000000000000000000000000000008152fd5b50600d8d11614eb1565b60046040517f032cac03000000000000000000000000000000000000000000000000000000008152fd5b6001600160a01b039192506151936020916151596151526158b8565b9582612e86565b6040519485809481937f6352211e000000000000000000000000000000000000000000000000000000008352600483019190602083019252565b0392165afa9081156123e2576001600160a01b039182916000916151bf575b5016911614158a8e614e8b565b6151d8915060203d6020116126cc576126bd81836102b3565b386151b2565b6151f7915060203d6020116126cc576126bd81836102b3565b38614e7e565b5092506152098561169c565b519261521e613e0f610100614877878b613296565b614d68565b604051906105e0820182811067ffffffffffffffff82111761025a57604052602e82526105c0366020840137565b9081518110156116a9570160200190565b908151156153a157615272615223565b9160009060006152818561169c565b526001918151916000925b8084106152b257505050506152a86152ad916104d693946159ad565b6159f0565b615a37565b909192946152fb6152f56152ef6152c98987615251565b517fff000000000000000000000000000000000000000000000000000000000000001690565b60f81c90565b60ff1690565b9184925b60ff9089828916861015615360576001929161533461532e6152f56153278a61533a966116ae565b5160ff1690565b60081b90565b9061311f565b6153578b61534f88603a9586860616926116ae565b9060ff169052565b049301926152ff565b50919594935050809691965b61537a57506001019261528c565b9460ff6001603a9261539783858b061661534f8d868516906116ae565b011695048061536c565b90506104d661338b565b604051906153b88261027b565b600682527f66666539303000000000000000000000000000000000000000000000000000006020830152565b604051906153f18261027b565b600682527f66666337303000000000000000000000000000000000000000000000000000006020830152565b6040519061542a8261027b565b600682527f66336136303300000000000000000000000000000000000000000000000000006020830152565b604051906154638261027b565b600682527f39363561316100000000000000000000000000000000000000000000000000006020830152565b6040519061549c8261027b565b600682527f66663763303200000000000000000000000000000000000000000000000000006020830152565b604051906154d58261027b565b600682527f66643336303000000000000000000000000000000000000000000000000000006020830152565b6040519061550e8261027b565b600682527f63333265306400000000000000000000000000000000000000000000000000006020830152565b604051906155478261027b565b600682527f66666438633500000000000000000000000000000000000000000000000000006020830152565b604051906155808261027b565b600682527f66663936613900000000000000000000000000000000000000000000000000006020830152565b604051906155b98261027b565b600682527f66653538386200000000000000000000000000000000000000000000000000006020830152565b604051906155f28261027b565b600682527f63393266343500000000000000000000000000000000000000000000000000006020830152565b6040519061562b8261027b565b600682527f36376437353700000000000000000000000000000000000000000000000000006020830152565b604051906156648261027b565b600682527f33306132323000000000000000000000000000000000000000000000000000006020830152565b6040519061569d8261027b565b600682527f32313761313500000000000000000000000000000000000000000000000000006020830152565b604051906156d68261027b565b600482527f6e6f6e65000000000000000000000000000000000000000000000000000000006020830152565b6040519061570f8261027b565b600682527f65343833656600000000000000000000000000000000000000000000000000006020830152565b604051906157488261027b565b600682527f64633266656600000000000000000000000000000000000000000000000000006020830152565b600181036157bb575061578561561e565b9061578e615657565b90615797615690565b906157a06156c9565b906157a9615702565b906157b261573b565b906104d661573b565b6002810361580257506157cc61553a565b906157d5615573565b906157de6155ac565b906157e76155e5565b906157f061553a565b906157f9615573565b906104d66155ac565b60038103615849575061581361541d565b9061581c61548f565b906158256154c8565b9061582e615501565b9061583761541d565b9061584061548f565b906104d66154c8565b60041461587a5760046040517f9a7b3323000000000000000000000000000000000000000000000000000000008152fd5b6158826153ab565b9061588b6153e4565b9061589461541d565b9061589d615456565b906158a66153ab565b906158af6153e4565b906104d661541d565b6001600160a01b037f000000000000000000000000000000000000000000000000000000000000000016331480615924575b15615920577fffffffffffffffffffffffffffffffffffffffffffffffffffffffffffffffec3601368111611483573560601c90565b3390565b5060143610156158ea565b909291926001600160a01b0380921690813b1561050d57600060649281958560405198899788967f42842e0e00000000000000000000000000000000000000000000000000000000885216600487015216602485015260448401525af180156123e2576159995750565b67ffffffffffffffff811161025a57604052565b9060ff809116906159bd8261163c565b9260005b8381106159cf575050505090565b80836159dd600193856116ae565b51166159e982886116ae565b52016159c1565b9081516159fc8161163c565b9060005b818110615a0e575090925050565b8060ff615a2460001960019489510301886116ae565b5116615a3082866116ae565b5201615a00565b8051615a4281611267565b91604090615a5360405194856102b3565b828452615a5f83611267565b90601f196020920136602087013760009260005b858110615a835750505050505090565b6001907fff00000000000000000000000000000000000000000000000000000000000000615b178451615ab581610297565b603a81527f31323334353637383941424344454647484a4b4c4d4e50515253545556575859888201527f5a6162636465666768696a6b6d6e6f707172737475767778797a0000000000008682015260ff615b0f85896116ae565b511690615251565b5116861a615b25828a615251565b5301615a7356fea2646970667358221220b2b7f1cac739b1d7d332c614941ae0c3e7680b2a3c54bdb53e5268226af5eacb64736f6c63430008170033",
	"deployedBytecode": "0x6080604052600436101561001257600080fd5b60003560e01c806257bfdd146101b657806305b2ae1b146101b1578063150b7a02146101ac57806318ab522d146101a75780632150a138146101a25780632580833d1461019d57806331a290ac146101985780634650d87314610193578063572b6c051461018e5780635e703e71146101895780636aff31dd14610184578063715018a61461017f57806379a2696e1461017a5780637da0a87714610175578063875e4bea146101705780638da5cb5b1461016b578063a0122c0914610166578063a22d0dd514610161578063b03a3eab1461015c578063b1fa9e7b14610157578063b3fa278314610152578063c06e7bc71461014d578063d756227e14610148578063da4fb43414610143578063e9379bad1461013e5763f2fde38b1461013957600080fd5b611530565b611488565b61138a565b6112ba565b611137565b61108f565b611064565b610fbe565b610f79565b610ee4565b610ebd565b610d4c565b610d08565b610cd5565b610c63565b610c37565b610c0b565b610bb5565b610b41565b610989565b610822565b61077a565b610702565b610654565b610512565b6104d9565b90600182811c92168015610204575b60208310146101d557565b7f4e487b7100000000000000000000000000000000000000000000000000000000600052602260045260246000fd5b91607f16916101ca565b7f4e487b7100000000000000000000000000000000000000000000000000000000600052604160045260246000fd5b6101a0810190811067ffffffffffffffff82111761025a57604052565b61020e565b6020810190811067ffffffffffffffff82111761025a57604052565b6040810190811067ffffffffffffffff82111761025a57604052565b6060810190811067ffffffffffffffff82111761025a57604052565b90601f601f19910116810190811067ffffffffffffffff82111761025a57604052565b60405190600082600254916102ea836101bb565b808352926020906001908181169081156103785750600114610317575b5050610315925003836102b3565b565b91509260026000527f405787fa12a823e0f2b7631cc41b3ba8828b3321ca811111fa75cd3aa3bb5ace936000925b82841061036057506103159450505081016020013880610307565b85548885018301529485019487945092810192610345565b9050602093506103159592507fffffffffffffffffffffffffffffffffffffffffffffffffffffffffffffff0091501682840152151560051b8201013880610307565b906040519182600082546103ce816101bb565b9081845260209460019160018116908160001461043c57506001146103fd575b505050610315925003836102b3565b600090815285812095935091905b81831061042457505061031593508201013880806103ee565b8554888401850152948501948794509183019161040b565b9150506103159593507fffffffffffffffffffffffffffffffffffffffffffffffffffffffffffffff0091501682840152151560051b8201013880806103ee565b60005b8381106104905750506000910152565b8181015183820152602001610480565b90601f19601f6020936104be8151809281875287808801910161047d565b0116010190565b9060206104d69281815201906104a0565b90565b3461050d57600060031936011261050d576105096104f56102d6565b6040519182916020835260208301906104a0565b0390f35b600080fd5b3461050d5760008060031936011261061257604051908060075490610536826101bb565b808552916020916001918281169081156105c7575060011461056f575b61050986610563818803826102b3565b604051918291826104c5565b9350600784527fa66cc928b5edb82af9bd49922954155ab7b0942694bea4ce44661d9a8736c6885b8385106105b4575050505081016020016105638261050938610553565b8054868601840152938201938101610597565b879650610509979450602093506105639592507fffffffffffffffffffffffffffffffffffffffffffffffffffffffffffffff0091501682840152151560051b820101929338610553565b80fd5b6001600160a01b0381160361050d57565b9181601f8401121561050d5782359167ffffffffffffffff831161050d576020838186019501011161050d57565b3461050d57608060031936011261050d5760043561067181610615565b61067c602435610615565b60643567ffffffffffffffff811161050d5761069c903690600401610626565b50506001600160a01b03309116036106d85760206040517f150b7a02000000000000000000000000000000000000000000000000000000008152f35b60046040517fecb1aa84000000000000000000000000000000000000000000000000000000008152fd5b3461050d57604060031936011261050d5761072b60043561072281610615565b60243590611700565b906040519182916040830190835260209060406020850152825180915260206060850193019160005b82811061076357505050500390f35b835185528695509381019392810192600101610754565b3461050d576000806003193601126106125760405190806004549061079e826101bb565b808552916020916001918281169081156105c757506001146107ca5761050986610563818803826102b3565b9350600484527f8a35acfbc15ff81a39ae7d344fd709f28e8600b4aa8c65c6b64bfe7fe36bd19b5b83851061080f575050505081016020016105638261050938610553565b80548686018401529382019381016107f2565b3461050d5760008060031936011261061257604051908060055490610846826101bb565b808552916020916001918281169081156105c757506001146108725761050986610563818803826102b3565b9350600584527f036b6384b5eca791c62761152d0c79bb0604c104a5fb6f4eb0703f3154bb3db05b8385106108b7575050505081016020016105638261050938610553565b805486860184015293820193810161089a565b604051906103158261023d565b67ffffffffffffffff811161025a5760051b60200190565b92916108fa826108d7565b9161090860405193846102b3565b829481845260208094019160051b810192831161050d57905b82821061092e5750505050565b81358152908301908301610921565b9080601f8301121561050d578160206104d6933591016108ef565b9181601f8401121561050d5782359167ffffffffffffffff831161050d576020808501948460051b01011161050d57565b3461050d5760408060031936011261050d5760049067ffffffffffffffff823581811161050d576109bd903690850161093d565b9060243590811161050d576109d59036908501610958565b92909180519360005b8581106109e757005b6109f181846116ae565b51610a07610a008385896117c8565b3691611283565b610a23610a1e83600052600c602052604060002090565b611828565b610b1957610a3b826000526003602052604060002090565b548015610af15786516020810190610a6581610a578487611832565b03601f1981018352826102b3565b51902003610ac957907faeb631726b45aa3f6b09da79f7af03a9784614901f61a967ed84d63c37b7edc7610ac083610ab360019695610aae86600052600c602052604060002090565b6118fb565b88519182913390836119d0565b0390a2016109de565b8886517fd8e55daf000000000000000000000000000000000000000000000000000000008152fd5b8987517f38d87d39000000000000000000000000000000000000000000000000000000008152fd5b8886517f444244f5000000000000000000000000000000000000000000000000000000008152fd5b3461050d57606060031936011261050d57610b9c600435610b6181610615565b6001600160a01b0360243591610b7683610615565b1660005260016020526040600020906001600160a01b0316600052602052604060002090565b6044356000526020526020604060002054604051908152f35b3461050d57602060031936011261050d576020600435610bd481610615565b6001600160a01b039060405191807f000000000000000000000000b2b5841dbef766d4b521221732f9b618fcf34a87169116148152f35b3461050d57604060031936011261050d576105096104f5600435610c2e81610615565b60243590611e90565b3461050d57602060031936011261050d5760043560005260036020526020604060002054604051908152f35b3461050d5760008060031936011261061257610c7d6145f2565b806001600160a01b0381547fffffffffffffffffffffffff000000000000000000000000000000000000000081168355167f8be0079c531659141344cd1fd0a4f28419497f9722a3daafe3b4186f6b6457e08280a380f35b3461050d57604060031936011261050d576020610d00600435610cf781610615565b60243590612724565b604051908152f35b3461050d57600060031936011261050d5760206040516001600160a01b037f000000000000000000000000b2b5841dbef766d4b521221732f9b618fcf34a87168152f35b3461050d5760208060031936011261050d5767ffffffffffffffff60043581811161050d57610d7f903690600401610626565b9091610d896145f2565b811161025a57610da381610d9e6002546101bb565b611860565b600092601f8211600114610e195750610df481807f512c3c91736f50c57a0548c1d01ab02f24c420f002b8b20e2bfe63df9693cd3f95600091610e0e575b506000198260011b9260031b1c19161790565b6002555b610e09604051928392339184612783565b0390a1005b905084013538610de1565b6002600052601f198216937f405787fa12a823e0f2b7631cc41b3ba8828b3321ca811111fa75cd3aa3bb5ace9181905b868210610ea5575050827f512c3c91736f50c57a0548c1d01ab02f24c420f002b8b20e2bfe63df9693cd3f9510610e8b575b5050600181811b01600255610df8565b60001960f88460031b161c19908401351690553880610e7b565b80600184958294958901358155019401920190610e49565b3461050d57600060031936011261050d5760206001600160a01b0360005416604051908152f35b3461050d57604060031936011261050d57610f53600435610f0481610615565b610509610f146024358093613296565b91610f61610f3e610f3862ffffff610100610f2f8887613d89565b97015116614336565b92613fbf565b916040519586956060875260608701906104a0565b9085820360208701526104a0565b9083820360408501526104a0565b8015150361050d57565b3461050d57608060031936011261050d576105096104f5600435610f9c81610615565b604435610fa881610f6f565b60643591610fb583610f6f565b60243590612cb8565b3461050d57604060031936011261050d5767ffffffffffffffff60043581811161050d57610ff090369060040161093d565b9060243590811161050d573660238201121561050d578060040135611014816108d7565b9161102260405193846102b3565b8183526020916024602085019160051b8301019136831161050d57602401905b828210611055576110538587612dca565b005b81358152908301908301611042565b3461050d57604060031936011261050d576020610d0060043561108681610615565b60243590612e86565b3461050d57600080600319360112610612576040519080600654906110b3826101bb565b808552916020916001918281169081156105c757506001146110df5761050986610563818803826102b3565b9350600684527ff652222313e28459528d920b65115c16c04f3efc82aaedc97be59f3f377c0d3f5b838510611124575050505081016020016105638261050938610553565b8054868601840152938201938101611107565b3461050d57608060031936011261050d5760043561115481610615565b602435906044359060643567ffffffffffffffff811161050d5761117c903690600401610958565b939092611189828461498b565b6001600160a01b03938461119b6158b8565b1695600096875260016020526111c78560408920906001600160a01b0316600052602052604060002090565b8488526020526040872054421061123d5761122d611234938561123a987f6a68946ba06488db8585d7c7637fa954b574035fe15720ea760125ef860172586112236112106158b8565b926040519182918d1694898b8985612f1d565b0390a38587614a3d565b36916108ef565b91614d2e565b80f35b60046040517f5a5ecb46000000000000000000000000000000000000000000000000000000008152fd5b67ffffffffffffffff811161025a57601f01601f191660200190565b92919261128f82611267565b9161129d60405193846102b3565b82948184528183011161050d578281602093846000960137010152565b3461050d57604060031936011261050d5767ffffffffffffffff60043581811161050d576112ec90369060040161093d565b60249060243583811161050d573660238201121561050d57806004013592611313846108d7565b9361132160405195866102b3565b8085526020956024602087019260051b8501019336851161050d5760248101925b858410611353576110538888612f7a565b833583811161050d5782013660438201121561050d57899161137f8392369060448a8201359101611283565b815201930192611342565b3461050d57606060031936011261050d576004356113a781610615565b602435906113b5828261498b565b6001600160a01b0390816113c76158b8565b1692600093845260016020526113f38260408620906001600160a01b0316600052602052604060002090565b8185526020526040842054926044354201938442116114835784106114595761145592611446916114226158b8565b168652600160205260408620906001600160a01b0316600052602052604060002090565b90600052602052604060002090565b5580f35b60046040517f415f2254000000000000000000000000000000000000000000000000000000008152fd5b6116c2565b3461050d57600080600319360112610612576040519080600854906114ac826101bb565b808552916020916001918281169081156105c757506001146114d85761050986610563818803826102b3565b9350600884527ff3f7a9fe364faab93b216da50a3214154f22a0a2b415b23a84c8169e8b636ee35b83851061151d575050505081016020016105638261050938610553565b8054868601840152938201938101611500565b3461050d57602060031936011261050d5760043561154d81610615565b6115556145f2565b6001600160a01b0380911680156115ba576000918254827fffffffffffffffffffffffff00000000000000000000000000000000000000008216178455167f8be0079c531659141344cd1fd0a4f28419497f9722a3daafe3b4186f6b6457e08380a380f35b60246040517f1e4fbdf700000000000000000000000000000000000000000000000000000000815260006004820152fd5b90604051918281549182825260209260208301916000526020600020936000905b82821061162257505050610315925003836102b3565b85548452600195860195889550938101939091019061160c565b90611646826108d7565b61165360405191826102b3565b828152601f1961166382946108d7565b0190602036910137565b7f4e487b7100000000000000000000000000000000000000000000000000000000600052603260045260246000fd5b8051156116a95760200190565b61166d565b80518210156116a95760209160051b010190565b7f4e487b7100000000000000000000000000000000000000000000000000000000600052601160045260246000fd5b60001981146114835760010190565b916000926000926001600160a01b038216845260096020526040842081855260205261172e604085206115eb565b93845161173a8161163c565b958290835b8381106117885750505050604061177c9161176d856001600160a01b0316600052600a602052604060002090565b84825260205220548093612724565b146117845750565b9250565b80611795600192846116ae565b51876117a1828b612e86565b146117ae575b500161173f565b6117c16117ba866116f1565b958c6116ae565b52386117a7565b91908110156116a95760051b810135907fffffffffffffffffffffffffffffffffffffffffffffffffffffffffffffffe18136030182121561050d57019081359167ffffffffffffffff831161050d57602001823603811361050d579190565b6104d690546101bb565b906118456020928281519485920161047d565b0190565b818110611854575050565b60008155600101611849565b90601f821161186d575050565b6103159160026000527f405787fa12a823e0f2b7631cc41b3ba8828b3321ca811111fa75cd3aa3bb5ace906020601f840160051c830193106118b7575b601f0160051c0190611849565b90915081906118aa565b9190601f81116118d057505050565b610315926000526020600020906020601f840160051c830193106118b757601f0160051c0190611849565b919091825167ffffffffffffffff811161025a576119238161191d84546101bb565b846118c1565b602080601f83116001146119655750819061195693949560009261195a575b50506000198260011b9260031b1c19161790565b9055565b015190503880611942565b90601f1983169561197b85600052602060002090565b926000905b8882106119b85750508360019596971061199f575b505050811b019055565b015160001960f88460031b161c19169055388080611995565b80600185968294968601518155019501930190611980565b906001600160a01b036119f06020929594956040855260408501906104a0565b9416910152565b60405190611a048261025f565b60008252565b60405190611a178261027b565b600e82527f226f7574666974496473223a205b0000000000000000000000000000000000006020830152565b6021610315919392936040519481611a6587935180926020808701910161047d565b8201611a7a825180936020808501910161047d565b017f2c0000000000000000000000000000000000000000000000000000000000000060208201520360018101855201836102b3565b90610315602260405184611acd82965180926020808601910161047d565b81017f5d2c00000000000000000000000000000000000000000000000000000000000060208201520360028101855201836102b3565b602c610315919392936040519481611b2587935180926020808701910161047d565b82017f22776f726c644964223a200000000000000000000000000000000000000000006020820152611b61825180936020602b8501910161047d565b017f2c00000000000000000000000000000000000000000000000000000000000000602b82015203600c8101855201836102b3565b519061031582610615565b9081602091031261050d57516104d681610615565b6040513d6000823e3d90fd5b603b610315919392936040519481611be487935180926020808701910161047d565b82017f226465636f726174696f6e734c6f636b6564556e74696c223a200000000000006020820152611c20825180936020603a8501910161047d565b017f2c00000000000000000000000000000000000000000000000000000000000000603a82015203601b8101855201836102b3565b90604051918260605160005b818110611c96575090602061031593611c8a82948401918383016000815281519485920161047d565b010380855201836102b3565b6020919250806080015182828801015201908491611c61565b6020610315919392936040519481611cd0879351809286808701910161047d565b8201611c8a8251809386808501910161047d565b90610315603760405180947f22776f726e42794e616b656442616e6e794964223a20000000000000000000006020830152611d2981518092602060368601910161047d565b81017f2c0000000000000000000000000000000000000000000000000000000000000060368201520360178101855201836102b3565b90610315603760405180947f227573656442794e616b656442616e6e794964223a20000000000000000000006020830152611d2981518092602060368601910161047d565b81601f8201121561050d578051611dba81611267565b92611dc860405194856102b3565b8184526020828401011161050d576104d6916020808501910161047d565b9060208282031261050d57815167ffffffffffffffff811161050d576104d69201611da4565b9081602091031261050d575190565b9081606091031261050d57805191604060208301519201516104d681610615565b90610315603d60405180947f646174613a6170706c69636174696f6e2f6a736f6e3b6261736536342c0000006020830152611e80815180926020868601910161047d565b810103601d8101855201836102b3565b90611e9b8183613296565b9063ffffffff611eaf835163ffffffff1690565b161561271957611ebd6119f7565b5061010082019062ffffff80611ed6845162ffffff1690565b161561259557611eff611ef9611ef0865163ffffffff1690565b63ffffffff1690565b8661351b565b928351612559575b600182611f17835162ffffff1690565b160361253e57611f37611f32611f2d8589612724565b6133ca565b611d5f565b915b8451156123e7575060606001600160a01b039495966004604051809781937f08786b1a000000000000000000000000000000000000000000000000000000008352165afa9384156123e2576000906000956123ad575b50611f9a8785613d89565b948751611faa9063ffffffff1690565b63ffffffff16611fb990613fbf565b978351611fc89062ffffff1690565b62ffffff16611fd690614336565b95611fe0906133ca565b938151611ff09063ffffffff1690565b63ffffffff16611fff906133ca565b905161200f9062ffffff166133ca565b60608301516120239063ffffffff166133ca565b9160408401516120369063ffffffff1690565b63ffffffff16612045906133ca565b60209490940151612064906cffffffffffffffffffffffffff166133ca565b9461206e906133ca565b95612078906133ca565b96604051809c6020820161208b91611832565b039b601f199c8d810182526120a090826102b3565b6120a9906144b6565b6040517f7b226e616d65223a22000000000000000000000000000000000000000000000060208201529d8e9c919b9160298e016120e591611832565b7f222c202270726f647563744e616d65223a202200000000000000000000000000815260130161211491611832565b7f222c202263617465676f72794e616d65223a2022000000000000000000000000815260140161214391611832565b7f222c2022746f6b656e4964223a200000000000000000000000000000000000008152600e0161217291611832565b7f2c2022757063223a20000000000000000000000000000000000000000000000081526009016121a191611832565b7f2c202263617465676f7279223a200000000000000000000000000000000000008152600e016121d091611832565b7f2c2022737570706c79223a2000000000000000000000000000000000000000008152600c016121ff91611832565b7f2c202272656d61696e696e67223a2000000000000000000000000000000000008152600f0161222e91611832565b7f2c20227072696365223a200000000000000000000000000000000000000000008152600b0161225d91611832565b7f2c2022646563696d616c73223a200000000000000000000000000000000000008152600e0161228c91611832565b7f2c202263757272656e6379223a200000000000000000000000000000000000008152600e016122bb91611832565b7f2c2000000000000000000000000000000000000000000000000000000000000081526002016122ea91611832565b7f226465736372697074696f6e223a2241207069656365206f662074686520426181527f6e6e797665727365222c22696d616765223a22646174613a696d6167652f737660208201527f672b786d6c3b6261736536342c000000000000000000000000000000000000006040820152604d0161236591611832565b7f227d000000000000000000000000000000000000000000000000000000000000815260020103908101825261239b90826102b3565b6123a4906144b6565b6104d690611e3c565b90506123d291945060603d6060116123db575b6123ca81836102b3565b810190611e1b565b50939038611f8f565b503d6123c0565b611bb6565b92959450600d93506123fd91505162ffffff1690565b16111561252a576040517f6c0360eb0000000000000000000000000000000000000000000000000000000081526000816004816001600160a01b0386165afa9283156123e2576124b993602092600091612507575b50925b61246d6124618261391d565b6001600160a01b031690565b906040518096819482937fc8df171000000000000000000000000000000000000000000000000000000000845260048401602090939291936001600160a01b0360408201951681520152565b03915afa9081156123e2576104d6926000926124d6575b5061399e565b6124f991925060203d602011612500575b6124f181836102b3565b810190611e0c565b90386124d0565b503d6124e7565b61252491503d806000833e61251c81836102b3565b810190611de6565b38612452565b60206124b9926125386102d6565b92612455565b61255361254e611f2d8589612e86565b611ce4565b91611f39565b926125799060018361256e875162ffffff1690565b160361257f5761380a565b92611f07565b6125909061258b613662565b611caf565b61380a565b61259f8286612b84565b926125aa8387611700565b80939193516125b7611a0a565b906000925b8184106126ee5750506125cf9150611aaf565b92806126d3575b5086846040517f6352211e0000000000000000000000000000000000000000000000000000000081526020818061261585600483019190602083019252565b03816001600160a01b0387165afa600091816126a2575b5061263a575b505050611f39565b6126769261265e611446926001600160a01b03166000526001602052604060002090565b906001600160a01b0316600052602052604060002090565b54428111612687575b848891612632565b9261269561269b92946133ca565b90611bc2565b913861267f565b6126c591925060203d6020116126cc575b6126bd81836102b3565b810190611ba1565b903861262c565b503d6126b3565b926126e16126e792946133ca565b90611b03565b91386125d6565b909161270f60019161270961270387866116ae565b516133ca565b90611a43565b93019291906125bc565b5050506104d66119f7565b6001600160a01b0316600090808252600d602052604082208383526020526040822054928315918215612761575b505061275c575090565b905090565b9091508252600a60205260408220838352602052604082205414153880612752565b916060601f19601f836001600160a01b0394602096999899604089528160408a015285890137600084828901015201168401019416910152565b600854600092916127cd826101bb565b9160019081811690811561283957506001146127e857505050565b909192935060086000527ff3f7a9fe364faab93b216da50a3214154f22a0a2b415b23a84c8169e8b636ee3906000915b848310612826575050500190565b8181602092548587015201920191612818565b7fffffffffffffffffffffffffffffffffffffffffffffffffffffffffffffff001683525050811515909102019150565b9060405191826020916128858151809285808601910161047d565b6007546000918301612896826101bb565b9160019081811690811561292157506001146128c3575b505050610315925003601f1981018452836102b3565b94925060076000527fa66cc928b5edb82af9bd49922954155ab7b0942694bea4ce44661d9a8736c688946000905b838210612909575050610315945001013880806128ad565b865482840186015295860195889550908401906128f1565b90506103159694507fffffffffffffffffffffffffffffffffffffffffffffffffffffffffffffff00915092919216838301528015150201013880806128ad565b90604051918260209161297d8151809285808601910161047d565b600454600091830161298e826101bb565b9160019081811690811561292157506001146129ba57505050610315925003601f1981018452836102b3565b94925060046000527f8a35acfbc15ff81a39ae7d344fd709f28e8600b4aa8c65c6b64bfe7fe36bd19b946000905b838210612a00575050610315945001013880806128ad565b865482840186015295860195889550908401906129e8565b906040519182602091612a338151809285808601910161047d565b6006546000918301612a44826101bb565b916001908181169081156129215750600114612a7057505050610315925003601f1981018452836102b3565b94925060066000527ff652222313e28459528d920b65115c16c04f3efc82aaedc97be59f3f377c0d3f946000905b838210612ab6575050610315945001013880806128ad565b86548284018601529586019588955090840190612a9e565b906040519182602091612ae98151809285808601910161047d565b6005546000918301612afa826101bb565b916001908181169081156129215750600114612b2657505050610315925003601f1981018452836102b3565b94925060056000527f036b6384b5eca791c62761152d0c79bb0604c104a5fb6f4eb0703f3154bb3db0946000905b838210612b6c575050610315945001013880806128ad565b86548284018601529586019588955090840190612b54565b612b8e8282613296565b9163ffffffff80612ba3855163ffffffff1690565b1615612cac5760609162ffffff612bc161010087015162ffffff1690565b16612c7757936001612c319392612c1c612c11612be16104d69989611700565b969080151580612c70575b612c56575b50612c0b612c06611ef0885163ffffffff1690565b61464b565b90611caf565b935163ffffffff1690565b1603612c4d57612c2b90612962565b92614823565b8051612c3e575b5061380a565b612c4791611caf565b38612c38565b612c2b9061286a565b612c6a9150612c65908a61351b565b611c55565b38612bf1565b5085612bec565b505050612c8e611ef0612c94935163ffffffff1690565b9061351b565b8051612ca357506104d66119f7565b6104d69061380a565b505050506104d66119f7565b9092612cc48483613296565b9363ffffffff9081612cda875163ffffffff1690565b1615612dbc5760609062ffffff612cf861010089015162ffffff1690565b16612da25791612d3a612c11600193612d156104d69a9689611700565b978115159081612d9a575b50612d8b5750612c0b612c06611ef0885163ffffffff1690565b1603612d7c57612d4990612962565b925b612d57575b505061380a565b612d6091614823565b8051612d6d575b80612d50565b612d7691611caf565b38612d67565b612d859061286a565b92612d4b565b612c6a9150612c65908961351b565b905038612d20565b505050509050612c8e611ef0612c94935163ffffffff1690565b5050505050506104d66119f7565b90612dd36145f2565b81519060009260005b838110612dea575050505050565b612df481836116ae565b51612dff82856116ae565b5190808752602060038152604080892054612e5d5782917fb10eb6fc7557a7109693cb8f3fac48d44328de56c0368ee4cac539b424d2cad99185612e5160019897966000526003602052604060002090565b5551338152a301612ddc565b600490517f2165e0ab000000000000000000000000000000000000000000000000000000008152fd5b906000916001600160a01b0381168352600e602052604083208284526020526040832054908115612f1757612ece906001600160a01b03166000526009602052604060002090565b818452602052612ee0604084206115eb565b91825192845b848110612ef557505050505090565b82612f0082846116ae565b5114612f0e57600101612ee6565b50505091505090565b50505090565b9291909493948352606060208401528160608401527f07ffffffffffffffffffffffffffffffffffffffffffffffffffffffffffffff821161050d5760806001600160a01b039160409360051b8091838701378401019416910152565b612f826145f2565b80519060005b828110612f955750505050565b612f9f81836116ae565b51612faa82866116ae565b51816000526020600b8152604090816000209083519067ffffffffffffffff821161025a57612fe382612fdd85546101bb565b856118c1565b80601f831160011461305e57509261304a9261303b836001999897947f9dedd219289ed514faff576c477c66bd097aef59a236e3b8ebcf0d0070cb4e969760009161305357506000198260011b9260031b1c19161790565b90555b519182913390836119d0565b0390a201612f88565b905085015138610de1565b90601f19831661307385600052602060002090565b926000905b8282106130dd575050927f9dedd219289ed514faff576c477c66bd097aef59a236e3b8ebcf0d0070cb4e96959261304a95928260019b9a9996106130c4575b5050881b8801905561303e565b85015160001960f88460031b161c1916905538806130b7565b80600185968294968c01518155019501930190613078565b906002820180921161148357565b906020820180921161148357565b906001820180921161148357565b9190820180921161148357565b519063ffffffff8216820361050d57565b51906cffffffffffffffffffffffffff8216820361050d57565b519061ffff8216820361050d57565b519062ffffff8216820361050d57565b519061031582610f6f565b60208183031261050d57805167ffffffffffffffff9182821161050d57016101a08184031261050d576131b26108ca565b926131bc8261312c565b84526131ca6020830161313d565b60208501526131db6040830161312c565b60408501526131ec6060830161312c565b60608501526131fd6080830161313d565b608085015261320e60a08301613157565b60a085015261321f60c08301611b96565b60c085015260e082015160e085015261010061323c818401613166565b9085015261012061324e818401613176565b90850152610140613260818401613176565b90850152610160613272818401613176565b90850152610180928383015190811161050d5761328f9201611da4565b9082015290565b60405161018092613359926132aa8361023d565b6060600095848780965285602082015285604082015285838201528560808201528560a08201528560c08201528560e08201528561010082015285610120820152856101408201528561016082015201526133076124618261391d565b906040518095819482937fc44a8e6d0000000000000000000000000000000000000000000000000000000084526004840160409060009294936001600160a01b03606083019616825260208201520152565b03915afa9182156123e257809261336f57505090565b6104d692503d8091833e61338381836102b3565b810190613181565b6040516133978161025f565b60008152906000368137565b906133ad82611267565b6133ba60405191826102b3565b828152601f196116638294611267565b806000917a184f03e93ff9f4daa797ed6e38ed64bf6a1f0100000000000000008082101561350d575b506d04ee2d6d415b85acef8100000000808310156134fe575b50662386f26fc10000808310156134ef575b506305f5e100808310156134e0575b50612710808310156134d1575b5060648210156134c1575b600a809210156134b7575b600190816021613462600187016133a3565b95860101905b613474575b5050505090565b600019849101917f30313233343536373839616263646566000000000000000000000000000000008282061a8353049182156134b257919082613468565b61346d565b9160010191613450565b9190606460029104910191613445565b6004919392049101913861343a565b6008919392049101913861342d565b6010919392049101913861341e565b6020919392049101913861340c565b6040935081049150386133f3565b9080600052602091600c835261353460406000206103bb565b805161365b575061359f91816001600160a01b03613552869461391d565b16906040518095819482937fbd51923c00000000000000000000000000000000000000000000000000000000845260048401602090939291936001600160a01b0360408201951681520152565b03915afa80156123e257613608926135cd6049926104d69460009161363e575b506135c86102d6565b61399e565b60405194827f3c696d61676520687265663d220000000000000000000000000000000000000087948501528251928391602d8601910161047d565b81017f222077696474683d2234303022206865696768743d22343030222f3e00000000602d8201520360298101845201826102b3565b6136559150833d8511612500576124f181836102b3565b386135bf565b9250505090565b60446104d6604051610a5760086137e160208401937f7b66696c6c3a6e6f6e653b7d00000000000000000000000000000000000000008552600c81526136a78161027b565b60036137b78161378d6040519a8b997f3c7374796c653e2e6f7b66696c6c3a233830383038303b7d2e6232000000000060208c0152603b6136ee8c8951928391018461047d565b8b017f2e62330000000000000000000000000000000000000000000000000000000000603b82015287519061372782603e83018561047d565b017f2e62340000000000000000000000000000000000000000000000000000000000603e82015261375f88518093604184019061047d565b017f2e6131000000000000000000000000000000000000000000000000000000000060418201520185611832565b7f2e6132000000000000000000000000000000000000000000000000000000000081520183611832565b7f2e6133000000000000000000000000000000000000000000000000000000000081520190611832565b7f3c2f7374796c653e0000000000000000000000000000000000000000000000008152016127bd565b9061031560ba60405180947f3c7376672077696474683d2234303022206865696768743d223430302220766960208301527f6577426f783d223020302034303020343030222066696c6c3d226e6f6e65222060408301527f786d6c6e733d22687474703a2f2f7777772e77332e6f72672f323030302f737660608301527f67223e3c7374796c653e2e6f7b66696c6c3a233035303530353b7d2e777b666960808301527f6c6c3a236639663966393b7d3c2f7374796c653e00000000000000000000000060a08301526138e781518092602060b48601910161047d565b81017f3c2f7376673e000000000000000000000000000000000000000000000000000060b482015203609a8101855201836102b3565b60206001600160a01b03916004604051809481937f507f1465000000000000000000000000000000000000000000000000000000008352165afa9081156123e257600091613969575090565b90506020813d602011613996575b81613984602093836102b3565b8101031261050d57516104d681610615565b3d9150613977565b906104d6906139e86040516020927f1220000000000000000000000000000000000000000000000000000000000000848301526022820152602281526139e381610297565b615262565b926040519381613a01869351809286808701910161047d565b8201613a158251809386808501910161047d565b010380845201826102b3565b90610315602160405184613a3f82965180926020808601910161047d565b81017f200000000000000000000000000000000000000000000000000000000000000060208201520360018101855201836102b3565b60405190613a828261027b565b600a82527f2072656d61696e696e67000000000000000000000000000000000000000000006020830152565b90610315929493602192613b33604051978894602093613ad68151809287808b01910161047d565b8601613aea8251809387808501910161047d565b017f2f0000000000000000000000000000000000000000000000000000000000000084820152613b2282518093868a8501910161047d565b01918351938491878501910161047d565b010360018101855201836102b3565b90610315929493602d92613bdd604051978894602093613b6a8151809287808b01910161047d565b86017f2028534f4c44204f55542920000000000000000000000000000000000000000085820152613ba48251809387602c8501910161047d565b017f2f00000000000000000000000000000000000000000000000000000000000000602c820152613b2282518093868a8501910161047d565b0103600d8101855201836102b3565b61031591613b339493602192604051968793602092613c138151809286808a01910161047d565b8501613c278251809386808501910161047d565b01917f2f00000000000000000000000000000000000000000000000000000000000000818401528351938491878501910161047d565b90610315602360405184613c7b82965180926020808601910161047d565b81017f203a20000000000000000000000000000000000000000000000000000000000060208201520360038101855201836102b3565b6021610315919392936040519481613cd387935180926020808701910161047d565b8201613ce8825180936020808501910161047d565b017f200000000000000000000000000000000000000000000000000000000000000060208201520360018101855201836102b3565b6025610315919392936040519481613d3f87935180926020808701910161047d565b82017f55504320230000000000000000000000000000000000000000000000000000006020820152613d7a825180936020878501910161047d565b010360058101855201836102b3565b90613df76104d692633b9aca00613db7613db2613dad611ef0875163ffffffff1690565b613fbf565b613a21565b9106613dc1613a75565b8115613e5b575090613dd5613df2926133ca565b613dec611f2d611ef0606088015163ffffffff1690565b91613bec565b613c5d565b90613e1c613e17613e0f61010084015162ffffff1690565b62ffffff1690565b614336565b8051613e3e575b50611f2d611ef0613e38925163ffffffff1690565b90613d1d565b611ef0613e52611f2d92613e389495613cb1565b93925050613e23565b9050604084019163ffffffff613e75845163ffffffff1690565b1680613eb05750613e93611f2d611ef0613df2955163ffffffff1690565b613eaa611f2d611ef0606089015163ffffffff1690565b91613b42565b613df29350613ebe906133ca565b613ed5611f2d611ef0606089015163ffffffff1690565b91613aae565b60405190613ee88261027b565b600882527f4f726967696e616c0000000000000000000000000000000000000000000000006020830152565b60405190613f218261027b565b600682527f4f72616e676500000000000000000000000000000000000000000000000000006020830152565b60405190613f5a8261027b565b600482527f50696e6b000000000000000000000000000000000000000000000000000000006020830152565b60405190613f938261027b565b600582527f416c69656e0000000000000000000000000000000000000000000000000000006020830152565b60018103613fd057506104d6613f86565b60028103613fe157506104d6613f4d565b60038103613ff257506104d6613f14565b6004810361400357506104d6613edb565b600052600b6020526104d660406000206103bb565b604051906140258261027b565b600782527f546f7070696e67000000000000000000000000000000000000000000000000006020830152565b6040519061405e8261027b565b600482527f46697374000000000000000000000000000000000000000000000000000000006020830152565b604051906140978261027b565b600b82527f5375697420626f74746f6d0000000000000000000000000000000000000000006020830152565b604051906140d08261027b565b600882527f5375697420746f700000000000000000000000000000000000000000000000006020830152565b604051906141098261027b565b600482527f53756974000000000000000000000000000000000000000000000000000000006020830152565b604051906141428261027b565b600482527f48656164000000000000000000000000000000000000000000000000000000006020830152565b6040519061417b8261027b565b600882527f4865616420746f700000000000000000000000000000000000000000000000006020830152565b604051906141b48261027b565b600582527f4d6f7574680000000000000000000000000000000000000000000000000000006020830152565b604051906141ed8261027b565b600782527f476c6173736573000000000000000000000000000000000000000000000000006020830152565b604051906142268261027b565b600882527f4e65636b6c6163650000000000000000000000000000000000000000000000006020830152565b6040519061425f8261027b565b600482527f4c656773000000000000000000000000000000000000000000000000000000006020830152565b604051906142988261027b565b600882527f4261636b736964650000000000000000000000000000000000000000000000006020830152565b604051906142d18261027b565b600582527f576f726c640000000000000000000000000000000000000000000000000000006020830152565b6040519061430a8261027b565b600b82527f4e616b65642042616e6e790000000000000000000000000000000000000000006020830152565b8061434457506104d66142fd565b6001810361435557506104d66142c4565b6002810361436657506104d661428b565b6007810361437757506104d6614252565b6003810361438857506104d6614219565b6005810361439957506104d66141e0565b600681036143aa57506104d66141a7565b600b81036143bb57506104d661416e565b600481036143cc57506104d6614135565b600881036143dd57506104d66140fc565b600a81036143ee57506104d66140c3565b600981036143ff57506104d661408a565b600c810361441057506104d6614051565b600d1461441f576104d66119f7565b6104d6614018565b6040519061443482610297565b604082527f6768696a6b6c6d6e6f707172737475767778797a303132333435363738392b2f6040837f4142434445464748494a4b4c4d4e4f505152535455565758595a61626364656660208201520152565b908160021b917f3fffffffffffffffffffffffffffffffffffffffffffffffffffffffffffffff81160361148357565b8051156145e9576144c5614427565b6144e16144dc6144d584516130f5565b6003900490565b614486565b916144f36144ee84613103565b6133a3565b92835280815182019060208501935b8282106145975750505060039051068060011461454e57600214614524575090565b6000197f3d0000000000000000000000000000000000000000000000000000000000000091015290565b507ffffffffffffffffffffffffffffffffffffffffffffffffffffffffffffffffe7f3d3d00000000000000000000000000000000000000000000000000000000000091015290565b9091936004906003809401938451600190603f9082828260121c16880101518553828282600c1c16880101518386015382828260061c1688010151600286015316850101519082015301939190614502565b506104d66119f7565b6001600160a01b038060005416816146086158b8565b16036146115750565b60249061461c6158b8565b6040517f118cdaa700000000000000000000000000000000000000000000000000000000815291166004820152fd5b61465490615774565b93604096959693919351968796602088017f3c7374796c653e2e62317b66696c6c3a2300000000000000000000000000000090528051908160318a01916020019161469e9261047d565b8701603181017f3b7d2e62327b66696c6c3a230000000000000000000000000000000000000000905281519182603d830191602001916146dd9261047d565b01603d81017f3b7d2e62337b66696c6c3a23000000000000000000000000000000000000000090528151918260498301916020019161471b9261047d565b0160498101614749907f3b7d2e62347b66696c6c3a2300000000000000000000000000000000000000009052565b60550161475591611832565b7f3b7d2e61317b66696c6c3a2300000000000000000000000000000000000000008152600c0161478491611832565b7f3b7d2e61327b66696c6c3a2300000000000000000000000000000000000000008152600c016147b391611832565b7f3b7d2e61337b66696c6c3a2300000000000000000000000000000000000000008152600c016147e291611832565b7f3b7d3c2f7374796c653e000000000000000000000000000000000000000000008152600a01614811906127bd565b03601f19810182526104d690826102b3565b919060609281519060008092869061483a81613111565b95835b87811061484e575050505050505050565b600083821015614983575061486381836116ae565b51614881613e0f610100614877848b613296565b015162ffffff1690565b945b600386811497908815614954575050506001956148a0828961351b565b985b6006878103614920575050600a6001965b1180614916575b6148fc575b81151590816148f3575b506148db575b5060010195929561483d565b6001919a612c0b6148ec928961351b565b99906148cf565b905015386148c9565b97614907919b611caf565b996149106119f7565b976148bf565b50885115156148ba565b879197118061494c575b614937575b600a906148b3565b95509a61494390612ace565b9a60019561492f565b50861561492a565b879a9198929a118061497b575b156148a25796509a61497290612a18565b9a6001966148a2565b508715614961565b600e94614883565b9060206024926001600160a01b0393849360405195869384927f6352211e0000000000000000000000000000000000000000000000000000000084526004840152165afa9182156123e257600092614a1c575b50806149e86158b8565b169116036149f257565b60046040517f115472e4000000000000000000000000000000000000000000000000000000008152fd5b614a3691925060203d6020116126cc576126bd81836102b3565b90386149de565b9190614a6081611446856001600160a01b0316600052600a602052604060002090565b5491828103614a70575b50505050565b8015614c8457614a7e6158b8565b6001600160a01b03808616906040517f6352211e0000000000000000000000000000000000000000000000000000000093848252602091828180614aca8a600483019190602083019252565b0381885afa9081156123e25784918291600091614c67575b5016911614159384614bee575b50505050614bc45763ffffffff614b13614b098387613296565b5163ffffffff1690565b1615614b9a578181614b3f614b7294611446886001600160a01b0316600052600a602052604060002090565b55614b6182611446876001600160a01b0316600052600d602052604060002090565b55614b6a6158b8565b30908561592f565b80614b7f575b8080614a6a565b614b9391614b8b6158b8565b90309061592f565b3880614b78565b60046040517fe06a750d000000000000000000000000000000000000000000000000000000008152fd5b60046040517f8c7c7aa2000000000000000000000000000000000000000000000000000000008152fd5b819293945090614c2591614c006158b8565b95614c0b888c612724565b916040518095819482938352600483019190602083019252565b03915afa9081156123e2578392600092614c4a575b5050169116141538808080614aef565b614c609250803d106126cc576126bd81836102b3565b3880614c3a565b614c7e9150853d87116126cc576126bd81836102b3565b38614ae2565b50614ca8600091611446856001600160a01b0316600052600a602052604060002090565b55614b72565b81519167ffffffffffffffff831161025a5768010000000000000000831161025a578154838355808410614d10575b5060208091019160005260206000209060005b848110614cfe575050505050565b83518382015592810192600101614cf0565b614d2890836000528460206000209182019101611849565b38614cdd565b60008081614d5b614d5686611446876001600160a01b03166000526009602052604060002090565b6115eb565b92809281928286516151fd575b89939291935190835b828510614def57505050505050805b614db1575050506103159291611446614dac926001600160a01b03166000526009602052604060002090565b614cae565b90614dc8614dcd92614dc16158b8565b308761592f565b6116f1565b8151811015614de757614de081836116ae565b5180614d80565b600080614d80565b908b9392918a6001600160a01b03614e5c9b9f979a99989d9c9e614e158c6020926116ae565b519c8d93614e216158b8565b946040519485809481937f6352211e000000000000000000000000000000000000000000000000000000008352600483019190602083019252565b0392165afa9182156123e2578f926001600160a01b0380918f946000916151de575b5016911614159182615136575b505061510c57614ea5613e0f6101008f8d61487791613296565b9b60028d108015615102575b6150d85789151590816150cd575b506150a35760048c03614fd85750600193949590969192965b8b81111580614fcf575b15614f6157508b9594939291818a614f009303614f48575b506116f1565b95868d80518210600014614f3a57610100614877614f24614f2c94613e0f946116ae565b51809a613296565b905b96919293949590614ed8565b505094506000948590614f2e565b614f5b90614f546158b8565b308a61592f565b38614efa565b92949b999a8a60019298939995979e9a8d80614f7d8385612e86565b03614f92575b50505093019391909294614d71565b614fb682611446614fc7956001600160a01b0316600052600e602052604060002090565b558c614fc06158b8565b309161592f565b8a388d614f83565b50801515614ee2565b9260088c03614ff05750600196919293949590614ed8565b60058c148015615099575b801561508f575b80615088575b156150375760046040517f9b8fdcd1000000000000000000000000000000000000000000000000000000008152fd5b600a8c14801561507e575b80615077575b15614f2e5760046040517f06f75887000000000000000000000000000000000000000000000000000000008152fd5b5080615048565b5060098c14615042565b5083615008565b50600b8c14615002565b5060068c14614ffb565b60046040517fe1a6af64000000000000000000000000000000000000000000000000000000008152fd5b90508c111538614ebf565b60046040517fb0ee46ab000000000000000000000000000000000000000000000000000000008152fd5b50600d8d11614eb1565b60046040517f032cac03000000000000000000000000000000000000000000000000000000008152fd5b6001600160a01b039192506151936020916151596151526158b8565b9582612e86565b6040519485809481937f6352211e000000000000000000000000000000000000000000000000000000008352600483019190602083019252565b0392165afa9081156123e2576001600160a01b039182916000916151bf575b5016911614158a8e614e8b565b6151d8915060203d6020116126cc576126bd81836102b3565b386151b2565b6151f7915060203d6020116126cc576126bd81836102b3565b38614e7e565b5092506152098561169c565b519261521e613e0f610100614877878b613296565b614d68565b604051906105e0820182811067ffffffffffffffff82111761025a57604052602e82526105c0366020840137565b9081518110156116a9570160200190565b908151156153a157615272615223565b9160009060006152818561169c565b526001918151916000925b8084106152b257505050506152a86152ad916104d693946159ad565b6159f0565b615a37565b909192946152fb6152f56152ef6152c98987615251565b517fff000000000000000000000000000000000000000000000000000000000000001690565b60f81c90565b60ff1690565b9184925b60ff9089828916861015615360576001929161533461532e6152f56153278a61533a966116ae565b5160ff1690565b60081b90565b9061311f565b6153578b61534f88603a9586860616926116ae565b9060ff169052565b049301926152ff565b50919594935050809691965b61537a57506001019261528c565b9460ff6001603a9261539783858b061661534f8d868516906116ae565b011695048061536c565b90506104d661338b565b604051906153b88261027b565b600682527f66666539303000000000000000000000000000000000000000000000000000006020830152565b604051906153f18261027b565b600682527f66666337303000000000000000000000000000000000000000000000000000006020830152565b6040519061542a8261027b565b600682527f66336136303300000000000000000000000000000000000000000000000000006020830152565b604051906154638261027b565b600682527f39363561316100000000000000000000000000000000000000000000000000006020830152565b6040519061549c8261027b565b600682527f66663763303200000000000000000000000000000000000000000000000000006020830152565b604051906154d58261027b565b600682527f66643336303000000000000000000000000000000000000000000000000000006020830152565b6040519061550e8261027b565b600682527f63333265306400000000000000000000000000000000000000000000000000006020830152565b604051906155478261027b565b600682527f66666438633500000000000000000000000000000000000000000000000000006020830152565b604051906155808261027b565b600682527f66663936613900000000000000000000000000000000000000000000000000006020830152565b604051906155b98261027b565b600682527f66653538386200000000000000000000000000000000000000000000000000006020830152565b604051906155f28261027b565b600682527f63393266343500000000000000000000000000000000000000000000000000006020830152565b6040519061562b8261027b565b600682527f36376437353700000000000000000000000000000000000000000000000000006020830152565b604051906156648261027b565b600682527f33306132323000000000000000000000000000000000000000000000000000006020830152565b6040519061569d8261027b565b600682527f32313761313500000000000000000000000000000000000000000000000000006020830152565b604051906156d68261027b565b600482527f6e6f6e65000000000000000000000000000000000000000000000000000000006020830152565b6040519061570f8261027b565b600682527f65343833656600000000000000000000000000000000000000000000000000006020830152565b604051906157488261027b565b600682527f64633266656600000000000000000000000000000000000000000000000000006020830152565b600181036157bb575061578561561e565b9061578e615657565b90615797615690565b906157a06156c9565b906157a9615702565b906157b261573b565b906104d661573b565b6002810361580257506157cc61553a565b906157d5615573565b906157de6155ac565b906157e76155e5565b906157f061553a565b906157f9615573565b906104d66155ac565b60038103615849575061581361541d565b9061581c61548f565b906158256154c8565b9061582e615501565b9061583761541d565b9061584061548f565b906104d66154c8565b60041461587a5760046040517f9a7b3323000000000000000000000000000000000000000000000000000000008152fd5b6158826153ab565b9061588b6153e4565b9061589461541d565b9061589d615456565b906158a66153ab565b906158af6153e4565b906104d661541d565b6001600160a01b037f000000000000000000000000b2b5841dbef766d4b521221732f9b618fcf34a8716331480615924575b15615920577fffffffffffffffffffffffffffffffffffffffffffffffffffffffffffffffec3601368111611483573560601c90565b3390565b5060143610156158ea565b909291926001600160a01b0380921690813b1561050d57600060649281958560405198899788967f42842e0e00000000000000000000000000000000000000000000000000000000885216600487015216602485015260448401525af180156123e2576159995750565b67ffffffffffffffff811161025a57604052565b9060ff809116906159bd8261163c565b9260005b8381106159cf575050505090565b80836159dd600193856116ae565b51166159e982886116ae565b52016159c1565b9081516159fc8161163c565b9060005b818110615a0e575090925050565b8060ff615a2460001960019489510301886116ae565b5116615a3082866116ae565b5201615a00565b8051615a4281611267565b91604090615a5360405194856102b3565b828452615a5f83611267565b90601f196020920136602087013760009260005b858110615a835750505050505090565b6001907fff00000000000000000000000000000000000000000000000000000000000000615b178451615ab581610297565b603a81527f31323334353637383941424344454647484a4b4c4d4e50515253545556575859888201527f5a6162636465666768696a6b6d6e6f707172737475767778797a0000000000008682015260ff615b0f85896116ae565b511690615251565b5116861a615b25828a615251565b5301615a7356fea2646970667358221220b2b7f1cac739b1d7d332c614941ae0c3e7680b2a3c54bdb53e5268226af5eacb64736f6c63430008170033",
	"devdoc": {
		"kind": "dev",
		"methods": {
			"assetIdsOf(address,uint256)": {
				"custom:param": "hook The hook address of the collection.",
				"params": {
					"nakedBannyId": "The ID of the naked banny shows with the associated assets."
				},
				"returns": {
					"outfitIds": "The outfits attached to the Naked Banny.",
					"worldId": "The world attached to the Naked Banny."
				}
			},
			"constructor": {
				"params": {
					"defaultAlienEyes": "The SVG of the default alien eyes.",
					"defaultMouth": "The SVG of the default mouth.",
					"defaultNecklace": "The SVG of the default necklace.",
					"defaultStandardEyes": "The SVG of the default standard eyes.",
					"nakedBanny": "The SVG of the naked banny.",
					"owner": "The owner allowed to add SVG files that correspond to product IDs.",
					"trustedForwarder": "The trusted forwarder for the ERC2771Context."
				}
			},
			"decorateBannyWith(address,uint256,uint256,uint256[])": {
				"details": "The caller must own the naked banny being dressed and all outfits being worn.",
				"params": {
					"hook": "The hook storing the assets.",
					"nakedBannyId": "The ID of the Naked Banny being dressed.",
					"outfitIds": "The IDs of the outfits that'll be associated with the specified banny. Only one outfit per outfit category allowed at a time and they must be passed in order.",
					"worldId": "The ID of the world that'll be associated with the specified banny."
				}
			},
			"isTrustedForwarder(address)": {
				"details": "Indicates whether any particular address is the trusted forwarder."
			},
			"lockOutfitChangesFor(address,uint256,uint256)": {
				"params": {
					"duration": "The amount of seconds to lock the naked banny for.",
					"hook": "The hook address of the collection.",
					"nakedBannyId": "The ID of the Naked Banny to lock."
				}
			},
			"namesOf(address,uint256)": {
				"params": {
					"hook": "The hook storing the assets.",
					"tokenId": "The ID of the token to show."
				},
				"returns": {
					"_0": "fullName The full name of the token.",
					"_1": "categoryName The name of the token's category.",
					"_2": "productName The name of the token's product."
				}
			},
			"onERC721Received(address,address,uint256,bytes)": {
				"details": "Make sure tokens can be receieved if the transaction was initiated by this contract.",
				"params": {
					"data": "The data of the transfer.",
					"from": "The address that initiated the transfer.",
					"operator": "The address that initiated the transaction.",
					"tokenId": "The ID of the token being transferred."
				}
			},
			"owner()": {
				"details": "Returns the address of the current owner."
			},
			"renounceOwnership()": {
				"details": "Leaves the contract without owner. It will not be possible to call `onlyOwner` functions. Can only be called by the current owner. NOTE: Renouncing ownership will leave the contract without an owner, thereby disabling any functionality that is only available to the owner."
			},
			"setProductNames(uint256[],string[])": {
				"params": {
					"names": "The names of the products.",
					"upcs": "The universal product codes of the products having their name stored."
				}
			},
			"setSvgBaseUri(string)": {
				"params": {
					"baseUri": "The base URI of the SVG files."
				}
			},
			"setSvgContentsOf(uint256[],string[])": {
				"params": {
					"svgContents": "The svg contents being stored, not including the parent <svg></svg> element.",
					"upcs": "The universal product codes of the products having SVGs stored."
				}
			},
			"setSvgHashsOf(uint256[],bytes32[])": {
				"details": "This allows anyone to lazily upload the correct svg file.",
				"params": {
					"svgHashs": "The svg hashes being stored, not including the parent <svg></svg> element.",
					"upcs": "The universal product codes of the products having SVG hashes stored."
				}
			},
			"svgOf(address,uint256,bool,bool)": {
				"params": {
					"hook": "The hook storing the assets.",
					"shouldDressNakedBanny": "Whether the naked banny should be dressed.",
					"shouldIncludeWorldOnNakedBanny": "Whether the world should be included on the naked banny.",
					"tokenId": "The ID of the token to show. If the ID belongs to a Naked Banny, it will be shown with its current outfits in its current world if specified."
				},
				"returns": {
					"_0": "svg The SVG."
				}
			},
			"tokenUriOf(address,uint256)": {
				"params": {
					"tokenId": "The ID of the token to show. If the ID belongs to a Naked Banny, it will be shown with its current outfits in its current world."
				},
				"returns": {
					"_0": "tokenUri The URI representing the SVG."
				}
			},
			"transferOwnership(address)": {
				"details": "Transfers ownership of the contract to a new account (`newOwner`). Can only be called by the current owner."
			},
			"trustedForwarder()": {
				"details": "Returns the address of the trusted forwarder."
			},
			"userOf(address,uint256)": {
				"params": {
					"hook": "The hook address of the collection.",
					"worldId": "The ID of the world being used."
				},
				"returns": {
					"_0": "The ID of the naked banny using the world."
				}
			},
			"wearerOf(address,uint256)": {
				"params": {
					"hook": "The hook address of the collection.",
					"outfitId": "The ID of the outfit being worn."
				},
				"returns": {
					"_0": "The ID of the naked banny wearing the outfit."
				}
			}
		},
		"version": 1
	},
	"userdoc": {
		"kind": "user",
		"methods": {
			"assetIdsOf(address,uint256)": {
				"notice": "The assets currently attached to each Naked Banny."
			},
			"decorateBannyWith(address,uint256,uint256,uint256[])": {
				"notice": "Dress your Naked Banny with outfits."
			},
			"lockOutfitChangesFor(address,uint256,uint256)": {
				"notice": "Locks a naked banny ID so that it can't change its outfit for a period of time."
			},
			"namesOf(address,uint256)": {
				"notice": "Returns the name of the token."
			},
			"outfitLockedUntil(address,address,uint256)": {
				"notice": "The amount of time each naked banny is currently locked for."
			},
			"setProductNames(uint256[],string[])": {
				"notice": "Allows the owner to set the product's name."
			},
			"setSvgBaseUri(string)": {
				"notice": "Allows the owner of this contract to specify the base of the domain hosting the SVG files."
			},
			"setSvgContentsOf(uint256[],string[])": {
				"notice": "The owner of this contract can store SVG files for product IDs."
			},
			"setSvgHashsOf(uint256[],bytes32[])": {
				"notice": "Allows the owner of this contract to upload the hash of an svg file for a universal product code."
			},
			"svgBaseUri()": {
				"notice": "The base of the domain hosting the SVG files that can be lazily uploaded to the contract."
			},
			"svgHashOf(uint256)": {
				"notice": "The Naked Banny and outfit SVG hash files."
			},
			"svgOf(address,uint256,bool,bool)": {
				"notice": "Returns the SVG showing either a naked banny with/without outfits and a world, or the stand alone outfit or world."
			},
			"tokenUriOf(address,uint256)": {
				"notice": "Returns the SVG showing a dressed Naked Banny in a world."
			},
			"userOf(address,uint256)": {
				"notice": "Checks to see which naked banny is currently using a particular world."
			},
			"wearerOf(address,uint256)": {
				"notice": "Checks to see which naked banny is currently wearing a particular outfit."
			}
		},
		"version": 1
	},
	"gitCommit": "2970e15ef4c660a28730eda3fdad51947f109337",
	"sourceName": "src/Banny721TokenUriResolver.sol",
	"chainId": "84532",
	"linkReferences": {},
	"deployedLinkReferences": {},
	"history": []
}